{
	"WatermelonBUSDLottery.sol": {
		"WatermelonBUSDLottery": {
			"abi": [
				{
					"inputs": [],
					"stateMutability": "nonpayable",
					"type": "constructor"
				},
				{
					"anonymous": false,
					"inputs": [
						{
							"indexed": false,
							"internalType": "uint256",
							"name": "_id",
							"type": "uint256"
						},
						{
							"indexed": false,
							"internalType": "uint256",
							"name": "_value",
							"type": "uint256"
						}
					],
					"name": "logshh",
					"type": "event"
				},
				{
					"inputs": [],
					"name": "BusdInterface",
					"outputs": [
						{
							"internalType": "contract IERC20",
							"name": "",
							"type": "address"
						}
					],
					"stateMutability": "view",
					"type": "function"
				},
				{
					"inputs": [],
					"name": "allWinner",
					"outputs": [
						{
							"internalType": "address[]",
							"name": "",
							"type": "address[]"
						}
					],
					"stateMutability": "view",
					"type": "function"
				},
				{
					"inputs": [],
					"name": "allWinner1",
					"outputs": [
						{
							"internalType": "address[]",
							"name": "",
							"type": "address[]"
						}
					],
					"stateMutability": "view",
					"type": "function"
				},
				{
					"inputs": [],
					"name": "allWinner2",
					"outputs": [
						{
							"internalType": "address[]",
							"name": "",
							"type": "address[]"
						}
					],
					"stateMutability": "view",
					"type": "function"
				},
				{
					"inputs": [],
					"name": "announceLottery",
					"outputs": [],
					"stateMutability": "nonpayable",
					"type": "function"
				},
				{
					"inputs": [],
					"name": "announceLottery1",
					"outputs": [],
					"stateMutability": "nonpayable",
					"type": "function"
				},
				{
					"inputs": [],
					"name": "announceLottery2",
					"outputs": [],
					"stateMutability": "nonpayable",
					"type": "function"
				},
				{
					"inputs": [],
					"name": "getLottery1Length",
					"outputs": [
						{
							"internalType": "uint256",
							"name": "",
							"type": "uint256"
						}
					],
					"stateMutability": "view",
					"type": "function"
				},
				{
					"inputs": [],
					"name": "getLottery2Length",
					"outputs": [
						{
							"internalType": "uint256",
							"name": "",
							"type": "uint256"
						}
					],
					"stateMutability": "view",
					"type": "function"
				},
				{
					"inputs": [],
					"name": "getLotteryLength",
					"outputs": [
						{
							"internalType": "uint256",
							"name": "",
							"type": "uint256"
						}
					],
					"stateMutability": "view",
					"type": "function"
				},
				{
					"inputs": [
						{
							"internalType": "address",
							"name": "ad",
							"type": "address"
						}
					],
					"name": "howMany",
					"outputs": [
						{
							"internalType": "uint256",
							"name": "",
							"type": "uint256"
						},
						{
							"internalType": "uint256",
							"name": "",
							"type": "uint256"
						},
						{
							"internalType": "uint256",
							"name": "",
							"type": "uint256"
						}
					],
					"stateMutability": "view",
					"type": "function"
				},
				{
					"inputs": [
						{
							"internalType": "uint256",
							"name": "_amount",
							"type": "uint256"
						}
					],
					"name": "joinLottery",
					"outputs": [],
					"stateMutability": "nonpayable",
					"type": "function"
				},
				{
					"inputs": [
						{
							"internalType": "uint256",
							"name": "_amount",
							"type": "uint256"
						}
					],
					"name": "joinLottery1",
					"outputs": [],
					"stateMutability": "nonpayable",
					"type": "function"
				},
				{
					"inputs": [
						{
							"internalType": "uint256",
							"name": "_amount",
							"type": "uint256"
						}
					],
					"name": "joinLottery2",
					"outputs": [],
					"stateMutability": "nonpayable",
					"type": "function"
				},
				{
					"inputs": [],
					"name": "lotteryBalance",
					"outputs": [
						{
							"internalType": "uint256",
							"name": "",
							"type": "uint256"
						}
					],
					"stateMutability": "view",
					"type": "function"
				},
				{
					"inputs": [],
					"name": "lotteryStarted",
					"outputs": [
						{
							"internalType": "bool",
							"name": "",
							"type": "bool"
						}
					],
					"stateMutability": "view",
					"type": "function"
				},
				{
					"inputs": [
						{
							"internalType": "uint256",
							"name": "_maxNumbers",
							"type": "uint256"
						}
					],
					"name": "setMaximmNumbers",
					"outputs": [],
					"stateMutability": "nonpayable",
					"type": "function"
				},
				{
					"inputs": [
						{
							"internalType": "uint256",
							"name": "_maxNumbers",
							"type": "uint256"
						}
					],
					"name": "setMaximmNumbers1",
					"outputs": [],
					"stateMutability": "nonpayable",
					"type": "function"
				},
				{
					"inputs": [
						{
							"internalType": "uint256",
							"name": "_maxNumbers",
							"type": "uint256"
						}
					],
					"name": "setMaximmNumbers2",
					"outputs": [],
					"stateMutability": "nonpayable",
					"type": "function"
				},
				{
					"inputs": [
						{
							"internalType": "uint256",
							"name": "_valueInEther",
							"type": "uint256"
						}
					],
					"name": "setTicketPrice",
					"outputs": [],
					"stateMutability": "nonpayable",
					"type": "function"
				},
				{
					"inputs": [
						{
							"internalType": "uint256",
							"name": "_valueInEther",
							"type": "uint256"
						}
					],
					"name": "setTicketPrice1",
					"outputs": [],
					"stateMutability": "nonpayable",
					"type": "function"
				},
				{
					"inputs": [
						{
							"internalType": "uint256",
							"name": "_valueInEther",
							"type": "uint256"
						}
					],
					"name": "setTicketPrice2",
					"outputs": [],
					"stateMutability": "nonpayable",
					"type": "function"
				},
				{
					"inputs": [],
					"name": "startLottery",
					"outputs": [],
					"stateMutability": "nonpayable",
					"type": "function"
				},
				{
					"inputs": [],
					"name": "tokenAddress",
					"outputs": [
						{
							"internalType": "address",
							"name": "",
							"type": "address"
						}
					],
					"stateMutability": "view",
					"type": "function"
				},
				{
					"inputs": [],
					"name": "viewTicket",
					"outputs": [
						{
							"internalType": "uint256",
							"name": "",
							"type": "uint256"
						}
					],
					"stateMutability": "view",
					"type": "function"
				},
				{
					"inputs": [],
					"name": "viewTicket1",
					"outputs": [
						{
							"internalType": "uint256",
							"name": "",
							"type": "uint256"
						}
					],
					"stateMutability": "view",
					"type": "function"
				},
				{
					"inputs": [],
					"name": "viewTicket2",
					"outputs": [
						{
							"internalType": "uint256",
							"name": "",
							"type": "uint256"
						}
					],
					"stateMutability": "view",
					"type": "function"
				},
				{
					"inputs": [],
					"name": "viewTicketPrice",
					"outputs": [
						{
							"internalType": "uint256",
							"name": "",
							"type": "uint256"
						}
					],
					"stateMutability": "view",
					"type": "function"
				},
				{
					"inputs": [],
					"name": "viewTicketPrice1",
					"outputs": [
						{
							"internalType": "uint256",
							"name": "",
							"type": "uint256"
						}
					],
					"stateMutability": "view",
					"type": "function"
				},
				{
					"inputs": [],
					"name": "viewTicketPrice2",
					"outputs": [
						{
							"internalType": "uint256",
							"name": "",
							"type": "uint256"
						}
					],
					"stateMutability": "view",
					"type": "function"
				},
				{
					"inputs": [
						{
							"internalType": "uint256",
							"name": "",
							"type": "uint256"
						}
					],
					"name": "winnerLottery",
					"outputs": [
						{
							"internalType": "address",
							"name": "",
							"type": "address"
						}
					],
					"stateMutability": "view",
					"type": "function"
				},
				{
					"inputs": [
						{
							"internalType": "uint256",
							"name": "",
							"type": "uint256"
						}
					],
					"name": "winnerLottery1",
					"outputs": [
						{
							"internalType": "address",
							"name": "",
							"type": "address"
						}
					],
					"stateMutability": "view",
					"type": "function"
				},
				{
					"inputs": [
						{
							"internalType": "uint256",
							"name": "",
							"type": "uint256"
						}
					],
					"name": "winnerLottery2",
					"outputs": [
						{
							"internalType": "address",
							"name": "",
							"type": "address"
						}
					],
					"stateMutability": "view",
					"type": "function"
				}
			],
			"devdoc": {
				"kind": "dev",
				"methods": {},
				"version": 1
			},
			"evm": {
				"assembly": "    /* \"WatermelonBUSDLottery.sol\":7231:18035  contract WatermelonBUSDLottery is ReentrancyGuard {... */\n  mstore(0x40, 0x80)\n    /* \"WatermelonBUSDLottery.sol\":7315:7357  0xEBFDF7A84eB1DD651663782802A818ce36F3e18A */\n  0xebfdf7a84eb1dd651663782802a818ce36f3e18a\n    /* \"WatermelonBUSDLottery.sol\":7288:7357  address private wmlnBusd = 0xEBFDF7A84eB1DD651663782802A818ce36F3e18A */\n  0x00\n  exp(0x0100, 0x01)\n  dup2\n  sload\n  dup2\n  0xffffffffffffffffffffffffffffffffffffffff\n  mul\n  not\n  and\n  swap1\n  dup4\n  0xffffffffffffffffffffffffffffffffffffffff\n  and\n  mul\n  or\n  swap1\n  sstore\n  pop\n    /* \"WatermelonBUSDLottery.sol\":7385:7387  30 */\n  0x1e\n    /* \"WatermelonBUSDLottery.sol\":7363:7387  uint256 private fee = 30 */\n  0x01\n  sstore\n    /* \"WatermelonBUSDLottery.sol\":7913:7918  false */\n  0x00\n    /* \"WatermelonBUSDLottery.sol\":7884:7918  bool public lotteryStarted = false */\n  0x0f\n  exp(0x0100, 0x00)\n  dup2\n  sload\n  dup2\n  0xff\n  mul\n  not\n  and\n  swap1\n  dup4\n  iszero\n  iszero\n  mul\n  or\n  swap1\n  sstore\n  pop\n    /* \"WatermelonBUSDLottery.sol\":8101:8479  constructor()  {  ... */\n  callvalue\n  dup1\n  iszero\n  tag_1\n  jumpi\n  0x00\n  dup1\n  revert\ntag_1:\n  pop\n    /* \"WatermelonBUSDLottery.sol\":8137:8147  msg.sender */\n  caller\n    /* \"WatermelonBUSDLottery.sol\":8128:8133  owner */\n  0x02\n  0x00\n    /* \"WatermelonBUSDLottery.sol\":8128:8147  owner =  msg.sender */\n  0x0100\n  exp\n  dup2\n  sload\n  dup2\n  0xffffffffffffffffffffffffffffffffffffffff\n  mul\n  not\n  and\n  swap1\n  dup4\n  0xffffffffffffffffffffffffffffffffffffffff\n  and\n  mul\n  or\n  swap1\n  sstore\n  pop\n    /* \"WatermelonBUSDLottery.sol\":8181:8184  100 */\n  0x64\n    /* \"WatermelonBUSDLottery.sol\":8157:8178  maxParticipantNumbers */\n  0x03\n    /* \"WatermelonBUSDLottery.sol\":8157:8184  maxParticipantNumbers = 100 */\n  dup2\n  swap1\n  sstore\n  pop\n    /* \"WatermelonBUSDLottery.sol\":8208:8215  1 ether */\n  0x0de0b6b3a7640000\n    /* \"WatermelonBUSDLottery.sol\":8194:8205  ticketPrice */\n  0x05\n    /* \"WatermelonBUSDLottery.sol\":8194:8215  ticketPrice = 1 ether */\n  dup2\n  swap1\n  sstore\n  pop\n    /* \"WatermelonBUSDLottery.sol\":8252:8254  20 */\n  0x14\n    /* \"WatermelonBUSDLottery.sol\":8227:8249  maxParticipantNumbers1 */\n  0x07\n    /* \"WatermelonBUSDLottery.sol\":8227:8254  maxParticipantNumbers1 = 20 */\n  dup2\n  swap1\n  sstore\n  pop\n    /* \"WatermelonBUSDLottery.sol\":8279:8287  10 ether */\n  0x8ac7230489e80000\n    /* \"WatermelonBUSDLottery.sol\":8264:8276  ticketPrice1 */\n  0x09\n    /* \"WatermelonBUSDLottery.sol\":8264:8287  ticketPrice1 = 10 ether */\n  dup2\n  swap1\n  sstore\n  pop\n    /* \"WatermelonBUSDLottery.sol\":8323:8324  3 */\n  0x03\n    /* \"WatermelonBUSDLottery.sol\":8298:8320  maxParticipantNumbers2 */\n  0x0b\n    /* \"WatermelonBUSDLottery.sol\":8298:8324  maxParticipantNumbers2 = 3 */\n  dup2\n  swap1\n  sstore\n  pop\n    /* \"WatermelonBUSDLottery.sol\":8349:8358  100 ether */\n  0x056bc75e2d63100000\n    /* \"WatermelonBUSDLottery.sol\":8334:8346  ticketPrice2 */\n  0x0d\n    /* \"WatermelonBUSDLottery.sol\":8334:8358  ticketPrice2 = 100 ether */\n  dup2\n  swap1\n  sstore\n  pop\n    /* \"WatermelonBUSDLottery.sol\":8384:8426  0xe9e7CEA3DedcA5984780Bafc599bD69ADd087D56 */\n  0xe9e7cea3dedca5984780bafc599bd69add087d56\n    /* \"WatermelonBUSDLottery.sol\":8369:8381  tokenAddress */\n  0x13\n  0x00\n    /* \"WatermelonBUSDLottery.sol\":8369:8426  tokenAddress = 0xe9e7CEA3DedcA5984780Bafc599bD69ADd087D56 */\n  0x0100\n  exp\n  dup2\n  sload\n  dup2\n  0xffffffffffffffffffffffffffffffffffffffff\n  mul\n  not\n  and\n  swap1\n  dup4\n  0xffffffffffffffffffffffffffffffffffffffff\n  and\n  mul\n  or\n  swap1\n  sstore\n  pop\n    /* \"WatermelonBUSDLottery.sol\":8459:8471  tokenAddress */\n  0x13\n  0x00\n  swap1\n  sload\n  swap1\n  0x0100\n  exp\n  swap1\n  div\n  0xffffffffffffffffffffffffffffffffffffffff\n  and\n    /* \"WatermelonBUSDLottery.sol\":8436:8449  BusdInterface */\n  0x14\n  0x00\n    /* \"WatermelonBUSDLottery.sol\":8436:8472  BusdInterface = IERC20(tokenAddress) */\n  0x0100\n  exp\n  dup2\n  sload\n  dup2\n  0xffffffffffffffffffffffffffffffffffffffff\n  mul\n  not\n  and\n  swap1\n  dup4\n  0xffffffffffffffffffffffffffffffffffffffff\n  and\n  mul\n  or\n  swap1\n  sstore\n  pop\n    /* \"WatermelonBUSDLottery.sol\":7231:18035  contract WatermelonBUSDLottery is ReentrancyGuard {... */\n  dataSize(sub_0)\n  dup1\n  dataOffset(sub_0)\n  0x00\n  codecopy\n  0x00\n  return\nstop\n\nsub_0: assembly {\n        /* \"WatermelonBUSDLottery.sol\":7231:18035  contract WatermelonBUSDLottery is ReentrancyGuard {... */\n      mstore(0x40, 0x80)\n      callvalue\n      dup1\n      iszero\n      tag_1\n      jumpi\n      0x00\n      dup1\n      revert\n    tag_1:\n      pop\n      jumpi(tag_2, lt(calldatasize, 0x04))\n      shr(0xe0, calldataload(0x00))\n      dup1\n      0x9d76ea58\n      gt\n      tag_36\n      jumpi\n      dup1\n      0xbe69d7ff\n      gt\n      tag_37\n      jumpi\n      dup1\n      0xe437239f\n      gt\n      tag_38\n      jumpi\n      dup1\n      0xe437239f\n      eq\n      tag_31\n      jumpi\n      dup1\n      0xea6b0480\n      eq\n      tag_32\n      jumpi\n      dup1\n      0xf0c30e95\n      eq\n      tag_33\n      jumpi\n      dup1\n      0xf19e8d86\n      eq\n      tag_34\n      jumpi\n      dup1\n      0xf77f15b5\n      eq\n      tag_35\n      jumpi\n      jump(tag_2)\n    tag_38:\n      dup1\n      0xbe69d7ff\n      eq\n      tag_27\n      jumpi\n      dup1\n      0xce5f6b9f\n      eq\n      tag_28\n      jumpi\n      dup1\n      0xd521cf2a\n      eq\n      tag_29\n      jumpi\n      dup1\n      0xdb486929\n      eq\n      tag_30\n      jumpi\n      jump(tag_2)\n    tag_37:\n      dup1\n      0xa46eeb75\n      gt\n      tag_39\n      jumpi\n      dup1\n      0xa46eeb75\n      eq\n      tag_23\n      jumpi\n      dup1\n      0xa7e9f0d1\n      eq\n      tag_24\n      jumpi\n      dup1\n      0xb2288649\n      eq\n      tag_25\n      jumpi\n      dup1\n      0xb6fa5dfd\n      eq\n      tag_26\n      jumpi\n      jump(tag_2)\n    tag_39:\n      dup1\n      0x9d76ea58\n      eq\n      tag_19\n      jumpi\n      dup1\n      0x9ec80702\n      eq\n      tag_20\n      jumpi\n      dup1\n      0xa0a7bda8\n      eq\n      tag_21\n      jumpi\n      dup1\n      0xa308761a\n      eq\n      tag_22\n      jumpi\n      jump(tag_2)\n    tag_36:\n      dup1\n      0x56e0bd36\n      gt\n      tag_40\n      jumpi\n      dup1\n      0x636ad6a6\n      gt\n      tag_41\n      jumpi\n      dup1\n      0x636ad6a6\n      eq\n      tag_15\n      jumpi\n      dup1\n      0x7eee9fc1\n      eq\n      tag_16\n      jumpi\n      dup1\n      0x8644024b\n      eq\n      tag_17\n      jumpi\n      dup1\n      0x890d542f\n      eq\n      tag_18\n      jumpi\n      jump(tag_2)\n    tag_41:\n      dup1\n      0x56e0bd36\n      eq\n      tag_11\n      jumpi\n      dup1\n      0x576aaa2b\n      eq\n      tag_12\n      jumpi\n      dup1\n      0x5a3811b9\n      eq\n      tag_13\n      jumpi\n      dup1\n      0x602977ad\n      eq\n      tag_14\n      jumpi\n      jump(tag_2)\n    tag_40:\n      dup1\n      0x17c6332c\n      gt\n      tag_42\n      jumpi\n      dup1\n      0x17c6332c\n      eq\n      tag_7\n      jumpi\n      dup1\n      0x3631ef4a\n      eq\n      tag_8\n      jumpi\n      dup1\n      0x3fc7adb6\n      eq\n      tag_9\n      jumpi\n      dup1\n      0x4ba35125\n      eq\n      tag_10\n      jumpi\n      jump(tag_2)\n    tag_42:\n      dup1\n      0x013fc0ab\n      eq\n      tag_3\n      jumpi\n      dup1\n      0x13002437\n      eq\n      tag_4\n      jumpi\n      dup1\n      0x15981650\n      eq\n      tag_5\n      jumpi\n      dup1\n      0x160344e2\n      eq\n      tag_6\n      jumpi\n    tag_2:\n      0x00\n      dup1\n      revert\n        /* \"WatermelonBUSDLottery.sol\":10341:10417  function announceLottery1() public onlyOwner(){... */\n    tag_3:\n      tag_43\n      tag_44\n      jump\t// in\n    tag_43:\n      stop\n        /* \"WatermelonBUSDLottery.sol\":17299:18033  function allWinner2() public view returns(address[] memory){... */\n    tag_4:\n      tag_45\n      tag_46\n      jump\t// in\n    tag_45:\n      mload(0x40)\n      tag_47\n      swap2\n      swap1\n      tag_48\n      jump\t// in\n    tag_47:\n      mload(0x40)\n      dup1\n      swap2\n      sub\n      swap1\n      return\n        /* \"WatermelonBUSDLottery.sol\":8862:8969  function setTicketPrice(uint256 _valueInEther) public onlyOwner{... */\n    tag_5:\n      tag_49\n      0x04\n      dup1\n      calldatasize\n      sub\n      dup2\n      add\n      swap1\n      tag_50\n      swap2\n      swap1\n      tag_51\n      jump\t// in\n    tag_50:\n      tag_52\n      jump\t// in\n    tag_49:\n      stop\n        /* \"WatermelonBUSDLottery.sol\":10180:10260  function startLottery() public onlyOwner(){... */\n    tag_6:\n      tag_53\n      tag_54\n      jump\t// in\n    tag_53:\n      stop\n        /* \"WatermelonBUSDLottery.sol\":9451:9568  function setMaximmNumbers2(uint256 _maxNumbers) public onlyOwner{... */\n    tag_7:\n      tag_55\n      0x04\n      dup1\n      calldatasize\n      sub\n      dup2\n      add\n      swap1\n      tag_56\n      swap2\n      swap1\n      tag_51\n      jump\t// in\n    tag_56:\n      tag_57\n      jump\t// in\n    tag_55:\n      stop\n        /* \"WatermelonBUSDLottery.sol\":11983:12694  function joinLottery2(uint256 _amount)  external notOwner() noReentrant{... */\n    tag_8:\n      tag_58\n      0x04\n      dup1\n      calldatasize\n      sub\n      dup2\n      add\n      swap1\n      tag_59\n      swap2\n      swap1\n      tag_51\n      jump\t// in\n    tag_59:\n      tag_60\n      jump\t// in\n    tag_58:\n      stop\n        /* \"WatermelonBUSDLottery.sol\":9209:9324  function setMaximmNumbers(uint256 _maxNumbers) public onlyOwner{... */\n    tag_9:\n      tag_61\n      0x04\n      dup1\n      calldatasize\n      sub\n      dup2\n      add\n      swap1\n      tag_62\n      swap2\n      swap1\n      tag_51\n      jump\t// in\n    tag_62:\n      tag_63\n      jump\t// in\n    tag_61:\n      stop\n        /* \"WatermelonBUSDLottery.sol\":9329:9446  function setMaximmNumbers1(uint256 _maxNumbers) public onlyOwner{... */\n    tag_10:\n      tag_64\n      0x04\n      dup1\n      calldatasize\n      sub\n      dup2\n      add\n      swap1\n      tag_65\n      swap2\n      swap1\n      tag_51\n      jump\t// in\n    tag_65:\n      tag_66\n      jump\t// in\n    tag_64:\n      stop\n        /* \"WatermelonBUSDLottery.sol\":7960:7991  address[] public winnerLottery1 */\n    tag_11:\n      tag_67\n      0x04\n      dup1\n      calldatasize\n      sub\n      dup2\n      add\n      swap1\n      tag_68\n      swap2\n      swap1\n      tag_51\n      jump\t// in\n    tag_68:\n      tag_69\n      jump\t// in\n    tag_67:\n      mload(0x40)\n      tag_70\n      swap2\n      swap1\n      tag_71\n      jump\t// in\n    tag_70:\n      mload(0x40)\n      dup1\n      swap2\n      sub\n      swap1\n      return\n        /* \"WatermelonBUSDLottery.sol\":12874:12973  function getLotteryLength() public view returns(uint256){... */\n    tag_12:\n      tag_72\n      tag_73\n      jump\t// in\n    tag_72:\n      mload(0x40)\n      tag_74\n      swap2\n      swap1\n      tag_75\n      jump\t// in\n    tag_74:\n      mload(0x40)\n      dup1\n      swap2\n      sub\n      swap1\n      return\n        /* \"WatermelonBUSDLottery.sol\":7884:7918  bool public lotteryStarted = false */\n    tag_13:\n      tag_76\n      tag_77\n      jump\t// in\n    tag_76:\n      mload(0x40)\n      tag_78\n      swap2\n      swap1\n      tag_79\n      jump\t// in\n    tag_78:\n      mload(0x40)\n      dup1\n      swap2\n      sub\n      swap1\n      return\n        /* \"WatermelonBUSDLottery.sol\":13193:14095  function howMany(address ad) public view returns(uint256,uint256,uint256){... */\n    tag_14:\n      tag_80\n      0x04\n      dup1\n      calldatasize\n      sub\n      dup2\n      add\n      swap1\n      tag_81\n      swap2\n      swap1\n      tag_82\n      jump\t// in\n    tag_81:\n      tag_83\n      jump\t// in\n    tag_80:\n      mload(0x40)\n      tag_84\n      swap4\n      swap3\n      swap2\n      swap1\n      tag_85\n      jump\t// in\n    tag_84:\n      mload(0x40)\n      dup1\n      swap2\n      sub\n      swap1\n      return\n        /* \"WatermelonBUSDLottery.sol\":9574:9666  function viewTicketPrice() external view returns(uint256){... */\n    tag_15:\n      tag_86\n      tag_87\n      jump\t// in\n    tag_86:\n      mload(0x40)\n      tag_88\n      swap2\n      swap1\n      tag_75\n      jump\t// in\n    tag_88:\n      mload(0x40)\n      dup1\n      swap2\n      sub\n      swap1\n      return\n        /* \"WatermelonBUSDLottery.sol\":10504:11208  function joinLottery(uint256 _amount) external notOwner() noReentrant{... */\n    tag_16:\n      tag_89\n      0x04\n      dup1\n      calldatasize\n      sub\n      dup2\n      add\n      swap1\n      tag_90\n      swap2\n      swap1\n      tag_51\n      jump\t// in\n    tag_90:\n      tag_91\n      jump\t// in\n    tag_89:\n      stop\n        /* \"WatermelonBUSDLottery.sol\":9770:9864  function viewTicketPrice2() external view returns(uint256){... */\n    tag_17:\n      tag_92\n      tag_93\n      jump\t// in\n    tag_92:\n      mload(0x40)\n      tag_94\n      swap2\n      swap1\n      tag_75\n      jump\t// in\n    tag_94:\n      mload(0x40)\n      dup1\n      swap2\n      sub\n      swap1\n      return\n        /* \"WatermelonBUSDLottery.sol\":7997:8028  address[] public winnerLottery2 */\n    tag_18:\n      tag_95\n      0x04\n      dup1\n      calldatasize\n      sub\n      dup2\n      add\n      swap1\n      tag_96\n      swap2\n      swap1\n      tag_51\n      jump\t// in\n    tag_96:\n      tag_97\n      jump\t// in\n    tag_95:\n      mload(0x40)\n      tag_98\n      swap2\n      swap1\n      tag_71\n      jump\t// in\n    tag_98:\n      mload(0x40)\n      dup1\n      swap2\n      sub\n      swap1\n      return\n        /* \"WatermelonBUSDLottery.sol\":8034:8061  address public tokenAddress */\n    tag_19:\n      tag_99\n      tag_100\n      jump\t// in\n    tag_99:\n      mload(0x40)\n      tag_101\n      swap2\n      swap1\n      tag_71\n      jump\t// in\n    tag_101:\n      mload(0x40)\n      dup1\n      swap2\n      sub\n      swap1\n      return\n        /* \"WatermelonBUSDLottery.sol\":9869:9966  function viewTicket() external view returns(uint256){... */\n    tag_20:\n      tag_102\n      tag_103\n      jump\t// in\n    tag_102:\n      mload(0x40)\n      tag_104\n      swap2\n      swap1\n      tag_75\n      jump\t// in\n    tag_104:\n      mload(0x40)\n      dup1\n      swap2\n      sub\n      swap1\n      return\n        /* \"WatermelonBUSDLottery.sol\":13086:13187  function getLottery2Length() public view returns(uint256){... */\n    tag_21:\n      tag_105\n      tag_106\n      jump\t// in\n    tag_105:\n      mload(0x40)\n      tag_107\n      swap2\n      swap1\n      tag_75\n      jump\t// in\n    tag_107:\n      mload(0x40)\n      dup1\n      swap2\n      sub\n      swap1\n      return\n        /* \"WatermelonBUSDLottery.sol\":9971:10070  function viewTicket1() external view returns(uint256){... */\n    tag_22:\n      tag_108\n      tag_109\n      jump\t// in\n    tag_108:\n      mload(0x40)\n      tag_110\n      swap2\n      swap1\n      tag_75\n      jump\t// in\n    tag_110:\n      mload(0x40)\n      dup1\n      swap2\n      sub\n      swap1\n      return\n        /* \"WatermelonBUSDLottery.sol\":12979:13080  function getLottery1Length() public view returns(uint256){... */\n    tag_23:\n      tag_111\n      tag_112\n      jump\t// in\n    tag_111:\n      mload(0x40)\n      tag_113\n      swap2\n      swap1\n      tag_75\n      jump\t// in\n    tag_113:\n      mload(0x40)\n      dup1\n      swap2\n      sub\n      swap1\n      return\n        /* \"WatermelonBUSDLottery.sol\":15807:16553  function allWinner() public view returns(address[] memory){... */\n    tag_24:\n      tag_114\n      tag_115\n      jump\t// in\n    tag_114:\n      mload(0x40)\n      tag_116\n      swap2\n      swap1\n      tag_48\n      jump\t// in\n    tag_116:\n      mload(0x40)\n      dup1\n      swap2\n      sub\n      swap1\n      return\n        /* \"WatermelonBUSDLottery.sol\":8537:8654  function lotteryBalance() public view returns(uint256) {... */\n    tag_25:\n      tag_117\n      tag_118\n      jump\t// in\n    tag_117:\n      mload(0x40)\n      tag_119\n      swap2\n      swap1\n      tag_75\n      jump\t// in\n    tag_119:\n      mload(0x40)\n      dup1\n      swap2\n      sub\n      swap1\n      return\n        /* \"WatermelonBUSDLottery.sol\":8067:8094  IERC20 public BusdInterface */\n    tag_26:\n      tag_120\n      tag_121\n      jump\t// in\n    tag_120:\n      mload(0x40)\n      tag_122\n      swap2\n      swap1\n      tag_123\n      jump\t// in\n    tag_122:\n      mload(0x40)\n      dup1\n      swap2\n      sub\n      swap1\n      return\n        /* \"WatermelonBUSDLottery.sol\":10418:10494  function announceLottery2() public onlyOwner(){... */\n    tag_27:\n      tag_124\n      tag_125\n      jump\t// in\n    tag_124:\n      stop\n        /* \"WatermelonBUSDLottery.sol\":11214:11973  function joinLottery1(uint256 _amount) external notOwner() noReentrant{... */\n    tag_28:\n      tag_126\n      0x04\n      dup1\n      calldatasize\n      sub\n      dup2\n      add\n      swap1\n      tag_127\n      swap2\n      swap1\n      tag_51\n      jump\t// in\n    tag_127:\n      tag_128\n      jump\t// in\n    tag_126:\n      stop\n        /* \"WatermelonBUSDLottery.sol\":16559:17293  function allWinner1() public view returns(address[] memory){... */\n    tag_29:\n      tag_129\n      tag_130\n      jump\t// in\n    tag_129:\n      mload(0x40)\n      tag_131\n      swap2\n      swap1\n      tag_48\n      jump\t// in\n    tag_131:\n      mload(0x40)\n      dup1\n      swap2\n      sub\n      swap1\n      return\n        /* \"WatermelonBUSDLottery.sol\":10075:10174  function viewTicket2() external view returns(uint256){... */\n    tag_30:\n      tag_132\n      tag_133\n      jump\t// in\n    tag_132:\n      mload(0x40)\n      tag_134\n      swap2\n      swap1\n      tag_75\n      jump\t// in\n    tag_134:\n      mload(0x40)\n      dup1\n      swap2\n      sub\n      swap1\n      return\n        /* \"WatermelonBUSDLottery.sol\":8975:9084  function setTicketPrice1(uint256 _valueInEther) public onlyOwner{... */\n    tag_31:\n      tag_135\n      0x04\n      dup1\n      calldatasize\n      sub\n      dup2\n      add\n      swap1\n      tag_136\n      swap2\n      swap1\n      tag_51\n      jump\t// in\n    tag_136:\n      tag_137\n      jump\t// in\n    tag_135:\n      stop\n        /* \"WatermelonBUSDLottery.sol\":9671:9765  function viewTicketPrice1() external view returns(uint256){... */\n    tag_32:\n      tag_138\n      tag_139\n      jump\t// in\n    tag_138:\n      mload(0x40)\n      tag_140\n      swap2\n      swap1\n      tag_75\n      jump\t// in\n    tag_140:\n      mload(0x40)\n      dup1\n      swap2\n      sub\n      swap1\n      return\n        /* \"WatermelonBUSDLottery.sol\":9090:9199  function setTicketPrice2(uint256 _valueInEther) public onlyOwner{... */\n    tag_33:\n      tag_141\n      0x04\n      dup1\n      calldatasize\n      sub\n      dup2\n      add\n      swap1\n      tag_142\n      swap2\n      swap1\n      tag_51\n      jump\t// in\n    tag_142:\n      tag_143\n      jump\t// in\n    tag_141:\n      stop\n        /* \"WatermelonBUSDLottery.sol\":7924:7954  address[] public winnerLottery */\n    tag_34:\n      tag_144\n      0x04\n      dup1\n      calldatasize\n      sub\n      dup2\n      add\n      swap1\n      tag_145\n      swap2\n      swap1\n      tag_51\n      jump\t// in\n    tag_145:\n      tag_146\n      jump\t// in\n    tag_144:\n      mload(0x40)\n      tag_147\n      swap2\n      swap1\n      tag_71\n      jump\t// in\n    tag_147:\n      mload(0x40)\n      dup1\n      swap2\n      sub\n      swap1\n      return\n        /* \"WatermelonBUSDLottery.sol\":10266:10340  function announceLottery() public onlyOwner(){... */\n    tag_35:\n      tag_148\n      tag_149\n      jump\t// in\n    tag_148:\n      stop\n        /* \"WatermelonBUSDLottery.sol\":10341:10417  function announceLottery1() public onlyOwner(){... */\n    tag_44:\n        /* \"WatermelonBUSDLottery.sol\":8712:8717  owner */\n      0x02\n      0x00\n      swap1\n      sload\n      swap1\n      0x0100\n      exp\n      swap1\n      div\n      0xffffffffffffffffffffffffffffffffffffffff\n      and\n        /* \"WatermelonBUSDLottery.sol\":8698:8717  msg.sender == owner */\n      0xffffffffffffffffffffffffffffffffffffffff\n      and\n        /* \"WatermelonBUSDLottery.sol\":8698:8708  msg.sender */\n      caller\n        /* \"WatermelonBUSDLottery.sol\":8698:8717  msg.sender == owner */\n      0xffffffffffffffffffffffffffffffffffffffff\n      and\n      eq\n        /* \"WatermelonBUSDLottery.sol\":8690:8736  require(msg.sender == owner, \"Access denied!\") */\n      tag_151\n      jumpi\n      mload(0x40)\n      0x08c379a000000000000000000000000000000000000000000000000000000000\n      dup2\n      mstore\n      0x04\n      add\n      tag_152\n      swap1\n      tag_153\n      jump\t// in\n    tag_152:\n      mload(0x40)\n      dup1\n      swap2\n      sub\n      swap1\n      revert\n    tag_151:\n        /* \"WatermelonBUSDLottery.sol\":10397:10410  pickwinner1() */\n      tag_155\n        /* \"WatermelonBUSDLottery.sol\":10397:10408  pickwinner1 */\n      tag_156\n        /* \"WatermelonBUSDLottery.sol\":10397:10410  pickwinner1() */\n      jump\t// in\n    tag_155:\n        /* \"WatermelonBUSDLottery.sol\":10341:10417  function announceLottery1() public onlyOwner(){... */\n      jump\t// out\n        /* \"WatermelonBUSDLottery.sol\":17299:18033  function allWinner2() public view returns(address[] memory){... */\n    tag_46:\n        /* \"WatermelonBUSDLottery.sol\":17341:17357  address[] memory */\n      0x60\n        /* \"WatermelonBUSDLottery.sol\":17368:17391  address[] memory result */\n      0x00\n        /* \"WatermelonBUSDLottery.sol\":17407:17409  17 */\n      0x11\n        /* \"WatermelonBUSDLottery.sol\":17393:17410  new address[](17) */\n      0xffffffffffffffff\n      dup2\n      gt\n      iszero\n      tag_158\n      jumpi\n      tag_159\n      tag_160\n      jump\t// in\n    tag_159:\n    tag_158:\n      mload(0x40)\n      swap1\n      dup1\n      dup3\n      mstore\n      dup1\n      0x20\n      mul\n      0x20\n      add\n      dup3\n      add\n      0x40\n      mstore\n      dup1\n      iszero\n      tag_161\n      jumpi\n      dup2\n      0x20\n      add\n      0x20\n      dup3\n      mul\n      dup1\n      calldatasize\n      dup4\n      calldatacopy\n      dup1\n      dup3\n      add\n      swap2\n      pop\n      pop\n      swap1\n      pop\n    tag_161:\n      pop\n        /* \"WatermelonBUSDLottery.sol\":17368:17410  address[] memory result= new address[](17) */\n      swap1\n      pop\n        /* \"WatermelonBUSDLottery.sol\":17420:17439  uint256 arrayLength */\n      0x00\n        /* \"WatermelonBUSDLottery.sol\":17442:17456  winnerLottery2 */\n      0x12\n        /* \"WatermelonBUSDLottery.sol\":17442:17463  winnerLottery2.length */\n      dup1\n      sload\n      swap1\n      pop\n        /* \"WatermelonBUSDLottery.sol\":17420:17463  uint256 arrayLength = winnerLottery2.length */\n      swap1\n      pop\n        /* \"WatermelonBUSDLottery.sol\":17473:17493  uint256 resultLength */\n      0x00\n        /* \"WatermelonBUSDLottery.sol\":17496:17502  result */\n      dup3\n        /* \"WatermelonBUSDLottery.sol\":17496:17509  result.length */\n      mload\n        /* \"WatermelonBUSDLottery.sol\":17473:17509  uint256 resultLength = result.length */\n      swap1\n      pop\n        /* \"WatermelonBUSDLottery.sol\":17519:17532  uint256 index */\n      0x00\n        /* \"WatermelonBUSDLottery.sol\":17560:17562  10 */\n      0x0a\n        /* \"WatermelonBUSDLottery.sol\":17548:17559  arrayLength */\n      dup4\n        /* \"WatermelonBUSDLottery.sol\":17548:17562  arrayLength>10 */\n      gt\n        /* \"WatermelonBUSDLottery.sol\":17545:18004  if(arrayLength>10){... */\n      iszero\n      tag_162\n      jumpi\n        /* \"WatermelonBUSDLottery.sol\":17582:17591  uint256 i */\n      0x00\n        /* \"WatermelonBUSDLottery.sol\":17592:17603  arrayLength */\n      dup4\n        /* \"WatermelonBUSDLottery.sol\":17582:17603  uint256 i=arrayLength */\n      swap1\n      pop\n        /* \"WatermelonBUSDLottery.sol\":17577:17733  for (uint256 i=arrayLength; i>(arrayLength-10); i--) {... */\n    tag_163:\n        /* \"WatermelonBUSDLottery.sol\":17620:17622  10 */\n      0x0a\n        /* \"WatermelonBUSDLottery.sol\":17608:17619  arrayLength */\n      dup5\n        /* \"WatermelonBUSDLottery.sol\":17608:17622  arrayLength-10 */\n      tag_166\n      swap2\n      swap1\n      tag_167\n      jump\t// in\n    tag_166:\n        /* \"WatermelonBUSDLottery.sol\":17605:17606  i */\n      dup2\n        /* \"WatermelonBUSDLottery.sol\":17605:17623  i>(arrayLength-10) */\n      gt\n        /* \"WatermelonBUSDLottery.sol\":17577:17733  for (uint256 i=arrayLength; i>(arrayLength-10); i--) {... */\n      iszero\n      tag_164\n      jumpi\n        /* \"WatermelonBUSDLottery.sol\":17648:17662  resultLength++ */\n      dup3\n      dup1\n      tag_168\n      swap1\n      tag_169\n      jump\t// in\n    tag_168:\n      swap4\n      pop\n      pop\n        /* \"WatermelonBUSDLottery.sol\":17701:17715  winnerLottery2 */\n      0x12\n        /* \"WatermelonBUSDLottery.sol\":17716:17717  i */\n      dup2\n        /* \"WatermelonBUSDLottery.sol\":17701:17718  winnerLottery2[i] */\n      dup2\n      sload\n      dup2\n      lt\n      tag_170\n      jumpi\n      tag_171\n      tag_172\n      jump\t// in\n    tag_171:\n    tag_170:\n      swap1\n      0x00\n      mstore\n      keccak256(0x00, 0x20)\n      add\n      0x00\n      swap1\n      sload\n      swap1\n      0x0100\n      exp\n      swap1\n      div\n      0xffffffffffffffffffffffffffffffffffffffff\n      and\n        /* \"WatermelonBUSDLottery.sol\":17680:17686  result */\n      dup6\n        /* \"WatermelonBUSDLottery.sol\":17687:17699  resultLength */\n      dup5\n        /* \"WatermelonBUSDLottery.sol\":17680:17700  result[resultLength] */\n      dup2\n      mload\n      dup2\n      lt\n      tag_174\n      jumpi\n      tag_175\n      tag_172\n      jump\t// in\n    tag_175:\n    tag_174:\n      0x20\n      mul\n      0x20\n      add\n      add\n        /* \"WatermelonBUSDLottery.sol\":17680:17718  result[resultLength]=winnerLottery2[i] */\n      swap1\n      0xffffffffffffffffffffffffffffffffffffffff\n      and\n      swap1\n      dup2\n      0xffffffffffffffffffffffffffffffffffffffff\n      and\n      dup2\n      mstore\n      pop\n      pop\n        /* \"WatermelonBUSDLottery.sol\":17625:17628  i-- */\n      dup1\n      dup1\n      tag_176\n      swap1\n      tag_177\n      jump\t// in\n    tag_176:\n      swap2\n      pop\n      pop\n        /* \"WatermelonBUSDLottery.sol\":17577:17733  for (uint256 i=arrayLength; i>(arrayLength-10); i--) {... */\n      jump(tag_163)\n    tag_164:\n      pop\n        /* \"WatermelonBUSDLottery.sol\":17545:18004  if(arrayLength>10){... */\n      jump(tag_178)\n    tag_162:\n        /* \"WatermelonBUSDLottery.sol\":17776:17785  uint256 i */\n      0x00\n        /* \"WatermelonBUSDLottery.sol\":17786:17797  arrayLength */\n      dup4\n        /* \"WatermelonBUSDLottery.sol\":17776:17797  uint256 i=arrayLength */\n      swap1\n      pop\n        /* \"WatermelonBUSDLottery.sol\":17771:17994  for (uint256 i=arrayLength; i>0; i--) {... */\n    tag_179:\n        /* \"WatermelonBUSDLottery.sol\":17801:17802  0 */\n      0x00\n        /* \"WatermelonBUSDLottery.sol\":17799:17800  i */\n      dup2\n        /* \"WatermelonBUSDLottery.sol\":17799:17802  i>0 */\n      gt\n        /* \"WatermelonBUSDLottery.sol\":17771:17994  for (uint256 i=arrayLength; i>0; i--) {... */\n      iszero\n      tag_180\n      jumpi\n        /* \"WatermelonBUSDLottery.sol\":17827:17841  resultLength++ */\n      dup3\n      dup1\n      tag_182\n      swap1\n      tag_169\n      jump\t// in\n    tag_182:\n      swap4\n      pop\n      pop\n        /* \"WatermelonBUSDLottery.sol\":17859:17883  address payable _address */\n      0x00\n        /* \"WatermelonBUSDLottery.sol\":17894:17908  winnerLottery2 */\n      0x12\n        /* \"WatermelonBUSDLottery.sol\":17911:17912  1 */\n      0x01\n        /* \"WatermelonBUSDLottery.sol\":17909:17910  i */\n      dup4\n        /* \"WatermelonBUSDLottery.sol\":17909:17912  i-1 */\n      tag_183\n      swap2\n      swap1\n      tag_167\n      jump\t// in\n    tag_183:\n        /* \"WatermelonBUSDLottery.sol\":17894:17913  winnerLottery2[i-1] */\n      dup2\n      sload\n      dup2\n      lt\n      tag_184\n      jumpi\n      tag_185\n      tag_172\n      jump\t// in\n    tag_185:\n    tag_184:\n      swap1\n      0x00\n      mstore\n      keccak256(0x00, 0x20)\n      add\n      0x00\n      swap1\n      sload\n      swap1\n      0x0100\n      exp\n      swap1\n      div\n      0xffffffffffffffffffffffffffffffffffffffff\n      and\n        /* \"WatermelonBUSDLottery.sol\":17859:17914  address payable _address = payable(winnerLottery2[i-1]) */\n      swap1\n      pop\n        /* \"WatermelonBUSDLottery.sol\":17946:17954  _address */\n      dup1\n        /* \"WatermelonBUSDLottery.sol\":17932:17938  result */\n      dup7\n        /* \"WatermelonBUSDLottery.sol\":17939:17944  index */\n      dup5\n        /* \"WatermelonBUSDLottery.sol\":17932:17945  result[index] */\n      dup2\n      mload\n      dup2\n      lt\n      tag_187\n      jumpi\n      tag_188\n      tag_172\n      jump\t// in\n    tag_188:\n    tag_187:\n      0x20\n      mul\n      0x20\n      add\n      add\n        /* \"WatermelonBUSDLottery.sol\":17932:17954  result[index]=_address */\n      swap1\n      0xffffffffffffffffffffffffffffffffffffffff\n      and\n      swap1\n      dup2\n      0xffffffffffffffffffffffffffffffffffffffff\n      and\n      dup2\n      mstore\n      pop\n      pop\n        /* \"WatermelonBUSDLottery.sol\":17972:17979  index++ */\n      dup3\n      dup1\n      tag_189\n      swap1\n      tag_169\n      jump\t// in\n    tag_189:\n      swap4\n      pop\n      pop\n        /* \"WatermelonBUSDLottery.sol\":17809:17994  {... */\n      pop\n        /* \"WatermelonBUSDLottery.sol\":17804:17807  i-- */\n      dup1\n      dup1\n      tag_190\n      swap1\n      tag_177\n      jump\t// in\n    tag_190:\n      swap2\n      pop\n      pop\n        /* \"WatermelonBUSDLottery.sol\":17771:17994  for (uint256 i=arrayLength; i>0; i--) {... */\n      jump(tag_179)\n    tag_180:\n      pop\n        /* \"WatermelonBUSDLottery.sol\":17545:18004  if(arrayLength>10){... */\n    tag_178:\n        /* \"WatermelonBUSDLottery.sol\":18020:18026  result */\n      dup4\n        /* \"WatermelonBUSDLottery.sol\":18013:18026  return result */\n      swap5\n      pop\n      pop\n      pop\n      pop\n      pop\n        /* \"WatermelonBUSDLottery.sol\":17299:18033  function allWinner2() public view returns(address[] memory){... */\n      swap1\n      jump\t// out\n        /* \"WatermelonBUSDLottery.sol\":8862:8969  function setTicketPrice(uint256 _valueInEther) public onlyOwner{... */\n    tag_52:\n        /* \"WatermelonBUSDLottery.sol\":8712:8717  owner */\n      0x02\n      0x00\n      swap1\n      sload\n      swap1\n      0x0100\n      exp\n      swap1\n      div\n      0xffffffffffffffffffffffffffffffffffffffff\n      and\n        /* \"WatermelonBUSDLottery.sol\":8698:8717  msg.sender == owner */\n      0xffffffffffffffffffffffffffffffffffffffff\n      and\n        /* \"WatermelonBUSDLottery.sol\":8698:8708  msg.sender */\n      caller\n        /* \"WatermelonBUSDLottery.sol\":8698:8717  msg.sender == owner */\n      0xffffffffffffffffffffffffffffffffffffffff\n      and\n      eq\n        /* \"WatermelonBUSDLottery.sol\":8690:8736  require(msg.sender == owner, \"Access denied!\") */\n      tag_192\n      jumpi\n      mload(0x40)\n      0x08c379a000000000000000000000000000000000000000000000000000000000\n      dup2\n      mstore\n      0x04\n      add\n      tag_193\n      swap1\n      tag_153\n      jump\t// in\n    tag_193:\n      mload(0x40)\n      dup1\n      swap2\n      sub\n      swap1\n      revert\n    tag_192:\n        /* \"WatermelonBUSDLottery.sol\":8949:8962  _valueInEther */\n      dup1\n        /* \"WatermelonBUSDLottery.sol\":8935:8946  ticketPrice */\n      0x05\n        /* \"WatermelonBUSDLottery.sol\":8935:8962  ticketPrice = _valueInEther */\n      dup2\n      swap1\n      sstore\n      pop\n        /* \"WatermelonBUSDLottery.sol\":8862:8969  function setTicketPrice(uint256 _valueInEther) public onlyOwner{... */\n      pop\n      jump\t// out\n        /* \"WatermelonBUSDLottery.sol\":10180:10260  function startLottery() public onlyOwner(){... */\n    tag_54:\n        /* \"WatermelonBUSDLottery.sol\":8712:8717  owner */\n      0x02\n      0x00\n      swap1\n      sload\n      swap1\n      0x0100\n      exp\n      swap1\n      div\n      0xffffffffffffffffffffffffffffffffffffffff\n      and\n        /* \"WatermelonBUSDLottery.sol\":8698:8717  msg.sender == owner */\n      0xffffffffffffffffffffffffffffffffffffffff\n      and\n        /* \"WatermelonBUSDLottery.sol\":8698:8708  msg.sender */\n      caller\n        /* \"WatermelonBUSDLottery.sol\":8698:8717  msg.sender == owner */\n      0xffffffffffffffffffffffffffffffffffffffff\n      and\n      eq\n        /* \"WatermelonBUSDLottery.sol\":8690:8736  require(msg.sender == owner, \"Access denied!\") */\n      tag_196\n      jumpi\n      mload(0x40)\n      0x08c379a000000000000000000000000000000000000000000000000000000000\n      dup2\n      mstore\n      0x04\n      add\n      tag_197\n      swap1\n      tag_153\n      jump\t// in\n    tag_197:\n      mload(0x40)\n      dup1\n      swap2\n      sub\n      swap1\n      revert\n    tag_196:\n        /* \"WatermelonBUSDLottery.sol\":10249:10253  true */\n      0x01\n        /* \"WatermelonBUSDLottery.sol\":10232:10246  lotteryStarted */\n      0x0f\n      0x00\n        /* \"WatermelonBUSDLottery.sol\":10232:10253  lotteryStarted = true */\n      0x0100\n      exp\n      dup2\n      sload\n      dup2\n      0xff\n      mul\n      not\n      and\n      swap1\n      dup4\n      iszero\n      iszero\n      mul\n      or\n      swap1\n      sstore\n      pop\n        /* \"WatermelonBUSDLottery.sol\":10180:10260  function startLottery() public onlyOwner(){... */\n      jump\t// out\n        /* \"WatermelonBUSDLottery.sol\":9451:9568  function setMaximmNumbers2(uint256 _maxNumbers) public onlyOwner{... */\n    tag_57:\n        /* \"WatermelonBUSDLottery.sol\":8712:8717  owner */\n      0x02\n      0x00\n      swap1\n      sload\n      swap1\n      0x0100\n      exp\n      swap1\n      div\n      0xffffffffffffffffffffffffffffffffffffffff\n      and\n        /* \"WatermelonBUSDLottery.sol\":8698:8717  msg.sender == owner */\n      0xffffffffffffffffffffffffffffffffffffffff\n      and\n        /* \"WatermelonBUSDLottery.sol\":8698:8708  msg.sender */\n      caller\n        /* \"WatermelonBUSDLottery.sol\":8698:8717  msg.sender == owner */\n      0xffffffffffffffffffffffffffffffffffffffff\n      and\n      eq\n        /* \"WatermelonBUSDLottery.sol\":8690:8736  require(msg.sender == owner, \"Access denied!\") */\n      tag_200\n      jumpi\n      mload(0x40)\n      0x08c379a000000000000000000000000000000000000000000000000000000000\n      dup2\n      mstore\n      0x04\n      add\n      tag_201\n      swap1\n      tag_153\n      jump\t// in\n    tag_201:\n      mload(0x40)\n      dup1\n      swap2\n      sub\n      swap1\n      revert\n    tag_200:\n        /* \"WatermelonBUSDLottery.sol\":9550:9561  _maxNumbers */\n      dup1\n        /* \"WatermelonBUSDLottery.sol\":9525:9547  maxParticipantNumbers2 */\n      0x0b\n        /* \"WatermelonBUSDLottery.sol\":9525:9561  maxParticipantNumbers2 = _maxNumbers */\n      dup2\n      swap1\n      sstore\n      pop\n        /* \"WatermelonBUSDLottery.sol\":9451:9568  function setMaximmNumbers2(uint256 _maxNumbers) public onlyOwner{... */\n      pop\n      jump\t// out\n        /* \"WatermelonBUSDLottery.sol\":11983:12694  function joinLottery2(uint256 _amount)  external notOwner() noReentrant{... */\n    tag_60:\n        /* \"WatermelonBUSDLottery.sol\":8810:8815  owner */\n      0x02\n      0x00\n      swap1\n      sload\n      swap1\n      0x0100\n      exp\n      swap1\n      div\n      0xffffffffffffffffffffffffffffffffffffffff\n      and\n        /* \"WatermelonBUSDLottery.sol\":8796:8815  msg.sender != owner */\n      0xffffffffffffffffffffffffffffffffffffffff\n      and\n        /* \"WatermelonBUSDLottery.sol\":8796:8806  msg.sender */\n      caller\n        /* \"WatermelonBUSDLottery.sol\":8796:8815  msg.sender != owner */\n      0xffffffffffffffffffffffffffffffffffffffff\n      and\n      sub\n        /* \"WatermelonBUSDLottery.sol\":8788:8834  require(msg.sender != owner, \"Access denied!\") */\n      tag_204\n      jumpi\n      mload(0x40)\n      0x08c379a000000000000000000000000000000000000000000000000000000000\n      dup2\n      mstore\n      0x04\n      add\n      tag_205\n      swap1\n      tag_153\n      jump\t// in\n    tag_205:\n      mload(0x40)\n      dup1\n      swap2\n      sub\n      swap1\n      revert\n    tag_204:\n        /* \"WatermelonBUSDLottery.sol\":7137:7143  locked */\n      0x00\n      dup1\n      sload\n      swap1\n      0x0100\n      exp\n      swap1\n      div\n      0xff\n      and\n        /* \"WatermelonBUSDLottery.sol\":7136:7143  !locked */\n      iszero\n        /* \"WatermelonBUSDLottery.sol\":7128:7162  require(!locked, \"No re-entrancy\") */\n      tag_207\n      jumpi\n      mload(0x40)\n      0x08c379a000000000000000000000000000000000000000000000000000000000\n      dup2\n      mstore\n      0x04\n      add\n      tag_208\n      swap1\n      tag_209\n      jump\t// in\n    tag_208:\n      mload(0x40)\n      dup1\n      swap2\n      sub\n      swap1\n      revert\n    tag_207:\n        /* \"WatermelonBUSDLottery.sol\":7181:7185  true */\n      0x01\n        /* \"WatermelonBUSDLottery.sol\":7172:7178  locked */\n      0x00\n      dup1\n        /* \"WatermelonBUSDLottery.sol\":7172:7185  locked = true */\n      0x0100\n      exp\n      dup2\n      sload\n      dup2\n      0xff\n      mul\n      not\n      and\n      swap1\n      dup4\n      iszero\n      iszero\n      mul\n      or\n      swap1\n      sstore\n      pop\n        /* \"WatermelonBUSDLottery.sol\":12072:12086  lotteryStarted */\n      0x0f\n      0x00\n      swap1\n      sload\n      swap1\n      0x0100\n      exp\n      swap1\n      div\n      0xff\n      and\n        /* \"WatermelonBUSDLottery.sol\":12064:12118  require(lotteryStarted , \"Lottery is not started yet\") */\n      tag_211\n      jumpi\n      mload(0x40)\n      0x08c379a000000000000000000000000000000000000000000000000000000000\n      dup2\n      mstore\n      0x04\n      add\n      tag_212\n      swap1\n      tag_213\n      jump\t// in\n    tag_212:\n      mload(0x40)\n      dup1\n      swap2\n      sub\n      swap1\n      revert\n    tag_211:\n        /* \"WatermelonBUSDLottery.sol\":12147:12159  ticketPrice2 */\n      sload(0x0d)\n        /* \"WatermelonBUSDLottery.sol\":12136:12143  _amount */\n      dup2\n        /* \"WatermelonBUSDLottery.sol\":12136:12159  _amount == ticketPrice2 */\n      eq\n        /* \"WatermelonBUSDLottery.sol\":12128:12172  require(_amount == ticketPrice2,\"Not Same\" ) */\n      tag_214\n      jumpi\n      mload(0x40)\n      0x08c379a000000000000000000000000000000000000000000000000000000000\n      dup2\n      mstore\n      0x04\n      add\n      tag_215\n      swap1\n      tag_216\n      jump\t// in\n    tag_215:\n      mload(0x40)\n      dup1\n      swap2\n      sub\n      swap1\n      revert\n    tag_214:\n        /* \"WatermelonBUSDLottery.sol\":12182:12190  bool chk */\n      0x00\n        /* \"WatermelonBUSDLottery.sol\":12192:12205  BusdInterface */\n      0x14\n      0x00\n      swap1\n      sload\n      swap1\n      0x0100\n      exp\n      swap1\n      div\n      0xffffffffffffffffffffffffffffffffffffffff\n      and\n        /* \"WatermelonBUSDLottery.sol\":12192:12218  BusdInterface.transferFrom */\n      0xffffffffffffffffffffffffffffffffffffffff\n      and\n      0x23b872dd\n        /* \"WatermelonBUSDLottery.sol\":12219:12229  msg.sender */\n      caller\n        /* \"WatermelonBUSDLottery.sol\":12238:12242  this */\n      address\n        /* \"WatermelonBUSDLottery.sol\":12244:12251  _amount */\n      dup6\n        /* \"WatermelonBUSDLottery.sol\":12192:12252  BusdInterface.transferFrom(msg.sender,address(this),_amount) */\n      mload(0x40)\n      dup5\n      0xffffffff\n      and\n      0xe0\n      shl\n      dup2\n      mstore\n      0x04\n      add\n      tag_217\n      swap4\n      swap3\n      swap2\n      swap1\n      tag_218\n      jump\t// in\n    tag_217:\n      0x20\n      mload(0x40)\n      dup1\n      dup4\n      sub\n      dup2\n      0x00\n      dup8\n      gas\n      call\n      iszero\n      dup1\n      iszero\n      tag_220\n      jumpi\n      returndatasize\n      0x00\n      dup1\n      returndatacopy\n      revert(0x00, returndatasize)\n    tag_220:\n      pop\n      pop\n      pop\n      pop\n      mload(0x40)\n      returndatasize\n      not(0x1f)\n      0x1f\n      dup3\n      add\n      and\n      dup3\n      add\n      dup1\n      0x40\n      mstore\n      pop\n      dup2\n      add\n      swap1\n      tag_221\n      swap2\n      swap1\n      tag_222\n      jump\t// in\n    tag_221:\n        /* \"WatermelonBUSDLottery.sol\":12182:12252  bool chk= BusdInterface.transferFrom(msg.sender,address(this),_amount) */\n      swap1\n      pop\n        /* \"WatermelonBUSDLottery.sol\":12265:12268  chk */\n      dup1\n        /* \"WatermelonBUSDLottery.sol\":12262:12688  if(chk){... */\n      iszero\n      tag_223\n      jumpi\n        /* \"WatermelonBUSDLottery.sol\":12309:12331  maxParticipantNumbers2 */\n      sload(0x0b)\n        /* \"WatermelonBUSDLottery.sol\":12287:12306  participantNumbers2 */\n      sload(0x0c)\n        /* \"WatermelonBUSDLottery.sol\":12287:12331  participantNumbers2 < maxParticipantNumbers2 */\n      lt\n        /* \"WatermelonBUSDLottery.sol\":12283:12678  if (participantNumbers2 < maxParticipantNumbers2){... */\n      iszero\n      tag_224\n      jumpi\n        /* \"WatermelonBUSDLottery.sol\":12350:12363  participants2 */\n      0x0e\n        /* \"WatermelonBUSDLottery.sol\":12377:12387  msg.sender */\n      caller\n        /* \"WatermelonBUSDLottery.sol\":12350:12389  participants2.push(payable(msg.sender)) */\n      swap1\n      dup1\n      0x01\n      dup2\n      sload\n      add\n      dup1\n      dup3\n      sstore\n      dup1\n      swap2\n      pop\n      pop\n      0x01\n      swap1\n      sub\n      swap1\n      0x00\n      mstore\n      keccak256(0x00, 0x20)\n      add\n      0x00\n      swap1\n      swap2\n      swap1\n      swap2\n      swap1\n      swap2\n      0x0100\n      exp\n      dup2\n      sload\n      dup2\n      0xffffffffffffffffffffffffffffffffffffffff\n      mul\n      not\n      and\n      swap1\n      dup4\n      0xffffffffffffffffffffffffffffffffffffffff\n      and\n      mul\n      or\n      swap1\n      sstore\n      pop\n        /* \"WatermelonBUSDLottery.sol\":12407:12426  participantNumbers2 */\n      0x0c\n      0x00\n        /* \"WatermelonBUSDLottery.sol\":12407:12428  participantNumbers2++ */\n      dup2\n      sload\n      dup1\n      swap3\n      swap2\n      swap1\n      tag_226\n      swap1\n      tag_169\n      jump\t// in\n    tag_226:\n      swap2\n      swap1\n      pop\n      sstore\n      pop\n        /* \"WatermelonBUSDLottery.sol\":12473:12495  maxParticipantNumbers2 */\n      sload(0x0b)\n        /* \"WatermelonBUSDLottery.sol\":12450:12469  participantNumbers2 */\n      sload(0x0c)\n        /* \"WatermelonBUSDLottery.sol\":12450:12495  participantNumbers2 == maxParticipantNumbers2 */\n      sub\n        /* \"WatermelonBUSDLottery.sol\":12446:12550  if (participantNumbers2 == maxParticipantNumbers2){... */\n      tag_227\n      jumpi\n        /* \"WatermelonBUSDLottery.sol\":12518:12531  pickwinner2() */\n      tag_228\n        /* \"WatermelonBUSDLottery.sol\":12518:12529  pickwinner2 */\n      tag_229\n        /* \"WatermelonBUSDLottery.sol\":12518:12531  pickwinner2() */\n      jump\t// in\n    tag_228:\n        /* \"WatermelonBUSDLottery.sol\":12446:12550  if (participantNumbers2 == maxParticipantNumbers2){... */\n    tag_227:\n        /* \"WatermelonBUSDLottery.sol\":12283:12678  if (participantNumbers2 < maxParticipantNumbers2){... */\n      jump(tag_230)\n    tag_224:\n        /* \"WatermelonBUSDLottery.sol\":12609:12631  maxParticipantNumbers2 */\n      sload(0x0b)\n        /* \"WatermelonBUSDLottery.sol\":12586:12605  participantNumbers2 */\n      sload(0x0c)\n        /* \"WatermelonBUSDLottery.sol\":12586:12631  participantNumbers2 == maxParticipantNumbers2 */\n      sub\n        /* \"WatermelonBUSDLottery.sol\":12582:12678  if (participantNumbers2 == maxParticipantNumbers2){... */\n      tag_231\n      jumpi\n        /* \"WatermelonBUSDLottery.sol\":12650:12663  pickwinner2() */\n      tag_232\n        /* \"WatermelonBUSDLottery.sol\":12650:12661  pickwinner2 */\n      tag_229\n        /* \"WatermelonBUSDLottery.sol\":12650:12663  pickwinner2() */\n      jump\t// in\n    tag_232:\n        /* \"WatermelonBUSDLottery.sol\":12582:12678  if (participantNumbers2 == maxParticipantNumbers2){... */\n    tag_231:\n        /* \"WatermelonBUSDLottery.sol\":12283:12678  if (participantNumbers2 < maxParticipantNumbers2){... */\n    tag_230:\n        /* \"WatermelonBUSDLottery.sol\":12262:12688  if(chk){... */\n    tag_223:\n        /* \"WatermelonBUSDLottery.sol\":12054:12694  {... */\n      pop\n        /* \"WatermelonBUSDLottery.sol\":7215:7220  false */\n      0x00\n        /* \"WatermelonBUSDLottery.sol\":7206:7212  locked */\n      dup1\n      0x00\n        /* \"WatermelonBUSDLottery.sol\":7206:7220  locked = false */\n      0x0100\n      exp\n      dup2\n      sload\n      dup2\n      0xff\n      mul\n      not\n      and\n      swap1\n      dup4\n      iszero\n      iszero\n      mul\n      or\n      swap1\n      sstore\n      pop\n        /* \"WatermelonBUSDLottery.sol\":11983:12694  function joinLottery2(uint256 _amount)  external notOwner() noReentrant{... */\n      pop\n      jump\t// out\n        /* \"WatermelonBUSDLottery.sol\":9209:9324  function setMaximmNumbers(uint256 _maxNumbers) public onlyOwner{... */\n    tag_63:\n        /* \"WatermelonBUSDLottery.sol\":8712:8717  owner */\n      0x02\n      0x00\n      swap1\n      sload\n      swap1\n      0x0100\n      exp\n      swap1\n      div\n      0xffffffffffffffffffffffffffffffffffffffff\n      and\n        /* \"WatermelonBUSDLottery.sol\":8698:8717  msg.sender == owner */\n      0xffffffffffffffffffffffffffffffffffffffff\n      and\n        /* \"WatermelonBUSDLottery.sol\":8698:8708  msg.sender */\n      caller\n        /* \"WatermelonBUSDLottery.sol\":8698:8717  msg.sender == owner */\n      0xffffffffffffffffffffffffffffffffffffffff\n      and\n      eq\n        /* \"WatermelonBUSDLottery.sol\":8690:8736  require(msg.sender == owner, \"Access denied!\") */\n      tag_234\n      jumpi\n      mload(0x40)\n      0x08c379a000000000000000000000000000000000000000000000000000000000\n      dup2\n      mstore\n      0x04\n      add\n      tag_235\n      swap1\n      tag_153\n      jump\t// in\n    tag_235:\n      mload(0x40)\n      dup1\n      swap2\n      sub\n      swap1\n      revert\n    tag_234:\n        /* \"WatermelonBUSDLottery.sol\":9306:9317  _maxNumbers */\n      dup1\n        /* \"WatermelonBUSDLottery.sol\":9282:9303  maxParticipantNumbers */\n      0x03\n        /* \"WatermelonBUSDLottery.sol\":9282:9317  maxParticipantNumbers = _maxNumbers */\n      dup2\n      swap1\n      sstore\n      pop\n        /* \"WatermelonBUSDLottery.sol\":9209:9324  function setMaximmNumbers(uint256 _maxNumbers) public onlyOwner{... */\n      pop\n      jump\t// out\n        /* \"WatermelonBUSDLottery.sol\":9329:9446  function setMaximmNumbers1(uint256 _maxNumbers) public onlyOwner{... */\n    tag_66:\n        /* \"WatermelonBUSDLottery.sol\":8712:8717  owner */\n      0x02\n      0x00\n      swap1\n      sload\n      swap1\n      0x0100\n      exp\n      swap1\n      div\n      0xffffffffffffffffffffffffffffffffffffffff\n      and\n        /* \"WatermelonBUSDLottery.sol\":8698:8717  msg.sender == owner */\n      0xffffffffffffffffffffffffffffffffffffffff\n      and\n        /* \"WatermelonBUSDLottery.sol\":8698:8708  msg.sender */\n      caller\n        /* \"WatermelonBUSDLottery.sol\":8698:8717  msg.sender == owner */\n      0xffffffffffffffffffffffffffffffffffffffff\n      and\n      eq\n        /* \"WatermelonBUSDLottery.sol\":8690:8736  require(msg.sender == owner, \"Access denied!\") */\n      tag_238\n      jumpi\n      mload(0x40)\n      0x08c379a000000000000000000000000000000000000000000000000000000000\n      dup2\n      mstore\n      0x04\n      add\n      tag_239\n      swap1\n      tag_153\n      jump\t// in\n    tag_239:\n      mload(0x40)\n      dup1\n      swap2\n      sub\n      swap1\n      revert\n    tag_238:\n        /* \"WatermelonBUSDLottery.sol\":9428:9439  _maxNumbers */\n      dup1\n        /* \"WatermelonBUSDLottery.sol\":9403:9425  maxParticipantNumbers1 */\n      0x07\n        /* \"WatermelonBUSDLottery.sol\":9403:9439  maxParticipantNumbers1 = _maxNumbers */\n      dup2\n      swap1\n      sstore\n      pop\n        /* \"WatermelonBUSDLottery.sol\":9329:9446  function setMaximmNumbers1(uint256 _maxNumbers) public onlyOwner{... */\n      pop\n      jump\t// out\n        /* \"WatermelonBUSDLottery.sol\":7960:7991  address[] public winnerLottery1 */\n    tag_69:\n      0x11\n      dup2\n      dup2\n      sload\n      dup2\n      lt\n      tag_241\n      jumpi\n      0x00\n      dup1\n      revert\n    tag_241:\n      swap1\n      0x00\n      mstore\n      keccak256(0x00, 0x20)\n      add\n      0x00\n      swap2\n      pop\n      sload\n      swap1\n      0x0100\n      exp\n      swap1\n      div\n      0xffffffffffffffffffffffffffffffffffffffff\n      and\n      dup2\n      jump\t// out\n        /* \"WatermelonBUSDLottery.sol\":12874:12973  function getLotteryLength() public view returns(uint256){... */\n    tag_73:\n        /* \"WatermelonBUSDLottery.sol\":12922:12929  uint256 */\n      0x00\n        /* \"WatermelonBUSDLottery.sol\":12947:12959  participants */\n      0x06\n        /* \"WatermelonBUSDLottery.sol\":12947:12966  participants.length */\n      dup1\n      sload\n      swap1\n      pop\n        /* \"WatermelonBUSDLottery.sol\":12940:12966  return participants.length */\n      swap1\n      pop\n        /* \"WatermelonBUSDLottery.sol\":12874:12973  function getLotteryLength() public view returns(uint256){... */\n      swap1\n      jump\t// out\n        /* \"WatermelonBUSDLottery.sol\":7884:7918  bool public lotteryStarted = false */\n    tag_77:\n      0x0f\n      0x00\n      swap1\n      sload\n      swap1\n      0x0100\n      exp\n      swap1\n      div\n      0xff\n      and\n      dup2\n      jump\t// out\n        /* \"WatermelonBUSDLottery.sol\":13193:14095  function howMany(address ad) public view returns(uint256,uint256,uint256){... */\n    tag_83:\n        /* \"WatermelonBUSDLottery.sol\":13242:13249  uint256 */\n      0x00\n        /* \"WatermelonBUSDLottery.sol\":13250:13257  uint256 */\n      dup1\n        /* \"WatermelonBUSDLottery.sol\":13258:13265  uint256 */\n      0x00\n        /* \"WatermelonBUSDLottery.sol\":13276:13287  uint256 lHm */\n      dup1\n        /* \"WatermelonBUSDLottery.sol\":13288:13289  0 */\n      0x00\n        /* \"WatermelonBUSDLottery.sol\":13276:13289  uint256 lHm=0 */\n      swap1\n      pop\n        /* \"WatermelonBUSDLottery.sol\":13299:13311  uint256 lHm1 */\n      0x00\n        /* \"WatermelonBUSDLottery.sol\":13323:13335  uint256 lHm2 */\n      dup1\n        /* \"WatermelonBUSDLottery.sol\":13347:13363  uint arrayLength */\n      0x00\n        /* \"WatermelonBUSDLottery.sol\":13366:13378  participants */\n      0x06\n        /* \"WatermelonBUSDLottery.sol\":13366:13385  participants.length */\n      dup1\n      sload\n      swap1\n      pop\n        /* \"WatermelonBUSDLottery.sol\":13347:13385  uint arrayLength = participants.length */\n      swap1\n      pop\n        /* \"WatermelonBUSDLottery.sol\":13411:13412  0 */\n      0x00\n        /* \"WatermelonBUSDLottery.sol\":13398:13409  arrayLength */\n      dup2\n        /* \"WatermelonBUSDLottery.sol\":13398:13412  arrayLength!=0 */\n      eq\n        /* \"WatermelonBUSDLottery.sol\":13395:13574  if(arrayLength!=0){... */\n      tag_245\n      jumpi\n        /* \"WatermelonBUSDLottery.sol\":13432:13438  uint i */\n      0x00\n        /* \"WatermelonBUSDLottery.sol\":13427:13564  for (uint i=0; i<arrayLength; i++) {... */\n    tag_246:\n        /* \"WatermelonBUSDLottery.sol\":13444:13455  arrayLength */\n      dup2\n        /* \"WatermelonBUSDLottery.sol\":13442:13443  i */\n      dup2\n        /* \"WatermelonBUSDLottery.sol\":13442:13455  i<arrayLength */\n      lt\n        /* \"WatermelonBUSDLottery.sol\":13427:13564  for (uint i=0; i<arrayLength; i++) {... */\n      iszero\n      tag_247\n      jumpi\n        /* \"WatermelonBUSDLottery.sol\":13501:13503  ad */\n      dup9\n        /* \"WatermelonBUSDLottery.sol\":13484:13503  participants[i]==ad */\n      0xffffffffffffffffffffffffffffffffffffffff\n      and\n        /* \"WatermelonBUSDLottery.sol\":13484:13496  participants */\n      0x06\n        /* \"WatermelonBUSDLottery.sol\":13497:13498  i */\n      dup3\n        /* \"WatermelonBUSDLottery.sol\":13484:13499  participants[i] */\n      dup2\n      sload\n      dup2\n      lt\n      tag_249\n      jumpi\n      tag_250\n      tag_172\n      jump\t// in\n    tag_250:\n    tag_249:\n      swap1\n      0x00\n      mstore\n      keccak256(0x00, 0x20)\n      add\n      0x00\n      swap1\n      sload\n      swap1\n      0x0100\n      exp\n      swap1\n      div\n      0xffffffffffffffffffffffffffffffffffffffff\n      and\n        /* \"WatermelonBUSDLottery.sol\":13484:13503  participants[i]==ad */\n      0xffffffffffffffffffffffffffffffffffffffff\n      and\n      sub\n        /* \"WatermelonBUSDLottery.sol\":13480:13550  if (participants[i]==ad){... */\n      tag_252\n      jumpi\n        /* \"WatermelonBUSDLottery.sol\":13526:13531  lHm++ */\n      dup5\n      dup1\n      tag_253\n      swap1\n      tag_169\n      jump\t// in\n    tag_253:\n      swap6\n      pop\n      pop\n        /* \"WatermelonBUSDLottery.sol\":13480:13550  if (participants[i]==ad){... */\n    tag_252:\n        /* \"WatermelonBUSDLottery.sol\":13457:13460  i++ */\n      dup1\n      dup1\n      tag_254\n      swap1\n      tag_169\n      jump\t// in\n    tag_254:\n      swap2\n      pop\n      pop\n        /* \"WatermelonBUSDLottery.sol\":13427:13564  for (uint i=0; i<arrayLength; i++) {... */\n      jump(tag_246)\n    tag_247:\n      pop\n        /* \"WatermelonBUSDLottery.sol\":13395:13574  if(arrayLength!=0){... */\n    tag_245:\n        /* \"WatermelonBUSDLottery.sol\":13583:13600  uint arrayLength1 */\n      0x00\n        /* \"WatermelonBUSDLottery.sol\":13603:13616  participants1 */\n      0x0a\n        /* \"WatermelonBUSDLottery.sol\":13603:13623  participants1.length */\n      dup1\n      sload\n      swap1\n      pop\n        /* \"WatermelonBUSDLottery.sol\":13583:13623  uint arrayLength1 = participants1.length */\n      swap1\n      pop\n        /* \"WatermelonBUSDLottery.sol\":13650:13651  0 */\n      0x00\n        /* \"WatermelonBUSDLottery.sol\":13636:13648  arrayLength1 */\n      dup2\n        /* \"WatermelonBUSDLottery.sol\":13636:13651  arrayLength1!=0 */\n      eq\n        /* \"WatermelonBUSDLottery.sol\":13633:13816  if(arrayLength1!=0){... */\n      tag_255\n      jumpi\n        /* \"WatermelonBUSDLottery.sol\":13671:13677  uint i */\n      0x00\n        /* \"WatermelonBUSDLottery.sol\":13666:13806  for (uint i=0; i<arrayLength1; i++) {... */\n    tag_256:\n        /* \"WatermelonBUSDLottery.sol\":13683:13695  arrayLength1 */\n      dup2\n        /* \"WatermelonBUSDLottery.sol\":13681:13682  i */\n      dup2\n        /* \"WatermelonBUSDLottery.sol\":13681:13695  i<arrayLength1 */\n      lt\n        /* \"WatermelonBUSDLottery.sol\":13666:13806  for (uint i=0; i<arrayLength1; i++) {... */\n      iszero\n      tag_257\n      jumpi\n        /* \"WatermelonBUSDLottery.sol\":13742:13744  ad */\n      dup10\n        /* \"WatermelonBUSDLottery.sol\":13724:13744  participants1[i]==ad */\n      0xffffffffffffffffffffffffffffffffffffffff\n      and\n        /* \"WatermelonBUSDLottery.sol\":13724:13737  participants1 */\n      0x0a\n        /* \"WatermelonBUSDLottery.sol\":13738:13739  i */\n      dup3\n        /* \"WatermelonBUSDLottery.sol\":13724:13740  participants1[i] */\n      dup2\n      sload\n      dup2\n      lt\n      tag_259\n      jumpi\n      tag_260\n      tag_172\n      jump\t// in\n    tag_260:\n    tag_259:\n      swap1\n      0x00\n      mstore\n      keccak256(0x00, 0x20)\n      add\n      0x00\n      swap1\n      sload\n      swap1\n      0x0100\n      exp\n      swap1\n      div\n      0xffffffffffffffffffffffffffffffffffffffff\n      and\n        /* \"WatermelonBUSDLottery.sol\":13724:13744  participants1[i]==ad */\n      0xffffffffffffffffffffffffffffffffffffffff\n      and\n      sub\n        /* \"WatermelonBUSDLottery.sol\":13720:13792  if (participants1[i]==ad){... */\n      tag_262\n      jumpi\n        /* \"WatermelonBUSDLottery.sol\":13767:13773  lHm1++ */\n      dup5\n      dup1\n      tag_263\n      swap1\n      tag_169\n      jump\t// in\n    tag_263:\n      swap6\n      pop\n      pop\n        /* \"WatermelonBUSDLottery.sol\":13720:13792  if (participants1[i]==ad){... */\n    tag_262:\n        /* \"WatermelonBUSDLottery.sol\":13697:13700  i++ */\n      dup1\n      dup1\n      tag_264\n      swap1\n      tag_169\n      jump\t// in\n    tag_264:\n      swap2\n      pop\n      pop\n        /* \"WatermelonBUSDLottery.sol\":13666:13806  for (uint i=0; i<arrayLength1; i++) {... */\n      jump(tag_256)\n    tag_257:\n      pop\n        /* \"WatermelonBUSDLottery.sol\":13633:13816  if(arrayLength1!=0){... */\n    tag_255:\n        /* \"WatermelonBUSDLottery.sol\":13825:13842  uint arrayLength2 */\n      0x00\n        /* \"WatermelonBUSDLottery.sol\":13845:13858  participants2 */\n      0x0e\n        /* \"WatermelonBUSDLottery.sol\":13845:13865  participants2.length */\n      dup1\n      sload\n      swap1\n      pop\n        /* \"WatermelonBUSDLottery.sol\":13825:13865  uint arrayLength2 = participants2.length */\n      swap1\n      pop\n        /* \"WatermelonBUSDLottery.sol\":13892:13893  0 */\n      0x00\n        /* \"WatermelonBUSDLottery.sol\":13878:13890  arrayLength2 */\n      dup2\n        /* \"WatermelonBUSDLottery.sol\":13878:13893  arrayLength2!=0 */\n      eq\n        /* \"WatermelonBUSDLottery.sol\":13875:14057  if(arrayLength2!=0){... */\n      tag_265\n      jumpi\n        /* \"WatermelonBUSDLottery.sol\":13913:13919  uint i */\n      0x00\n        /* \"WatermelonBUSDLottery.sol\":13908:14047  for (uint i=0; i<arrayLength2; i++) {... */\n    tag_266:\n        /* \"WatermelonBUSDLottery.sol\":13925:13937  arrayLength2 */\n      dup2\n        /* \"WatermelonBUSDLottery.sol\":13923:13924  i */\n      dup2\n        /* \"WatermelonBUSDLottery.sol\":13923:13937  i<arrayLength2 */\n      lt\n        /* \"WatermelonBUSDLottery.sol\":13908:14047  for (uint i=0; i<arrayLength2; i++) {... */\n      iszero\n      tag_267\n      jumpi\n        /* \"WatermelonBUSDLottery.sol\":13983:13985  ad */\n      dup11\n        /* \"WatermelonBUSDLottery.sol\":13966:13985  participants[i]==ad */\n      0xffffffffffffffffffffffffffffffffffffffff\n      and\n        /* \"WatermelonBUSDLottery.sol\":13966:13978  participants */\n      0x06\n        /* \"WatermelonBUSDLottery.sol\":13979:13980  i */\n      dup3\n        /* \"WatermelonBUSDLottery.sol\":13966:13981  participants[i] */\n      dup2\n      sload\n      dup2\n      lt\n      tag_269\n      jumpi\n      tag_270\n      tag_172\n      jump\t// in\n    tag_270:\n    tag_269:\n      swap1\n      0x00\n      mstore\n      keccak256(0x00, 0x20)\n      add\n      0x00\n      swap1\n      sload\n      swap1\n      0x0100\n      exp\n      swap1\n      div\n      0xffffffffffffffffffffffffffffffffffffffff\n      and\n        /* \"WatermelonBUSDLottery.sol\":13966:13985  participants[i]==ad */\n      0xffffffffffffffffffffffffffffffffffffffff\n      and\n      sub\n        /* \"WatermelonBUSDLottery.sol\":13962:14033  if (participants[i]==ad){... */\n      tag_272\n      jumpi\n        /* \"WatermelonBUSDLottery.sol\":14008:14014  lHm2++ */\n      dup5\n      dup1\n      tag_273\n      swap1\n      tag_169\n      jump\t// in\n    tag_273:\n      swap6\n      pop\n      pop\n        /* \"WatermelonBUSDLottery.sol\":13962:14033  if (participants[i]==ad){... */\n    tag_272:\n        /* \"WatermelonBUSDLottery.sol\":13939:13942  i++ */\n      dup1\n      dup1\n      tag_274\n      swap1\n      tag_169\n      jump\t// in\n    tag_274:\n      swap2\n      pop\n      pop\n        /* \"WatermelonBUSDLottery.sol\":13908:14047  for (uint i=0; i<arrayLength2; i++) {... */\n      jump(tag_266)\n    tag_267:\n      pop\n        /* \"WatermelonBUSDLottery.sol\":13875:14057  if(arrayLength2!=0){... */\n    tag_265:\n        /* \"WatermelonBUSDLottery.sol\":14074:14077  lHm */\n      dup6\n        /* \"WatermelonBUSDLottery.sol\":14078:14082  lHm1 */\n      dup6\n        /* \"WatermelonBUSDLottery.sol\":14083:14087  lHm2 */\n      dup6\n        /* \"WatermelonBUSDLottery.sol\":14066:14088  return (lHm,lHm1,lHm2) */\n      swap9\n      pop\n      swap9\n      pop\n      swap9\n      pop\n      pop\n      pop\n      pop\n      pop\n      pop\n      pop\n        /* \"WatermelonBUSDLottery.sol\":13193:14095  function howMany(address ad) public view returns(uint256,uint256,uint256){... */\n      swap2\n      swap4\n      swap1\n      swap3\n      pop\n      jump\t// out\n        /* \"WatermelonBUSDLottery.sol\":9574:9666  function viewTicketPrice() external view returns(uint256){... */\n    tag_87:\n        /* \"WatermelonBUSDLottery.sol\":9623:9630  uint256 */\n      0x00\n        /* \"WatermelonBUSDLottery.sol\":9648:9659  ticketPrice */\n      sload(0x05)\n        /* \"WatermelonBUSDLottery.sol\":9641:9659  return ticketPrice */\n      swap1\n      pop\n        /* \"WatermelonBUSDLottery.sol\":9574:9666  function viewTicketPrice() external view returns(uint256){... */\n      swap1\n      jump\t// out\n        /* \"WatermelonBUSDLottery.sol\":10504:11208  function joinLottery(uint256 _amount) external notOwner() noReentrant{... */\n    tag_91:\n        /* \"WatermelonBUSDLottery.sol\":8810:8815  owner */\n      0x02\n      0x00\n      swap1\n      sload\n      swap1\n      0x0100\n      exp\n      swap1\n      div\n      0xffffffffffffffffffffffffffffffffffffffff\n      and\n        /* \"WatermelonBUSDLottery.sol\":8796:8815  msg.sender != owner */\n      0xffffffffffffffffffffffffffffffffffffffff\n      and\n        /* \"WatermelonBUSDLottery.sol\":8796:8806  msg.sender */\n      caller\n        /* \"WatermelonBUSDLottery.sol\":8796:8815  msg.sender != owner */\n      0xffffffffffffffffffffffffffffffffffffffff\n      and\n      sub\n        /* \"WatermelonBUSDLottery.sol\":8788:8834  require(msg.sender != owner, \"Access denied!\") */\n      tag_277\n      jumpi\n      mload(0x40)\n      0x08c379a000000000000000000000000000000000000000000000000000000000\n      dup2\n      mstore\n      0x04\n      add\n      tag_278\n      swap1\n      tag_153\n      jump\t// in\n    tag_278:\n      mload(0x40)\n      dup1\n      swap2\n      sub\n      swap1\n      revert\n    tag_277:\n        /* \"WatermelonBUSDLottery.sol\":7137:7143  locked */\n      0x00\n      dup1\n      sload\n      swap1\n      0x0100\n      exp\n      swap1\n      div\n      0xff\n      and\n        /* \"WatermelonBUSDLottery.sol\":7136:7143  !locked */\n      iszero\n        /* \"WatermelonBUSDLottery.sol\":7128:7162  require(!locked, \"No re-entrancy\") */\n      tag_280\n      jumpi\n      mload(0x40)\n      0x08c379a000000000000000000000000000000000000000000000000000000000\n      dup2\n      mstore\n      0x04\n      add\n      tag_281\n      swap1\n      tag_209\n      jump\t// in\n    tag_281:\n      mload(0x40)\n      dup1\n      swap2\n      sub\n      swap1\n      revert\n    tag_280:\n        /* \"WatermelonBUSDLottery.sol\":7181:7185  true */\n      0x01\n        /* \"WatermelonBUSDLottery.sol\":7172:7178  locked */\n      0x00\n      dup1\n        /* \"WatermelonBUSDLottery.sol\":7172:7185  locked = true */\n      0x0100\n      exp\n      dup2\n      sload\n      dup2\n      0xff\n      mul\n      not\n      and\n      swap1\n      dup4\n      iszero\n      iszero\n      mul\n      or\n      swap1\n      sstore\n      pop\n        /* \"WatermelonBUSDLottery.sol\":10591:10605  lotteryStarted */\n      0x0f\n      0x00\n      swap1\n      sload\n      swap1\n      0x0100\n      exp\n      swap1\n      div\n      0xff\n      and\n        /* \"WatermelonBUSDLottery.sol\":10583:10637  require(lotteryStarted , \"Lottery is not started yet\") */\n      tag_283\n      jumpi\n      mload(0x40)\n      0x08c379a000000000000000000000000000000000000000000000000000000000\n      dup2\n      mstore\n      0x04\n      add\n      tag_284\n      swap1\n      tag_213\n      jump\t// in\n    tag_284:\n      mload(0x40)\n      dup1\n      swap2\n      sub\n      swap1\n      revert\n    tag_283:\n        /* \"WatermelonBUSDLottery.sol\":10665:10676  ticketPrice */\n      sload(0x05)\n        /* \"WatermelonBUSDLottery.sol\":10655:10662  _amount */\n      dup2\n        /* \"WatermelonBUSDLottery.sol\":10655:10676  _amount== ticketPrice */\n      eq\n        /* \"WatermelonBUSDLottery.sol\":10647:10696  require(_amount== ticketPrice,\"Not same amount\" ) */\n      tag_285\n      jumpi\n      mload(0x40)\n      0x08c379a000000000000000000000000000000000000000000000000000000000\n      dup2\n      mstore\n      0x04\n      add\n      tag_286\n      swap1\n      tag_287\n      jump\t// in\n    tag_286:\n      mload(0x40)\n      dup1\n      swap2\n      sub\n      swap1\n      revert\n    tag_285:\n        /* \"WatermelonBUSDLottery.sol\":10706:10714  bool chk */\n      0x00\n        /* \"WatermelonBUSDLottery.sol\":10716:10729  BusdInterface */\n      0x14\n      0x00\n      swap1\n      sload\n      swap1\n      0x0100\n      exp\n      swap1\n      div\n      0xffffffffffffffffffffffffffffffffffffffff\n      and\n        /* \"WatermelonBUSDLottery.sol\":10716:10742  BusdInterface.transferFrom */\n      0xffffffffffffffffffffffffffffffffffffffff\n      and\n      0x23b872dd\n        /* \"WatermelonBUSDLottery.sol\":10743:10753  msg.sender */\n      caller\n        /* \"WatermelonBUSDLottery.sol\":10762:10766  this */\n      address\n        /* \"WatermelonBUSDLottery.sol\":10768:10775  _amount */\n      dup6\n        /* \"WatermelonBUSDLottery.sol\":10716:10776  BusdInterface.transferFrom(msg.sender,address(this),_amount) */\n      mload(0x40)\n      dup5\n      0xffffffff\n      and\n      0xe0\n      shl\n      dup2\n      mstore\n      0x04\n      add\n      tag_288\n      swap4\n      swap3\n      swap2\n      swap1\n      tag_218\n      jump\t// in\n    tag_288:\n      0x20\n      mload(0x40)\n      dup1\n      dup4\n      sub\n      dup2\n      0x00\n      dup8\n      gas\n      call\n      iszero\n      dup1\n      iszero\n      tag_290\n      jumpi\n      returndatasize\n      0x00\n      dup1\n      returndatacopy\n      revert(0x00, returndatasize)\n    tag_290:\n      pop\n      pop\n      pop\n      pop\n      mload(0x40)\n      returndatasize\n      not(0x1f)\n      0x1f\n      dup3\n      add\n      and\n      dup3\n      add\n      dup1\n      0x40\n      mstore\n      pop\n      dup2\n      add\n      swap1\n      tag_291\n      swap2\n      swap1\n      tag_222\n      jump\t// in\n    tag_291:\n        /* \"WatermelonBUSDLottery.sol\":10706:10776  bool chk= BusdInterface.transferFrom(msg.sender,address(this),_amount) */\n      swap1\n      pop\n        /* \"WatermelonBUSDLottery.sol\":10789:10792  chk */\n      dup1\n        /* \"WatermelonBUSDLottery.sol\":10786:11202  if(chk){... */\n      iszero\n      tag_292\n      jumpi\n        /* \"WatermelonBUSDLottery.sol\":10832:10853  maxParticipantNumbers */\n      sload(0x03)\n        /* \"WatermelonBUSDLottery.sol\":10811:10829  participantNumbers */\n      sload(0x04)\n        /* \"WatermelonBUSDLottery.sol\":10811:10853  participantNumbers < maxParticipantNumbers */\n      lt\n        /* \"WatermelonBUSDLottery.sol\":10807:11192  if (participantNumbers < maxParticipantNumbers){... */\n      iszero\n      tag_293\n      jumpi\n        /* \"WatermelonBUSDLottery.sol\":10872:10884  participants */\n      0x06\n        /* \"WatermelonBUSDLottery.sol\":10898:10908  msg.sender */\n      caller\n        /* \"WatermelonBUSDLottery.sol\":10872:10910  participants.push(payable(msg.sender)) */\n      swap1\n      dup1\n      0x01\n      dup2\n      sload\n      add\n      dup1\n      dup3\n      sstore\n      dup1\n      swap2\n      pop\n      pop\n      0x01\n      swap1\n      sub\n      swap1\n      0x00\n      mstore\n      keccak256(0x00, 0x20)\n      add\n      0x00\n      swap1\n      swap2\n      swap1\n      swap2\n      swap1\n      swap2\n      0x0100\n      exp\n      dup2\n      sload\n      dup2\n      0xffffffffffffffffffffffffffffffffffffffff\n      mul\n      not\n      and\n      swap1\n      dup4\n      0xffffffffffffffffffffffffffffffffffffffff\n      and\n      mul\n      or\n      swap1\n      sstore\n      pop\n        /* \"WatermelonBUSDLottery.sol\":10928:10946  participantNumbers */\n      0x04\n      0x00\n        /* \"WatermelonBUSDLottery.sol\":10928:10948  participantNumbers++ */\n      dup2\n      sload\n      dup1\n      swap3\n      swap2\n      swap1\n      tag_295\n      swap1\n      tag_169\n      jump\t// in\n    tag_295:\n      swap2\n      swap1\n      pop\n      sstore\n      pop\n        /* \"WatermelonBUSDLottery.sol\":10992:11013  maxParticipantNumbers */\n      sload(0x03)\n        /* \"WatermelonBUSDLottery.sol\":10970:10988  participantNumbers */\n      sload(0x04)\n        /* \"WatermelonBUSDLottery.sol\":10970:11013  participantNumbers == maxParticipantNumbers */\n      sub\n        /* \"WatermelonBUSDLottery.sol\":10966:11067  if (participantNumbers == maxParticipantNumbers){... */\n      tag_296\n      jumpi\n        /* \"WatermelonBUSDLottery.sol\":11036:11048  pickwinner() */\n      tag_297\n        /* \"WatermelonBUSDLottery.sol\":11036:11046  pickwinner */\n      tag_298\n        /* \"WatermelonBUSDLottery.sol\":11036:11048  pickwinner() */\n      jump\t// in\n    tag_297:\n        /* \"WatermelonBUSDLottery.sol\":10966:11067  if (participantNumbers == maxParticipantNumbers){... */\n    tag_296:\n        /* \"WatermelonBUSDLottery.sol\":10807:11192  if (participantNumbers < maxParticipantNumbers){... */\n      jump(tag_299)\n    tag_293:\n        /* \"WatermelonBUSDLottery.sol\":11125:11146  maxParticipantNumbers */\n      sload(0x03)\n        /* \"WatermelonBUSDLottery.sol\":11103:11121  participantNumbers */\n      sload(0x04)\n        /* \"WatermelonBUSDLottery.sol\":11103:11146  participantNumbers == maxParticipantNumbers */\n      sub\n        /* \"WatermelonBUSDLottery.sol\":11099:11192  if (participantNumbers == maxParticipantNumbers){... */\n      tag_300\n      jumpi\n        /* \"WatermelonBUSDLottery.sol\":11165:11177  pickwinner() */\n      tag_301\n        /* \"WatermelonBUSDLottery.sol\":11165:11175  pickwinner */\n      tag_298\n        /* \"WatermelonBUSDLottery.sol\":11165:11177  pickwinner() */\n      jump\t// in\n    tag_301:\n        /* \"WatermelonBUSDLottery.sol\":11099:11192  if (participantNumbers == maxParticipantNumbers){... */\n    tag_300:\n        /* \"WatermelonBUSDLottery.sol\":10807:11192  if (participantNumbers < maxParticipantNumbers){... */\n    tag_299:\n        /* \"WatermelonBUSDLottery.sol\":10786:11202  if(chk){... */\n    tag_292:\n        /* \"WatermelonBUSDLottery.sol\":10573:11208  {... */\n      pop\n        /* \"WatermelonBUSDLottery.sol\":7215:7220  false */\n      0x00\n        /* \"WatermelonBUSDLottery.sol\":7206:7212  locked */\n      dup1\n      0x00\n        /* \"WatermelonBUSDLottery.sol\":7206:7220  locked = false */\n      0x0100\n      exp\n      dup2\n      sload\n      dup2\n      0xff\n      mul\n      not\n      and\n      swap1\n      dup4\n      iszero\n      iszero\n      mul\n      or\n      swap1\n      sstore\n      pop\n        /* \"WatermelonBUSDLottery.sol\":10504:11208  function joinLottery(uint256 _amount) external notOwner() noReentrant{... */\n      pop\n      jump\t// out\n        /* \"WatermelonBUSDLottery.sol\":9770:9864  function viewTicketPrice2() external view returns(uint256){... */\n    tag_93:\n        /* \"WatermelonBUSDLottery.sol\":9820:9827  uint256 */\n      0x00\n        /* \"WatermelonBUSDLottery.sol\":9845:9857  ticketPrice2 */\n      sload(0x0d)\n        /* \"WatermelonBUSDLottery.sol\":9838:9857  return ticketPrice2 */\n      swap1\n      pop\n        /* \"WatermelonBUSDLottery.sol\":9770:9864  function viewTicketPrice2() external view returns(uint256){... */\n      swap1\n      jump\t// out\n        /* \"WatermelonBUSDLottery.sol\":7997:8028  address[] public winnerLottery2 */\n    tag_97:\n      0x12\n      dup2\n      dup2\n      sload\n      dup2\n      lt\n      tag_303\n      jumpi\n      0x00\n      dup1\n      revert\n    tag_303:\n      swap1\n      0x00\n      mstore\n      keccak256(0x00, 0x20)\n      add\n      0x00\n      swap2\n      pop\n      sload\n      swap1\n      0x0100\n      exp\n      swap1\n      div\n      0xffffffffffffffffffffffffffffffffffffffff\n      and\n      dup2\n      jump\t// out\n        /* \"WatermelonBUSDLottery.sol\":8034:8061  address public tokenAddress */\n    tag_100:\n      0x13\n      0x00\n      swap1\n      sload\n      swap1\n      0x0100\n      exp\n      swap1\n      div\n      0xffffffffffffffffffffffffffffffffffffffff\n      and\n      dup2\n      jump\t// out\n        /* \"WatermelonBUSDLottery.sol\":9869:9966  function viewTicket() external view returns(uint256){... */\n    tag_103:\n        /* \"WatermelonBUSDLottery.sol\":9913:9920  uint256 */\n      0x00\n        /* \"WatermelonBUSDLottery.sol\":9938:9959  maxParticipantNumbers */\n      sload(0x03)\n        /* \"WatermelonBUSDLottery.sol\":9931:9959  return maxParticipantNumbers */\n      swap1\n      pop\n        /* \"WatermelonBUSDLottery.sol\":9869:9966  function viewTicket() external view returns(uint256){... */\n      swap1\n      jump\t// out\n        /* \"WatermelonBUSDLottery.sol\":13086:13187  function getLottery2Length() public view returns(uint256){... */\n    tag_106:\n        /* \"WatermelonBUSDLottery.sol\":13135:13142  uint256 */\n      0x00\n        /* \"WatermelonBUSDLottery.sol\":13160:13173  participants2 */\n      0x0e\n        /* \"WatermelonBUSDLottery.sol\":13160:13180  participants2.length */\n      dup1\n      sload\n      swap1\n      pop\n        /* \"WatermelonBUSDLottery.sol\":13153:13180  return participants2.length */\n      swap1\n      pop\n        /* \"WatermelonBUSDLottery.sol\":13086:13187  function getLottery2Length() public view returns(uint256){... */\n      swap1\n      jump\t// out\n        /* \"WatermelonBUSDLottery.sol\":9971:10070  function viewTicket1() external view returns(uint256){... */\n    tag_109:\n        /* \"WatermelonBUSDLottery.sol\":10016:10023  uint256 */\n      0x00\n        /* \"WatermelonBUSDLottery.sol\":10041:10063  maxParticipantNumbers1 */\n      sload(0x07)\n        /* \"WatermelonBUSDLottery.sol\":10034:10063  return maxParticipantNumbers1 */\n      swap1\n      pop\n        /* \"WatermelonBUSDLottery.sol\":9971:10070  function viewTicket1() external view returns(uint256){... */\n      swap1\n      jump\t// out\n        /* \"WatermelonBUSDLottery.sol\":12979:13080  function getLottery1Length() public view returns(uint256){... */\n    tag_112:\n        /* \"WatermelonBUSDLottery.sol\":13028:13035  uint256 */\n      0x00\n        /* \"WatermelonBUSDLottery.sol\":13053:13066  participants1 */\n      0x0a\n        /* \"WatermelonBUSDLottery.sol\":13053:13073  participants1.length */\n      dup1\n      sload\n      swap1\n      pop\n        /* \"WatermelonBUSDLottery.sol\":13046:13073  return participants1.length */\n      swap1\n      pop\n        /* \"WatermelonBUSDLottery.sol\":12979:13080  function getLottery1Length() public view returns(uint256){... */\n      swap1\n      jump\t// out\n        /* \"WatermelonBUSDLottery.sol\":15807:16553  function allWinner() public view returns(address[] memory){... */\n    tag_115:\n        /* \"WatermelonBUSDLottery.sol\":15848:15864  address[] memory */\n      0x60\n        /* \"WatermelonBUSDLottery.sol\":15875:15898  address[] memory result */\n      0x00\n        /* \"WatermelonBUSDLottery.sol\":15914:15916  17 */\n      0x11\n        /* \"WatermelonBUSDLottery.sol\":15900:15917  new address[](17) */\n      0xffffffffffffffff\n      dup2\n      gt\n      iszero\n      tag_310\n      jumpi\n      tag_311\n      tag_160\n      jump\t// in\n    tag_311:\n    tag_310:\n      mload(0x40)\n      swap1\n      dup1\n      dup3\n      mstore\n      dup1\n      0x20\n      mul\n      0x20\n      add\n      dup3\n      add\n      0x40\n      mstore\n      dup1\n      iszero\n      tag_312\n      jumpi\n      dup2\n      0x20\n      add\n      0x20\n      dup3\n      mul\n      dup1\n      calldatasize\n      dup4\n      calldatacopy\n      dup1\n      dup3\n      add\n      swap2\n      pop\n      pop\n      swap1\n      pop\n    tag_312:\n      pop\n        /* \"WatermelonBUSDLottery.sol\":15875:15917  address[] memory result= new address[](17) */\n      swap1\n      pop\n        /* \"WatermelonBUSDLottery.sol\":15927:15946  uint256 arrayLength */\n      0x00\n        /* \"WatermelonBUSDLottery.sol\":15949:15962  winnerLottery */\n      0x10\n        /* \"WatermelonBUSDLottery.sol\":15949:15969  winnerLottery.length */\n      dup1\n      sload\n      swap1\n      pop\n        /* \"WatermelonBUSDLottery.sol\":15927:15969  uint256 arrayLength = winnerLottery.length */\n      swap1\n      pop\n        /* \"WatermelonBUSDLottery.sol\":15979:15999  uint256 resultLength */\n      0x00\n        /* \"WatermelonBUSDLottery.sol\":16002:16008  result */\n      dup3\n        /* \"WatermelonBUSDLottery.sol\":16002:16015  result.length */\n      mload\n        /* \"WatermelonBUSDLottery.sol\":15979:16015  uint256 resultLength = result.length */\n      swap1\n      pop\n        /* \"WatermelonBUSDLottery.sol\":16025:16038  uint256 index */\n      0x00\n        /* \"WatermelonBUSDLottery.sol\":16066:16068  10 */\n      0x0a\n        /* \"WatermelonBUSDLottery.sol\":16054:16065  arrayLength */\n      dup4\n        /* \"WatermelonBUSDLottery.sol\":16054:16068  arrayLength>10 */\n      gt\n        /* \"WatermelonBUSDLottery.sol\":16051:16524  if(arrayLength>10){... */\n      iszero\n      tag_313\n      jumpi\n        /* \"WatermelonBUSDLottery.sol\":16092:16101  uint256 i */\n      0x00\n        /* \"WatermelonBUSDLottery.sol\":16102:16113  arrayLength */\n      dup4\n        /* \"WatermelonBUSDLottery.sol\":16092:16113  uint256 i=arrayLength */\n      swap1\n      pop\n        /* \"WatermelonBUSDLottery.sol\":16087:16254  for (uint256 i=arrayLength; i>(arrayLength-10); i--) {... */\n    tag_314:\n        /* \"WatermelonBUSDLottery.sol\":16130:16132  10 */\n      0x0a\n        /* \"WatermelonBUSDLottery.sol\":16118:16129  arrayLength */\n      dup5\n        /* \"WatermelonBUSDLottery.sol\":16118:16132  arrayLength-10 */\n      tag_317\n      swap2\n      swap1\n      tag_167\n      jump\t// in\n    tag_317:\n        /* \"WatermelonBUSDLottery.sol\":16115:16116  i */\n      dup2\n        /* \"WatermelonBUSDLottery.sol\":16115:16133  i>(arrayLength-10) */\n      gt\n        /* \"WatermelonBUSDLottery.sol\":16087:16254  for (uint256 i=arrayLength; i>(arrayLength-10); i--) {... */\n      iszero\n      tag_315\n      jumpi\n        /* \"WatermelonBUSDLottery.sol\":16162:16176  resultLength++ */\n      dup3\n      dup1\n      tag_318\n      swap1\n      tag_169\n      jump\t// in\n    tag_318:\n      swap4\n      pop\n      pop\n        /* \"WatermelonBUSDLottery.sol\":16219:16232  winnerLottery */\n      0x10\n        /* \"WatermelonBUSDLottery.sol\":16233:16234  i */\n      dup2\n        /* \"WatermelonBUSDLottery.sol\":16219:16235  winnerLottery[i] */\n      dup2\n      sload\n      dup2\n      lt\n      tag_319\n      jumpi\n      tag_320\n      tag_172\n      jump\t// in\n    tag_320:\n    tag_319:\n      swap1\n      0x00\n      mstore\n      keccak256(0x00, 0x20)\n      add\n      0x00\n      swap1\n      sload\n      swap1\n      0x0100\n      exp\n      swap1\n      div\n      0xffffffffffffffffffffffffffffffffffffffff\n      and\n        /* \"WatermelonBUSDLottery.sol\":16198:16204  result */\n      dup6\n        /* \"WatermelonBUSDLottery.sol\":16205:16217  resultLength */\n      dup5\n        /* \"WatermelonBUSDLottery.sol\":16198:16218  result[resultLength] */\n      dup2\n      mload\n      dup2\n      lt\n      tag_322\n      jumpi\n      tag_323\n      tag_172\n      jump\t// in\n    tag_323:\n    tag_322:\n      0x20\n      mul\n      0x20\n      add\n      add\n        /* \"WatermelonBUSDLottery.sol\":16198:16235  result[resultLength]=winnerLottery[i] */\n      swap1\n      0xffffffffffffffffffffffffffffffffffffffff\n      and\n      swap1\n      dup2\n      0xffffffffffffffffffffffffffffffffffffffff\n      and\n      dup2\n      mstore\n      pop\n      pop\n        /* \"WatermelonBUSDLottery.sol\":16135:16138  i-- */\n      dup1\n      dup1\n      tag_324\n      swap1\n      tag_177\n      jump\t// in\n    tag_324:\n      swap2\n      pop\n      pop\n        /* \"WatermelonBUSDLottery.sol\":16087:16254  for (uint256 i=arrayLength; i>(arrayLength-10); i--) {... */\n      jump(tag_314)\n    tag_315:\n      pop\n        /* \"WatermelonBUSDLottery.sol\":16051:16524  if(arrayLength>10){... */\n      jump(tag_325)\n    tag_313:\n        /* \"WatermelonBUSDLottery.sol\":16297:16306  uint256 i */\n      0x00\n        /* \"WatermelonBUSDLottery.sol\":16307:16318  arrayLength */\n      dup4\n        /* \"WatermelonBUSDLottery.sol\":16297:16318  uint256 i=arrayLength */\n      swap1\n      pop\n        /* \"WatermelonBUSDLottery.sol\":16292:16514  for (uint256 i=arrayLength; i>0; i--) {... */\n    tag_326:\n        /* \"WatermelonBUSDLottery.sol\":16322:16323  0 */\n      0x00\n        /* \"WatermelonBUSDLottery.sol\":16320:16321  i */\n      dup2\n        /* \"WatermelonBUSDLottery.sol\":16320:16323  i>0 */\n      gt\n        /* \"WatermelonBUSDLottery.sol\":16292:16514  for (uint256 i=arrayLength; i>0; i--) {... */\n      iszero\n      tag_327\n      jumpi\n        /* \"WatermelonBUSDLottery.sol\":16348:16362  resultLength++ */\n      dup3\n      dup1\n      tag_329\n      swap1\n      tag_169\n      jump\t// in\n    tag_329:\n      swap4\n      pop\n      pop\n        /* \"WatermelonBUSDLottery.sol\":16380:16404  address payable _address */\n      0x00\n        /* \"WatermelonBUSDLottery.sol\":16415:16428  winnerLottery */\n      0x10\n        /* \"WatermelonBUSDLottery.sol\":16431:16432  1 */\n      0x01\n        /* \"WatermelonBUSDLottery.sol\":16429:16430  i */\n      dup4\n        /* \"WatermelonBUSDLottery.sol\":16429:16432  i-1 */\n      tag_330\n      swap2\n      swap1\n      tag_167\n      jump\t// in\n    tag_330:\n        /* \"WatermelonBUSDLottery.sol\":16415:16433  winnerLottery[i-1] */\n      dup2\n      sload\n      dup2\n      lt\n      tag_331\n      jumpi\n      tag_332\n      tag_172\n      jump\t// in\n    tag_332:\n    tag_331:\n      swap1\n      0x00\n      mstore\n      keccak256(0x00, 0x20)\n      add\n      0x00\n      swap1\n      sload\n      swap1\n      0x0100\n      exp\n      swap1\n      div\n      0xffffffffffffffffffffffffffffffffffffffff\n      and\n        /* \"WatermelonBUSDLottery.sol\":16380:16434  address payable _address = payable(winnerLottery[i-1]) */\n      swap1\n      pop\n        /* \"WatermelonBUSDLottery.sol\":16466:16474  _address */\n      dup1\n        /* \"WatermelonBUSDLottery.sol\":16452:16458  result */\n      dup7\n        /* \"WatermelonBUSDLottery.sol\":16459:16464  index */\n      dup5\n        /* \"WatermelonBUSDLottery.sol\":16452:16465  result[index] */\n      dup2\n      mload\n      dup2\n      lt\n      tag_334\n      jumpi\n      tag_335\n      tag_172\n      jump\t// in\n    tag_335:\n    tag_334:\n      0x20\n      mul\n      0x20\n      add\n      add\n        /* \"WatermelonBUSDLottery.sol\":16452:16474  result[index]=_address */\n      swap1\n      0xffffffffffffffffffffffffffffffffffffffff\n      and\n      swap1\n      dup2\n      0xffffffffffffffffffffffffffffffffffffffff\n      and\n      dup2\n      mstore\n      pop\n      pop\n        /* \"WatermelonBUSDLottery.sol\":16492:16499  index++ */\n      dup3\n      dup1\n      tag_336\n      swap1\n      tag_169\n      jump\t// in\n    tag_336:\n      swap4\n      pop\n      pop\n        /* \"WatermelonBUSDLottery.sol\":16330:16514  {... */\n      pop\n        /* \"WatermelonBUSDLottery.sol\":16325:16328  i-- */\n      dup1\n      dup1\n      tag_337\n      swap1\n      tag_177\n      jump\t// in\n    tag_337:\n      swap2\n      pop\n      pop\n        /* \"WatermelonBUSDLottery.sol\":16292:16514  for (uint256 i=arrayLength; i>0; i--) {... */\n      jump(tag_326)\n    tag_327:\n      pop\n        /* \"WatermelonBUSDLottery.sol\":16051:16524  if(arrayLength>10){... */\n    tag_325:\n        /* \"WatermelonBUSDLottery.sol\":16540:16546  result */\n      dup4\n        /* \"WatermelonBUSDLottery.sol\":16533:16546  return result */\n      swap5\n      pop\n      pop\n      pop\n      pop\n      pop\n        /* \"WatermelonBUSDLottery.sol\":15807:16553  function allWinner() public view returns(address[] memory){... */\n      swap1\n      jump\t// out\n        /* \"WatermelonBUSDLottery.sol\":8537:8654  function lotteryBalance() public view returns(uint256) {... */\n    tag_118:\n        /* \"WatermelonBUSDLottery.sol\":8583:8590  uint256 */\n      0x00\n        /* \"WatermelonBUSDLottery.sol\":8609:8622  BusdInterface */\n      0x14\n      0x00\n      swap1\n      sload\n      swap1\n      0x0100\n      exp\n      swap1\n      div\n      0xffffffffffffffffffffffffffffffffffffffff\n      and\n        /* \"WatermelonBUSDLottery.sol\":8609:8632  BusdInterface.balanceOf */\n      0xffffffffffffffffffffffffffffffffffffffff\n      and\n      0x70a08231\n        /* \"WatermelonBUSDLottery.sol\":8641:8645  this */\n      address\n        /* \"WatermelonBUSDLottery.sol\":8609:8647  BusdInterface.balanceOf(address(this)) */\n      mload(0x40)\n      dup3\n      0xffffffff\n      and\n      0xe0\n      shl\n      dup2\n      mstore\n      0x04\n      add\n      tag_339\n      swap2\n      swap1\n      tag_71\n      jump\t// in\n    tag_339:\n      0x20\n      mload(0x40)\n      dup1\n      dup4\n      sub\n      dup2\n      dup7\n      gas\n      staticcall\n      iszero\n      dup1\n      iszero\n      tag_341\n      jumpi\n      returndatasize\n      0x00\n      dup1\n      returndatacopy\n      revert(0x00, returndatasize)\n    tag_341:\n      pop\n      pop\n      pop\n      pop\n      mload(0x40)\n      returndatasize\n      not(0x1f)\n      0x1f\n      dup3\n      add\n      and\n      dup3\n      add\n      dup1\n      0x40\n      mstore\n      pop\n      dup2\n      add\n      swap1\n      tag_342\n      swap2\n      swap1\n      tag_343\n      jump\t// in\n    tag_342:\n        /* \"WatermelonBUSDLottery.sol\":8602:8647  return BusdInterface.balanceOf(address(this)) */\n      swap1\n      pop\n        /* \"WatermelonBUSDLottery.sol\":8537:8654  function lotteryBalance() public view returns(uint256) {... */\n      swap1\n      jump\t// out\n        /* \"WatermelonBUSDLottery.sol\":8067:8094  IERC20 public BusdInterface */\n    tag_121:\n      0x14\n      0x00\n      swap1\n      sload\n      swap1\n      0x0100\n      exp\n      swap1\n      div\n      0xffffffffffffffffffffffffffffffffffffffff\n      and\n      dup2\n      jump\t// out\n        /* \"WatermelonBUSDLottery.sol\":10418:10494  function announceLottery2() public onlyOwner(){... */\n    tag_125:\n        /* \"WatermelonBUSDLottery.sol\":8712:8717  owner */\n      0x02\n      0x00\n      swap1\n      sload\n      swap1\n      0x0100\n      exp\n      swap1\n      div\n      0xffffffffffffffffffffffffffffffffffffffff\n      and\n        /* \"WatermelonBUSDLottery.sol\":8698:8717  msg.sender == owner */\n      0xffffffffffffffffffffffffffffffffffffffff\n      and\n        /* \"WatermelonBUSDLottery.sol\":8698:8708  msg.sender */\n      caller\n        /* \"WatermelonBUSDLottery.sol\":8698:8717  msg.sender == owner */\n      0xffffffffffffffffffffffffffffffffffffffff\n      and\n      eq\n        /* \"WatermelonBUSDLottery.sol\":8690:8736  require(msg.sender == owner, \"Access denied!\") */\n      tag_345\n      jumpi\n      mload(0x40)\n      0x08c379a000000000000000000000000000000000000000000000000000000000\n      dup2\n      mstore\n      0x04\n      add\n      tag_346\n      swap1\n      tag_153\n      jump\t// in\n    tag_346:\n      mload(0x40)\n      dup1\n      swap2\n      sub\n      swap1\n      revert\n    tag_345:\n        /* \"WatermelonBUSDLottery.sol\":10474:10487  pickwinner2() */\n      tag_348\n        /* \"WatermelonBUSDLottery.sol\":10474:10485  pickwinner2 */\n      tag_229\n        /* \"WatermelonBUSDLottery.sol\":10474:10487  pickwinner2() */\n      jump\t// in\n    tag_348:\n        /* \"WatermelonBUSDLottery.sol\":10418:10494  function announceLottery2() public onlyOwner(){... */\n      jump\t// out\n        /* \"WatermelonBUSDLottery.sol\":11214:11973  function joinLottery1(uint256 _amount) external notOwner() noReentrant{... */\n    tag_128:\n        /* \"WatermelonBUSDLottery.sol\":8810:8815  owner */\n      0x02\n      0x00\n      swap1\n      sload\n      swap1\n      0x0100\n      exp\n      swap1\n      div\n      0xffffffffffffffffffffffffffffffffffffffff\n      and\n        /* \"WatermelonBUSDLottery.sol\":8796:8815  msg.sender != owner */\n      0xffffffffffffffffffffffffffffffffffffffff\n      and\n        /* \"WatermelonBUSDLottery.sol\":8796:8806  msg.sender */\n      caller\n        /* \"WatermelonBUSDLottery.sol\":8796:8815  msg.sender != owner */\n      0xffffffffffffffffffffffffffffffffffffffff\n      and\n      sub\n        /* \"WatermelonBUSDLottery.sol\":8788:8834  require(msg.sender != owner, \"Access denied!\") */\n      tag_350\n      jumpi\n      mload(0x40)\n      0x08c379a000000000000000000000000000000000000000000000000000000000\n      dup2\n      mstore\n      0x04\n      add\n      tag_351\n      swap1\n      tag_153\n      jump\t// in\n    tag_351:\n      mload(0x40)\n      dup1\n      swap2\n      sub\n      swap1\n      revert\n    tag_350:\n        /* \"WatermelonBUSDLottery.sol\":7137:7143  locked */\n      0x00\n      dup1\n      sload\n      swap1\n      0x0100\n      exp\n      swap1\n      div\n      0xff\n      and\n        /* \"WatermelonBUSDLottery.sol\":7136:7143  !locked */\n      iszero\n        /* \"WatermelonBUSDLottery.sol\":7128:7162  require(!locked, \"No re-entrancy\") */\n      tag_353\n      jumpi\n      mload(0x40)\n      0x08c379a000000000000000000000000000000000000000000000000000000000\n      dup2\n      mstore\n      0x04\n      add\n      tag_354\n      swap1\n      tag_209\n      jump\t// in\n    tag_354:\n      mload(0x40)\n      dup1\n      swap2\n      sub\n      swap1\n      revert\n    tag_353:\n        /* \"WatermelonBUSDLottery.sol\":7181:7185  true */\n      0x01\n        /* \"WatermelonBUSDLottery.sol\":7172:7178  locked */\n      0x00\n      dup1\n        /* \"WatermelonBUSDLottery.sol\":7172:7185  locked = true */\n      0x0100\n      exp\n      dup2\n      sload\n      dup2\n      0xff\n      mul\n      not\n      and\n      swap1\n      dup4\n      iszero\n      iszero\n      mul\n      or\n      swap1\n      sstore\n      pop\n        /* \"WatermelonBUSDLottery.sol\":11302:11316  lotteryStarted */\n      0x0f\n      0x00\n      swap1\n      sload\n      swap1\n      0x0100\n      exp\n      swap1\n      div\n      0xff\n      and\n        /* \"WatermelonBUSDLottery.sol\":11294:11348  require(lotteryStarted , \"Lottery is not started yet\") */\n      tag_356\n      jumpi\n      mload(0x40)\n      0x08c379a000000000000000000000000000000000000000000000000000000000\n      dup2\n      mstore\n      0x04\n      add\n      tag_357\n      swap1\n      tag_213\n      jump\t// in\n    tag_357:\n      mload(0x40)\n      dup1\n      swap2\n      sub\n      swap1\n      revert\n    tag_356:\n        /* \"WatermelonBUSDLottery.sol\":11363:11391  logshh(_amount,ticketPrice1) */\n      0xa3de883741aefa0083d54de95483572ad5eaa074b33a0ae8dc98725d52cf8143\n        /* \"WatermelonBUSDLottery.sol\":11370:11377  _amount */\n      dup2\n        /* \"WatermelonBUSDLottery.sol\":11378:11390  ticketPrice1 */\n      sload(0x09)\n        /* \"WatermelonBUSDLottery.sol\":11363:11391  logshh(_amount,ticketPrice1) */\n      mload(0x40)\n      tag_358\n      swap3\n      swap2\n      swap1\n      tag_359\n      jump\t// in\n    tag_358:\n      mload(0x40)\n      dup1\n      swap2\n      sub\n      swap1\n      log1\n        /* \"WatermelonBUSDLottery.sol\":11420:11432  ticketPrice1 */\n      sload(0x09)\n        /* \"WatermelonBUSDLottery.sol\":11409:11416  _amount */\n      dup2\n        /* \"WatermelonBUSDLottery.sol\":11409:11432  _amount == ticketPrice1 */\n      eq\n        /* \"WatermelonBUSDLottery.sol\":11401:11451  require(_amount == ticketPrice1,\"Not same amount\") */\n      tag_360\n      jumpi\n      mload(0x40)\n      0x08c379a000000000000000000000000000000000000000000000000000000000\n      dup2\n      mstore\n      0x04\n      add\n      tag_361\n      swap1\n      tag_287\n      jump\t// in\n    tag_361:\n      mload(0x40)\n      dup1\n      swap2\n      sub\n      swap1\n      revert\n    tag_360:\n        /* \"WatermelonBUSDLottery.sol\":11461:11469  bool chk */\n      0x00\n        /* \"WatermelonBUSDLottery.sol\":11471:11484  BusdInterface */\n      0x14\n      0x00\n      swap1\n      sload\n      swap1\n      0x0100\n      exp\n      swap1\n      div\n      0xffffffffffffffffffffffffffffffffffffffff\n      and\n        /* \"WatermelonBUSDLottery.sol\":11471:11497  BusdInterface.transferFrom */\n      0xffffffffffffffffffffffffffffffffffffffff\n      and\n      0x23b872dd\n        /* \"WatermelonBUSDLottery.sol\":11498:11508  msg.sender */\n      caller\n        /* \"WatermelonBUSDLottery.sol\":11517:11521  this */\n      address\n        /* \"WatermelonBUSDLottery.sol\":11523:11530  _amount */\n      dup6\n        /* \"WatermelonBUSDLottery.sol\":11471:11531  BusdInterface.transferFrom(msg.sender,address(this),_amount) */\n      mload(0x40)\n      dup5\n      0xffffffff\n      and\n      0xe0\n      shl\n      dup2\n      mstore\n      0x04\n      add\n      tag_362\n      swap4\n      swap3\n      swap2\n      swap1\n      tag_218\n      jump\t// in\n    tag_362:\n      0x20\n      mload(0x40)\n      dup1\n      dup4\n      sub\n      dup2\n      0x00\n      dup8\n      gas\n      call\n      iszero\n      dup1\n      iszero\n      tag_364\n      jumpi\n      returndatasize\n      0x00\n      dup1\n      returndatacopy\n      revert(0x00, returndatasize)\n    tag_364:\n      pop\n      pop\n      pop\n      pop\n      mload(0x40)\n      returndatasize\n      not(0x1f)\n      0x1f\n      dup3\n      add\n      and\n      dup3\n      add\n      dup1\n      0x40\n      mstore\n      pop\n      dup2\n      add\n      swap1\n      tag_365\n      swap2\n      swap1\n      tag_222\n      jump\t// in\n    tag_365:\n        /* \"WatermelonBUSDLottery.sol\":11461:11531  bool chk= BusdInterface.transferFrom(msg.sender,address(this),_amount) */\n      swap1\n      pop\n        /* \"WatermelonBUSDLottery.sol\":11544:11547  chk */\n      dup1\n        /* \"WatermelonBUSDLottery.sol\":11541:11967  if(chk){... */\n      iszero\n      tag_366\n      jumpi\n        /* \"WatermelonBUSDLottery.sol\":11588:11610  maxParticipantNumbers1 */\n      sload(0x07)\n        /* \"WatermelonBUSDLottery.sol\":11566:11585  participantNumbers1 */\n      sload(0x08)\n        /* \"WatermelonBUSDLottery.sol\":11566:11610  participantNumbers1 < maxParticipantNumbers1 */\n      lt\n        /* \"WatermelonBUSDLottery.sol\":11562:11957  if (participantNumbers1 < maxParticipantNumbers1){... */\n      iszero\n      tag_367\n      jumpi\n        /* \"WatermelonBUSDLottery.sol\":11629:11642  participants1 */\n      0x0a\n        /* \"WatermelonBUSDLottery.sol\":11656:11666  msg.sender */\n      caller\n        /* \"WatermelonBUSDLottery.sol\":11629:11668  participants1.push(payable(msg.sender)) */\n      swap1\n      dup1\n      0x01\n      dup2\n      sload\n      add\n      dup1\n      dup3\n      sstore\n      dup1\n      swap2\n      pop\n      pop\n      0x01\n      swap1\n      sub\n      swap1\n      0x00\n      mstore\n      keccak256(0x00, 0x20)\n      add\n      0x00\n      swap1\n      swap2\n      swap1\n      swap2\n      swap1\n      swap2\n      0x0100\n      exp\n      dup2\n      sload\n      dup2\n      0xffffffffffffffffffffffffffffffffffffffff\n      mul\n      not\n      and\n      swap1\n      dup4\n      0xffffffffffffffffffffffffffffffffffffffff\n      and\n      mul\n      or\n      swap1\n      sstore\n      pop\n        /* \"WatermelonBUSDLottery.sol\":11686:11705  participantNumbers1 */\n      0x08\n      0x00\n        /* \"WatermelonBUSDLottery.sol\":11686:11707  participantNumbers1++ */\n      dup2\n      sload\n      dup1\n      swap3\n      swap2\n      swap1\n      tag_369\n      swap1\n      tag_169\n      jump\t// in\n    tag_369:\n      swap2\n      swap1\n      pop\n      sstore\n      pop\n        /* \"WatermelonBUSDLottery.sol\":11752:11774  maxParticipantNumbers1 */\n      sload(0x07)\n        /* \"WatermelonBUSDLottery.sol\":11729:11748  participantNumbers1 */\n      sload(0x08)\n        /* \"WatermelonBUSDLottery.sol\":11729:11774  participantNumbers1 == maxParticipantNumbers1 */\n      sub\n        /* \"WatermelonBUSDLottery.sol\":11725:11829  if (participantNumbers1 == maxParticipantNumbers1){... */\n      tag_370\n      jumpi\n        /* \"WatermelonBUSDLottery.sol\":11797:11810  pickwinner1() */\n      tag_371\n        /* \"WatermelonBUSDLottery.sol\":11797:11808  pickwinner1 */\n      tag_156\n        /* \"WatermelonBUSDLottery.sol\":11797:11810  pickwinner1() */\n      jump\t// in\n    tag_371:\n        /* \"WatermelonBUSDLottery.sol\":11725:11829  if (participantNumbers1 == maxParticipantNumbers1){... */\n    tag_370:\n        /* \"WatermelonBUSDLottery.sol\":11562:11957  if (participantNumbers1 < maxParticipantNumbers1){... */\n      jump(tag_372)\n    tag_367:\n        /* \"WatermelonBUSDLottery.sol\":11888:11910  maxParticipantNumbers1 */\n      sload(0x07)\n        /* \"WatermelonBUSDLottery.sol\":11865:11884  participantNumbers1 */\n      sload(0x08)\n        /* \"WatermelonBUSDLottery.sol\":11865:11910  participantNumbers1 == maxParticipantNumbers1 */\n      sub\n        /* \"WatermelonBUSDLottery.sol\":11861:11957  if (participantNumbers1 == maxParticipantNumbers1){... */\n      tag_373\n      jumpi\n        /* \"WatermelonBUSDLottery.sol\":11929:11942  pickwinner1() */\n      tag_374\n        /* \"WatermelonBUSDLottery.sol\":11929:11940  pickwinner1 */\n      tag_156\n        /* \"WatermelonBUSDLottery.sol\":11929:11942  pickwinner1() */\n      jump\t// in\n    tag_374:\n        /* \"WatermelonBUSDLottery.sol\":11861:11957  if (participantNumbers1 == maxParticipantNumbers1){... */\n    tag_373:\n        /* \"WatermelonBUSDLottery.sol\":11562:11957  if (participantNumbers1 < maxParticipantNumbers1){... */\n    tag_372:\n        /* \"WatermelonBUSDLottery.sol\":11541:11967  if(chk){... */\n    tag_366:\n        /* \"WatermelonBUSDLottery.sol\":11284:11973  {... */\n      pop\n        /* \"WatermelonBUSDLottery.sol\":7215:7220  false */\n      0x00\n        /* \"WatermelonBUSDLottery.sol\":7206:7212  locked */\n      dup1\n      0x00\n        /* \"WatermelonBUSDLottery.sol\":7206:7220  locked = false */\n      0x0100\n      exp\n      dup2\n      sload\n      dup2\n      0xff\n      mul\n      not\n      and\n      swap1\n      dup4\n      iszero\n      iszero\n      mul\n      or\n      swap1\n      sstore\n      pop\n        /* \"WatermelonBUSDLottery.sol\":11214:11973  function joinLottery1(uint256 _amount) external notOwner() noReentrant{... */\n      pop\n      jump\t// out\n        /* \"WatermelonBUSDLottery.sol\":16559:17293  function allWinner1() public view returns(address[] memory){... */\n    tag_130:\n        /* \"WatermelonBUSDLottery.sol\":16601:16617  address[] memory */\n      0x60\n        /* \"WatermelonBUSDLottery.sol\":16628:16651  address[] memory result */\n      0x00\n        /* \"WatermelonBUSDLottery.sol\":16667:16669  17 */\n      0x11\n        /* \"WatermelonBUSDLottery.sol\":16653:16670  new address[](17) */\n      0xffffffffffffffff\n      dup2\n      gt\n      iszero\n      tag_376\n      jumpi\n      tag_377\n      tag_160\n      jump\t// in\n    tag_377:\n    tag_376:\n      mload(0x40)\n      swap1\n      dup1\n      dup3\n      mstore\n      dup1\n      0x20\n      mul\n      0x20\n      add\n      dup3\n      add\n      0x40\n      mstore\n      dup1\n      iszero\n      tag_378\n      jumpi\n      dup2\n      0x20\n      add\n      0x20\n      dup3\n      mul\n      dup1\n      calldatasize\n      dup4\n      calldatacopy\n      dup1\n      dup3\n      add\n      swap2\n      pop\n      pop\n      swap1\n      pop\n    tag_378:\n      pop\n        /* \"WatermelonBUSDLottery.sol\":16628:16670  address[] memory result= new address[](17) */\n      swap1\n      pop\n        /* \"WatermelonBUSDLottery.sol\":16680:16699  uint256 arrayLength */\n      0x00\n        /* \"WatermelonBUSDLottery.sol\":16702:16716  winnerLottery1 */\n      0x11\n        /* \"WatermelonBUSDLottery.sol\":16702:16723  winnerLottery1.length */\n      dup1\n      sload\n      swap1\n      pop\n        /* \"WatermelonBUSDLottery.sol\":16680:16723  uint256 arrayLength = winnerLottery1.length */\n      swap1\n      pop\n        /* \"WatermelonBUSDLottery.sol\":16733:16753  uint256 resultLength */\n      0x00\n        /* \"WatermelonBUSDLottery.sol\":16756:16762  result */\n      dup3\n        /* \"WatermelonBUSDLottery.sol\":16756:16769  result.length */\n      mload\n        /* \"WatermelonBUSDLottery.sol\":16733:16769  uint256 resultLength = result.length */\n      swap1\n      pop\n        /* \"WatermelonBUSDLottery.sol\":16779:16792  uint256 index */\n      0x00\n        /* \"WatermelonBUSDLottery.sol\":16820:16822  10 */\n      0x0a\n        /* \"WatermelonBUSDLottery.sol\":16808:16819  arrayLength */\n      dup4\n        /* \"WatermelonBUSDLottery.sol\":16808:16822  arrayLength>10 */\n      gt\n        /* \"WatermelonBUSDLottery.sol\":16805:17264  if(arrayLength>10){... */\n      iszero\n      tag_379\n      jumpi\n        /* \"WatermelonBUSDLottery.sol\":16842:16851  uint256 i */\n      0x00\n        /* \"WatermelonBUSDLottery.sol\":16852:16863  arrayLength */\n      dup4\n        /* \"WatermelonBUSDLottery.sol\":16842:16863  uint256 i=arrayLength */\n      swap1\n      pop\n        /* \"WatermelonBUSDLottery.sol\":16837:16993  for (uint256 i=arrayLength; i>(arrayLength-10); i--) {... */\n    tag_380:\n        /* \"WatermelonBUSDLottery.sol\":16880:16882  10 */\n      0x0a\n        /* \"WatermelonBUSDLottery.sol\":16868:16879  arrayLength */\n      dup5\n        /* \"WatermelonBUSDLottery.sol\":16868:16882  arrayLength-10 */\n      tag_383\n      swap2\n      swap1\n      tag_167\n      jump\t// in\n    tag_383:\n        /* \"WatermelonBUSDLottery.sol\":16865:16866  i */\n      dup2\n        /* \"WatermelonBUSDLottery.sol\":16865:16883  i>(arrayLength-10) */\n      gt\n        /* \"WatermelonBUSDLottery.sol\":16837:16993  for (uint256 i=arrayLength; i>(arrayLength-10); i--) {... */\n      iszero\n      tag_381\n      jumpi\n        /* \"WatermelonBUSDLottery.sol\":16908:16922  resultLength++ */\n      dup3\n      dup1\n      tag_384\n      swap1\n      tag_169\n      jump\t// in\n    tag_384:\n      swap4\n      pop\n      pop\n        /* \"WatermelonBUSDLottery.sol\":16961:16975  winnerLottery1 */\n      0x11\n        /* \"WatermelonBUSDLottery.sol\":16976:16977  i */\n      dup2\n        /* \"WatermelonBUSDLottery.sol\":16961:16978  winnerLottery1[i] */\n      dup2\n      sload\n      dup2\n      lt\n      tag_385\n      jumpi\n      tag_386\n      tag_172\n      jump\t// in\n    tag_386:\n    tag_385:\n      swap1\n      0x00\n      mstore\n      keccak256(0x00, 0x20)\n      add\n      0x00\n      swap1\n      sload\n      swap1\n      0x0100\n      exp\n      swap1\n      div\n      0xffffffffffffffffffffffffffffffffffffffff\n      and\n        /* \"WatermelonBUSDLottery.sol\":16940:16946  result */\n      dup6\n        /* \"WatermelonBUSDLottery.sol\":16947:16959  resultLength */\n      dup5\n        /* \"WatermelonBUSDLottery.sol\":16940:16960  result[resultLength] */\n      dup2\n      mload\n      dup2\n      lt\n      tag_388\n      jumpi\n      tag_389\n      tag_172\n      jump\t// in\n    tag_389:\n    tag_388:\n      0x20\n      mul\n      0x20\n      add\n      add\n        /* \"WatermelonBUSDLottery.sol\":16940:16978  result[resultLength]=winnerLottery1[i] */\n      swap1\n      0xffffffffffffffffffffffffffffffffffffffff\n      and\n      swap1\n      dup2\n      0xffffffffffffffffffffffffffffffffffffffff\n      and\n      dup2\n      mstore\n      pop\n      pop\n        /* \"WatermelonBUSDLottery.sol\":16885:16888  i-- */\n      dup1\n      dup1\n      tag_390\n      swap1\n      tag_177\n      jump\t// in\n    tag_390:\n      swap2\n      pop\n      pop\n        /* \"WatermelonBUSDLottery.sol\":16837:16993  for (uint256 i=arrayLength; i>(arrayLength-10); i--) {... */\n      jump(tag_380)\n    tag_381:\n      pop\n        /* \"WatermelonBUSDLottery.sol\":16805:17264  if(arrayLength>10){... */\n      jump(tag_391)\n    tag_379:\n        /* \"WatermelonBUSDLottery.sol\":17036:17045  uint256 i */\n      0x00\n        /* \"WatermelonBUSDLottery.sol\":17046:17057  arrayLength */\n      dup4\n        /* \"WatermelonBUSDLottery.sol\":17036:17057  uint256 i=arrayLength */\n      swap1\n      pop\n        /* \"WatermelonBUSDLottery.sol\":17031:17254  for (uint256 i=arrayLength; i>0; i--) {... */\n    tag_392:\n        /* \"WatermelonBUSDLottery.sol\":17061:17062  0 */\n      0x00\n        /* \"WatermelonBUSDLottery.sol\":17059:17060  i */\n      dup2\n        /* \"WatermelonBUSDLottery.sol\":17059:17062  i>0 */\n      gt\n        /* \"WatermelonBUSDLottery.sol\":17031:17254  for (uint256 i=arrayLength; i>0; i--) {... */\n      iszero\n      tag_393\n      jumpi\n        /* \"WatermelonBUSDLottery.sol\":17087:17101  resultLength++ */\n      dup3\n      dup1\n      tag_395\n      swap1\n      tag_169\n      jump\t// in\n    tag_395:\n      swap4\n      pop\n      pop\n        /* \"WatermelonBUSDLottery.sol\":17119:17143  address payable _address */\n      0x00\n        /* \"WatermelonBUSDLottery.sol\":17154:17168  winnerLottery1 */\n      0x11\n        /* \"WatermelonBUSDLottery.sol\":17171:17172  1 */\n      0x01\n        /* \"WatermelonBUSDLottery.sol\":17169:17170  i */\n      dup4\n        /* \"WatermelonBUSDLottery.sol\":17169:17172  i-1 */\n      tag_396\n      swap2\n      swap1\n      tag_167\n      jump\t// in\n    tag_396:\n        /* \"WatermelonBUSDLottery.sol\":17154:17173  winnerLottery1[i-1] */\n      dup2\n      sload\n      dup2\n      lt\n      tag_397\n      jumpi\n      tag_398\n      tag_172\n      jump\t// in\n    tag_398:\n    tag_397:\n      swap1\n      0x00\n      mstore\n      keccak256(0x00, 0x20)\n      add\n      0x00\n      swap1\n      sload\n      swap1\n      0x0100\n      exp\n      swap1\n      div\n      0xffffffffffffffffffffffffffffffffffffffff\n      and\n        /* \"WatermelonBUSDLottery.sol\":17119:17174  address payable _address = payable(winnerLottery1[i-1]) */\n      swap1\n      pop\n        /* \"WatermelonBUSDLottery.sol\":17206:17214  _address */\n      dup1\n        /* \"WatermelonBUSDLottery.sol\":17192:17198  result */\n      dup7\n        /* \"WatermelonBUSDLottery.sol\":17199:17204  index */\n      dup5\n        /* \"WatermelonBUSDLottery.sol\":17192:17205  result[index] */\n      dup2\n      mload\n      dup2\n      lt\n      tag_400\n      jumpi\n      tag_401\n      tag_172\n      jump\t// in\n    tag_401:\n    tag_400:\n      0x20\n      mul\n      0x20\n      add\n      add\n        /* \"WatermelonBUSDLottery.sol\":17192:17214  result[index]=_address */\n      swap1\n      0xffffffffffffffffffffffffffffffffffffffff\n      and\n      swap1\n      dup2\n      0xffffffffffffffffffffffffffffffffffffffff\n      and\n      dup2\n      mstore\n      pop\n      pop\n        /* \"WatermelonBUSDLottery.sol\":17232:17239  index++ */\n      dup3\n      dup1\n      tag_402\n      swap1\n      tag_169\n      jump\t// in\n    tag_402:\n      swap4\n      pop\n      pop\n        /* \"WatermelonBUSDLottery.sol\":17069:17254  {... */\n      pop\n        /* \"WatermelonBUSDLottery.sol\":17064:17067  i-- */\n      dup1\n      dup1\n      tag_403\n      swap1\n      tag_177\n      jump\t// in\n    tag_403:\n      swap2\n      pop\n      pop\n        /* \"WatermelonBUSDLottery.sol\":17031:17254  for (uint256 i=arrayLength; i>0; i--) {... */\n      jump(tag_392)\n    tag_393:\n      pop\n        /* \"WatermelonBUSDLottery.sol\":16805:17264  if(arrayLength>10){... */\n    tag_391:\n        /* \"WatermelonBUSDLottery.sol\":17280:17286  result */\n      dup4\n        /* \"WatermelonBUSDLottery.sol\":17273:17286  return result */\n      swap5\n      pop\n      pop\n      pop\n      pop\n      pop\n        /* \"WatermelonBUSDLottery.sol\":16559:17293  function allWinner1() public view returns(address[] memory){... */\n      swap1\n      jump\t// out\n        /* \"WatermelonBUSDLottery.sol\":10075:10174  function viewTicket2() external view returns(uint256){... */\n    tag_133:\n        /* \"WatermelonBUSDLottery.sol\":10120:10127  uint256 */\n      0x00\n        /* \"WatermelonBUSDLottery.sol\":10145:10167  maxParticipantNumbers2 */\n      sload(0x0b)\n        /* \"WatermelonBUSDLottery.sol\":10138:10167  return maxParticipantNumbers2 */\n      swap1\n      pop\n        /* \"WatermelonBUSDLottery.sol\":10075:10174  function viewTicket2() external view returns(uint256){... */\n      swap1\n      jump\t// out\n        /* \"WatermelonBUSDLottery.sol\":8975:9084  function setTicketPrice1(uint256 _valueInEther) public onlyOwner{... */\n    tag_137:\n        /* \"WatermelonBUSDLottery.sol\":8712:8717  owner */\n      0x02\n      0x00\n      swap1\n      sload\n      swap1\n      0x0100\n      exp\n      swap1\n      div\n      0xffffffffffffffffffffffffffffffffffffffff\n      and\n        /* \"WatermelonBUSDLottery.sol\":8698:8717  msg.sender == owner */\n      0xffffffffffffffffffffffffffffffffffffffff\n      and\n        /* \"WatermelonBUSDLottery.sol\":8698:8708  msg.sender */\n      caller\n        /* \"WatermelonBUSDLottery.sol\":8698:8717  msg.sender == owner */\n      0xffffffffffffffffffffffffffffffffffffffff\n      and\n      eq\n        /* \"WatermelonBUSDLottery.sol\":8690:8736  require(msg.sender == owner, \"Access denied!\") */\n      tag_406\n      jumpi\n      mload(0x40)\n      0x08c379a000000000000000000000000000000000000000000000000000000000\n      dup2\n      mstore\n      0x04\n      add\n      tag_407\n      swap1\n      tag_153\n      jump\t// in\n    tag_407:\n      mload(0x40)\n      dup1\n      swap2\n      sub\n      swap1\n      revert\n    tag_406:\n        /* \"WatermelonBUSDLottery.sol\":9064:9077  _valueInEther */\n      dup1\n        /* \"WatermelonBUSDLottery.sol\":9049:9061  ticketPrice1 */\n      0x09\n        /* \"WatermelonBUSDLottery.sol\":9049:9077  ticketPrice1 = _valueInEther */\n      dup2\n      swap1\n      sstore\n      pop\n        /* \"WatermelonBUSDLottery.sol\":8975:9084  function setTicketPrice1(uint256 _valueInEther) public onlyOwner{... */\n      pop\n      jump\t// out\n        /* \"WatermelonBUSDLottery.sol\":9671:9765  function viewTicketPrice1() external view returns(uint256){... */\n    tag_139:\n        /* \"WatermelonBUSDLottery.sol\":9721:9728  uint256 */\n      0x00\n        /* \"WatermelonBUSDLottery.sol\":9746:9758  ticketPrice1 */\n      sload(0x09)\n        /* \"WatermelonBUSDLottery.sol\":9739:9758  return ticketPrice1 */\n      swap1\n      pop\n        /* \"WatermelonBUSDLottery.sol\":9671:9765  function viewTicketPrice1() external view returns(uint256){... */\n      swap1\n      jump\t// out\n        /* \"WatermelonBUSDLottery.sol\":9090:9199  function setTicketPrice2(uint256 _valueInEther) public onlyOwner{... */\n    tag_143:\n        /* \"WatermelonBUSDLottery.sol\":8712:8717  owner */\n      0x02\n      0x00\n      swap1\n      sload\n      swap1\n      0x0100\n      exp\n      swap1\n      div\n      0xffffffffffffffffffffffffffffffffffffffff\n      and\n        /* \"WatermelonBUSDLottery.sol\":8698:8717  msg.sender == owner */\n      0xffffffffffffffffffffffffffffffffffffffff\n      and\n        /* \"WatermelonBUSDLottery.sol\":8698:8708  msg.sender */\n      caller\n        /* \"WatermelonBUSDLottery.sol\":8698:8717  msg.sender == owner */\n      0xffffffffffffffffffffffffffffffffffffffff\n      and\n      eq\n        /* \"WatermelonBUSDLottery.sol\":8690:8736  require(msg.sender == owner, \"Access denied!\") */\n      tag_411\n      jumpi\n      mload(0x40)\n      0x08c379a000000000000000000000000000000000000000000000000000000000\n      dup2\n      mstore\n      0x04\n      add\n      tag_412\n      swap1\n      tag_153\n      jump\t// in\n    tag_412:\n      mload(0x40)\n      dup1\n      swap2\n      sub\n      swap1\n      revert\n    tag_411:\n        /* \"WatermelonBUSDLottery.sol\":9179:9192  _valueInEther */\n      dup1\n        /* \"WatermelonBUSDLottery.sol\":9164:9176  ticketPrice2 */\n      0x0d\n        /* \"WatermelonBUSDLottery.sol\":9164:9192  ticketPrice2 = _valueInEther */\n      dup2\n      swap1\n      sstore\n      pop\n        /* \"WatermelonBUSDLottery.sol\":9090:9199  function setTicketPrice2(uint256 _valueInEther) public onlyOwner{... */\n      pop\n      jump\t// out\n        /* \"WatermelonBUSDLottery.sol\":7924:7954  address[] public winnerLottery */\n    tag_146:\n      0x10\n      dup2\n      dup2\n      sload\n      dup2\n      lt\n      tag_414\n      jumpi\n      0x00\n      dup1\n      revert\n    tag_414:\n      swap1\n      0x00\n      mstore\n      keccak256(0x00, 0x20)\n      add\n      0x00\n      swap2\n      pop\n      sload\n      swap1\n      0x0100\n      exp\n      swap1\n      div\n      0xffffffffffffffffffffffffffffffffffffffff\n      and\n      dup2\n      jump\t// out\n        /* \"WatermelonBUSDLottery.sol\":10266:10340  function announceLottery() public onlyOwner(){... */\n    tag_149:\n        /* \"WatermelonBUSDLottery.sol\":8712:8717  owner */\n      0x02\n      0x00\n      swap1\n      sload\n      swap1\n      0x0100\n      exp\n      swap1\n      div\n      0xffffffffffffffffffffffffffffffffffffffff\n      and\n        /* \"WatermelonBUSDLottery.sol\":8698:8717  msg.sender == owner */\n      0xffffffffffffffffffffffffffffffffffffffff\n      and\n        /* \"WatermelonBUSDLottery.sol\":8698:8708  msg.sender */\n      caller\n        /* \"WatermelonBUSDLottery.sol\":8698:8717  msg.sender == owner */\n      0xffffffffffffffffffffffffffffffffffffffff\n      and\n      eq\n        /* \"WatermelonBUSDLottery.sol\":8690:8736  require(msg.sender == owner, \"Access denied!\") */\n      tag_417\n      jumpi\n      mload(0x40)\n      0x08c379a000000000000000000000000000000000000000000000000000000000\n      dup2\n      mstore\n      0x04\n      add\n      tag_418\n      swap1\n      tag_153\n      jump\t// in\n    tag_418:\n      mload(0x40)\n      dup1\n      swap2\n      sub\n      swap1\n      revert\n    tag_417:\n        /* \"WatermelonBUSDLottery.sol\":10321:10333  pickwinner() */\n      tag_420\n        /* \"WatermelonBUSDLottery.sol\":10321:10331  pickwinner */\n      tag_298\n        /* \"WatermelonBUSDLottery.sol\":10321:10333  pickwinner() */\n      jump\t// in\n    tag_420:\n        /* \"WatermelonBUSDLottery.sol\":10266:10340  function announceLottery() public onlyOwner(){... */\n      jump\t// out\n        /* \"WatermelonBUSDLottery.sol\":14695:15245  function pickwinner1() internal {... */\n    tag_156:\n        /* \"WatermelonBUSDLottery.sol\":14737:14745  uint win */\n      0x00\n        /* \"WatermelonBUSDLottery.sol\":14759:14772  participants1 */\n      0x0a\n        /* \"WatermelonBUSDLottery.sol\":14759:14779  participants1.length */\n      dup1\n      sload\n      swap1\n      pop\n        /* \"WatermelonBUSDLottery.sol\":14748:14756  random() */\n      tag_422\n        /* \"WatermelonBUSDLottery.sol\":14748:14754  random */\n      tag_423\n        /* \"WatermelonBUSDLottery.sol\":14748:14756  random() */\n      jump\t// in\n    tag_422:\n        /* \"WatermelonBUSDLottery.sol\":14748:14779  random() % participants1.length */\n      tag_424\n      swap2\n      swap1\n      tag_425\n      jump\t// in\n    tag_424:\n        /* \"WatermelonBUSDLottery.sol\":14737:14779  uint win = random() % participants1.length */\n      swap1\n      pop\n        /* \"WatermelonBUSDLottery.sol\":14789:14812  uint256 contractBalance */\n      0x00\n        /* \"WatermelonBUSDLottery.sol\":14830:14843  participants1 */\n      0x0a\n        /* \"WatermelonBUSDLottery.sol\":14830:14850  participants1.length */\n      dup1\n      sload\n      swap1\n      pop\n        /* \"WatermelonBUSDLottery.sol\":14815:14827  ticketPrice1 */\n      sload(0x09)\n        /* \"WatermelonBUSDLottery.sol\":14815:14850  ticketPrice1 * participants1.length */\n      tag_426\n      swap2\n      swap1\n      tag_427\n      jump\t// in\n    tag_426:\n        /* \"WatermelonBUSDLottery.sol\":14789:14850  uint256 contractBalance = ticketPrice1 * participants1.length */\n      swap1\n      pop\n        /* \"WatermelonBUSDLottery.sol\":14860:14879  uint256 wmlnBusdFee */\n      0x00\n        /* \"WatermelonBUSDLottery.sol\":14882:14933  SafeMath.div(SafeMath.mul(contractBalance,fee),100) */\n      tag_428\n        /* \"WatermelonBUSDLottery.sol\":14895:14928  SafeMath.mul(contractBalance,fee) */\n      tag_429\n        /* \"WatermelonBUSDLottery.sol\":14908:14923  contractBalance */\n      dup4\n        /* \"WatermelonBUSDLottery.sol\":14924:14927  fee */\n      sload(0x01)\n        /* \"WatermelonBUSDLottery.sol\":14895:14907  SafeMath.mul */\n      tag_430\n        /* \"WatermelonBUSDLottery.sol\":14895:14928  SafeMath.mul(contractBalance,fee) */\n      jump\t// in\n    tag_429:\n        /* \"WatermelonBUSDLottery.sol\":14929:14932  100 */\n      0x64\n        /* \"WatermelonBUSDLottery.sol\":14882:14894  SafeMath.div */\n      tag_431\n        /* \"WatermelonBUSDLottery.sol\":14882:14933  SafeMath.div(SafeMath.mul(contractBalance,fee),100) */\n      jump\t// in\n    tag_428:\n        /* \"WatermelonBUSDLottery.sol\":14860:14933  uint256 wmlnBusdFee = SafeMath.div(SafeMath.mul(contractBalance,fee),100) */\n      swap1\n      pop\n        /* \"WatermelonBUSDLottery.sol\":14943:14956  BusdInterface */\n      0x14\n      0x00\n      swap1\n      sload\n      swap1\n      0x0100\n      exp\n      swap1\n      div\n      0xffffffffffffffffffffffffffffffffffffffff\n      and\n        /* \"WatermelonBUSDLottery.sol\":14943:14965  BusdInterface.transfer */\n      0xffffffffffffffffffffffffffffffffffffffff\n      and\n      0xa9059cbb\n        /* \"WatermelonBUSDLottery.sol\":14966:14974  wmlnBusd */\n      0x00\n      0x01\n      swap1\n      sload\n      swap1\n      0x0100\n      exp\n      swap1\n      div\n      0xffffffffffffffffffffffffffffffffffffffff\n      and\n        /* \"WatermelonBUSDLottery.sol\":14975:14986  wmlnBusdFee */\n      dup4\n        /* \"WatermelonBUSDLottery.sol\":14943:14987  BusdInterface.transfer(wmlnBusd,wmlnBusdFee) */\n      mload(0x40)\n      dup4\n      0xffffffff\n      and\n      0xe0\n      shl\n      dup2\n      mstore\n      0x04\n      add\n      tag_432\n      swap3\n      swap2\n      swap1\n      tag_433\n      jump\t// in\n    tag_432:\n      0x20\n      mload(0x40)\n      dup1\n      dup4\n      sub\n      dup2\n      0x00\n      dup8\n      gas\n      call\n      iszero\n      dup1\n      iszero\n      tag_435\n      jumpi\n      returndatasize\n      0x00\n      dup1\n      returndatacopy\n      revert(0x00, returndatasize)\n    tag_435:\n      pop\n      pop\n      pop\n      pop\n      mload(0x40)\n      returndatasize\n      not(0x1f)\n      0x1f\n      dup3\n      add\n      and\n      dup3\n      add\n      dup1\n      0x40\n      mstore\n      pop\n      dup2\n      add\n      swap1\n      tag_436\n      swap2\n      swap1\n      tag_222\n      jump\t// in\n    tag_436:\n      pop\n        /* \"WatermelonBUSDLottery.sol\":14997:15017  uint256 winnerAmount */\n      0x00\n        /* \"WatermelonBUSDLottery.sol\":15020:15061  SafeMath.sub(contractBalance,wmlnBusdFee) */\n      tag_437\n        /* \"WatermelonBUSDLottery.sol\":15033:15048  contractBalance */\n      dup4\n        /* \"WatermelonBUSDLottery.sol\":15049:15060  wmlnBusdFee */\n      dup4\n        /* \"WatermelonBUSDLottery.sol\":15020:15032  SafeMath.sub */\n      tag_438\n        /* \"WatermelonBUSDLottery.sol\":15020:15061  SafeMath.sub(contractBalance,wmlnBusdFee) */\n      jump\t// in\n    tag_437:\n        /* \"WatermelonBUSDLottery.sol\":14997:15061  uint256 winnerAmount = SafeMath.sub(contractBalance,wmlnBusdFee) */\n      swap1\n      pop\n        /* \"WatermelonBUSDLottery.sol\":15071:15084  BusdInterface */\n      0x14\n      0x00\n      swap1\n      sload\n      swap1\n      0x0100\n      exp\n      swap1\n      div\n      0xffffffffffffffffffffffffffffffffffffffff\n      and\n        /* \"WatermelonBUSDLottery.sol\":15071:15093  BusdInterface.transfer */\n      0xffffffffffffffffffffffffffffffffffffffff\n      and\n      0xa9059cbb\n        /* \"WatermelonBUSDLottery.sol\":15094:15107  participants1 */\n      0x0a\n        /* \"WatermelonBUSDLottery.sol\":15108:15111  win */\n      dup7\n        /* \"WatermelonBUSDLottery.sol\":15094:15112  participants1[win] */\n      dup2\n      sload\n      dup2\n      lt\n      tag_439\n      jumpi\n      tag_440\n      tag_172\n      jump\t// in\n    tag_440:\n    tag_439:\n      swap1\n      0x00\n      mstore\n      keccak256(0x00, 0x20)\n      add\n      0x00\n      swap1\n      sload\n      swap1\n      0x0100\n      exp\n      swap1\n      div\n      0xffffffffffffffffffffffffffffffffffffffff\n      and\n        /* \"WatermelonBUSDLottery.sol\":15113:15125  winnerAmount */\n      dup4\n        /* \"WatermelonBUSDLottery.sol\":15071:15126  BusdInterface.transfer(participants1[win],winnerAmount) */\n      mload(0x40)\n      dup4\n      0xffffffff\n      and\n      0xe0\n      shl\n      dup2\n      mstore\n      0x04\n      add\n      tag_442\n      swap3\n      swap2\n      swap1\n      tag_443\n      jump\t// in\n    tag_442:\n      0x20\n      mload(0x40)\n      dup1\n      dup4\n      sub\n      dup2\n      0x00\n      dup8\n      gas\n      call\n      iszero\n      dup1\n      iszero\n      tag_445\n      jumpi\n      returndatasize\n      0x00\n      dup1\n      returndatacopy\n      revert(0x00, returndatasize)\n    tag_445:\n      pop\n      pop\n      pop\n      pop\n      mload(0x40)\n      returndatasize\n      not(0x1f)\n      0x1f\n      dup3\n      add\n      and\n      dup3\n      add\n      dup1\n      0x40\n      mstore\n      pop\n      dup2\n      add\n      swap1\n      tag_446\n      swap2\n      swap1\n      tag_222\n      jump\t// in\n    tag_446:\n      pop\n        /* \"WatermelonBUSDLottery.sol\":15136:15150  winnerLottery1 */\n      0x11\n        /* \"WatermelonBUSDLottery.sol\":15156:15169  participants1 */\n      0x0a\n        /* \"WatermelonBUSDLottery.sol\":15170:15173  win */\n      dup6\n        /* \"WatermelonBUSDLottery.sol\":15156:15174  participants1[win] */\n      dup2\n      sload\n      dup2\n      lt\n      tag_447\n      jumpi\n      tag_448\n      tag_172\n      jump\t// in\n    tag_448:\n    tag_447:\n      swap1\n      0x00\n      mstore\n      keccak256(0x00, 0x20)\n      add\n      0x00\n      swap1\n      sload\n      swap1\n      0x0100\n      exp\n      swap1\n      div\n      0xffffffffffffffffffffffffffffffffffffffff\n      and\n        /* \"WatermelonBUSDLottery.sol\":15136:15175  winnerLottery1.push(participants1[win]) */\n      swap1\n      dup1\n      0x01\n      dup2\n      sload\n      add\n      dup1\n      dup3\n      sstore\n      dup1\n      swap2\n      pop\n      pop\n      0x01\n      swap1\n      sub\n      swap1\n      0x00\n      mstore\n      keccak256(0x00, 0x20)\n      add\n      0x00\n      swap1\n      swap2\n      swap1\n      swap2\n      swap1\n      swap2\n      0x0100\n      exp\n      dup2\n      sload\n      dup2\n      0xffffffffffffffffffffffffffffffffffffffff\n      mul\n      not\n      and\n      swap1\n      dup4\n      0xffffffffffffffffffffffffffffffffffffffff\n      and\n      mul\n      or\n      swap1\n      sstore\n      pop\n        /* \"WatermelonBUSDLottery.sol\":15192:15205  participants1 */\n      0x0a\n      0x00\n        /* \"WatermelonBUSDLottery.sol\":15185:15205  delete participants1 */\n      tag_451\n      swap2\n      swap1\n      tag_452\n      jump\t// in\n    tag_451:\n        /* \"WatermelonBUSDLottery.sol\":15237:15238  0 */\n      0x00\n        /* \"WatermelonBUSDLottery.sol\":15215:15234  participantNumbers1 */\n      0x08\n        /* \"WatermelonBUSDLottery.sol\":15215:15238  participantNumbers1 = 0 */\n      dup2\n      swap1\n      sstore\n      pop\n        /* \"WatermelonBUSDLottery.sol\":14727:15245  {... */\n      pop\n      pop\n      pop\n      pop\n        /* \"WatermelonBUSDLottery.sol\":14695:15245  function pickwinner1() internal {... */\n      jump\t// out\n        /* \"WatermelonBUSDLottery.sol\":15251:15801  function pickwinner2() internal {... */\n    tag_229:\n        /* \"WatermelonBUSDLottery.sol\":15293:15301  uint win */\n      0x00\n        /* \"WatermelonBUSDLottery.sol\":15315:15328  participants2 */\n      0x0e\n        /* \"WatermelonBUSDLottery.sol\":15315:15335  participants2.length */\n      dup1\n      sload\n      swap1\n      pop\n        /* \"WatermelonBUSDLottery.sol\":15304:15312  random() */\n      tag_454\n        /* \"WatermelonBUSDLottery.sol\":15304:15310  random */\n      tag_423\n        /* \"WatermelonBUSDLottery.sol\":15304:15312  random() */\n      jump\t// in\n    tag_454:\n        /* \"WatermelonBUSDLottery.sol\":15304:15335  random() % participants2.length */\n      tag_455\n      swap2\n      swap1\n      tag_425\n      jump\t// in\n    tag_455:\n        /* \"WatermelonBUSDLottery.sol\":15293:15335  uint win = random() % participants2.length */\n      swap1\n      pop\n        /* \"WatermelonBUSDLottery.sol\":15345:15368  uint256 contractBalance */\n      0x00\n        /* \"WatermelonBUSDLottery.sol\":15386:15399  participants2 */\n      0x0e\n        /* \"WatermelonBUSDLottery.sol\":15386:15406  participants2.length */\n      dup1\n      sload\n      swap1\n      pop\n        /* \"WatermelonBUSDLottery.sol\":15371:15383  ticketPrice2 */\n      sload(0x0d)\n        /* \"WatermelonBUSDLottery.sol\":15371:15406  ticketPrice2 * participants2.length */\n      tag_456\n      swap2\n      swap1\n      tag_427\n      jump\t// in\n    tag_456:\n        /* \"WatermelonBUSDLottery.sol\":15345:15406  uint256 contractBalance = ticketPrice2 * participants2.length */\n      swap1\n      pop\n        /* \"WatermelonBUSDLottery.sol\":15416:15435  uint256 wmlnBusdFee */\n      0x00\n        /* \"WatermelonBUSDLottery.sol\":15438:15489  SafeMath.div(SafeMath.mul(contractBalance,fee),100) */\n      tag_457\n        /* \"WatermelonBUSDLottery.sol\":15451:15484  SafeMath.mul(contractBalance,fee) */\n      tag_458\n        /* \"WatermelonBUSDLottery.sol\":15464:15479  contractBalance */\n      dup4\n        /* \"WatermelonBUSDLottery.sol\":15480:15483  fee */\n      sload(0x01)\n        /* \"WatermelonBUSDLottery.sol\":15451:15463  SafeMath.mul */\n      tag_430\n        /* \"WatermelonBUSDLottery.sol\":15451:15484  SafeMath.mul(contractBalance,fee) */\n      jump\t// in\n    tag_458:\n        /* \"WatermelonBUSDLottery.sol\":15485:15488  100 */\n      0x64\n        /* \"WatermelonBUSDLottery.sol\":15438:15450  SafeMath.div */\n      tag_431\n        /* \"WatermelonBUSDLottery.sol\":15438:15489  SafeMath.div(SafeMath.mul(contractBalance,fee),100) */\n      jump\t// in\n    tag_457:\n        /* \"WatermelonBUSDLottery.sol\":15416:15489  uint256 wmlnBusdFee = SafeMath.div(SafeMath.mul(contractBalance,fee),100) */\n      swap1\n      pop\n        /* \"WatermelonBUSDLottery.sol\":15499:15512  BusdInterface */\n      0x14\n      0x00\n      swap1\n      sload\n      swap1\n      0x0100\n      exp\n      swap1\n      div\n      0xffffffffffffffffffffffffffffffffffffffff\n      and\n        /* \"WatermelonBUSDLottery.sol\":15499:15521  BusdInterface.transfer */\n      0xffffffffffffffffffffffffffffffffffffffff\n      and\n      0xa9059cbb\n        /* \"WatermelonBUSDLottery.sol\":15522:15530  wmlnBusd */\n      0x00\n      0x01\n      swap1\n      sload\n      swap1\n      0x0100\n      exp\n      swap1\n      div\n      0xffffffffffffffffffffffffffffffffffffffff\n      and\n        /* \"WatermelonBUSDLottery.sol\":15531:15542  wmlnBusdFee */\n      dup4\n        /* \"WatermelonBUSDLottery.sol\":15499:15543  BusdInterface.transfer(wmlnBusd,wmlnBusdFee) */\n      mload(0x40)\n      dup4\n      0xffffffff\n      and\n      0xe0\n      shl\n      dup2\n      mstore\n      0x04\n      add\n      tag_459\n      swap3\n      swap2\n      swap1\n      tag_433\n      jump\t// in\n    tag_459:\n      0x20\n      mload(0x40)\n      dup1\n      dup4\n      sub\n      dup2\n      0x00\n      dup8\n      gas\n      call\n      iszero\n      dup1\n      iszero\n      tag_461\n      jumpi\n      returndatasize\n      0x00\n      dup1\n      returndatacopy\n      revert(0x00, returndatasize)\n    tag_461:\n      pop\n      pop\n      pop\n      pop\n      mload(0x40)\n      returndatasize\n      not(0x1f)\n      0x1f\n      dup3\n      add\n      and\n      dup3\n      add\n      dup1\n      0x40\n      mstore\n      pop\n      dup2\n      add\n      swap1\n      tag_462\n      swap2\n      swap1\n      tag_222\n      jump\t// in\n    tag_462:\n      pop\n        /* \"WatermelonBUSDLottery.sol\":15553:15573  uint256 winnerAmount */\n      0x00\n        /* \"WatermelonBUSDLottery.sol\":15576:15617  SafeMath.sub(contractBalance,wmlnBusdFee) */\n      tag_463\n        /* \"WatermelonBUSDLottery.sol\":15589:15604  contractBalance */\n      dup4\n        /* \"WatermelonBUSDLottery.sol\":15605:15616  wmlnBusdFee */\n      dup4\n        /* \"WatermelonBUSDLottery.sol\":15576:15588  SafeMath.sub */\n      tag_438\n        /* \"WatermelonBUSDLottery.sol\":15576:15617  SafeMath.sub(contractBalance,wmlnBusdFee) */\n      jump\t// in\n    tag_463:\n        /* \"WatermelonBUSDLottery.sol\":15553:15617  uint256 winnerAmount = SafeMath.sub(contractBalance,wmlnBusdFee) */\n      swap1\n      pop\n        /* \"WatermelonBUSDLottery.sol\":15627:15640  BusdInterface */\n      0x14\n      0x00\n      swap1\n      sload\n      swap1\n      0x0100\n      exp\n      swap1\n      div\n      0xffffffffffffffffffffffffffffffffffffffff\n      and\n        /* \"WatermelonBUSDLottery.sol\":15627:15649  BusdInterface.transfer */\n      0xffffffffffffffffffffffffffffffffffffffff\n      and\n      0xa9059cbb\n        /* \"WatermelonBUSDLottery.sol\":15650:15663  participants2 */\n      0x0e\n        /* \"WatermelonBUSDLottery.sol\":15664:15667  win */\n      dup7\n        /* \"WatermelonBUSDLottery.sol\":15650:15668  participants2[win] */\n      dup2\n      sload\n      dup2\n      lt\n      tag_464\n      jumpi\n      tag_465\n      tag_172\n      jump\t// in\n    tag_465:\n    tag_464:\n      swap1\n      0x00\n      mstore\n      keccak256(0x00, 0x20)\n      add\n      0x00\n      swap1\n      sload\n      swap1\n      0x0100\n      exp\n      swap1\n      div\n      0xffffffffffffffffffffffffffffffffffffffff\n      and\n        /* \"WatermelonBUSDLottery.sol\":15669:15681  winnerAmount */\n      dup4\n        /* \"WatermelonBUSDLottery.sol\":15627:15682  BusdInterface.transfer(participants2[win],winnerAmount) */\n      mload(0x40)\n      dup4\n      0xffffffff\n      and\n      0xe0\n      shl\n      dup2\n      mstore\n      0x04\n      add\n      tag_467\n      swap3\n      swap2\n      swap1\n      tag_443\n      jump\t// in\n    tag_467:\n      0x20\n      mload(0x40)\n      dup1\n      dup4\n      sub\n      dup2\n      0x00\n      dup8\n      gas\n      call\n      iszero\n      dup1\n      iszero\n      tag_469\n      jumpi\n      returndatasize\n      0x00\n      dup1\n      returndatacopy\n      revert(0x00, returndatasize)\n    tag_469:\n      pop\n      pop\n      pop\n      pop\n      mload(0x40)\n      returndatasize\n      not(0x1f)\n      0x1f\n      dup3\n      add\n      and\n      dup3\n      add\n      dup1\n      0x40\n      mstore\n      pop\n      dup2\n      add\n      swap1\n      tag_470\n      swap2\n      swap1\n      tag_222\n      jump\t// in\n    tag_470:\n      pop\n        /* \"WatermelonBUSDLottery.sol\":15692:15706  winnerLottery2 */\n      0x12\n        /* \"WatermelonBUSDLottery.sol\":15712:15725  participants2 */\n      0x0e\n        /* \"WatermelonBUSDLottery.sol\":15726:15729  win */\n      dup6\n        /* \"WatermelonBUSDLottery.sol\":15712:15730  participants2[win] */\n      dup2\n      sload\n      dup2\n      lt\n      tag_471\n      jumpi\n      tag_472\n      tag_172\n      jump\t// in\n    tag_472:\n    tag_471:\n      swap1\n      0x00\n      mstore\n      keccak256(0x00, 0x20)\n      add\n      0x00\n      swap1\n      sload\n      swap1\n      0x0100\n      exp\n      swap1\n      div\n      0xffffffffffffffffffffffffffffffffffffffff\n      and\n        /* \"WatermelonBUSDLottery.sol\":15692:15731  winnerLottery2.push(participants2[win]) */\n      swap1\n      dup1\n      0x01\n      dup2\n      sload\n      add\n      dup1\n      dup3\n      sstore\n      dup1\n      swap2\n      pop\n      pop\n      0x01\n      swap1\n      sub\n      swap1\n      0x00\n      mstore\n      keccak256(0x00, 0x20)\n      add\n      0x00\n      swap1\n      swap2\n      swap1\n      swap2\n      swap1\n      swap2\n      0x0100\n      exp\n      dup2\n      sload\n      dup2\n      0xffffffffffffffffffffffffffffffffffffffff\n      mul\n      not\n      and\n      swap1\n      dup4\n      0xffffffffffffffffffffffffffffffffffffffff\n      and\n      mul\n      or\n      swap1\n      sstore\n      pop\n        /* \"WatermelonBUSDLottery.sol\":15748:15761  participants2 */\n      0x0e\n      0x00\n        /* \"WatermelonBUSDLottery.sol\":15741:15761  delete participants2 */\n      tag_475\n      swap2\n      swap1\n      tag_452\n      jump\t// in\n    tag_475:\n        /* \"WatermelonBUSDLottery.sol\":15793:15794  0 */\n      0x00\n        /* \"WatermelonBUSDLottery.sol\":15771:15790  participantNumbers2 */\n      0x0c\n        /* \"WatermelonBUSDLottery.sol\":15771:15794  participantNumbers2 = 0 */\n      dup2\n      swap1\n      sstore\n      pop\n        /* \"WatermelonBUSDLottery.sol\":15283:15801  {... */\n      pop\n      pop\n      pop\n      pop\n        /* \"WatermelonBUSDLottery.sol\":15251:15801  function pickwinner2() internal {... */\n      jump\t// out\n        /* \"WatermelonBUSDLottery.sol\":14106:14689  function pickwinner() internal {... */\n    tag_298:\n        /* \"WatermelonBUSDLottery.sol\":14147:14155  uint win */\n      0x00\n        /* \"WatermelonBUSDLottery.sol\":14169:14181  participants */\n      0x06\n        /* \"WatermelonBUSDLottery.sol\":14169:14188  participants.length */\n      dup1\n      sload\n      swap1\n      pop\n        /* \"WatermelonBUSDLottery.sol\":14158:14166  random() */\n      tag_477\n        /* \"WatermelonBUSDLottery.sol\":14158:14164  random */\n      tag_423\n        /* \"WatermelonBUSDLottery.sol\":14158:14166  random() */\n      jump\t// in\n    tag_477:\n        /* \"WatermelonBUSDLottery.sol\":14158:14188  random() % participants.length */\n      tag_478\n      swap2\n      swap1\n      tag_425\n      jump\t// in\n    tag_478:\n        /* \"WatermelonBUSDLottery.sol\":14147:14188  uint win = random() % participants.length */\n      swap1\n      pop\n        /* \"WatermelonBUSDLottery.sol\":14198:14216  uint256 totalUsers */\n      0x00\n        /* \"WatermelonBUSDLottery.sol\":14219:14231  participants */\n      0x06\n        /* \"WatermelonBUSDLottery.sol\":14219:14238  participants.length */\n      dup1\n      sload\n      swap1\n      pop\n        /* \"WatermelonBUSDLottery.sol\":14198:14238  uint256 totalUsers = participants.length */\n      swap1\n      pop\n        /* \"WatermelonBUSDLottery.sol\":14249:14272  uint256 contractBalance */\n      0x00\n        /* \"WatermelonBUSDLottery.sol\":14289:14299  totalUsers */\n      dup2\n        /* \"WatermelonBUSDLottery.sol\":14275:14286  ticketPrice */\n      sload(0x05)\n        /* \"WatermelonBUSDLottery.sol\":14275:14299  ticketPrice * totalUsers */\n      tag_479\n      swap2\n      swap1\n      tag_427\n      jump\t// in\n    tag_479:\n        /* \"WatermelonBUSDLottery.sol\":14249:14299  uint256 contractBalance = ticketPrice * totalUsers */\n      swap1\n      pop\n        /* \"WatermelonBUSDLottery.sol\":14309:14328  uint256 wmlnBusdFee */\n      0x00\n        /* \"WatermelonBUSDLottery.sol\":14331:14382  SafeMath.div(SafeMath.mul(contractBalance,fee),100) */\n      tag_480\n        /* \"WatermelonBUSDLottery.sol\":14344:14377  SafeMath.mul(contractBalance,fee) */\n      tag_481\n        /* \"WatermelonBUSDLottery.sol\":14357:14372  contractBalance */\n      dup4\n        /* \"WatermelonBUSDLottery.sol\":14373:14376  fee */\n      sload(0x01)\n        /* \"WatermelonBUSDLottery.sol\":14344:14356  SafeMath.mul */\n      tag_430\n        /* \"WatermelonBUSDLottery.sol\":14344:14377  SafeMath.mul(contractBalance,fee) */\n      jump\t// in\n    tag_481:\n        /* \"WatermelonBUSDLottery.sol\":14378:14381  100 */\n      0x64\n        /* \"WatermelonBUSDLottery.sol\":14331:14343  SafeMath.div */\n      tag_431\n        /* \"WatermelonBUSDLottery.sol\":14331:14382  SafeMath.div(SafeMath.mul(contractBalance,fee),100) */\n      jump\t// in\n    tag_480:\n        /* \"WatermelonBUSDLottery.sol\":14309:14382  uint256 wmlnBusdFee = SafeMath.div(SafeMath.mul(contractBalance,fee),100) */\n      swap1\n      pop\n        /* \"WatermelonBUSDLottery.sol\":14392:14405  BusdInterface */\n      0x14\n      0x00\n      swap1\n      sload\n      swap1\n      0x0100\n      exp\n      swap1\n      div\n      0xffffffffffffffffffffffffffffffffffffffff\n      and\n        /* \"WatermelonBUSDLottery.sol\":14392:14414  BusdInterface.transfer */\n      0xffffffffffffffffffffffffffffffffffffffff\n      and\n      0xa9059cbb\n        /* \"WatermelonBUSDLottery.sol\":14415:14423  wmlnBusd */\n      0x00\n      0x01\n      swap1\n      sload\n      swap1\n      0x0100\n      exp\n      swap1\n      div\n      0xffffffffffffffffffffffffffffffffffffffff\n      and\n        /* \"WatermelonBUSDLottery.sol\":14424:14435  wmlnBusdFee */\n      dup4\n        /* \"WatermelonBUSDLottery.sol\":14392:14436  BusdInterface.transfer(wmlnBusd,wmlnBusdFee) */\n      mload(0x40)\n      dup4\n      0xffffffff\n      and\n      0xe0\n      shl\n      dup2\n      mstore\n      0x04\n      add\n      tag_482\n      swap3\n      swap2\n      swap1\n      tag_433\n      jump\t// in\n    tag_482:\n      0x20\n      mload(0x40)\n      dup1\n      dup4\n      sub\n      dup2\n      0x00\n      dup8\n      gas\n      call\n      iszero\n      dup1\n      iszero\n      tag_484\n      jumpi\n      returndatasize\n      0x00\n      dup1\n      returndatacopy\n      revert(0x00, returndatasize)\n    tag_484:\n      pop\n      pop\n      pop\n      pop\n      mload(0x40)\n      returndatasize\n      not(0x1f)\n      0x1f\n      dup3\n      add\n      and\n      dup3\n      add\n      dup1\n      0x40\n      mstore\n      pop\n      dup2\n      add\n      swap1\n      tag_485\n      swap2\n      swap1\n      tag_222\n      jump\t// in\n    tag_485:\n      pop\n        /* \"WatermelonBUSDLottery.sol\":14446:14466  uint256 winnerAmount */\n      0x00\n        /* \"WatermelonBUSDLottery.sol\":14469:14510  SafeMath.sub(contractBalance,wmlnBusdFee) */\n      tag_486\n        /* \"WatermelonBUSDLottery.sol\":14482:14497  contractBalance */\n      dup4\n        /* \"WatermelonBUSDLottery.sol\":14498:14509  wmlnBusdFee */\n      dup4\n        /* \"WatermelonBUSDLottery.sol\":14469:14481  SafeMath.sub */\n      tag_438\n        /* \"WatermelonBUSDLottery.sol\":14469:14510  SafeMath.sub(contractBalance,wmlnBusdFee) */\n      jump\t// in\n    tag_486:\n        /* \"WatermelonBUSDLottery.sol\":14446:14510  uint256 winnerAmount = SafeMath.sub(contractBalance,wmlnBusdFee) */\n      swap1\n      pop\n        /* \"WatermelonBUSDLottery.sol\":14520:14533  BusdInterface */\n      0x14\n      0x00\n      swap1\n      sload\n      swap1\n      0x0100\n      exp\n      swap1\n      div\n      0xffffffffffffffffffffffffffffffffffffffff\n      and\n        /* \"WatermelonBUSDLottery.sol\":14520:14542  BusdInterface.transfer */\n      0xffffffffffffffffffffffffffffffffffffffff\n      and\n      0xa9059cbb\n        /* \"WatermelonBUSDLottery.sol\":14543:14555  participants */\n      0x06\n        /* \"WatermelonBUSDLottery.sol\":14556:14559  win */\n      dup8\n        /* \"WatermelonBUSDLottery.sol\":14543:14560  participants[win] */\n      dup2\n      sload\n      dup2\n      lt\n      tag_487\n      jumpi\n      tag_488\n      tag_172\n      jump\t// in\n    tag_488:\n    tag_487:\n      swap1\n      0x00\n      mstore\n      keccak256(0x00, 0x20)\n      add\n      0x00\n      swap1\n      sload\n      swap1\n      0x0100\n      exp\n      swap1\n      div\n      0xffffffffffffffffffffffffffffffffffffffff\n      and\n        /* \"WatermelonBUSDLottery.sol\":14561:14573  winnerAmount */\n      dup4\n        /* \"WatermelonBUSDLottery.sol\":14520:14574  BusdInterface.transfer(participants[win],winnerAmount) */\n      mload(0x40)\n      dup4\n      0xffffffff\n      and\n      0xe0\n      shl\n      dup2\n      mstore\n      0x04\n      add\n      tag_490\n      swap3\n      swap2\n      swap1\n      tag_443\n      jump\t// in\n    tag_490:\n      0x20\n      mload(0x40)\n      dup1\n      dup4\n      sub\n      dup2\n      0x00\n      dup8\n      gas\n      call\n      iszero\n      dup1\n      iszero\n      tag_492\n      jumpi\n      returndatasize\n      0x00\n      dup1\n      returndatacopy\n      revert(0x00, returndatasize)\n    tag_492:\n      pop\n      pop\n      pop\n      pop\n      mload(0x40)\n      returndatasize\n      not(0x1f)\n      0x1f\n      dup3\n      add\n      and\n      dup3\n      add\n      dup1\n      0x40\n      mstore\n      pop\n      dup2\n      add\n      swap1\n      tag_493\n      swap2\n      swap1\n      tag_222\n      jump\t// in\n    tag_493:\n      pop\n        /* \"WatermelonBUSDLottery.sol\":14584:14597  winnerLottery */\n      0x10\n        /* \"WatermelonBUSDLottery.sol\":14603:14615  participants */\n      0x06\n        /* \"WatermelonBUSDLottery.sol\":14616:14619  win */\n      dup7\n        /* \"WatermelonBUSDLottery.sol\":14603:14620  participants[win] */\n      dup2\n      sload\n      dup2\n      lt\n      tag_494\n      jumpi\n      tag_495\n      tag_172\n      jump\t// in\n    tag_495:\n    tag_494:\n      swap1\n      0x00\n      mstore\n      keccak256(0x00, 0x20)\n      add\n      0x00\n      swap1\n      sload\n      swap1\n      0x0100\n      exp\n      swap1\n      div\n      0xffffffffffffffffffffffffffffffffffffffff\n      and\n        /* \"WatermelonBUSDLottery.sol\":14584:14621  winnerLottery.push(participants[win]) */\n      swap1\n      dup1\n      0x01\n      dup2\n      sload\n      add\n      dup1\n      dup3\n      sstore\n      dup1\n      swap2\n      pop\n      pop\n      0x01\n      swap1\n      sub\n      swap1\n      0x00\n      mstore\n      keccak256(0x00, 0x20)\n      add\n      0x00\n      swap1\n      swap2\n      swap1\n      swap2\n      swap1\n      swap2\n      0x0100\n      exp\n      dup2\n      sload\n      dup2\n      0xffffffffffffffffffffffffffffffffffffffff\n      mul\n      not\n      and\n      swap1\n      dup4\n      0xffffffffffffffffffffffffffffffffffffffff\n      and\n      mul\n      or\n      swap1\n      sstore\n      pop\n        /* \"WatermelonBUSDLottery.sol\":14638:14650  participants */\n      0x06\n      0x00\n        /* \"WatermelonBUSDLottery.sol\":14631:14650  delete participants */\n      tag_498\n      swap2\n      swap1\n      tag_452\n      jump\t// in\n    tag_498:\n        /* \"WatermelonBUSDLottery.sol\":14681:14682  0 */\n      0x00\n        /* \"WatermelonBUSDLottery.sol\":14660:14678  participantNumbers */\n      0x04\n        /* \"WatermelonBUSDLottery.sol\":14660:14682  participantNumbers = 0 */\n      dup2\n      swap1\n      sstore\n      pop\n        /* \"WatermelonBUSDLottery.sol\":14137:14689  {... */\n      pop\n      pop\n      pop\n      pop\n      pop\n        /* \"WatermelonBUSDLottery.sol\":14106:14689  function pickwinner() internal {... */\n      jump\t// out\n        /* \"WatermelonBUSDLottery.sol\":12704:12868  function random() private view returns(uint256){... */\n    tag_423:\n        /* \"WatermelonBUSDLottery.sol\":12743:12750  uint256 */\n      0x00\n        /* \"WatermelonBUSDLottery.sol\":12797:12813  block.difficulty */\n      difficulty\n        /* \"WatermelonBUSDLottery.sol\":12815:12830  block.timestamp */\n      timestamp\n        /* \"WatermelonBUSDLottery.sol\":12832:12844  participants */\n      0x06\n        /* \"WatermelonBUSDLottery.sol\":12846:12858  block.number */\n      number\n        /* \"WatermelonBUSDLottery.sol\":12786:12859  abi.encode(block.difficulty, block.timestamp, participants, block.number) */\n      add(0x20, mload(0x40))\n      tag_500\n      swap5\n      swap4\n      swap3\n      swap2\n      swap1\n      tag_501\n      jump\t// in\n    tag_500:\n      mload(0x40)\n      0x20\n      dup2\n      dup4\n      sub\n      sub\n      dup2\n      mstore\n      swap1\n      0x40\n      mstore\n        /* \"WatermelonBUSDLottery.sol\":12776:12860  keccak256(abi.encode(block.difficulty, block.timestamp, participants, block.number)) */\n      dup1\n      mload\n      swap1\n      0x20\n      add\n      keccak256\n        /* \"WatermelonBUSDLottery.sol\":12768:12861  uint256(keccak256(abi.encode(block.difficulty, block.timestamp, participants, block.number))) */\n      0x00\n      shr\n        /* \"WatermelonBUSDLottery.sol\":12761:12861  return uint256(keccak256(abi.encode(block.difficulty, block.timestamp, participants, block.number))) */\n      swap1\n      pop\n        /* \"WatermelonBUSDLottery.sol\":12704:12868  function random() private view returns(uint256){... */\n      swap1\n      jump\t// out\n        /* \"WatermelonBUSDLottery.sol\":3709:3805  function mul(uint256 a, uint256 b) internal pure returns (uint256) {... */\n    tag_430:\n        /* \"WatermelonBUSDLottery.sol\":3767:3774  uint256 */\n      0x00\n        /* \"WatermelonBUSDLottery.sol\":3797:3798  b */\n      dup2\n        /* \"WatermelonBUSDLottery.sol\":3793:3794  a */\n      dup4\n        /* \"WatermelonBUSDLottery.sol\":3793:3798  a * b */\n      tag_503\n      swap2\n      swap1\n      tag_427\n      jump\t// in\n    tag_503:\n        /* \"WatermelonBUSDLottery.sol\":3786:3798  return a * b */\n      swap1\n      pop\n        /* \"WatermelonBUSDLottery.sol\":3709:3805  function mul(uint256 a, uint256 b) internal pure returns (uint256) {... */\n      swap3\n      swap2\n      pop\n      pop\n      jump\t// out\n        /* \"WatermelonBUSDLottery.sol\":4094:4190  function div(uint256 a, uint256 b) internal pure returns (uint256) {... */\n    tag_431:\n        /* \"WatermelonBUSDLottery.sol\":4152:4159  uint256 */\n      0x00\n        /* \"WatermelonBUSDLottery.sol\":4182:4183  b */\n      dup2\n        /* \"WatermelonBUSDLottery.sol\":4178:4179  a */\n      dup4\n        /* \"WatermelonBUSDLottery.sol\":4178:4183  a / b */\n      tag_505\n      swap2\n      swap1\n      tag_506\n      jump\t// in\n    tag_505:\n        /* \"WatermelonBUSDLottery.sol\":4171:4183  return a / b */\n      swap1\n      pop\n        /* \"WatermelonBUSDLottery.sol\":4094:4190  function div(uint256 a, uint256 b) internal pure returns (uint256) {... */\n      swap3\n      swap2\n      pop\n      pop\n      jump\t// out\n        /* \"WatermelonBUSDLottery.sol\":3366:3462  function sub(uint256 a, uint256 b) internal pure returns (uint256) {... */\n    tag_438:\n        /* \"WatermelonBUSDLottery.sol\":3424:3431  uint256 */\n      0x00\n        /* \"WatermelonBUSDLottery.sol\":3454:3455  b */\n      dup2\n        /* \"WatermelonBUSDLottery.sol\":3450:3451  a */\n      dup4\n        /* \"WatermelonBUSDLottery.sol\":3450:3455  a - b */\n      tag_508\n      swap2\n      swap1\n      tag_167\n      jump\t// in\n    tag_508:\n        /* \"WatermelonBUSDLottery.sol\":3443:3455  return a - b */\n      swap1\n      pop\n        /* \"WatermelonBUSDLottery.sol\":3366:3462  function sub(uint256 a, uint256 b) internal pure returns (uint256) {... */\n      swap3\n      swap2\n      pop\n      pop\n      jump\t// out\n    tag_452:\n      pop\n      dup1\n      sload\n      0x00\n      dup3\n      sstore\n      swap1\n      0x00\n      mstore\n      keccak256(0x00, 0x20)\n      swap1\n      dup2\n      add\n      swap1\n      tag_510\n      swap2\n      swap1\n      tag_511\n      jump\t// in\n    tag_510:\n      pop\n      jump\t// out\n    tag_511:\n    tag_512:\n      dup1\n      dup3\n      gt\n      iszero\n      tag_513\n      jumpi\n      0x00\n      dup2\n      0x00\n      swap1\n      sstore\n      pop\n      0x01\n      add\n      jump(tag_512)\n    tag_513:\n      pop\n      swap1\n      jump\t// out\n        /* \"#utility.yul\":7:121   */\n    tag_514:\n        /* \"#utility.yul\":74:80   */\n      0x00\n        /* \"#utility.yul\":108:113   */\n      dup2\n        /* \"#utility.yul\":102:114   */\n      mload\n        /* \"#utility.yul\":92:114   */\n      swap1\n      pop\n        /* \"#utility.yul\":7:121   */\n      swap2\n      swap1\n      pop\n      jump\t// out\n        /* \"#utility.yul\":127:311   */\n    tag_515:\n        /* \"#utility.yul\":226:237   */\n      0x00\n        /* \"#utility.yul\":260:266   */\n      dup3\n        /* \"#utility.yul\":255:258   */\n      dup3\n        /* \"#utility.yul\":248:267   */\n      mstore\n        /* \"#utility.yul\":300:304   */\n      0x20\n        /* \"#utility.yul\":295:298   */\n      dup3\n        /* \"#utility.yul\":291:305   */\n      add\n        /* \"#utility.yul\":276:305   */\n      swap1\n      pop\n        /* \"#utility.yul\":127:311   */\n      swap3\n      swap2\n      pop\n      pop\n      jump\t// out\n        /* \"#utility.yul\":317:449   */\n    tag_516:\n        /* \"#utility.yul\":384:388   */\n      0x00\n        /* \"#utility.yul\":407:410   */\n      dup2\n        /* \"#utility.yul\":399:410   */\n      swap1\n      pop\n        /* \"#utility.yul\":437:441   */\n      0x20\n        /* \"#utility.yul\":432:435   */\n      dup3\n        /* \"#utility.yul\":428:442   */\n      add\n        /* \"#utility.yul\":420:442   */\n      swap1\n      pop\n        /* \"#utility.yul\":317:449   */\n      swap2\n      swap1\n      pop\n      jump\t// out\n        /* \"#utility.yul\":455:581   */\n    tag_517:\n        /* \"#utility.yul\":492:499   */\n      0x00\n        /* \"#utility.yul\":532:574   */\n      0xffffffffffffffffffffffffffffffffffffffff\n        /* \"#utility.yul\":525:530   */\n      dup3\n        /* \"#utility.yul\":521:575   */\n      and\n        /* \"#utility.yul\":510:575   */\n      swap1\n      pop\n        /* \"#utility.yul\":455:581   */\n      swap2\n      swap1\n      pop\n      jump\t// out\n        /* \"#utility.yul\":587:683   */\n    tag_518:\n        /* \"#utility.yul\":624:631   */\n      0x00\n        /* \"#utility.yul\":653:677   */\n      tag_576\n        /* \"#utility.yul\":671:676   */\n      dup3\n        /* \"#utility.yul\":653:677   */\n      tag_517\n      jump\t// in\n    tag_576:\n        /* \"#utility.yul\":642:677   */\n      swap1\n      pop\n        /* \"#utility.yul\":587:683   */\n      swap2\n      swap1\n      pop\n      jump\t// out\n        /* \"#utility.yul\":689:797   */\n    tag_519:\n        /* \"#utility.yul\":766:790   */\n      tag_578\n        /* \"#utility.yul\":784:789   */\n      dup2\n        /* \"#utility.yul\":766:790   */\n      tag_518\n      jump\t// in\n    tag_578:\n        /* \"#utility.yul\":761:764   */\n      dup3\n        /* \"#utility.yul\":754:791   */\n      mstore\n        /* \"#utility.yul\":689:797   */\n      pop\n      pop\n      jump\t// out\n        /* \"#utility.yul\":803:982   */\n    tag_520:\n        /* \"#utility.yul\":872:882   */\n      0x00\n        /* \"#utility.yul\":893:939   */\n      tag_580\n        /* \"#utility.yul\":935:938   */\n      dup4\n        /* \"#utility.yul\":927:933   */\n      dup4\n        /* \"#utility.yul\":893:939   */\n      tag_519\n      jump\t// in\n    tag_580:\n        /* \"#utility.yul\":971:975   */\n      0x20\n        /* \"#utility.yul\":966:969   */\n      dup4\n        /* \"#utility.yul\":962:976   */\n      add\n        /* \"#utility.yul\":948:976   */\n      swap1\n      pop\n        /* \"#utility.yul\":803:982   */\n      swap3\n      swap2\n      pop\n      pop\n      jump\t// out\n        /* \"#utility.yul\":988:1101   */\n    tag_521:\n        /* \"#utility.yul\":1058:1062   */\n      0x00\n        /* \"#utility.yul\":1090:1094   */\n      0x20\n        /* \"#utility.yul\":1085:1088   */\n      dup3\n        /* \"#utility.yul\":1081:1095   */\n      add\n        /* \"#utility.yul\":1073:1095   */\n      swap1\n      pop\n        /* \"#utility.yul\":988:1101   */\n      swap2\n      swap1\n      pop\n      jump\t// out\n        /* \"#utility.yul\":1137:1869   */\n    tag_522:\n        /* \"#utility.yul\":1256:1259   */\n      0x00\n        /* \"#utility.yul\":1285:1339   */\n      tag_583\n        /* \"#utility.yul\":1333:1338   */\n      dup3\n        /* \"#utility.yul\":1285:1339   */\n      tag_514\n      jump\t// in\n    tag_583:\n        /* \"#utility.yul\":1355:1441   */\n      tag_584\n        /* \"#utility.yul\":1434:1440   */\n      dup2\n        /* \"#utility.yul\":1429:1432   */\n      dup6\n        /* \"#utility.yul\":1355:1441   */\n      tag_515\n      jump\t// in\n    tag_584:\n        /* \"#utility.yul\":1348:1441   */\n      swap4\n      pop\n        /* \"#utility.yul\":1465:1521   */\n      tag_585\n        /* \"#utility.yul\":1515:1520   */\n      dup4\n        /* \"#utility.yul\":1465:1521   */\n      tag_516\n      jump\t// in\n    tag_585:\n        /* \"#utility.yul\":1544:1551   */\n      dup1\n        /* \"#utility.yul\":1575:1576   */\n      0x00\n        /* \"#utility.yul\":1560:1844   */\n    tag_586:\n        /* \"#utility.yul\":1585:1591   */\n      dup4\n        /* \"#utility.yul\":1582:1583   */\n      dup2\n        /* \"#utility.yul\":1579:1592   */\n      lt\n        /* \"#utility.yul\":1560:1844   */\n      iszero\n      tag_588\n      jumpi\n        /* \"#utility.yul\":1661:1667   */\n      dup2\n        /* \"#utility.yul\":1655:1668   */\n      mload\n        /* \"#utility.yul\":1688:1751   */\n      tag_589\n        /* \"#utility.yul\":1747:1750   */\n      dup9\n        /* \"#utility.yul\":1732:1745   */\n      dup3\n        /* \"#utility.yul\":1688:1751   */\n      tag_520\n      jump\t// in\n    tag_589:\n        /* \"#utility.yul\":1681:1751   */\n      swap8\n      pop\n        /* \"#utility.yul\":1774:1834   */\n      tag_590\n        /* \"#utility.yul\":1827:1833   */\n      dup4\n        /* \"#utility.yul\":1774:1834   */\n      tag_521\n      jump\t// in\n    tag_590:\n        /* \"#utility.yul\":1764:1834   */\n      swap3\n      pop\n        /* \"#utility.yul\":1620:1844   */\n      pop\n        /* \"#utility.yul\":1607:1608   */\n      0x01\n        /* \"#utility.yul\":1604:1605   */\n      dup2\n        /* \"#utility.yul\":1600:1609   */\n      add\n        /* \"#utility.yul\":1595:1609   */\n      swap1\n      pop\n        /* \"#utility.yul\":1560:1844   */\n      jump(tag_586)\n    tag_588:\n        /* \"#utility.yul\":1564:1578   */\n      pop\n        /* \"#utility.yul\":1860:1863   */\n      dup6\n        /* \"#utility.yul\":1853:1863   */\n      swap4\n      pop\n        /* \"#utility.yul\":1261:1869   */\n      pop\n      pop\n      pop\n        /* \"#utility.yul\":1137:1869   */\n      swap3\n      swap2\n      pop\n      pop\n      jump\t// out\n        /* \"#utility.yul\":1875:2248   */\n    tag_48:\n        /* \"#utility.yul\":2018:2022   */\n      0x00\n        /* \"#utility.yul\":2056:2058   */\n      0x20\n        /* \"#utility.yul\":2045:2054   */\n      dup3\n        /* \"#utility.yul\":2041:2059   */\n      add\n        /* \"#utility.yul\":2033:2059   */\n      swap1\n      pop\n        /* \"#utility.yul\":2105:2114   */\n      dup2\n        /* \"#utility.yul\":2099:2103   */\n      dup2\n        /* \"#utility.yul\":2095:2115   */\n      sub\n        /* \"#utility.yul\":2091:2092   */\n      0x00\n        /* \"#utility.yul\":2080:2089   */\n      dup4\n        /* \"#utility.yul\":2076:2093   */\n      add\n        /* \"#utility.yul\":2069:2116   */\n      mstore\n        /* \"#utility.yul\":2133:2241   */\n      tag_592\n        /* \"#utility.yul\":2236:2240   */\n      dup2\n        /* \"#utility.yul\":2227:2233   */\n      dup5\n        /* \"#utility.yul\":2133:2241   */\n      tag_522\n      jump\t// in\n    tag_592:\n        /* \"#utility.yul\":2125:2241   */\n      swap1\n      pop\n        /* \"#utility.yul\":1875:2248   */\n      swap3\n      swap2\n      pop\n      pop\n      jump\t// out\n        /* \"#utility.yul\":2335:2452   */\n    tag_524:\n        /* \"#utility.yul\":2444:2445   */\n      0x00\n        /* \"#utility.yul\":2441:2442   */\n      dup1\n        /* \"#utility.yul\":2434:2446   */\n      revert\n        /* \"#utility.yul\":2581:2658   */\n    tag_526:\n        /* \"#utility.yul\":2618:2625   */\n      0x00\n        /* \"#utility.yul\":2647:2652   */\n      dup2\n        /* \"#utility.yul\":2636:2652   */\n      swap1\n      pop\n        /* \"#utility.yul\":2581:2658   */\n      swap2\n      swap1\n      pop\n      jump\t// out\n        /* \"#utility.yul\":2664:2786   */\n    tag_527:\n        /* \"#utility.yul\":2737:2761   */\n      tag_598\n        /* \"#utility.yul\":2755:2760   */\n      dup2\n        /* \"#utility.yul\":2737:2761   */\n      tag_526\n      jump\t// in\n    tag_598:\n        /* \"#utility.yul\":2730:2735   */\n      dup2\n        /* \"#utility.yul\":2727:2762   */\n      eq\n        /* \"#utility.yul\":2717:2780   */\n      tag_599\n      jumpi\n        /* \"#utility.yul\":2776:2777   */\n      0x00\n        /* \"#utility.yul\":2773:2774   */\n      dup1\n        /* \"#utility.yul\":2766:2778   */\n      revert\n        /* \"#utility.yul\":2717:2780   */\n    tag_599:\n        /* \"#utility.yul\":2664:2786   */\n      pop\n      jump\t// out\n        /* \"#utility.yul\":2792:2931   */\n    tag_528:\n        /* \"#utility.yul\":2838:2843   */\n      0x00\n        /* \"#utility.yul\":2876:2882   */\n      dup2\n        /* \"#utility.yul\":2863:2883   */\n      calldataload\n        /* \"#utility.yul\":2854:2883   */\n      swap1\n      pop\n        /* \"#utility.yul\":2892:2925   */\n      tag_601\n        /* \"#utility.yul\":2919:2924   */\n      dup2\n        /* \"#utility.yul\":2892:2925   */\n      tag_527\n      jump\t// in\n    tag_601:\n        /* \"#utility.yul\":2792:2931   */\n      swap3\n      swap2\n      pop\n      pop\n      jump\t// out\n        /* \"#utility.yul\":2937:3266   */\n    tag_51:\n        /* \"#utility.yul\":2996:3002   */\n      0x00\n        /* \"#utility.yul\":3045:3047   */\n      0x20\n        /* \"#utility.yul\":3033:3042   */\n      dup3\n        /* \"#utility.yul\":3024:3031   */\n      dup5\n        /* \"#utility.yul\":3020:3043   */\n      sub\n        /* \"#utility.yul\":3016:3048   */\n      slt\n        /* \"#utility.yul\":3013:3132   */\n      iszero\n      tag_603\n      jumpi\n        /* \"#utility.yul\":3051:3130   */\n      tag_604\n      tag_524\n      jump\t// in\n    tag_604:\n        /* \"#utility.yul\":3013:3132   */\n    tag_603:\n        /* \"#utility.yul\":3171:3172   */\n      0x00\n        /* \"#utility.yul\":3196:3249   */\n      tag_605\n        /* \"#utility.yul\":3241:3248   */\n      dup5\n        /* \"#utility.yul\":3232:3238   */\n      dup3\n        /* \"#utility.yul\":3221:3230   */\n      dup6\n        /* \"#utility.yul\":3217:3239   */\n      add\n        /* \"#utility.yul\":3196:3249   */\n      tag_528\n      jump\t// in\n    tag_605:\n        /* \"#utility.yul\":3186:3249   */\n      swap2\n      pop\n        /* \"#utility.yul\":3142:3259   */\n      pop\n        /* \"#utility.yul\":2937:3266   */\n      swap3\n      swap2\n      pop\n      pop\n      jump\t// out\n        /* \"#utility.yul\":3272:3390   */\n    tag_529:\n        /* \"#utility.yul\":3359:3383   */\n      tag_607\n        /* \"#utility.yul\":3377:3382   */\n      dup2\n        /* \"#utility.yul\":3359:3383   */\n      tag_518\n      jump\t// in\n    tag_607:\n        /* \"#utility.yul\":3354:3357   */\n      dup3\n        /* \"#utility.yul\":3347:3384   */\n      mstore\n        /* \"#utility.yul\":3272:3390   */\n      pop\n      pop\n      jump\t// out\n        /* \"#utility.yul\":3396:3618   */\n    tag_71:\n        /* \"#utility.yul\":3489:3493   */\n      0x00\n        /* \"#utility.yul\":3527:3529   */\n      0x20\n        /* \"#utility.yul\":3516:3525   */\n      dup3\n        /* \"#utility.yul\":3512:3530   */\n      add\n        /* \"#utility.yul\":3504:3530   */\n      swap1\n      pop\n        /* \"#utility.yul\":3540:3611   */\n      tag_609\n        /* \"#utility.yul\":3608:3609   */\n      0x00\n        /* \"#utility.yul\":3597:3606   */\n      dup4\n        /* \"#utility.yul\":3593:3610   */\n      add\n        /* \"#utility.yul\":3584:3590   */\n      dup5\n        /* \"#utility.yul\":3540:3611   */\n      tag_529\n      jump\t// in\n    tag_609:\n        /* \"#utility.yul\":3396:3618   */\n      swap3\n      swap2\n      pop\n      pop\n      jump\t// out\n        /* \"#utility.yul\":3624:3742   */\n    tag_530:\n        /* \"#utility.yul\":3711:3735   */\n      tag_611\n        /* \"#utility.yul\":3729:3734   */\n      dup2\n        /* \"#utility.yul\":3711:3735   */\n      tag_526\n      jump\t// in\n    tag_611:\n        /* \"#utility.yul\":3706:3709   */\n      dup3\n        /* \"#utility.yul\":3699:3736   */\n      mstore\n        /* \"#utility.yul\":3624:3742   */\n      pop\n      pop\n      jump\t// out\n        /* \"#utility.yul\":3748:3970   */\n    tag_75:\n        /* \"#utility.yul\":3841:3845   */\n      0x00\n        /* \"#utility.yul\":3879:3881   */\n      0x20\n        /* \"#utility.yul\":3868:3877   */\n      dup3\n        /* \"#utility.yul\":3864:3882   */\n      add\n        /* \"#utility.yul\":3856:3882   */\n      swap1\n      pop\n        /* \"#utility.yul\":3892:3963   */\n      tag_613\n        /* \"#utility.yul\":3960:3961   */\n      0x00\n        /* \"#utility.yul\":3949:3958   */\n      dup4\n        /* \"#utility.yul\":3945:3962   */\n      add\n        /* \"#utility.yul\":3936:3942   */\n      dup5\n        /* \"#utility.yul\":3892:3963   */\n      tag_530\n      jump\t// in\n    tag_613:\n        /* \"#utility.yul\":3748:3970   */\n      swap3\n      swap2\n      pop\n      pop\n      jump\t// out\n        /* \"#utility.yul\":3976:4066   */\n    tag_531:\n        /* \"#utility.yul\":4010:4017   */\n      0x00\n        /* \"#utility.yul\":4053:4058   */\n      dup2\n        /* \"#utility.yul\":4046:4059   */\n      iszero\n        /* \"#utility.yul\":4039:4060   */\n      iszero\n        /* \"#utility.yul\":4028:4060   */\n      swap1\n      pop\n        /* \"#utility.yul\":3976:4066   */\n      swap2\n      swap1\n      pop\n      jump\t// out\n        /* \"#utility.yul\":4072:4181   */\n    tag_532:\n        /* \"#utility.yul\":4153:4174   */\n      tag_616\n        /* \"#utility.yul\":4168:4173   */\n      dup2\n        /* \"#utility.yul\":4153:4174   */\n      tag_531\n      jump\t// in\n    tag_616:\n        /* \"#utility.yul\":4148:4151   */\n      dup3\n        /* \"#utility.yul\":4141:4175   */\n      mstore\n        /* \"#utility.yul\":4072:4181   */\n      pop\n      pop\n      jump\t// out\n        /* \"#utility.yul\":4187:4397   */\n    tag_79:\n        /* \"#utility.yul\":4274:4278   */\n      0x00\n        /* \"#utility.yul\":4312:4314   */\n      0x20\n        /* \"#utility.yul\":4301:4310   */\n      dup3\n        /* \"#utility.yul\":4297:4315   */\n      add\n        /* \"#utility.yul\":4289:4315   */\n      swap1\n      pop\n        /* \"#utility.yul\":4325:4390   */\n      tag_618\n        /* \"#utility.yul\":4387:4388   */\n      0x00\n        /* \"#utility.yul\":4376:4385   */\n      dup4\n        /* \"#utility.yul\":4372:4389   */\n      add\n        /* \"#utility.yul\":4363:4369   */\n      dup5\n        /* \"#utility.yul\":4325:4390   */\n      tag_532\n      jump\t// in\n    tag_618:\n        /* \"#utility.yul\":4187:4397   */\n      swap3\n      swap2\n      pop\n      pop\n      jump\t// out\n        /* \"#utility.yul\":4403:4525   */\n    tag_533:\n        /* \"#utility.yul\":4476:4500   */\n      tag_620\n        /* \"#utility.yul\":4494:4499   */\n      dup2\n        /* \"#utility.yul\":4476:4500   */\n      tag_518\n      jump\t// in\n    tag_620:\n        /* \"#utility.yul\":4469:4474   */\n      dup2\n        /* \"#utility.yul\":4466:4501   */\n      eq\n        /* \"#utility.yul\":4456:4519   */\n      tag_621\n      jumpi\n        /* \"#utility.yul\":4515:4516   */\n      0x00\n        /* \"#utility.yul\":4512:4513   */\n      dup1\n        /* \"#utility.yul\":4505:4517   */\n      revert\n        /* \"#utility.yul\":4456:4519   */\n    tag_621:\n        /* \"#utility.yul\":4403:4525   */\n      pop\n      jump\t// out\n        /* \"#utility.yul\":4531:4670   */\n    tag_534:\n        /* \"#utility.yul\":4577:4582   */\n      0x00\n        /* \"#utility.yul\":4615:4621   */\n      dup2\n        /* \"#utility.yul\":4602:4622   */\n      calldataload\n        /* \"#utility.yul\":4593:4622   */\n      swap1\n      pop\n        /* \"#utility.yul\":4631:4664   */\n      tag_623\n        /* \"#utility.yul\":4658:4663   */\n      dup2\n        /* \"#utility.yul\":4631:4664   */\n      tag_533\n      jump\t// in\n    tag_623:\n        /* \"#utility.yul\":4531:4670   */\n      swap3\n      swap2\n      pop\n      pop\n      jump\t// out\n        /* \"#utility.yul\":4676:5005   */\n    tag_82:\n        /* \"#utility.yul\":4735:4741   */\n      0x00\n        /* \"#utility.yul\":4784:4786   */\n      0x20\n        /* \"#utility.yul\":4772:4781   */\n      dup3\n        /* \"#utility.yul\":4763:4770   */\n      dup5\n        /* \"#utility.yul\":4759:4782   */\n      sub\n        /* \"#utility.yul\":4755:4787   */\n      slt\n        /* \"#utility.yul\":4752:4871   */\n      iszero\n      tag_625\n      jumpi\n        /* \"#utility.yul\":4790:4869   */\n      tag_626\n      tag_524\n      jump\t// in\n    tag_626:\n        /* \"#utility.yul\":4752:4871   */\n    tag_625:\n        /* \"#utility.yul\":4910:4911   */\n      0x00\n        /* \"#utility.yul\":4935:4988   */\n      tag_627\n        /* \"#utility.yul\":4980:4987   */\n      dup5\n        /* \"#utility.yul\":4971:4977   */\n      dup3\n        /* \"#utility.yul\":4960:4969   */\n      dup6\n        /* \"#utility.yul\":4956:4978   */\n      add\n        /* \"#utility.yul\":4935:4988   */\n      tag_534\n      jump\t// in\n    tag_627:\n        /* \"#utility.yul\":4925:4988   */\n      swap2\n      pop\n        /* \"#utility.yul\":4881:4998   */\n      pop\n        /* \"#utility.yul\":4676:5005   */\n      swap3\n      swap2\n      pop\n      pop\n      jump\t// out\n        /* \"#utility.yul\":5011:5453   */\n    tag_85:\n        /* \"#utility.yul\":5160:5164   */\n      0x00\n        /* \"#utility.yul\":5198:5200   */\n      0x60\n        /* \"#utility.yul\":5187:5196   */\n      dup3\n        /* \"#utility.yul\":5183:5201   */\n      add\n        /* \"#utility.yul\":5175:5201   */\n      swap1\n      pop\n        /* \"#utility.yul\":5211:5282   */\n      tag_629\n        /* \"#utility.yul\":5279:5280   */\n      0x00\n        /* \"#utility.yul\":5268:5277   */\n      dup4\n        /* \"#utility.yul\":5264:5281   */\n      add\n        /* \"#utility.yul\":5255:5261   */\n      dup7\n        /* \"#utility.yul\":5211:5282   */\n      tag_530\n      jump\t// in\n    tag_629:\n        /* \"#utility.yul\":5292:5364   */\n      tag_630\n        /* \"#utility.yul\":5360:5362   */\n      0x20\n        /* \"#utility.yul\":5349:5358   */\n      dup4\n        /* \"#utility.yul\":5345:5363   */\n      add\n        /* \"#utility.yul\":5336:5342   */\n      dup6\n        /* \"#utility.yul\":5292:5364   */\n      tag_530\n      jump\t// in\n    tag_630:\n        /* \"#utility.yul\":5374:5446   */\n      tag_631\n        /* \"#utility.yul\":5442:5444   */\n      0x40\n        /* \"#utility.yul\":5431:5440   */\n      dup4\n        /* \"#utility.yul\":5427:5445   */\n      add\n        /* \"#utility.yul\":5418:5424   */\n      dup5\n        /* \"#utility.yul\":5374:5446   */\n      tag_530\n      jump\t// in\n    tag_631:\n        /* \"#utility.yul\":5011:5453   */\n      swap5\n      swap4\n      pop\n      pop\n      pop\n      pop\n      jump\t// out\n        /* \"#utility.yul\":5459:5519   */\n    tag_535:\n        /* \"#utility.yul\":5487:5490   */\n      0x00\n        /* \"#utility.yul\":5508:5513   */\n      dup2\n        /* \"#utility.yul\":5501:5513   */\n      swap1\n      pop\n        /* \"#utility.yul\":5459:5519   */\n      swap2\n      swap1\n      pop\n      jump\t// out\n        /* \"#utility.yul\":5525:5667   */\n    tag_536:\n        /* \"#utility.yul\":5575:5584   */\n      0x00\n        /* \"#utility.yul\":5608:5661   */\n      tag_634\n        /* \"#utility.yul\":5626:5660   */\n      tag_635\n        /* \"#utility.yul\":5635:5659   */\n      tag_636\n        /* \"#utility.yul\":5653:5658   */\n      dup5\n        /* \"#utility.yul\":5635:5659   */\n      tag_517\n      jump\t// in\n    tag_636:\n        /* \"#utility.yul\":5626:5660   */\n      tag_535\n      jump\t// in\n    tag_635:\n        /* \"#utility.yul\":5608:5661   */\n      tag_517\n      jump\t// in\n    tag_634:\n        /* \"#utility.yul\":5595:5661   */\n      swap1\n      pop\n        /* \"#utility.yul\":5525:5667   */\n      swap2\n      swap1\n      pop\n      jump\t// out\n        /* \"#utility.yul\":5673:5799   */\n    tag_537:\n        /* \"#utility.yul\":5723:5732   */\n      0x00\n        /* \"#utility.yul\":5756:5793   */\n      tag_638\n        /* \"#utility.yul\":5787:5792   */\n      dup3\n        /* \"#utility.yul\":5756:5793   */\n      tag_536\n      jump\t// in\n    tag_638:\n        /* \"#utility.yul\":5743:5793   */\n      swap1\n      pop\n        /* \"#utility.yul\":5673:5799   */\n      swap2\n      swap1\n      pop\n      jump\t// out\n        /* \"#utility.yul\":5805:5944   */\n    tag_538:\n        /* \"#utility.yul\":5868:5877   */\n      0x00\n        /* \"#utility.yul\":5901:5938   */\n      tag_640\n        /* \"#utility.yul\":5932:5937   */\n      dup3\n        /* \"#utility.yul\":5901:5938   */\n      tag_537\n      jump\t// in\n    tag_640:\n        /* \"#utility.yul\":5888:5938   */\n      swap1\n      pop\n        /* \"#utility.yul\":5805:5944   */\n      swap2\n      swap1\n      pop\n      jump\t// out\n        /* \"#utility.yul\":5950:6107   */\n    tag_539:\n        /* \"#utility.yul\":6050:6100   */\n      tag_642\n        /* \"#utility.yul\":6094:6099   */\n      dup2\n        /* \"#utility.yul\":6050:6100   */\n      tag_538\n      jump\t// in\n    tag_642:\n        /* \"#utility.yul\":6045:6048   */\n      dup3\n        /* \"#utility.yul\":6038:6101   */\n      mstore\n        /* \"#utility.yul\":5950:6107   */\n      pop\n      pop\n      jump\t// out\n        /* \"#utility.yul\":6113:6361   */\n    tag_123:\n        /* \"#utility.yul\":6219:6223   */\n      0x00\n        /* \"#utility.yul\":6257:6259   */\n      0x20\n        /* \"#utility.yul\":6246:6255   */\n      dup3\n        /* \"#utility.yul\":6242:6260   */\n      add\n        /* \"#utility.yul\":6234:6260   */\n      swap1\n      pop\n        /* \"#utility.yul\":6270:6354   */\n      tag_644\n        /* \"#utility.yul\":6351:6352   */\n      0x00\n        /* \"#utility.yul\":6340:6349   */\n      dup4\n        /* \"#utility.yul\":6336:6353   */\n      add\n        /* \"#utility.yul\":6327:6333   */\n      dup5\n        /* \"#utility.yul\":6270:6354   */\n      tag_539\n      jump\t// in\n    tag_644:\n        /* \"#utility.yul\":6113:6361   */\n      swap3\n      swap2\n      pop\n      pop\n      jump\t// out\n        /* \"#utility.yul\":6367:6536   */\n    tag_540:\n        /* \"#utility.yul\":6451:6462   */\n      0x00\n        /* \"#utility.yul\":6485:6491   */\n      dup3\n        /* \"#utility.yul\":6480:6483   */\n      dup3\n        /* \"#utility.yul\":6473:6492   */\n      mstore\n        /* \"#utility.yul\":6525:6529   */\n      0x20\n        /* \"#utility.yul\":6520:6523   */\n      dup3\n        /* \"#utility.yul\":6516:6530   */\n      add\n        /* \"#utility.yul\":6501:6530   */\n      swap1\n      pop\n        /* \"#utility.yul\":6367:6536   */\n      swap3\n      swap2\n      pop\n      pop\n      jump\t// out\n        /* \"#utility.yul\":6542:6706   */\n    tag_541:\n        /* \"#utility.yul\":6682:6698   */\n      0x4163636573732064656e69656421000000000000000000000000000000000000\n        /* \"#utility.yul\":6678:6679   */\n      0x00\n        /* \"#utility.yul\":6670:6676   */\n      dup3\n        /* \"#utility.yul\":6666:6680   */\n      add\n        /* \"#utility.yul\":6659:6699   */\n      mstore\n        /* \"#utility.yul\":6542:6706   */\n      pop\n      jump\t// out\n        /* \"#utility.yul\":6712:7078   */\n    tag_542:\n        /* \"#utility.yul\":6854:6857   */\n      0x00\n        /* \"#utility.yul\":6875:6942   */\n      tag_648\n        /* \"#utility.yul\":6939:6941   */\n      0x0e\n        /* \"#utility.yul\":6934:6937   */\n      dup4\n        /* \"#utility.yul\":6875:6942   */\n      tag_540\n      jump\t// in\n    tag_648:\n        /* \"#utility.yul\":6868:6942   */\n      swap2\n      pop\n        /* \"#utility.yul\":6951:7044   */\n      tag_649\n        /* \"#utility.yul\":7040:7043   */\n      dup3\n        /* \"#utility.yul\":6951:7044   */\n      tag_541\n      jump\t// in\n    tag_649:\n        /* \"#utility.yul\":7069:7071   */\n      0x20\n        /* \"#utility.yul\":7064:7067   */\n      dup3\n        /* \"#utility.yul\":7060:7072   */\n      add\n        /* \"#utility.yul\":7053:7072   */\n      swap1\n      pop\n        /* \"#utility.yul\":6712:7078   */\n      swap2\n      swap1\n      pop\n      jump\t// out\n        /* \"#utility.yul\":7084:7503   */\n    tag_153:\n        /* \"#utility.yul\":7250:7254   */\n      0x00\n        /* \"#utility.yul\":7288:7290   */\n      0x20\n        /* \"#utility.yul\":7277:7286   */\n      dup3\n        /* \"#utility.yul\":7273:7291   */\n      add\n        /* \"#utility.yul\":7265:7291   */\n      swap1\n      pop\n        /* \"#utility.yul\":7337:7346   */\n      dup2\n        /* \"#utility.yul\":7331:7335   */\n      dup2\n        /* \"#utility.yul\":7327:7347   */\n      sub\n        /* \"#utility.yul\":7323:7324   */\n      0x00\n        /* \"#utility.yul\":7312:7321   */\n      dup4\n        /* \"#utility.yul\":7308:7325   */\n      add\n        /* \"#utility.yul\":7301:7348   */\n      mstore\n        /* \"#utility.yul\":7365:7496   */\n      tag_651\n        /* \"#utility.yul\":7491:7495   */\n      dup2\n        /* \"#utility.yul\":7365:7496   */\n      tag_542\n      jump\t// in\n    tag_651:\n        /* \"#utility.yul\":7357:7496   */\n      swap1\n      pop\n        /* \"#utility.yul\":7084:7503   */\n      swap2\n      swap1\n      pop\n      jump\t// out\n        /* \"#utility.yul\":7509:7689   */\n    tag_160:\n        /* \"#utility.yul\":7557:7634   */\n      0x4e487b7100000000000000000000000000000000000000000000000000000000\n        /* \"#utility.yul\":7554:7555   */\n      0x00\n        /* \"#utility.yul\":7547:7635   */\n      mstore\n        /* \"#utility.yul\":7654:7658   */\n      0x41\n        /* \"#utility.yul\":7651:7652   */\n      0x04\n        /* \"#utility.yul\":7644:7659   */\n      mstore\n        /* \"#utility.yul\":7678:7682   */\n      0x24\n        /* \"#utility.yul\":7675:7676   */\n      0x00\n        /* \"#utility.yul\":7668:7683   */\n      revert\n        /* \"#utility.yul\":7695:7875   */\n    tag_543:\n        /* \"#utility.yul\":7743:7820   */\n      0x4e487b7100000000000000000000000000000000000000000000000000000000\n        /* \"#utility.yul\":7740:7741   */\n      0x00\n        /* \"#utility.yul\":7733:7821   */\n      mstore\n        /* \"#utility.yul\":7840:7844   */\n      0x11\n        /* \"#utility.yul\":7837:7838   */\n      0x04\n        /* \"#utility.yul\":7830:7845   */\n      mstore\n        /* \"#utility.yul\":7864:7868   */\n      0x24\n        /* \"#utility.yul\":7861:7862   */\n      0x00\n        /* \"#utility.yul\":7854:7869   */\n      revert\n        /* \"#utility.yul\":7881:8075   */\n    tag_167:\n        /* \"#utility.yul\":7921:7925   */\n      0x00\n        /* \"#utility.yul\":7941:7961   */\n      tag_655\n        /* \"#utility.yul\":7959:7960   */\n      dup3\n        /* \"#utility.yul\":7941:7961   */\n      tag_526\n      jump\t// in\n    tag_655:\n        /* \"#utility.yul\":7936:7961   */\n      swap2\n      pop\n        /* \"#utility.yul\":7975:7995   */\n      tag_656\n        /* \"#utility.yul\":7993:7994   */\n      dup4\n        /* \"#utility.yul\":7975:7995   */\n      tag_526\n      jump\t// in\n    tag_656:\n        /* \"#utility.yul\":7970:7995   */\n      swap3\n      pop\n        /* \"#utility.yul\":8019:8020   */\n      dup3\n        /* \"#utility.yul\":8016:8017   */\n      dup3\n        /* \"#utility.yul\":8012:8021   */\n      sub\n        /* \"#utility.yul\":8004:8021   */\n      swap1\n      pop\n        /* \"#utility.yul\":8043:8044   */\n      dup2\n        /* \"#utility.yul\":8037:8041   */\n      dup2\n        /* \"#utility.yul\":8034:8045   */\n      gt\n        /* \"#utility.yul\":8031:8068   */\n      iszero\n      tag_657\n      jumpi\n        /* \"#utility.yul\":8048:8066   */\n      tag_658\n      tag_543\n      jump\t// in\n    tag_658:\n        /* \"#utility.yul\":8031:8068   */\n    tag_657:\n        /* \"#utility.yul\":7881:8075   */\n      swap3\n      swap2\n      pop\n      pop\n      jump\t// out\n        /* \"#utility.yul\":8081:8314   */\n    tag_169:\n        /* \"#utility.yul\":8120:8123   */\n      0x00\n        /* \"#utility.yul\":8143:8167   */\n      tag_660\n        /* \"#utility.yul\":8161:8166   */\n      dup3\n        /* \"#utility.yul\":8143:8167   */\n      tag_526\n      jump\t// in\n    tag_660:\n        /* \"#utility.yul\":8134:8167   */\n      swap2\n      pop\n        /* \"#utility.yul\":8189:8255   */\n      0xffffffffffffffffffffffffffffffffffffffffffffffffffffffffffffffff\n        /* \"#utility.yul\":8182:8187   */\n      dup3\n        /* \"#utility.yul\":8179:8256   */\n      sub\n        /* \"#utility.yul\":8176:8279   */\n      tag_661\n      jumpi\n        /* \"#utility.yul\":8259:8277   */\n      tag_662\n      tag_543\n      jump\t// in\n    tag_662:\n        /* \"#utility.yul\":8176:8279   */\n    tag_661:\n        /* \"#utility.yul\":8306:8307   */\n      0x01\n        /* \"#utility.yul\":8299:8304   */\n      dup3\n        /* \"#utility.yul\":8295:8308   */\n      add\n        /* \"#utility.yul\":8288:8308   */\n      swap1\n      pop\n        /* \"#utility.yul\":8081:8314   */\n      swap2\n      swap1\n      pop\n      jump\t// out\n        /* \"#utility.yul\":8320:8500   */\n    tag_172:\n        /* \"#utility.yul\":8368:8445   */\n      0x4e487b7100000000000000000000000000000000000000000000000000000000\n        /* \"#utility.yul\":8365:8366   */\n      0x00\n        /* \"#utility.yul\":8358:8446   */\n      mstore\n        /* \"#utility.yul\":8465:8469   */\n      0x32\n        /* \"#utility.yul\":8462:8463   */\n      0x04\n        /* \"#utility.yul\":8455:8470   */\n      mstore\n        /* \"#utility.yul\":8489:8493   */\n      0x24\n        /* \"#utility.yul\":8486:8487   */\n      0x00\n        /* \"#utility.yul\":8479:8494   */\n      revert\n        /* \"#utility.yul\":8506:8677   */\n    tag_177:\n        /* \"#utility.yul\":8545:8548   */\n      0x00\n        /* \"#utility.yul\":8568:8592   */\n      tag_665\n        /* \"#utility.yul\":8586:8591   */\n      dup3\n        /* \"#utility.yul\":8568:8592   */\n      tag_526\n      jump\t// in\n    tag_665:\n        /* \"#utility.yul\":8559:8592   */\n      swap2\n      pop\n        /* \"#utility.yul\":8614:8618   */\n      0x00\n        /* \"#utility.yul\":8607:8612   */\n      dup3\n        /* \"#utility.yul\":8604:8619   */\n      sub\n        /* \"#utility.yul\":8601:8642   */\n      tag_666\n      jumpi\n        /* \"#utility.yul\":8622:8640   */\n      tag_667\n      tag_543\n      jump\t// in\n    tag_667:\n        /* \"#utility.yul\":8601:8642   */\n    tag_666:\n        /* \"#utility.yul\":8669:8670   */\n      0x01\n        /* \"#utility.yul\":8662:8667   */\n      dup3\n        /* \"#utility.yul\":8658:8671   */\n      sub\n        /* \"#utility.yul\":8651:8671   */\n      swap1\n      pop\n        /* \"#utility.yul\":8506:8677   */\n      swap2\n      swap1\n      pop\n      jump\t// out\n        /* \"#utility.yul\":8683:8847   */\n    tag_544:\n        /* \"#utility.yul\":8823:8839   */\n      0x4e6f2072652d656e7472616e6379000000000000000000000000000000000000\n        /* \"#utility.yul\":8819:8820   */\n      0x00\n        /* \"#utility.yul\":8811:8817   */\n      dup3\n        /* \"#utility.yul\":8807:8821   */\n      add\n        /* \"#utility.yul\":8800:8840   */\n      mstore\n        /* \"#utility.yul\":8683:8847   */\n      pop\n      jump\t// out\n        /* \"#utility.yul\":8853:9219   */\n    tag_545:\n        /* \"#utility.yul\":8995:8998   */\n      0x00\n        /* \"#utility.yul\":9016:9083   */\n      tag_670\n        /* \"#utility.yul\":9080:9082   */\n      0x0e\n        /* \"#utility.yul\":9075:9078   */\n      dup4\n        /* \"#utility.yul\":9016:9083   */\n      tag_540\n      jump\t// in\n    tag_670:\n        /* \"#utility.yul\":9009:9083   */\n      swap2\n      pop\n        /* \"#utility.yul\":9092:9185   */\n      tag_671\n        /* \"#utility.yul\":9181:9184   */\n      dup3\n        /* \"#utility.yul\":9092:9185   */\n      tag_544\n      jump\t// in\n    tag_671:\n        /* \"#utility.yul\":9210:9212   */\n      0x20\n        /* \"#utility.yul\":9205:9208   */\n      dup3\n        /* \"#utility.yul\":9201:9213   */\n      add\n        /* \"#utility.yul\":9194:9213   */\n      swap1\n      pop\n        /* \"#utility.yul\":8853:9219   */\n      swap2\n      swap1\n      pop\n      jump\t// out\n        /* \"#utility.yul\":9225:9644   */\n    tag_209:\n        /* \"#utility.yul\":9391:9395   */\n      0x00\n        /* \"#utility.yul\":9429:9431   */\n      0x20\n        /* \"#utility.yul\":9418:9427   */\n      dup3\n        /* \"#utility.yul\":9414:9432   */\n      add\n        /* \"#utility.yul\":9406:9432   */\n      swap1\n      pop\n        /* \"#utility.yul\":9478:9487   */\n      dup2\n        /* \"#utility.yul\":9472:9476   */\n      dup2\n        /* \"#utility.yul\":9468:9488   */\n      sub\n        /* \"#utility.yul\":9464:9465   */\n      0x00\n        /* \"#utility.yul\":9453:9462   */\n      dup4\n        /* \"#utility.yul\":9449:9466   */\n      add\n        /* \"#utility.yul\":9442:9489   */\n      mstore\n        /* \"#utility.yul\":9506:9637   */\n      tag_673\n        /* \"#utility.yul\":9632:9636   */\n      dup2\n        /* \"#utility.yul\":9506:9637   */\n      tag_545\n      jump\t// in\n    tag_673:\n        /* \"#utility.yul\":9498:9637   */\n      swap1\n      pop\n        /* \"#utility.yul\":9225:9644   */\n      swap2\n      swap1\n      pop\n      jump\t// out\n        /* \"#utility.yul\":9650:9826   */\n    tag_546:\n        /* \"#utility.yul\":9790:9818   */\n      0x4c6f7474657279206973206e6f74207374617274656420796574000000000000\n        /* \"#utility.yul\":9786:9787   */\n      0x00\n        /* \"#utility.yul\":9778:9784   */\n      dup3\n        /* \"#utility.yul\":9774:9788   */\n      add\n        /* \"#utility.yul\":9767:9819   */\n      mstore\n        /* \"#utility.yul\":9650:9826   */\n      pop\n      jump\t// out\n        /* \"#utility.yul\":9832:10198   */\n    tag_547:\n        /* \"#utility.yul\":9974:9977   */\n      0x00\n        /* \"#utility.yul\":9995:10062   */\n      tag_676\n        /* \"#utility.yul\":10059:10061   */\n      0x1a\n        /* \"#utility.yul\":10054:10057   */\n      dup4\n        /* \"#utility.yul\":9995:10062   */\n      tag_540\n      jump\t// in\n    tag_676:\n        /* \"#utility.yul\":9988:10062   */\n      swap2\n      pop\n        /* \"#utility.yul\":10071:10164   */\n      tag_677\n        /* \"#utility.yul\":10160:10163   */\n      dup3\n        /* \"#utility.yul\":10071:10164   */\n      tag_546\n      jump\t// in\n    tag_677:\n        /* \"#utility.yul\":10189:10191   */\n      0x20\n        /* \"#utility.yul\":10184:10187   */\n      dup3\n        /* \"#utility.yul\":10180:10192   */\n      add\n        /* \"#utility.yul\":10173:10192   */\n      swap1\n      pop\n        /* \"#utility.yul\":9832:10198   */\n      swap2\n      swap1\n      pop\n      jump\t// out\n        /* \"#utility.yul\":10204:10623   */\n    tag_213:\n        /* \"#utility.yul\":10370:10374   */\n      0x00\n        /* \"#utility.yul\":10408:10410   */\n      0x20\n        /* \"#utility.yul\":10397:10406   */\n      dup3\n        /* \"#utility.yul\":10393:10411   */\n      add\n        /* \"#utility.yul\":10385:10411   */\n      swap1\n      pop\n        /* \"#utility.yul\":10457:10466   */\n      dup2\n        /* \"#utility.yul\":10451:10455   */\n      dup2\n        /* \"#utility.yul\":10447:10467   */\n      sub\n        /* \"#utility.yul\":10443:10444   */\n      0x00\n        /* \"#utility.yul\":10432:10441   */\n      dup4\n        /* \"#utility.yul\":10428:10445   */\n      add\n        /* \"#utility.yul\":10421:10468   */\n      mstore\n        /* \"#utility.yul\":10485:10616   */\n      tag_679\n        /* \"#utility.yul\":10611:10615   */\n      dup2\n        /* \"#utility.yul\":10485:10616   */\n      tag_547\n      jump\t// in\n    tag_679:\n        /* \"#utility.yul\":10477:10616   */\n      swap1\n      pop\n        /* \"#utility.yul\":10204:10623   */\n      swap2\n      swap1\n      pop\n      jump\t// out\n        /* \"#utility.yul\":10629:10787   */\n    tag_548:\n        /* \"#utility.yul\":10769:10779   */\n      0x4e6f742053616d65000000000000000000000000000000000000000000000000\n        /* \"#utility.yul\":10765:10766   */\n      0x00\n        /* \"#utility.yul\":10757:10763   */\n      dup3\n        /* \"#utility.yul\":10753:10767   */\n      add\n        /* \"#utility.yul\":10746:10780   */\n      mstore\n        /* \"#utility.yul\":10629:10787   */\n      pop\n      jump\t// out\n        /* \"#utility.yul\":10793:11158   */\n    tag_549:\n        /* \"#utility.yul\":10935:10938   */\n      0x00\n        /* \"#utility.yul\":10956:11022   */\n      tag_682\n        /* \"#utility.yul\":11020:11021   */\n      0x08\n        /* \"#utility.yul\":11015:11018   */\n      dup4\n        /* \"#utility.yul\":10956:11022   */\n      tag_540\n      jump\t// in\n    tag_682:\n        /* \"#utility.yul\":10949:11022   */\n      swap2\n      pop\n        /* \"#utility.yul\":11031:11124   */\n      tag_683\n        /* \"#utility.yul\":11120:11123   */\n      dup3\n        /* \"#utility.yul\":11031:11124   */\n      tag_548\n      jump\t// in\n    tag_683:\n        /* \"#utility.yul\":11149:11151   */\n      0x20\n        /* \"#utility.yul\":11144:11147   */\n      dup3\n        /* \"#utility.yul\":11140:11152   */\n      add\n        /* \"#utility.yul\":11133:11152   */\n      swap1\n      pop\n        /* \"#utility.yul\":10793:11158   */\n      swap2\n      swap1\n      pop\n      jump\t// out\n        /* \"#utility.yul\":11164:11583   */\n    tag_216:\n        /* \"#utility.yul\":11330:11334   */\n      0x00\n        /* \"#utility.yul\":11368:11370   */\n      0x20\n        /* \"#utility.yul\":11357:11366   */\n      dup3\n        /* \"#utility.yul\":11353:11371   */\n      add\n        /* \"#utility.yul\":11345:11371   */\n      swap1\n      pop\n        /* \"#utility.yul\":11417:11426   */\n      dup2\n        /* \"#utility.yul\":11411:11415   */\n      dup2\n        /* \"#utility.yul\":11407:11427   */\n      sub\n        /* \"#utility.yul\":11403:11404   */\n      0x00\n        /* \"#utility.yul\":11392:11401   */\n      dup4\n        /* \"#utility.yul\":11388:11405   */\n      add\n        /* \"#utility.yul\":11381:11428   */\n      mstore\n        /* \"#utility.yul\":11445:11576   */\n      tag_685\n        /* \"#utility.yul\":11571:11575   */\n      dup2\n        /* \"#utility.yul\":11445:11576   */\n      tag_549\n      jump\t// in\n    tag_685:\n        /* \"#utility.yul\":11437:11576   */\n      swap1\n      pop\n        /* \"#utility.yul\":11164:11583   */\n      swap2\n      swap1\n      pop\n      jump\t// out\n        /* \"#utility.yul\":11589:12031   */\n    tag_218:\n        /* \"#utility.yul\":11738:11742   */\n      0x00\n        /* \"#utility.yul\":11776:11778   */\n      0x60\n        /* \"#utility.yul\":11765:11774   */\n      dup3\n        /* \"#utility.yul\":11761:11779   */\n      add\n        /* \"#utility.yul\":11753:11779   */\n      swap1\n      pop\n        /* \"#utility.yul\":11789:11860   */\n      tag_687\n        /* \"#utility.yul\":11857:11858   */\n      0x00\n        /* \"#utility.yul\":11846:11855   */\n      dup4\n        /* \"#utility.yul\":11842:11859   */\n      add\n        /* \"#utility.yul\":11833:11839   */\n      dup7\n        /* \"#utility.yul\":11789:11860   */\n      tag_529\n      jump\t// in\n    tag_687:\n        /* \"#utility.yul\":11870:11942   */\n      tag_688\n        /* \"#utility.yul\":11938:11940   */\n      0x20\n        /* \"#utility.yul\":11927:11936   */\n      dup4\n        /* \"#utility.yul\":11923:11941   */\n      add\n        /* \"#utility.yul\":11914:11920   */\n      dup6\n        /* \"#utility.yul\":11870:11942   */\n      tag_529\n      jump\t// in\n    tag_688:\n        /* \"#utility.yul\":11952:12024   */\n      tag_689\n        /* \"#utility.yul\":12020:12022   */\n      0x40\n        /* \"#utility.yul\":12009:12018   */\n      dup4\n        /* \"#utility.yul\":12005:12023   */\n      add\n        /* \"#utility.yul\":11996:12002   */\n      dup5\n        /* \"#utility.yul\":11952:12024   */\n      tag_530\n      jump\t// in\n    tag_689:\n        /* \"#utility.yul\":11589:12031   */\n      swap5\n      swap4\n      pop\n      pop\n      pop\n      pop\n      jump\t// out\n        /* \"#utility.yul\":12037:12153   */\n    tag_550:\n        /* \"#utility.yul\":12107:12128   */\n      tag_691\n        /* \"#utility.yul\":12122:12127   */\n      dup2\n        /* \"#utility.yul\":12107:12128   */\n      tag_531\n      jump\t// in\n    tag_691:\n        /* \"#utility.yul\":12100:12105   */\n      dup2\n        /* \"#utility.yul\":12097:12129   */\n      eq\n        /* \"#utility.yul\":12087:12147   */\n      tag_692\n      jumpi\n        /* \"#utility.yul\":12143:12144   */\n      0x00\n        /* \"#utility.yul\":12140:12141   */\n      dup1\n        /* \"#utility.yul\":12133:12145   */\n      revert\n        /* \"#utility.yul\":12087:12147   */\n    tag_692:\n        /* \"#utility.yul\":12037:12153   */\n      pop\n      jump\t// out\n        /* \"#utility.yul\":12159:12296   */\n    tag_551:\n        /* \"#utility.yul\":12213:12218   */\n      0x00\n        /* \"#utility.yul\":12244:12250   */\n      dup2\n        /* \"#utility.yul\":12238:12251   */\n      mload\n        /* \"#utility.yul\":12229:12251   */\n      swap1\n      pop\n        /* \"#utility.yul\":12260:12290   */\n      tag_694\n        /* \"#utility.yul\":12284:12289   */\n      dup2\n        /* \"#utility.yul\":12260:12290   */\n      tag_550\n      jump\t// in\n    tag_694:\n        /* \"#utility.yul\":12159:12296   */\n      swap3\n      swap2\n      pop\n      pop\n      jump\t// out\n        /* \"#utility.yul\":12302:12647   */\n    tag_222:\n        /* \"#utility.yul\":12369:12375   */\n      0x00\n        /* \"#utility.yul\":12418:12420   */\n      0x20\n        /* \"#utility.yul\":12406:12415   */\n      dup3\n        /* \"#utility.yul\":12397:12404   */\n      dup5\n        /* \"#utility.yul\":12393:12416   */\n      sub\n        /* \"#utility.yul\":12389:12421   */\n      slt\n        /* \"#utility.yul\":12386:12505   */\n      iszero\n      tag_696\n      jumpi\n        /* \"#utility.yul\":12424:12503   */\n      tag_697\n      tag_524\n      jump\t// in\n    tag_697:\n        /* \"#utility.yul\":12386:12505   */\n    tag_696:\n        /* \"#utility.yul\":12544:12545   */\n      0x00\n        /* \"#utility.yul\":12569:12630   */\n      tag_698\n        /* \"#utility.yul\":12622:12629   */\n      dup5\n        /* \"#utility.yul\":12613:12619   */\n      dup3\n        /* \"#utility.yul\":12602:12611   */\n      dup6\n        /* \"#utility.yul\":12598:12620   */\n      add\n        /* \"#utility.yul\":12569:12630   */\n      tag_551\n      jump\t// in\n    tag_698:\n        /* \"#utility.yul\":12559:12630   */\n      swap2\n      pop\n        /* \"#utility.yul\":12515:12640   */\n      pop\n        /* \"#utility.yul\":12302:12647   */\n      swap3\n      swap2\n      pop\n      pop\n      jump\t// out\n        /* \"#utility.yul\":12653:12818   */\n    tag_552:\n        /* \"#utility.yul\":12793:12810   */\n      0x4e6f742073616d6520616d6f756e740000000000000000000000000000000000\n        /* \"#utility.yul\":12789:12790   */\n      0x00\n        /* \"#utility.yul\":12781:12787   */\n      dup3\n        /* \"#utility.yul\":12777:12791   */\n      add\n        /* \"#utility.yul\":12770:12811   */\n      mstore\n        /* \"#utility.yul\":12653:12818   */\n      pop\n      jump\t// out\n        /* \"#utility.yul\":12824:13190   */\n    tag_553:\n        /* \"#utility.yul\":12966:12969   */\n      0x00\n        /* \"#utility.yul\":12987:13054   */\n      tag_701\n        /* \"#utility.yul\":13051:13053   */\n      0x0f\n        /* \"#utility.yul\":13046:13049   */\n      dup4\n        /* \"#utility.yul\":12987:13054   */\n      tag_540\n      jump\t// in\n    tag_701:\n        /* \"#utility.yul\":12980:13054   */\n      swap2\n      pop\n        /* \"#utility.yul\":13063:13156   */\n      tag_702\n        /* \"#utility.yul\":13152:13155   */\n      dup3\n        /* \"#utility.yul\":13063:13156   */\n      tag_552\n      jump\t// in\n    tag_702:\n        /* \"#utility.yul\":13181:13183   */\n      0x20\n        /* \"#utility.yul\":13176:13179   */\n      dup3\n        /* \"#utility.yul\":13172:13184   */\n      add\n        /* \"#utility.yul\":13165:13184   */\n      swap1\n      pop\n        /* \"#utility.yul\":12824:13190   */\n      swap2\n      swap1\n      pop\n      jump\t// out\n        /* \"#utility.yul\":13196:13615   */\n    tag_287:\n        /* \"#utility.yul\":13362:13366   */\n      0x00\n        /* \"#utility.yul\":13400:13402   */\n      0x20\n        /* \"#utility.yul\":13389:13398   */\n      dup3\n        /* \"#utility.yul\":13385:13403   */\n      add\n        /* \"#utility.yul\":13377:13403   */\n      swap1\n      pop\n        /* \"#utility.yul\":13449:13458   */\n      dup2\n        /* \"#utility.yul\":13443:13447   */\n      dup2\n        /* \"#utility.yul\":13439:13459   */\n      sub\n        /* \"#utility.yul\":13435:13436   */\n      0x00\n        /* \"#utility.yul\":13424:13433   */\n      dup4\n        /* \"#utility.yul\":13420:13437   */\n      add\n        /* \"#utility.yul\":13413:13460   */\n      mstore\n        /* \"#utility.yul\":13477:13608   */\n      tag_704\n        /* \"#utility.yul\":13603:13607   */\n      dup2\n        /* \"#utility.yul\":13477:13608   */\n      tag_553\n      jump\t// in\n    tag_704:\n        /* \"#utility.yul\":13469:13608   */\n      swap1\n      pop\n        /* \"#utility.yul\":13196:13615   */\n      swap2\n      swap1\n      pop\n      jump\t// out\n        /* \"#utility.yul\":13621:13764   */\n    tag_554:\n        /* \"#utility.yul\":13678:13683   */\n      0x00\n        /* \"#utility.yul\":13709:13715   */\n      dup2\n        /* \"#utility.yul\":13703:13716   */\n      mload\n        /* \"#utility.yul\":13694:13716   */\n      swap1\n      pop\n        /* \"#utility.yul\":13725:13758   */\n      tag_706\n        /* \"#utility.yul\":13752:13757   */\n      dup2\n        /* \"#utility.yul\":13725:13758   */\n      tag_527\n      jump\t// in\n    tag_706:\n        /* \"#utility.yul\":13621:13764   */\n      swap3\n      swap2\n      pop\n      pop\n      jump\t// out\n        /* \"#utility.yul\":13770:14121   */\n    tag_343:\n        /* \"#utility.yul\":13840:13846   */\n      0x00\n        /* \"#utility.yul\":13889:13891   */\n      0x20\n        /* \"#utility.yul\":13877:13886   */\n      dup3\n        /* \"#utility.yul\":13868:13875   */\n      dup5\n        /* \"#utility.yul\":13864:13887   */\n      sub\n        /* \"#utility.yul\":13860:13892   */\n      slt\n        /* \"#utility.yul\":13857:13976   */\n      iszero\n      tag_708\n      jumpi\n        /* \"#utility.yul\":13895:13974   */\n      tag_709\n      tag_524\n      jump\t// in\n    tag_709:\n        /* \"#utility.yul\":13857:13976   */\n    tag_708:\n        /* \"#utility.yul\":14015:14016   */\n      0x00\n        /* \"#utility.yul\":14040:14104   */\n      tag_710\n        /* \"#utility.yul\":14096:14103   */\n      dup5\n        /* \"#utility.yul\":14087:14093   */\n      dup3\n        /* \"#utility.yul\":14076:14085   */\n      dup6\n        /* \"#utility.yul\":14072:14094   */\n      add\n        /* \"#utility.yul\":14040:14104   */\n      tag_554\n      jump\t// in\n    tag_710:\n        /* \"#utility.yul\":14030:14104   */\n      swap2\n      pop\n        /* \"#utility.yul\":13986:14114   */\n      pop\n        /* \"#utility.yul\":13770:14121   */\n      swap3\n      swap2\n      pop\n      pop\n      jump\t// out\n        /* \"#utility.yul\":14127:14459   */\n    tag_359:\n        /* \"#utility.yul\":14248:14252   */\n      0x00\n        /* \"#utility.yul\":14286:14288   */\n      0x40\n        /* \"#utility.yul\":14275:14284   */\n      dup3\n        /* \"#utility.yul\":14271:14289   */\n      add\n        /* \"#utility.yul\":14263:14289   */\n      swap1\n      pop\n        /* \"#utility.yul\":14299:14370   */\n      tag_712\n        /* \"#utility.yul\":14367:14368   */\n      0x00\n        /* \"#utility.yul\":14356:14365   */\n      dup4\n        /* \"#utility.yul\":14352:14369   */\n      add\n        /* \"#utility.yul\":14343:14349   */\n      dup6\n        /* \"#utility.yul\":14299:14370   */\n      tag_530\n      jump\t// in\n    tag_712:\n        /* \"#utility.yul\":14380:14452   */\n      tag_713\n        /* \"#utility.yul\":14448:14450   */\n      0x20\n        /* \"#utility.yul\":14437:14446   */\n      dup4\n        /* \"#utility.yul\":14433:14451   */\n      add\n        /* \"#utility.yul\":14424:14430   */\n      dup5\n        /* \"#utility.yul\":14380:14452   */\n      tag_530\n      jump\t// in\n    tag_713:\n        /* \"#utility.yul\":14127:14459   */\n      swap4\n      swap3\n      pop\n      pop\n      pop\n      jump\t// out\n        /* \"#utility.yul\":14465:14645   */\n    tag_555:\n        /* \"#utility.yul\":14513:14590   */\n      0x4e487b7100000000000000000000000000000000000000000000000000000000\n        /* \"#utility.yul\":14510:14511   */\n      0x00\n        /* \"#utility.yul\":14503:14591   */\n      mstore\n        /* \"#utility.yul\":14610:14614   */\n      0x12\n        /* \"#utility.yul\":14607:14608   */\n      0x04\n        /* \"#utility.yul\":14600:14615   */\n      mstore\n        /* \"#utility.yul\":14634:14638   */\n      0x24\n        /* \"#utility.yul\":14631:14632   */\n      0x00\n        /* \"#utility.yul\":14624:14639   */\n      revert\n        /* \"#utility.yul\":14651:14827   */\n    tag_425:\n        /* \"#utility.yul\":14683:14684   */\n      0x00\n        /* \"#utility.yul\":14700:14720   */\n      tag_716\n        /* \"#utility.yul\":14718:14719   */\n      dup3\n        /* \"#utility.yul\":14700:14720   */\n      tag_526\n      jump\t// in\n    tag_716:\n        /* \"#utility.yul\":14695:14720   */\n      swap2\n      pop\n        /* \"#utility.yul\":14734:14754   */\n      tag_717\n        /* \"#utility.yul\":14752:14753   */\n      dup4\n        /* \"#utility.yul\":14734:14754   */\n      tag_526\n      jump\t// in\n    tag_717:\n        /* \"#utility.yul\":14729:14754   */\n      swap3\n      pop\n        /* \"#utility.yul\":14773:14774   */\n      dup3\n        /* \"#utility.yul\":14763:14798   */\n      tag_718\n      jumpi\n        /* \"#utility.yul\":14778:14796   */\n      tag_719\n      tag_555\n      jump\t// in\n    tag_719:\n        /* \"#utility.yul\":14763:14798   */\n    tag_718:\n        /* \"#utility.yul\":14819:14820   */\n      dup3\n        /* \"#utility.yul\":14816:14817   */\n      dup3\n        /* \"#utility.yul\":14812:14821   */\n      mod\n        /* \"#utility.yul\":14807:14821   */\n      swap1\n      pop\n        /* \"#utility.yul\":14651:14827   */\n      swap3\n      swap2\n      pop\n      pop\n      jump\t// out\n        /* \"#utility.yul\":14833:15181   */\n    tag_427:\n        /* \"#utility.yul\":14873:14880   */\n      0x00\n        /* \"#utility.yul\":14896:14916   */\n      tag_721\n        /* \"#utility.yul\":14914:14915   */\n      dup3\n        /* \"#utility.yul\":14896:14916   */\n      tag_526\n      jump\t// in\n    tag_721:\n        /* \"#utility.yul\":14891:14916   */\n      swap2\n      pop\n        /* \"#utility.yul\":14930:14950   */\n      tag_722\n        /* \"#utility.yul\":14948:14949   */\n      dup4\n        /* \"#utility.yul\":14930:14950   */\n      tag_526\n      jump\t// in\n    tag_722:\n        /* \"#utility.yul\":14925:14950   */\n      swap3\n      pop\n        /* \"#utility.yul\":15118:15119   */\n      dup2\n        /* \"#utility.yul\":15050:15116   */\n      0xffffffffffffffffffffffffffffffffffffffffffffffffffffffffffffffff\n        /* \"#utility.yul\":15046:15120   */\n      div\n        /* \"#utility.yul\":15043:15044   */\n      dup4\n        /* \"#utility.yul\":15040:15121   */\n      gt\n        /* \"#utility.yul\":15035:15036   */\n      dup3\n        /* \"#utility.yul\":15028:15037   */\n      iszero\n        /* \"#utility.yul\":15021:15038   */\n      iszero\n        /* \"#utility.yul\":15017:15122   */\n      and\n        /* \"#utility.yul\":15014:15145   */\n      iszero\n      tag_723\n      jumpi\n        /* \"#utility.yul\":15125:15143   */\n      tag_724\n      tag_543\n      jump\t// in\n    tag_724:\n        /* \"#utility.yul\":15014:15145   */\n    tag_723:\n        /* \"#utility.yul\":15173:15174   */\n      dup3\n        /* \"#utility.yul\":15170:15171   */\n      dup3\n        /* \"#utility.yul\":15166:15175   */\n      mul\n        /* \"#utility.yul\":15155:15175   */\n      swap1\n      pop\n        /* \"#utility.yul\":14833:15181   */\n      swap3\n      swap2\n      pop\n      pop\n      jump\t// out\n        /* \"#utility.yul\":15187:15519   */\n    tag_433:\n        /* \"#utility.yul\":15308:15312   */\n      0x00\n        /* \"#utility.yul\":15346:15348   */\n      0x40\n        /* \"#utility.yul\":15335:15344   */\n      dup3\n        /* \"#utility.yul\":15331:15349   */\n      add\n        /* \"#utility.yul\":15323:15349   */\n      swap1\n      pop\n        /* \"#utility.yul\":15359:15430   */\n      tag_726\n        /* \"#utility.yul\":15427:15428   */\n      0x00\n        /* \"#utility.yul\":15416:15425   */\n      dup4\n        /* \"#utility.yul\":15412:15429   */\n      add\n        /* \"#utility.yul\":15403:15409   */\n      dup6\n        /* \"#utility.yul\":15359:15430   */\n      tag_529\n      jump\t// in\n    tag_726:\n        /* \"#utility.yul\":15440:15512   */\n      tag_727\n        /* \"#utility.yul\":15508:15510   */\n      0x20\n        /* \"#utility.yul\":15497:15506   */\n      dup4\n        /* \"#utility.yul\":15493:15511   */\n      add\n        /* \"#utility.yul\":15484:15490   */\n      dup5\n        /* \"#utility.yul\":15440:15512   */\n      tag_530\n      jump\t// in\n    tag_727:\n        /* \"#utility.yul\":15187:15519   */\n      swap4\n      swap3\n      pop\n      pop\n      pop\n      jump\t// out\n        /* \"#utility.yul\":15525:15659   */\n    tag_556:\n        /* \"#utility.yul\":15583:15592   */\n      0x00\n        /* \"#utility.yul\":15616:15653   */\n      tag_729\n        /* \"#utility.yul\":15647:15652   */\n      dup3\n        /* \"#utility.yul\":15616:15653   */\n      tag_537\n      jump\t// in\n    tag_729:\n        /* \"#utility.yul\":15603:15653   */\n      swap1\n      pop\n        /* \"#utility.yul\":15525:15659   */\n      swap2\n      swap1\n      pop\n      jump\t// out\n        /* \"#utility.yul\":15665:15812   */\n    tag_557:\n        /* \"#utility.yul\":15760:15805   */\n      tag_731\n        /* \"#utility.yul\":15799:15804   */\n      dup2\n        /* \"#utility.yul\":15760:15805   */\n      tag_556\n      jump\t// in\n    tag_731:\n        /* \"#utility.yul\":15755:15758   */\n      dup3\n        /* \"#utility.yul\":15748:15806   */\n      mstore\n        /* \"#utility.yul\":15665:15812   */\n      pop\n      pop\n      jump\t// out\n        /* \"#utility.yul\":15818:16166   */\n    tag_443:\n        /* \"#utility.yul\":15947:15951   */\n      0x00\n        /* \"#utility.yul\":15985:15987   */\n      0x40\n        /* \"#utility.yul\":15974:15983   */\n      dup3\n        /* \"#utility.yul\":15970:15988   */\n      add\n        /* \"#utility.yul\":15962:15988   */\n      swap1\n      pop\n        /* \"#utility.yul\":15998:16077   */\n      tag_733\n        /* \"#utility.yul\":16074:16075   */\n      0x00\n        /* \"#utility.yul\":16063:16072   */\n      dup4\n        /* \"#utility.yul\":16059:16076   */\n      add\n        /* \"#utility.yul\":16050:16056   */\n      dup6\n        /* \"#utility.yul\":15998:16077   */\n      tag_557\n      jump\t// in\n    tag_733:\n        /* \"#utility.yul\":16087:16159   */\n      tag_734\n        /* \"#utility.yul\":16155:16157   */\n      0x20\n        /* \"#utility.yul\":16144:16153   */\n      dup4\n        /* \"#utility.yul\":16140:16158   */\n      add\n        /* \"#utility.yul\":16131:16137   */\n      dup5\n        /* \"#utility.yul\":16087:16159   */\n      tag_530\n      jump\t// in\n    tag_734:\n        /* \"#utility.yul\":15818:16166   */\n      swap4\n      swap3\n      pop\n      pop\n      pop\n      jump\t// out\n        /* \"#utility.yul\":16172:16291   */\n    tag_558:\n        /* \"#utility.yul\":16244:16250   */\n      0x00\n        /* \"#utility.yul\":16278:16283   */\n      dup2\n        /* \"#utility.yul\":16272:16284   */\n      sload\n        /* \"#utility.yul\":16262:16284   */\n      swap1\n      pop\n        /* \"#utility.yul\":16172:16291   */\n      swap2\n      swap1\n      pop\n      jump\t// out\n        /* \"#utility.yul\":16297:16489   */\n    tag_559:\n        /* \"#utility.yul\":16404:16415   */\n      0x00\n        /* \"#utility.yul\":16438:16444   */\n      dup3\n        /* \"#utility.yul\":16433:16436   */\n      dup3\n        /* \"#utility.yul\":16426:16445   */\n      mstore\n        /* \"#utility.yul\":16478:16482   */\n      0x20\n        /* \"#utility.yul\":16473:16476   */\n      dup3\n        /* \"#utility.yul\":16469:16483   */\n      add\n        /* \"#utility.yul\":16454:16483   */\n      swap1\n      pop\n        /* \"#utility.yul\":16297:16489   */\n      swap3\n      swap2\n      pop\n      pop\n      jump\t// out\n        /* \"#utility.yul\":16495:16659   */\n    tag_560:\n        /* \"#utility.yul\":16567:16571   */\n      0x00\n        /* \"#utility.yul\":16590:16593   */\n      dup2\n        /* \"#utility.yul\":16582:16593   */\n      swap1\n      pop\n        /* \"#utility.yul\":16613:16616   */\n      dup2\n        /* \"#utility.yul\":16610:16611   */\n      0x00\n        /* \"#utility.yul\":16603:16617   */\n      mstore\n        /* \"#utility.yul\":16647:16651   */\n      0x20\n        /* \"#utility.yul\":16644:16645   */\n      0x00\n        /* \"#utility.yul\":16634:16652   */\n      keccak256\n        /* \"#utility.yul\":16626:16652   */\n      swap1\n      pop\n        /* \"#utility.yul\":16495:16659   */\n      swap2\n      swap1\n      pop\n      jump\t// out\n        /* \"#utility.yul\":16665:16769   */\n    tag_561:\n        /* \"#utility.yul\":16710:16717   */\n      0x00\n        /* \"#utility.yul\":16739:16763   */\n      tag_739\n        /* \"#utility.yul\":16757:16762   */\n      dup3\n        /* \"#utility.yul\":16739:16763   */\n      tag_517\n      jump\t// in\n    tag_739:\n        /* \"#utility.yul\":16728:16763   */\n      swap1\n      pop\n        /* \"#utility.yul\":16665:16769   */\n      swap2\n      swap1\n      pop\n      jump\t// out\n        /* \"#utility.yul\":16775:16907   */\n    tag_562:\n        /* \"#utility.yul\":16868:16900   */\n      tag_741\n        /* \"#utility.yul\":16894:16899   */\n      dup2\n        /* \"#utility.yul\":16868:16900   */\n      tag_561\n      jump\t// in\n    tag_741:\n        /* \"#utility.yul\":16863:16866   */\n      dup3\n        /* \"#utility.yul\":16856:16901   */\n      mstore\n        /* \"#utility.yul\":16775:16907   */\n      pop\n      pop\n      jump\t// out\n        /* \"#utility.yul\":16913:17124   */\n    tag_563:\n        /* \"#utility.yul\":16998:17008   */\n      0x00\n        /* \"#utility.yul\":17019:17081   */\n      tag_743\n        /* \"#utility.yul\":17077:17080   */\n      dup4\n        /* \"#utility.yul\":17069:17075   */\n      dup4\n        /* \"#utility.yul\":17019:17081   */\n      tag_562\n      jump\t// in\n    tag_743:\n        /* \"#utility.yul\":17113:17117   */\n      0x20\n        /* \"#utility.yul\":17108:17111   */\n      dup4\n        /* \"#utility.yul\":17104:17118   */\n      add\n        /* \"#utility.yul\":17090:17118   */\n      swap1\n      pop\n        /* \"#utility.yul\":16913:17124   */\n      swap3\n      swap2\n      pop\n      pop\n      jump\t// out\n        /* \"#utility.yul\":17130:17232   */\n    tag_564:\n        /* \"#utility.yul\":17172:17180   */\n      0x00\n        /* \"#utility.yul\":17219:17224   */\n      dup2\n        /* \"#utility.yul\":17216:17217   */\n      0x00\n        /* \"#utility.yul\":17212:17225   */\n      shr\n        /* \"#utility.yul\":17191:17225   */\n      swap1\n      pop\n        /* \"#utility.yul\":17130:17232   */\n      swap2\n      swap1\n      pop\n      jump\t// out\n        /* \"#utility.yul\":17238:17385   */\n    tag_565:\n        /* \"#utility.yul\":17296:17303   */\n      0x00\n        /* \"#utility.yul\":17336:17378   */\n      0xffffffffffffffffffffffffffffffffffffffff\n        /* \"#utility.yul\":17329:17334   */\n      dup3\n        /* \"#utility.yul\":17325:17379   */\n      and\n        /* \"#utility.yul\":17314:17379   */\n      swap1\n      pop\n        /* \"#utility.yul\":17238:17385   */\n      swap2\n      swap1\n      pop\n      jump\t// out\n        /* \"#utility.yul\":17391:17573   */\n    tag_566:\n        /* \"#utility.yul\":17468:17473   */\n      0x00\n        /* \"#utility.yul\":17493:17567   */\n      tag_747\n        /* \"#utility.yul\":17532:17566   */\n      tag_748\n        /* \"#utility.yul\":17555:17565   */\n      dup4\n        /* \"#utility.yul\":17532:17566   */\n      tag_564\n      jump\t// in\n    tag_748:\n        /* \"#utility.yul\":17493:17567   */\n      tag_565\n      jump\t// in\n    tag_747:\n        /* \"#utility.yul\":17484:17567   */\n      swap1\n      pop\n        /* \"#utility.yul\":17391:17573   */\n      swap2\n      swap1\n      pop\n      jump\t// out\n        /* \"#utility.yul\":17579:17739   */\n    tag_567:\n        /* \"#utility.yul\":17642:17647   */\n      0x00\n        /* \"#utility.yul\":17667:17732   */\n      tag_750\n        /* \"#utility.yul\":17726:17730   */\n      dup3\n        /* \"#utility.yul\":17720:17731   */\n      sload\n        /* \"#utility.yul\":17667:17732   */\n      tag_566\n      jump\t// in\n    tag_750:\n        /* \"#utility.yul\":17658:17732   */\n      swap1\n      pop\n        /* \"#utility.yul\":17579:17739   */\n      swap2\n      swap1\n      pop\n      jump\t// out\n        /* \"#utility.yul\":17745:17863   */\n    tag_568:\n        /* \"#utility.yul\":17820:17824   */\n      0x00\n        /* \"#utility.yul\":17852:17856   */\n      0x01\n        /* \"#utility.yul\":17847:17850   */\n      dup3\n        /* \"#utility.yul\":17843:17857   */\n      add\n        /* \"#utility.yul\":17835:17857   */\n      swap1\n      pop\n        /* \"#utility.yul\":17745:17863   */\n      swap2\n      swap1\n      pop\n      jump\t// out\n        /* \"#utility.yul\":17915:18738   */\n    tag_569:\n        /* \"#utility.yul\":18047:18050   */\n      0x00\n        /* \"#utility.yul\":18076:18135   */\n      tag_753\n        /* \"#utility.yul\":18129:18134   */\n      dup3\n        /* \"#utility.yul\":18076:18135   */\n      tag_558\n      jump\t// in\n    tag_753:\n        /* \"#utility.yul\":18151:18245   */\n      tag_754\n        /* \"#utility.yul\":18238:18244   */\n      dup2\n        /* \"#utility.yul\":18233:18236   */\n      dup6\n        /* \"#utility.yul\":18151:18245   */\n      tag_559\n      jump\t// in\n    tag_754:\n        /* \"#utility.yul\":18144:18245   */\n      swap4\n      pop\n        /* \"#utility.yul\":18269:18330   */\n      tag_755\n        /* \"#utility.yul\":18324:18329   */\n      dup4\n        /* \"#utility.yul\":18269:18330   */\n      tag_560\n      jump\t// in\n    tag_755:\n        /* \"#utility.yul\":18353:18360   */\n      dup1\n        /* \"#utility.yul\":18384:18385   */\n      0x00\n        /* \"#utility.yul\":18369:18713   */\n    tag_756:\n        /* \"#utility.yul\":18394:18400   */\n      dup4\n        /* \"#utility.yul\":18391:18392   */\n      dup2\n        /* \"#utility.yul\":18388:18401   */\n      lt\n        /* \"#utility.yul\":18369:18713   */\n      iszero\n      tag_758\n      jumpi\n        /* \"#utility.yul\":18464:18516   */\n      tag_759\n        /* \"#utility.yul\":18509:18515   */\n      dup3\n        /* \"#utility.yul\":18464:18516   */\n      tag_567\n      jump\t// in\n    tag_759:\n        /* \"#utility.yul\":18536:18615   */\n      tag_760\n        /* \"#utility.yul\":18611:18614   */\n      dup9\n        /* \"#utility.yul\":18596:18609   */\n      dup3\n        /* \"#utility.yul\":18536:18615   */\n      tag_563\n      jump\t// in\n    tag_760:\n        /* \"#utility.yul\":18529:18615   */\n      swap8\n      pop\n        /* \"#utility.yul\":18638:18703   */\n      tag_761\n        /* \"#utility.yul\":18696:18702   */\n      dup4\n        /* \"#utility.yul\":18638:18703   */\n      tag_568\n      jump\t// in\n    tag_761:\n        /* \"#utility.yul\":18628:18703   */\n      swap3\n      pop\n        /* \"#utility.yul\":18429:18713   */\n      pop\n        /* \"#utility.yul\":18416:18417   */\n      0x01\n        /* \"#utility.yul\":18413:18414   */\n      dup2\n        /* \"#utility.yul\":18409:18418   */\n      add\n        /* \"#utility.yul\":18404:18418   */\n      swap1\n      pop\n        /* \"#utility.yul\":18369:18713   */\n      jump(tag_756)\n    tag_758:\n        /* \"#utility.yul\":18373:18387   */\n      pop\n        /* \"#utility.yul\":18729:18732   */\n      dup6\n        /* \"#utility.yul\":18722:18732   */\n      swap4\n      pop\n        /* \"#utility.yul\":18052:18738   */\n      pop\n      pop\n      pop\n        /* \"#utility.yul\":17915:18738   */\n      swap3\n      swap2\n      pop\n      pop\n      jump\t// out\n        /* \"#utility.yul\":18744:19474   */\n    tag_501:\n        /* \"#utility.yul\":18984:18988   */\n      0x00\n        /* \"#utility.yul\":19022:19025   */\n      0x80\n        /* \"#utility.yul\":19011:19020   */\n      dup3\n        /* \"#utility.yul\":19007:19026   */\n      add\n        /* \"#utility.yul\":18999:19026   */\n      swap1\n      pop\n        /* \"#utility.yul\":19036:19107   */\n      tag_763\n        /* \"#utility.yul\":19104:19105   */\n      0x00\n        /* \"#utility.yul\":19093:19102   */\n      dup4\n        /* \"#utility.yul\":19089:19106   */\n      add\n        /* \"#utility.yul\":19080:19086   */\n      dup8\n        /* \"#utility.yul\":19036:19107   */\n      tag_530\n      jump\t// in\n    tag_763:\n        /* \"#utility.yul\":19117:19189   */\n      tag_764\n        /* \"#utility.yul\":19185:19187   */\n      0x20\n        /* \"#utility.yul\":19174:19183   */\n      dup4\n        /* \"#utility.yul\":19170:19188   */\n      add\n        /* \"#utility.yul\":19161:19167   */\n      dup7\n        /* \"#utility.yul\":19117:19189   */\n      tag_530\n      jump\t// in\n    tag_764:\n        /* \"#utility.yul\":19236:19245   */\n      dup2\n        /* \"#utility.yul\":19230:19234   */\n      dup2\n        /* \"#utility.yul\":19226:19246   */\n      sub\n        /* \"#utility.yul\":19221:19223   */\n      0x40\n        /* \"#utility.yul\":19210:19219   */\n      dup4\n        /* \"#utility.yul\":19206:19224   */\n      add\n        /* \"#utility.yul\":19199:19247   */\n      mstore\n        /* \"#utility.yul\":19264:19385   */\n      tag_765\n        /* \"#utility.yul\":19380:19384   */\n      dup2\n        /* \"#utility.yul\":19371:19377   */\n      dup6\n        /* \"#utility.yul\":19264:19385   */\n      tag_569\n      jump\t// in\n    tag_765:\n        /* \"#utility.yul\":19256:19385   */\n      swap1\n      pop\n        /* \"#utility.yul\":19395:19467   */\n      tag_766\n        /* \"#utility.yul\":19463:19465   */\n      0x60\n        /* \"#utility.yul\":19452:19461   */\n      dup4\n        /* \"#utility.yul\":19448:19466   */\n      add\n        /* \"#utility.yul\":19439:19445   */\n      dup5\n        /* \"#utility.yul\":19395:19467   */\n      tag_530\n      jump\t// in\n    tag_766:\n        /* \"#utility.yul\":18744:19474   */\n      swap6\n      swap5\n      pop\n      pop\n      pop\n      pop\n      pop\n      jump\t// out\n        /* \"#utility.yul\":19480:19665   */\n    tag_506:\n        /* \"#utility.yul\":19520:19521   */\n      0x00\n        /* \"#utility.yul\":19537:19557   */\n      tag_768\n        /* \"#utility.yul\":19555:19556   */\n      dup3\n        /* \"#utility.yul\":19537:19557   */\n      tag_526\n      jump\t// in\n    tag_768:\n        /* \"#utility.yul\":19532:19557   */\n      swap2\n      pop\n        /* \"#utility.yul\":19571:19591   */\n      tag_769\n        /* \"#utility.yul\":19589:19590   */\n      dup4\n        /* \"#utility.yul\":19571:19591   */\n      tag_526\n      jump\t// in\n    tag_769:\n        /* \"#utility.yul\":19566:19591   */\n      swap3\n      pop\n        /* \"#utility.yul\":19610:19611   */\n      dup3\n        /* \"#utility.yul\":19600:19635   */\n      tag_770\n      jumpi\n        /* \"#utility.yul\":19615:19633   */\n      tag_771\n      tag_555\n      jump\t// in\n    tag_771:\n        /* \"#utility.yul\":19600:19635   */\n    tag_770:\n        /* \"#utility.yul\":19657:19658   */\n      dup3\n        /* \"#utility.yul\":19654:19655   */\n      dup3\n        /* \"#utility.yul\":19650:19659   */\n      div\n        /* \"#utility.yul\":19645:19659   */\n      swap1\n      pop\n        /* \"#utility.yul\":19480:19665   */\n      swap3\n      swap2\n      pop\n      pop\n      jump\t// out\n\n    auxdata: 0xa2646970667358221220d7ebacb795ea8919561cc9d995c0da909c4e6eaaa0c7510da202518f938f876e64736f6c63430008100033\n}\n",
				"bytecode": {
					"linkReferences": {},
					"object": "608060405273ebfdf7a84eb1dd651663782802a818ce36f3e18a600060016101000a81548173ffffffffffffffffffffffffffffffffffffffff021916908373ffffffffffffffffffffffffffffffffffffffff160217905550601e6001556000600f60006101000a81548160ff02191690831515021790555034801561008557600080fd5b5033600260006101000a81548173ffffffffffffffffffffffffffffffffffffffff021916908373ffffffffffffffffffffffffffffffffffffffff1602179055506064600381905550670de0b6b3a76400006005819055506014600781905550678ac7230489e800006009819055506003600b8190555068056bc75e2d63100000600d8190555073e9e7cea3dedca5984780bafc599bd69add087d56601360006101000a81548173ffffffffffffffffffffffffffffffffffffffff021916908373ffffffffffffffffffffffffffffffffffffffff160217905550601360009054906101000a900473ffffffffffffffffffffffffffffffffffffffff16601460006101000a81548173ffffffffffffffffffffffffffffffffffffffff021916908373ffffffffffffffffffffffffffffffffffffffff16021790555061335e806101d46000396000f3fe608060405234801561001057600080fd5b50600436106101fb5760003560e01c80639d76ea581161011a578063be69d7ff116100ad578063e437239f1161007c578063e437239f14610536578063ea6b048014610552578063f0c30e9514610570578063f19e8d861461058c578063f77f15b5146105bc576101fb565b8063be69d7ff146104d4578063ce5f6b9f146104de578063d521cf2a146104fa578063db48692914610518576101fb565b8063a46eeb75116100e9578063a46eeb751461045c578063a7e9f0d11461047a578063b228864914610498578063b6fa5dfd146104b6576101fb565b80639d76ea58146103e45780639ec8070214610402578063a0a7bda814610420578063a308761a1461043e576101fb565b806356e0bd3611610192578063636ad6a611610161578063636ad6a61461035c5780637eee9fc11461037a5780638644024b14610396578063890d542f146103b4576101fb565b806356e0bd36146102be578063576aaa2b146102ee5780635a3811b91461030c578063602977ad1461032a576101fb565b806317c6332c116101ce57806317c6332c1461024e5780633631ef4a1461026a5780633fc7adb6146102865780634ba35125146102a2576101fb565b8063013fc0ab14610200578063130024371461020a5780631598165014610228578063160344e214610244575b600080fd5b6102086105c6565b005b610212610660565b60405161021f91906129d0565b60405180910390f35b610242600480360381019061023d9190612a2d565b610880565b005b61024c61091a565b005b61026860048036038101906102639190612a2d565b6109c7565b005b610284600480360381019061027f9190612a2d565b610a61565b005b6102a0600480360381019061029b9190612a2d565b610d6c565b005b6102bc60048036038101906102b79190612a2d565b610e06565b005b6102d860048036038101906102d39190612a2d565b610ea0565b6040516102e59190612a69565b60405180910390f35b6102f6610edf565b6040516103039190612a93565b60405180910390f35b610314610eec565b6040516103219190612ac9565b60405180910390f35b610344600480360381019061033f9190612b10565b610eff565b60405161035393929190612b3d565b60405180910390f35b610364611138565b6040516103719190612a93565b60405180910390f35b610394600480360381019061038f9190612a2d565b611142565b005b61039e61144d565b6040516103ab9190612a93565b60405180910390f35b6103ce60048036038101906103c99190612a2d565b611457565b6040516103db9190612a69565b60405180910390f35b6103ec611496565b6040516103f99190612a69565b60405180910390f35b61040a6114bc565b6040516104179190612a93565b60405180910390f35b6104286114c6565b6040516104359190612a93565b60405180910390f35b6104466114d3565b6040516104539190612a93565b60405180910390f35b6104646114dd565b6040516104719190612a93565b60405180910390f35b6104826114ea565b60405161048f91906129d0565b60405180910390f35b6104a061170a565b6040516104ad9190612a93565b60405180910390f35b6104be6117ad565b6040516104cb9190612bd3565b60405180910390f35b6104dc6117d3565b005b6104f860048036038101906104f39190612a2d565b61186d565b005b610502611bb3565b60405161050f91906129d0565b60405180910390f35b610520611dd3565b60405161052d9190612a93565b60405180910390f35b610550600480360381019061054b9190612a2d565b611ddd565b005b61055a611e77565b6040516105679190612a93565b60405180910390f35b61058a60048036038101906105859190612a2d565b611e81565b005b6105a660048036038101906105a19190612a2d565b611f1b565b6040516105b39190612a69565b60405180910390f35b6105c4611f5a565b005b600260009054906101000a900473ffffffffffffffffffffffffffffffffffffffff1673ffffffffffffffffffffffffffffffffffffffff163373ffffffffffffffffffffffffffffffffffffffff1614610656576040517f08c379a000000000000000000000000000000000000000000000000000000000815260040161064d90612c4b565b60405180910390fd5b61065e611ff4565b565b60606000601167ffffffffffffffff81111561067f5761067e612c6b565b5b6040519080825280602002602001820160405280156106ad5781602001602082028036833780820191505090505b509050600060128054905090506000825190506000600a8311156107985760008390505b600a846106de9190612cc9565b8111156107925782806106f090612cfd565b9350506012818154811061070757610706612d45565b5b9060005260206000200160009054906101000a900473ffffffffffffffffffffffffffffffffffffffff1685848151811061074557610744612d45565b5b602002602001019073ffffffffffffffffffffffffffffffffffffffff16908173ffffffffffffffffffffffffffffffffffffffff1681525050808061078a90612d74565b9150506106d1565b50610876565b60008390505b60008111156108745782806107b290612cfd565b935050600060126001836107c69190612cc9565b815481106107d7576107d6612d45565b5b9060005260206000200160009054906101000a900473ffffffffffffffffffffffffffffffffffffffff1690508086848151811061081857610817612d45565b5b602002602001019073ffffffffffffffffffffffffffffffffffffffff16908173ffffffffffffffffffffffffffffffffffffffff1681525050828061085d90612cfd565b93505050808061086c90612d74565b91505061079e565b505b8394505050505090565b600260009054906101000a900473ffffffffffffffffffffffffffffffffffffffff1673ffffffffffffffffffffffffffffffffffffffff163373ffffffffffffffffffffffffffffffffffffffff1614610910576040517f08c379a000000000000000000000000000000000000000000000000000000000815260040161090790612c4b565b60405180910390fd5b8060058190555050565b600260009054906101000a900473ffffffffffffffffffffffffffffffffffffffff1673ffffffffffffffffffffffffffffffffffffffff163373ffffffffffffffffffffffffffffffffffffffff16146109aa576040517f08c379a00000000000000000000000000000000000000000000000000000000081526004016109a190612c4b565b60405180910390fd5b6001600f60006101000a81548160ff021916908315150217905550565b600260009054906101000a900473ffffffffffffffffffffffffffffffffffffffff1673ffffffffffffffffffffffffffffffffffffffff163373ffffffffffffffffffffffffffffffffffffffff1614610a57576040517f08c379a0000000000000000000000000000000000000000000000000000000008152600401610a4e90612c4b565b60405180910390fd5b80600b8190555050565b600260009054906101000a900473ffffffffffffffffffffffffffffffffffffffff1673ffffffffffffffffffffffffffffffffffffffff163373ffffffffffffffffffffffffffffffffffffffff1603610af1576040517f08c379a0000000000000000000000000000000000000000000000000000000008152600401610ae890612c4b565b60405180910390fd5b60008054906101000a900460ff1615610b3f576040517f08c379a0000000000000000000000000000000000000000000000000000000008152600401610b3690612de9565b60405180910390fd5b60016000806101000a81548160ff021916908315150217905550600f60009054906101000a900460ff16610ba8576040517f08c379a0000000000000000000000000000000000000000000000000000000008152600401610b9f90612e55565b60405180910390fd5b600d548114610bec576040517f08c379a0000000000000000000000000000000000000000000000000000000008152600401610be390612ec1565b60405180910390fd5b6000601460009054906101000a900473ffffffffffffffffffffffffffffffffffffffff1673ffffffffffffffffffffffffffffffffffffffff166323b872dd3330856040518463ffffffff1660e01b8152600401610c4d93929190612ee1565b6020604051808303816000875af1158015610c6c573d6000803e3d6000fd5b505050506040513d601f19601f82011682018060405250810190610c909190612f44565b90508015610d4e57600b54600c541015610d3857600e339080600181540180825580915050600190039060005260206000200160009091909190916101000a81548173ffffffffffffffffffffffffffffffffffffffff021916908373ffffffffffffffffffffffffffffffffffffffff160217905550600c6000815480929190610d1a90612cfd565b9190505550600b54600c5403610d3357610d326122ae565b5b610d4d565b600b54600c5403610d4c57610d4b6122ae565b5b5b5b5060008060006101000a81548160ff02191690831515021790555050565b600260009054906101000a900473ffffffffffffffffffffffffffffffffffffffff1673ffffffffffffffffffffffffffffffffffffffff163373ffffffffffffffffffffffffffffffffffffffff1614610dfc576040517f08c379a0000000000000000000000000000000000000000000000000000000008152600401610df390612c4b565b60405180910390fd5b8060038190555050565b600260009054906101000a900473ffffffffffffffffffffffffffffffffffffffff1673ffffffffffffffffffffffffffffffffffffffff163373ffffffffffffffffffffffffffffffffffffffff1614610e96576040517f08c379a0000000000000000000000000000000000000000000000000000000008152600401610e8d90612c4b565b60405180910390fd5b8060078190555050565b60118181548110610eb057600080fd5b906000526020600020016000915054906101000a900473ffffffffffffffffffffffffffffffffffffffff1681565b6000600680549050905090565b600f60009054906101000a900460ff1681565b600080600080600090506000806000600680549050905060008114610fbe5760005b81811015610fbc578873ffffffffffffffffffffffffffffffffffffffff1660068281548110610f5457610f53612d45565b5b9060005260206000200160009054906101000a900473ffffffffffffffffffffffffffffffffffffffff1673ffffffffffffffffffffffffffffffffffffffff1603610fa9578480610fa590612cfd565b9550505b8080610fb490612cfd565b915050610f21565b505b6000600a805490509050600081146110705760005b8181101561106e578973ffffffffffffffffffffffffffffffffffffffff16600a828154811061100657611005612d45565b5b9060005260206000200160009054906101000a900473ffffffffffffffffffffffffffffffffffffffff1673ffffffffffffffffffffffffffffffffffffffff160361105b57848061105790612cfd565b9550505b808061106690612cfd565b915050610fd3565b505b6000600e805490509050600081146111225760005b81811015611120578a73ffffffffffffffffffffffffffffffffffffffff16600682815481106110b8576110b7612d45565b5b9060005260206000200160009054906101000a900473ffffffffffffffffffffffffffffffffffffffff1673ffffffffffffffffffffffffffffffffffffffff160361110d57848061110990612cfd565b9550505b808061111890612cfd565b915050611085565b505b8585859850985098505050505050509193909250565b6000600554905090565b600260009054906101000a900473ffffffffffffffffffffffffffffffffffffffff1673ffffffffffffffffffffffffffffffffffffffff163373ffffffffffffffffffffffffffffffffffffffff16036111d2576040517f08c379a00000000000000000000000000000000000000000000000000000000081526004016111c990612c4b565b60405180910390fd5b60008054906101000a900460ff1615611220576040517f08c379a000000000000000000000000000000000000000000000000000000000815260040161121790612de9565b60405180910390fd5b60016000806101000a81548160ff021916908315150217905550600f60009054906101000a900460ff16611289576040517f08c379a000000000000000000000000000000000000000000000000000000000815260040161128090612e55565b60405180910390fd5b60055481146112cd576040517f08c379a00000000000000000000000000000000000000000000000000000000081526004016112c490612fbd565b60405180910390fd5b6000601460009054906101000a900473ffffffffffffffffffffffffffffffffffffffff1673ffffffffffffffffffffffffffffffffffffffff166323b872dd3330856040518463ffffffff1660e01b815260040161132e93929190612ee1565b6020604051808303816000875af115801561134d573d6000803e3d6000fd5b505050506040513d601f19601f820116820180604052508101906113719190612f44565b9050801561142f576003546004541015611419576006339080600181540180825580915050600190039060005260206000200160009091909190916101000a81548173ffffffffffffffffffffffffffffffffffffffff021916908373ffffffffffffffffffffffffffffffffffffffff160217905550600460008154809291906113fb90612cfd565b91905055506003546004540361141457611413612568565b5b61142e565b6003546004540361142d5761142c612568565b5b5b5b5060008060006101000a81548160ff02191690831515021790555050565b6000600d54905090565b6012818154811061146757600080fd5b906000526020600020016000915054906101000a900473ffffffffffffffffffffffffffffffffffffffff1681565b601360009054906101000a900473ffffffffffffffffffffffffffffffffffffffff1681565b6000600354905090565b6000600e80549050905090565b6000600754905090565b6000600a80549050905090565b60606000601167ffffffffffffffff81111561150957611508612c6b565b5b6040519080825280602002602001820160405280156115375781602001602082028036833780820191505090505b509050600060108054905090506000825190506000600a8311156116225760008390505b600a846115689190612cc9565b81111561161c57828061157a90612cfd565b9350506010818154811061159157611590612d45565b5b9060005260206000200160009054906101000a900473ffffffffffffffffffffffffffffffffffffffff168584815181106115cf576115ce612d45565b5b602002602001019073ffffffffffffffffffffffffffffffffffffffff16908173ffffffffffffffffffffffffffffffffffffffff1681525050808061161490612d74565b91505061155b565b50611700565b60008390505b60008111156116fe57828061163c90612cfd565b935050600060106001836116509190612cc9565b8154811061166157611660612d45565b5b9060005260206000200160009054906101000a900473ffffffffffffffffffffffffffffffffffffffff169050808684815181106116a2576116a1612d45565b5b602002602001019073ffffffffffffffffffffffffffffffffffffffff16908173ffffffffffffffffffffffffffffffffffffffff168152505082806116e790612cfd565b9350505080806116f690612d74565b915050611628565b505b8394505050505090565b6000601460009054906101000a900473ffffffffffffffffffffffffffffffffffffffff1673ffffffffffffffffffffffffffffffffffffffff166370a08231306040518263ffffffff1660e01b81526004016117679190612a69565b602060405180830381865afa158015611784573d6000803e3d6000fd5b505050506040513d601f19601f820116820180604052508101906117a89190612ff2565b905090565b601460009054906101000a900473ffffffffffffffffffffffffffffffffffffffff1681565b600260009054906101000a900473ffffffffffffffffffffffffffffffffffffffff1673ffffffffffffffffffffffffffffffffffffffff163373ffffffffffffffffffffffffffffffffffffffff1614611863576040517f08c379a000000000000000000000000000000000000000000000000000000000815260040161185a90612c4b565b60405180910390fd5b61186b6122ae565b565b600260009054906101000a900473ffffffffffffffffffffffffffffffffffffffff1673ffffffffffffffffffffffffffffffffffffffff163373ffffffffffffffffffffffffffffffffffffffff16036118fd576040517f08c379a00000000000000000000000000000000000000000000000000000000081526004016118f490612c4b565b60405180910390fd5b60008054906101000a900460ff161561194b576040517f08c379a000000000000000000000000000000000000000000000000000000000815260040161194290612de9565b60405180910390fd5b60016000806101000a81548160ff021916908315150217905550600f60009054906101000a900460ff166119b4576040517f08c379a00000000000000000000000000000000000000000000000000000000081526004016119ab90612e55565b60405180910390fd5b7fa3de883741aefa0083d54de95483572ad5eaa074b33a0ae8dc98725d52cf8143816009546040516119e792919061301f565b60405180910390a16009548114611a33576040517f08c379a0000000000000000000000000000000000000000000000000000000008152600401611a2a90612fbd565b60405180910390fd5b6000601460009054906101000a900473ffffffffffffffffffffffffffffffffffffffff1673ffffffffffffffffffffffffffffffffffffffff166323b872dd3330856040518463ffffffff1660e01b8152600401611a9493929190612ee1565b6020604051808303816000875af1158015611ab3573d6000803e3d6000fd5b505050506040513d601f19601f82011682018060405250810190611ad79190612f44565b90508015611b95576007546008541015611b7f57600a339080600181540180825580915050600190039060005260206000200160009091909190916101000a81548173ffffffffffffffffffffffffffffffffffffffff021916908373ffffffffffffffffffffffffffffffffffffffff16021790555060086000815480929190611b6190612cfd565b919050555060075460085403611b7a57611b79611ff4565b5b611b94565b60075460085403611b9357611b92611ff4565b5b5b5b5060008060006101000a81548160ff02191690831515021790555050565b60606000601167ffffffffffffffff811115611bd257611bd1612c6b565b5b604051908082528060200260200182016040528015611c005781602001602082028036833780820191505090505b509050600060118054905090506000825190506000600a831115611ceb5760008390505b600a84611c319190612cc9565b811115611ce5578280611c4390612cfd565b93505060118181548110611c5a57611c59612d45565b5b9060005260206000200160009054906101000a900473ffffffffffffffffffffffffffffffffffffffff16858481518110611c9857611c97612d45565b5b602002602001019073ffffffffffffffffffffffffffffffffffffffff16908173ffffffffffffffffffffffffffffffffffffffff16815250508080611cdd90612d74565b915050611c24565b50611dc9565b60008390505b6000811115611dc7578280611d0590612cfd565b93505060006011600183611d199190612cc9565b81548110611d2a57611d29612d45565b5b9060005260206000200160009054906101000a900473ffffffffffffffffffffffffffffffffffffffff16905080868481518110611d6b57611d6a612d45565b5b602002602001019073ffffffffffffffffffffffffffffffffffffffff16908173ffffffffffffffffffffffffffffffffffffffff16815250508280611db090612cfd565b935050508080611dbf90612d74565b915050611cf1565b505b8394505050505090565b6000600b54905090565b600260009054906101000a900473ffffffffffffffffffffffffffffffffffffffff1673ffffffffffffffffffffffffffffffffffffffff163373ffffffffffffffffffffffffffffffffffffffff1614611e6d576040517f08c379a0000000000000000000000000000000000000000000000000000000008152600401611e6490612c4b565b60405180910390fd5b8060098190555050565b6000600954905090565b600260009054906101000a900473ffffffffffffffffffffffffffffffffffffffff1673ffffffffffffffffffffffffffffffffffffffff163373ffffffffffffffffffffffffffffffffffffffff1614611f11576040517f08c379a0000000000000000000000000000000000000000000000000000000008152600401611f0890612c4b565b60405180910390fd5b80600d8190555050565b60108181548110611f2b57600080fd5b906000526020600020016000915054906101000a900473ffffffffffffffffffffffffffffffffffffffff1681565b600260009054906101000a900473ffffffffffffffffffffffffffffffffffffffff1673ffffffffffffffffffffffffffffffffffffffff163373ffffffffffffffffffffffffffffffffffffffff1614611fea576040517f08c379a0000000000000000000000000000000000000000000000000000000008152600401611fe190612c4b565b60405180910390fd5b611ff2612568565b565b6000600a80549050612004612828565b61200e9190613077565b90506000600a8054905060095461202591906130a8565b9050600061203f61203883600154612860565b6064612876565b9050601460009054906101000a900473ffffffffffffffffffffffffffffffffffffffff1673ffffffffffffffffffffffffffffffffffffffff1663a9059cbb600060019054906101000a900473ffffffffffffffffffffffffffffffffffffffff16836040518363ffffffff1660e01b81526004016120c0929190613102565b6020604051808303816000875af11580156120df573d6000803e3d6000fd5b505050506040513d601f19601f820116820180604052508101906121039190612f44565b506000612110838361288c565b9050601460009054906101000a900473ffffffffffffffffffffffffffffffffffffffff1673ffffffffffffffffffffffffffffffffffffffff1663a9059cbb600a868154811061216457612163612d45565b5b9060005260206000200160009054906101000a900473ffffffffffffffffffffffffffffffffffffffff16836040518363ffffffff1660e01b81526004016121ad92919061314c565b6020604051808303816000875af11580156121cc573d6000803e3d6000fd5b505050506040513d601f19601f820116820180604052508101906121f09190612f44565b506011600a858154811061220757612206612d45565b5b9060005260206000200160009054906101000a900473ffffffffffffffffffffffffffffffffffffffff169080600181540180825580915050600190039060005260206000200160009091909190916101000a81548173ffffffffffffffffffffffffffffffffffffffff021916908373ffffffffffffffffffffffffffffffffffffffff160217905550600a60006122a091906128a2565b600060088190555050505050565b6000600e805490506122be612828565b6122c89190613077565b90506000600e80549050600d546122df91906130a8565b905060006122f96122f283600154612860565b6064612876565b9050601460009054906101000a900473ffffffffffffffffffffffffffffffffffffffff1673ffffffffffffffffffffffffffffffffffffffff1663a9059cbb600060019054906101000a900473ffffffffffffffffffffffffffffffffffffffff16836040518363ffffffff1660e01b815260040161237a929190613102565b6020604051808303816000875af1158015612399573d6000803e3d6000fd5b505050506040513d601f19601f820116820180604052508101906123bd9190612f44565b5060006123ca838361288c565b9050601460009054906101000a900473ffffffffffffffffffffffffffffffffffffffff1673ffffffffffffffffffffffffffffffffffffffff1663a9059cbb600e868154811061241e5761241d612d45565b5b9060005260206000200160009054906101000a900473ffffffffffffffffffffffffffffffffffffffff16836040518363ffffffff1660e01b815260040161246792919061314c565b6020604051808303816000875af1158015612486573d6000803e3d6000fd5b505050506040513d601f19601f820116820180604052508101906124aa9190612f44565b506012600e85815481106124c1576124c0612d45565b5b9060005260206000200160009054906101000a900473ffffffffffffffffffffffffffffffffffffffff169080600181540180825580915050600190039060005260206000200160009091909190916101000a81548173ffffffffffffffffffffffffffffffffffffffff021916908373ffffffffffffffffffffffffffffffffffffffff160217905550600e600061255a91906128a2565b6000600c8190555050505050565b6000600680549050612578612828565b6125829190613077565b90506000600680549050905060008160055461259e91906130a8565b905060006125b86125b183600154612860565b6064612876565b9050601460009054906101000a900473ffffffffffffffffffffffffffffffffffffffff1673ffffffffffffffffffffffffffffffffffffffff1663a9059cbb600060019054906101000a900473ffffffffffffffffffffffffffffffffffffffff16836040518363ffffffff1660e01b8152600401612639929190613102565b6020604051808303816000875af1158015612658573d6000803e3d6000fd5b505050506040513d601f19601f8201168201806040525081019061267c9190612f44565b506000612689838361288c565b9050601460009054906101000a900473ffffffffffffffffffffffffffffffffffffffff1673ffffffffffffffffffffffffffffffffffffffff1663a9059cbb600687815481106126dd576126dc612d45565b5b9060005260206000200160009054906101000a900473ffffffffffffffffffffffffffffffffffffffff16836040518363ffffffff1660e01b815260040161272692919061314c565b6020604051808303816000875af1158015612745573d6000803e3d6000fd5b505050506040513d601f19601f820116820180604052508101906127699190612f44565b506010600686815481106127805761277f612d45565b5b9060005260206000200160009054906101000a900473ffffffffffffffffffffffffffffffffffffffff169080600181540180825580915050600190039060005260206000200160009091909190916101000a81548173ffffffffffffffffffffffffffffffffffffffff021916908373ffffffffffffffffffffffffffffffffffffffff1602179055506006600061281991906128a2565b60006004819055505050505050565b6000444260064360405160200161284294939291906132ab565b6040516020818303038152906040528051906020012060001c905090565b6000818361286e91906130a8565b905092915050565b6000818361288491906132f7565b905092915050565b6000818361289a9190612cc9565b905092915050565b50805460008255906000526020600020908101906128c091906128c3565b50565b5b808211156128dc5760008160009055506001016128c4565b5090565b600081519050919050565b600082825260208201905092915050565b6000819050602082019050919050565b600073ffffffffffffffffffffffffffffffffffffffff82169050919050565b60006129378261290c565b9050919050565b6129478161292c565b82525050565b6000612959838361293e565b60208301905092915050565b6000602082019050919050565b600061297d826128e0565b61298781856128eb565b9350612992836128fc565b8060005b838110156129c35781516129aa888261294d565b97506129b583612965565b925050600181019050612996565b5085935050505092915050565b600060208201905081810360008301526129ea8184612972565b905092915050565b600080fd5b6000819050919050565b612a0a816129f7565b8114612a1557600080fd5b50565b600081359050612a2781612a01565b92915050565b600060208284031215612a4357612a426129f2565b5b6000612a5184828501612a18565b91505092915050565b612a638161292c565b82525050565b6000602082019050612a7e6000830184612a5a565b92915050565b612a8d816129f7565b82525050565b6000602082019050612aa86000830184612a84565b92915050565b60008115159050919050565b612ac381612aae565b82525050565b6000602082019050612ade6000830184612aba565b92915050565b612aed8161292c565b8114612af857600080fd5b50565b600081359050612b0a81612ae4565b92915050565b600060208284031215612b2657612b256129f2565b5b6000612b3484828501612afb565b91505092915050565b6000606082019050612b526000830186612a84565b612b5f6020830185612a84565b612b6c6040830184612a84565b949350505050565b6000819050919050565b6000612b99612b94612b8f8461290c565b612b74565b61290c565b9050919050565b6000612bab82612b7e565b9050919050565b6000612bbd82612ba0565b9050919050565b612bcd81612bb2565b82525050565b6000602082019050612be86000830184612bc4565b92915050565b600082825260208201905092915050565b7f4163636573732064656e69656421000000000000000000000000000000000000600082015250565b6000612c35600e83612bee565b9150612c4082612bff565b602082019050919050565b60006020820190508181036000830152612c6481612c28565b9050919050565b7f4e487b7100000000000000000000000000000000000000000000000000000000600052604160045260246000fd5b7f4e487b7100000000000000000000000000000000000000000000000000000000600052601160045260246000fd5b6000612cd4826129f7565b9150612cdf836129f7565b9250828203905081811115612cf757612cf6612c9a565b5b92915050565b6000612d08826129f7565b91507fffffffffffffffffffffffffffffffffffffffffffffffffffffffffffffffff8203612d3a57612d39612c9a565b5b600182019050919050565b7f4e487b7100000000000000000000000000000000000000000000000000000000600052603260045260246000fd5b6000612d7f826129f7565b915060008203612d9257612d91612c9a565b5b600182039050919050565b7f4e6f2072652d656e7472616e6379000000000000000000000000000000000000600082015250565b6000612dd3600e83612bee565b9150612dde82612d9d565b602082019050919050565b60006020820190508181036000830152612e0281612dc6565b9050919050565b7f4c6f7474657279206973206e6f74207374617274656420796574000000000000600082015250565b6000612e3f601a83612bee565b9150612e4a82612e09565b602082019050919050565b60006020820190508181036000830152612e6e81612e32565b9050919050565b7f4e6f742053616d65000000000000000000000000000000000000000000000000600082015250565b6000612eab600883612bee565b9150612eb682612e75565b602082019050919050565b60006020820190508181036000830152612eda81612e9e565b9050919050565b6000606082019050612ef66000830186612a5a565b612f036020830185612a5a565b612f106040830184612a84565b949350505050565b612f2181612aae565b8114612f2c57600080fd5b50565b600081519050612f3e81612f18565b92915050565b600060208284031215612f5a57612f596129f2565b5b6000612f6884828501612f2f565b91505092915050565b7f4e6f742073616d6520616d6f756e740000000000000000000000000000000000600082015250565b6000612fa7600f83612bee565b9150612fb282612f71565b602082019050919050565b60006020820190508181036000830152612fd681612f9a565b9050919050565b600081519050612fec81612a01565b92915050565b600060208284031215613008576130076129f2565b5b600061301684828501612fdd565b91505092915050565b60006040820190506130346000830185612a84565b6130416020830184612a84565b9392505050565b7f4e487b7100000000000000000000000000000000000000000000000000000000600052601260045260246000fd5b6000613082826129f7565b915061308d836129f7565b92508261309d5761309c613048565b5b828206905092915050565b60006130b3826129f7565b91506130be836129f7565b9250817fffffffffffffffffffffffffffffffffffffffffffffffffffffffffffffffff04831182151516156130f7576130f6612c9a565b5b828202905092915050565b60006040820190506131176000830185612a5a565b6131246020830184612a84565b9392505050565b600061313682612ba0565b9050919050565b6131468161312b565b82525050565b6000604082019050613161600083018561313d565b61316e6020830184612a84565b9392505050565b600081549050919050565b600082825260208201905092915050565b60008190508160005260206000209050919050565b60006131b18261290c565b9050919050565b6131c1816131a6565b82525050565b60006131d383836131b8565b60208301905092915050565b60008160001c9050919050565b600073ffffffffffffffffffffffffffffffffffffffff82169050919050565b600061321f61321a836131df565b6131ec565b9050919050565b6000613232825461320c565b9050919050565b6000600182019050919050565b600061325182613175565b61325b8185613180565b935061326683613191565b8060005b8381101561329e5761327b82613226565b61328588826131c7565b975061329083613239565b92505060018101905061326a565b5085935050505092915050565b60006080820190506132c06000830187612a84565b6132cd6020830186612a84565b81810360408301526132df8185613246565b90506132ee6060830184612a84565b95945050505050565b6000613302826129f7565b915061330d836129f7565b92508261331d5761331c613048565b5b82820490509291505056fea2646970667358221220d7ebacb795ea8919561cc9d995c0da909c4e6eaaa0c7510da202518f938f876e64736f6c63430008100033",
					"opcodes": "PUSH1 0x80 PUSH1 0x40 MSTORE PUSH20 0xEBFDF7A84EB1DD651663782802A818CE36F3E18A PUSH1 0x0 PUSH1 0x1 PUSH2 0x100 EXP DUP2 SLOAD DUP2 PUSH20 0xFFFFFFFFFFFFFFFFFFFFFFFFFFFFFFFFFFFFFFFF MUL NOT AND SWAP1 DUP4 PUSH20 0xFFFFFFFFFFFFFFFFFFFFFFFFFFFFFFFFFFFFFFFF AND MUL OR SWAP1 SSTORE POP PUSH1 0x1E PUSH1 0x1 SSTORE PUSH1 0x0 PUSH1 0xF PUSH1 0x0 PUSH2 0x100 EXP DUP2 SLOAD DUP2 PUSH1 0xFF MUL NOT AND SWAP1 DUP4 ISZERO ISZERO MUL OR SWAP1 SSTORE POP CALLVALUE DUP1 ISZERO PUSH2 0x85 JUMPI PUSH1 0x0 DUP1 REVERT JUMPDEST POP CALLER PUSH1 0x2 PUSH1 0x0 PUSH2 0x100 EXP DUP2 SLOAD DUP2 PUSH20 0xFFFFFFFFFFFFFFFFFFFFFFFFFFFFFFFFFFFFFFFF MUL NOT AND SWAP1 DUP4 PUSH20 0xFFFFFFFFFFFFFFFFFFFFFFFFFFFFFFFFFFFFFFFF AND MUL OR SWAP1 SSTORE POP PUSH1 0x64 PUSH1 0x3 DUP2 SWAP1 SSTORE POP PUSH8 0xDE0B6B3A7640000 PUSH1 0x5 DUP2 SWAP1 SSTORE POP PUSH1 0x14 PUSH1 0x7 DUP2 SWAP1 SSTORE POP PUSH8 0x8AC7230489E80000 PUSH1 0x9 DUP2 SWAP1 SSTORE POP PUSH1 0x3 PUSH1 0xB DUP2 SWAP1 SSTORE POP PUSH9 0x56BC75E2D63100000 PUSH1 0xD DUP2 SWAP1 SSTORE POP PUSH20 0xE9E7CEA3DEDCA5984780BAFC599BD69ADD087D56 PUSH1 0x13 PUSH1 0x0 PUSH2 0x100 EXP DUP2 SLOAD DUP2 PUSH20 0xFFFFFFFFFFFFFFFFFFFFFFFFFFFFFFFFFFFFFFFF MUL NOT AND SWAP1 DUP4 PUSH20 0xFFFFFFFFFFFFFFFFFFFFFFFFFFFFFFFFFFFFFFFF AND MUL OR SWAP1 SSTORE POP PUSH1 0x13 PUSH1 0x0 SWAP1 SLOAD SWAP1 PUSH2 0x100 EXP SWAP1 DIV PUSH20 0xFFFFFFFFFFFFFFFFFFFFFFFFFFFFFFFFFFFFFFFF AND PUSH1 0x14 PUSH1 0x0 PUSH2 0x100 EXP DUP2 SLOAD DUP2 PUSH20 0xFFFFFFFFFFFFFFFFFFFFFFFFFFFFFFFFFFFFFFFF MUL NOT AND SWAP1 DUP4 PUSH20 0xFFFFFFFFFFFFFFFFFFFFFFFFFFFFFFFFFFFFFFFF AND MUL OR SWAP1 SSTORE POP PUSH2 0x335E DUP1 PUSH2 0x1D4 PUSH1 0x0 CODECOPY PUSH1 0x0 RETURN INVALID PUSH1 0x80 PUSH1 0x40 MSTORE CALLVALUE DUP1 ISZERO PUSH2 0x10 JUMPI PUSH1 0x0 DUP1 REVERT JUMPDEST POP PUSH1 0x4 CALLDATASIZE LT PUSH2 0x1FB JUMPI PUSH1 0x0 CALLDATALOAD PUSH1 0xE0 SHR DUP1 PUSH4 0x9D76EA58 GT PUSH2 0x11A JUMPI DUP1 PUSH4 0xBE69D7FF GT PUSH2 0xAD JUMPI DUP1 PUSH4 0xE437239F GT PUSH2 0x7C JUMPI DUP1 PUSH4 0xE437239F EQ PUSH2 0x536 JUMPI DUP1 PUSH4 0xEA6B0480 EQ PUSH2 0x552 JUMPI DUP1 PUSH4 0xF0C30E95 EQ PUSH2 0x570 JUMPI DUP1 PUSH4 0xF19E8D86 EQ PUSH2 0x58C JUMPI DUP1 PUSH4 0xF77F15B5 EQ PUSH2 0x5BC JUMPI PUSH2 0x1FB JUMP JUMPDEST DUP1 PUSH4 0xBE69D7FF EQ PUSH2 0x4D4 JUMPI DUP1 PUSH4 0xCE5F6B9F EQ PUSH2 0x4DE JUMPI DUP1 PUSH4 0xD521CF2A EQ PUSH2 0x4FA JUMPI DUP1 PUSH4 0xDB486929 EQ PUSH2 0x518 JUMPI PUSH2 0x1FB JUMP JUMPDEST DUP1 PUSH4 0xA46EEB75 GT PUSH2 0xE9 JUMPI DUP1 PUSH4 0xA46EEB75 EQ PUSH2 0x45C JUMPI DUP1 PUSH4 0xA7E9F0D1 EQ PUSH2 0x47A JUMPI DUP1 PUSH4 0xB2288649 EQ PUSH2 0x498 JUMPI DUP1 PUSH4 0xB6FA5DFD EQ PUSH2 0x4B6 JUMPI PUSH2 0x1FB JUMP JUMPDEST DUP1 PUSH4 0x9D76EA58 EQ PUSH2 0x3E4 JUMPI DUP1 PUSH4 0x9EC80702 EQ PUSH2 0x402 JUMPI DUP1 PUSH4 0xA0A7BDA8 EQ PUSH2 0x420 JUMPI DUP1 PUSH4 0xA308761A EQ PUSH2 0x43E JUMPI PUSH2 0x1FB JUMP JUMPDEST DUP1 PUSH4 0x56E0BD36 GT PUSH2 0x192 JUMPI DUP1 PUSH4 0x636AD6A6 GT PUSH2 0x161 JUMPI DUP1 PUSH4 0x636AD6A6 EQ PUSH2 0x35C JUMPI DUP1 PUSH4 0x7EEE9FC1 EQ PUSH2 0x37A JUMPI DUP1 PUSH4 0x8644024B EQ PUSH2 0x396 JUMPI DUP1 PUSH4 0x890D542F EQ PUSH2 0x3B4 JUMPI PUSH2 0x1FB JUMP JUMPDEST DUP1 PUSH4 0x56E0BD36 EQ PUSH2 0x2BE JUMPI DUP1 PUSH4 0x576AAA2B EQ PUSH2 0x2EE JUMPI DUP1 PUSH4 0x5A3811B9 EQ PUSH2 0x30C JUMPI DUP1 PUSH4 0x602977AD EQ PUSH2 0x32A JUMPI PUSH2 0x1FB JUMP JUMPDEST DUP1 PUSH4 0x17C6332C GT PUSH2 0x1CE JUMPI DUP1 PUSH4 0x17C6332C EQ PUSH2 0x24E JUMPI DUP1 PUSH4 0x3631EF4A EQ PUSH2 0x26A JUMPI DUP1 PUSH4 0x3FC7ADB6 EQ PUSH2 0x286 JUMPI DUP1 PUSH4 0x4BA35125 EQ PUSH2 0x2A2 JUMPI PUSH2 0x1FB JUMP JUMPDEST DUP1 PUSH4 0x13FC0AB EQ PUSH2 0x200 JUMPI DUP1 PUSH4 0x13002437 EQ PUSH2 0x20A JUMPI DUP1 PUSH4 0x15981650 EQ PUSH2 0x228 JUMPI DUP1 PUSH4 0x160344E2 EQ PUSH2 0x244 JUMPI JUMPDEST PUSH1 0x0 DUP1 REVERT JUMPDEST PUSH2 0x208 PUSH2 0x5C6 JUMP JUMPDEST STOP JUMPDEST PUSH2 0x212 PUSH2 0x660 JUMP JUMPDEST PUSH1 0x40 MLOAD PUSH2 0x21F SWAP2 SWAP1 PUSH2 0x29D0 JUMP JUMPDEST PUSH1 0x40 MLOAD DUP1 SWAP2 SUB SWAP1 RETURN JUMPDEST PUSH2 0x242 PUSH1 0x4 DUP1 CALLDATASIZE SUB DUP2 ADD SWAP1 PUSH2 0x23D SWAP2 SWAP1 PUSH2 0x2A2D JUMP JUMPDEST PUSH2 0x880 JUMP JUMPDEST STOP JUMPDEST PUSH2 0x24C PUSH2 0x91A JUMP JUMPDEST STOP JUMPDEST PUSH2 0x268 PUSH1 0x4 DUP1 CALLDATASIZE SUB DUP2 ADD SWAP1 PUSH2 0x263 SWAP2 SWAP1 PUSH2 0x2A2D JUMP JUMPDEST PUSH2 0x9C7 JUMP JUMPDEST STOP JUMPDEST PUSH2 0x284 PUSH1 0x4 DUP1 CALLDATASIZE SUB DUP2 ADD SWAP1 PUSH2 0x27F SWAP2 SWAP1 PUSH2 0x2A2D JUMP JUMPDEST PUSH2 0xA61 JUMP JUMPDEST STOP JUMPDEST PUSH2 0x2A0 PUSH1 0x4 DUP1 CALLDATASIZE SUB DUP2 ADD SWAP1 PUSH2 0x29B SWAP2 SWAP1 PUSH2 0x2A2D JUMP JUMPDEST PUSH2 0xD6C JUMP JUMPDEST STOP JUMPDEST PUSH2 0x2BC PUSH1 0x4 DUP1 CALLDATASIZE SUB DUP2 ADD SWAP1 PUSH2 0x2B7 SWAP2 SWAP1 PUSH2 0x2A2D JUMP JUMPDEST PUSH2 0xE06 JUMP JUMPDEST STOP JUMPDEST PUSH2 0x2D8 PUSH1 0x4 DUP1 CALLDATASIZE SUB DUP2 ADD SWAP1 PUSH2 0x2D3 SWAP2 SWAP1 PUSH2 0x2A2D JUMP JUMPDEST PUSH2 0xEA0 JUMP JUMPDEST PUSH1 0x40 MLOAD PUSH2 0x2E5 SWAP2 SWAP1 PUSH2 0x2A69 JUMP JUMPDEST PUSH1 0x40 MLOAD DUP1 SWAP2 SUB SWAP1 RETURN JUMPDEST PUSH2 0x2F6 PUSH2 0xEDF JUMP JUMPDEST PUSH1 0x40 MLOAD PUSH2 0x303 SWAP2 SWAP1 PUSH2 0x2A93 JUMP JUMPDEST PUSH1 0x40 MLOAD DUP1 SWAP2 SUB SWAP1 RETURN JUMPDEST PUSH2 0x314 PUSH2 0xEEC JUMP JUMPDEST PUSH1 0x40 MLOAD PUSH2 0x321 SWAP2 SWAP1 PUSH2 0x2AC9 JUMP JUMPDEST PUSH1 0x40 MLOAD DUP1 SWAP2 SUB SWAP1 RETURN JUMPDEST PUSH2 0x344 PUSH1 0x4 DUP1 CALLDATASIZE SUB DUP2 ADD SWAP1 PUSH2 0x33F SWAP2 SWAP1 PUSH2 0x2B10 JUMP JUMPDEST PUSH2 0xEFF JUMP JUMPDEST PUSH1 0x40 MLOAD PUSH2 0x353 SWAP4 SWAP3 SWAP2 SWAP1 PUSH2 0x2B3D JUMP JUMPDEST PUSH1 0x40 MLOAD DUP1 SWAP2 SUB SWAP1 RETURN JUMPDEST PUSH2 0x364 PUSH2 0x1138 JUMP JUMPDEST PUSH1 0x40 MLOAD PUSH2 0x371 SWAP2 SWAP1 PUSH2 0x2A93 JUMP JUMPDEST PUSH1 0x40 MLOAD DUP1 SWAP2 SUB SWAP1 RETURN JUMPDEST PUSH2 0x394 PUSH1 0x4 DUP1 CALLDATASIZE SUB DUP2 ADD SWAP1 PUSH2 0x38F SWAP2 SWAP1 PUSH2 0x2A2D JUMP JUMPDEST PUSH2 0x1142 JUMP JUMPDEST STOP JUMPDEST PUSH2 0x39E PUSH2 0x144D JUMP JUMPDEST PUSH1 0x40 MLOAD PUSH2 0x3AB SWAP2 SWAP1 PUSH2 0x2A93 JUMP JUMPDEST PUSH1 0x40 MLOAD DUP1 SWAP2 SUB SWAP1 RETURN JUMPDEST PUSH2 0x3CE PUSH1 0x4 DUP1 CALLDATASIZE SUB DUP2 ADD SWAP1 PUSH2 0x3C9 SWAP2 SWAP1 PUSH2 0x2A2D JUMP JUMPDEST PUSH2 0x1457 JUMP JUMPDEST PUSH1 0x40 MLOAD PUSH2 0x3DB SWAP2 SWAP1 PUSH2 0x2A69 JUMP JUMPDEST PUSH1 0x40 MLOAD DUP1 SWAP2 SUB SWAP1 RETURN JUMPDEST PUSH2 0x3EC PUSH2 0x1496 JUMP JUMPDEST PUSH1 0x40 MLOAD PUSH2 0x3F9 SWAP2 SWAP1 PUSH2 0x2A69 JUMP JUMPDEST PUSH1 0x40 MLOAD DUP1 SWAP2 SUB SWAP1 RETURN JUMPDEST PUSH2 0x40A PUSH2 0x14BC JUMP JUMPDEST PUSH1 0x40 MLOAD PUSH2 0x417 SWAP2 SWAP1 PUSH2 0x2A93 JUMP JUMPDEST PUSH1 0x40 MLOAD DUP1 SWAP2 SUB SWAP1 RETURN JUMPDEST PUSH2 0x428 PUSH2 0x14C6 JUMP JUMPDEST PUSH1 0x40 MLOAD PUSH2 0x435 SWAP2 SWAP1 PUSH2 0x2A93 JUMP JUMPDEST PUSH1 0x40 MLOAD DUP1 SWAP2 SUB SWAP1 RETURN JUMPDEST PUSH2 0x446 PUSH2 0x14D3 JUMP JUMPDEST PUSH1 0x40 MLOAD PUSH2 0x453 SWAP2 SWAP1 PUSH2 0x2A93 JUMP JUMPDEST PUSH1 0x40 MLOAD DUP1 SWAP2 SUB SWAP1 RETURN JUMPDEST PUSH2 0x464 PUSH2 0x14DD JUMP JUMPDEST PUSH1 0x40 MLOAD PUSH2 0x471 SWAP2 SWAP1 PUSH2 0x2A93 JUMP JUMPDEST PUSH1 0x40 MLOAD DUP1 SWAP2 SUB SWAP1 RETURN JUMPDEST PUSH2 0x482 PUSH2 0x14EA JUMP JUMPDEST PUSH1 0x40 MLOAD PUSH2 0x48F SWAP2 SWAP1 PUSH2 0x29D0 JUMP JUMPDEST PUSH1 0x40 MLOAD DUP1 SWAP2 SUB SWAP1 RETURN JUMPDEST PUSH2 0x4A0 PUSH2 0x170A JUMP JUMPDEST PUSH1 0x40 MLOAD PUSH2 0x4AD SWAP2 SWAP1 PUSH2 0x2A93 JUMP JUMPDEST PUSH1 0x40 MLOAD DUP1 SWAP2 SUB SWAP1 RETURN JUMPDEST PUSH2 0x4BE PUSH2 0x17AD JUMP JUMPDEST PUSH1 0x40 MLOAD PUSH2 0x4CB SWAP2 SWAP1 PUSH2 0x2BD3 JUMP JUMPDEST PUSH1 0x40 MLOAD DUP1 SWAP2 SUB SWAP1 RETURN JUMPDEST PUSH2 0x4DC PUSH2 0x17D3 JUMP JUMPDEST STOP JUMPDEST PUSH2 0x4F8 PUSH1 0x4 DUP1 CALLDATASIZE SUB DUP2 ADD SWAP1 PUSH2 0x4F3 SWAP2 SWAP1 PUSH2 0x2A2D JUMP JUMPDEST PUSH2 0x186D JUMP JUMPDEST STOP JUMPDEST PUSH2 0x502 PUSH2 0x1BB3 JUMP JUMPDEST PUSH1 0x40 MLOAD PUSH2 0x50F SWAP2 SWAP1 PUSH2 0x29D0 JUMP JUMPDEST PUSH1 0x40 MLOAD DUP1 SWAP2 SUB SWAP1 RETURN JUMPDEST PUSH2 0x520 PUSH2 0x1DD3 JUMP JUMPDEST PUSH1 0x40 MLOAD PUSH2 0x52D SWAP2 SWAP1 PUSH2 0x2A93 JUMP JUMPDEST PUSH1 0x40 MLOAD DUP1 SWAP2 SUB SWAP1 RETURN JUMPDEST PUSH2 0x550 PUSH1 0x4 DUP1 CALLDATASIZE SUB DUP2 ADD SWAP1 PUSH2 0x54B SWAP2 SWAP1 PUSH2 0x2A2D JUMP JUMPDEST PUSH2 0x1DDD JUMP JUMPDEST STOP JUMPDEST PUSH2 0x55A PUSH2 0x1E77 JUMP JUMPDEST PUSH1 0x40 MLOAD PUSH2 0x567 SWAP2 SWAP1 PUSH2 0x2A93 JUMP JUMPDEST PUSH1 0x40 MLOAD DUP1 SWAP2 SUB SWAP1 RETURN JUMPDEST PUSH2 0x58A PUSH1 0x4 DUP1 CALLDATASIZE SUB DUP2 ADD SWAP1 PUSH2 0x585 SWAP2 SWAP1 PUSH2 0x2A2D JUMP JUMPDEST PUSH2 0x1E81 JUMP JUMPDEST STOP JUMPDEST PUSH2 0x5A6 PUSH1 0x4 DUP1 CALLDATASIZE SUB DUP2 ADD SWAP1 PUSH2 0x5A1 SWAP2 SWAP1 PUSH2 0x2A2D JUMP JUMPDEST PUSH2 0x1F1B JUMP JUMPDEST PUSH1 0x40 MLOAD PUSH2 0x5B3 SWAP2 SWAP1 PUSH2 0x2A69 JUMP JUMPDEST PUSH1 0x40 MLOAD DUP1 SWAP2 SUB SWAP1 RETURN JUMPDEST PUSH2 0x5C4 PUSH2 0x1F5A JUMP JUMPDEST STOP JUMPDEST PUSH1 0x2 PUSH1 0x0 SWAP1 SLOAD SWAP1 PUSH2 0x100 EXP SWAP1 DIV PUSH20 0xFFFFFFFFFFFFFFFFFFFFFFFFFFFFFFFFFFFFFFFF AND PUSH20 0xFFFFFFFFFFFFFFFFFFFFFFFFFFFFFFFFFFFFFFFF AND CALLER PUSH20 0xFFFFFFFFFFFFFFFFFFFFFFFFFFFFFFFFFFFFFFFF AND EQ PUSH2 0x656 JUMPI PUSH1 0x40 MLOAD PUSH32 0x8C379A000000000000000000000000000000000000000000000000000000000 DUP2 MSTORE PUSH1 0x4 ADD PUSH2 0x64D SWAP1 PUSH2 0x2C4B JUMP JUMPDEST PUSH1 0x40 MLOAD DUP1 SWAP2 SUB SWAP1 REVERT JUMPDEST PUSH2 0x65E PUSH2 0x1FF4 JUMP JUMPDEST JUMP JUMPDEST PUSH1 0x60 PUSH1 0x0 PUSH1 0x11 PUSH8 0xFFFFFFFFFFFFFFFF DUP2 GT ISZERO PUSH2 0x67F JUMPI PUSH2 0x67E PUSH2 0x2C6B JUMP JUMPDEST JUMPDEST PUSH1 0x40 MLOAD SWAP1 DUP1 DUP3 MSTORE DUP1 PUSH1 0x20 MUL PUSH1 0x20 ADD DUP3 ADD PUSH1 0x40 MSTORE DUP1 ISZERO PUSH2 0x6AD JUMPI DUP2 PUSH1 0x20 ADD PUSH1 0x20 DUP3 MUL DUP1 CALLDATASIZE DUP4 CALLDATACOPY DUP1 DUP3 ADD SWAP2 POP POP SWAP1 POP JUMPDEST POP SWAP1 POP PUSH1 0x0 PUSH1 0x12 DUP1 SLOAD SWAP1 POP SWAP1 POP PUSH1 0x0 DUP3 MLOAD SWAP1 POP PUSH1 0x0 PUSH1 0xA DUP4 GT ISZERO PUSH2 0x798 JUMPI PUSH1 0x0 DUP4 SWAP1 POP JUMPDEST PUSH1 0xA DUP5 PUSH2 0x6DE SWAP2 SWAP1 PUSH2 0x2CC9 JUMP JUMPDEST DUP2 GT ISZERO PUSH2 0x792 JUMPI DUP3 DUP1 PUSH2 0x6F0 SWAP1 PUSH2 0x2CFD JUMP JUMPDEST SWAP4 POP POP PUSH1 0x12 DUP2 DUP2 SLOAD DUP2 LT PUSH2 0x707 JUMPI PUSH2 0x706 PUSH2 0x2D45 JUMP JUMPDEST JUMPDEST SWAP1 PUSH1 0x0 MSTORE PUSH1 0x20 PUSH1 0x0 KECCAK256 ADD PUSH1 0x0 SWAP1 SLOAD SWAP1 PUSH2 0x100 EXP SWAP1 DIV PUSH20 0xFFFFFFFFFFFFFFFFFFFFFFFFFFFFFFFFFFFFFFFF AND DUP6 DUP5 DUP2 MLOAD DUP2 LT PUSH2 0x745 JUMPI PUSH2 0x744 PUSH2 0x2D45 JUMP JUMPDEST JUMPDEST PUSH1 0x20 MUL PUSH1 0x20 ADD ADD SWAP1 PUSH20 0xFFFFFFFFFFFFFFFFFFFFFFFFFFFFFFFFFFFFFFFF AND SWAP1 DUP2 PUSH20 0xFFFFFFFFFFFFFFFFFFFFFFFFFFFFFFFFFFFFFFFF AND DUP2 MSTORE POP POP DUP1 DUP1 PUSH2 0x78A SWAP1 PUSH2 0x2D74 JUMP JUMPDEST SWAP2 POP POP PUSH2 0x6D1 JUMP JUMPDEST POP PUSH2 0x876 JUMP JUMPDEST PUSH1 0x0 DUP4 SWAP1 POP JUMPDEST PUSH1 0x0 DUP2 GT ISZERO PUSH2 0x874 JUMPI DUP3 DUP1 PUSH2 0x7B2 SWAP1 PUSH2 0x2CFD JUMP JUMPDEST SWAP4 POP POP PUSH1 0x0 PUSH1 0x12 PUSH1 0x1 DUP4 PUSH2 0x7C6 SWAP2 SWAP1 PUSH2 0x2CC9 JUMP JUMPDEST DUP2 SLOAD DUP2 LT PUSH2 0x7D7 JUMPI PUSH2 0x7D6 PUSH2 0x2D45 JUMP JUMPDEST JUMPDEST SWAP1 PUSH1 0x0 MSTORE PUSH1 0x20 PUSH1 0x0 KECCAK256 ADD PUSH1 0x0 SWAP1 SLOAD SWAP1 PUSH2 0x100 EXP SWAP1 DIV PUSH20 0xFFFFFFFFFFFFFFFFFFFFFFFFFFFFFFFFFFFFFFFF AND SWAP1 POP DUP1 DUP7 DUP5 DUP2 MLOAD DUP2 LT PUSH2 0x818 JUMPI PUSH2 0x817 PUSH2 0x2D45 JUMP JUMPDEST JUMPDEST PUSH1 0x20 MUL PUSH1 0x20 ADD ADD SWAP1 PUSH20 0xFFFFFFFFFFFFFFFFFFFFFFFFFFFFFFFFFFFFFFFF AND SWAP1 DUP2 PUSH20 0xFFFFFFFFFFFFFFFFFFFFFFFFFFFFFFFFFFFFFFFF AND DUP2 MSTORE POP POP DUP3 DUP1 PUSH2 0x85D SWAP1 PUSH2 0x2CFD JUMP JUMPDEST SWAP4 POP POP POP DUP1 DUP1 PUSH2 0x86C SWAP1 PUSH2 0x2D74 JUMP JUMPDEST SWAP2 POP POP PUSH2 0x79E JUMP JUMPDEST POP JUMPDEST DUP4 SWAP5 POP POP POP POP POP SWAP1 JUMP JUMPDEST PUSH1 0x2 PUSH1 0x0 SWAP1 SLOAD SWAP1 PUSH2 0x100 EXP SWAP1 DIV PUSH20 0xFFFFFFFFFFFFFFFFFFFFFFFFFFFFFFFFFFFFFFFF AND PUSH20 0xFFFFFFFFFFFFFFFFFFFFFFFFFFFFFFFFFFFFFFFF AND CALLER PUSH20 0xFFFFFFFFFFFFFFFFFFFFFFFFFFFFFFFFFFFFFFFF AND EQ PUSH2 0x910 JUMPI PUSH1 0x40 MLOAD PUSH32 0x8C379A000000000000000000000000000000000000000000000000000000000 DUP2 MSTORE PUSH1 0x4 ADD PUSH2 0x907 SWAP1 PUSH2 0x2C4B JUMP JUMPDEST PUSH1 0x40 MLOAD DUP1 SWAP2 SUB SWAP1 REVERT JUMPDEST DUP1 PUSH1 0x5 DUP2 SWAP1 SSTORE POP POP JUMP JUMPDEST PUSH1 0x2 PUSH1 0x0 SWAP1 SLOAD SWAP1 PUSH2 0x100 EXP SWAP1 DIV PUSH20 0xFFFFFFFFFFFFFFFFFFFFFFFFFFFFFFFFFFFFFFFF AND PUSH20 0xFFFFFFFFFFFFFFFFFFFFFFFFFFFFFFFFFFFFFFFF AND CALLER PUSH20 0xFFFFFFFFFFFFFFFFFFFFFFFFFFFFFFFFFFFFFFFF AND EQ PUSH2 0x9AA JUMPI PUSH1 0x40 MLOAD PUSH32 0x8C379A000000000000000000000000000000000000000000000000000000000 DUP2 MSTORE PUSH1 0x4 ADD PUSH2 0x9A1 SWAP1 PUSH2 0x2C4B JUMP JUMPDEST PUSH1 0x40 MLOAD DUP1 SWAP2 SUB SWAP1 REVERT JUMPDEST PUSH1 0x1 PUSH1 0xF PUSH1 0x0 PUSH2 0x100 EXP DUP2 SLOAD DUP2 PUSH1 0xFF MUL NOT AND SWAP1 DUP4 ISZERO ISZERO MUL OR SWAP1 SSTORE POP JUMP JUMPDEST PUSH1 0x2 PUSH1 0x0 SWAP1 SLOAD SWAP1 PUSH2 0x100 EXP SWAP1 DIV PUSH20 0xFFFFFFFFFFFFFFFFFFFFFFFFFFFFFFFFFFFFFFFF AND PUSH20 0xFFFFFFFFFFFFFFFFFFFFFFFFFFFFFFFFFFFFFFFF AND CALLER PUSH20 0xFFFFFFFFFFFFFFFFFFFFFFFFFFFFFFFFFFFFFFFF AND EQ PUSH2 0xA57 JUMPI PUSH1 0x40 MLOAD PUSH32 0x8C379A000000000000000000000000000000000000000000000000000000000 DUP2 MSTORE PUSH1 0x4 ADD PUSH2 0xA4E SWAP1 PUSH2 0x2C4B JUMP JUMPDEST PUSH1 0x40 MLOAD DUP1 SWAP2 SUB SWAP1 REVERT JUMPDEST DUP1 PUSH1 0xB DUP2 SWAP1 SSTORE POP POP JUMP JUMPDEST PUSH1 0x2 PUSH1 0x0 SWAP1 SLOAD SWAP1 PUSH2 0x100 EXP SWAP1 DIV PUSH20 0xFFFFFFFFFFFFFFFFFFFFFFFFFFFFFFFFFFFFFFFF AND PUSH20 0xFFFFFFFFFFFFFFFFFFFFFFFFFFFFFFFFFFFFFFFF AND CALLER PUSH20 0xFFFFFFFFFFFFFFFFFFFFFFFFFFFFFFFFFFFFFFFF AND SUB PUSH2 0xAF1 JUMPI PUSH1 0x40 MLOAD PUSH32 0x8C379A000000000000000000000000000000000000000000000000000000000 DUP2 MSTORE PUSH1 0x4 ADD PUSH2 0xAE8 SWAP1 PUSH2 0x2C4B JUMP JUMPDEST PUSH1 0x40 MLOAD DUP1 SWAP2 SUB SWAP1 REVERT JUMPDEST PUSH1 0x0 DUP1 SLOAD SWAP1 PUSH2 0x100 EXP SWAP1 DIV PUSH1 0xFF AND ISZERO PUSH2 0xB3F JUMPI PUSH1 0x40 MLOAD PUSH32 0x8C379A000000000000000000000000000000000000000000000000000000000 DUP2 MSTORE PUSH1 0x4 ADD PUSH2 0xB36 SWAP1 PUSH2 0x2DE9 JUMP JUMPDEST PUSH1 0x40 MLOAD DUP1 SWAP2 SUB SWAP1 REVERT JUMPDEST PUSH1 0x1 PUSH1 0x0 DUP1 PUSH2 0x100 EXP DUP2 SLOAD DUP2 PUSH1 0xFF MUL NOT AND SWAP1 DUP4 ISZERO ISZERO MUL OR SWAP1 SSTORE POP PUSH1 0xF PUSH1 0x0 SWAP1 SLOAD SWAP1 PUSH2 0x100 EXP SWAP1 DIV PUSH1 0xFF AND PUSH2 0xBA8 JUMPI PUSH1 0x40 MLOAD PUSH32 0x8C379A000000000000000000000000000000000000000000000000000000000 DUP2 MSTORE PUSH1 0x4 ADD PUSH2 0xB9F SWAP1 PUSH2 0x2E55 JUMP JUMPDEST PUSH1 0x40 MLOAD DUP1 SWAP2 SUB SWAP1 REVERT JUMPDEST PUSH1 0xD SLOAD DUP2 EQ PUSH2 0xBEC JUMPI PUSH1 0x40 MLOAD PUSH32 0x8C379A000000000000000000000000000000000000000000000000000000000 DUP2 MSTORE PUSH1 0x4 ADD PUSH2 0xBE3 SWAP1 PUSH2 0x2EC1 JUMP JUMPDEST PUSH1 0x40 MLOAD DUP1 SWAP2 SUB SWAP1 REVERT JUMPDEST PUSH1 0x0 PUSH1 0x14 PUSH1 0x0 SWAP1 SLOAD SWAP1 PUSH2 0x100 EXP SWAP1 DIV PUSH20 0xFFFFFFFFFFFFFFFFFFFFFFFFFFFFFFFFFFFFFFFF AND PUSH20 0xFFFFFFFFFFFFFFFFFFFFFFFFFFFFFFFFFFFFFFFF AND PUSH4 0x23B872DD CALLER ADDRESS DUP6 PUSH1 0x40 MLOAD DUP5 PUSH4 0xFFFFFFFF AND PUSH1 0xE0 SHL DUP2 MSTORE PUSH1 0x4 ADD PUSH2 0xC4D SWAP4 SWAP3 SWAP2 SWAP1 PUSH2 0x2EE1 JUMP JUMPDEST PUSH1 0x20 PUSH1 0x40 MLOAD DUP1 DUP4 SUB DUP2 PUSH1 0x0 DUP8 GAS CALL ISZERO DUP1 ISZERO PUSH2 0xC6C JUMPI RETURNDATASIZE PUSH1 0x0 DUP1 RETURNDATACOPY RETURNDATASIZE PUSH1 0x0 REVERT JUMPDEST POP POP POP POP PUSH1 0x40 MLOAD RETURNDATASIZE PUSH1 0x1F NOT PUSH1 0x1F DUP3 ADD AND DUP3 ADD DUP1 PUSH1 0x40 MSTORE POP DUP2 ADD SWAP1 PUSH2 0xC90 SWAP2 SWAP1 PUSH2 0x2F44 JUMP JUMPDEST SWAP1 POP DUP1 ISZERO PUSH2 0xD4E JUMPI PUSH1 0xB SLOAD PUSH1 0xC SLOAD LT ISZERO PUSH2 0xD38 JUMPI PUSH1 0xE CALLER SWAP1 DUP1 PUSH1 0x1 DUP2 SLOAD ADD DUP1 DUP3 SSTORE DUP1 SWAP2 POP POP PUSH1 0x1 SWAP1 SUB SWAP1 PUSH1 0x0 MSTORE PUSH1 0x20 PUSH1 0x0 KECCAK256 ADD PUSH1 0x0 SWAP1 SWAP2 SWAP1 SWAP2 SWAP1 SWAP2 PUSH2 0x100 EXP DUP2 SLOAD DUP2 PUSH20 0xFFFFFFFFFFFFFFFFFFFFFFFFFFFFFFFFFFFFFFFF MUL NOT AND SWAP1 DUP4 PUSH20 0xFFFFFFFFFFFFFFFFFFFFFFFFFFFFFFFFFFFFFFFF AND MUL OR SWAP1 SSTORE POP PUSH1 0xC PUSH1 0x0 DUP2 SLOAD DUP1 SWAP3 SWAP2 SWAP1 PUSH2 0xD1A SWAP1 PUSH2 0x2CFD JUMP JUMPDEST SWAP2 SWAP1 POP SSTORE POP PUSH1 0xB SLOAD PUSH1 0xC SLOAD SUB PUSH2 0xD33 JUMPI PUSH2 0xD32 PUSH2 0x22AE JUMP JUMPDEST JUMPDEST PUSH2 0xD4D JUMP JUMPDEST PUSH1 0xB SLOAD PUSH1 0xC SLOAD SUB PUSH2 0xD4C JUMPI PUSH2 0xD4B PUSH2 0x22AE JUMP JUMPDEST JUMPDEST JUMPDEST JUMPDEST POP PUSH1 0x0 DUP1 PUSH1 0x0 PUSH2 0x100 EXP DUP2 SLOAD DUP2 PUSH1 0xFF MUL NOT AND SWAP1 DUP4 ISZERO ISZERO MUL OR SWAP1 SSTORE POP POP JUMP JUMPDEST PUSH1 0x2 PUSH1 0x0 SWAP1 SLOAD SWAP1 PUSH2 0x100 EXP SWAP1 DIV PUSH20 0xFFFFFFFFFFFFFFFFFFFFFFFFFFFFFFFFFFFFFFFF AND PUSH20 0xFFFFFFFFFFFFFFFFFFFFFFFFFFFFFFFFFFFFFFFF AND CALLER PUSH20 0xFFFFFFFFFFFFFFFFFFFFFFFFFFFFFFFFFFFFFFFF AND EQ PUSH2 0xDFC JUMPI PUSH1 0x40 MLOAD PUSH32 0x8C379A000000000000000000000000000000000000000000000000000000000 DUP2 MSTORE PUSH1 0x4 ADD PUSH2 0xDF3 SWAP1 PUSH2 0x2C4B JUMP JUMPDEST PUSH1 0x40 MLOAD DUP1 SWAP2 SUB SWAP1 REVERT JUMPDEST DUP1 PUSH1 0x3 DUP2 SWAP1 SSTORE POP POP JUMP JUMPDEST PUSH1 0x2 PUSH1 0x0 SWAP1 SLOAD SWAP1 PUSH2 0x100 EXP SWAP1 DIV PUSH20 0xFFFFFFFFFFFFFFFFFFFFFFFFFFFFFFFFFFFFFFFF AND PUSH20 0xFFFFFFFFFFFFFFFFFFFFFFFFFFFFFFFFFFFFFFFF AND CALLER PUSH20 0xFFFFFFFFFFFFFFFFFFFFFFFFFFFFFFFFFFFFFFFF AND EQ PUSH2 0xE96 JUMPI PUSH1 0x40 MLOAD PUSH32 0x8C379A000000000000000000000000000000000000000000000000000000000 DUP2 MSTORE PUSH1 0x4 ADD PUSH2 0xE8D SWAP1 PUSH2 0x2C4B JUMP JUMPDEST PUSH1 0x40 MLOAD DUP1 SWAP2 SUB SWAP1 REVERT JUMPDEST DUP1 PUSH1 0x7 DUP2 SWAP1 SSTORE POP POP JUMP JUMPDEST PUSH1 0x11 DUP2 DUP2 SLOAD DUP2 LT PUSH2 0xEB0 JUMPI PUSH1 0x0 DUP1 REVERT JUMPDEST SWAP1 PUSH1 0x0 MSTORE PUSH1 0x20 PUSH1 0x0 KECCAK256 ADD PUSH1 0x0 SWAP2 POP SLOAD SWAP1 PUSH2 0x100 EXP SWAP1 DIV PUSH20 0xFFFFFFFFFFFFFFFFFFFFFFFFFFFFFFFFFFFFFFFF AND DUP2 JUMP JUMPDEST PUSH1 0x0 PUSH1 0x6 DUP1 SLOAD SWAP1 POP SWAP1 POP SWAP1 JUMP JUMPDEST PUSH1 0xF PUSH1 0x0 SWAP1 SLOAD SWAP1 PUSH2 0x100 EXP SWAP1 DIV PUSH1 0xFF AND DUP2 JUMP JUMPDEST PUSH1 0x0 DUP1 PUSH1 0x0 DUP1 PUSH1 0x0 SWAP1 POP PUSH1 0x0 DUP1 PUSH1 0x0 PUSH1 0x6 DUP1 SLOAD SWAP1 POP SWAP1 POP PUSH1 0x0 DUP2 EQ PUSH2 0xFBE JUMPI PUSH1 0x0 JUMPDEST DUP2 DUP2 LT ISZERO PUSH2 0xFBC JUMPI DUP9 PUSH20 0xFFFFFFFFFFFFFFFFFFFFFFFFFFFFFFFFFFFFFFFF AND PUSH1 0x6 DUP3 DUP2 SLOAD DUP2 LT PUSH2 0xF54 JUMPI PUSH2 0xF53 PUSH2 0x2D45 JUMP JUMPDEST JUMPDEST SWAP1 PUSH1 0x0 MSTORE PUSH1 0x20 PUSH1 0x0 KECCAK256 ADD PUSH1 0x0 SWAP1 SLOAD SWAP1 PUSH2 0x100 EXP SWAP1 DIV PUSH20 0xFFFFFFFFFFFFFFFFFFFFFFFFFFFFFFFFFFFFFFFF AND PUSH20 0xFFFFFFFFFFFFFFFFFFFFFFFFFFFFFFFFFFFFFFFF AND SUB PUSH2 0xFA9 JUMPI DUP5 DUP1 PUSH2 0xFA5 SWAP1 PUSH2 0x2CFD JUMP JUMPDEST SWAP6 POP POP JUMPDEST DUP1 DUP1 PUSH2 0xFB4 SWAP1 PUSH2 0x2CFD JUMP JUMPDEST SWAP2 POP POP PUSH2 0xF21 JUMP JUMPDEST POP JUMPDEST PUSH1 0x0 PUSH1 0xA DUP1 SLOAD SWAP1 POP SWAP1 POP PUSH1 0x0 DUP2 EQ PUSH2 0x1070 JUMPI PUSH1 0x0 JUMPDEST DUP2 DUP2 LT ISZERO PUSH2 0x106E JUMPI DUP10 PUSH20 0xFFFFFFFFFFFFFFFFFFFFFFFFFFFFFFFFFFFFFFFF AND PUSH1 0xA DUP3 DUP2 SLOAD DUP2 LT PUSH2 0x1006 JUMPI PUSH2 0x1005 PUSH2 0x2D45 JUMP JUMPDEST JUMPDEST SWAP1 PUSH1 0x0 MSTORE PUSH1 0x20 PUSH1 0x0 KECCAK256 ADD PUSH1 0x0 SWAP1 SLOAD SWAP1 PUSH2 0x100 EXP SWAP1 DIV PUSH20 0xFFFFFFFFFFFFFFFFFFFFFFFFFFFFFFFFFFFFFFFF AND PUSH20 0xFFFFFFFFFFFFFFFFFFFFFFFFFFFFFFFFFFFFFFFF AND SUB PUSH2 0x105B JUMPI DUP5 DUP1 PUSH2 0x1057 SWAP1 PUSH2 0x2CFD JUMP JUMPDEST SWAP6 POP POP JUMPDEST DUP1 DUP1 PUSH2 0x1066 SWAP1 PUSH2 0x2CFD JUMP JUMPDEST SWAP2 POP POP PUSH2 0xFD3 JUMP JUMPDEST POP JUMPDEST PUSH1 0x0 PUSH1 0xE DUP1 SLOAD SWAP1 POP SWAP1 POP PUSH1 0x0 DUP2 EQ PUSH2 0x1122 JUMPI PUSH1 0x0 JUMPDEST DUP2 DUP2 LT ISZERO PUSH2 0x1120 JUMPI DUP11 PUSH20 0xFFFFFFFFFFFFFFFFFFFFFFFFFFFFFFFFFFFFFFFF AND PUSH1 0x6 DUP3 DUP2 SLOAD DUP2 LT PUSH2 0x10B8 JUMPI PUSH2 0x10B7 PUSH2 0x2D45 JUMP JUMPDEST JUMPDEST SWAP1 PUSH1 0x0 MSTORE PUSH1 0x20 PUSH1 0x0 KECCAK256 ADD PUSH1 0x0 SWAP1 SLOAD SWAP1 PUSH2 0x100 EXP SWAP1 DIV PUSH20 0xFFFFFFFFFFFFFFFFFFFFFFFFFFFFFFFFFFFFFFFF AND PUSH20 0xFFFFFFFFFFFFFFFFFFFFFFFFFFFFFFFFFFFFFFFF AND SUB PUSH2 0x110D JUMPI DUP5 DUP1 PUSH2 0x1109 SWAP1 PUSH2 0x2CFD JUMP JUMPDEST SWAP6 POP POP JUMPDEST DUP1 DUP1 PUSH2 0x1118 SWAP1 PUSH2 0x2CFD JUMP JUMPDEST SWAP2 POP POP PUSH2 0x1085 JUMP JUMPDEST POP JUMPDEST DUP6 DUP6 DUP6 SWAP9 POP SWAP9 POP SWAP9 POP POP POP POP POP POP POP SWAP2 SWAP4 SWAP1 SWAP3 POP JUMP JUMPDEST PUSH1 0x0 PUSH1 0x5 SLOAD SWAP1 POP SWAP1 JUMP JUMPDEST PUSH1 0x2 PUSH1 0x0 SWAP1 SLOAD SWAP1 PUSH2 0x100 EXP SWAP1 DIV PUSH20 0xFFFFFFFFFFFFFFFFFFFFFFFFFFFFFFFFFFFFFFFF AND PUSH20 0xFFFFFFFFFFFFFFFFFFFFFFFFFFFFFFFFFFFFFFFF AND CALLER PUSH20 0xFFFFFFFFFFFFFFFFFFFFFFFFFFFFFFFFFFFFFFFF AND SUB PUSH2 0x11D2 JUMPI PUSH1 0x40 MLOAD PUSH32 0x8C379A000000000000000000000000000000000000000000000000000000000 DUP2 MSTORE PUSH1 0x4 ADD PUSH2 0x11C9 SWAP1 PUSH2 0x2C4B JUMP JUMPDEST PUSH1 0x40 MLOAD DUP1 SWAP2 SUB SWAP1 REVERT JUMPDEST PUSH1 0x0 DUP1 SLOAD SWAP1 PUSH2 0x100 EXP SWAP1 DIV PUSH1 0xFF AND ISZERO PUSH2 0x1220 JUMPI PUSH1 0x40 MLOAD PUSH32 0x8C379A000000000000000000000000000000000000000000000000000000000 DUP2 MSTORE PUSH1 0x4 ADD PUSH2 0x1217 SWAP1 PUSH2 0x2DE9 JUMP JUMPDEST PUSH1 0x40 MLOAD DUP1 SWAP2 SUB SWAP1 REVERT JUMPDEST PUSH1 0x1 PUSH1 0x0 DUP1 PUSH2 0x100 EXP DUP2 SLOAD DUP2 PUSH1 0xFF MUL NOT AND SWAP1 DUP4 ISZERO ISZERO MUL OR SWAP1 SSTORE POP PUSH1 0xF PUSH1 0x0 SWAP1 SLOAD SWAP1 PUSH2 0x100 EXP SWAP1 DIV PUSH1 0xFF AND PUSH2 0x1289 JUMPI PUSH1 0x40 MLOAD PUSH32 0x8C379A000000000000000000000000000000000000000000000000000000000 DUP2 MSTORE PUSH1 0x4 ADD PUSH2 0x1280 SWAP1 PUSH2 0x2E55 JUMP JUMPDEST PUSH1 0x40 MLOAD DUP1 SWAP2 SUB SWAP1 REVERT JUMPDEST PUSH1 0x5 SLOAD DUP2 EQ PUSH2 0x12CD JUMPI PUSH1 0x40 MLOAD PUSH32 0x8C379A000000000000000000000000000000000000000000000000000000000 DUP2 MSTORE PUSH1 0x4 ADD PUSH2 0x12C4 SWAP1 PUSH2 0x2FBD JUMP JUMPDEST PUSH1 0x40 MLOAD DUP1 SWAP2 SUB SWAP1 REVERT JUMPDEST PUSH1 0x0 PUSH1 0x14 PUSH1 0x0 SWAP1 SLOAD SWAP1 PUSH2 0x100 EXP SWAP1 DIV PUSH20 0xFFFFFFFFFFFFFFFFFFFFFFFFFFFFFFFFFFFFFFFF AND PUSH20 0xFFFFFFFFFFFFFFFFFFFFFFFFFFFFFFFFFFFFFFFF AND PUSH4 0x23B872DD CALLER ADDRESS DUP6 PUSH1 0x40 MLOAD DUP5 PUSH4 0xFFFFFFFF AND PUSH1 0xE0 SHL DUP2 MSTORE PUSH1 0x4 ADD PUSH2 0x132E SWAP4 SWAP3 SWAP2 SWAP1 PUSH2 0x2EE1 JUMP JUMPDEST PUSH1 0x20 PUSH1 0x40 MLOAD DUP1 DUP4 SUB DUP2 PUSH1 0x0 DUP8 GAS CALL ISZERO DUP1 ISZERO PUSH2 0x134D JUMPI RETURNDATASIZE PUSH1 0x0 DUP1 RETURNDATACOPY RETURNDATASIZE PUSH1 0x0 REVERT JUMPDEST POP POP POP POP PUSH1 0x40 MLOAD RETURNDATASIZE PUSH1 0x1F NOT PUSH1 0x1F DUP3 ADD AND DUP3 ADD DUP1 PUSH1 0x40 MSTORE POP DUP2 ADD SWAP1 PUSH2 0x1371 SWAP2 SWAP1 PUSH2 0x2F44 JUMP JUMPDEST SWAP1 POP DUP1 ISZERO PUSH2 0x142F JUMPI PUSH1 0x3 SLOAD PUSH1 0x4 SLOAD LT ISZERO PUSH2 0x1419 JUMPI PUSH1 0x6 CALLER SWAP1 DUP1 PUSH1 0x1 DUP2 SLOAD ADD DUP1 DUP3 SSTORE DUP1 SWAP2 POP POP PUSH1 0x1 SWAP1 SUB SWAP1 PUSH1 0x0 MSTORE PUSH1 0x20 PUSH1 0x0 KECCAK256 ADD PUSH1 0x0 SWAP1 SWAP2 SWAP1 SWAP2 SWAP1 SWAP2 PUSH2 0x100 EXP DUP2 SLOAD DUP2 PUSH20 0xFFFFFFFFFFFFFFFFFFFFFFFFFFFFFFFFFFFFFFFF MUL NOT AND SWAP1 DUP4 PUSH20 0xFFFFFFFFFFFFFFFFFFFFFFFFFFFFFFFFFFFFFFFF AND MUL OR SWAP1 SSTORE POP PUSH1 0x4 PUSH1 0x0 DUP2 SLOAD DUP1 SWAP3 SWAP2 SWAP1 PUSH2 0x13FB SWAP1 PUSH2 0x2CFD JUMP JUMPDEST SWAP2 SWAP1 POP SSTORE POP PUSH1 0x3 SLOAD PUSH1 0x4 SLOAD SUB PUSH2 0x1414 JUMPI PUSH2 0x1413 PUSH2 0x2568 JUMP JUMPDEST JUMPDEST PUSH2 0x142E JUMP JUMPDEST PUSH1 0x3 SLOAD PUSH1 0x4 SLOAD SUB PUSH2 0x142D JUMPI PUSH2 0x142C PUSH2 0x2568 JUMP JUMPDEST JUMPDEST JUMPDEST JUMPDEST POP PUSH1 0x0 DUP1 PUSH1 0x0 PUSH2 0x100 EXP DUP2 SLOAD DUP2 PUSH1 0xFF MUL NOT AND SWAP1 DUP4 ISZERO ISZERO MUL OR SWAP1 SSTORE POP POP JUMP JUMPDEST PUSH1 0x0 PUSH1 0xD SLOAD SWAP1 POP SWAP1 JUMP JUMPDEST PUSH1 0x12 DUP2 DUP2 SLOAD DUP2 LT PUSH2 0x1467 JUMPI PUSH1 0x0 DUP1 REVERT JUMPDEST SWAP1 PUSH1 0x0 MSTORE PUSH1 0x20 PUSH1 0x0 KECCAK256 ADD PUSH1 0x0 SWAP2 POP SLOAD SWAP1 PUSH2 0x100 EXP SWAP1 DIV PUSH20 0xFFFFFFFFFFFFFFFFFFFFFFFFFFFFFFFFFFFFFFFF AND DUP2 JUMP JUMPDEST PUSH1 0x13 PUSH1 0x0 SWAP1 SLOAD SWAP1 PUSH2 0x100 EXP SWAP1 DIV PUSH20 0xFFFFFFFFFFFFFFFFFFFFFFFFFFFFFFFFFFFFFFFF AND DUP2 JUMP JUMPDEST PUSH1 0x0 PUSH1 0x3 SLOAD SWAP1 POP SWAP1 JUMP JUMPDEST PUSH1 0x0 PUSH1 0xE DUP1 SLOAD SWAP1 POP SWAP1 POP SWAP1 JUMP JUMPDEST PUSH1 0x0 PUSH1 0x7 SLOAD SWAP1 POP SWAP1 JUMP JUMPDEST PUSH1 0x0 PUSH1 0xA DUP1 SLOAD SWAP1 POP SWAP1 POP SWAP1 JUMP JUMPDEST PUSH1 0x60 PUSH1 0x0 PUSH1 0x11 PUSH8 0xFFFFFFFFFFFFFFFF DUP2 GT ISZERO PUSH2 0x1509 JUMPI PUSH2 0x1508 PUSH2 0x2C6B JUMP JUMPDEST JUMPDEST PUSH1 0x40 MLOAD SWAP1 DUP1 DUP3 MSTORE DUP1 PUSH1 0x20 MUL PUSH1 0x20 ADD DUP3 ADD PUSH1 0x40 MSTORE DUP1 ISZERO PUSH2 0x1537 JUMPI DUP2 PUSH1 0x20 ADD PUSH1 0x20 DUP3 MUL DUP1 CALLDATASIZE DUP4 CALLDATACOPY DUP1 DUP3 ADD SWAP2 POP POP SWAP1 POP JUMPDEST POP SWAP1 POP PUSH1 0x0 PUSH1 0x10 DUP1 SLOAD SWAP1 POP SWAP1 POP PUSH1 0x0 DUP3 MLOAD SWAP1 POP PUSH1 0x0 PUSH1 0xA DUP4 GT ISZERO PUSH2 0x1622 JUMPI PUSH1 0x0 DUP4 SWAP1 POP JUMPDEST PUSH1 0xA DUP5 PUSH2 0x1568 SWAP2 SWAP1 PUSH2 0x2CC9 JUMP JUMPDEST DUP2 GT ISZERO PUSH2 0x161C JUMPI DUP3 DUP1 PUSH2 0x157A SWAP1 PUSH2 0x2CFD JUMP JUMPDEST SWAP4 POP POP PUSH1 0x10 DUP2 DUP2 SLOAD DUP2 LT PUSH2 0x1591 JUMPI PUSH2 0x1590 PUSH2 0x2D45 JUMP JUMPDEST JUMPDEST SWAP1 PUSH1 0x0 MSTORE PUSH1 0x20 PUSH1 0x0 KECCAK256 ADD PUSH1 0x0 SWAP1 SLOAD SWAP1 PUSH2 0x100 EXP SWAP1 DIV PUSH20 0xFFFFFFFFFFFFFFFFFFFFFFFFFFFFFFFFFFFFFFFF AND DUP6 DUP5 DUP2 MLOAD DUP2 LT PUSH2 0x15CF JUMPI PUSH2 0x15CE PUSH2 0x2D45 JUMP JUMPDEST JUMPDEST PUSH1 0x20 MUL PUSH1 0x20 ADD ADD SWAP1 PUSH20 0xFFFFFFFFFFFFFFFFFFFFFFFFFFFFFFFFFFFFFFFF AND SWAP1 DUP2 PUSH20 0xFFFFFFFFFFFFFFFFFFFFFFFFFFFFFFFFFFFFFFFF AND DUP2 MSTORE POP POP DUP1 DUP1 PUSH2 0x1614 SWAP1 PUSH2 0x2D74 JUMP JUMPDEST SWAP2 POP POP PUSH2 0x155B JUMP JUMPDEST POP PUSH2 0x1700 JUMP JUMPDEST PUSH1 0x0 DUP4 SWAP1 POP JUMPDEST PUSH1 0x0 DUP2 GT ISZERO PUSH2 0x16FE JUMPI DUP3 DUP1 PUSH2 0x163C SWAP1 PUSH2 0x2CFD JUMP JUMPDEST SWAP4 POP POP PUSH1 0x0 PUSH1 0x10 PUSH1 0x1 DUP4 PUSH2 0x1650 SWAP2 SWAP1 PUSH2 0x2CC9 JUMP JUMPDEST DUP2 SLOAD DUP2 LT PUSH2 0x1661 JUMPI PUSH2 0x1660 PUSH2 0x2D45 JUMP JUMPDEST JUMPDEST SWAP1 PUSH1 0x0 MSTORE PUSH1 0x20 PUSH1 0x0 KECCAK256 ADD PUSH1 0x0 SWAP1 SLOAD SWAP1 PUSH2 0x100 EXP SWAP1 DIV PUSH20 0xFFFFFFFFFFFFFFFFFFFFFFFFFFFFFFFFFFFFFFFF AND SWAP1 POP DUP1 DUP7 DUP5 DUP2 MLOAD DUP2 LT PUSH2 0x16A2 JUMPI PUSH2 0x16A1 PUSH2 0x2D45 JUMP JUMPDEST JUMPDEST PUSH1 0x20 MUL PUSH1 0x20 ADD ADD SWAP1 PUSH20 0xFFFFFFFFFFFFFFFFFFFFFFFFFFFFFFFFFFFFFFFF AND SWAP1 DUP2 PUSH20 0xFFFFFFFFFFFFFFFFFFFFFFFFFFFFFFFFFFFFFFFF AND DUP2 MSTORE POP POP DUP3 DUP1 PUSH2 0x16E7 SWAP1 PUSH2 0x2CFD JUMP JUMPDEST SWAP4 POP POP POP DUP1 DUP1 PUSH2 0x16F6 SWAP1 PUSH2 0x2D74 JUMP JUMPDEST SWAP2 POP POP PUSH2 0x1628 JUMP JUMPDEST POP JUMPDEST DUP4 SWAP5 POP POP POP POP POP SWAP1 JUMP JUMPDEST PUSH1 0x0 PUSH1 0x14 PUSH1 0x0 SWAP1 SLOAD SWAP1 PUSH2 0x100 EXP SWAP1 DIV PUSH20 0xFFFFFFFFFFFFFFFFFFFFFFFFFFFFFFFFFFFFFFFF AND PUSH20 0xFFFFFFFFFFFFFFFFFFFFFFFFFFFFFFFFFFFFFFFF AND PUSH4 0x70A08231 ADDRESS PUSH1 0x40 MLOAD DUP3 PUSH4 0xFFFFFFFF AND PUSH1 0xE0 SHL DUP2 MSTORE PUSH1 0x4 ADD PUSH2 0x1767 SWAP2 SWAP1 PUSH2 0x2A69 JUMP JUMPDEST PUSH1 0x20 PUSH1 0x40 MLOAD DUP1 DUP4 SUB DUP2 DUP7 GAS STATICCALL ISZERO DUP1 ISZERO PUSH2 0x1784 JUMPI RETURNDATASIZE PUSH1 0x0 DUP1 RETURNDATACOPY RETURNDATASIZE PUSH1 0x0 REVERT JUMPDEST POP POP POP POP PUSH1 0x40 MLOAD RETURNDATASIZE PUSH1 0x1F NOT PUSH1 0x1F DUP3 ADD AND DUP3 ADD DUP1 PUSH1 0x40 MSTORE POP DUP2 ADD SWAP1 PUSH2 0x17A8 SWAP2 SWAP1 PUSH2 0x2FF2 JUMP JUMPDEST SWAP1 POP SWAP1 JUMP JUMPDEST PUSH1 0x14 PUSH1 0x0 SWAP1 SLOAD SWAP1 PUSH2 0x100 EXP SWAP1 DIV PUSH20 0xFFFFFFFFFFFFFFFFFFFFFFFFFFFFFFFFFFFFFFFF AND DUP2 JUMP JUMPDEST PUSH1 0x2 PUSH1 0x0 SWAP1 SLOAD SWAP1 PUSH2 0x100 EXP SWAP1 DIV PUSH20 0xFFFFFFFFFFFFFFFFFFFFFFFFFFFFFFFFFFFFFFFF AND PUSH20 0xFFFFFFFFFFFFFFFFFFFFFFFFFFFFFFFFFFFFFFFF AND CALLER PUSH20 0xFFFFFFFFFFFFFFFFFFFFFFFFFFFFFFFFFFFFFFFF AND EQ PUSH2 0x1863 JUMPI PUSH1 0x40 MLOAD PUSH32 0x8C379A000000000000000000000000000000000000000000000000000000000 DUP2 MSTORE PUSH1 0x4 ADD PUSH2 0x185A SWAP1 PUSH2 0x2C4B JUMP JUMPDEST PUSH1 0x40 MLOAD DUP1 SWAP2 SUB SWAP1 REVERT JUMPDEST PUSH2 0x186B PUSH2 0x22AE JUMP JUMPDEST JUMP JUMPDEST PUSH1 0x2 PUSH1 0x0 SWAP1 SLOAD SWAP1 PUSH2 0x100 EXP SWAP1 DIV PUSH20 0xFFFFFFFFFFFFFFFFFFFFFFFFFFFFFFFFFFFFFFFF AND PUSH20 0xFFFFFFFFFFFFFFFFFFFFFFFFFFFFFFFFFFFFFFFF AND CALLER PUSH20 0xFFFFFFFFFFFFFFFFFFFFFFFFFFFFFFFFFFFFFFFF AND SUB PUSH2 0x18FD JUMPI PUSH1 0x40 MLOAD PUSH32 0x8C379A000000000000000000000000000000000000000000000000000000000 DUP2 MSTORE PUSH1 0x4 ADD PUSH2 0x18F4 SWAP1 PUSH2 0x2C4B JUMP JUMPDEST PUSH1 0x40 MLOAD DUP1 SWAP2 SUB SWAP1 REVERT JUMPDEST PUSH1 0x0 DUP1 SLOAD SWAP1 PUSH2 0x100 EXP SWAP1 DIV PUSH1 0xFF AND ISZERO PUSH2 0x194B JUMPI PUSH1 0x40 MLOAD PUSH32 0x8C379A000000000000000000000000000000000000000000000000000000000 DUP2 MSTORE PUSH1 0x4 ADD PUSH2 0x1942 SWAP1 PUSH2 0x2DE9 JUMP JUMPDEST PUSH1 0x40 MLOAD DUP1 SWAP2 SUB SWAP1 REVERT JUMPDEST PUSH1 0x1 PUSH1 0x0 DUP1 PUSH2 0x100 EXP DUP2 SLOAD DUP2 PUSH1 0xFF MUL NOT AND SWAP1 DUP4 ISZERO ISZERO MUL OR SWAP1 SSTORE POP PUSH1 0xF PUSH1 0x0 SWAP1 SLOAD SWAP1 PUSH2 0x100 EXP SWAP1 DIV PUSH1 0xFF AND PUSH2 0x19B4 JUMPI PUSH1 0x40 MLOAD PUSH32 0x8C379A000000000000000000000000000000000000000000000000000000000 DUP2 MSTORE PUSH1 0x4 ADD PUSH2 0x19AB SWAP1 PUSH2 0x2E55 JUMP JUMPDEST PUSH1 0x40 MLOAD DUP1 SWAP2 SUB SWAP1 REVERT JUMPDEST PUSH32 0xA3DE883741AEFA0083D54DE95483572AD5EAA074B33A0AE8DC98725D52CF8143 DUP2 PUSH1 0x9 SLOAD PUSH1 0x40 MLOAD PUSH2 0x19E7 SWAP3 SWAP2 SWAP1 PUSH2 0x301F JUMP JUMPDEST PUSH1 0x40 MLOAD DUP1 SWAP2 SUB SWAP1 LOG1 PUSH1 0x9 SLOAD DUP2 EQ PUSH2 0x1A33 JUMPI PUSH1 0x40 MLOAD PUSH32 0x8C379A000000000000000000000000000000000000000000000000000000000 DUP2 MSTORE PUSH1 0x4 ADD PUSH2 0x1A2A SWAP1 PUSH2 0x2FBD JUMP JUMPDEST PUSH1 0x40 MLOAD DUP1 SWAP2 SUB SWAP1 REVERT JUMPDEST PUSH1 0x0 PUSH1 0x14 PUSH1 0x0 SWAP1 SLOAD SWAP1 PUSH2 0x100 EXP SWAP1 DIV PUSH20 0xFFFFFFFFFFFFFFFFFFFFFFFFFFFFFFFFFFFFFFFF AND PUSH20 0xFFFFFFFFFFFFFFFFFFFFFFFFFFFFFFFFFFFFFFFF AND PUSH4 0x23B872DD CALLER ADDRESS DUP6 PUSH1 0x40 MLOAD DUP5 PUSH4 0xFFFFFFFF AND PUSH1 0xE0 SHL DUP2 MSTORE PUSH1 0x4 ADD PUSH2 0x1A94 SWAP4 SWAP3 SWAP2 SWAP1 PUSH2 0x2EE1 JUMP JUMPDEST PUSH1 0x20 PUSH1 0x40 MLOAD DUP1 DUP4 SUB DUP2 PUSH1 0x0 DUP8 GAS CALL ISZERO DUP1 ISZERO PUSH2 0x1AB3 JUMPI RETURNDATASIZE PUSH1 0x0 DUP1 RETURNDATACOPY RETURNDATASIZE PUSH1 0x0 REVERT JUMPDEST POP POP POP POP PUSH1 0x40 MLOAD RETURNDATASIZE PUSH1 0x1F NOT PUSH1 0x1F DUP3 ADD AND DUP3 ADD DUP1 PUSH1 0x40 MSTORE POP DUP2 ADD SWAP1 PUSH2 0x1AD7 SWAP2 SWAP1 PUSH2 0x2F44 JUMP JUMPDEST SWAP1 POP DUP1 ISZERO PUSH2 0x1B95 JUMPI PUSH1 0x7 SLOAD PUSH1 0x8 SLOAD LT ISZERO PUSH2 0x1B7F JUMPI PUSH1 0xA CALLER SWAP1 DUP1 PUSH1 0x1 DUP2 SLOAD ADD DUP1 DUP3 SSTORE DUP1 SWAP2 POP POP PUSH1 0x1 SWAP1 SUB SWAP1 PUSH1 0x0 MSTORE PUSH1 0x20 PUSH1 0x0 KECCAK256 ADD PUSH1 0x0 SWAP1 SWAP2 SWAP1 SWAP2 SWAP1 SWAP2 PUSH2 0x100 EXP DUP2 SLOAD DUP2 PUSH20 0xFFFFFFFFFFFFFFFFFFFFFFFFFFFFFFFFFFFFFFFF MUL NOT AND SWAP1 DUP4 PUSH20 0xFFFFFFFFFFFFFFFFFFFFFFFFFFFFFFFFFFFFFFFF AND MUL OR SWAP1 SSTORE POP PUSH1 0x8 PUSH1 0x0 DUP2 SLOAD DUP1 SWAP3 SWAP2 SWAP1 PUSH2 0x1B61 SWAP1 PUSH2 0x2CFD JUMP JUMPDEST SWAP2 SWAP1 POP SSTORE POP PUSH1 0x7 SLOAD PUSH1 0x8 SLOAD SUB PUSH2 0x1B7A JUMPI PUSH2 0x1B79 PUSH2 0x1FF4 JUMP JUMPDEST JUMPDEST PUSH2 0x1B94 JUMP JUMPDEST PUSH1 0x7 SLOAD PUSH1 0x8 SLOAD SUB PUSH2 0x1B93 JUMPI PUSH2 0x1B92 PUSH2 0x1FF4 JUMP JUMPDEST JUMPDEST JUMPDEST JUMPDEST POP PUSH1 0x0 DUP1 PUSH1 0x0 PUSH2 0x100 EXP DUP2 SLOAD DUP2 PUSH1 0xFF MUL NOT AND SWAP1 DUP4 ISZERO ISZERO MUL OR SWAP1 SSTORE POP POP JUMP JUMPDEST PUSH1 0x60 PUSH1 0x0 PUSH1 0x11 PUSH8 0xFFFFFFFFFFFFFFFF DUP2 GT ISZERO PUSH2 0x1BD2 JUMPI PUSH2 0x1BD1 PUSH2 0x2C6B JUMP JUMPDEST JUMPDEST PUSH1 0x40 MLOAD SWAP1 DUP1 DUP3 MSTORE DUP1 PUSH1 0x20 MUL PUSH1 0x20 ADD DUP3 ADD PUSH1 0x40 MSTORE DUP1 ISZERO PUSH2 0x1C00 JUMPI DUP2 PUSH1 0x20 ADD PUSH1 0x20 DUP3 MUL DUP1 CALLDATASIZE DUP4 CALLDATACOPY DUP1 DUP3 ADD SWAP2 POP POP SWAP1 POP JUMPDEST POP SWAP1 POP PUSH1 0x0 PUSH1 0x11 DUP1 SLOAD SWAP1 POP SWAP1 POP PUSH1 0x0 DUP3 MLOAD SWAP1 POP PUSH1 0x0 PUSH1 0xA DUP4 GT ISZERO PUSH2 0x1CEB JUMPI PUSH1 0x0 DUP4 SWAP1 POP JUMPDEST PUSH1 0xA DUP5 PUSH2 0x1C31 SWAP2 SWAP1 PUSH2 0x2CC9 JUMP JUMPDEST DUP2 GT ISZERO PUSH2 0x1CE5 JUMPI DUP3 DUP1 PUSH2 0x1C43 SWAP1 PUSH2 0x2CFD JUMP JUMPDEST SWAP4 POP POP PUSH1 0x11 DUP2 DUP2 SLOAD DUP2 LT PUSH2 0x1C5A JUMPI PUSH2 0x1C59 PUSH2 0x2D45 JUMP JUMPDEST JUMPDEST SWAP1 PUSH1 0x0 MSTORE PUSH1 0x20 PUSH1 0x0 KECCAK256 ADD PUSH1 0x0 SWAP1 SLOAD SWAP1 PUSH2 0x100 EXP SWAP1 DIV PUSH20 0xFFFFFFFFFFFFFFFFFFFFFFFFFFFFFFFFFFFFFFFF AND DUP6 DUP5 DUP2 MLOAD DUP2 LT PUSH2 0x1C98 JUMPI PUSH2 0x1C97 PUSH2 0x2D45 JUMP JUMPDEST JUMPDEST PUSH1 0x20 MUL PUSH1 0x20 ADD ADD SWAP1 PUSH20 0xFFFFFFFFFFFFFFFFFFFFFFFFFFFFFFFFFFFFFFFF AND SWAP1 DUP2 PUSH20 0xFFFFFFFFFFFFFFFFFFFFFFFFFFFFFFFFFFFFFFFF AND DUP2 MSTORE POP POP DUP1 DUP1 PUSH2 0x1CDD SWAP1 PUSH2 0x2D74 JUMP JUMPDEST SWAP2 POP POP PUSH2 0x1C24 JUMP JUMPDEST POP PUSH2 0x1DC9 JUMP JUMPDEST PUSH1 0x0 DUP4 SWAP1 POP JUMPDEST PUSH1 0x0 DUP2 GT ISZERO PUSH2 0x1DC7 JUMPI DUP3 DUP1 PUSH2 0x1D05 SWAP1 PUSH2 0x2CFD JUMP JUMPDEST SWAP4 POP POP PUSH1 0x0 PUSH1 0x11 PUSH1 0x1 DUP4 PUSH2 0x1D19 SWAP2 SWAP1 PUSH2 0x2CC9 JUMP JUMPDEST DUP2 SLOAD DUP2 LT PUSH2 0x1D2A JUMPI PUSH2 0x1D29 PUSH2 0x2D45 JUMP JUMPDEST JUMPDEST SWAP1 PUSH1 0x0 MSTORE PUSH1 0x20 PUSH1 0x0 KECCAK256 ADD PUSH1 0x0 SWAP1 SLOAD SWAP1 PUSH2 0x100 EXP SWAP1 DIV PUSH20 0xFFFFFFFFFFFFFFFFFFFFFFFFFFFFFFFFFFFFFFFF AND SWAP1 POP DUP1 DUP7 DUP5 DUP2 MLOAD DUP2 LT PUSH2 0x1D6B JUMPI PUSH2 0x1D6A PUSH2 0x2D45 JUMP JUMPDEST JUMPDEST PUSH1 0x20 MUL PUSH1 0x20 ADD ADD SWAP1 PUSH20 0xFFFFFFFFFFFFFFFFFFFFFFFFFFFFFFFFFFFFFFFF AND SWAP1 DUP2 PUSH20 0xFFFFFFFFFFFFFFFFFFFFFFFFFFFFFFFFFFFFFFFF AND DUP2 MSTORE POP POP DUP3 DUP1 PUSH2 0x1DB0 SWAP1 PUSH2 0x2CFD JUMP JUMPDEST SWAP4 POP POP POP DUP1 DUP1 PUSH2 0x1DBF SWAP1 PUSH2 0x2D74 JUMP JUMPDEST SWAP2 POP POP PUSH2 0x1CF1 JUMP JUMPDEST POP JUMPDEST DUP4 SWAP5 POP POP POP POP POP SWAP1 JUMP JUMPDEST PUSH1 0x0 PUSH1 0xB SLOAD SWAP1 POP SWAP1 JUMP JUMPDEST PUSH1 0x2 PUSH1 0x0 SWAP1 SLOAD SWAP1 PUSH2 0x100 EXP SWAP1 DIV PUSH20 0xFFFFFFFFFFFFFFFFFFFFFFFFFFFFFFFFFFFFFFFF AND PUSH20 0xFFFFFFFFFFFFFFFFFFFFFFFFFFFFFFFFFFFFFFFF AND CALLER PUSH20 0xFFFFFFFFFFFFFFFFFFFFFFFFFFFFFFFFFFFFFFFF AND EQ PUSH2 0x1E6D JUMPI PUSH1 0x40 MLOAD PUSH32 0x8C379A000000000000000000000000000000000000000000000000000000000 DUP2 MSTORE PUSH1 0x4 ADD PUSH2 0x1E64 SWAP1 PUSH2 0x2C4B JUMP JUMPDEST PUSH1 0x40 MLOAD DUP1 SWAP2 SUB SWAP1 REVERT JUMPDEST DUP1 PUSH1 0x9 DUP2 SWAP1 SSTORE POP POP JUMP JUMPDEST PUSH1 0x0 PUSH1 0x9 SLOAD SWAP1 POP SWAP1 JUMP JUMPDEST PUSH1 0x2 PUSH1 0x0 SWAP1 SLOAD SWAP1 PUSH2 0x100 EXP SWAP1 DIV PUSH20 0xFFFFFFFFFFFFFFFFFFFFFFFFFFFFFFFFFFFFFFFF AND PUSH20 0xFFFFFFFFFFFFFFFFFFFFFFFFFFFFFFFFFFFFFFFF AND CALLER PUSH20 0xFFFFFFFFFFFFFFFFFFFFFFFFFFFFFFFFFFFFFFFF AND EQ PUSH2 0x1F11 JUMPI PUSH1 0x40 MLOAD PUSH32 0x8C379A000000000000000000000000000000000000000000000000000000000 DUP2 MSTORE PUSH1 0x4 ADD PUSH2 0x1F08 SWAP1 PUSH2 0x2C4B JUMP JUMPDEST PUSH1 0x40 MLOAD DUP1 SWAP2 SUB SWAP1 REVERT JUMPDEST DUP1 PUSH1 0xD DUP2 SWAP1 SSTORE POP POP JUMP JUMPDEST PUSH1 0x10 DUP2 DUP2 SLOAD DUP2 LT PUSH2 0x1F2B JUMPI PUSH1 0x0 DUP1 REVERT JUMPDEST SWAP1 PUSH1 0x0 MSTORE PUSH1 0x20 PUSH1 0x0 KECCAK256 ADD PUSH1 0x0 SWAP2 POP SLOAD SWAP1 PUSH2 0x100 EXP SWAP1 DIV PUSH20 0xFFFFFFFFFFFFFFFFFFFFFFFFFFFFFFFFFFFFFFFF AND DUP2 JUMP JUMPDEST PUSH1 0x2 PUSH1 0x0 SWAP1 SLOAD SWAP1 PUSH2 0x100 EXP SWAP1 DIV PUSH20 0xFFFFFFFFFFFFFFFFFFFFFFFFFFFFFFFFFFFFFFFF AND PUSH20 0xFFFFFFFFFFFFFFFFFFFFFFFFFFFFFFFFFFFFFFFF AND CALLER PUSH20 0xFFFFFFFFFFFFFFFFFFFFFFFFFFFFFFFFFFFFFFFF AND EQ PUSH2 0x1FEA JUMPI PUSH1 0x40 MLOAD PUSH32 0x8C379A000000000000000000000000000000000000000000000000000000000 DUP2 MSTORE PUSH1 0x4 ADD PUSH2 0x1FE1 SWAP1 PUSH2 0x2C4B JUMP JUMPDEST PUSH1 0x40 MLOAD DUP1 SWAP2 SUB SWAP1 REVERT JUMPDEST PUSH2 0x1FF2 PUSH2 0x2568 JUMP JUMPDEST JUMP JUMPDEST PUSH1 0x0 PUSH1 0xA DUP1 SLOAD SWAP1 POP PUSH2 0x2004 PUSH2 0x2828 JUMP JUMPDEST PUSH2 0x200E SWAP2 SWAP1 PUSH2 0x3077 JUMP JUMPDEST SWAP1 POP PUSH1 0x0 PUSH1 0xA DUP1 SLOAD SWAP1 POP PUSH1 0x9 SLOAD PUSH2 0x2025 SWAP2 SWAP1 PUSH2 0x30A8 JUMP JUMPDEST SWAP1 POP PUSH1 0x0 PUSH2 0x203F PUSH2 0x2038 DUP4 PUSH1 0x1 SLOAD PUSH2 0x2860 JUMP JUMPDEST PUSH1 0x64 PUSH2 0x2876 JUMP JUMPDEST SWAP1 POP PUSH1 0x14 PUSH1 0x0 SWAP1 SLOAD SWAP1 PUSH2 0x100 EXP SWAP1 DIV PUSH20 0xFFFFFFFFFFFFFFFFFFFFFFFFFFFFFFFFFFFFFFFF AND PUSH20 0xFFFFFFFFFFFFFFFFFFFFFFFFFFFFFFFFFFFFFFFF AND PUSH4 0xA9059CBB PUSH1 0x0 PUSH1 0x1 SWAP1 SLOAD SWAP1 PUSH2 0x100 EXP SWAP1 DIV PUSH20 0xFFFFFFFFFFFFFFFFFFFFFFFFFFFFFFFFFFFFFFFF AND DUP4 PUSH1 0x40 MLOAD DUP4 PUSH4 0xFFFFFFFF AND PUSH1 0xE0 SHL DUP2 MSTORE PUSH1 0x4 ADD PUSH2 0x20C0 SWAP3 SWAP2 SWAP1 PUSH2 0x3102 JUMP JUMPDEST PUSH1 0x20 PUSH1 0x40 MLOAD DUP1 DUP4 SUB DUP2 PUSH1 0x0 DUP8 GAS CALL ISZERO DUP1 ISZERO PUSH2 0x20DF JUMPI RETURNDATASIZE PUSH1 0x0 DUP1 RETURNDATACOPY RETURNDATASIZE PUSH1 0x0 REVERT JUMPDEST POP POP POP POP PUSH1 0x40 MLOAD RETURNDATASIZE PUSH1 0x1F NOT PUSH1 0x1F DUP3 ADD AND DUP3 ADD DUP1 PUSH1 0x40 MSTORE POP DUP2 ADD SWAP1 PUSH2 0x2103 SWAP2 SWAP1 PUSH2 0x2F44 JUMP JUMPDEST POP PUSH1 0x0 PUSH2 0x2110 DUP4 DUP4 PUSH2 0x288C JUMP JUMPDEST SWAP1 POP PUSH1 0x14 PUSH1 0x0 SWAP1 SLOAD SWAP1 PUSH2 0x100 EXP SWAP1 DIV PUSH20 0xFFFFFFFFFFFFFFFFFFFFFFFFFFFFFFFFFFFFFFFF AND PUSH20 0xFFFFFFFFFFFFFFFFFFFFFFFFFFFFFFFFFFFFFFFF AND PUSH4 0xA9059CBB PUSH1 0xA DUP7 DUP2 SLOAD DUP2 LT PUSH2 0x2164 JUMPI PUSH2 0x2163 PUSH2 0x2D45 JUMP JUMPDEST JUMPDEST SWAP1 PUSH1 0x0 MSTORE PUSH1 0x20 PUSH1 0x0 KECCAK256 ADD PUSH1 0x0 SWAP1 SLOAD SWAP1 PUSH2 0x100 EXP SWAP1 DIV PUSH20 0xFFFFFFFFFFFFFFFFFFFFFFFFFFFFFFFFFFFFFFFF AND DUP4 PUSH1 0x40 MLOAD DUP4 PUSH4 0xFFFFFFFF AND PUSH1 0xE0 SHL DUP2 MSTORE PUSH1 0x4 ADD PUSH2 0x21AD SWAP3 SWAP2 SWAP1 PUSH2 0x314C JUMP JUMPDEST PUSH1 0x20 PUSH1 0x40 MLOAD DUP1 DUP4 SUB DUP2 PUSH1 0x0 DUP8 GAS CALL ISZERO DUP1 ISZERO PUSH2 0x21CC JUMPI RETURNDATASIZE PUSH1 0x0 DUP1 RETURNDATACOPY RETURNDATASIZE PUSH1 0x0 REVERT JUMPDEST POP POP POP POP PUSH1 0x40 MLOAD RETURNDATASIZE PUSH1 0x1F NOT PUSH1 0x1F DUP3 ADD AND DUP3 ADD DUP1 PUSH1 0x40 MSTORE POP DUP2 ADD SWAP1 PUSH2 0x21F0 SWAP2 SWAP1 PUSH2 0x2F44 JUMP JUMPDEST POP PUSH1 0x11 PUSH1 0xA DUP6 DUP2 SLOAD DUP2 LT PUSH2 0x2207 JUMPI PUSH2 0x2206 PUSH2 0x2D45 JUMP JUMPDEST JUMPDEST SWAP1 PUSH1 0x0 MSTORE PUSH1 0x20 PUSH1 0x0 KECCAK256 ADD PUSH1 0x0 SWAP1 SLOAD SWAP1 PUSH2 0x100 EXP SWAP1 DIV PUSH20 0xFFFFFFFFFFFFFFFFFFFFFFFFFFFFFFFFFFFFFFFF AND SWAP1 DUP1 PUSH1 0x1 DUP2 SLOAD ADD DUP1 DUP3 SSTORE DUP1 SWAP2 POP POP PUSH1 0x1 SWAP1 SUB SWAP1 PUSH1 0x0 MSTORE PUSH1 0x20 PUSH1 0x0 KECCAK256 ADD PUSH1 0x0 SWAP1 SWAP2 SWAP1 SWAP2 SWAP1 SWAP2 PUSH2 0x100 EXP DUP2 SLOAD DUP2 PUSH20 0xFFFFFFFFFFFFFFFFFFFFFFFFFFFFFFFFFFFFFFFF MUL NOT AND SWAP1 DUP4 PUSH20 0xFFFFFFFFFFFFFFFFFFFFFFFFFFFFFFFFFFFFFFFF AND MUL OR SWAP1 SSTORE POP PUSH1 0xA PUSH1 0x0 PUSH2 0x22A0 SWAP2 SWAP1 PUSH2 0x28A2 JUMP JUMPDEST PUSH1 0x0 PUSH1 0x8 DUP2 SWAP1 SSTORE POP POP POP POP POP JUMP JUMPDEST PUSH1 0x0 PUSH1 0xE DUP1 SLOAD SWAP1 POP PUSH2 0x22BE PUSH2 0x2828 JUMP JUMPDEST PUSH2 0x22C8 SWAP2 SWAP1 PUSH2 0x3077 JUMP JUMPDEST SWAP1 POP PUSH1 0x0 PUSH1 0xE DUP1 SLOAD SWAP1 POP PUSH1 0xD SLOAD PUSH2 0x22DF SWAP2 SWAP1 PUSH2 0x30A8 JUMP JUMPDEST SWAP1 POP PUSH1 0x0 PUSH2 0x22F9 PUSH2 0x22F2 DUP4 PUSH1 0x1 SLOAD PUSH2 0x2860 JUMP JUMPDEST PUSH1 0x64 PUSH2 0x2876 JUMP JUMPDEST SWAP1 POP PUSH1 0x14 PUSH1 0x0 SWAP1 SLOAD SWAP1 PUSH2 0x100 EXP SWAP1 DIV PUSH20 0xFFFFFFFFFFFFFFFFFFFFFFFFFFFFFFFFFFFFFFFF AND PUSH20 0xFFFFFFFFFFFFFFFFFFFFFFFFFFFFFFFFFFFFFFFF AND PUSH4 0xA9059CBB PUSH1 0x0 PUSH1 0x1 SWAP1 SLOAD SWAP1 PUSH2 0x100 EXP SWAP1 DIV PUSH20 0xFFFFFFFFFFFFFFFFFFFFFFFFFFFFFFFFFFFFFFFF AND DUP4 PUSH1 0x40 MLOAD DUP4 PUSH4 0xFFFFFFFF AND PUSH1 0xE0 SHL DUP2 MSTORE PUSH1 0x4 ADD PUSH2 0x237A SWAP3 SWAP2 SWAP1 PUSH2 0x3102 JUMP JUMPDEST PUSH1 0x20 PUSH1 0x40 MLOAD DUP1 DUP4 SUB DUP2 PUSH1 0x0 DUP8 GAS CALL ISZERO DUP1 ISZERO PUSH2 0x2399 JUMPI RETURNDATASIZE PUSH1 0x0 DUP1 RETURNDATACOPY RETURNDATASIZE PUSH1 0x0 REVERT JUMPDEST POP POP POP POP PUSH1 0x40 MLOAD RETURNDATASIZE PUSH1 0x1F NOT PUSH1 0x1F DUP3 ADD AND DUP3 ADD DUP1 PUSH1 0x40 MSTORE POP DUP2 ADD SWAP1 PUSH2 0x23BD SWAP2 SWAP1 PUSH2 0x2F44 JUMP JUMPDEST POP PUSH1 0x0 PUSH2 0x23CA DUP4 DUP4 PUSH2 0x288C JUMP JUMPDEST SWAP1 POP PUSH1 0x14 PUSH1 0x0 SWAP1 SLOAD SWAP1 PUSH2 0x100 EXP SWAP1 DIV PUSH20 0xFFFFFFFFFFFFFFFFFFFFFFFFFFFFFFFFFFFFFFFF AND PUSH20 0xFFFFFFFFFFFFFFFFFFFFFFFFFFFFFFFFFFFFFFFF AND PUSH4 0xA9059CBB PUSH1 0xE DUP7 DUP2 SLOAD DUP2 LT PUSH2 0x241E JUMPI PUSH2 0x241D PUSH2 0x2D45 JUMP JUMPDEST JUMPDEST SWAP1 PUSH1 0x0 MSTORE PUSH1 0x20 PUSH1 0x0 KECCAK256 ADD PUSH1 0x0 SWAP1 SLOAD SWAP1 PUSH2 0x100 EXP SWAP1 DIV PUSH20 0xFFFFFFFFFFFFFFFFFFFFFFFFFFFFFFFFFFFFFFFF AND DUP4 PUSH1 0x40 MLOAD DUP4 PUSH4 0xFFFFFFFF AND PUSH1 0xE0 SHL DUP2 MSTORE PUSH1 0x4 ADD PUSH2 0x2467 SWAP3 SWAP2 SWAP1 PUSH2 0x314C JUMP JUMPDEST PUSH1 0x20 PUSH1 0x40 MLOAD DUP1 DUP4 SUB DUP2 PUSH1 0x0 DUP8 GAS CALL ISZERO DUP1 ISZERO PUSH2 0x2486 JUMPI RETURNDATASIZE PUSH1 0x0 DUP1 RETURNDATACOPY RETURNDATASIZE PUSH1 0x0 REVERT JUMPDEST POP POP POP POP PUSH1 0x40 MLOAD RETURNDATASIZE PUSH1 0x1F NOT PUSH1 0x1F DUP3 ADD AND DUP3 ADD DUP1 PUSH1 0x40 MSTORE POP DUP2 ADD SWAP1 PUSH2 0x24AA SWAP2 SWAP1 PUSH2 0x2F44 JUMP JUMPDEST POP PUSH1 0x12 PUSH1 0xE DUP6 DUP2 SLOAD DUP2 LT PUSH2 0x24C1 JUMPI PUSH2 0x24C0 PUSH2 0x2D45 JUMP JUMPDEST JUMPDEST SWAP1 PUSH1 0x0 MSTORE PUSH1 0x20 PUSH1 0x0 KECCAK256 ADD PUSH1 0x0 SWAP1 SLOAD SWAP1 PUSH2 0x100 EXP SWAP1 DIV PUSH20 0xFFFFFFFFFFFFFFFFFFFFFFFFFFFFFFFFFFFFFFFF AND SWAP1 DUP1 PUSH1 0x1 DUP2 SLOAD ADD DUP1 DUP3 SSTORE DUP1 SWAP2 POP POP PUSH1 0x1 SWAP1 SUB SWAP1 PUSH1 0x0 MSTORE PUSH1 0x20 PUSH1 0x0 KECCAK256 ADD PUSH1 0x0 SWAP1 SWAP2 SWAP1 SWAP2 SWAP1 SWAP2 PUSH2 0x100 EXP DUP2 SLOAD DUP2 PUSH20 0xFFFFFFFFFFFFFFFFFFFFFFFFFFFFFFFFFFFFFFFF MUL NOT AND SWAP1 DUP4 PUSH20 0xFFFFFFFFFFFFFFFFFFFFFFFFFFFFFFFFFFFFFFFF AND MUL OR SWAP1 SSTORE POP PUSH1 0xE PUSH1 0x0 PUSH2 0x255A SWAP2 SWAP1 PUSH2 0x28A2 JUMP JUMPDEST PUSH1 0x0 PUSH1 0xC DUP2 SWAP1 SSTORE POP POP POP POP POP JUMP JUMPDEST PUSH1 0x0 PUSH1 0x6 DUP1 SLOAD SWAP1 POP PUSH2 0x2578 PUSH2 0x2828 JUMP JUMPDEST PUSH2 0x2582 SWAP2 SWAP1 PUSH2 0x3077 JUMP JUMPDEST SWAP1 POP PUSH1 0x0 PUSH1 0x6 DUP1 SLOAD SWAP1 POP SWAP1 POP PUSH1 0x0 DUP2 PUSH1 0x5 SLOAD PUSH2 0x259E SWAP2 SWAP1 PUSH2 0x30A8 JUMP JUMPDEST SWAP1 POP PUSH1 0x0 PUSH2 0x25B8 PUSH2 0x25B1 DUP4 PUSH1 0x1 SLOAD PUSH2 0x2860 JUMP JUMPDEST PUSH1 0x64 PUSH2 0x2876 JUMP JUMPDEST SWAP1 POP PUSH1 0x14 PUSH1 0x0 SWAP1 SLOAD SWAP1 PUSH2 0x100 EXP SWAP1 DIV PUSH20 0xFFFFFFFFFFFFFFFFFFFFFFFFFFFFFFFFFFFFFFFF AND PUSH20 0xFFFFFFFFFFFFFFFFFFFFFFFFFFFFFFFFFFFFFFFF AND PUSH4 0xA9059CBB PUSH1 0x0 PUSH1 0x1 SWAP1 SLOAD SWAP1 PUSH2 0x100 EXP SWAP1 DIV PUSH20 0xFFFFFFFFFFFFFFFFFFFFFFFFFFFFFFFFFFFFFFFF AND DUP4 PUSH1 0x40 MLOAD DUP4 PUSH4 0xFFFFFFFF AND PUSH1 0xE0 SHL DUP2 MSTORE PUSH1 0x4 ADD PUSH2 0x2639 SWAP3 SWAP2 SWAP1 PUSH2 0x3102 JUMP JUMPDEST PUSH1 0x20 PUSH1 0x40 MLOAD DUP1 DUP4 SUB DUP2 PUSH1 0x0 DUP8 GAS CALL ISZERO DUP1 ISZERO PUSH2 0x2658 JUMPI RETURNDATASIZE PUSH1 0x0 DUP1 RETURNDATACOPY RETURNDATASIZE PUSH1 0x0 REVERT JUMPDEST POP POP POP POP PUSH1 0x40 MLOAD RETURNDATASIZE PUSH1 0x1F NOT PUSH1 0x1F DUP3 ADD AND DUP3 ADD DUP1 PUSH1 0x40 MSTORE POP DUP2 ADD SWAP1 PUSH2 0x267C SWAP2 SWAP1 PUSH2 0x2F44 JUMP JUMPDEST POP PUSH1 0x0 PUSH2 0x2689 DUP4 DUP4 PUSH2 0x288C JUMP JUMPDEST SWAP1 POP PUSH1 0x14 PUSH1 0x0 SWAP1 SLOAD SWAP1 PUSH2 0x100 EXP SWAP1 DIV PUSH20 0xFFFFFFFFFFFFFFFFFFFFFFFFFFFFFFFFFFFFFFFF AND PUSH20 0xFFFFFFFFFFFFFFFFFFFFFFFFFFFFFFFFFFFFFFFF AND PUSH4 0xA9059CBB PUSH1 0x6 DUP8 DUP2 SLOAD DUP2 LT PUSH2 0x26DD JUMPI PUSH2 0x26DC PUSH2 0x2D45 JUMP JUMPDEST JUMPDEST SWAP1 PUSH1 0x0 MSTORE PUSH1 0x20 PUSH1 0x0 KECCAK256 ADD PUSH1 0x0 SWAP1 SLOAD SWAP1 PUSH2 0x100 EXP SWAP1 DIV PUSH20 0xFFFFFFFFFFFFFFFFFFFFFFFFFFFFFFFFFFFFFFFF AND DUP4 PUSH1 0x40 MLOAD DUP4 PUSH4 0xFFFFFFFF AND PUSH1 0xE0 SHL DUP2 MSTORE PUSH1 0x4 ADD PUSH2 0x2726 SWAP3 SWAP2 SWAP1 PUSH2 0x314C JUMP JUMPDEST PUSH1 0x20 PUSH1 0x40 MLOAD DUP1 DUP4 SUB DUP2 PUSH1 0x0 DUP8 GAS CALL ISZERO DUP1 ISZERO PUSH2 0x2745 JUMPI RETURNDATASIZE PUSH1 0x0 DUP1 RETURNDATACOPY RETURNDATASIZE PUSH1 0x0 REVERT JUMPDEST POP POP POP POP PUSH1 0x40 MLOAD RETURNDATASIZE PUSH1 0x1F NOT PUSH1 0x1F DUP3 ADD AND DUP3 ADD DUP1 PUSH1 0x40 MSTORE POP DUP2 ADD SWAP1 PUSH2 0x2769 SWAP2 SWAP1 PUSH2 0x2F44 JUMP JUMPDEST POP PUSH1 0x10 PUSH1 0x6 DUP7 DUP2 SLOAD DUP2 LT PUSH2 0x2780 JUMPI PUSH2 0x277F PUSH2 0x2D45 JUMP JUMPDEST JUMPDEST SWAP1 PUSH1 0x0 MSTORE PUSH1 0x20 PUSH1 0x0 KECCAK256 ADD PUSH1 0x0 SWAP1 SLOAD SWAP1 PUSH2 0x100 EXP SWAP1 DIV PUSH20 0xFFFFFFFFFFFFFFFFFFFFFFFFFFFFFFFFFFFFFFFF AND SWAP1 DUP1 PUSH1 0x1 DUP2 SLOAD ADD DUP1 DUP3 SSTORE DUP1 SWAP2 POP POP PUSH1 0x1 SWAP1 SUB SWAP1 PUSH1 0x0 MSTORE PUSH1 0x20 PUSH1 0x0 KECCAK256 ADD PUSH1 0x0 SWAP1 SWAP2 SWAP1 SWAP2 SWAP1 SWAP2 PUSH2 0x100 EXP DUP2 SLOAD DUP2 PUSH20 0xFFFFFFFFFFFFFFFFFFFFFFFFFFFFFFFFFFFFFFFF MUL NOT AND SWAP1 DUP4 PUSH20 0xFFFFFFFFFFFFFFFFFFFFFFFFFFFFFFFFFFFFFFFF AND MUL OR SWAP1 SSTORE POP PUSH1 0x6 PUSH1 0x0 PUSH2 0x2819 SWAP2 SWAP1 PUSH2 0x28A2 JUMP JUMPDEST PUSH1 0x0 PUSH1 0x4 DUP2 SWAP1 SSTORE POP POP POP POP POP POP JUMP JUMPDEST PUSH1 0x0 DIFFICULTY TIMESTAMP PUSH1 0x6 NUMBER PUSH1 0x40 MLOAD PUSH1 0x20 ADD PUSH2 0x2842 SWAP5 SWAP4 SWAP3 SWAP2 SWAP1 PUSH2 0x32AB JUMP JUMPDEST PUSH1 0x40 MLOAD PUSH1 0x20 DUP2 DUP4 SUB SUB DUP2 MSTORE SWAP1 PUSH1 0x40 MSTORE DUP1 MLOAD SWAP1 PUSH1 0x20 ADD KECCAK256 PUSH1 0x0 SHR SWAP1 POP SWAP1 JUMP JUMPDEST PUSH1 0x0 DUP2 DUP4 PUSH2 0x286E SWAP2 SWAP1 PUSH2 0x30A8 JUMP JUMPDEST SWAP1 POP SWAP3 SWAP2 POP POP JUMP JUMPDEST PUSH1 0x0 DUP2 DUP4 PUSH2 0x2884 SWAP2 SWAP1 PUSH2 0x32F7 JUMP JUMPDEST SWAP1 POP SWAP3 SWAP2 POP POP JUMP JUMPDEST PUSH1 0x0 DUP2 DUP4 PUSH2 0x289A SWAP2 SWAP1 PUSH2 0x2CC9 JUMP JUMPDEST SWAP1 POP SWAP3 SWAP2 POP POP JUMP JUMPDEST POP DUP1 SLOAD PUSH1 0x0 DUP3 SSTORE SWAP1 PUSH1 0x0 MSTORE PUSH1 0x20 PUSH1 0x0 KECCAK256 SWAP1 DUP2 ADD SWAP1 PUSH2 0x28C0 SWAP2 SWAP1 PUSH2 0x28C3 JUMP JUMPDEST POP JUMP JUMPDEST JUMPDEST DUP1 DUP3 GT ISZERO PUSH2 0x28DC JUMPI PUSH1 0x0 DUP2 PUSH1 0x0 SWAP1 SSTORE POP PUSH1 0x1 ADD PUSH2 0x28C4 JUMP JUMPDEST POP SWAP1 JUMP JUMPDEST PUSH1 0x0 DUP2 MLOAD SWAP1 POP SWAP2 SWAP1 POP JUMP JUMPDEST PUSH1 0x0 DUP3 DUP3 MSTORE PUSH1 0x20 DUP3 ADD SWAP1 POP SWAP3 SWAP2 POP POP JUMP JUMPDEST PUSH1 0x0 DUP2 SWAP1 POP PUSH1 0x20 DUP3 ADD SWAP1 POP SWAP2 SWAP1 POP JUMP JUMPDEST PUSH1 0x0 PUSH20 0xFFFFFFFFFFFFFFFFFFFFFFFFFFFFFFFFFFFFFFFF DUP3 AND SWAP1 POP SWAP2 SWAP1 POP JUMP JUMPDEST PUSH1 0x0 PUSH2 0x2937 DUP3 PUSH2 0x290C JUMP JUMPDEST SWAP1 POP SWAP2 SWAP1 POP JUMP JUMPDEST PUSH2 0x2947 DUP2 PUSH2 0x292C JUMP JUMPDEST DUP3 MSTORE POP POP JUMP JUMPDEST PUSH1 0x0 PUSH2 0x2959 DUP4 DUP4 PUSH2 0x293E JUMP JUMPDEST PUSH1 0x20 DUP4 ADD SWAP1 POP SWAP3 SWAP2 POP POP JUMP JUMPDEST PUSH1 0x0 PUSH1 0x20 DUP3 ADD SWAP1 POP SWAP2 SWAP1 POP JUMP JUMPDEST PUSH1 0x0 PUSH2 0x297D DUP3 PUSH2 0x28E0 JUMP JUMPDEST PUSH2 0x2987 DUP2 DUP6 PUSH2 0x28EB JUMP JUMPDEST SWAP4 POP PUSH2 0x2992 DUP4 PUSH2 0x28FC JUMP JUMPDEST DUP1 PUSH1 0x0 JUMPDEST DUP4 DUP2 LT ISZERO PUSH2 0x29C3 JUMPI DUP2 MLOAD PUSH2 0x29AA DUP9 DUP3 PUSH2 0x294D JUMP JUMPDEST SWAP8 POP PUSH2 0x29B5 DUP4 PUSH2 0x2965 JUMP JUMPDEST SWAP3 POP POP PUSH1 0x1 DUP2 ADD SWAP1 POP PUSH2 0x2996 JUMP JUMPDEST POP DUP6 SWAP4 POP POP POP POP SWAP3 SWAP2 POP POP JUMP JUMPDEST PUSH1 0x0 PUSH1 0x20 DUP3 ADD SWAP1 POP DUP2 DUP2 SUB PUSH1 0x0 DUP4 ADD MSTORE PUSH2 0x29EA DUP2 DUP5 PUSH2 0x2972 JUMP JUMPDEST SWAP1 POP SWAP3 SWAP2 POP POP JUMP JUMPDEST PUSH1 0x0 DUP1 REVERT JUMPDEST PUSH1 0x0 DUP2 SWAP1 POP SWAP2 SWAP1 POP JUMP JUMPDEST PUSH2 0x2A0A DUP2 PUSH2 0x29F7 JUMP JUMPDEST DUP2 EQ PUSH2 0x2A15 JUMPI PUSH1 0x0 DUP1 REVERT JUMPDEST POP JUMP JUMPDEST PUSH1 0x0 DUP2 CALLDATALOAD SWAP1 POP PUSH2 0x2A27 DUP2 PUSH2 0x2A01 JUMP JUMPDEST SWAP3 SWAP2 POP POP JUMP JUMPDEST PUSH1 0x0 PUSH1 0x20 DUP3 DUP5 SUB SLT ISZERO PUSH2 0x2A43 JUMPI PUSH2 0x2A42 PUSH2 0x29F2 JUMP JUMPDEST JUMPDEST PUSH1 0x0 PUSH2 0x2A51 DUP5 DUP3 DUP6 ADD PUSH2 0x2A18 JUMP JUMPDEST SWAP2 POP POP SWAP3 SWAP2 POP POP JUMP JUMPDEST PUSH2 0x2A63 DUP2 PUSH2 0x292C JUMP JUMPDEST DUP3 MSTORE POP POP JUMP JUMPDEST PUSH1 0x0 PUSH1 0x20 DUP3 ADD SWAP1 POP PUSH2 0x2A7E PUSH1 0x0 DUP4 ADD DUP5 PUSH2 0x2A5A JUMP JUMPDEST SWAP3 SWAP2 POP POP JUMP JUMPDEST PUSH2 0x2A8D DUP2 PUSH2 0x29F7 JUMP JUMPDEST DUP3 MSTORE POP POP JUMP JUMPDEST PUSH1 0x0 PUSH1 0x20 DUP3 ADD SWAP1 POP PUSH2 0x2AA8 PUSH1 0x0 DUP4 ADD DUP5 PUSH2 0x2A84 JUMP JUMPDEST SWAP3 SWAP2 POP POP JUMP JUMPDEST PUSH1 0x0 DUP2 ISZERO ISZERO SWAP1 POP SWAP2 SWAP1 POP JUMP JUMPDEST PUSH2 0x2AC3 DUP2 PUSH2 0x2AAE JUMP JUMPDEST DUP3 MSTORE POP POP JUMP JUMPDEST PUSH1 0x0 PUSH1 0x20 DUP3 ADD SWAP1 POP PUSH2 0x2ADE PUSH1 0x0 DUP4 ADD DUP5 PUSH2 0x2ABA JUMP JUMPDEST SWAP3 SWAP2 POP POP JUMP JUMPDEST PUSH2 0x2AED DUP2 PUSH2 0x292C JUMP JUMPDEST DUP2 EQ PUSH2 0x2AF8 JUMPI PUSH1 0x0 DUP1 REVERT JUMPDEST POP JUMP JUMPDEST PUSH1 0x0 DUP2 CALLDATALOAD SWAP1 POP PUSH2 0x2B0A DUP2 PUSH2 0x2AE4 JUMP JUMPDEST SWAP3 SWAP2 POP POP JUMP JUMPDEST PUSH1 0x0 PUSH1 0x20 DUP3 DUP5 SUB SLT ISZERO PUSH2 0x2B26 JUMPI PUSH2 0x2B25 PUSH2 0x29F2 JUMP JUMPDEST JUMPDEST PUSH1 0x0 PUSH2 0x2B34 DUP5 DUP3 DUP6 ADD PUSH2 0x2AFB JUMP JUMPDEST SWAP2 POP POP SWAP3 SWAP2 POP POP JUMP JUMPDEST PUSH1 0x0 PUSH1 0x60 DUP3 ADD SWAP1 POP PUSH2 0x2B52 PUSH1 0x0 DUP4 ADD DUP7 PUSH2 0x2A84 JUMP JUMPDEST PUSH2 0x2B5F PUSH1 0x20 DUP4 ADD DUP6 PUSH2 0x2A84 JUMP JUMPDEST PUSH2 0x2B6C PUSH1 0x40 DUP4 ADD DUP5 PUSH2 0x2A84 JUMP JUMPDEST SWAP5 SWAP4 POP POP POP POP JUMP JUMPDEST PUSH1 0x0 DUP2 SWAP1 POP SWAP2 SWAP1 POP JUMP JUMPDEST PUSH1 0x0 PUSH2 0x2B99 PUSH2 0x2B94 PUSH2 0x2B8F DUP5 PUSH2 0x290C JUMP JUMPDEST PUSH2 0x2B74 JUMP JUMPDEST PUSH2 0x290C JUMP JUMPDEST SWAP1 POP SWAP2 SWAP1 POP JUMP JUMPDEST PUSH1 0x0 PUSH2 0x2BAB DUP3 PUSH2 0x2B7E JUMP JUMPDEST SWAP1 POP SWAP2 SWAP1 POP JUMP JUMPDEST PUSH1 0x0 PUSH2 0x2BBD DUP3 PUSH2 0x2BA0 JUMP JUMPDEST SWAP1 POP SWAP2 SWAP1 POP JUMP JUMPDEST PUSH2 0x2BCD DUP2 PUSH2 0x2BB2 JUMP JUMPDEST DUP3 MSTORE POP POP JUMP JUMPDEST PUSH1 0x0 PUSH1 0x20 DUP3 ADD SWAP1 POP PUSH2 0x2BE8 PUSH1 0x0 DUP4 ADD DUP5 PUSH2 0x2BC4 JUMP JUMPDEST SWAP3 SWAP2 POP POP JUMP JUMPDEST PUSH1 0x0 DUP3 DUP3 MSTORE PUSH1 0x20 DUP3 ADD SWAP1 POP SWAP3 SWAP2 POP POP JUMP JUMPDEST PUSH32 0x4163636573732064656E69656421000000000000000000000000000000000000 PUSH1 0x0 DUP3 ADD MSTORE POP JUMP JUMPDEST PUSH1 0x0 PUSH2 0x2C35 PUSH1 0xE DUP4 PUSH2 0x2BEE JUMP JUMPDEST SWAP2 POP PUSH2 0x2C40 DUP3 PUSH2 0x2BFF JUMP JUMPDEST PUSH1 0x20 DUP3 ADD SWAP1 POP SWAP2 SWAP1 POP JUMP JUMPDEST PUSH1 0x0 PUSH1 0x20 DUP3 ADD SWAP1 POP DUP2 DUP2 SUB PUSH1 0x0 DUP4 ADD MSTORE PUSH2 0x2C64 DUP2 PUSH2 0x2C28 JUMP JUMPDEST SWAP1 POP SWAP2 SWAP1 POP JUMP JUMPDEST PUSH32 0x4E487B7100000000000000000000000000000000000000000000000000000000 PUSH1 0x0 MSTORE PUSH1 0x41 PUSH1 0x4 MSTORE PUSH1 0x24 PUSH1 0x0 REVERT JUMPDEST PUSH32 0x4E487B7100000000000000000000000000000000000000000000000000000000 PUSH1 0x0 MSTORE PUSH1 0x11 PUSH1 0x4 MSTORE PUSH1 0x24 PUSH1 0x0 REVERT JUMPDEST PUSH1 0x0 PUSH2 0x2CD4 DUP3 PUSH2 0x29F7 JUMP JUMPDEST SWAP2 POP PUSH2 0x2CDF DUP4 PUSH2 0x29F7 JUMP JUMPDEST SWAP3 POP DUP3 DUP3 SUB SWAP1 POP DUP2 DUP2 GT ISZERO PUSH2 0x2CF7 JUMPI PUSH2 0x2CF6 PUSH2 0x2C9A JUMP JUMPDEST JUMPDEST SWAP3 SWAP2 POP POP JUMP JUMPDEST PUSH1 0x0 PUSH2 0x2D08 DUP3 PUSH2 0x29F7 JUMP JUMPDEST SWAP2 POP PUSH32 0xFFFFFFFFFFFFFFFFFFFFFFFFFFFFFFFFFFFFFFFFFFFFFFFFFFFFFFFFFFFFFFFF DUP3 SUB PUSH2 0x2D3A JUMPI PUSH2 0x2D39 PUSH2 0x2C9A JUMP JUMPDEST JUMPDEST PUSH1 0x1 DUP3 ADD SWAP1 POP SWAP2 SWAP1 POP JUMP JUMPDEST PUSH32 0x4E487B7100000000000000000000000000000000000000000000000000000000 PUSH1 0x0 MSTORE PUSH1 0x32 PUSH1 0x4 MSTORE PUSH1 0x24 PUSH1 0x0 REVERT JUMPDEST PUSH1 0x0 PUSH2 0x2D7F DUP3 PUSH2 0x29F7 JUMP JUMPDEST SWAP2 POP PUSH1 0x0 DUP3 SUB PUSH2 0x2D92 JUMPI PUSH2 0x2D91 PUSH2 0x2C9A JUMP JUMPDEST JUMPDEST PUSH1 0x1 DUP3 SUB SWAP1 POP SWAP2 SWAP1 POP JUMP JUMPDEST PUSH32 0x4E6F2072652D656E7472616E6379000000000000000000000000000000000000 PUSH1 0x0 DUP3 ADD MSTORE POP JUMP JUMPDEST PUSH1 0x0 PUSH2 0x2DD3 PUSH1 0xE DUP4 PUSH2 0x2BEE JUMP JUMPDEST SWAP2 POP PUSH2 0x2DDE DUP3 PUSH2 0x2D9D JUMP JUMPDEST PUSH1 0x20 DUP3 ADD SWAP1 POP SWAP2 SWAP1 POP JUMP JUMPDEST PUSH1 0x0 PUSH1 0x20 DUP3 ADD SWAP1 POP DUP2 DUP2 SUB PUSH1 0x0 DUP4 ADD MSTORE PUSH2 0x2E02 DUP2 PUSH2 0x2DC6 JUMP JUMPDEST SWAP1 POP SWAP2 SWAP1 POP JUMP JUMPDEST PUSH32 0x4C6F7474657279206973206E6F74207374617274656420796574000000000000 PUSH1 0x0 DUP3 ADD MSTORE POP JUMP JUMPDEST PUSH1 0x0 PUSH2 0x2E3F PUSH1 0x1A DUP4 PUSH2 0x2BEE JUMP JUMPDEST SWAP2 POP PUSH2 0x2E4A DUP3 PUSH2 0x2E09 JUMP JUMPDEST PUSH1 0x20 DUP3 ADD SWAP1 POP SWAP2 SWAP1 POP JUMP JUMPDEST PUSH1 0x0 PUSH1 0x20 DUP3 ADD SWAP1 POP DUP2 DUP2 SUB PUSH1 0x0 DUP4 ADD MSTORE PUSH2 0x2E6E DUP2 PUSH2 0x2E32 JUMP JUMPDEST SWAP1 POP SWAP2 SWAP1 POP JUMP JUMPDEST PUSH32 0x4E6F742053616D65000000000000000000000000000000000000000000000000 PUSH1 0x0 DUP3 ADD MSTORE POP JUMP JUMPDEST PUSH1 0x0 PUSH2 0x2EAB PUSH1 0x8 DUP4 PUSH2 0x2BEE JUMP JUMPDEST SWAP2 POP PUSH2 0x2EB6 DUP3 PUSH2 0x2E75 JUMP JUMPDEST PUSH1 0x20 DUP3 ADD SWAP1 POP SWAP2 SWAP1 POP JUMP JUMPDEST PUSH1 0x0 PUSH1 0x20 DUP3 ADD SWAP1 POP DUP2 DUP2 SUB PUSH1 0x0 DUP4 ADD MSTORE PUSH2 0x2EDA DUP2 PUSH2 0x2E9E JUMP JUMPDEST SWAP1 POP SWAP2 SWAP1 POP JUMP JUMPDEST PUSH1 0x0 PUSH1 0x60 DUP3 ADD SWAP1 POP PUSH2 0x2EF6 PUSH1 0x0 DUP4 ADD DUP7 PUSH2 0x2A5A JUMP JUMPDEST PUSH2 0x2F03 PUSH1 0x20 DUP4 ADD DUP6 PUSH2 0x2A5A JUMP JUMPDEST PUSH2 0x2F10 PUSH1 0x40 DUP4 ADD DUP5 PUSH2 0x2A84 JUMP JUMPDEST SWAP5 SWAP4 POP POP POP POP JUMP JUMPDEST PUSH2 0x2F21 DUP2 PUSH2 0x2AAE JUMP JUMPDEST DUP2 EQ PUSH2 0x2F2C JUMPI PUSH1 0x0 DUP1 REVERT JUMPDEST POP JUMP JUMPDEST PUSH1 0x0 DUP2 MLOAD SWAP1 POP PUSH2 0x2F3E DUP2 PUSH2 0x2F18 JUMP JUMPDEST SWAP3 SWAP2 POP POP JUMP JUMPDEST PUSH1 0x0 PUSH1 0x20 DUP3 DUP5 SUB SLT ISZERO PUSH2 0x2F5A JUMPI PUSH2 0x2F59 PUSH2 0x29F2 JUMP JUMPDEST JUMPDEST PUSH1 0x0 PUSH2 0x2F68 DUP5 DUP3 DUP6 ADD PUSH2 0x2F2F JUMP JUMPDEST SWAP2 POP POP SWAP3 SWAP2 POP POP JUMP JUMPDEST PUSH32 0x4E6F742073616D6520616D6F756E740000000000000000000000000000000000 PUSH1 0x0 DUP3 ADD MSTORE POP JUMP JUMPDEST PUSH1 0x0 PUSH2 0x2FA7 PUSH1 0xF DUP4 PUSH2 0x2BEE JUMP JUMPDEST SWAP2 POP PUSH2 0x2FB2 DUP3 PUSH2 0x2F71 JUMP JUMPDEST PUSH1 0x20 DUP3 ADD SWAP1 POP SWAP2 SWAP1 POP JUMP JUMPDEST PUSH1 0x0 PUSH1 0x20 DUP3 ADD SWAP1 POP DUP2 DUP2 SUB PUSH1 0x0 DUP4 ADD MSTORE PUSH2 0x2FD6 DUP2 PUSH2 0x2F9A JUMP JUMPDEST SWAP1 POP SWAP2 SWAP1 POP JUMP JUMPDEST PUSH1 0x0 DUP2 MLOAD SWAP1 POP PUSH2 0x2FEC DUP2 PUSH2 0x2A01 JUMP JUMPDEST SWAP3 SWAP2 POP POP JUMP JUMPDEST PUSH1 0x0 PUSH1 0x20 DUP3 DUP5 SUB SLT ISZERO PUSH2 0x3008 JUMPI PUSH2 0x3007 PUSH2 0x29F2 JUMP JUMPDEST JUMPDEST PUSH1 0x0 PUSH2 0x3016 DUP5 DUP3 DUP6 ADD PUSH2 0x2FDD JUMP JUMPDEST SWAP2 POP POP SWAP3 SWAP2 POP POP JUMP JUMPDEST PUSH1 0x0 PUSH1 0x40 DUP3 ADD SWAP1 POP PUSH2 0x3034 PUSH1 0x0 DUP4 ADD DUP6 PUSH2 0x2A84 JUMP JUMPDEST PUSH2 0x3041 PUSH1 0x20 DUP4 ADD DUP5 PUSH2 0x2A84 JUMP JUMPDEST SWAP4 SWAP3 POP POP POP JUMP JUMPDEST PUSH32 0x4E487B7100000000000000000000000000000000000000000000000000000000 PUSH1 0x0 MSTORE PUSH1 0x12 PUSH1 0x4 MSTORE PUSH1 0x24 PUSH1 0x0 REVERT JUMPDEST PUSH1 0x0 PUSH2 0x3082 DUP3 PUSH2 0x29F7 JUMP JUMPDEST SWAP2 POP PUSH2 0x308D DUP4 PUSH2 0x29F7 JUMP JUMPDEST SWAP3 POP DUP3 PUSH2 0x309D JUMPI PUSH2 0x309C PUSH2 0x3048 JUMP JUMPDEST JUMPDEST DUP3 DUP3 MOD SWAP1 POP SWAP3 SWAP2 POP POP JUMP JUMPDEST PUSH1 0x0 PUSH2 0x30B3 DUP3 PUSH2 0x29F7 JUMP JUMPDEST SWAP2 POP PUSH2 0x30BE DUP4 PUSH2 0x29F7 JUMP JUMPDEST SWAP3 POP DUP2 PUSH32 0xFFFFFFFFFFFFFFFFFFFFFFFFFFFFFFFFFFFFFFFFFFFFFFFFFFFFFFFFFFFFFFFF DIV DUP4 GT DUP3 ISZERO ISZERO AND ISZERO PUSH2 0x30F7 JUMPI PUSH2 0x30F6 PUSH2 0x2C9A JUMP JUMPDEST JUMPDEST DUP3 DUP3 MUL SWAP1 POP SWAP3 SWAP2 POP POP JUMP JUMPDEST PUSH1 0x0 PUSH1 0x40 DUP3 ADD SWAP1 POP PUSH2 0x3117 PUSH1 0x0 DUP4 ADD DUP6 PUSH2 0x2A5A JUMP JUMPDEST PUSH2 0x3124 PUSH1 0x20 DUP4 ADD DUP5 PUSH2 0x2A84 JUMP JUMPDEST SWAP4 SWAP3 POP POP POP JUMP JUMPDEST PUSH1 0x0 PUSH2 0x3136 DUP3 PUSH2 0x2BA0 JUMP JUMPDEST SWAP1 POP SWAP2 SWAP1 POP JUMP JUMPDEST PUSH2 0x3146 DUP2 PUSH2 0x312B JUMP JUMPDEST DUP3 MSTORE POP POP JUMP JUMPDEST PUSH1 0x0 PUSH1 0x40 DUP3 ADD SWAP1 POP PUSH2 0x3161 PUSH1 0x0 DUP4 ADD DUP6 PUSH2 0x313D JUMP JUMPDEST PUSH2 0x316E PUSH1 0x20 DUP4 ADD DUP5 PUSH2 0x2A84 JUMP JUMPDEST SWAP4 SWAP3 POP POP POP JUMP JUMPDEST PUSH1 0x0 DUP2 SLOAD SWAP1 POP SWAP2 SWAP1 POP JUMP JUMPDEST PUSH1 0x0 DUP3 DUP3 MSTORE PUSH1 0x20 DUP3 ADD SWAP1 POP SWAP3 SWAP2 POP POP JUMP JUMPDEST PUSH1 0x0 DUP2 SWAP1 POP DUP2 PUSH1 0x0 MSTORE PUSH1 0x20 PUSH1 0x0 KECCAK256 SWAP1 POP SWAP2 SWAP1 POP JUMP JUMPDEST PUSH1 0x0 PUSH2 0x31B1 DUP3 PUSH2 0x290C JUMP JUMPDEST SWAP1 POP SWAP2 SWAP1 POP JUMP JUMPDEST PUSH2 0x31C1 DUP2 PUSH2 0x31A6 JUMP JUMPDEST DUP3 MSTORE POP POP JUMP JUMPDEST PUSH1 0x0 PUSH2 0x31D3 DUP4 DUP4 PUSH2 0x31B8 JUMP JUMPDEST PUSH1 0x20 DUP4 ADD SWAP1 POP SWAP3 SWAP2 POP POP JUMP JUMPDEST PUSH1 0x0 DUP2 PUSH1 0x0 SHR SWAP1 POP SWAP2 SWAP1 POP JUMP JUMPDEST PUSH1 0x0 PUSH20 0xFFFFFFFFFFFFFFFFFFFFFFFFFFFFFFFFFFFFFFFF DUP3 AND SWAP1 POP SWAP2 SWAP1 POP JUMP JUMPDEST PUSH1 0x0 PUSH2 0x321F PUSH2 0x321A DUP4 PUSH2 0x31DF JUMP JUMPDEST PUSH2 0x31EC JUMP JUMPDEST SWAP1 POP SWAP2 SWAP1 POP JUMP JUMPDEST PUSH1 0x0 PUSH2 0x3232 DUP3 SLOAD PUSH2 0x320C JUMP JUMPDEST SWAP1 POP SWAP2 SWAP1 POP JUMP JUMPDEST PUSH1 0x0 PUSH1 0x1 DUP3 ADD SWAP1 POP SWAP2 SWAP1 POP JUMP JUMPDEST PUSH1 0x0 PUSH2 0x3251 DUP3 PUSH2 0x3175 JUMP JUMPDEST PUSH2 0x325B DUP2 DUP6 PUSH2 0x3180 JUMP JUMPDEST SWAP4 POP PUSH2 0x3266 DUP4 PUSH2 0x3191 JUMP JUMPDEST DUP1 PUSH1 0x0 JUMPDEST DUP4 DUP2 LT ISZERO PUSH2 0x329E JUMPI PUSH2 0x327B DUP3 PUSH2 0x3226 JUMP JUMPDEST PUSH2 0x3285 DUP9 DUP3 PUSH2 0x31C7 JUMP JUMPDEST SWAP8 POP PUSH2 0x3290 DUP4 PUSH2 0x3239 JUMP JUMPDEST SWAP3 POP POP PUSH1 0x1 DUP2 ADD SWAP1 POP PUSH2 0x326A JUMP JUMPDEST POP DUP6 SWAP4 POP POP POP POP SWAP3 SWAP2 POP POP JUMP JUMPDEST PUSH1 0x0 PUSH1 0x80 DUP3 ADD SWAP1 POP PUSH2 0x32C0 PUSH1 0x0 DUP4 ADD DUP8 PUSH2 0x2A84 JUMP JUMPDEST PUSH2 0x32CD PUSH1 0x20 DUP4 ADD DUP7 PUSH2 0x2A84 JUMP JUMPDEST DUP2 DUP2 SUB PUSH1 0x40 DUP4 ADD MSTORE PUSH2 0x32DF DUP2 DUP6 PUSH2 0x3246 JUMP JUMPDEST SWAP1 POP PUSH2 0x32EE PUSH1 0x60 DUP4 ADD DUP5 PUSH2 0x2A84 JUMP JUMPDEST SWAP6 SWAP5 POP POP POP POP POP JUMP JUMPDEST PUSH1 0x0 PUSH2 0x3302 DUP3 PUSH2 0x29F7 JUMP JUMPDEST SWAP2 POP PUSH2 0x330D DUP4 PUSH2 0x29F7 JUMP JUMPDEST SWAP3 POP DUP3 PUSH2 0x331D JUMPI PUSH2 0x331C PUSH2 0x3048 JUMP JUMPDEST JUMPDEST DUP3 DUP3 DIV SWAP1 POP SWAP3 SWAP2 POP POP JUMP INVALID LOG2 PUSH5 0x6970667358 0x22 SLT KECCAK256 0xD7 0xEB 0xAC 0xB7 SWAP6 0xEA DUP10 NOT JUMP SHR 0xC9 0xD9 SWAP6 0xC0 0xDA SWAP1 SWAP13 0x4E PUSH15 0xAAA0C7510DA202518F938F876E6473 PUSH16 0x6C634300081000330000000000000000 "
				},
				"gasEstimates": {
					"creation": {
						"codeDepositCost": "2630000",
						"executionCost": "281156",
						"totalCost": "2911156"
					},
					"external": {
						"BusdInterface()": "infinite",
						"allWinner()": "infinite",
						"allWinner1()": "infinite",
						"allWinner2()": "infinite",
						"announceLottery()": "infinite",
						"announceLottery1()": "infinite",
						"announceLottery2()": "infinite",
						"getLottery1Length()": "2490",
						"getLottery2Length()": "2535",
						"getLotteryLength()": "2513",
						"howMany(address)": "infinite",
						"joinLottery(uint256)": "infinite",
						"joinLottery1(uint256)": "infinite",
						"joinLottery2(uint256)": "infinite",
						"lotteryBalance()": "infinite",
						"lotteryStarted()": "2561",
						"setMaximmNumbers(uint256)": "24780",
						"setMaximmNumbers1(uint256)": "24802",
						"setMaximmNumbers2(uint256)": "24736",
						"setTicketPrice(uint256)": "24781",
						"setTicketPrice1(uint256)": "24734",
						"setTicketPrice2(uint256)": "24778",
						"startLottery()": "26694",
						"tokenAddress()": "2560",
						"viewTicket()": "2505",
						"viewTicket1()": "2549",
						"viewTicket2()": "2548",
						"viewTicketPrice()": "2482",
						"viewTicketPrice1()": "2503",
						"viewTicketPrice2()": "2526",
						"winnerLottery(uint256)": "5066",
						"winnerLottery1(uint256)": "5002",
						"winnerLottery2(uint256)": "5067"
					},
					"internal": {
						"pickwinner()": "infinite",
						"pickwinner1()": "infinite",
						"pickwinner2()": "infinite",
						"random()": "infinite"
					}
				},
				"methodIdentifiers": {
					"BusdInterface()": "b6fa5dfd",
					"allWinner()": "a7e9f0d1",
					"allWinner1()": "d521cf2a",
					"allWinner2()": "13002437",
					"announceLottery()": "f77f15b5",
					"announceLottery1()": "013fc0ab",
					"announceLottery2()": "be69d7ff",
					"getLottery1Length()": "a46eeb75",
					"getLottery2Length()": "a0a7bda8",
					"getLotteryLength()": "576aaa2b",
					"howMany(address)": "602977ad",
					"joinLottery(uint256)": "7eee9fc1",
					"joinLottery1(uint256)": "ce5f6b9f",
					"joinLottery2(uint256)": "3631ef4a",
					"lotteryBalance()": "b2288649",
					"lotteryStarted()": "5a3811b9",
					"setMaximmNumbers(uint256)": "3fc7adb6",
					"setMaximmNumbers1(uint256)": "4ba35125",
					"setMaximmNumbers2(uint256)": "17c6332c",
					"setTicketPrice(uint256)": "15981650",
					"setTicketPrice1(uint256)": "e437239f",
					"setTicketPrice2(uint256)": "f0c30e95",
					"startLottery()": "160344e2",
					"tokenAddress()": "9d76ea58",
					"viewTicket()": "9ec80702",
					"viewTicket1()": "a308761a",
					"viewTicket2()": "db486929",
					"viewTicketPrice()": "636ad6a6",
					"viewTicketPrice1()": "ea6b0480",
					"viewTicketPrice2()": "8644024b",
					"winnerLottery(uint256)": "f19e8d86",
					"winnerLottery1(uint256)": "56e0bd36",
					"winnerLottery2(uint256)": "890d542f"
				}
			},
			"storageLayout": {
				"storage": [
					{
						"astId": 379,
						"contract": "WatermelonBUSDLottery.sol:WatermelonBUSDLottery",
						"label": "locked",
						"offset": 0,
						"slot": "0",
						"type": "t_bool"
					},
					{
						"astId": 403,
						"contract": "WatermelonBUSDLottery.sol:WatermelonBUSDLottery",
						"label": "wmlnBusd",
						"offset": 1,
						"slot": "0",
						"type": "t_address"
					},
					{
						"astId": 406,
						"contract": "WatermelonBUSDLottery.sol:WatermelonBUSDLottery",
						"label": "fee",
						"offset": 0,
						"slot": "1",
						"type": "t_uint256"
					},
					{
						"astId": 408,
						"contract": "WatermelonBUSDLottery.sol:WatermelonBUSDLottery",
						"label": "owner",
						"offset": 0,
						"slot": "2",
						"type": "t_address"
					},
					{
						"astId": 410,
						"contract": "WatermelonBUSDLottery.sol:WatermelonBUSDLottery",
						"label": "maxParticipantNumbers",
						"offset": 0,
						"slot": "3",
						"type": "t_uint256"
					},
					{
						"astId": 412,
						"contract": "WatermelonBUSDLottery.sol:WatermelonBUSDLottery",
						"label": "participantNumbers",
						"offset": 0,
						"slot": "4",
						"type": "t_uint256"
					},
					{
						"astId": 414,
						"contract": "WatermelonBUSDLottery.sol:WatermelonBUSDLottery",
						"label": "ticketPrice",
						"offset": 0,
						"slot": "5",
						"type": "t_uint256"
					},
					{
						"astId": 417,
						"contract": "WatermelonBUSDLottery.sol:WatermelonBUSDLottery",
						"label": "participants",
						"offset": 0,
						"slot": "6",
						"type": "t_array(t_address_payable)dyn_storage"
					},
					{
						"astId": 419,
						"contract": "WatermelonBUSDLottery.sol:WatermelonBUSDLottery",
						"label": "maxParticipantNumbers1",
						"offset": 0,
						"slot": "7",
						"type": "t_uint256"
					},
					{
						"astId": 421,
						"contract": "WatermelonBUSDLottery.sol:WatermelonBUSDLottery",
						"label": "participantNumbers1",
						"offset": 0,
						"slot": "8",
						"type": "t_uint256"
					},
					{
						"astId": 423,
						"contract": "WatermelonBUSDLottery.sol:WatermelonBUSDLottery",
						"label": "ticketPrice1",
						"offset": 0,
						"slot": "9",
						"type": "t_uint256"
					},
					{
						"astId": 426,
						"contract": "WatermelonBUSDLottery.sol:WatermelonBUSDLottery",
						"label": "participants1",
						"offset": 0,
						"slot": "10",
						"type": "t_array(t_address_payable)dyn_storage"
					},
					{
						"astId": 428,
						"contract": "WatermelonBUSDLottery.sol:WatermelonBUSDLottery",
						"label": "maxParticipantNumbers2",
						"offset": 0,
						"slot": "11",
						"type": "t_uint256"
					},
					{
						"astId": 430,
						"contract": "WatermelonBUSDLottery.sol:WatermelonBUSDLottery",
						"label": "participantNumbers2",
						"offset": 0,
						"slot": "12",
						"type": "t_uint256"
					},
					{
						"astId": 432,
						"contract": "WatermelonBUSDLottery.sol:WatermelonBUSDLottery",
						"label": "ticketPrice2",
						"offset": 0,
						"slot": "13",
						"type": "t_uint256"
					},
					{
						"astId": 435,
						"contract": "WatermelonBUSDLottery.sol:WatermelonBUSDLottery",
						"label": "participants2",
						"offset": 0,
						"slot": "14",
						"type": "t_array(t_address_payable)dyn_storage"
					},
					{
						"astId": 438,
						"contract": "WatermelonBUSDLottery.sol:WatermelonBUSDLottery",
						"label": "lotteryStarted",
						"offset": 0,
						"slot": "15",
						"type": "t_bool"
					},
					{
						"astId": 441,
						"contract": "WatermelonBUSDLottery.sol:WatermelonBUSDLottery",
						"label": "winnerLottery",
						"offset": 0,
						"slot": "16",
						"type": "t_array(t_address)dyn_storage"
					},
					{
						"astId": 444,
						"contract": "WatermelonBUSDLottery.sol:WatermelonBUSDLottery",
						"label": "winnerLottery1",
						"offset": 0,
						"slot": "17",
						"type": "t_array(t_address)dyn_storage"
					},
					{
						"astId": 447,
						"contract": "WatermelonBUSDLottery.sol:WatermelonBUSDLottery",
						"label": "winnerLottery2",
						"offset": 0,
						"slot": "18",
						"type": "t_array(t_address)dyn_storage"
					},
					{
						"astId": 449,
						"contract": "WatermelonBUSDLottery.sol:WatermelonBUSDLottery",
						"label": "tokenAddress",
						"offset": 0,
						"slot": "19",
						"type": "t_address"
					},
					{
						"astId": 452,
						"contract": "WatermelonBUSDLottery.sol:WatermelonBUSDLottery",
						"label": "BusdInterface",
						"offset": 0,
						"slot": "20",
						"type": "t_contract(IERC20)68"
					}
				],
				"types": {
					"t_address": {
						"encoding": "inplace",
						"label": "address",
						"numberOfBytes": "20"
					},
					"t_address_payable": {
						"encoding": "inplace",
						"label": "address payable",
						"numberOfBytes": "20"
					},
					"t_array(t_address)dyn_storage": {
						"base": "t_address",
						"encoding": "dynamic_array",
						"label": "address[]",
						"numberOfBytes": "32"
					},
					"t_array(t_address_payable)dyn_storage": {
						"base": "t_address_payable",
						"encoding": "dynamic_array",
						"label": "address payable[]",
						"numberOfBytes": "32"
					},
					"t_bool": {
						"encoding": "inplace",
						"label": "bool",
						"numberOfBytes": "1"
					},
					"t_contract(IERC20)68": {
						"encoding": "inplace",
						"label": "contract IERC20",
						"numberOfBytes": "20"
					},
					"t_uint256": {
						"encoding": "inplace",
						"label": "uint256",
						"numberOfBytes": "32"
					}
				}
			},
			"userdoc": {
				"kind": "user",
				"methods": {},
				"version": 1
			}
		}
	}
}