{
	"WatermelonBUSDDice.sol": {
		"WatermelonBUSDDice": {
			"abi": [
				{
					"inputs": [],
					"stateMutability": "nonpayable",
					"type": "constructor"
				},
				{
					"inputs": [
						{
							"internalType": "address",
							"name": "have",
							"type": "address"
						},
						{
							"internalType": "address",
							"name": "want",
							"type": "address"
						}
					],
					"name": "OnlyCoordinatorCanFulfill",
					"type": "error"
				},
				{
					"inputs": [],
					"name": "VRFv2SubscriptionManagerAddress",
					"outputs": [
						{
							"internalType": "address",
							"name": "",
							"type": "address"
						}
					],
					"stateMutability": "view",
					"type": "function"
				},
				{
					"inputs": [
						{
							"internalType": "uint256",
							"name": "_amount",
							"type": "uint256"
						}
					],
					"name": "betDown",
					"outputs": [],
					"stateMutability": "nonpayable",
					"type": "function"
				},
				{
					"inputs": [
						{
							"internalType": "uint256",
							"name": "_amount",
							"type": "uint256"
						}
					],
					"name": "betUp",
					"outputs": [],
					"stateMutability": "nonpayable",
					"type": "function"
				},
				{
					"inputs": [
						{
							"internalType": "uint256",
							"name": "",
							"type": "uint256"
						}
					],
					"name": "betValue",
					"outputs": [
						{
							"internalType": "uint256",
							"name": "",
							"type": "uint256"
						}
					],
					"stateMutability": "view",
					"type": "function"
				},
				{
					"inputs": [],
					"name": "busdAddress",
					"outputs": [
						{
							"internalType": "address",
							"name": "",
							"type": "address"
						}
					],
					"stateMutability": "view",
					"type": "function"
				},
				{
					"inputs": [],
					"name": "claimWinnings",
					"outputs": [],
					"stateMutability": "nonpayable",
					"type": "function"
				},
				{
					"inputs": [],
					"name": "fundChainlinkSubscription",
					"outputs": [],
					"stateMutability": "nonpayable",
					"type": "function"
				},
				{
					"inputs": [],
					"name": "getBets",
					"outputs": [
						{
							"components": [
								{
									"internalType": "uint256",
									"name": "requestId",
									"type": "uint256"
								},
								{
									"internalType": "uint256",
									"name": "amount",
									"type": "uint256"
								},
								{
									"internalType": "uint256",
									"name": "bet",
									"type": "uint256"
								},
								{
									"internalType": "uint256",
									"name": "dice1Result",
									"type": "uint256"
								},
								{
									"internalType": "uint256",
									"name": "dice2Result",
									"type": "uint256"
								},
								{
									"internalType": "bool",
									"name": "isWon",
									"type": "bool"
								},
								{
									"internalType": "uint256",
									"name": "createdTime",
									"type": "uint256"
								}
							],
							"internalType": "struct WatermelonBUSDDice.Bet[]",
							"name": "",
							"type": "tuple[]"
						}
					],
					"stateMutability": "view",
					"type": "function"
				},
				{
					"inputs": [],
					"name": "getMaxBetAmount",
					"outputs": [
						{
							"internalType": "uint256",
							"name": "",
							"type": "uint256"
						}
					],
					"stateMutability": "view",
					"type": "function"
				},
				{
					"inputs": [],
					"name": "getResult",
					"outputs": [
						{
							"internalType": "uint256",
							"name": "",
							"type": "uint256"
						},
						{
							"internalType": "uint256",
							"name": "",
							"type": "uint256"
						},
						{
							"internalType": "bool",
							"name": "",
							"type": "bool"
						}
					],
					"stateMutability": "view",
					"type": "function"
				},
				{
					"inputs": [
						{
							"internalType": "address",
							"name": "_address",
							"type": "address"
						}
					],
					"name": "getResultByAddress",
					"outputs": [
						{
							"internalType": "uint256",
							"name": "",
							"type": "uint256"
						},
						{
							"internalType": "uint256",
							"name": "",
							"type": "uint256"
						},
						{
							"internalType": "bool",
							"name": "",
							"type": "bool"
						}
					],
					"stateMutability": "view",
					"type": "function"
				},
				{
					"inputs": [],
					"name": "getRoundStatus",
					"outputs": [
						{
							"internalType": "bool",
							"name": "",
							"type": "bool"
						}
					],
					"stateMutability": "view",
					"type": "function"
				},
				{
					"inputs": [
						{
							"internalType": "address",
							"name": "_address",
							"type": "address"
						}
					],
					"name": "getRoundStatusByAddress",
					"outputs": [
						{
							"internalType": "bool",
							"name": "",
							"type": "bool"
						}
					],
					"stateMutability": "view",
					"type": "function"
				},
				{
					"inputs": [],
					"name": "getTotalFees",
					"outputs": [
						{
							"internalType": "uint256",
							"name": "",
							"type": "uint256"
						}
					],
					"stateMutability": "view",
					"type": "function"
				},
				{
					"inputs": [],
					"name": "getVRFsubscriptionBalance",
					"outputs": [
						{
							"internalType": "uint256",
							"name": "",
							"type": "uint256"
						}
					],
					"stateMutability": "view",
					"type": "function"
				},
				{
					"inputs": [],
					"name": "injectBNB",
					"outputs": [],
					"stateMutability": "payable",
					"type": "function"
				},
				{
					"inputs": [
						{
							"internalType": "uint256",
							"name": "_amount",
							"type": "uint256"
						}
					],
					"name": "injectBUSD",
					"outputs": [],
					"stateMutability": "payable",
					"type": "function"
				},
				{
					"inputs": [],
					"name": "maxBetPercentage",
					"outputs": [
						{
							"internalType": "uint256",
							"name": "",
							"type": "uint256"
						}
					],
					"stateMutability": "view",
					"type": "function"
				},
				{
					"inputs": [],
					"name": "minBetAmount",
					"outputs": [
						{
							"internalType": "uint256",
							"name": "",
							"type": "uint256"
						}
					],
					"stateMutability": "view",
					"type": "function"
				},
				{
					"inputs": [],
					"name": "minChainlinkBalance",
					"outputs": [
						{
							"internalType": "uint256",
							"name": "",
							"type": "uint256"
						}
					],
					"stateMutability": "view",
					"type": "function"
				},
				{
					"inputs": [],
					"name": "minerFees",
					"outputs": [
						{
							"internalType": "uint256",
							"name": "",
							"type": "uint256"
						}
					],
					"stateMutability": "view",
					"type": "function"
				},
				{
					"inputs": [],
					"name": "minerWalletBalance",
					"outputs": [
						{
							"internalType": "uint256",
							"name": "",
							"type": "uint256"
						}
					],
					"stateMutability": "view",
					"type": "function"
				},
				{
					"inputs": [],
					"name": "owner",
					"outputs": [
						{
							"internalType": "address",
							"name": "",
							"type": "address"
						}
					],
					"stateMutability": "view",
					"type": "function"
				},
				{
					"inputs": [],
					"name": "pauseContract",
					"outputs": [],
					"stateMutability": "nonpayable",
					"type": "function"
				},
				{
					"inputs": [],
					"name": "paused",
					"outputs": [
						{
							"internalType": "bool",
							"name": "",
							"type": "bool"
						}
					],
					"stateMutability": "view",
					"type": "function"
				},
				{
					"inputs": [
						{
							"internalType": "address",
							"name": "",
							"type": "address"
						}
					],
					"name": "playerCurrentResult1",
					"outputs": [
						{
							"internalType": "uint256",
							"name": "",
							"type": "uint256"
						}
					],
					"stateMutability": "view",
					"type": "function"
				},
				{
					"inputs": [
						{
							"internalType": "address",
							"name": "",
							"type": "address"
						}
					],
					"name": "playerCurrentResult2",
					"outputs": [
						{
							"internalType": "uint256",
							"name": "",
							"type": "uint256"
						}
					],
					"stateMutability": "view",
					"type": "function"
				},
				{
					"inputs": [
						{
							"internalType": "address",
							"name": "",
							"type": "address"
						}
					],
					"name": "playerTotalBets",
					"outputs": [
						{
							"internalType": "uint256",
							"name": "",
							"type": "uint256"
						}
					],
					"stateMutability": "view",
					"type": "function"
				},
				{
					"inputs": [
						{
							"internalType": "address",
							"name": "",
							"type": "address"
						}
					],
					"name": "playerTotalLost",
					"outputs": [
						{
							"internalType": "uint256",
							"name": "",
							"type": "uint256"
						}
					],
					"stateMutability": "view",
					"type": "function"
				},
				{
					"inputs": [
						{
							"internalType": "address",
							"name": "",
							"type": "address"
						}
					],
					"name": "playerTotalWinnings",
					"outputs": [
						{
							"internalType": "uint256",
							"name": "",
							"type": "uint256"
						}
					],
					"stateMutability": "view",
					"type": "function"
				},
				{
					"inputs": [
						{
							"internalType": "uint256",
							"name": "requestId",
							"type": "uint256"
						},
						{
							"internalType": "uint256[]",
							"name": "randomWords",
							"type": "uint256[]"
						}
					],
					"name": "rawFulfillRandomWords",
					"outputs": [],
					"stateMutability": "nonpayable",
					"type": "function"
				},
				{
					"inputs": [],
					"name": "renounceOwnership",
					"outputs": [],
					"stateMutability": "nonpayable",
					"type": "function"
				},
				{
					"inputs": [
						{
							"internalType": "uint256",
							"name": "",
							"type": "uint256"
						}
					],
					"name": "requesterAddress",
					"outputs": [
						{
							"internalType": "address",
							"name": "",
							"type": "address"
						}
					],
					"stateMutability": "view",
					"type": "function"
				},
				{
					"inputs": [
						{
							"internalType": "address",
							"name": "",
							"type": "address"
						}
					],
					"name": "roundStatus",
					"outputs": [
						{
							"internalType": "bool",
							"name": "",
							"type": "bool"
						}
					],
					"stateMutability": "view",
					"type": "function"
				},
				{
					"inputs": [
						{
							"internalType": "uint256",
							"name": "",
							"type": "uint256"
						}
					],
					"name": "s_randomWords",
					"outputs": [
						{
							"internalType": "uint256",
							"name": "",
							"type": "uint256"
						}
					],
					"stateMutability": "view",
					"type": "function"
				},
				{
					"inputs": [],
					"name": "s_requestId",
					"outputs": [
						{
							"internalType": "uint256",
							"name": "",
							"type": "uint256"
						}
					],
					"stateMutability": "view",
					"type": "function"
				},
				{
					"inputs": [
						{
							"internalType": "uint32",
							"name": "_callbackGasLimit",
							"type": "uint32"
						}
					],
					"name": "setCallbackGasLimit",
					"outputs": [],
					"stateMutability": "nonpayable",
					"type": "function"
				},
				{
					"inputs": [
						{
							"internalType": "bytes32",
							"name": "_keyHash",
							"type": "bytes32"
						}
					],
					"name": "setKeyHash",
					"outputs": [],
					"stateMutability": "nonpayable",
					"type": "function"
				},
				{
					"inputs": [
						{
							"internalType": "uint256",
							"name": "_maxBetPercentage",
							"type": "uint256"
						}
					],
					"name": "setMaxBetPercentage",
					"outputs": [],
					"stateMutability": "nonpayable",
					"type": "function"
				},
				{
					"inputs": [
						{
							"internalType": "uint256",
							"name": "_minBetAmount",
							"type": "uint256"
						}
					],
					"name": "setMinBetValue",
					"outputs": [],
					"stateMutability": "nonpayable",
					"type": "function"
				},
				{
					"inputs": [
						{
							"internalType": "uint256",
							"name": "_minChainlinkBalance",
							"type": "uint256"
						}
					],
					"name": "setMinChainlinkBalance",
					"outputs": [],
					"stateMutability": "nonpayable",
					"type": "function"
				},
				{
					"inputs": [
						{
							"internalType": "uint256",
							"name": "_minerFees",
							"type": "uint256"
						}
					],
					"name": "setMinerFees",
					"outputs": [],
					"stateMutability": "nonpayable",
					"type": "function"
				},
				{
					"inputs": [
						{
							"internalType": "uint64",
							"name": "_setSubscriptionId",
							"type": "uint64"
						}
					],
					"name": "setSubscriptionId",
					"outputs": [],
					"stateMutability": "nonpayable",
					"type": "function"
				},
				{
					"inputs": [
						{
							"internalType": "address",
							"name": "_VRFv2SubscriptionManagerAddress",
							"type": "address"
						}
					],
					"name": "setVRFv2SubscriptionManagerAddress",
					"outputs": [],
					"stateMutability": "nonpayable",
					"type": "function"
				},
				{
					"inputs": [],
					"name": "totalBets",
					"outputs": [
						{
							"internalType": "uint256",
							"name": "",
							"type": "uint256"
						}
					],
					"stateMutability": "view",
					"type": "function"
				},
				{
					"inputs": [],
					"name": "totalBetsLost",
					"outputs": [
						{
							"internalType": "uint256",
							"name": "",
							"type": "uint256"
						}
					],
					"stateMutability": "view",
					"type": "function"
				},
				{
					"inputs": [],
					"name": "totalBetsWon",
					"outputs": [
						{
							"internalType": "uint256",
							"name": "",
							"type": "uint256"
						}
					],
					"stateMutability": "view",
					"type": "function"
				},
				{
					"inputs": [],
					"name": "totalWinnings",
					"outputs": [
						{
							"internalType": "uint256",
							"name": "",
							"type": "uint256"
						}
					],
					"stateMutability": "view",
					"type": "function"
				},
				{
					"inputs": [
						{
							"internalType": "address",
							"name": "_newOwner",
							"type": "address"
						}
					],
					"name": "transferOwnership",
					"outputs": [],
					"stateMutability": "nonpayable",
					"type": "function"
				},
				{
					"inputs": [
						{
							"internalType": "address",
							"name": "",
							"type": "address"
						}
					],
					"name": "unclaimedWinning",
					"outputs": [
						{
							"internalType": "uint256",
							"name": "",
							"type": "uint256"
						}
					],
					"stateMutability": "view",
					"type": "function"
				},
				{
					"inputs": [],
					"name": "unpauseContract",
					"outputs": [],
					"stateMutability": "nonpayable",
					"type": "function"
				},
				{
					"inputs": [
						{
							"internalType": "address",
							"name": "",
							"type": "address"
						}
					],
					"name": "userBet",
					"outputs": [
						{
							"internalType": "uint256",
							"name": "",
							"type": "uint256"
						}
					],
					"stateMutability": "view",
					"type": "function"
				},
				{
					"inputs": [
						{
							"internalType": "address",
							"name": "",
							"type": "address"
						},
						{
							"internalType": "uint256",
							"name": "",
							"type": "uint256"
						}
					],
					"name": "userBets",
					"outputs": [
						{
							"internalType": "uint256",
							"name": "requestId",
							"type": "uint256"
						},
						{
							"internalType": "uint256",
							"name": "amount",
							"type": "uint256"
						},
						{
							"internalType": "uint256",
							"name": "bet",
							"type": "uint256"
						},
						{
							"internalType": "uint256",
							"name": "dice1Result",
							"type": "uint256"
						},
						{
							"internalType": "uint256",
							"name": "dice2Result",
							"type": "uint256"
						},
						{
							"internalType": "bool",
							"name": "isWon",
							"type": "bool"
						},
						{
							"internalType": "uint256",
							"name": "createdTime",
							"type": "uint256"
						}
					],
					"stateMutability": "view",
					"type": "function"
				},
				{
					"inputs": [
						{
							"internalType": "address",
							"name": "",
							"type": "address"
						}
					],
					"name": "userLostBalance",
					"outputs": [
						{
							"internalType": "uint256",
							"name": "",
							"type": "uint256"
						}
					],
					"stateMutability": "view",
					"type": "function"
				},
				{
					"inputs": [],
					"name": "withdrawBNB",
					"outputs": [],
					"stateMutability": "nonpayable",
					"type": "function"
				},
				{
					"inputs": [],
					"name": "withdrawBUSD",
					"outputs": [],
					"stateMutability": "nonpayable",
					"type": "function"
				},
				{
					"inputs": [],
					"name": "wmlnAddress",
					"outputs": [
						{
							"internalType": "address",
							"name": "",
							"type": "address"
						}
					],
					"stateMutability": "view",
					"type": "function"
				},
				{
					"stateMutability": "payable",
					"type": "receive"
				}
			],
			"devdoc": {
				"kind": "dev",
				"methods": {},
				"version": 1
			},
			"evm": {
				"assembly": "    /* \"WatermelonBUSDDice.sol\":3342:14770  contract WatermelonBUSDDice is VRFConsumerBaseV2, ReentrancyGuard {... */\n  mstore(0x40, 0xa0)\n    /* \"WatermelonBUSDDice.sol\":3509:3551  0xc587d9053cd1118f25F645F9E08BB98c9712A4EE */\n  0xc587d9053cd1118f25f645f9e08bb98c9712a4ee\n    /* \"WatermelonBUSDDice.sol\":3483:3551  address vrfCoordinator = \t0xc587d9053cd1118f25F645F9E08BB98c9712A4EE */\n  0x02\n  exp(0x0100, 0x00)\n  dup2\n  sload\n  dup2\n  0xffffffffffffffffffffffffffffffffffffffff\n  mul\n  not\n  and\n  swap1\n  dup4\n  0xffffffffffffffffffffffffffffffffffffffff\n  and\n  mul\n  or\n  swap1\n  sstore\n  pop\n    /* \"WatermelonBUSDDice.sol\":3573:3639  0x114f3da0a805b6a67d6e9cd2ec746f7028f1b7376365af575cfea3550dd1aa04 */\n  0x114f3da0a805b6a67d6e9cd2ec746f7028f1b7376365af575cfea3550dd1aa04\n    /* \"WatermelonBUSDDice.sol\":3555:3639  bytes32 keyHash = 0x114f3da0a805b6a67d6e9cd2ec746f7028f1b7376365af575cfea3550dd1aa04 */\n  0x00\n  shl\n  0x03\n  sstore\n    /* \"WatermelonBUSDDice.sol\":3669:3676  2500000 */\n  0x2625a0\n    /* \"WatermelonBUSDDice.sol\":3643:3676  uint32 callbackGasLimit = 2500000 */\n  0x04\n  exp(0x0100, 0x00)\n  dup2\n  sload\n  dup2\n  0xffffffff\n  mul\n  not\n  and\n  swap1\n  dup4\n  0xffffffff\n  and\n  mul\n  or\n  swap1\n  sstore\n  pop\n    /* \"WatermelonBUSDDice.sol\":3710:3711  3 */\n  0x03\n    /* \"WatermelonBUSDDice.sol\":3680:3711  uint16 requestConfirmations = 3 */\n  0x04\n  dup1\n  0x0100\n  exp\n  dup2\n  sload\n  dup2\n  0xffff\n  mul\n  not\n  and\n  swap1\n  dup4\n  0xffff\n  and\n  mul\n  or\n  swap1\n  sstore\n  pop\n    /* \"WatermelonBUSDDice.sol\":3734:3735  2 */\n  0x02\n    /* \"WatermelonBUSDDice.sol\":3715:3735  uint32 numWords =  2 */\n  0x04\n  exp(0x0100, 0x06)\n  dup2\n  sload\n  dup2\n  0xffffffff\n  mul\n  not\n  and\n  swap1\n  dup4\n  0xffffffff\n  and\n  mul\n  or\n  swap1\n  sstore\n  pop\n    /* \"WatermelonBUSDDice.sol\":4017:4028  0.001 ether */\n  0x038d7ea4c68000\n    /* \"WatermelonBUSDDice.sol\":3987:4028  uint256 public minBetAmount = 0.001 ether */\n  0x0d\n  sstore\n    /* \"WatermelonBUSDDice.sol\":4078:4085  5 ether */\n  0x4563918244f40000\n    /* \"WatermelonBUSDDice.sol\":4041:4085  uint256 public minChainlinkBalance = 5 ether */\n  0x0e\n  sstore\n    /* \"WatermelonBUSDDice.sol\":5209:5214  false */\n  0x00\n    /* \"WatermelonBUSDDice.sol\":5188:5214  bool public paused = false */\n  0x29\n  exp(0x0100, 0x14)\n  dup2\n  sload\n  dup2\n  0xff\n  mul\n  not\n  and\n  swap1\n  dup4\n  iszero\n  iszero\n  mul\n  or\n  swap1\n  sstore\n  pop\n    /* \"WatermelonBUSDDice.sol\":5219:5816  constructor() VRFConsumerBaseV2(vrfCoordinator) {... */\n  callvalue\n  dup1\n  iszero\n  tag_1\n  jumpi\n  0x00\n  dup1\n  revert\ntag_1:\n  pop\n    /* \"WatermelonBUSDDice.sol\":5251:5265  vrfCoordinator */\n  0x02\n  0x00\n  swap1\n  sload\n  swap1\n  0x0100\n  exp\n  swap1\n  div\n  0xffffffffffffffffffffffffffffffffffffffff\n  and\n    /* \"WatermelonBUSDDice.sol\":328:343  _vrfCoordinator */\n  dup1\n    /* \"WatermelonBUSDDice.sol\":311:343  vrfCoordinator = _vrfCoordinator */\n  0xffffffffffffffffffffffffffffffffffffffff\n  and\n  0x80\n  dup2\n  0xffffffffffffffffffffffffffffffffffffffff\n  and\n  dup2\n  mstore\n  pop\n  pop\n    /* \"WatermelonBUSDDice.sol\":268:348  constructor(address _vrfCoordinator) {... */\n  pop\n    /* \"WatermelonBUSDDice.sol\":2020:2021  1 */\n  0x01\n    /* \"WatermelonBUSDDice.sol\":2124:2131  _status */\n  0x00\n    /* \"WatermelonBUSDDice.sol\":2124:2146  _status = _NOT_ENTERED */\n  dup2\n  swap1\n  sstore\n  pop\n    /* \"WatermelonBUSDDice.sol\":5286:5296  msg.sender */\n  caller\n    /* \"WatermelonBUSDDice.sol\":5278:5283  owner */\n  0x29\n  0x00\n    /* \"WatermelonBUSDDice.sol\":5278:5296  owner = msg.sender */\n  0x0100\n  exp\n  dup2\n  sload\n  dup2\n  0xffffffffffffffffffffffffffffffffffffffff\n  mul\n  not\n  and\n  swap1\n  dup4\n  0xffffffffffffffffffffffffffffffffffffffff\n  and\n  mul\n  or\n  swap1\n  sstore\n  pop\n    /* \"WatermelonBUSDDice.sol\":5336:5378  0x9bF951013034E3f690196Df8477450675d140b29 */\n  0x9bf951013034e3f690196df8477450675d140b29\n    /* \"WatermelonBUSDDice.sol\":5302:5333  VRFv2SubscriptionManagerAddress */\n  0x25\n  0x00\n    /* \"WatermelonBUSDDice.sol\":5302:5378  VRFv2SubscriptionManagerAddress = 0x9bF951013034E3f690196Df8477450675d140b29 */\n  0x0100\n  exp\n  dup2\n  sload\n  dup2\n  0xffffffffffffffffffffffffffffffffffffffff\n  mul\n  not\n  and\n  swap1\n  dup4\n  0xffffffffffffffffffffffffffffffffffffffff\n  and\n  mul\n  or\n  swap1\n  sstore\n  pop\n    /* \"WatermelonBUSDDice.sol\":5398:5440  0xEBFDF7A84eB1DD651663782802A818ce36F3e18A */\n  0xebfdf7a84eb1dd651663782802a818ce36f3e18a\n    /* \"WatermelonBUSDDice.sol\":5384:5395  wmlnAddress */\n  0x24\n  0x00\n    /* \"WatermelonBUSDDice.sol\":5384:5440  wmlnAddress = 0xEBFDF7A84eB1DD651663782802A818ce36F3e18A */\n  0x0100\n  exp\n  dup2\n  sload\n  dup2\n  0xffffffffffffffffffffffffffffffffffffffff\n  mul\n  not\n  and\n  swap1\n  dup4\n  0xffffffffffffffffffffffffffffffffffffffff\n  and\n  mul\n  or\n  swap1\n  sstore\n  pop\n    /* \"WatermelonBUSDDice.sol\":5460:5502  0xe9e7CEA3DedcA5984780Bafc599bD69ADd087D56 */\n  0xe9e7cea3dedca5984780bafc599bd69add087d56\n    /* \"WatermelonBUSDDice.sol\":5446:5457  busdAddress */\n  0x26\n  0x00\n    /* \"WatermelonBUSDDice.sol\":5446:5502  busdAddress = 0xe9e7CEA3DedcA5984780Bafc599bD69ADd087D56 */\n  0x0100\n  exp\n  dup2\n  sload\n  dup2\n  0xffffffffffffffffffffffffffffffffffffffff\n  mul\n  not\n  and\n  swap1\n  dup4\n  0xffffffffffffffffffffffffffffffffffffffff\n  and\n  mul\n  or\n  swap1\n  sstore\n  pop\n    /* \"WatermelonBUSDDice.sol\":5527:5538  busdAddress */\n  0x26\n  0x00\n  swap1\n  sload\n  swap1\n  0x0100\n  exp\n  swap1\n  div\n  0xffffffffffffffffffffffffffffffffffffffff\n  and\n    /* \"WatermelonBUSDDice.sol\":5508:5517  busdToken */\n  0x27\n  0x00\n    /* \"WatermelonBUSDDice.sol\":5508:5539  busdToken = IERC20(busdAddress) */\n  0x0100\n  exp\n  dup2\n  sload\n  dup2\n  0xffffffffffffffffffffffffffffffffffffffff\n  mul\n  not\n  and\n  swap1\n  dup4\n  0xffffffffffffffffffffffffffffffffffffffff\n  and\n  mul\n  or\n  swap1\n  sstore\n  pop\n    /* \"WatermelonBUSDDice.sol\":5585:5599  vrfCoordinator */\n  0x02\n  0x00\n  swap1\n  sload\n  swap1\n  0x0100\n  exp\n  swap1\n  div\n  0xffffffffffffffffffffffffffffffffffffffff\n  and\n    /* \"WatermelonBUSDDice.sol\":5545:5556  COORDINATOR */\n  0x01\n  0x00\n    /* \"WatermelonBUSDDice.sol\":5545:5600  COORDINATOR = VRFCoordinatorV2Interface(vrfCoordinator) */\n  0x0100\n  exp\n  dup2\n  sload\n  dup2\n  0xffffffffffffffffffffffffffffffffffffffff\n  mul\n  not\n  and\n  swap1\n  dup4\n  0xffffffffffffffffffffffffffffffffffffffff\n  and\n  mul\n  or\n  swap1\n  sstore\n  pop\n    /* \"WatermelonBUSDDice.sol\":5616:5626  msg.sender */\n  caller\n    /* \"WatermelonBUSDDice.sol\":5606:5613  s_owner */\n  0x07\n  0x00\n    /* \"WatermelonBUSDDice.sol\":5606:5626  s_owner = msg.sender */\n  0x0100\n  exp\n  dup2\n  sload\n  dup2\n  0xffffffffffffffffffffffffffffffffffffffff\n  mul\n  not\n  and\n  swap1\n  dup4\n  0xffffffffffffffffffffffffffffffffffffffff\n  and\n  mul\n  or\n  swap1\n  sstore\n  pop\n    /* \"WatermelonBUSDDice.sol\":5632:5699  setVRFv2SubscriptionManagerAddress(VRFv2SubscriptionManagerAddress) */\n  tag_8\n    /* \"WatermelonBUSDDice.sol\":5667:5698  VRFv2SubscriptionManagerAddress */\n  0x25\n  0x00\n  swap1\n  sload\n  swap1\n  0x0100\n  exp\n  swap1\n  div\n  0xffffffffffffffffffffffffffffffffffffffff\n  and\n    /* \"WatermelonBUSDDice.sol\":5632:5666  setVRFv2SubscriptionManagerAddress */\n  shl(0x20, tag_9)\n    /* \"WatermelonBUSDDice.sol\":5632:5699  setVRFv2SubscriptionManagerAddress(VRFv2SubscriptionManagerAddress) */\n  0x20\n  shr\n  jump\t// in\ntag_8:\n    /* \"WatermelonBUSDDice.sol\":5705:5727  setSubscriptionId(441) */\n  tag_10\n    /* \"WatermelonBUSDDice.sol\":5723:5726  441 */\n  0x01b9\n    /* \"WatermelonBUSDDice.sol\":5705:5722  setSubscriptionId */\n  shl(0x20, tag_11)\n    /* \"WatermelonBUSDDice.sol\":5705:5727  setSubscriptionId(441) */\n  0x20\n  shr\n  jump\t// in\ntag_10:\n    /* \"WatermelonBUSDDice.sol\":5733:5749  setMinerFees(10) */\n  tag_12\n    /* \"WatermelonBUSDDice.sol\":5746:5748  10 */\n  0x0a\n    /* \"WatermelonBUSDDice.sol\":5733:5745  setMinerFees */\n  shl(0x20, tag_13)\n    /* \"WatermelonBUSDDice.sol\":5733:5749  setMinerFees(10) */\n  0x20\n  shr\n  jump\t// in\ntag_12:\n    /* \"WatermelonBUSDDice.sol\":5755:5782  setMinBetValue(0.001 ether) */\n  tag_14\n    /* \"WatermelonBUSDDice.sol\":5770:5781  0.001 ether */\n  0x038d7ea4c68000\n    /* \"WatermelonBUSDDice.sol\":5755:5769  setMinBetValue */\n  shl(0x20, tag_15)\n    /* \"WatermelonBUSDDice.sol\":5755:5782  setMinBetValue(0.001 ether) */\n  0x20\n  shr\n  jump\t// in\ntag_14:\n    /* \"WatermelonBUSDDice.sol\":5788:5811  setMaxBetPercentage(20) */\n  tag_16\n    /* \"WatermelonBUSDDice.sol\":5808:5810  20 */\n  0x14\n    /* \"WatermelonBUSDDice.sol\":5788:5807  setMaxBetPercentage */\n  shl(0x20, tag_17)\n    /* \"WatermelonBUSDDice.sol\":5788:5811  setMaxBetPercentage(20) */\n  0x20\n  shr\n  jump\t// in\ntag_16:\n    /* \"WatermelonBUSDDice.sol\":3342:14770  contract WatermelonBUSDDice is VRFConsumerBaseV2, ReentrancyGuard {... */\n  jump(tag_18)\n    /* \"WatermelonBUSDDice.sol\":5943:6199  function setVRFv2SubscriptionManagerAddress(address _VRFv2SubscriptionManagerAddress) public onlyOwner {... */\ntag_9:\n    /* \"WatermelonBUSDDice.sol\":14582:14589  s_owner */\n  0x07\n  0x00\n  swap1\n  sload\n  swap1\n  0x0100\n  exp\n  swap1\n  div\n  0xffffffffffffffffffffffffffffffffffffffff\n  and\n    /* \"WatermelonBUSDDice.sol\":14568:14589  msg.sender == s_owner */\n  0xffffffffffffffffffffffffffffffffffffffff\n  and\n    /* \"WatermelonBUSDDice.sol\":14568:14578  msg.sender */\n  caller\n    /* \"WatermelonBUSDDice.sol\":14568:14589  msg.sender == s_owner */\n  0xffffffffffffffffffffffffffffffffffffffff\n  and\n  eq\n    /* \"WatermelonBUSDDice.sol\":14560:14590  require(msg.sender == s_owner) */\n  tag_20\n  jumpi\n  0x00\n  dup1\n  revert\ntag_20:\n    /* \"WatermelonBUSDDice.sol\":6086:6118  _VRFv2SubscriptionManagerAddress */\n  dup1\n    /* \"WatermelonBUSDDice.sol\":6052:6083  VRFv2SubscriptionManagerAddress */\n  0x25\n  0x00\n    /* \"WatermelonBUSDDice.sol\":6052:6118  VRFv2SubscriptionManagerAddress = _VRFv2SubscriptionManagerAddress */\n  0x0100\n  exp\n  dup2\n  sload\n  dup2\n  0xffffffffffffffffffffffffffffffffffffffff\n  mul\n  not\n  and\n  swap1\n  dup4\n  0xffffffffffffffffffffffffffffffffffffffff\n  and\n  mul\n  or\n  swap1\n  sstore\n  pop\n    /* \"WatermelonBUSDDice.sol\":6162:6193  VRFv2SubscriptionManagerAddress */\n  0x25\n  0x00\n  swap1\n  sload\n  swap1\n  0x0100\n  exp\n  swap1\n  div\n  0xffffffffffffffffffffffffffffffffffffffff\n  and\n    /* \"WatermelonBUSDDice.sol\":6124:6134  VRFmanager */\n  0x28\n  0x00\n    /* \"WatermelonBUSDDice.sol\":6124:6194  VRFmanager = VRFv2SubscriptionManager(VRFv2SubscriptionManagerAddress) */\n  0x0100\n  exp\n  dup2\n  sload\n  dup2\n  0xffffffffffffffffffffffffffffffffffffffff\n  mul\n  not\n  and\n  swap1\n  dup4\n  0xffffffffffffffffffffffffffffffffffffffff\n  and\n  mul\n  or\n  swap1\n  sstore\n  pop\n    /* \"WatermelonBUSDDice.sol\":5943:6199  function setVRFv2SubscriptionManagerAddress(address _VRFv2SubscriptionManagerAddress) public onlyOwner {... */\n  pop\n  jump\t// out\n    /* \"WatermelonBUSDDice.sol\":5820:5939  function setSubscriptionId(uint64 _setSubscriptionId) public onlyOwner {... */\ntag_11:\n    /* \"WatermelonBUSDDice.sol\":14582:14589  s_owner */\n  0x07\n  0x00\n  swap1\n  sload\n  swap1\n  0x0100\n  exp\n  swap1\n  div\n  0xffffffffffffffffffffffffffffffffffffffff\n  and\n    /* \"WatermelonBUSDDice.sol\":14568:14589  msg.sender == s_owner */\n  0xffffffffffffffffffffffffffffffffffffffff\n  and\n    /* \"WatermelonBUSDDice.sol\":14568:14578  msg.sender */\n  caller\n    /* \"WatermelonBUSDDice.sol\":14568:14589  msg.sender == s_owner */\n  0xffffffffffffffffffffffffffffffffffffffff\n  and\n  eq\n    /* \"WatermelonBUSDDice.sol\":14560:14590  require(msg.sender == s_owner) */\n  tag_23\n  jumpi\n  0x00\n  dup1\n  revert\ntag_23:\n    /* \"WatermelonBUSDDice.sol\":5916:5934  _setSubscriptionId */\n  dup1\n    /* \"WatermelonBUSDDice.sol\":5897:5913  s_subscriptionId */\n  0x01\n  0x14\n    /* \"WatermelonBUSDDice.sol\":5897:5934  s_subscriptionId = _setSubscriptionId */\n  0x0100\n  exp\n  dup2\n  sload\n  dup2\n  0xffffffffffffffff\n  mul\n  not\n  and\n  swap1\n  dup4\n  0xffffffffffffffff\n  and\n  mul\n  or\n  swap1\n  sstore\n  pop\n    /* \"WatermelonBUSDDice.sol\":5820:5939  function setSubscriptionId(uint64 _setSubscriptionId) public onlyOwner {... */\n  pop\n  jump\t// out\n    /* \"WatermelonBUSDDice.sol\":6745:6837  function setMinerFees(uint256 _minerFees) public onlyOwner {... */\ntag_13:\n    /* \"WatermelonBUSDDice.sol\":14582:14589  s_owner */\n  0x07\n  0x00\n  swap1\n  sload\n  swap1\n  0x0100\n  exp\n  swap1\n  div\n  0xffffffffffffffffffffffffffffffffffffffff\n  and\n    /* \"WatermelonBUSDDice.sol\":14568:14589  msg.sender == s_owner */\n  0xffffffffffffffffffffffffffffffffffffffff\n  and\n    /* \"WatermelonBUSDDice.sol\":14568:14578  msg.sender */\n  caller\n    /* \"WatermelonBUSDDice.sol\":14568:14589  msg.sender == s_owner */\n  0xffffffffffffffffffffffffffffffffffffffff\n  and\n  eq\n    /* \"WatermelonBUSDDice.sol\":14560:14590  require(msg.sender == s_owner) */\n  tag_26\n  jumpi\n  0x00\n  dup1\n  revert\ntag_26:\n    /* \"WatermelonBUSDDice.sol\":6822:6832  _minerFees */\n  dup1\n    /* \"WatermelonBUSDDice.sol\":6810:6819  minerFees */\n  0x0f\n    /* \"WatermelonBUSDDice.sol\":6810:6832  minerFees = _minerFees */\n  dup2\n  swap1\n  sstore\n  pop\n    /* \"WatermelonBUSDDice.sol\":6745:6837  function setMinerFees(uint256 _minerFees) public onlyOwner {... */\n  pop\n  jump\t// out\n    /* \"WatermelonBUSDDice.sol\":6841:6944  function setMinBetValue(uint256 _minBetAmount) public onlyOwner {... */\ntag_15:\n    /* \"WatermelonBUSDDice.sol\":14582:14589  s_owner */\n  0x07\n  0x00\n  swap1\n  sload\n  swap1\n  0x0100\n  exp\n  swap1\n  div\n  0xffffffffffffffffffffffffffffffffffffffff\n  and\n    /* \"WatermelonBUSDDice.sol\":14568:14589  msg.sender == s_owner */\n  0xffffffffffffffffffffffffffffffffffffffff\n  and\n    /* \"WatermelonBUSDDice.sol\":14568:14578  msg.sender */\n  caller\n    /* \"WatermelonBUSDDice.sol\":14568:14589  msg.sender == s_owner */\n  0xffffffffffffffffffffffffffffffffffffffff\n  and\n  eq\n    /* \"WatermelonBUSDDice.sol\":14560:14590  require(msg.sender == s_owner) */\n  tag_29\n  jumpi\n  0x00\n  dup1\n  revert\ntag_29:\n    /* \"WatermelonBUSDDice.sol\":6926:6939  _minBetAmount */\n  dup1\n    /* \"WatermelonBUSDDice.sol\":6911:6923  minBetAmount */\n  0x0d\n    /* \"WatermelonBUSDDice.sol\":6911:6939  minBetAmount = _minBetAmount */\n  dup2\n  swap1\n  sstore\n  pop\n    /* \"WatermelonBUSDDice.sol\":6841:6944  function setMinBetValue(uint256 _minBetAmount) public onlyOwner {... */\n  pop\n  jump\t// out\n    /* \"WatermelonBUSDDice.sol\":6948:7068  function setMaxBetPercentage(uint256 _maxBetPercentage) public onlyOwner {... */\ntag_17:\n    /* \"WatermelonBUSDDice.sol\":14582:14589  s_owner */\n  0x07\n  0x00\n  swap1\n  sload\n  swap1\n  0x0100\n  exp\n  swap1\n  div\n  0xffffffffffffffffffffffffffffffffffffffff\n  and\n    /* \"WatermelonBUSDDice.sol\":14568:14589  msg.sender == s_owner */\n  0xffffffffffffffffffffffffffffffffffffffff\n  and\n    /* \"WatermelonBUSDDice.sol\":14568:14578  msg.sender */\n  caller\n    /* \"WatermelonBUSDDice.sol\":14568:14589  msg.sender == s_owner */\n  0xffffffffffffffffffffffffffffffffffffffff\n  and\n  eq\n    /* \"WatermelonBUSDDice.sol\":14560:14590  require(msg.sender == s_owner) */\n  tag_32\n  jumpi\n  0x00\n  dup1\n  revert\ntag_32:\n    /* \"WatermelonBUSDDice.sol\":7046:7063  _maxBetPercentage */\n  dup1\n    /* \"WatermelonBUSDDice.sol\":7027:7043  maxBetPercentage */\n  0x0c\n    /* \"WatermelonBUSDDice.sol\":7027:7063  maxBetPercentage = _maxBetPercentage */\n  dup2\n  swap1\n  sstore\n  pop\n    /* \"WatermelonBUSDDice.sol\":6948:7068  function setMaxBetPercentage(uint256 _maxBetPercentage) public onlyOwner {... */\n  pop\n  jump\t// out\n    /* \"WatermelonBUSDDice.sol\":3342:14770  contract WatermelonBUSDDice is VRFConsumerBaseV2, ReentrancyGuard {... */\ntag_18:\n  mload(0x80)\n  codecopy(0x00, dataOffset(sub_0), dataSize(sub_0))\n  0x00\n  assignImmutable(\"0xd2f8f61201b2b11a78d6e866abc9c3db2ae8631fa656bfe5cb53668255367afb\")\n  return(0x00, dataSize(sub_0))\nstop\n\nsub_0: assembly {\n        /* \"WatermelonBUSDDice.sol\":3342:14770  contract WatermelonBUSDDice is VRFConsumerBaseV2, ReentrancyGuard {... */\n      mstore(0x40, 0x80)\n      jumpi(tag_1, lt(calldatasize, 0x04))\n      shr(0xe0, calldataload(0x00))\n      dup1\n      0x6f700224\n      gt\n      tag_60\n      jumpi\n      dup1\n      0xb33712c5\n      gt\n      tag_61\n      jumpi\n      dup1\n      0xde292789\n      gt\n      tag_62\n      jumpi\n      dup1\n      0xea7b4f77\n      gt\n      tag_63\n      jumpi\n      dup1\n      0xea7b4f77\n      eq\n      tag_56\n      jumpi\n      dup1\n      0xf2fde38b\n      eq\n      tag_57\n      jumpi\n      dup1\n      0xf6eaffc8\n      eq\n      tag_58\n      jumpi\n      dup1\n      0xfa968eea\n      eq\n      tag_59\n      jumpi\n      jump(tag_2)\n    tag_63:\n      dup1\n      0xde292789\n      eq\n      tag_52\n      jumpi\n      dup1\n      0xe30531a1\n      eq\n      tag_53\n      jumpi\n      dup1\n      0xe541e45d\n      eq\n      tag_54\n      jumpi\n      dup1\n      0xe89e106a\n      eq\n      tag_55\n      jumpi\n      jump(tag_2)\n    tag_62:\n      dup1\n      0xbefa1e2f\n      gt\n      tag_64\n      jumpi\n      dup1\n      0xbefa1e2f\n      eq\n      tag_48\n      jumpi\n      dup1\n      0xc245f6a1\n      eq\n      tag_49\n      jumpi\n      dup1\n      0xd042ccf9\n      eq\n      tag_50\n      jumpi\n      dup1\n      0xd5e0f494\n      eq\n      tag_51\n      jumpi\n      jump(tag_2)\n    tag_64:\n      dup1\n      0xb33712c5\n      eq\n      tag_45\n      jumpi\n      dup1\n      0xb401faf1\n      eq\n      tag_46\n      jumpi\n      dup1\n      0xb72481f8\n      eq\n      tag_47\n      jumpi\n      jump(tag_2)\n    tag_61:\n      dup1\n      0x98544710\n      gt\n      tag_65\n      jumpi\n      dup1\n      0xa4eb718c\n      gt\n      tag_66\n      jumpi\n      dup1\n      0xa4eb718c\n      eq\n      tag_41\n      jumpi\n      dup1\n      0xa6afd5fd\n      eq\n      tag_42\n      jumpi\n      dup1\n      0xb05f9066\n      eq\n      tag_43\n      jumpi\n      dup1\n      0xb2689dea\n      eq\n      tag_44\n      jumpi\n      jump(tag_2)\n    tag_66:\n      dup1\n      0x98544710\n      eq\n      tag_38\n      jumpi\n      dup1\n      0x9cc9efe2\n      eq\n      tag_39\n      jumpi\n      dup1\n      0x9f84be6e\n      eq\n      tag_40\n      jumpi\n      jump(tag_2)\n    tag_65:\n      dup1\n      0x76a90231\n      gt\n      tag_67\n      jumpi\n      dup1\n      0x76a90231\n      eq\n      tag_34\n      jumpi\n      dup1\n      0x8068aa68\n      eq\n      tag_35\n      jumpi\n      dup1\n      0x86b945b0\n      eq\n      tag_36\n      jumpi\n      dup1\n      0x8da5cb5b\n      eq\n      tag_37\n      jumpi\n      jump(tag_2)\n    tag_67:\n      dup1\n      0x6f700224\n      eq\n      tag_31\n      jumpi\n      dup1\n      0x710c5555\n      eq\n      tag_32\n      jumpi\n      dup1\n      0x715018a6\n      eq\n      tag_33\n      jumpi\n      jump(tag_2)\n    tag_60:\n      dup1\n      0x439766ce\n      gt\n      tag_68\n      jumpi\n      dup1\n      0x5b496104\n      gt\n      tag_69\n      jumpi\n      dup1\n      0x61cbbdee\n      gt\n      tag_70\n      jumpi\n      dup1\n      0x61cbbdee\n      eq\n      tag_27\n      jumpi\n      dup1\n      0x626e1ae7\n      eq\n      tag_28\n      jumpi\n      dup1\n      0x67ad4ec2\n      eq\n      tag_29\n      jumpi\n      dup1\n      0x6c6ff95a\n      eq\n      tag_30\n      jumpi\n      jump(tag_2)\n    tag_70:\n      dup1\n      0x5b496104\n      eq\n      tag_24\n      jumpi\n      dup1\n      0x5c975abb\n      eq\n      tag_25\n      jumpi\n      dup1\n      0x5e457cf8\n      eq\n      tag_26\n      jumpi\n      jump(tag_2)\n    tag_69:\n      dup1\n      0x4e09bcaf\n      gt\n      tag_71\n      jumpi\n      dup1\n      0x4e09bcaf\n      eq\n      tag_20\n      jumpi\n      dup1\n      0x550ed1f0\n      eq\n      tag_21\n      jumpi\n      dup1\n      0x58fc7606\n      eq\n      tag_22\n      jumpi\n      dup1\n      0x5b0b8596\n      eq\n      tag_23\n      jumpi\n      jump(tag_2)\n    tag_71:\n      dup1\n      0x439766ce\n      eq\n      tag_17\n      jumpi\n      dup1\n      0x47d2a6c7\n      eq\n      tag_18\n      jumpi\n      dup1\n      0x4a1a3e9c\n      eq\n      tag_19\n      jumpi\n      jump(tag_2)\n    tag_68:\n      dup1\n      0x2626cf82\n      gt\n      tag_72\n      jumpi\n      dup1\n      0x33653391\n      gt\n      tag_73\n      jumpi\n      dup1\n      0x33653391\n      eq\n      tag_13\n      jumpi\n      dup1\n      0x3503894c\n      eq\n      tag_14\n      jumpi\n      dup1\n      0x3bc303b6\n      eq\n      tag_15\n      jumpi\n      dup1\n      0x3db20272\n      eq\n      tag_16\n      jumpi\n      jump(tag_2)\n    tag_73:\n      dup1\n      0x2626cf82\n      eq\n      tag_10\n      jumpi\n      dup1\n      0x2b8f6140\n      eq\n      tag_11\n      jumpi\n      dup1\n      0x3024737d\n      eq\n      tag_12\n      jumpi\n      jump(tag_2)\n    tag_72:\n      dup1\n      0x1afc369c\n      gt\n      tag_74\n      jumpi\n      dup1\n      0x1afc369c\n      eq\n      tag_6\n      jumpi\n      dup1\n      0x1b62ff01\n      eq\n      tag_7\n      jumpi\n      dup1\n      0x1d111d13\n      eq\n      tag_8\n      jumpi\n      dup1\n      0x1fe543e3\n      eq\n      tag_9\n      jumpi\n      jump(tag_2)\n    tag_74:\n      dup1\n      0x045a3104\n      eq\n      tag_3\n      jumpi\n      dup1\n      0x09c06841\n      eq\n      tag_4\n      jumpi\n      dup1\n      0x1936fd43\n      eq\n      tag_5\n      jumpi\n      jump(tag_2)\n    tag_1:\n      jumpi(tag_2, calldatasize)\n      stop\n    tag_2:\n      0x00\n      dup1\n      revert\n        /* \"WatermelonBUSDDice.sol\":12319:12780  function getResultByAddress(address _address) public view returns (uint256, uint256, bool){... */\n    tag_3:\n      callvalue\n      dup1\n      iszero\n      tag_77\n      jumpi\n      0x00\n      dup1\n      revert\n    tag_77:\n      pop\n      tag_78\n      0x04\n      dup1\n      calldatasize\n      sub\n      dup2\n      add\n      swap1\n      tag_79\n      swap2\n      swap1\n      tag_80\n      jump\t// in\n    tag_79:\n      tag_81\n      jump\t// in\n    tag_78:\n      mload(0x40)\n      tag_82\n      swap4\n      swap3\n      swap2\n      swap1\n      tag_83\n      jump\t// in\n    tag_82:\n      mload(0x40)\n      dup1\n      swap2\n      sub\n      swap1\n      return\n        /* \"WatermelonBUSDDice.sol\":4657:4709  mapping (uint256 => address) public requesterAddress */\n    tag_4:\n      callvalue\n      dup1\n      iszero\n      tag_84\n      jumpi\n      0x00\n      dup1\n      revert\n    tag_84:\n      pop\n      tag_85\n      0x04\n      dup1\n      calldatasize\n      sub\n      dup2\n      add\n      swap1\n      tag_86\n      swap2\n      swap1\n      tag_87\n      jump\t// in\n    tag_86:\n      tag_88\n      jump\t// in\n    tag_85:\n      mload(0x40)\n      tag_89\n      swap2\n      swap1\n      tag_90\n      jump\t// in\n    tag_89:\n      mload(0x40)\n      dup1\n      swap2\n      sub\n      swap1\n      return\n        /* \"WatermelonBUSDDice.sol\":4373:4424  mapping (address => uint256) public playerTotalBets */\n    tag_5:\n      callvalue\n      dup1\n      iszero\n      tag_91\n      jumpi\n      0x00\n      dup1\n      revert\n    tag_91:\n      pop\n      tag_92\n      0x04\n      dup1\n      calldatasize\n      sub\n      dup2\n      add\n      swap1\n      tag_93\n      swap2\n      swap1\n      tag_80\n      jump\t// in\n    tag_93:\n      tag_94\n      jump\t// in\n    tag_92:\n      mload(0x40)\n      tag_95\n      swap2\n      swap1\n      tag_96\n      jump\t// in\n    tag_95:\n      mload(0x40)\n      dup1\n      swap2\n      sub\n      swap1\n      return\n        /* \"WatermelonBUSDDice.sol\":7072:7204  function setMinChainlinkBalance(uint256 _minChainlinkBalance) public onlyOwner {... */\n    tag_6:\n      callvalue\n      dup1\n      iszero\n      tag_97\n      jumpi\n      0x00\n      dup1\n      revert\n    tag_97:\n      pop\n      tag_98\n      0x04\n      dup1\n      calldatasize\n      sub\n      dup2\n      add\n      swap1\n      tag_99\n      swap2\n      swap1\n      tag_87\n      jump\t// in\n    tag_99:\n      tag_100\n      jump\t// in\n    tag_98:\n      stop\n        /* \"WatermelonBUSDDice.sol\":4990:5016  address public wmlnAddress */\n    tag_7:\n      callvalue\n      dup1\n      iszero\n      tag_101\n      jumpi\n      0x00\n      dup1\n      revert\n    tag_101:\n      pop\n      tag_102\n      tag_103\n      jump\t// in\n    tag_102:\n      mload(0x40)\n      tag_104\n      swap2\n      swap1\n      tag_90\n      jump\t// in\n    tag_104:\n      mload(0x40)\n      dup1\n      swap2\n      sub\n      swap1\n      return\n        /* \"WatermelonBUSDDice.sol\":13620:13792  function withdrawBNB() onlyOwner isPaused external{ ... */\n    tag_8:\n      callvalue\n      dup1\n      iszero\n      tag_105\n      jumpi\n      0x00\n      dup1\n      revert\n    tag_105:\n      pop\n      tag_106\n      tag_107\n      jump\t// in\n    tag_106:\n      stop\n        /* \"WatermelonBUSDDice.sol\":450:706  function rawFulfillRandomWords(uint256 requestId, uint256[] memory randomWords) external {... */\n    tag_9:\n      callvalue\n      dup1\n      iszero\n      tag_108\n      jumpi\n      0x00\n      dup1\n      revert\n    tag_108:\n      pop\n      tag_109\n      0x04\n      dup1\n      calldatasize\n      sub\n      dup2\n      add\n      swap1\n      tag_110\n      swap2\n      swap1\n      tag_111\n      jump\t// in\n    tag_110:\n      tag_112\n      jump\t// in\n    tag_109:\n      stop\n        /* \"WatermelonBUSDDice.sol\":8963:9083  function getRoundStatusByAddress(address _address) external view returns (bool){... */\n    tag_10:\n      callvalue\n      dup1\n      iszero\n      tag_113\n      jumpi\n      0x00\n      dup1\n      revert\n    tag_113:\n      pop\n      tag_114\n      0x04\n      dup1\n      calldatasize\n      sub\n      dup2\n      add\n      swap1\n      tag_115\n      swap2\n      swap1\n      tag_80\n      jump\t// in\n    tag_115:\n      tag_116\n      jump\t// in\n    tag_114:\n      mload(0x40)\n      tag_117\n      swap2\n      swap1\n      tag_118\n      jump\t// in\n    tag_117:\n      mload(0x40)\n      dup1\n      swap2\n      sub\n      swap1\n      return\n        /* \"WatermelonBUSDDice.sol\":5020:5066  address public VRFv2SubscriptionManagerAddress */\n    tag_11:\n      callvalue\n      dup1\n      iszero\n      tag_119\n      jumpi\n      0x00\n      dup1\n      revert\n    tag_119:\n      pop\n      tag_120\n      tag_121\n      jump\t// in\n    tag_120:\n      mload(0x40)\n      tag_122\n      swap2\n      swap1\n      tag_90\n      jump\t// in\n    tag_122:\n      mload(0x40)\n      dup1\n      swap2\n      sub\n      swap1\n      return\n        /* \"WatermelonBUSDDice.sol\":3952:3983  uint256 public maxBetPercentage */\n    tag_12:\n      callvalue\n      dup1\n      iszero\n      tag_123\n      jumpi\n      0x00\n      dup1\n      revert\n    tag_123:\n      pop\n      tag_124\n      tag_125\n      jump\t// in\n    tag_124:\n      mload(0x40)\n      tag_126\n      swap2\n      swap1\n      tag_96\n      jump\t// in\n    tag_126:\n      mload(0x40)\n      dup1\n      swap2\n      sub\n      swap1\n      return\n        /* \"WatermelonBUSDDice.sol\":4041:4085  uint256 public minChainlinkBalance = 5 ether */\n    tag_13:\n      callvalue\n      dup1\n      iszero\n      tag_127\n      jumpi\n      0x00\n      dup1\n      revert\n    tag_127:\n      pop\n      tag_128\n      tag_129\n      jump\t// in\n    tag_128:\n      mload(0x40)\n      tag_130\n      swap2\n      swap1\n      tag_96\n      jump\t// in\n    tag_130:\n      mload(0x40)\n      dup1\n      swap2\n      sub\n      swap1\n      return\n        /* \"WatermelonBUSDDice.sol\":3854:3881  uint256 public totalBetsWon */\n    tag_14:\n      callvalue\n      dup1\n      iszero\n      tag_131\n      jumpi\n      0x00\n      dup1\n      revert\n    tag_131:\n      pop\n      tag_132\n      tag_133\n      jump\t// in\n    tag_132:\n      mload(0x40)\n      tag_134\n      swap2\n      swap1\n      tag_96\n      jump\t// in\n    tag_134:\n      mload(0x40)\n      dup1\n      swap2\n      sub\n      swap1\n      return\n        /* \"WatermelonBUSDDice.sol\":4600:4651  mapping (address => uint256) public userLostBalance */\n    tag_15:\n      callvalue\n      dup1\n      iszero\n      tag_135\n      jumpi\n      0x00\n      dup1\n      revert\n    tag_135:\n      pop\n      tag_136\n      0x04\n      dup1\n      calldatasize\n      sub\n      dup2\n      add\n      swap1\n      tag_137\n      swap2\n      swap1\n      tag_80\n      jump\t// in\n    tag_137:\n      tag_138\n      jump\t// in\n    tag_136:\n      mload(0x40)\n      tag_139\n      swap2\n      swap1\n      tag_96\n      jump\t// in\n    tag_139:\n      mload(0x40)\n      dup1\n      swap2\n      sub\n      swap1\n      return\n        /* \"WatermelonBUSDDice.sol\":4428:4483  mapping (address => uint256) public playerTotalWinnings */\n    tag_16:\n      callvalue\n      dup1\n      iszero\n      tag_140\n      jumpi\n      0x00\n      dup1\n      revert\n    tag_140:\n      pop\n      tag_141\n      0x04\n      dup1\n      calldatasize\n      sub\n      dup2\n      add\n      swap1\n      tag_142\n      swap2\n      swap1\n      tag_80\n      jump\t// in\n    tag_142:\n      tag_143\n      jump\t// in\n    tag_141:\n      mload(0x40)\n      tag_144\n      swap2\n      swap1\n      tag_96\n      jump\t// in\n    tag_144:\n      mload(0x40)\n      dup1\n      swap2\n      sub\n      swap1\n      return\n        /* \"WatermelonBUSDDice.sol\":14191:14258  function pauseContract() external onlyOwner{... */\n    tag_17:\n      callvalue\n      dup1\n      iszero\n      tag_145\n      jumpi\n      0x00\n      dup1\n      revert\n    tag_145:\n      pop\n      tag_146\n      tag_147\n      jump\t// in\n    tag_146:\n      stop\n        /* \"WatermelonBUSDDice.sol\":7430:7514  function betDown(uint256 _amount) isUnpaused external {... */\n    tag_18:\n      callvalue\n      dup1\n      iszero\n      tag_148\n      jumpi\n      0x00\n      dup1\n      revert\n    tag_148:\n      pop\n      tag_149\n      0x04\n      dup1\n      calldatasize\n      sub\n      dup2\n      add\n      swap1\n      tag_150\n      swap2\n      swap1\n      tag_87\n      jump\t// in\n    tag_150:\n      tag_151\n      jump\t// in\n    tag_149:\n      stop\n        /* \"WatermelonBUSDDice.sol\":13222:13591  function injectBUSD(uint256 _amount) payable external {... */\n    tag_19:\n      tag_152\n      0x04\n      dup1\n      calldatasize\n      sub\n      dup2\n      add\n      swap1\n      tag_153\n      swap2\n      swap1\n      tag_87\n      jump\t// in\n    tag_153:\n      tag_154\n      jump\t// in\n    tag_152:\n      stop\n        /* \"WatermelonBUSDDice.sol\":6420:6541  function getVRFsubscriptionBalance() public view returns(uint256) {... */\n    tag_20:\n      callvalue\n      dup1\n      iszero\n      tag_155\n      jumpi\n      0x00\n      dup1\n      revert\n    tag_155:\n      pop\n      tag_156\n      tag_157\n      jump\t// in\n    tag_156:\n      mload(0x40)\n      tag_158\n      swap2\n      swap1\n      tag_96\n      jump\t// in\n    tag_158:\n      mload(0x40)\n      dup1\n      swap2\n      sub\n      swap1\n      return\n        /* \"WatermelonBUSDDice.sol\":7208:7340  function getMaxBetAmount() public view returns(uint256){... */\n    tag_21:\n      callvalue\n      dup1\n      iszero\n      tag_159\n      jumpi\n      0x00\n      dup1\n      revert\n    tag_159:\n      pop\n      tag_160\n      tag_161\n      jump\t// in\n    tag_160:\n      mload(0x40)\n      tag_162\n      swap2\n      swap1\n      tag_96\n      jump\t// in\n    tag_162:\n      mload(0x40)\n      dup1\n      swap2\n      sub\n      swap1\n      return\n        /* \"WatermelonBUSDDice.sol\":4205:4249  mapping (uint256 => uint256) public betValue */\n    tag_22:\n      callvalue\n      dup1\n      iszero\n      tag_163\n      jumpi\n      0x00\n      dup1\n      revert\n    tag_163:\n      pop\n      tag_164\n      0x04\n      dup1\n      calldatasize\n      sub\n      dup2\n      add\n      swap1\n      tag_165\n      swap2\n      swap1\n      tag_87\n      jump\t// in\n    tag_165:\n      tag_166\n      jump\t// in\n    tag_164:\n      mload(0x40)\n      tag_167\n      swap2\n      swap1\n      tag_96\n      jump\t// in\n    tag_167:\n      mload(0x40)\n      dup1\n      swap2\n      sub\n      swap1\n      return\n        /* \"WatermelonBUSDDice.sol\":13821:14011  function withdrawBUSD() onlyOwner isPaused external{ ... */\n    tag_23:\n      callvalue\n      dup1\n      iszero\n      tag_168\n      jumpi\n      0x00\n      dup1\n      revert\n    tag_168:\n      pop\n      tag_169\n      tag_170\n      jump\t// in\n    tag_169:\n      stop\n        /* \"WatermelonBUSDDice.sol\":4713:4757  mapping (address => bool) public roundStatus */\n    tag_24:\n      callvalue\n      dup1\n      iszero\n      tag_171\n      jumpi\n      0x00\n      dup1\n      revert\n    tag_171:\n      pop\n      tag_172\n      0x04\n      dup1\n      calldatasize\n      sub\n      dup2\n      add\n      swap1\n      tag_173\n      swap2\n      swap1\n      tag_80\n      jump\t// in\n    tag_173:\n      tag_174\n      jump\t// in\n    tag_172:\n      mload(0x40)\n      tag_175\n      swap2\n      swap1\n      tag_118\n      jump\t// in\n    tag_175:\n      mload(0x40)\n      dup1\n      swap2\n      sub\n      swap1\n      return\n        /* \"WatermelonBUSDDice.sol\":5188:5214  bool public paused = false */\n    tag_25:\n      callvalue\n      dup1\n      iszero\n      tag_176\n      jumpi\n      0x00\n      dup1\n      revert\n    tag_176:\n      pop\n      tag_177\n      tag_178\n      jump\t// in\n    tag_177:\n      mload(0x40)\n      tag_179\n      swap2\n      swap1\n      tag_118\n      jump\t// in\n    tag_179:\n      mload(0x40)\n      dup1\n      swap2\n      sub\n      swap1\n      return\n        /* \"WatermelonBUSDDice.sol\":7344:7426  function betUp(uint256 _amount) isUnpaused external {... */\n    tag_26:\n      callvalue\n      dup1\n      iszero\n      tag_180\n      jumpi\n      0x00\n      dup1\n      revert\n    tag_180:\n      pop\n      tag_181\n      0x04\n      dup1\n      calldatasize\n      sub\n      dup2\n      add\n      swap1\n      tag_182\n      swap2\n      swap1\n      tag_87\n      jump\t// in\n    tag_182:\n      tag_183\n      jump\t// in\n    tag_181:\n      stop\n        /* \"WatermelonBUSDDice.sol\":6841:6944  function setMinBetValue(uint256 _minBetAmount) public onlyOwner {... */\n    tag_27:\n      callvalue\n      dup1\n      iszero\n      tag_184\n      jumpi\n      0x00\n      dup1\n      revert\n    tag_184:\n      pop\n      tag_185\n      0x04\n      dup1\n      calldatasize\n      sub\n      dup2\n      add\n      swap1\n      tag_186\n      swap2\n      swap1\n      tag_87\n      jump\t// in\n    tag_186:\n      tag_187\n      jump\t// in\n    tag_185:\n      stop\n        /* \"WatermelonBUSDDice.sol\":11376:11457  function getTotalFees() public view returns(uint256){... */\n    tag_28:\n      callvalue\n      dup1\n      iszero\n      tag_188\n      jumpi\n      0x00\n      dup1\n      revert\n    tag_188:\n      pop\n      tag_189\n      tag_190\n      jump\t// in\n    tag_189:\n      mload(0x40)\n      tag_191\n      swap2\n      swap1\n      tag_96\n      jump\t// in\n    tag_191:\n      mload(0x40)\n      dup1\n      swap2\n      sub\n      swap1\n      return\n        /* \"WatermelonBUSDDice.sol\":4158:4201  mapping (address => uint256) public userBet */\n    tag_29:\n      callvalue\n      dup1\n      iszero\n      tag_192\n      jumpi\n      0x00\n      dup1\n      revert\n    tag_192:\n      pop\n      tag_193\n      0x04\n      dup1\n      calldatasize\n      sub\n      dup2\n      add\n      swap1\n      tag_194\n      swap2\n      swap1\n      tag_80\n      jump\t// in\n    tag_194:\n      tag_195\n      jump\t// in\n    tag_193:\n      mload(0x40)\n      tag_196\n      swap2\n      swap1\n      tag_96\n      jump\t// in\n    tag_196:\n      mload(0x40)\n      dup1\n      swap2\n      sub\n      swap1\n      return\n        /* \"WatermelonBUSDDice.sol\":4118:4151  uint256 public minerWalletBalance */\n    tag_30:\n      callvalue\n      dup1\n      iszero\n      tag_197\n      jumpi\n      0x00\n      dup1\n      revert\n    tag_197:\n      pop\n      tag_198\n      tag_199\n      jump\t// in\n    tag_198:\n      mload(0x40)\n      tag_200\n      swap2\n      swap1\n      tag_96\n      jump\t// in\n    tag_200:\n      mload(0x40)\n      dup1\n      swap2\n      sub\n      swap1\n      return\n        /* \"WatermelonBUSDDice.sol\":6545:6741  function fundChainlinkSubscription() public {... */\n    tag_31:\n      callvalue\n      dup1\n      iszero\n      tag_201\n      jumpi\n      0x00\n      dup1\n      revert\n    tag_201:\n      pop\n      tag_202\n      tag_203\n      jump\t// in\n    tag_202:\n      stop\n        /* \"WatermelonBUSDDice.sol\":4089:4113  uint256 public minerFees */\n    tag_32:\n      callvalue\n      dup1\n      iszero\n      tag_204\n      jumpi\n      0x00\n      dup1\n      revert\n    tag_204:\n      pop\n      tag_205\n      tag_206\n      jump\t// in\n    tag_205:\n      mload(0x40)\n      tag_207\n      swap2\n      swap1\n      tag_96\n      jump\t// in\n    tag_207:\n      mload(0x40)\n      dup1\n      swap2\n      sub\n      swap1\n      return\n        /* \"WatermelonBUSDDice.sol\":14111:14187  function renounceOwnership() external onlyOwner{... */\n    tag_33:\n      callvalue\n      dup1\n      iszero\n      tag_208\n      jumpi\n      0x00\n      dup1\n      revert\n    tag_208:\n      pop\n      tag_209\n      tag_210\n      jump\t// in\n    tag_209:\n      stop\n        /* \"WatermelonBUSDDice.sol\":5072:5098  address public busdAddress */\n    tag_34:\n      callvalue\n      dup1\n      iszero\n      tag_211\n      jumpi\n      0x00\n      dup1\n      revert\n    tag_211:\n      pop\n      tag_212\n      tag_213\n      jump\t// in\n    tag_212:\n      mload(0x40)\n      tag_214\n      swap2\n      swap1\n      tag_90\n      jump\t// in\n    tag_214:\n      mload(0x40)\n      dup1\n      swap2\n      sub\n      swap1\n      return\n        /* \"WatermelonBUSDDice.sol\":4943:4985  mapping (address => Bet[]) public userBets */\n    tag_35:\n      callvalue\n      dup1\n      iszero\n      tag_215\n      jumpi\n      0x00\n      dup1\n      revert\n    tag_215:\n      pop\n      tag_216\n      0x04\n      dup1\n      calldatasize\n      sub\n      dup2\n      add\n      swap1\n      tag_217\n      swap2\n      swap1\n      tag_218\n      jump\t// in\n    tag_217:\n      tag_219\n      jump\t// in\n    tag_216:\n      mload(0x40)\n      tag_220\n      swap8\n      swap7\n      swap6\n      swap5\n      swap4\n      swap3\n      swap2\n      swap1\n      tag_221\n      jump\t// in\n    tag_220:\n      mload(0x40)\n      dup1\n      swap2\n      sub\n      swap1\n      return\n        /* \"WatermelonBUSDDice.sol\":8864:8959  function getRoundStatus() public view returns (bool){... */\n    tag_36:\n      callvalue\n      dup1\n      iszero\n      tag_222\n      jumpi\n      0x00\n      dup1\n      revert\n    tag_222:\n      pop\n      tag_223\n      tag_224\n      jump\t// in\n    tag_223:\n      mload(0x40)\n      tag_225\n      swap2\n      swap1\n      tag_118\n      jump\t// in\n    tag_225:\n      mload(0x40)\n      dup1\n      swap2\n      sub\n      swap1\n      return\n        /* \"WatermelonBUSDDice.sol\":5164:5184  address public owner */\n    tag_37:\n      callvalue\n      dup1\n      iszero\n      tag_226\n      jumpi\n      0x00\n      dup1\n      revert\n    tag_226:\n      pop\n      tag_227\n      tag_228\n      jump\t// in\n    tag_227:\n      mload(0x40)\n      tag_229\n      swap2\n      swap1\n      tag_90\n      jump\t// in\n    tag_229:\n      mload(0x40)\n      dup1\n      swap2\n      sub\n      swap1\n      return\n        /* \"WatermelonBUSDDice.sol\":6203:6290  function setKeyHash(bytes32 _keyHash) external onlyOwner{... */\n    tag_38:\n      callvalue\n      dup1\n      iszero\n      tag_230\n      jumpi\n      0x00\n      dup1\n      revert\n    tag_230:\n      pop\n      tag_231\n      0x04\n      dup1\n      calldatasize\n      sub\n      dup2\n      add\n      swap1\n      tag_232\n      swap2\n      swap1\n      tag_233\n      jump\t// in\n    tag_232:\n      tag_234\n      jump\t// in\n    tag_231:\n      stop\n        /* \"WatermelonBUSDDice.sol\":4544:4596  mapping (address => uint256) public unclaimedWinning */\n    tag_39:\n      callvalue\n      dup1\n      iszero\n      tag_235\n      jumpi\n      0x00\n      dup1\n      revert\n    tag_235:\n      pop\n      tag_236\n      0x04\n      dup1\n      calldatasize\n      sub\n      dup2\n      add\n      swap1\n      tag_237\n      swap2\n      swap1\n      tag_80\n      jump\t// in\n    tag_237:\n      tag_238\n      jump\t// in\n    tag_236:\n      mload(0x40)\n      tag_239\n      swap2\n      swap1\n      tag_96\n      jump\t// in\n    tag_239:\n      mload(0x40)\n      dup1\n      swap2\n      sub\n      swap1\n      return\n        /* \"WatermelonBUSDDice.sol\":6745:6837  function setMinerFees(uint256 _minerFees) public onlyOwner {... */\n    tag_40:\n      callvalue\n      dup1\n      iszero\n      tag_240\n      jumpi\n      0x00\n      dup1\n      revert\n    tag_240:\n      pop\n      tag_241\n      0x04\n      dup1\n      calldatasize\n      sub\n      dup2\n      add\n      swap1\n      tag_242\n      swap2\n      swap1\n      tag_87\n      jump\t// in\n    tag_242:\n      tag_243\n      jump\t// in\n    tag_241:\n      stop\n        /* \"WatermelonBUSDDice.sol\":6294:6416  function setCallbackGasLimit(uint32 _callbackGasLimit) external onlyOwner{... */\n    tag_41:\n      callvalue\n      dup1\n      iszero\n      tag_244\n      jumpi\n      0x00\n      dup1\n      revert\n    tag_244:\n      pop\n      tag_245\n      0x04\n      dup1\n      calldatasize\n      sub\n      dup2\n      add\n      swap1\n      tag_246\n      swap2\n      swap1\n      tag_247\n      jump\t// in\n    tag_246:\n      tag_248\n      jump\t// in\n    tag_245:\n      stop\n        /* \"WatermelonBUSDDice.sol\":11764:11859  function getBets() external view returns (Bet[] memory){... */\n    tag_42:\n      callvalue\n      dup1\n      iszero\n      tag_249\n      jumpi\n      0x00\n      dup1\n      revert\n    tag_249:\n      pop\n      tag_250\n      tag_251\n      jump\t// in\n    tag_250:\n      mload(0x40)\n      tag_252\n      swap2\n      swap1\n      tag_253\n      jump\t// in\n    tag_252:\n      mload(0x40)\n      dup1\n      swap2\n      sub\n      swap1\n      return\n        /* \"WatermelonBUSDDice.sol\":3917:3945  uint256 public totalBetsLost */\n    tag_43:\n      callvalue\n      dup1\n      iszero\n      tag_254\n      jumpi\n      0x00\n      dup1\n      revert\n    tag_254:\n      pop\n      tag_255\n      tag_256\n      jump\t// in\n    tag_255:\n      mload(0x40)\n      tag_257\n      swap2\n      swap1\n      tag_96\n      jump\t// in\n    tag_257:\n      mload(0x40)\n      dup1\n      swap2\n      sub\n      swap1\n      return\n        /* \"WatermelonBUSDDice.sol\":4487:4538  mapping (address => uint256) public playerTotalLost */\n    tag_44:\n      callvalue\n      dup1\n      iszero\n      tag_258\n      jumpi\n      0x00\n      dup1\n      revert\n    tag_258:\n      pop\n      tag_259\n      0x04\n      dup1\n      calldatasize\n      sub\n      dup2\n      add\n      swap1\n      tag_260\n      swap2\n      swap1\n      tag_80\n      jump\t// in\n    tag_260:\n      tag_261\n      jump\t// in\n    tag_259:\n      mload(0x40)\n      tag_262\n      swap2\n      swap1\n      tag_96\n      jump\t// in\n    tag_262:\n      mload(0x40)\n      dup1\n      swap2\n      sub\n      swap1\n      return\n        /* \"WatermelonBUSDDice.sol\":14262:14529  function unpauseContract() external onlyOwner{... */\n    tag_45:\n      callvalue\n      dup1\n      iszero\n      tag_263\n      jumpi\n      0x00\n      dup1\n      revert\n    tag_263:\n      pop\n      tag_264\n      tag_265\n      jump\t// in\n    tag_264:\n      stop\n        /* \"WatermelonBUSDDice.sol\":12784:13174  function claimWinnings() external nonReentrant isUnpaused{... */\n    tag_46:\n      callvalue\n      dup1\n      iszero\n      tag_266\n      jumpi\n      0x00\n      dup1\n      revert\n    tag_266:\n      pop\n      tag_267\n      tag_268\n      jump\t// in\n    tag_267:\n      stop\n        /* \"WatermelonBUSDDice.sol\":3885:3913  uint256 public totalWinnings */\n    tag_47:\n      callvalue\n      dup1\n      iszero\n      tag_269\n      jumpi\n      0x00\n      dup1\n      revert\n    tag_269:\n      pop\n      tag_270\n      tag_271\n      jump\t// in\n    tag_270:\n      mload(0x40)\n      tag_272\n      swap2\n      swap1\n      tag_96\n      jump\t// in\n    tag_272:\n      mload(0x40)\n      dup1\n      swap2\n      sub\n      swap1\n      return\n        /* \"WatermelonBUSDDice.sol\":3826:3850  uint256 public totalBets */\n    tag_48:\n      callvalue\n      dup1\n      iszero\n      tag_273\n      jumpi\n      0x00\n      dup1\n      revert\n    tag_273:\n      pop\n      tag_274\n      tag_275\n      jump\t// in\n    tag_274:\n      mload(0x40)\n      tag_276\n      swap2\n      swap1\n      tag_96\n      jump\t// in\n    tag_276:\n      mload(0x40)\n      dup1\n      swap2\n      sub\n      swap1\n      return\n        /* \"WatermelonBUSDDice.sol\":13178:13218  function injectBNB() payable external {} */\n    tag_49:\n      tag_277\n      tag_278\n      jump\t// in\n    tag_277:\n      stop\n        /* \"WatermelonBUSDDice.sol\":6948:7068  function setMaxBetPercentage(uint256 _maxBetPercentage) public onlyOwner {... */\n    tag_50:\n      callvalue\n      dup1\n      iszero\n      tag_279\n      jumpi\n      0x00\n      dup1\n      revert\n    tag_279:\n      pop\n      tag_280\n      0x04\n      dup1\n      calldatasize\n      sub\n      dup2\n      add\n      swap1\n      tag_281\n      swap2\n      swap1\n      tag_87\n      jump\t// in\n    tag_281:\n      tag_282\n      jump\t// in\n    tag_280:\n      stop\n        /* \"WatermelonBUSDDice.sol\":4313:4369  mapping (address => uint256) public playerCurrentResult2 */\n    tag_51:\n      callvalue\n      dup1\n      iszero\n      tag_283\n      jumpi\n      0x00\n      dup1\n      revert\n    tag_283:\n      pop\n      tag_284\n      0x04\n      dup1\n      calldatasize\n      sub\n      dup2\n      add\n      swap1\n      tag_285\n      swap2\n      swap1\n      tag_80\n      jump\t// in\n    tag_285:\n      tag_286\n      jump\t// in\n    tag_284:\n      mload(0x40)\n      tag_287\n      swap2\n      swap1\n      tag_96\n      jump\t// in\n    tag_287:\n      mload(0x40)\n      dup1\n      swap2\n      sub\n      swap1\n      return\n        /* \"WatermelonBUSDDice.sol\":11863:12315  function getResult() external view returns (uint256, uint256, bool){... */\n    tag_52:\n      callvalue\n      dup1\n      iszero\n      tag_288\n      jumpi\n      0x00\n      dup1\n      revert\n    tag_288:\n      pop\n      tag_289\n      tag_290\n      jump\t// in\n    tag_289:\n      mload(0x40)\n      tag_291\n      swap4\n      swap3\n      swap2\n      swap1\n      tag_83\n      jump\t// in\n    tag_291:\n      mload(0x40)\n      dup1\n      swap2\n      sub\n      swap1\n      return\n        /* \"WatermelonBUSDDice.sol\":4253:4309  mapping (address => uint256) public playerCurrentResult1 */\n    tag_53:\n      callvalue\n      dup1\n      iszero\n      tag_292\n      jumpi\n      0x00\n      dup1\n      revert\n    tag_292:\n      pop\n      tag_293\n      0x04\n      dup1\n      calldatasize\n      sub\n      dup2\n      add\n      swap1\n      tag_294\n      swap2\n      swap1\n      tag_80\n      jump\t// in\n    tag_294:\n      tag_295\n      jump\t// in\n    tag_293:\n      mload(0x40)\n      tag_296\n      swap2\n      swap1\n      tag_96\n      jump\t// in\n    tag_296:\n      mload(0x40)\n      dup1\n      swap2\n      sub\n      swap1\n      return\n        /* \"WatermelonBUSDDice.sol\":5943:6199  function setVRFv2SubscriptionManagerAddress(address _VRFv2SubscriptionManagerAddress) public onlyOwner {... */\n    tag_54:\n      callvalue\n      dup1\n      iszero\n      tag_297\n      jumpi\n      0x00\n      dup1\n      revert\n    tag_297:\n      pop\n      tag_298\n      0x04\n      dup1\n      calldatasize\n      sub\n      dup2\n      add\n      swap1\n      tag_299\n      swap2\n      swap1\n      tag_80\n      jump\t// in\n    tag_299:\n      tag_300\n      jump\t// in\n    tag_298:\n      stop\n        /* \"WatermelonBUSDDice.sol\":3774:3800  uint256 public s_requestId */\n    tag_55:\n      callvalue\n      dup1\n      iszero\n      tag_301\n      jumpi\n      0x00\n      dup1\n      revert\n    tag_301:\n      pop\n      tag_302\n      tag_303\n      jump\t// in\n    tag_302:\n      mload(0x40)\n      tag_304\n      swap2\n      swap1\n      tag_96\n      jump\t// in\n    tag_304:\n      mload(0x40)\n      dup1\n      swap2\n      sub\n      swap1\n      return\n        /* \"WatermelonBUSDDice.sol\":5820:5939  function setSubscriptionId(uint64 _setSubscriptionId) public onlyOwner {... */\n    tag_56:\n      callvalue\n      dup1\n      iszero\n      tag_305\n      jumpi\n      0x00\n      dup1\n      revert\n    tag_305:\n      pop\n      tag_306\n      0x04\n      dup1\n      calldatasize\n      sub\n      dup2\n      add\n      swap1\n      tag_307\n      swap2\n      swap1\n      tag_308\n      jump\t// in\n    tag_307:\n      tag_309\n      jump\t// in\n    tag_306:\n      stop\n        /* \"WatermelonBUSDDice.sol\":14015:14107  function transferOwnership(address _newOwner) external onlyOwner{... */\n    tag_57:\n      callvalue\n      dup1\n      iszero\n      tag_310\n      jumpi\n      0x00\n      dup1\n      revert\n    tag_310:\n      pop\n      tag_311\n      0x04\n      dup1\n      calldatasize\n      sub\n      dup2\n      add\n      swap1\n      tag_312\n      swap2\n      swap1\n      tag_80\n      jump\t// in\n    tag_312:\n      tag_313\n      jump\t// in\n    tag_311:\n      stop\n        /* \"WatermelonBUSDDice.sol\":3740:3770  uint256[] public s_randomWords */\n    tag_58:\n      callvalue\n      dup1\n      iszero\n      tag_314\n      jumpi\n      0x00\n      dup1\n      revert\n    tag_314:\n      pop\n      tag_315\n      0x04\n      dup1\n      calldatasize\n      sub\n      dup2\n      add\n      swap1\n      tag_316\n      swap2\n      swap1\n      tag_87\n      jump\t// in\n    tag_316:\n      tag_317\n      jump\t// in\n    tag_315:\n      mload(0x40)\n      tag_318\n      swap2\n      swap1\n      tag_96\n      jump\t// in\n    tag_318:\n      mload(0x40)\n      dup1\n      swap2\n      sub\n      swap1\n      return\n        /* \"WatermelonBUSDDice.sol\":3987:4028  uint256 public minBetAmount = 0.001 ether */\n    tag_59:\n      callvalue\n      dup1\n      iszero\n      tag_319\n      jumpi\n      0x00\n      dup1\n      revert\n    tag_319:\n      pop\n      tag_320\n      tag_321\n      jump\t// in\n    tag_320:\n      mload(0x40)\n      tag_322\n      swap2\n      swap1\n      tag_96\n      jump\t// in\n    tag_322:\n      mload(0x40)\n      dup1\n      swap2\n      sub\n      swap1\n      return\n        /* \"WatermelonBUSDDice.sol\":12319:12780  function getResultByAddress(address _address) public view returns (uint256, uint256, bool){... */\n    tag_81:\n        /* \"WatermelonBUSDDice.sol\":12386:12393  uint256 */\n      0x00\n        /* \"WatermelonBUSDDice.sol\":12395:12402  uint256 */\n      dup1\n        /* \"WatermelonBUSDDice.sol\":12404:12408  bool */\n      0x00\n        /* \"WatermelonBUSDDice.sol\":12415:12425  bool isWon */\n      dup1\n        /* \"WatermelonBUSDDice.sol\":12455:12456  1 */\n      0x01\n        /* \"WatermelonBUSDDice.sol\":12434:12441  userBet */\n      0x11\n        /* \"WatermelonBUSDDice.sol\":12434:12451  userBet[_address] */\n      0x00\n        /* \"WatermelonBUSDDice.sol\":12442:12450  _address */\n      dup8\n        /* \"WatermelonBUSDDice.sol\":12434:12451  userBet[_address] */\n      0xffffffffffffffffffffffffffffffffffffffff\n      and\n      0xffffffffffffffffffffffffffffffffffffffff\n      and\n      dup2\n      mstore\n      0x20\n      add\n      swap1\n      dup2\n      mstore\n      0x20\n      add\n      0x00\n      keccak256\n      sload\n        /* \"WatermelonBUSDDice.sol\":12434:12456  userBet[_address] == 1 */\n      sub\n        /* \"WatermelonBUSDDice.sol\":12431:12695  if(userBet[_address] == 1){... */\n      tag_324\n      jumpi\n        /* \"WatermelonBUSDDice.sol\":12535:12536  7 */\n      0x07\n        /* \"WatermelonBUSDDice.sol\":12500:12520  playerCurrentResult2 */\n      0x14\n        /* \"WatermelonBUSDDice.sol\":12500:12530  playerCurrentResult2[_address] */\n      0x00\n        /* \"WatermelonBUSDDice.sol\":12521:12529  _address */\n      dup8\n        /* \"WatermelonBUSDDice.sol\":12500:12530  playerCurrentResult2[_address] */\n      0xffffffffffffffffffffffffffffffffffffffff\n      and\n      0xffffffffffffffffffffffffffffffffffffffff\n      and\n      dup2\n      mstore\n      0x20\n      add\n      swap1\n      dup2\n      mstore\n      0x20\n      add\n      0x00\n      keccak256\n      sload\n        /* \"WatermelonBUSDDice.sol\":12469:12489  playerCurrentResult1 */\n      0x13\n        /* \"WatermelonBUSDDice.sol\":12469:12499  playerCurrentResult1[_address] */\n      0x00\n        /* \"WatermelonBUSDDice.sol\":12490:12498  _address */\n      dup9\n        /* \"WatermelonBUSDDice.sol\":12469:12499  playerCurrentResult1[_address] */\n      0xffffffffffffffffffffffffffffffffffffffff\n      and\n      0xffffffffffffffffffffffffffffffffffffffff\n      and\n      dup2\n      mstore\n      0x20\n      add\n      swap1\n      dup2\n      mstore\n      0x20\n      add\n      0x00\n      keccak256\n      sload\n        /* \"WatermelonBUSDDice.sol\":12469:12530  playerCurrentResult1[_address]+playerCurrentResult2[_address] */\n      tag_325\n      swap2\n      swap1\n      tag_326\n      jump\t// in\n    tag_325:\n        /* \"WatermelonBUSDDice.sol\":12468:12536  (playerCurrentResult1[_address]+playerCurrentResult2[_address]) >= 7 */\n      lt\n        /* \"WatermelonBUSDDice.sol\":12465:12568  if((playerCurrentResult1[_address]+playerCurrentResult2[_address]) >= 7){... */\n      tag_327\n      jumpi\n        /* \"WatermelonBUSDDice.sol\":12555:12559  true */\n      0x01\n        /* \"WatermelonBUSDDice.sol\":12547:12559  isWon = true */\n      swap1\n      pop\n        /* \"WatermelonBUSDDice.sol\":12465:12568  if((playerCurrentResult1[_address]+playerCurrentResult2[_address]) >= 7){... */\n    tag_327:\n        /* \"WatermelonBUSDDice.sol\":12431:12695  if(userBet[_address] == 1){... */\n      jump(tag_328)\n    tag_324:\n        /* \"WatermelonBUSDDice.sol\":12656:12657  7 */\n      0x07\n        /* \"WatermelonBUSDDice.sol\":12622:12642  playerCurrentResult2 */\n      0x14\n        /* \"WatermelonBUSDDice.sol\":12622:12652  playerCurrentResult2[_address] */\n      0x00\n        /* \"WatermelonBUSDDice.sol\":12643:12651  _address */\n      dup8\n        /* \"WatermelonBUSDDice.sol\":12622:12652  playerCurrentResult2[_address] */\n      0xffffffffffffffffffffffffffffffffffffffff\n      and\n      0xffffffffffffffffffffffffffffffffffffffff\n      and\n      dup2\n      mstore\n      0x20\n      add\n      swap1\n      dup2\n      mstore\n      0x20\n      add\n      0x00\n      keccak256\n      sload\n        /* \"WatermelonBUSDDice.sol\":12591:12611  playerCurrentResult1 */\n      0x13\n        /* \"WatermelonBUSDDice.sol\":12591:12621  playerCurrentResult1[_address] */\n      0x00\n        /* \"WatermelonBUSDDice.sol\":12612:12620  _address */\n      dup9\n        /* \"WatermelonBUSDDice.sol\":12591:12621  playerCurrentResult1[_address] */\n      0xffffffffffffffffffffffffffffffffffffffff\n      and\n      0xffffffffffffffffffffffffffffffffffffffff\n      and\n      dup2\n      mstore\n      0x20\n      add\n      swap1\n      dup2\n      mstore\n      0x20\n      add\n      0x00\n      keccak256\n      sload\n        /* \"WatermelonBUSDDice.sol\":12591:12652  playerCurrentResult1[_address]+playerCurrentResult2[_address] */\n      tag_329\n      swap2\n      swap1\n      tag_326\n      jump\t// in\n    tag_329:\n        /* \"WatermelonBUSDDice.sol\":12590:12657  (playerCurrentResult1[_address]+playerCurrentResult2[_address]) < 7 */\n      lt\n        /* \"WatermelonBUSDDice.sol\":12587:12689  if((playerCurrentResult1[_address]+playerCurrentResult2[_address]) < 7){... */\n      iszero\n      tag_330\n      jumpi\n        /* \"WatermelonBUSDDice.sol\":12676:12680  true */\n      0x01\n        /* \"WatermelonBUSDDice.sol\":12668:12680  isWon = true */\n      swap1\n      pop\n        /* \"WatermelonBUSDDice.sol\":12587:12689  if((playerCurrentResult1[_address]+playerCurrentResult2[_address]) < 7){... */\n    tag_330:\n        /* \"WatermelonBUSDDice.sol\":12431:12695  if(userBet[_address] == 1){... */\n    tag_328:\n        /* \"WatermelonBUSDDice.sol\":12707:12727  playerCurrentResult1 */\n      0x13\n        /* \"WatermelonBUSDDice.sol\":12707:12737  playerCurrentResult1[_address] */\n      0x00\n        /* \"WatermelonBUSDDice.sol\":12728:12736  _address */\n      dup7\n        /* \"WatermelonBUSDDice.sol\":12707:12737  playerCurrentResult1[_address] */\n      0xffffffffffffffffffffffffffffffffffffffff\n      and\n      0xffffffffffffffffffffffffffffffffffffffff\n      and\n      dup2\n      mstore\n      0x20\n      add\n      swap1\n      dup2\n      mstore\n      0x20\n      add\n      0x00\n      keccak256\n      sload\n        /* \"WatermelonBUSDDice.sol\":12738:12758  playerCurrentResult2 */\n      0x14\n        /* \"WatermelonBUSDDice.sol\":12738:12768  playerCurrentResult2[_address] */\n      0x00\n        /* \"WatermelonBUSDDice.sol\":12759:12767  _address */\n      dup8\n        /* \"WatermelonBUSDDice.sol\":12738:12768  playerCurrentResult2[_address] */\n      0xffffffffffffffffffffffffffffffffffffffff\n      and\n      0xffffffffffffffffffffffffffffffffffffffff\n      and\n      dup2\n      mstore\n      0x20\n      add\n      swap1\n      dup2\n      mstore\n      0x20\n      add\n      0x00\n      keccak256\n      sload\n        /* \"WatermelonBUSDDice.sol\":12769:12774  isWon */\n      dup3\n        /* \"WatermelonBUSDDice.sol\":12700:12775  return(playerCurrentResult1[_address],playerCurrentResult2[_address],isWon) */\n      swap4\n      pop\n      swap4\n      pop\n      swap4\n      pop\n      pop\n        /* \"WatermelonBUSDDice.sol\":12319:12780  function getResultByAddress(address _address) public view returns (uint256, uint256, bool){... */\n      swap2\n      swap4\n      swap1\n      swap3\n      pop\n      jump\t// out\n        /* \"WatermelonBUSDDice.sol\":4657:4709  mapping (uint256 => address) public requesterAddress */\n    tag_88:\n      mstore(0x20, 0x1a)\n      dup1\n      0x00\n      mstore\n      keccak256(0x00, 0x40)\n      0x00\n      swap2\n      pop\n      sload\n      swap1\n      0x0100\n      exp\n      swap1\n      div\n      0xffffffffffffffffffffffffffffffffffffffff\n      and\n      dup2\n      jump\t// out\n        /* \"WatermelonBUSDDice.sol\":4373:4424  mapping (address => uint256) public playerTotalBets */\n    tag_94:\n      mstore(0x20, 0x15)\n      dup1\n      0x00\n      mstore\n      keccak256(0x00, 0x40)\n      0x00\n      swap2\n      pop\n      swap1\n      pop\n      sload\n      dup2\n      jump\t// out\n        /* \"WatermelonBUSDDice.sol\":7072:7204  function setMinChainlinkBalance(uint256 _minChainlinkBalance) public onlyOwner {... */\n    tag_100:\n        /* \"WatermelonBUSDDice.sol\":14582:14589  s_owner */\n      0x07\n      0x00\n      swap1\n      sload\n      swap1\n      0x0100\n      exp\n      swap1\n      div\n      0xffffffffffffffffffffffffffffffffffffffff\n      and\n        /* \"WatermelonBUSDDice.sol\":14568:14589  msg.sender == s_owner */\n      0xffffffffffffffffffffffffffffffffffffffff\n      and\n        /* \"WatermelonBUSDDice.sol\":14568:14578  msg.sender */\n      caller\n        /* \"WatermelonBUSDDice.sol\":14568:14589  msg.sender == s_owner */\n      0xffffffffffffffffffffffffffffffffffffffff\n      and\n      eq\n        /* \"WatermelonBUSDDice.sol\":14560:14590  require(msg.sender == s_owner) */\n      tag_332\n      jumpi\n      0x00\n      dup1\n      revert\n    tag_332:\n        /* \"WatermelonBUSDDice.sol\":7179:7199  _minChainlinkBalance */\n      dup1\n        /* \"WatermelonBUSDDice.sol\":7157:7176  minChainlinkBalance */\n      0x0e\n        /* \"WatermelonBUSDDice.sol\":7157:7199  minChainlinkBalance = _minChainlinkBalance */\n      dup2\n      swap1\n      sstore\n      pop\n        /* \"WatermelonBUSDDice.sol\":7072:7204  function setMinChainlinkBalance(uint256 _minChainlinkBalance) public onlyOwner {... */\n      pop\n      jump\t// out\n        /* \"WatermelonBUSDDice.sol\":4990:5016  address public wmlnAddress */\n    tag_103:\n      0x24\n      0x00\n      swap1\n      sload\n      swap1\n      0x0100\n      exp\n      swap1\n      div\n      0xffffffffffffffffffffffffffffffffffffffff\n      and\n      dup2\n      jump\t// out\n        /* \"WatermelonBUSDDice.sol\":13620:13792  function withdrawBNB() onlyOwner isPaused external{ ... */\n    tag_107:\n        /* \"WatermelonBUSDDice.sol\":14582:14589  s_owner */\n      0x07\n      0x00\n      swap1\n      sload\n      swap1\n      0x0100\n      exp\n      swap1\n      div\n      0xffffffffffffffffffffffffffffffffffffffff\n      and\n        /* \"WatermelonBUSDDice.sol\":14568:14589  msg.sender == s_owner */\n      0xffffffffffffffffffffffffffffffffffffffff\n      and\n        /* \"WatermelonBUSDDice.sol\":14568:14578  msg.sender */\n      caller\n        /* \"WatermelonBUSDDice.sol\":14568:14589  msg.sender == s_owner */\n      0xffffffffffffffffffffffffffffffffffffffff\n      and\n      eq\n        /* \"WatermelonBUSDDice.sol\":14560:14590  require(msg.sender == s_owner) */\n      tag_335\n      jumpi\n      0x00\n      dup1\n      revert\n    tag_335:\n        /* \"WatermelonBUSDDice.sol\":14718:14722  true */\n      0x01\n        /* \"WatermelonBUSDDice.sol\":14708:14722  paused == true */\n      iszero\n      iszero\n        /* \"WatermelonBUSDDice.sol\":14708:14714  paused */\n      0x29\n      0x14\n      swap1\n      sload\n      swap1\n      0x0100\n      exp\n      swap1\n      div\n      0xff\n      and\n        /* \"WatermelonBUSDDice.sol\":14708:14722  paused == true */\n      iszero\n      iszero\n      eq\n        /* \"WatermelonBUSDDice.sol\":14700:14723  require(paused == true) */\n      tag_337\n      jumpi\n      0x00\n      dup1\n      revert\n    tag_337:\n        /* \"WatermelonBUSDDice.sol\":13678:13690  bool success */\n      0x00\n        /* \"WatermelonBUSDDice.sol\":13696:13706  msg.sender */\n      caller\n        /* \"WatermelonBUSDDice.sol\":13696:13711  msg.sender.call */\n      0xffffffffffffffffffffffffffffffffffffffff\n      and\n        /* \"WatermelonBUSDDice.sol\":13719:13740  address(this).balance */\n      selfbalance\n        /* \"WatermelonBUSDDice.sol\":13696:13745  msg.sender.call{value: address(this).balance}(\"\") */\n      mload(0x40)\n      tag_339\n      swap1\n      tag_340\n      jump\t// in\n    tag_339:\n      0x00\n      mload(0x40)\n      dup1\n      dup4\n      sub\n      dup2\n      dup6\n      dup8\n      gas\n      call\n      swap3\n      pop\n      pop\n      pop\n      returndatasize\n      dup1\n      0x00\n      dup2\n      eq\n      tag_343\n      jumpi\n      mload(0x40)\n      swap2\n      pop\n      and(add(returndatasize, 0x3f), not(0x1f))\n      dup3\n      add\n      0x40\n      mstore\n      returndatasize\n      dup3\n      mstore\n      returndatasize\n      0x00\n      0x20\n      dup5\n      add\n      returndatacopy\n      jump(tag_342)\n    tag_343:\n      0x60\n      swap2\n      pop\n    tag_342:\n      pop\n        /* \"WatermelonBUSDDice.sol\":13677:13745  (bool success, ) = msg.sender.call{value: address(this).balance}(\"\") */\n      pop\n      swap1\n      pop\n        /* \"WatermelonBUSDDice.sol\":13759:13766  success */\n      dup1\n        /* \"WatermelonBUSDDice.sol\":13751:13787  require(success, \"Transfer failed.\") */\n      tag_344\n      jumpi\n      mload(0x40)\n      0x08c379a000000000000000000000000000000000000000000000000000000000\n      dup2\n      mstore\n      0x04\n      add\n      tag_345\n      swap1\n      tag_346\n      jump\t// in\n    tag_345:\n      mload(0x40)\n      dup1\n      swap2\n      sub\n      swap1\n      revert\n    tag_344:\n        /* \"WatermelonBUSDDice.sol\":13670:13792  { ... */\n      pop\n        /* \"WatermelonBUSDDice.sol\":13620:13792  function withdrawBNB() onlyOwner isPaused external{ ... */\n      jump\t// out\n        /* \"WatermelonBUSDDice.sol\":450:706  function rawFulfillRandomWords(uint256 requestId, uint256[] memory randomWords) external {... */\n    tag_112:\n        /* \"WatermelonBUSDDice.sol\":563:577  vrfCoordinator */\n      immutable(\"0xd2f8f61201b2b11a78d6e866abc9c3db2ae8631fa656bfe5cb53668255367afb\")\n        /* \"WatermelonBUSDDice.sol\":549:577  msg.sender != vrfCoordinator */\n      0xffffffffffffffffffffffffffffffffffffffff\n      and\n        /* \"WatermelonBUSDDice.sol\":549:559  msg.sender */\n      caller\n        /* \"WatermelonBUSDDice.sol\":549:577  msg.sender != vrfCoordinator */\n      0xffffffffffffffffffffffffffffffffffffffff\n      and\n      eq\n        /* \"WatermelonBUSDDice.sol\":545:654  if (msg.sender != vrfCoordinator) {... */\n      tag_348\n      jumpi\n        /* \"WatermelonBUSDDice.sol\":620:630  msg.sender */\n      caller\n        /* \"WatermelonBUSDDice.sol\":632:646  vrfCoordinator */\n      immutable(\"0xd2f8f61201b2b11a78d6e866abc9c3db2ae8631fa656bfe5cb53668255367afb\")\n        /* \"WatermelonBUSDDice.sol\":594:647  OnlyCoordinatorCanFulfill(msg.sender, vrfCoordinator) */\n      mload(0x40)\n      0x1cf993f400000000000000000000000000000000000000000000000000000000\n      dup2\n      mstore\n      0x04\n      add\n      tag_349\n      swap3\n      swap2\n      swap1\n      tag_350\n      jump\t// in\n    tag_349:\n      mload(0x40)\n      dup1\n      swap2\n      sub\n      swap1\n      revert\n        /* \"WatermelonBUSDDice.sol\":545:654  if (msg.sender != vrfCoordinator) {... */\n    tag_348:\n        /* \"WatermelonBUSDDice.sol\":659:701  fulfillRandomWords(requestId, randomWords) */\n      tag_351\n        /* \"WatermelonBUSDDice.sol\":678:687  requestId */\n      dup3\n        /* \"WatermelonBUSDDice.sol\":689:700  randomWords */\n      dup3\n        /* \"WatermelonBUSDDice.sol\":659:677  fulfillRandomWords */\n      tag_352\n        /* \"WatermelonBUSDDice.sol\":659:701  fulfillRandomWords(requestId, randomWords) */\n      jump\t// in\n    tag_351:\n        /* \"WatermelonBUSDDice.sol\":450:706  function rawFulfillRandomWords(uint256 requestId, uint256[] memory randomWords) external {... */\n      pop\n      pop\n      jump\t// out\n        /* \"WatermelonBUSDDice.sol\":8963:9083  function getRoundStatusByAddress(address _address) external view returns (bool){... */\n    tag_116:\n        /* \"WatermelonBUSDDice.sol\":9037:9041  bool */\n      0x00\n        /* \"WatermelonBUSDDice.sol\":9057:9068  roundStatus */\n      0x1b\n        /* \"WatermelonBUSDDice.sol\":9057:9078  roundStatus[_address] */\n      0x00\n        /* \"WatermelonBUSDDice.sol\":9069:9077  _address */\n      dup4\n        /* \"WatermelonBUSDDice.sol\":9057:9078  roundStatus[_address] */\n      0xffffffffffffffffffffffffffffffffffffffff\n      and\n      0xffffffffffffffffffffffffffffffffffffffff\n      and\n      dup2\n      mstore\n      0x20\n      add\n      swap1\n      dup2\n      mstore\n      0x20\n      add\n      0x00\n      keccak256\n      0x00\n      swap1\n      sload\n      swap1\n      0x0100\n      exp\n      swap1\n      div\n      0xff\n      and\n        /* \"WatermelonBUSDDice.sol\":9050:9078  return roundStatus[_address] */\n      swap1\n      pop\n        /* \"WatermelonBUSDDice.sol\":8963:9083  function getRoundStatusByAddress(address _address) external view returns (bool){... */\n      swap2\n      swap1\n      pop\n      jump\t// out\n        /* \"WatermelonBUSDDice.sol\":5020:5066  address public VRFv2SubscriptionManagerAddress */\n    tag_121:\n      0x25\n      0x00\n      swap1\n      sload\n      swap1\n      0x0100\n      exp\n      swap1\n      div\n      0xffffffffffffffffffffffffffffffffffffffff\n      and\n      dup2\n      jump\t// out\n        /* \"WatermelonBUSDDice.sol\":3952:3983  uint256 public maxBetPercentage */\n    tag_125:\n      sload(0x0c)\n      dup2\n      jump\t// out\n        /* \"WatermelonBUSDDice.sol\":4041:4085  uint256 public minChainlinkBalance = 5 ether */\n    tag_129:\n      sload(0x0e)\n      dup2\n      jump\t// out\n        /* \"WatermelonBUSDDice.sol\":3854:3881  uint256 public totalBetsWon */\n    tag_133:\n      sload(0x09)\n      dup2\n      jump\t// out\n        /* \"WatermelonBUSDDice.sol\":4600:4651  mapping (address => uint256) public userLostBalance */\n    tag_138:\n      mstore(0x20, 0x19)\n      dup1\n      0x00\n      mstore\n      keccak256(0x00, 0x40)\n      0x00\n      swap2\n      pop\n      swap1\n      pop\n      sload\n      dup2\n      jump\t// out\n        /* \"WatermelonBUSDDice.sol\":4428:4483  mapping (address => uint256) public playerTotalWinnings */\n    tag_143:\n      mstore(0x20, 0x16)\n      dup1\n      0x00\n      mstore\n      keccak256(0x00, 0x40)\n      0x00\n      swap2\n      pop\n      swap1\n      pop\n      sload\n      dup2\n      jump\t// out\n        /* \"WatermelonBUSDDice.sol\":14191:14258  function pauseContract() external onlyOwner{... */\n    tag_147:\n        /* \"WatermelonBUSDDice.sol\":14582:14589  s_owner */\n      0x07\n      0x00\n      swap1\n      sload\n      swap1\n      0x0100\n      exp\n      swap1\n      div\n      0xffffffffffffffffffffffffffffffffffffffff\n      and\n        /* \"WatermelonBUSDDice.sol\":14568:14589  msg.sender == s_owner */\n      0xffffffffffffffffffffffffffffffffffffffff\n      and\n        /* \"WatermelonBUSDDice.sol\":14568:14578  msg.sender */\n      caller\n        /* \"WatermelonBUSDDice.sol\":14568:14589  msg.sender == s_owner */\n      0xffffffffffffffffffffffffffffffffffffffff\n      and\n      eq\n        /* \"WatermelonBUSDDice.sol\":14560:14590  require(msg.sender == s_owner) */\n      tag_355\n      jumpi\n      0x00\n      dup1\n      revert\n    tag_355:\n        /* \"WatermelonBUSDDice.sol\":14249:14253  true */\n      0x01\n        /* \"WatermelonBUSDDice.sol\":14240:14246  paused */\n      0x29\n      0x14\n        /* \"WatermelonBUSDDice.sol\":14240:14253  paused = true */\n      0x0100\n      exp\n      dup2\n      sload\n      dup2\n      0xff\n      mul\n      not\n      and\n      swap1\n      dup4\n      iszero\n      iszero\n      mul\n      or\n      swap1\n      sstore\n      pop\n        /* \"WatermelonBUSDDice.sol\":14191:14258  function pauseContract() external onlyOwner{... */\n      jump\t// out\n        /* \"WatermelonBUSDDice.sol\":7430:7514  function betDown(uint256 _amount) isUnpaused external {... */\n    tag_151:\n        /* \"WatermelonBUSDDice.sol\":14652:14657  false */\n      0x00\n        /* \"WatermelonBUSDDice.sol\":14642:14657  paused == false */\n      iszero\n      iszero\n        /* \"WatermelonBUSDDice.sol\":14642:14648  paused */\n      0x29\n      0x14\n      swap1\n      sload\n      swap1\n      0x0100\n      exp\n      swap1\n      div\n      0xff\n      and\n        /* \"WatermelonBUSDDice.sol\":14642:14657  paused == false */\n      iszero\n      iszero\n      eq\n        /* \"WatermelonBUSDDice.sol\":14634:14658  require(paused == false) */\n      tag_358\n      jumpi\n      0x00\n      dup1\n      revert\n    tag_358:\n        /* \"WatermelonBUSDDice.sol\":7490:7509  rollDice(0,_amount) */\n      tag_360\n        /* \"WatermelonBUSDDice.sol\":7499:7500  0 */\n      0x00\n        /* \"WatermelonBUSDDice.sol\":7501:7508  _amount */\n      dup3\n        /* \"WatermelonBUSDDice.sol\":7490:7498  rollDice */\n      tag_361\n        /* \"WatermelonBUSDDice.sol\":7490:7509  rollDice(0,_amount) */\n      jump\t// in\n    tag_360:\n        /* \"WatermelonBUSDDice.sol\":7430:7514  function betDown(uint256 _amount) isUnpaused external {... */\n      pop\n      jump\t// out\n        /* \"WatermelonBUSDDice.sol\":13222:13591  function injectBUSD(uint256 _amount) payable external {... */\n    tag_154:\n        /* \"WatermelonBUSDDice.sol\":13340:13347  _amount */\n      dup1\n        /* \"WatermelonBUSDDice.sol\":13290:13299  busdToken */\n      0x27\n      0x00\n      swap1\n      sload\n      swap1\n      0x0100\n      exp\n      swap1\n      div\n      0xffffffffffffffffffffffffffffffffffffffff\n      and\n        /* \"WatermelonBUSDDice.sol\":13290:13309  busdToken.allowance */\n      0xffffffffffffffffffffffffffffffffffffffff\n      and\n      0xdd62ed3e\n        /* \"WatermelonBUSDDice.sol\":13310:13320  msg.sender */\n      caller\n        /* \"WatermelonBUSDDice.sol\":13330:13334  this */\n      address\n        /* \"WatermelonBUSDDice.sol\":13290:13336  busdToken.allowance(msg.sender, address(this)) */\n      mload(0x40)\n      dup4\n      0xffffffff\n      and\n      0xe0\n      shl\n      dup2\n      mstore\n      0x04\n      add\n      tag_363\n      swap3\n      swap2\n      swap1\n      tag_350\n      jump\t// in\n    tag_363:\n      0x20\n      mload(0x40)\n      dup1\n      dup4\n      sub\n      dup2\n      dup7\n      gas\n      staticcall\n      iszero\n      dup1\n      iszero\n      tag_365\n      jumpi\n      returndatasize\n      0x00\n      dup1\n      returndatacopy\n      revert(0x00, returndatasize)\n    tag_365:\n      pop\n      pop\n      pop\n      pop\n      mload(0x40)\n      returndatasize\n      not(0x1f)\n      0x1f\n      dup3\n      add\n      and\n      dup3\n      add\n      dup1\n      0x40\n      mstore\n      pop\n      dup2\n      add\n      swap1\n      tag_366\n      swap2\n      swap1\n      tag_367\n      jump\t// in\n    tag_366:\n        /* \"WatermelonBUSDDice.sol\":13290:13347  busdToken.allowance(msg.sender, address(this)) >= _amount */\n      lt\n      iszero\n        /* \"WatermelonBUSDDice.sol\":13282:13371  require(busdToken.allowance(msg.sender, address(this)) >= _amount,\"Not enough allowance\") */\n      tag_368\n      jumpi\n      mload(0x40)\n      0x08c379a000000000000000000000000000000000000000000000000000000000\n      dup2\n      mstore\n      0x04\n      add\n      tag_369\n      swap1\n      tag_370\n      jump\t// in\n    tag_369:\n      mload(0x40)\n      dup1\n      swap2\n      sub\n      swap1\n      revert\n    tag_368:\n        /* \"WatermelonBUSDDice.sol\":13420:13427  _amount */\n      dup1\n        /* \"WatermelonBUSDDice.sol\":13385:13394  busdToken */\n      0x27\n      0x00\n      swap1\n      sload\n      swap1\n      0x0100\n      exp\n      swap1\n      div\n      0xffffffffffffffffffffffffffffffffffffffff\n      and\n        /* \"WatermelonBUSDDice.sol\":13385:13404  busdToken.balanceOf */\n      0xffffffffffffffffffffffffffffffffffffffff\n      and\n      0x70a08231\n        /* \"WatermelonBUSDDice.sol\":13405:13415  msg.sender */\n      caller\n        /* \"WatermelonBUSDDice.sol\":13385:13416  busdToken.balanceOf(msg.sender) */\n      mload(0x40)\n      dup3\n      0xffffffff\n      and\n      0xe0\n      shl\n      dup2\n      mstore\n      0x04\n      add\n      tag_371\n      swap2\n      swap1\n      tag_90\n      jump\t// in\n    tag_371:\n      0x20\n      mload(0x40)\n      dup1\n      dup4\n      sub\n      dup2\n      dup7\n      gas\n      staticcall\n      iszero\n      dup1\n      iszero\n      tag_373\n      jumpi\n      returndatasize\n      0x00\n      dup1\n      returndatacopy\n      revert(0x00, returndatasize)\n    tag_373:\n      pop\n      pop\n      pop\n      pop\n      mload(0x40)\n      returndatasize\n      not(0x1f)\n      0x1f\n      dup3\n      add\n      and\n      dup3\n      add\n      dup1\n      0x40\n      mstore\n      pop\n      dup2\n      add\n      swap1\n      tag_374\n      swap2\n      swap1\n      tag_367\n      jump\t// in\n    tag_374:\n        /* \"WatermelonBUSDDice.sol\":13385:13427  busdToken.balanceOf(msg.sender) >= _amount */\n      lt\n      iszero\n        /* \"WatermelonBUSDDice.sol\":13377:13456  require(busdToken.balanceOf(msg.sender) >= _amount,\"Insufficient BUSD balance\") */\n      tag_375\n      jumpi\n      mload(0x40)\n      0x08c379a000000000000000000000000000000000000000000000000000000000\n      dup2\n      mstore\n      0x04\n      add\n      tag_376\n      swap1\n      tag_377\n      jump\t// in\n    tag_376:\n      mload(0x40)\n      dup1\n      swap2\n      sub\n      swap1\n      revert\n    tag_375:\n        /* \"WatermelonBUSDDice.sol\":13466:13478  bool success */\n      0x00\n        /* \"WatermelonBUSDDice.sol\":13481:13490  busdToken */\n      0x27\n      0x00\n      swap1\n      sload\n      swap1\n      0x0100\n      exp\n      swap1\n      div\n      0xffffffffffffffffffffffffffffffffffffffff\n      and\n        /* \"WatermelonBUSDDice.sol\":13481:13503  busdToken.transferFrom */\n      0xffffffffffffffffffffffffffffffffffffffff\n      and\n      0x23b872dd\n        /* \"WatermelonBUSDDice.sol\":13504:13514  msg.sender */\n      caller\n        /* \"WatermelonBUSDDice.sol\":13524:13528  this */\n      address\n        /* \"WatermelonBUSDDice.sol\":13531:13538  _amount */\n      dup6\n        /* \"WatermelonBUSDDice.sol\":13481:13539  busdToken.transferFrom(msg.sender, address(this), _amount) */\n      mload(0x40)\n      dup5\n      0xffffffff\n      and\n      0xe0\n      shl\n      dup2\n      mstore\n      0x04\n      add\n      tag_378\n      swap4\n      swap3\n      swap2\n      swap1\n      tag_379\n      jump\t// in\n    tag_378:\n      0x20\n      mload(0x40)\n      dup1\n      dup4\n      sub\n      dup2\n      0x00\n      dup8\n      gas\n      call\n      iszero\n      dup1\n      iszero\n      tag_381\n      jumpi\n      returndatasize\n      0x00\n      dup1\n      returndatacopy\n      revert(0x00, returndatasize)\n    tag_381:\n      pop\n      pop\n      pop\n      pop\n      mload(0x40)\n      returndatasize\n      not(0x1f)\n      0x1f\n      dup3\n      add\n      and\n      dup3\n      add\n      dup1\n      0x40\n      mstore\n      pop\n      dup2\n      add\n      swap1\n      tag_382\n      swap2\n      swap1\n      tag_383\n      jump\t// in\n    tag_382:\n        /* \"WatermelonBUSDDice.sol\":13466:13539  bool success = busdToken.transferFrom(msg.sender, address(this), _amount) */\n      swap1\n      pop\n        /* \"WatermelonBUSDDice.sol\":13553:13560  success */\n      dup1\n        /* \"WatermelonBUSDDice.sol\":13545:13586  require(success, \"BUSD Transfer failed.\") */\n      tag_384\n      jumpi\n      mload(0x40)\n      0x08c379a000000000000000000000000000000000000000000000000000000000\n      dup2\n      mstore\n      0x04\n      add\n      tag_385\n      swap1\n      tag_386\n      jump\t// in\n    tag_385:\n      mload(0x40)\n      dup1\n      swap2\n      sub\n      swap1\n      revert\n    tag_384:\n        /* \"WatermelonBUSDDice.sol\":13276:13591  {... */\n      pop\n        /* \"WatermelonBUSDDice.sol\":13222:13591  function injectBUSD(uint256 _amount) payable external {... */\n      pop\n      jump\t// out\n        /* \"WatermelonBUSDDice.sol\":6420:6541  function getVRFsubscriptionBalance() public view returns(uint256) {... */\n    tag_157:\n        /* \"WatermelonBUSDDice.sol\":6477:6484  uint256 */\n      0x00\n        /* \"WatermelonBUSDDice.sol\":6501:6511  VRFmanager */\n      0x28\n      0x00\n      swap1\n      sload\n      swap1\n      0x0100\n      exp\n      swap1\n      div\n      0xffffffffffffffffffffffffffffffffffffffff\n      and\n        /* \"WatermelonBUSDDice.sol\":6501:6534  VRFmanager.getSubscriptionBalance */\n      0xffffffffffffffffffffffffffffffffffffffff\n      and\n      0xcd06e3ea\n        /* \"WatermelonBUSDDice.sol\":6501:6536  VRFmanager.getSubscriptionBalance() */\n      mload(0x40)\n      dup2\n      0xffffffff\n      and\n      0xe0\n      shl\n      dup2\n      mstore\n      0x04\n      add\n      0x20\n      mload(0x40)\n      dup1\n      dup4\n      sub\n      dup2\n      dup7\n      gas\n      staticcall\n      iszero\n      dup1\n      iszero\n      tag_389\n      jumpi\n      returndatasize\n      0x00\n      dup1\n      returndatacopy\n      revert(0x00, returndatasize)\n    tag_389:\n      pop\n      pop\n      pop\n      pop\n      mload(0x40)\n      returndatasize\n      not(0x1f)\n      0x1f\n      dup3\n      add\n      and\n      dup3\n      add\n      dup1\n      0x40\n      mstore\n      pop\n      dup2\n      add\n      swap1\n      tag_390\n      swap2\n      swap1\n      tag_367\n      jump\t// in\n    tag_390:\n        /* \"WatermelonBUSDDice.sol\":6494:6536  return VRFmanager.getSubscriptionBalance() */\n      swap1\n      pop\n        /* \"WatermelonBUSDDice.sol\":6420:6541  function getVRFsubscriptionBalance() public view returns(uint256) {... */\n      swap1\n      jump\t// out\n        /* \"WatermelonBUSDDice.sol\":7208:7340  function getMaxBetAmount() public view returns(uint256){... */\n    tag_161:\n        /* \"WatermelonBUSDDice.sol\":7255:7262  uint256 */\n      0x00\n        /* \"WatermelonBUSDDice.sol\":7332:7335  100 */\n      0x64\n        /* \"WatermelonBUSDDice.sol\":7314:7330  maxBetPercentage */\n      sload(0x0c)\n        /* \"WatermelonBUSDDice.sol\":7277:7286  busdToken */\n      0x27\n      0x00\n      swap1\n      sload\n      swap1\n      0x0100\n      exp\n      swap1\n      div\n      0xffffffffffffffffffffffffffffffffffffffff\n      and\n        /* \"WatermelonBUSDDice.sol\":7277:7296  busdToken.balanceOf */\n      0xffffffffffffffffffffffffffffffffffffffff\n      and\n      0x70a08231\n        /* \"WatermelonBUSDDice.sol\":7305:7309  this */\n      address\n        /* \"WatermelonBUSDDice.sol\":7277:7311  busdToken.balanceOf(address(this)) */\n      mload(0x40)\n      dup3\n      0xffffffff\n      and\n      0xe0\n      shl\n      dup2\n      mstore\n      0x04\n      add\n      tag_392\n      swap2\n      swap1\n      tag_90\n      jump\t// in\n    tag_392:\n      0x20\n      mload(0x40)\n      dup1\n      dup4\n      sub\n      dup2\n      dup7\n      gas\n      staticcall\n      iszero\n      dup1\n      iszero\n      tag_394\n      jumpi\n      returndatasize\n      0x00\n      dup1\n      returndatacopy\n      revert(0x00, returndatasize)\n    tag_394:\n      pop\n      pop\n      pop\n      pop\n      mload(0x40)\n      returndatasize\n      not(0x1f)\n      0x1f\n      dup3\n      add\n      and\n      dup3\n      add\n      dup1\n      0x40\n      mstore\n      pop\n      dup2\n      add\n      swap1\n      tag_395\n      swap2\n      swap1\n      tag_367\n      jump\t// in\n    tag_395:\n        /* \"WatermelonBUSDDice.sol\":7277:7330  busdToken.balanceOf(address(this)) * maxBetPercentage */\n      tag_396\n      swap2\n      swap1\n      tag_397\n      jump\t// in\n    tag_396:\n        /* \"WatermelonBUSDDice.sol\":7276:7335  (busdToken.balanceOf(address(this)) * maxBetPercentage)/100 */\n      tag_398\n      swap2\n      swap1\n      tag_399\n      jump\t// in\n    tag_398:\n        /* \"WatermelonBUSDDice.sol\":7269:7335  return (busdToken.balanceOf(address(this)) * maxBetPercentage)/100 */\n      swap1\n      pop\n        /* \"WatermelonBUSDDice.sol\":7208:7340  function getMaxBetAmount() public view returns(uint256){... */\n      swap1\n      jump\t// out\n        /* \"WatermelonBUSDDice.sol\":4205:4249  mapping (uint256 => uint256) public betValue */\n    tag_166:\n      mstore(0x20, 0x12)\n      dup1\n      0x00\n      mstore\n      keccak256(0x00, 0x40)\n      0x00\n      swap2\n      pop\n      swap1\n      pop\n      sload\n      dup2\n      jump\t// out\n        /* \"WatermelonBUSDDice.sol\":13821:14011  function withdrawBUSD() onlyOwner isPaused external{ ... */\n    tag_170:\n        /* \"WatermelonBUSDDice.sol\":14582:14589  s_owner */\n      0x07\n      0x00\n      swap1\n      sload\n      swap1\n      0x0100\n      exp\n      swap1\n      div\n      0xffffffffffffffffffffffffffffffffffffffff\n      and\n        /* \"WatermelonBUSDDice.sol\":14568:14589  msg.sender == s_owner */\n      0xffffffffffffffffffffffffffffffffffffffff\n      and\n        /* \"WatermelonBUSDDice.sol\":14568:14578  msg.sender */\n      caller\n        /* \"WatermelonBUSDDice.sol\":14568:14589  msg.sender == s_owner */\n      0xffffffffffffffffffffffffffffffffffffffff\n      and\n      eq\n        /* \"WatermelonBUSDDice.sol\":14560:14590  require(msg.sender == s_owner) */\n      tag_401\n      jumpi\n      0x00\n      dup1\n      revert\n    tag_401:\n        /* \"WatermelonBUSDDice.sol\":14718:14722  true */\n      0x01\n        /* \"WatermelonBUSDDice.sol\":14708:14722  paused == true */\n      iszero\n      iszero\n        /* \"WatermelonBUSDDice.sol\":14708:14714  paused */\n      0x29\n      0x14\n      swap1\n      sload\n      swap1\n      0x0100\n      exp\n      swap1\n      div\n      0xff\n      and\n        /* \"WatermelonBUSDDice.sol\":14708:14722  paused == true */\n      iszero\n      iszero\n      eq\n        /* \"WatermelonBUSDDice.sol\":14700:14723  require(paused == true) */\n      tag_403\n      jumpi\n      0x00\n      dup1\n      revert\n    tag_403:\n        /* \"WatermelonBUSDDice.sol\":13879:13891  bool success */\n      0x00\n        /* \"WatermelonBUSDDice.sol\":13894:13903  busdToken */\n      0x27\n      0x00\n      swap1\n      sload\n      swap1\n      0x0100\n      exp\n      swap1\n      div\n      0xffffffffffffffffffffffffffffffffffffffff\n      and\n        /* \"WatermelonBUSDDice.sol\":13894:13912  busdToken.transfer */\n      0xffffffffffffffffffffffffffffffffffffffff\n      and\n      0xa9059cbb\n        /* \"WatermelonBUSDDice.sol\":13913:13923  msg.sender */\n      caller\n        /* \"WatermelonBUSDDice.sol\":13924:13933  busdToken */\n      0x27\n      0x00\n      swap1\n      sload\n      swap1\n      0x0100\n      exp\n      swap1\n      div\n      0xffffffffffffffffffffffffffffffffffffffff\n      and\n        /* \"WatermelonBUSDDice.sol\":13924:13943  busdToken.balanceOf */\n      0xffffffffffffffffffffffffffffffffffffffff\n      and\n      0x70a08231\n        /* \"WatermelonBUSDDice.sol\":13952:13956  this */\n      address\n        /* \"WatermelonBUSDDice.sol\":13924:13958  busdToken.balanceOf(address(this)) */\n      mload(0x40)\n      dup3\n      0xffffffff\n      and\n      0xe0\n      shl\n      dup2\n      mstore\n      0x04\n      add\n      tag_405\n      swap2\n      swap1\n      tag_90\n      jump\t// in\n    tag_405:\n      0x20\n      mload(0x40)\n      dup1\n      dup4\n      sub\n      dup2\n      dup7\n      gas\n      staticcall\n      iszero\n      dup1\n      iszero\n      tag_407\n      jumpi\n      returndatasize\n      0x00\n      dup1\n      returndatacopy\n      revert(0x00, returndatasize)\n    tag_407:\n      pop\n      pop\n      pop\n      pop\n      mload(0x40)\n      returndatasize\n      not(0x1f)\n      0x1f\n      dup3\n      add\n      and\n      dup3\n      add\n      dup1\n      0x40\n      mstore\n      pop\n      dup2\n      add\n      swap1\n      tag_408\n      swap2\n      swap1\n      tag_367\n      jump\t// in\n    tag_408:\n        /* \"WatermelonBUSDDice.sol\":13894:13959  busdToken.transfer(msg.sender,busdToken.balanceOf(address(this))) */\n      mload(0x40)\n      dup4\n      0xffffffff\n      and\n      0xe0\n      shl\n      dup2\n      mstore\n      0x04\n      add\n      tag_409\n      swap3\n      swap2\n      swap1\n      tag_410\n      jump\t// in\n    tag_409:\n      0x20\n      mload(0x40)\n      dup1\n      dup4\n      sub\n      dup2\n      0x00\n      dup8\n      gas\n      call\n      iszero\n      dup1\n      iszero\n      tag_412\n      jumpi\n      returndatasize\n      0x00\n      dup1\n      returndatacopy\n      revert(0x00, returndatasize)\n    tag_412:\n      pop\n      pop\n      pop\n      pop\n      mload(0x40)\n      returndatasize\n      not(0x1f)\n      0x1f\n      dup3\n      add\n      and\n      dup3\n      add\n      dup1\n      0x40\n      mstore\n      pop\n      dup2\n      add\n      swap1\n      tag_413\n      swap2\n      swap1\n      tag_383\n      jump\t// in\n    tag_413:\n        /* \"WatermelonBUSDDice.sol\":13879:13959  bool success = busdToken.transfer(msg.sender,busdToken.balanceOf(address(this))) */\n      swap1\n      pop\n        /* \"WatermelonBUSDDice.sol\":13973:13980  success */\n      dup1\n        /* \"WatermelonBUSDDice.sol\":13965:14006  require(success, \"BUSD Transfer failed.\") */\n      tag_414\n      jumpi\n      mload(0x40)\n      0x08c379a000000000000000000000000000000000000000000000000000000000\n      dup2\n      mstore\n      0x04\n      add\n      tag_415\n      swap1\n      tag_386\n      jump\t// in\n    tag_415:\n      mload(0x40)\n      dup1\n      swap2\n      sub\n      swap1\n      revert\n    tag_414:\n        /* \"WatermelonBUSDDice.sol\":13872:14011  { ... */\n      pop\n        /* \"WatermelonBUSDDice.sol\":13821:14011  function withdrawBUSD() onlyOwner isPaused external{ ... */\n      jump\t// out\n        /* \"WatermelonBUSDDice.sol\":4713:4757  mapping (address => bool) public roundStatus */\n    tag_174:\n      mstore(0x20, 0x1b)\n      dup1\n      0x00\n      mstore\n      keccak256(0x00, 0x40)\n      0x00\n      swap2\n      pop\n      sload\n      swap1\n      0x0100\n      exp\n      swap1\n      div\n      0xff\n      and\n      dup2\n      jump\t// out\n        /* \"WatermelonBUSDDice.sol\":5188:5214  bool public paused = false */\n    tag_178:\n      0x29\n      0x14\n      swap1\n      sload\n      swap1\n      0x0100\n      exp\n      swap1\n      div\n      0xff\n      and\n      dup2\n      jump\t// out\n        /* \"WatermelonBUSDDice.sol\":7344:7426  function betUp(uint256 _amount) isUnpaused external {... */\n    tag_183:\n        /* \"WatermelonBUSDDice.sol\":14652:14657  false */\n      0x00\n        /* \"WatermelonBUSDDice.sol\":14642:14657  paused == false */\n      iszero\n      iszero\n        /* \"WatermelonBUSDDice.sol\":14642:14648  paused */\n      0x29\n      0x14\n      swap1\n      sload\n      swap1\n      0x0100\n      exp\n      swap1\n      div\n      0xff\n      and\n        /* \"WatermelonBUSDDice.sol\":14642:14657  paused == false */\n      iszero\n      iszero\n      eq\n        /* \"WatermelonBUSDDice.sol\":14634:14658  require(paused == false) */\n      tag_417\n      jumpi\n      0x00\n      dup1\n      revert\n    tag_417:\n        /* \"WatermelonBUSDDice.sol\":7402:7421  rollDice(1,_amount) */\n      tag_419\n        /* \"WatermelonBUSDDice.sol\":7411:7412  1 */\n      0x01\n        /* \"WatermelonBUSDDice.sol\":7413:7420  _amount */\n      dup3\n        /* \"WatermelonBUSDDice.sol\":7402:7410  rollDice */\n      tag_361\n        /* \"WatermelonBUSDDice.sol\":7402:7421  rollDice(1,_amount) */\n      jump\t// in\n    tag_419:\n        /* \"WatermelonBUSDDice.sol\":7344:7426  function betUp(uint256 _amount) isUnpaused external {... */\n      pop\n      jump\t// out\n        /* \"WatermelonBUSDDice.sol\":6841:6944  function setMinBetValue(uint256 _minBetAmount) public onlyOwner {... */\n    tag_187:\n        /* \"WatermelonBUSDDice.sol\":14582:14589  s_owner */\n      0x07\n      0x00\n      swap1\n      sload\n      swap1\n      0x0100\n      exp\n      swap1\n      div\n      0xffffffffffffffffffffffffffffffffffffffff\n      and\n        /* \"WatermelonBUSDDice.sol\":14568:14589  msg.sender == s_owner */\n      0xffffffffffffffffffffffffffffffffffffffff\n      and\n        /* \"WatermelonBUSDDice.sol\":14568:14578  msg.sender */\n      caller\n        /* \"WatermelonBUSDDice.sol\":14568:14589  msg.sender == s_owner */\n      0xffffffffffffffffffffffffffffffffffffffff\n      and\n      eq\n        /* \"WatermelonBUSDDice.sol\":14560:14590  require(msg.sender == s_owner) */\n      tag_421\n      jumpi\n      0x00\n      dup1\n      revert\n    tag_421:\n        /* \"WatermelonBUSDDice.sol\":6926:6939  _minBetAmount */\n      dup1\n        /* \"WatermelonBUSDDice.sol\":6911:6923  minBetAmount */\n      0x0d\n        /* \"WatermelonBUSDDice.sol\":6911:6939  minBetAmount = _minBetAmount */\n      dup2\n      swap1\n      sstore\n      pop\n        /* \"WatermelonBUSDDice.sol\":6841:6944  function setMinBetValue(uint256 _minBetAmount) public onlyOwner {... */\n      pop\n      jump\t// out\n        /* \"WatermelonBUSDDice.sol\":11376:11457  function getTotalFees() public view returns(uint256){... */\n    tag_190:\n        /* \"WatermelonBUSDDice.sol\":11420:11427  uint256 */\n      0x00\n        /* \"WatermelonBUSDDice.sol\":11442:11451  minerFees */\n      sload(0x0f)\n        /* \"WatermelonBUSDDice.sol\":11434:11452  return (minerFees) */\n      swap1\n      pop\n        /* \"WatermelonBUSDDice.sol\":11376:11457  function getTotalFees() public view returns(uint256){... */\n      swap1\n      jump\t// out\n        /* \"WatermelonBUSDDice.sol\":4158:4201  mapping (address => uint256) public userBet */\n    tag_195:\n      mstore(0x20, 0x11)\n      dup1\n      0x00\n      mstore\n      keccak256(0x00, 0x40)\n      0x00\n      swap2\n      pop\n      swap1\n      pop\n      sload\n      dup2\n      jump\t// out\n        /* \"WatermelonBUSDDice.sol\":4118:4151  uint256 public minerWalletBalance */\n    tag_199:\n      sload(0x10)\n      dup2\n      jump\t// out\n        /* \"WatermelonBUSDDice.sol\":6545:6741  function fundChainlinkSubscription() public {... */\n    tag_203:\n        /* \"WatermelonBUSDDice.sol\":6630:6641  0.001 ether */\n      0x038d7ea4c68000\n        /* \"WatermelonBUSDDice.sol\":6605:6626  address(this).balance */\n      selfbalance\n        /* \"WatermelonBUSDDice.sol\":6605:6641  address(this).balance >= 0.001 ether */\n      lt\n      iszero\n        /* \"WatermelonBUSDDice.sol\":6597:6679  require(address(this).balance >= 0.001 ether, \"Insufficient contract BNB balance\") */\n      tag_425\n      jumpi\n      mload(0x40)\n      0x08c379a000000000000000000000000000000000000000000000000000000000\n      dup2\n      mstore\n      0x04\n      add\n      tag_426\n      swap1\n      tag_427\n      jump\t// in\n    tag_426:\n      mload(0x40)\n      dup1\n      swap2\n      sub\n      swap1\n      revert\n    tag_425:\n        /* \"WatermelonBUSDDice.sol\":6687:6697  VRFmanager */\n      0x28\n      0x00\n      swap1\n      sload\n      swap1\n      0x0100\n      exp\n      swap1\n      div\n      0xffffffffffffffffffffffffffffffffffffffff\n      and\n        /* \"WatermelonBUSDDice.sol\":6687:6715  VRFmanager.topUpSubscription */\n      0xffffffffffffffffffffffffffffffffffffffff\n      and\n      0x7aa51754\n        /* \"WatermelonBUSDDice.sol\":6722:6733  0.001 ether */\n      0x038d7ea4c68000\n        /* \"WatermelonBUSDDice.sol\":6687:6736  VRFmanager.topUpSubscription{value:0.001 ether}() */\n      mload(0x40)\n      dup3\n      0xffffffff\n      and\n      0xe0\n      shl\n      dup2\n      mstore\n      0x04\n      add\n      0x00\n      mload(0x40)\n      dup1\n      dup4\n      sub\n      dup2\n      dup6\n      dup9\n      dup1\n      extcodesize\n      iszero\n      dup1\n      iszero\n      tag_428\n      jumpi\n      0x00\n      dup1\n      revert\n    tag_428:\n      pop\n      gas\n      call\n      iszero\n      dup1\n      iszero\n      tag_430\n      jumpi\n      returndatasize\n      0x00\n      dup1\n      returndatacopy\n      revert(0x00, returndatasize)\n    tag_430:\n      pop\n      pop\n      pop\n      pop\n      pop\n        /* \"WatermelonBUSDDice.sol\":6545:6741  function fundChainlinkSubscription() public {... */\n      jump\t// out\n        /* \"WatermelonBUSDDice.sol\":4089:4113  uint256 public minerFees */\n    tag_206:\n      sload(0x0f)\n      dup2\n      jump\t// out\n        /* \"WatermelonBUSDDice.sol\":14111:14187  function renounceOwnership() external onlyOwner{... */\n    tag_210:\n        /* \"WatermelonBUSDDice.sol\":14582:14589  s_owner */\n      0x07\n      0x00\n      swap1\n      sload\n      swap1\n      0x0100\n      exp\n      swap1\n      div\n      0xffffffffffffffffffffffffffffffffffffffff\n      and\n        /* \"WatermelonBUSDDice.sol\":14568:14589  msg.sender == s_owner */\n      0xffffffffffffffffffffffffffffffffffffffff\n      and\n        /* \"WatermelonBUSDDice.sol\":14568:14578  msg.sender */\n      caller\n        /* \"WatermelonBUSDDice.sol\":14568:14589  msg.sender == s_owner */\n      0xffffffffffffffffffffffffffffffffffffffff\n      and\n      eq\n        /* \"WatermelonBUSDDice.sol\":14560:14590  require(msg.sender == s_owner) */\n      tag_432\n      jumpi\n      0x00\n      dup1\n      revert\n    tag_432:\n        /* \"WatermelonBUSDDice.sol\":14180:14181  0 */\n      0x00\n        /* \"WatermelonBUSDDice.sol\":14164:14169  owner */\n      0x29\n      0x00\n        /* \"WatermelonBUSDDice.sol\":14164:14182  owner = address(0) */\n      0x0100\n      exp\n      dup2\n      sload\n      dup2\n      0xffffffffffffffffffffffffffffffffffffffff\n      mul\n      not\n      and\n      swap1\n      dup4\n      0xffffffffffffffffffffffffffffffffffffffff\n      and\n      mul\n      or\n      swap1\n      sstore\n      pop\n        /* \"WatermelonBUSDDice.sol\":14111:14187  function renounceOwnership() external onlyOwner{... */\n      jump\t// out\n        /* \"WatermelonBUSDDice.sol\":5072:5098  address public busdAddress */\n    tag_213:\n      0x26\n      0x00\n      swap1\n      sload\n      swap1\n      0x0100\n      exp\n      swap1\n      div\n      0xffffffffffffffffffffffffffffffffffffffff\n      and\n      dup2\n      jump\t// out\n        /* \"WatermelonBUSDDice.sol\":4943:4985  mapping (address => Bet[]) public userBets */\n    tag_219:\n      mstore(0x20, 0x23)\n      dup2\n      0x00\n      mstore\n      keccak256(0x00, 0x40)\n      dup2\n      dup2\n      sload\n      dup2\n      lt\n      tag_434\n      jumpi\n      0x00\n      dup1\n      revert\n    tag_434:\n      swap1\n      0x00\n      mstore\n      keccak256(0x00, 0x20)\n      swap1\n      0x07\n      mul\n      add\n      0x00\n      swap2\n      pop\n      swap2\n      pop\n      pop\n      dup1\n      0x00\n      add\n      sload\n      swap1\n      dup1\n      0x01\n      add\n      sload\n      swap1\n      dup1\n      0x02\n      add\n      sload\n      swap1\n      dup1\n      0x03\n      add\n      sload\n      swap1\n      dup1\n      0x04\n      add\n      sload\n      swap1\n      dup1\n      0x05\n      add\n      0x00\n      swap1\n      sload\n      swap1\n      0x0100\n      exp\n      swap1\n      div\n      0xff\n      and\n      swap1\n      dup1\n      0x06\n      add\n      sload\n      swap1\n      pop\n      dup8\n      jump\t// out\n        /* \"WatermelonBUSDDice.sol\":8864:8959  function getRoundStatus() public view returns (bool){... */\n    tag_224:\n        /* \"WatermelonBUSDDice.sol\":8911:8915  bool */\n      0x00\n        /* \"WatermelonBUSDDice.sol\":8931:8942  roundStatus */\n      0x1b\n        /* \"WatermelonBUSDDice.sol\":8931:8954  roundStatus[msg.sender] */\n      0x00\n        /* \"WatermelonBUSDDice.sol\":8943:8953  msg.sender */\n      caller\n        /* \"WatermelonBUSDDice.sol\":8931:8954  roundStatus[msg.sender] */\n      0xffffffffffffffffffffffffffffffffffffffff\n      and\n      0xffffffffffffffffffffffffffffffffffffffff\n      and\n      dup2\n      mstore\n      0x20\n      add\n      swap1\n      dup2\n      mstore\n      0x20\n      add\n      0x00\n      keccak256\n      0x00\n      swap1\n      sload\n      swap1\n      0x0100\n      exp\n      swap1\n      div\n      0xff\n      and\n        /* \"WatermelonBUSDDice.sol\":8924:8954  return roundStatus[msg.sender] */\n      swap1\n      pop\n        /* \"WatermelonBUSDDice.sol\":8864:8959  function getRoundStatus() public view returns (bool){... */\n      swap1\n      jump\t// out\n        /* \"WatermelonBUSDDice.sol\":5164:5184  address public owner */\n    tag_228:\n      0x29\n      0x00\n      swap1\n      sload\n      swap1\n      0x0100\n      exp\n      swap1\n      div\n      0xffffffffffffffffffffffffffffffffffffffff\n      and\n      dup2\n      jump\t// out\n        /* \"WatermelonBUSDDice.sol\":6203:6290  function setKeyHash(bytes32 _keyHash) external onlyOwner{... */\n    tag_234:\n        /* \"WatermelonBUSDDice.sol\":14582:14589  s_owner */\n      0x07\n      0x00\n      swap1\n      sload\n      swap1\n      0x0100\n      exp\n      swap1\n      div\n      0xffffffffffffffffffffffffffffffffffffffff\n      and\n        /* \"WatermelonBUSDDice.sol\":14568:14589  msg.sender == s_owner */\n      0xffffffffffffffffffffffffffffffffffffffff\n      and\n        /* \"WatermelonBUSDDice.sol\":14568:14578  msg.sender */\n      caller\n        /* \"WatermelonBUSDDice.sol\":14568:14589  msg.sender == s_owner */\n      0xffffffffffffffffffffffffffffffffffffffff\n      and\n      eq\n        /* \"WatermelonBUSDDice.sol\":14560:14590  require(msg.sender == s_owner) */\n      tag_438\n      jumpi\n      0x00\n      dup1\n      revert\n    tag_438:\n        /* \"WatermelonBUSDDice.sol\":6277:6285  _keyHash */\n      dup1\n        /* \"WatermelonBUSDDice.sol\":6267:6274  keyHash */\n      0x03\n        /* \"WatermelonBUSDDice.sol\":6267:6285  keyHash = _keyHash */\n      dup2\n      swap1\n      sstore\n      pop\n        /* \"WatermelonBUSDDice.sol\":6203:6290  function setKeyHash(bytes32 _keyHash) external onlyOwner{... */\n      pop\n      jump\t// out\n        /* \"WatermelonBUSDDice.sol\":4544:4596  mapping (address => uint256) public unclaimedWinning */\n    tag_238:\n      mstore(0x20, 0x18)\n      dup1\n      0x00\n      mstore\n      keccak256(0x00, 0x40)\n      0x00\n      swap2\n      pop\n      swap1\n      pop\n      sload\n      dup2\n      jump\t// out\n        /* \"WatermelonBUSDDice.sol\":6745:6837  function setMinerFees(uint256 _minerFees) public onlyOwner {... */\n    tag_243:\n        /* \"WatermelonBUSDDice.sol\":14582:14589  s_owner */\n      0x07\n      0x00\n      swap1\n      sload\n      swap1\n      0x0100\n      exp\n      swap1\n      div\n      0xffffffffffffffffffffffffffffffffffffffff\n      and\n        /* \"WatermelonBUSDDice.sol\":14568:14589  msg.sender == s_owner */\n      0xffffffffffffffffffffffffffffffffffffffff\n      and\n        /* \"WatermelonBUSDDice.sol\":14568:14578  msg.sender */\n      caller\n        /* \"WatermelonBUSDDice.sol\":14568:14589  msg.sender == s_owner */\n      0xffffffffffffffffffffffffffffffffffffffff\n      and\n      eq\n        /* \"WatermelonBUSDDice.sol\":14560:14590  require(msg.sender == s_owner) */\n      tag_441\n      jumpi\n      0x00\n      dup1\n      revert\n    tag_441:\n        /* \"WatermelonBUSDDice.sol\":6822:6832  _minerFees */\n      dup1\n        /* \"WatermelonBUSDDice.sol\":6810:6819  minerFees */\n      0x0f\n        /* \"WatermelonBUSDDice.sol\":6810:6832  minerFees = _minerFees */\n      dup2\n      swap1\n      sstore\n      pop\n        /* \"WatermelonBUSDDice.sol\":6745:6837  function setMinerFees(uint256 _minerFees) public onlyOwner {... */\n      pop\n      jump\t// out\n        /* \"WatermelonBUSDDice.sol\":6294:6416  function setCallbackGasLimit(uint32 _callbackGasLimit) external onlyOwner{... */\n    tag_248:\n        /* \"WatermelonBUSDDice.sol\":14582:14589  s_owner */\n      0x07\n      0x00\n      swap1\n      sload\n      swap1\n      0x0100\n      exp\n      swap1\n      div\n      0xffffffffffffffffffffffffffffffffffffffff\n      and\n        /* \"WatermelonBUSDDice.sol\":14568:14589  msg.sender == s_owner */\n      0xffffffffffffffffffffffffffffffffffffffff\n      and\n        /* \"WatermelonBUSDDice.sol\":14568:14578  msg.sender */\n      caller\n        /* \"WatermelonBUSDDice.sol\":14568:14589  msg.sender == s_owner */\n      0xffffffffffffffffffffffffffffffffffffffff\n      and\n      eq\n        /* \"WatermelonBUSDDice.sol\":14560:14590  require(msg.sender == s_owner) */\n      tag_444\n      jumpi\n      0x00\n      dup1\n      revert\n    tag_444:\n        /* \"WatermelonBUSDDice.sol\":6394:6411  _callbackGasLimit */\n      dup1\n        /* \"WatermelonBUSDDice.sol\":6375:6391  callbackGasLimit */\n      0x04\n      0x00\n        /* \"WatermelonBUSDDice.sol\":6375:6411  callbackGasLimit = _callbackGasLimit */\n      0x0100\n      exp\n      dup2\n      sload\n      dup2\n      0xffffffff\n      mul\n      not\n      and\n      swap1\n      dup4\n      0xffffffff\n      and\n      mul\n      or\n      swap1\n      sstore\n      pop\n        /* \"WatermelonBUSDDice.sol\":6294:6416  function setCallbackGasLimit(uint32 _callbackGasLimit) external onlyOwner{... */\n      pop\n      jump\t// out\n        /* \"WatermelonBUSDDice.sol\":11764:11859  function getBets() external view returns (Bet[] memory){... */\n    tag_251:\n        /* \"WatermelonBUSDDice.sol\":11806:11818  Bet[] memory */\n      0x60\n        /* \"WatermelonBUSDDice.sol\":11834:11842  userBets */\n      0x23\n        /* \"WatermelonBUSDDice.sol\":11834:11854  userBets[msg.sender] */\n      0x00\n        /* \"WatermelonBUSDDice.sol\":11843:11853  msg.sender */\n      caller\n        /* \"WatermelonBUSDDice.sol\":11834:11854  userBets[msg.sender] */\n      0xffffffffffffffffffffffffffffffffffffffff\n      and\n      0xffffffffffffffffffffffffffffffffffffffff\n      and\n      dup2\n      mstore\n      0x20\n      add\n      swap1\n      dup2\n      mstore\n      0x20\n      add\n      0x00\n      keccak256\n        /* \"WatermelonBUSDDice.sol\":11827:11854  return userBets[msg.sender] */\n      dup1\n      sload\n      dup1\n      0x20\n      mul\n      0x20\n      add\n      mload(0x40)\n      swap1\n      dup2\n      add\n      0x40\n      mstore\n      dup1\n      swap3\n      swap2\n      swap1\n      dup2\n      dup2\n      mstore\n      0x20\n      add\n      0x00\n      swap1\n    tag_447:\n      dup3\n      dup3\n      lt\n      iszero\n      tag_448\n      jumpi\n      dup4\n      dup3\n      swap1\n      0x00\n      mstore\n      keccak256(0x00, 0x20)\n      swap1\n      0x07\n      mul\n      add\n      mload(0x40)\n      dup1\n      0xe0\n      add\n      0x40\n      mstore\n      swap1\n      dup2\n      0x00\n      dup3\n      add\n      sload\n      dup2\n      mstore\n      0x20\n      add\n      0x01\n      dup3\n      add\n      sload\n      dup2\n      mstore\n      0x20\n      add\n      0x02\n      dup3\n      add\n      sload\n      dup2\n      mstore\n      0x20\n      add\n      0x03\n      dup3\n      add\n      sload\n      dup2\n      mstore\n      0x20\n      add\n      0x04\n      dup3\n      add\n      sload\n      dup2\n      mstore\n      0x20\n      add\n      0x05\n      dup3\n      add\n      0x00\n      swap1\n      sload\n      swap1\n      0x0100\n      exp\n      swap1\n      div\n      0xff\n      and\n      iszero\n      iszero\n      iszero\n      iszero\n      dup2\n      mstore\n      0x20\n      add\n      0x06\n      dup3\n      add\n      sload\n      dup2\n      mstore\n      pop\n      pop\n      dup2\n      mstore\n      0x20\n      add\n      swap1\n      0x01\n      add\n      swap1\n      jump(tag_447)\n    tag_448:\n      pop\n      pop\n      pop\n      pop\n      swap1\n      pop\n        /* \"WatermelonBUSDDice.sol\":11764:11859  function getBets() external view returns (Bet[] memory){... */\n      swap1\n      jump\t// out\n        /* \"WatermelonBUSDDice.sol\":3917:3945  uint256 public totalBetsLost */\n    tag_256:\n      sload(0x0b)\n      dup2\n      jump\t// out\n        /* \"WatermelonBUSDDice.sol\":4487:4538  mapping (address => uint256) public playerTotalLost */\n    tag_261:\n      mstore(0x20, 0x17)\n      dup1\n      0x00\n      mstore\n      keccak256(0x00, 0x40)\n      0x00\n      swap2\n      pop\n      swap1\n      pop\n      sload\n      dup2\n      jump\t// out\n        /* \"WatermelonBUSDDice.sol\":14262:14529  function unpauseContract() external onlyOwner{... */\n    tag_265:\n        /* \"WatermelonBUSDDice.sol\":14582:14589  s_owner */\n      0x07\n      0x00\n      swap1\n      sload\n      swap1\n      0x0100\n      exp\n      swap1\n      div\n      0xffffffffffffffffffffffffffffffffffffffff\n      and\n        /* \"WatermelonBUSDDice.sol\":14568:14589  msg.sender == s_owner */\n      0xffffffffffffffffffffffffffffffffffffffff\n      and\n        /* \"WatermelonBUSDDice.sol\":14568:14578  msg.sender */\n      caller\n        /* \"WatermelonBUSDDice.sol\":14568:14589  msg.sender == s_owner */\n      0xffffffffffffffffffffffffffffffffffffffff\n      and\n      eq\n        /* \"WatermelonBUSDDice.sol\":14560:14590  require(msg.sender == s_owner) */\n      tag_451\n      jumpi\n      0x00\n      dup1\n      revert\n    tag_451:\n        /* \"WatermelonBUSDDice.sol\":14358:14359  0 */\n      0x00\n        /* \"WatermelonBUSDDice.sol\":14321:14330  busdToken */\n      0x27\n      0x00\n      swap1\n      sload\n      swap1\n      0x0100\n      exp\n      swap1\n      div\n      0xffffffffffffffffffffffffffffffffffffffff\n      and\n        /* \"WatermelonBUSDDice.sol\":14321:14340  busdToken.balanceOf */\n      0xffffffffffffffffffffffffffffffffffffffff\n      and\n      0x70a08231\n        /* \"WatermelonBUSDDice.sol\":14349:14353  this */\n      address\n        /* \"WatermelonBUSDDice.sol\":14321:14355  busdToken.balanceOf(address(this)) */\n      mload(0x40)\n      dup3\n      0xffffffff\n      and\n      0xe0\n      shl\n      dup2\n      mstore\n      0x04\n      add\n      tag_453\n      swap2\n      swap1\n      tag_90\n      jump\t// in\n    tag_453:\n      0x20\n      mload(0x40)\n      dup1\n      dup4\n      sub\n      dup2\n      dup7\n      gas\n      staticcall\n      iszero\n      dup1\n      iszero\n      tag_455\n      jumpi\n      returndatasize\n      0x00\n      dup1\n      returndatacopy\n      revert(0x00, returndatasize)\n    tag_455:\n      pop\n      pop\n      pop\n      pop\n      mload(0x40)\n      returndatasize\n      not(0x1f)\n      0x1f\n      dup3\n      add\n      and\n      dup3\n      add\n      dup1\n      0x40\n      mstore\n      pop\n      dup2\n      add\n      swap1\n      tag_456\n      swap2\n      swap1\n      tag_367\n      jump\t// in\n    tag_456:\n        /* \"WatermelonBUSDDice.sol\":14321:14359  busdToken.balanceOf(address(this)) > 0 */\n      gt\n        /* \"WatermelonBUSDDice.sol\":14313:14400  require(busdToken.balanceOf(address(this)) > 0,\"Contract doesnt have any BUSD balance\") */\n      tag_457\n      jumpi\n      mload(0x40)\n      0x08c379a000000000000000000000000000000000000000000000000000000000\n      dup2\n      mstore\n      0x04\n      add\n      tag_458\n      swap1\n      tag_459\n      jump\t// in\n    tag_458:\n      mload(0x40)\n      dup1\n      swap2\n      sub\n      swap1\n      revert\n    tag_457:\n        /* \"WatermelonBUSDDice.sol\":14438:14439  0 */\n      0x00\n        /* \"WatermelonBUSDDice.sol\":14414:14435  address(this).balance */\n      selfbalance\n        /* \"WatermelonBUSDDice.sol\":14414:14439  address(this).balance > 0 */\n      gt\n        /* \"WatermelonBUSDDice.sol\":14406:14504  require(address(this).balance > 0,\"Contract doesnt have any BNB balance for LINK tokens purchase\") */\n      tag_460\n      jumpi\n      mload(0x40)\n      0x08c379a000000000000000000000000000000000000000000000000000000000\n      dup2\n      mstore\n      0x04\n      add\n      tag_461\n      swap1\n      tag_462\n      jump\t// in\n    tag_461:\n      mload(0x40)\n      dup1\n      swap2\n      sub\n      swap1\n      revert\n    tag_460:\n        /* \"WatermelonBUSDDice.sol\":14519:14524  false */\n      0x00\n        /* \"WatermelonBUSDDice.sol\":14510:14516  paused */\n      0x29\n      0x14\n        /* \"WatermelonBUSDDice.sol\":14510:14524  paused = false */\n      0x0100\n      exp\n      dup2\n      sload\n      dup2\n      0xff\n      mul\n      not\n      and\n      swap1\n      dup4\n      iszero\n      iszero\n      mul\n      or\n      swap1\n      sstore\n      pop\n        /* \"WatermelonBUSDDice.sol\":14262:14529  function unpauseContract() external onlyOwner{... */\n      jump\t// out\n        /* \"WatermelonBUSDDice.sol\":12784:13174  function claimWinnings() external nonReentrant isUnpaused{... */\n    tag_268:\n        /* \"WatermelonBUSDDice.sol\":2063:2064  2 */\n      0x02\n        /* \"WatermelonBUSDDice.sol\":2201:2208  _status */\n      sload(0x00)\n        /* \"WatermelonBUSDDice.sol\":2201:2220  _status != _ENTERED */\n      sub\n        /* \"WatermelonBUSDDice.sol\":2193:2256  require(_status != _ENTERED, \"ReentrancyGuard: reentrant call\") */\n      tag_464\n      jumpi\n      mload(0x40)\n      0x08c379a000000000000000000000000000000000000000000000000000000000\n      dup2\n      mstore\n      0x04\n      add\n      tag_465\n      swap1\n      tag_466\n      jump\t// in\n    tag_465:\n      mload(0x40)\n      dup1\n      swap2\n      sub\n      swap1\n      revert\n    tag_464:\n        /* \"WatermelonBUSDDice.sol\":2063:2064  2 */\n      0x02\n        /* \"WatermelonBUSDDice.sol\":2266:2273  _status */\n      0x00\n        /* \"WatermelonBUSDDice.sol\":2266:2284  _status = _ENTERED */\n      dup2\n      swap1\n      sstore\n      pop\n        /* \"WatermelonBUSDDice.sol\":14652:14657  false */\n      0x00\n        /* \"WatermelonBUSDDice.sol\":14642:14657  paused == false */\n      iszero\n      iszero\n        /* \"WatermelonBUSDDice.sol\":14642:14648  paused */\n      0x29\n      0x14\n      swap1\n      sload\n      swap1\n      0x0100\n      exp\n      swap1\n      div\n      0xff\n      and\n        /* \"WatermelonBUSDDice.sol\":14642:14657  paused == false */\n      iszero\n      iszero\n      eq\n        /* \"WatermelonBUSDDice.sol\":14634:14658  require(paused == false) */\n      tag_468\n      jumpi\n      0x00\n      dup1\n      revert\n    tag_468:\n        /* \"WatermelonBUSDDice.sol\":12847:12872  uint256 claimableWinnings */\n      0x00\n        /* \"WatermelonBUSDDice.sol\":12875:12891  unclaimedWinning */\n      0x18\n        /* \"WatermelonBUSDDice.sol\":12875:12903  unclaimedWinning[msg.sender] */\n      0x00\n        /* \"WatermelonBUSDDice.sol\":12892:12902  msg.sender */\n      caller\n        /* \"WatermelonBUSDDice.sol\":12875:12903  unclaimedWinning[msg.sender] */\n      0xffffffffffffffffffffffffffffffffffffffff\n      and\n      0xffffffffffffffffffffffffffffffffffffffff\n      and\n      dup2\n      mstore\n      0x20\n      add\n      swap1\n      dup2\n      mstore\n      0x20\n      add\n      0x00\n      keccak256\n      sload\n        /* \"WatermelonBUSDDice.sol\":12847:12903  uint256 claimableWinnings = unclaimedWinning[msg.sender] */\n      swap1\n      pop\n        /* \"WatermelonBUSDDice.sol\":12941:12942  0 */\n      0x00\n        /* \"WatermelonBUSDDice.sol\":12910:12926  unclaimedWinning */\n      0x18\n        /* \"WatermelonBUSDDice.sol\":12910:12938  unclaimedWinning[msg.sender] */\n      0x00\n        /* \"WatermelonBUSDDice.sol\":12927:12937  msg.sender */\n      caller\n        /* \"WatermelonBUSDDice.sol\":12910:12938  unclaimedWinning[msg.sender] */\n      0xffffffffffffffffffffffffffffffffffffffff\n      and\n      0xffffffffffffffffffffffffffffffffffffffff\n      and\n      dup2\n      mstore\n      0x20\n      add\n      swap1\n      dup2\n      mstore\n      0x20\n      add\n      0x00\n      keccak256\n        /* \"WatermelonBUSDDice.sol\":12910:12942  unclaimedWinning[msg.sender] = 0 */\n      dup2\n      swap1\n      sstore\n      pop\n        /* \"WatermelonBUSDDice.sol\":12994:13011  claimableWinnings */\n      dup1\n        /* \"WatermelonBUSDDice.sol\":12956:12965  busdToken */\n      0x27\n      0x00\n      swap1\n      sload\n      swap1\n      0x0100\n      exp\n      swap1\n      div\n      0xffffffffffffffffffffffffffffffffffffffff\n      and\n        /* \"WatermelonBUSDDice.sol\":12956:12975  busdToken.balanceOf */\n      0xffffffffffffffffffffffffffffffffffffffff\n      and\n      0x70a08231\n        /* \"WatermelonBUSDDice.sol\":12984:12988  this */\n      address\n        /* \"WatermelonBUSDDice.sol\":12956:12990  busdToken.balanceOf(address(this)) */\n      mload(0x40)\n      dup3\n      0xffffffff\n      and\n      0xe0\n      shl\n      dup2\n      mstore\n      0x04\n      add\n      tag_470\n      swap2\n      swap1\n      tag_90\n      jump\t// in\n    tag_470:\n      0x20\n      mload(0x40)\n      dup1\n      dup4\n      sub\n      dup2\n      dup7\n      gas\n      staticcall\n      iszero\n      dup1\n      iszero\n      tag_472\n      jumpi\n      returndatasize\n      0x00\n      dup1\n      returndatacopy\n      revert(0x00, returndatasize)\n    tag_472:\n      pop\n      pop\n      pop\n      pop\n      mload(0x40)\n      returndatasize\n      not(0x1f)\n      0x1f\n      dup3\n      add\n      and\n      dup3\n      add\n      dup1\n      0x40\n      mstore\n      pop\n      dup2\n      add\n      swap1\n      tag_473\n      swap2\n      swap1\n      tag_367\n      jump\t// in\n    tag_473:\n        /* \"WatermelonBUSDDice.sol\":12956:13011  busdToken.balanceOf(address(this)) >= claimableWinnings */\n      lt\n      iszero\n        /* \"WatermelonBUSDDice.sol\":12948:13050  require(busdToken.balanceOf(address(this)) >= claimableWinnings, \"Insufficient contract BUSD balance\") */\n      tag_474\n      jumpi\n      mload(0x40)\n      0x08c379a000000000000000000000000000000000000000000000000000000000\n      dup2\n      mstore\n      0x04\n      add\n      tag_475\n      swap1\n      tag_476\n      jump\t// in\n    tag_475:\n      mload(0x40)\n      dup1\n      swap2\n      sub\n      swap1\n      revert\n    tag_474:\n        /* \"WatermelonBUSDDice.sol\":13057:13069  bool success */\n      0x00\n        /* \"WatermelonBUSDDice.sol\":13072:13081  busdToken */\n      0x27\n      0x00\n      swap1\n      sload\n      swap1\n      0x0100\n      exp\n      swap1\n      div\n      0xffffffffffffffffffffffffffffffffffffffff\n      and\n        /* \"WatermelonBUSDDice.sol\":13072:13090  busdToken.transfer */\n      0xffffffffffffffffffffffffffffffffffffffff\n      and\n      0xa9059cbb\n        /* \"WatermelonBUSDDice.sol\":13091:13101  msg.sender */\n      caller\n        /* \"WatermelonBUSDDice.sol\":13103:13120  claimableWinnings */\n      dup5\n        /* \"WatermelonBUSDDice.sol\":13072:13121  busdToken.transfer(msg.sender, claimableWinnings) */\n      mload(0x40)\n      dup4\n      0xffffffff\n      and\n      0xe0\n      shl\n      dup2\n      mstore\n      0x04\n      add\n      tag_477\n      swap3\n      swap2\n      swap1\n      tag_410\n      jump\t// in\n    tag_477:\n      0x20\n      mload(0x40)\n      dup1\n      dup4\n      sub\n      dup2\n      0x00\n      dup8\n      gas\n      call\n      iszero\n      dup1\n      iszero\n      tag_479\n      jumpi\n      returndatasize\n      0x00\n      dup1\n      returndatacopy\n      revert(0x00, returndatasize)\n    tag_479:\n      pop\n      pop\n      pop\n      pop\n      mload(0x40)\n      returndatasize\n      not(0x1f)\n      0x1f\n      dup3\n      add\n      and\n      dup3\n      add\n      dup1\n      0x40\n      mstore\n      pop\n      dup2\n      add\n      swap1\n      tag_480\n      swap2\n      swap1\n      tag_383\n      jump\t// in\n    tag_480:\n        /* \"WatermelonBUSDDice.sol\":13057:13121  bool success = busdToken.transfer(msg.sender, claimableWinnings) */\n      swap1\n      pop\n        /* \"WatermelonBUSDDice.sol\":13135:13142  success */\n      dup1\n        /* \"WatermelonBUSDDice.sol\":13127:13169  require(success, \"Token Transfer failed.\") */\n      tag_481\n      jumpi\n      mload(0x40)\n      0x08c379a000000000000000000000000000000000000000000000000000000000\n      dup2\n      mstore\n      0x04\n      add\n      tag_482\n      swap1\n      tag_483\n      jump\t// in\n    tag_482:\n      mload(0x40)\n      dup1\n      swap2\n      sub\n      swap1\n      revert\n    tag_481:\n        /* \"WatermelonBUSDDice.sol\":12841:13174  {... */\n      pop\n      pop\n        /* \"WatermelonBUSDDice.sol\":2020:2021  1 */\n      0x01\n        /* \"WatermelonBUSDDice.sol\":2305:2312  _status */\n      0x00\n        /* \"WatermelonBUSDDice.sol\":2305:2327  _status = _NOT_ENTERED */\n      dup2\n      swap1\n      sstore\n      pop\n        /* \"WatermelonBUSDDice.sol\":12784:13174  function claimWinnings() external nonReentrant isUnpaused{... */\n      jump\t// out\n        /* \"WatermelonBUSDDice.sol\":3885:3913  uint256 public totalWinnings */\n    tag_271:\n      sload(0x0a)\n      dup2\n      jump\t// out\n        /* \"WatermelonBUSDDice.sol\":3826:3850  uint256 public totalBets */\n    tag_275:\n      sload(0x08)\n      dup2\n      jump\t// out\n        /* \"WatermelonBUSDDice.sol\":13178:13218  function injectBNB() payable external {} */\n    tag_278:\n      jump\t// out\n        /* \"WatermelonBUSDDice.sol\":6948:7068  function setMaxBetPercentage(uint256 _maxBetPercentage) public onlyOwner {... */\n    tag_282:\n        /* \"WatermelonBUSDDice.sol\":14582:14589  s_owner */\n      0x07\n      0x00\n      swap1\n      sload\n      swap1\n      0x0100\n      exp\n      swap1\n      div\n      0xffffffffffffffffffffffffffffffffffffffff\n      and\n        /* \"WatermelonBUSDDice.sol\":14568:14589  msg.sender == s_owner */\n      0xffffffffffffffffffffffffffffffffffffffff\n      and\n        /* \"WatermelonBUSDDice.sol\":14568:14578  msg.sender */\n      caller\n        /* \"WatermelonBUSDDice.sol\":14568:14589  msg.sender == s_owner */\n      0xffffffffffffffffffffffffffffffffffffffff\n      and\n      eq\n        /* \"WatermelonBUSDDice.sol\":14560:14590  require(msg.sender == s_owner) */\n      tag_486\n      jumpi\n      0x00\n      dup1\n      revert\n    tag_486:\n        /* \"WatermelonBUSDDice.sol\":7046:7063  _maxBetPercentage */\n      dup1\n        /* \"WatermelonBUSDDice.sol\":7027:7043  maxBetPercentage */\n      0x0c\n        /* \"WatermelonBUSDDice.sol\":7027:7063  maxBetPercentage = _maxBetPercentage */\n      dup2\n      swap1\n      sstore\n      pop\n        /* \"WatermelonBUSDDice.sol\":6948:7068  function setMaxBetPercentage(uint256 _maxBetPercentage) public onlyOwner {... */\n      pop\n      jump\t// out\n        /* \"WatermelonBUSDDice.sol\":4313:4369  mapping (address => uint256) public playerCurrentResult2 */\n    tag_286:\n      mstore(0x20, 0x14)\n      dup1\n      0x00\n      mstore\n      keccak256(0x00, 0x40)\n      0x00\n      swap2\n      pop\n      swap1\n      pop\n      sload\n      dup2\n      jump\t// out\n        /* \"WatermelonBUSDDice.sol\":11863:12315  function getResult() external view returns (uint256, uint256, bool){... */\n    tag_290:\n        /* \"WatermelonBUSDDice.sol\":11907:11914  uint256 */\n      0x00\n        /* \"WatermelonBUSDDice.sol\":11916:11923  uint256 */\n      dup1\n        /* \"WatermelonBUSDDice.sol\":11925:11929  bool */\n      0x00\n        /* \"WatermelonBUSDDice.sol\":11936:11946  bool isWon */\n      dup1\n        /* \"WatermelonBUSDDice.sol\":11978:11979  1 */\n      0x01\n        /* \"WatermelonBUSDDice.sol\":11955:11962  userBet */\n      0x11\n        /* \"WatermelonBUSDDice.sol\":11955:11974  userBet[msg.sender] */\n      0x00\n        /* \"WatermelonBUSDDice.sol\":11963:11973  msg.sender */\n      caller\n        /* \"WatermelonBUSDDice.sol\":11955:11974  userBet[msg.sender] */\n      0xffffffffffffffffffffffffffffffffffffffff\n      and\n      0xffffffffffffffffffffffffffffffffffffffff\n      and\n      dup2\n      mstore\n      0x20\n      add\n      swap1\n      dup2\n      mstore\n      0x20\n      add\n      0x00\n      keccak256\n      sload\n        /* \"WatermelonBUSDDice.sol\":11955:11979  userBet[msg.sender] == 1 */\n      sub\n        /* \"WatermelonBUSDDice.sol\":11952:12226  if(userBet[msg.sender] == 1){... */\n      tag_489\n      jumpi\n        /* \"WatermelonBUSDDice.sol\":12062:12063  7 */\n      0x07\n        /* \"WatermelonBUSDDice.sol\":12025:12045  playerCurrentResult2 */\n      0x14\n        /* \"WatermelonBUSDDice.sol\":12025:12057  playerCurrentResult2[msg.sender] */\n      0x00\n        /* \"WatermelonBUSDDice.sol\":12046:12056  msg.sender */\n      caller\n        /* \"WatermelonBUSDDice.sol\":12025:12057  playerCurrentResult2[msg.sender] */\n      0xffffffffffffffffffffffffffffffffffffffff\n      and\n      0xffffffffffffffffffffffffffffffffffffffff\n      and\n      dup2\n      mstore\n      0x20\n      add\n      swap1\n      dup2\n      mstore\n      0x20\n      add\n      0x00\n      keccak256\n      sload\n        /* \"WatermelonBUSDDice.sol\":11992:12012  playerCurrentResult1 */\n      0x13\n        /* \"WatermelonBUSDDice.sol\":11992:12024  playerCurrentResult1[msg.sender] */\n      0x00\n        /* \"WatermelonBUSDDice.sol\":12013:12023  msg.sender */\n      caller\n        /* \"WatermelonBUSDDice.sol\":11992:12024  playerCurrentResult1[msg.sender] */\n      0xffffffffffffffffffffffffffffffffffffffff\n      and\n      0xffffffffffffffffffffffffffffffffffffffff\n      and\n      dup2\n      mstore\n      0x20\n      add\n      swap1\n      dup2\n      mstore\n      0x20\n      add\n      0x00\n      keccak256\n      sload\n        /* \"WatermelonBUSDDice.sol\":11992:12057  playerCurrentResult1[msg.sender]+playerCurrentResult2[msg.sender] */\n      tag_490\n      swap2\n      swap1\n      tag_326\n      jump\t// in\n    tag_490:\n        /* \"WatermelonBUSDDice.sol\":11991:12063  (playerCurrentResult1[msg.sender]+playerCurrentResult2[msg.sender]) >= 7 */\n      lt\n        /* \"WatermelonBUSDDice.sol\":11988:12095  if((playerCurrentResult1[msg.sender]+playerCurrentResult2[msg.sender]) >= 7){... */\n      tag_491\n      jumpi\n        /* \"WatermelonBUSDDice.sol\":12082:12086  true */\n      0x01\n        /* \"WatermelonBUSDDice.sol\":12074:12086  isWon = true */\n      swap1\n      pop\n        /* \"WatermelonBUSDDice.sol\":11988:12095  if((playerCurrentResult1[msg.sender]+playerCurrentResult2[msg.sender]) >= 7){... */\n    tag_491:\n        /* \"WatermelonBUSDDice.sol\":11952:12226  if(userBet[msg.sender] == 1){... */\n      jump(tag_492)\n    tag_489:\n        /* \"WatermelonBUSDDice.sol\":12187:12188  7 */\n      0x07\n        /* \"WatermelonBUSDDice.sol\":12151:12171  playerCurrentResult2 */\n      0x14\n        /* \"WatermelonBUSDDice.sol\":12151:12183  playerCurrentResult2[msg.sender] */\n      0x00\n        /* \"WatermelonBUSDDice.sol\":12172:12182  msg.sender */\n      caller\n        /* \"WatermelonBUSDDice.sol\":12151:12183  playerCurrentResult2[msg.sender] */\n      0xffffffffffffffffffffffffffffffffffffffff\n      and\n      0xffffffffffffffffffffffffffffffffffffffff\n      and\n      dup2\n      mstore\n      0x20\n      add\n      swap1\n      dup2\n      mstore\n      0x20\n      add\n      0x00\n      keccak256\n      sload\n        /* \"WatermelonBUSDDice.sol\":12118:12138  playerCurrentResult1 */\n      0x13\n        /* \"WatermelonBUSDDice.sol\":12118:12150  playerCurrentResult1[msg.sender] */\n      0x00\n        /* \"WatermelonBUSDDice.sol\":12139:12149  msg.sender */\n      caller\n        /* \"WatermelonBUSDDice.sol\":12118:12150  playerCurrentResult1[msg.sender] */\n      0xffffffffffffffffffffffffffffffffffffffff\n      and\n      0xffffffffffffffffffffffffffffffffffffffff\n      and\n      dup2\n      mstore\n      0x20\n      add\n      swap1\n      dup2\n      mstore\n      0x20\n      add\n      0x00\n      keccak256\n      sload\n        /* \"WatermelonBUSDDice.sol\":12118:12183  playerCurrentResult1[msg.sender]+playerCurrentResult2[msg.sender] */\n      tag_493\n      swap2\n      swap1\n      tag_326\n      jump\t// in\n    tag_493:\n        /* \"WatermelonBUSDDice.sol\":12117:12188  (playerCurrentResult1[msg.sender]+playerCurrentResult2[msg.sender]) < 7 */\n      lt\n        /* \"WatermelonBUSDDice.sol\":12114:12220  if((playerCurrentResult1[msg.sender]+playerCurrentResult2[msg.sender]) < 7){... */\n      iszero\n      tag_494\n      jumpi\n        /* \"WatermelonBUSDDice.sol\":12207:12211  true */\n      0x01\n        /* \"WatermelonBUSDDice.sol\":12199:12211  isWon = true */\n      swap1\n      pop\n        /* \"WatermelonBUSDDice.sol\":12114:12220  if((playerCurrentResult1[msg.sender]+playerCurrentResult2[msg.sender]) < 7){... */\n    tag_494:\n        /* \"WatermelonBUSDDice.sol\":11952:12226  if(userBet[msg.sender] == 1){... */\n    tag_492:\n        /* \"WatermelonBUSDDice.sol\":12238:12258  playerCurrentResult1 */\n      0x13\n        /* \"WatermelonBUSDDice.sol\":12238:12270  playerCurrentResult1[msg.sender] */\n      0x00\n        /* \"WatermelonBUSDDice.sol\":12259:12269  msg.sender */\n      caller\n        /* \"WatermelonBUSDDice.sol\":12238:12270  playerCurrentResult1[msg.sender] */\n      0xffffffffffffffffffffffffffffffffffffffff\n      and\n      0xffffffffffffffffffffffffffffffffffffffff\n      and\n      dup2\n      mstore\n      0x20\n      add\n      swap1\n      dup2\n      mstore\n      0x20\n      add\n      0x00\n      keccak256\n      sload\n        /* \"WatermelonBUSDDice.sol\":12271:12291  playerCurrentResult2 */\n      0x14\n        /* \"WatermelonBUSDDice.sol\":12271:12303  playerCurrentResult2[msg.sender] */\n      0x00\n        /* \"WatermelonBUSDDice.sol\":12292:12302  msg.sender */\n      caller\n        /* \"WatermelonBUSDDice.sol\":12271:12303  playerCurrentResult2[msg.sender] */\n      0xffffffffffffffffffffffffffffffffffffffff\n      and\n      0xffffffffffffffffffffffffffffffffffffffff\n      and\n      dup2\n      mstore\n      0x20\n      add\n      swap1\n      dup2\n      mstore\n      0x20\n      add\n      0x00\n      keccak256\n      sload\n        /* \"WatermelonBUSDDice.sol\":12304:12309  isWon */\n      dup3\n        /* \"WatermelonBUSDDice.sol\":12231:12310  return(playerCurrentResult1[msg.sender],playerCurrentResult2[msg.sender],isWon) */\n      swap4\n      pop\n      swap4\n      pop\n      swap4\n      pop\n      pop\n        /* \"WatermelonBUSDDice.sol\":11863:12315  function getResult() external view returns (uint256, uint256, bool){... */\n      swap1\n      swap2\n      swap3\n      jump\t// out\n        /* \"WatermelonBUSDDice.sol\":4253:4309  mapping (address => uint256) public playerCurrentResult1 */\n    tag_295:\n      mstore(0x20, 0x13)\n      dup1\n      0x00\n      mstore\n      keccak256(0x00, 0x40)\n      0x00\n      swap2\n      pop\n      swap1\n      pop\n      sload\n      dup2\n      jump\t// out\n        /* \"WatermelonBUSDDice.sol\":5943:6199  function setVRFv2SubscriptionManagerAddress(address _VRFv2SubscriptionManagerAddress) public onlyOwner {... */\n    tag_300:\n        /* \"WatermelonBUSDDice.sol\":14582:14589  s_owner */\n      0x07\n      0x00\n      swap1\n      sload\n      swap1\n      0x0100\n      exp\n      swap1\n      div\n      0xffffffffffffffffffffffffffffffffffffffff\n      and\n        /* \"WatermelonBUSDDice.sol\":14568:14589  msg.sender == s_owner */\n      0xffffffffffffffffffffffffffffffffffffffff\n      and\n        /* \"WatermelonBUSDDice.sol\":14568:14578  msg.sender */\n      caller\n        /* \"WatermelonBUSDDice.sol\":14568:14589  msg.sender == s_owner */\n      0xffffffffffffffffffffffffffffffffffffffff\n      and\n      eq\n        /* \"WatermelonBUSDDice.sol\":14560:14590  require(msg.sender == s_owner) */\n      tag_496\n      jumpi\n      0x00\n      dup1\n      revert\n    tag_496:\n        /* \"WatermelonBUSDDice.sol\":6086:6118  _VRFv2SubscriptionManagerAddress */\n      dup1\n        /* \"WatermelonBUSDDice.sol\":6052:6083  VRFv2SubscriptionManagerAddress */\n      0x25\n      0x00\n        /* \"WatermelonBUSDDice.sol\":6052:6118  VRFv2SubscriptionManagerAddress = _VRFv2SubscriptionManagerAddress */\n      0x0100\n      exp\n      dup2\n      sload\n      dup2\n      0xffffffffffffffffffffffffffffffffffffffff\n      mul\n      not\n      and\n      swap1\n      dup4\n      0xffffffffffffffffffffffffffffffffffffffff\n      and\n      mul\n      or\n      swap1\n      sstore\n      pop\n        /* \"WatermelonBUSDDice.sol\":6162:6193  VRFv2SubscriptionManagerAddress */\n      0x25\n      0x00\n      swap1\n      sload\n      swap1\n      0x0100\n      exp\n      swap1\n      div\n      0xffffffffffffffffffffffffffffffffffffffff\n      and\n        /* \"WatermelonBUSDDice.sol\":6124:6134  VRFmanager */\n      0x28\n      0x00\n        /* \"WatermelonBUSDDice.sol\":6124:6194  VRFmanager = VRFv2SubscriptionManager(VRFv2SubscriptionManagerAddress) */\n      0x0100\n      exp\n      dup2\n      sload\n      dup2\n      0xffffffffffffffffffffffffffffffffffffffff\n      mul\n      not\n      and\n      swap1\n      dup4\n      0xffffffffffffffffffffffffffffffffffffffff\n      and\n      mul\n      or\n      swap1\n      sstore\n      pop\n        /* \"WatermelonBUSDDice.sol\":5943:6199  function setVRFv2SubscriptionManagerAddress(address _VRFv2SubscriptionManagerAddress) public onlyOwner {... */\n      pop\n      jump\t// out\n        /* \"WatermelonBUSDDice.sol\":3774:3800  uint256 public s_requestId */\n    tag_303:\n      sload(0x06)\n      dup2\n      jump\t// out\n        /* \"WatermelonBUSDDice.sol\":5820:5939  function setSubscriptionId(uint64 _setSubscriptionId) public onlyOwner {... */\n    tag_309:\n        /* \"WatermelonBUSDDice.sol\":14582:14589  s_owner */\n      0x07\n      0x00\n      swap1\n      sload\n      swap1\n      0x0100\n      exp\n      swap1\n      div\n      0xffffffffffffffffffffffffffffffffffffffff\n      and\n        /* \"WatermelonBUSDDice.sol\":14568:14589  msg.sender == s_owner */\n      0xffffffffffffffffffffffffffffffffffffffff\n      and\n        /* \"WatermelonBUSDDice.sol\":14568:14578  msg.sender */\n      caller\n        /* \"WatermelonBUSDDice.sol\":14568:14589  msg.sender == s_owner */\n      0xffffffffffffffffffffffffffffffffffffffff\n      and\n      eq\n        /* \"WatermelonBUSDDice.sol\":14560:14590  require(msg.sender == s_owner) */\n      tag_499\n      jumpi\n      0x00\n      dup1\n      revert\n    tag_499:\n        /* \"WatermelonBUSDDice.sol\":5916:5934  _setSubscriptionId */\n      dup1\n        /* \"WatermelonBUSDDice.sol\":5897:5913  s_subscriptionId */\n      0x01\n      0x14\n        /* \"WatermelonBUSDDice.sol\":5897:5934  s_subscriptionId = _setSubscriptionId */\n      0x0100\n      exp\n      dup2\n      sload\n      dup2\n      0xffffffffffffffff\n      mul\n      not\n      and\n      swap1\n      dup4\n      0xffffffffffffffff\n      and\n      mul\n      or\n      swap1\n      sstore\n      pop\n        /* \"WatermelonBUSDDice.sol\":5820:5939  function setSubscriptionId(uint64 _setSubscriptionId) public onlyOwner {... */\n      pop\n      jump\t// out\n        /* \"WatermelonBUSDDice.sol\":14015:14107  function transferOwnership(address _newOwner) external onlyOwner{... */\n    tag_313:\n        /* \"WatermelonBUSDDice.sol\":14582:14589  s_owner */\n      0x07\n      0x00\n      swap1\n      sload\n      swap1\n      0x0100\n      exp\n      swap1\n      div\n      0xffffffffffffffffffffffffffffffffffffffff\n      and\n        /* \"WatermelonBUSDDice.sol\":14568:14589  msg.sender == s_owner */\n      0xffffffffffffffffffffffffffffffffffffffff\n      and\n        /* \"WatermelonBUSDDice.sol\":14568:14578  msg.sender */\n      caller\n        /* \"WatermelonBUSDDice.sol\":14568:14589  msg.sender == s_owner */\n      0xffffffffffffffffffffffffffffffffffffffff\n      and\n      eq\n        /* \"WatermelonBUSDDice.sol\":14560:14590  require(msg.sender == s_owner) */\n      tag_502\n      jumpi\n      0x00\n      dup1\n      revert\n    tag_502:\n        /* \"WatermelonBUSDDice.sol\":14093:14102  _newOwner */\n      dup1\n        /* \"WatermelonBUSDDice.sol\":14085:14090  owner */\n      0x29\n      0x00\n        /* \"WatermelonBUSDDice.sol\":14085:14102  owner = _newOwner */\n      0x0100\n      exp\n      dup2\n      sload\n      dup2\n      0xffffffffffffffffffffffffffffffffffffffff\n      mul\n      not\n      and\n      swap1\n      dup4\n      0xffffffffffffffffffffffffffffffffffffffff\n      and\n      mul\n      or\n      swap1\n      sstore\n      pop\n        /* \"WatermelonBUSDDice.sol\":14015:14107  function transferOwnership(address _newOwner) external onlyOwner{... */\n      pop\n      jump\t// out\n        /* \"WatermelonBUSDDice.sol\":3740:3770  uint256[] public s_randomWords */\n    tag_317:\n      0x05\n      dup2\n      dup2\n      sload\n      dup2\n      lt\n      tag_504\n      jumpi\n      0x00\n      dup1\n      revert\n    tag_504:\n      swap1\n      0x00\n      mstore\n      keccak256(0x00, 0x20)\n      add\n      0x00\n      swap2\n      pop\n      swap1\n      pop\n      sload\n      dup2\n      jump\t// out\n        /* \"WatermelonBUSDDice.sol\":3987:4028  uint256 public minBetAmount = 0.001 ether */\n    tag_321:\n      sload(0x0d)\n      dup2\n      jump\t// out\n        /* \"WatermelonBUSDDice.sol\":9087:10740  function fulfillRandomWords(uint256 requestId, uint256[] memory randomWords ) internal override {... */\n    tag_352:\n        /* \"WatermelonBUSDDice.sol\":9192:9213  address playerAddress */\n      0x00\n        /* \"WatermelonBUSDDice.sol\":9216:9232  requesterAddress */\n      0x1a\n        /* \"WatermelonBUSDDice.sol\":9216:9243  requesterAddress[requestId] */\n      0x00\n        /* \"WatermelonBUSDDice.sol\":9233:9242  requestId */\n      dup5\n        /* \"WatermelonBUSDDice.sol\":9216:9243  requesterAddress[requestId] */\n      dup2\n      mstore\n      0x20\n      add\n      swap1\n      dup2\n      mstore\n      0x20\n      add\n      0x00\n      keccak256\n      0x00\n      swap1\n      sload\n      swap1\n      0x0100\n      exp\n      swap1\n      div\n      0xffffffffffffffffffffffffffffffffffffffff\n      and\n        /* \"WatermelonBUSDDice.sol\":9192:9243  address playerAddress = requesterAddress[requestId] */\n      swap1\n      pop\n        /* \"WatermelonBUSDDice.sol\":9249:9259  bool isWon */\n      0x00\n        /* \"WatermelonBUSDDice.sol\":9327:9328  1 */\n      0x01\n        /* \"WatermelonBUSDDice.sol\":9322:9323  5 */\n      0x05\n        /* \"WatermelonBUSDDice.sol\":9305:9316  randomWords */\n      dup5\n        /* \"WatermelonBUSDDice.sol\":9317:9318  0 */\n      0x00\n        /* \"WatermelonBUSDDice.sol\":9305:9319  randomWords[0] */\n      dup2\n      mload\n      dup2\n      lt\n      tag_507\n      jumpi\n      tag_508\n      tag_509\n      jump\t// in\n    tag_508:\n    tag_507:\n      0x20\n      mul\n      0x20\n      add\n      add\n      mload\n        /* \"WatermelonBUSDDice.sol\":9305:9323  randomWords[0] % 5 */\n      tag_510\n      swap2\n      swap1\n      tag_511\n      jump\t// in\n    tag_510:\n        /* \"WatermelonBUSDDice.sol\":9304:9328  (randomWords[0] % 5) + 1 */\n      tag_512\n      swap2\n      swap1\n      tag_326\n      jump\t// in\n    tag_512:\n        /* \"WatermelonBUSDDice.sol\":9266:9286  playerCurrentResult1 */\n      0x13\n        /* \"WatermelonBUSDDice.sol\":9266:9301  playerCurrentResult1[playerAddress] */\n      0x00\n        /* \"WatermelonBUSDDice.sol\":9287:9300  playerAddress */\n      dup5\n        /* \"WatermelonBUSDDice.sol\":9266:9301  playerCurrentResult1[playerAddress] */\n      0xffffffffffffffffffffffffffffffffffffffff\n      and\n      0xffffffffffffffffffffffffffffffffffffffff\n      and\n      dup2\n      mstore\n      0x20\n      add\n      swap1\n      dup2\n      mstore\n      0x20\n      add\n      0x00\n      keccak256\n        /* \"WatermelonBUSDDice.sol\":9266:9328  playerCurrentResult1[playerAddress] = (randomWords[0] % 5) + 1 */\n      dup2\n      swap1\n      sstore\n      pop\n        /* \"WatermelonBUSDDice.sol\":9395:9396  1 */\n      0x01\n        /* \"WatermelonBUSDDice.sol\":9390:9391  5 */\n      0x05\n        /* \"WatermelonBUSDDice.sol\":9373:9384  randomWords */\n      dup5\n        /* \"WatermelonBUSDDice.sol\":9385:9386  1 */\n      0x01\n        /* \"WatermelonBUSDDice.sol\":9373:9387  randomWords[1] */\n      dup2\n      mload\n      dup2\n      lt\n      tag_513\n      jumpi\n      tag_514\n      tag_509\n      jump\t// in\n    tag_514:\n    tag_513:\n      0x20\n      mul\n      0x20\n      add\n      add\n      mload\n        /* \"WatermelonBUSDDice.sol\":9373:9391  randomWords[1] % 5 */\n      tag_515\n      swap2\n      swap1\n      tag_511\n      jump\t// in\n    tag_515:\n        /* \"WatermelonBUSDDice.sol\":9372:9396  (randomWords[1] % 5) + 1 */\n      tag_516\n      swap2\n      swap1\n      tag_326\n      jump\t// in\n    tag_516:\n        /* \"WatermelonBUSDDice.sol\":9334:9354  playerCurrentResult2 */\n      0x14\n        /* \"WatermelonBUSDDice.sol\":9334:9369  playerCurrentResult2[playerAddress] */\n      0x00\n        /* \"WatermelonBUSDDice.sol\":9355:9368  playerAddress */\n      dup5\n        /* \"WatermelonBUSDDice.sol\":9334:9369  playerCurrentResult2[playerAddress] */\n      0xffffffffffffffffffffffffffffffffffffffff\n      and\n      0xffffffffffffffffffffffffffffffffffffffff\n      and\n      dup2\n      mstore\n      0x20\n      add\n      swap1\n      dup2\n      mstore\n      0x20\n      add\n      0x00\n      keccak256\n        /* \"WatermelonBUSDDice.sol\":9334:9396  playerCurrentResult2[playerAddress] = (randomWords[1] % 5) + 1 */\n      dup2\n      swap1\n      sstore\n      pop\n        /* \"WatermelonBUSDDice.sol\":9432:9437  false */\n      0x00\n        /* \"WatermelonBUSDDice.sol\":9403:9414  roundStatus */\n      0x1b\n        /* \"WatermelonBUSDDice.sol\":9403:9429  roundStatus[playerAddress] */\n      0x00\n        /* \"WatermelonBUSDDice.sol\":9415:9428  playerAddress */\n      dup5\n        /* \"WatermelonBUSDDice.sol\":9403:9429  roundStatus[playerAddress] */\n      0xffffffffffffffffffffffffffffffffffffffff\n      and\n      0xffffffffffffffffffffffffffffffffffffffff\n      and\n      dup2\n      mstore\n      0x20\n      add\n      swap1\n      dup2\n      mstore\n      0x20\n      add\n      0x00\n      keccak256\n      0x00\n        /* \"WatermelonBUSDDice.sol\":9403:9437  roundStatus[playerAddress] = false */\n      0x0100\n      exp\n      dup2\n      sload\n      dup2\n      0xff\n      mul\n      not\n      and\n      swap1\n      dup4\n      iszero\n      iszero\n      mul\n      or\n      swap1\n      sstore\n      pop\n        /* \"WatermelonBUSDDice.sol\":9477:9478  1 */\n      0x01\n        /* \"WatermelonBUSDDice.sol\":9451:9458  userBet */\n      0x11\n        /* \"WatermelonBUSDDice.sol\":9451:9473  userBet[playerAddress] */\n      0x00\n        /* \"WatermelonBUSDDice.sol\":9459:9472  playerAddress */\n      dup5\n        /* \"WatermelonBUSDDice.sol\":9451:9473  userBet[playerAddress] */\n      0xffffffffffffffffffffffffffffffffffffffff\n      and\n      0xffffffffffffffffffffffffffffffffffffffff\n      and\n      dup2\n      mstore\n      0x20\n      add\n      swap1\n      dup2\n      mstore\n      0x20\n      add\n      0x00\n      keccak256\n      sload\n        /* \"WatermelonBUSDDice.sol\":9451:9478  userBet[playerAddress] == 1 */\n      sub\n        /* \"WatermelonBUSDDice.sol\":9448:10665  if(userBet[playerAddress] == 1){... */\n      tag_517\n      jumpi\n        /* \"WatermelonBUSDDice.sol\":9567:9568  7 */\n      0x07\n        /* \"WatermelonBUSDDice.sol\":9527:9547  playerCurrentResult2 */\n      0x14\n        /* \"WatermelonBUSDDice.sol\":9527:9562  playerCurrentResult2[playerAddress] */\n      0x00\n        /* \"WatermelonBUSDDice.sol\":9548:9561  playerAddress */\n      dup5\n        /* \"WatermelonBUSDDice.sol\":9527:9562  playerCurrentResult2[playerAddress] */\n      0xffffffffffffffffffffffffffffffffffffffff\n      and\n      0xffffffffffffffffffffffffffffffffffffffff\n      and\n      dup2\n      mstore\n      0x20\n      add\n      swap1\n      dup2\n      mstore\n      0x20\n      add\n      0x00\n      keccak256\n      sload\n        /* \"WatermelonBUSDDice.sol\":9491:9511  playerCurrentResult1 */\n      0x13\n        /* \"WatermelonBUSDDice.sol\":9491:9526  playerCurrentResult1[playerAddress] */\n      0x00\n        /* \"WatermelonBUSDDice.sol\":9512:9525  playerAddress */\n      dup6\n        /* \"WatermelonBUSDDice.sol\":9491:9526  playerCurrentResult1[playerAddress] */\n      0xffffffffffffffffffffffffffffffffffffffff\n      and\n      0xffffffffffffffffffffffffffffffffffffffff\n      and\n      dup2\n      mstore\n      0x20\n      add\n      swap1\n      dup2\n      mstore\n      0x20\n      add\n      0x00\n      keccak256\n      sload\n        /* \"WatermelonBUSDDice.sol\":9491:9562  playerCurrentResult1[playerAddress]+playerCurrentResult2[playerAddress] */\n      tag_518\n      swap2\n      swap1\n      tag_326\n      jump\t// in\n    tag_518:\n        /* \"WatermelonBUSDDice.sol\":9490:9568  (playerCurrentResult1[playerAddress]+playerCurrentResult2[playerAddress]) >= 7 */\n      lt\n        /* \"WatermelonBUSDDice.sol\":9487:10070  if((playerCurrentResult1[playerAddress]+playerCurrentResult2[playerAddress]) >= 7){... */\n      tag_519\n      jumpi\n        /* \"WatermelonBUSDDice.sol\":9581:9737  addBets(playerAddress, requestId, userBet[playerAddress], betValue[requestId], playerCurrentResult1[playerAddress],playerCurrentResult2[playerAddress],true) */\n      tag_520\n        /* \"WatermelonBUSDDice.sol\":9589:9602  playerAddress */\n      dup3\n        /* \"WatermelonBUSDDice.sol\":9604:9613  requestId */\n      dup6\n        /* \"WatermelonBUSDDice.sol\":9615:9622  userBet */\n      0x11\n        /* \"WatermelonBUSDDice.sol\":9615:9637  userBet[playerAddress] */\n      0x00\n        /* \"WatermelonBUSDDice.sol\":9623:9636  playerAddress */\n      dup7\n        /* \"WatermelonBUSDDice.sol\":9615:9637  userBet[playerAddress] */\n      0xffffffffffffffffffffffffffffffffffffffff\n      and\n      0xffffffffffffffffffffffffffffffffffffffff\n      and\n      dup2\n      mstore\n      0x20\n      add\n      swap1\n      dup2\n      mstore\n      0x20\n      add\n      0x00\n      keccak256\n      sload\n        /* \"WatermelonBUSDDice.sol\":9639:9647  betValue */\n      0x12\n        /* \"WatermelonBUSDDice.sol\":9639:9658  betValue[requestId] */\n      0x00\n        /* \"WatermelonBUSDDice.sol\":9648:9657  requestId */\n      dup10\n        /* \"WatermelonBUSDDice.sol\":9639:9658  betValue[requestId] */\n      dup2\n      mstore\n      0x20\n      add\n      swap1\n      dup2\n      mstore\n      0x20\n      add\n      0x00\n      keccak256\n      sload\n        /* \"WatermelonBUSDDice.sol\":9660:9680  playerCurrentResult1 */\n      0x13\n        /* \"WatermelonBUSDDice.sol\":9660:9695  playerCurrentResult1[playerAddress] */\n      0x00\n        /* \"WatermelonBUSDDice.sol\":9681:9694  playerAddress */\n      dup9\n        /* \"WatermelonBUSDDice.sol\":9660:9695  playerCurrentResult1[playerAddress] */\n      0xffffffffffffffffffffffffffffffffffffffff\n      and\n      0xffffffffffffffffffffffffffffffffffffffff\n      and\n      dup2\n      mstore\n      0x20\n      add\n      swap1\n      dup2\n      mstore\n      0x20\n      add\n      0x00\n      keccak256\n      sload\n        /* \"WatermelonBUSDDice.sol\":9696:9716  playerCurrentResult2 */\n      0x14\n        /* \"WatermelonBUSDDice.sol\":9696:9731  playerCurrentResult2[playerAddress] */\n      0x00\n        /* \"WatermelonBUSDDice.sol\":9717:9730  playerAddress */\n      dup10\n        /* \"WatermelonBUSDDice.sol\":9696:9731  playerCurrentResult2[playerAddress] */\n      0xffffffffffffffffffffffffffffffffffffffff\n      and\n      0xffffffffffffffffffffffffffffffffffffffff\n      and\n      dup2\n      mstore\n      0x20\n      add\n      swap1\n      dup2\n      mstore\n      0x20\n      add\n      0x00\n      keccak256\n      sload\n        /* \"WatermelonBUSDDice.sol\":9732:9736  true */\n      0x01\n        /* \"WatermelonBUSDDice.sol\":9581:9588  addBets */\n      tag_521\n        /* \"WatermelonBUSDDice.sol\":9581:9737  addBets(playerAddress, requestId, userBet[playerAddress], betValue[requestId], playerCurrentResult1[playerAddress],playerCurrentResult2[playerAddress],true) */\n      jump\t// in\n    tag_520:\n        /* \"WatermelonBUSDDice.sol\":9757:9761  true */\n      0x01\n        /* \"WatermelonBUSDDice.sol\":9749:9761  isWon = true */\n      swap1\n      pop\n        /* \"WatermelonBUSDDice.sol\":9773:9785  totalBetsWon */\n      0x09\n      0x00\n        /* \"WatermelonBUSDDice.sol\":9773:9787  totalBetsWon++ */\n      dup2\n      sload\n      dup1\n      swap3\n      swap2\n      swap1\n      tag_522\n      swap1\n      tag_523\n      jump\t// in\n    tag_522:\n      swap2\n      swap1\n      pop\n      sstore\n      pop\n        /* \"WatermelonBUSDDice.sol\":9487:10070  if((playerCurrentResult1[playerAddress]+playerCurrentResult2[playerAddress]) >= 7){... */\n      jump(tag_524)\n    tag_519:\n        /* \"WatermelonBUSDDice.sol\":9812:9969  addBets(playerAddress, requestId, userBet[playerAddress], betValue[requestId], playerCurrentResult1[playerAddress],playerCurrentResult2[playerAddress],false) */\n      tag_525\n        /* \"WatermelonBUSDDice.sol\":9820:9833  playerAddress */\n      dup3\n        /* \"WatermelonBUSDDice.sol\":9835:9844  requestId */\n      dup6\n        /* \"WatermelonBUSDDice.sol\":9846:9853  userBet */\n      0x11\n        /* \"WatermelonBUSDDice.sol\":9846:9868  userBet[playerAddress] */\n      0x00\n        /* \"WatermelonBUSDDice.sol\":9854:9867  playerAddress */\n      dup7\n        /* \"WatermelonBUSDDice.sol\":9846:9868  userBet[playerAddress] */\n      0xffffffffffffffffffffffffffffffffffffffff\n      and\n      0xffffffffffffffffffffffffffffffffffffffff\n      and\n      dup2\n      mstore\n      0x20\n      add\n      swap1\n      dup2\n      mstore\n      0x20\n      add\n      0x00\n      keccak256\n      sload\n        /* \"WatermelonBUSDDice.sol\":9870:9878  betValue */\n      0x12\n        /* \"WatermelonBUSDDice.sol\":9870:9889  betValue[requestId] */\n      0x00\n        /* \"WatermelonBUSDDice.sol\":9879:9888  requestId */\n      dup10\n        /* \"WatermelonBUSDDice.sol\":9870:9889  betValue[requestId] */\n      dup2\n      mstore\n      0x20\n      add\n      swap1\n      dup2\n      mstore\n      0x20\n      add\n      0x00\n      keccak256\n      sload\n        /* \"WatermelonBUSDDice.sol\":9891:9911  playerCurrentResult1 */\n      0x13\n        /* \"WatermelonBUSDDice.sol\":9891:9926  playerCurrentResult1[playerAddress] */\n      0x00\n        /* \"WatermelonBUSDDice.sol\":9912:9925  playerAddress */\n      dup9\n        /* \"WatermelonBUSDDice.sol\":9891:9926  playerCurrentResult1[playerAddress] */\n      0xffffffffffffffffffffffffffffffffffffffff\n      and\n      0xffffffffffffffffffffffffffffffffffffffff\n      and\n      dup2\n      mstore\n      0x20\n      add\n      swap1\n      dup2\n      mstore\n      0x20\n      add\n      0x00\n      keccak256\n      sload\n        /* \"WatermelonBUSDDice.sol\":9927:9947  playerCurrentResult2 */\n      0x14\n        /* \"WatermelonBUSDDice.sol\":9927:9962  playerCurrentResult2[playerAddress] */\n      0x00\n        /* \"WatermelonBUSDDice.sol\":9948:9961  playerAddress */\n      dup10\n        /* \"WatermelonBUSDDice.sol\":9927:9962  playerCurrentResult2[playerAddress] */\n      0xffffffffffffffffffffffffffffffffffffffff\n      and\n      0xffffffffffffffffffffffffffffffffffffffff\n      and\n      dup2\n      mstore\n      0x20\n      add\n      swap1\n      dup2\n      mstore\n      0x20\n      add\n      0x00\n      keccak256\n      sload\n        /* \"WatermelonBUSDDice.sol\":9963:9968  false */\n      0x00\n        /* \"WatermelonBUSDDice.sol\":9812:9819  addBets */\n      tag_521\n        /* \"WatermelonBUSDDice.sol\":9812:9969  addBets(playerAddress, requestId, userBet[playerAddress], betValue[requestId], playerCurrentResult1[playerAddress],playerCurrentResult2[playerAddress],false) */\n      jump\t// in\n    tag_525:\n        /* \"WatermelonBUSDDice.sol\":10015:10023  betValue */\n      0x12\n        /* \"WatermelonBUSDDice.sol\":10015:10034  betValue[requestId] */\n      0x00\n        /* \"WatermelonBUSDDice.sol\":10024:10033  requestId */\n      dup6\n        /* \"WatermelonBUSDDice.sol\":10015:10034  betValue[requestId] */\n      dup2\n      mstore\n      0x20\n      add\n      swap1\n      dup2\n      mstore\n      0x20\n      add\n      0x00\n      keccak256\n      sload\n        /* \"WatermelonBUSDDice.sol\":9981:9996  userLostBalance */\n      0x19\n        /* \"WatermelonBUSDDice.sol\":9981:10011  userLostBalance[playerAddress] */\n      0x00\n        /* \"WatermelonBUSDDice.sol\":9997:10010  playerAddress */\n      dup5\n        /* \"WatermelonBUSDDice.sol\":9981:10011  userLostBalance[playerAddress] */\n      0xffffffffffffffffffffffffffffffffffffffff\n      and\n      0xffffffffffffffffffffffffffffffffffffffff\n      and\n      dup2\n      mstore\n      0x20\n      add\n      swap1\n      dup2\n      mstore\n      0x20\n      add\n      0x00\n      keccak256\n      0x00\n        /* \"WatermelonBUSDDice.sol\":9981:10034  userLostBalance[playerAddress] += betValue[requestId] */\n      dup3\n      dup3\n      sload\n      tag_526\n      swap2\n      swap1\n      tag_326\n      jump\t// in\n    tag_526:\n      swap3\n      pop\n      pop\n      dup2\n      swap1\n      sstore\n      pop\n        /* \"WatermelonBUSDDice.sol\":10046:10059  totalBetsLost */\n      0x0b\n      0x00\n        /* \"WatermelonBUSDDice.sol\":10046:10061  totalBetsLost++ */\n      dup2\n      sload\n      dup1\n      swap3\n      swap2\n      swap1\n      tag_527\n      swap1\n      tag_523\n      jump\t// in\n    tag_527:\n      swap2\n      swap1\n      pop\n      sstore\n      pop\n        /* \"WatermelonBUSDDice.sol\":9487:10070  if((playerCurrentResult1[playerAddress]+playerCurrentResult2[playerAddress]) >= 7){... */\n    tag_524:\n        /* \"WatermelonBUSDDice.sol\":9448:10665  if(userBet[playerAddress] == 1){... */\n      jump(tag_528)\n    tag_517:\n        /* \"WatermelonBUSDDice.sol\":10168:10169  7 */\n      0x07\n        /* \"WatermelonBUSDDice.sol\":10129:10149  playerCurrentResult2 */\n      0x14\n        /* \"WatermelonBUSDDice.sol\":10129:10164  playerCurrentResult2[playerAddress] */\n      0x00\n        /* \"WatermelonBUSDDice.sol\":10150:10163  playerAddress */\n      dup5\n        /* \"WatermelonBUSDDice.sol\":10129:10164  playerCurrentResult2[playerAddress] */\n      0xffffffffffffffffffffffffffffffffffffffff\n      and\n      0xffffffffffffffffffffffffffffffffffffffff\n      and\n      dup2\n      mstore\n      0x20\n      add\n      swap1\n      dup2\n      mstore\n      0x20\n      add\n      0x00\n      keccak256\n      sload\n        /* \"WatermelonBUSDDice.sol\":10093:10113  playerCurrentResult1 */\n      0x13\n        /* \"WatermelonBUSDDice.sol\":10093:10128  playerCurrentResult1[playerAddress] */\n      0x00\n        /* \"WatermelonBUSDDice.sol\":10114:10127  playerAddress */\n      dup6\n        /* \"WatermelonBUSDDice.sol\":10093:10128  playerCurrentResult1[playerAddress] */\n      0xffffffffffffffffffffffffffffffffffffffff\n      and\n      0xffffffffffffffffffffffffffffffffffffffff\n      and\n      dup2\n      mstore\n      0x20\n      add\n      swap1\n      dup2\n      mstore\n      0x20\n      add\n      0x00\n      keccak256\n      sload\n        /* \"WatermelonBUSDDice.sol\":10093:10164  playerCurrentResult1[playerAddress]+playerCurrentResult2[playerAddress] */\n      tag_529\n      swap2\n      swap1\n      tag_326\n      jump\t// in\n    tag_529:\n        /* \"WatermelonBUSDDice.sol\":10092:10169  (playerCurrentResult1[playerAddress]+playerCurrentResult2[playerAddress]) < 7 */\n      lt\n        /* \"WatermelonBUSDDice.sol\":10089:10659  if((playerCurrentResult1[playerAddress]+playerCurrentResult2[playerAddress]) < 7){... */\n      iszero\n      tag_530\n      jumpi\n        /* \"WatermelonBUSDDice.sol\":10180:10336  addBets(playerAddress, requestId, userBet[playerAddress], betValue[requestId], playerCurrentResult1[playerAddress],playerCurrentResult2[playerAddress],true) */\n      tag_531\n        /* \"WatermelonBUSDDice.sol\":10188:10201  playerAddress */\n      dup3\n        /* \"WatermelonBUSDDice.sol\":10203:10212  requestId */\n      dup6\n        /* \"WatermelonBUSDDice.sol\":10214:10221  userBet */\n      0x11\n        /* \"WatermelonBUSDDice.sol\":10214:10236  userBet[playerAddress] */\n      0x00\n        /* \"WatermelonBUSDDice.sol\":10222:10235  playerAddress */\n      dup7\n        /* \"WatermelonBUSDDice.sol\":10214:10236  userBet[playerAddress] */\n      0xffffffffffffffffffffffffffffffffffffffff\n      and\n      0xffffffffffffffffffffffffffffffffffffffff\n      and\n      dup2\n      mstore\n      0x20\n      add\n      swap1\n      dup2\n      mstore\n      0x20\n      add\n      0x00\n      keccak256\n      sload\n        /* \"WatermelonBUSDDice.sol\":10238:10246  betValue */\n      0x12\n        /* \"WatermelonBUSDDice.sol\":10238:10257  betValue[requestId] */\n      0x00\n        /* \"WatermelonBUSDDice.sol\":10247:10256  requestId */\n      dup10\n        /* \"WatermelonBUSDDice.sol\":10238:10257  betValue[requestId] */\n      dup2\n      mstore\n      0x20\n      add\n      swap1\n      dup2\n      mstore\n      0x20\n      add\n      0x00\n      keccak256\n      sload\n        /* \"WatermelonBUSDDice.sol\":10259:10279  playerCurrentResult1 */\n      0x13\n        /* \"WatermelonBUSDDice.sol\":10259:10294  playerCurrentResult1[playerAddress] */\n      0x00\n        /* \"WatermelonBUSDDice.sol\":10280:10293  playerAddress */\n      dup9\n        /* \"WatermelonBUSDDice.sol\":10259:10294  playerCurrentResult1[playerAddress] */\n      0xffffffffffffffffffffffffffffffffffffffff\n      and\n      0xffffffffffffffffffffffffffffffffffffffff\n      and\n      dup2\n      mstore\n      0x20\n      add\n      swap1\n      dup2\n      mstore\n      0x20\n      add\n      0x00\n      keccak256\n      sload\n        /* \"WatermelonBUSDDice.sol\":10295:10315  playerCurrentResult2 */\n      0x14\n        /* \"WatermelonBUSDDice.sol\":10295:10330  playerCurrentResult2[playerAddress] */\n      0x00\n        /* \"WatermelonBUSDDice.sol\":10316:10329  playerAddress */\n      dup10\n        /* \"WatermelonBUSDDice.sol\":10295:10330  playerCurrentResult2[playerAddress] */\n      0xffffffffffffffffffffffffffffffffffffffff\n      and\n      0xffffffffffffffffffffffffffffffffffffffff\n      and\n      dup2\n      mstore\n      0x20\n      add\n      swap1\n      dup2\n      mstore\n      0x20\n      add\n      0x00\n      keccak256\n      sload\n        /* \"WatermelonBUSDDice.sol\":10331:10335  true */\n      0x01\n        /* \"WatermelonBUSDDice.sol\":10180:10187  addBets */\n      tag_521\n        /* \"WatermelonBUSDDice.sol\":10180:10336  addBets(playerAddress, requestId, userBet[playerAddress], betValue[requestId], playerCurrentResult1[playerAddress],playerCurrentResult2[playerAddress],true) */\n      jump\t// in\n    tag_531:\n        /* \"WatermelonBUSDDice.sol\":10354:10358  true */\n      0x01\n        /* \"WatermelonBUSDDice.sol\":10346:10358  isWon = true */\n      swap1\n      pop\n        /* \"WatermelonBUSDDice.sol\":10368:10380  totalBetsWon */\n      0x09\n      0x00\n        /* \"WatermelonBUSDDice.sol\":10368:10382  totalBetsWon++ */\n      dup2\n      sload\n      dup1\n      swap3\n      swap2\n      swap1\n      tag_532\n      swap1\n      tag_523\n      jump\t// in\n    tag_532:\n      swap2\n      swap1\n      pop\n      sstore\n      pop\n        /* \"WatermelonBUSDDice.sol\":10089:10659  if((playerCurrentResult1[playerAddress]+playerCurrentResult2[playerAddress]) < 7){... */\n      jump(tag_533)\n    tag_530:\n        /* \"WatermelonBUSDDice.sol\":10405:10562  addBets(playerAddress, requestId, userBet[playerAddress], betValue[requestId], playerCurrentResult1[playerAddress],playerCurrentResult2[playerAddress],false) */\n      tag_534\n        /* \"WatermelonBUSDDice.sol\":10413:10426  playerAddress */\n      dup3\n        /* \"WatermelonBUSDDice.sol\":10428:10437  requestId */\n      dup6\n        /* \"WatermelonBUSDDice.sol\":10439:10446  userBet */\n      0x11\n        /* \"WatermelonBUSDDice.sol\":10439:10461  userBet[playerAddress] */\n      0x00\n        /* \"WatermelonBUSDDice.sol\":10447:10460  playerAddress */\n      dup7\n        /* \"WatermelonBUSDDice.sol\":10439:10461  userBet[playerAddress] */\n      0xffffffffffffffffffffffffffffffffffffffff\n      and\n      0xffffffffffffffffffffffffffffffffffffffff\n      and\n      dup2\n      mstore\n      0x20\n      add\n      swap1\n      dup2\n      mstore\n      0x20\n      add\n      0x00\n      keccak256\n      sload\n        /* \"WatermelonBUSDDice.sol\":10463:10471  betValue */\n      0x12\n        /* \"WatermelonBUSDDice.sol\":10463:10482  betValue[requestId] */\n      0x00\n        /* \"WatermelonBUSDDice.sol\":10472:10481  requestId */\n      dup10\n        /* \"WatermelonBUSDDice.sol\":10463:10482  betValue[requestId] */\n      dup2\n      mstore\n      0x20\n      add\n      swap1\n      dup2\n      mstore\n      0x20\n      add\n      0x00\n      keccak256\n      sload\n        /* \"WatermelonBUSDDice.sol\":10484:10504  playerCurrentResult1 */\n      0x13\n        /* \"WatermelonBUSDDice.sol\":10484:10519  playerCurrentResult1[playerAddress] */\n      0x00\n        /* \"WatermelonBUSDDice.sol\":10505:10518  playerAddress */\n      dup9\n        /* \"WatermelonBUSDDice.sol\":10484:10519  playerCurrentResult1[playerAddress] */\n      0xffffffffffffffffffffffffffffffffffffffff\n      and\n      0xffffffffffffffffffffffffffffffffffffffff\n      and\n      dup2\n      mstore\n      0x20\n      add\n      swap1\n      dup2\n      mstore\n      0x20\n      add\n      0x00\n      keccak256\n      sload\n        /* \"WatermelonBUSDDice.sol\":10520:10540  playerCurrentResult2 */\n      0x14\n        /* \"WatermelonBUSDDice.sol\":10520:10555  playerCurrentResult2[playerAddress] */\n      0x00\n        /* \"WatermelonBUSDDice.sol\":10541:10554  playerAddress */\n      dup10\n        /* \"WatermelonBUSDDice.sol\":10520:10555  playerCurrentResult2[playerAddress] */\n      0xffffffffffffffffffffffffffffffffffffffff\n      and\n      0xffffffffffffffffffffffffffffffffffffffff\n      and\n      dup2\n      mstore\n      0x20\n      add\n      swap1\n      dup2\n      mstore\n      0x20\n      add\n      0x00\n      keccak256\n      sload\n        /* \"WatermelonBUSDDice.sol\":10556:10561  false */\n      0x00\n        /* \"WatermelonBUSDDice.sol\":10405:10412  addBets */\n      tag_521\n        /* \"WatermelonBUSDDice.sol\":10405:10562  addBets(playerAddress, requestId, userBet[playerAddress], betValue[requestId], playerCurrentResult1[playerAddress],playerCurrentResult2[playerAddress],false) */\n      jump\t// in\n    tag_534:\n        /* \"WatermelonBUSDDice.sol\":10606:10614  betValue */\n      0x12\n        /* \"WatermelonBUSDDice.sol\":10606:10625  betValue[requestId] */\n      0x00\n        /* \"WatermelonBUSDDice.sol\":10615:10624  requestId */\n      dup6\n        /* \"WatermelonBUSDDice.sol\":10606:10625  betValue[requestId] */\n      dup2\n      mstore\n      0x20\n      add\n      swap1\n      dup2\n      mstore\n      0x20\n      add\n      0x00\n      keccak256\n      sload\n        /* \"WatermelonBUSDDice.sol\":10572:10587  userLostBalance */\n      0x19\n        /* \"WatermelonBUSDDice.sol\":10572:10602  userLostBalance[playerAddress] */\n      0x00\n        /* \"WatermelonBUSDDice.sol\":10588:10601  playerAddress */\n      dup5\n        /* \"WatermelonBUSDDice.sol\":10572:10602  userLostBalance[playerAddress] */\n      0xffffffffffffffffffffffffffffffffffffffff\n      and\n      0xffffffffffffffffffffffffffffffffffffffff\n      and\n      dup2\n      mstore\n      0x20\n      add\n      swap1\n      dup2\n      mstore\n      0x20\n      add\n      0x00\n      keccak256\n      0x00\n        /* \"WatermelonBUSDDice.sol\":10572:10625  userLostBalance[playerAddress] += betValue[requestId] */\n      dup3\n      dup3\n      sload\n      tag_535\n      swap2\n      swap1\n      tag_326\n      jump\t// in\n    tag_535:\n      swap3\n      pop\n      pop\n      dup2\n      swap1\n      sstore\n      pop\n        /* \"WatermelonBUSDDice.sol\":10635:10648  totalBetsLost */\n      0x0b\n      0x00\n        /* \"WatermelonBUSDDice.sol\":10635:10650  totalBetsLost++ */\n      dup2\n      sload\n      dup1\n      swap3\n      swap2\n      swap1\n      tag_536\n      swap1\n      tag_523\n      jump\t// in\n    tag_536:\n      swap2\n      swap1\n      pop\n      sstore\n      pop\n        /* \"WatermelonBUSDDice.sol\":10089:10659  if((playerCurrentResult1[playerAddress]+playerCurrentResult2[playerAddress]) < 7){... */\n    tag_533:\n        /* \"WatermelonBUSDDice.sol\":9448:10665  if(userBet[playerAddress] == 1){... */\n    tag_528:\n        /* \"WatermelonBUSDDice.sol\":10675:10735  processDistribution(playerAddress,betValue[requestId],isWon) */\n      tag_537\n        /* \"WatermelonBUSDDice.sol\":10695:10708  playerAddress */\n      dup3\n        /* \"WatermelonBUSDDice.sol\":10709:10717  betValue */\n      0x12\n        /* \"WatermelonBUSDDice.sol\":10709:10728  betValue[requestId] */\n      0x00\n        /* \"WatermelonBUSDDice.sol\":10718:10727  requestId */\n      dup8\n        /* \"WatermelonBUSDDice.sol\":10709:10728  betValue[requestId] */\n      dup2\n      mstore\n      0x20\n      add\n      swap1\n      dup2\n      mstore\n      0x20\n      add\n      0x00\n      keccak256\n      sload\n        /* \"WatermelonBUSDDice.sol\":10729:10734  isWon */\n      dup4\n        /* \"WatermelonBUSDDice.sol\":10675:10694  processDistribution */\n      tag_538\n        /* \"WatermelonBUSDDice.sol\":10675:10735  processDistribution(playerAddress,betValue[requestId],isWon) */\n      jump\t// in\n    tag_537:\n        /* \"WatermelonBUSDDice.sol\":9183:10740  {... */\n      pop\n      pop\n        /* \"WatermelonBUSDDice.sol\":9087:10740  function fulfillRandomWords(uint256 requestId, uint256[] memory randomWords ) internal override {... */\n      pop\n      pop\n      jump\t// out\n        /* \"WatermelonBUSDDice.sol\":7572:8858  function rollDice(uint16 _bet, uint256 _amount) internal {... */\n    tag_361:\n        /* \"WatermelonBUSDDice.sol\":7674:7693  minChainlinkBalance */\n      sload(0x0e)\n        /* \"WatermelonBUSDDice.sol\":7643:7670  getVRFsubscriptionBalance() */\n      tag_540\n        /* \"WatermelonBUSDDice.sol\":7643:7668  getVRFsubscriptionBalance */\n      tag_157\n        /* \"WatermelonBUSDDice.sol\":7643:7670  getVRFsubscriptionBalance() */\n      jump\t// in\n    tag_540:\n        /* \"WatermelonBUSDDice.sol\":7643:7693  getVRFsubscriptionBalance() <= minChainlinkBalance */\n      gt\n        /* \"WatermelonBUSDDice.sol\":7640:7736  if(getVRFsubscriptionBalance() <= minChainlinkBalance){... */\n      tag_541\n      jumpi\n        /* \"WatermelonBUSDDice.sol\":7702:7729  fundChainlinkSubscription() */\n      tag_542\n        /* \"WatermelonBUSDDice.sol\":7702:7727  fundChainlinkSubscription */\n      tag_203\n        /* \"WatermelonBUSDDice.sol\":7702:7729  fundChainlinkSubscription() */\n      jump\t// in\n    tag_542:\n        /* \"WatermelonBUSDDice.sol\":7640:7736  if(getVRFsubscriptionBalance() <= minChainlinkBalance){... */\n    tag_541:\n        /* \"WatermelonBUSDDice.sol\":7838:7857  minChainlinkBalance */\n      sload(0x0e)\n        /* \"WatermelonBUSDDice.sol\":7807:7834  getVRFsubscriptionBalance() */\n      tag_543\n        /* \"WatermelonBUSDDice.sol\":7807:7832  getVRFsubscriptionBalance */\n      tag_157\n        /* \"WatermelonBUSDDice.sol\":7807:7834  getVRFsubscriptionBalance() */\n      jump\t// in\n    tag_543:\n        /* \"WatermelonBUSDDice.sol\":7807:7857  getVRFsubscriptionBalance() >= minChainlinkBalance */\n      lt\n      iszero\n        /* \"WatermelonBUSDDice.sol\":7799:7908  require(getVRFsubscriptionBalance() >= minChainlinkBalance,\"Insufficient Chainlink VRF subscription balance\") */\n      tag_544\n      jumpi\n      mload(0x40)\n      0x08c379a000000000000000000000000000000000000000000000000000000000\n      dup2\n      mstore\n      0x04\n      add\n      tag_545\n      swap1\n      tag_546\n      jump\t// in\n    tag_545:\n      mload(0x40)\n      dup1\n      swap2\n      sub\n      swap1\n      revert\n    tag_544:\n        /* \"WatermelonBUSDDice.sol\":7933:7950  getMaxBetAmount() */\n      tag_547\n        /* \"WatermelonBUSDDice.sol\":7933:7948  getMaxBetAmount */\n      tag_161\n        /* \"WatermelonBUSDDice.sol\":7933:7950  getMaxBetAmount() */\n      jump\t// in\n    tag_547:\n        /* \"WatermelonBUSDDice.sol\":7922:7929  _amount */\n      dup2\n        /* \"WatermelonBUSDDice.sol\":7922:7950  _amount <= getMaxBetAmount() */\n      gt\n      iszero\n        /* \"WatermelonBUSDDice.sol\":7914:8001  require(_amount <= getMaxBetAmount(),\"You can not bet more than maximum allowed limit\") */\n      tag_548\n      jumpi\n      mload(0x40)\n      0x08c379a000000000000000000000000000000000000000000000000000000000\n      dup2\n      mstore\n      0x04\n      add\n      tag_549\n      swap1\n      tag_550\n      jump\t// in\n    tag_549:\n      mload(0x40)\n      dup1\n      swap2\n      sub\n      swap1\n      revert\n    tag_548:\n        /* \"WatermelonBUSDDice.sol\":8026:8038  minBetAmount */\n      sload(0x0d)\n        /* \"WatermelonBUSDDice.sol\":8015:8022  _amount */\n      dup2\n        /* \"WatermelonBUSDDice.sol\":8015:8038  _amount >= minBetAmount */\n      lt\n      iszero\n        /* \"WatermelonBUSDDice.sol\":8007:8071  require(_amount >= minBetAmount,\"Minimum bet amount is $5 BUSD\") */\n      tag_551\n      jumpi\n      mload(0x40)\n      0x08c379a000000000000000000000000000000000000000000000000000000000\n      dup2\n      mstore\n      0x04\n      add\n      tag_552\n      swap1\n      tag_553\n      jump\t// in\n    tag_552:\n      mload(0x40)\n      dup1\n      swap2\n      sub\n      swap1\n      revert\n    tag_551:\n        /* \"WatermelonBUSDDice.sol\":8135:8142  _amount */\n      dup1\n        /* \"WatermelonBUSDDice.sol\":8085:8094  busdToken */\n      0x27\n      0x00\n      swap1\n      sload\n      swap1\n      0x0100\n      exp\n      swap1\n      div\n      0xffffffffffffffffffffffffffffffffffffffff\n      and\n        /* \"WatermelonBUSDDice.sol\":8085:8104  busdToken.allowance */\n      0xffffffffffffffffffffffffffffffffffffffff\n      and\n      0xdd62ed3e\n        /* \"WatermelonBUSDDice.sol\":8105:8115  msg.sender */\n      caller\n        /* \"WatermelonBUSDDice.sol\":8125:8129  this */\n      address\n        /* \"WatermelonBUSDDice.sol\":8085:8131  busdToken.allowance(msg.sender, address(this)) */\n      mload(0x40)\n      dup4\n      0xffffffff\n      and\n      0xe0\n      shl\n      dup2\n      mstore\n      0x04\n      add\n      tag_554\n      swap3\n      swap2\n      swap1\n      tag_350\n      jump\t// in\n    tag_554:\n      0x20\n      mload(0x40)\n      dup1\n      dup4\n      sub\n      dup2\n      dup7\n      gas\n      staticcall\n      iszero\n      dup1\n      iszero\n      tag_556\n      jumpi\n      returndatasize\n      0x00\n      dup1\n      returndatacopy\n      revert(0x00, returndatasize)\n    tag_556:\n      pop\n      pop\n      pop\n      pop\n      mload(0x40)\n      returndatasize\n      not(0x1f)\n      0x1f\n      dup3\n      add\n      and\n      dup3\n      add\n      dup1\n      0x40\n      mstore\n      pop\n      dup2\n      add\n      swap1\n      tag_557\n      swap2\n      swap1\n      tag_367\n      jump\t// in\n    tag_557:\n        /* \"WatermelonBUSDDice.sol\":8085:8142  busdToken.allowance(msg.sender, address(this)) >= _amount */\n      lt\n      iszero\n        /* \"WatermelonBUSDDice.sol\":8077:8166  require(busdToken.allowance(msg.sender, address(this)) >= _amount,\"Not enough allowance\") */\n      tag_558\n      jumpi\n      mload(0x40)\n      0x08c379a000000000000000000000000000000000000000000000000000000000\n      dup2\n      mstore\n      0x04\n      add\n      tag_559\n      swap1\n      tag_370\n      jump\t// in\n    tag_559:\n      mload(0x40)\n      dup1\n      swap2\n      sub\n      swap1\n      revert\n    tag_558:\n        /* \"WatermelonBUSDDice.sol\":8215:8222  _amount */\n      dup1\n        /* \"WatermelonBUSDDice.sol\":8180:8189  busdToken */\n      0x27\n      0x00\n      swap1\n      sload\n      swap1\n      0x0100\n      exp\n      swap1\n      div\n      0xffffffffffffffffffffffffffffffffffffffff\n      and\n        /* \"WatermelonBUSDDice.sol\":8180:8199  busdToken.balanceOf */\n      0xffffffffffffffffffffffffffffffffffffffff\n      and\n      0x70a08231\n        /* \"WatermelonBUSDDice.sol\":8200:8210  msg.sender */\n      caller\n        /* \"WatermelonBUSDDice.sol\":8180:8211  busdToken.balanceOf(msg.sender) */\n      mload(0x40)\n      dup3\n      0xffffffff\n      and\n      0xe0\n      shl\n      dup2\n      mstore\n      0x04\n      add\n      tag_560\n      swap2\n      swap1\n      tag_90\n      jump\t// in\n    tag_560:\n      0x20\n      mload(0x40)\n      dup1\n      dup4\n      sub\n      dup2\n      dup7\n      gas\n      staticcall\n      iszero\n      dup1\n      iszero\n      tag_562\n      jumpi\n      returndatasize\n      0x00\n      dup1\n      returndatacopy\n      revert(0x00, returndatasize)\n    tag_562:\n      pop\n      pop\n      pop\n      pop\n      mload(0x40)\n      returndatasize\n      not(0x1f)\n      0x1f\n      dup3\n      add\n      and\n      dup3\n      add\n      dup1\n      0x40\n      mstore\n      pop\n      dup2\n      add\n      swap1\n      tag_563\n      swap2\n      swap1\n      tag_367\n      jump\t// in\n    tag_563:\n        /* \"WatermelonBUSDDice.sol\":8180:8222  busdToken.balanceOf(msg.sender) >= _amount */\n      lt\n      iszero\n        /* \"WatermelonBUSDDice.sol\":8172:8251  require(busdToken.balanceOf(msg.sender) >= _amount,\"Insufficient BUSD balance\") */\n      tag_564\n      jumpi\n      mload(0x40)\n      0x08c379a000000000000000000000000000000000000000000000000000000000\n      dup2\n      mstore\n      0x04\n      add\n      tag_565\n      swap1\n      tag_377\n      jump\t// in\n    tag_565:\n      mload(0x40)\n      dup1\n      swap2\n      sub\n      swap1\n      revert\n    tag_564:\n        /* \"WatermelonBUSDDice.sol\":8261:8273  bool success */\n      0x00\n        /* \"WatermelonBUSDDice.sol\":8276:8285  busdToken */\n      0x27\n      0x00\n      swap1\n      sload\n      swap1\n      0x0100\n      exp\n      swap1\n      div\n      0xffffffffffffffffffffffffffffffffffffffff\n      and\n        /* \"WatermelonBUSDDice.sol\":8276:8298  busdToken.transferFrom */\n      0xffffffffffffffffffffffffffffffffffffffff\n      and\n      0x23b872dd\n        /* \"WatermelonBUSDDice.sol\":8299:8309  msg.sender */\n      caller\n        /* \"WatermelonBUSDDice.sol\":8319:8323  this */\n      address\n        /* \"WatermelonBUSDDice.sol\":8326:8333  _amount */\n      dup6\n        /* \"WatermelonBUSDDice.sol\":8276:8334  busdToken.transferFrom(msg.sender, address(this), _amount) */\n      mload(0x40)\n      dup5\n      0xffffffff\n      and\n      0xe0\n      shl\n      dup2\n      mstore\n      0x04\n      add\n      tag_566\n      swap4\n      swap3\n      swap2\n      swap1\n      tag_379\n      jump\t// in\n    tag_566:\n      0x20\n      mload(0x40)\n      dup1\n      dup4\n      sub\n      dup2\n      0x00\n      dup8\n      gas\n      call\n      iszero\n      dup1\n      iszero\n      tag_568\n      jumpi\n      returndatasize\n      0x00\n      dup1\n      returndatacopy\n      revert(0x00, returndatasize)\n    tag_568:\n      pop\n      pop\n      pop\n      pop\n      mload(0x40)\n      returndatasize\n      not(0x1f)\n      0x1f\n      dup3\n      add\n      and\n      dup3\n      add\n      dup1\n      0x40\n      mstore\n      pop\n      dup2\n      add\n      swap1\n      tag_569\n      swap2\n      swap1\n      tag_383\n      jump\t// in\n    tag_569:\n        /* \"WatermelonBUSDDice.sol\":8261:8334  bool success = busdToken.transferFrom(msg.sender, address(this), _amount) */\n      swap1\n      pop\n        /* \"WatermelonBUSDDice.sol\":8348:8355  success */\n      dup1\n        /* \"WatermelonBUSDDice.sol\":8340:8381  require(success, \"BUSD Transfer failed.\") */\n      tag_570\n      jumpi\n      mload(0x40)\n      0x08c379a000000000000000000000000000000000000000000000000000000000\n      dup2\n      mstore\n      0x04\n      add\n      tag_571\n      swap1\n      tag_386\n      jump\t// in\n    tag_571:\n      mload(0x40)\n      dup1\n      swap2\n      sub\n      swap1\n      revert\n    tag_570:\n        /* \"WatermelonBUSDDice.sol\":8427:8428  0 */\n      0x00\n        /* \"WatermelonBUSDDice.sol\":8392:8412  playerCurrentResult1 */\n      0x13\n        /* \"WatermelonBUSDDice.sol\":8392:8424  playerCurrentResult1[msg.sender] */\n      0x00\n        /* \"WatermelonBUSDDice.sol\":8413:8423  msg.sender */\n      caller\n        /* \"WatermelonBUSDDice.sol\":8392:8424  playerCurrentResult1[msg.sender] */\n      0xffffffffffffffffffffffffffffffffffffffff\n      and\n      0xffffffffffffffffffffffffffffffffffffffff\n      and\n      dup2\n      mstore\n      0x20\n      add\n      swap1\n      dup2\n      mstore\n      0x20\n      add\n      0x00\n      keccak256\n        /* \"WatermelonBUSDDice.sol\":8392:8428  playerCurrentResult1[msg.sender] = 0 */\n      dup2\n      swap1\n      sstore\n      pop\n        /* \"WatermelonBUSDDice.sol\":8469:8470  0 */\n      0x00\n        /* \"WatermelonBUSDDice.sol\":8434:8454  playerCurrentResult2 */\n      0x14\n        /* \"WatermelonBUSDDice.sol\":8434:8466  playerCurrentResult2[msg.sender] */\n      0x00\n        /* \"WatermelonBUSDDice.sol\":8455:8465  msg.sender */\n      caller\n        /* \"WatermelonBUSDDice.sol\":8434:8466  playerCurrentResult2[msg.sender] */\n      0xffffffffffffffffffffffffffffffffffffffff\n      and\n      0xffffffffffffffffffffffffffffffffffffffff\n      and\n      dup2\n      mstore\n      0x20\n      add\n      swap1\n      dup2\n      mstore\n      0x20\n      add\n      0x00\n      keccak256\n        /* \"WatermelonBUSDDice.sol\":8434:8470  playerCurrentResult2[msg.sender] = 0 */\n      dup2\n      swap1\n      sstore\n      pop\n        /* \"WatermelonBUSDDice.sol\":8476:8491  playerTotalBets */\n      0x15\n        /* \"WatermelonBUSDDice.sol\":8476:8503  playerTotalBets[msg.sender] */\n      0x00\n        /* \"WatermelonBUSDDice.sol\":8492:8502  msg.sender */\n      caller\n        /* \"WatermelonBUSDDice.sol\":8476:8503  playerTotalBets[msg.sender] */\n      0xffffffffffffffffffffffffffffffffffffffff\n      and\n      0xffffffffffffffffffffffffffffffffffffffff\n      and\n      dup2\n      mstore\n      0x20\n      add\n      swap1\n      dup2\n      mstore\n      0x20\n      add\n      0x00\n      keccak256\n      0x00\n        /* \"WatermelonBUSDDice.sol\":8476:8505  playerTotalBets[msg.sender]++ */\n      dup2\n      sload\n      dup1\n      swap3\n      swap2\n      swap1\n      tag_572\n      swap1\n      tag_523\n      jump\t// in\n    tag_572:\n      swap2\n      swap1\n      pop\n      sstore\n      pop\n        /* \"WatermelonBUSDDice.sol\":8526:8537  COORDINATOR */\n      0x01\n      0x00\n      swap1\n      sload\n      swap1\n      0x0100\n      exp\n      swap1\n      div\n      0xffffffffffffffffffffffffffffffffffffffff\n      and\n        /* \"WatermelonBUSDDice.sol\":8526:8556  COORDINATOR.requestRandomWords */\n      0xffffffffffffffffffffffffffffffffffffffff\n      and\n      0x5d3b1d30\n        /* \"WatermelonBUSDDice.sol\":8564:8571  keyHash */\n      sload(0x03)\n        /* \"WatermelonBUSDDice.sol\":8579:8595  s_subscriptionId */\n      0x01\n      0x14\n      swap1\n      sload\n      swap1\n      0x0100\n      exp\n      swap1\n      div\n      0xffffffffffffffff\n      and\n        /* \"WatermelonBUSDDice.sol\":8603:8623  requestConfirmations */\n      0x04\n      dup1\n      sload\n      swap1\n      0x0100\n      exp\n      swap1\n      div\n      0xffff\n      and\n        /* \"WatermelonBUSDDice.sol\":8631:8647  callbackGasLimit */\n      0x04\n      0x00\n      swap1\n      sload\n      swap1\n      0x0100\n      exp\n      swap1\n      div\n      0xffffffff\n      and\n        /* \"WatermelonBUSDDice.sol\":8655:8663  numWords */\n      0x04\n      0x06\n      swap1\n      sload\n      swap1\n      0x0100\n      exp\n      swap1\n      div\n      0xffffffff\n      and\n        /* \"WatermelonBUSDDice.sol\":8526:8669  COORDINATOR.requestRandomWords(... */\n      mload(0x40)\n      dup7\n      0xffffffff\n      and\n      0xe0\n      shl\n      dup2\n      mstore\n      0x04\n      add\n      tag_573\n      swap6\n      swap5\n      swap4\n      swap3\n      swap2\n      swap1\n      tag_574\n      jump\t// in\n    tag_573:\n      0x20\n      mload(0x40)\n      dup1\n      dup4\n      sub\n      dup2\n      0x00\n      dup8\n      gas\n      call\n      iszero\n      dup1\n      iszero\n      tag_576\n      jumpi\n      returndatasize\n      0x00\n      dup1\n      returndatacopy\n      revert(0x00, returndatasize)\n    tag_576:\n      pop\n      pop\n      pop\n      pop\n      mload(0x40)\n      returndatasize\n      not(0x1f)\n      0x1f\n      dup3\n      add\n      and\n      dup3\n      add\n      dup1\n      0x40\n      mstore\n      pop\n      dup2\n      add\n      swap1\n      tag_577\n      swap2\n      swap1\n      tag_367\n      jump\t// in\n    tag_577:\n        /* \"WatermelonBUSDDice.sol\":8512:8523  s_requestId */\n      0x06\n        /* \"WatermelonBUSDDice.sol\":8512:8669  s_requestId = COORDINATOR.requestRandomWords(... */\n      dup2\n      swap1\n      sstore\n      pop\n        /* \"WatermelonBUSDDice.sol\":8702:8706  _bet */\n      dup3\n        /* \"WatermelonBUSDDice.sol\":8680:8706  userBet[msg.sender] = _bet */\n      0xffff\n      and\n        /* \"WatermelonBUSDDice.sol\":8680:8687  userBet */\n      0x11\n        /* \"WatermelonBUSDDice.sol\":8680:8699  userBet[msg.sender] */\n      0x00\n        /* \"WatermelonBUSDDice.sol\":8688:8698  msg.sender */\n      caller\n        /* \"WatermelonBUSDDice.sol\":8680:8699  userBet[msg.sender] */\n      0xffffffffffffffffffffffffffffffffffffffff\n      and\n      0xffffffffffffffffffffffffffffffffffffffff\n      and\n      dup2\n      mstore\n      0x20\n      add\n      swap1\n      dup2\n      mstore\n      0x20\n      add\n      0x00\n      keccak256\n        /* \"WatermelonBUSDDice.sol\":8680:8706  userBet[msg.sender] = _bet */\n      dup2\n      swap1\n      sstore\n      pop\n        /* \"WatermelonBUSDDice.sol\":8744:8754  msg.sender */\n      caller\n        /* \"WatermelonBUSDDice.sol\":8712:8728  requesterAddress */\n      0x1a\n        /* \"WatermelonBUSDDice.sol\":8712:8741  requesterAddress[s_requestId] */\n      0x00\n        /* \"WatermelonBUSDDice.sol\":8729:8740  s_requestId */\n      sload(0x06)\n        /* \"WatermelonBUSDDice.sol\":8712:8741  requesterAddress[s_requestId] */\n      dup2\n      mstore\n      0x20\n      add\n      swap1\n      dup2\n      mstore\n      0x20\n      add\n      0x00\n      keccak256\n      0x00\n        /* \"WatermelonBUSDDice.sol\":8712:8754  requesterAddress[s_requestId] = msg.sender */\n      0x0100\n      exp\n      dup2\n      sload\n      dup2\n      0xffffffffffffffffffffffffffffffffffffffff\n      mul\n      not\n      and\n      swap1\n      dup4\n      0xffffffffffffffffffffffffffffffffffffffff\n      and\n      mul\n      or\n      swap1\n      sstore\n      pop\n        /* \"WatermelonBUSDDice.sol\":8773:8780  _amount */\n      dup2\n        /* \"WatermelonBUSDDice.sol\":8760:8769  totalBets */\n      0x08\n      0x00\n        /* \"WatermelonBUSDDice.sol\":8760:8780  totalBets += _amount */\n      dup3\n      dup3\n      sload\n      tag_578\n      swap2\n      swap1\n      tag_326\n      jump\t// in\n    tag_578:\n      swap3\n      pop\n      pop\n      dup2\n      swap1\n      sstore\n      pop\n        /* \"WatermelonBUSDDice.sol\":8810:8817  _amount */\n      dup2\n        /* \"WatermelonBUSDDice.sol\":8786:8794  betValue */\n      0x12\n        /* \"WatermelonBUSDDice.sol\":8786:8807  betValue[s_requestId] */\n      0x00\n        /* \"WatermelonBUSDDice.sol\":8795:8806  s_requestId */\n      sload(0x06)\n        /* \"WatermelonBUSDDice.sol\":8786:8807  betValue[s_requestId] */\n      dup2\n      mstore\n      0x20\n      add\n      swap1\n      dup2\n      mstore\n      0x20\n      add\n      0x00\n      keccak256\n        /* \"WatermelonBUSDDice.sol\":8786:8817  betValue[s_requestId] = _amount */\n      dup2\n      swap1\n      sstore\n      pop\n        /* \"WatermelonBUSDDice.sol\":8849:8853  true */\n      0x01\n        /* \"WatermelonBUSDDice.sol\":8823:8834  roundStatus */\n      0x1b\n        /* \"WatermelonBUSDDice.sol\":8823:8846  roundStatus[msg.sender] */\n      0x00\n        /* \"WatermelonBUSDDice.sol\":8835:8845  msg.sender */\n      caller\n        /* \"WatermelonBUSDDice.sol\":8823:8846  roundStatus[msg.sender] */\n      0xffffffffffffffffffffffffffffffffffffffff\n      and\n      0xffffffffffffffffffffffffffffffffffffffff\n      and\n      dup2\n      mstore\n      0x20\n      add\n      swap1\n      dup2\n      mstore\n      0x20\n      add\n      0x00\n      keccak256\n      0x00\n        /* \"WatermelonBUSDDice.sol\":8823:8853  roundStatus[msg.sender] = true */\n      0x0100\n      exp\n      dup2\n      sload\n      dup2\n      0xff\n      mul\n      not\n      and\n      swap1\n      dup4\n      iszero\n      iszero\n      mul\n      or\n      swap1\n      sstore\n      pop\n        /* \"WatermelonBUSDDice.sol\":7629:8858  {... */\n      pop\n        /* \"WatermelonBUSDDice.sol\":7572:8858  function rollDice(uint16 _bet, uint256 _amount) internal {... */\n      pop\n      pop\n      jump\t// out\n        /* \"WatermelonBUSDDice.sol\":11461:11760  function addBets(address _playerAddress, uint256 _requestId, uint256 _bet, uint256 _amount, uint256 _dice1Result, uint256 _dice2Result, bool _isWon) internal {... */\n    tag_521:\n        /* \"WatermelonBUSDDice.sol\":11632:11715  Bet(_requestId, _amount, _bet, _dice1Result, _dice2Result, _isWon, block.timestamp) */\n      mload(0x40)\n      dup1\n      0xe0\n      add\n      0x40\n      mstore\n      dup1\n        /* \"WatermelonBUSDDice.sol\":11636:11646  _requestId */\n      dup8\n        /* \"WatermelonBUSDDice.sol\":11632:11715  Bet(_requestId, _amount, _bet, _dice1Result, _dice2Result, _isWon, block.timestamp) */\n      dup2\n      mstore\n      0x20\n      add\n        /* \"WatermelonBUSDDice.sol\":11648:11655  _amount */\n      dup6\n        /* \"WatermelonBUSDDice.sol\":11632:11715  Bet(_requestId, _amount, _bet, _dice1Result, _dice2Result, _isWon, block.timestamp) */\n      dup2\n      mstore\n      0x20\n      add\n        /* \"WatermelonBUSDDice.sol\":11657:11661  _bet */\n      dup7\n        /* \"WatermelonBUSDDice.sol\":11632:11715  Bet(_requestId, _amount, _bet, _dice1Result, _dice2Result, _isWon, block.timestamp) */\n      dup2\n      mstore\n      0x20\n      add\n        /* \"WatermelonBUSDDice.sol\":11663:11675  _dice1Result */\n      dup5\n        /* \"WatermelonBUSDDice.sol\":11632:11715  Bet(_requestId, _amount, _bet, _dice1Result, _dice2Result, _isWon, block.timestamp) */\n      dup2\n      mstore\n      0x20\n      add\n        /* \"WatermelonBUSDDice.sol\":11677:11689  _dice2Result */\n      dup4\n        /* \"WatermelonBUSDDice.sol\":11632:11715  Bet(_requestId, _amount, _bet, _dice1Result, _dice2Result, _isWon, block.timestamp) */\n      dup2\n      mstore\n      0x20\n      add\n        /* \"WatermelonBUSDDice.sol\":11691:11697  _isWon */\n      dup3\n        /* \"WatermelonBUSDDice.sol\":11632:11715  Bet(_requestId, _amount, _bet, _dice1Result, _dice2Result, _isWon, block.timestamp) */\n      iszero\n      iszero\n      dup2\n      mstore\n      0x20\n      add\n        /* \"WatermelonBUSDDice.sol\":11699:11714  block.timestamp */\n      timestamp\n        /* \"WatermelonBUSDDice.sol\":11632:11715  Bet(_requestId, _amount, _bet, _dice1Result, _dice2Result, _isWon, block.timestamp) */\n      dup2\n      mstore\n      pop\n        /* \"WatermelonBUSDDice.sol\":11625:11628  bet */\n      0x1c\n        /* \"WatermelonBUSDDice.sol\":11625:11715  bet =  Bet(_requestId, _amount, _bet, _dice1Result, _dice2Result, _isWon, block.timestamp) */\n      0x00\n      dup3\n      add\n      mload\n      dup2\n      0x00\n      add\n      sstore\n      0x20\n      dup3\n      add\n      mload\n      dup2\n      0x01\n      add\n      sstore\n      0x40\n      dup3\n      add\n      mload\n      dup2\n      0x02\n      add\n      sstore\n      0x60\n      dup3\n      add\n      mload\n      dup2\n      0x03\n      add\n      sstore\n      0x80\n      dup3\n      add\n      mload\n      dup2\n      0x04\n      add\n      sstore\n      0xa0\n      dup3\n      add\n      mload\n      dup2\n      0x05\n      add\n      exp(0x0100, 0x00)\n      dup2\n      sload\n      dup2\n      0xff\n      mul\n      not\n      and\n      swap1\n      dup4\n      iszero\n      iszero\n      mul\n      or\n      swap1\n      sstore\n      pop\n      0xc0\n      dup3\n      add\n      mload\n      dup2\n      0x06\n      add\n      sstore\n      swap1\n      pop\n      pop\n        /* \"WatermelonBUSDDice.sol\":11721:11729  userBets */\n      0x23\n        /* \"WatermelonBUSDDice.sol\":11721:11745  userBets[_playerAddress] */\n      0x00\n        /* \"WatermelonBUSDDice.sol\":11730:11744  _playerAddress */\n      dup9\n        /* \"WatermelonBUSDDice.sol\":11721:11745  userBets[_playerAddress] */\n      0xffffffffffffffffffffffffffffffffffffffff\n      and\n      0xffffffffffffffffffffffffffffffffffffffff\n      and\n      dup2\n      mstore\n      0x20\n      add\n      swap1\n      dup2\n      mstore\n      0x20\n      add\n      0x00\n      keccak256\n        /* \"WatermelonBUSDDice.sol\":11751:11754  bet */\n      0x1c\n        /* \"WatermelonBUSDDice.sol\":11721:11755  userBets[_playerAddress].push(bet) */\n      swap1\n      dup1\n      0x01\n      dup2\n      sload\n      add\n      dup1\n      dup3\n      sstore\n      dup1\n      swap2\n      pop\n      pop\n      0x01\n      swap1\n      sub\n      swap1\n      0x00\n      mstore\n      keccak256(0x00, 0x20)\n      swap1\n      0x07\n      mul\n      add\n      0x00\n      swap1\n      swap2\n      swap1\n      swap2\n      swap1\n      swap2\n      pop\n      0x00\n      dup3\n      add\n      sload\n      dup2\n      0x00\n      add\n      sstore\n      0x01\n      dup3\n      add\n      sload\n      dup2\n      0x01\n      add\n      sstore\n      0x02\n      dup3\n      add\n      sload\n      dup2\n      0x02\n      add\n      sstore\n      0x03\n      dup3\n      add\n      sload\n      dup2\n      0x03\n      add\n      sstore\n      0x04\n      dup3\n      add\n      sload\n      dup2\n      0x04\n      add\n      sstore\n      0x05\n      dup3\n      add\n      0x00\n      swap1\n      sload\n      swap1\n      0x0100\n      exp\n      swap1\n      div\n      0xff\n      and\n      dup2\n      0x05\n      add\n      exp(0x0100, 0x00)\n      dup2\n      sload\n      dup2\n      0xff\n      mul\n      not\n      and\n      swap1\n      dup4\n      iszero\n      iszero\n      mul\n      or\n      swap1\n      sstore\n      pop\n      0x06\n      dup3\n      add\n      sload\n      dup2\n      0x06\n      add\n      sstore\n      pop\n      pop\n        /* \"WatermelonBUSDDice.sol\":11461:11760  function addBets(address _playerAddress, uint256 _requestId, uint256 _bet, uint256 _amount, uint256 _dice1Result, uint256 _dice2Result, bool _isWon) internal {... */\n      pop\n      pop\n      pop\n      pop\n      pop\n      pop\n      pop\n      jump\t// out\n        /* \"WatermelonBUSDDice.sol\":10744:11372  function processDistribution(address _playerAddress, uint256 _amount, bool _isWon) internal {... */\n    tag_538:\n        /* \"WatermelonBUSDDice.sol\":10885:10888  100 */\n      0x64\n        /* \"WatermelonBUSDDice.sol\":10874:10883  minerFees */\n      sload(0x0f)\n        /* \"WatermelonBUSDDice.sol\":10864:10871  _amount */\n      dup4\n        /* \"WatermelonBUSDDice.sol\":10864:10883  _amount * minerFees */\n      tag_582\n      swap2\n      swap1\n      tag_397\n      jump\t// in\n    tag_582:\n        /* \"WatermelonBUSDDice.sol\":10863:10888  (_amount * minerFees)/100 */\n      tag_583\n      swap2\n      swap1\n      tag_399\n      jump\t// in\n    tag_583:\n        /* \"WatermelonBUSDDice.sol\":10842:10860  minerWalletBalance */\n      0x10\n        /* \"WatermelonBUSDDice.sol\":10842:10888  minerWalletBalance = (_amount * minerFees)/100 */\n      dup2\n      swap1\n      sstore\n      pop\n        /* \"WatermelonBUSDDice.sol\":10894:10906  bool success */\n      0x00\n        /* \"WatermelonBUSDDice.sol\":10909:10918  busdToken */\n      0x27\n      0x00\n      swap1\n      sload\n      swap1\n      0x0100\n      exp\n      swap1\n      div\n      0xffffffffffffffffffffffffffffffffffffffff\n      and\n        /* \"WatermelonBUSDDice.sol\":10909:10927  busdToken.transfer */\n      0xffffffffffffffffffffffffffffffffffffffff\n      and\n      0xa9059cbb\n        /* \"WatermelonBUSDDice.sol\":10928:10939  wmlnAddress */\n      0x24\n      0x00\n      swap1\n      sload\n      swap1\n      0x0100\n      exp\n      swap1\n      div\n      0xffffffffffffffffffffffffffffffffffffffff\n      and\n        /* \"WatermelonBUSDDice.sol\":10941:10959  minerWalletBalance */\n      sload(0x10)\n        /* \"WatermelonBUSDDice.sol\":10909:10960  busdToken.transfer(wmlnAddress, minerWalletBalance) */\n      mload(0x40)\n      dup4\n      0xffffffff\n      and\n      0xe0\n      shl\n      dup2\n      mstore\n      0x04\n      add\n      tag_584\n      swap3\n      swap2\n      swap1\n      tag_410\n      jump\t// in\n    tag_584:\n      0x20\n      mload(0x40)\n      dup1\n      dup4\n      sub\n      dup2\n      0x00\n      dup8\n      gas\n      call\n      iszero\n      dup1\n      iszero\n      tag_586\n      jumpi\n      returndatasize\n      0x00\n      dup1\n      returndatacopy\n      revert(0x00, returndatasize)\n    tag_586:\n      pop\n      pop\n      pop\n      pop\n      mload(0x40)\n      returndatasize\n      not(0x1f)\n      0x1f\n      dup3\n      add\n      and\n      dup3\n      add\n      dup1\n      0x40\n      mstore\n      pop\n      dup2\n      add\n      swap1\n      tag_587\n      swap2\n      swap1\n      tag_383\n      jump\t// in\n    tag_587:\n        /* \"WatermelonBUSDDice.sol\":10894:10960  bool success = busdToken.transfer(wmlnAddress, minerWalletBalance) */\n      swap1\n      pop\n        /* \"WatermelonBUSDDice.sol\":10974:10981  success */\n      dup1\n        /* \"WatermelonBUSDDice.sol\":10966:11025  require(success, \"BUSD Transfer to miner contract failed.\") */\n      tag_588\n      jumpi\n      mload(0x40)\n      0x08c379a000000000000000000000000000000000000000000000000000000000\n      dup2\n      mstore\n      0x04\n      add\n      tag_589\n      swap1\n      tag_590\n      jump\t// in\n    tag_589:\n      mload(0x40)\n      dup1\n      swap2\n      sub\n      swap1\n      revert\n    tag_588:\n        /* \"WatermelonBUSDDice.sol\":11037:11043  _isWon */\n      dup2\n        /* \"WatermelonBUSDDice.sol\":11034:11368  if(_isWon){... */\n      iszero\n      tag_591\n      jumpi\n        /* \"WatermelonBUSDDice.sol\":11052:11069  uint256 wonAmount */\n      0x00\n        /* \"WatermelonBUSDDice.sol\":11120:11123  100 */\n      0x64\n        /* \"WatermelonBUSDDice.sol\":11104:11118  getTotalFees() */\n      tag_592\n        /* \"WatermelonBUSDDice.sol\":11104:11116  getTotalFees */\n      tag_190\n        /* \"WatermelonBUSDDice.sol\":11104:11118  getTotalFees() */\n      jump\t// in\n    tag_592:\n        /* \"WatermelonBUSDDice.sol\":11094:11101  _amount */\n      dup6\n        /* \"WatermelonBUSDDice.sol\":11094:11118  _amount * getTotalFees() */\n      tag_593\n      swap2\n      swap1\n      tag_397\n      jump\t// in\n    tag_593:\n        /* \"WatermelonBUSDDice.sol\":11093:11123  (_amount * getTotalFees())/100 */\n      tag_594\n      swap2\n      swap1\n      tag_399\n      jump\t// in\n    tag_594:\n        /* \"WatermelonBUSDDice.sol\":11083:11090  _amount */\n      dup5\n        /* \"WatermelonBUSDDice.sol\":11083:11123  _amount - (_amount * getTotalFees())/100 */\n      tag_595\n      swap2\n      swap1\n      tag_596\n      jump\t// in\n    tag_595:\n        /* \"WatermelonBUSDDice.sol\":11072:11079  _amount */\n      dup5\n        /* \"WatermelonBUSDDice.sol\":11072:11124  _amount + (_amount - (_amount * getTotalFees())/100) */\n      tag_597\n      swap2\n      swap1\n      tag_326\n      jump\t// in\n    tag_597:\n        /* \"WatermelonBUSDDice.sol\":11052:11124  uint256 wonAmount = _amount + (_amount - (_amount * getTotalFees())/100) */\n      swap1\n      pop\n        /* \"WatermelonBUSDDice.sol\":11149:11158  wonAmount */\n      dup1\n        /* \"WatermelonBUSDDice.sol\":11132:11145  totalWinnings */\n      0x0a\n      0x00\n        /* \"WatermelonBUSDDice.sol\":11132:11158  totalWinnings += wonAmount */\n      dup3\n      dup3\n      sload\n      tag_598\n      swap2\n      swap1\n      tag_326\n      jump\t// in\n    tag_598:\n      swap3\n      pop\n      pop\n      dup2\n      swap1\n      sstore\n      pop\n        /* \"WatermelonBUSDDice.sol\":11202:11211  wonAmount */\n      dup1\n        /* \"WatermelonBUSDDice.sol\":11166:11182  unclaimedWinning */\n      0x18\n        /* \"WatermelonBUSDDice.sol\":11166:11198  unclaimedWinning[_playerAddress] */\n      0x00\n        /* \"WatermelonBUSDDice.sol\":11183:11197  _playerAddress */\n      dup8\n        /* \"WatermelonBUSDDice.sol\":11166:11198  unclaimedWinning[_playerAddress] */\n      0xffffffffffffffffffffffffffffffffffffffff\n      and\n      0xffffffffffffffffffffffffffffffffffffffff\n      and\n      dup2\n      mstore\n      0x20\n      add\n      swap1\n      dup2\n      mstore\n      0x20\n      add\n      0x00\n      keccak256\n      0x00\n        /* \"WatermelonBUSDDice.sol\":11166:11211  unclaimedWinning[_playerAddress] += wonAmount */\n      dup3\n      dup3\n      sload\n      tag_599\n      swap2\n      swap1\n      tag_326\n      jump\t// in\n    tag_599:\n      swap3\n      pop\n      pop\n      dup2\n      swap1\n      sstore\n      pop\n        /* \"WatermelonBUSDDice.sol\":11296:11299  100 */\n      0x64\n        /* \"WatermelonBUSDDice.sol\":11280:11294  getTotalFees() */\n      tag_600\n        /* \"WatermelonBUSDDice.sol\":11280:11292  getTotalFees */\n      tag_190\n        /* \"WatermelonBUSDDice.sol\":11280:11294  getTotalFees() */\n      jump\t// in\n    tag_600:\n        /* \"WatermelonBUSDDice.sol\":11270:11277  _amount */\n      dup6\n        /* \"WatermelonBUSDDice.sol\":11270:11294  _amount * getTotalFees() */\n      tag_601\n      swap2\n      swap1\n      tag_397\n      jump\t// in\n    tag_601:\n        /* \"WatermelonBUSDDice.sol\":11269:11299  (_amount * getTotalFees())/100 */\n      tag_602\n      swap2\n      swap1\n      tag_399\n      jump\t// in\n    tag_602:\n        /* \"WatermelonBUSDDice.sol\":11259:11266  _amount */\n      dup5\n        /* \"WatermelonBUSDDice.sol\":11259:11299  _amount - (_amount * getTotalFees())/100 */\n      tag_603\n      swap2\n      swap1\n      tag_596\n      jump\t// in\n    tag_603:\n        /* \"WatermelonBUSDDice.sol\":11219:11238  playerTotalWinnings */\n      0x16\n        /* \"WatermelonBUSDDice.sol\":11219:11254  playerTotalWinnings[_playerAddress] */\n      0x00\n        /* \"WatermelonBUSDDice.sol\":11239:11253  _playerAddress */\n      dup8\n        /* \"WatermelonBUSDDice.sol\":11219:11254  playerTotalWinnings[_playerAddress] */\n      0xffffffffffffffffffffffffffffffffffffffff\n      and\n      0xffffffffffffffffffffffffffffffffffffffff\n      and\n      dup2\n      mstore\n      0x20\n      add\n      swap1\n      dup2\n      mstore\n      0x20\n      add\n      0x00\n      keccak256\n      0x00\n        /* \"WatermelonBUSDDice.sol\":11219:11300  playerTotalWinnings[_playerAddress] += (_amount - (_amount * getTotalFees())/100) */\n      dup3\n      dup3\n      sload\n      tag_604\n      swap2\n      swap1\n      tag_326\n      jump\t// in\n    tag_604:\n      swap3\n      pop\n      pop\n      dup2\n      swap1\n      sstore\n      pop\n        /* \"WatermelonBUSDDice.sol\":11044:11307  {... */\n      pop\n        /* \"WatermelonBUSDDice.sol\":11034:11368  if(_isWon){... */\n      jump(tag_605)\n    tag_591:\n        /* \"WatermelonBUSDDice.sol\":11354:11361  _amount */\n      dup3\n        /* \"WatermelonBUSDDice.sol\":11319:11334  playerTotalLost */\n      0x17\n        /* \"WatermelonBUSDDice.sol\":11319:11350  playerTotalLost[_playerAddress] */\n      0x00\n        /* \"WatermelonBUSDDice.sol\":11335:11349  _playerAddress */\n      dup7\n        /* \"WatermelonBUSDDice.sol\":11319:11350  playerTotalLost[_playerAddress] */\n      0xffffffffffffffffffffffffffffffffffffffff\n      and\n      0xffffffffffffffffffffffffffffffffffffffff\n      and\n      dup2\n      mstore\n      0x20\n      add\n      swap1\n      dup2\n      mstore\n      0x20\n      add\n      0x00\n      keccak256\n      0x00\n        /* \"WatermelonBUSDDice.sol\":11319:11361  playerTotalLost[_playerAddress] += _amount */\n      dup3\n      dup3\n      sload\n      tag_606\n      swap2\n      swap1\n      tag_326\n      jump\t// in\n    tag_606:\n      swap3\n      pop\n      pop\n      dup2\n      swap1\n      sstore\n      pop\n        /* \"WatermelonBUSDDice.sol\":11034:11368  if(_isWon){... */\n    tag_605:\n        /* \"WatermelonBUSDDice.sol\":10836:11372  {... */\n      pop\n        /* \"WatermelonBUSDDice.sol\":10744:11372  function processDistribution(address _playerAddress, uint256 _amount, bool _isWon) internal {... */\n      pop\n      pop\n      pop\n      jump\t// out\n        /* \"#utility.yul\":7:82   */\n    tag_607:\n        /* \"#utility.yul\":40:46   */\n      0x00\n        /* \"#utility.yul\":73:75   */\n      0x40\n        /* \"#utility.yul\":67:76   */\n      mload\n        /* \"#utility.yul\":57:76   */\n      swap1\n      pop\n        /* \"#utility.yul\":7:82   */\n      swap1\n      jump\t// out\n        /* \"#utility.yul\":88:205   */\n    tag_608:\n        /* \"#utility.yul\":197:198   */\n      0x00\n        /* \"#utility.yul\":194:195   */\n      dup1\n        /* \"#utility.yul\":187:199   */\n      revert\n        /* \"#utility.yul\":211:328   */\n    tag_609:\n        /* \"#utility.yul\":320:321   */\n      0x00\n        /* \"#utility.yul\":317:318   */\n      dup1\n        /* \"#utility.yul\":310:322   */\n      revert\n        /* \"#utility.yul\":334:460   */\n    tag_610:\n        /* \"#utility.yul\":371:378   */\n      0x00\n        /* \"#utility.yul\":411:453   */\n      0xffffffffffffffffffffffffffffffffffffffff\n        /* \"#utility.yul\":404:409   */\n      dup3\n        /* \"#utility.yul\":400:454   */\n      and\n        /* \"#utility.yul\":389:454   */\n      swap1\n      pop\n        /* \"#utility.yul\":334:460   */\n      swap2\n      swap1\n      pop\n      jump\t// out\n        /* \"#utility.yul\":466:562   */\n    tag_611:\n        /* \"#utility.yul\":503:510   */\n      0x00\n        /* \"#utility.yul\":532:556   */\n      tag_696\n        /* \"#utility.yul\":550:555   */\n      dup3\n        /* \"#utility.yul\":532:556   */\n      tag_610\n      jump\t// in\n    tag_696:\n        /* \"#utility.yul\":521:556   */\n      swap1\n      pop\n        /* \"#utility.yul\":466:562   */\n      swap2\n      swap1\n      pop\n      jump\t// out\n        /* \"#utility.yul\":568:690   */\n    tag_612:\n        /* \"#utility.yul\":641:665   */\n      tag_698\n        /* \"#utility.yul\":659:664   */\n      dup2\n        /* \"#utility.yul\":641:665   */\n      tag_611\n      jump\t// in\n    tag_698:\n        /* \"#utility.yul\":634:639   */\n      dup2\n        /* \"#utility.yul\":631:666   */\n      eq\n        /* \"#utility.yul\":621:684   */\n      tag_699\n      jumpi\n        /* \"#utility.yul\":680:681   */\n      0x00\n        /* \"#utility.yul\":677:678   */\n      dup1\n        /* \"#utility.yul\":670:682   */\n      revert\n        /* \"#utility.yul\":621:684   */\n    tag_699:\n        /* \"#utility.yul\":568:690   */\n      pop\n      jump\t// out\n        /* \"#utility.yul\":696:835   */\n    tag_613:\n        /* \"#utility.yul\":742:747   */\n      0x00\n        /* \"#utility.yul\":780:786   */\n      dup2\n        /* \"#utility.yul\":767:787   */\n      calldataload\n        /* \"#utility.yul\":758:787   */\n      swap1\n      pop\n        /* \"#utility.yul\":796:829   */\n      tag_701\n        /* \"#utility.yul\":823:828   */\n      dup2\n        /* \"#utility.yul\":796:829   */\n      tag_612\n      jump\t// in\n    tag_701:\n        /* \"#utility.yul\":696:835   */\n      swap3\n      swap2\n      pop\n      pop\n      jump\t// out\n        /* \"#utility.yul\":841:1170   */\n    tag_80:\n        /* \"#utility.yul\":900:906   */\n      0x00\n        /* \"#utility.yul\":949:951   */\n      0x20\n        /* \"#utility.yul\":937:946   */\n      dup3\n        /* \"#utility.yul\":928:935   */\n      dup5\n        /* \"#utility.yul\":924:947   */\n      sub\n        /* \"#utility.yul\":920:952   */\n      slt\n        /* \"#utility.yul\":917:1036   */\n      iszero\n      tag_703\n      jumpi\n        /* \"#utility.yul\":955:1034   */\n      tag_704\n      tag_608\n      jump\t// in\n    tag_704:\n        /* \"#utility.yul\":917:1036   */\n    tag_703:\n        /* \"#utility.yul\":1075:1076   */\n      0x00\n        /* \"#utility.yul\":1100:1153   */\n      tag_705\n        /* \"#utility.yul\":1145:1152   */\n      dup5\n        /* \"#utility.yul\":1136:1142   */\n      dup3\n        /* \"#utility.yul\":1125:1134   */\n      dup6\n        /* \"#utility.yul\":1121:1143   */\n      add\n        /* \"#utility.yul\":1100:1153   */\n      tag_613\n      jump\t// in\n    tag_705:\n        /* \"#utility.yul\":1090:1153   */\n      swap2\n      pop\n        /* \"#utility.yul\":1046:1163   */\n      pop\n        /* \"#utility.yul\":841:1170   */\n      swap3\n      swap2\n      pop\n      pop\n      jump\t// out\n        /* \"#utility.yul\":1176:1253   */\n    tag_614:\n        /* \"#utility.yul\":1213:1220   */\n      0x00\n        /* \"#utility.yul\":1242:1247   */\n      dup2\n        /* \"#utility.yul\":1231:1247   */\n      swap1\n      pop\n        /* \"#utility.yul\":1176:1253   */\n      swap2\n      swap1\n      pop\n      jump\t// out\n        /* \"#utility.yul\":1259:1377   */\n    tag_615:\n        /* \"#utility.yul\":1346:1370   */\n      tag_708\n        /* \"#utility.yul\":1364:1369   */\n      dup2\n        /* \"#utility.yul\":1346:1370   */\n      tag_614\n      jump\t// in\n    tag_708:\n        /* \"#utility.yul\":1341:1344   */\n      dup3\n        /* \"#utility.yul\":1334:1371   */\n      mstore\n        /* \"#utility.yul\":1259:1377   */\n      pop\n      pop\n      jump\t// out\n        /* \"#utility.yul\":1383:1473   */\n    tag_616:\n        /* \"#utility.yul\":1417:1424   */\n      0x00\n        /* \"#utility.yul\":1460:1465   */\n      dup2\n        /* \"#utility.yul\":1453:1466   */\n      iszero\n        /* \"#utility.yul\":1446:1467   */\n      iszero\n        /* \"#utility.yul\":1435:1467   */\n      swap1\n      pop\n        /* \"#utility.yul\":1383:1473   */\n      swap2\n      swap1\n      pop\n      jump\t// out\n        /* \"#utility.yul\":1479:1588   */\n    tag_617:\n        /* \"#utility.yul\":1560:1581   */\n      tag_711\n        /* \"#utility.yul\":1575:1580   */\n      dup2\n        /* \"#utility.yul\":1560:1581   */\n      tag_616\n      jump\t// in\n    tag_711:\n        /* \"#utility.yul\":1555:1558   */\n      dup3\n        /* \"#utility.yul\":1548:1582   */\n      mstore\n        /* \"#utility.yul\":1479:1588   */\n      pop\n      pop\n      jump\t// out\n        /* \"#utility.yul\":1594:2024   */\n    tag_83:\n        /* \"#utility.yul\":1737:1741   */\n      0x00\n        /* \"#utility.yul\":1775:1777   */\n      0x60\n        /* \"#utility.yul\":1764:1773   */\n      dup3\n        /* \"#utility.yul\":1760:1778   */\n      add\n        /* \"#utility.yul\":1752:1778   */\n      swap1\n      pop\n        /* \"#utility.yul\":1788:1859   */\n      tag_713\n        /* \"#utility.yul\":1856:1857   */\n      0x00\n        /* \"#utility.yul\":1845:1854   */\n      dup4\n        /* \"#utility.yul\":1841:1858   */\n      add\n        /* \"#utility.yul\":1832:1838   */\n      dup7\n        /* \"#utility.yul\":1788:1859   */\n      tag_615\n      jump\t// in\n    tag_713:\n        /* \"#utility.yul\":1869:1941   */\n      tag_714\n        /* \"#utility.yul\":1937:1939   */\n      0x20\n        /* \"#utility.yul\":1926:1935   */\n      dup4\n        /* \"#utility.yul\":1922:1940   */\n      add\n        /* \"#utility.yul\":1913:1919   */\n      dup6\n        /* \"#utility.yul\":1869:1941   */\n      tag_615\n      jump\t// in\n    tag_714:\n        /* \"#utility.yul\":1951:2017   */\n      tag_715\n        /* \"#utility.yul\":2013:2015   */\n      0x40\n        /* \"#utility.yul\":2002:2011   */\n      dup4\n        /* \"#utility.yul\":1998:2016   */\n      add\n        /* \"#utility.yul\":1989:1995   */\n      dup5\n        /* \"#utility.yul\":1951:2017   */\n      tag_617\n      jump\t// in\n    tag_715:\n        /* \"#utility.yul\":1594:2024   */\n      swap5\n      swap4\n      pop\n      pop\n      pop\n      pop\n      jump\t// out\n        /* \"#utility.yul\":2030:2152   */\n    tag_618:\n        /* \"#utility.yul\":2103:2127   */\n      tag_717\n        /* \"#utility.yul\":2121:2126   */\n      dup2\n        /* \"#utility.yul\":2103:2127   */\n      tag_614\n      jump\t// in\n    tag_717:\n        /* \"#utility.yul\":2096:2101   */\n      dup2\n        /* \"#utility.yul\":2093:2128   */\n      eq\n        /* \"#utility.yul\":2083:2146   */\n      tag_718\n      jumpi\n        /* \"#utility.yul\":2142:2143   */\n      0x00\n        /* \"#utility.yul\":2139:2140   */\n      dup1\n        /* \"#utility.yul\":2132:2144   */\n      revert\n        /* \"#utility.yul\":2083:2146   */\n    tag_718:\n        /* \"#utility.yul\":2030:2152   */\n      pop\n      jump\t// out\n        /* \"#utility.yul\":2158:2297   */\n    tag_619:\n        /* \"#utility.yul\":2204:2209   */\n      0x00\n        /* \"#utility.yul\":2242:2248   */\n      dup2\n        /* \"#utility.yul\":2229:2249   */\n      calldataload\n        /* \"#utility.yul\":2220:2249   */\n      swap1\n      pop\n        /* \"#utility.yul\":2258:2291   */\n      tag_720\n        /* \"#utility.yul\":2285:2290   */\n      dup2\n        /* \"#utility.yul\":2258:2291   */\n      tag_618\n      jump\t// in\n    tag_720:\n        /* \"#utility.yul\":2158:2297   */\n      swap3\n      swap2\n      pop\n      pop\n      jump\t// out\n        /* \"#utility.yul\":2303:2632   */\n    tag_87:\n        /* \"#utility.yul\":2362:2368   */\n      0x00\n        /* \"#utility.yul\":2411:2413   */\n      0x20\n        /* \"#utility.yul\":2399:2408   */\n      dup3\n        /* \"#utility.yul\":2390:2397   */\n      dup5\n        /* \"#utility.yul\":2386:2409   */\n      sub\n        /* \"#utility.yul\":2382:2414   */\n      slt\n        /* \"#utility.yul\":2379:2498   */\n      iszero\n      tag_722\n      jumpi\n        /* \"#utility.yul\":2417:2496   */\n      tag_723\n      tag_608\n      jump\t// in\n    tag_723:\n        /* \"#utility.yul\":2379:2498   */\n    tag_722:\n        /* \"#utility.yul\":2537:2538   */\n      0x00\n        /* \"#utility.yul\":2562:2615   */\n      tag_724\n        /* \"#utility.yul\":2607:2614   */\n      dup5\n        /* \"#utility.yul\":2598:2604   */\n      dup3\n        /* \"#utility.yul\":2587:2596   */\n      dup6\n        /* \"#utility.yul\":2583:2605   */\n      add\n        /* \"#utility.yul\":2562:2615   */\n      tag_619\n      jump\t// in\n    tag_724:\n        /* \"#utility.yul\":2552:2615   */\n      swap2\n      pop\n        /* \"#utility.yul\":2508:2625   */\n      pop\n        /* \"#utility.yul\":2303:2632   */\n      swap3\n      swap2\n      pop\n      pop\n      jump\t// out\n        /* \"#utility.yul\":2638:2756   */\n    tag_620:\n        /* \"#utility.yul\":2725:2749   */\n      tag_726\n        /* \"#utility.yul\":2743:2748   */\n      dup2\n        /* \"#utility.yul\":2725:2749   */\n      tag_611\n      jump\t// in\n    tag_726:\n        /* \"#utility.yul\":2720:2723   */\n      dup3\n        /* \"#utility.yul\":2713:2750   */\n      mstore\n        /* \"#utility.yul\":2638:2756   */\n      pop\n      pop\n      jump\t// out\n        /* \"#utility.yul\":2762:2984   */\n    tag_90:\n        /* \"#utility.yul\":2855:2859   */\n      0x00\n        /* \"#utility.yul\":2893:2895   */\n      0x20\n        /* \"#utility.yul\":2882:2891   */\n      dup3\n        /* \"#utility.yul\":2878:2896   */\n      add\n        /* \"#utility.yul\":2870:2896   */\n      swap1\n      pop\n        /* \"#utility.yul\":2906:2977   */\n      tag_728\n        /* \"#utility.yul\":2974:2975   */\n      0x00\n        /* \"#utility.yul\":2963:2972   */\n      dup4\n        /* \"#utility.yul\":2959:2976   */\n      add\n        /* \"#utility.yul\":2950:2956   */\n      dup5\n        /* \"#utility.yul\":2906:2977   */\n      tag_620\n      jump\t// in\n    tag_728:\n        /* \"#utility.yul\":2762:2984   */\n      swap3\n      swap2\n      pop\n      pop\n      jump\t// out\n        /* \"#utility.yul\":2990:3212   */\n    tag_96:\n        /* \"#utility.yul\":3083:3087   */\n      0x00\n        /* \"#utility.yul\":3121:3123   */\n      0x20\n        /* \"#utility.yul\":3110:3119   */\n      dup3\n        /* \"#utility.yul\":3106:3124   */\n      add\n        /* \"#utility.yul\":3098:3124   */\n      swap1\n      pop\n        /* \"#utility.yul\":3134:3205   */\n      tag_730\n        /* \"#utility.yul\":3202:3203   */\n      0x00\n        /* \"#utility.yul\":3191:3200   */\n      dup4\n        /* \"#utility.yul\":3187:3204   */\n      add\n        /* \"#utility.yul\":3178:3184   */\n      dup5\n        /* \"#utility.yul\":3134:3205   */\n      tag_615\n      jump\t// in\n    tag_730:\n        /* \"#utility.yul\":2990:3212   */\n      swap3\n      swap2\n      pop\n      pop\n      jump\t// out\n        /* \"#utility.yul\":3218:3335   */\n    tag_621:\n        /* \"#utility.yul\":3327:3328   */\n      0x00\n        /* \"#utility.yul\":3324:3325   */\n      dup1\n        /* \"#utility.yul\":3317:3329   */\n      revert\n        /* \"#utility.yul\":3341:3443   */\n    tag_622:\n        /* \"#utility.yul\":3382:3388   */\n      0x00\n        /* \"#utility.yul\":3433:3435   */\n      0x1f\n        /* \"#utility.yul\":3429:3436   */\n      not\n        /* \"#utility.yul\":3424:3426   */\n      0x1f\n        /* \"#utility.yul\":3417:3422   */\n      dup4\n        /* \"#utility.yul\":3413:3427   */\n      add\n        /* \"#utility.yul\":3409:3437   */\n      and\n        /* \"#utility.yul\":3399:3437   */\n      swap1\n      pop\n        /* \"#utility.yul\":3341:3443   */\n      swap2\n      swap1\n      pop\n      jump\t// out\n        /* \"#utility.yul\":3449:3629   */\n    tag_623:\n        /* \"#utility.yul\":3497:3574   */\n      0x4e487b7100000000000000000000000000000000000000000000000000000000\n        /* \"#utility.yul\":3494:3495   */\n      0x00\n        /* \"#utility.yul\":3487:3575   */\n      mstore\n        /* \"#utility.yul\":3594:3598   */\n      0x41\n        /* \"#utility.yul\":3591:3592   */\n      0x04\n        /* \"#utility.yul\":3584:3599   */\n      mstore\n        /* \"#utility.yul\":3618:3622   */\n      0x24\n        /* \"#utility.yul\":3615:3616   */\n      0x00\n        /* \"#utility.yul\":3608:3623   */\n      revert\n        /* \"#utility.yul\":3635:3916   */\n    tag_624:\n        /* \"#utility.yul\":3718:3745   */\n      tag_735\n        /* \"#utility.yul\":3740:3744   */\n      dup3\n        /* \"#utility.yul\":3718:3745   */\n      tag_622\n      jump\t// in\n    tag_735:\n        /* \"#utility.yul\":3710:3716   */\n      dup2\n        /* \"#utility.yul\":3706:3746   */\n      add\n        /* \"#utility.yul\":3848:3854   */\n      dup2\n        /* \"#utility.yul\":3836:3846   */\n      dup2\n        /* \"#utility.yul\":3833:3855   */\n      lt\n        /* \"#utility.yul\":3812:3830   */\n      0xffffffffffffffff\n        /* \"#utility.yul\":3800:3810   */\n      dup3\n        /* \"#utility.yul\":3797:3831   */\n      gt\n        /* \"#utility.yul\":3794:3856   */\n      or\n        /* \"#utility.yul\":3791:3879   */\n      iszero\n      tag_736\n      jumpi\n        /* \"#utility.yul\":3859:3877   */\n      tag_737\n      tag_623\n      jump\t// in\n    tag_737:\n        /* \"#utility.yul\":3791:3879   */\n    tag_736:\n        /* \"#utility.yul\":3899:3909   */\n      dup1\n        /* \"#utility.yul\":3895:3897   */\n      0x40\n        /* \"#utility.yul\":3888:3910   */\n      mstore\n        /* \"#utility.yul\":3678:3916   */\n      pop\n        /* \"#utility.yul\":3635:3916   */\n      pop\n      pop\n      jump\t// out\n        /* \"#utility.yul\":3922:4051   */\n    tag_625:\n        /* \"#utility.yul\":3956:3962   */\n      0x00\n        /* \"#utility.yul\":3983:4003   */\n      tag_739\n      tag_607\n      jump\t// in\n    tag_739:\n        /* \"#utility.yul\":3973:4003   */\n      swap1\n      pop\n        /* \"#utility.yul\":4012:4045   */\n      tag_740\n        /* \"#utility.yul\":4040:4044   */\n      dup3\n        /* \"#utility.yul\":4032:4038   */\n      dup3\n        /* \"#utility.yul\":4012:4045   */\n      tag_624\n      jump\t// in\n    tag_740:\n        /* \"#utility.yul\":3922:4051   */\n      swap2\n      swap1\n      pop\n      jump\t// out\n        /* \"#utility.yul\":4057:4368   */\n    tag_626:\n        /* \"#utility.yul\":4134:4138   */\n      0x00\n        /* \"#utility.yul\":4224:4242   */\n      0xffffffffffffffff\n        /* \"#utility.yul\":4216:4222   */\n      dup3\n        /* \"#utility.yul\":4213:4243   */\n      gt\n        /* \"#utility.yul\":4210:4266   */\n      iszero\n      tag_742\n      jumpi\n        /* \"#utility.yul\":4246:4264   */\n      tag_743\n      tag_623\n      jump\t// in\n    tag_743:\n        /* \"#utility.yul\":4210:4266   */\n    tag_742:\n        /* \"#utility.yul\":4296:4300   */\n      0x20\n        /* \"#utility.yul\":4288:4294   */\n      dup3\n        /* \"#utility.yul\":4284:4301   */\n      mul\n        /* \"#utility.yul\":4276:4301   */\n      swap1\n      pop\n        /* \"#utility.yul\":4356:4360   */\n      0x20\n        /* \"#utility.yul\":4350:4354   */\n      dup2\n        /* \"#utility.yul\":4346:4361   */\n      add\n        /* \"#utility.yul\":4338:4361   */\n      swap1\n      pop\n        /* \"#utility.yul\":4057:4368   */\n      swap2\n      swap1\n      pop\n      jump\t// out\n        /* \"#utility.yul\":4374:4491   */\n    tag_627:\n        /* \"#utility.yul\":4483:4484   */\n      0x00\n        /* \"#utility.yul\":4480:4481   */\n      dup1\n        /* \"#utility.yul\":4473:4485   */\n      revert\n        /* \"#utility.yul\":4514:5224   */\n    tag_628:\n        /* \"#utility.yul\":4610:4615   */\n      0x00\n        /* \"#utility.yul\":4635:4716   */\n      tag_746\n        /* \"#utility.yul\":4651:4715   */\n      tag_747\n        /* \"#utility.yul\":4708:4714   */\n      dup5\n        /* \"#utility.yul\":4651:4715   */\n      tag_626\n      jump\t// in\n    tag_747:\n        /* \"#utility.yul\":4635:4716   */\n      tag_625\n      jump\t// in\n    tag_746:\n        /* \"#utility.yul\":4626:4716   */\n      swap1\n      pop\n        /* \"#utility.yul\":4736:4741   */\n      dup1\n        /* \"#utility.yul\":4765:4771   */\n      dup4\n        /* \"#utility.yul\":4758:4763   */\n      dup3\n        /* \"#utility.yul\":4751:4772   */\n      mstore\n        /* \"#utility.yul\":4799:4803   */\n      0x20\n        /* \"#utility.yul\":4792:4797   */\n      dup3\n        /* \"#utility.yul\":4788:4804   */\n      add\n        /* \"#utility.yul\":4781:4804   */\n      swap1\n      pop\n        /* \"#utility.yul\":4852:4856   */\n      0x20\n        /* \"#utility.yul\":4844:4850   */\n      dup5\n        /* \"#utility.yul\":4840:4857   */\n      mul\n        /* \"#utility.yul\":4832:4838   */\n      dup4\n        /* \"#utility.yul\":4828:4858   */\n      add\n        /* \"#utility.yul\":4881:4884   */\n      dup6\n        /* \"#utility.yul\":4873:4879   */\n      dup2\n        /* \"#utility.yul\":4870:4885   */\n      gt\n        /* \"#utility.yul\":4867:4989   */\n      iszero\n      tag_748\n      jumpi\n        /* \"#utility.yul\":4900:4979   */\n      tag_749\n      tag_627\n      jump\t// in\n    tag_749:\n        /* \"#utility.yul\":4867:4989   */\n    tag_748:\n        /* \"#utility.yul\":5015:5021   */\n      dup4\n        /* \"#utility.yul\":4998:5218   */\n    tag_750:\n        /* \"#utility.yul\":5032:5038   */\n      dup2\n        /* \"#utility.yul\":5027:5030   */\n      dup2\n        /* \"#utility.yul\":5024:5039   */\n      lt\n        /* \"#utility.yul\":4998:5218   */\n      iszero\n      tag_752\n      jumpi\n        /* \"#utility.yul\":5107:5110   */\n      dup1\n        /* \"#utility.yul\":5136:5173   */\n      tag_753\n        /* \"#utility.yul\":5169:5172   */\n      dup9\n        /* \"#utility.yul\":5157:5167   */\n      dup3\n        /* \"#utility.yul\":5136:5173   */\n      tag_619\n      jump\t// in\n    tag_753:\n        /* \"#utility.yul\":5131:5134   */\n      dup5\n        /* \"#utility.yul\":5124:5174   */\n      mstore\n        /* \"#utility.yul\":5203:5207   */\n      0x20\n        /* \"#utility.yul\":5198:5201   */\n      dup5\n        /* \"#utility.yul\":5194:5208   */\n      add\n        /* \"#utility.yul\":5187:5208   */\n      swap4\n      pop\n        /* \"#utility.yul\":5074:5218   */\n      pop\n        /* \"#utility.yul\":5058:5062   */\n      0x20\n        /* \"#utility.yul\":5053:5056   */\n      dup2\n        /* \"#utility.yul\":5049:5063   */\n      add\n        /* \"#utility.yul\":5042:5063   */\n      swap1\n      pop\n        /* \"#utility.yul\":4998:5218   */\n      jump(tag_750)\n    tag_752:\n        /* \"#utility.yul\":5002:5023   */\n      pop\n        /* \"#utility.yul\":4616:5224   */\n      pop\n      pop\n        /* \"#utility.yul\":4514:5224   */\n      swap4\n      swap3\n      pop\n      pop\n      pop\n      jump\t// out\n        /* \"#utility.yul\":5247:5617   */\n    tag_629:\n        /* \"#utility.yul\":5318:5323   */\n      0x00\n        /* \"#utility.yul\":5367:5370   */\n      dup3\n        /* \"#utility.yul\":5360:5364   */\n      0x1f\n        /* \"#utility.yul\":5352:5358   */\n      dup4\n        /* \"#utility.yul\":5348:5365   */\n      add\n        /* \"#utility.yul\":5344:5371   */\n      slt\n        /* \"#utility.yul\":5334:5456   */\n      tag_755\n      jumpi\n        /* \"#utility.yul\":5375:5454   */\n      tag_756\n      tag_621\n      jump\t// in\n    tag_756:\n        /* \"#utility.yul\":5334:5456   */\n    tag_755:\n        /* \"#utility.yul\":5492:5498   */\n      dup2\n        /* \"#utility.yul\":5479:5499   */\n      calldataload\n        /* \"#utility.yul\":5517:5611   */\n      tag_757\n        /* \"#utility.yul\":5607:5610   */\n      dup5\n        /* \"#utility.yul\":5599:5605   */\n      dup3\n        /* \"#utility.yul\":5592:5596   */\n      0x20\n        /* \"#utility.yul\":5584:5590   */\n      dup7\n        /* \"#utility.yul\":5580:5597   */\n      add\n        /* \"#utility.yul\":5517:5611   */\n      tag_628\n      jump\t// in\n    tag_757:\n        /* \"#utility.yul\":5508:5611   */\n      swap2\n      pop\n        /* \"#utility.yul\":5324:5617   */\n      pop\n        /* \"#utility.yul\":5247:5617   */\n      swap3\n      swap2\n      pop\n      pop\n      jump\t// out\n        /* \"#utility.yul\":5623:6307   */\n    tag_111:\n        /* \"#utility.yul\":5716:5722   */\n      0x00\n        /* \"#utility.yul\":5724:5730   */\n      dup1\n        /* \"#utility.yul\":5773:5775   */\n      0x40\n        /* \"#utility.yul\":5761:5770   */\n      dup4\n        /* \"#utility.yul\":5752:5759   */\n      dup6\n        /* \"#utility.yul\":5748:5771   */\n      sub\n        /* \"#utility.yul\":5744:5776   */\n      slt\n        /* \"#utility.yul\":5741:5860   */\n      iszero\n      tag_759\n      jumpi\n        /* \"#utility.yul\":5779:5858   */\n      tag_760\n      tag_608\n      jump\t// in\n    tag_760:\n        /* \"#utility.yul\":5741:5860   */\n    tag_759:\n        /* \"#utility.yul\":5899:5900   */\n      0x00\n        /* \"#utility.yul\":5924:5977   */\n      tag_761\n        /* \"#utility.yul\":5969:5976   */\n      dup6\n        /* \"#utility.yul\":5960:5966   */\n      dup3\n        /* \"#utility.yul\":5949:5958   */\n      dup7\n        /* \"#utility.yul\":5945:5967   */\n      add\n        /* \"#utility.yul\":5924:5977   */\n      tag_619\n      jump\t// in\n    tag_761:\n        /* \"#utility.yul\":5914:5977   */\n      swap3\n      pop\n        /* \"#utility.yul\":5870:5987   */\n      pop\n        /* \"#utility.yul\":6054:6056   */\n      0x20\n        /* \"#utility.yul\":6043:6052   */\n      dup4\n        /* \"#utility.yul\":6039:6057   */\n      add\n        /* \"#utility.yul\":6026:6058   */\n      calldataload\n        /* \"#utility.yul\":6085:6103   */\n      0xffffffffffffffff\n        /* \"#utility.yul\":6077:6083   */\n      dup2\n        /* \"#utility.yul\":6074:6104   */\n      gt\n        /* \"#utility.yul\":6071:6188   */\n      iszero\n      tag_762\n      jumpi\n        /* \"#utility.yul\":6107:6186   */\n      tag_763\n      tag_609\n      jump\t// in\n    tag_763:\n        /* \"#utility.yul\":6071:6188   */\n    tag_762:\n        /* \"#utility.yul\":6212:6290   */\n      tag_764\n        /* \"#utility.yul\":6282:6289   */\n      dup6\n        /* \"#utility.yul\":6273:6279   */\n      dup3\n        /* \"#utility.yul\":6262:6271   */\n      dup7\n        /* \"#utility.yul\":6258:6280   */\n      add\n        /* \"#utility.yul\":6212:6290   */\n      tag_629\n      jump\t// in\n    tag_764:\n        /* \"#utility.yul\":6202:6290   */\n      swap2\n      pop\n        /* \"#utility.yul\":5997:6300   */\n      pop\n        /* \"#utility.yul\":5623:6307   */\n      swap3\n      pop\n      swap3\n      swap1\n      pop\n      jump\t// out\n        /* \"#utility.yul\":6313:6523   */\n    tag_118:\n        /* \"#utility.yul\":6400:6404   */\n      0x00\n        /* \"#utility.yul\":6438:6440   */\n      0x20\n        /* \"#utility.yul\":6427:6436   */\n      dup3\n        /* \"#utility.yul\":6423:6441   */\n      add\n        /* \"#utility.yul\":6415:6441   */\n      swap1\n      pop\n        /* \"#utility.yul\":6451:6516   */\n      tag_766\n        /* \"#utility.yul\":6513:6514   */\n      0x00\n        /* \"#utility.yul\":6502:6511   */\n      dup4\n        /* \"#utility.yul\":6498:6515   */\n      add\n        /* \"#utility.yul\":6489:6495   */\n      dup5\n        /* \"#utility.yul\":6451:6516   */\n      tag_617\n      jump\t// in\n    tag_766:\n        /* \"#utility.yul\":6313:6523   */\n      swap3\n      swap2\n      pop\n      pop\n      jump\t// out\n        /* \"#utility.yul\":6529:7003   */\n    tag_218:\n        /* \"#utility.yul\":6597:6603   */\n      0x00\n        /* \"#utility.yul\":6605:6611   */\n      dup1\n        /* \"#utility.yul\":6654:6656   */\n      0x40\n        /* \"#utility.yul\":6642:6651   */\n      dup4\n        /* \"#utility.yul\":6633:6640   */\n      dup6\n        /* \"#utility.yul\":6629:6652   */\n      sub\n        /* \"#utility.yul\":6625:6657   */\n      slt\n        /* \"#utility.yul\":6622:6741   */\n      iszero\n      tag_768\n      jumpi\n        /* \"#utility.yul\":6660:6739   */\n      tag_769\n      tag_608\n      jump\t// in\n    tag_769:\n        /* \"#utility.yul\":6622:6741   */\n    tag_768:\n        /* \"#utility.yul\":6780:6781   */\n      0x00\n        /* \"#utility.yul\":6805:6858   */\n      tag_770\n        /* \"#utility.yul\":6850:6857   */\n      dup6\n        /* \"#utility.yul\":6841:6847   */\n      dup3\n        /* \"#utility.yul\":6830:6839   */\n      dup7\n        /* \"#utility.yul\":6826:6848   */\n      add\n        /* \"#utility.yul\":6805:6858   */\n      tag_613\n      jump\t// in\n    tag_770:\n        /* \"#utility.yul\":6795:6858   */\n      swap3\n      pop\n        /* \"#utility.yul\":6751:6868   */\n      pop\n        /* \"#utility.yul\":6907:6909   */\n      0x20\n        /* \"#utility.yul\":6933:6986   */\n      tag_771\n        /* \"#utility.yul\":6978:6985   */\n      dup6\n        /* \"#utility.yul\":6969:6975   */\n      dup3\n        /* \"#utility.yul\":6958:6967   */\n      dup7\n        /* \"#utility.yul\":6954:6976   */\n      add\n        /* \"#utility.yul\":6933:6986   */\n      tag_619\n      jump\t// in\n    tag_771:\n        /* \"#utility.yul\":6923:6986   */\n      swap2\n      pop\n        /* \"#utility.yul\":6878:6996   */\n      pop\n        /* \"#utility.yul\":6529:7003   */\n      swap3\n      pop\n      swap3\n      swap1\n      pop\n      jump\t// out\n        /* \"#utility.yul\":7009:7883   */\n    tag_221:\n        /* \"#utility.yul\":7264:7268   */\n      0x00\n        /* \"#utility.yul\":7302:7305   */\n      0xe0\n        /* \"#utility.yul\":7291:7300   */\n      dup3\n        /* \"#utility.yul\":7287:7306   */\n      add\n        /* \"#utility.yul\":7279:7306   */\n      swap1\n      pop\n        /* \"#utility.yul\":7316:7387   */\n      tag_773\n        /* \"#utility.yul\":7384:7385   */\n      0x00\n        /* \"#utility.yul\":7373:7382   */\n      dup4\n        /* \"#utility.yul\":7369:7386   */\n      add\n        /* \"#utility.yul\":7360:7366   */\n      dup11\n        /* \"#utility.yul\":7316:7387   */\n      tag_615\n      jump\t// in\n    tag_773:\n        /* \"#utility.yul\":7397:7469   */\n      tag_774\n        /* \"#utility.yul\":7465:7467   */\n      0x20\n        /* \"#utility.yul\":7454:7463   */\n      dup4\n        /* \"#utility.yul\":7450:7468   */\n      add\n        /* \"#utility.yul\":7441:7447   */\n      dup10\n        /* \"#utility.yul\":7397:7469   */\n      tag_615\n      jump\t// in\n    tag_774:\n        /* \"#utility.yul\":7479:7551   */\n      tag_775\n        /* \"#utility.yul\":7547:7549   */\n      0x40\n        /* \"#utility.yul\":7536:7545   */\n      dup4\n        /* \"#utility.yul\":7532:7550   */\n      add\n        /* \"#utility.yul\":7523:7529   */\n      dup9\n        /* \"#utility.yul\":7479:7551   */\n      tag_615\n      jump\t// in\n    tag_775:\n        /* \"#utility.yul\":7561:7633   */\n      tag_776\n        /* \"#utility.yul\":7629:7631   */\n      0x60\n        /* \"#utility.yul\":7618:7627   */\n      dup4\n        /* \"#utility.yul\":7614:7632   */\n      add\n        /* \"#utility.yul\":7605:7611   */\n      dup8\n        /* \"#utility.yul\":7561:7633   */\n      tag_615\n      jump\t// in\n    tag_776:\n        /* \"#utility.yul\":7643:7716   */\n      tag_777\n        /* \"#utility.yul\":7711:7714   */\n      0x80\n        /* \"#utility.yul\":7700:7709   */\n      dup4\n        /* \"#utility.yul\":7696:7715   */\n      add\n        /* \"#utility.yul\":7687:7693   */\n      dup7\n        /* \"#utility.yul\":7643:7716   */\n      tag_615\n      jump\t// in\n    tag_777:\n        /* \"#utility.yul\":7726:7793   */\n      tag_778\n        /* \"#utility.yul\":7788:7791   */\n      0xa0\n        /* \"#utility.yul\":7777:7786   */\n      dup4\n        /* \"#utility.yul\":7773:7792   */\n      add\n        /* \"#utility.yul\":7764:7770   */\n      dup6\n        /* \"#utility.yul\":7726:7793   */\n      tag_617\n      jump\t// in\n    tag_778:\n        /* \"#utility.yul\":7803:7876   */\n      tag_779\n        /* \"#utility.yul\":7871:7874   */\n      0xc0\n        /* \"#utility.yul\":7860:7869   */\n      dup4\n        /* \"#utility.yul\":7856:7875   */\n      add\n        /* \"#utility.yul\":7847:7853   */\n      dup5\n        /* \"#utility.yul\":7803:7876   */\n      tag_615\n      jump\t// in\n    tag_779:\n        /* \"#utility.yul\":7009:7883   */\n      swap9\n      swap8\n      pop\n      pop\n      pop\n      pop\n      pop\n      pop\n      pop\n      pop\n      jump\t// out\n        /* \"#utility.yul\":7889:7966   */\n    tag_630:\n        /* \"#utility.yul\":7926:7933   */\n      0x00\n        /* \"#utility.yul\":7955:7960   */\n      dup2\n        /* \"#utility.yul\":7944:7960   */\n      swap1\n      pop\n        /* \"#utility.yul\":7889:7966   */\n      swap2\n      swap1\n      pop\n      jump\t// out\n        /* \"#utility.yul\":7972:8094   */\n    tag_631:\n        /* \"#utility.yul\":8045:8069   */\n      tag_782\n        /* \"#utility.yul\":8063:8068   */\n      dup2\n        /* \"#utility.yul\":8045:8069   */\n      tag_630\n      jump\t// in\n    tag_782:\n        /* \"#utility.yul\":8038:8043   */\n      dup2\n        /* \"#utility.yul\":8035:8070   */\n      eq\n        /* \"#utility.yul\":8025:8088   */\n      tag_783\n      jumpi\n        /* \"#utility.yul\":8084:8085   */\n      0x00\n        /* \"#utility.yul\":8081:8082   */\n      dup1\n        /* \"#utility.yul\":8074:8086   */\n      revert\n        /* \"#utility.yul\":8025:8088   */\n    tag_783:\n        /* \"#utility.yul\":7972:8094   */\n      pop\n      jump\t// out\n        /* \"#utility.yul\":8100:8239   */\n    tag_632:\n        /* \"#utility.yul\":8146:8151   */\n      0x00\n        /* \"#utility.yul\":8184:8190   */\n      dup2\n        /* \"#utility.yul\":8171:8191   */\n      calldataload\n        /* \"#utility.yul\":8162:8191   */\n      swap1\n      pop\n        /* \"#utility.yul\":8200:8233   */\n      tag_785\n        /* \"#utility.yul\":8227:8232   */\n      dup2\n        /* \"#utility.yul\":8200:8233   */\n      tag_631\n      jump\t// in\n    tag_785:\n        /* \"#utility.yul\":8100:8239   */\n      swap3\n      swap2\n      pop\n      pop\n      jump\t// out\n        /* \"#utility.yul\":8245:8574   */\n    tag_233:\n        /* \"#utility.yul\":8304:8310   */\n      0x00\n        /* \"#utility.yul\":8353:8355   */\n      0x20\n        /* \"#utility.yul\":8341:8350   */\n      dup3\n        /* \"#utility.yul\":8332:8339   */\n      dup5\n        /* \"#utility.yul\":8328:8351   */\n      sub\n        /* \"#utility.yul\":8324:8356   */\n      slt\n        /* \"#utility.yul\":8321:8440   */\n      iszero\n      tag_787\n      jumpi\n        /* \"#utility.yul\":8359:8438   */\n      tag_788\n      tag_608\n      jump\t// in\n    tag_788:\n        /* \"#utility.yul\":8321:8440   */\n    tag_787:\n        /* \"#utility.yul\":8479:8480   */\n      0x00\n        /* \"#utility.yul\":8504:8557   */\n      tag_789\n        /* \"#utility.yul\":8549:8556   */\n      dup5\n        /* \"#utility.yul\":8540:8546   */\n      dup3\n        /* \"#utility.yul\":8529:8538   */\n      dup6\n        /* \"#utility.yul\":8525:8547   */\n      add\n        /* \"#utility.yul\":8504:8557   */\n      tag_632\n      jump\t// in\n    tag_789:\n        /* \"#utility.yul\":8494:8557   */\n      swap2\n      pop\n        /* \"#utility.yul\":8450:8567   */\n      pop\n        /* \"#utility.yul\":8245:8574   */\n      swap3\n      swap2\n      pop\n      pop\n      jump\t// out\n        /* \"#utility.yul\":8580:8673   */\n    tag_633:\n        /* \"#utility.yul\":8616:8623   */\n      0x00\n        /* \"#utility.yul\":8656:8666   */\n      0xffffffff\n        /* \"#utility.yul\":8649:8654   */\n      dup3\n        /* \"#utility.yul\":8645:8667   */\n      and\n        /* \"#utility.yul\":8634:8667   */\n      swap1\n      pop\n        /* \"#utility.yul\":8580:8673   */\n      swap2\n      swap1\n      pop\n      jump\t// out\n        /* \"#utility.yul\":8679:8799   */\n    tag_634:\n        /* \"#utility.yul\":8751:8774   */\n      tag_792\n        /* \"#utility.yul\":8768:8773   */\n      dup2\n        /* \"#utility.yul\":8751:8774   */\n      tag_633\n      jump\t// in\n    tag_792:\n        /* \"#utility.yul\":8744:8749   */\n      dup2\n        /* \"#utility.yul\":8741:8775   */\n      eq\n        /* \"#utility.yul\":8731:8793   */\n      tag_793\n      jumpi\n        /* \"#utility.yul\":8789:8790   */\n      0x00\n        /* \"#utility.yul\":8786:8787   */\n      dup1\n        /* \"#utility.yul\":8779:8791   */\n      revert\n        /* \"#utility.yul\":8731:8793   */\n    tag_793:\n        /* \"#utility.yul\":8679:8799   */\n      pop\n      jump\t// out\n        /* \"#utility.yul\":8805:8942   */\n    tag_635:\n        /* \"#utility.yul\":8850:8855   */\n      0x00\n        /* \"#utility.yul\":8888:8894   */\n      dup2\n        /* \"#utility.yul\":8875:8895   */\n      calldataload\n        /* \"#utility.yul\":8866:8895   */\n      swap1\n      pop\n        /* \"#utility.yul\":8904:8936   */\n      tag_795\n        /* \"#utility.yul\":8930:8935   */\n      dup2\n        /* \"#utility.yul\":8904:8936   */\n      tag_634\n      jump\t// in\n    tag_795:\n        /* \"#utility.yul\":8805:8942   */\n      swap3\n      swap2\n      pop\n      pop\n      jump\t// out\n        /* \"#utility.yul\":8948:9275   */\n    tag_247:\n        /* \"#utility.yul\":9006:9012   */\n      0x00\n        /* \"#utility.yul\":9055:9057   */\n      0x20\n        /* \"#utility.yul\":9043:9052   */\n      dup3\n        /* \"#utility.yul\":9034:9041   */\n      dup5\n        /* \"#utility.yul\":9030:9053   */\n      sub\n        /* \"#utility.yul\":9026:9058   */\n      slt\n        /* \"#utility.yul\":9023:9142   */\n      iszero\n      tag_797\n      jumpi\n        /* \"#utility.yul\":9061:9140   */\n      tag_798\n      tag_608\n      jump\t// in\n    tag_798:\n        /* \"#utility.yul\":9023:9142   */\n    tag_797:\n        /* \"#utility.yul\":9181:9182   */\n      0x00\n        /* \"#utility.yul\":9206:9258   */\n      tag_799\n        /* \"#utility.yul\":9250:9257   */\n      dup5\n        /* \"#utility.yul\":9241:9247   */\n      dup3\n        /* \"#utility.yul\":9230:9239   */\n      dup6\n        /* \"#utility.yul\":9226:9248   */\n      add\n        /* \"#utility.yul\":9206:9258   */\n      tag_635\n      jump\t// in\n    tag_799:\n        /* \"#utility.yul\":9196:9258   */\n      swap2\n      pop\n        /* \"#utility.yul\":9152:9268   */\n      pop\n        /* \"#utility.yul\":8948:9275   */\n      swap3\n      swap2\n      pop\n      pop\n      jump\t// out\n        /* \"#utility.yul\":9281:9415   */\n    tag_636:\n        /* \"#utility.yul\":9368:9374   */\n      0x00\n        /* \"#utility.yul\":9402:9407   */\n      dup2\n        /* \"#utility.yul\":9396:9408   */\n      mload\n        /* \"#utility.yul\":9386:9408   */\n      swap1\n      pop\n        /* \"#utility.yul\":9281:9415   */\n      swap2\n      swap1\n      pop\n      jump\t// out\n        /* \"#utility.yul\":9421:9625   */\n    tag_637:\n        /* \"#utility.yul\":9540:9551   */\n      0x00\n        /* \"#utility.yul\":9574:9580   */\n      dup3\n        /* \"#utility.yul\":9569:9572   */\n      dup3\n        /* \"#utility.yul\":9562:9581   */\n      mstore\n        /* \"#utility.yul\":9614:9618   */\n      0x20\n        /* \"#utility.yul\":9609:9612   */\n      dup3\n        /* \"#utility.yul\":9605:9619   */\n      add\n        /* \"#utility.yul\":9590:9619   */\n      swap1\n      pop\n        /* \"#utility.yul\":9421:9625   */\n      swap3\n      swap2\n      pop\n      pop\n      jump\t// out\n        /* \"#utility.yul\":9631:9783   */\n    tag_638:\n        /* \"#utility.yul\":9718:9722   */\n      0x00\n        /* \"#utility.yul\":9741:9744   */\n      dup2\n        /* \"#utility.yul\":9733:9744   */\n      swap1\n      pop\n        /* \"#utility.yul\":9771:9775   */\n      0x20\n        /* \"#utility.yul\":9766:9769   */\n      dup3\n        /* \"#utility.yul\":9762:9776   */\n      add\n        /* \"#utility.yul\":9754:9776   */\n      swap1\n      pop\n        /* \"#utility.yul\":9631:9783   */\n      swap2\n      swap1\n      pop\n      jump\t// out\n        /* \"#utility.yul\":9789:9897   */\n    tag_639:\n        /* \"#utility.yul\":9866:9890   */\n      tag_804\n        /* \"#utility.yul\":9884:9889   */\n      dup2\n        /* \"#utility.yul\":9866:9890   */\n      tag_614\n      jump\t// in\n    tag_804:\n        /* \"#utility.yul\":9861:9864   */\n      dup3\n        /* \"#utility.yul\":9854:9891   */\n      mstore\n        /* \"#utility.yul\":9789:9897   */\n      pop\n      pop\n      jump\t// out\n        /* \"#utility.yul\":9903:10002   */\n    tag_640:\n        /* \"#utility.yul\":9974:9995   */\n      tag_806\n        /* \"#utility.yul\":9989:9994   */\n      dup2\n        /* \"#utility.yul\":9974:9995   */\n      tag_616\n      jump\t// in\n    tag_806:\n        /* \"#utility.yul\":9969:9972   */\n      dup3\n        /* \"#utility.yul\":9962:9996   */\n      mstore\n        /* \"#utility.yul\":9903:10002   */\n      pop\n      pop\n      jump\t// out\n        /* \"#utility.yul\":10078:11457   */\n    tag_641:\n        /* \"#utility.yul\":10205:10209   */\n      0xe0\n        /* \"#utility.yul\":10200:10203   */\n      dup3\n        /* \"#utility.yul\":10196:10210   */\n      add\n        /* \"#utility.yul\":10297:10301   */\n      0x00\n        /* \"#utility.yul\":10290:10295   */\n      dup3\n        /* \"#utility.yul\":10286:10302   */\n      add\n        /* \"#utility.yul\":10280:10303   */\n      mload\n        /* \"#utility.yul\":10316:10379   */\n      tag_808\n        /* \"#utility.yul\":10373:10377   */\n      0x00\n        /* \"#utility.yul\":10368:10371   */\n      dup6\n        /* \"#utility.yul\":10364:10378   */\n      add\n        /* \"#utility.yul\":10350:10362   */\n      dup3\n        /* \"#utility.yul\":10316:10379   */\n      tag_639\n      jump\t// in\n    tag_808:\n        /* \"#utility.yul\":10220:10389   */\n      pop\n        /* \"#utility.yul\":10473:10477   */\n      0x20\n        /* \"#utility.yul\":10466:10471   */\n      dup3\n        /* \"#utility.yul\":10462:10478   */\n      add\n        /* \"#utility.yul\":10456:10479   */\n      mload\n        /* \"#utility.yul\":10492:10555   */\n      tag_809\n        /* \"#utility.yul\":10549:10553   */\n      0x20\n        /* \"#utility.yul\":10544:10547   */\n      dup6\n        /* \"#utility.yul\":10540:10554   */\n      add\n        /* \"#utility.yul\":10526:10538   */\n      dup3\n        /* \"#utility.yul\":10492:10555   */\n      tag_639\n      jump\t// in\n    tag_809:\n        /* \"#utility.yul\":10399:10565   */\n      pop\n        /* \"#utility.yul\":10646:10650   */\n      0x40\n        /* \"#utility.yul\":10639:10644   */\n      dup3\n        /* \"#utility.yul\":10635:10651   */\n      add\n        /* \"#utility.yul\":10629:10652   */\n      mload\n        /* \"#utility.yul\":10665:10728   */\n      tag_810\n        /* \"#utility.yul\":10722:10726   */\n      0x40\n        /* \"#utility.yul\":10717:10720   */\n      dup6\n        /* \"#utility.yul\":10713:10727   */\n      add\n        /* \"#utility.yul\":10699:10711   */\n      dup3\n        /* \"#utility.yul\":10665:10728   */\n      tag_639\n      jump\t// in\n    tag_810:\n        /* \"#utility.yul\":10575:10738   */\n      pop\n        /* \"#utility.yul\":10827:10831   */\n      0x60\n        /* \"#utility.yul\":10820:10825   */\n      dup3\n        /* \"#utility.yul\":10816:10832   */\n      add\n        /* \"#utility.yul\":10810:10833   */\n      mload\n        /* \"#utility.yul\":10846:10909   */\n      tag_811\n        /* \"#utility.yul\":10903:10907   */\n      0x60\n        /* \"#utility.yul\":10898:10901   */\n      dup6\n        /* \"#utility.yul\":10894:10908   */\n      add\n        /* \"#utility.yul\":10880:10892   */\n      dup3\n        /* \"#utility.yul\":10846:10909   */\n      tag_639\n      jump\t// in\n    tag_811:\n        /* \"#utility.yul\":10748:10919   */\n      pop\n        /* \"#utility.yul\":11008:11012   */\n      0x80\n        /* \"#utility.yul\":11001:11006   */\n      dup3\n        /* \"#utility.yul\":10997:11013   */\n      add\n        /* \"#utility.yul\":10991:11014   */\n      mload\n        /* \"#utility.yul\":11027:11090   */\n      tag_812\n        /* \"#utility.yul\":11084:11088   */\n      0x80\n        /* \"#utility.yul\":11079:11082   */\n      dup6\n        /* \"#utility.yul\":11075:11089   */\n      add\n        /* \"#utility.yul\":11061:11073   */\n      dup3\n        /* \"#utility.yul\":11027:11090   */\n      tag_639\n      jump\t// in\n    tag_812:\n        /* \"#utility.yul\":10929:11100   */\n      pop\n        /* \"#utility.yul\":11183:11187   */\n      0xa0\n        /* \"#utility.yul\":11176:11181   */\n      dup3\n        /* \"#utility.yul\":11172:11188   */\n      add\n        /* \"#utility.yul\":11166:11189   */\n      mload\n        /* \"#utility.yul\":11202:11259   */\n      tag_813\n        /* \"#utility.yul\":11253:11257   */\n      0xa0\n        /* \"#utility.yul\":11248:11251   */\n      dup6\n        /* \"#utility.yul\":11244:11258   */\n      add\n        /* \"#utility.yul\":11230:11242   */\n      dup3\n        /* \"#utility.yul\":11202:11259   */\n      tag_640\n      jump\t// in\n    tag_813:\n        /* \"#utility.yul\":11110:11269   */\n      pop\n        /* \"#utility.yul\":11358:11362   */\n      0xc0\n        /* \"#utility.yul\":11351:11356   */\n      dup3\n        /* \"#utility.yul\":11347:11363   */\n      add\n        /* \"#utility.yul\":11341:11364   */\n      mload\n        /* \"#utility.yul\":11377:11440   */\n      tag_814\n        /* \"#utility.yul\":11434:11438   */\n      0xc0\n        /* \"#utility.yul\":11429:11432   */\n      dup6\n        /* \"#utility.yul\":11425:11439   */\n      add\n        /* \"#utility.yul\":11411:11423   */\n      dup3\n        /* \"#utility.yul\":11377:11440   */\n      tag_639\n      jump\t// in\n    tag_814:\n        /* \"#utility.yul\":11279:11450   */\n      pop\n        /* \"#utility.yul\":10174:11457   */\n      pop\n        /* \"#utility.yul\":10078:11457   */\n      pop\n      pop\n      jump\t// out\n        /* \"#utility.yul\":11463:11722   */\n    tag_642:\n        /* \"#utility.yul\":11572:11582   */\n      0x00\n        /* \"#utility.yul\":11593:11679   */\n      tag_816\n        /* \"#utility.yul\":11675:11678   */\n      dup4\n        /* \"#utility.yul\":11667:11673   */\n      dup4\n        /* \"#utility.yul\":11593:11679   */\n      tag_641\n      jump\t// in\n    tag_816:\n        /* \"#utility.yul\":11711:11715   */\n      0xe0\n        /* \"#utility.yul\":11706:11709   */\n      dup4\n        /* \"#utility.yul\":11702:11716   */\n      add\n        /* \"#utility.yul\":11688:11716   */\n      swap1\n      pop\n        /* \"#utility.yul\":11463:11722   */\n      swap3\n      swap2\n      pop\n      pop\n      jump\t// out\n        /* \"#utility.yul\":11728:11861   */\n    tag_643:\n        /* \"#utility.yul\":11818:11822   */\n      0x00\n        /* \"#utility.yul\":11850:11854   */\n      0x20\n        /* \"#utility.yul\":11845:11848   */\n      dup3\n        /* \"#utility.yul\":11841:11855   */\n      add\n        /* \"#utility.yul\":11833:11855   */\n      swap1\n      pop\n        /* \"#utility.yul\":11728:11861   */\n      swap2\n      swap1\n      pop\n      jump\t// out\n        /* \"#utility.yul\":11941:12833   */\n    tag_644:\n        /* \"#utility.yul\":12100:12103   */\n      0x00\n        /* \"#utility.yul\":12129:12203   */\n      tag_819\n        /* \"#utility.yul\":12197:12202   */\n      dup3\n        /* \"#utility.yul\":12129:12203   */\n      tag_636\n      jump\t// in\n    tag_819:\n        /* \"#utility.yul\":12219:12325   */\n      tag_820\n        /* \"#utility.yul\":12318:12324   */\n      dup2\n        /* \"#utility.yul\":12313:12316   */\n      dup6\n        /* \"#utility.yul\":12219:12325   */\n      tag_637\n      jump\t// in\n    tag_820:\n        /* \"#utility.yul\":12212:12325   */\n      swap4\n      pop\n        /* \"#utility.yul\":12349:12425   */\n      tag_821\n        /* \"#utility.yul\":12419:12424   */\n      dup4\n        /* \"#utility.yul\":12349:12425   */\n      tag_638\n      jump\t// in\n    tag_821:\n        /* \"#utility.yul\":12448:12455   */\n      dup1\n        /* \"#utility.yul\":12479:12480   */\n      0x00\n        /* \"#utility.yul\":12464:12808   */\n    tag_822:\n        /* \"#utility.yul\":12489:12495   */\n      dup4\n        /* \"#utility.yul\":12486:12487   */\n      dup2\n        /* \"#utility.yul\":12483:12496   */\n      lt\n        /* \"#utility.yul\":12464:12808   */\n      iszero\n      tag_824\n      jumpi\n        /* \"#utility.yul\":12565:12571   */\n      dup2\n        /* \"#utility.yul\":12559:12572   */\n      mload\n        /* \"#utility.yul\":12592:12695   */\n      tag_825\n        /* \"#utility.yul\":12691:12694   */\n      dup9\n        /* \"#utility.yul\":12676:12689   */\n      dup3\n        /* \"#utility.yul\":12592:12695   */\n      tag_642\n      jump\t// in\n    tag_825:\n        /* \"#utility.yul\":12585:12695   */\n      swap8\n      pop\n        /* \"#utility.yul\":12718:12798   */\n      tag_826\n        /* \"#utility.yul\":12791:12797   */\n      dup4\n        /* \"#utility.yul\":12718:12798   */\n      tag_643\n      jump\t// in\n    tag_826:\n        /* \"#utility.yul\":12708:12798   */\n      swap3\n      pop\n        /* \"#utility.yul\":12524:12808   */\n      pop\n        /* \"#utility.yul\":12511:12512   */\n      0x01\n        /* \"#utility.yul\":12508:12509   */\n      dup2\n        /* \"#utility.yul\":12504:12513   */\n      add\n        /* \"#utility.yul\":12499:12513   */\n      swap1\n      pop\n        /* \"#utility.yul\":12464:12808   */\n      jump(tag_822)\n    tag_824:\n        /* \"#utility.yul\":12468:12482   */\n      pop\n        /* \"#utility.yul\":12824:12827   */\n      dup6\n        /* \"#utility.yul\":12817:12827   */\n      swap4\n      pop\n        /* \"#utility.yul\":12105:12833   */\n      pop\n      pop\n      pop\n        /* \"#utility.yul\":11941:12833   */\n      swap3\n      swap2\n      pop\n      pop\n      jump\t// out\n        /* \"#utility.yul\":12839:13292   */\n    tag_253:\n        /* \"#utility.yul\":13022:13026   */\n      0x00\n        /* \"#utility.yul\":13060:13062   */\n      0x20\n        /* \"#utility.yul\":13049:13058   */\n      dup3\n        /* \"#utility.yul\":13045:13063   */\n      add\n        /* \"#utility.yul\":13037:13063   */\n      swap1\n      pop\n        /* \"#utility.yul\":13109:13118   */\n      dup2\n        /* \"#utility.yul\":13103:13107   */\n      dup2\n        /* \"#utility.yul\":13099:13119   */\n      sub\n        /* \"#utility.yul\":13095:13096   */\n      0x00\n        /* \"#utility.yul\":13084:13093   */\n      dup4\n        /* \"#utility.yul\":13080:13097   */\n      add\n        /* \"#utility.yul\":13073:13120   */\n      mstore\n        /* \"#utility.yul\":13137:13285   */\n      tag_828\n        /* \"#utility.yul\":13280:13284   */\n      dup2\n        /* \"#utility.yul\":13271:13277   */\n      dup5\n        /* \"#utility.yul\":13137:13285   */\n      tag_644\n      jump\t// in\n    tag_828:\n        /* \"#utility.yul\":13129:13285   */\n      swap1\n      pop\n        /* \"#utility.yul\":12839:13292   */\n      swap3\n      swap2\n      pop\n      pop\n      jump\t// out\n        /* \"#utility.yul\":13298:13399   */\n    tag_645:\n        /* \"#utility.yul\":13334:13341   */\n      0x00\n        /* \"#utility.yul\":13374:13392   */\n      0xffffffffffffffff\n        /* \"#utility.yul\":13367:13372   */\n      dup3\n        /* \"#utility.yul\":13363:13393   */\n      and\n        /* \"#utility.yul\":13352:13393   */\n      swap1\n      pop\n        /* \"#utility.yul\":13298:13399   */\n      swap2\n      swap1\n      pop\n      jump\t// out\n        /* \"#utility.yul\":13405:13525   */\n    tag_646:\n        /* \"#utility.yul\":13477:13500   */\n      tag_831\n        /* \"#utility.yul\":13494:13499   */\n      dup2\n        /* \"#utility.yul\":13477:13500   */\n      tag_645\n      jump\t// in\n    tag_831:\n        /* \"#utility.yul\":13470:13475   */\n      dup2\n        /* \"#utility.yul\":13467:13501   */\n      eq\n        /* \"#utility.yul\":13457:13519   */\n      tag_832\n      jumpi\n        /* \"#utility.yul\":13515:13516   */\n      0x00\n        /* \"#utility.yul\":13512:13513   */\n      dup1\n        /* \"#utility.yul\":13505:13517   */\n      revert\n        /* \"#utility.yul\":13457:13519   */\n    tag_832:\n        /* \"#utility.yul\":13405:13525   */\n      pop\n      jump\t// out\n        /* \"#utility.yul\":13531:13668   */\n    tag_647:\n        /* \"#utility.yul\":13576:13581   */\n      0x00\n        /* \"#utility.yul\":13614:13620   */\n      dup2\n        /* \"#utility.yul\":13601:13621   */\n      calldataload\n        /* \"#utility.yul\":13592:13621   */\n      swap1\n      pop\n        /* \"#utility.yul\":13630:13662   */\n      tag_834\n        /* \"#utility.yul\":13656:13661   */\n      dup2\n        /* \"#utility.yul\":13630:13662   */\n      tag_646\n      jump\t// in\n    tag_834:\n        /* \"#utility.yul\":13531:13668   */\n      swap3\n      swap2\n      pop\n      pop\n      jump\t// out\n        /* \"#utility.yul\":13674:14001   */\n    tag_308:\n        /* \"#utility.yul\":13732:13738   */\n      0x00\n        /* \"#utility.yul\":13781:13783   */\n      0x20\n        /* \"#utility.yul\":13769:13778   */\n      dup3\n        /* \"#utility.yul\":13760:13767   */\n      dup5\n        /* \"#utility.yul\":13756:13779   */\n      sub\n        /* \"#utility.yul\":13752:13784   */\n      slt\n        /* \"#utility.yul\":13749:13868   */\n      iszero\n      tag_836\n      jumpi\n        /* \"#utility.yul\":13787:13866   */\n      tag_837\n      tag_608\n      jump\t// in\n    tag_837:\n        /* \"#utility.yul\":13749:13868   */\n    tag_836:\n        /* \"#utility.yul\":13907:13908   */\n      0x00\n        /* \"#utility.yul\":13932:13984   */\n      tag_838\n        /* \"#utility.yul\":13976:13983   */\n      dup5\n        /* \"#utility.yul\":13967:13973   */\n      dup3\n        /* \"#utility.yul\":13956:13965   */\n      dup6\n        /* \"#utility.yul\":13952:13974   */\n      add\n        /* \"#utility.yul\":13932:13984   */\n      tag_647\n      jump\t// in\n    tag_838:\n        /* \"#utility.yul\":13922:13984   */\n      swap2\n      pop\n        /* \"#utility.yul\":13878:13994   */\n      pop\n        /* \"#utility.yul\":13674:14001   */\n      swap3\n      swap2\n      pop\n      pop\n      jump\t// out\n        /* \"#utility.yul\":14007:14187   */\n    tag_648:\n        /* \"#utility.yul\":14055:14132   */\n      0x4e487b7100000000000000000000000000000000000000000000000000000000\n        /* \"#utility.yul\":14052:14053   */\n      0x00\n        /* \"#utility.yul\":14045:14133   */\n      mstore\n        /* \"#utility.yul\":14152:14156   */\n      0x11\n        /* \"#utility.yul\":14149:14150   */\n      0x04\n        /* \"#utility.yul\":14142:14157   */\n      mstore\n        /* \"#utility.yul\":14176:14180   */\n      0x24\n        /* \"#utility.yul\":14173:14174   */\n      0x00\n        /* \"#utility.yul\":14166:14181   */\n      revert\n        /* \"#utility.yul\":14193:14384   */\n    tag_326:\n        /* \"#utility.yul\":14233:14236   */\n      0x00\n        /* \"#utility.yul\":14252:14272   */\n      tag_841\n        /* \"#utility.yul\":14270:14271   */\n      dup3\n        /* \"#utility.yul\":14252:14272   */\n      tag_614\n      jump\t// in\n    tag_841:\n        /* \"#utility.yul\":14247:14272   */\n      swap2\n      pop\n        /* \"#utility.yul\":14286:14306   */\n      tag_842\n        /* \"#utility.yul\":14304:14305   */\n      dup4\n        /* \"#utility.yul\":14286:14306   */\n      tag_614\n      jump\t// in\n    tag_842:\n        /* \"#utility.yul\":14281:14306   */\n      swap3\n      pop\n        /* \"#utility.yul\":14329:14330   */\n      dup3\n        /* \"#utility.yul\":14326:14327   */\n      dup3\n        /* \"#utility.yul\":14322:14331   */\n      add\n        /* \"#utility.yul\":14315:14331   */\n      swap1\n      pop\n        /* \"#utility.yul\":14350:14353   */\n      dup1\n        /* \"#utility.yul\":14347:14348   */\n      dup3\n        /* \"#utility.yul\":14344:14354   */\n      gt\n        /* \"#utility.yul\":14341:14377   */\n      iszero\n      tag_843\n      jumpi\n        /* \"#utility.yul\":14357:14375   */\n      tag_844\n      tag_648\n      jump\t// in\n    tag_844:\n        /* \"#utility.yul\":14341:14377   */\n    tag_843:\n        /* \"#utility.yul\":14193:14384   */\n      swap3\n      swap2\n      pop\n      pop\n      jump\t// out\n        /* \"#utility.yul\":14390:14537   */\n    tag_649:\n        /* \"#utility.yul\":14491:14502   */\n      0x00\n        /* \"#utility.yul\":14528:14531   */\n      dup2\n        /* \"#utility.yul\":14513:14531   */\n      swap1\n      pop\n        /* \"#utility.yul\":14390:14537   */\n      swap3\n      swap2\n      pop\n      pop\n      jump\t// out\n        /* \"#utility.yul\":14543:14657   */\n    tag_650:\n      pop\n      jump\t// out\n        /* \"#utility.yul\":14663:15061   */\n    tag_651:\n        /* \"#utility.yul\":14822:14825   */\n      0x00\n        /* \"#utility.yul\":14843:14926   */\n      tag_848\n        /* \"#utility.yul\":14924:14925   */\n      0x00\n        /* \"#utility.yul\":14919:14922   */\n      dup4\n        /* \"#utility.yul\":14843:14926   */\n      tag_649\n      jump\t// in\n    tag_848:\n        /* \"#utility.yul\":14836:14926   */\n      swap2\n      pop\n        /* \"#utility.yul\":14935:15028   */\n      tag_849\n        /* \"#utility.yul\":15024:15027   */\n      dup3\n        /* \"#utility.yul\":14935:15028   */\n      tag_650\n      jump\t// in\n    tag_849:\n        /* \"#utility.yul\":15053:15054   */\n      0x00\n        /* \"#utility.yul\":15048:15051   */\n      dup3\n        /* \"#utility.yul\":15044:15055   */\n      add\n        /* \"#utility.yul\":15037:15055   */\n      swap1\n      pop\n        /* \"#utility.yul\":14663:15061   */\n      swap2\n      swap1\n      pop\n      jump\t// out\n        /* \"#utility.yul\":15067:15446   */\n    tag_340:\n        /* \"#utility.yul\":15251:15254   */\n      0x00\n        /* \"#utility.yul\":15273:15420   */\n      tag_851\n        /* \"#utility.yul\":15416:15419   */\n      dup3\n        /* \"#utility.yul\":15273:15420   */\n      tag_651\n      jump\t// in\n    tag_851:\n        /* \"#utility.yul\":15266:15420   */\n      swap2\n      pop\n        /* \"#utility.yul\":15437:15440   */\n      dup2\n        /* \"#utility.yul\":15430:15440   */\n      swap1\n      pop\n        /* \"#utility.yul\":15067:15446   */\n      swap2\n      swap1\n      pop\n      jump\t// out\n        /* \"#utility.yul\":15452:15621   */\n    tag_652:\n        /* \"#utility.yul\":15536:15547   */\n      0x00\n        /* \"#utility.yul\":15570:15576   */\n      dup3\n        /* \"#utility.yul\":15565:15568   */\n      dup3\n        /* \"#utility.yul\":15558:15577   */\n      mstore\n        /* \"#utility.yul\":15610:15614   */\n      0x20\n        /* \"#utility.yul\":15605:15608   */\n      dup3\n        /* \"#utility.yul\":15601:15615   */\n      add\n        /* \"#utility.yul\":15586:15615   */\n      swap1\n      pop\n        /* \"#utility.yul\":15452:15621   */\n      swap3\n      swap2\n      pop\n      pop\n      jump\t// out\n        /* \"#utility.yul\":15627:15793   */\n    tag_653:\n        /* \"#utility.yul\":15767:15785   */\n      0x5472616e73666572206661696c65642e00000000000000000000000000000000\n        /* \"#utility.yul\":15763:15764   */\n      0x00\n        /* \"#utility.yul\":15755:15761   */\n      dup3\n        /* \"#utility.yul\":15751:15765   */\n      add\n        /* \"#utility.yul\":15744:15786   */\n      mstore\n        /* \"#utility.yul\":15627:15793   */\n      pop\n      jump\t// out\n        /* \"#utility.yul\":15799:16165   */\n    tag_654:\n        /* \"#utility.yul\":15941:15944   */\n      0x00\n        /* \"#utility.yul\":15962:16029   */\n      tag_855\n        /* \"#utility.yul\":16026:16028   */\n      0x10\n        /* \"#utility.yul\":16021:16024   */\n      dup4\n        /* \"#utility.yul\":15962:16029   */\n      tag_652\n      jump\t// in\n    tag_855:\n        /* \"#utility.yul\":15955:16029   */\n      swap2\n      pop\n        /* \"#utility.yul\":16038:16131   */\n      tag_856\n        /* \"#utility.yul\":16127:16130   */\n      dup3\n        /* \"#utility.yul\":16038:16131   */\n      tag_653\n      jump\t// in\n    tag_856:\n        /* \"#utility.yul\":16156:16158   */\n      0x20\n        /* \"#utility.yul\":16151:16154   */\n      dup3\n        /* \"#utility.yul\":16147:16159   */\n      add\n        /* \"#utility.yul\":16140:16159   */\n      swap1\n      pop\n        /* \"#utility.yul\":15799:16165   */\n      swap2\n      swap1\n      pop\n      jump\t// out\n        /* \"#utility.yul\":16171:16590   */\n    tag_346:\n        /* \"#utility.yul\":16337:16341   */\n      0x00\n        /* \"#utility.yul\":16375:16377   */\n      0x20\n        /* \"#utility.yul\":16364:16373   */\n      dup3\n        /* \"#utility.yul\":16360:16378   */\n      add\n        /* \"#utility.yul\":16352:16378   */\n      swap1\n      pop\n        /* \"#utility.yul\":16424:16433   */\n      dup2\n        /* \"#utility.yul\":16418:16422   */\n      dup2\n        /* \"#utility.yul\":16414:16434   */\n      sub\n        /* \"#utility.yul\":16410:16411   */\n      0x00\n        /* \"#utility.yul\":16399:16408   */\n      dup4\n        /* \"#utility.yul\":16395:16412   */\n      add\n        /* \"#utility.yul\":16388:16435   */\n      mstore\n        /* \"#utility.yul\":16452:16583   */\n      tag_858\n        /* \"#utility.yul\":16578:16582   */\n      dup2\n        /* \"#utility.yul\":16452:16583   */\n      tag_654\n      jump\t// in\n    tag_858:\n        /* \"#utility.yul\":16444:16583   */\n      swap1\n      pop\n        /* \"#utility.yul\":16171:16590   */\n      swap2\n      swap1\n      pop\n      jump\t// out\n        /* \"#utility.yul\":16596:16928   */\n    tag_350:\n        /* \"#utility.yul\":16717:16721   */\n      0x00\n        /* \"#utility.yul\":16755:16757   */\n      0x40\n        /* \"#utility.yul\":16744:16753   */\n      dup3\n        /* \"#utility.yul\":16740:16758   */\n      add\n        /* \"#utility.yul\":16732:16758   */\n      swap1\n      pop\n        /* \"#utility.yul\":16768:16839   */\n      tag_860\n        /* \"#utility.yul\":16836:16837   */\n      0x00\n        /* \"#utility.yul\":16825:16834   */\n      dup4\n        /* \"#utility.yul\":16821:16838   */\n      add\n        /* \"#utility.yul\":16812:16818   */\n      dup6\n        /* \"#utility.yul\":16768:16839   */\n      tag_620\n      jump\t// in\n    tag_860:\n        /* \"#utility.yul\":16849:16921   */\n      tag_861\n        /* \"#utility.yul\":16917:16919   */\n      0x20\n        /* \"#utility.yul\":16906:16915   */\n      dup4\n        /* \"#utility.yul\":16902:16920   */\n      add\n        /* \"#utility.yul\":16893:16899   */\n      dup5\n        /* \"#utility.yul\":16849:16921   */\n      tag_620\n      jump\t// in\n    tag_861:\n        /* \"#utility.yul\":16596:16928   */\n      swap4\n      swap3\n      pop\n      pop\n      pop\n      jump\t// out\n        /* \"#utility.yul\":16934:17077   */\n    tag_655:\n        /* \"#utility.yul\":16991:16996   */\n      0x00\n        /* \"#utility.yul\":17022:17028   */\n      dup2\n        /* \"#utility.yul\":17016:17029   */\n      mload\n        /* \"#utility.yul\":17007:17029   */\n      swap1\n      pop\n        /* \"#utility.yul\":17038:17071   */\n      tag_863\n        /* \"#utility.yul\":17065:17070   */\n      dup2\n        /* \"#utility.yul\":17038:17071   */\n      tag_618\n      jump\t// in\n    tag_863:\n        /* \"#utility.yul\":16934:17077   */\n      swap3\n      swap2\n      pop\n      pop\n      jump\t// out\n        /* \"#utility.yul\":17083:17434   */\n    tag_367:\n        /* \"#utility.yul\":17153:17159   */\n      0x00\n        /* \"#utility.yul\":17202:17204   */\n      0x20\n        /* \"#utility.yul\":17190:17199   */\n      dup3\n        /* \"#utility.yul\":17181:17188   */\n      dup5\n        /* \"#utility.yul\":17177:17200   */\n      sub\n        /* \"#utility.yul\":17173:17205   */\n      slt\n        /* \"#utility.yul\":17170:17289   */\n      iszero\n      tag_865\n      jumpi\n        /* \"#utility.yul\":17208:17287   */\n      tag_866\n      tag_608\n      jump\t// in\n    tag_866:\n        /* \"#utility.yul\":17170:17289   */\n    tag_865:\n        /* \"#utility.yul\":17328:17329   */\n      0x00\n        /* \"#utility.yul\":17353:17417   */\n      tag_867\n        /* \"#utility.yul\":17409:17416   */\n      dup5\n        /* \"#utility.yul\":17400:17406   */\n      dup3\n        /* \"#utility.yul\":17389:17398   */\n      dup6\n        /* \"#utility.yul\":17385:17407   */\n      add\n        /* \"#utility.yul\":17353:17417   */\n      tag_655\n      jump\t// in\n    tag_867:\n        /* \"#utility.yul\":17343:17417   */\n      swap2\n      pop\n        /* \"#utility.yul\":17299:17427   */\n      pop\n        /* \"#utility.yul\":17083:17434   */\n      swap3\n      swap2\n      pop\n      pop\n      jump\t// out\n        /* \"#utility.yul\":17440:17610   */\n    tag_656:\n        /* \"#utility.yul\":17580:17602   */\n      0x4e6f7420656e6f75676820616c6c6f77616e6365000000000000000000000000\n        /* \"#utility.yul\":17576:17577   */\n      0x00\n        /* \"#utility.yul\":17568:17574   */\n      dup3\n        /* \"#utility.yul\":17564:17578   */\n      add\n        /* \"#utility.yul\":17557:17603   */\n      mstore\n        /* \"#utility.yul\":17440:17610   */\n      pop\n      jump\t// out\n        /* \"#utility.yul\":17616:17982   */\n    tag_657:\n        /* \"#utility.yul\":17758:17761   */\n      0x00\n        /* \"#utility.yul\":17779:17846   */\n      tag_870\n        /* \"#utility.yul\":17843:17845   */\n      0x14\n        /* \"#utility.yul\":17838:17841   */\n      dup4\n        /* \"#utility.yul\":17779:17846   */\n      tag_652\n      jump\t// in\n    tag_870:\n        /* \"#utility.yul\":17772:17846   */\n      swap2\n      pop\n        /* \"#utility.yul\":17855:17948   */\n      tag_871\n        /* \"#utility.yul\":17944:17947   */\n      dup3\n        /* \"#utility.yul\":17855:17948   */\n      tag_656\n      jump\t// in\n    tag_871:\n        /* \"#utility.yul\":17973:17975   */\n      0x20\n        /* \"#utility.yul\":17968:17971   */\n      dup3\n        /* \"#utility.yul\":17964:17976   */\n      add\n        /* \"#utility.yul\":17957:17976   */\n      swap1\n      pop\n        /* \"#utility.yul\":17616:17982   */\n      swap2\n      swap1\n      pop\n      jump\t// out\n        /* \"#utility.yul\":17988:18407   */\n    tag_370:\n        /* \"#utility.yul\":18154:18158   */\n      0x00\n        /* \"#utility.yul\":18192:18194   */\n      0x20\n        /* \"#utility.yul\":18181:18190   */\n      dup3\n        /* \"#utility.yul\":18177:18195   */\n      add\n        /* \"#utility.yul\":18169:18195   */\n      swap1\n      pop\n        /* \"#utility.yul\":18241:18250   */\n      dup2\n        /* \"#utility.yul\":18235:18239   */\n      dup2\n        /* \"#utility.yul\":18231:18251   */\n      sub\n        /* \"#utility.yul\":18227:18228   */\n      0x00\n        /* \"#utility.yul\":18216:18225   */\n      dup4\n        /* \"#utility.yul\":18212:18229   */\n      add\n        /* \"#utility.yul\":18205:18252   */\n      mstore\n        /* \"#utility.yul\":18269:18400   */\n      tag_873\n        /* \"#utility.yul\":18395:18399   */\n      dup2\n        /* \"#utility.yul\":18269:18400   */\n      tag_657\n      jump\t// in\n    tag_873:\n        /* \"#utility.yul\":18261:18400   */\n      swap1\n      pop\n        /* \"#utility.yul\":17988:18407   */\n      swap2\n      swap1\n      pop\n      jump\t// out\n        /* \"#utility.yul\":18413:18588   */\n    tag_658:\n        /* \"#utility.yul\":18553:18580   */\n      0x496e73756666696369656e7420425553442062616c616e636500000000000000\n        /* \"#utility.yul\":18549:18550   */\n      0x00\n        /* \"#utility.yul\":18541:18547   */\n      dup3\n        /* \"#utility.yul\":18537:18551   */\n      add\n        /* \"#utility.yul\":18530:18581   */\n      mstore\n        /* \"#utility.yul\":18413:18588   */\n      pop\n      jump\t// out\n        /* \"#utility.yul\":18594:18960   */\n    tag_659:\n        /* \"#utility.yul\":18736:18739   */\n      0x00\n        /* \"#utility.yul\":18757:18824   */\n      tag_876\n        /* \"#utility.yul\":18821:18823   */\n      0x19\n        /* \"#utility.yul\":18816:18819   */\n      dup4\n        /* \"#utility.yul\":18757:18824   */\n      tag_652\n      jump\t// in\n    tag_876:\n        /* \"#utility.yul\":18750:18824   */\n      swap2\n      pop\n        /* \"#utility.yul\":18833:18926   */\n      tag_877\n        /* \"#utility.yul\":18922:18925   */\n      dup3\n        /* \"#utility.yul\":18833:18926   */\n      tag_658\n      jump\t// in\n    tag_877:\n        /* \"#utility.yul\":18951:18953   */\n      0x20\n        /* \"#utility.yul\":18946:18949   */\n      dup3\n        /* \"#utility.yul\":18942:18954   */\n      add\n        /* \"#utility.yul\":18935:18954   */\n      swap1\n      pop\n        /* \"#utility.yul\":18594:18960   */\n      swap2\n      swap1\n      pop\n      jump\t// out\n        /* \"#utility.yul\":18966:19385   */\n    tag_377:\n        /* \"#utility.yul\":19132:19136   */\n      0x00\n        /* \"#utility.yul\":19170:19172   */\n      0x20\n        /* \"#utility.yul\":19159:19168   */\n      dup3\n        /* \"#utility.yul\":19155:19173   */\n      add\n        /* \"#utility.yul\":19147:19173   */\n      swap1\n      pop\n        /* \"#utility.yul\":19219:19228   */\n      dup2\n        /* \"#utility.yul\":19213:19217   */\n      dup2\n        /* \"#utility.yul\":19209:19229   */\n      sub\n        /* \"#utility.yul\":19205:19206   */\n      0x00\n        /* \"#utility.yul\":19194:19203   */\n      dup4\n        /* \"#utility.yul\":19190:19207   */\n      add\n        /* \"#utility.yul\":19183:19230   */\n      mstore\n        /* \"#utility.yul\":19247:19378   */\n      tag_879\n        /* \"#utility.yul\":19373:19377   */\n      dup2\n        /* \"#utility.yul\":19247:19378   */\n      tag_659\n      jump\t// in\n    tag_879:\n        /* \"#utility.yul\":19239:19378   */\n      swap1\n      pop\n        /* \"#utility.yul\":18966:19385   */\n      swap2\n      swap1\n      pop\n      jump\t// out\n        /* \"#utility.yul\":19391:19833   */\n    tag_379:\n        /* \"#utility.yul\":19540:19544   */\n      0x00\n        /* \"#utility.yul\":19578:19580   */\n      0x60\n        /* \"#utility.yul\":19567:19576   */\n      dup3\n        /* \"#utility.yul\":19563:19581   */\n      add\n        /* \"#utility.yul\":19555:19581   */\n      swap1\n      pop\n        /* \"#utility.yul\":19591:19662   */\n      tag_881\n        /* \"#utility.yul\":19659:19660   */\n      0x00\n        /* \"#utility.yul\":19648:19657   */\n      dup4\n        /* \"#utility.yul\":19644:19661   */\n      add\n        /* \"#utility.yul\":19635:19641   */\n      dup7\n        /* \"#utility.yul\":19591:19662   */\n      tag_620\n      jump\t// in\n    tag_881:\n        /* \"#utility.yul\":19672:19744   */\n      tag_882\n        /* \"#utility.yul\":19740:19742   */\n      0x20\n        /* \"#utility.yul\":19729:19738   */\n      dup4\n        /* \"#utility.yul\":19725:19743   */\n      add\n        /* \"#utility.yul\":19716:19722   */\n      dup6\n        /* \"#utility.yul\":19672:19744   */\n      tag_620\n      jump\t// in\n    tag_882:\n        /* \"#utility.yul\":19754:19826   */\n      tag_883\n        /* \"#utility.yul\":19822:19824   */\n      0x40\n        /* \"#utility.yul\":19811:19820   */\n      dup4\n        /* \"#utility.yul\":19807:19825   */\n      add\n        /* \"#utility.yul\":19798:19804   */\n      dup5\n        /* \"#utility.yul\":19754:19826   */\n      tag_615\n      jump\t// in\n    tag_883:\n        /* \"#utility.yul\":19391:19833   */\n      swap5\n      swap4\n      pop\n      pop\n      pop\n      pop\n      jump\t// out\n        /* \"#utility.yul\":19839:19955   */\n    tag_660:\n        /* \"#utility.yul\":19909:19930   */\n      tag_885\n        /* \"#utility.yul\":19924:19929   */\n      dup2\n        /* \"#utility.yul\":19909:19930   */\n      tag_616\n      jump\t// in\n    tag_885:\n        /* \"#utility.yul\":19902:19907   */\n      dup2\n        /* \"#utility.yul\":19899:19931   */\n      eq\n        /* \"#utility.yul\":19889:19949   */\n      tag_886\n      jumpi\n        /* \"#utility.yul\":19945:19946   */\n      0x00\n        /* \"#utility.yul\":19942:19943   */\n      dup1\n        /* \"#utility.yul\":19935:19947   */\n      revert\n        /* \"#utility.yul\":19889:19949   */\n    tag_886:\n        /* \"#utility.yul\":19839:19955   */\n      pop\n      jump\t// out\n        /* \"#utility.yul\":19961:20098   */\n    tag_661:\n        /* \"#utility.yul\":20015:20020   */\n      0x00\n        /* \"#utility.yul\":20046:20052   */\n      dup2\n        /* \"#utility.yul\":20040:20053   */\n      mload\n        /* \"#utility.yul\":20031:20053   */\n      swap1\n      pop\n        /* \"#utility.yul\":20062:20092   */\n      tag_888\n        /* \"#utility.yul\":20086:20091   */\n      dup2\n        /* \"#utility.yul\":20062:20092   */\n      tag_660\n      jump\t// in\n    tag_888:\n        /* \"#utility.yul\":19961:20098   */\n      swap3\n      swap2\n      pop\n      pop\n      jump\t// out\n        /* \"#utility.yul\":20104:20449   */\n    tag_383:\n        /* \"#utility.yul\":20171:20177   */\n      0x00\n        /* \"#utility.yul\":20220:20222   */\n      0x20\n        /* \"#utility.yul\":20208:20217   */\n      dup3\n        /* \"#utility.yul\":20199:20206   */\n      dup5\n        /* \"#utility.yul\":20195:20218   */\n      sub\n        /* \"#utility.yul\":20191:20223   */\n      slt\n        /* \"#utility.yul\":20188:20307   */\n      iszero\n      tag_890\n      jumpi\n        /* \"#utility.yul\":20226:20305   */\n      tag_891\n      tag_608\n      jump\t// in\n    tag_891:\n        /* \"#utility.yul\":20188:20307   */\n    tag_890:\n        /* \"#utility.yul\":20346:20347   */\n      0x00\n        /* \"#utility.yul\":20371:20432   */\n      tag_892\n        /* \"#utility.yul\":20424:20431   */\n      dup5\n        /* \"#utility.yul\":20415:20421   */\n      dup3\n        /* \"#utility.yul\":20404:20413   */\n      dup6\n        /* \"#utility.yul\":20400:20422   */\n      add\n        /* \"#utility.yul\":20371:20432   */\n      tag_661\n      jump\t// in\n    tag_892:\n        /* \"#utility.yul\":20361:20432   */\n      swap2\n      pop\n        /* \"#utility.yul\":20317:20442   */\n      pop\n        /* \"#utility.yul\":20104:20449   */\n      swap3\n      swap2\n      pop\n      pop\n      jump\t// out\n        /* \"#utility.yul\":20455:20626   */\n    tag_662:\n        /* \"#utility.yul\":20595:20618   */\n      0x42555344205472616e73666572206661696c65642e0000000000000000000000\n        /* \"#utility.yul\":20591:20592   */\n      0x00\n        /* \"#utility.yul\":20583:20589   */\n      dup3\n        /* \"#utility.yul\":20579:20593   */\n      add\n        /* \"#utility.yul\":20572:20619   */\n      mstore\n        /* \"#utility.yul\":20455:20626   */\n      pop\n      jump\t// out\n        /* \"#utility.yul\":20632:20998   */\n    tag_663:\n        /* \"#utility.yul\":20774:20777   */\n      0x00\n        /* \"#utility.yul\":20795:20862   */\n      tag_895\n        /* \"#utility.yul\":20859:20861   */\n      0x15\n        /* \"#utility.yul\":20854:20857   */\n      dup4\n        /* \"#utility.yul\":20795:20862   */\n      tag_652\n      jump\t// in\n    tag_895:\n        /* \"#utility.yul\":20788:20862   */\n      swap2\n      pop\n        /* \"#utility.yul\":20871:20964   */\n      tag_896\n        /* \"#utility.yul\":20960:20963   */\n      dup3\n        /* \"#utility.yul\":20871:20964   */\n      tag_662\n      jump\t// in\n    tag_896:\n        /* \"#utility.yul\":20989:20991   */\n      0x20\n        /* \"#utility.yul\":20984:20987   */\n      dup3\n        /* \"#utility.yul\":20980:20992   */\n      add\n        /* \"#utility.yul\":20973:20992   */\n      swap1\n      pop\n        /* \"#utility.yul\":20632:20998   */\n      swap2\n      swap1\n      pop\n      jump\t// out\n        /* \"#utility.yul\":21004:21423   */\n    tag_386:\n        /* \"#utility.yul\":21170:21174   */\n      0x00\n        /* \"#utility.yul\":21208:21210   */\n      0x20\n        /* \"#utility.yul\":21197:21206   */\n      dup3\n        /* \"#utility.yul\":21193:21211   */\n      add\n        /* \"#utility.yul\":21185:21211   */\n      swap1\n      pop\n        /* \"#utility.yul\":21257:21266   */\n      dup2\n        /* \"#utility.yul\":21251:21255   */\n      dup2\n        /* \"#utility.yul\":21247:21267   */\n      sub\n        /* \"#utility.yul\":21243:21244   */\n      0x00\n        /* \"#utility.yul\":21232:21241   */\n      dup4\n        /* \"#utility.yul\":21228:21245   */\n      add\n        /* \"#utility.yul\":21221:21268   */\n      mstore\n        /* \"#utility.yul\":21285:21416   */\n      tag_898\n        /* \"#utility.yul\":21411:21415   */\n      dup2\n        /* \"#utility.yul\":21285:21416   */\n      tag_663\n      jump\t// in\n    tag_898:\n        /* \"#utility.yul\":21277:21416   */\n      swap1\n      pop\n        /* \"#utility.yul\":21004:21423   */\n      swap2\n      swap1\n      pop\n      jump\t// out\n        /* \"#utility.yul\":21429:21777   */\n    tag_397:\n        /* \"#utility.yul\":21469:21476   */\n      0x00\n        /* \"#utility.yul\":21492:21512   */\n      tag_900\n        /* \"#utility.yul\":21510:21511   */\n      dup3\n        /* \"#utility.yul\":21492:21512   */\n      tag_614\n      jump\t// in\n    tag_900:\n        /* \"#utility.yul\":21487:21512   */\n      swap2\n      pop\n        /* \"#utility.yul\":21526:21546   */\n      tag_901\n        /* \"#utility.yul\":21544:21545   */\n      dup4\n        /* \"#utility.yul\":21526:21546   */\n      tag_614\n      jump\t// in\n    tag_901:\n        /* \"#utility.yul\":21521:21546   */\n      swap3\n      pop\n        /* \"#utility.yul\":21714:21715   */\n      dup2\n        /* \"#utility.yul\":21646:21712   */\n      0xffffffffffffffffffffffffffffffffffffffffffffffffffffffffffffffff\n        /* \"#utility.yul\":21642:21716   */\n      div\n        /* \"#utility.yul\":21639:21640   */\n      dup4\n        /* \"#utility.yul\":21636:21717   */\n      gt\n        /* \"#utility.yul\":21631:21632   */\n      dup3\n        /* \"#utility.yul\":21624:21633   */\n      iszero\n        /* \"#utility.yul\":21617:21634   */\n      iszero\n        /* \"#utility.yul\":21613:21718   */\n      and\n        /* \"#utility.yul\":21610:21741   */\n      iszero\n      tag_902\n      jumpi\n        /* \"#utility.yul\":21721:21739   */\n      tag_903\n      tag_648\n      jump\t// in\n    tag_903:\n        /* \"#utility.yul\":21610:21741   */\n    tag_902:\n        /* \"#utility.yul\":21769:21770   */\n      dup3\n        /* \"#utility.yul\":21766:21767   */\n      dup3\n        /* \"#utility.yul\":21762:21771   */\n      mul\n        /* \"#utility.yul\":21751:21771   */\n      swap1\n      pop\n        /* \"#utility.yul\":21429:21777   */\n      swap3\n      swap2\n      pop\n      pop\n      jump\t// out\n        /* \"#utility.yul\":21783:21963   */\n    tag_664:\n        /* \"#utility.yul\":21831:21908   */\n      0x4e487b7100000000000000000000000000000000000000000000000000000000\n        /* \"#utility.yul\":21828:21829   */\n      0x00\n        /* \"#utility.yul\":21821:21909   */\n      mstore\n        /* \"#utility.yul\":21928:21932   */\n      0x12\n        /* \"#utility.yul\":21925:21926   */\n      0x04\n        /* \"#utility.yul\":21918:21933   */\n      mstore\n        /* \"#utility.yul\":21952:21956   */\n      0x24\n        /* \"#utility.yul\":21949:21950   */\n      0x00\n        /* \"#utility.yul\":21942:21957   */\n      revert\n        /* \"#utility.yul\":21969:22154   */\n    tag_399:\n        /* \"#utility.yul\":22009:22010   */\n      0x00\n        /* \"#utility.yul\":22026:22046   */\n      tag_906\n        /* \"#utility.yul\":22044:22045   */\n      dup3\n        /* \"#utility.yul\":22026:22046   */\n      tag_614\n      jump\t// in\n    tag_906:\n        /* \"#utility.yul\":22021:22046   */\n      swap2\n      pop\n        /* \"#utility.yul\":22060:22080   */\n      tag_907\n        /* \"#utility.yul\":22078:22079   */\n      dup4\n        /* \"#utility.yul\":22060:22080   */\n      tag_614\n      jump\t// in\n    tag_907:\n        /* \"#utility.yul\":22055:22080   */\n      swap3\n      pop\n        /* \"#utility.yul\":22099:22100   */\n      dup3\n        /* \"#utility.yul\":22089:22124   */\n      tag_908\n      jumpi\n        /* \"#utility.yul\":22104:22122   */\n      tag_909\n      tag_664\n      jump\t// in\n    tag_909:\n        /* \"#utility.yul\":22089:22124   */\n    tag_908:\n        /* \"#utility.yul\":22146:22147   */\n      dup3\n        /* \"#utility.yul\":22143:22144   */\n      dup3\n        /* \"#utility.yul\":22139:22148   */\n      div\n        /* \"#utility.yul\":22134:22148   */\n      swap1\n      pop\n        /* \"#utility.yul\":21969:22154   */\n      swap3\n      swap2\n      pop\n      pop\n      jump\t// out\n        /* \"#utility.yul\":22160:22492   */\n    tag_410:\n        /* \"#utility.yul\":22281:22285   */\n      0x00\n        /* \"#utility.yul\":22319:22321   */\n      0x40\n        /* \"#utility.yul\":22308:22317   */\n      dup3\n        /* \"#utility.yul\":22304:22322   */\n      add\n        /* \"#utility.yul\":22296:22322   */\n      swap1\n      pop\n        /* \"#utility.yul\":22332:22403   */\n      tag_911\n        /* \"#utility.yul\":22400:22401   */\n      0x00\n        /* \"#utility.yul\":22389:22398   */\n      dup4\n        /* \"#utility.yul\":22385:22402   */\n      add\n        /* \"#utility.yul\":22376:22382   */\n      dup6\n        /* \"#utility.yul\":22332:22403   */\n      tag_620\n      jump\t// in\n    tag_911:\n        /* \"#utility.yul\":22413:22485   */\n      tag_912\n        /* \"#utility.yul\":22481:22483   */\n      0x20\n        /* \"#utility.yul\":22470:22479   */\n      dup4\n        /* \"#utility.yul\":22466:22484   */\n      add\n        /* \"#utility.yul\":22457:22463   */\n      dup5\n        /* \"#utility.yul\":22413:22485   */\n      tag_615\n      jump\t// in\n    tag_912:\n        /* \"#utility.yul\":22160:22492   */\n      swap4\n      swap3\n      pop\n      pop\n      pop\n      jump\t// out\n        /* \"#utility.yul\":22498:22718   */\n    tag_665:\n        /* \"#utility.yul\":22638:22672   */\n      0x496e73756666696369656e7420636f6e747261637420424e422062616c616e63\n        /* \"#utility.yul\":22634:22635   */\n      0x00\n        /* \"#utility.yul\":22626:22632   */\n      dup3\n        /* \"#utility.yul\":22622:22636   */\n      add\n        /* \"#utility.yul\":22615:22673   */\n      mstore\n        /* \"#utility.yul\":22707:22710   */\n      0x6500000000000000000000000000000000000000000000000000000000000000\n        /* \"#utility.yul\":22702:22704   */\n      0x20\n        /* \"#utility.yul\":22694:22700   */\n      dup3\n        /* \"#utility.yul\":22690:22705   */\n      add\n        /* \"#utility.yul\":22683:22711   */\n      mstore\n        /* \"#utility.yul\":22498:22718   */\n      pop\n      jump\t// out\n        /* \"#utility.yul\":22724:23090   */\n    tag_666:\n        /* \"#utility.yul\":22866:22869   */\n      0x00\n        /* \"#utility.yul\":22887:22954   */\n      tag_915\n        /* \"#utility.yul\":22951:22953   */\n      0x21\n        /* \"#utility.yul\":22946:22949   */\n      dup4\n        /* \"#utility.yul\":22887:22954   */\n      tag_652\n      jump\t// in\n    tag_915:\n        /* \"#utility.yul\":22880:22954   */\n      swap2\n      pop\n        /* \"#utility.yul\":22963:23056   */\n      tag_916\n        /* \"#utility.yul\":23052:23055   */\n      dup3\n        /* \"#utility.yul\":22963:23056   */\n      tag_665\n      jump\t// in\n    tag_916:\n        /* \"#utility.yul\":23081:23083   */\n      0x40\n        /* \"#utility.yul\":23076:23079   */\n      dup3\n        /* \"#utility.yul\":23072:23084   */\n      add\n        /* \"#utility.yul\":23065:23084   */\n      swap1\n      pop\n        /* \"#utility.yul\":22724:23090   */\n      swap2\n      swap1\n      pop\n      jump\t// out\n        /* \"#utility.yul\":23096:23515   */\n    tag_427:\n        /* \"#utility.yul\":23262:23266   */\n      0x00\n        /* \"#utility.yul\":23300:23302   */\n      0x20\n        /* \"#utility.yul\":23289:23298   */\n      dup3\n        /* \"#utility.yul\":23285:23303   */\n      add\n        /* \"#utility.yul\":23277:23303   */\n      swap1\n      pop\n        /* \"#utility.yul\":23349:23358   */\n      dup2\n        /* \"#utility.yul\":23343:23347   */\n      dup2\n        /* \"#utility.yul\":23339:23359   */\n      sub\n        /* \"#utility.yul\":23335:23336   */\n      0x00\n        /* \"#utility.yul\":23324:23333   */\n      dup4\n        /* \"#utility.yul\":23320:23337   */\n      add\n        /* \"#utility.yul\":23313:23360   */\n      mstore\n        /* \"#utility.yul\":23377:23508   */\n      tag_918\n        /* \"#utility.yul\":23503:23507   */\n      dup2\n        /* \"#utility.yul\":23377:23508   */\n      tag_666\n      jump\t// in\n    tag_918:\n        /* \"#utility.yul\":23369:23508   */\n      swap1\n      pop\n        /* \"#utility.yul\":23096:23515   */\n      swap2\n      swap1\n      pop\n      jump\t// out\n        /* \"#utility.yul\":23521:23745   */\n    tag_667:\n        /* \"#utility.yul\":23661:23695   */\n      0x436f6e747261637420646f65736e74206861766520616e792042555344206261\n        /* \"#utility.yul\":23657:23658   */\n      0x00\n        /* \"#utility.yul\":23649:23655   */\n      dup3\n        /* \"#utility.yul\":23645:23659   */\n      add\n        /* \"#utility.yul\":23638:23696   */\n      mstore\n        /* \"#utility.yul\":23730:23737   */\n      0x6c616e6365000000000000000000000000000000000000000000000000000000\n        /* \"#utility.yul\":23725:23727   */\n      0x20\n        /* \"#utility.yul\":23717:23723   */\n      dup3\n        /* \"#utility.yul\":23713:23728   */\n      add\n        /* \"#utility.yul\":23706:23738   */\n      mstore\n        /* \"#utility.yul\":23521:23745   */\n      pop\n      jump\t// out\n        /* \"#utility.yul\":23751:24117   */\n    tag_668:\n        /* \"#utility.yul\":23893:23896   */\n      0x00\n        /* \"#utility.yul\":23914:23981   */\n      tag_921\n        /* \"#utility.yul\":23978:23980   */\n      0x25\n        /* \"#utility.yul\":23973:23976   */\n      dup4\n        /* \"#utility.yul\":23914:23981   */\n      tag_652\n      jump\t// in\n    tag_921:\n        /* \"#utility.yul\":23907:23981   */\n      swap2\n      pop\n        /* \"#utility.yul\":23990:24083   */\n      tag_922\n        /* \"#utility.yul\":24079:24082   */\n      dup3\n        /* \"#utility.yul\":23990:24083   */\n      tag_667\n      jump\t// in\n    tag_922:\n        /* \"#utility.yul\":24108:24110   */\n      0x40\n        /* \"#utility.yul\":24103:24106   */\n      dup3\n        /* \"#utility.yul\":24099:24111   */\n      add\n        /* \"#utility.yul\":24092:24111   */\n      swap1\n      pop\n        /* \"#utility.yul\":23751:24117   */\n      swap2\n      swap1\n      pop\n      jump\t// out\n        /* \"#utility.yul\":24123:24542   */\n    tag_459:\n        /* \"#utility.yul\":24289:24293   */\n      0x00\n        /* \"#utility.yul\":24327:24329   */\n      0x20\n        /* \"#utility.yul\":24316:24325   */\n      dup3\n        /* \"#utility.yul\":24312:24330   */\n      add\n        /* \"#utility.yul\":24304:24330   */\n      swap1\n      pop\n        /* \"#utility.yul\":24376:24385   */\n      dup2\n        /* \"#utility.yul\":24370:24374   */\n      dup2\n        /* \"#utility.yul\":24366:24386   */\n      sub\n        /* \"#utility.yul\":24362:24363   */\n      0x00\n        /* \"#utility.yul\":24351:24360   */\n      dup4\n        /* \"#utility.yul\":24347:24364   */\n      add\n        /* \"#utility.yul\":24340:24387   */\n      mstore\n        /* \"#utility.yul\":24404:24535   */\n      tag_924\n        /* \"#utility.yul\":24530:24534   */\n      dup2\n        /* \"#utility.yul\":24404:24535   */\n      tag_668\n      jump\t// in\n    tag_924:\n        /* \"#utility.yul\":24396:24535   */\n      swap1\n      pop\n        /* \"#utility.yul\":24123:24542   */\n      swap2\n      swap1\n      pop\n      jump\t// out\n        /* \"#utility.yul\":24548:24796   */\n    tag_669:\n        /* \"#utility.yul\":24688:24722   */\n      0x436f6e747261637420646f65736e74206861766520616e7920424e422062616c\n        /* \"#utility.yul\":24684:24685   */\n      0x00\n        /* \"#utility.yul\":24676:24682   */\n      dup3\n        /* \"#utility.yul\":24672:24686   */\n      add\n        /* \"#utility.yul\":24665:24723   */\n      mstore\n        /* \"#utility.yul\":24757:24788   */\n      0x616e636520666f72204c494e4b20746f6b656e73207075726368617365000000\n        /* \"#utility.yul\":24752:24754   */\n      0x20\n        /* \"#utility.yul\":24744:24750   */\n      dup3\n        /* \"#utility.yul\":24740:24755   */\n      add\n        /* \"#utility.yul\":24733:24789   */\n      mstore\n        /* \"#utility.yul\":24548:24796   */\n      pop\n      jump\t// out\n        /* \"#utility.yul\":24802:25168   */\n    tag_670:\n        /* \"#utility.yul\":24944:24947   */\n      0x00\n        /* \"#utility.yul\":24965:25032   */\n      tag_927\n        /* \"#utility.yul\":25029:25031   */\n      0x3d\n        /* \"#utility.yul\":25024:25027   */\n      dup4\n        /* \"#utility.yul\":24965:25032   */\n      tag_652\n      jump\t// in\n    tag_927:\n        /* \"#utility.yul\":24958:25032   */\n      swap2\n      pop\n        /* \"#utility.yul\":25041:25134   */\n      tag_928\n        /* \"#utility.yul\":25130:25133   */\n      dup3\n        /* \"#utility.yul\":25041:25134   */\n      tag_669\n      jump\t// in\n    tag_928:\n        /* \"#utility.yul\":25159:25161   */\n      0x40\n        /* \"#utility.yul\":25154:25157   */\n      dup3\n        /* \"#utility.yul\":25150:25162   */\n      add\n        /* \"#utility.yul\":25143:25162   */\n      swap1\n      pop\n        /* \"#utility.yul\":24802:25168   */\n      swap2\n      swap1\n      pop\n      jump\t// out\n        /* \"#utility.yul\":25174:25593   */\n    tag_462:\n        /* \"#utility.yul\":25340:25344   */\n      0x00\n        /* \"#utility.yul\":25378:25380   */\n      0x20\n        /* \"#utility.yul\":25367:25376   */\n      dup3\n        /* \"#utility.yul\":25363:25381   */\n      add\n        /* \"#utility.yul\":25355:25381   */\n      swap1\n      pop\n        /* \"#utility.yul\":25427:25436   */\n      dup2\n        /* \"#utility.yul\":25421:25425   */\n      dup2\n        /* \"#utility.yul\":25417:25437   */\n      sub\n        /* \"#utility.yul\":25413:25414   */\n      0x00\n        /* \"#utility.yul\":25402:25411   */\n      dup4\n        /* \"#utility.yul\":25398:25415   */\n      add\n        /* \"#utility.yul\":25391:25438   */\n      mstore\n        /* \"#utility.yul\":25455:25586   */\n      tag_930\n        /* \"#utility.yul\":25581:25585   */\n      dup2\n        /* \"#utility.yul\":25455:25586   */\n      tag_670\n      jump\t// in\n    tag_930:\n        /* \"#utility.yul\":25447:25586   */\n      swap1\n      pop\n        /* \"#utility.yul\":25174:25593   */\n      swap2\n      swap1\n      pop\n      jump\t// out\n        /* \"#utility.yul\":25599:25780   */\n    tag_671:\n        /* \"#utility.yul\":25739:25772   */\n      0x5265656e7472616e637947756172643a207265656e7472616e742063616c6c00\n        /* \"#utility.yul\":25735:25736   */\n      0x00\n        /* \"#utility.yul\":25727:25733   */\n      dup3\n        /* \"#utility.yul\":25723:25737   */\n      add\n        /* \"#utility.yul\":25716:25773   */\n      mstore\n        /* \"#utility.yul\":25599:25780   */\n      pop\n      jump\t// out\n        /* \"#utility.yul\":25786:26152   */\n    tag_672:\n        /* \"#utility.yul\":25928:25931   */\n      0x00\n        /* \"#utility.yul\":25949:26016   */\n      tag_933\n        /* \"#utility.yul\":26013:26015   */\n      0x1f\n        /* \"#utility.yul\":26008:26011   */\n      dup4\n        /* \"#utility.yul\":25949:26016   */\n      tag_652\n      jump\t// in\n    tag_933:\n        /* \"#utility.yul\":25942:26016   */\n      swap2\n      pop\n        /* \"#utility.yul\":26025:26118   */\n      tag_934\n        /* \"#utility.yul\":26114:26117   */\n      dup3\n        /* \"#utility.yul\":26025:26118   */\n      tag_671\n      jump\t// in\n    tag_934:\n        /* \"#utility.yul\":26143:26145   */\n      0x20\n        /* \"#utility.yul\":26138:26141   */\n      dup3\n        /* \"#utility.yul\":26134:26146   */\n      add\n        /* \"#utility.yul\":26127:26146   */\n      swap1\n      pop\n        /* \"#utility.yul\":25786:26152   */\n      swap2\n      swap1\n      pop\n      jump\t// out\n        /* \"#utility.yul\":26158:26577   */\n    tag_466:\n        /* \"#utility.yul\":26324:26328   */\n      0x00\n        /* \"#utility.yul\":26362:26364   */\n      0x20\n        /* \"#utility.yul\":26351:26360   */\n      dup3\n        /* \"#utility.yul\":26347:26365   */\n      add\n        /* \"#utility.yul\":26339:26365   */\n      swap1\n      pop\n        /* \"#utility.yul\":26411:26420   */\n      dup2\n        /* \"#utility.yul\":26405:26409   */\n      dup2\n        /* \"#utility.yul\":26401:26421   */\n      sub\n        /* \"#utility.yul\":26397:26398   */\n      0x00\n        /* \"#utility.yul\":26386:26395   */\n      dup4\n        /* \"#utility.yul\":26382:26399   */\n      add\n        /* \"#utility.yul\":26375:26422   */\n      mstore\n        /* \"#utility.yul\":26439:26570   */\n      tag_936\n        /* \"#utility.yul\":26565:26569   */\n      dup2\n        /* \"#utility.yul\":26439:26570   */\n      tag_672\n      jump\t// in\n    tag_936:\n        /* \"#utility.yul\":26431:26570   */\n      swap1\n      pop\n        /* \"#utility.yul\":26158:26577   */\n      swap2\n      swap1\n      pop\n      jump\t// out\n        /* \"#utility.yul\":26583:26804   */\n    tag_673:\n        /* \"#utility.yul\":26723:26757   */\n      0x496e73756666696369656e7420636f6e747261637420425553442062616c616e\n        /* \"#utility.yul\":26719:26720   */\n      0x00\n        /* \"#utility.yul\":26711:26717   */\n      dup3\n        /* \"#utility.yul\":26707:26721   */\n      add\n        /* \"#utility.yul\":26700:26758   */\n      mstore\n        /* \"#utility.yul\":26792:26796   */\n      0x6365000000000000000000000000000000000000000000000000000000000000\n        /* \"#utility.yul\":26787:26789   */\n      0x20\n        /* \"#utility.yul\":26779:26785   */\n      dup3\n        /* \"#utility.yul\":26775:26790   */\n      add\n        /* \"#utility.yul\":26768:26797   */\n      mstore\n        /* \"#utility.yul\":26583:26804   */\n      pop\n      jump\t// out\n        /* \"#utility.yul\":26810:27176   */\n    tag_674:\n        /* \"#utility.yul\":26952:26955   */\n      0x00\n        /* \"#utility.yul\":26973:27040   */\n      tag_939\n        /* \"#utility.yul\":27037:27039   */\n      0x22\n        /* \"#utility.yul\":27032:27035   */\n      dup4\n        /* \"#utility.yul\":26973:27040   */\n      tag_652\n      jump\t// in\n    tag_939:\n        /* \"#utility.yul\":26966:27040   */\n      swap2\n      pop\n        /* \"#utility.yul\":27049:27142   */\n      tag_940\n        /* \"#utility.yul\":27138:27141   */\n      dup3\n        /* \"#utility.yul\":27049:27142   */\n      tag_673\n      jump\t// in\n    tag_940:\n        /* \"#utility.yul\":27167:27169   */\n      0x40\n        /* \"#utility.yul\":27162:27165   */\n      dup3\n        /* \"#utility.yul\":27158:27170   */\n      add\n        /* \"#utility.yul\":27151:27170   */\n      swap1\n      pop\n        /* \"#utility.yul\":26810:27176   */\n      swap2\n      swap1\n      pop\n      jump\t// out\n        /* \"#utility.yul\":27182:27601   */\n    tag_476:\n        /* \"#utility.yul\":27348:27352   */\n      0x00\n        /* \"#utility.yul\":27386:27388   */\n      0x20\n        /* \"#utility.yul\":27375:27384   */\n      dup3\n        /* \"#utility.yul\":27371:27389   */\n      add\n        /* \"#utility.yul\":27363:27389   */\n      swap1\n      pop\n        /* \"#utility.yul\":27435:27444   */\n      dup2\n        /* \"#utility.yul\":27429:27433   */\n      dup2\n        /* \"#utility.yul\":27425:27445   */\n      sub\n        /* \"#utility.yul\":27421:27422   */\n      0x00\n        /* \"#utility.yul\":27410:27419   */\n      dup4\n        /* \"#utility.yul\":27406:27423   */\n      add\n        /* \"#utility.yul\":27399:27446   */\n      mstore\n        /* \"#utility.yul\":27463:27594   */\n      tag_942\n        /* \"#utility.yul\":27589:27593   */\n      dup2\n        /* \"#utility.yul\":27463:27594   */\n      tag_674\n      jump\t// in\n    tag_942:\n        /* \"#utility.yul\":27455:27594   */\n      swap1\n      pop\n        /* \"#utility.yul\":27182:27601   */\n      swap2\n      swap1\n      pop\n      jump\t// out\n        /* \"#utility.yul\":27607:27779   */\n    tag_675:\n        /* \"#utility.yul\":27747:27771   */\n      0x546f6b656e205472616e73666572206661696c65642e00000000000000000000\n        /* \"#utility.yul\":27743:27744   */\n      0x00\n        /* \"#utility.yul\":27735:27741   */\n      dup3\n        /* \"#utility.yul\":27731:27745   */\n      add\n        /* \"#utility.yul\":27724:27772   */\n      mstore\n        /* \"#utility.yul\":27607:27779   */\n      pop\n      jump\t// out\n        /* \"#utility.yul\":27785:28151   */\n    tag_676:\n        /* \"#utility.yul\":27927:27930   */\n      0x00\n        /* \"#utility.yul\":27948:28015   */\n      tag_945\n        /* \"#utility.yul\":28012:28014   */\n      0x16\n        /* \"#utility.yul\":28007:28010   */\n      dup4\n        /* \"#utility.yul\":27948:28015   */\n      tag_652\n      jump\t// in\n    tag_945:\n        /* \"#utility.yul\":27941:28015   */\n      swap2\n      pop\n        /* \"#utility.yul\":28024:28117   */\n      tag_946\n        /* \"#utility.yul\":28113:28116   */\n      dup3\n        /* \"#utility.yul\":28024:28117   */\n      tag_675\n      jump\t// in\n    tag_946:\n        /* \"#utility.yul\":28142:28144   */\n      0x20\n        /* \"#utility.yul\":28137:28140   */\n      dup3\n        /* \"#utility.yul\":28133:28145   */\n      add\n        /* \"#utility.yul\":28126:28145   */\n      swap1\n      pop\n        /* \"#utility.yul\":27785:28151   */\n      swap2\n      swap1\n      pop\n      jump\t// out\n        /* \"#utility.yul\":28157:28576   */\n    tag_483:\n        /* \"#utility.yul\":28323:28327   */\n      0x00\n        /* \"#utility.yul\":28361:28363   */\n      0x20\n        /* \"#utility.yul\":28350:28359   */\n      dup3\n        /* \"#utility.yul\":28346:28364   */\n      add\n        /* \"#utility.yul\":28338:28364   */\n      swap1\n      pop\n        /* \"#utility.yul\":28410:28419   */\n      dup2\n        /* \"#utility.yul\":28404:28408   */\n      dup2\n        /* \"#utility.yul\":28400:28420   */\n      sub\n        /* \"#utility.yul\":28396:28397   */\n      0x00\n        /* \"#utility.yul\":28385:28394   */\n      dup4\n        /* \"#utility.yul\":28381:28398   */\n      add\n        /* \"#utility.yul\":28374:28421   */\n      mstore\n        /* \"#utility.yul\":28438:28569   */\n      tag_948\n        /* \"#utility.yul\":28564:28568   */\n      dup2\n        /* \"#utility.yul\":28438:28569   */\n      tag_676\n      jump\t// in\n    tag_948:\n        /* \"#utility.yul\":28430:28569   */\n      swap1\n      pop\n        /* \"#utility.yul\":28157:28576   */\n      swap2\n      swap1\n      pop\n      jump\t// out\n        /* \"#utility.yul\":28582:28762   */\n    tag_509:\n        /* \"#utility.yul\":28630:28707   */\n      0x4e487b7100000000000000000000000000000000000000000000000000000000\n        /* \"#utility.yul\":28627:28628   */\n      0x00\n        /* \"#utility.yul\":28620:28708   */\n      mstore\n        /* \"#utility.yul\":28727:28731   */\n      0x32\n        /* \"#utility.yul\":28724:28725   */\n      0x04\n        /* \"#utility.yul\":28717:28732   */\n      mstore\n        /* \"#utility.yul\":28751:28755   */\n      0x24\n        /* \"#utility.yul\":28748:28749   */\n      0x00\n        /* \"#utility.yul\":28741:28756   */\n      revert\n        /* \"#utility.yul\":28768:28944   */\n    tag_511:\n        /* \"#utility.yul\":28800:28801   */\n      0x00\n        /* \"#utility.yul\":28817:28837   */\n      tag_951\n        /* \"#utility.yul\":28835:28836   */\n      dup3\n        /* \"#utility.yul\":28817:28837   */\n      tag_614\n      jump\t// in\n    tag_951:\n        /* \"#utility.yul\":28812:28837   */\n      swap2\n      pop\n        /* \"#utility.yul\":28851:28871   */\n      tag_952\n        /* \"#utility.yul\":28869:28870   */\n      dup4\n        /* \"#utility.yul\":28851:28871   */\n      tag_614\n      jump\t// in\n    tag_952:\n        /* \"#utility.yul\":28846:28871   */\n      swap3\n      pop\n        /* \"#utility.yul\":28890:28891   */\n      dup3\n        /* \"#utility.yul\":28880:28915   */\n      tag_953\n      jumpi\n        /* \"#utility.yul\":28895:28913   */\n      tag_954\n      tag_664\n      jump\t// in\n    tag_954:\n        /* \"#utility.yul\":28880:28915   */\n    tag_953:\n        /* \"#utility.yul\":28936:28937   */\n      dup3\n        /* \"#utility.yul\":28933:28934   */\n      dup3\n        /* \"#utility.yul\":28929:28938   */\n      mod\n        /* \"#utility.yul\":28924:28938   */\n      swap1\n      pop\n        /* \"#utility.yul\":28768:28944   */\n      swap3\n      swap2\n      pop\n      pop\n      jump\t// out\n        /* \"#utility.yul\":28950:29183   */\n    tag_523:\n        /* \"#utility.yul\":28989:28992   */\n      0x00\n        /* \"#utility.yul\":29012:29036   */\n      tag_956\n        /* \"#utility.yul\":29030:29035   */\n      dup3\n        /* \"#utility.yul\":29012:29036   */\n      tag_614\n      jump\t// in\n    tag_956:\n        /* \"#utility.yul\":29003:29036   */\n      swap2\n      pop\n        /* \"#utility.yul\":29058:29124   */\n      0xffffffffffffffffffffffffffffffffffffffffffffffffffffffffffffffff\n        /* \"#utility.yul\":29051:29056   */\n      dup3\n        /* \"#utility.yul\":29048:29125   */\n      sub\n        /* \"#utility.yul\":29045:29148   */\n      tag_957\n      jumpi\n        /* \"#utility.yul\":29128:29146   */\n      tag_958\n      tag_648\n      jump\t// in\n    tag_958:\n        /* \"#utility.yul\":29045:29148   */\n    tag_957:\n        /* \"#utility.yul\":29175:29176   */\n      0x01\n        /* \"#utility.yul\":29168:29173   */\n      dup3\n        /* \"#utility.yul\":29164:29177   */\n      add\n        /* \"#utility.yul\":29157:29177   */\n      swap1\n      pop\n        /* \"#utility.yul\":28950:29183   */\n      swap2\n      swap1\n      pop\n      jump\t// out\n        /* \"#utility.yul\":29189:29423   */\n    tag_677:\n        /* \"#utility.yul\":29329:29363   */\n      0x496e73756666696369656e7420436861696e6c696e6b20565246207375627363\n        /* \"#utility.yul\":29325:29326   */\n      0x00\n        /* \"#utility.yul\":29317:29323   */\n      dup3\n        /* \"#utility.yul\":29313:29327   */\n      add\n        /* \"#utility.yul\":29306:29364   */\n      mstore\n        /* \"#utility.yul\":29398:29415   */\n      0x72697074696f6e2062616c616e63650000000000000000000000000000000000\n        /* \"#utility.yul\":29393:29395   */\n      0x20\n        /* \"#utility.yul\":29385:29391   */\n      dup3\n        /* \"#utility.yul\":29381:29396   */\n      add\n        /* \"#utility.yul\":29374:29416   */\n      mstore\n        /* \"#utility.yul\":29189:29423   */\n      pop\n      jump\t// out\n        /* \"#utility.yul\":29429:29795   */\n    tag_678:\n        /* \"#utility.yul\":29571:29574   */\n      0x00\n        /* \"#utility.yul\":29592:29659   */\n      tag_961\n        /* \"#utility.yul\":29656:29658   */\n      0x2f\n        /* \"#utility.yul\":29651:29654   */\n      dup4\n        /* \"#utility.yul\":29592:29659   */\n      tag_652\n      jump\t// in\n    tag_961:\n        /* \"#utility.yul\":29585:29659   */\n      swap2\n      pop\n        /* \"#utility.yul\":29668:29761   */\n      tag_962\n        /* \"#utility.yul\":29757:29760   */\n      dup3\n        /* \"#utility.yul\":29668:29761   */\n      tag_677\n      jump\t// in\n    tag_962:\n        /* \"#utility.yul\":29786:29788   */\n      0x40\n        /* \"#utility.yul\":29781:29784   */\n      dup3\n        /* \"#utility.yul\":29777:29789   */\n      add\n        /* \"#utility.yul\":29770:29789   */\n      swap1\n      pop\n        /* \"#utility.yul\":29429:29795   */\n      swap2\n      swap1\n      pop\n      jump\t// out\n        /* \"#utility.yul\":29801:30220   */\n    tag_546:\n        /* \"#utility.yul\":29967:29971   */\n      0x00\n        /* \"#utility.yul\":30005:30007   */\n      0x20\n        /* \"#utility.yul\":29994:30003   */\n      dup3\n        /* \"#utility.yul\":29990:30008   */\n      add\n        /* \"#utility.yul\":29982:30008   */\n      swap1\n      pop\n        /* \"#utility.yul\":30054:30063   */\n      dup2\n        /* \"#utility.yul\":30048:30052   */\n      dup2\n        /* \"#utility.yul\":30044:30064   */\n      sub\n        /* \"#utility.yul\":30040:30041   */\n      0x00\n        /* \"#utility.yul\":30029:30038   */\n      dup4\n        /* \"#utility.yul\":30025:30042   */\n      add\n        /* \"#utility.yul\":30018:30065   */\n      mstore\n        /* \"#utility.yul\":30082:30213   */\n      tag_964\n        /* \"#utility.yul\":30208:30212   */\n      dup2\n        /* \"#utility.yul\":30082:30213   */\n      tag_678\n      jump\t// in\n    tag_964:\n        /* \"#utility.yul\":30074:30213   */\n      swap1\n      pop\n        /* \"#utility.yul\":29801:30220   */\n      swap2\n      swap1\n      pop\n      jump\t// out\n        /* \"#utility.yul\":30226:30460   */\n    tag_679:\n        /* \"#utility.yul\":30366:30400   */\n      0x596f752063616e206e6f7420626574206d6f7265207468616e206d6178696d75\n        /* \"#utility.yul\":30362:30363   */\n      0x00\n        /* \"#utility.yul\":30354:30360   */\n      dup3\n        /* \"#utility.yul\":30350:30364   */\n      add\n        /* \"#utility.yul\":30343:30401   */\n      mstore\n        /* \"#utility.yul\":30435:30452   */\n      0x6d20616c6c6f776564206c696d69740000000000000000000000000000000000\n        /* \"#utility.yul\":30430:30432   */\n      0x20\n        /* \"#utility.yul\":30422:30428   */\n      dup3\n        /* \"#utility.yul\":30418:30433   */\n      add\n        /* \"#utility.yul\":30411:30453   */\n      mstore\n        /* \"#utility.yul\":30226:30460   */\n      pop\n      jump\t// out\n        /* \"#utility.yul\":30466:30832   */\n    tag_680:\n        /* \"#utility.yul\":30608:30611   */\n      0x00\n        /* \"#utility.yul\":30629:30696   */\n      tag_967\n        /* \"#utility.yul\":30693:30695   */\n      0x2f\n        /* \"#utility.yul\":30688:30691   */\n      dup4\n        /* \"#utility.yul\":30629:30696   */\n      tag_652\n      jump\t// in\n    tag_967:\n        /* \"#utility.yul\":30622:30696   */\n      swap2\n      pop\n        /* \"#utility.yul\":30705:30798   */\n      tag_968\n        /* \"#utility.yul\":30794:30797   */\n      dup3\n        /* \"#utility.yul\":30705:30798   */\n      tag_679\n      jump\t// in\n    tag_968:\n        /* \"#utility.yul\":30823:30825   */\n      0x40\n        /* \"#utility.yul\":30818:30821   */\n      dup3\n        /* \"#utility.yul\":30814:30826   */\n      add\n        /* \"#utility.yul\":30807:30826   */\n      swap1\n      pop\n        /* \"#utility.yul\":30466:30832   */\n      swap2\n      swap1\n      pop\n      jump\t// out\n        /* \"#utility.yul\":30838:31257   */\n    tag_550:\n        /* \"#utility.yul\":31004:31008   */\n      0x00\n        /* \"#utility.yul\":31042:31044   */\n      0x20\n        /* \"#utility.yul\":31031:31040   */\n      dup3\n        /* \"#utility.yul\":31027:31045   */\n      add\n        /* \"#utility.yul\":31019:31045   */\n      swap1\n      pop\n        /* \"#utility.yul\":31091:31100   */\n      dup2\n        /* \"#utility.yul\":31085:31089   */\n      dup2\n        /* \"#utility.yul\":31081:31101   */\n      sub\n        /* \"#utility.yul\":31077:31078   */\n      0x00\n        /* \"#utility.yul\":31066:31075   */\n      dup4\n        /* \"#utility.yul\":31062:31079   */\n      add\n        /* \"#utility.yul\":31055:31102   */\n      mstore\n        /* \"#utility.yul\":31119:31250   */\n      tag_970\n        /* \"#utility.yul\":31245:31249   */\n      dup2\n        /* \"#utility.yul\":31119:31250   */\n      tag_680\n      jump\t// in\n    tag_970:\n        /* \"#utility.yul\":31111:31250   */\n      swap1\n      pop\n        /* \"#utility.yul\":30838:31257   */\n      swap2\n      swap1\n      pop\n      jump\t// out\n        /* \"#utility.yul\":31263:31442   */\n    tag_681:\n        /* \"#utility.yul\":31403:31434   */\n      0x4d696e696d756d2062657420616d6f756e742069732024352042555344000000\n        /* \"#utility.yul\":31399:31400   */\n      0x00\n        /* \"#utility.yul\":31391:31397   */\n      dup3\n        /* \"#utility.yul\":31387:31401   */\n      add\n        /* \"#utility.yul\":31380:31435   */\n      mstore\n        /* \"#utility.yul\":31263:31442   */\n      pop\n      jump\t// out\n        /* \"#utility.yul\":31448:31814   */\n    tag_682:\n        /* \"#utility.yul\":31590:31593   */\n      0x00\n        /* \"#utility.yul\":31611:31678   */\n      tag_973\n        /* \"#utility.yul\":31675:31677   */\n      0x1d\n        /* \"#utility.yul\":31670:31673   */\n      dup4\n        /* \"#utility.yul\":31611:31678   */\n      tag_652\n      jump\t// in\n    tag_973:\n        /* \"#utility.yul\":31604:31678   */\n      swap2\n      pop\n        /* \"#utility.yul\":31687:31780   */\n      tag_974\n        /* \"#utility.yul\":31776:31779   */\n      dup3\n        /* \"#utility.yul\":31687:31780   */\n      tag_681\n      jump\t// in\n    tag_974:\n        /* \"#utility.yul\":31805:31807   */\n      0x20\n        /* \"#utility.yul\":31800:31803   */\n      dup3\n        /* \"#utility.yul\":31796:31808   */\n      add\n        /* \"#utility.yul\":31789:31808   */\n      swap1\n      pop\n        /* \"#utility.yul\":31448:31814   */\n      swap2\n      swap1\n      pop\n      jump\t// out\n        /* \"#utility.yul\":31820:32239   */\n    tag_553:\n        /* \"#utility.yul\":31986:31990   */\n      0x00\n        /* \"#utility.yul\":32024:32026   */\n      0x20\n        /* \"#utility.yul\":32013:32022   */\n      dup3\n        /* \"#utility.yul\":32009:32027   */\n      add\n        /* \"#utility.yul\":32001:32027   */\n      swap1\n      pop\n        /* \"#utility.yul\":32073:32082   */\n      dup2\n        /* \"#utility.yul\":32067:32071   */\n      dup2\n        /* \"#utility.yul\":32063:32083   */\n      sub\n        /* \"#utility.yul\":32059:32060   */\n      0x00\n        /* \"#utility.yul\":32048:32057   */\n      dup4\n        /* \"#utility.yul\":32044:32061   */\n      add\n        /* \"#utility.yul\":32037:32084   */\n      mstore\n        /* \"#utility.yul\":32101:32232   */\n      tag_976\n        /* \"#utility.yul\":32227:32231   */\n      dup2\n        /* \"#utility.yul\":32101:32232   */\n      tag_682\n      jump\t// in\n    tag_976:\n        /* \"#utility.yul\":32093:32232   */\n      swap1\n      pop\n        /* \"#utility.yul\":31820:32239   */\n      swap2\n      swap1\n      pop\n      jump\t// out\n        /* \"#utility.yul\":32245:32363   */\n    tag_683:\n        /* \"#utility.yul\":32332:32356   */\n      tag_978\n        /* \"#utility.yul\":32350:32355   */\n      dup2\n        /* \"#utility.yul\":32332:32356   */\n      tag_630\n      jump\t// in\n    tag_978:\n        /* \"#utility.yul\":32327:32330   */\n      dup3\n        /* \"#utility.yul\":32320:32357   */\n      mstore\n        /* \"#utility.yul\":32245:32363   */\n      pop\n      pop\n      jump\t// out\n        /* \"#utility.yul\":32369:32484   */\n    tag_684:\n        /* \"#utility.yul\":32454:32477   */\n      tag_980\n        /* \"#utility.yul\":32471:32476   */\n      dup2\n        /* \"#utility.yul\":32454:32477   */\n      tag_645\n      jump\t// in\n    tag_980:\n        /* \"#utility.yul\":32449:32452   */\n      dup3\n        /* \"#utility.yul\":32442:32478   */\n      mstore\n        /* \"#utility.yul\":32369:32484   */\n      pop\n      pop\n      jump\t// out\n        /* \"#utility.yul\":32490:32579   */\n    tag_685:\n        /* \"#utility.yul\":32526:32533   */\n      0x00\n        /* \"#utility.yul\":32566:32572   */\n      0xffff\n        /* \"#utility.yul\":32559:32564   */\n      dup3\n        /* \"#utility.yul\":32555:32573   */\n      and\n        /* \"#utility.yul\":32544:32573   */\n      swap1\n      pop\n        /* \"#utility.yul\":32490:32579   */\n      swap2\n      swap1\n      pop\n      jump\t// out\n        /* \"#utility.yul\":32585:32700   */\n    tag_686:\n        /* \"#utility.yul\":32670:32693   */\n      tag_983\n        /* \"#utility.yul\":32687:32692   */\n      dup2\n        /* \"#utility.yul\":32670:32693   */\n      tag_685\n      jump\t// in\n    tag_983:\n        /* \"#utility.yul\":32665:32668   */\n      dup3\n        /* \"#utility.yul\":32658:32694   */\n      mstore\n        /* \"#utility.yul\":32585:32700   */\n      pop\n      pop\n      jump\t// out\n        /* \"#utility.yul\":32706:32821   */\n    tag_687:\n        /* \"#utility.yul\":32791:32814   */\n      tag_985\n        /* \"#utility.yul\":32808:32813   */\n      dup2\n        /* \"#utility.yul\":32791:32814   */\n      tag_633\n      jump\t// in\n    tag_985:\n        /* \"#utility.yul\":32786:32789   */\n      dup3\n        /* \"#utility.yul\":32779:32815   */\n      mstore\n        /* \"#utility.yul\":32706:32821   */\n      pop\n      pop\n      jump\t// out\n        /* \"#utility.yul\":32827:33475   */\n    tag_574:\n        /* \"#utility.yul\":33024:33028   */\n      0x00\n        /* \"#utility.yul\":33062:33065   */\n      0xa0\n        /* \"#utility.yul\":33051:33060   */\n      dup3\n        /* \"#utility.yul\":33047:33066   */\n      add\n        /* \"#utility.yul\":33039:33066   */\n      swap1\n      pop\n        /* \"#utility.yul\":33076:33147   */\n      tag_987\n        /* \"#utility.yul\":33144:33145   */\n      0x00\n        /* \"#utility.yul\":33133:33142   */\n      dup4\n        /* \"#utility.yul\":33129:33146   */\n      add\n        /* \"#utility.yul\":33120:33126   */\n      dup9\n        /* \"#utility.yul\":33076:33147   */\n      tag_683\n      jump\t// in\n    tag_987:\n        /* \"#utility.yul\":33157:33227   */\n      tag_988\n        /* \"#utility.yul\":33223:33225   */\n      0x20\n        /* \"#utility.yul\":33212:33221   */\n      dup4\n        /* \"#utility.yul\":33208:33226   */\n      add\n        /* \"#utility.yul\":33199:33205   */\n      dup8\n        /* \"#utility.yul\":33157:33227   */\n      tag_684\n      jump\t// in\n    tag_988:\n        /* \"#utility.yul\":33237:33307   */\n      tag_989\n        /* \"#utility.yul\":33303:33305   */\n      0x40\n        /* \"#utility.yul\":33292:33301   */\n      dup4\n        /* \"#utility.yul\":33288:33306   */\n      add\n        /* \"#utility.yul\":33279:33285   */\n      dup7\n        /* \"#utility.yul\":33237:33307   */\n      tag_686\n      jump\t// in\n    tag_989:\n        /* \"#utility.yul\":33317:33387   */\n      tag_990\n        /* \"#utility.yul\":33383:33385   */\n      0x60\n        /* \"#utility.yul\":33372:33381   */\n      dup4\n        /* \"#utility.yul\":33368:33386   */\n      add\n        /* \"#utility.yul\":33359:33365   */\n      dup6\n        /* \"#utility.yul\":33317:33387   */\n      tag_687\n      jump\t// in\n    tag_990:\n        /* \"#utility.yul\":33397:33468   */\n      tag_991\n        /* \"#utility.yul\":33463:33466   */\n      0x80\n        /* \"#utility.yul\":33452:33461   */\n      dup4\n        /* \"#utility.yul\":33448:33467   */\n      add\n        /* \"#utility.yul\":33439:33445   */\n      dup5\n        /* \"#utility.yul\":33397:33468   */\n      tag_687\n      jump\t// in\n    tag_991:\n        /* \"#utility.yul\":32827:33475   */\n      swap7\n      swap6\n      pop\n      pop\n      pop\n      pop\n      pop\n      pop\n      jump\t// out\n        /* \"#utility.yul\":33481:33707   */\n    tag_688:\n        /* \"#utility.yul\":33621:33655   */\n      0x42555344205472616e7366657220746f206d696e657220636f6e747261637420\n        /* \"#utility.yul\":33617:33618   */\n      0x00\n        /* \"#utility.yul\":33609:33615   */\n      dup3\n        /* \"#utility.yul\":33605:33619   */\n      add\n        /* \"#utility.yul\":33598:33656   */\n      mstore\n        /* \"#utility.yul\":33690:33699   */\n      0x6661696c65642e00000000000000000000000000000000000000000000000000\n        /* \"#utility.yul\":33685:33687   */\n      0x20\n        /* \"#utility.yul\":33677:33683   */\n      dup3\n        /* \"#utility.yul\":33673:33688   */\n      add\n        /* \"#utility.yul\":33666:33700   */\n      mstore\n        /* \"#utility.yul\":33481:33707   */\n      pop\n      jump\t// out\n        /* \"#utility.yul\":33713:34079   */\n    tag_689:\n        /* \"#utility.yul\":33855:33858   */\n      0x00\n        /* \"#utility.yul\":33876:33943   */\n      tag_994\n        /* \"#utility.yul\":33940:33942   */\n      0x27\n        /* \"#utility.yul\":33935:33938   */\n      dup4\n        /* \"#utility.yul\":33876:33943   */\n      tag_652\n      jump\t// in\n    tag_994:\n        /* \"#utility.yul\":33869:33943   */\n      swap2\n      pop\n        /* \"#utility.yul\":33952:34045   */\n      tag_995\n        /* \"#utility.yul\":34041:34044   */\n      dup3\n        /* \"#utility.yul\":33952:34045   */\n      tag_688\n      jump\t// in\n    tag_995:\n        /* \"#utility.yul\":34070:34072   */\n      0x40\n        /* \"#utility.yul\":34065:34068   */\n      dup3\n        /* \"#utility.yul\":34061:34073   */\n      add\n        /* \"#utility.yul\":34054:34073   */\n      swap1\n      pop\n        /* \"#utility.yul\":33713:34079   */\n      swap2\n      swap1\n      pop\n      jump\t// out\n        /* \"#utility.yul\":34085:34504   */\n    tag_590:\n        /* \"#utility.yul\":34251:34255   */\n      0x00\n        /* \"#utility.yul\":34289:34291   */\n      0x20\n        /* \"#utility.yul\":34278:34287   */\n      dup3\n        /* \"#utility.yul\":34274:34292   */\n      add\n        /* \"#utility.yul\":34266:34292   */\n      swap1\n      pop\n        /* \"#utility.yul\":34338:34347   */\n      dup2\n        /* \"#utility.yul\":34332:34336   */\n      dup2\n        /* \"#utility.yul\":34328:34348   */\n      sub\n        /* \"#utility.yul\":34324:34325   */\n      0x00\n        /* \"#utility.yul\":34313:34322   */\n      dup4\n        /* \"#utility.yul\":34309:34326   */\n      add\n        /* \"#utility.yul\":34302:34349   */\n      mstore\n        /* \"#utility.yul\":34366:34497   */\n      tag_997\n        /* \"#utility.yul\":34492:34496   */\n      dup2\n        /* \"#utility.yul\":34366:34497   */\n      tag_689\n      jump\t// in\n    tag_997:\n        /* \"#utility.yul\":34358:34497   */\n      swap1\n      pop\n        /* \"#utility.yul\":34085:34504   */\n      swap2\n      swap1\n      pop\n      jump\t// out\n        /* \"#utility.yul\":34510:34704   */\n    tag_596:\n        /* \"#utility.yul\":34550:34554   */\n      0x00\n        /* \"#utility.yul\":34570:34590   */\n      tag_999\n        /* \"#utility.yul\":34588:34589   */\n      dup3\n        /* \"#utility.yul\":34570:34590   */\n      tag_614\n      jump\t// in\n    tag_999:\n        /* \"#utility.yul\":34565:34590   */\n      swap2\n      pop\n        /* \"#utility.yul\":34604:34624   */\n      tag_1000\n        /* \"#utility.yul\":34622:34623   */\n      dup4\n        /* \"#utility.yul\":34604:34624   */\n      tag_614\n      jump\t// in\n    tag_1000:\n        /* \"#utility.yul\":34599:34624   */\n      swap3\n      pop\n        /* \"#utility.yul\":34648:34649   */\n      dup3\n        /* \"#utility.yul\":34645:34646   */\n      dup3\n        /* \"#utility.yul\":34641:34650   */\n      sub\n        /* \"#utility.yul\":34633:34650   */\n      swap1\n      pop\n        /* \"#utility.yul\":34672:34673   */\n      dup2\n        /* \"#utility.yul\":34666:34670   */\n      dup2\n        /* \"#utility.yul\":34663:34674   */\n      gt\n        /* \"#utility.yul\":34660:34697   */\n      iszero\n      tag_1001\n      jumpi\n        /* \"#utility.yul\":34677:34695   */\n      tag_1002\n      tag_648\n      jump\t// in\n    tag_1002:\n        /* \"#utility.yul\":34660:34697   */\n    tag_1001:\n        /* \"#utility.yul\":34510:34704   */\n      swap3\n      swap2\n      pop\n      pop\n      jump\t// out\n\n    auxdata: 0xa2646970667358221220e888e2dfe809f9c2ece4862ed558182d5b45eb95e9579587087e46b4f432c74464736f6c63430008100033\n}\n",
				"bytecode": {
					"linkReferences": {},
					"object": "60a060405273c587d9053cd1118f25f645f9e08bb98c9712a4ee600260006101000a81548173ffffffffffffffffffffffffffffffffffffffff021916908373ffffffffffffffffffffffffffffffffffffffff1602179055507f114f3da0a805b6a67d6e9cd2ec746f7028f1b7376365af575cfea3550dd1aa0460001b600355622625a0600460006101000a81548163ffffffff021916908363ffffffff16021790555060036004806101000a81548161ffff021916908361ffff1602179055506002600460066101000a81548163ffffffff021916908363ffffffff16021790555066038d7ea4c68000600d55674563918244f40000600e556000602960146101000a81548160ff0219169083151502179055503480156200012257600080fd5b50600260009054906101000a900473ffffffffffffffffffffffffffffffffffffffff168073ffffffffffffffffffffffffffffffffffffffff1660808173ffffffffffffffffffffffffffffffffffffffff168152505050600160008190555033602960006101000a81548173ffffffffffffffffffffffffffffffffffffffff021916908373ffffffffffffffffffffffffffffffffffffffff160217905550739bf951013034e3f690196df8477450675d140b29602560006101000a81548173ffffffffffffffffffffffffffffffffffffffff021916908373ffffffffffffffffffffffffffffffffffffffff16021790555073ebfdf7a84eb1dd651663782802a818ce36f3e18a602460006101000a81548173ffffffffffffffffffffffffffffffffffffffff021916908373ffffffffffffffffffffffffffffffffffffffff16021790555073e9e7cea3dedca5984780bafc599bd69add087d56602660006101000a81548173ffffffffffffffffffffffffffffffffffffffff021916908373ffffffffffffffffffffffffffffffffffffffff160217905550602660009054906101000a900473ffffffffffffffffffffffffffffffffffffffff16602760006101000a81548173ffffffffffffffffffffffffffffffffffffffff021916908373ffffffffffffffffffffffffffffffffffffffff160217905550600260009054906101000a900473ffffffffffffffffffffffffffffffffffffffff16600160006101000a81548173ffffffffffffffffffffffffffffffffffffffff021916908373ffffffffffffffffffffffffffffffffffffffff16021790555033600760006101000a81548173ffffffffffffffffffffffffffffffffffffffff021916908373ffffffffffffffffffffffffffffffffffffffff160217905550620003fd602560009054906101000a900473ffffffffffffffffffffffffffffffffffffffff166200045260201b60201c565b620004106101b96200055460201b60201c565b62000422600a620005db60201b60201c565b6200043a66038d7ea4c680006200064060201b60201c565b6200044c6014620006a560201b60201c565b6200070a565b600760009054906101000a900473ffffffffffffffffffffffffffffffffffffffff1673ffffffffffffffffffffffffffffffffffffffff163373ffffffffffffffffffffffffffffffffffffffff1614620004ad57600080fd5b80602560006101000a81548173ffffffffffffffffffffffffffffffffffffffff021916908373ffffffffffffffffffffffffffffffffffffffff160217905550602560009054906101000a900473ffffffffffffffffffffffffffffffffffffffff16602860006101000a81548173ffffffffffffffffffffffffffffffffffffffff021916908373ffffffffffffffffffffffffffffffffffffffff16021790555050565b600760009054906101000a900473ffffffffffffffffffffffffffffffffffffffff1673ffffffffffffffffffffffffffffffffffffffff163373ffffffffffffffffffffffffffffffffffffffff1614620005af57600080fd5b80600160146101000a81548167ffffffffffffffff021916908367ffffffffffffffff16021790555050565b600760009054906101000a900473ffffffffffffffffffffffffffffffffffffffff1673ffffffffffffffffffffffffffffffffffffffff163373ffffffffffffffffffffffffffffffffffffffff16146200063657600080fd5b80600f8190555050565b600760009054906101000a900473ffffffffffffffffffffffffffffffffffffffff1673ffffffffffffffffffffffffffffffffffffffff163373ffffffffffffffffffffffffffffffffffffffff16146200069b57600080fd5b80600d8190555050565b600760009054906101000a900473ffffffffffffffffffffffffffffffffffffffff1673ffffffffffffffffffffffffffffffffffffffff163373ffffffffffffffffffffffffffffffffffffffff16146200070057600080fd5b80600c8190555050565b608051614d946200072d6000396000818161116c01526111c00152614d946000f3fe60806040526004361061037a5760003560e01c80636f700224116101d1578063b33712c511610102578063de292789116100a0578063ea7b4f771161006f578063ea7b4f7714610ca3578063f2fde38b14610ccc578063f6eaffc814610cf5578063fa968eea14610d3257610381565b8063de29278914610be5578063e30531a114610c12578063e541e45d14610c4f578063e89e106a14610c7857610381565b8063befa1e2f116100dc578063befa1e2f14610b4a578063c245f6a114610b75578063d042ccf914610b7f578063d5e0f49414610ba857610381565b8063b33712c514610af1578063b401faf114610b08578063b72481f814610b1f57610381565b8063985447101161016f578063a4eb718c11610149578063a4eb718c14610a35578063a6afd5fd14610a5e578063b05f906614610a89578063b2689dea14610ab457610381565b806398544710146109a65780639cc9efe2146109cf5780639f84be6e14610a0c57610381565b806376a90231116101ab57806376a90231146108e25780638068aa681461090d57806386b945b0146109505780638da5cb5b1461097b57610381565b80636f70022414610889578063710c5555146108a0578063715018a6146108cb57610381565b8063439766ce116102ab5780635b4961041161024957806361cbbdee1161022357806361cbbdee146107cd578063626e1ae7146107f657806367ad4ec2146108215780636c6ff95a1461085e57610381565b80635b4961041461073c5780635c975abb146107795780635e457cf8146107a457610381565b80634e09bcaf116102855780634e09bcaf14610692578063550ed1f0146106bd57806358fc7606146106e85780635b0b85961461072557610381565b8063439766ce1461063657806347d2a6c71461064d5780634a1a3e9c1461067657610381565b80632626cf821161031857806333653391116102f257806333653391146105665780633503894c146105915780633bc303b6146105bc5780633db20272146105f957610381565b80632626cf82146104d35780632b8f6140146105105780633024737d1461053b57610381565b80631afc369c116103545780631afc369c1461043f5780631b62ff01146104685780631d111d13146104935780631fe543e3146104aa57610381565b8063045a31041461038657806309c06841146103c55780631936fd431461040257610381565b3661038157005b600080fd5b34801561039257600080fd5b506103ad60048036038101906103a89190613bf0565b610d5d565b6040516103bc93929190613c51565b60405180910390f35b3480156103d157600080fd5b506103ec60048036038101906103e79190613cb4565b610f6c565b6040516103f99190613cf0565b60405180910390f35b34801561040e57600080fd5b5061042960048036038101906104249190613bf0565b610f9f565b6040516104369190613d0b565b60405180910390f35b34801561044b57600080fd5b5061046660048036038101906104619190613cb4565b610fb7565b005b34801561047457600080fd5b5061047d61101b565b60405161048a9190613cf0565b60405180910390f35b34801561049f57600080fd5b506104a8611041565b005b3480156104b657600080fd5b506104d160048036038101906104cc9190613e7f565b61116a565b005b3480156104df57600080fd5b506104fa60048036038101906104f59190613bf0565b61122a565b6040516105079190613edb565b60405180910390f35b34801561051c57600080fd5b50610525611280565b6040516105329190613cf0565b60405180910390f35b34801561054757600080fd5b506105506112a6565b60405161055d9190613d0b565b60405180910390f35b34801561057257600080fd5b5061057b6112ac565b6040516105889190613d0b565b60405180910390f35b34801561059d57600080fd5b506105a66112b2565b6040516105b39190613d0b565b60405180910390f35b3480156105c857600080fd5b506105e360048036038101906105de9190613bf0565b6112b8565b6040516105f09190613d0b565b60405180910390f35b34801561060557600080fd5b50610620600480360381019061061b9190613bf0565b6112d0565b60405161062d9190613d0b565b60405180910390f35b34801561064257600080fd5b5061064b6112e8565b005b34801561065957600080fd5b50610674600480360381019061066f9190613cb4565b61135f565b005b610690600480360381019061068b9190613cb4565b61138d565b005b34801561069e57600080fd5b506106a7611635565b6040516106b49190613d0b565b60405180910390f35b3480156106c957600080fd5b506106d26116cd565b6040516106df9190613d0b565b60405180910390f35b3480156106f457600080fd5b5061070f600480360381019061070a9190613cb4565b611789565b60405161071c9190613d0b565b60405180910390f35b34801561073157600080fd5b5061073a6117a1565b005b34801561074857600080fd5b50610763600480360381019061075e9190613bf0565b61199d565b6040516107709190613edb565b60405180910390f35b34801561078557600080fd5b5061078e6119bd565b60405161079b9190613edb565b60405180910390f35b3480156107b057600080fd5b506107cb60048036038101906107c69190613cb4565b6119d0565b005b3480156107d957600080fd5b506107f460048036038101906107ef9190613cb4565b6119fe565b005b34801561080257600080fd5b5061080b611a62565b6040516108189190613d0b565b60405180910390f35b34801561082d57600080fd5b5061084860048036038101906108439190613bf0565b611a6c565b6040516108559190613d0b565b60405180910390f35b34801561086a57600080fd5b50610873611a84565b6040516108809190613d0b565b60405180910390f35b34801561089557600080fd5b5061089e611a8a565b005b3480156108ac57600080fd5b506108b5611b60565b6040516108c29190613d0b565b60405180910390f35b3480156108d757600080fd5b506108e0611b66565b005b3480156108ee57600080fd5b506108f7611c04565b6040516109049190613cf0565b60405180910390f35b34801561091957600080fd5b50610934600480360381019061092f9190613ef6565b611c2a565b6040516109479796959493929190613f36565b60405180910390f35b34801561095c57600080fd5b50610965611c96565b6040516109729190613edb565b60405180910390f35b34801561098757600080fd5b50610990611cea565b60405161099d9190613cf0565b60405180910390f35b3480156109b257600080fd5b506109cd60048036038101906109c89190613fdb565b611d10565b005b3480156109db57600080fd5b506109f660048036038101906109f19190613bf0565b611d74565b604051610a039190613d0b565b60405180910390f35b348015610a1857600080fd5b50610a336004803603810190610a2e9190613cb4565b611d8c565b005b348015610a4157600080fd5b50610a5c6004803603810190610a579190614044565b611df0565b005b348015610a6a57600080fd5b50610a73611e6e565b604051610a8091906141cc565b60405180910390f35b348015610a9557600080fd5b50610a9e611f61565b604051610aab9190613d0b565b60405180910390f35b348015610ac057600080fd5b50610adb6004803603810190610ad69190613bf0565b611f67565b604051610ae89190613d0b565b60405180910390f35b348015610afd57600080fd5b50610b06611f7f565b005b348015610b1457600080fd5b50610b1d612117565b005b348015610b2b57600080fd5b50610b346123db565b604051610b419190613d0b565b60405180910390f35b348015610b5657600080fd5b50610b5f6123e1565b604051610b6c9190613d0b565b60405180910390f35b610b7d6123e7565b005b348015610b8b57600080fd5b50610ba66004803603810190610ba19190613cb4565b6123e9565b005b348015610bb457600080fd5b50610bcf6004803603810190610bca9190613bf0565b61244d565b604051610bdc9190613d0b565b60405180910390f35b348015610bf157600080fd5b50610bfa612465565b604051610c0993929190613c51565b60405180910390f35b348015610c1e57600080fd5b50610c396004803603810190610c349190613bf0565b612672565b604051610c469190613d0b565b60405180910390f35b348015610c5b57600080fd5b50610c766004803603810190610c719190613bf0565b61268a565b005b348015610c8457600080fd5b50610c8d61278b565b604051610c9a9190613d0b565b60405180910390f35b348015610caf57600080fd5b50610cca6004803603810190610cc5919061422e565b612791565b005b348015610cd857600080fd5b50610cf36004803603810190610cee9190613bf0565b612817565b005b348015610d0157600080fd5b50610d1c6004803603810190610d179190613cb4565b6128b5565b604051610d299190613d0b565b60405180910390f35b348015610d3e57600080fd5b50610d476128d9565b604051610d549190613d0b565b60405180910390f35b6000806000806001601160008773ffffffffffffffffffffffffffffffffffffffff1673ffffffffffffffffffffffffffffffffffffffff1681526020019081526020016000205403610e45576007601460008773ffffffffffffffffffffffffffffffffffffffff1673ffffffffffffffffffffffffffffffffffffffff16815260200190815260200160002054601360008873ffffffffffffffffffffffffffffffffffffffff1673ffffffffffffffffffffffffffffffffffffffff16815260200190815260200160002054610e36919061428a565b10610e4057600190505b610edd565b6007601460008773ffffffffffffffffffffffffffffffffffffffff1673ffffffffffffffffffffffffffffffffffffffff16815260200190815260200160002054601360008873ffffffffffffffffffffffffffffffffffffffff1673ffffffffffffffffffffffffffffffffffffffff16815260200190815260200160002054610ed1919061428a565b1015610edc57600190505b5b601360008673ffffffffffffffffffffffffffffffffffffffff1673ffffffffffffffffffffffffffffffffffffffff16815260200190815260200160002054601460008773ffffffffffffffffffffffffffffffffffffffff1673ffffffffffffffffffffffffffffffffffffffff1681526020019081526020016000205482935093509350509193909250565b601a6020528060005260406000206000915054906101000a900473ffffffffffffffffffffffffffffffffffffffff1681565b60156020528060005260406000206000915090505481565b600760009054906101000a900473ffffffffffffffffffffffffffffffffffffffff1673ffffffffffffffffffffffffffffffffffffffff163373ffffffffffffffffffffffffffffffffffffffff161461101157600080fd5b80600e8190555050565b602460009054906101000a900473ffffffffffffffffffffffffffffffffffffffff1681565b600760009054906101000a900473ffffffffffffffffffffffffffffffffffffffff1673ffffffffffffffffffffffffffffffffffffffff163373ffffffffffffffffffffffffffffffffffffffff161461109b57600080fd5b60011515602960149054906101000a900460ff161515146110bb57600080fd5b60003373ffffffffffffffffffffffffffffffffffffffff16476040516110e1906142ef565b60006040518083038185875af1925050503d806000811461111e576040519150601f19603f3d011682016040523d82523d6000602084013e611123565b606091505b5050905080611167576040517f08c379a000000000000000000000000000000000000000000000000000000000815260040161115e90614361565b60405180910390fd5b50565b7f000000000000000000000000000000000000000000000000000000000000000073ffffffffffffffffffffffffffffffffffffffff163373ffffffffffffffffffffffffffffffffffffffff161461121c57337f00000000000000000000000000000000000000000000000000000000000000006040517f1cf993f4000000000000000000000000000000000000000000000000000000008152600401611213929190614381565b60405180910390fd5b61122682826128df565b5050565b6000601b60008373ffffffffffffffffffffffffffffffffffffffff1673ffffffffffffffffffffffffffffffffffffffff16815260200190815260200160002060009054906101000a900460ff169050919050565b602560009054906101000a900473ffffffffffffffffffffffffffffffffffffffff1681565b600c5481565b600e5481565b60095481565b60196020528060005260406000206000915090505481565b60166020528060005260406000206000915090505481565b600760009054906101000a900473ffffffffffffffffffffffffffffffffffffffff1673ffffffffffffffffffffffffffffffffffffffff163373ffffffffffffffffffffffffffffffffffffffff161461134257600080fd5b6001602960146101000a81548160ff021916908315150217905550565b60001515602960149054906101000a900460ff1615151461137f57600080fd5b61138a6000826130b9565b50565b80602760009054906101000a900473ffffffffffffffffffffffffffffffffffffffff1673ffffffffffffffffffffffffffffffffffffffff1663dd62ed3e33306040518363ffffffff1660e01b81526004016113eb929190614381565b602060405180830381865afa158015611408573d6000803e3d6000fd5b505050506040513d601f19601f8201168201806040525081019061142c91906143bf565b101561146d576040517f08c379a000000000000000000000000000000000000000000000000000000000815260040161146490614438565b60405180910390fd5b80602760009054906101000a900473ffffffffffffffffffffffffffffffffffffffff1673ffffffffffffffffffffffffffffffffffffffff166370a08231336040518263ffffffff1660e01b81526004016114c99190613cf0565b602060405180830381865afa1580156114e6573d6000803e3d6000fd5b505050506040513d601f19601f8201168201806040525081019061150a91906143bf565b101561154b576040517f08c379a0000000000000000000000000000000000000000000000000000000008152600401611542906144a4565b60405180910390fd5b6000602760009054906101000a900473ffffffffffffffffffffffffffffffffffffffff1673ffffffffffffffffffffffffffffffffffffffff166323b872dd3330856040518463ffffffff1660e01b81526004016115ac939291906144c4565b6020604051808303816000875af11580156115cb573d6000803e3d6000fd5b505050506040513d601f19601f820116820180604052508101906115ef9190614527565b905080611631576040517f08c379a0000000000000000000000000000000000000000000000000000000008152600401611628906145a0565b60405180910390fd5b5050565b6000602860009054906101000a900473ffffffffffffffffffffffffffffffffffffffff1673ffffffffffffffffffffffffffffffffffffffff1663cd06e3ea6040518163ffffffff1660e01b8152600401602060405180830381865afa1580156116a4573d6000803e3d6000fd5b505050506040513d601f19601f820116820180604052508101906116c891906143bf565b905090565b60006064600c54602760009054906101000a900473ffffffffffffffffffffffffffffffffffffffff1673ffffffffffffffffffffffffffffffffffffffff166370a08231306040518263ffffffff1660e01b815260040161172f9190613cf0565b602060405180830381865afa15801561174c573d6000803e3d6000fd5b505050506040513d601f19601f8201168201806040525081019061177091906143bf565b61177a91906145c0565b6117849190614649565b905090565b60126020528060005260406000206000915090505481565b600760009054906101000a900473ffffffffffffffffffffffffffffffffffffffff1673ffffffffffffffffffffffffffffffffffffffff163373ffffffffffffffffffffffffffffffffffffffff16146117fb57600080fd5b60011515602960149054906101000a900460ff1615151461181b57600080fd5b6000602760009054906101000a900473ffffffffffffffffffffffffffffffffffffffff1673ffffffffffffffffffffffffffffffffffffffff1663a9059cbb33602760009054906101000a900473ffffffffffffffffffffffffffffffffffffffff1673ffffffffffffffffffffffffffffffffffffffff166370a08231306040518263ffffffff1660e01b81526004016118b79190613cf0565b602060405180830381865afa1580156118d4573d6000803e3d6000fd5b505050506040513d601f19601f820116820180604052508101906118f891906143bf565b6040518363ffffffff1660e01b815260040161191592919061467a565b6020604051808303816000875af1158015611934573d6000803e3d6000fd5b505050506040513d601f19601f820116820180604052508101906119589190614527565b90508061199a576040517f08c379a0000000000000000000000000000000000000000000000000000000008152600401611991906145a0565b60405180910390fd5b50565b601b6020528060005260406000206000915054906101000a900460ff1681565b602960149054906101000a900460ff1681565b60001515602960149054906101000a900460ff161515146119f057600080fd5b6119fb6001826130b9565b50565b600760009054906101000a900473ffffffffffffffffffffffffffffffffffffffff1673ffffffffffffffffffffffffffffffffffffffff163373ffffffffffffffffffffffffffffffffffffffff1614611a5857600080fd5b80600d8190555050565b6000600f54905090565b60116020528060005260406000206000915090505481565b60105481565b66038d7ea4c68000471015611ad4576040517f08c379a0000000000000000000000000000000000000000000000000000000008152600401611acb90614715565b60405180910390fd5b602860009054906101000a900473ffffffffffffffffffffffffffffffffffffffff1673ffffffffffffffffffffffffffffffffffffffff16637aa5175466038d7ea4c680006040518263ffffffff1660e01b81526004016000604051808303818588803b158015611b4557600080fd5b505af1158015611b59573d6000803e3d6000fd5b5050505050565b600f5481565b600760009054906101000a900473ffffffffffffffffffffffffffffffffffffffff1673ffffffffffffffffffffffffffffffffffffffff163373ffffffffffffffffffffffffffffffffffffffff1614611bc057600080fd5b6000602960006101000a81548173ffffffffffffffffffffffffffffffffffffffff021916908373ffffffffffffffffffffffffffffffffffffffff160217905550565b602660009054906101000a900473ffffffffffffffffffffffffffffffffffffffff1681565b60236020528160005260406000208181548110611c4657600080fd5b9060005260206000209060070201600091509150508060000154908060010154908060020154908060030154908060040154908060050160009054906101000a900460ff16908060060154905087565b6000601b60003373ffffffffffffffffffffffffffffffffffffffff1673ffffffffffffffffffffffffffffffffffffffff16815260200190815260200160002060009054906101000a900460ff16905090565b602960009054906101000a900473ffffffffffffffffffffffffffffffffffffffff1681565b600760009054906101000a900473ffffffffffffffffffffffffffffffffffffffff1673ffffffffffffffffffffffffffffffffffffffff163373ffffffffffffffffffffffffffffffffffffffff1614611d6a57600080fd5b8060038190555050565b60186020528060005260406000206000915090505481565b600760009054906101000a900473ffffffffffffffffffffffffffffffffffffffff1673ffffffffffffffffffffffffffffffffffffffff163373ffffffffffffffffffffffffffffffffffffffff1614611de657600080fd5b80600f8190555050565b600760009054906101000a900473ffffffffffffffffffffffffffffffffffffffff1673ffffffffffffffffffffffffffffffffffffffff163373ffffffffffffffffffffffffffffffffffffffff1614611e4a57600080fd5b80600460006101000a81548163ffffffff021916908363ffffffff16021790555050565b6060602360003373ffffffffffffffffffffffffffffffffffffffff1673ffffffffffffffffffffffffffffffffffffffff168152602001908152602001600020805480602002602001604051908101604052809291908181526020016000905b82821015611f5857838290600052602060002090600702016040518060e001604052908160008201548152602001600182015481526020016002820154815260200160038201548152602001600482015481526020016005820160009054906101000a900460ff1615151515815260200160068201548152505081526020019060010190611ecf565b50505050905090565b600b5481565b60176020528060005260406000206000915090505481565b600760009054906101000a900473ffffffffffffffffffffffffffffffffffffffff1673ffffffffffffffffffffffffffffffffffffffff163373ffffffffffffffffffffffffffffffffffffffff1614611fd957600080fd5b6000602760009054906101000a900473ffffffffffffffffffffffffffffffffffffffff1673ffffffffffffffffffffffffffffffffffffffff166370a08231306040518263ffffffff1660e01b81526004016120369190613cf0565b602060405180830381865afa158015612053573d6000803e3d6000fd5b505050506040513d601f19601f8201168201806040525081019061207791906143bf565b116120b7576040517f08c379a00000000000000000000000000000000000000000000000000000000081526004016120ae906147a7565b60405180910390fd5b600047116120fa576040517f08c379a00000000000000000000000000000000000000000000000000000000081526004016120f190614839565b60405180910390fd5b6000602960146101000a81548160ff021916908315150217905550565b60026000540361215c576040517f08c379a0000000000000000000000000000000000000000000000000000000008152600401612153906148a5565b60405180910390fd5b600260008190555060001515602960149054906101000a900460ff1615151461218457600080fd5b6000601860003373ffffffffffffffffffffffffffffffffffffffff1673ffffffffffffffffffffffffffffffffffffffff1681526020019081526020016000205490506000601860003373ffffffffffffffffffffffffffffffffffffffff1673ffffffffffffffffffffffffffffffffffffffff1681526020019081526020016000208190555080602760009054906101000a900473ffffffffffffffffffffffffffffffffffffffff1673ffffffffffffffffffffffffffffffffffffffff166370a08231306040518263ffffffff1660e01b81526004016122699190613cf0565b602060405180830381865afa158015612286573d6000803e3d6000fd5b505050506040513d601f19601f820116820180604052508101906122aa91906143bf565b10156122eb576040517f08c379a00000000000000000000000000000000000000000000000000000000081526004016122e290614937565b60405180910390fd5b6000602760009054906101000a900473ffffffffffffffffffffffffffffffffffffffff1673ffffffffffffffffffffffffffffffffffffffff1663a9059cbb33846040518363ffffffff1660e01b815260040161234a92919061467a565b6020604051808303816000875af1158015612369573d6000803e3d6000fd5b505050506040513d601f19601f8201168201806040525081019061238d9190614527565b9050806123cf576040517f08c379a00000000000000000000000000000000000000000000000000000000081526004016123c6906149a3565b60405180910390fd5b50506001600081905550565b600a5481565b60085481565b565b600760009054906101000a900473ffffffffffffffffffffffffffffffffffffffff1673ffffffffffffffffffffffffffffffffffffffff163373ffffffffffffffffffffffffffffffffffffffff161461244357600080fd5b80600c8190555050565b60146020528060005260406000206000915090505481565b6000806000806001601160003373ffffffffffffffffffffffffffffffffffffffff1673ffffffffffffffffffffffffffffffffffffffff168152602001908152602001600020540361254d576007601460003373ffffffffffffffffffffffffffffffffffffffff1673ffffffffffffffffffffffffffffffffffffffff16815260200190815260200160002054601360003373ffffffffffffffffffffffffffffffffffffffff1673ffffffffffffffffffffffffffffffffffffffff1681526020019081526020016000205461253e919061428a565b1061254857600190505b6125e5565b6007601460003373ffffffffffffffffffffffffffffffffffffffff1673ffffffffffffffffffffffffffffffffffffffff16815260200190815260200160002054601360003373ffffffffffffffffffffffffffffffffffffffff1673ffffffffffffffffffffffffffffffffffffffff168152602001908152602001600020546125d9919061428a565b10156125e457600190505b5b601360003373ffffffffffffffffffffffffffffffffffffffff1673ffffffffffffffffffffffffffffffffffffffff16815260200190815260200160002054601460003373ffffffffffffffffffffffffffffffffffffffff1673ffffffffffffffffffffffffffffffffffffffff168152602001908152602001600020548293509350935050909192565b60136020528060005260406000206000915090505481565b600760009054906101000a900473ffffffffffffffffffffffffffffffffffffffff1673ffffffffffffffffffffffffffffffffffffffff163373ffffffffffffffffffffffffffffffffffffffff16146126e457600080fd5b80602560006101000a81548173ffffffffffffffffffffffffffffffffffffffff021916908373ffffffffffffffffffffffffffffffffffffffff160217905550602560009054906101000a900473ffffffffffffffffffffffffffffffffffffffff16602860006101000a81548173ffffffffffffffffffffffffffffffffffffffff021916908373ffffffffffffffffffffffffffffffffffffffff16021790555050565b60065481565b600760009054906101000a900473ffffffffffffffffffffffffffffffffffffffff1673ffffffffffffffffffffffffffffffffffffffff163373ffffffffffffffffffffffffffffffffffffffff16146127eb57600080fd5b80600160146101000a81548167ffffffffffffffff021916908367ffffffffffffffff16021790555050565b600760009054906101000a900473ffffffffffffffffffffffffffffffffffffffff1673ffffffffffffffffffffffffffffffffffffffff163373ffffffffffffffffffffffffffffffffffffffff161461287157600080fd5b80602960006101000a81548173ffffffffffffffffffffffffffffffffffffffff021916908373ffffffffffffffffffffffffffffffffffffffff16021790555050565b600581815481106128c557600080fd5b906000526020600020016000915090505481565b600d5481565b6000601a600084815260200190815260200160002060009054906101000a900473ffffffffffffffffffffffffffffffffffffffff16905060006001600584600081518110612931576129306149c3565b5b602002602001015161294391906149f2565b61294d919061428a565b601360008473ffffffffffffffffffffffffffffffffffffffff1673ffffffffffffffffffffffffffffffffffffffff1681526020019081526020016000208190555060016005846001815181106129a8576129a76149c3565b5b60200260200101516129ba91906149f2565b6129c4919061428a565b601460008473ffffffffffffffffffffffffffffffffffffffff1673ffffffffffffffffffffffffffffffffffffffff168152602001908152602001600020819055506000601b60008473ffffffffffffffffffffffffffffffffffffffff1673ffffffffffffffffffffffffffffffffffffffff16815260200190815260200160002060006101000a81548160ff0219169083151502179055506001601160008473ffffffffffffffffffffffffffffffffffffffff1673ffffffffffffffffffffffffffffffffffffffff1681526020019081526020016000205403612d9f576007601460008473ffffffffffffffffffffffffffffffffffffffff1673ffffffffffffffffffffffffffffffffffffffff16815260200190815260200160002054601360008573ffffffffffffffffffffffffffffffffffffffff1673ffffffffffffffffffffffffffffffffffffffff16815260200190815260200160002054612b32919061428a565b10612c3857612c178285601160008673ffffffffffffffffffffffffffffffffffffffff1673ffffffffffffffffffffffffffffffffffffffff168152602001908152602001600020546012600089815260200190815260200160002054601360008873ffffffffffffffffffffffffffffffffffffffff1673ffffffffffffffffffffffffffffffffffffffff16815260200190815260200160002054601460008973ffffffffffffffffffffffffffffffffffffffff1673ffffffffffffffffffffffffffffffffffffffff168152602001908152602001600020546001613752565b6001905060096000815480929190612c2e90614a23565b9190505550612d9a565b612d188285601160008673ffffffffffffffffffffffffffffffffffffffff1673ffffffffffffffffffffffffffffffffffffffff168152602001908152602001600020546012600089815260200190815260200160002054601360008873ffffffffffffffffffffffffffffffffffffffff1673ffffffffffffffffffffffffffffffffffffffff16815260200190815260200160002054601460008973ffffffffffffffffffffffffffffffffffffffff1673ffffffffffffffffffffffffffffffffffffffff168152602001908152602001600020546000613752565b6012600085815260200190815260200160002054601960008473ffffffffffffffffffffffffffffffffffffffff1673ffffffffffffffffffffffffffffffffffffffff1681526020019081526020016000206000828254612d7a919061428a565b92505081905550600b6000815480929190612d9490614a23565b91905055505b613095565b6007601460008473ffffffffffffffffffffffffffffffffffffffff1673ffffffffffffffffffffffffffffffffffffffff16815260200190815260200160002054601360008573ffffffffffffffffffffffffffffffffffffffff1673ffffffffffffffffffffffffffffffffffffffff16815260200190815260200160002054612e2b919061428a565b1015612f3257612f118285601160008673ffffffffffffffffffffffffffffffffffffffff1673ffffffffffffffffffffffffffffffffffffffff168152602001908152602001600020546012600089815260200190815260200160002054601360008873ffffffffffffffffffffffffffffffffffffffff1673ffffffffffffffffffffffffffffffffffffffff16815260200190815260200160002054601460008973ffffffffffffffffffffffffffffffffffffffff1673ffffffffffffffffffffffffffffffffffffffff168152602001908152602001600020546001613752565b6001905060096000815480929190612f2890614a23565b9190505550613094565b6130128285601160008673ffffffffffffffffffffffffffffffffffffffff1673ffffffffffffffffffffffffffffffffffffffff168152602001908152602001600020546012600089815260200190815260200160002054601360008873ffffffffffffffffffffffffffffffffffffffff1673ffffffffffffffffffffffffffffffffffffffff16815260200190815260200160002054601460008973ffffffffffffffffffffffffffffffffffffffff1673ffffffffffffffffffffffffffffffffffffffff168152602001908152602001600020546000613752565b6012600085815260200190815260200160002054601960008473ffffffffffffffffffffffffffffffffffffffff1673ffffffffffffffffffffffffffffffffffffffff1681526020019081526020016000206000828254613074919061428a565b92505081905550600b600081548092919061308e90614a23565b91905055505b5b6130b3826012600087815260200190815260200160002054836138c6565b50505050565b600e546130c4611635565b116130d2576130d1611a8a565b5b600e546130dd611635565b101561311e576040517f08c379a000000000000000000000000000000000000000000000000000000000815260040161311590614add565b60405180910390fd5b6131266116cd565b811115613168576040517f08c379a000000000000000000000000000000000000000000000000000000000815260040161315f90614b6f565b60405180910390fd5b600d548110156131ad576040517f08c379a00000000000000000000000000000000000000000000000000000000081526004016131a490614bdb565b60405180910390fd5b80602760009054906101000a900473ffffffffffffffffffffffffffffffffffffffff1673ffffffffffffffffffffffffffffffffffffffff1663dd62ed3e33306040518363ffffffff1660e01b815260040161320b929190614381565b602060405180830381865afa158015613228573d6000803e3d6000fd5b505050506040513d601f19601f8201168201806040525081019061324c91906143bf565b101561328d576040517f08c379a000000000000000000000000000000000000000000000000000000000815260040161328490614438565b60405180910390fd5b80602760009054906101000a900473ffffffffffffffffffffffffffffffffffffffff1673ffffffffffffffffffffffffffffffffffffffff166370a08231336040518263ffffffff1660e01b81526004016132e99190613cf0565b602060405180830381865afa158015613306573d6000803e3d6000fd5b505050506040513d601f19601f8201168201806040525081019061332a91906143bf565b101561336b576040517f08c379a0000000000000000000000000000000000000000000000000000000008152600401613362906144a4565b60405180910390fd5b6000602760009054906101000a900473ffffffffffffffffffffffffffffffffffffffff1673ffffffffffffffffffffffffffffffffffffffff166323b872dd3330856040518463ffffffff1660e01b81526004016133cc939291906144c4565b6020604051808303816000875af11580156133eb573d6000803e3d6000fd5b505050506040513d601f19601f8201168201806040525081019061340f9190614527565b905080613451576040517f08c379a0000000000000000000000000000000000000000000000000000000008152600401613448906145a0565b60405180910390fd5b6000601360003373ffffffffffffffffffffffffffffffffffffffff1673ffffffffffffffffffffffffffffffffffffffff168152602001908152602001600020819055506000601460003373ffffffffffffffffffffffffffffffffffffffff1673ffffffffffffffffffffffffffffffffffffffff16815260200190815260200160002081905550601560003373ffffffffffffffffffffffffffffffffffffffff1673ffffffffffffffffffffffffffffffffffffffff168152602001908152602001600020600081548092919061352b90614a23565b9190505550600160009054906101000a900473ffffffffffffffffffffffffffffffffffffffff1673ffffffffffffffffffffffffffffffffffffffff16635d3b1d30600354600160149054906101000a900467ffffffffffffffff1660048054906101000a900461ffff16600460009054906101000a900463ffffffff16600460069054906101000a900463ffffffff166040518663ffffffff1660e01b81526004016135dd959493929190614c45565b6020604051808303816000875af11580156135fc573d6000803e3d6000fd5b505050506040513d601f19601f8201168201806040525081019061362091906143bf565b6006819055508261ffff16601160003373ffffffffffffffffffffffffffffffffffffffff1673ffffffffffffffffffffffffffffffffffffffff1681526020019081526020016000208190555033601a6000600654815260200190815260200160002060006101000a81548173ffffffffffffffffffffffffffffffffffffffff021916908373ffffffffffffffffffffffffffffffffffffffff16021790555081600860008282546136d4919061428a565b9250508190555081601260006006548152602001908152602001600020819055506001601b60003373ffffffffffffffffffffffffffffffffffffffff1673ffffffffffffffffffffffffffffffffffffffff16815260200190815260200160002060006101000a81548160ff021916908315150217905550505050565b6040518060e00160405280878152602001858152602001868152602001848152602001838152602001821515815260200142815250601c600082015181600001556020820151816001015560408201518160020155606082015181600301556080820151816004015560a08201518160050160006101000a81548160ff02191690831515021790555060c08201518160060155905050602360008873ffffffffffffffffffffffffffffffffffffffff1673ffffffffffffffffffffffffffffffffffffffff168152602001908152602001600020601c908060018154018082558091505060019003906000526020600020906007020160009091909190915060008201548160000155600182015481600101556002820154816002015560038201548160030155600482015481600401556005820160009054906101000a900460ff168160050160006101000a81548160ff02191690831515021790555060068201548160060155505050505050505050565b6064600f54836138d691906145c0565b6138e09190614649565b6010819055506000602760009054906101000a900473ffffffffffffffffffffffffffffffffffffffff1673ffffffffffffffffffffffffffffffffffffffff1663a9059cbb602460009054906101000a900473ffffffffffffffffffffffffffffffffffffffff166010546040518363ffffffff1660e01b815260040161396992919061467a565b6020604051808303816000875af1158015613988573d6000803e3d6000fd5b505050506040513d601f19601f820116820180604052508101906139ac9190614527565b9050806139ee576040517f08c379a00000000000000000000000000000000000000000000000000000000081526004016139e590614d0a565b60405180910390fd5b8115613b215760006064613a00611a62565b85613a0b91906145c0565b613a159190614649565b84613a209190614d2a565b84613a2b919061428a565b905080600a6000828254613a3f919061428a565b9250508190555080601860008773ffffffffffffffffffffffffffffffffffffffff1673ffffffffffffffffffffffffffffffffffffffff1681526020019081526020016000206000828254613a95919061428a565b925050819055506064613aa6611a62565b85613ab191906145c0565b613abb9190614649565b84613ac69190614d2a565b601660008773ffffffffffffffffffffffffffffffffffffffff1673ffffffffffffffffffffffffffffffffffffffff1681526020019081526020016000206000828254613b14919061428a565b9250508190555050613b78565b82601760008673ffffffffffffffffffffffffffffffffffffffff1673ffffffffffffffffffffffffffffffffffffffff1681526020019081526020016000206000828254613b70919061428a565b925050819055505b50505050565b6000604051905090565b600080fd5b600080fd5b600073ffffffffffffffffffffffffffffffffffffffff82169050919050565b6000613bbd82613b92565b9050919050565b613bcd81613bb2565b8114613bd857600080fd5b50565b600081359050613bea81613bc4565b92915050565b600060208284031215613c0657613c05613b88565b5b6000613c1484828501613bdb565b91505092915050565b6000819050919050565b613c3081613c1d565b82525050565b60008115159050919050565b613c4b81613c36565b82525050565b6000606082019050613c666000830186613c27565b613c736020830185613c27565b613c806040830184613c42565b949350505050565b613c9181613c1d565b8114613c9c57600080fd5b50565b600081359050613cae81613c88565b92915050565b600060208284031215613cca57613cc9613b88565b5b6000613cd884828501613c9f565b91505092915050565b613cea81613bb2565b82525050565b6000602082019050613d056000830184613ce1565b92915050565b6000602082019050613d206000830184613c27565b92915050565b600080fd5b6000601f19601f8301169050919050565b7f4e487b7100000000000000000000000000000000000000000000000000000000600052604160045260246000fd5b613d7482613d2b565b810181811067ffffffffffffffff82111715613d9357613d92613d3c565b5b80604052505050565b6000613da6613b7e565b9050613db28282613d6b565b919050565b600067ffffffffffffffff821115613dd257613dd1613d3c565b5b602082029050602081019050919050565b600080fd5b6000613dfb613df684613db7565b613d9c565b90508083825260208201905060208402830185811115613e1e57613e1d613de3565b5b835b81811015613e475780613e338882613c9f565b845260208401935050602081019050613e20565b5050509392505050565b600082601f830112613e6657613e65613d26565b5b8135613e76848260208601613de8565b91505092915050565b60008060408385031215613e9657613e95613b88565b5b6000613ea485828601613c9f565b925050602083013567ffffffffffffffff811115613ec557613ec4613b8d565b5b613ed185828601613e51565b9150509250929050565b6000602082019050613ef06000830184613c42565b92915050565b60008060408385031215613f0d57613f0c613b88565b5b6000613f1b85828601613bdb565b9250506020613f2c85828601613c9f565b9150509250929050565b600060e082019050613f4b600083018a613c27565b613f586020830189613c27565b613f656040830188613c27565b613f726060830187613c27565b613f7f6080830186613c27565b613f8c60a0830185613c42565b613f9960c0830184613c27565b98975050505050505050565b6000819050919050565b613fb881613fa5565b8114613fc357600080fd5b50565b600081359050613fd581613faf565b92915050565b600060208284031215613ff157613ff0613b88565b5b6000613fff84828501613fc6565b91505092915050565b600063ffffffff82169050919050565b61402181614008565b811461402c57600080fd5b50565b60008135905061403e81614018565b92915050565b60006020828403121561405a57614059613b88565b5b60006140688482850161402f565b91505092915050565b600081519050919050565b600082825260208201905092915050565b6000819050602082019050919050565b6140a681613c1d565b82525050565b6140b581613c36565b82525050565b60e0820160008201516140d1600085018261409d565b5060208201516140e4602085018261409d565b5060408201516140f7604085018261409d565b50606082015161410a606085018261409d565b50608082015161411d608085018261409d565b5060a082015161413060a08501826140ac565b5060c082015161414360c085018261409d565b50505050565b600061415583836140bb565b60e08301905092915050565b6000602082019050919050565b600061417982614071565b614183818561407c565b935061418e8361408d565b8060005b838110156141bf5781516141a68882614149565b97506141b183614161565b925050600181019050614192565b5085935050505092915050565b600060208201905081810360008301526141e6818461416e565b905092915050565b600067ffffffffffffffff82169050919050565b61420b816141ee565b811461421657600080fd5b50565b60008135905061422881614202565b92915050565b60006020828403121561424457614243613b88565b5b600061425284828501614219565b91505092915050565b7f4e487b7100000000000000000000000000000000000000000000000000000000600052601160045260246000fd5b600061429582613c1d565b91506142a083613c1d565b92508282019050808211156142b8576142b761425b565b5b92915050565b600081905092915050565b50565b60006142d96000836142be565b91506142e4826142c9565b600082019050919050565b60006142fa826142cc565b9150819050919050565b600082825260208201905092915050565b7f5472616e73666572206661696c65642e00000000000000000000000000000000600082015250565b600061434b601083614304565b915061435682614315565b602082019050919050565b6000602082019050818103600083015261437a8161433e565b9050919050565b60006040820190506143966000830185613ce1565b6143a36020830184613ce1565b9392505050565b6000815190506143b981613c88565b92915050565b6000602082840312156143d5576143d4613b88565b5b60006143e3848285016143aa565b91505092915050565b7f4e6f7420656e6f75676820616c6c6f77616e6365000000000000000000000000600082015250565b6000614422601483614304565b915061442d826143ec565b602082019050919050565b6000602082019050818103600083015261445181614415565b9050919050565b7f496e73756666696369656e7420425553442062616c616e636500000000000000600082015250565b600061448e601983614304565b915061449982614458565b602082019050919050565b600060208201905081810360008301526144bd81614481565b9050919050565b60006060820190506144d96000830186613ce1565b6144e66020830185613ce1565b6144f36040830184613c27565b949350505050565b61450481613c36565b811461450f57600080fd5b50565b600081519050614521816144fb565b92915050565b60006020828403121561453d5761453c613b88565b5b600061454b84828501614512565b91505092915050565b7f42555344205472616e73666572206661696c65642e0000000000000000000000600082015250565b600061458a601583614304565b915061459582614554565b602082019050919050565b600060208201905081810360008301526145b98161457d565b9050919050565b60006145cb82613c1d565b91506145d683613c1d565b9250817fffffffffffffffffffffffffffffffffffffffffffffffffffffffffffffffff048311821515161561460f5761460e61425b565b5b828202905092915050565b7f4e487b7100000000000000000000000000000000000000000000000000000000600052601260045260246000fd5b600061465482613c1d565b915061465f83613c1d565b92508261466f5761466e61461a565b5b828204905092915050565b600060408201905061468f6000830185613ce1565b61469c6020830184613c27565b9392505050565b7f496e73756666696369656e7420636f6e747261637420424e422062616c616e6360008201527f6500000000000000000000000000000000000000000000000000000000000000602082015250565b60006146ff602183614304565b915061470a826146a3565b604082019050919050565b6000602082019050818103600083015261472e816146f2565b9050919050565b7f436f6e747261637420646f65736e74206861766520616e79204255534420626160008201527f6c616e6365000000000000000000000000000000000000000000000000000000602082015250565b6000614791602583614304565b915061479c82614735565b604082019050919050565b600060208201905081810360008301526147c081614784565b9050919050565b7f436f6e747261637420646f65736e74206861766520616e7920424e422062616c60008201527f616e636520666f72204c494e4b20746f6b656e73207075726368617365000000602082015250565b6000614823603d83614304565b915061482e826147c7565b604082019050919050565b6000602082019050818103600083015261485281614816565b9050919050565b7f5265656e7472616e637947756172643a207265656e7472616e742063616c6c00600082015250565b600061488f601f83614304565b915061489a82614859565b602082019050919050565b600060208201905081810360008301526148be81614882565b9050919050565b7f496e73756666696369656e7420636f6e747261637420425553442062616c616e60008201527f6365000000000000000000000000000000000000000000000000000000000000602082015250565b6000614921602283614304565b915061492c826148c5565b604082019050919050565b6000602082019050818103600083015261495081614914565b9050919050565b7f546f6b656e205472616e73666572206661696c65642e00000000000000000000600082015250565b600061498d601683614304565b915061499882614957565b602082019050919050565b600060208201905081810360008301526149bc81614980565b9050919050565b7f4e487b7100000000000000000000000000000000000000000000000000000000600052603260045260246000fd5b60006149fd82613c1d565b9150614a0883613c1d565b925082614a1857614a1761461a565b5b828206905092915050565b6000614a2e82613c1d565b91507fffffffffffffffffffffffffffffffffffffffffffffffffffffffffffffffff8203614a6057614a5f61425b565b5b600182019050919050565b7f496e73756666696369656e7420436861696e6c696e6b2056524620737562736360008201527f72697074696f6e2062616c616e63650000000000000000000000000000000000602082015250565b6000614ac7602f83614304565b9150614ad282614a6b565b604082019050919050565b60006020820190508181036000830152614af681614aba565b9050919050565b7f596f752063616e206e6f7420626574206d6f7265207468616e206d6178696d7560008201527f6d20616c6c6f776564206c696d69740000000000000000000000000000000000602082015250565b6000614b59602f83614304565b9150614b6482614afd565b604082019050919050565b60006020820190508181036000830152614b8881614b4c565b9050919050565b7f4d696e696d756d2062657420616d6f756e742069732024352042555344000000600082015250565b6000614bc5601d83614304565b9150614bd082614b8f565b602082019050919050565b60006020820190508181036000830152614bf481614bb8565b9050919050565b614c0481613fa5565b82525050565b614c13816141ee565b82525050565b600061ffff82169050919050565b614c3081614c19565b82525050565b614c3f81614008565b82525050565b600060a082019050614c5a6000830188614bfb565b614c676020830187614c0a565b614c746040830186614c27565b614c816060830185614c36565b614c8e6080830184614c36565b9695505050505050565b7f42555344205472616e7366657220746f206d696e657220636f6e74726163742060008201527f6661696c65642e00000000000000000000000000000000000000000000000000602082015250565b6000614cf4602783614304565b9150614cff82614c98565b604082019050919050565b60006020820190508181036000830152614d2381614ce7565b9050919050565b6000614d3582613c1d565b9150614d4083613c1d565b9250828203905081811115614d5857614d5761425b565b5b9291505056fea2646970667358221220e888e2dfe809f9c2ece4862ed558182d5b45eb95e9579587087e46b4f432c74464736f6c63430008100033",
					"opcodes": "PUSH1 0xA0 PUSH1 0x40 MSTORE PUSH20 0xC587D9053CD1118F25F645F9E08BB98C9712A4EE PUSH1 0x2 PUSH1 0x0 PUSH2 0x100 EXP DUP2 SLOAD DUP2 PUSH20 0xFFFFFFFFFFFFFFFFFFFFFFFFFFFFFFFFFFFFFFFF MUL NOT AND SWAP1 DUP4 PUSH20 0xFFFFFFFFFFFFFFFFFFFFFFFFFFFFFFFFFFFFFFFF AND MUL OR SWAP1 SSTORE POP PUSH32 0x114F3DA0A805B6A67D6E9CD2EC746F7028F1B7376365AF575CFEA3550DD1AA04 PUSH1 0x0 SHL PUSH1 0x3 SSTORE PUSH3 0x2625A0 PUSH1 0x4 PUSH1 0x0 PUSH2 0x100 EXP DUP2 SLOAD DUP2 PUSH4 0xFFFFFFFF MUL NOT AND SWAP1 DUP4 PUSH4 0xFFFFFFFF AND MUL OR SWAP1 SSTORE POP PUSH1 0x3 PUSH1 0x4 DUP1 PUSH2 0x100 EXP DUP2 SLOAD DUP2 PUSH2 0xFFFF MUL NOT AND SWAP1 DUP4 PUSH2 0xFFFF AND MUL OR SWAP1 SSTORE POP PUSH1 0x2 PUSH1 0x4 PUSH1 0x6 PUSH2 0x100 EXP DUP2 SLOAD DUP2 PUSH4 0xFFFFFFFF MUL NOT AND SWAP1 DUP4 PUSH4 0xFFFFFFFF AND MUL OR SWAP1 SSTORE POP PUSH7 0x38D7EA4C68000 PUSH1 0xD SSTORE PUSH8 0x4563918244F40000 PUSH1 0xE SSTORE PUSH1 0x0 PUSH1 0x29 PUSH1 0x14 PUSH2 0x100 EXP DUP2 SLOAD DUP2 PUSH1 0xFF MUL NOT AND SWAP1 DUP4 ISZERO ISZERO MUL OR SWAP1 SSTORE POP CALLVALUE DUP1 ISZERO PUSH3 0x122 JUMPI PUSH1 0x0 DUP1 REVERT JUMPDEST POP PUSH1 0x2 PUSH1 0x0 SWAP1 SLOAD SWAP1 PUSH2 0x100 EXP SWAP1 DIV PUSH20 0xFFFFFFFFFFFFFFFFFFFFFFFFFFFFFFFFFFFFFFFF AND DUP1 PUSH20 0xFFFFFFFFFFFFFFFFFFFFFFFFFFFFFFFFFFFFFFFF AND PUSH1 0x80 DUP2 PUSH20 0xFFFFFFFFFFFFFFFFFFFFFFFFFFFFFFFFFFFFFFFF AND DUP2 MSTORE POP POP POP PUSH1 0x1 PUSH1 0x0 DUP2 SWAP1 SSTORE POP CALLER PUSH1 0x29 PUSH1 0x0 PUSH2 0x100 EXP DUP2 SLOAD DUP2 PUSH20 0xFFFFFFFFFFFFFFFFFFFFFFFFFFFFFFFFFFFFFFFF MUL NOT AND SWAP1 DUP4 PUSH20 0xFFFFFFFFFFFFFFFFFFFFFFFFFFFFFFFFFFFFFFFF AND MUL OR SWAP1 SSTORE POP PUSH20 0x9BF951013034E3F690196DF8477450675D140B29 PUSH1 0x25 PUSH1 0x0 PUSH2 0x100 EXP DUP2 SLOAD DUP2 PUSH20 0xFFFFFFFFFFFFFFFFFFFFFFFFFFFFFFFFFFFFFFFF MUL NOT AND SWAP1 DUP4 PUSH20 0xFFFFFFFFFFFFFFFFFFFFFFFFFFFFFFFFFFFFFFFF AND MUL OR SWAP1 SSTORE POP PUSH20 0xEBFDF7A84EB1DD651663782802A818CE36F3E18A PUSH1 0x24 PUSH1 0x0 PUSH2 0x100 EXP DUP2 SLOAD DUP2 PUSH20 0xFFFFFFFFFFFFFFFFFFFFFFFFFFFFFFFFFFFFFFFF MUL NOT AND SWAP1 DUP4 PUSH20 0xFFFFFFFFFFFFFFFFFFFFFFFFFFFFFFFFFFFFFFFF AND MUL OR SWAP1 SSTORE POP PUSH20 0xE9E7CEA3DEDCA5984780BAFC599BD69ADD087D56 PUSH1 0x26 PUSH1 0x0 PUSH2 0x100 EXP DUP2 SLOAD DUP2 PUSH20 0xFFFFFFFFFFFFFFFFFFFFFFFFFFFFFFFFFFFFFFFF MUL NOT AND SWAP1 DUP4 PUSH20 0xFFFFFFFFFFFFFFFFFFFFFFFFFFFFFFFFFFFFFFFF AND MUL OR SWAP1 SSTORE POP PUSH1 0x26 PUSH1 0x0 SWAP1 SLOAD SWAP1 PUSH2 0x100 EXP SWAP1 DIV PUSH20 0xFFFFFFFFFFFFFFFFFFFFFFFFFFFFFFFFFFFFFFFF AND PUSH1 0x27 PUSH1 0x0 PUSH2 0x100 EXP DUP2 SLOAD DUP2 PUSH20 0xFFFFFFFFFFFFFFFFFFFFFFFFFFFFFFFFFFFFFFFF MUL NOT AND SWAP1 DUP4 PUSH20 0xFFFFFFFFFFFFFFFFFFFFFFFFFFFFFFFFFFFFFFFF AND MUL OR SWAP1 SSTORE POP PUSH1 0x2 PUSH1 0x0 SWAP1 SLOAD SWAP1 PUSH2 0x100 EXP SWAP1 DIV PUSH20 0xFFFFFFFFFFFFFFFFFFFFFFFFFFFFFFFFFFFFFFFF AND PUSH1 0x1 PUSH1 0x0 PUSH2 0x100 EXP DUP2 SLOAD DUP2 PUSH20 0xFFFFFFFFFFFFFFFFFFFFFFFFFFFFFFFFFFFFFFFF MUL NOT AND SWAP1 DUP4 PUSH20 0xFFFFFFFFFFFFFFFFFFFFFFFFFFFFFFFFFFFFFFFF AND MUL OR SWAP1 SSTORE POP CALLER PUSH1 0x7 PUSH1 0x0 PUSH2 0x100 EXP DUP2 SLOAD DUP2 PUSH20 0xFFFFFFFFFFFFFFFFFFFFFFFFFFFFFFFFFFFFFFFF MUL NOT AND SWAP1 DUP4 PUSH20 0xFFFFFFFFFFFFFFFFFFFFFFFFFFFFFFFFFFFFFFFF AND MUL OR SWAP1 SSTORE POP PUSH3 0x3FD PUSH1 0x25 PUSH1 0x0 SWAP1 SLOAD SWAP1 PUSH2 0x100 EXP SWAP1 DIV PUSH20 0xFFFFFFFFFFFFFFFFFFFFFFFFFFFFFFFFFFFFFFFF AND PUSH3 0x452 PUSH1 0x20 SHL PUSH1 0x20 SHR JUMP JUMPDEST PUSH3 0x410 PUSH2 0x1B9 PUSH3 0x554 PUSH1 0x20 SHL PUSH1 0x20 SHR JUMP JUMPDEST PUSH3 0x422 PUSH1 0xA PUSH3 0x5DB PUSH1 0x20 SHL PUSH1 0x20 SHR JUMP JUMPDEST PUSH3 0x43A PUSH7 0x38D7EA4C68000 PUSH3 0x640 PUSH1 0x20 SHL PUSH1 0x20 SHR JUMP JUMPDEST PUSH3 0x44C PUSH1 0x14 PUSH3 0x6A5 PUSH1 0x20 SHL PUSH1 0x20 SHR JUMP JUMPDEST PUSH3 0x70A JUMP JUMPDEST PUSH1 0x7 PUSH1 0x0 SWAP1 SLOAD SWAP1 PUSH2 0x100 EXP SWAP1 DIV PUSH20 0xFFFFFFFFFFFFFFFFFFFFFFFFFFFFFFFFFFFFFFFF AND PUSH20 0xFFFFFFFFFFFFFFFFFFFFFFFFFFFFFFFFFFFFFFFF AND CALLER PUSH20 0xFFFFFFFFFFFFFFFFFFFFFFFFFFFFFFFFFFFFFFFF AND EQ PUSH3 0x4AD JUMPI PUSH1 0x0 DUP1 REVERT JUMPDEST DUP1 PUSH1 0x25 PUSH1 0x0 PUSH2 0x100 EXP DUP2 SLOAD DUP2 PUSH20 0xFFFFFFFFFFFFFFFFFFFFFFFFFFFFFFFFFFFFFFFF MUL NOT AND SWAP1 DUP4 PUSH20 0xFFFFFFFFFFFFFFFFFFFFFFFFFFFFFFFFFFFFFFFF AND MUL OR SWAP1 SSTORE POP PUSH1 0x25 PUSH1 0x0 SWAP1 SLOAD SWAP1 PUSH2 0x100 EXP SWAP1 DIV PUSH20 0xFFFFFFFFFFFFFFFFFFFFFFFFFFFFFFFFFFFFFFFF AND PUSH1 0x28 PUSH1 0x0 PUSH2 0x100 EXP DUP2 SLOAD DUP2 PUSH20 0xFFFFFFFFFFFFFFFFFFFFFFFFFFFFFFFFFFFFFFFF MUL NOT AND SWAP1 DUP4 PUSH20 0xFFFFFFFFFFFFFFFFFFFFFFFFFFFFFFFFFFFFFFFF AND MUL OR SWAP1 SSTORE POP POP JUMP JUMPDEST PUSH1 0x7 PUSH1 0x0 SWAP1 SLOAD SWAP1 PUSH2 0x100 EXP SWAP1 DIV PUSH20 0xFFFFFFFFFFFFFFFFFFFFFFFFFFFFFFFFFFFFFFFF AND PUSH20 0xFFFFFFFFFFFFFFFFFFFFFFFFFFFFFFFFFFFFFFFF AND CALLER PUSH20 0xFFFFFFFFFFFFFFFFFFFFFFFFFFFFFFFFFFFFFFFF AND EQ PUSH3 0x5AF JUMPI PUSH1 0x0 DUP1 REVERT JUMPDEST DUP1 PUSH1 0x1 PUSH1 0x14 PUSH2 0x100 EXP DUP2 SLOAD DUP2 PUSH8 0xFFFFFFFFFFFFFFFF MUL NOT AND SWAP1 DUP4 PUSH8 0xFFFFFFFFFFFFFFFF AND MUL OR SWAP1 SSTORE POP POP JUMP JUMPDEST PUSH1 0x7 PUSH1 0x0 SWAP1 SLOAD SWAP1 PUSH2 0x100 EXP SWAP1 DIV PUSH20 0xFFFFFFFFFFFFFFFFFFFFFFFFFFFFFFFFFFFFFFFF AND PUSH20 0xFFFFFFFFFFFFFFFFFFFFFFFFFFFFFFFFFFFFFFFF AND CALLER PUSH20 0xFFFFFFFFFFFFFFFFFFFFFFFFFFFFFFFFFFFFFFFF AND EQ PUSH3 0x636 JUMPI PUSH1 0x0 DUP1 REVERT JUMPDEST DUP1 PUSH1 0xF DUP2 SWAP1 SSTORE POP POP JUMP JUMPDEST PUSH1 0x7 PUSH1 0x0 SWAP1 SLOAD SWAP1 PUSH2 0x100 EXP SWAP1 DIV PUSH20 0xFFFFFFFFFFFFFFFFFFFFFFFFFFFFFFFFFFFFFFFF AND PUSH20 0xFFFFFFFFFFFFFFFFFFFFFFFFFFFFFFFFFFFFFFFF AND CALLER PUSH20 0xFFFFFFFFFFFFFFFFFFFFFFFFFFFFFFFFFFFFFFFF AND EQ PUSH3 0x69B JUMPI PUSH1 0x0 DUP1 REVERT JUMPDEST DUP1 PUSH1 0xD DUP2 SWAP1 SSTORE POP POP JUMP JUMPDEST PUSH1 0x7 PUSH1 0x0 SWAP1 SLOAD SWAP1 PUSH2 0x100 EXP SWAP1 DIV PUSH20 0xFFFFFFFFFFFFFFFFFFFFFFFFFFFFFFFFFFFFFFFF AND PUSH20 0xFFFFFFFFFFFFFFFFFFFFFFFFFFFFFFFFFFFFFFFF AND CALLER PUSH20 0xFFFFFFFFFFFFFFFFFFFFFFFFFFFFFFFFFFFFFFFF AND EQ PUSH3 0x700 JUMPI PUSH1 0x0 DUP1 REVERT JUMPDEST DUP1 PUSH1 0xC DUP2 SWAP1 SSTORE POP POP JUMP JUMPDEST PUSH1 0x80 MLOAD PUSH2 0x4D94 PUSH3 0x72D PUSH1 0x0 CODECOPY PUSH1 0x0 DUP2 DUP2 PUSH2 0x116C ADD MSTORE PUSH2 0x11C0 ADD MSTORE PUSH2 0x4D94 PUSH1 0x0 RETURN INVALID PUSH1 0x80 PUSH1 0x40 MSTORE PUSH1 0x4 CALLDATASIZE LT PUSH2 0x37A JUMPI PUSH1 0x0 CALLDATALOAD PUSH1 0xE0 SHR DUP1 PUSH4 0x6F700224 GT PUSH2 0x1D1 JUMPI DUP1 PUSH4 0xB33712C5 GT PUSH2 0x102 JUMPI DUP1 PUSH4 0xDE292789 GT PUSH2 0xA0 JUMPI DUP1 PUSH4 0xEA7B4F77 GT PUSH2 0x6F JUMPI DUP1 PUSH4 0xEA7B4F77 EQ PUSH2 0xCA3 JUMPI DUP1 PUSH4 0xF2FDE38B EQ PUSH2 0xCCC JUMPI DUP1 PUSH4 0xF6EAFFC8 EQ PUSH2 0xCF5 JUMPI DUP1 PUSH4 0xFA968EEA EQ PUSH2 0xD32 JUMPI PUSH2 0x381 JUMP JUMPDEST DUP1 PUSH4 0xDE292789 EQ PUSH2 0xBE5 JUMPI DUP1 PUSH4 0xE30531A1 EQ PUSH2 0xC12 JUMPI DUP1 PUSH4 0xE541E45D EQ PUSH2 0xC4F JUMPI DUP1 PUSH4 0xE89E106A EQ PUSH2 0xC78 JUMPI PUSH2 0x381 JUMP JUMPDEST DUP1 PUSH4 0xBEFA1E2F GT PUSH2 0xDC JUMPI DUP1 PUSH4 0xBEFA1E2F EQ PUSH2 0xB4A JUMPI DUP1 PUSH4 0xC245F6A1 EQ PUSH2 0xB75 JUMPI DUP1 PUSH4 0xD042CCF9 EQ PUSH2 0xB7F JUMPI DUP1 PUSH4 0xD5E0F494 EQ PUSH2 0xBA8 JUMPI PUSH2 0x381 JUMP JUMPDEST DUP1 PUSH4 0xB33712C5 EQ PUSH2 0xAF1 JUMPI DUP1 PUSH4 0xB401FAF1 EQ PUSH2 0xB08 JUMPI DUP1 PUSH4 0xB72481F8 EQ PUSH2 0xB1F JUMPI PUSH2 0x381 JUMP JUMPDEST DUP1 PUSH4 0x98544710 GT PUSH2 0x16F JUMPI DUP1 PUSH4 0xA4EB718C GT PUSH2 0x149 JUMPI DUP1 PUSH4 0xA4EB718C EQ PUSH2 0xA35 JUMPI DUP1 PUSH4 0xA6AFD5FD EQ PUSH2 0xA5E JUMPI DUP1 PUSH4 0xB05F9066 EQ PUSH2 0xA89 JUMPI DUP1 PUSH4 0xB2689DEA EQ PUSH2 0xAB4 JUMPI PUSH2 0x381 JUMP JUMPDEST DUP1 PUSH4 0x98544710 EQ PUSH2 0x9A6 JUMPI DUP1 PUSH4 0x9CC9EFE2 EQ PUSH2 0x9CF JUMPI DUP1 PUSH4 0x9F84BE6E EQ PUSH2 0xA0C JUMPI PUSH2 0x381 JUMP JUMPDEST DUP1 PUSH4 0x76A90231 GT PUSH2 0x1AB JUMPI DUP1 PUSH4 0x76A90231 EQ PUSH2 0x8E2 JUMPI DUP1 PUSH4 0x8068AA68 EQ PUSH2 0x90D JUMPI DUP1 PUSH4 0x86B945B0 EQ PUSH2 0x950 JUMPI DUP1 PUSH4 0x8DA5CB5B EQ PUSH2 0x97B JUMPI PUSH2 0x381 JUMP JUMPDEST DUP1 PUSH4 0x6F700224 EQ PUSH2 0x889 JUMPI DUP1 PUSH4 0x710C5555 EQ PUSH2 0x8A0 JUMPI DUP1 PUSH4 0x715018A6 EQ PUSH2 0x8CB JUMPI PUSH2 0x381 JUMP JUMPDEST DUP1 PUSH4 0x439766CE GT PUSH2 0x2AB JUMPI DUP1 PUSH4 0x5B496104 GT PUSH2 0x249 JUMPI DUP1 PUSH4 0x61CBBDEE GT PUSH2 0x223 JUMPI DUP1 PUSH4 0x61CBBDEE EQ PUSH2 0x7CD JUMPI DUP1 PUSH4 0x626E1AE7 EQ PUSH2 0x7F6 JUMPI DUP1 PUSH4 0x67AD4EC2 EQ PUSH2 0x821 JUMPI DUP1 PUSH4 0x6C6FF95A EQ PUSH2 0x85E JUMPI PUSH2 0x381 JUMP JUMPDEST DUP1 PUSH4 0x5B496104 EQ PUSH2 0x73C JUMPI DUP1 PUSH4 0x5C975ABB EQ PUSH2 0x779 JUMPI DUP1 PUSH4 0x5E457CF8 EQ PUSH2 0x7A4 JUMPI PUSH2 0x381 JUMP JUMPDEST DUP1 PUSH4 0x4E09BCAF GT PUSH2 0x285 JUMPI DUP1 PUSH4 0x4E09BCAF EQ PUSH2 0x692 JUMPI DUP1 PUSH4 0x550ED1F0 EQ PUSH2 0x6BD JUMPI DUP1 PUSH4 0x58FC7606 EQ PUSH2 0x6E8 JUMPI DUP1 PUSH4 0x5B0B8596 EQ PUSH2 0x725 JUMPI PUSH2 0x381 JUMP JUMPDEST DUP1 PUSH4 0x439766CE EQ PUSH2 0x636 JUMPI DUP1 PUSH4 0x47D2A6C7 EQ PUSH2 0x64D JUMPI DUP1 PUSH4 0x4A1A3E9C EQ PUSH2 0x676 JUMPI PUSH2 0x381 JUMP JUMPDEST DUP1 PUSH4 0x2626CF82 GT PUSH2 0x318 JUMPI DUP1 PUSH4 0x33653391 GT PUSH2 0x2F2 JUMPI DUP1 PUSH4 0x33653391 EQ PUSH2 0x566 JUMPI DUP1 PUSH4 0x3503894C EQ PUSH2 0x591 JUMPI DUP1 PUSH4 0x3BC303B6 EQ PUSH2 0x5BC JUMPI DUP1 PUSH4 0x3DB20272 EQ PUSH2 0x5F9 JUMPI PUSH2 0x381 JUMP JUMPDEST DUP1 PUSH4 0x2626CF82 EQ PUSH2 0x4D3 JUMPI DUP1 PUSH4 0x2B8F6140 EQ PUSH2 0x510 JUMPI DUP1 PUSH4 0x3024737D EQ PUSH2 0x53B JUMPI PUSH2 0x381 JUMP JUMPDEST DUP1 PUSH4 0x1AFC369C GT PUSH2 0x354 JUMPI DUP1 PUSH4 0x1AFC369C EQ PUSH2 0x43F JUMPI DUP1 PUSH4 0x1B62FF01 EQ PUSH2 0x468 JUMPI DUP1 PUSH4 0x1D111D13 EQ PUSH2 0x493 JUMPI DUP1 PUSH4 0x1FE543E3 EQ PUSH2 0x4AA JUMPI PUSH2 0x381 JUMP JUMPDEST DUP1 PUSH4 0x45A3104 EQ PUSH2 0x386 JUMPI DUP1 PUSH4 0x9C06841 EQ PUSH2 0x3C5 JUMPI DUP1 PUSH4 0x1936FD43 EQ PUSH2 0x402 JUMPI PUSH2 0x381 JUMP JUMPDEST CALLDATASIZE PUSH2 0x381 JUMPI STOP JUMPDEST PUSH1 0x0 DUP1 REVERT JUMPDEST CALLVALUE DUP1 ISZERO PUSH2 0x392 JUMPI PUSH1 0x0 DUP1 REVERT JUMPDEST POP PUSH2 0x3AD PUSH1 0x4 DUP1 CALLDATASIZE SUB DUP2 ADD SWAP1 PUSH2 0x3A8 SWAP2 SWAP1 PUSH2 0x3BF0 JUMP JUMPDEST PUSH2 0xD5D JUMP JUMPDEST PUSH1 0x40 MLOAD PUSH2 0x3BC SWAP4 SWAP3 SWAP2 SWAP1 PUSH2 0x3C51 JUMP JUMPDEST PUSH1 0x40 MLOAD DUP1 SWAP2 SUB SWAP1 RETURN JUMPDEST CALLVALUE DUP1 ISZERO PUSH2 0x3D1 JUMPI PUSH1 0x0 DUP1 REVERT JUMPDEST POP PUSH2 0x3EC PUSH1 0x4 DUP1 CALLDATASIZE SUB DUP2 ADD SWAP1 PUSH2 0x3E7 SWAP2 SWAP1 PUSH2 0x3CB4 JUMP JUMPDEST PUSH2 0xF6C JUMP JUMPDEST PUSH1 0x40 MLOAD PUSH2 0x3F9 SWAP2 SWAP1 PUSH2 0x3CF0 JUMP JUMPDEST PUSH1 0x40 MLOAD DUP1 SWAP2 SUB SWAP1 RETURN JUMPDEST CALLVALUE DUP1 ISZERO PUSH2 0x40E JUMPI PUSH1 0x0 DUP1 REVERT JUMPDEST POP PUSH2 0x429 PUSH1 0x4 DUP1 CALLDATASIZE SUB DUP2 ADD SWAP1 PUSH2 0x424 SWAP2 SWAP1 PUSH2 0x3BF0 JUMP JUMPDEST PUSH2 0xF9F JUMP JUMPDEST PUSH1 0x40 MLOAD PUSH2 0x436 SWAP2 SWAP1 PUSH2 0x3D0B JUMP JUMPDEST PUSH1 0x40 MLOAD DUP1 SWAP2 SUB SWAP1 RETURN JUMPDEST CALLVALUE DUP1 ISZERO PUSH2 0x44B JUMPI PUSH1 0x0 DUP1 REVERT JUMPDEST POP PUSH2 0x466 PUSH1 0x4 DUP1 CALLDATASIZE SUB DUP2 ADD SWAP1 PUSH2 0x461 SWAP2 SWAP1 PUSH2 0x3CB4 JUMP JUMPDEST PUSH2 0xFB7 JUMP JUMPDEST STOP JUMPDEST CALLVALUE DUP1 ISZERO PUSH2 0x474 JUMPI PUSH1 0x0 DUP1 REVERT JUMPDEST POP PUSH2 0x47D PUSH2 0x101B JUMP JUMPDEST PUSH1 0x40 MLOAD PUSH2 0x48A SWAP2 SWAP1 PUSH2 0x3CF0 JUMP JUMPDEST PUSH1 0x40 MLOAD DUP1 SWAP2 SUB SWAP1 RETURN JUMPDEST CALLVALUE DUP1 ISZERO PUSH2 0x49F JUMPI PUSH1 0x0 DUP1 REVERT JUMPDEST POP PUSH2 0x4A8 PUSH2 0x1041 JUMP JUMPDEST STOP JUMPDEST CALLVALUE DUP1 ISZERO PUSH2 0x4B6 JUMPI PUSH1 0x0 DUP1 REVERT JUMPDEST POP PUSH2 0x4D1 PUSH1 0x4 DUP1 CALLDATASIZE SUB DUP2 ADD SWAP1 PUSH2 0x4CC SWAP2 SWAP1 PUSH2 0x3E7F JUMP JUMPDEST PUSH2 0x116A JUMP JUMPDEST STOP JUMPDEST CALLVALUE DUP1 ISZERO PUSH2 0x4DF JUMPI PUSH1 0x0 DUP1 REVERT JUMPDEST POP PUSH2 0x4FA PUSH1 0x4 DUP1 CALLDATASIZE SUB DUP2 ADD SWAP1 PUSH2 0x4F5 SWAP2 SWAP1 PUSH2 0x3BF0 JUMP JUMPDEST PUSH2 0x122A JUMP JUMPDEST PUSH1 0x40 MLOAD PUSH2 0x507 SWAP2 SWAP1 PUSH2 0x3EDB JUMP JUMPDEST PUSH1 0x40 MLOAD DUP1 SWAP2 SUB SWAP1 RETURN JUMPDEST CALLVALUE DUP1 ISZERO PUSH2 0x51C JUMPI PUSH1 0x0 DUP1 REVERT JUMPDEST POP PUSH2 0x525 PUSH2 0x1280 JUMP JUMPDEST PUSH1 0x40 MLOAD PUSH2 0x532 SWAP2 SWAP1 PUSH2 0x3CF0 JUMP JUMPDEST PUSH1 0x40 MLOAD DUP1 SWAP2 SUB SWAP1 RETURN JUMPDEST CALLVALUE DUP1 ISZERO PUSH2 0x547 JUMPI PUSH1 0x0 DUP1 REVERT JUMPDEST POP PUSH2 0x550 PUSH2 0x12A6 JUMP JUMPDEST PUSH1 0x40 MLOAD PUSH2 0x55D SWAP2 SWAP1 PUSH2 0x3D0B JUMP JUMPDEST PUSH1 0x40 MLOAD DUP1 SWAP2 SUB SWAP1 RETURN JUMPDEST CALLVALUE DUP1 ISZERO PUSH2 0x572 JUMPI PUSH1 0x0 DUP1 REVERT JUMPDEST POP PUSH2 0x57B PUSH2 0x12AC JUMP JUMPDEST PUSH1 0x40 MLOAD PUSH2 0x588 SWAP2 SWAP1 PUSH2 0x3D0B JUMP JUMPDEST PUSH1 0x40 MLOAD DUP1 SWAP2 SUB SWAP1 RETURN JUMPDEST CALLVALUE DUP1 ISZERO PUSH2 0x59D JUMPI PUSH1 0x0 DUP1 REVERT JUMPDEST POP PUSH2 0x5A6 PUSH2 0x12B2 JUMP JUMPDEST PUSH1 0x40 MLOAD PUSH2 0x5B3 SWAP2 SWAP1 PUSH2 0x3D0B JUMP JUMPDEST PUSH1 0x40 MLOAD DUP1 SWAP2 SUB SWAP1 RETURN JUMPDEST CALLVALUE DUP1 ISZERO PUSH2 0x5C8 JUMPI PUSH1 0x0 DUP1 REVERT JUMPDEST POP PUSH2 0x5E3 PUSH1 0x4 DUP1 CALLDATASIZE SUB DUP2 ADD SWAP1 PUSH2 0x5DE SWAP2 SWAP1 PUSH2 0x3BF0 JUMP JUMPDEST PUSH2 0x12B8 JUMP JUMPDEST PUSH1 0x40 MLOAD PUSH2 0x5F0 SWAP2 SWAP1 PUSH2 0x3D0B JUMP JUMPDEST PUSH1 0x40 MLOAD DUP1 SWAP2 SUB SWAP1 RETURN JUMPDEST CALLVALUE DUP1 ISZERO PUSH2 0x605 JUMPI PUSH1 0x0 DUP1 REVERT JUMPDEST POP PUSH2 0x620 PUSH1 0x4 DUP1 CALLDATASIZE SUB DUP2 ADD SWAP1 PUSH2 0x61B SWAP2 SWAP1 PUSH2 0x3BF0 JUMP JUMPDEST PUSH2 0x12D0 JUMP JUMPDEST PUSH1 0x40 MLOAD PUSH2 0x62D SWAP2 SWAP1 PUSH2 0x3D0B JUMP JUMPDEST PUSH1 0x40 MLOAD DUP1 SWAP2 SUB SWAP1 RETURN JUMPDEST CALLVALUE DUP1 ISZERO PUSH2 0x642 JUMPI PUSH1 0x0 DUP1 REVERT JUMPDEST POP PUSH2 0x64B PUSH2 0x12E8 JUMP JUMPDEST STOP JUMPDEST CALLVALUE DUP1 ISZERO PUSH2 0x659 JUMPI PUSH1 0x0 DUP1 REVERT JUMPDEST POP PUSH2 0x674 PUSH1 0x4 DUP1 CALLDATASIZE SUB DUP2 ADD SWAP1 PUSH2 0x66F SWAP2 SWAP1 PUSH2 0x3CB4 JUMP JUMPDEST PUSH2 0x135F JUMP JUMPDEST STOP JUMPDEST PUSH2 0x690 PUSH1 0x4 DUP1 CALLDATASIZE SUB DUP2 ADD SWAP1 PUSH2 0x68B SWAP2 SWAP1 PUSH2 0x3CB4 JUMP JUMPDEST PUSH2 0x138D JUMP JUMPDEST STOP JUMPDEST CALLVALUE DUP1 ISZERO PUSH2 0x69E JUMPI PUSH1 0x0 DUP1 REVERT JUMPDEST POP PUSH2 0x6A7 PUSH2 0x1635 JUMP JUMPDEST PUSH1 0x40 MLOAD PUSH2 0x6B4 SWAP2 SWAP1 PUSH2 0x3D0B JUMP JUMPDEST PUSH1 0x40 MLOAD DUP1 SWAP2 SUB SWAP1 RETURN JUMPDEST CALLVALUE DUP1 ISZERO PUSH2 0x6C9 JUMPI PUSH1 0x0 DUP1 REVERT JUMPDEST POP PUSH2 0x6D2 PUSH2 0x16CD JUMP JUMPDEST PUSH1 0x40 MLOAD PUSH2 0x6DF SWAP2 SWAP1 PUSH2 0x3D0B JUMP JUMPDEST PUSH1 0x40 MLOAD DUP1 SWAP2 SUB SWAP1 RETURN JUMPDEST CALLVALUE DUP1 ISZERO PUSH2 0x6F4 JUMPI PUSH1 0x0 DUP1 REVERT JUMPDEST POP PUSH2 0x70F PUSH1 0x4 DUP1 CALLDATASIZE SUB DUP2 ADD SWAP1 PUSH2 0x70A SWAP2 SWAP1 PUSH2 0x3CB4 JUMP JUMPDEST PUSH2 0x1789 JUMP JUMPDEST PUSH1 0x40 MLOAD PUSH2 0x71C SWAP2 SWAP1 PUSH2 0x3D0B JUMP JUMPDEST PUSH1 0x40 MLOAD DUP1 SWAP2 SUB SWAP1 RETURN JUMPDEST CALLVALUE DUP1 ISZERO PUSH2 0x731 JUMPI PUSH1 0x0 DUP1 REVERT JUMPDEST POP PUSH2 0x73A PUSH2 0x17A1 JUMP JUMPDEST STOP JUMPDEST CALLVALUE DUP1 ISZERO PUSH2 0x748 JUMPI PUSH1 0x0 DUP1 REVERT JUMPDEST POP PUSH2 0x763 PUSH1 0x4 DUP1 CALLDATASIZE SUB DUP2 ADD SWAP1 PUSH2 0x75E SWAP2 SWAP1 PUSH2 0x3BF0 JUMP JUMPDEST PUSH2 0x199D JUMP JUMPDEST PUSH1 0x40 MLOAD PUSH2 0x770 SWAP2 SWAP1 PUSH2 0x3EDB JUMP JUMPDEST PUSH1 0x40 MLOAD DUP1 SWAP2 SUB SWAP1 RETURN JUMPDEST CALLVALUE DUP1 ISZERO PUSH2 0x785 JUMPI PUSH1 0x0 DUP1 REVERT JUMPDEST POP PUSH2 0x78E PUSH2 0x19BD JUMP JUMPDEST PUSH1 0x40 MLOAD PUSH2 0x79B SWAP2 SWAP1 PUSH2 0x3EDB JUMP JUMPDEST PUSH1 0x40 MLOAD DUP1 SWAP2 SUB SWAP1 RETURN JUMPDEST CALLVALUE DUP1 ISZERO PUSH2 0x7B0 JUMPI PUSH1 0x0 DUP1 REVERT JUMPDEST POP PUSH2 0x7CB PUSH1 0x4 DUP1 CALLDATASIZE SUB DUP2 ADD SWAP1 PUSH2 0x7C6 SWAP2 SWAP1 PUSH2 0x3CB4 JUMP JUMPDEST PUSH2 0x19D0 JUMP JUMPDEST STOP JUMPDEST CALLVALUE DUP1 ISZERO PUSH2 0x7D9 JUMPI PUSH1 0x0 DUP1 REVERT JUMPDEST POP PUSH2 0x7F4 PUSH1 0x4 DUP1 CALLDATASIZE SUB DUP2 ADD SWAP1 PUSH2 0x7EF SWAP2 SWAP1 PUSH2 0x3CB4 JUMP JUMPDEST PUSH2 0x19FE JUMP JUMPDEST STOP JUMPDEST CALLVALUE DUP1 ISZERO PUSH2 0x802 JUMPI PUSH1 0x0 DUP1 REVERT JUMPDEST POP PUSH2 0x80B PUSH2 0x1A62 JUMP JUMPDEST PUSH1 0x40 MLOAD PUSH2 0x818 SWAP2 SWAP1 PUSH2 0x3D0B JUMP JUMPDEST PUSH1 0x40 MLOAD DUP1 SWAP2 SUB SWAP1 RETURN JUMPDEST CALLVALUE DUP1 ISZERO PUSH2 0x82D JUMPI PUSH1 0x0 DUP1 REVERT JUMPDEST POP PUSH2 0x848 PUSH1 0x4 DUP1 CALLDATASIZE SUB DUP2 ADD SWAP1 PUSH2 0x843 SWAP2 SWAP1 PUSH2 0x3BF0 JUMP JUMPDEST PUSH2 0x1A6C JUMP JUMPDEST PUSH1 0x40 MLOAD PUSH2 0x855 SWAP2 SWAP1 PUSH2 0x3D0B JUMP JUMPDEST PUSH1 0x40 MLOAD DUP1 SWAP2 SUB SWAP1 RETURN JUMPDEST CALLVALUE DUP1 ISZERO PUSH2 0x86A JUMPI PUSH1 0x0 DUP1 REVERT JUMPDEST POP PUSH2 0x873 PUSH2 0x1A84 JUMP JUMPDEST PUSH1 0x40 MLOAD PUSH2 0x880 SWAP2 SWAP1 PUSH2 0x3D0B JUMP JUMPDEST PUSH1 0x40 MLOAD DUP1 SWAP2 SUB SWAP1 RETURN JUMPDEST CALLVALUE DUP1 ISZERO PUSH2 0x895 JUMPI PUSH1 0x0 DUP1 REVERT JUMPDEST POP PUSH2 0x89E PUSH2 0x1A8A JUMP JUMPDEST STOP JUMPDEST CALLVALUE DUP1 ISZERO PUSH2 0x8AC JUMPI PUSH1 0x0 DUP1 REVERT JUMPDEST POP PUSH2 0x8B5 PUSH2 0x1B60 JUMP JUMPDEST PUSH1 0x40 MLOAD PUSH2 0x8C2 SWAP2 SWAP1 PUSH2 0x3D0B JUMP JUMPDEST PUSH1 0x40 MLOAD DUP1 SWAP2 SUB SWAP1 RETURN JUMPDEST CALLVALUE DUP1 ISZERO PUSH2 0x8D7 JUMPI PUSH1 0x0 DUP1 REVERT JUMPDEST POP PUSH2 0x8E0 PUSH2 0x1B66 JUMP JUMPDEST STOP JUMPDEST CALLVALUE DUP1 ISZERO PUSH2 0x8EE JUMPI PUSH1 0x0 DUP1 REVERT JUMPDEST POP PUSH2 0x8F7 PUSH2 0x1C04 JUMP JUMPDEST PUSH1 0x40 MLOAD PUSH2 0x904 SWAP2 SWAP1 PUSH2 0x3CF0 JUMP JUMPDEST PUSH1 0x40 MLOAD DUP1 SWAP2 SUB SWAP1 RETURN JUMPDEST CALLVALUE DUP1 ISZERO PUSH2 0x919 JUMPI PUSH1 0x0 DUP1 REVERT JUMPDEST POP PUSH2 0x934 PUSH1 0x4 DUP1 CALLDATASIZE SUB DUP2 ADD SWAP1 PUSH2 0x92F SWAP2 SWAP1 PUSH2 0x3EF6 JUMP JUMPDEST PUSH2 0x1C2A JUMP JUMPDEST PUSH1 0x40 MLOAD PUSH2 0x947 SWAP8 SWAP7 SWAP6 SWAP5 SWAP4 SWAP3 SWAP2 SWAP1 PUSH2 0x3F36 JUMP JUMPDEST PUSH1 0x40 MLOAD DUP1 SWAP2 SUB SWAP1 RETURN JUMPDEST CALLVALUE DUP1 ISZERO PUSH2 0x95C JUMPI PUSH1 0x0 DUP1 REVERT JUMPDEST POP PUSH2 0x965 PUSH2 0x1C96 JUMP JUMPDEST PUSH1 0x40 MLOAD PUSH2 0x972 SWAP2 SWAP1 PUSH2 0x3EDB JUMP JUMPDEST PUSH1 0x40 MLOAD DUP1 SWAP2 SUB SWAP1 RETURN JUMPDEST CALLVALUE DUP1 ISZERO PUSH2 0x987 JUMPI PUSH1 0x0 DUP1 REVERT JUMPDEST POP PUSH2 0x990 PUSH2 0x1CEA JUMP JUMPDEST PUSH1 0x40 MLOAD PUSH2 0x99D SWAP2 SWAP1 PUSH2 0x3CF0 JUMP JUMPDEST PUSH1 0x40 MLOAD DUP1 SWAP2 SUB SWAP1 RETURN JUMPDEST CALLVALUE DUP1 ISZERO PUSH2 0x9B2 JUMPI PUSH1 0x0 DUP1 REVERT JUMPDEST POP PUSH2 0x9CD PUSH1 0x4 DUP1 CALLDATASIZE SUB DUP2 ADD SWAP1 PUSH2 0x9C8 SWAP2 SWAP1 PUSH2 0x3FDB JUMP JUMPDEST PUSH2 0x1D10 JUMP JUMPDEST STOP JUMPDEST CALLVALUE DUP1 ISZERO PUSH2 0x9DB JUMPI PUSH1 0x0 DUP1 REVERT JUMPDEST POP PUSH2 0x9F6 PUSH1 0x4 DUP1 CALLDATASIZE SUB DUP2 ADD SWAP1 PUSH2 0x9F1 SWAP2 SWAP1 PUSH2 0x3BF0 JUMP JUMPDEST PUSH2 0x1D74 JUMP JUMPDEST PUSH1 0x40 MLOAD PUSH2 0xA03 SWAP2 SWAP1 PUSH2 0x3D0B JUMP JUMPDEST PUSH1 0x40 MLOAD DUP1 SWAP2 SUB SWAP1 RETURN JUMPDEST CALLVALUE DUP1 ISZERO PUSH2 0xA18 JUMPI PUSH1 0x0 DUP1 REVERT JUMPDEST POP PUSH2 0xA33 PUSH1 0x4 DUP1 CALLDATASIZE SUB DUP2 ADD SWAP1 PUSH2 0xA2E SWAP2 SWAP1 PUSH2 0x3CB4 JUMP JUMPDEST PUSH2 0x1D8C JUMP JUMPDEST STOP JUMPDEST CALLVALUE DUP1 ISZERO PUSH2 0xA41 JUMPI PUSH1 0x0 DUP1 REVERT JUMPDEST POP PUSH2 0xA5C PUSH1 0x4 DUP1 CALLDATASIZE SUB DUP2 ADD SWAP1 PUSH2 0xA57 SWAP2 SWAP1 PUSH2 0x4044 JUMP JUMPDEST PUSH2 0x1DF0 JUMP JUMPDEST STOP JUMPDEST CALLVALUE DUP1 ISZERO PUSH2 0xA6A JUMPI PUSH1 0x0 DUP1 REVERT JUMPDEST POP PUSH2 0xA73 PUSH2 0x1E6E JUMP JUMPDEST PUSH1 0x40 MLOAD PUSH2 0xA80 SWAP2 SWAP1 PUSH2 0x41CC JUMP JUMPDEST PUSH1 0x40 MLOAD DUP1 SWAP2 SUB SWAP1 RETURN JUMPDEST CALLVALUE DUP1 ISZERO PUSH2 0xA95 JUMPI PUSH1 0x0 DUP1 REVERT JUMPDEST POP PUSH2 0xA9E PUSH2 0x1F61 JUMP JUMPDEST PUSH1 0x40 MLOAD PUSH2 0xAAB SWAP2 SWAP1 PUSH2 0x3D0B JUMP JUMPDEST PUSH1 0x40 MLOAD DUP1 SWAP2 SUB SWAP1 RETURN JUMPDEST CALLVALUE DUP1 ISZERO PUSH2 0xAC0 JUMPI PUSH1 0x0 DUP1 REVERT JUMPDEST POP PUSH2 0xADB PUSH1 0x4 DUP1 CALLDATASIZE SUB DUP2 ADD SWAP1 PUSH2 0xAD6 SWAP2 SWAP1 PUSH2 0x3BF0 JUMP JUMPDEST PUSH2 0x1F67 JUMP JUMPDEST PUSH1 0x40 MLOAD PUSH2 0xAE8 SWAP2 SWAP1 PUSH2 0x3D0B JUMP JUMPDEST PUSH1 0x40 MLOAD DUP1 SWAP2 SUB SWAP1 RETURN JUMPDEST CALLVALUE DUP1 ISZERO PUSH2 0xAFD JUMPI PUSH1 0x0 DUP1 REVERT JUMPDEST POP PUSH2 0xB06 PUSH2 0x1F7F JUMP JUMPDEST STOP JUMPDEST CALLVALUE DUP1 ISZERO PUSH2 0xB14 JUMPI PUSH1 0x0 DUP1 REVERT JUMPDEST POP PUSH2 0xB1D PUSH2 0x2117 JUMP JUMPDEST STOP JUMPDEST CALLVALUE DUP1 ISZERO PUSH2 0xB2B JUMPI PUSH1 0x0 DUP1 REVERT JUMPDEST POP PUSH2 0xB34 PUSH2 0x23DB JUMP JUMPDEST PUSH1 0x40 MLOAD PUSH2 0xB41 SWAP2 SWAP1 PUSH2 0x3D0B JUMP JUMPDEST PUSH1 0x40 MLOAD DUP1 SWAP2 SUB SWAP1 RETURN JUMPDEST CALLVALUE DUP1 ISZERO PUSH2 0xB56 JUMPI PUSH1 0x0 DUP1 REVERT JUMPDEST POP PUSH2 0xB5F PUSH2 0x23E1 JUMP JUMPDEST PUSH1 0x40 MLOAD PUSH2 0xB6C SWAP2 SWAP1 PUSH2 0x3D0B JUMP JUMPDEST PUSH1 0x40 MLOAD DUP1 SWAP2 SUB SWAP1 RETURN JUMPDEST PUSH2 0xB7D PUSH2 0x23E7 JUMP JUMPDEST STOP JUMPDEST CALLVALUE DUP1 ISZERO PUSH2 0xB8B JUMPI PUSH1 0x0 DUP1 REVERT JUMPDEST POP PUSH2 0xBA6 PUSH1 0x4 DUP1 CALLDATASIZE SUB DUP2 ADD SWAP1 PUSH2 0xBA1 SWAP2 SWAP1 PUSH2 0x3CB4 JUMP JUMPDEST PUSH2 0x23E9 JUMP JUMPDEST STOP JUMPDEST CALLVALUE DUP1 ISZERO PUSH2 0xBB4 JUMPI PUSH1 0x0 DUP1 REVERT JUMPDEST POP PUSH2 0xBCF PUSH1 0x4 DUP1 CALLDATASIZE SUB DUP2 ADD SWAP1 PUSH2 0xBCA SWAP2 SWAP1 PUSH2 0x3BF0 JUMP JUMPDEST PUSH2 0x244D JUMP JUMPDEST PUSH1 0x40 MLOAD PUSH2 0xBDC SWAP2 SWAP1 PUSH2 0x3D0B JUMP JUMPDEST PUSH1 0x40 MLOAD DUP1 SWAP2 SUB SWAP1 RETURN JUMPDEST CALLVALUE DUP1 ISZERO PUSH2 0xBF1 JUMPI PUSH1 0x0 DUP1 REVERT JUMPDEST POP PUSH2 0xBFA PUSH2 0x2465 JUMP JUMPDEST PUSH1 0x40 MLOAD PUSH2 0xC09 SWAP4 SWAP3 SWAP2 SWAP1 PUSH2 0x3C51 JUMP JUMPDEST PUSH1 0x40 MLOAD DUP1 SWAP2 SUB SWAP1 RETURN JUMPDEST CALLVALUE DUP1 ISZERO PUSH2 0xC1E JUMPI PUSH1 0x0 DUP1 REVERT JUMPDEST POP PUSH2 0xC39 PUSH1 0x4 DUP1 CALLDATASIZE SUB DUP2 ADD SWAP1 PUSH2 0xC34 SWAP2 SWAP1 PUSH2 0x3BF0 JUMP JUMPDEST PUSH2 0x2672 JUMP JUMPDEST PUSH1 0x40 MLOAD PUSH2 0xC46 SWAP2 SWAP1 PUSH2 0x3D0B JUMP JUMPDEST PUSH1 0x40 MLOAD DUP1 SWAP2 SUB SWAP1 RETURN JUMPDEST CALLVALUE DUP1 ISZERO PUSH2 0xC5B JUMPI PUSH1 0x0 DUP1 REVERT JUMPDEST POP PUSH2 0xC76 PUSH1 0x4 DUP1 CALLDATASIZE SUB DUP2 ADD SWAP1 PUSH2 0xC71 SWAP2 SWAP1 PUSH2 0x3BF0 JUMP JUMPDEST PUSH2 0x268A JUMP JUMPDEST STOP JUMPDEST CALLVALUE DUP1 ISZERO PUSH2 0xC84 JUMPI PUSH1 0x0 DUP1 REVERT JUMPDEST POP PUSH2 0xC8D PUSH2 0x278B JUMP JUMPDEST PUSH1 0x40 MLOAD PUSH2 0xC9A SWAP2 SWAP1 PUSH2 0x3D0B JUMP JUMPDEST PUSH1 0x40 MLOAD DUP1 SWAP2 SUB SWAP1 RETURN JUMPDEST CALLVALUE DUP1 ISZERO PUSH2 0xCAF JUMPI PUSH1 0x0 DUP1 REVERT JUMPDEST POP PUSH2 0xCCA PUSH1 0x4 DUP1 CALLDATASIZE SUB DUP2 ADD SWAP1 PUSH2 0xCC5 SWAP2 SWAP1 PUSH2 0x422E JUMP JUMPDEST PUSH2 0x2791 JUMP JUMPDEST STOP JUMPDEST CALLVALUE DUP1 ISZERO PUSH2 0xCD8 JUMPI PUSH1 0x0 DUP1 REVERT JUMPDEST POP PUSH2 0xCF3 PUSH1 0x4 DUP1 CALLDATASIZE SUB DUP2 ADD SWAP1 PUSH2 0xCEE SWAP2 SWAP1 PUSH2 0x3BF0 JUMP JUMPDEST PUSH2 0x2817 JUMP JUMPDEST STOP JUMPDEST CALLVALUE DUP1 ISZERO PUSH2 0xD01 JUMPI PUSH1 0x0 DUP1 REVERT JUMPDEST POP PUSH2 0xD1C PUSH1 0x4 DUP1 CALLDATASIZE SUB DUP2 ADD SWAP1 PUSH2 0xD17 SWAP2 SWAP1 PUSH2 0x3CB4 JUMP JUMPDEST PUSH2 0x28B5 JUMP JUMPDEST PUSH1 0x40 MLOAD PUSH2 0xD29 SWAP2 SWAP1 PUSH2 0x3D0B JUMP JUMPDEST PUSH1 0x40 MLOAD DUP1 SWAP2 SUB SWAP1 RETURN JUMPDEST CALLVALUE DUP1 ISZERO PUSH2 0xD3E JUMPI PUSH1 0x0 DUP1 REVERT JUMPDEST POP PUSH2 0xD47 PUSH2 0x28D9 JUMP JUMPDEST PUSH1 0x40 MLOAD PUSH2 0xD54 SWAP2 SWAP1 PUSH2 0x3D0B JUMP JUMPDEST PUSH1 0x40 MLOAD DUP1 SWAP2 SUB SWAP1 RETURN JUMPDEST PUSH1 0x0 DUP1 PUSH1 0x0 DUP1 PUSH1 0x1 PUSH1 0x11 PUSH1 0x0 DUP8 PUSH20 0xFFFFFFFFFFFFFFFFFFFFFFFFFFFFFFFFFFFFFFFF AND PUSH20 0xFFFFFFFFFFFFFFFFFFFFFFFFFFFFFFFFFFFFFFFF AND DUP2 MSTORE PUSH1 0x20 ADD SWAP1 DUP2 MSTORE PUSH1 0x20 ADD PUSH1 0x0 KECCAK256 SLOAD SUB PUSH2 0xE45 JUMPI PUSH1 0x7 PUSH1 0x14 PUSH1 0x0 DUP8 PUSH20 0xFFFFFFFFFFFFFFFFFFFFFFFFFFFFFFFFFFFFFFFF AND PUSH20 0xFFFFFFFFFFFFFFFFFFFFFFFFFFFFFFFFFFFFFFFF AND DUP2 MSTORE PUSH1 0x20 ADD SWAP1 DUP2 MSTORE PUSH1 0x20 ADD PUSH1 0x0 KECCAK256 SLOAD PUSH1 0x13 PUSH1 0x0 DUP9 PUSH20 0xFFFFFFFFFFFFFFFFFFFFFFFFFFFFFFFFFFFFFFFF AND PUSH20 0xFFFFFFFFFFFFFFFFFFFFFFFFFFFFFFFFFFFFFFFF AND DUP2 MSTORE PUSH1 0x20 ADD SWAP1 DUP2 MSTORE PUSH1 0x20 ADD PUSH1 0x0 KECCAK256 SLOAD PUSH2 0xE36 SWAP2 SWAP1 PUSH2 0x428A JUMP JUMPDEST LT PUSH2 0xE40 JUMPI PUSH1 0x1 SWAP1 POP JUMPDEST PUSH2 0xEDD JUMP JUMPDEST PUSH1 0x7 PUSH1 0x14 PUSH1 0x0 DUP8 PUSH20 0xFFFFFFFFFFFFFFFFFFFFFFFFFFFFFFFFFFFFFFFF AND PUSH20 0xFFFFFFFFFFFFFFFFFFFFFFFFFFFFFFFFFFFFFFFF AND DUP2 MSTORE PUSH1 0x20 ADD SWAP1 DUP2 MSTORE PUSH1 0x20 ADD PUSH1 0x0 KECCAK256 SLOAD PUSH1 0x13 PUSH1 0x0 DUP9 PUSH20 0xFFFFFFFFFFFFFFFFFFFFFFFFFFFFFFFFFFFFFFFF AND PUSH20 0xFFFFFFFFFFFFFFFFFFFFFFFFFFFFFFFFFFFFFFFF AND DUP2 MSTORE PUSH1 0x20 ADD SWAP1 DUP2 MSTORE PUSH1 0x20 ADD PUSH1 0x0 KECCAK256 SLOAD PUSH2 0xED1 SWAP2 SWAP1 PUSH2 0x428A JUMP JUMPDEST LT ISZERO PUSH2 0xEDC JUMPI PUSH1 0x1 SWAP1 POP JUMPDEST JUMPDEST PUSH1 0x13 PUSH1 0x0 DUP7 PUSH20 0xFFFFFFFFFFFFFFFFFFFFFFFFFFFFFFFFFFFFFFFF AND PUSH20 0xFFFFFFFFFFFFFFFFFFFFFFFFFFFFFFFFFFFFFFFF AND DUP2 MSTORE PUSH1 0x20 ADD SWAP1 DUP2 MSTORE PUSH1 0x20 ADD PUSH1 0x0 KECCAK256 SLOAD PUSH1 0x14 PUSH1 0x0 DUP8 PUSH20 0xFFFFFFFFFFFFFFFFFFFFFFFFFFFFFFFFFFFFFFFF AND PUSH20 0xFFFFFFFFFFFFFFFFFFFFFFFFFFFFFFFFFFFFFFFF AND DUP2 MSTORE PUSH1 0x20 ADD SWAP1 DUP2 MSTORE PUSH1 0x20 ADD PUSH1 0x0 KECCAK256 SLOAD DUP3 SWAP4 POP SWAP4 POP SWAP4 POP POP SWAP2 SWAP4 SWAP1 SWAP3 POP JUMP JUMPDEST PUSH1 0x1A PUSH1 0x20 MSTORE DUP1 PUSH1 0x0 MSTORE PUSH1 0x40 PUSH1 0x0 KECCAK256 PUSH1 0x0 SWAP2 POP SLOAD SWAP1 PUSH2 0x100 EXP SWAP1 DIV PUSH20 0xFFFFFFFFFFFFFFFFFFFFFFFFFFFFFFFFFFFFFFFF AND DUP2 JUMP JUMPDEST PUSH1 0x15 PUSH1 0x20 MSTORE DUP1 PUSH1 0x0 MSTORE PUSH1 0x40 PUSH1 0x0 KECCAK256 PUSH1 0x0 SWAP2 POP SWAP1 POP SLOAD DUP2 JUMP JUMPDEST PUSH1 0x7 PUSH1 0x0 SWAP1 SLOAD SWAP1 PUSH2 0x100 EXP SWAP1 DIV PUSH20 0xFFFFFFFFFFFFFFFFFFFFFFFFFFFFFFFFFFFFFFFF AND PUSH20 0xFFFFFFFFFFFFFFFFFFFFFFFFFFFFFFFFFFFFFFFF AND CALLER PUSH20 0xFFFFFFFFFFFFFFFFFFFFFFFFFFFFFFFFFFFFFFFF AND EQ PUSH2 0x1011 JUMPI PUSH1 0x0 DUP1 REVERT JUMPDEST DUP1 PUSH1 0xE DUP2 SWAP1 SSTORE POP POP JUMP JUMPDEST PUSH1 0x24 PUSH1 0x0 SWAP1 SLOAD SWAP1 PUSH2 0x100 EXP SWAP1 DIV PUSH20 0xFFFFFFFFFFFFFFFFFFFFFFFFFFFFFFFFFFFFFFFF AND DUP2 JUMP JUMPDEST PUSH1 0x7 PUSH1 0x0 SWAP1 SLOAD SWAP1 PUSH2 0x100 EXP SWAP1 DIV PUSH20 0xFFFFFFFFFFFFFFFFFFFFFFFFFFFFFFFFFFFFFFFF AND PUSH20 0xFFFFFFFFFFFFFFFFFFFFFFFFFFFFFFFFFFFFFFFF AND CALLER PUSH20 0xFFFFFFFFFFFFFFFFFFFFFFFFFFFFFFFFFFFFFFFF AND EQ PUSH2 0x109B JUMPI PUSH1 0x0 DUP1 REVERT JUMPDEST PUSH1 0x1 ISZERO ISZERO PUSH1 0x29 PUSH1 0x14 SWAP1 SLOAD SWAP1 PUSH2 0x100 EXP SWAP1 DIV PUSH1 0xFF AND ISZERO ISZERO EQ PUSH2 0x10BB JUMPI PUSH1 0x0 DUP1 REVERT JUMPDEST PUSH1 0x0 CALLER PUSH20 0xFFFFFFFFFFFFFFFFFFFFFFFFFFFFFFFFFFFFFFFF AND SELFBALANCE PUSH1 0x40 MLOAD PUSH2 0x10E1 SWAP1 PUSH2 0x42EF JUMP JUMPDEST PUSH1 0x0 PUSH1 0x40 MLOAD DUP1 DUP4 SUB DUP2 DUP6 DUP8 GAS CALL SWAP3 POP POP POP RETURNDATASIZE DUP1 PUSH1 0x0 DUP2 EQ PUSH2 0x111E JUMPI PUSH1 0x40 MLOAD SWAP2 POP PUSH1 0x1F NOT PUSH1 0x3F RETURNDATASIZE ADD AND DUP3 ADD PUSH1 0x40 MSTORE RETURNDATASIZE DUP3 MSTORE RETURNDATASIZE PUSH1 0x0 PUSH1 0x20 DUP5 ADD RETURNDATACOPY PUSH2 0x1123 JUMP JUMPDEST PUSH1 0x60 SWAP2 POP JUMPDEST POP POP SWAP1 POP DUP1 PUSH2 0x1167 JUMPI PUSH1 0x40 MLOAD PUSH32 0x8C379A000000000000000000000000000000000000000000000000000000000 DUP2 MSTORE PUSH1 0x4 ADD PUSH2 0x115E SWAP1 PUSH2 0x4361 JUMP JUMPDEST PUSH1 0x40 MLOAD DUP1 SWAP2 SUB SWAP1 REVERT JUMPDEST POP JUMP JUMPDEST PUSH32 0x0 PUSH20 0xFFFFFFFFFFFFFFFFFFFFFFFFFFFFFFFFFFFFFFFF AND CALLER PUSH20 0xFFFFFFFFFFFFFFFFFFFFFFFFFFFFFFFFFFFFFFFF AND EQ PUSH2 0x121C JUMPI CALLER PUSH32 0x0 PUSH1 0x40 MLOAD PUSH32 0x1CF993F400000000000000000000000000000000000000000000000000000000 DUP2 MSTORE PUSH1 0x4 ADD PUSH2 0x1213 SWAP3 SWAP2 SWAP1 PUSH2 0x4381 JUMP JUMPDEST PUSH1 0x40 MLOAD DUP1 SWAP2 SUB SWAP1 REVERT JUMPDEST PUSH2 0x1226 DUP3 DUP3 PUSH2 0x28DF JUMP JUMPDEST POP POP JUMP JUMPDEST PUSH1 0x0 PUSH1 0x1B PUSH1 0x0 DUP4 PUSH20 0xFFFFFFFFFFFFFFFFFFFFFFFFFFFFFFFFFFFFFFFF AND PUSH20 0xFFFFFFFFFFFFFFFFFFFFFFFFFFFFFFFFFFFFFFFF AND DUP2 MSTORE PUSH1 0x20 ADD SWAP1 DUP2 MSTORE PUSH1 0x20 ADD PUSH1 0x0 KECCAK256 PUSH1 0x0 SWAP1 SLOAD SWAP1 PUSH2 0x100 EXP SWAP1 DIV PUSH1 0xFF AND SWAP1 POP SWAP2 SWAP1 POP JUMP JUMPDEST PUSH1 0x25 PUSH1 0x0 SWAP1 SLOAD SWAP1 PUSH2 0x100 EXP SWAP1 DIV PUSH20 0xFFFFFFFFFFFFFFFFFFFFFFFFFFFFFFFFFFFFFFFF AND DUP2 JUMP JUMPDEST PUSH1 0xC SLOAD DUP2 JUMP JUMPDEST PUSH1 0xE SLOAD DUP2 JUMP JUMPDEST PUSH1 0x9 SLOAD DUP2 JUMP JUMPDEST PUSH1 0x19 PUSH1 0x20 MSTORE DUP1 PUSH1 0x0 MSTORE PUSH1 0x40 PUSH1 0x0 KECCAK256 PUSH1 0x0 SWAP2 POP SWAP1 POP SLOAD DUP2 JUMP JUMPDEST PUSH1 0x16 PUSH1 0x20 MSTORE DUP1 PUSH1 0x0 MSTORE PUSH1 0x40 PUSH1 0x0 KECCAK256 PUSH1 0x0 SWAP2 POP SWAP1 POP SLOAD DUP2 JUMP JUMPDEST PUSH1 0x7 PUSH1 0x0 SWAP1 SLOAD SWAP1 PUSH2 0x100 EXP SWAP1 DIV PUSH20 0xFFFFFFFFFFFFFFFFFFFFFFFFFFFFFFFFFFFFFFFF AND PUSH20 0xFFFFFFFFFFFFFFFFFFFFFFFFFFFFFFFFFFFFFFFF AND CALLER PUSH20 0xFFFFFFFFFFFFFFFFFFFFFFFFFFFFFFFFFFFFFFFF AND EQ PUSH2 0x1342 JUMPI PUSH1 0x0 DUP1 REVERT JUMPDEST PUSH1 0x1 PUSH1 0x29 PUSH1 0x14 PUSH2 0x100 EXP DUP2 SLOAD DUP2 PUSH1 0xFF MUL NOT AND SWAP1 DUP4 ISZERO ISZERO MUL OR SWAP1 SSTORE POP JUMP JUMPDEST PUSH1 0x0 ISZERO ISZERO PUSH1 0x29 PUSH1 0x14 SWAP1 SLOAD SWAP1 PUSH2 0x100 EXP SWAP1 DIV PUSH1 0xFF AND ISZERO ISZERO EQ PUSH2 0x137F JUMPI PUSH1 0x0 DUP1 REVERT JUMPDEST PUSH2 0x138A PUSH1 0x0 DUP3 PUSH2 0x30B9 JUMP JUMPDEST POP JUMP JUMPDEST DUP1 PUSH1 0x27 PUSH1 0x0 SWAP1 SLOAD SWAP1 PUSH2 0x100 EXP SWAP1 DIV PUSH20 0xFFFFFFFFFFFFFFFFFFFFFFFFFFFFFFFFFFFFFFFF AND PUSH20 0xFFFFFFFFFFFFFFFFFFFFFFFFFFFFFFFFFFFFFFFF AND PUSH4 0xDD62ED3E CALLER ADDRESS PUSH1 0x40 MLOAD DUP4 PUSH4 0xFFFFFFFF AND PUSH1 0xE0 SHL DUP2 MSTORE PUSH1 0x4 ADD PUSH2 0x13EB SWAP3 SWAP2 SWAP1 PUSH2 0x4381 JUMP JUMPDEST PUSH1 0x20 PUSH1 0x40 MLOAD DUP1 DUP4 SUB DUP2 DUP7 GAS STATICCALL ISZERO DUP1 ISZERO PUSH2 0x1408 JUMPI RETURNDATASIZE PUSH1 0x0 DUP1 RETURNDATACOPY RETURNDATASIZE PUSH1 0x0 REVERT JUMPDEST POP POP POP POP PUSH1 0x40 MLOAD RETURNDATASIZE PUSH1 0x1F NOT PUSH1 0x1F DUP3 ADD AND DUP3 ADD DUP1 PUSH1 0x40 MSTORE POP DUP2 ADD SWAP1 PUSH2 0x142C SWAP2 SWAP1 PUSH2 0x43BF JUMP JUMPDEST LT ISZERO PUSH2 0x146D JUMPI PUSH1 0x40 MLOAD PUSH32 0x8C379A000000000000000000000000000000000000000000000000000000000 DUP2 MSTORE PUSH1 0x4 ADD PUSH2 0x1464 SWAP1 PUSH2 0x4438 JUMP JUMPDEST PUSH1 0x40 MLOAD DUP1 SWAP2 SUB SWAP1 REVERT JUMPDEST DUP1 PUSH1 0x27 PUSH1 0x0 SWAP1 SLOAD SWAP1 PUSH2 0x100 EXP SWAP1 DIV PUSH20 0xFFFFFFFFFFFFFFFFFFFFFFFFFFFFFFFFFFFFFFFF AND PUSH20 0xFFFFFFFFFFFFFFFFFFFFFFFFFFFFFFFFFFFFFFFF AND PUSH4 0x70A08231 CALLER PUSH1 0x40 MLOAD DUP3 PUSH4 0xFFFFFFFF AND PUSH1 0xE0 SHL DUP2 MSTORE PUSH1 0x4 ADD PUSH2 0x14C9 SWAP2 SWAP1 PUSH2 0x3CF0 JUMP JUMPDEST PUSH1 0x20 PUSH1 0x40 MLOAD DUP1 DUP4 SUB DUP2 DUP7 GAS STATICCALL ISZERO DUP1 ISZERO PUSH2 0x14E6 JUMPI RETURNDATASIZE PUSH1 0x0 DUP1 RETURNDATACOPY RETURNDATASIZE PUSH1 0x0 REVERT JUMPDEST POP POP POP POP PUSH1 0x40 MLOAD RETURNDATASIZE PUSH1 0x1F NOT PUSH1 0x1F DUP3 ADD AND DUP3 ADD DUP1 PUSH1 0x40 MSTORE POP DUP2 ADD SWAP1 PUSH2 0x150A SWAP2 SWAP1 PUSH2 0x43BF JUMP JUMPDEST LT ISZERO PUSH2 0x154B JUMPI PUSH1 0x40 MLOAD PUSH32 0x8C379A000000000000000000000000000000000000000000000000000000000 DUP2 MSTORE PUSH1 0x4 ADD PUSH2 0x1542 SWAP1 PUSH2 0x44A4 JUMP JUMPDEST PUSH1 0x40 MLOAD DUP1 SWAP2 SUB SWAP1 REVERT JUMPDEST PUSH1 0x0 PUSH1 0x27 PUSH1 0x0 SWAP1 SLOAD SWAP1 PUSH2 0x100 EXP SWAP1 DIV PUSH20 0xFFFFFFFFFFFFFFFFFFFFFFFFFFFFFFFFFFFFFFFF AND PUSH20 0xFFFFFFFFFFFFFFFFFFFFFFFFFFFFFFFFFFFFFFFF AND PUSH4 0x23B872DD CALLER ADDRESS DUP6 PUSH1 0x40 MLOAD DUP5 PUSH4 0xFFFFFFFF AND PUSH1 0xE0 SHL DUP2 MSTORE PUSH1 0x4 ADD PUSH2 0x15AC SWAP4 SWAP3 SWAP2 SWAP1 PUSH2 0x44C4 JUMP JUMPDEST PUSH1 0x20 PUSH1 0x40 MLOAD DUP1 DUP4 SUB DUP2 PUSH1 0x0 DUP8 GAS CALL ISZERO DUP1 ISZERO PUSH2 0x15CB JUMPI RETURNDATASIZE PUSH1 0x0 DUP1 RETURNDATACOPY RETURNDATASIZE PUSH1 0x0 REVERT JUMPDEST POP POP POP POP PUSH1 0x40 MLOAD RETURNDATASIZE PUSH1 0x1F NOT PUSH1 0x1F DUP3 ADD AND DUP3 ADD DUP1 PUSH1 0x40 MSTORE POP DUP2 ADD SWAP1 PUSH2 0x15EF SWAP2 SWAP1 PUSH2 0x4527 JUMP JUMPDEST SWAP1 POP DUP1 PUSH2 0x1631 JUMPI PUSH1 0x40 MLOAD PUSH32 0x8C379A000000000000000000000000000000000000000000000000000000000 DUP2 MSTORE PUSH1 0x4 ADD PUSH2 0x1628 SWAP1 PUSH2 0x45A0 JUMP JUMPDEST PUSH1 0x40 MLOAD DUP1 SWAP2 SUB SWAP1 REVERT JUMPDEST POP POP JUMP JUMPDEST PUSH1 0x0 PUSH1 0x28 PUSH1 0x0 SWAP1 SLOAD SWAP1 PUSH2 0x100 EXP SWAP1 DIV PUSH20 0xFFFFFFFFFFFFFFFFFFFFFFFFFFFFFFFFFFFFFFFF AND PUSH20 0xFFFFFFFFFFFFFFFFFFFFFFFFFFFFFFFFFFFFFFFF AND PUSH4 0xCD06E3EA PUSH1 0x40 MLOAD DUP2 PUSH4 0xFFFFFFFF AND PUSH1 0xE0 SHL DUP2 MSTORE PUSH1 0x4 ADD PUSH1 0x20 PUSH1 0x40 MLOAD DUP1 DUP4 SUB DUP2 DUP7 GAS STATICCALL ISZERO DUP1 ISZERO PUSH2 0x16A4 JUMPI RETURNDATASIZE PUSH1 0x0 DUP1 RETURNDATACOPY RETURNDATASIZE PUSH1 0x0 REVERT JUMPDEST POP POP POP POP PUSH1 0x40 MLOAD RETURNDATASIZE PUSH1 0x1F NOT PUSH1 0x1F DUP3 ADD AND DUP3 ADD DUP1 PUSH1 0x40 MSTORE POP DUP2 ADD SWAP1 PUSH2 0x16C8 SWAP2 SWAP1 PUSH2 0x43BF JUMP JUMPDEST SWAP1 POP SWAP1 JUMP JUMPDEST PUSH1 0x0 PUSH1 0x64 PUSH1 0xC SLOAD PUSH1 0x27 PUSH1 0x0 SWAP1 SLOAD SWAP1 PUSH2 0x100 EXP SWAP1 DIV PUSH20 0xFFFFFFFFFFFFFFFFFFFFFFFFFFFFFFFFFFFFFFFF AND PUSH20 0xFFFFFFFFFFFFFFFFFFFFFFFFFFFFFFFFFFFFFFFF AND PUSH4 0x70A08231 ADDRESS PUSH1 0x40 MLOAD DUP3 PUSH4 0xFFFFFFFF AND PUSH1 0xE0 SHL DUP2 MSTORE PUSH1 0x4 ADD PUSH2 0x172F SWAP2 SWAP1 PUSH2 0x3CF0 JUMP JUMPDEST PUSH1 0x20 PUSH1 0x40 MLOAD DUP1 DUP4 SUB DUP2 DUP7 GAS STATICCALL ISZERO DUP1 ISZERO PUSH2 0x174C JUMPI RETURNDATASIZE PUSH1 0x0 DUP1 RETURNDATACOPY RETURNDATASIZE PUSH1 0x0 REVERT JUMPDEST POP POP POP POP PUSH1 0x40 MLOAD RETURNDATASIZE PUSH1 0x1F NOT PUSH1 0x1F DUP3 ADD AND DUP3 ADD DUP1 PUSH1 0x40 MSTORE POP DUP2 ADD SWAP1 PUSH2 0x1770 SWAP2 SWAP1 PUSH2 0x43BF JUMP JUMPDEST PUSH2 0x177A SWAP2 SWAP1 PUSH2 0x45C0 JUMP JUMPDEST PUSH2 0x1784 SWAP2 SWAP1 PUSH2 0x4649 JUMP JUMPDEST SWAP1 POP SWAP1 JUMP JUMPDEST PUSH1 0x12 PUSH1 0x20 MSTORE DUP1 PUSH1 0x0 MSTORE PUSH1 0x40 PUSH1 0x0 KECCAK256 PUSH1 0x0 SWAP2 POP SWAP1 POP SLOAD DUP2 JUMP JUMPDEST PUSH1 0x7 PUSH1 0x0 SWAP1 SLOAD SWAP1 PUSH2 0x100 EXP SWAP1 DIV PUSH20 0xFFFFFFFFFFFFFFFFFFFFFFFFFFFFFFFFFFFFFFFF AND PUSH20 0xFFFFFFFFFFFFFFFFFFFFFFFFFFFFFFFFFFFFFFFF AND CALLER PUSH20 0xFFFFFFFFFFFFFFFFFFFFFFFFFFFFFFFFFFFFFFFF AND EQ PUSH2 0x17FB JUMPI PUSH1 0x0 DUP1 REVERT JUMPDEST PUSH1 0x1 ISZERO ISZERO PUSH1 0x29 PUSH1 0x14 SWAP1 SLOAD SWAP1 PUSH2 0x100 EXP SWAP1 DIV PUSH1 0xFF AND ISZERO ISZERO EQ PUSH2 0x181B JUMPI PUSH1 0x0 DUP1 REVERT JUMPDEST PUSH1 0x0 PUSH1 0x27 PUSH1 0x0 SWAP1 SLOAD SWAP1 PUSH2 0x100 EXP SWAP1 DIV PUSH20 0xFFFFFFFFFFFFFFFFFFFFFFFFFFFFFFFFFFFFFFFF AND PUSH20 0xFFFFFFFFFFFFFFFFFFFFFFFFFFFFFFFFFFFFFFFF AND PUSH4 0xA9059CBB CALLER PUSH1 0x27 PUSH1 0x0 SWAP1 SLOAD SWAP1 PUSH2 0x100 EXP SWAP1 DIV PUSH20 0xFFFFFFFFFFFFFFFFFFFFFFFFFFFFFFFFFFFFFFFF AND PUSH20 0xFFFFFFFFFFFFFFFFFFFFFFFFFFFFFFFFFFFFFFFF AND PUSH4 0x70A08231 ADDRESS PUSH1 0x40 MLOAD DUP3 PUSH4 0xFFFFFFFF AND PUSH1 0xE0 SHL DUP2 MSTORE PUSH1 0x4 ADD PUSH2 0x18B7 SWAP2 SWAP1 PUSH2 0x3CF0 JUMP JUMPDEST PUSH1 0x20 PUSH1 0x40 MLOAD DUP1 DUP4 SUB DUP2 DUP7 GAS STATICCALL ISZERO DUP1 ISZERO PUSH2 0x18D4 JUMPI RETURNDATASIZE PUSH1 0x0 DUP1 RETURNDATACOPY RETURNDATASIZE PUSH1 0x0 REVERT JUMPDEST POP POP POP POP PUSH1 0x40 MLOAD RETURNDATASIZE PUSH1 0x1F NOT PUSH1 0x1F DUP3 ADD AND DUP3 ADD DUP1 PUSH1 0x40 MSTORE POP DUP2 ADD SWAP1 PUSH2 0x18F8 SWAP2 SWAP1 PUSH2 0x43BF JUMP JUMPDEST PUSH1 0x40 MLOAD DUP4 PUSH4 0xFFFFFFFF AND PUSH1 0xE0 SHL DUP2 MSTORE PUSH1 0x4 ADD PUSH2 0x1915 SWAP3 SWAP2 SWAP1 PUSH2 0x467A JUMP JUMPDEST PUSH1 0x20 PUSH1 0x40 MLOAD DUP1 DUP4 SUB DUP2 PUSH1 0x0 DUP8 GAS CALL ISZERO DUP1 ISZERO PUSH2 0x1934 JUMPI RETURNDATASIZE PUSH1 0x0 DUP1 RETURNDATACOPY RETURNDATASIZE PUSH1 0x0 REVERT JUMPDEST POP POP POP POP PUSH1 0x40 MLOAD RETURNDATASIZE PUSH1 0x1F NOT PUSH1 0x1F DUP3 ADD AND DUP3 ADD DUP1 PUSH1 0x40 MSTORE POP DUP2 ADD SWAP1 PUSH2 0x1958 SWAP2 SWAP1 PUSH2 0x4527 JUMP JUMPDEST SWAP1 POP DUP1 PUSH2 0x199A JUMPI PUSH1 0x40 MLOAD PUSH32 0x8C379A000000000000000000000000000000000000000000000000000000000 DUP2 MSTORE PUSH1 0x4 ADD PUSH2 0x1991 SWAP1 PUSH2 0x45A0 JUMP JUMPDEST PUSH1 0x40 MLOAD DUP1 SWAP2 SUB SWAP1 REVERT JUMPDEST POP JUMP JUMPDEST PUSH1 0x1B PUSH1 0x20 MSTORE DUP1 PUSH1 0x0 MSTORE PUSH1 0x40 PUSH1 0x0 KECCAK256 PUSH1 0x0 SWAP2 POP SLOAD SWAP1 PUSH2 0x100 EXP SWAP1 DIV PUSH1 0xFF AND DUP2 JUMP JUMPDEST PUSH1 0x29 PUSH1 0x14 SWAP1 SLOAD SWAP1 PUSH2 0x100 EXP SWAP1 DIV PUSH1 0xFF AND DUP2 JUMP JUMPDEST PUSH1 0x0 ISZERO ISZERO PUSH1 0x29 PUSH1 0x14 SWAP1 SLOAD SWAP1 PUSH2 0x100 EXP SWAP1 DIV PUSH1 0xFF AND ISZERO ISZERO EQ PUSH2 0x19F0 JUMPI PUSH1 0x0 DUP1 REVERT JUMPDEST PUSH2 0x19FB PUSH1 0x1 DUP3 PUSH2 0x30B9 JUMP JUMPDEST POP JUMP JUMPDEST PUSH1 0x7 PUSH1 0x0 SWAP1 SLOAD SWAP1 PUSH2 0x100 EXP SWAP1 DIV PUSH20 0xFFFFFFFFFFFFFFFFFFFFFFFFFFFFFFFFFFFFFFFF AND PUSH20 0xFFFFFFFFFFFFFFFFFFFFFFFFFFFFFFFFFFFFFFFF AND CALLER PUSH20 0xFFFFFFFFFFFFFFFFFFFFFFFFFFFFFFFFFFFFFFFF AND EQ PUSH2 0x1A58 JUMPI PUSH1 0x0 DUP1 REVERT JUMPDEST DUP1 PUSH1 0xD DUP2 SWAP1 SSTORE POP POP JUMP JUMPDEST PUSH1 0x0 PUSH1 0xF SLOAD SWAP1 POP SWAP1 JUMP JUMPDEST PUSH1 0x11 PUSH1 0x20 MSTORE DUP1 PUSH1 0x0 MSTORE PUSH1 0x40 PUSH1 0x0 KECCAK256 PUSH1 0x0 SWAP2 POP SWAP1 POP SLOAD DUP2 JUMP JUMPDEST PUSH1 0x10 SLOAD DUP2 JUMP JUMPDEST PUSH7 0x38D7EA4C68000 SELFBALANCE LT ISZERO PUSH2 0x1AD4 JUMPI PUSH1 0x40 MLOAD PUSH32 0x8C379A000000000000000000000000000000000000000000000000000000000 DUP2 MSTORE PUSH1 0x4 ADD PUSH2 0x1ACB SWAP1 PUSH2 0x4715 JUMP JUMPDEST PUSH1 0x40 MLOAD DUP1 SWAP2 SUB SWAP1 REVERT JUMPDEST PUSH1 0x28 PUSH1 0x0 SWAP1 SLOAD SWAP1 PUSH2 0x100 EXP SWAP1 DIV PUSH20 0xFFFFFFFFFFFFFFFFFFFFFFFFFFFFFFFFFFFFFFFF AND PUSH20 0xFFFFFFFFFFFFFFFFFFFFFFFFFFFFFFFFFFFFFFFF AND PUSH4 0x7AA51754 PUSH7 0x38D7EA4C68000 PUSH1 0x40 MLOAD DUP3 PUSH4 0xFFFFFFFF AND PUSH1 0xE0 SHL DUP2 MSTORE PUSH1 0x4 ADD PUSH1 0x0 PUSH1 0x40 MLOAD DUP1 DUP4 SUB DUP2 DUP6 DUP9 DUP1 EXTCODESIZE ISZERO DUP1 ISZERO PUSH2 0x1B45 JUMPI PUSH1 0x0 DUP1 REVERT JUMPDEST POP GAS CALL ISZERO DUP1 ISZERO PUSH2 0x1B59 JUMPI RETURNDATASIZE PUSH1 0x0 DUP1 RETURNDATACOPY RETURNDATASIZE PUSH1 0x0 REVERT JUMPDEST POP POP POP POP POP JUMP JUMPDEST PUSH1 0xF SLOAD DUP2 JUMP JUMPDEST PUSH1 0x7 PUSH1 0x0 SWAP1 SLOAD SWAP1 PUSH2 0x100 EXP SWAP1 DIV PUSH20 0xFFFFFFFFFFFFFFFFFFFFFFFFFFFFFFFFFFFFFFFF AND PUSH20 0xFFFFFFFFFFFFFFFFFFFFFFFFFFFFFFFFFFFFFFFF AND CALLER PUSH20 0xFFFFFFFFFFFFFFFFFFFFFFFFFFFFFFFFFFFFFFFF AND EQ PUSH2 0x1BC0 JUMPI PUSH1 0x0 DUP1 REVERT JUMPDEST PUSH1 0x0 PUSH1 0x29 PUSH1 0x0 PUSH2 0x100 EXP DUP2 SLOAD DUP2 PUSH20 0xFFFFFFFFFFFFFFFFFFFFFFFFFFFFFFFFFFFFFFFF MUL NOT AND SWAP1 DUP4 PUSH20 0xFFFFFFFFFFFFFFFFFFFFFFFFFFFFFFFFFFFFFFFF AND MUL OR SWAP1 SSTORE POP JUMP JUMPDEST PUSH1 0x26 PUSH1 0x0 SWAP1 SLOAD SWAP1 PUSH2 0x100 EXP SWAP1 DIV PUSH20 0xFFFFFFFFFFFFFFFFFFFFFFFFFFFFFFFFFFFFFFFF AND DUP2 JUMP JUMPDEST PUSH1 0x23 PUSH1 0x20 MSTORE DUP2 PUSH1 0x0 MSTORE PUSH1 0x40 PUSH1 0x0 KECCAK256 DUP2 DUP2 SLOAD DUP2 LT PUSH2 0x1C46 JUMPI PUSH1 0x0 DUP1 REVERT JUMPDEST SWAP1 PUSH1 0x0 MSTORE PUSH1 0x20 PUSH1 0x0 KECCAK256 SWAP1 PUSH1 0x7 MUL ADD PUSH1 0x0 SWAP2 POP SWAP2 POP POP DUP1 PUSH1 0x0 ADD SLOAD SWAP1 DUP1 PUSH1 0x1 ADD SLOAD SWAP1 DUP1 PUSH1 0x2 ADD SLOAD SWAP1 DUP1 PUSH1 0x3 ADD SLOAD SWAP1 DUP1 PUSH1 0x4 ADD SLOAD SWAP1 DUP1 PUSH1 0x5 ADD PUSH1 0x0 SWAP1 SLOAD SWAP1 PUSH2 0x100 EXP SWAP1 DIV PUSH1 0xFF AND SWAP1 DUP1 PUSH1 0x6 ADD SLOAD SWAP1 POP DUP8 JUMP JUMPDEST PUSH1 0x0 PUSH1 0x1B PUSH1 0x0 CALLER PUSH20 0xFFFFFFFFFFFFFFFFFFFFFFFFFFFFFFFFFFFFFFFF AND PUSH20 0xFFFFFFFFFFFFFFFFFFFFFFFFFFFFFFFFFFFFFFFF AND DUP2 MSTORE PUSH1 0x20 ADD SWAP1 DUP2 MSTORE PUSH1 0x20 ADD PUSH1 0x0 KECCAK256 PUSH1 0x0 SWAP1 SLOAD SWAP1 PUSH2 0x100 EXP SWAP1 DIV PUSH1 0xFF AND SWAP1 POP SWAP1 JUMP JUMPDEST PUSH1 0x29 PUSH1 0x0 SWAP1 SLOAD SWAP1 PUSH2 0x100 EXP SWAP1 DIV PUSH20 0xFFFFFFFFFFFFFFFFFFFFFFFFFFFFFFFFFFFFFFFF AND DUP2 JUMP JUMPDEST PUSH1 0x7 PUSH1 0x0 SWAP1 SLOAD SWAP1 PUSH2 0x100 EXP SWAP1 DIV PUSH20 0xFFFFFFFFFFFFFFFFFFFFFFFFFFFFFFFFFFFFFFFF AND PUSH20 0xFFFFFFFFFFFFFFFFFFFFFFFFFFFFFFFFFFFFFFFF AND CALLER PUSH20 0xFFFFFFFFFFFFFFFFFFFFFFFFFFFFFFFFFFFFFFFF AND EQ PUSH2 0x1D6A JUMPI PUSH1 0x0 DUP1 REVERT JUMPDEST DUP1 PUSH1 0x3 DUP2 SWAP1 SSTORE POP POP JUMP JUMPDEST PUSH1 0x18 PUSH1 0x20 MSTORE DUP1 PUSH1 0x0 MSTORE PUSH1 0x40 PUSH1 0x0 KECCAK256 PUSH1 0x0 SWAP2 POP SWAP1 POP SLOAD DUP2 JUMP JUMPDEST PUSH1 0x7 PUSH1 0x0 SWAP1 SLOAD SWAP1 PUSH2 0x100 EXP SWAP1 DIV PUSH20 0xFFFFFFFFFFFFFFFFFFFFFFFFFFFFFFFFFFFFFFFF AND PUSH20 0xFFFFFFFFFFFFFFFFFFFFFFFFFFFFFFFFFFFFFFFF AND CALLER PUSH20 0xFFFFFFFFFFFFFFFFFFFFFFFFFFFFFFFFFFFFFFFF AND EQ PUSH2 0x1DE6 JUMPI PUSH1 0x0 DUP1 REVERT JUMPDEST DUP1 PUSH1 0xF DUP2 SWAP1 SSTORE POP POP JUMP JUMPDEST PUSH1 0x7 PUSH1 0x0 SWAP1 SLOAD SWAP1 PUSH2 0x100 EXP SWAP1 DIV PUSH20 0xFFFFFFFFFFFFFFFFFFFFFFFFFFFFFFFFFFFFFFFF AND PUSH20 0xFFFFFFFFFFFFFFFFFFFFFFFFFFFFFFFFFFFFFFFF AND CALLER PUSH20 0xFFFFFFFFFFFFFFFFFFFFFFFFFFFFFFFFFFFFFFFF AND EQ PUSH2 0x1E4A JUMPI PUSH1 0x0 DUP1 REVERT JUMPDEST DUP1 PUSH1 0x4 PUSH1 0x0 PUSH2 0x100 EXP DUP2 SLOAD DUP2 PUSH4 0xFFFFFFFF MUL NOT AND SWAP1 DUP4 PUSH4 0xFFFFFFFF AND MUL OR SWAP1 SSTORE POP POP JUMP JUMPDEST PUSH1 0x60 PUSH1 0x23 PUSH1 0x0 CALLER PUSH20 0xFFFFFFFFFFFFFFFFFFFFFFFFFFFFFFFFFFFFFFFF AND PUSH20 0xFFFFFFFFFFFFFFFFFFFFFFFFFFFFFFFFFFFFFFFF AND DUP2 MSTORE PUSH1 0x20 ADD SWAP1 DUP2 MSTORE PUSH1 0x20 ADD PUSH1 0x0 KECCAK256 DUP1 SLOAD DUP1 PUSH1 0x20 MUL PUSH1 0x20 ADD PUSH1 0x40 MLOAD SWAP1 DUP2 ADD PUSH1 0x40 MSTORE DUP1 SWAP3 SWAP2 SWAP1 DUP2 DUP2 MSTORE PUSH1 0x20 ADD PUSH1 0x0 SWAP1 JUMPDEST DUP3 DUP3 LT ISZERO PUSH2 0x1F58 JUMPI DUP4 DUP3 SWAP1 PUSH1 0x0 MSTORE PUSH1 0x20 PUSH1 0x0 KECCAK256 SWAP1 PUSH1 0x7 MUL ADD PUSH1 0x40 MLOAD DUP1 PUSH1 0xE0 ADD PUSH1 0x40 MSTORE SWAP1 DUP2 PUSH1 0x0 DUP3 ADD SLOAD DUP2 MSTORE PUSH1 0x20 ADD PUSH1 0x1 DUP3 ADD SLOAD DUP2 MSTORE PUSH1 0x20 ADD PUSH1 0x2 DUP3 ADD SLOAD DUP2 MSTORE PUSH1 0x20 ADD PUSH1 0x3 DUP3 ADD SLOAD DUP2 MSTORE PUSH1 0x20 ADD PUSH1 0x4 DUP3 ADD SLOAD DUP2 MSTORE PUSH1 0x20 ADD PUSH1 0x5 DUP3 ADD PUSH1 0x0 SWAP1 SLOAD SWAP1 PUSH2 0x100 EXP SWAP1 DIV PUSH1 0xFF AND ISZERO ISZERO ISZERO ISZERO DUP2 MSTORE PUSH1 0x20 ADD PUSH1 0x6 DUP3 ADD SLOAD DUP2 MSTORE POP POP DUP2 MSTORE PUSH1 0x20 ADD SWAP1 PUSH1 0x1 ADD SWAP1 PUSH2 0x1ECF JUMP JUMPDEST POP POP POP POP SWAP1 POP SWAP1 JUMP JUMPDEST PUSH1 0xB SLOAD DUP2 JUMP JUMPDEST PUSH1 0x17 PUSH1 0x20 MSTORE DUP1 PUSH1 0x0 MSTORE PUSH1 0x40 PUSH1 0x0 KECCAK256 PUSH1 0x0 SWAP2 POP SWAP1 POP SLOAD DUP2 JUMP JUMPDEST PUSH1 0x7 PUSH1 0x0 SWAP1 SLOAD SWAP1 PUSH2 0x100 EXP SWAP1 DIV PUSH20 0xFFFFFFFFFFFFFFFFFFFFFFFFFFFFFFFFFFFFFFFF AND PUSH20 0xFFFFFFFFFFFFFFFFFFFFFFFFFFFFFFFFFFFFFFFF AND CALLER PUSH20 0xFFFFFFFFFFFFFFFFFFFFFFFFFFFFFFFFFFFFFFFF AND EQ PUSH2 0x1FD9 JUMPI PUSH1 0x0 DUP1 REVERT JUMPDEST PUSH1 0x0 PUSH1 0x27 PUSH1 0x0 SWAP1 SLOAD SWAP1 PUSH2 0x100 EXP SWAP1 DIV PUSH20 0xFFFFFFFFFFFFFFFFFFFFFFFFFFFFFFFFFFFFFFFF AND PUSH20 0xFFFFFFFFFFFFFFFFFFFFFFFFFFFFFFFFFFFFFFFF AND PUSH4 0x70A08231 ADDRESS PUSH1 0x40 MLOAD DUP3 PUSH4 0xFFFFFFFF AND PUSH1 0xE0 SHL DUP2 MSTORE PUSH1 0x4 ADD PUSH2 0x2036 SWAP2 SWAP1 PUSH2 0x3CF0 JUMP JUMPDEST PUSH1 0x20 PUSH1 0x40 MLOAD DUP1 DUP4 SUB DUP2 DUP7 GAS STATICCALL ISZERO DUP1 ISZERO PUSH2 0x2053 JUMPI RETURNDATASIZE PUSH1 0x0 DUP1 RETURNDATACOPY RETURNDATASIZE PUSH1 0x0 REVERT JUMPDEST POP POP POP POP PUSH1 0x40 MLOAD RETURNDATASIZE PUSH1 0x1F NOT PUSH1 0x1F DUP3 ADD AND DUP3 ADD DUP1 PUSH1 0x40 MSTORE POP DUP2 ADD SWAP1 PUSH2 0x2077 SWAP2 SWAP1 PUSH2 0x43BF JUMP JUMPDEST GT PUSH2 0x20B7 JUMPI PUSH1 0x40 MLOAD PUSH32 0x8C379A000000000000000000000000000000000000000000000000000000000 DUP2 MSTORE PUSH1 0x4 ADD PUSH2 0x20AE SWAP1 PUSH2 0x47A7 JUMP JUMPDEST PUSH1 0x40 MLOAD DUP1 SWAP2 SUB SWAP1 REVERT JUMPDEST PUSH1 0x0 SELFBALANCE GT PUSH2 0x20FA JUMPI PUSH1 0x40 MLOAD PUSH32 0x8C379A000000000000000000000000000000000000000000000000000000000 DUP2 MSTORE PUSH1 0x4 ADD PUSH2 0x20F1 SWAP1 PUSH2 0x4839 JUMP JUMPDEST PUSH1 0x40 MLOAD DUP1 SWAP2 SUB SWAP1 REVERT JUMPDEST PUSH1 0x0 PUSH1 0x29 PUSH1 0x14 PUSH2 0x100 EXP DUP2 SLOAD DUP2 PUSH1 0xFF MUL NOT AND SWAP1 DUP4 ISZERO ISZERO MUL OR SWAP1 SSTORE POP JUMP JUMPDEST PUSH1 0x2 PUSH1 0x0 SLOAD SUB PUSH2 0x215C JUMPI PUSH1 0x40 MLOAD PUSH32 0x8C379A000000000000000000000000000000000000000000000000000000000 DUP2 MSTORE PUSH1 0x4 ADD PUSH2 0x2153 SWAP1 PUSH2 0x48A5 JUMP JUMPDEST PUSH1 0x40 MLOAD DUP1 SWAP2 SUB SWAP1 REVERT JUMPDEST PUSH1 0x2 PUSH1 0x0 DUP2 SWAP1 SSTORE POP PUSH1 0x0 ISZERO ISZERO PUSH1 0x29 PUSH1 0x14 SWAP1 SLOAD SWAP1 PUSH2 0x100 EXP SWAP1 DIV PUSH1 0xFF AND ISZERO ISZERO EQ PUSH2 0x2184 JUMPI PUSH1 0x0 DUP1 REVERT JUMPDEST PUSH1 0x0 PUSH1 0x18 PUSH1 0x0 CALLER PUSH20 0xFFFFFFFFFFFFFFFFFFFFFFFFFFFFFFFFFFFFFFFF AND PUSH20 0xFFFFFFFFFFFFFFFFFFFFFFFFFFFFFFFFFFFFFFFF AND DUP2 MSTORE PUSH1 0x20 ADD SWAP1 DUP2 MSTORE PUSH1 0x20 ADD PUSH1 0x0 KECCAK256 SLOAD SWAP1 POP PUSH1 0x0 PUSH1 0x18 PUSH1 0x0 CALLER PUSH20 0xFFFFFFFFFFFFFFFFFFFFFFFFFFFFFFFFFFFFFFFF AND PUSH20 0xFFFFFFFFFFFFFFFFFFFFFFFFFFFFFFFFFFFFFFFF AND DUP2 MSTORE PUSH1 0x20 ADD SWAP1 DUP2 MSTORE PUSH1 0x20 ADD PUSH1 0x0 KECCAK256 DUP2 SWAP1 SSTORE POP DUP1 PUSH1 0x27 PUSH1 0x0 SWAP1 SLOAD SWAP1 PUSH2 0x100 EXP SWAP1 DIV PUSH20 0xFFFFFFFFFFFFFFFFFFFFFFFFFFFFFFFFFFFFFFFF AND PUSH20 0xFFFFFFFFFFFFFFFFFFFFFFFFFFFFFFFFFFFFFFFF AND PUSH4 0x70A08231 ADDRESS PUSH1 0x40 MLOAD DUP3 PUSH4 0xFFFFFFFF AND PUSH1 0xE0 SHL DUP2 MSTORE PUSH1 0x4 ADD PUSH2 0x2269 SWAP2 SWAP1 PUSH2 0x3CF0 JUMP JUMPDEST PUSH1 0x20 PUSH1 0x40 MLOAD DUP1 DUP4 SUB DUP2 DUP7 GAS STATICCALL ISZERO DUP1 ISZERO PUSH2 0x2286 JUMPI RETURNDATASIZE PUSH1 0x0 DUP1 RETURNDATACOPY RETURNDATASIZE PUSH1 0x0 REVERT JUMPDEST POP POP POP POP PUSH1 0x40 MLOAD RETURNDATASIZE PUSH1 0x1F NOT PUSH1 0x1F DUP3 ADD AND DUP3 ADD DUP1 PUSH1 0x40 MSTORE POP DUP2 ADD SWAP1 PUSH2 0x22AA SWAP2 SWAP1 PUSH2 0x43BF JUMP JUMPDEST LT ISZERO PUSH2 0x22EB JUMPI PUSH1 0x40 MLOAD PUSH32 0x8C379A000000000000000000000000000000000000000000000000000000000 DUP2 MSTORE PUSH1 0x4 ADD PUSH2 0x22E2 SWAP1 PUSH2 0x4937 JUMP JUMPDEST PUSH1 0x40 MLOAD DUP1 SWAP2 SUB SWAP1 REVERT JUMPDEST PUSH1 0x0 PUSH1 0x27 PUSH1 0x0 SWAP1 SLOAD SWAP1 PUSH2 0x100 EXP SWAP1 DIV PUSH20 0xFFFFFFFFFFFFFFFFFFFFFFFFFFFFFFFFFFFFFFFF AND PUSH20 0xFFFFFFFFFFFFFFFFFFFFFFFFFFFFFFFFFFFFFFFF AND PUSH4 0xA9059CBB CALLER DUP5 PUSH1 0x40 MLOAD DUP4 PUSH4 0xFFFFFFFF AND PUSH1 0xE0 SHL DUP2 MSTORE PUSH1 0x4 ADD PUSH2 0x234A SWAP3 SWAP2 SWAP1 PUSH2 0x467A JUMP JUMPDEST PUSH1 0x20 PUSH1 0x40 MLOAD DUP1 DUP4 SUB DUP2 PUSH1 0x0 DUP8 GAS CALL ISZERO DUP1 ISZERO PUSH2 0x2369 JUMPI RETURNDATASIZE PUSH1 0x0 DUP1 RETURNDATACOPY RETURNDATASIZE PUSH1 0x0 REVERT JUMPDEST POP POP POP POP PUSH1 0x40 MLOAD RETURNDATASIZE PUSH1 0x1F NOT PUSH1 0x1F DUP3 ADD AND DUP3 ADD DUP1 PUSH1 0x40 MSTORE POP DUP2 ADD SWAP1 PUSH2 0x238D SWAP2 SWAP1 PUSH2 0x4527 JUMP JUMPDEST SWAP1 POP DUP1 PUSH2 0x23CF JUMPI PUSH1 0x40 MLOAD PUSH32 0x8C379A000000000000000000000000000000000000000000000000000000000 DUP2 MSTORE PUSH1 0x4 ADD PUSH2 0x23C6 SWAP1 PUSH2 0x49A3 JUMP JUMPDEST PUSH1 0x40 MLOAD DUP1 SWAP2 SUB SWAP1 REVERT JUMPDEST POP POP PUSH1 0x1 PUSH1 0x0 DUP2 SWAP1 SSTORE POP JUMP JUMPDEST PUSH1 0xA SLOAD DUP2 JUMP JUMPDEST PUSH1 0x8 SLOAD DUP2 JUMP JUMPDEST JUMP JUMPDEST PUSH1 0x7 PUSH1 0x0 SWAP1 SLOAD SWAP1 PUSH2 0x100 EXP SWAP1 DIV PUSH20 0xFFFFFFFFFFFFFFFFFFFFFFFFFFFFFFFFFFFFFFFF AND PUSH20 0xFFFFFFFFFFFFFFFFFFFFFFFFFFFFFFFFFFFFFFFF AND CALLER PUSH20 0xFFFFFFFFFFFFFFFFFFFFFFFFFFFFFFFFFFFFFFFF AND EQ PUSH2 0x2443 JUMPI PUSH1 0x0 DUP1 REVERT JUMPDEST DUP1 PUSH1 0xC DUP2 SWAP1 SSTORE POP POP JUMP JUMPDEST PUSH1 0x14 PUSH1 0x20 MSTORE DUP1 PUSH1 0x0 MSTORE PUSH1 0x40 PUSH1 0x0 KECCAK256 PUSH1 0x0 SWAP2 POP SWAP1 POP SLOAD DUP2 JUMP JUMPDEST PUSH1 0x0 DUP1 PUSH1 0x0 DUP1 PUSH1 0x1 PUSH1 0x11 PUSH1 0x0 CALLER PUSH20 0xFFFFFFFFFFFFFFFFFFFFFFFFFFFFFFFFFFFFFFFF AND PUSH20 0xFFFFFFFFFFFFFFFFFFFFFFFFFFFFFFFFFFFFFFFF AND DUP2 MSTORE PUSH1 0x20 ADD SWAP1 DUP2 MSTORE PUSH1 0x20 ADD PUSH1 0x0 KECCAK256 SLOAD SUB PUSH2 0x254D JUMPI PUSH1 0x7 PUSH1 0x14 PUSH1 0x0 CALLER PUSH20 0xFFFFFFFFFFFFFFFFFFFFFFFFFFFFFFFFFFFFFFFF AND PUSH20 0xFFFFFFFFFFFFFFFFFFFFFFFFFFFFFFFFFFFFFFFF AND DUP2 MSTORE PUSH1 0x20 ADD SWAP1 DUP2 MSTORE PUSH1 0x20 ADD PUSH1 0x0 KECCAK256 SLOAD PUSH1 0x13 PUSH1 0x0 CALLER PUSH20 0xFFFFFFFFFFFFFFFFFFFFFFFFFFFFFFFFFFFFFFFF AND PUSH20 0xFFFFFFFFFFFFFFFFFFFFFFFFFFFFFFFFFFFFFFFF AND DUP2 MSTORE PUSH1 0x20 ADD SWAP1 DUP2 MSTORE PUSH1 0x20 ADD PUSH1 0x0 KECCAK256 SLOAD PUSH2 0x253E SWAP2 SWAP1 PUSH2 0x428A JUMP JUMPDEST LT PUSH2 0x2548 JUMPI PUSH1 0x1 SWAP1 POP JUMPDEST PUSH2 0x25E5 JUMP JUMPDEST PUSH1 0x7 PUSH1 0x14 PUSH1 0x0 CALLER PUSH20 0xFFFFFFFFFFFFFFFFFFFFFFFFFFFFFFFFFFFFFFFF AND PUSH20 0xFFFFFFFFFFFFFFFFFFFFFFFFFFFFFFFFFFFFFFFF AND DUP2 MSTORE PUSH1 0x20 ADD SWAP1 DUP2 MSTORE PUSH1 0x20 ADD PUSH1 0x0 KECCAK256 SLOAD PUSH1 0x13 PUSH1 0x0 CALLER PUSH20 0xFFFFFFFFFFFFFFFFFFFFFFFFFFFFFFFFFFFFFFFF AND PUSH20 0xFFFFFFFFFFFFFFFFFFFFFFFFFFFFFFFFFFFFFFFF AND DUP2 MSTORE PUSH1 0x20 ADD SWAP1 DUP2 MSTORE PUSH1 0x20 ADD PUSH1 0x0 KECCAK256 SLOAD PUSH2 0x25D9 SWAP2 SWAP1 PUSH2 0x428A JUMP JUMPDEST LT ISZERO PUSH2 0x25E4 JUMPI PUSH1 0x1 SWAP1 POP JUMPDEST JUMPDEST PUSH1 0x13 PUSH1 0x0 CALLER PUSH20 0xFFFFFFFFFFFFFFFFFFFFFFFFFFFFFFFFFFFFFFFF AND PUSH20 0xFFFFFFFFFFFFFFFFFFFFFFFFFFFFFFFFFFFFFFFF AND DUP2 MSTORE PUSH1 0x20 ADD SWAP1 DUP2 MSTORE PUSH1 0x20 ADD PUSH1 0x0 KECCAK256 SLOAD PUSH1 0x14 PUSH1 0x0 CALLER PUSH20 0xFFFFFFFFFFFFFFFFFFFFFFFFFFFFFFFFFFFFFFFF AND PUSH20 0xFFFFFFFFFFFFFFFFFFFFFFFFFFFFFFFFFFFFFFFF AND DUP2 MSTORE PUSH1 0x20 ADD SWAP1 DUP2 MSTORE PUSH1 0x20 ADD PUSH1 0x0 KECCAK256 SLOAD DUP3 SWAP4 POP SWAP4 POP SWAP4 POP POP SWAP1 SWAP2 SWAP3 JUMP JUMPDEST PUSH1 0x13 PUSH1 0x20 MSTORE DUP1 PUSH1 0x0 MSTORE PUSH1 0x40 PUSH1 0x0 KECCAK256 PUSH1 0x0 SWAP2 POP SWAP1 POP SLOAD DUP2 JUMP JUMPDEST PUSH1 0x7 PUSH1 0x0 SWAP1 SLOAD SWAP1 PUSH2 0x100 EXP SWAP1 DIV PUSH20 0xFFFFFFFFFFFFFFFFFFFFFFFFFFFFFFFFFFFFFFFF AND PUSH20 0xFFFFFFFFFFFFFFFFFFFFFFFFFFFFFFFFFFFFFFFF AND CALLER PUSH20 0xFFFFFFFFFFFFFFFFFFFFFFFFFFFFFFFFFFFFFFFF AND EQ PUSH2 0x26E4 JUMPI PUSH1 0x0 DUP1 REVERT JUMPDEST DUP1 PUSH1 0x25 PUSH1 0x0 PUSH2 0x100 EXP DUP2 SLOAD DUP2 PUSH20 0xFFFFFFFFFFFFFFFFFFFFFFFFFFFFFFFFFFFFFFFF MUL NOT AND SWAP1 DUP4 PUSH20 0xFFFFFFFFFFFFFFFFFFFFFFFFFFFFFFFFFFFFFFFF AND MUL OR SWAP1 SSTORE POP PUSH1 0x25 PUSH1 0x0 SWAP1 SLOAD SWAP1 PUSH2 0x100 EXP SWAP1 DIV PUSH20 0xFFFFFFFFFFFFFFFFFFFFFFFFFFFFFFFFFFFFFFFF AND PUSH1 0x28 PUSH1 0x0 PUSH2 0x100 EXP DUP2 SLOAD DUP2 PUSH20 0xFFFFFFFFFFFFFFFFFFFFFFFFFFFFFFFFFFFFFFFF MUL NOT AND SWAP1 DUP4 PUSH20 0xFFFFFFFFFFFFFFFFFFFFFFFFFFFFFFFFFFFFFFFF AND MUL OR SWAP1 SSTORE POP POP JUMP JUMPDEST PUSH1 0x6 SLOAD DUP2 JUMP JUMPDEST PUSH1 0x7 PUSH1 0x0 SWAP1 SLOAD SWAP1 PUSH2 0x100 EXP SWAP1 DIV PUSH20 0xFFFFFFFFFFFFFFFFFFFFFFFFFFFFFFFFFFFFFFFF AND PUSH20 0xFFFFFFFFFFFFFFFFFFFFFFFFFFFFFFFFFFFFFFFF AND CALLER PUSH20 0xFFFFFFFFFFFFFFFFFFFFFFFFFFFFFFFFFFFFFFFF AND EQ PUSH2 0x27EB JUMPI PUSH1 0x0 DUP1 REVERT JUMPDEST DUP1 PUSH1 0x1 PUSH1 0x14 PUSH2 0x100 EXP DUP2 SLOAD DUP2 PUSH8 0xFFFFFFFFFFFFFFFF MUL NOT AND SWAP1 DUP4 PUSH8 0xFFFFFFFFFFFFFFFF AND MUL OR SWAP1 SSTORE POP POP JUMP JUMPDEST PUSH1 0x7 PUSH1 0x0 SWAP1 SLOAD SWAP1 PUSH2 0x100 EXP SWAP1 DIV PUSH20 0xFFFFFFFFFFFFFFFFFFFFFFFFFFFFFFFFFFFFFFFF AND PUSH20 0xFFFFFFFFFFFFFFFFFFFFFFFFFFFFFFFFFFFFFFFF AND CALLER PUSH20 0xFFFFFFFFFFFFFFFFFFFFFFFFFFFFFFFFFFFFFFFF AND EQ PUSH2 0x2871 JUMPI PUSH1 0x0 DUP1 REVERT JUMPDEST DUP1 PUSH1 0x29 PUSH1 0x0 PUSH2 0x100 EXP DUP2 SLOAD DUP2 PUSH20 0xFFFFFFFFFFFFFFFFFFFFFFFFFFFFFFFFFFFFFFFF MUL NOT AND SWAP1 DUP4 PUSH20 0xFFFFFFFFFFFFFFFFFFFFFFFFFFFFFFFFFFFFFFFF AND MUL OR SWAP1 SSTORE POP POP JUMP JUMPDEST PUSH1 0x5 DUP2 DUP2 SLOAD DUP2 LT PUSH2 0x28C5 JUMPI PUSH1 0x0 DUP1 REVERT JUMPDEST SWAP1 PUSH1 0x0 MSTORE PUSH1 0x20 PUSH1 0x0 KECCAK256 ADD PUSH1 0x0 SWAP2 POP SWAP1 POP SLOAD DUP2 JUMP JUMPDEST PUSH1 0xD SLOAD DUP2 JUMP JUMPDEST PUSH1 0x0 PUSH1 0x1A PUSH1 0x0 DUP5 DUP2 MSTORE PUSH1 0x20 ADD SWAP1 DUP2 MSTORE PUSH1 0x20 ADD PUSH1 0x0 KECCAK256 PUSH1 0x0 SWAP1 SLOAD SWAP1 PUSH2 0x100 EXP SWAP1 DIV PUSH20 0xFFFFFFFFFFFFFFFFFFFFFFFFFFFFFFFFFFFFFFFF AND SWAP1 POP PUSH1 0x0 PUSH1 0x1 PUSH1 0x5 DUP5 PUSH1 0x0 DUP2 MLOAD DUP2 LT PUSH2 0x2931 JUMPI PUSH2 0x2930 PUSH2 0x49C3 JUMP JUMPDEST JUMPDEST PUSH1 0x20 MUL PUSH1 0x20 ADD ADD MLOAD PUSH2 0x2943 SWAP2 SWAP1 PUSH2 0x49F2 JUMP JUMPDEST PUSH2 0x294D SWAP2 SWAP1 PUSH2 0x428A JUMP JUMPDEST PUSH1 0x13 PUSH1 0x0 DUP5 PUSH20 0xFFFFFFFFFFFFFFFFFFFFFFFFFFFFFFFFFFFFFFFF AND PUSH20 0xFFFFFFFFFFFFFFFFFFFFFFFFFFFFFFFFFFFFFFFF AND DUP2 MSTORE PUSH1 0x20 ADD SWAP1 DUP2 MSTORE PUSH1 0x20 ADD PUSH1 0x0 KECCAK256 DUP2 SWAP1 SSTORE POP PUSH1 0x1 PUSH1 0x5 DUP5 PUSH1 0x1 DUP2 MLOAD DUP2 LT PUSH2 0x29A8 JUMPI PUSH2 0x29A7 PUSH2 0x49C3 JUMP JUMPDEST JUMPDEST PUSH1 0x20 MUL PUSH1 0x20 ADD ADD MLOAD PUSH2 0x29BA SWAP2 SWAP1 PUSH2 0x49F2 JUMP JUMPDEST PUSH2 0x29C4 SWAP2 SWAP1 PUSH2 0x428A JUMP JUMPDEST PUSH1 0x14 PUSH1 0x0 DUP5 PUSH20 0xFFFFFFFFFFFFFFFFFFFFFFFFFFFFFFFFFFFFFFFF AND PUSH20 0xFFFFFFFFFFFFFFFFFFFFFFFFFFFFFFFFFFFFFFFF AND DUP2 MSTORE PUSH1 0x20 ADD SWAP1 DUP2 MSTORE PUSH1 0x20 ADD PUSH1 0x0 KECCAK256 DUP2 SWAP1 SSTORE POP PUSH1 0x0 PUSH1 0x1B PUSH1 0x0 DUP5 PUSH20 0xFFFFFFFFFFFFFFFFFFFFFFFFFFFFFFFFFFFFFFFF AND PUSH20 0xFFFFFFFFFFFFFFFFFFFFFFFFFFFFFFFFFFFFFFFF AND DUP2 MSTORE PUSH1 0x20 ADD SWAP1 DUP2 MSTORE PUSH1 0x20 ADD PUSH1 0x0 KECCAK256 PUSH1 0x0 PUSH2 0x100 EXP DUP2 SLOAD DUP2 PUSH1 0xFF MUL NOT AND SWAP1 DUP4 ISZERO ISZERO MUL OR SWAP1 SSTORE POP PUSH1 0x1 PUSH1 0x11 PUSH1 0x0 DUP5 PUSH20 0xFFFFFFFFFFFFFFFFFFFFFFFFFFFFFFFFFFFFFFFF AND PUSH20 0xFFFFFFFFFFFFFFFFFFFFFFFFFFFFFFFFFFFFFFFF AND DUP2 MSTORE PUSH1 0x20 ADD SWAP1 DUP2 MSTORE PUSH1 0x20 ADD PUSH1 0x0 KECCAK256 SLOAD SUB PUSH2 0x2D9F JUMPI PUSH1 0x7 PUSH1 0x14 PUSH1 0x0 DUP5 PUSH20 0xFFFFFFFFFFFFFFFFFFFFFFFFFFFFFFFFFFFFFFFF AND PUSH20 0xFFFFFFFFFFFFFFFFFFFFFFFFFFFFFFFFFFFFFFFF AND DUP2 MSTORE PUSH1 0x20 ADD SWAP1 DUP2 MSTORE PUSH1 0x20 ADD PUSH1 0x0 KECCAK256 SLOAD PUSH1 0x13 PUSH1 0x0 DUP6 PUSH20 0xFFFFFFFFFFFFFFFFFFFFFFFFFFFFFFFFFFFFFFFF AND PUSH20 0xFFFFFFFFFFFFFFFFFFFFFFFFFFFFFFFFFFFFFFFF AND DUP2 MSTORE PUSH1 0x20 ADD SWAP1 DUP2 MSTORE PUSH1 0x20 ADD PUSH1 0x0 KECCAK256 SLOAD PUSH2 0x2B32 SWAP2 SWAP1 PUSH2 0x428A JUMP JUMPDEST LT PUSH2 0x2C38 JUMPI PUSH2 0x2C17 DUP3 DUP6 PUSH1 0x11 PUSH1 0x0 DUP7 PUSH20 0xFFFFFFFFFFFFFFFFFFFFFFFFFFFFFFFFFFFFFFFF AND PUSH20 0xFFFFFFFFFFFFFFFFFFFFFFFFFFFFFFFFFFFFFFFF AND DUP2 MSTORE PUSH1 0x20 ADD SWAP1 DUP2 MSTORE PUSH1 0x20 ADD PUSH1 0x0 KECCAK256 SLOAD PUSH1 0x12 PUSH1 0x0 DUP10 DUP2 MSTORE PUSH1 0x20 ADD SWAP1 DUP2 MSTORE PUSH1 0x20 ADD PUSH1 0x0 KECCAK256 SLOAD PUSH1 0x13 PUSH1 0x0 DUP9 PUSH20 0xFFFFFFFFFFFFFFFFFFFFFFFFFFFFFFFFFFFFFFFF AND PUSH20 0xFFFFFFFFFFFFFFFFFFFFFFFFFFFFFFFFFFFFFFFF AND DUP2 MSTORE PUSH1 0x20 ADD SWAP1 DUP2 MSTORE PUSH1 0x20 ADD PUSH1 0x0 KECCAK256 SLOAD PUSH1 0x14 PUSH1 0x0 DUP10 PUSH20 0xFFFFFFFFFFFFFFFFFFFFFFFFFFFFFFFFFFFFFFFF AND PUSH20 0xFFFFFFFFFFFFFFFFFFFFFFFFFFFFFFFFFFFFFFFF AND DUP2 MSTORE PUSH1 0x20 ADD SWAP1 DUP2 MSTORE PUSH1 0x20 ADD PUSH1 0x0 KECCAK256 SLOAD PUSH1 0x1 PUSH2 0x3752 JUMP JUMPDEST PUSH1 0x1 SWAP1 POP PUSH1 0x9 PUSH1 0x0 DUP2 SLOAD DUP1 SWAP3 SWAP2 SWAP1 PUSH2 0x2C2E SWAP1 PUSH2 0x4A23 JUMP JUMPDEST SWAP2 SWAP1 POP SSTORE POP PUSH2 0x2D9A JUMP JUMPDEST PUSH2 0x2D18 DUP3 DUP6 PUSH1 0x11 PUSH1 0x0 DUP7 PUSH20 0xFFFFFFFFFFFFFFFFFFFFFFFFFFFFFFFFFFFFFFFF AND PUSH20 0xFFFFFFFFFFFFFFFFFFFFFFFFFFFFFFFFFFFFFFFF AND DUP2 MSTORE PUSH1 0x20 ADD SWAP1 DUP2 MSTORE PUSH1 0x20 ADD PUSH1 0x0 KECCAK256 SLOAD PUSH1 0x12 PUSH1 0x0 DUP10 DUP2 MSTORE PUSH1 0x20 ADD SWAP1 DUP2 MSTORE PUSH1 0x20 ADD PUSH1 0x0 KECCAK256 SLOAD PUSH1 0x13 PUSH1 0x0 DUP9 PUSH20 0xFFFFFFFFFFFFFFFFFFFFFFFFFFFFFFFFFFFFFFFF AND PUSH20 0xFFFFFFFFFFFFFFFFFFFFFFFFFFFFFFFFFFFFFFFF AND DUP2 MSTORE PUSH1 0x20 ADD SWAP1 DUP2 MSTORE PUSH1 0x20 ADD PUSH1 0x0 KECCAK256 SLOAD PUSH1 0x14 PUSH1 0x0 DUP10 PUSH20 0xFFFFFFFFFFFFFFFFFFFFFFFFFFFFFFFFFFFFFFFF AND PUSH20 0xFFFFFFFFFFFFFFFFFFFFFFFFFFFFFFFFFFFFFFFF AND DUP2 MSTORE PUSH1 0x20 ADD SWAP1 DUP2 MSTORE PUSH1 0x20 ADD PUSH1 0x0 KECCAK256 SLOAD PUSH1 0x0 PUSH2 0x3752 JUMP JUMPDEST PUSH1 0x12 PUSH1 0x0 DUP6 DUP2 MSTORE PUSH1 0x20 ADD SWAP1 DUP2 MSTORE PUSH1 0x20 ADD PUSH1 0x0 KECCAK256 SLOAD PUSH1 0x19 PUSH1 0x0 DUP5 PUSH20 0xFFFFFFFFFFFFFFFFFFFFFFFFFFFFFFFFFFFFFFFF AND PUSH20 0xFFFFFFFFFFFFFFFFFFFFFFFFFFFFFFFFFFFFFFFF AND DUP2 MSTORE PUSH1 0x20 ADD SWAP1 DUP2 MSTORE PUSH1 0x20 ADD PUSH1 0x0 KECCAK256 PUSH1 0x0 DUP3 DUP3 SLOAD PUSH2 0x2D7A SWAP2 SWAP1 PUSH2 0x428A JUMP JUMPDEST SWAP3 POP POP DUP2 SWAP1 SSTORE POP PUSH1 0xB PUSH1 0x0 DUP2 SLOAD DUP1 SWAP3 SWAP2 SWAP1 PUSH2 0x2D94 SWAP1 PUSH2 0x4A23 JUMP JUMPDEST SWAP2 SWAP1 POP SSTORE POP JUMPDEST PUSH2 0x3095 JUMP JUMPDEST PUSH1 0x7 PUSH1 0x14 PUSH1 0x0 DUP5 PUSH20 0xFFFFFFFFFFFFFFFFFFFFFFFFFFFFFFFFFFFFFFFF AND PUSH20 0xFFFFFFFFFFFFFFFFFFFFFFFFFFFFFFFFFFFFFFFF AND DUP2 MSTORE PUSH1 0x20 ADD SWAP1 DUP2 MSTORE PUSH1 0x20 ADD PUSH1 0x0 KECCAK256 SLOAD PUSH1 0x13 PUSH1 0x0 DUP6 PUSH20 0xFFFFFFFFFFFFFFFFFFFFFFFFFFFFFFFFFFFFFFFF AND PUSH20 0xFFFFFFFFFFFFFFFFFFFFFFFFFFFFFFFFFFFFFFFF AND DUP2 MSTORE PUSH1 0x20 ADD SWAP1 DUP2 MSTORE PUSH1 0x20 ADD PUSH1 0x0 KECCAK256 SLOAD PUSH2 0x2E2B SWAP2 SWAP1 PUSH2 0x428A JUMP JUMPDEST LT ISZERO PUSH2 0x2F32 JUMPI PUSH2 0x2F11 DUP3 DUP6 PUSH1 0x11 PUSH1 0x0 DUP7 PUSH20 0xFFFFFFFFFFFFFFFFFFFFFFFFFFFFFFFFFFFFFFFF AND PUSH20 0xFFFFFFFFFFFFFFFFFFFFFFFFFFFFFFFFFFFFFFFF AND DUP2 MSTORE PUSH1 0x20 ADD SWAP1 DUP2 MSTORE PUSH1 0x20 ADD PUSH1 0x0 KECCAK256 SLOAD PUSH1 0x12 PUSH1 0x0 DUP10 DUP2 MSTORE PUSH1 0x20 ADD SWAP1 DUP2 MSTORE PUSH1 0x20 ADD PUSH1 0x0 KECCAK256 SLOAD PUSH1 0x13 PUSH1 0x0 DUP9 PUSH20 0xFFFFFFFFFFFFFFFFFFFFFFFFFFFFFFFFFFFFFFFF AND PUSH20 0xFFFFFFFFFFFFFFFFFFFFFFFFFFFFFFFFFFFFFFFF AND DUP2 MSTORE PUSH1 0x20 ADD SWAP1 DUP2 MSTORE PUSH1 0x20 ADD PUSH1 0x0 KECCAK256 SLOAD PUSH1 0x14 PUSH1 0x0 DUP10 PUSH20 0xFFFFFFFFFFFFFFFFFFFFFFFFFFFFFFFFFFFFFFFF AND PUSH20 0xFFFFFFFFFFFFFFFFFFFFFFFFFFFFFFFFFFFFFFFF AND DUP2 MSTORE PUSH1 0x20 ADD SWAP1 DUP2 MSTORE PUSH1 0x20 ADD PUSH1 0x0 KECCAK256 SLOAD PUSH1 0x1 PUSH2 0x3752 JUMP JUMPDEST PUSH1 0x1 SWAP1 POP PUSH1 0x9 PUSH1 0x0 DUP2 SLOAD DUP1 SWAP3 SWAP2 SWAP1 PUSH2 0x2F28 SWAP1 PUSH2 0x4A23 JUMP JUMPDEST SWAP2 SWAP1 POP SSTORE POP PUSH2 0x3094 JUMP JUMPDEST PUSH2 0x3012 DUP3 DUP6 PUSH1 0x11 PUSH1 0x0 DUP7 PUSH20 0xFFFFFFFFFFFFFFFFFFFFFFFFFFFFFFFFFFFFFFFF AND PUSH20 0xFFFFFFFFFFFFFFFFFFFFFFFFFFFFFFFFFFFFFFFF AND DUP2 MSTORE PUSH1 0x20 ADD SWAP1 DUP2 MSTORE PUSH1 0x20 ADD PUSH1 0x0 KECCAK256 SLOAD PUSH1 0x12 PUSH1 0x0 DUP10 DUP2 MSTORE PUSH1 0x20 ADD SWAP1 DUP2 MSTORE PUSH1 0x20 ADD PUSH1 0x0 KECCAK256 SLOAD PUSH1 0x13 PUSH1 0x0 DUP9 PUSH20 0xFFFFFFFFFFFFFFFFFFFFFFFFFFFFFFFFFFFFFFFF AND PUSH20 0xFFFFFFFFFFFFFFFFFFFFFFFFFFFFFFFFFFFFFFFF AND DUP2 MSTORE PUSH1 0x20 ADD SWAP1 DUP2 MSTORE PUSH1 0x20 ADD PUSH1 0x0 KECCAK256 SLOAD PUSH1 0x14 PUSH1 0x0 DUP10 PUSH20 0xFFFFFFFFFFFFFFFFFFFFFFFFFFFFFFFFFFFFFFFF AND PUSH20 0xFFFFFFFFFFFFFFFFFFFFFFFFFFFFFFFFFFFFFFFF AND DUP2 MSTORE PUSH1 0x20 ADD SWAP1 DUP2 MSTORE PUSH1 0x20 ADD PUSH1 0x0 KECCAK256 SLOAD PUSH1 0x0 PUSH2 0x3752 JUMP JUMPDEST PUSH1 0x12 PUSH1 0x0 DUP6 DUP2 MSTORE PUSH1 0x20 ADD SWAP1 DUP2 MSTORE PUSH1 0x20 ADD PUSH1 0x0 KECCAK256 SLOAD PUSH1 0x19 PUSH1 0x0 DUP5 PUSH20 0xFFFFFFFFFFFFFFFFFFFFFFFFFFFFFFFFFFFFFFFF AND PUSH20 0xFFFFFFFFFFFFFFFFFFFFFFFFFFFFFFFFFFFFFFFF AND DUP2 MSTORE PUSH1 0x20 ADD SWAP1 DUP2 MSTORE PUSH1 0x20 ADD PUSH1 0x0 KECCAK256 PUSH1 0x0 DUP3 DUP3 SLOAD PUSH2 0x3074 SWAP2 SWAP1 PUSH2 0x428A JUMP JUMPDEST SWAP3 POP POP DUP2 SWAP1 SSTORE POP PUSH1 0xB PUSH1 0x0 DUP2 SLOAD DUP1 SWAP3 SWAP2 SWAP1 PUSH2 0x308E SWAP1 PUSH2 0x4A23 JUMP JUMPDEST SWAP2 SWAP1 POP SSTORE POP JUMPDEST JUMPDEST PUSH2 0x30B3 DUP3 PUSH1 0x12 PUSH1 0x0 DUP8 DUP2 MSTORE PUSH1 0x20 ADD SWAP1 DUP2 MSTORE PUSH1 0x20 ADD PUSH1 0x0 KECCAK256 SLOAD DUP4 PUSH2 0x38C6 JUMP JUMPDEST POP POP POP POP JUMP JUMPDEST PUSH1 0xE SLOAD PUSH2 0x30C4 PUSH2 0x1635 JUMP JUMPDEST GT PUSH2 0x30D2 JUMPI PUSH2 0x30D1 PUSH2 0x1A8A JUMP JUMPDEST JUMPDEST PUSH1 0xE SLOAD PUSH2 0x30DD PUSH2 0x1635 JUMP JUMPDEST LT ISZERO PUSH2 0x311E JUMPI PUSH1 0x40 MLOAD PUSH32 0x8C379A000000000000000000000000000000000000000000000000000000000 DUP2 MSTORE PUSH1 0x4 ADD PUSH2 0x3115 SWAP1 PUSH2 0x4ADD JUMP JUMPDEST PUSH1 0x40 MLOAD DUP1 SWAP2 SUB SWAP1 REVERT JUMPDEST PUSH2 0x3126 PUSH2 0x16CD JUMP JUMPDEST DUP2 GT ISZERO PUSH2 0x3168 JUMPI PUSH1 0x40 MLOAD PUSH32 0x8C379A000000000000000000000000000000000000000000000000000000000 DUP2 MSTORE PUSH1 0x4 ADD PUSH2 0x315F SWAP1 PUSH2 0x4B6F JUMP JUMPDEST PUSH1 0x40 MLOAD DUP1 SWAP2 SUB SWAP1 REVERT JUMPDEST PUSH1 0xD SLOAD DUP2 LT ISZERO PUSH2 0x31AD JUMPI PUSH1 0x40 MLOAD PUSH32 0x8C379A000000000000000000000000000000000000000000000000000000000 DUP2 MSTORE PUSH1 0x4 ADD PUSH2 0x31A4 SWAP1 PUSH2 0x4BDB JUMP JUMPDEST PUSH1 0x40 MLOAD DUP1 SWAP2 SUB SWAP1 REVERT JUMPDEST DUP1 PUSH1 0x27 PUSH1 0x0 SWAP1 SLOAD SWAP1 PUSH2 0x100 EXP SWAP1 DIV PUSH20 0xFFFFFFFFFFFFFFFFFFFFFFFFFFFFFFFFFFFFFFFF AND PUSH20 0xFFFFFFFFFFFFFFFFFFFFFFFFFFFFFFFFFFFFFFFF AND PUSH4 0xDD62ED3E CALLER ADDRESS PUSH1 0x40 MLOAD DUP4 PUSH4 0xFFFFFFFF AND PUSH1 0xE0 SHL DUP2 MSTORE PUSH1 0x4 ADD PUSH2 0x320B SWAP3 SWAP2 SWAP1 PUSH2 0x4381 JUMP JUMPDEST PUSH1 0x20 PUSH1 0x40 MLOAD DUP1 DUP4 SUB DUP2 DUP7 GAS STATICCALL ISZERO DUP1 ISZERO PUSH2 0x3228 JUMPI RETURNDATASIZE PUSH1 0x0 DUP1 RETURNDATACOPY RETURNDATASIZE PUSH1 0x0 REVERT JUMPDEST POP POP POP POP PUSH1 0x40 MLOAD RETURNDATASIZE PUSH1 0x1F NOT PUSH1 0x1F DUP3 ADD AND DUP3 ADD DUP1 PUSH1 0x40 MSTORE POP DUP2 ADD SWAP1 PUSH2 0x324C SWAP2 SWAP1 PUSH2 0x43BF JUMP JUMPDEST LT ISZERO PUSH2 0x328D JUMPI PUSH1 0x40 MLOAD PUSH32 0x8C379A000000000000000000000000000000000000000000000000000000000 DUP2 MSTORE PUSH1 0x4 ADD PUSH2 0x3284 SWAP1 PUSH2 0x4438 JUMP JUMPDEST PUSH1 0x40 MLOAD DUP1 SWAP2 SUB SWAP1 REVERT JUMPDEST DUP1 PUSH1 0x27 PUSH1 0x0 SWAP1 SLOAD SWAP1 PUSH2 0x100 EXP SWAP1 DIV PUSH20 0xFFFFFFFFFFFFFFFFFFFFFFFFFFFFFFFFFFFFFFFF AND PUSH20 0xFFFFFFFFFFFFFFFFFFFFFFFFFFFFFFFFFFFFFFFF AND PUSH4 0x70A08231 CALLER PUSH1 0x40 MLOAD DUP3 PUSH4 0xFFFFFFFF AND PUSH1 0xE0 SHL DUP2 MSTORE PUSH1 0x4 ADD PUSH2 0x32E9 SWAP2 SWAP1 PUSH2 0x3CF0 JUMP JUMPDEST PUSH1 0x20 PUSH1 0x40 MLOAD DUP1 DUP4 SUB DUP2 DUP7 GAS STATICCALL ISZERO DUP1 ISZERO PUSH2 0x3306 JUMPI RETURNDATASIZE PUSH1 0x0 DUP1 RETURNDATACOPY RETURNDATASIZE PUSH1 0x0 REVERT JUMPDEST POP POP POP POP PUSH1 0x40 MLOAD RETURNDATASIZE PUSH1 0x1F NOT PUSH1 0x1F DUP3 ADD AND DUP3 ADD DUP1 PUSH1 0x40 MSTORE POP DUP2 ADD SWAP1 PUSH2 0x332A SWAP2 SWAP1 PUSH2 0x43BF JUMP JUMPDEST LT ISZERO PUSH2 0x336B JUMPI PUSH1 0x40 MLOAD PUSH32 0x8C379A000000000000000000000000000000000000000000000000000000000 DUP2 MSTORE PUSH1 0x4 ADD PUSH2 0x3362 SWAP1 PUSH2 0x44A4 JUMP JUMPDEST PUSH1 0x40 MLOAD DUP1 SWAP2 SUB SWAP1 REVERT JUMPDEST PUSH1 0x0 PUSH1 0x27 PUSH1 0x0 SWAP1 SLOAD SWAP1 PUSH2 0x100 EXP SWAP1 DIV PUSH20 0xFFFFFFFFFFFFFFFFFFFFFFFFFFFFFFFFFFFFFFFF AND PUSH20 0xFFFFFFFFFFFFFFFFFFFFFFFFFFFFFFFFFFFFFFFF AND PUSH4 0x23B872DD CALLER ADDRESS DUP6 PUSH1 0x40 MLOAD DUP5 PUSH4 0xFFFFFFFF AND PUSH1 0xE0 SHL DUP2 MSTORE PUSH1 0x4 ADD PUSH2 0x33CC SWAP4 SWAP3 SWAP2 SWAP1 PUSH2 0x44C4 JUMP JUMPDEST PUSH1 0x20 PUSH1 0x40 MLOAD DUP1 DUP4 SUB DUP2 PUSH1 0x0 DUP8 GAS CALL ISZERO DUP1 ISZERO PUSH2 0x33EB JUMPI RETURNDATASIZE PUSH1 0x0 DUP1 RETURNDATACOPY RETURNDATASIZE PUSH1 0x0 REVERT JUMPDEST POP POP POP POP PUSH1 0x40 MLOAD RETURNDATASIZE PUSH1 0x1F NOT PUSH1 0x1F DUP3 ADD AND DUP3 ADD DUP1 PUSH1 0x40 MSTORE POP DUP2 ADD SWAP1 PUSH2 0x340F SWAP2 SWAP1 PUSH2 0x4527 JUMP JUMPDEST SWAP1 POP DUP1 PUSH2 0x3451 JUMPI PUSH1 0x40 MLOAD PUSH32 0x8C379A000000000000000000000000000000000000000000000000000000000 DUP2 MSTORE PUSH1 0x4 ADD PUSH2 0x3448 SWAP1 PUSH2 0x45A0 JUMP JUMPDEST PUSH1 0x40 MLOAD DUP1 SWAP2 SUB SWAP1 REVERT JUMPDEST PUSH1 0x0 PUSH1 0x13 PUSH1 0x0 CALLER PUSH20 0xFFFFFFFFFFFFFFFFFFFFFFFFFFFFFFFFFFFFFFFF AND PUSH20 0xFFFFFFFFFFFFFFFFFFFFFFFFFFFFFFFFFFFFFFFF AND DUP2 MSTORE PUSH1 0x20 ADD SWAP1 DUP2 MSTORE PUSH1 0x20 ADD PUSH1 0x0 KECCAK256 DUP2 SWAP1 SSTORE POP PUSH1 0x0 PUSH1 0x14 PUSH1 0x0 CALLER PUSH20 0xFFFFFFFFFFFFFFFFFFFFFFFFFFFFFFFFFFFFFFFF AND PUSH20 0xFFFFFFFFFFFFFFFFFFFFFFFFFFFFFFFFFFFFFFFF AND DUP2 MSTORE PUSH1 0x20 ADD SWAP1 DUP2 MSTORE PUSH1 0x20 ADD PUSH1 0x0 KECCAK256 DUP2 SWAP1 SSTORE POP PUSH1 0x15 PUSH1 0x0 CALLER PUSH20 0xFFFFFFFFFFFFFFFFFFFFFFFFFFFFFFFFFFFFFFFF AND PUSH20 0xFFFFFFFFFFFFFFFFFFFFFFFFFFFFFFFFFFFFFFFF AND DUP2 MSTORE PUSH1 0x20 ADD SWAP1 DUP2 MSTORE PUSH1 0x20 ADD PUSH1 0x0 KECCAK256 PUSH1 0x0 DUP2 SLOAD DUP1 SWAP3 SWAP2 SWAP1 PUSH2 0x352B SWAP1 PUSH2 0x4A23 JUMP JUMPDEST SWAP2 SWAP1 POP SSTORE POP PUSH1 0x1 PUSH1 0x0 SWAP1 SLOAD SWAP1 PUSH2 0x100 EXP SWAP1 DIV PUSH20 0xFFFFFFFFFFFFFFFFFFFFFFFFFFFFFFFFFFFFFFFF AND PUSH20 0xFFFFFFFFFFFFFFFFFFFFFFFFFFFFFFFFFFFFFFFF AND PUSH4 0x5D3B1D30 PUSH1 0x3 SLOAD PUSH1 0x1 PUSH1 0x14 SWAP1 SLOAD SWAP1 PUSH2 0x100 EXP SWAP1 DIV PUSH8 0xFFFFFFFFFFFFFFFF AND PUSH1 0x4 DUP1 SLOAD SWAP1 PUSH2 0x100 EXP SWAP1 DIV PUSH2 0xFFFF AND PUSH1 0x4 PUSH1 0x0 SWAP1 SLOAD SWAP1 PUSH2 0x100 EXP SWAP1 DIV PUSH4 0xFFFFFFFF AND PUSH1 0x4 PUSH1 0x6 SWAP1 SLOAD SWAP1 PUSH2 0x100 EXP SWAP1 DIV PUSH4 0xFFFFFFFF AND PUSH1 0x40 MLOAD DUP7 PUSH4 0xFFFFFFFF AND PUSH1 0xE0 SHL DUP2 MSTORE PUSH1 0x4 ADD PUSH2 0x35DD SWAP6 SWAP5 SWAP4 SWAP3 SWAP2 SWAP1 PUSH2 0x4C45 JUMP JUMPDEST PUSH1 0x20 PUSH1 0x40 MLOAD DUP1 DUP4 SUB DUP2 PUSH1 0x0 DUP8 GAS CALL ISZERO DUP1 ISZERO PUSH2 0x35FC JUMPI RETURNDATASIZE PUSH1 0x0 DUP1 RETURNDATACOPY RETURNDATASIZE PUSH1 0x0 REVERT JUMPDEST POP POP POP POP PUSH1 0x40 MLOAD RETURNDATASIZE PUSH1 0x1F NOT PUSH1 0x1F DUP3 ADD AND DUP3 ADD DUP1 PUSH1 0x40 MSTORE POP DUP2 ADD SWAP1 PUSH2 0x3620 SWAP2 SWAP1 PUSH2 0x43BF JUMP JUMPDEST PUSH1 0x6 DUP2 SWAP1 SSTORE POP DUP3 PUSH2 0xFFFF AND PUSH1 0x11 PUSH1 0x0 CALLER PUSH20 0xFFFFFFFFFFFFFFFFFFFFFFFFFFFFFFFFFFFFFFFF AND PUSH20 0xFFFFFFFFFFFFFFFFFFFFFFFFFFFFFFFFFFFFFFFF AND DUP2 MSTORE PUSH1 0x20 ADD SWAP1 DUP2 MSTORE PUSH1 0x20 ADD PUSH1 0x0 KECCAK256 DUP2 SWAP1 SSTORE POP CALLER PUSH1 0x1A PUSH1 0x0 PUSH1 0x6 SLOAD DUP2 MSTORE PUSH1 0x20 ADD SWAP1 DUP2 MSTORE PUSH1 0x20 ADD PUSH1 0x0 KECCAK256 PUSH1 0x0 PUSH2 0x100 EXP DUP2 SLOAD DUP2 PUSH20 0xFFFFFFFFFFFFFFFFFFFFFFFFFFFFFFFFFFFFFFFF MUL NOT AND SWAP1 DUP4 PUSH20 0xFFFFFFFFFFFFFFFFFFFFFFFFFFFFFFFFFFFFFFFF AND MUL OR SWAP1 SSTORE POP DUP2 PUSH1 0x8 PUSH1 0x0 DUP3 DUP3 SLOAD PUSH2 0x36D4 SWAP2 SWAP1 PUSH2 0x428A JUMP JUMPDEST SWAP3 POP POP DUP2 SWAP1 SSTORE POP DUP2 PUSH1 0x12 PUSH1 0x0 PUSH1 0x6 SLOAD DUP2 MSTORE PUSH1 0x20 ADD SWAP1 DUP2 MSTORE PUSH1 0x20 ADD PUSH1 0x0 KECCAK256 DUP2 SWAP1 SSTORE POP PUSH1 0x1 PUSH1 0x1B PUSH1 0x0 CALLER PUSH20 0xFFFFFFFFFFFFFFFFFFFFFFFFFFFFFFFFFFFFFFFF AND PUSH20 0xFFFFFFFFFFFFFFFFFFFFFFFFFFFFFFFFFFFFFFFF AND DUP2 MSTORE PUSH1 0x20 ADD SWAP1 DUP2 MSTORE PUSH1 0x20 ADD PUSH1 0x0 KECCAK256 PUSH1 0x0 PUSH2 0x100 EXP DUP2 SLOAD DUP2 PUSH1 0xFF MUL NOT AND SWAP1 DUP4 ISZERO ISZERO MUL OR SWAP1 SSTORE POP POP POP POP JUMP JUMPDEST PUSH1 0x40 MLOAD DUP1 PUSH1 0xE0 ADD PUSH1 0x40 MSTORE DUP1 DUP8 DUP2 MSTORE PUSH1 0x20 ADD DUP6 DUP2 MSTORE PUSH1 0x20 ADD DUP7 DUP2 MSTORE PUSH1 0x20 ADD DUP5 DUP2 MSTORE PUSH1 0x20 ADD DUP4 DUP2 MSTORE PUSH1 0x20 ADD DUP3 ISZERO ISZERO DUP2 MSTORE PUSH1 0x20 ADD TIMESTAMP DUP2 MSTORE POP PUSH1 0x1C PUSH1 0x0 DUP3 ADD MLOAD DUP2 PUSH1 0x0 ADD SSTORE PUSH1 0x20 DUP3 ADD MLOAD DUP2 PUSH1 0x1 ADD SSTORE PUSH1 0x40 DUP3 ADD MLOAD DUP2 PUSH1 0x2 ADD SSTORE PUSH1 0x60 DUP3 ADD MLOAD DUP2 PUSH1 0x3 ADD SSTORE PUSH1 0x80 DUP3 ADD MLOAD DUP2 PUSH1 0x4 ADD SSTORE PUSH1 0xA0 DUP3 ADD MLOAD DUP2 PUSH1 0x5 ADD PUSH1 0x0 PUSH2 0x100 EXP DUP2 SLOAD DUP2 PUSH1 0xFF MUL NOT AND SWAP1 DUP4 ISZERO ISZERO MUL OR SWAP1 SSTORE POP PUSH1 0xC0 DUP3 ADD MLOAD DUP2 PUSH1 0x6 ADD SSTORE SWAP1 POP POP PUSH1 0x23 PUSH1 0x0 DUP9 PUSH20 0xFFFFFFFFFFFFFFFFFFFFFFFFFFFFFFFFFFFFFFFF AND PUSH20 0xFFFFFFFFFFFFFFFFFFFFFFFFFFFFFFFFFFFFFFFF AND DUP2 MSTORE PUSH1 0x20 ADD SWAP1 DUP2 MSTORE PUSH1 0x20 ADD PUSH1 0x0 KECCAK256 PUSH1 0x1C SWAP1 DUP1 PUSH1 0x1 DUP2 SLOAD ADD DUP1 DUP3 SSTORE DUP1 SWAP2 POP POP PUSH1 0x1 SWAP1 SUB SWAP1 PUSH1 0x0 MSTORE PUSH1 0x20 PUSH1 0x0 KECCAK256 SWAP1 PUSH1 0x7 MUL ADD PUSH1 0x0 SWAP1 SWAP2 SWAP1 SWAP2 SWAP1 SWAP2 POP PUSH1 0x0 DUP3 ADD SLOAD DUP2 PUSH1 0x0 ADD SSTORE PUSH1 0x1 DUP3 ADD SLOAD DUP2 PUSH1 0x1 ADD SSTORE PUSH1 0x2 DUP3 ADD SLOAD DUP2 PUSH1 0x2 ADD SSTORE PUSH1 0x3 DUP3 ADD SLOAD DUP2 PUSH1 0x3 ADD SSTORE PUSH1 0x4 DUP3 ADD SLOAD DUP2 PUSH1 0x4 ADD SSTORE PUSH1 0x5 DUP3 ADD PUSH1 0x0 SWAP1 SLOAD SWAP1 PUSH2 0x100 EXP SWAP1 DIV PUSH1 0xFF AND DUP2 PUSH1 0x5 ADD PUSH1 0x0 PUSH2 0x100 EXP DUP2 SLOAD DUP2 PUSH1 0xFF MUL NOT AND SWAP1 DUP4 ISZERO ISZERO MUL OR SWAP1 SSTORE POP PUSH1 0x6 DUP3 ADD SLOAD DUP2 PUSH1 0x6 ADD SSTORE POP POP POP POP POP POP POP POP POP JUMP JUMPDEST PUSH1 0x64 PUSH1 0xF SLOAD DUP4 PUSH2 0x38D6 SWAP2 SWAP1 PUSH2 0x45C0 JUMP JUMPDEST PUSH2 0x38E0 SWAP2 SWAP1 PUSH2 0x4649 JUMP JUMPDEST PUSH1 0x10 DUP2 SWAP1 SSTORE POP PUSH1 0x0 PUSH1 0x27 PUSH1 0x0 SWAP1 SLOAD SWAP1 PUSH2 0x100 EXP SWAP1 DIV PUSH20 0xFFFFFFFFFFFFFFFFFFFFFFFFFFFFFFFFFFFFFFFF AND PUSH20 0xFFFFFFFFFFFFFFFFFFFFFFFFFFFFFFFFFFFFFFFF AND PUSH4 0xA9059CBB PUSH1 0x24 PUSH1 0x0 SWAP1 SLOAD SWAP1 PUSH2 0x100 EXP SWAP1 DIV PUSH20 0xFFFFFFFFFFFFFFFFFFFFFFFFFFFFFFFFFFFFFFFF AND PUSH1 0x10 SLOAD PUSH1 0x40 MLOAD DUP4 PUSH4 0xFFFFFFFF AND PUSH1 0xE0 SHL DUP2 MSTORE PUSH1 0x4 ADD PUSH2 0x3969 SWAP3 SWAP2 SWAP1 PUSH2 0x467A JUMP JUMPDEST PUSH1 0x20 PUSH1 0x40 MLOAD DUP1 DUP4 SUB DUP2 PUSH1 0x0 DUP8 GAS CALL ISZERO DUP1 ISZERO PUSH2 0x3988 JUMPI RETURNDATASIZE PUSH1 0x0 DUP1 RETURNDATACOPY RETURNDATASIZE PUSH1 0x0 REVERT JUMPDEST POP POP POP POP PUSH1 0x40 MLOAD RETURNDATASIZE PUSH1 0x1F NOT PUSH1 0x1F DUP3 ADD AND DUP3 ADD DUP1 PUSH1 0x40 MSTORE POP DUP2 ADD SWAP1 PUSH2 0x39AC SWAP2 SWAP1 PUSH2 0x4527 JUMP JUMPDEST SWAP1 POP DUP1 PUSH2 0x39EE JUMPI PUSH1 0x40 MLOAD PUSH32 0x8C379A000000000000000000000000000000000000000000000000000000000 DUP2 MSTORE PUSH1 0x4 ADD PUSH2 0x39E5 SWAP1 PUSH2 0x4D0A JUMP JUMPDEST PUSH1 0x40 MLOAD DUP1 SWAP2 SUB SWAP1 REVERT JUMPDEST DUP2 ISZERO PUSH2 0x3B21 JUMPI PUSH1 0x0 PUSH1 0x64 PUSH2 0x3A00 PUSH2 0x1A62 JUMP JUMPDEST DUP6 PUSH2 0x3A0B SWAP2 SWAP1 PUSH2 0x45C0 JUMP JUMPDEST PUSH2 0x3A15 SWAP2 SWAP1 PUSH2 0x4649 JUMP JUMPDEST DUP5 PUSH2 0x3A20 SWAP2 SWAP1 PUSH2 0x4D2A JUMP JUMPDEST DUP5 PUSH2 0x3A2B SWAP2 SWAP1 PUSH2 0x428A JUMP JUMPDEST SWAP1 POP DUP1 PUSH1 0xA PUSH1 0x0 DUP3 DUP3 SLOAD PUSH2 0x3A3F SWAP2 SWAP1 PUSH2 0x428A JUMP JUMPDEST SWAP3 POP POP DUP2 SWAP1 SSTORE POP DUP1 PUSH1 0x18 PUSH1 0x0 DUP8 PUSH20 0xFFFFFFFFFFFFFFFFFFFFFFFFFFFFFFFFFFFFFFFF AND PUSH20 0xFFFFFFFFFFFFFFFFFFFFFFFFFFFFFFFFFFFFFFFF AND DUP2 MSTORE PUSH1 0x20 ADD SWAP1 DUP2 MSTORE PUSH1 0x20 ADD PUSH1 0x0 KECCAK256 PUSH1 0x0 DUP3 DUP3 SLOAD PUSH2 0x3A95 SWAP2 SWAP1 PUSH2 0x428A JUMP JUMPDEST SWAP3 POP POP DUP2 SWAP1 SSTORE POP PUSH1 0x64 PUSH2 0x3AA6 PUSH2 0x1A62 JUMP JUMPDEST DUP6 PUSH2 0x3AB1 SWAP2 SWAP1 PUSH2 0x45C0 JUMP JUMPDEST PUSH2 0x3ABB SWAP2 SWAP1 PUSH2 0x4649 JUMP JUMPDEST DUP5 PUSH2 0x3AC6 SWAP2 SWAP1 PUSH2 0x4D2A JUMP JUMPDEST PUSH1 0x16 PUSH1 0x0 DUP8 PUSH20 0xFFFFFFFFFFFFFFFFFFFFFFFFFFFFFFFFFFFFFFFF AND PUSH20 0xFFFFFFFFFFFFFFFFFFFFFFFFFFFFFFFFFFFFFFFF AND DUP2 MSTORE PUSH1 0x20 ADD SWAP1 DUP2 MSTORE PUSH1 0x20 ADD PUSH1 0x0 KECCAK256 PUSH1 0x0 DUP3 DUP3 SLOAD PUSH2 0x3B14 SWAP2 SWAP1 PUSH2 0x428A JUMP JUMPDEST SWAP3 POP POP DUP2 SWAP1 SSTORE POP POP PUSH2 0x3B78 JUMP JUMPDEST DUP3 PUSH1 0x17 PUSH1 0x0 DUP7 PUSH20 0xFFFFFFFFFFFFFFFFFFFFFFFFFFFFFFFFFFFFFFFF AND PUSH20 0xFFFFFFFFFFFFFFFFFFFFFFFFFFFFFFFFFFFFFFFF AND DUP2 MSTORE PUSH1 0x20 ADD SWAP1 DUP2 MSTORE PUSH1 0x20 ADD PUSH1 0x0 KECCAK256 PUSH1 0x0 DUP3 DUP3 SLOAD PUSH2 0x3B70 SWAP2 SWAP1 PUSH2 0x428A JUMP JUMPDEST SWAP3 POP POP DUP2 SWAP1 SSTORE POP JUMPDEST POP POP POP POP JUMP JUMPDEST PUSH1 0x0 PUSH1 0x40 MLOAD SWAP1 POP SWAP1 JUMP JUMPDEST PUSH1 0x0 DUP1 REVERT JUMPDEST PUSH1 0x0 DUP1 REVERT JUMPDEST PUSH1 0x0 PUSH20 0xFFFFFFFFFFFFFFFFFFFFFFFFFFFFFFFFFFFFFFFF DUP3 AND SWAP1 POP SWAP2 SWAP1 POP JUMP JUMPDEST PUSH1 0x0 PUSH2 0x3BBD DUP3 PUSH2 0x3B92 JUMP JUMPDEST SWAP1 POP SWAP2 SWAP1 POP JUMP JUMPDEST PUSH2 0x3BCD DUP2 PUSH2 0x3BB2 JUMP JUMPDEST DUP2 EQ PUSH2 0x3BD8 JUMPI PUSH1 0x0 DUP1 REVERT JUMPDEST POP JUMP JUMPDEST PUSH1 0x0 DUP2 CALLDATALOAD SWAP1 POP PUSH2 0x3BEA DUP2 PUSH2 0x3BC4 JUMP JUMPDEST SWAP3 SWAP2 POP POP JUMP JUMPDEST PUSH1 0x0 PUSH1 0x20 DUP3 DUP5 SUB SLT ISZERO PUSH2 0x3C06 JUMPI PUSH2 0x3C05 PUSH2 0x3B88 JUMP JUMPDEST JUMPDEST PUSH1 0x0 PUSH2 0x3C14 DUP5 DUP3 DUP6 ADD PUSH2 0x3BDB JUMP JUMPDEST SWAP2 POP POP SWAP3 SWAP2 POP POP JUMP JUMPDEST PUSH1 0x0 DUP2 SWAP1 POP SWAP2 SWAP1 POP JUMP JUMPDEST PUSH2 0x3C30 DUP2 PUSH2 0x3C1D JUMP JUMPDEST DUP3 MSTORE POP POP JUMP JUMPDEST PUSH1 0x0 DUP2 ISZERO ISZERO SWAP1 POP SWAP2 SWAP1 POP JUMP JUMPDEST PUSH2 0x3C4B DUP2 PUSH2 0x3C36 JUMP JUMPDEST DUP3 MSTORE POP POP JUMP JUMPDEST PUSH1 0x0 PUSH1 0x60 DUP3 ADD SWAP1 POP PUSH2 0x3C66 PUSH1 0x0 DUP4 ADD DUP7 PUSH2 0x3C27 JUMP JUMPDEST PUSH2 0x3C73 PUSH1 0x20 DUP4 ADD DUP6 PUSH2 0x3C27 JUMP JUMPDEST PUSH2 0x3C80 PUSH1 0x40 DUP4 ADD DUP5 PUSH2 0x3C42 JUMP JUMPDEST SWAP5 SWAP4 POP POP POP POP JUMP JUMPDEST PUSH2 0x3C91 DUP2 PUSH2 0x3C1D JUMP JUMPDEST DUP2 EQ PUSH2 0x3C9C JUMPI PUSH1 0x0 DUP1 REVERT JUMPDEST POP JUMP JUMPDEST PUSH1 0x0 DUP2 CALLDATALOAD SWAP1 POP PUSH2 0x3CAE DUP2 PUSH2 0x3C88 JUMP JUMPDEST SWAP3 SWAP2 POP POP JUMP JUMPDEST PUSH1 0x0 PUSH1 0x20 DUP3 DUP5 SUB SLT ISZERO PUSH2 0x3CCA JUMPI PUSH2 0x3CC9 PUSH2 0x3B88 JUMP JUMPDEST JUMPDEST PUSH1 0x0 PUSH2 0x3CD8 DUP5 DUP3 DUP6 ADD PUSH2 0x3C9F JUMP JUMPDEST SWAP2 POP POP SWAP3 SWAP2 POP POP JUMP JUMPDEST PUSH2 0x3CEA DUP2 PUSH2 0x3BB2 JUMP JUMPDEST DUP3 MSTORE POP POP JUMP JUMPDEST PUSH1 0x0 PUSH1 0x20 DUP3 ADD SWAP1 POP PUSH2 0x3D05 PUSH1 0x0 DUP4 ADD DUP5 PUSH2 0x3CE1 JUMP JUMPDEST SWAP3 SWAP2 POP POP JUMP JUMPDEST PUSH1 0x0 PUSH1 0x20 DUP3 ADD SWAP1 POP PUSH2 0x3D20 PUSH1 0x0 DUP4 ADD DUP5 PUSH2 0x3C27 JUMP JUMPDEST SWAP3 SWAP2 POP POP JUMP JUMPDEST PUSH1 0x0 DUP1 REVERT JUMPDEST PUSH1 0x0 PUSH1 0x1F NOT PUSH1 0x1F DUP4 ADD AND SWAP1 POP SWAP2 SWAP1 POP JUMP JUMPDEST PUSH32 0x4E487B7100000000000000000000000000000000000000000000000000000000 PUSH1 0x0 MSTORE PUSH1 0x41 PUSH1 0x4 MSTORE PUSH1 0x24 PUSH1 0x0 REVERT JUMPDEST PUSH2 0x3D74 DUP3 PUSH2 0x3D2B JUMP JUMPDEST DUP2 ADD DUP2 DUP2 LT PUSH8 0xFFFFFFFFFFFFFFFF DUP3 GT OR ISZERO PUSH2 0x3D93 JUMPI PUSH2 0x3D92 PUSH2 0x3D3C JUMP JUMPDEST JUMPDEST DUP1 PUSH1 0x40 MSTORE POP POP POP JUMP JUMPDEST PUSH1 0x0 PUSH2 0x3DA6 PUSH2 0x3B7E JUMP JUMPDEST SWAP1 POP PUSH2 0x3DB2 DUP3 DUP3 PUSH2 0x3D6B JUMP JUMPDEST SWAP2 SWAP1 POP JUMP JUMPDEST PUSH1 0x0 PUSH8 0xFFFFFFFFFFFFFFFF DUP3 GT ISZERO PUSH2 0x3DD2 JUMPI PUSH2 0x3DD1 PUSH2 0x3D3C JUMP JUMPDEST JUMPDEST PUSH1 0x20 DUP3 MUL SWAP1 POP PUSH1 0x20 DUP2 ADD SWAP1 POP SWAP2 SWAP1 POP JUMP JUMPDEST PUSH1 0x0 DUP1 REVERT JUMPDEST PUSH1 0x0 PUSH2 0x3DFB PUSH2 0x3DF6 DUP5 PUSH2 0x3DB7 JUMP JUMPDEST PUSH2 0x3D9C JUMP JUMPDEST SWAP1 POP DUP1 DUP4 DUP3 MSTORE PUSH1 0x20 DUP3 ADD SWAP1 POP PUSH1 0x20 DUP5 MUL DUP4 ADD DUP6 DUP2 GT ISZERO PUSH2 0x3E1E JUMPI PUSH2 0x3E1D PUSH2 0x3DE3 JUMP JUMPDEST JUMPDEST DUP4 JUMPDEST DUP2 DUP2 LT ISZERO PUSH2 0x3E47 JUMPI DUP1 PUSH2 0x3E33 DUP9 DUP3 PUSH2 0x3C9F JUMP JUMPDEST DUP5 MSTORE PUSH1 0x20 DUP5 ADD SWAP4 POP POP PUSH1 0x20 DUP2 ADD SWAP1 POP PUSH2 0x3E20 JUMP JUMPDEST POP POP POP SWAP4 SWAP3 POP POP POP JUMP JUMPDEST PUSH1 0x0 DUP3 PUSH1 0x1F DUP4 ADD SLT PUSH2 0x3E66 JUMPI PUSH2 0x3E65 PUSH2 0x3D26 JUMP JUMPDEST JUMPDEST DUP2 CALLDATALOAD PUSH2 0x3E76 DUP5 DUP3 PUSH1 0x20 DUP7 ADD PUSH2 0x3DE8 JUMP JUMPDEST SWAP2 POP POP SWAP3 SWAP2 POP POP JUMP JUMPDEST PUSH1 0x0 DUP1 PUSH1 0x40 DUP4 DUP6 SUB SLT ISZERO PUSH2 0x3E96 JUMPI PUSH2 0x3E95 PUSH2 0x3B88 JUMP JUMPDEST JUMPDEST PUSH1 0x0 PUSH2 0x3EA4 DUP6 DUP3 DUP7 ADD PUSH2 0x3C9F JUMP JUMPDEST SWAP3 POP POP PUSH1 0x20 DUP4 ADD CALLDATALOAD PUSH8 0xFFFFFFFFFFFFFFFF DUP2 GT ISZERO PUSH2 0x3EC5 JUMPI PUSH2 0x3EC4 PUSH2 0x3B8D JUMP JUMPDEST JUMPDEST PUSH2 0x3ED1 DUP6 DUP3 DUP7 ADD PUSH2 0x3E51 JUMP JUMPDEST SWAP2 POP POP SWAP3 POP SWAP3 SWAP1 POP JUMP JUMPDEST PUSH1 0x0 PUSH1 0x20 DUP3 ADD SWAP1 POP PUSH2 0x3EF0 PUSH1 0x0 DUP4 ADD DUP5 PUSH2 0x3C42 JUMP JUMPDEST SWAP3 SWAP2 POP POP JUMP JUMPDEST PUSH1 0x0 DUP1 PUSH1 0x40 DUP4 DUP6 SUB SLT ISZERO PUSH2 0x3F0D JUMPI PUSH2 0x3F0C PUSH2 0x3B88 JUMP JUMPDEST JUMPDEST PUSH1 0x0 PUSH2 0x3F1B DUP6 DUP3 DUP7 ADD PUSH2 0x3BDB JUMP JUMPDEST SWAP3 POP POP PUSH1 0x20 PUSH2 0x3F2C DUP6 DUP3 DUP7 ADD PUSH2 0x3C9F JUMP JUMPDEST SWAP2 POP POP SWAP3 POP SWAP3 SWAP1 POP JUMP JUMPDEST PUSH1 0x0 PUSH1 0xE0 DUP3 ADD SWAP1 POP PUSH2 0x3F4B PUSH1 0x0 DUP4 ADD DUP11 PUSH2 0x3C27 JUMP JUMPDEST PUSH2 0x3F58 PUSH1 0x20 DUP4 ADD DUP10 PUSH2 0x3C27 JUMP JUMPDEST PUSH2 0x3F65 PUSH1 0x40 DUP4 ADD DUP9 PUSH2 0x3C27 JUMP JUMPDEST PUSH2 0x3F72 PUSH1 0x60 DUP4 ADD DUP8 PUSH2 0x3C27 JUMP JUMPDEST PUSH2 0x3F7F PUSH1 0x80 DUP4 ADD DUP7 PUSH2 0x3C27 JUMP JUMPDEST PUSH2 0x3F8C PUSH1 0xA0 DUP4 ADD DUP6 PUSH2 0x3C42 JUMP JUMPDEST PUSH2 0x3F99 PUSH1 0xC0 DUP4 ADD DUP5 PUSH2 0x3C27 JUMP JUMPDEST SWAP9 SWAP8 POP POP POP POP POP POP POP POP JUMP JUMPDEST PUSH1 0x0 DUP2 SWAP1 POP SWAP2 SWAP1 POP JUMP JUMPDEST PUSH2 0x3FB8 DUP2 PUSH2 0x3FA5 JUMP JUMPDEST DUP2 EQ PUSH2 0x3FC3 JUMPI PUSH1 0x0 DUP1 REVERT JUMPDEST POP JUMP JUMPDEST PUSH1 0x0 DUP2 CALLDATALOAD SWAP1 POP PUSH2 0x3FD5 DUP2 PUSH2 0x3FAF JUMP JUMPDEST SWAP3 SWAP2 POP POP JUMP JUMPDEST PUSH1 0x0 PUSH1 0x20 DUP3 DUP5 SUB SLT ISZERO PUSH2 0x3FF1 JUMPI PUSH2 0x3FF0 PUSH2 0x3B88 JUMP JUMPDEST JUMPDEST PUSH1 0x0 PUSH2 0x3FFF DUP5 DUP3 DUP6 ADD PUSH2 0x3FC6 JUMP JUMPDEST SWAP2 POP POP SWAP3 SWAP2 POP POP JUMP JUMPDEST PUSH1 0x0 PUSH4 0xFFFFFFFF DUP3 AND SWAP1 POP SWAP2 SWAP1 POP JUMP JUMPDEST PUSH2 0x4021 DUP2 PUSH2 0x4008 JUMP JUMPDEST DUP2 EQ PUSH2 0x402C JUMPI PUSH1 0x0 DUP1 REVERT JUMPDEST POP JUMP JUMPDEST PUSH1 0x0 DUP2 CALLDATALOAD SWAP1 POP PUSH2 0x403E DUP2 PUSH2 0x4018 JUMP JUMPDEST SWAP3 SWAP2 POP POP JUMP JUMPDEST PUSH1 0x0 PUSH1 0x20 DUP3 DUP5 SUB SLT ISZERO PUSH2 0x405A JUMPI PUSH2 0x4059 PUSH2 0x3B88 JUMP JUMPDEST JUMPDEST PUSH1 0x0 PUSH2 0x4068 DUP5 DUP3 DUP6 ADD PUSH2 0x402F JUMP JUMPDEST SWAP2 POP POP SWAP3 SWAP2 POP POP JUMP JUMPDEST PUSH1 0x0 DUP2 MLOAD SWAP1 POP SWAP2 SWAP1 POP JUMP JUMPDEST PUSH1 0x0 DUP3 DUP3 MSTORE PUSH1 0x20 DUP3 ADD SWAP1 POP SWAP3 SWAP2 POP POP JUMP JUMPDEST PUSH1 0x0 DUP2 SWAP1 POP PUSH1 0x20 DUP3 ADD SWAP1 POP SWAP2 SWAP1 POP JUMP JUMPDEST PUSH2 0x40A6 DUP2 PUSH2 0x3C1D JUMP JUMPDEST DUP3 MSTORE POP POP JUMP JUMPDEST PUSH2 0x40B5 DUP2 PUSH2 0x3C36 JUMP JUMPDEST DUP3 MSTORE POP POP JUMP JUMPDEST PUSH1 0xE0 DUP3 ADD PUSH1 0x0 DUP3 ADD MLOAD PUSH2 0x40D1 PUSH1 0x0 DUP6 ADD DUP3 PUSH2 0x409D JUMP JUMPDEST POP PUSH1 0x20 DUP3 ADD MLOAD PUSH2 0x40E4 PUSH1 0x20 DUP6 ADD DUP3 PUSH2 0x409D JUMP JUMPDEST POP PUSH1 0x40 DUP3 ADD MLOAD PUSH2 0x40F7 PUSH1 0x40 DUP6 ADD DUP3 PUSH2 0x409D JUMP JUMPDEST POP PUSH1 0x60 DUP3 ADD MLOAD PUSH2 0x410A PUSH1 0x60 DUP6 ADD DUP3 PUSH2 0x409D JUMP JUMPDEST POP PUSH1 0x80 DUP3 ADD MLOAD PUSH2 0x411D PUSH1 0x80 DUP6 ADD DUP3 PUSH2 0x409D JUMP JUMPDEST POP PUSH1 0xA0 DUP3 ADD MLOAD PUSH2 0x4130 PUSH1 0xA0 DUP6 ADD DUP3 PUSH2 0x40AC JUMP JUMPDEST POP PUSH1 0xC0 DUP3 ADD MLOAD PUSH2 0x4143 PUSH1 0xC0 DUP6 ADD DUP3 PUSH2 0x409D JUMP JUMPDEST POP POP POP POP JUMP JUMPDEST PUSH1 0x0 PUSH2 0x4155 DUP4 DUP4 PUSH2 0x40BB JUMP JUMPDEST PUSH1 0xE0 DUP4 ADD SWAP1 POP SWAP3 SWAP2 POP POP JUMP JUMPDEST PUSH1 0x0 PUSH1 0x20 DUP3 ADD SWAP1 POP SWAP2 SWAP1 POP JUMP JUMPDEST PUSH1 0x0 PUSH2 0x4179 DUP3 PUSH2 0x4071 JUMP JUMPDEST PUSH2 0x4183 DUP2 DUP6 PUSH2 0x407C JUMP JUMPDEST SWAP4 POP PUSH2 0x418E DUP4 PUSH2 0x408D JUMP JUMPDEST DUP1 PUSH1 0x0 JUMPDEST DUP4 DUP2 LT ISZERO PUSH2 0x41BF JUMPI DUP2 MLOAD PUSH2 0x41A6 DUP9 DUP3 PUSH2 0x4149 JUMP JUMPDEST SWAP8 POP PUSH2 0x41B1 DUP4 PUSH2 0x4161 JUMP JUMPDEST SWAP3 POP POP PUSH1 0x1 DUP2 ADD SWAP1 POP PUSH2 0x4192 JUMP JUMPDEST POP DUP6 SWAP4 POP POP POP POP SWAP3 SWAP2 POP POP JUMP JUMPDEST PUSH1 0x0 PUSH1 0x20 DUP3 ADD SWAP1 POP DUP2 DUP2 SUB PUSH1 0x0 DUP4 ADD MSTORE PUSH2 0x41E6 DUP2 DUP5 PUSH2 0x416E JUMP JUMPDEST SWAP1 POP SWAP3 SWAP2 POP POP JUMP JUMPDEST PUSH1 0x0 PUSH8 0xFFFFFFFFFFFFFFFF DUP3 AND SWAP1 POP SWAP2 SWAP1 POP JUMP JUMPDEST PUSH2 0x420B DUP2 PUSH2 0x41EE JUMP JUMPDEST DUP2 EQ PUSH2 0x4216 JUMPI PUSH1 0x0 DUP1 REVERT JUMPDEST POP JUMP JUMPDEST PUSH1 0x0 DUP2 CALLDATALOAD SWAP1 POP PUSH2 0x4228 DUP2 PUSH2 0x4202 JUMP JUMPDEST SWAP3 SWAP2 POP POP JUMP JUMPDEST PUSH1 0x0 PUSH1 0x20 DUP3 DUP5 SUB SLT ISZERO PUSH2 0x4244 JUMPI PUSH2 0x4243 PUSH2 0x3B88 JUMP JUMPDEST JUMPDEST PUSH1 0x0 PUSH2 0x4252 DUP5 DUP3 DUP6 ADD PUSH2 0x4219 JUMP JUMPDEST SWAP2 POP POP SWAP3 SWAP2 POP POP JUMP JUMPDEST PUSH32 0x4E487B7100000000000000000000000000000000000000000000000000000000 PUSH1 0x0 MSTORE PUSH1 0x11 PUSH1 0x4 MSTORE PUSH1 0x24 PUSH1 0x0 REVERT JUMPDEST PUSH1 0x0 PUSH2 0x4295 DUP3 PUSH2 0x3C1D JUMP JUMPDEST SWAP2 POP PUSH2 0x42A0 DUP4 PUSH2 0x3C1D JUMP JUMPDEST SWAP3 POP DUP3 DUP3 ADD SWAP1 POP DUP1 DUP3 GT ISZERO PUSH2 0x42B8 JUMPI PUSH2 0x42B7 PUSH2 0x425B JUMP JUMPDEST JUMPDEST SWAP3 SWAP2 POP POP JUMP JUMPDEST PUSH1 0x0 DUP2 SWAP1 POP SWAP3 SWAP2 POP POP JUMP JUMPDEST POP JUMP JUMPDEST PUSH1 0x0 PUSH2 0x42D9 PUSH1 0x0 DUP4 PUSH2 0x42BE JUMP JUMPDEST SWAP2 POP PUSH2 0x42E4 DUP3 PUSH2 0x42C9 JUMP JUMPDEST PUSH1 0x0 DUP3 ADD SWAP1 POP SWAP2 SWAP1 POP JUMP JUMPDEST PUSH1 0x0 PUSH2 0x42FA DUP3 PUSH2 0x42CC JUMP JUMPDEST SWAP2 POP DUP2 SWAP1 POP SWAP2 SWAP1 POP JUMP JUMPDEST PUSH1 0x0 DUP3 DUP3 MSTORE PUSH1 0x20 DUP3 ADD SWAP1 POP SWAP3 SWAP2 POP POP JUMP JUMPDEST PUSH32 0x5472616E73666572206661696C65642E00000000000000000000000000000000 PUSH1 0x0 DUP3 ADD MSTORE POP JUMP JUMPDEST PUSH1 0x0 PUSH2 0x434B PUSH1 0x10 DUP4 PUSH2 0x4304 JUMP JUMPDEST SWAP2 POP PUSH2 0x4356 DUP3 PUSH2 0x4315 JUMP JUMPDEST PUSH1 0x20 DUP3 ADD SWAP1 POP SWAP2 SWAP1 POP JUMP JUMPDEST PUSH1 0x0 PUSH1 0x20 DUP3 ADD SWAP1 POP DUP2 DUP2 SUB PUSH1 0x0 DUP4 ADD MSTORE PUSH2 0x437A DUP2 PUSH2 0x433E JUMP JUMPDEST SWAP1 POP SWAP2 SWAP1 POP JUMP JUMPDEST PUSH1 0x0 PUSH1 0x40 DUP3 ADD SWAP1 POP PUSH2 0x4396 PUSH1 0x0 DUP4 ADD DUP6 PUSH2 0x3CE1 JUMP JUMPDEST PUSH2 0x43A3 PUSH1 0x20 DUP4 ADD DUP5 PUSH2 0x3CE1 JUMP JUMPDEST SWAP4 SWAP3 POP POP POP JUMP JUMPDEST PUSH1 0x0 DUP2 MLOAD SWAP1 POP PUSH2 0x43B9 DUP2 PUSH2 0x3C88 JUMP JUMPDEST SWAP3 SWAP2 POP POP JUMP JUMPDEST PUSH1 0x0 PUSH1 0x20 DUP3 DUP5 SUB SLT ISZERO PUSH2 0x43D5 JUMPI PUSH2 0x43D4 PUSH2 0x3B88 JUMP JUMPDEST JUMPDEST PUSH1 0x0 PUSH2 0x43E3 DUP5 DUP3 DUP6 ADD PUSH2 0x43AA JUMP JUMPDEST SWAP2 POP POP SWAP3 SWAP2 POP POP JUMP JUMPDEST PUSH32 0x4E6F7420656E6F75676820616C6C6F77616E6365000000000000000000000000 PUSH1 0x0 DUP3 ADD MSTORE POP JUMP JUMPDEST PUSH1 0x0 PUSH2 0x4422 PUSH1 0x14 DUP4 PUSH2 0x4304 JUMP JUMPDEST SWAP2 POP PUSH2 0x442D DUP3 PUSH2 0x43EC JUMP JUMPDEST PUSH1 0x20 DUP3 ADD SWAP1 POP SWAP2 SWAP1 POP JUMP JUMPDEST PUSH1 0x0 PUSH1 0x20 DUP3 ADD SWAP1 POP DUP2 DUP2 SUB PUSH1 0x0 DUP4 ADD MSTORE PUSH2 0x4451 DUP2 PUSH2 0x4415 JUMP JUMPDEST SWAP1 POP SWAP2 SWAP1 POP JUMP JUMPDEST PUSH32 0x496E73756666696369656E7420425553442062616C616E636500000000000000 PUSH1 0x0 DUP3 ADD MSTORE POP JUMP JUMPDEST PUSH1 0x0 PUSH2 0x448E PUSH1 0x19 DUP4 PUSH2 0x4304 JUMP JUMPDEST SWAP2 POP PUSH2 0x4499 DUP3 PUSH2 0x4458 JUMP JUMPDEST PUSH1 0x20 DUP3 ADD SWAP1 POP SWAP2 SWAP1 POP JUMP JUMPDEST PUSH1 0x0 PUSH1 0x20 DUP3 ADD SWAP1 POP DUP2 DUP2 SUB PUSH1 0x0 DUP4 ADD MSTORE PUSH2 0x44BD DUP2 PUSH2 0x4481 JUMP JUMPDEST SWAP1 POP SWAP2 SWAP1 POP JUMP JUMPDEST PUSH1 0x0 PUSH1 0x60 DUP3 ADD SWAP1 POP PUSH2 0x44D9 PUSH1 0x0 DUP4 ADD DUP7 PUSH2 0x3CE1 JUMP JUMPDEST PUSH2 0x44E6 PUSH1 0x20 DUP4 ADD DUP6 PUSH2 0x3CE1 JUMP JUMPDEST PUSH2 0x44F3 PUSH1 0x40 DUP4 ADD DUP5 PUSH2 0x3C27 JUMP JUMPDEST SWAP5 SWAP4 POP POP POP POP JUMP JUMPDEST PUSH2 0x4504 DUP2 PUSH2 0x3C36 JUMP JUMPDEST DUP2 EQ PUSH2 0x450F JUMPI PUSH1 0x0 DUP1 REVERT JUMPDEST POP JUMP JUMPDEST PUSH1 0x0 DUP2 MLOAD SWAP1 POP PUSH2 0x4521 DUP2 PUSH2 0x44FB JUMP JUMPDEST SWAP3 SWAP2 POP POP JUMP JUMPDEST PUSH1 0x0 PUSH1 0x20 DUP3 DUP5 SUB SLT ISZERO PUSH2 0x453D JUMPI PUSH2 0x453C PUSH2 0x3B88 JUMP JUMPDEST JUMPDEST PUSH1 0x0 PUSH2 0x454B DUP5 DUP3 DUP6 ADD PUSH2 0x4512 JUMP JUMPDEST SWAP2 POP POP SWAP3 SWAP2 POP POP JUMP JUMPDEST PUSH32 0x42555344205472616E73666572206661696C65642E0000000000000000000000 PUSH1 0x0 DUP3 ADD MSTORE POP JUMP JUMPDEST PUSH1 0x0 PUSH2 0x458A PUSH1 0x15 DUP4 PUSH2 0x4304 JUMP JUMPDEST SWAP2 POP PUSH2 0x4595 DUP3 PUSH2 0x4554 JUMP JUMPDEST PUSH1 0x20 DUP3 ADD SWAP1 POP SWAP2 SWAP1 POP JUMP JUMPDEST PUSH1 0x0 PUSH1 0x20 DUP3 ADD SWAP1 POP DUP2 DUP2 SUB PUSH1 0x0 DUP4 ADD MSTORE PUSH2 0x45B9 DUP2 PUSH2 0x457D JUMP JUMPDEST SWAP1 POP SWAP2 SWAP1 POP JUMP JUMPDEST PUSH1 0x0 PUSH2 0x45CB DUP3 PUSH2 0x3C1D JUMP JUMPDEST SWAP2 POP PUSH2 0x45D6 DUP4 PUSH2 0x3C1D JUMP JUMPDEST SWAP3 POP DUP2 PUSH32 0xFFFFFFFFFFFFFFFFFFFFFFFFFFFFFFFFFFFFFFFFFFFFFFFFFFFFFFFFFFFFFFFF DIV DUP4 GT DUP3 ISZERO ISZERO AND ISZERO PUSH2 0x460F JUMPI PUSH2 0x460E PUSH2 0x425B JUMP JUMPDEST JUMPDEST DUP3 DUP3 MUL SWAP1 POP SWAP3 SWAP2 POP POP JUMP JUMPDEST PUSH32 0x4E487B7100000000000000000000000000000000000000000000000000000000 PUSH1 0x0 MSTORE PUSH1 0x12 PUSH1 0x4 MSTORE PUSH1 0x24 PUSH1 0x0 REVERT JUMPDEST PUSH1 0x0 PUSH2 0x4654 DUP3 PUSH2 0x3C1D JUMP JUMPDEST SWAP2 POP PUSH2 0x465F DUP4 PUSH2 0x3C1D JUMP JUMPDEST SWAP3 POP DUP3 PUSH2 0x466F JUMPI PUSH2 0x466E PUSH2 0x461A JUMP JUMPDEST JUMPDEST DUP3 DUP3 DIV SWAP1 POP SWAP3 SWAP2 POP POP JUMP JUMPDEST PUSH1 0x0 PUSH1 0x40 DUP3 ADD SWAP1 POP PUSH2 0x468F PUSH1 0x0 DUP4 ADD DUP6 PUSH2 0x3CE1 JUMP JUMPDEST PUSH2 0x469C PUSH1 0x20 DUP4 ADD DUP5 PUSH2 0x3C27 JUMP JUMPDEST SWAP4 SWAP3 POP POP POP JUMP JUMPDEST PUSH32 0x496E73756666696369656E7420636F6E747261637420424E422062616C616E63 PUSH1 0x0 DUP3 ADD MSTORE PUSH32 0x6500000000000000000000000000000000000000000000000000000000000000 PUSH1 0x20 DUP3 ADD MSTORE POP JUMP JUMPDEST PUSH1 0x0 PUSH2 0x46FF PUSH1 0x21 DUP4 PUSH2 0x4304 JUMP JUMPDEST SWAP2 POP PUSH2 0x470A DUP3 PUSH2 0x46A3 JUMP JUMPDEST PUSH1 0x40 DUP3 ADD SWAP1 POP SWAP2 SWAP1 POP JUMP JUMPDEST PUSH1 0x0 PUSH1 0x20 DUP3 ADD SWAP1 POP DUP2 DUP2 SUB PUSH1 0x0 DUP4 ADD MSTORE PUSH2 0x472E DUP2 PUSH2 0x46F2 JUMP JUMPDEST SWAP1 POP SWAP2 SWAP1 POP JUMP JUMPDEST PUSH32 0x436F6E747261637420646F65736E74206861766520616E792042555344206261 PUSH1 0x0 DUP3 ADD MSTORE PUSH32 0x6C616E6365000000000000000000000000000000000000000000000000000000 PUSH1 0x20 DUP3 ADD MSTORE POP JUMP JUMPDEST PUSH1 0x0 PUSH2 0x4791 PUSH1 0x25 DUP4 PUSH2 0x4304 JUMP JUMPDEST SWAP2 POP PUSH2 0x479C DUP3 PUSH2 0x4735 JUMP JUMPDEST PUSH1 0x40 DUP3 ADD SWAP1 POP SWAP2 SWAP1 POP JUMP JUMPDEST PUSH1 0x0 PUSH1 0x20 DUP3 ADD SWAP1 POP DUP2 DUP2 SUB PUSH1 0x0 DUP4 ADD MSTORE PUSH2 0x47C0 DUP2 PUSH2 0x4784 JUMP JUMPDEST SWAP1 POP SWAP2 SWAP1 POP JUMP JUMPDEST PUSH32 0x436F6E747261637420646F65736E74206861766520616E7920424E422062616C PUSH1 0x0 DUP3 ADD MSTORE PUSH32 0x616E636520666F72204C494E4B20746F6B656E73207075726368617365000000 PUSH1 0x20 DUP3 ADD MSTORE POP JUMP JUMPDEST PUSH1 0x0 PUSH2 0x4823 PUSH1 0x3D DUP4 PUSH2 0x4304 JUMP JUMPDEST SWAP2 POP PUSH2 0x482E DUP3 PUSH2 0x47C7 JUMP JUMPDEST PUSH1 0x40 DUP3 ADD SWAP1 POP SWAP2 SWAP1 POP JUMP JUMPDEST PUSH1 0x0 PUSH1 0x20 DUP3 ADD SWAP1 POP DUP2 DUP2 SUB PUSH1 0x0 DUP4 ADD MSTORE PUSH2 0x4852 DUP2 PUSH2 0x4816 JUMP JUMPDEST SWAP1 POP SWAP2 SWAP1 POP JUMP JUMPDEST PUSH32 0x5265656E7472616E637947756172643A207265656E7472616E742063616C6C00 PUSH1 0x0 DUP3 ADD MSTORE POP JUMP JUMPDEST PUSH1 0x0 PUSH2 0x488F PUSH1 0x1F DUP4 PUSH2 0x4304 JUMP JUMPDEST SWAP2 POP PUSH2 0x489A DUP3 PUSH2 0x4859 JUMP JUMPDEST PUSH1 0x20 DUP3 ADD SWAP1 POP SWAP2 SWAP1 POP JUMP JUMPDEST PUSH1 0x0 PUSH1 0x20 DUP3 ADD SWAP1 POP DUP2 DUP2 SUB PUSH1 0x0 DUP4 ADD MSTORE PUSH2 0x48BE DUP2 PUSH2 0x4882 JUMP JUMPDEST SWAP1 POP SWAP2 SWAP1 POP JUMP JUMPDEST PUSH32 0x496E73756666696369656E7420636F6E747261637420425553442062616C616E PUSH1 0x0 DUP3 ADD MSTORE PUSH32 0x6365000000000000000000000000000000000000000000000000000000000000 PUSH1 0x20 DUP3 ADD MSTORE POP JUMP JUMPDEST PUSH1 0x0 PUSH2 0x4921 PUSH1 0x22 DUP4 PUSH2 0x4304 JUMP JUMPDEST SWAP2 POP PUSH2 0x492C DUP3 PUSH2 0x48C5 JUMP JUMPDEST PUSH1 0x40 DUP3 ADD SWAP1 POP SWAP2 SWAP1 POP JUMP JUMPDEST PUSH1 0x0 PUSH1 0x20 DUP3 ADD SWAP1 POP DUP2 DUP2 SUB PUSH1 0x0 DUP4 ADD MSTORE PUSH2 0x4950 DUP2 PUSH2 0x4914 JUMP JUMPDEST SWAP1 POP SWAP2 SWAP1 POP JUMP JUMPDEST PUSH32 0x546F6B656E205472616E73666572206661696C65642E00000000000000000000 PUSH1 0x0 DUP3 ADD MSTORE POP JUMP JUMPDEST PUSH1 0x0 PUSH2 0x498D PUSH1 0x16 DUP4 PUSH2 0x4304 JUMP JUMPDEST SWAP2 POP PUSH2 0x4998 DUP3 PUSH2 0x4957 JUMP JUMPDEST PUSH1 0x20 DUP3 ADD SWAP1 POP SWAP2 SWAP1 POP JUMP JUMPDEST PUSH1 0x0 PUSH1 0x20 DUP3 ADD SWAP1 POP DUP2 DUP2 SUB PUSH1 0x0 DUP4 ADD MSTORE PUSH2 0x49BC DUP2 PUSH2 0x4980 JUMP JUMPDEST SWAP1 POP SWAP2 SWAP1 POP JUMP JUMPDEST PUSH32 0x4E487B7100000000000000000000000000000000000000000000000000000000 PUSH1 0x0 MSTORE PUSH1 0x32 PUSH1 0x4 MSTORE PUSH1 0x24 PUSH1 0x0 REVERT JUMPDEST PUSH1 0x0 PUSH2 0x49FD DUP3 PUSH2 0x3C1D JUMP JUMPDEST SWAP2 POP PUSH2 0x4A08 DUP4 PUSH2 0x3C1D JUMP JUMPDEST SWAP3 POP DUP3 PUSH2 0x4A18 JUMPI PUSH2 0x4A17 PUSH2 0x461A JUMP JUMPDEST JUMPDEST DUP3 DUP3 MOD SWAP1 POP SWAP3 SWAP2 POP POP JUMP JUMPDEST PUSH1 0x0 PUSH2 0x4A2E DUP3 PUSH2 0x3C1D JUMP JUMPDEST SWAP2 POP PUSH32 0xFFFFFFFFFFFFFFFFFFFFFFFFFFFFFFFFFFFFFFFFFFFFFFFFFFFFFFFFFFFFFFFF DUP3 SUB PUSH2 0x4A60 JUMPI PUSH2 0x4A5F PUSH2 0x425B JUMP JUMPDEST JUMPDEST PUSH1 0x1 DUP3 ADD SWAP1 POP SWAP2 SWAP1 POP JUMP JUMPDEST PUSH32 0x496E73756666696369656E7420436861696E6C696E6B20565246207375627363 PUSH1 0x0 DUP3 ADD MSTORE PUSH32 0x72697074696F6E2062616C616E63650000000000000000000000000000000000 PUSH1 0x20 DUP3 ADD MSTORE POP JUMP JUMPDEST PUSH1 0x0 PUSH2 0x4AC7 PUSH1 0x2F DUP4 PUSH2 0x4304 JUMP JUMPDEST SWAP2 POP PUSH2 0x4AD2 DUP3 PUSH2 0x4A6B JUMP JUMPDEST PUSH1 0x40 DUP3 ADD SWAP1 POP SWAP2 SWAP1 POP JUMP JUMPDEST PUSH1 0x0 PUSH1 0x20 DUP3 ADD SWAP1 POP DUP2 DUP2 SUB PUSH1 0x0 DUP4 ADD MSTORE PUSH2 0x4AF6 DUP2 PUSH2 0x4ABA JUMP JUMPDEST SWAP1 POP SWAP2 SWAP1 POP JUMP JUMPDEST PUSH32 0x596F752063616E206E6F7420626574206D6F7265207468616E206D6178696D75 PUSH1 0x0 DUP3 ADD MSTORE PUSH32 0x6D20616C6C6F776564206C696D69740000000000000000000000000000000000 PUSH1 0x20 DUP3 ADD MSTORE POP JUMP JUMPDEST PUSH1 0x0 PUSH2 0x4B59 PUSH1 0x2F DUP4 PUSH2 0x4304 JUMP JUMPDEST SWAP2 POP PUSH2 0x4B64 DUP3 PUSH2 0x4AFD JUMP JUMPDEST PUSH1 0x40 DUP3 ADD SWAP1 POP SWAP2 SWAP1 POP JUMP JUMPDEST PUSH1 0x0 PUSH1 0x20 DUP3 ADD SWAP1 POP DUP2 DUP2 SUB PUSH1 0x0 DUP4 ADD MSTORE PUSH2 0x4B88 DUP2 PUSH2 0x4B4C JUMP JUMPDEST SWAP1 POP SWAP2 SWAP1 POP JUMP JUMPDEST PUSH32 0x4D696E696D756D2062657420616D6F756E742069732024352042555344000000 PUSH1 0x0 DUP3 ADD MSTORE POP JUMP JUMPDEST PUSH1 0x0 PUSH2 0x4BC5 PUSH1 0x1D DUP4 PUSH2 0x4304 JUMP JUMPDEST SWAP2 POP PUSH2 0x4BD0 DUP3 PUSH2 0x4B8F JUMP JUMPDEST PUSH1 0x20 DUP3 ADD SWAP1 POP SWAP2 SWAP1 POP JUMP JUMPDEST PUSH1 0x0 PUSH1 0x20 DUP3 ADD SWAP1 POP DUP2 DUP2 SUB PUSH1 0x0 DUP4 ADD MSTORE PUSH2 0x4BF4 DUP2 PUSH2 0x4BB8 JUMP JUMPDEST SWAP1 POP SWAP2 SWAP1 POP JUMP JUMPDEST PUSH2 0x4C04 DUP2 PUSH2 0x3FA5 JUMP JUMPDEST DUP3 MSTORE POP POP JUMP JUMPDEST PUSH2 0x4C13 DUP2 PUSH2 0x41EE JUMP JUMPDEST DUP3 MSTORE POP POP JUMP JUMPDEST PUSH1 0x0 PUSH2 0xFFFF DUP3 AND SWAP1 POP SWAP2 SWAP1 POP JUMP JUMPDEST PUSH2 0x4C30 DUP2 PUSH2 0x4C19 JUMP JUMPDEST DUP3 MSTORE POP POP JUMP JUMPDEST PUSH2 0x4C3F DUP2 PUSH2 0x4008 JUMP JUMPDEST DUP3 MSTORE POP POP JUMP JUMPDEST PUSH1 0x0 PUSH1 0xA0 DUP3 ADD SWAP1 POP PUSH2 0x4C5A PUSH1 0x0 DUP4 ADD DUP9 PUSH2 0x4BFB JUMP JUMPDEST PUSH2 0x4C67 PUSH1 0x20 DUP4 ADD DUP8 PUSH2 0x4C0A JUMP JUMPDEST PUSH2 0x4C74 PUSH1 0x40 DUP4 ADD DUP7 PUSH2 0x4C27 JUMP JUMPDEST PUSH2 0x4C81 PUSH1 0x60 DUP4 ADD DUP6 PUSH2 0x4C36 JUMP JUMPDEST PUSH2 0x4C8E PUSH1 0x80 DUP4 ADD DUP5 PUSH2 0x4C36 JUMP JUMPDEST SWAP7 SWAP6 POP POP POP POP POP POP JUMP JUMPDEST PUSH32 0x42555344205472616E7366657220746F206D696E657220636F6E747261637420 PUSH1 0x0 DUP3 ADD MSTORE PUSH32 0x6661696C65642E00000000000000000000000000000000000000000000000000 PUSH1 0x20 DUP3 ADD MSTORE POP JUMP JUMPDEST PUSH1 0x0 PUSH2 0x4CF4 PUSH1 0x27 DUP4 PUSH2 0x4304 JUMP JUMPDEST SWAP2 POP PUSH2 0x4CFF DUP3 PUSH2 0x4C98 JUMP JUMPDEST PUSH1 0x40 DUP3 ADD SWAP1 POP SWAP2 SWAP1 POP JUMP JUMPDEST PUSH1 0x0 PUSH1 0x20 DUP3 ADD SWAP1 POP DUP2 DUP2 SUB PUSH1 0x0 DUP4 ADD MSTORE PUSH2 0x4D23 DUP2 PUSH2 0x4CE7 JUMP JUMPDEST SWAP1 POP SWAP2 SWAP1 POP JUMP JUMPDEST PUSH1 0x0 PUSH2 0x4D35 DUP3 PUSH2 0x3C1D JUMP JUMPDEST SWAP2 POP PUSH2 0x4D40 DUP4 PUSH2 0x3C1D JUMP JUMPDEST SWAP3 POP DUP3 DUP3 SUB SWAP1 POP DUP2 DUP2 GT ISZERO PUSH2 0x4D58 JUMPI PUSH2 0x4D57 PUSH2 0x425B JUMP JUMPDEST JUMPDEST SWAP3 SWAP2 POP POP JUMP INVALID LOG2 PUSH5 0x6970667358 0x22 SLT KECCAK256 0xE8 DUP9 0xE2 0xDF 0xE8 MULMOD 0xF9 0xC2 0xEC 0xE4 DUP7 0x2E 0xD5 PC XOR 0x2D JUMPDEST GASLIMIT 0xEB SWAP6 0xE9 JUMPI SWAP6 DUP8 ADDMOD PUSH31 0x46B4F432C74464736F6C634300081000330000000000000000000000000000 "
				},
				"gasEstimates": {
					"creation": {
						"codeDepositCost": "3972000",
						"executionCost": "infinite",
						"totalCost": "infinite"
					},
					"external": {
						"VRFv2SubscriptionManagerAddress()": "2605",
						"betDown(uint256)": "infinite",
						"betUp(uint256)": "infinite",
						"betValue(uint256)": "infinite",
						"busdAddress()": "2582",
						"claimWinnings()": "infinite",
						"fundChainlinkSubscription()": "infinite",
						"getBets()": "infinite",
						"getMaxBetAmount()": "infinite",
						"getResult()": "infinite",
						"getResultByAddress(address)": "infinite",
						"getRoundStatus()": "2680",
						"getRoundStatusByAddress(address)": "2952",
						"getTotalFees()": "2526",
						"getVRFsubscriptionBalance()": "infinite",
						"injectBNB()": "209",
						"injectBUSD(uint256)": "infinite",
						"maxBetPercentage()": "2542",
						"minBetAmount()": "2561",
						"minChainlinkBalance()": "2497",
						"minerFees()": "2520",
						"minerWalletBalance()": "2562",
						"owner()": "2648",
						"pauseContract()": "26700",
						"paused()": "2611",
						"playerCurrentResult1(address)": "2903",
						"playerCurrentResult2(address)": "2947",
						"playerTotalBets(address)": "2928",
						"playerTotalLost(address)": "2947",
						"playerTotalWinnings(address)": "2948",
						"rawFulfillRandomWords(uint256,uint256[])": "infinite",
						"renounceOwnership()": "26694",
						"requesterAddress(uint256)": "2931",
						"roundStatus(address)": "2913",
						"s_randomWords(uint256)": "infinite",
						"s_requestId()": "2562",
						"setCallbackGasLimit(uint32)": "26916",
						"setKeyHash(bytes32)": "24758",
						"setMaxBetPercentage(uint256)": "24801",
						"setMinBetValue(uint256)": "24757",
						"setMinChainlinkBalance(uint256)": "24759",
						"setMinerFees(uint256)": "24802",
						"setSubscriptionId(uint64)": "26965",
						"setVRFv2SubscriptionManagerAddress(address)": "53406",
						"totalBets()": "2496",
						"totalBetsLost()": "2540",
						"totalBetsWon()": "2519",
						"totalWinnings()": "2541",
						"transferOwnership(address)": "26980",
						"unclaimedWinning(address)": "2904",
						"unpauseContract()": "infinite",
						"userBet(address)": "2925",
						"userBets(address,uint256)": "infinite",
						"userLostBalance(address)": "2926",
						"withdrawBNB()": "infinite",
						"withdrawBUSD()": "infinite",
						"wmlnAddress()": "2605"
					},
					"internal": {
						"addBets(address,uint256,uint256,uint256,uint256,uint256,bool)": "infinite",
						"fulfillRandomWords(uint256,uint256[] memory)": "infinite",
						"processDistribution(address,uint256,bool)": "infinite",
						"rollDice(uint16,uint256)": "infinite"
					}
				},
				"methodIdentifiers": {
					"VRFv2SubscriptionManagerAddress()": "2b8f6140",
					"betDown(uint256)": "47d2a6c7",
					"betUp(uint256)": "5e457cf8",
					"betValue(uint256)": "58fc7606",
					"busdAddress()": "76a90231",
					"claimWinnings()": "b401faf1",
					"fundChainlinkSubscription()": "6f700224",
					"getBets()": "a6afd5fd",
					"getMaxBetAmount()": "550ed1f0",
					"getResult()": "de292789",
					"getResultByAddress(address)": "045a3104",
					"getRoundStatus()": "86b945b0",
					"getRoundStatusByAddress(address)": "2626cf82",
					"getTotalFees()": "626e1ae7",
					"getVRFsubscriptionBalance()": "4e09bcaf",
					"injectBNB()": "c245f6a1",
					"injectBUSD(uint256)": "4a1a3e9c",
					"maxBetPercentage()": "3024737d",
					"minBetAmount()": "fa968eea",
					"minChainlinkBalance()": "33653391",
					"minerFees()": "710c5555",
					"minerWalletBalance()": "6c6ff95a",
					"owner()": "8da5cb5b",
					"pauseContract()": "439766ce",
					"paused()": "5c975abb",
					"playerCurrentResult1(address)": "e30531a1",
					"playerCurrentResult2(address)": "d5e0f494",
					"playerTotalBets(address)": "1936fd43",
					"playerTotalLost(address)": "b2689dea",
					"playerTotalWinnings(address)": "3db20272",
					"rawFulfillRandomWords(uint256,uint256[])": "1fe543e3",
					"renounceOwnership()": "715018a6",
					"requesterAddress(uint256)": "09c06841",
					"roundStatus(address)": "5b496104",
					"s_randomWords(uint256)": "f6eaffc8",
					"s_requestId()": "e89e106a",
					"setCallbackGasLimit(uint32)": "a4eb718c",
					"setKeyHash(bytes32)": "98544710",
					"setMaxBetPercentage(uint256)": "d042ccf9",
					"setMinBetValue(uint256)": "61cbbdee",
					"setMinChainlinkBalance(uint256)": "1afc369c",
					"setMinerFees(uint256)": "9f84be6e",
					"setSubscriptionId(uint64)": "ea7b4f77",
					"setVRFv2SubscriptionManagerAddress(address)": "e541e45d",
					"totalBets()": "befa1e2f",
					"totalBetsLost()": "b05f9066",
					"totalBetsWon()": "3503894c",
					"totalWinnings()": "b72481f8",
					"transferOwnership(address)": "f2fde38b",
					"unclaimedWinning(address)": "9cc9efe2",
					"unpauseContract()": "b33712c5",
					"userBet(address)": "67ad4ec2",
					"userBets(address,uint256)": "8068aa68",
					"userLostBalance(address)": "3bc303b6",
					"withdrawBNB()": "1d111d13",
					"withdrawBUSD()": "5b0b8596",
					"wmlnAddress()": "1b62ff01"
				}
			},
			"storageLayout": {
				"storage": [
					{
						"astId": 142,
						"contract": "WatermelonBUSDDice.sol:WatermelonBUSDDice",
						"label": "_status",
						"offset": 0,
						"slot": "0",
						"type": "t_uint256"
					},
					{
						"astId": 258,
						"contract": "WatermelonBUSDDice.sol:WatermelonBUSDDice",
						"label": "COORDINATOR",
						"offset": 0,
						"slot": "1",
						"type": "t_contract(VRFCoordinatorV2Interface)133"
					},
					{
						"astId": 260,
						"contract": "WatermelonBUSDDice.sol:WatermelonBUSDDice",
						"label": "s_subscriptionId",
						"offset": 20,
						"slot": "1",
						"type": "t_uint64"
					},
					{
						"astId": 263,
						"contract": "WatermelonBUSDDice.sol:WatermelonBUSDDice",
						"label": "vrfCoordinator",
						"offset": 0,
						"slot": "2",
						"type": "t_address"
					},
					{
						"astId": 266,
						"contract": "WatermelonBUSDDice.sol:WatermelonBUSDDice",
						"label": "keyHash",
						"offset": 0,
						"slot": "3",
						"type": "t_bytes32"
					},
					{
						"astId": 269,
						"contract": "WatermelonBUSDDice.sol:WatermelonBUSDDice",
						"label": "callbackGasLimit",
						"offset": 0,
						"slot": "4",
						"type": "t_uint32"
					},
					{
						"astId": 272,
						"contract": "WatermelonBUSDDice.sol:WatermelonBUSDDice",
						"label": "requestConfirmations",
						"offset": 4,
						"slot": "4",
						"type": "t_uint16"
					},
					{
						"astId": 275,
						"contract": "WatermelonBUSDDice.sol:WatermelonBUSDDice",
						"label": "numWords",
						"offset": 6,
						"slot": "4",
						"type": "t_uint32"
					},
					{
						"astId": 278,
						"contract": "WatermelonBUSDDice.sol:WatermelonBUSDDice",
						"label": "s_randomWords",
						"offset": 0,
						"slot": "5",
						"type": "t_array(t_uint256)dyn_storage"
					},
					{
						"astId": 280,
						"contract": "WatermelonBUSDDice.sol:WatermelonBUSDDice",
						"label": "s_requestId",
						"offset": 0,
						"slot": "6",
						"type": "t_uint256"
					},
					{
						"astId": 282,
						"contract": "WatermelonBUSDDice.sol:WatermelonBUSDDice",
						"label": "s_owner",
						"offset": 0,
						"slot": "7",
						"type": "t_address"
					},
					{
						"astId": 284,
						"contract": "WatermelonBUSDDice.sol:WatermelonBUSDDice",
						"label": "totalBets",
						"offset": 0,
						"slot": "8",
						"type": "t_uint256"
					},
					{
						"astId": 286,
						"contract": "WatermelonBUSDDice.sol:WatermelonBUSDDice",
						"label": "totalBetsWon",
						"offset": 0,
						"slot": "9",
						"type": "t_uint256"
					},
					{
						"astId": 288,
						"contract": "WatermelonBUSDDice.sol:WatermelonBUSDDice",
						"label": "totalWinnings",
						"offset": 0,
						"slot": "10",
						"type": "t_uint256"
					},
					{
						"astId": 290,
						"contract": "WatermelonBUSDDice.sol:WatermelonBUSDDice",
						"label": "totalBetsLost",
						"offset": 0,
						"slot": "11",
						"type": "t_uint256"
					},
					{
						"astId": 292,
						"contract": "WatermelonBUSDDice.sol:WatermelonBUSDDice",
						"label": "maxBetPercentage",
						"offset": 0,
						"slot": "12",
						"type": "t_uint256"
					},
					{
						"astId": 295,
						"contract": "WatermelonBUSDDice.sol:WatermelonBUSDDice",
						"label": "minBetAmount",
						"offset": 0,
						"slot": "13",
						"type": "t_uint256"
					},
					{
						"astId": 298,
						"contract": "WatermelonBUSDDice.sol:WatermelonBUSDDice",
						"label": "minChainlinkBalance",
						"offset": 0,
						"slot": "14",
						"type": "t_uint256"
					},
					{
						"astId": 300,
						"contract": "WatermelonBUSDDice.sol:WatermelonBUSDDice",
						"label": "minerFees",
						"offset": 0,
						"slot": "15",
						"type": "t_uint256"
					},
					{
						"astId": 302,
						"contract": "WatermelonBUSDDice.sol:WatermelonBUSDDice",
						"label": "minerWalletBalance",
						"offset": 0,
						"slot": "16",
						"type": "t_uint256"
					},
					{
						"astId": 306,
						"contract": "WatermelonBUSDDice.sol:WatermelonBUSDDice",
						"label": "userBet",
						"offset": 0,
						"slot": "17",
						"type": "t_mapping(t_address,t_uint256)"
					},
					{
						"astId": 310,
						"contract": "WatermelonBUSDDice.sol:WatermelonBUSDDice",
						"label": "betValue",
						"offset": 0,
						"slot": "18",
						"type": "t_mapping(t_uint256,t_uint256)"
					},
					{
						"astId": 314,
						"contract": "WatermelonBUSDDice.sol:WatermelonBUSDDice",
						"label": "playerCurrentResult1",
						"offset": 0,
						"slot": "19",
						"type": "t_mapping(t_address,t_uint256)"
					},
					{
						"astId": 318,
						"contract": "WatermelonBUSDDice.sol:WatermelonBUSDDice",
						"label": "playerCurrentResult2",
						"offset": 0,
						"slot": "20",
						"type": "t_mapping(t_address,t_uint256)"
					},
					{
						"astId": 322,
						"contract": "WatermelonBUSDDice.sol:WatermelonBUSDDice",
						"label": "playerTotalBets",
						"offset": 0,
						"slot": "21",
						"type": "t_mapping(t_address,t_uint256)"
					},
					{
						"astId": 326,
						"contract": "WatermelonBUSDDice.sol:WatermelonBUSDDice",
						"label": "playerTotalWinnings",
						"offset": 0,
						"slot": "22",
						"type": "t_mapping(t_address,t_uint256)"
					},
					{
						"astId": 330,
						"contract": "WatermelonBUSDDice.sol:WatermelonBUSDDice",
						"label": "playerTotalLost",
						"offset": 0,
						"slot": "23",
						"type": "t_mapping(t_address,t_uint256)"
					},
					{
						"astId": 334,
						"contract": "WatermelonBUSDDice.sol:WatermelonBUSDDice",
						"label": "unclaimedWinning",
						"offset": 0,
						"slot": "24",
						"type": "t_mapping(t_address,t_uint256)"
					},
					{
						"astId": 338,
						"contract": "WatermelonBUSDDice.sol:WatermelonBUSDDice",
						"label": "userLostBalance",
						"offset": 0,
						"slot": "25",
						"type": "t_mapping(t_address,t_uint256)"
					},
					{
						"astId": 342,
						"contract": "WatermelonBUSDDice.sol:WatermelonBUSDDice",
						"label": "requesterAddress",
						"offset": 0,
						"slot": "26",
						"type": "t_mapping(t_uint256,t_address)"
					},
					{
						"astId": 346,
						"contract": "WatermelonBUSDDice.sol:WatermelonBUSDDice",
						"label": "roundStatus",
						"offset": 0,
						"slot": "27",
						"type": "t_mapping(t_address,t_bool)"
					},
					{
						"astId": 364,
						"contract": "WatermelonBUSDDice.sol:WatermelonBUSDDice",
						"label": "bet",
						"offset": 0,
						"slot": "28",
						"type": "t_struct(Bet)361_storage"
					},
					{
						"astId": 370,
						"contract": "WatermelonBUSDDice.sol:WatermelonBUSDDice",
						"label": "userBets",
						"offset": 0,
						"slot": "35",
						"type": "t_mapping(t_address,t_array(t_struct(Bet)361_storage)dyn_storage)"
					},
					{
						"astId": 372,
						"contract": "WatermelonBUSDDice.sol:WatermelonBUSDDice",
						"label": "wmlnAddress",
						"offset": 0,
						"slot": "36",
						"type": "t_address"
					},
					{
						"astId": 374,
						"contract": "WatermelonBUSDDice.sol:WatermelonBUSDDice",
						"label": "VRFv2SubscriptionManagerAddress",
						"offset": 0,
						"slot": "37",
						"type": "t_address"
					},
					{
						"astId": 376,
						"contract": "WatermelonBUSDDice.sol:WatermelonBUSDDice",
						"label": "busdAddress",
						"offset": 0,
						"slot": "38",
						"type": "t_address"
					},
					{
						"astId": 379,
						"contract": "WatermelonBUSDDice.sol:WatermelonBUSDDice",
						"label": "busdToken",
						"offset": 0,
						"slot": "39",
						"type": "t_contract(IERC20)230"
					},
					{
						"astId": 382,
						"contract": "WatermelonBUSDDice.sol:WatermelonBUSDDice",
						"label": "VRFmanager",
						"offset": 0,
						"slot": "40",
						"type": "t_contract(VRFv2SubscriptionManager)251"
					},
					{
						"astId": 384,
						"contract": "WatermelonBUSDDice.sol:WatermelonBUSDDice",
						"label": "owner",
						"offset": 0,
						"slot": "41",
						"type": "t_address"
					},
					{
						"astId": 387,
						"contract": "WatermelonBUSDDice.sol:WatermelonBUSDDice",
						"label": "paused",
						"offset": 20,
						"slot": "41",
						"type": "t_bool"
					}
				],
				"types": {
					"t_address": {
						"encoding": "inplace",
						"label": "address",
						"numberOfBytes": "20"
					},
					"t_array(t_struct(Bet)361_storage)dyn_storage": {
						"base": "t_struct(Bet)361_storage",
						"encoding": "dynamic_array",
						"label": "struct WatermelonBUSDDice.Bet[]",
						"numberOfBytes": "32"
					},
					"t_array(t_uint256)dyn_storage": {
						"base": "t_uint256",
						"encoding": "dynamic_array",
						"label": "uint256[]",
						"numberOfBytes": "32"
					},
					"t_bool": {
						"encoding": "inplace",
						"label": "bool",
						"numberOfBytes": "1"
					},
					"t_bytes32": {
						"encoding": "inplace",
						"label": "bytes32",
						"numberOfBytes": "32"
					},
					"t_contract(IERC20)230": {
						"encoding": "inplace",
						"label": "contract IERC20",
						"numberOfBytes": "20"
					},
					"t_contract(VRFCoordinatorV2Interface)133": {
						"encoding": "inplace",
						"label": "contract VRFCoordinatorV2Interface",
						"numberOfBytes": "20"
					},
					"t_contract(VRFv2SubscriptionManager)251": {
						"encoding": "inplace",
						"label": "contract VRFv2SubscriptionManager",
						"numberOfBytes": "20"
					},
					"t_mapping(t_address,t_array(t_struct(Bet)361_storage)dyn_storage)": {
						"encoding": "mapping",
						"key": "t_address",
						"label": "mapping(address => struct WatermelonBUSDDice.Bet[])",
						"numberOfBytes": "32",
						"value": "t_array(t_struct(Bet)361_storage)dyn_storage"
					},
					"t_mapping(t_address,t_bool)": {
						"encoding": "mapping",
						"key": "t_address",
						"label": "mapping(address => bool)",
						"numberOfBytes": "32",
						"value": "t_bool"
					},
					"t_mapping(t_address,t_uint256)": {
						"encoding": "mapping",
						"key": "t_address",
						"label": "mapping(address => uint256)",
						"numberOfBytes": "32",
						"value": "t_uint256"
					},
					"t_mapping(t_uint256,t_address)": {
						"encoding": "mapping",
						"key": "t_uint256",
						"label": "mapping(uint256 => address)",
						"numberOfBytes": "32",
						"value": "t_address"
					},
					"t_mapping(t_uint256,t_uint256)": {
						"encoding": "mapping",
						"key": "t_uint256",
						"label": "mapping(uint256 => uint256)",
						"numberOfBytes": "32",
						"value": "t_uint256"
					},
					"t_struct(Bet)361_storage": {
						"encoding": "inplace",
						"label": "struct WatermelonBUSDDice.Bet",
						"members": [
							{
								"astId": 348,
								"contract": "WatermelonBUSDDice.sol:WatermelonBUSDDice",
								"label": "requestId",
								"offset": 0,
								"slot": "0",
								"type": "t_uint256"
							},
							{
								"astId": 350,
								"contract": "WatermelonBUSDDice.sol:WatermelonBUSDDice",
								"label": "amount",
								"offset": 0,
								"slot": "1",
								"type": "t_uint256"
							},
							{
								"astId": 352,
								"contract": "WatermelonBUSDDice.sol:WatermelonBUSDDice",
								"label": "bet",
								"offset": 0,
								"slot": "2",
								"type": "t_uint256"
							},
							{
								"astId": 354,
								"contract": "WatermelonBUSDDice.sol:WatermelonBUSDDice",
								"label": "dice1Result",
								"offset": 0,
								"slot": "3",
								"type": "t_uint256"
							},
							{
								"astId": 356,
								"contract": "WatermelonBUSDDice.sol:WatermelonBUSDDice",
								"label": "dice2Result",
								"offset": 0,
								"slot": "4",
								"type": "t_uint256"
							},
							{
								"astId": 358,
								"contract": "WatermelonBUSDDice.sol:WatermelonBUSDDice",
								"label": "isWon",
								"offset": 0,
								"slot": "5",
								"type": "t_bool"
							},
							{
								"astId": 360,
								"contract": "WatermelonBUSDDice.sol:WatermelonBUSDDice",
								"label": "createdTime",
								"offset": 0,
								"slot": "6",
								"type": "t_uint256"
							}
						],
						"numberOfBytes": "224"
					},
					"t_uint16": {
						"encoding": "inplace",
						"label": "uint16",
						"numberOfBytes": "2"
					},
					"t_uint256": {
						"encoding": "inplace",
						"label": "uint256",
						"numberOfBytes": "32"
					},
					"t_uint32": {
						"encoding": "inplace",
						"label": "uint32",
						"numberOfBytes": "4"
					},
					"t_uint64": {
						"encoding": "inplace",
						"label": "uint64",
						"numberOfBytes": "8"
					}
				}
			},
			"userdoc": {
				"kind": "user",
				"methods": {},
				"version": 1
			}
		}
	}
}