{
	"WatermelonBUSDRoulette.sol": {
		"WatermelonBUSDRoulette": {
			"abi": [
				{
					"inputs": [],
					"stateMutability": "nonpayable",
					"type": "constructor"
				},
				{
					"anonymous": false,
					"inputs": [
						{
							"indexed": false,
							"internalType": "uint256",
							"name": "number",
							"type": "uint256"
						}
					],
					"name": "RandomNumber",
					"type": "event"
				},
				{
					"inputs": [
						{
							"internalType": "uint256",
							"name": "_amount",
							"type": "uint256"
						}
					],
					"name": "Liquidity",
					"outputs": [],
					"stateMutability": "nonpayable",
					"type": "function"
				},
				{
					"inputs": [],
					"name": "balanceOfContract",
					"outputs": [
						{
							"internalType": "uint256",
							"name": "",
							"type": "uint256"
						}
					],
					"stateMutability": "view",
					"type": "function"
				},
				{
					"inputs": [
						{
							"internalType": "address",
							"name": "_ref",
							"type": "address"
						},
						{
							"internalType": "uint256",
							"name": "_amount",
							"type": "uint256"
						},
						{
							"internalType": "uint8",
							"name": "number",
							"type": "uint8"
						},
						{
							"internalType": "uint8",
							"name": "betType",
							"type": "uint8"
						}
					],
					"name": "bet",
					"outputs": [],
					"stateMutability": "nonpayable",
					"type": "function"
				},
				{
					"inputs": [
						{
							"internalType": "uint256",
							"name": "",
							"type": "uint256"
						}
					],
					"name": "bets",
					"outputs": [
						{
							"internalType": "address",
							"name": "player",
							"type": "address"
						},
						{
							"internalType": "uint8",
							"name": "betType",
							"type": "uint8"
						},
						{
							"internalType": "uint8",
							"name": "number",
							"type": "uint8"
						}
					],
					"stateMutability": "view",
					"type": "function"
				},
				{
					"inputs": [],
					"name": "cashOut",
					"outputs": [],
					"stateMutability": "nonpayable",
					"type": "function"
				},
				{
					"inputs": [
						{
							"internalType": "address",
							"name": "addr",
							"type": "address"
						}
					],
					"name": "getStatus",
					"outputs": [
						{
							"internalType": "uint256",
							"name": "",
							"type": "uint256"
						},
						{
							"internalType": "uint256",
							"name": "",
							"type": "uint256"
						},
						{
							"internalType": "uint256",
							"name": "",
							"type": "uint256"
						},
						{
							"internalType": "uint256",
							"name": "",
							"type": "uint256"
						},
						{
							"internalType": "uint256",
							"name": "",
							"type": "uint256"
						}
					],
					"stateMutability": "view",
					"type": "function"
				},
				{
					"inputs": [],
					"name": "miner",
					"outputs": [
						{
							"internalType": "address",
							"name": "",
							"type": "address"
						}
					],
					"stateMutability": "view",
					"type": "function"
				},
				{
					"inputs": [],
					"name": "ref_fee",
					"outputs": [
						{
							"internalType": "uint256",
							"name": "",
							"type": "uint256"
						}
					],
					"stateMutability": "view",
					"type": "function"
				},
				{
					"inputs": [],
					"name": "spinWheel",
					"outputs": [
						{
							"internalType": "uint256",
							"name": "",
							"type": "uint256"
						}
					],
					"stateMutability": "nonpayable",
					"type": "function"
				},
				{
					"inputs": [],
					"name": "tokenAddress",
					"outputs": [
						{
							"internalType": "address",
							"name": "",
							"type": "address"
						}
					],
					"stateMutability": "view",
					"type": "function"
				},
				{
					"inputs": [
						{
							"internalType": "address",
							"name": "",
							"type": "address"
						}
					],
					"name": "winnings",
					"outputs": [
						{
							"internalType": "address",
							"name": "userAddr",
							"type": "address"
						},
						{
							"internalType": "uint256",
							"name": "winingAmount",
							"type": "uint256"
						}
					],
					"stateMutability": "view",
					"type": "function"
				}
			],
			"devdoc": {
				"kind": "dev",
				"methods": {},
				"version": 1
			},
			"evm": {
				"assembly": "    /* \"WatermelonBUSDRoulette.sol\":726:7731  contract WatermelonBUSDRoulette {... */\n  mstore(0x40, 0x80)\n    /* \"WatermelonBUSDRoulette.sol\":1024:1025  4 */\n  0x04\n    /* \"WatermelonBUSDRoulette.sol\":999:1025  uint256 public ref_fee = 4 */\n  0x09\n  sstore\n    /* \"WatermelonBUSDRoulette.sol\":1052:1094  0xEBFDF7A84eB1DD651663782802A818ce36F3e18A */\n  0xebfdf7a84eb1dd651663782802a818ce36f3e18a\n    /* \"WatermelonBUSDRoulette.sol\":1029:1094  address public miner = 0xEBFDF7A84eB1DD651663782802A818ce36F3e18A */\n  0x0a\n  exp(0x0100, 0x00)\n  dup2\n  sload\n  dup2\n  0xffffffffffffffffffffffffffffffffffffffff\n  mul\n  not\n  and\n  swap1\n  dup4\n  0xffffffffffffffffffffffffffffffffffffffff\n  and\n  mul\n  or\n  swap1\n  sstore\n  pop\n    /* \"WatermelonBUSDRoulette.sol\":1127:1149  2000000000000000000000 */\n  0x6c6b935b8bbd400000\n    /* \"WatermelonBUSDRoulette.sol\":1098:1149  uint256 private max_amount = 2000000000000000000000 */\n  0x0b\n  sstore\n    /* \"WatermelonBUSDRoulette.sol\":1832:2248  constructor()  {... */\n  callvalue\n  dup1\n  iszero\n  tag_1\n  jumpi\n  0x00\n  dup1\n  revert\ntag_1:\n  pop\n    /* \"WatermelonBUSDRoulette.sol\":1863:1873  msg.sender */\n  caller\n    /* \"WatermelonBUSDRoulette.sol\":1853:1860  creator */\n  0x03\n  0x00\n    /* \"WatermelonBUSDRoulette.sol\":1853:1873  creator = msg.sender */\n  0x0100\n  exp\n  dup2\n  sload\n  dup2\n  0xffffffffffffffffffffffffffffffffffffffff\n  mul\n  not\n  and\n  swap1\n  dup4\n  0xffffffffffffffffffffffffffffffffffffffff\n  and\n  mul\n  or\n  swap1\n  sstore\n  pop\n    /* \"WatermelonBUSDRoulette.sol\":1898:1899  0 */\n  0x00\n    /* \"WatermelonBUSDRoulette.sol\":1879:1895  necessaryBalance */\n  0x01\n    /* \"WatermelonBUSDRoulette.sol\":1879:1899  necessaryBalance = 0 */\n  dup2\n  swap1\n  sstore\n  pop\n    /* \"WatermelonBUSDRoulette.sol\":1926:1941  block.timestamp */\n  timestamp\n    /* \"WatermelonBUSDRoulette.sol\":1905:1923  nextRoundTimestamp */\n  0x02\n    /* \"WatermelonBUSDRoulette.sol\":1905:1941  nextRoundTimestamp = block.timestamp */\n  dup2\n  swap1\n  sstore\n  pop\n    /* \"WatermelonBUSDRoulette.sol\":1947:1971  payouts = [2,3,3,2,2,10] */\n  mload(0x40)\n  dup1\n  0xc0\n  add\n  0x40\n  mstore\n  dup1\n    /* \"WatermelonBUSDRoulette.sol\":1958:1959  2 */\n  0x02\n    /* \"WatermelonBUSDRoulette.sol\":1947:1971  payouts = [2,3,3,2,2,10] */\n  0xff\n  and\n  dup2\n  mstore\n  0x20\n  add\n    /* \"WatermelonBUSDRoulette.sol\":1960:1961  3 */\n  0x03\n    /* \"WatermelonBUSDRoulette.sol\":1947:1971  payouts = [2,3,3,2,2,10] */\n  0xff\n  and\n  dup2\n  mstore\n  0x20\n  add\n    /* \"WatermelonBUSDRoulette.sol\":1962:1963  3 */\n  0x03\n    /* \"WatermelonBUSDRoulette.sol\":1947:1971  payouts = [2,3,3,2,2,10] */\n  0xff\n  and\n  dup2\n  mstore\n  0x20\n  add\n    /* \"WatermelonBUSDRoulette.sol\":1964:1965  2 */\n  0x02\n    /* \"WatermelonBUSDRoulette.sol\":1947:1971  payouts = [2,3,3,2,2,10] */\n  0xff\n  and\n  dup2\n  mstore\n  0x20\n  add\n    /* \"WatermelonBUSDRoulette.sol\":1966:1967  2 */\n  0x02\n    /* \"WatermelonBUSDRoulette.sol\":1947:1971  payouts = [2,3,3,2,2,10] */\n  0xff\n  and\n  dup2\n  mstore\n  0x20\n  add\n    /* \"WatermelonBUSDRoulette.sol\":1968:1970  10 */\n  0x0a\n    /* \"WatermelonBUSDRoulette.sol\":1947:1971  payouts = [2,3,3,2,2,10] */\n  0xff\n  and\n  dup2\n  mstore\n  pop\n    /* \"WatermelonBUSDRoulette.sol\":1947:1954  payouts */\n  0x05\n    /* \"WatermelonBUSDRoulette.sol\":1947:1971  payouts = [2,3,3,2,2,10] */\n  swap1\n  0x06\n  tag_4\n  swap3\n  swap2\n  swap1\n  tag_5\n  jump\t// in\ntag_4:\n  pop\n    /* \"WatermelonBUSDRoulette.sol\":1977:2005  numberRange = [1,2,2,1,1,36] */\n  mload(0x40)\n  dup1\n  0xc0\n  add\n  0x40\n  mstore\n  dup1\n    /* \"WatermelonBUSDRoulette.sol\":1992:1993  1 */\n  0x01\n    /* \"WatermelonBUSDRoulette.sol\":1977:2005  numberRange = [1,2,2,1,1,36] */\n  0xff\n  and\n  dup2\n  mstore\n  0x20\n  add\n    /* \"WatermelonBUSDRoulette.sol\":1994:1995  2 */\n  0x02\n    /* \"WatermelonBUSDRoulette.sol\":1977:2005  numberRange = [1,2,2,1,1,36] */\n  0xff\n  and\n  dup2\n  mstore\n  0x20\n  add\n    /* \"WatermelonBUSDRoulette.sol\":1996:1997  2 */\n  0x02\n    /* \"WatermelonBUSDRoulette.sol\":1977:2005  numberRange = [1,2,2,1,1,36] */\n  0xff\n  and\n  dup2\n  mstore\n  0x20\n  add\n    /* \"WatermelonBUSDRoulette.sol\":1998:1999  1 */\n  0x01\n    /* \"WatermelonBUSDRoulette.sol\":1977:2005  numberRange = [1,2,2,1,1,36] */\n  0xff\n  and\n  dup2\n  mstore\n  0x20\n  add\n    /* \"WatermelonBUSDRoulette.sol\":2000:2001  1 */\n  0x01\n    /* \"WatermelonBUSDRoulette.sol\":1977:2005  numberRange = [1,2,2,1,1,36] */\n  0xff\n  and\n  dup2\n  mstore\n  0x20\n  add\n    /* \"WatermelonBUSDRoulette.sol\":2002:2004  36 */\n  0x24\n    /* \"WatermelonBUSDRoulette.sol\":1977:2005  numberRange = [1,2,2,1,1,36] */\n  0xff\n  and\n  dup2\n  mstore\n  pop\n    /* \"WatermelonBUSDRoulette.sol\":1977:1988  numberRange */\n  0x06\n    /* \"WatermelonBUSDRoulette.sol\":1977:2005  numberRange = [1,2,2,1,1,36] */\n  swap1\n  0x06\n  tag_6\n  swap3\n  swap2\n  swap1\n  tag_5\n  jump\t// in\ntag_6:\n  pop\n    /* \"WatermelonBUSDRoulette.sol\":2023:2042  1000000000000000000 */\n  0x0de0b6b3a7640000\n    /* \"WatermelonBUSDRoulette.sol\":2011:2020  betAmount */\n  0x00\n    /* \"WatermelonBUSDRoulette.sol\":2011:2042  betAmount = 1000000000000000000 */\n  dup2\n  swap1\n  sstore\n  pop\n    /* \"WatermelonBUSDRoulette.sol\":2089:2108  5000000000000000000 */\n  0x4563918244f40000\n    /* \"WatermelonBUSDRoulette.sol\":2061:2086  maxAmountAllowedInTheBank */\n  0x04\n    /* \"WatermelonBUSDRoulette.sol\":2061:2108  maxAmountAllowedInTheBank = 5000000000000000000 */\n  dup2\n  swap1\n  sstore\n  pop\n    /* \"WatermelonBUSDRoulette.sol\":2142:2184  0xe9e7CEA3DedcA5984780Bafc599bD69ADd087D56 */\n  0xe9e7cea3dedca5984780bafc599bd69add087d56\n    /* \"WatermelonBUSDRoulette.sol\":2127:2139  tokenAddress */\n  0x08\n  0x00\n    /* \"WatermelonBUSDRoulette.sol\":2127:2184  tokenAddress = 0xe9e7CEA3DedcA5984780Bafc599bD69ADd087D56 */\n  0x0100\n  exp\n  dup2\n  sload\n  dup2\n  0xffffffffffffffffffffffffffffffffffffffff\n  mul\n  not\n  and\n  swap1\n  dup4\n  0xffffffffffffffffffffffffffffffffffffffff\n  and\n  mul\n  or\n  swap1\n  sstore\n  pop\n    /* \"WatermelonBUSDRoulette.sol\":2230:2242  tokenAddress */\n  0x08\n  0x00\n  swap1\n  sload\n  swap1\n  0x0100\n  exp\n  swap1\n  div\n  0xffffffffffffffffffffffffffffffffffffffff\n  and\n    /* \"WatermelonBUSDRoulette.sol\":2207:2220  BusdInterface */\n  0x07\n  0x00\n    /* \"WatermelonBUSDRoulette.sol\":2207:2243  BusdInterface = IERC20(tokenAddress) */\n  0x0100\n  exp\n  dup2\n  sload\n  dup2\n  0xffffffffffffffffffffffffffffffffffffffff\n  mul\n  not\n  and\n  swap1\n  dup4\n  0xffffffffffffffffffffffffffffffffffffffff\n  and\n  mul\n  or\n  swap1\n  sstore\n  pop\n    /* \"WatermelonBUSDRoulette.sol\":726:7731  contract WatermelonBUSDRoulette {... */\n  jump(tag_7)\ntag_5:\n  dup3\n  dup1\n  sload\n  dup3\n  dup3\n  sstore\n  swap1\n  0x00\n  mstore\n  keccak256(0x00, 0x20)\n  swap1\n  0x1f\n  add\n  0x20\n  swap1\n  div\n  dup2\n  add\n  swap3\n  dup3\n  iszero\n  tag_8\n  jumpi\n  swap2\n  0x20\n  mul\n  dup3\n  add\n  0x00\ntag_9:\n  dup4\n  dup3\n  gt\n  iszero\n  tag_10\n  jumpi\n  dup4\n  mload\n  dup4\n  dup3\n  0x0100\n  exp\n  dup2\n  sload\n  dup2\n  0xff\n  mul\n  not\n  and\n  swap1\n  dup4\n  0xff\n  and\n  mul\n  or\n  swap1\n  sstore\n  pop\n  swap3\n  0x20\n  add\n  swap3\n  0x01\n  add\n  0x20\n  dup2\n  0x00\n  add\n  div\n  swap3\n  dup4\n  add\n  swap3\n  0x01\n  sub\n  mul\n  jump(tag_9)\ntag_10:\n  dup1\n  iszero\n  tag_11\n  jumpi\n  dup3\n  dup2\n  0x0100\n  exp\n  dup2\n  sload\n  swap1\n  0xff\n  mul\n  not\n  and\n  swap1\n  sstore\n  0x01\n  add\n  0x20\n  dup2\n  0x00\n  add\n  div\n  swap3\n  dup4\n  add\n  swap3\n  0x01\n  sub\n  mul\n  jump(tag_10)\ntag_11:\n  pop\ntag_8:\n  pop\n  swap1\n  pop\n  tag_12\n  swap2\n  swap1\n  tag_13\n  jump\t// in\ntag_12:\n  pop\n  swap1\n  jump\t// out\ntag_13:\ntag_14:\n  dup1\n  dup3\n  gt\n  iszero\n  tag_15\n  jumpi\n  0x00\n  dup2\n  0x00\n  swap1\n  sstore\n  pop\n  0x01\n  add\n  jump(tag_14)\ntag_15:\n  pop\n  swap1\n  jump\t// out\ntag_7:\n  dataSize(sub_0)\n  dup1\n  dataOffset(sub_0)\n  0x00\n  codecopy\n  0x00\n  return\nstop\n\nsub_0: assembly {\n        /* \"WatermelonBUSDRoulette.sol\":726:7731  contract WatermelonBUSDRoulette {... */\n      mstore(0x40, 0x80)\n      callvalue\n      dup1\n      iszero\n      tag_1\n      jumpi\n      0x00\n      dup1\n      revert\n    tag_1:\n      pop\n      jumpi(tag_2, lt(calldatasize, 0x04))\n      shr(0xe0, calldataload(0x00))\n      dup1\n      0x51afb3dd\n      gt\n      tag_14\n      jumpi\n      dup1\n      0x51afb3dd\n      eq\n      tag_8\n      jumpi\n      dup1\n      0x5925417c\n      eq\n      tag_9\n      jumpi\n      dup1\n      0x793cd71e\n      eq\n      tag_10\n      jumpi\n      dup1\n      0x9d76ea58\n      eq\n      tag_11\n      jumpi\n      dup1\n      0xe6c7c456\n      eq\n      tag_12\n      jumpi\n      dup1\n      0xea3a1499\n      eq\n      tag_13\n      jumpi\n      jump(tag_2)\n    tag_14:\n      dup1\n      0x15ecef92\n      eq\n      tag_3\n      jumpi\n      dup1\n      0x198b2eae\n      eq\n      tag_4\n      jumpi\n      dup1\n      0x22af00fa\n      eq\n      tag_5\n      jumpi\n      dup1\n      0x30ccebb5\n      eq\n      tag_6\n      jumpi\n      dup1\n      0x349dc329\n      eq\n      tag_7\n      jumpi\n    tag_2:\n      0x00\n      dup1\n      revert\n        /* \"WatermelonBUSDRoulette.sol\":4249:7293  function spinWheel() public  returns(uint) {... */\n    tag_3:\n      tag_15\n      tag_16\n      jump\t// in\n    tag_15:\n      mload(0x40)\n      tag_17\n      swap2\n      swap1\n      tag_18\n      jump\t// in\n    tag_17:\n      mload(0x40)\n      dup1\n      swap2\n      sub\n      swap1\n      return\n        /* \"WatermelonBUSDRoulette.sol\":2716:2868  function Liquidity(uint256 _amount) public {... */\n    tag_4:\n      tag_19\n      0x04\n      dup1\n      calldatasize\n      sub\n      dup2\n      add\n      swap1\n      tag_20\n      swap2\n      swap1\n      tag_21\n      jump\t// in\n    tag_20:\n      tag_22\n      jump\t// in\n    tag_19:\n      stop\n        /* \"WatermelonBUSDRoulette.sol\":1777:1794  Bet[] public bets */\n    tag_5:\n      tag_23\n      0x04\n      dup1\n      calldatasize\n      sub\n      dup2\n      add\n      swap1\n      tag_24\n      swap2\n      swap1\n      tag_21\n      jump\t// in\n    tag_24:\n      tag_25\n      jump\t// in\n    tag_23:\n      mload(0x40)\n      tag_26\n      swap4\n      swap3\n      swap2\n      swap1\n      tag_27\n      jump\t// in\n    tag_26:\n      mload(0x40)\n      dup1\n      swap2\n      sub\n      swap1\n      return\n        /* \"WatermelonBUSDRoulette.sol\":2293:2708  function getStatus(address addr) public view returns(uint, uint, uint, uint, uint) {... */\n    tag_6:\n      tag_28\n      0x04\n      dup1\n      calldatasize\n      sub\n      dup2\n      add\n      swap1\n      tag_29\n      swap2\n      swap1\n      tag_30\n      jump\t// in\n    tag_29:\n      tag_31\n      jump\t// in\n    tag_28:\n      mload(0x40)\n      tag_32\n      swap6\n      swap5\n      swap4\n      swap3\n      swap2\n      swap1\n      tag_33\n      jump\t// in\n    tag_32:\n      mload(0x40)\n      dup1\n      swap2\n      sub\n      swap1\n      return\n        /* \"WatermelonBUSDRoulette.sol\":1029:1094  address public miner = 0xEBFDF7A84eB1DD651663782802A818ce36F3e18A */\n    tag_7:\n      tag_34\n      tag_35\n      jump\t// in\n    tag_34:\n      mload(0x40)\n      tag_36\n      swap2\n      swap1\n      tag_37\n      jump\t// in\n    tag_36:\n      mload(0x40)\n      dup1\n      swap2\n      sub\n      swap1\n      return\n        /* \"WatermelonBUSDRoulette.sol\":3272:4244  function bet(address _ref , uint256 _amount, uint8 number, uint8 betType) public {... */\n    tag_8:\n      tag_38\n      0x04\n      dup1\n      calldatasize\n      sub\n      dup2\n      add\n      swap1\n      tag_39\n      swap2\n      swap1\n      tag_40\n      jump\t// in\n    tag_39:\n      tag_41\n      jump\t// in\n    tag_38:\n      stop\n        /* \"WatermelonBUSDRoulette.sol\":999:1025  uint256 public ref_fee = 4 */\n    tag_9:\n      tag_42\n      tag_43\n      jump\t// in\n    tag_42:\n      mload(0x40)\n      tag_44\n      swap2\n      swap1\n      tag_18\n      jump\t// in\n    tag_44:\n      mload(0x40)\n      dup1\n      swap2\n      sub\n      swap1\n      return\n        /* \"WatermelonBUSDRoulette.sol\":7297:7729  function cashOut() public  {... */\n    tag_10:\n      tag_45\n      tag_46\n      jump\t// in\n    tag_45:\n      stop\n        /* \"WatermelonBUSDRoulette.sol\":968:995  address public tokenAddress */\n    tag_11:\n      tag_47\n      tag_48\n      jump\t// in\n    tag_47:\n      mload(0x40)\n      tag_49\n      swap2\n      swap1\n      tag_37\n      jump\t// in\n    tag_49:\n      mload(0x40)\n      dup1\n      swap2\n      sub\n      swap1\n      return\n        /* \"WatermelonBUSDRoulette.sol\":3150:3268  function balanceOfContract() public view returns(uint256) {... */\n    tag_12:\n      tag_50\n      tag_51\n      jump\t// in\n    tag_50:\n      mload(0x40)\n      tag_52\n      swap2\n      swap1\n      tag_18\n      jump\t// in\n    tag_52:\n      mload(0x40)\n      dup1\n      swap2\n      sub\n      swap1\n      return\n        /* \"WatermelonBUSDRoulette.sol\":1226:1269  mapping(address => winning) public winnings */\n    tag_13:\n      tag_53\n      0x04\n      dup1\n      calldatasize\n      sub\n      dup2\n      add\n      swap1\n      tag_54\n      swap2\n      swap1\n      tag_30\n      jump\t// in\n    tag_54:\n      tag_55\n      jump\t// in\n    tag_53:\n      mload(0x40)\n      tag_56\n      swap3\n      swap2\n      swap1\n      tag_57\n      jump\t// in\n    tag_56:\n      mload(0x40)\n      dup1\n      swap2\n      sub\n      swap1\n      return\n        /* \"WatermelonBUSDRoulette.sol\":4249:7293  function spinWheel() public  returns(uint) {... */\n    tag_16:\n        /* \"WatermelonBUSDRoulette.sol\":4286:4290  uint */\n      0x00\n        /* \"WatermelonBUSDRoulette.sol\":4361:4362  0 */\n      dup1\n        /* \"WatermelonBUSDRoulette.sol\":4336:4339  foo */\n      0x0e\n        /* \"WatermelonBUSDRoulette.sol\":4336:4351  foo[msg.sender] */\n      0x00\n        /* \"WatermelonBUSDRoulette.sol\":4340:4350  msg.sender */\n      caller\n        /* \"WatermelonBUSDRoulette.sol\":4336:4351  foo[msg.sender] */\n      0xffffffffffffffffffffffffffffffffffffffff\n      and\n      0xffffffffffffffffffffffffffffffffffffffff\n      and\n      dup2\n      mstore\n      0x20\n      add\n      swap1\n      dup2\n      mstore\n      0x20\n      add\n      0x00\n      keccak256\n        /* \"WatermelonBUSDRoulette.sol\":4336:4358  foo[msg.sender].length */\n      dup1\n      sload\n      swap1\n      pop\n        /* \"WatermelonBUSDRoulette.sol\":4336:4362  foo[msg.sender].length > 0 */\n      gt\n        /* \"WatermelonBUSDRoulette.sol\":4328:4363  require(foo[msg.sender].length > 0) */\n      tag_59\n      jumpi\n      0x00\n      dup1\n      revert\n    tag_59:\n        /* \"WatermelonBUSDRoulette.sol\":4439:4457  nextRoundTimestamp */\n      sload(0x02)\n        /* \"WatermelonBUSDRoulette.sol\":4421:4436  block.timestamp */\n      timestamp\n        /* \"WatermelonBUSDRoulette.sol\":4421:4457  block.timestamp > nextRoundTimestamp */\n      gt\n        /* \"WatermelonBUSDRoulette.sol\":4413:4458  require(block.timestamp > nextRoundTimestamp) */\n      tag_60\n      jumpi\n      0x00\n      dup1\n      revert\n    tag_60:\n        /* \"WatermelonBUSDRoulette.sol\":4523:4534  uint number */\n      0x00\n        /* \"WatermelonBUSDRoulette.sol\":4635:4637  37 */\n      0x25\n        /* \"WatermelonBUSDRoulette.sol\":4569:4584  block.timestamp */\n      timestamp\n        /* \"WatermelonBUSDRoulette.sol\":4586:4602  block.difficulty */\n      difficulty\n        /* \"WatermelonBUSDRoulette.sol\":4627:4628  1 */\n      0x01\n        /* \"WatermelonBUSDRoulette.sol\":4614:4626  block.number */\n      number\n        /* \"WatermelonBUSDRoulette.sol\":4614:4628  block.number-1 */\n      tag_61\n      swap2\n      swap1\n      tag_62\n      jump\t// in\n    tag_61:\n        /* \"WatermelonBUSDRoulette.sol\":4604:4629  blockhash(block.number-1) */\n      blockhash\n        /* \"WatermelonBUSDRoulette.sol\":4552:4630  abi.encodePacked(block.timestamp, block.difficulty, blockhash(block.number-1)) */\n      add(0x20, mload(0x40))\n      tag_63\n      swap4\n      swap3\n      swap2\n      swap1\n      tag_64\n      jump\t// in\n    tag_63:\n      mload(0x40)\n      0x20\n      dup2\n      dup4\n      sub\n      sub\n      dup2\n      mstore\n      swap1\n      0x40\n      mstore\n        /* \"WatermelonBUSDRoulette.sol\":4542:4631  keccak256(abi.encodePacked(block.timestamp, block.difficulty, blockhash(block.number-1))) */\n      dup1\n      mload\n      swap1\n      0x20\n      add\n      keccak256\n        /* \"WatermelonBUSDRoulette.sol\":4537:4632  uint(keccak256(abi.encodePacked(block.timestamp, block.difficulty, blockhash(block.number-1)))) */\n      0x00\n      shr\n        /* \"WatermelonBUSDRoulette.sol\":4537:4637  uint(keccak256(abi.encodePacked(block.timestamp, block.difficulty, blockhash(block.number-1)))) % 37 */\n      tag_65\n      swap2\n      swap1\n      tag_66\n      jump\t// in\n    tag_65:\n        /* \"WatermelonBUSDRoulette.sol\":4523:4637  uint number = uint(keccak256(abi.encodePacked(block.timestamp, block.difficulty, blockhash(block.number-1)))) % 37 */\n      swap1\n      pop\n        /* \"WatermelonBUSDRoulette.sol\":4690:4699  uint256 i */\n      0x00\n        /* \"WatermelonBUSDRoulette.sol\":4685:7081  for (uint256 i = 0; i < foo[msg.sender].length; i++) {... */\n    tag_67:\n        /* \"WatermelonBUSDRoulette.sol\":4709:4712  foo */\n      0x0e\n        /* \"WatermelonBUSDRoulette.sol\":4709:4724  foo[msg.sender] */\n      0x00\n        /* \"WatermelonBUSDRoulette.sol\":4713:4723  msg.sender */\n      caller\n        /* \"WatermelonBUSDRoulette.sol\":4709:4724  foo[msg.sender] */\n      0xffffffffffffffffffffffffffffffffffffffff\n      and\n      0xffffffffffffffffffffffffffffffffffffffff\n      and\n      dup2\n      mstore\n      0x20\n      add\n      swap1\n      dup2\n      mstore\n      0x20\n      add\n      0x00\n      keccak256\n        /* \"WatermelonBUSDRoulette.sol\":4709:4731  foo[msg.sender].length */\n      dup1\n      sload\n      swap1\n      pop\n        /* \"WatermelonBUSDRoulette.sol\":4705:4706  i */\n      dup2\n        /* \"WatermelonBUSDRoulette.sol\":4705:4731  i < foo[msg.sender].length */\n      lt\n        /* \"WatermelonBUSDRoulette.sol\":4685:7081  for (uint256 i = 0; i < foo[msg.sender].length; i++) {... */\n      iszero\n      tag_68\n      jumpi\n        /* \"WatermelonBUSDRoulette.sol\":4746:4754  bool won */\n      0x00\n        /* \"WatermelonBUSDRoulette.sol\":4770:4782  Bet memory b */\n      dup1\n        /* \"WatermelonBUSDRoulette.sol\":4784:4787  foo */\n      0x0e\n        /* \"WatermelonBUSDRoulette.sol\":4784:4799  foo[msg.sender] */\n      0x00\n        /* \"WatermelonBUSDRoulette.sol\":4788:4798  msg.sender */\n      caller\n        /* \"WatermelonBUSDRoulette.sol\":4784:4799  foo[msg.sender] */\n      0xffffffffffffffffffffffffffffffffffffffff\n      and\n      0xffffffffffffffffffffffffffffffffffffffff\n      and\n      dup2\n      mstore\n      0x20\n      add\n      swap1\n      dup2\n      mstore\n      0x20\n      add\n      0x00\n      keccak256\n        /* \"WatermelonBUSDRoulette.sol\":4800:4801  i */\n      dup4\n        /* \"WatermelonBUSDRoulette.sol\":4784:4802  foo[msg.sender][i] */\n      dup2\n      sload\n      dup2\n      lt\n      tag_70\n      jumpi\n      tag_71\n      tag_72\n      jump\t// in\n    tag_71:\n    tag_70:\n      swap1\n      0x00\n      mstore\n      keccak256(0x00, 0x20)\n      add\n        /* \"WatermelonBUSDRoulette.sol\":4770:4802  Bet memory b =foo[msg.sender][i] */\n      mload(0x40)\n      dup1\n      0x60\n      add\n      0x40\n      mstore\n      swap1\n      dup2\n      0x00\n      dup3\n      add\n      0x00\n      swap1\n      sload\n      swap1\n      0x0100\n      exp\n      swap1\n      div\n      0xffffffffffffffffffffffffffffffffffffffff\n      and\n      0xffffffffffffffffffffffffffffffffffffffff\n      and\n      0xffffffffffffffffffffffffffffffffffffffff\n      and\n      dup2\n      mstore\n      0x20\n      add\n      0x00\n      dup3\n      add\n      0x14\n      swap1\n      sload\n      swap1\n      0x0100\n      exp\n      swap1\n      div\n      0xff\n      and\n      0xff\n      and\n      0xff\n      and\n      dup2\n      mstore\n      0x20\n      add\n      0x00\n      dup3\n      add\n      0x15\n      swap1\n      sload\n      swap1\n      0x0100\n      exp\n      swap1\n      div\n      0xff\n      and\n      0xff\n      and\n      0xff\n      and\n      dup2\n      mstore\n      pop\n      pop\n      swap1\n      pop\n        /* \"WatermelonBUSDRoulette.sol\":4824:4825  0 */\n      0x00\n        /* \"WatermelonBUSDRoulette.sol\":4814:4820  number */\n      dup5\n        /* \"WatermelonBUSDRoulette.sol\":4814:4825  number == 0 */\n      sub\n        /* \"WatermelonBUSDRoulette.sol\":4810:6754  if (number == 0) {... */\n      tag_74\n      jumpi\n        /* \"WatermelonBUSDRoulette.sol\":4857:4858  5 */\n      0x05\n        /* \"WatermelonBUSDRoulette.sol\":4844:4845  b */\n      dup2\n        /* \"WatermelonBUSDRoulette.sol\":4844:4853  b.betType */\n      0x20\n      add\n      mload\n        /* \"WatermelonBUSDRoulette.sol\":4844:4858  b.betType == 5 */\n      0xff\n      and\n      eq\n        /* \"WatermelonBUSDRoulette.sol\":4844:4875  b.betType == 5 && b.number == 0 */\n      dup1\n      iszero\n      tag_75\n      jumpi\n      pop\n        /* \"WatermelonBUSDRoulette.sol\":4874:4875  0 */\n      0x00\n        /* \"WatermelonBUSDRoulette.sol\":4862:4863  b */\n      dup2\n        /* \"WatermelonBUSDRoulette.sol\":4862:4870  b.number */\n      0x40\n      add\n      mload\n        /* \"WatermelonBUSDRoulette.sol\":4862:4875  b.number == 0 */\n      0xff\n      and\n      eq\n        /* \"WatermelonBUSDRoulette.sol\":4844:4875  b.betType == 5 && b.number == 0 */\n    tag_75:\n        /* \"WatermelonBUSDRoulette.sol\":4837:4876  won = (b.betType == 5 && b.number == 0) */\n      swap2\n      pop\n        /* \"WatermelonBUSDRoulette.sol\":4810:6754  if (number == 0) {... */\n      jump(tag_76)\n    tag_74:\n        /* \"WatermelonBUSDRoulette.sol\":4951:4952  5 */\n      0x05\n        /* \"WatermelonBUSDRoulette.sol\":4938:4939  b */\n      dup2\n        /* \"WatermelonBUSDRoulette.sol\":4938:4947  b.betType */\n      0x20\n      add\n      mload\n        /* \"WatermelonBUSDRoulette.sol\":4938:4952  b.betType == 5 */\n      0xff\n      and\n      sub\n        /* \"WatermelonBUSDRoulette.sol\":4934:6746  if (b.betType == 5) { ... */\n      tag_77\n      jumpi\n        /* \"WatermelonBUSDRoulette.sol\":4986:4992  number */\n      dup4\n        /* \"WatermelonBUSDRoulette.sol\":4974:4975  b */\n      dup2\n        /* \"WatermelonBUSDRoulette.sol\":4974:4982  b.number */\n      0x40\n      add\n      mload\n        /* \"WatermelonBUSDRoulette.sol\":4974:4992  b.number == number */\n      0xff\n      and\n      eq\n        /* \"WatermelonBUSDRoulette.sol\":4967:4993  won = (b.number == number) */\n      swap2\n      pop\n        /* \"WatermelonBUSDRoulette.sol\":4934:6746  if (b.betType == 5) { ... */\n      jump(tag_78)\n    tag_77:\n        /* \"WatermelonBUSDRoulette.sol\":5076:5077  4 */\n      0x04\n        /* \"WatermelonBUSDRoulette.sol\":5063:5064  b */\n      dup2\n        /* \"WatermelonBUSDRoulette.sol\":5063:5072  b.betType */\n      0x20\n      add\n      mload\n        /* \"WatermelonBUSDRoulette.sol\":5063:5077  b.betType == 4 */\n      0xff\n      and\n      sub\n        /* \"WatermelonBUSDRoulette.sol\":5059:6746  if (b.betType == 4) {... */\n      tag_79\n      jumpi\n        /* \"WatermelonBUSDRoulette.sol\":5113:5114  0 */\n      0x00\n        /* \"WatermelonBUSDRoulette.sol\":5101:5102  b */\n      dup2\n        /* \"WatermelonBUSDRoulette.sol\":5101:5109  b.number */\n      0x40\n      add\n      mload\n        /* \"WatermelonBUSDRoulette.sol\":5101:5114  b.number == 0 */\n      0xff\n      and\n      sub\n        /* \"WatermelonBUSDRoulette.sol\":5097:5139  if (b.number == 0) won = (number % 2 == 0) */\n      tag_80\n      jumpi\n        /* \"WatermelonBUSDRoulette.sol\":5137:5138  0 */\n      0x00\n        /* \"WatermelonBUSDRoulette.sol\":5132:5133  2 */\n      0x02\n        /* \"WatermelonBUSDRoulette.sol\":5123:5129  number */\n      dup6\n        /* \"WatermelonBUSDRoulette.sol\":5123:5133  number % 2 */\n      tag_81\n      swap2\n      swap1\n      tag_66\n      jump\t// in\n    tag_81:\n        /* \"WatermelonBUSDRoulette.sol\":5123:5138  number % 2 == 0 */\n      eq\n        /* \"WatermelonBUSDRoulette.sol\":5116:5139  won = (number % 2 == 0) */\n      swap2\n      pop\n        /* \"WatermelonBUSDRoulette.sol\":5097:5139  if (b.number == 0) won = (number % 2 == 0) */\n    tag_80:\n        /* \"WatermelonBUSDRoulette.sol\":5202:5203  1 */\n      0x01\n        /* \"WatermelonBUSDRoulette.sol\":5190:5191  b */\n      dup2\n        /* \"WatermelonBUSDRoulette.sol\":5190:5198  b.number */\n      0x40\n      add\n      mload\n        /* \"WatermelonBUSDRoulette.sol\":5190:5203  b.number == 1 */\n      0xff\n      and\n      sub\n        /* \"WatermelonBUSDRoulette.sol\":5186:5228  if (b.number == 1) won = (number % 2 == 1) */\n      tag_82\n      jumpi\n        /* \"WatermelonBUSDRoulette.sol\":5226:5227  1 */\n      0x01\n        /* \"WatermelonBUSDRoulette.sol\":5221:5222  2 */\n      0x02\n        /* \"WatermelonBUSDRoulette.sol\":5212:5218  number */\n      dup6\n        /* \"WatermelonBUSDRoulette.sol\":5212:5222  number % 2 */\n      tag_83\n      swap2\n      swap1\n      tag_66\n      jump\t// in\n    tag_83:\n        /* \"WatermelonBUSDRoulette.sol\":5212:5227  number % 2 == 1 */\n      eq\n        /* \"WatermelonBUSDRoulette.sol\":5205:5228  won = (number % 2 == 1) */\n      swap2\n      pop\n        /* \"WatermelonBUSDRoulette.sol\":5186:5228  if (b.number == 1) won = (number % 2 == 1) */\n    tag_82:\n        /* \"WatermelonBUSDRoulette.sol\":5059:6746  if (b.betType == 4) {... */\n      jump(tag_84)\n    tag_79:\n        /* \"WatermelonBUSDRoulette.sol\":5297:5298  3 */\n      0x03\n        /* \"WatermelonBUSDRoulette.sol\":5284:5285  b */\n      dup2\n        /* \"WatermelonBUSDRoulette.sol\":5284:5293  b.betType */\n      0x20\n      add\n      mload\n        /* \"WatermelonBUSDRoulette.sol\":5284:5298  b.betType == 3 */\n      0xff\n      and\n      sub\n        /* \"WatermelonBUSDRoulette.sol\":5280:6746  if (b.betType == 3) {            ... */\n      tag_85\n      jumpi\n        /* \"WatermelonBUSDRoulette.sol\":5340:5341  0 */\n      0x00\n        /* \"WatermelonBUSDRoulette.sol\":5328:5329  b */\n      dup2\n        /* \"WatermelonBUSDRoulette.sol\":5328:5336  b.number */\n      0x40\n      add\n      mload\n        /* \"WatermelonBUSDRoulette.sol\":5328:5341  b.number == 0 */\n      0xff\n      and\n      sub\n        /* \"WatermelonBUSDRoulette.sol\":5324:5363  if (b.number == 0) won = (number <= 18) */\n      tag_86\n      jumpi\n        /* \"WatermelonBUSDRoulette.sol\":5360:5362  18 */\n      0x12\n        /* \"WatermelonBUSDRoulette.sol\":5350:5356  number */\n      dup5\n        /* \"WatermelonBUSDRoulette.sol\":5350:5362  number <= 18 */\n      gt\n      iszero\n        /* \"WatermelonBUSDRoulette.sol\":5343:5363  won = (number <= 18) */\n      swap2\n      pop\n        /* \"WatermelonBUSDRoulette.sol\":5324:5363  if (b.number == 0) won = (number <= 18) */\n    tag_86:\n        /* \"WatermelonBUSDRoulette.sol\":5428:5429  1 */\n      0x01\n        /* \"WatermelonBUSDRoulette.sol\":5416:5417  b */\n      dup2\n        /* \"WatermelonBUSDRoulette.sol\":5416:5424  b.number */\n      0x40\n      add\n      mload\n        /* \"WatermelonBUSDRoulette.sol\":5416:5429  b.number == 1 */\n      0xff\n      and\n      sub\n        /* \"WatermelonBUSDRoulette.sol\":5412:5451  if (b.number == 1) won = (number >= 19) */\n      tag_87\n      jumpi\n        /* \"WatermelonBUSDRoulette.sol\":5448:5450  19 */\n      0x13\n        /* \"WatermelonBUSDRoulette.sol\":5438:5444  number */\n      dup5\n        /* \"WatermelonBUSDRoulette.sol\":5438:5450  number >= 19 */\n      lt\n      iszero\n        /* \"WatermelonBUSDRoulette.sol\":5431:5451  won = (number >= 19) */\n      swap2\n      pop\n        /* \"WatermelonBUSDRoulette.sol\":5412:5451  if (b.number == 1) won = (number >= 19) */\n    tag_87:\n        /* \"WatermelonBUSDRoulette.sol\":5280:6746  if (b.betType == 3) {            ... */\n      jump(tag_88)\n    tag_85:\n        /* \"WatermelonBUSDRoulette.sol\":5523:5524  2 */\n      0x02\n        /* \"WatermelonBUSDRoulette.sol\":5510:5511  b */\n      dup2\n        /* \"WatermelonBUSDRoulette.sol\":5510:5519  b.betType */\n      0x20\n      add\n      mload\n        /* \"WatermelonBUSDRoulette.sol\":5510:5524  b.betType == 2 */\n      0xff\n      and\n      sub\n        /* \"WatermelonBUSDRoulette.sol\":5506:6746  if (b.betType == 2) {                               ... */\n      tag_89\n      jumpi\n        /* \"WatermelonBUSDRoulette.sol\":5585:5586  0 */\n      0x00\n        /* \"WatermelonBUSDRoulette.sol\":5573:5574  b */\n      dup2\n        /* \"WatermelonBUSDRoulette.sol\":5573:5581  b.number */\n      0x40\n      add\n      mload\n        /* \"WatermelonBUSDRoulette.sol\":5573:5586  b.number == 0 */\n      0xff\n      and\n      sub\n        /* \"WatermelonBUSDRoulette.sol\":5569:5608  if (b.number == 0) won = (number <= 12) */\n      tag_90\n      jumpi\n        /* \"WatermelonBUSDRoulette.sol\":5605:5607  12 */\n      0x0c\n        /* \"WatermelonBUSDRoulette.sol\":5595:5601  number */\n      dup5\n        /* \"WatermelonBUSDRoulette.sol\":5595:5607  number <= 12 */\n      gt\n      iszero\n        /* \"WatermelonBUSDRoulette.sol\":5588:5608  won = (number <= 12) */\n      swap2\n      pop\n        /* \"WatermelonBUSDRoulette.sol\":5569:5608  if (b.number == 0) won = (number <= 12) */\n    tag_90:\n        /* \"WatermelonBUSDRoulette.sol\":5675:5676  1 */\n      0x01\n        /* \"WatermelonBUSDRoulette.sol\":5663:5664  b */\n      dup2\n        /* \"WatermelonBUSDRoulette.sol\":5663:5671  b.number */\n      0x40\n      add\n      mload\n        /* \"WatermelonBUSDRoulette.sol\":5663:5676  b.number == 1 */\n      0xff\n      and\n      sub\n        /* \"WatermelonBUSDRoulette.sol\":5659:5713  if (b.number == 1) won = (number > 12 && number <= 24) */\n      tag_91\n      jumpi\n        /* \"WatermelonBUSDRoulette.sol\":5694:5696  12 */\n      0x0c\n        /* \"WatermelonBUSDRoulette.sol\":5685:5691  number */\n      dup5\n        /* \"WatermelonBUSDRoulette.sol\":5685:5696  number > 12 */\n      gt\n        /* \"WatermelonBUSDRoulette.sol\":5685:5712  number > 12 && number <= 24 */\n      dup1\n      iszero\n      tag_92\n      jumpi\n      pop\n        /* \"WatermelonBUSDRoulette.sol\":5710:5712  24 */\n      0x18\n        /* \"WatermelonBUSDRoulette.sol\":5700:5706  number */\n      dup5\n        /* \"WatermelonBUSDRoulette.sol\":5700:5712  number <= 24 */\n      gt\n      iszero\n        /* \"WatermelonBUSDRoulette.sol\":5685:5712  number > 12 && number <= 24 */\n    tag_92:\n        /* \"WatermelonBUSDRoulette.sol\":5678:5713  won = (number > 12 && number <= 24) */\n      swap2\n      pop\n        /* \"WatermelonBUSDRoulette.sol\":5659:5713  if (b.number == 1) won = (number > 12 && number <= 24) */\n    tag_91:\n        /* \"WatermelonBUSDRoulette.sol\":5765:5766  2 */\n      0x02\n        /* \"WatermelonBUSDRoulette.sol\":5753:5754  b */\n      dup2\n        /* \"WatermelonBUSDRoulette.sol\":5753:5761  b.number */\n      0x40\n      add\n      mload\n        /* \"WatermelonBUSDRoulette.sol\":5753:5766  b.number == 2 */\n      0xff\n      and\n      sub\n        /* \"WatermelonBUSDRoulette.sol\":5749:5787  if (b.number == 2) won = (number > 24) */\n      tag_93\n      jumpi\n        /* \"WatermelonBUSDRoulette.sol\":5784:5786  24 */\n      0x18\n        /* \"WatermelonBUSDRoulette.sol\":5775:5781  number */\n      dup5\n        /* \"WatermelonBUSDRoulette.sol\":5775:5786  number > 24 */\n      gt\n        /* \"WatermelonBUSDRoulette.sol\":5768:5787  won = (number > 24) */\n      swap2\n      pop\n        /* \"WatermelonBUSDRoulette.sol\":5749:5787  if (b.number == 2) won = (number > 24) */\n    tag_93:\n        /* \"WatermelonBUSDRoulette.sol\":5506:6746  if (b.betType == 2) {                               ... */\n      jump(tag_94)\n    tag_89:\n        /* \"WatermelonBUSDRoulette.sol\":5861:5862  1 */\n      0x01\n        /* \"WatermelonBUSDRoulette.sol\":5848:5849  b */\n      dup2\n        /* \"WatermelonBUSDRoulette.sol\":5848:5857  b.betType */\n      0x20\n      add\n      mload\n        /* \"WatermelonBUSDRoulette.sol\":5848:5862  b.betType == 1 */\n      0xff\n      and\n      sub\n        /* \"WatermelonBUSDRoulette.sol\":5844:6746  if (b.betType == 1) {               ... */\n      tag_95\n      jumpi\n        /* \"WatermelonBUSDRoulette.sol\":5907:5908  0 */\n      0x00\n        /* \"WatermelonBUSDRoulette.sol\":5895:5896  b */\n      dup2\n        /* \"WatermelonBUSDRoulette.sol\":5895:5903  b.number */\n      0x40\n      add\n      mload\n        /* \"WatermelonBUSDRoulette.sol\":5895:5908  b.number == 0 */\n      0xff\n      and\n      sub\n        /* \"WatermelonBUSDRoulette.sol\":5891:5933  if (b.number == 0) won = (number % 3 == 1) */\n      tag_96\n      jumpi\n        /* \"WatermelonBUSDRoulette.sol\":5931:5932  1 */\n      0x01\n        /* \"WatermelonBUSDRoulette.sol\":5926:5927  3 */\n      0x03\n        /* \"WatermelonBUSDRoulette.sol\":5917:5923  number */\n      dup6\n        /* \"WatermelonBUSDRoulette.sol\":5917:5927  number % 3 */\n      tag_97\n      swap2\n      swap1\n      tag_66\n      jump\t// in\n    tag_97:\n        /* \"WatermelonBUSDRoulette.sol\":5917:5932  number % 3 == 1 */\n      eq\n        /* \"WatermelonBUSDRoulette.sol\":5910:5933  won = (number % 3 == 1) */\n      swap2\n      pop\n        /* \"WatermelonBUSDRoulette.sol\":5891:5933  if (b.number == 0) won = (number % 3 == 1) */\n    tag_96:\n        /* \"WatermelonBUSDRoulette.sol\":5999:6000  1 */\n      0x01\n        /* \"WatermelonBUSDRoulette.sol\":5987:5988  b */\n      dup2\n        /* \"WatermelonBUSDRoulette.sol\":5987:5995  b.number */\n      0x40\n      add\n      mload\n        /* \"WatermelonBUSDRoulette.sol\":5987:6000  b.number == 1 */\n      0xff\n      and\n      sub\n        /* \"WatermelonBUSDRoulette.sol\":5983:6025  if (b.number == 1) won = (number % 3 == 2) */\n      tag_98\n      jumpi\n        /* \"WatermelonBUSDRoulette.sol\":6023:6024  2 */\n      0x02\n        /* \"WatermelonBUSDRoulette.sol\":6018:6019  3 */\n      0x03\n        /* \"WatermelonBUSDRoulette.sol\":6009:6015  number */\n      dup6\n        /* \"WatermelonBUSDRoulette.sol\":6009:6019  number % 3 */\n      tag_99\n      swap2\n      swap1\n      tag_66\n      jump\t// in\n    tag_99:\n        /* \"WatermelonBUSDRoulette.sol\":6009:6024  number % 3 == 2 */\n      eq\n        /* \"WatermelonBUSDRoulette.sol\":6002:6025  won = (number % 3 == 2) */\n      swap2\n      pop\n        /* \"WatermelonBUSDRoulette.sol\":5983:6025  if (b.number == 1) won = (number % 3 == 2) */\n    tag_98:\n        /* \"WatermelonBUSDRoulette.sol\":6093:6094  2 */\n      0x02\n        /* \"WatermelonBUSDRoulette.sol\":6081:6082  b */\n      dup2\n        /* \"WatermelonBUSDRoulette.sol\":6081:6089  b.number */\n      0x40\n      add\n      mload\n        /* \"WatermelonBUSDRoulette.sol\":6081:6094  b.number == 2 */\n      0xff\n      and\n      sub\n        /* \"WatermelonBUSDRoulette.sol\":6077:6119  if (b.number == 2) won = (number % 3 == 0) */\n      tag_100\n      jumpi\n        /* \"WatermelonBUSDRoulette.sol\":6117:6118  0 */\n      0x00\n        /* \"WatermelonBUSDRoulette.sol\":6112:6113  3 */\n      0x03\n        /* \"WatermelonBUSDRoulette.sol\":6103:6109  number */\n      dup6\n        /* \"WatermelonBUSDRoulette.sol\":6103:6113  number % 3 */\n      tag_101\n      swap2\n      swap1\n      tag_66\n      jump\t// in\n    tag_101:\n        /* \"WatermelonBUSDRoulette.sol\":6103:6118  number % 3 == 0 */\n      eq\n        /* \"WatermelonBUSDRoulette.sol\":6096:6119  won = (number % 3 == 0) */\n      swap2\n      pop\n        /* \"WatermelonBUSDRoulette.sol\":6077:6119  if (b.number == 2) won = (number % 3 == 0) */\n    tag_100:\n        /* \"WatermelonBUSDRoulette.sol\":5844:6746  if (b.betType == 1) {               ... */\n      jump(tag_102)\n    tag_95:\n        /* \"WatermelonBUSDRoulette.sol\":6192:6193  0 */\n      0x00\n        /* \"WatermelonBUSDRoulette.sol\":6179:6180  b */\n      dup2\n        /* \"WatermelonBUSDRoulette.sol\":6179:6188  b.betType */\n      0x20\n      add\n      mload\n        /* \"WatermelonBUSDRoulette.sol\":6179:6193  b.betType == 0 */\n      0xff\n      and\n      sub\n        /* \"WatermelonBUSDRoulette.sol\":6175:6746  if (b.betType == 0) {... */\n      tag_103\n      jumpi\n        /* \"WatermelonBUSDRoulette.sol\":6223:6224  0 */\n      0x00\n        /* \"WatermelonBUSDRoulette.sol\":6211:6212  b */\n      dup2\n        /* \"WatermelonBUSDRoulette.sol\":6211:6219  b.number */\n      0x40\n      add\n      mload\n        /* \"WatermelonBUSDRoulette.sol\":6211:6224  b.number == 0 */\n      0xff\n      and\n      sub\n        /* \"WatermelonBUSDRoulette.sol\":6207:6736  if (b.number == 0) {                                     /* bet on black */... */\n      tag_104\n      jumpi\n        /* \"WatermelonBUSDRoulette.sol\":6309:6311  10 */\n      0x0a\n        /* \"WatermelonBUSDRoulette.sol\":6299:6305  number */\n      dup5\n        /* \"WatermelonBUSDRoulette.sol\":6299:6311  number <= 10 */\n      gt\n      iszero\n        /* \"WatermelonBUSDRoulette.sol\":6299:6345  number <= 10 || (number >= 20 && number <= 28) */\n      dup1\n      tag_105\n      jumpi\n      pop\n        /* \"WatermelonBUSDRoulette.sol\":6326:6328  20 */\n      0x14\n        /* \"WatermelonBUSDRoulette.sol\":6316:6322  number */\n      dup5\n        /* \"WatermelonBUSDRoulette.sol\":6316:6328  number >= 20 */\n      lt\n      iszero\n        /* \"WatermelonBUSDRoulette.sol\":6316:6344  number >= 20 && number <= 28 */\n      dup1\n      iszero\n      tag_106\n      jumpi\n      pop\n        /* \"WatermelonBUSDRoulette.sol\":6342:6344  28 */\n      0x1c\n        /* \"WatermelonBUSDRoulette.sol\":6332:6338  number */\n      dup5\n        /* \"WatermelonBUSDRoulette.sol\":6332:6344  number <= 28 */\n      gt\n      iszero\n        /* \"WatermelonBUSDRoulette.sol\":6316:6344  number >= 20 && number <= 28 */\n    tag_106:\n        /* \"WatermelonBUSDRoulette.sol\":6299:6345  number <= 10 || (number >= 20 && number <= 28) */\n    tag_105:\n        /* \"WatermelonBUSDRoulette.sol\":6295:6461  if (number <= 10 || (number >= 20 && number <= 28)) {... */\n      iszero\n      tag_107\n      jumpi\n        /* \"WatermelonBUSDRoulette.sol\":6384:6385  0 */\n      0x00\n        /* \"WatermelonBUSDRoulette.sol\":6379:6380  2 */\n      0x02\n        /* \"WatermelonBUSDRoulette.sol\":6370:6376  number */\n      dup6\n        /* \"WatermelonBUSDRoulette.sol\":6370:6380  number % 2 */\n      tag_108\n      swap2\n      swap1\n      tag_66\n      jump\t// in\n    tag_108:\n        /* \"WatermelonBUSDRoulette.sol\":6370:6385  number % 2 == 0 */\n      eq\n        /* \"WatermelonBUSDRoulette.sol\":6363:6386  won = (number % 2 == 0) */\n      swap2\n      pop\n        /* \"WatermelonBUSDRoulette.sol\":6295:6461  if (number <= 10 || (number >= 20 && number <= 28)) {... */\n      jump(tag_109)\n    tag_107:\n        /* \"WatermelonBUSDRoulette.sol\":6444:6445  1 */\n      0x01\n        /* \"WatermelonBUSDRoulette.sol\":6439:6440  2 */\n      0x02\n        /* \"WatermelonBUSDRoulette.sol\":6430:6436  number */\n      dup6\n        /* \"WatermelonBUSDRoulette.sol\":6430:6440  number % 2 */\n      tag_110\n      swap2\n      swap1\n      tag_66\n      jump\t// in\n    tag_110:\n        /* \"WatermelonBUSDRoulette.sol\":6430:6445  number % 2 == 1 */\n      eq\n        /* \"WatermelonBUSDRoulette.sol\":6423:6446  won = (number % 2 == 1) */\n      swap2\n      pop\n        /* \"WatermelonBUSDRoulette.sol\":6295:6461  if (number <= 10 || (number >= 20 && number <= 28)) {... */\n    tag_109:\n        /* \"WatermelonBUSDRoulette.sol\":6207:6736  if (b.number == 0) {                                     /* bet on black */... */\n      jump(tag_111)\n    tag_104:\n        /* \"WatermelonBUSDRoulette.sol\":6572:6574  10 */\n      0x0a\n        /* \"WatermelonBUSDRoulette.sol\":6562:6568  number */\n      dup5\n        /* \"WatermelonBUSDRoulette.sol\":6562:6574  number <= 10 */\n      gt\n      iszero\n        /* \"WatermelonBUSDRoulette.sol\":6562:6608  number <= 10 || (number >= 20 && number <= 28) */\n      dup1\n      tag_112\n      jumpi\n      pop\n        /* \"WatermelonBUSDRoulette.sol\":6589:6591  20 */\n      0x14\n        /* \"WatermelonBUSDRoulette.sol\":6579:6585  number */\n      dup5\n        /* \"WatermelonBUSDRoulette.sol\":6579:6591  number >= 20 */\n      lt\n      iszero\n        /* \"WatermelonBUSDRoulette.sol\":6579:6607  number >= 20 && number <= 28 */\n      dup1\n      iszero\n      tag_113\n      jumpi\n      pop\n        /* \"WatermelonBUSDRoulette.sol\":6605:6607  28 */\n      0x1c\n        /* \"WatermelonBUSDRoulette.sol\":6595:6601  number */\n      dup5\n        /* \"WatermelonBUSDRoulette.sol\":6595:6607  number <= 28 */\n      gt\n      iszero\n        /* \"WatermelonBUSDRoulette.sol\":6579:6607  number >= 20 && number <= 28 */\n    tag_113:\n        /* \"WatermelonBUSDRoulette.sol\":6562:6608  number <= 10 || (number >= 20 && number <= 28) */\n    tag_112:\n        /* \"WatermelonBUSDRoulette.sol\":6558:6724  if (number <= 10 || (number >= 20 && number <= 28)) {... */\n      iszero\n      tag_114\n      jumpi\n        /* \"WatermelonBUSDRoulette.sol\":6647:6648  1 */\n      0x01\n        /* \"WatermelonBUSDRoulette.sol\":6642:6643  2 */\n      0x02\n        /* \"WatermelonBUSDRoulette.sol\":6633:6639  number */\n      dup6\n        /* \"WatermelonBUSDRoulette.sol\":6633:6643  number % 2 */\n      tag_115\n      swap2\n      swap1\n      tag_66\n      jump\t// in\n    tag_115:\n        /* \"WatermelonBUSDRoulette.sol\":6633:6648  number % 2 == 1 */\n      eq\n        /* \"WatermelonBUSDRoulette.sol\":6626:6649  won = (number % 2 == 1) */\n      swap2\n      pop\n        /* \"WatermelonBUSDRoulette.sol\":6558:6724  if (number <= 10 || (number >= 20 && number <= 28)) {... */\n      jump(tag_116)\n    tag_114:\n        /* \"WatermelonBUSDRoulette.sol\":6707:6708  0 */\n      0x00\n        /* \"WatermelonBUSDRoulette.sol\":6702:6703  2 */\n      0x02\n        /* \"WatermelonBUSDRoulette.sol\":6693:6699  number */\n      dup6\n        /* \"WatermelonBUSDRoulette.sol\":6693:6703  number % 2 */\n      tag_117\n      swap2\n      swap1\n      tag_66\n      jump\t// in\n    tag_117:\n        /* \"WatermelonBUSDRoulette.sol\":6693:6708  number % 2 == 0 */\n      eq\n        /* \"WatermelonBUSDRoulette.sol\":6686:6709  won = (number % 2 == 0) */\n      swap2\n      pop\n        /* \"WatermelonBUSDRoulette.sol\":6558:6724  if (number <= 10 || (number >= 20 && number <= 28)) {... */\n    tag_116:\n        /* \"WatermelonBUSDRoulette.sol\":6207:6736  if (b.number == 0) {                                     /* bet on black */... */\n    tag_111:\n        /* \"WatermelonBUSDRoulette.sol\":6175:6746  if (b.betType == 0) {... */\n    tag_103:\n        /* \"WatermelonBUSDRoulette.sol\":5844:6746  if (b.betType == 1) {               ... */\n    tag_102:\n        /* \"WatermelonBUSDRoulette.sol\":5506:6746  if (b.betType == 2) {                               ... */\n    tag_94:\n        /* \"WatermelonBUSDRoulette.sol\":5280:6746  if (b.betType == 3) {            ... */\n    tag_88:\n        /* \"WatermelonBUSDRoulette.sol\":5059:6746  if (b.betType == 4) {... */\n    tag_84:\n        /* \"WatermelonBUSDRoulette.sol\":4934:6746  if (b.betType == 5) { ... */\n    tag_78:\n        /* \"WatermelonBUSDRoulette.sol\":4810:6754  if (number == 0) {... */\n    tag_76:\n        /* \"WatermelonBUSDRoulette.sol\":6825:6828  won */\n      dup2\n        /* \"WatermelonBUSDRoulette.sol\":6821:7075  if (won) {... */\n      iszero\n      tag_118\n      jumpi\n        /* \"WatermelonBUSDRoulette.sol\":6840:6861  uint256 currentAmount */\n      0x00\n        /* \"WatermelonBUSDRoulette.sol\":6864:6872  winnings */\n      0x0c\n        /* \"WatermelonBUSDRoulette.sol\":6864:6884  winnings[msg.sender] */\n      0x00\n        /* \"WatermelonBUSDRoulette.sol\":6873:6883  msg.sender */\n      caller\n        /* \"WatermelonBUSDRoulette.sol\":6864:6884  winnings[msg.sender] */\n      0xffffffffffffffffffffffffffffffffffffffff\n      and\n      0xffffffffffffffffffffffffffffffffffffffff\n      and\n      dup2\n      mstore\n      0x20\n      add\n      swap1\n      dup2\n      mstore\n      0x20\n      add\n      0x00\n      keccak256\n        /* \"WatermelonBUSDRoulette.sol\":6864:6897  winnings[msg.sender].winingAmount */\n      0x01\n      add\n      sload\n        /* \"WatermelonBUSDRoulette.sol\":6840:6897  uint256 currentAmount = winnings[msg.sender].winingAmount */\n      swap1\n      pop\n        /* \"WatermelonBUSDRoulette.sol\":6907:6921  uint256 NowWon */\n      0x00\n        /* \"WatermelonBUSDRoulette.sol\":6936:6943  payouts */\n      0x05\n        /* \"WatermelonBUSDRoulette.sol\":6944:6945  b */\n      dup4\n        /* \"WatermelonBUSDRoulette.sol\":6944:6953  b.betType */\n      0x20\n      add\n      mload\n        /* \"WatermelonBUSDRoulette.sol\":6936:6954  payouts[b.betType] */\n      0xff\n      and\n      dup2\n      sload\n      dup2\n      lt\n      tag_119\n      jumpi\n      tag_120\n      tag_72\n      jump\t// in\n    tag_120:\n    tag_119:\n      swap1\n      0x00\n      mstore\n      keccak256(0x00, 0x20)\n      swap1\n      0x20\n      swap2\n      dup3\n      dup3\n      div\n      add\n      swap2\n      swap1\n      mod\n      swap1\n      sload\n      swap1\n      0x0100\n      exp\n      swap1\n      div\n      0xff\n      and\n        /* \"WatermelonBUSDRoulette.sol\":6924:6954  betAmount * payouts[b.betType] */\n      0xff\n      and\n        /* \"WatermelonBUSDRoulette.sol\":6924:6933  betAmount */\n      sload(0x00)\n        /* \"WatermelonBUSDRoulette.sol\":6924:6954  betAmount * payouts[b.betType] */\n      tag_122\n      swap2\n      swap1\n      tag_123\n      jump\t// in\n    tag_122:\n        /* \"WatermelonBUSDRoulette.sol\":6907:6954  uint256 NowWon = betAmount * payouts[b.betType] */\n      swap1\n      pop\n        /* \"WatermelonBUSDRoulette.sol\":6964:6980  uint256 totalWon */\n      0x00\n        /* \"WatermelonBUSDRoulette.sol\":6999:7005  NowWon */\n      dup2\n        /* \"WatermelonBUSDRoulette.sol\":6983:6996  currentAmount */\n      dup4\n        /* \"WatermelonBUSDRoulette.sol\":6983:7005  currentAmount + NowWon */\n      tag_124\n      swap2\n      swap1\n      tag_125\n      jump\t// in\n    tag_124:\n        /* \"WatermelonBUSDRoulette.sol\":6964:7005  uint256 totalWon = currentAmount + NowWon */\n      swap1\n      pop\n        /* \"WatermelonBUSDRoulette.sol\":7038:7066  winning(msg.sender,totalWon) */\n      mload(0x40)\n      dup1\n      0x40\n      add\n      0x40\n      mstore\n      dup1\n        /* \"WatermelonBUSDRoulette.sol\":7046:7056  msg.sender */\n      caller\n        /* \"WatermelonBUSDRoulette.sol\":7038:7066  winning(msg.sender,totalWon) */\n      0xffffffffffffffffffffffffffffffffffffffff\n      and\n      dup2\n      mstore\n      0x20\n      add\n        /* \"WatermelonBUSDRoulette.sol\":7057:7065  totalWon */\n      dup3\n        /* \"WatermelonBUSDRoulette.sol\":7038:7066  winning(msg.sender,totalWon) */\n      dup2\n      mstore\n      pop\n        /* \"WatermelonBUSDRoulette.sol\":7015:7023  winnings */\n      0x0c\n        /* \"WatermelonBUSDRoulette.sol\":7015:7035  winnings[msg.sender] */\n      0x00\n        /* \"WatermelonBUSDRoulette.sol\":7024:7034  msg.sender */\n      caller\n        /* \"WatermelonBUSDRoulette.sol\":7015:7035  winnings[msg.sender] */\n      0xffffffffffffffffffffffffffffffffffffffff\n      and\n      0xffffffffffffffffffffffffffffffffffffffff\n      and\n      dup2\n      mstore\n      0x20\n      add\n      swap1\n      dup2\n      mstore\n      0x20\n      add\n      0x00\n      keccak256\n        /* \"WatermelonBUSDRoulette.sol\":7015:7066  winnings[msg.sender] = winning(msg.sender,totalWon) */\n      0x00\n      dup3\n      add\n      mload\n      dup2\n      0x00\n      add\n      exp(0x0100, 0x00)\n      dup2\n      sload\n      dup2\n      0xffffffffffffffffffffffffffffffffffffffff\n      mul\n      not\n      and\n      swap1\n      dup4\n      0xffffffffffffffffffffffffffffffffffffffff\n      and\n      mul\n      or\n      swap1\n      sstore\n      pop\n      0x20\n      dup3\n      add\n      mload\n      dup2\n      0x01\n      add\n      sstore\n      swap1\n      pop\n      pop\n        /* \"WatermelonBUSDRoulette.sol\":6830:7075  {... */\n      pop\n      pop\n      pop\n        /* \"WatermelonBUSDRoulette.sol\":6821:7075  if (won) {... */\n    tag_118:\n        /* \"WatermelonBUSDRoulette.sol\":4738:7081  {... */\n      pop\n      pop\n        /* \"WatermelonBUSDRoulette.sol\":4733:4736  i++ */\n      dup1\n      dup1\n      tag_126\n      swap1\n      tag_127\n      jump\t// in\n    tag_126:\n      swap2\n      pop\n      pop\n        /* \"WatermelonBUSDRoulette.sol\":4685:7081  for (uint256 i = 0; i < foo[msg.sender].length; i++) {... */\n      jump(tag_67)\n    tag_68:\n      pop\n        /* \"WatermelonBUSDRoulette.sol\":7119:7122  foo */\n      0x0e\n        /* \"WatermelonBUSDRoulette.sol\":7119:7134  foo[msg.sender] */\n      0x00\n        /* \"WatermelonBUSDRoulette.sol\":7123:7133  msg.sender */\n      caller\n        /* \"WatermelonBUSDRoulette.sol\":7119:7134  foo[msg.sender] */\n      0xffffffffffffffffffffffffffffffffffffffff\n      and\n      0xffffffffffffffffffffffffffffffffffffffff\n      and\n      dup2\n      mstore\n      0x20\n      add\n      swap1\n      dup2\n      mstore\n      0x20\n      add\n      0x00\n      keccak256\n      0x00\n        /* \"WatermelonBUSDRoulette.sol\":7112:7134  delete foo[msg.sender] */\n      tag_128\n      swap2\n      swap1\n      tag_129\n      jump\t// in\n    tag_128:\n        /* \"WatermelonBUSDRoulette.sol\":7193:7194  0 */\n      0x00\n        /* \"WatermelonBUSDRoulette.sol\":7174:7190  necessaryBalance */\n      0x01\n        /* \"WatermelonBUSDRoulette.sol\":7174:7194  necessaryBalance = 0 */\n      dup2\n      swap1\n      sstore\n      pop\n        /* \"WatermelonBUSDRoulette.sol\":7247:7267  RandomNumber(number) */\n      0xec6cdc8e735e4069f6e89062582f3e5532a8e71373e7ef2962fa916cf2af21f2\n        /* \"WatermelonBUSDRoulette.sol\":7260:7266  number */\n      dup2\n        /* \"WatermelonBUSDRoulette.sol\":7247:7267  RandomNumber(number) */\n      mload(0x40)\n      tag_130\n      swap2\n      swap1\n      tag_18\n      jump\t// in\n    tag_130:\n      mload(0x40)\n      dup1\n      swap2\n      sub\n      swap1\n      log1\n        /* \"WatermelonBUSDRoulette.sol\":7281:7287  number */\n      dup1\n        /* \"WatermelonBUSDRoulette.sol\":7273:7288  return (number) */\n      swap2\n      pop\n      pop\n        /* \"WatermelonBUSDRoulette.sol\":4249:7293  function spinWheel() public  returns(uint) {... */\n      swap1\n      jump\t// out\n        /* \"WatermelonBUSDRoulette.sol\":2716:2868  function Liquidity(uint256 _amount) public {... */\n    tag_22:\n        /* \"WatermelonBUSDRoulette.sol\":2787:2794  creator */\n      0x03\n      0x00\n      swap1\n      sload\n      swap1\n      0x0100\n      exp\n      swap1\n      div\n      0xffffffffffffffffffffffffffffffffffffffff\n      and\n        /* \"WatermelonBUSDRoulette.sol\":2773:2794  msg.sender == creator */\n      0xffffffffffffffffffffffffffffffffffffffff\n      and\n        /* \"WatermelonBUSDRoulette.sol\":2773:2783  msg.sender */\n      caller\n        /* \"WatermelonBUSDRoulette.sol\":2773:2794  msg.sender == creator */\n      0xffffffffffffffffffffffffffffffffffffffff\n      and\n      eq\n        /* \"WatermelonBUSDRoulette.sol\":2765:2795  require(msg.sender == creator) */\n      tag_132\n      jumpi\n      0x00\n      dup1\n      revert\n    tag_132:\n        /* \"WatermelonBUSDRoulette.sol\":2802:2815  BusdInterface */\n      0x07\n      0x00\n      swap1\n      sload\n      swap1\n      0x0100\n      exp\n      swap1\n      div\n      0xffffffffffffffffffffffffffffffffffffffff\n      and\n        /* \"WatermelonBUSDRoulette.sol\":2802:2828  BusdInterface.transferFrom */\n      0xffffffffffffffffffffffffffffffffffffffff\n      and\n      0x23b872dd\n        /* \"WatermelonBUSDRoulette.sol\":2829:2839  msg.sender */\n      caller\n        /* \"WatermelonBUSDRoulette.sol\":2848:2852  this */\n      address\n        /* \"WatermelonBUSDRoulette.sol\":2854:2861  _amount */\n      dup5\n        /* \"WatermelonBUSDRoulette.sol\":2802:2862  BusdInterface.transferFrom(msg.sender,address(this),_amount) */\n      mload(0x40)\n      dup5\n      0xffffffff\n      and\n      0xe0\n      shl\n      dup2\n      mstore\n      0x04\n      add\n      tag_133\n      swap4\n      swap3\n      swap2\n      swap1\n      tag_134\n      jump\t// in\n    tag_133:\n      0x20\n      mload(0x40)\n      dup1\n      dup4\n      sub\n      dup2\n      0x00\n      dup8\n      gas\n      call\n      iszero\n      dup1\n      iszero\n      tag_136\n      jumpi\n      returndatasize\n      0x00\n      dup1\n      returndatacopy\n      revert(0x00, returndatasize)\n    tag_136:\n      pop\n      pop\n      pop\n      pop\n      mload(0x40)\n      returndatasize\n      not(0x1f)\n      0x1f\n      dup3\n      add\n      and\n      dup3\n      add\n      dup1\n      0x40\n      mstore\n      pop\n      dup2\n      add\n      swap1\n      tag_137\n      swap2\n      swap1\n      tag_138\n      jump\t// in\n    tag_137:\n      pop\n        /* \"WatermelonBUSDRoulette.sol\":2716:2868  function Liquidity(uint256 _amount) public {... */\n      pop\n      jump\t// out\n        /* \"WatermelonBUSDRoulette.sol\":1777:1794  Bet[] public bets */\n    tag_25:\n      0x0d\n      dup2\n      dup2\n      sload\n      dup2\n      lt\n      tag_139\n      jumpi\n      0x00\n      dup1\n      revert\n    tag_139:\n      swap1\n      0x00\n      mstore\n      keccak256(0x00, 0x20)\n      add\n      0x00\n      swap2\n      pop\n      swap1\n      pop\n      dup1\n      0x00\n      add\n      0x00\n      swap1\n      sload\n      swap1\n      0x0100\n      exp\n      swap1\n      div\n      0xffffffffffffffffffffffffffffffffffffffff\n      and\n      swap1\n      dup1\n      0x00\n      add\n      0x14\n      swap1\n      sload\n      swap1\n      0x0100\n      exp\n      swap1\n      div\n      0xff\n      and\n      swap1\n      dup1\n      0x00\n      add\n      0x15\n      swap1\n      sload\n      swap1\n      0x0100\n      exp\n      swap1\n      div\n      0xff\n      and\n      swap1\n      pop\n      dup4\n      jump\t// out\n        /* \"WatermelonBUSDRoulette.sol\":2293:2708  function getStatus(address addr) public view returns(uint, uint, uint, uint, uint) {... */\n    tag_31:\n        /* \"WatermelonBUSDRoulette.sol\":2346:2350  uint */\n      0x00\n        /* \"WatermelonBUSDRoulette.sol\":2352:2356  uint */\n      dup1\n        /* \"WatermelonBUSDRoulette.sol\":2358:2362  uint */\n      0x00\n        /* \"WatermelonBUSDRoulette.sol\":2364:2368  uint */\n      dup1\n        /* \"WatermelonBUSDRoulette.sol\":2370:2374  uint */\n      0x00\n        /* \"WatermelonBUSDRoulette.sol\":2397:2400  foo */\n      0x0e\n        /* \"WatermelonBUSDRoulette.sol\":2397:2406  foo[addr] */\n      0x00\n        /* \"WatermelonBUSDRoulette.sol\":2401:2405  addr */\n      dup8\n        /* \"WatermelonBUSDRoulette.sol\":2397:2406  foo[addr] */\n      0xffffffffffffffffffffffffffffffffffffffff\n      and\n      0xffffffffffffffffffffffffffffffffffffffff\n      and\n      dup2\n      mstore\n      0x20\n      add\n      swap1\n      dup2\n      mstore\n      0x20\n      add\n      0x00\n      keccak256\n        /* \"WatermelonBUSDRoulette.sol\":2397:2413  foo[addr].length */\n      dup1\n      sload\n      swap1\n      pop\n        /* \"WatermelonBUSDRoulette.sol\":2477:2486  betAmount */\n      sload(0x00)\n        /* \"WatermelonBUSDRoulette.sol\":2458:2461  foo */\n      0x0e\n        /* \"WatermelonBUSDRoulette.sol\":2458:2467  foo[addr] */\n      0x00\n        /* \"WatermelonBUSDRoulette.sol\":2462:2466  addr */\n      dup10\n        /* \"WatermelonBUSDRoulette.sol\":2458:2467  foo[addr] */\n      0xffffffffffffffffffffffffffffffffffffffff\n      and\n      0xffffffffffffffffffffffffffffffffffffffff\n      and\n      dup2\n      mstore\n      0x20\n      add\n      swap1\n      dup2\n      mstore\n      0x20\n      add\n      0x00\n      keccak256\n        /* \"WatermelonBUSDRoulette.sol\":2458:2474  foo[addr].length */\n      dup1\n      sload\n      swap1\n      pop\n        /* \"WatermelonBUSDRoulette.sol\":2458:2486  foo[addr].length * betAmount */\n      tag_142\n      swap2\n      swap1\n      tag_123\n      jump\t// in\n    tag_142:\n        /* \"WatermelonBUSDRoulette.sol\":2518:2536  nextRoundTimestamp */\n      sload(0x02)\n        /* \"WatermelonBUSDRoulette.sol\":2575:2588  BusdInterface */\n      0x07\n      0x00\n      swap1\n      sload\n      swap1\n      0x0100\n      exp\n      swap1\n      div\n      0xffffffffffffffffffffffffffffffffffffffff\n      and\n        /* \"WatermelonBUSDRoulette.sol\":2575:2598  BusdInterface.balanceOf */\n      0xffffffffffffffffffffffffffffffffffffffff\n      and\n      0x70a08231\n        /* \"WatermelonBUSDRoulette.sol\":2607:2611  this */\n      address\n        /* \"WatermelonBUSDRoulette.sol\":2575:2613  BusdInterface.balanceOf(address(this)) */\n      mload(0x40)\n      dup3\n      0xffffffff\n      and\n      0xe0\n      shl\n      dup2\n      mstore\n      0x04\n      add\n      tag_143\n      swap2\n      swap1\n      tag_37\n      jump\t// in\n    tag_143:\n      0x20\n      mload(0x40)\n      dup1\n      dup4\n      sub\n      dup2\n      dup7\n      gas\n      staticcall\n      iszero\n      dup1\n      iszero\n      tag_145\n      jumpi\n      returndatasize\n      0x00\n      dup1\n      returndatacopy\n      revert(0x00, returndatasize)\n    tag_145:\n      pop\n      pop\n      pop\n      pop\n      mload(0x40)\n      returndatasize\n      not(0x1f)\n      0x1f\n      dup3\n      add\n      and\n      dup3\n      add\n      dup1\n      0x40\n      mstore\n      pop\n      dup2\n      add\n      swap1\n      tag_146\n      swap2\n      swap1\n      tag_147\n      jump\t// in\n    tag_146:\n        /* \"WatermelonBUSDRoulette.sol\":2643:2651  winnings */\n      0x0c\n        /* \"WatermelonBUSDRoulette.sol\":2643:2657  winnings[addr] */\n      0x00\n        /* \"WatermelonBUSDRoulette.sol\":2652:2656  addr */\n      dup12\n        /* \"WatermelonBUSDRoulette.sol\":2643:2657  winnings[addr] */\n      0xffffffffffffffffffffffffffffffffffffffff\n      and\n      0xffffffffffffffffffffffffffffffffffffffff\n      and\n      dup2\n      mstore\n      0x20\n      add\n      swap1\n      dup2\n      mstore\n      0x20\n      add\n      0x00\n      keccak256\n        /* \"WatermelonBUSDRoulette.sol\":2643:2670  winnings[addr].winingAmount */\n      0x01\n      add\n      sload\n        /* \"WatermelonBUSDRoulette.sol\":2382:2702  return (... */\n      swap5\n      pop\n      swap5\n      pop\n      swap5\n      pop\n      swap5\n      pop\n      swap5\n      pop\n        /* \"WatermelonBUSDRoulette.sol\":2293:2708  function getStatus(address addr) public view returns(uint, uint, uint, uint, uint) {... */\n      swap2\n      swap4\n      swap6\n      swap1\n      swap3\n      swap5\n      pop\n      jump\t// out\n        /* \"WatermelonBUSDRoulette.sol\":1029:1094  address public miner = 0xEBFDF7A84eB1DD651663782802A818ce36F3e18A */\n    tag_35:\n      0x0a\n      0x00\n      swap1\n      sload\n      swap1\n      0x0100\n      exp\n      swap1\n      div\n      0xffffffffffffffffffffffffffffffffffffffff\n      and\n      dup2\n      jump\t// out\n        /* \"WatermelonBUSDRoulette.sol\":3272:4244  function bet(address _ref , uint256 _amount, uint8 number, uint8 betType) public {... */\n    tag_41:\n        /* \"WatermelonBUSDRoulette.sol\":3379:3388  betAmount */\n      sload(0x00)\n        /* \"WatermelonBUSDRoulette.sol\":3368:3375  _amount */\n      dup4\n        /* \"WatermelonBUSDRoulette.sol\":3368:3388  _amount == betAmount */\n      eq\n        /* \"WatermelonBUSDRoulette.sol\":3360:3389  require(_amount == betAmount) */\n      tag_149\n      jumpi\n      0x00\n      dup1\n      revert\n    tag_149:\n        /* \"WatermelonBUSDRoulette.sol\":3449:3450  0 */\n      0x00\n        /* \"WatermelonBUSDRoulette.sol\":3438:3445  betType */\n      dup2\n        /* \"WatermelonBUSDRoulette.sol\":3438:3450  betType >= 0 */\n      0xff\n      and\n      lt\n      iszero\n        /* \"WatermelonBUSDRoulette.sol\":3438:3466  betType >= 0 && betType <= 5 */\n      dup1\n      iszero\n      tag_150\n      jumpi\n      pop\n        /* \"WatermelonBUSDRoulette.sol\":3465:3466  5 */\n      0x05\n        /* \"WatermelonBUSDRoulette.sol\":3454:3461  betType */\n      dup2\n        /* \"WatermelonBUSDRoulette.sol\":3454:3466  betType <= 5 */\n      0xff\n      and\n      gt\n      iszero\n        /* \"WatermelonBUSDRoulette.sol\":3438:3466  betType >= 0 && betType <= 5 */\n    tag_150:\n        /* \"WatermelonBUSDRoulette.sol\":3430:3467  require(betType >= 0 && betType <= 5) */\n      tag_151\n      jumpi\n      0x00\n      dup1\n      revert\n    tag_151:\n        /* \"WatermelonBUSDRoulette.sol\":3520:3521  0 */\n      0x00\n        /* \"WatermelonBUSDRoulette.sol\":3510:3516  number */\n      dup3\n        /* \"WatermelonBUSDRoulette.sol\":3510:3521  number >= 0 */\n      0xff\n      and\n      lt\n      iszero\n        /* \"WatermelonBUSDRoulette.sol\":3510:3555  number >= 0 && number <= numberRange[betType] */\n      dup1\n      iszero\n      tag_152\n      jumpi\n      pop\n        /* \"WatermelonBUSDRoulette.sol\":3535:3546  numberRange */\n      0x06\n        /* \"WatermelonBUSDRoulette.sol\":3547:3554  betType */\n      dup2\n        /* \"WatermelonBUSDRoulette.sol\":3535:3555  numberRange[betType] */\n      0xff\n      and\n      dup2\n      sload\n      dup2\n      lt\n      tag_153\n      jumpi\n      tag_154\n      tag_72\n      jump\t// in\n    tag_154:\n    tag_153:\n      swap1\n      0x00\n      mstore\n      keccak256(0x00, 0x20)\n      swap1\n      0x20\n      swap2\n      dup3\n      dup3\n      div\n      add\n      swap2\n      swap1\n      mod\n      swap1\n      sload\n      swap1\n      0x0100\n      exp\n      swap1\n      div\n      0xff\n      and\n        /* \"WatermelonBUSDRoulette.sol\":3525:3555  number <= numberRange[betType] */\n      0xff\n      and\n        /* \"WatermelonBUSDRoulette.sol\":3525:3531  number */\n      dup3\n        /* \"WatermelonBUSDRoulette.sol\":3525:3555  number <= numberRange[betType] */\n      0xff\n      and\n      gt\n      iszero\n        /* \"WatermelonBUSDRoulette.sol\":3510:3555  number >= 0 && number <= numberRange[betType] */\n    tag_152:\n        /* \"WatermelonBUSDRoulette.sol\":3502:3556  require(number >= 0 && number <= numberRange[betType]) */\n      tag_156\n      jumpi\n      0x00\n      dup1\n      revert\n    tag_156:\n        /* \"WatermelonBUSDRoulette.sol\":3575:3589  uint256 reffee */\n      0x00\n        /* \"WatermelonBUSDRoulette.sol\":3606:3613  ref_fee */\n      sload(0x09)\n        /* \"WatermelonBUSDRoulette.sol\":3600:3603  100 */\n      0x64\n        /* \"WatermelonBUSDRoulette.sol\":3592:3599  _amount */\n      dup6\n        /* \"WatermelonBUSDRoulette.sol\":3592:3603  _amount/100 */\n      tag_157\n      swap2\n      swap1\n      tag_158\n      jump\t// in\n    tag_157:\n        /* \"WatermelonBUSDRoulette.sol\":3592:3613  _amount/100 * ref_fee */\n      tag_159\n      swap2\n      swap1\n      tag_123\n      jump\t// in\n    tag_159:\n        /* \"WatermelonBUSDRoulette.sol\":3575:3613  uint256 reffee = _amount/100 * ref_fee */\n      swap1\n      pop\n        /* \"WatermelonBUSDRoulette.sol\":3620:3636  uint256 totalfee */\n      0x00\n        /* \"WatermelonBUSDRoulette.sol\":3639:3645  reffee */\n      dup2\n        /* \"WatermelonBUSDRoulette.sol\":3620:3645  uint256 totalfee = reffee */\n      swap1\n      pop\n        /* \"WatermelonBUSDRoulette.sol\":3652:3674  uint256 totalamountnow */\n      0x00\n        /* \"WatermelonBUSDRoulette.sol\":3687:3695  totalfee */\n      dup2\n        /* \"WatermelonBUSDRoulette.sol\":3677:3684  _amount */\n      dup7\n        /* \"WatermelonBUSDRoulette.sol\":3677:3695  _amount - totalfee */\n      tag_160\n      swap2\n      swap1\n      tag_62\n      jump\t// in\n    tag_160:\n        /* \"WatermelonBUSDRoulette.sol\":3652:3695  uint256 totalamountnow = _amount - totalfee */\n      swap1\n      pop\n        /* \"WatermelonBUSDRoulette.sol\":3703:3716  BusdInterface */\n      0x07\n      0x00\n      swap1\n      sload\n      swap1\n      0x0100\n      exp\n      swap1\n      div\n      0xffffffffffffffffffffffffffffffffffffffff\n      and\n        /* \"WatermelonBUSDRoulette.sol\":3703:3729  BusdInterface.transferFrom */\n      0xffffffffffffffffffffffffffffffffffffffff\n      and\n      0x23b872dd\n        /* \"WatermelonBUSDRoulette.sol\":3730:3740  msg.sender */\n      caller\n        /* \"WatermelonBUSDRoulette.sol\":3741:3745  _ref */\n      dup10\n        /* \"WatermelonBUSDRoulette.sol\":3746:3752  reffee */\n      dup7\n        /* \"WatermelonBUSDRoulette.sol\":3703:3753  BusdInterface.transferFrom(msg.sender,_ref,reffee) */\n      mload(0x40)\n      dup5\n      0xffffffff\n      and\n      0xe0\n      shl\n      dup2\n      mstore\n      0x04\n      add\n      tag_161\n      swap4\n      swap3\n      swap2\n      swap1\n      tag_134\n      jump\t// in\n    tag_161:\n      0x20\n      mload(0x40)\n      dup1\n      dup4\n      sub\n      dup2\n      0x00\n      dup8\n      gas\n      call\n      iszero\n      dup1\n      iszero\n      tag_163\n      jumpi\n      returndatasize\n      0x00\n      dup1\n      returndatacopy\n      revert(0x00, returndatasize)\n    tag_163:\n      pop\n      pop\n      pop\n      pop\n      mload(0x40)\n      returndatasize\n      not(0x1f)\n      0x1f\n      dup3\n      add\n      and\n      dup3\n      add\n      dup1\n      0x40\n      mstore\n      pop\n      dup2\n      add\n      swap1\n      tag_164\n      swap2\n      swap1\n      tag_138\n      jump\t// in\n    tag_164:\n      pop\n        /* \"WatermelonBUSDRoulette.sol\":3783:3796  BusdInterface */\n      0x07\n      0x00\n      swap1\n      sload\n      swap1\n      0x0100\n      exp\n      swap1\n      div\n      0xffffffffffffffffffffffffffffffffffffffff\n      and\n        /* \"WatermelonBUSDRoulette.sol\":3783:3809  BusdInterface.transferFrom */\n      0xffffffffffffffffffffffffffffffffffffffff\n      and\n      0x23b872dd\n        /* \"WatermelonBUSDRoulette.sol\":3810:3820  msg.sender */\n      caller\n        /* \"WatermelonBUSDRoulette.sol\":3829:3833  this */\n      address\n        /* \"WatermelonBUSDRoulette.sol\":3835:3849  totalamountnow */\n      dup5\n        /* \"WatermelonBUSDRoulette.sol\":3783:3850  BusdInterface.transferFrom(msg.sender,address(this),totalamountnow) */\n      mload(0x40)\n      dup5\n      0xffffffff\n      and\n      0xe0\n      shl\n      dup2\n      mstore\n      0x04\n      add\n      tag_165\n      swap4\n      swap3\n      swap2\n      swap1\n      tag_134\n      jump\t// in\n    tag_165:\n      0x20\n      mload(0x40)\n      dup1\n      dup4\n      sub\n      dup2\n      0x00\n      dup8\n      gas\n      call\n      iszero\n      dup1\n      iszero\n      tag_167\n      jumpi\n      returndatasize\n      0x00\n      dup1\n      returndatacopy\n      revert(0x00, returndatasize)\n    tag_167:\n      pop\n      pop\n      pop\n      pop\n      mload(0x40)\n      returndatasize\n      not(0x1f)\n      0x1f\n      dup3\n      add\n      and\n      dup3\n      add\n      dup1\n      0x40\n      mstore\n      pop\n      dup2\n      add\n      swap1\n      tag_168\n      swap2\n      swap1\n      tag_138\n      jump\t// in\n    tag_168:\n      pop\n        /* \"WatermelonBUSDRoulette.sol\":3893:3914  uint payoutForThisBet */\n      0x00\n        /* \"WatermelonBUSDRoulette.sol\":3936:3943  _amount */\n      dup7\n        /* \"WatermelonBUSDRoulette.sol\":3917:3924  payouts */\n      0x05\n        /* \"WatermelonBUSDRoulette.sol\":3925:3932  betType */\n      dup7\n        /* \"WatermelonBUSDRoulette.sol\":3917:3933  payouts[betType] */\n      0xff\n      and\n      dup2\n      sload\n      dup2\n      lt\n      tag_169\n      jumpi\n      tag_170\n      tag_72\n      jump\t// in\n    tag_170:\n    tag_169:\n      swap1\n      0x00\n      mstore\n      keccak256(0x00, 0x20)\n      swap1\n      0x20\n      swap2\n      dup3\n      dup3\n      div\n      add\n      swap2\n      swap1\n      mod\n      swap1\n      sload\n      swap1\n      0x0100\n      exp\n      swap1\n      div\n      0xff\n      and\n        /* \"WatermelonBUSDRoulette.sol\":3917:3943  payouts[betType] * _amount */\n      0xff\n      and\n      tag_172\n      swap2\n      swap1\n      tag_123\n      jump\t// in\n    tag_172:\n        /* \"WatermelonBUSDRoulette.sol\":3893:3943  uint payoutForThisBet = payouts[betType] * _amount */\n      swap1\n      pop\n        /* \"WatermelonBUSDRoulette.sol\":3949:3972  uint provisionalBalance */\n      0x00\n        /* \"WatermelonBUSDRoulette.sol\":3994:4010  payoutForThisBet */\n      dup2\n        /* \"WatermelonBUSDRoulette.sol\":3975:3991  necessaryBalance */\n      sload(0x01)\n        /* \"WatermelonBUSDRoulette.sol\":3975:4010  necessaryBalance + payoutForThisBet */\n      tag_173\n      swap2\n      swap1\n      tag_125\n      jump\t// in\n    tag_173:\n        /* \"WatermelonBUSDRoulette.sol\":3949:4010  uint provisionalBalance = necessaryBalance + payoutForThisBet */\n      swap1\n      pop\n        /* \"WatermelonBUSDRoulette.sol\":4045:4058  BusdInterface */\n      0x07\n      0x00\n      swap1\n      sload\n      swap1\n      0x0100\n      exp\n      swap1\n      div\n      0xffffffffffffffffffffffffffffffffffffffff\n      and\n        /* \"WatermelonBUSDRoulette.sol\":4045:4068  BusdInterface.balanceOf */\n      0xffffffffffffffffffffffffffffffffffffffff\n      and\n      0x70a08231\n        /* \"WatermelonBUSDRoulette.sol\":4077:4081  this */\n      address\n        /* \"WatermelonBUSDRoulette.sol\":4045:4083  BusdInterface.balanceOf(address(this)) */\n      mload(0x40)\n      dup3\n      0xffffffff\n      and\n      0xe0\n      shl\n      dup2\n      mstore\n      0x04\n      add\n      tag_174\n      swap2\n      swap1\n      tag_37\n      jump\t// in\n    tag_174:\n      0x20\n      mload(0x40)\n      dup1\n      dup4\n      sub\n      dup2\n      dup7\n      gas\n      staticcall\n      iszero\n      dup1\n      iszero\n      tag_176\n      jumpi\n      returndatasize\n      0x00\n      dup1\n      returndatacopy\n      revert(0x00, returndatasize)\n    tag_176:\n      pop\n      pop\n      pop\n      pop\n      mload(0x40)\n      returndatasize\n      not(0x1f)\n      0x1f\n      dup3\n      add\n      and\n      dup3\n      add\n      dup1\n      0x40\n      mstore\n      pop\n      dup2\n      add\n      swap1\n      tag_177\n      swap2\n      swap1\n      tag_147\n      jump\t// in\n    tag_177:\n        /* \"WatermelonBUSDRoulette.sol\":4024:4042  provisionalBalance */\n      dup2\n        /* \"WatermelonBUSDRoulette.sol\":4024:4083  provisionalBalance < BusdInterface.balanceOf(address(this)) */\n      lt\n        /* \"WatermelonBUSDRoulette.sol\":4016:4084  require(provisionalBalance < BusdInterface.balanceOf(address(this))) */\n      tag_178\n      jumpi\n      0x00\n      dup1\n      revert\n    tag_178:\n        /* \"WatermelonBUSDRoulette.sol\":4112:4128  payoutForThisBet */\n      dup2\n        /* \"WatermelonBUSDRoulette.sol\":4092:4108  necessaryBalance */\n      0x01\n      0x00\n        /* \"WatermelonBUSDRoulette.sol\":4092:4128  necessaryBalance += payoutForThisBet */\n      dup3\n      dup3\n      sload\n      tag_179\n      swap2\n      swap1\n      tag_125\n      jump\t// in\n    tag_179:\n      swap3\n      pop\n      pop\n      dup2\n      swap1\n      sstore\n      pop\n        /* \"WatermelonBUSDRoulette.sol\":4134:4137  foo */\n      0x0e\n        /* \"WatermelonBUSDRoulette.sol\":4134:4149  foo[msg.sender] */\n      0x00\n        /* \"WatermelonBUSDRoulette.sol\":4138:4148  msg.sender */\n      caller\n        /* \"WatermelonBUSDRoulette.sol\":4134:4149  foo[msg.sender] */\n      0xffffffffffffffffffffffffffffffffffffffff\n      and\n      0xffffffffffffffffffffffffffffffffffffffff\n      and\n      dup2\n      mstore\n      0x20\n      add\n      swap1\n      dup2\n      mstore\n      0x20\n      add\n      0x00\n      keccak256\n        /* \"WatermelonBUSDRoulette.sol\":4155:4238  Bet({... */\n      mload(0x40)\n      dup1\n      0x60\n      add\n      0x40\n      mstore\n      dup1\n        /* \"WatermelonBUSDRoulette.sol\":4175:4185  msg.sender */\n      caller\n        /* \"WatermelonBUSDRoulette.sol\":4155:4238  Bet({... */\n      0xffffffffffffffffffffffffffffffffffffffff\n      and\n      dup2\n      mstore\n      0x20\n      add\n        /* \"WatermelonBUSDRoulette.sol\":4202:4209  betType */\n      dup9\n        /* \"WatermelonBUSDRoulette.sol\":4155:4238  Bet({... */\n      0xff\n      and\n      dup2\n      mstore\n      0x20\n      add\n        /* \"WatermelonBUSDRoulette.sol\":4225:4231  number */\n      dup10\n        /* \"WatermelonBUSDRoulette.sol\":4155:4238  Bet({... */\n      0xff\n      and\n      dup2\n      mstore\n      pop\n        /* \"WatermelonBUSDRoulette.sol\":4134:4239  foo[msg.sender].push(Bet({... */\n      swap1\n      dup1\n      0x01\n      dup2\n      sload\n      add\n      dup1\n      dup3\n      sstore\n      dup1\n      swap2\n      pop\n      pop\n      0x01\n      swap1\n      sub\n      swap1\n      0x00\n      mstore\n      keccak256(0x00, 0x20)\n      add\n      0x00\n      swap1\n      swap2\n      swap1\n      swap2\n      swap1\n      swap2\n      pop\n      0x00\n      dup3\n      add\n      mload\n      dup2\n      0x00\n      add\n      exp(0x0100, 0x00)\n      dup2\n      sload\n      dup2\n      0xffffffffffffffffffffffffffffffffffffffff\n      mul\n      not\n      and\n      swap1\n      dup4\n      0xffffffffffffffffffffffffffffffffffffffff\n      and\n      mul\n      or\n      swap1\n      sstore\n      pop\n      0x20\n      dup3\n      add\n      mload\n      dup2\n      0x00\n      add\n      exp(0x0100, 0x14)\n      dup2\n      sload\n      dup2\n      0xff\n      mul\n      not\n      and\n      swap1\n      dup4\n      0xff\n      and\n      mul\n      or\n      swap1\n      sstore\n      pop\n      0x40\n      dup3\n      add\n      mload\n      dup2\n      0x00\n      add\n      exp(0x0100, 0x15)\n      dup2\n      sload\n      dup2\n      0xff\n      mul\n      not\n      and\n      swap1\n      dup4\n      0xff\n      and\n      mul\n      or\n      swap1\n      sstore\n      pop\n      pop\n      pop\n        /* \"WatermelonBUSDRoulette.sol\":3353:4244  {... */\n      pop\n      pop\n      pop\n      pop\n      pop\n        /* \"WatermelonBUSDRoulette.sol\":3272:4244  function bet(address _ref , uint256 _amount, uint8 number, uint8 betType) public {... */\n      pop\n      pop\n      pop\n      pop\n      jump\t// out\n        /* \"WatermelonBUSDRoulette.sol\":999:1025  uint256 public ref_fee = 4 */\n    tag_43:\n      sload(0x09)\n      dup2\n      jump\t// out\n        /* \"WatermelonBUSDRoulette.sol\":7297:7729  function cashOut() public  {... */\n    tag_46:\n        /* \"WatermelonBUSDRoulette.sol\":7330:7344  address player */\n      0x00\n        /* \"WatermelonBUSDRoulette.sol\":7347:7357  msg.sender */\n      caller\n        /* \"WatermelonBUSDRoulette.sol\":7330:7357  address player = msg.sender */\n      swap1\n      pop\n        /* \"WatermelonBUSDRoulette.sol\":7363:7377  uint256 amount */\n      0x00\n        /* \"WatermelonBUSDRoulette.sol\":7380:7388  winnings */\n      0x0c\n        /* \"WatermelonBUSDRoulette.sol\":7380:7396  winnings[player] */\n      0x00\n        /* \"WatermelonBUSDRoulette.sol\":7389:7395  player */\n      dup4\n        /* \"WatermelonBUSDRoulette.sol\":7380:7396  winnings[player] */\n      0xffffffffffffffffffffffffffffffffffffffff\n      and\n      0xffffffffffffffffffffffffffffffffffffffff\n      and\n      dup2\n      mstore\n      0x20\n      add\n      swap1\n      dup2\n      mstore\n      0x20\n      add\n      0x00\n      keccak256\n        /* \"WatermelonBUSDRoulette.sol\":7380:7409  winnings[player].winingAmount */\n      0x01\n      add\n      sload\n        /* \"WatermelonBUSDRoulette.sol\":7363:7409  uint256 amount = winnings[player].winingAmount */\n      swap1\n      pop\n        /* \"WatermelonBUSDRoulette.sol\":7432:7433  0 */\n      0x00\n        /* \"WatermelonBUSDRoulette.sol\":7423:7429  amount */\n      dup2\n        /* \"WatermelonBUSDRoulette.sol\":7423:7433  amount > 0 */\n      gt\n        /* \"WatermelonBUSDRoulette.sol\":7415:7434  require(amount > 0) */\n      tag_182\n      jumpi\n      0x00\n      dup1\n      revert\n    tag_182:\n        /* \"WatermelonBUSDRoulette.sol\":7458:7471  BusdInterface */\n      0x07\n      0x00\n      swap1\n      sload\n      swap1\n      0x0100\n      exp\n      swap1\n      div\n      0xffffffffffffffffffffffffffffffffffffffff\n      and\n        /* \"WatermelonBUSDRoulette.sol\":7458:7481  BusdInterface.balanceOf */\n      0xffffffffffffffffffffffffffffffffffffffff\n      and\n      0x70a08231\n        /* \"WatermelonBUSDRoulette.sol\":7490:7494  this */\n      address\n        /* \"WatermelonBUSDRoulette.sol\":7458:7496  BusdInterface.balanceOf(address(this)) */\n      mload(0x40)\n      dup3\n      0xffffffff\n      and\n      0xe0\n      shl\n      dup2\n      mstore\n      0x04\n      add\n      tag_183\n      swap2\n      swap1\n      tag_37\n      jump\t// in\n    tag_183:\n      0x20\n      mload(0x40)\n      dup1\n      dup4\n      sub\n      dup2\n      dup7\n      gas\n      staticcall\n      iszero\n      dup1\n      iszero\n      tag_185\n      jumpi\n      returndatasize\n      0x00\n      dup1\n      returndatacopy\n      revert(0x00, returndatasize)\n    tag_185:\n      pop\n      pop\n      pop\n      pop\n      mload(0x40)\n      returndatasize\n      not(0x1f)\n      0x1f\n      dup3\n      add\n      and\n      dup3\n      add\n      dup1\n      0x40\n      mstore\n      pop\n      dup2\n      add\n      swap1\n      tag_186\n      swap2\n      swap1\n      tag_147\n      jump\t// in\n    tag_186:\n        /* \"WatermelonBUSDRoulette.sol\":7448:7454  amount */\n      dup2\n        /* \"WatermelonBUSDRoulette.sol\":7448:7496  amount <= BusdInterface.balanceOf(address(this)) */\n      gt\n      iszero\n        /* \"WatermelonBUSDRoulette.sol\":7440:7497  require(amount <= BusdInterface.balanceOf(address(this))) */\n      tag_187\n      jumpi\n      0x00\n      dup1\n      revert\n    tag_187:\n        /* \"WatermelonBUSDRoulette.sol\":7526:7547  winning(msg.sender,0) */\n      mload(0x40)\n      dup1\n      0x40\n      add\n      0x40\n      mstore\n      dup1\n        /* \"WatermelonBUSDRoulette.sol\":7534:7544  msg.sender */\n      caller\n        /* \"WatermelonBUSDRoulette.sol\":7526:7547  winning(msg.sender,0) */\n      0xffffffffffffffffffffffffffffffffffffffff\n      and\n      dup2\n      mstore\n      0x20\n      add\n        /* \"WatermelonBUSDRoulette.sol\":7545:7546  0 */\n      0x00\n        /* \"WatermelonBUSDRoulette.sol\":7526:7547  winning(msg.sender,0) */\n      dup2\n      mstore\n      pop\n        /* \"WatermelonBUSDRoulette.sol\":7503:7511  winnings */\n      0x0c\n        /* \"WatermelonBUSDRoulette.sol\":7503:7523  winnings[msg.sender] */\n      0x00\n        /* \"WatermelonBUSDRoulette.sol\":7512:7522  msg.sender */\n      caller\n        /* \"WatermelonBUSDRoulette.sol\":7503:7523  winnings[msg.sender] */\n      0xffffffffffffffffffffffffffffffffffffffff\n      and\n      0xffffffffffffffffffffffffffffffffffffffff\n      and\n      dup2\n      mstore\n      0x20\n      add\n      swap1\n      dup2\n      mstore\n      0x20\n      add\n      0x00\n      keccak256\n        /* \"WatermelonBUSDRoulette.sol\":7503:7547  winnings[msg.sender] = winning(msg.sender,0) */\n      0x00\n      dup3\n      add\n      mload\n      dup2\n      0x00\n      add\n      exp(0x0100, 0x00)\n      dup2\n      sload\n      dup2\n      0xffffffffffffffffffffffffffffffffffffffff\n      mul\n      not\n      and\n      swap1\n      dup4\n      0xffffffffffffffffffffffffffffffffffffffff\n      and\n      mul\n      or\n      swap1\n      sstore\n      pop\n      0x20\n      dup3\n      add\n      mload\n      dup2\n      0x01\n      add\n      sstore\n      swap1\n      pop\n      pop\n        /* \"WatermelonBUSDRoulette.sol\":7553:7569  uint256 minerfee */\n      0x00\n        /* \"WatermelonBUSDRoulette.sol\":7585:7587  30 */\n      0x1e\n        /* \"WatermelonBUSDRoulette.sol\":7579:7582  100 */\n      0x64\n        /* \"WatermelonBUSDRoulette.sol\":7572:7578  amount */\n      dup4\n        /* \"WatermelonBUSDRoulette.sol\":7572:7582  amount/100 */\n      tag_188\n      swap2\n      swap1\n      tag_158\n      jump\t// in\n    tag_188:\n        /* \"WatermelonBUSDRoulette.sol\":7572:7587  amount/100 * 30 */\n      tag_189\n      swap2\n      swap1\n      tag_123\n      jump\t// in\n    tag_189:\n        /* \"WatermelonBUSDRoulette.sol\":7553:7587  uint256 minerfee = amount/100 * 30 */\n      swap1\n      pop\n        /* \"WatermelonBUSDRoulette.sol\":7609:7617  minerfee */\n      dup1\n        /* \"WatermelonBUSDRoulette.sol\":7602:7608  amount */\n      dup3\n        /* \"WatermelonBUSDRoulette.sol\":7602:7617  amount-minerfee */\n      tag_190\n      swap2\n      swap1\n      tag_62\n      jump\t// in\n    tag_190:\n        /* \"WatermelonBUSDRoulette.sol\":7593:7617  amount = amount-minerfee */\n      swap2\n      pop\n        /* \"WatermelonBUSDRoulette.sol\":7623:7636  BusdInterface */\n      0x07\n      0x00\n      swap1\n      sload\n      swap1\n      0x0100\n      exp\n      swap1\n      div\n      0xffffffffffffffffffffffffffffffffffffffff\n      and\n        /* \"WatermelonBUSDRoulette.sol\":7623:7645  BusdInterface.transfer */\n      0xffffffffffffffffffffffffffffffffffffffff\n      and\n      0xa9059cbb\n        /* \"WatermelonBUSDRoulette.sol\":7646:7652  player */\n      dup5\n        /* \"WatermelonBUSDRoulette.sol\":7653:7659  amount */\n      dup5\n        /* \"WatermelonBUSDRoulette.sol\":7623:7660  BusdInterface.transfer(player,amount) */\n      mload(0x40)\n      dup4\n      0xffffffff\n      and\n      0xe0\n      shl\n      dup2\n      mstore\n      0x04\n      add\n      tag_191\n      swap3\n      swap2\n      swap1\n      tag_57\n      jump\t// in\n    tag_191:\n      0x20\n      mload(0x40)\n      dup1\n      dup4\n      sub\n      dup2\n      0x00\n      dup8\n      gas\n      call\n      iszero\n      dup1\n      iszero\n      tag_193\n      jumpi\n      returndatasize\n      0x00\n      dup1\n      returndatacopy\n      revert(0x00, returndatasize)\n    tag_193:\n      pop\n      pop\n      pop\n      pop\n      mload(0x40)\n      returndatasize\n      not(0x1f)\n      0x1f\n      dup3\n      add\n      and\n      dup3\n      add\n      dup1\n      0x40\n      mstore\n      pop\n      dup2\n      add\n      swap1\n      tag_194\n      swap2\n      swap1\n      tag_138\n      jump\t// in\n    tag_194:\n      pop\n        /* \"WatermelonBUSDRoulette.sol\":7666:7679  BusdInterface */\n      0x07\n      0x00\n      swap1\n      sload\n      swap1\n      0x0100\n      exp\n      swap1\n      div\n      0xffffffffffffffffffffffffffffffffffffffff\n      and\n        /* \"WatermelonBUSDRoulette.sol\":7666:7688  BusdInterface.transfer */\n      0xffffffffffffffffffffffffffffffffffffffff\n      and\n      0xa9059cbb\n        /* \"WatermelonBUSDRoulette.sol\":7689:7694  miner */\n      0x0a\n      0x00\n      swap1\n      sload\n      swap1\n      0x0100\n      exp\n      swap1\n      div\n      0xffffffffffffffffffffffffffffffffffffffff\n      and\n        /* \"WatermelonBUSDRoulette.sol\":7695:7703  minerfee */\n      dup4\n        /* \"WatermelonBUSDRoulette.sol\":7666:7704  BusdInterface.transfer(miner,minerfee) */\n      mload(0x40)\n      dup4\n      0xffffffff\n      and\n      0xe0\n      shl\n      dup2\n      mstore\n      0x04\n      add\n      tag_195\n      swap3\n      swap2\n      swap1\n      tag_57\n      jump\t// in\n    tag_195:\n      0x20\n      mload(0x40)\n      dup1\n      dup4\n      sub\n      dup2\n      0x00\n      dup8\n      gas\n      call\n      iszero\n      dup1\n      iszero\n      tag_197\n      jumpi\n      returndatasize\n      0x00\n      dup1\n      returndatacopy\n      revert(0x00, returndatasize)\n    tag_197:\n      pop\n      pop\n      pop\n      pop\n      mload(0x40)\n      returndatasize\n      not(0x1f)\n      0x1f\n      dup3\n      add\n      and\n      dup3\n      add\n      dup1\n      0x40\n      mstore\n      pop\n      dup2\n      add\n      swap1\n      tag_198\n      swap2\n      swap1\n      tag_138\n      jump\t// in\n    tag_198:\n      pop\n        /* \"WatermelonBUSDRoulette.sol\":7710:7724  SendContract() */\n      tag_199\n        /* \"WatermelonBUSDRoulette.sol\":7710:7722  SendContract */\n      tag_200\n        /* \"WatermelonBUSDRoulette.sol\":7710:7724  SendContract() */\n      jump\t// in\n    tag_199:\n        /* \"WatermelonBUSDRoulette.sol\":7324:7729  {... */\n      pop\n      pop\n      pop\n        /* \"WatermelonBUSDRoulette.sol\":7297:7729  function cashOut() public  {... */\n      jump\t// out\n        /* \"WatermelonBUSDRoulette.sol\":968:995  address public tokenAddress */\n    tag_48:\n      0x08\n      0x00\n      swap1\n      sload\n      swap1\n      0x0100\n      exp\n      swap1\n      div\n      0xffffffffffffffffffffffffffffffffffffffff\n      and\n      dup2\n      jump\t// out\n        /* \"WatermelonBUSDRoulette.sol\":3150:3268  function balanceOfContract() public view returns(uint256) {... */\n    tag_51:\n        /* \"WatermelonBUSDRoulette.sol\":3199:3206  uint256 */\n      0x00\n        /* \"WatermelonBUSDRoulette.sol\":3224:3237  BusdInterface */\n      0x07\n      0x00\n      swap1\n      sload\n      swap1\n      0x0100\n      exp\n      swap1\n      div\n      0xffffffffffffffffffffffffffffffffffffffff\n      and\n        /* \"WatermelonBUSDRoulette.sol\":3224:3247  BusdInterface.balanceOf */\n      0xffffffffffffffffffffffffffffffffffffffff\n      and\n      0x70a08231\n        /* \"WatermelonBUSDRoulette.sol\":3256:3260  this */\n      address\n        /* \"WatermelonBUSDRoulette.sol\":3224:3262  BusdInterface.balanceOf(address(this)) */\n      mload(0x40)\n      dup3\n      0xffffffff\n      and\n      0xe0\n      shl\n      dup2\n      mstore\n      0x04\n      add\n      tag_202\n      swap2\n      swap1\n      tag_37\n      jump\t// in\n    tag_202:\n      0x20\n      mload(0x40)\n      dup1\n      dup4\n      sub\n      dup2\n      dup7\n      gas\n      staticcall\n      iszero\n      dup1\n      iszero\n      tag_204\n      jumpi\n      returndatasize\n      0x00\n      dup1\n      returndatacopy\n      revert(0x00, returndatasize)\n    tag_204:\n      pop\n      pop\n      pop\n      pop\n      mload(0x40)\n      returndatasize\n      not(0x1f)\n      0x1f\n      dup3\n      add\n      and\n      dup3\n      add\n      dup1\n      0x40\n      mstore\n      pop\n      dup2\n      add\n      swap1\n      tag_205\n      swap2\n      swap1\n      tag_147\n      jump\t// in\n    tag_205:\n        /* \"WatermelonBUSDRoulette.sol\":3217:3262  return BusdInterface.balanceOf(address(this)) */\n      swap1\n      pop\n        /* \"WatermelonBUSDRoulette.sol\":3150:3268  function balanceOfContract() public view returns(uint256) {... */\n      swap1\n      jump\t// out\n        /* \"WatermelonBUSDRoulette.sol\":1226:1269  mapping(address => winning) public winnings */\n    tag_55:\n      mstore(0x20, 0x0c)\n      dup1\n      0x00\n      mstore\n      keccak256(0x00, 0x40)\n      0x00\n      swap2\n      pop\n      swap1\n      pop\n      dup1\n      0x00\n      add\n      0x00\n      swap1\n      sload\n      swap1\n      0x0100\n      exp\n      swap1\n      div\n      0xffffffffffffffffffffffffffffffffffffffff\n      and\n      swap1\n      dup1\n      0x01\n      add\n      sload\n      swap1\n      pop\n      dup3\n      jump\t// out\n        /* \"WatermelonBUSDRoulette.sol\":2873:3145  function SendContract() internal {... */\n    tag_200:\n        /* \"WatermelonBUSDRoulette.sol\":2913:2928  uint256 balance */\n      0x00\n        /* \"WatermelonBUSDRoulette.sol\":2931:2944  BusdInterface */\n      0x07\n      0x00\n      swap1\n      sload\n      swap1\n      0x0100\n      exp\n      swap1\n      div\n      0xffffffffffffffffffffffffffffffffffffffff\n      and\n        /* \"WatermelonBUSDRoulette.sol\":2931:2954  BusdInterface.balanceOf */\n      0xffffffffffffffffffffffffffffffffffffffff\n      and\n      0x70a08231\n        /* \"WatermelonBUSDRoulette.sol\":2963:2967  this */\n      address\n        /* \"WatermelonBUSDRoulette.sol\":2931:2969  BusdInterface.balanceOf(address(this)) */\n      mload(0x40)\n      dup3\n      0xffffffff\n      and\n      0xe0\n      shl\n      dup2\n      mstore\n      0x04\n      add\n      tag_207\n      swap2\n      swap1\n      tag_37\n      jump\t// in\n    tag_207:\n      0x20\n      mload(0x40)\n      dup1\n      dup4\n      sub\n      dup2\n      dup7\n      gas\n      staticcall\n      iszero\n      dup1\n      iszero\n      tag_209\n      jumpi\n      returndatasize\n      0x00\n      dup1\n      returndatacopy\n      revert(0x00, returndatasize)\n    tag_209:\n      pop\n      pop\n      pop\n      pop\n      mload(0x40)\n      returndatasize\n      not(0x1f)\n      0x1f\n      dup3\n      add\n      and\n      dup3\n      add\n      dup1\n      0x40\n      mstore\n      pop\n      dup2\n      add\n      swap1\n      tag_210\n      swap2\n      swap1\n      tag_147\n      jump\t// in\n    tag_210:\n        /* \"WatermelonBUSDRoulette.sol\":2913:2969  uint256 balance = BusdInterface.balanceOf(address(this)) */\n      swap1\n      pop\n        /* \"WatermelonBUSDRoulette.sol\":2990:3000  max_amount */\n      sload(0x0b)\n        /* \"WatermelonBUSDRoulette.sol\":2979:2986  balance */\n      dup2\n        /* \"WatermelonBUSDRoulette.sol\":2979:3000  balance >= max_amount */\n      lt\n        /* \"WatermelonBUSDRoulette.sol\":2976:3140  if(balance >= max_amount) {... */\n      tag_211\n      jumpi\n        /* \"WatermelonBUSDRoulette.sol\":3009:3024  uint256 _amount */\n      0x00\n        /* \"WatermelonBUSDRoulette.sol\":3037:3047  max_amount */\n      sload(0x0b)\n        /* \"WatermelonBUSDRoulette.sol\":3027:3034  balance */\n      dup3\n        /* \"WatermelonBUSDRoulette.sol\":3027:3047  balance - max_amount */\n      tag_212\n      swap2\n      swap1\n      tag_62\n      jump\t// in\n    tag_212:\n        /* \"WatermelonBUSDRoulette.sol\":3009:3047  uint256 _amount = balance - max_amount */\n      swap1\n      pop\n        /* \"WatermelonBUSDRoulette.sol\":3095:3108  BusdInterface */\n      0x07\n      0x00\n      swap1\n      sload\n      swap1\n      0x0100\n      exp\n      swap1\n      div\n      0xffffffffffffffffffffffffffffffffffffffff\n      and\n        /* \"WatermelonBUSDRoulette.sol\":3095:3117  BusdInterface.transfer */\n      0xffffffffffffffffffffffffffffffffffffffff\n      and\n      0xa9059cbb\n        /* \"WatermelonBUSDRoulette.sol\":3118:3123  miner */\n      0x0a\n      0x00\n      swap1\n      sload\n      swap1\n      0x0100\n      exp\n      swap1\n      div\n      0xffffffffffffffffffffffffffffffffffffffff\n      and\n        /* \"WatermelonBUSDRoulette.sol\":3124:3131  _amount */\n      dup4\n        /* \"WatermelonBUSDRoulette.sol\":3095:3132  BusdInterface.transfer(miner,_amount) */\n      mload(0x40)\n      dup4\n      0xffffffff\n      and\n      0xe0\n      shl\n      dup2\n      mstore\n      0x04\n      add\n      tag_213\n      swap3\n      swap2\n      swap1\n      tag_57\n      jump\t// in\n    tag_213:\n      0x20\n      mload(0x40)\n      dup1\n      dup4\n      sub\n      dup2\n      0x00\n      dup8\n      gas\n      call\n      iszero\n      dup1\n      iszero\n      tag_215\n      jumpi\n      returndatasize\n      0x00\n      dup1\n      returndatacopy\n      revert(0x00, returndatasize)\n    tag_215:\n      pop\n      pop\n      pop\n      pop\n      mload(0x40)\n      returndatasize\n      not(0x1f)\n      0x1f\n      dup3\n      add\n      and\n      dup3\n      add\n      dup1\n      0x40\n      mstore\n      pop\n      dup2\n      add\n      swap1\n      tag_216\n      swap2\n      swap1\n      tag_138\n      jump\t// in\n    tag_216:\n      pop\n        /* \"WatermelonBUSDRoulette.sol\":3002:3140  {... */\n      pop\n        /* \"WatermelonBUSDRoulette.sol\":2976:3140  if(balance >= max_amount) {... */\n    tag_211:\n        /* \"WatermelonBUSDRoulette.sol\":2906:3145  {... */\n      pop\n        /* \"WatermelonBUSDRoulette.sol\":2873:3145  function SendContract() internal {... */\n      jump\t// out\n    tag_129:\n      pop\n      dup1\n      sload\n      0x00\n      dup3\n      sstore\n      swap1\n      0x00\n      mstore\n      keccak256(0x00, 0x20)\n      swap1\n      dup2\n      add\n      swap1\n      tag_218\n      swap2\n      swap1\n      tag_219\n      jump\t// in\n    tag_218:\n      pop\n      jump\t// out\n    tag_219:\n    tag_220:\n      dup1\n      dup3\n      gt\n      iszero\n      tag_221\n      jumpi\n      0x00\n      dup1\n      dup3\n      add\n      exp(0x0100, 0x00)\n      dup2\n      sload\n      swap1\n      0xffffffffffffffffffffffffffffffffffffffff\n      mul\n      not\n      and\n      swap1\n      sstore\n      0x00\n      dup3\n      add\n      exp(0x0100, 0x14)\n      dup2\n      sload\n      swap1\n      0xff\n      mul\n      not\n      and\n      swap1\n      sstore\n      0x00\n      dup3\n      add\n      exp(0x0100, 0x15)\n      dup2\n      sload\n      swap1\n      0xff\n      mul\n      not\n      and\n      swap1\n      sstore\n      pop\n      0x01\n      add\n      jump(tag_220)\n    tag_221:\n      pop\n      swap1\n      jump\t// out\n        /* \"#utility.yul\":7:84   */\n    tag_222:\n        /* \"#utility.yul\":44:51   */\n      0x00\n        /* \"#utility.yul\":73:78   */\n      dup2\n        /* \"#utility.yul\":62:78   */\n      swap1\n      pop\n        /* \"#utility.yul\":7:84   */\n      swap2\n      swap1\n      pop\n      jump\t// out\n        /* \"#utility.yul\":90:208   */\n    tag_223:\n        /* \"#utility.yul\":177:201   */\n      tag_252\n        /* \"#utility.yul\":195:200   */\n      dup2\n        /* \"#utility.yul\":177:201   */\n      tag_222\n      jump\t// in\n    tag_252:\n        /* \"#utility.yul\":172:175   */\n      dup3\n        /* \"#utility.yul\":165:202   */\n      mstore\n        /* \"#utility.yul\":90:208   */\n      pop\n      pop\n      jump\t// out\n        /* \"#utility.yul\":214:436   */\n    tag_18:\n        /* \"#utility.yul\":307:311   */\n      0x00\n        /* \"#utility.yul\":345:347   */\n      0x20\n        /* \"#utility.yul\":334:343   */\n      dup3\n        /* \"#utility.yul\":330:348   */\n      add\n        /* \"#utility.yul\":322:348   */\n      swap1\n      pop\n        /* \"#utility.yul\":358:429   */\n      tag_254\n        /* \"#utility.yul\":426:427   */\n      0x00\n        /* \"#utility.yul\":415:424   */\n      dup4\n        /* \"#utility.yul\":411:428   */\n      add\n        /* \"#utility.yul\":402:408   */\n      dup5\n        /* \"#utility.yul\":358:429   */\n      tag_223\n      jump\t// in\n    tag_254:\n        /* \"#utility.yul\":214:436   */\n      swap3\n      swap2\n      pop\n      pop\n      jump\t// out\n        /* \"#utility.yul\":523:640   */\n    tag_225:\n        /* \"#utility.yul\":632:633   */\n      0x00\n        /* \"#utility.yul\":629:630   */\n      dup1\n        /* \"#utility.yul\":622:634   */\n      revert\n        /* \"#utility.yul\":769:891   */\n    tag_227:\n        /* \"#utility.yul\":842:866   */\n      tag_259\n        /* \"#utility.yul\":860:865   */\n      dup2\n        /* \"#utility.yul\":842:866   */\n      tag_222\n      jump\t// in\n    tag_259:\n        /* \"#utility.yul\":835:840   */\n      dup2\n        /* \"#utility.yul\":832:867   */\n      eq\n        /* \"#utility.yul\":822:885   */\n      tag_260\n      jumpi\n        /* \"#utility.yul\":881:882   */\n      0x00\n        /* \"#utility.yul\":878:879   */\n      dup1\n        /* \"#utility.yul\":871:883   */\n      revert\n        /* \"#utility.yul\":822:885   */\n    tag_260:\n        /* \"#utility.yul\":769:891   */\n      pop\n      jump\t// out\n        /* \"#utility.yul\":897:1036   */\n    tag_228:\n        /* \"#utility.yul\":943:948   */\n      0x00\n        /* \"#utility.yul\":981:987   */\n      dup2\n        /* \"#utility.yul\":968:988   */\n      calldataload\n        /* \"#utility.yul\":959:988   */\n      swap1\n      pop\n        /* \"#utility.yul\":997:1030   */\n      tag_262\n        /* \"#utility.yul\":1024:1029   */\n      dup2\n        /* \"#utility.yul\":997:1030   */\n      tag_227\n      jump\t// in\n    tag_262:\n        /* \"#utility.yul\":897:1036   */\n      swap3\n      swap2\n      pop\n      pop\n      jump\t// out\n        /* \"#utility.yul\":1042:1371   */\n    tag_21:\n        /* \"#utility.yul\":1101:1107   */\n      0x00\n        /* \"#utility.yul\":1150:1152   */\n      0x20\n        /* \"#utility.yul\":1138:1147   */\n      dup3\n        /* \"#utility.yul\":1129:1136   */\n      dup5\n        /* \"#utility.yul\":1125:1148   */\n      sub\n        /* \"#utility.yul\":1121:1153   */\n      slt\n        /* \"#utility.yul\":1118:1237   */\n      iszero\n      tag_264\n      jumpi\n        /* \"#utility.yul\":1156:1235   */\n      tag_265\n      tag_225\n      jump\t// in\n    tag_265:\n        /* \"#utility.yul\":1118:1237   */\n    tag_264:\n        /* \"#utility.yul\":1276:1277   */\n      0x00\n        /* \"#utility.yul\":1301:1354   */\n      tag_266\n        /* \"#utility.yul\":1346:1353   */\n      dup5\n        /* \"#utility.yul\":1337:1343   */\n      dup3\n        /* \"#utility.yul\":1326:1335   */\n      dup6\n        /* \"#utility.yul\":1322:1344   */\n      add\n        /* \"#utility.yul\":1301:1354   */\n      tag_228\n      jump\t// in\n    tag_266:\n        /* \"#utility.yul\":1291:1354   */\n      swap2\n      pop\n        /* \"#utility.yul\":1247:1364   */\n      pop\n        /* \"#utility.yul\":1042:1371   */\n      swap3\n      swap2\n      pop\n      pop\n      jump\t// out\n        /* \"#utility.yul\":1377:1503   */\n    tag_229:\n        /* \"#utility.yul\":1414:1421   */\n      0x00\n        /* \"#utility.yul\":1454:1496   */\n      0xffffffffffffffffffffffffffffffffffffffff\n        /* \"#utility.yul\":1447:1452   */\n      dup3\n        /* \"#utility.yul\":1443:1497   */\n      and\n        /* \"#utility.yul\":1432:1497   */\n      swap1\n      pop\n        /* \"#utility.yul\":1377:1503   */\n      swap2\n      swap1\n      pop\n      jump\t// out\n        /* \"#utility.yul\":1509:1605   */\n    tag_230:\n        /* \"#utility.yul\":1546:1553   */\n      0x00\n        /* \"#utility.yul\":1575:1599   */\n      tag_269\n        /* \"#utility.yul\":1593:1598   */\n      dup3\n        /* \"#utility.yul\":1575:1599   */\n      tag_229\n      jump\t// in\n    tag_269:\n        /* \"#utility.yul\":1564:1599   */\n      swap1\n      pop\n        /* \"#utility.yul\":1509:1605   */\n      swap2\n      swap1\n      pop\n      jump\t// out\n        /* \"#utility.yul\":1611:1729   */\n    tag_231:\n        /* \"#utility.yul\":1698:1722   */\n      tag_271\n        /* \"#utility.yul\":1716:1721   */\n      dup2\n        /* \"#utility.yul\":1698:1722   */\n      tag_230\n      jump\t// in\n    tag_271:\n        /* \"#utility.yul\":1693:1696   */\n      dup3\n        /* \"#utility.yul\":1686:1723   */\n      mstore\n        /* \"#utility.yul\":1611:1729   */\n      pop\n      pop\n      jump\t// out\n        /* \"#utility.yul\":1735:1821   */\n    tag_232:\n        /* \"#utility.yul\":1770:1777   */\n      0x00\n        /* \"#utility.yul\":1810:1814   */\n      0xff\n        /* \"#utility.yul\":1803:1808   */\n      dup3\n        /* \"#utility.yul\":1799:1815   */\n      and\n        /* \"#utility.yul\":1788:1815   */\n      swap1\n      pop\n        /* \"#utility.yul\":1735:1821   */\n      swap2\n      swap1\n      pop\n      jump\t// out\n        /* \"#utility.yul\":1827:1939   */\n    tag_233:\n        /* \"#utility.yul\":1910:1932   */\n      tag_274\n        /* \"#utility.yul\":1926:1931   */\n      dup2\n        /* \"#utility.yul\":1910:1932   */\n      tag_232\n      jump\t// in\n    tag_274:\n        /* \"#utility.yul\":1905:1908   */\n      dup3\n        /* \"#utility.yul\":1898:1933   */\n      mstore\n        /* \"#utility.yul\":1827:1939   */\n      pop\n      pop\n      jump\t// out\n        /* \"#utility.yul\":1945:2371   */\n    tag_27:\n        /* \"#utility.yul\":2086:2090   */\n      0x00\n        /* \"#utility.yul\":2124:2126   */\n      0x60\n        /* \"#utility.yul\":2113:2122   */\n      dup3\n        /* \"#utility.yul\":2109:2127   */\n      add\n        /* \"#utility.yul\":2101:2127   */\n      swap1\n      pop\n        /* \"#utility.yul\":2137:2208   */\n      tag_276\n        /* \"#utility.yul\":2205:2206   */\n      0x00\n        /* \"#utility.yul\":2194:2203   */\n      dup4\n        /* \"#utility.yul\":2190:2207   */\n      add\n        /* \"#utility.yul\":2181:2187   */\n      dup7\n        /* \"#utility.yul\":2137:2208   */\n      tag_231\n      jump\t// in\n    tag_276:\n        /* \"#utility.yul\":2218:2286   */\n      tag_277\n        /* \"#utility.yul\":2282:2284   */\n      0x20\n        /* \"#utility.yul\":2271:2280   */\n      dup4\n        /* \"#utility.yul\":2267:2285   */\n      add\n        /* \"#utility.yul\":2258:2264   */\n      dup6\n        /* \"#utility.yul\":2218:2286   */\n      tag_233\n      jump\t// in\n    tag_277:\n        /* \"#utility.yul\":2296:2364   */\n      tag_278\n        /* \"#utility.yul\":2360:2362   */\n      0x40\n        /* \"#utility.yul\":2349:2358   */\n      dup4\n        /* \"#utility.yul\":2345:2363   */\n      add\n        /* \"#utility.yul\":2336:2342   */\n      dup5\n        /* \"#utility.yul\":2296:2364   */\n      tag_233\n      jump\t// in\n    tag_278:\n        /* \"#utility.yul\":1945:2371   */\n      swap5\n      swap4\n      pop\n      pop\n      pop\n      pop\n      jump\t// out\n        /* \"#utility.yul\":2377:2499   */\n    tag_234:\n        /* \"#utility.yul\":2450:2474   */\n      tag_280\n        /* \"#utility.yul\":2468:2473   */\n      dup2\n        /* \"#utility.yul\":2450:2474   */\n      tag_230\n      jump\t// in\n    tag_280:\n        /* \"#utility.yul\":2443:2448   */\n      dup2\n        /* \"#utility.yul\":2440:2475   */\n      eq\n        /* \"#utility.yul\":2430:2493   */\n      tag_281\n      jumpi\n        /* \"#utility.yul\":2489:2490   */\n      0x00\n        /* \"#utility.yul\":2486:2487   */\n      dup1\n        /* \"#utility.yul\":2479:2491   */\n      revert\n        /* \"#utility.yul\":2430:2493   */\n    tag_281:\n        /* \"#utility.yul\":2377:2499   */\n      pop\n      jump\t// out\n        /* \"#utility.yul\":2505:2644   */\n    tag_235:\n        /* \"#utility.yul\":2551:2556   */\n      0x00\n        /* \"#utility.yul\":2589:2595   */\n      dup2\n        /* \"#utility.yul\":2576:2596   */\n      calldataload\n        /* \"#utility.yul\":2567:2596   */\n      swap1\n      pop\n        /* \"#utility.yul\":2605:2638   */\n      tag_283\n        /* \"#utility.yul\":2632:2637   */\n      dup2\n        /* \"#utility.yul\":2605:2638   */\n      tag_234\n      jump\t// in\n    tag_283:\n        /* \"#utility.yul\":2505:2644   */\n      swap3\n      swap2\n      pop\n      pop\n      jump\t// out\n        /* \"#utility.yul\":2650:2979   */\n    tag_30:\n        /* \"#utility.yul\":2709:2715   */\n      0x00\n        /* \"#utility.yul\":2758:2760   */\n      0x20\n        /* \"#utility.yul\":2746:2755   */\n      dup3\n        /* \"#utility.yul\":2737:2744   */\n      dup5\n        /* \"#utility.yul\":2733:2756   */\n      sub\n        /* \"#utility.yul\":2729:2761   */\n      slt\n        /* \"#utility.yul\":2726:2845   */\n      iszero\n      tag_285\n      jumpi\n        /* \"#utility.yul\":2764:2843   */\n      tag_286\n      tag_225\n      jump\t// in\n    tag_286:\n        /* \"#utility.yul\":2726:2845   */\n    tag_285:\n        /* \"#utility.yul\":2884:2885   */\n      0x00\n        /* \"#utility.yul\":2909:2962   */\n      tag_287\n        /* \"#utility.yul\":2954:2961   */\n      dup5\n        /* \"#utility.yul\":2945:2951   */\n      dup3\n        /* \"#utility.yul\":2934:2943   */\n      dup6\n        /* \"#utility.yul\":2930:2952   */\n      add\n        /* \"#utility.yul\":2909:2962   */\n      tag_235\n      jump\t// in\n    tag_287:\n        /* \"#utility.yul\":2899:2962   */\n      swap2\n      pop\n        /* \"#utility.yul\":2855:2972   */\n      pop\n        /* \"#utility.yul\":2650:2979   */\n      swap3\n      swap2\n      pop\n      pop\n      jump\t// out\n        /* \"#utility.yul\":2985:3649   */\n    tag_33:\n        /* \"#utility.yul\":3190:3194   */\n      0x00\n        /* \"#utility.yul\":3228:3231   */\n      0xa0\n        /* \"#utility.yul\":3217:3226   */\n      dup3\n        /* \"#utility.yul\":3213:3232   */\n      add\n        /* \"#utility.yul\":3205:3232   */\n      swap1\n      pop\n        /* \"#utility.yul\":3242:3313   */\n      tag_289\n        /* \"#utility.yul\":3310:3311   */\n      0x00\n        /* \"#utility.yul\":3299:3308   */\n      dup4\n        /* \"#utility.yul\":3295:3312   */\n      add\n        /* \"#utility.yul\":3286:3292   */\n      dup9\n        /* \"#utility.yul\":3242:3313   */\n      tag_223\n      jump\t// in\n    tag_289:\n        /* \"#utility.yul\":3323:3395   */\n      tag_290\n        /* \"#utility.yul\":3391:3393   */\n      0x20\n        /* \"#utility.yul\":3380:3389   */\n      dup4\n        /* \"#utility.yul\":3376:3394   */\n      add\n        /* \"#utility.yul\":3367:3373   */\n      dup8\n        /* \"#utility.yul\":3323:3395   */\n      tag_223\n      jump\t// in\n    tag_290:\n        /* \"#utility.yul\":3405:3477   */\n      tag_291\n        /* \"#utility.yul\":3473:3475   */\n      0x40\n        /* \"#utility.yul\":3462:3471   */\n      dup4\n        /* \"#utility.yul\":3458:3476   */\n      add\n        /* \"#utility.yul\":3449:3455   */\n      dup7\n        /* \"#utility.yul\":3405:3477   */\n      tag_223\n      jump\t// in\n    tag_291:\n        /* \"#utility.yul\":3487:3559   */\n      tag_292\n        /* \"#utility.yul\":3555:3557   */\n      0x60\n        /* \"#utility.yul\":3544:3553   */\n      dup4\n        /* \"#utility.yul\":3540:3558   */\n      add\n        /* \"#utility.yul\":3531:3537   */\n      dup6\n        /* \"#utility.yul\":3487:3559   */\n      tag_223\n      jump\t// in\n    tag_292:\n        /* \"#utility.yul\":3569:3642   */\n      tag_293\n        /* \"#utility.yul\":3637:3640   */\n      0x80\n        /* \"#utility.yul\":3626:3635   */\n      dup4\n        /* \"#utility.yul\":3622:3641   */\n      add\n        /* \"#utility.yul\":3613:3619   */\n      dup5\n        /* \"#utility.yul\":3569:3642   */\n      tag_223\n      jump\t// in\n    tag_293:\n        /* \"#utility.yul\":2985:3649   */\n      swap7\n      swap6\n      pop\n      pop\n      pop\n      pop\n      pop\n      pop\n      jump\t// out\n        /* \"#utility.yul\":3655:3877   */\n    tag_37:\n        /* \"#utility.yul\":3748:3752   */\n      0x00\n        /* \"#utility.yul\":3786:3788   */\n      0x20\n        /* \"#utility.yul\":3775:3784   */\n      dup3\n        /* \"#utility.yul\":3771:3789   */\n      add\n        /* \"#utility.yul\":3763:3789   */\n      swap1\n      pop\n        /* \"#utility.yul\":3799:3870   */\n      tag_295\n        /* \"#utility.yul\":3867:3868   */\n      0x00\n        /* \"#utility.yul\":3856:3865   */\n      dup4\n        /* \"#utility.yul\":3852:3869   */\n      add\n        /* \"#utility.yul\":3843:3849   */\n      dup5\n        /* \"#utility.yul\":3799:3870   */\n      tag_231\n      jump\t// in\n    tag_295:\n        /* \"#utility.yul\":3655:3877   */\n      swap3\n      swap2\n      pop\n      pop\n      jump\t// out\n        /* \"#utility.yul\":3883:4001   */\n    tag_236:\n        /* \"#utility.yul\":3954:3976   */\n      tag_297\n        /* \"#utility.yul\":3970:3975   */\n      dup2\n        /* \"#utility.yul\":3954:3976   */\n      tag_232\n      jump\t// in\n    tag_297:\n        /* \"#utility.yul\":3947:3952   */\n      dup2\n        /* \"#utility.yul\":3944:3977   */\n      eq\n        /* \"#utility.yul\":3934:3995   */\n      tag_298\n      jumpi\n        /* \"#utility.yul\":3991:3992   */\n      0x00\n        /* \"#utility.yul\":3988:3989   */\n      dup1\n        /* \"#utility.yul\":3981:3993   */\n      revert\n        /* \"#utility.yul\":3934:3995   */\n    tag_298:\n        /* \"#utility.yul\":3883:4001   */\n      pop\n      jump\t// out\n        /* \"#utility.yul\":4007:4142   */\n    tag_237:\n        /* \"#utility.yul\":4051:4056   */\n      0x00\n        /* \"#utility.yul\":4089:4095   */\n      dup2\n        /* \"#utility.yul\":4076:4096   */\n      calldataload\n        /* \"#utility.yul\":4067:4096   */\n      swap1\n      pop\n        /* \"#utility.yul\":4105:4136   */\n      tag_300\n        /* \"#utility.yul\":4130:4135   */\n      dup2\n        /* \"#utility.yul\":4105:4136   */\n      tag_236\n      jump\t// in\n    tag_300:\n        /* \"#utility.yul\":4007:4142   */\n      swap3\n      swap2\n      pop\n      pop\n      jump\t// out\n        /* \"#utility.yul\":4148:4905   */\n    tag_40:\n        /* \"#utility.yul\":4230:4236   */\n      0x00\n        /* \"#utility.yul\":4238:4244   */\n      dup1\n        /* \"#utility.yul\":4246:4252   */\n      0x00\n        /* \"#utility.yul\":4254:4260   */\n      dup1\n        /* \"#utility.yul\":4303:4306   */\n      0x80\n        /* \"#utility.yul\":4291:4300   */\n      dup6\n        /* \"#utility.yul\":4282:4289   */\n      dup8\n        /* \"#utility.yul\":4278:4301   */\n      sub\n        /* \"#utility.yul\":4274:4307   */\n      slt\n        /* \"#utility.yul\":4271:4391   */\n      iszero\n      tag_302\n      jumpi\n        /* \"#utility.yul\":4310:4389   */\n      tag_303\n      tag_225\n      jump\t// in\n    tag_303:\n        /* \"#utility.yul\":4271:4391   */\n    tag_302:\n        /* \"#utility.yul\":4430:4431   */\n      0x00\n        /* \"#utility.yul\":4455:4508   */\n      tag_304\n        /* \"#utility.yul\":4500:4507   */\n      dup8\n        /* \"#utility.yul\":4491:4497   */\n      dup3\n        /* \"#utility.yul\":4480:4489   */\n      dup9\n        /* \"#utility.yul\":4476:4498   */\n      add\n        /* \"#utility.yul\":4455:4508   */\n      tag_235\n      jump\t// in\n    tag_304:\n        /* \"#utility.yul\":4445:4508   */\n      swap5\n      pop\n        /* \"#utility.yul\":4401:4518   */\n      pop\n        /* \"#utility.yul\":4557:4559   */\n      0x20\n        /* \"#utility.yul\":4583:4636   */\n      tag_305\n        /* \"#utility.yul\":4628:4635   */\n      dup8\n        /* \"#utility.yul\":4619:4625   */\n      dup3\n        /* \"#utility.yul\":4608:4617   */\n      dup9\n        /* \"#utility.yul\":4604:4626   */\n      add\n        /* \"#utility.yul\":4583:4636   */\n      tag_228\n      jump\t// in\n    tag_305:\n        /* \"#utility.yul\":4573:4636   */\n      swap4\n      pop\n        /* \"#utility.yul\":4528:4646   */\n      pop\n        /* \"#utility.yul\":4685:4687   */\n      0x40\n        /* \"#utility.yul\":4711:4762   */\n      tag_306\n        /* \"#utility.yul\":4754:4761   */\n      dup8\n        /* \"#utility.yul\":4745:4751   */\n      dup3\n        /* \"#utility.yul\":4734:4743   */\n      dup9\n        /* \"#utility.yul\":4730:4752   */\n      add\n        /* \"#utility.yul\":4711:4762   */\n      tag_237\n      jump\t// in\n    tag_306:\n        /* \"#utility.yul\":4701:4762   */\n      swap3\n      pop\n        /* \"#utility.yul\":4656:4772   */\n      pop\n        /* \"#utility.yul\":4811:4813   */\n      0x60\n        /* \"#utility.yul\":4837:4888   */\n      tag_307\n        /* \"#utility.yul\":4880:4887   */\n      dup8\n        /* \"#utility.yul\":4871:4877   */\n      dup3\n        /* \"#utility.yul\":4860:4869   */\n      dup9\n        /* \"#utility.yul\":4856:4878   */\n      add\n        /* \"#utility.yul\":4837:4888   */\n      tag_237\n      jump\t// in\n    tag_307:\n        /* \"#utility.yul\":4827:4888   */\n      swap2\n      pop\n        /* \"#utility.yul\":4782:4898   */\n      pop\n        /* \"#utility.yul\":4148:4905   */\n      swap3\n      swap6\n      swap2\n      swap5\n      pop\n      swap3\n      pop\n      jump\t// out\n        /* \"#utility.yul\":4911:5243   */\n    tag_57:\n        /* \"#utility.yul\":5032:5036   */\n      0x00\n        /* \"#utility.yul\":5070:5072   */\n      0x40\n        /* \"#utility.yul\":5059:5068   */\n      dup3\n        /* \"#utility.yul\":5055:5073   */\n      add\n        /* \"#utility.yul\":5047:5073   */\n      swap1\n      pop\n        /* \"#utility.yul\":5083:5154   */\n      tag_309\n        /* \"#utility.yul\":5151:5152   */\n      0x00\n        /* \"#utility.yul\":5140:5149   */\n      dup4\n        /* \"#utility.yul\":5136:5153   */\n      add\n        /* \"#utility.yul\":5127:5133   */\n      dup6\n        /* \"#utility.yul\":5083:5154   */\n      tag_231\n      jump\t// in\n    tag_309:\n        /* \"#utility.yul\":5164:5236   */\n      tag_310\n        /* \"#utility.yul\":5232:5234   */\n      0x20\n        /* \"#utility.yul\":5221:5230   */\n      dup4\n        /* \"#utility.yul\":5217:5235   */\n      add\n        /* \"#utility.yul\":5208:5214   */\n      dup5\n        /* \"#utility.yul\":5164:5236   */\n      tag_223\n      jump\t// in\n    tag_310:\n        /* \"#utility.yul\":4911:5243   */\n      swap4\n      swap3\n      pop\n      pop\n      pop\n      jump\t// out\n        /* \"#utility.yul\":5249:5429   */\n    tag_238:\n        /* \"#utility.yul\":5297:5374   */\n      0x4e487b7100000000000000000000000000000000000000000000000000000000\n        /* \"#utility.yul\":5294:5295   */\n      0x00\n        /* \"#utility.yul\":5287:5375   */\n      mstore\n        /* \"#utility.yul\":5394:5398   */\n      0x11\n        /* \"#utility.yul\":5391:5392   */\n      0x04\n        /* \"#utility.yul\":5384:5399   */\n      mstore\n        /* \"#utility.yul\":5418:5422   */\n      0x24\n        /* \"#utility.yul\":5415:5416   */\n      0x00\n        /* \"#utility.yul\":5408:5423   */\n      revert\n        /* \"#utility.yul\":5435:5629   */\n    tag_62:\n        /* \"#utility.yul\":5475:5479   */\n      0x00\n        /* \"#utility.yul\":5495:5515   */\n      tag_313\n        /* \"#utility.yul\":5513:5514   */\n      dup3\n        /* \"#utility.yul\":5495:5515   */\n      tag_222\n      jump\t// in\n    tag_313:\n        /* \"#utility.yul\":5490:5515   */\n      swap2\n      pop\n        /* \"#utility.yul\":5529:5549   */\n      tag_314\n        /* \"#utility.yul\":5547:5548   */\n      dup4\n        /* \"#utility.yul\":5529:5549   */\n      tag_222\n      jump\t// in\n    tag_314:\n        /* \"#utility.yul\":5524:5549   */\n      swap3\n      pop\n        /* \"#utility.yul\":5573:5574   */\n      dup3\n        /* \"#utility.yul\":5570:5571   */\n      dup3\n        /* \"#utility.yul\":5566:5575   */\n      sub\n        /* \"#utility.yul\":5558:5575   */\n      swap1\n      pop\n        /* \"#utility.yul\":5597:5598   */\n      dup2\n        /* \"#utility.yul\":5591:5595   */\n      dup2\n        /* \"#utility.yul\":5588:5599   */\n      gt\n        /* \"#utility.yul\":5585:5622   */\n      iszero\n      tag_315\n      jumpi\n        /* \"#utility.yul\":5602:5620   */\n      tag_316\n      tag_238\n      jump\t// in\n    tag_316:\n        /* \"#utility.yul\":5585:5622   */\n    tag_315:\n        /* \"#utility.yul\":5435:5629   */\n      swap3\n      swap2\n      pop\n      pop\n      jump\t// out\n        /* \"#utility.yul\":5635:5714   */\n    tag_239:\n        /* \"#utility.yul\":5674:5681   */\n      0x00\n        /* \"#utility.yul\":5703:5708   */\n      dup2\n        /* \"#utility.yul\":5692:5708   */\n      swap1\n      pop\n        /* \"#utility.yul\":5635:5714   */\n      swap2\n      swap1\n      pop\n      jump\t// out\n        /* \"#utility.yul\":5720:5877   */\n    tag_240:\n        /* \"#utility.yul\":5825:5870   */\n      tag_319\n        /* \"#utility.yul\":5845:5869   */\n      tag_320\n        /* \"#utility.yul\":5863:5868   */\n      dup3\n        /* \"#utility.yul\":5845:5869   */\n      tag_222\n      jump\t// in\n    tag_320:\n        /* \"#utility.yul\":5825:5870   */\n      tag_239\n      jump\t// in\n    tag_319:\n        /* \"#utility.yul\":5820:5823   */\n      dup3\n        /* \"#utility.yul\":5813:5871   */\n      mstore\n        /* \"#utility.yul\":5720:5877   */\n      pop\n      pop\n      jump\t// out\n        /* \"#utility.yul\":5883:5960   */\n    tag_241:\n        /* \"#utility.yul\":5920:5927   */\n      0x00\n        /* \"#utility.yul\":5949:5954   */\n      dup2\n        /* \"#utility.yul\":5938:5954   */\n      swap1\n      pop\n        /* \"#utility.yul\":5883:5960   */\n      swap2\n      swap1\n      pop\n      jump\t// out\n        /* \"#utility.yul\":5966:6045   */\n    tag_242:\n        /* \"#utility.yul\":6005:6012   */\n      0x00\n        /* \"#utility.yul\":6034:6039   */\n      dup2\n        /* \"#utility.yul\":6023:6039   */\n      swap1\n      pop\n        /* \"#utility.yul\":5966:6045   */\n      swap2\n      swap1\n      pop\n      jump\t// out\n        /* \"#utility.yul\":6051:6208   */\n    tag_243:\n        /* \"#utility.yul\":6156:6201   */\n      tag_324\n        /* \"#utility.yul\":6176:6200   */\n      tag_325\n        /* \"#utility.yul\":6194:6199   */\n      dup3\n        /* \"#utility.yul\":6176:6200   */\n      tag_241\n      jump\t// in\n    tag_325:\n        /* \"#utility.yul\":6156:6201   */\n      tag_242\n      jump\t// in\n    tag_324:\n        /* \"#utility.yul\":6151:6154   */\n      dup3\n        /* \"#utility.yul\":6144:6202   */\n      mstore\n        /* \"#utility.yul\":6051:6208   */\n      pop\n      pop\n      jump\t// out\n        /* \"#utility.yul\":6214:6752   */\n    tag_64:\n        /* \"#utility.yul\":6382:6385   */\n      0x00\n        /* \"#utility.yul\":6397:6472   */\n      tag_327\n        /* \"#utility.yul\":6468:6471   */\n      dup3\n        /* \"#utility.yul\":6459:6465   */\n      dup7\n        /* \"#utility.yul\":6397:6472   */\n      tag_240\n      jump\t// in\n    tag_327:\n        /* \"#utility.yul\":6497:6499   */\n      0x20\n        /* \"#utility.yul\":6492:6495   */\n      dup3\n        /* \"#utility.yul\":6488:6500   */\n      add\n        /* \"#utility.yul\":6481:6500   */\n      swap2\n      pop\n        /* \"#utility.yul\":6510:6585   */\n      tag_328\n        /* \"#utility.yul\":6581:6584   */\n      dup3\n        /* \"#utility.yul\":6572:6578   */\n      dup6\n        /* \"#utility.yul\":6510:6585   */\n      tag_240\n      jump\t// in\n    tag_328:\n        /* \"#utility.yul\":6610:6612   */\n      0x20\n        /* \"#utility.yul\":6605:6608   */\n      dup3\n        /* \"#utility.yul\":6601:6613   */\n      add\n        /* \"#utility.yul\":6594:6613   */\n      swap2\n      pop\n        /* \"#utility.yul\":6623:6698   */\n      tag_329\n        /* \"#utility.yul\":6694:6697   */\n      dup3\n        /* \"#utility.yul\":6685:6691   */\n      dup5\n        /* \"#utility.yul\":6623:6698   */\n      tag_243\n      jump\t// in\n    tag_329:\n        /* \"#utility.yul\":6723:6725   */\n      0x20\n        /* \"#utility.yul\":6718:6721   */\n      dup3\n        /* \"#utility.yul\":6714:6726   */\n      add\n        /* \"#utility.yul\":6707:6726   */\n      swap2\n      pop\n        /* \"#utility.yul\":6743:6746   */\n      dup2\n        /* \"#utility.yul\":6736:6746   */\n      swap1\n      pop\n        /* \"#utility.yul\":6214:6752   */\n      swap5\n      swap4\n      pop\n      pop\n      pop\n      pop\n      jump\t// out\n        /* \"#utility.yul\":6758:6938   */\n    tag_244:\n        /* \"#utility.yul\":6806:6883   */\n      0x4e487b7100000000000000000000000000000000000000000000000000000000\n        /* \"#utility.yul\":6803:6804   */\n      0x00\n        /* \"#utility.yul\":6796:6884   */\n      mstore\n        /* \"#utility.yul\":6903:6907   */\n      0x12\n        /* \"#utility.yul\":6900:6901   */\n      0x04\n        /* \"#utility.yul\":6893:6908   */\n      mstore\n        /* \"#utility.yul\":6927:6931   */\n      0x24\n        /* \"#utility.yul\":6924:6925   */\n      0x00\n        /* \"#utility.yul\":6917:6932   */\n      revert\n        /* \"#utility.yul\":6944:7120   */\n    tag_66:\n        /* \"#utility.yul\":6976:6977   */\n      0x00\n        /* \"#utility.yul\":6993:7013   */\n      tag_332\n        /* \"#utility.yul\":7011:7012   */\n      dup3\n        /* \"#utility.yul\":6993:7013   */\n      tag_222\n      jump\t// in\n    tag_332:\n        /* \"#utility.yul\":6988:7013   */\n      swap2\n      pop\n        /* \"#utility.yul\":7027:7047   */\n      tag_333\n        /* \"#utility.yul\":7045:7046   */\n      dup4\n        /* \"#utility.yul\":7027:7047   */\n      tag_222\n      jump\t// in\n    tag_333:\n        /* \"#utility.yul\":7022:7047   */\n      swap3\n      pop\n        /* \"#utility.yul\":7066:7067   */\n      dup3\n        /* \"#utility.yul\":7056:7091   */\n      tag_334\n      jumpi\n        /* \"#utility.yul\":7071:7089   */\n      tag_335\n      tag_244\n      jump\t// in\n    tag_335:\n        /* \"#utility.yul\":7056:7091   */\n    tag_334:\n        /* \"#utility.yul\":7112:7113   */\n      dup3\n        /* \"#utility.yul\":7109:7110   */\n      dup3\n        /* \"#utility.yul\":7105:7114   */\n      mod\n        /* \"#utility.yul\":7100:7114   */\n      swap1\n      pop\n        /* \"#utility.yul\":6944:7120   */\n      swap3\n      swap2\n      pop\n      pop\n      jump\t// out\n        /* \"#utility.yul\":7126:7306   */\n    tag_72:\n        /* \"#utility.yul\":7174:7251   */\n      0x4e487b7100000000000000000000000000000000000000000000000000000000\n        /* \"#utility.yul\":7171:7172   */\n      0x00\n        /* \"#utility.yul\":7164:7252   */\n      mstore\n        /* \"#utility.yul\":7271:7275   */\n      0x32\n        /* \"#utility.yul\":7268:7269   */\n      0x04\n        /* \"#utility.yul\":7261:7276   */\n      mstore\n        /* \"#utility.yul\":7295:7299   */\n      0x24\n        /* \"#utility.yul\":7292:7293   */\n      0x00\n        /* \"#utility.yul\":7285:7300   */\n      revert\n        /* \"#utility.yul\":7312:7660   */\n    tag_123:\n        /* \"#utility.yul\":7352:7359   */\n      0x00\n        /* \"#utility.yul\":7375:7395   */\n      tag_338\n        /* \"#utility.yul\":7393:7394   */\n      dup3\n        /* \"#utility.yul\":7375:7395   */\n      tag_222\n      jump\t// in\n    tag_338:\n        /* \"#utility.yul\":7370:7395   */\n      swap2\n      pop\n        /* \"#utility.yul\":7409:7429   */\n      tag_339\n        /* \"#utility.yul\":7427:7428   */\n      dup4\n        /* \"#utility.yul\":7409:7429   */\n      tag_222\n      jump\t// in\n    tag_339:\n        /* \"#utility.yul\":7404:7429   */\n      swap3\n      pop\n        /* \"#utility.yul\":7597:7598   */\n      dup2\n        /* \"#utility.yul\":7529:7595   */\n      0xffffffffffffffffffffffffffffffffffffffffffffffffffffffffffffffff\n        /* \"#utility.yul\":7525:7599   */\n      div\n        /* \"#utility.yul\":7522:7523   */\n      dup4\n        /* \"#utility.yul\":7519:7600   */\n      gt\n        /* \"#utility.yul\":7514:7515   */\n      dup3\n        /* \"#utility.yul\":7507:7516   */\n      iszero\n        /* \"#utility.yul\":7500:7517   */\n      iszero\n        /* \"#utility.yul\":7496:7601   */\n      and\n        /* \"#utility.yul\":7493:7624   */\n      iszero\n      tag_340\n      jumpi\n        /* \"#utility.yul\":7604:7622   */\n      tag_341\n      tag_238\n      jump\t// in\n    tag_341:\n        /* \"#utility.yul\":7493:7624   */\n    tag_340:\n        /* \"#utility.yul\":7652:7653   */\n      dup3\n        /* \"#utility.yul\":7649:7650   */\n      dup3\n        /* \"#utility.yul\":7645:7654   */\n      mul\n        /* \"#utility.yul\":7634:7654   */\n      swap1\n      pop\n        /* \"#utility.yul\":7312:7660   */\n      swap3\n      swap2\n      pop\n      pop\n      jump\t// out\n        /* \"#utility.yul\":7666:7857   */\n    tag_125:\n        /* \"#utility.yul\":7706:7709   */\n      0x00\n        /* \"#utility.yul\":7725:7745   */\n      tag_343\n        /* \"#utility.yul\":7743:7744   */\n      dup3\n        /* \"#utility.yul\":7725:7745   */\n      tag_222\n      jump\t// in\n    tag_343:\n        /* \"#utility.yul\":7720:7745   */\n      swap2\n      pop\n        /* \"#utility.yul\":7759:7779   */\n      tag_344\n        /* \"#utility.yul\":7777:7778   */\n      dup4\n        /* \"#utility.yul\":7759:7779   */\n      tag_222\n      jump\t// in\n    tag_344:\n        /* \"#utility.yul\":7754:7779   */\n      swap3\n      pop\n        /* \"#utility.yul\":7802:7803   */\n      dup3\n        /* \"#utility.yul\":7799:7800   */\n      dup3\n        /* \"#utility.yul\":7795:7804   */\n      add\n        /* \"#utility.yul\":7788:7804   */\n      swap1\n      pop\n        /* \"#utility.yul\":7823:7826   */\n      dup1\n        /* \"#utility.yul\":7820:7821   */\n      dup3\n        /* \"#utility.yul\":7817:7827   */\n      gt\n        /* \"#utility.yul\":7814:7850   */\n      iszero\n      tag_345\n      jumpi\n        /* \"#utility.yul\":7830:7848   */\n      tag_346\n      tag_238\n      jump\t// in\n    tag_346:\n        /* \"#utility.yul\":7814:7850   */\n    tag_345:\n        /* \"#utility.yul\":7666:7857   */\n      swap3\n      swap2\n      pop\n      pop\n      jump\t// out\n        /* \"#utility.yul\":7863:8096   */\n    tag_127:\n        /* \"#utility.yul\":7902:7905   */\n      0x00\n        /* \"#utility.yul\":7925:7949   */\n      tag_348\n        /* \"#utility.yul\":7943:7948   */\n      dup3\n        /* \"#utility.yul\":7925:7949   */\n      tag_222\n      jump\t// in\n    tag_348:\n        /* \"#utility.yul\":7916:7949   */\n      swap2\n      pop\n        /* \"#utility.yul\":7971:8037   */\n      0xffffffffffffffffffffffffffffffffffffffffffffffffffffffffffffffff\n        /* \"#utility.yul\":7964:7969   */\n      dup3\n        /* \"#utility.yul\":7961:8038   */\n      sub\n        /* \"#utility.yul\":7958:8061   */\n      tag_349\n      jumpi\n        /* \"#utility.yul\":8041:8059   */\n      tag_350\n      tag_238\n      jump\t// in\n    tag_350:\n        /* \"#utility.yul\":7958:8061   */\n    tag_349:\n        /* \"#utility.yul\":8088:8089   */\n      0x01\n        /* \"#utility.yul\":8081:8086   */\n      dup3\n        /* \"#utility.yul\":8077:8090   */\n      add\n        /* \"#utility.yul\":8070:8090   */\n      swap1\n      pop\n        /* \"#utility.yul\":7863:8096   */\n      swap2\n      swap1\n      pop\n      jump\t// out\n        /* \"#utility.yul\":8102:8544   */\n    tag_134:\n        /* \"#utility.yul\":8251:8255   */\n      0x00\n        /* \"#utility.yul\":8289:8291   */\n      0x60\n        /* \"#utility.yul\":8278:8287   */\n      dup3\n        /* \"#utility.yul\":8274:8292   */\n      add\n        /* \"#utility.yul\":8266:8292   */\n      swap1\n      pop\n        /* \"#utility.yul\":8302:8373   */\n      tag_352\n        /* \"#utility.yul\":8370:8371   */\n      0x00\n        /* \"#utility.yul\":8359:8368   */\n      dup4\n        /* \"#utility.yul\":8355:8372   */\n      add\n        /* \"#utility.yul\":8346:8352   */\n      dup7\n        /* \"#utility.yul\":8302:8373   */\n      tag_231\n      jump\t// in\n    tag_352:\n        /* \"#utility.yul\":8383:8455   */\n      tag_353\n        /* \"#utility.yul\":8451:8453   */\n      0x20\n        /* \"#utility.yul\":8440:8449   */\n      dup4\n        /* \"#utility.yul\":8436:8454   */\n      add\n        /* \"#utility.yul\":8427:8433   */\n      dup6\n        /* \"#utility.yul\":8383:8455   */\n      tag_231\n      jump\t// in\n    tag_353:\n        /* \"#utility.yul\":8465:8537   */\n      tag_354\n        /* \"#utility.yul\":8533:8535   */\n      0x40\n        /* \"#utility.yul\":8522:8531   */\n      dup4\n        /* \"#utility.yul\":8518:8536   */\n      add\n        /* \"#utility.yul\":8509:8515   */\n      dup5\n        /* \"#utility.yul\":8465:8537   */\n      tag_223\n      jump\t// in\n    tag_354:\n        /* \"#utility.yul\":8102:8544   */\n      swap5\n      swap4\n      pop\n      pop\n      pop\n      pop\n      jump\t// out\n        /* \"#utility.yul\":8550:8640   */\n    tag_245:\n        /* \"#utility.yul\":8584:8591   */\n      0x00\n        /* \"#utility.yul\":8627:8632   */\n      dup2\n        /* \"#utility.yul\":8620:8633   */\n      iszero\n        /* \"#utility.yul\":8613:8634   */\n      iszero\n        /* \"#utility.yul\":8602:8634   */\n      swap1\n      pop\n        /* \"#utility.yul\":8550:8640   */\n      swap2\n      swap1\n      pop\n      jump\t// out\n        /* \"#utility.yul\":8646:8762   */\n    tag_246:\n        /* \"#utility.yul\":8716:8737   */\n      tag_357\n        /* \"#utility.yul\":8731:8736   */\n      dup2\n        /* \"#utility.yul\":8716:8737   */\n      tag_245\n      jump\t// in\n    tag_357:\n        /* \"#utility.yul\":8709:8714   */\n      dup2\n        /* \"#utility.yul\":8706:8738   */\n      eq\n        /* \"#utility.yul\":8696:8756   */\n      tag_358\n      jumpi\n        /* \"#utility.yul\":8752:8753   */\n      0x00\n        /* \"#utility.yul\":8749:8750   */\n      dup1\n        /* \"#utility.yul\":8742:8754   */\n      revert\n        /* \"#utility.yul\":8696:8756   */\n    tag_358:\n        /* \"#utility.yul\":8646:8762   */\n      pop\n      jump\t// out\n        /* \"#utility.yul\":8768:8905   */\n    tag_247:\n        /* \"#utility.yul\":8822:8827   */\n      0x00\n        /* \"#utility.yul\":8853:8859   */\n      dup2\n        /* \"#utility.yul\":8847:8860   */\n      mload\n        /* \"#utility.yul\":8838:8860   */\n      swap1\n      pop\n        /* \"#utility.yul\":8869:8899   */\n      tag_360\n        /* \"#utility.yul\":8893:8898   */\n      dup2\n        /* \"#utility.yul\":8869:8899   */\n      tag_246\n      jump\t// in\n    tag_360:\n        /* \"#utility.yul\":8768:8905   */\n      swap3\n      swap2\n      pop\n      pop\n      jump\t// out\n        /* \"#utility.yul\":8911:9256   */\n    tag_138:\n        /* \"#utility.yul\":8978:8984   */\n      0x00\n        /* \"#utility.yul\":9027:9029   */\n      0x20\n        /* \"#utility.yul\":9015:9024   */\n      dup3\n        /* \"#utility.yul\":9006:9013   */\n      dup5\n        /* \"#utility.yul\":9002:9025   */\n      sub\n        /* \"#utility.yul\":8998:9030   */\n      slt\n        /* \"#utility.yul\":8995:9114   */\n      iszero\n      tag_362\n      jumpi\n        /* \"#utility.yul\":9033:9112   */\n      tag_363\n      tag_225\n      jump\t// in\n    tag_363:\n        /* \"#utility.yul\":8995:9114   */\n    tag_362:\n        /* \"#utility.yul\":9153:9154   */\n      0x00\n        /* \"#utility.yul\":9178:9239   */\n      tag_364\n        /* \"#utility.yul\":9231:9238   */\n      dup5\n        /* \"#utility.yul\":9222:9228   */\n      dup3\n        /* \"#utility.yul\":9211:9220   */\n      dup6\n        /* \"#utility.yul\":9207:9229   */\n      add\n        /* \"#utility.yul\":9178:9239   */\n      tag_247\n      jump\t// in\n    tag_364:\n        /* \"#utility.yul\":9168:9239   */\n      swap2\n      pop\n        /* \"#utility.yul\":9124:9249   */\n      pop\n        /* \"#utility.yul\":8911:9256   */\n      swap3\n      swap2\n      pop\n      pop\n      jump\t// out\n        /* \"#utility.yul\":9262:9405   */\n    tag_248:\n        /* \"#utility.yul\":9319:9324   */\n      0x00\n        /* \"#utility.yul\":9350:9356   */\n      dup2\n        /* \"#utility.yul\":9344:9357   */\n      mload\n        /* \"#utility.yul\":9335:9357   */\n      swap1\n      pop\n        /* \"#utility.yul\":9366:9399   */\n      tag_366\n        /* \"#utility.yul\":9393:9398   */\n      dup2\n        /* \"#utility.yul\":9366:9399   */\n      tag_227\n      jump\t// in\n    tag_366:\n        /* \"#utility.yul\":9262:9405   */\n      swap3\n      swap2\n      pop\n      pop\n      jump\t// out\n        /* \"#utility.yul\":9411:9762   */\n    tag_147:\n        /* \"#utility.yul\":9481:9487   */\n      0x00\n        /* \"#utility.yul\":9530:9532   */\n      0x20\n        /* \"#utility.yul\":9518:9527   */\n      dup3\n        /* \"#utility.yul\":9509:9516   */\n      dup5\n        /* \"#utility.yul\":9505:9528   */\n      sub\n        /* \"#utility.yul\":9501:9533   */\n      slt\n        /* \"#utility.yul\":9498:9617   */\n      iszero\n      tag_368\n      jumpi\n        /* \"#utility.yul\":9536:9615   */\n      tag_369\n      tag_225\n      jump\t// in\n    tag_369:\n        /* \"#utility.yul\":9498:9617   */\n    tag_368:\n        /* \"#utility.yul\":9656:9657   */\n      0x00\n        /* \"#utility.yul\":9681:9745   */\n      tag_370\n        /* \"#utility.yul\":9737:9744   */\n      dup5\n        /* \"#utility.yul\":9728:9734   */\n      dup3\n        /* \"#utility.yul\":9717:9726   */\n      dup6\n        /* \"#utility.yul\":9713:9735   */\n      add\n        /* \"#utility.yul\":9681:9745   */\n      tag_248\n      jump\t// in\n    tag_370:\n        /* \"#utility.yul\":9671:9745   */\n      swap2\n      pop\n        /* \"#utility.yul\":9627:9755   */\n      pop\n        /* \"#utility.yul\":9411:9762   */\n      swap3\n      swap2\n      pop\n      pop\n      jump\t// out\n        /* \"#utility.yul\":9768:9953   */\n    tag_158:\n        /* \"#utility.yul\":9808:9809   */\n      0x00\n        /* \"#utility.yul\":9825:9845   */\n      tag_372\n        /* \"#utility.yul\":9843:9844   */\n      dup3\n        /* \"#utility.yul\":9825:9845   */\n      tag_222\n      jump\t// in\n    tag_372:\n        /* \"#utility.yul\":9820:9845   */\n      swap2\n      pop\n        /* \"#utility.yul\":9859:9879   */\n      tag_373\n        /* \"#utility.yul\":9877:9878   */\n      dup4\n        /* \"#utility.yul\":9859:9879   */\n      tag_222\n      jump\t// in\n    tag_373:\n        /* \"#utility.yul\":9854:9879   */\n      swap3\n      pop\n        /* \"#utility.yul\":9898:9899   */\n      dup3\n        /* \"#utility.yul\":9888:9923   */\n      tag_374\n      jumpi\n        /* \"#utility.yul\":9903:9921   */\n      tag_375\n      tag_244\n      jump\t// in\n    tag_375:\n        /* \"#utility.yul\":9888:9923   */\n    tag_374:\n        /* \"#utility.yul\":9945:9946   */\n      dup3\n        /* \"#utility.yul\":9942:9943   */\n      dup3\n        /* \"#utility.yul\":9938:9947   */\n      div\n        /* \"#utility.yul\":9933:9947   */\n      swap1\n      pop\n        /* \"#utility.yul\":9768:9953   */\n      swap3\n      swap2\n      pop\n      pop\n      jump\t// out\n\n    auxdata: 0xa2646970667358221220c91ce48cc6bd9e97e65cb35ceb54cb8457407c730b1011a9ebc39263d52cabc164736f6c63430008100033\n}\n",
				"bytecode": {
					"linkReferences": {},
					"object": "6080604052600460095573ebfdf7a84eb1dd651663782802a818ce36f3e18a600a60006101000a81548173ffffffffffffffffffffffffffffffffffffffff021916908373ffffffffffffffffffffffffffffffffffffffff160217905550686c6b935b8bbd400000600b553480156200007857600080fd5b5033600360006101000a81548173ffffffffffffffffffffffffffffffffffffffff021916908373ffffffffffffffffffffffffffffffffffffffff1602179055506000600181905550426002819055506040518060c00160405280600260ff168152602001600360ff168152602001600360ff168152602001600260ff168152602001600260ff168152602001600a60ff1681525060059060066200012092919062000255565b506040518060c00160405280600160ff168152602001600260ff168152602001600260ff168152602001600160ff168152602001600160ff168152602001602460ff1681525060069060066200017892919062000255565b50670de0b6b3a7640000600081905550674563918244f4000060048190555073e9e7cea3dedca5984780bafc599bd69add087d56600860006101000a81548173ffffffffffffffffffffffffffffffffffffffff021916908373ffffffffffffffffffffffffffffffffffffffff160217905550600860009054906101000a900473ffffffffffffffffffffffffffffffffffffffff16600760006101000a81548173ffffffffffffffffffffffffffffffffffffffff021916908373ffffffffffffffffffffffffffffffffffffffff16021790555062000322565b82805482825590600052602060002090601f01602090048101928215620002f05791602002820160005b83821115620002bf57835183826101000a81548160ff021916908360ff16021790555092602001926001016020816000010492830192600103026200027f565b8015620002ee5782816101000a81549060ff0219169055600101602081600001049283019260010302620002bf565b505b509050620002ff919062000303565b5090565b5b808211156200031e57600081600090555060010162000304565b5090565b611cd880620003326000396000f3fe608060405234801561001057600080fd5b50600436106100a95760003560e01c806351afb3dd1161007157806351afb3dd1461016c5780635925417c14610188578063793cd71e146101a65780639d76ea58146101b0578063e6c7c456146101ce578063ea3a1499146101ec576100a9565b806315ecef92146100ae578063198b2eae146100cc57806322af00fa146100e857806330ccebb51461011a578063349dc3291461014e575b600080fd5b6100b661021d565b6040516100c391906116b2565b60405180910390f35b6100e660048036038101906100e191906116fe565b6108ad565b005b61010260048036038101906100fd91906116fe565b6109ad565b60405161011193929190611788565b60405180910390f35b610134600480360381019061012f91906117eb565b610a1d565b604051610145959493929190611818565b60405180910390f35b610156610bad565b604051610163919061186b565b60405180910390f35b610186600480360381019061018191906118b2565b610bd3565b005b610190611020565b60405161019d91906116b2565b60405180910390f35b6101ae611026565b005b6101b8611382565b6040516101c5919061186b565b60405180910390f35b6101d66113a8565b6040516101e391906116b2565b60405180910390f35b610206600480360381019061020191906117eb565b61144b565b604051610214929190611919565b60405180910390f35b600080600e60003373ffffffffffffffffffffffffffffffffffffffff1673ffffffffffffffffffffffffffffffffffffffff168152602001908152602001600020805490501161026d57600080fd5b600254421161027b57600080fd5b60006025424460014361028e9190611971565b406040516020016102a1939291906119f1565b6040516020818303038152906040528051906020012060001c6102c49190611a5d565b905060005b600e60003373ffffffffffffffffffffffffffffffffffffffff1673ffffffffffffffffffffffffffffffffffffffff1681526020019081526020016000208054905081101561081b57600080600e60003373ffffffffffffffffffffffffffffffffffffffff1673ffffffffffffffffffffffffffffffffffffffff168152602001908152602001600020838154811061036757610366611a8e565b5b906000526020600020016040518060600160405290816000820160009054906101000a900473ffffffffffffffffffffffffffffffffffffffff1673ffffffffffffffffffffffffffffffffffffffff1673ffffffffffffffffffffffffffffffffffffffff1681526020016000820160149054906101000a900460ff1660ff1660ff1681526020016000820160159054906101000a900460ff1660ff1660ff168152505090506000840361043b576005816020015160ff1614801561043457506000816040015160ff16145b9150610698565b6005816020015160ff160361045b5783816040015160ff16149150610697565b6004816020015160ff16036104b3576000816040015160ff160361048c5760006002856104889190611a5d565b1491505b6001816040015160ff16036104ae5760016002856104aa9190611a5d565b1491505b610696565b6003816020015160ff16036104f5576000816040015160ff16036104d957601284111591505b6001816040015160ff16036104f057601384101591505b610695565b6002816020015160ff1603610559576000816040015160ff160361051b57600c84111591505b6001816040015160ff160361053e57600c8411801561053b575060188411155b91505b6002816040015160ff1603610554576018841191505b610694565b6001816020015160ff16036105d3576000816040015160ff160361058a5760016003856105869190611a5d565b1491505b6001816040015160ff16036105ac5760026003856105a89190611a5d565b1491505b6002816040015160ff16036105ce5760006003856105ca9190611a5d565b1491505b610693565b6000816020015160ff1603610692576000816040015160ff160361064357600a8411158061060f57506014841015801561060e5750601c8411155b5b1561062b5760006002856106239190611a5d565b14915061063e565b600160028561063a9190611a5d565b1491505b610691565b600a841115806106615750601484101580156106605750601c8411155b5b1561067d5760016002856106759190611a5d565b149150610690565b600060028561068c9190611a5d565b1491505b5b5b5b5b5b5b5b5b8115610806576000600c60003373ffffffffffffffffffffffffffffffffffffffff1673ffffffffffffffffffffffffffffffffffffffff16815260200190815260200160002060010154905060006005836020015160ff168154811061070257610701611a8e565b5b90600052602060002090602091828204019190069054906101000a900460ff1660ff166000546107329190611abd565b9050600081836107429190611b17565b905060405180604001604052803373ffffffffffffffffffffffffffffffffffffffff16815260200182815250600c60003373ffffffffffffffffffffffffffffffffffffffff1673ffffffffffffffffffffffffffffffffffffffff16815260200190815260200160002060008201518160000160006101000a81548173ffffffffffffffffffffffffffffffffffffffff021916908373ffffffffffffffffffffffffffffffffffffffff160217905550602082015181600101559050505050505b5050808061081390611b4b565b9150506102c9565b50600e60003373ffffffffffffffffffffffffffffffffffffffff1673ffffffffffffffffffffffffffffffffffffffff16815260200190815260200160002060006108679190611612565b60006001819055507fec6cdc8e735e4069f6e89062582f3e5532a8e71373e7ef2962fa916cf2af21f28160405161089e91906116b2565b60405180910390a18091505090565b600360009054906101000a900473ffffffffffffffffffffffffffffffffffffffff1673ffffffffffffffffffffffffffffffffffffffff163373ffffffffffffffffffffffffffffffffffffffff161461090757600080fd5b600760009054906101000a900473ffffffffffffffffffffffffffffffffffffffff1673ffffffffffffffffffffffffffffffffffffffff166323b872dd3330846040518463ffffffff1660e01b815260040161096693929190611b93565b6020604051808303816000875af1158015610985573d6000803e3d6000fd5b505050506040513d601f19601f820116820180604052508101906109a99190611c02565b5050565b600d81815481106109bd57600080fd5b906000526020600020016000915090508060000160009054906101000a900473ffffffffffffffffffffffffffffffffffffffff16908060000160149054906101000a900460ff16908060000160159054906101000a900460ff16905083565b6000806000806000600e60008773ffffffffffffffffffffffffffffffffffffffff1673ffffffffffffffffffffffffffffffffffffffff16815260200190815260200160002080549050600054600e60008973ffffffffffffffffffffffffffffffffffffffff1673ffffffffffffffffffffffffffffffffffffffff16815260200190815260200160002080549050610ab89190611abd565b600254600760009054906101000a900473ffffffffffffffffffffffffffffffffffffffff1673ffffffffffffffffffffffffffffffffffffffff166370a08231306040518263ffffffff1660e01b8152600401610b16919061186b565b602060405180830381865afa158015610b33573d6000803e3d6000fd5b505050506040513d601f19601f82011682018060405250810190610b579190611c44565b600c60008b73ffffffffffffffffffffffffffffffffffffffff1673ffffffffffffffffffffffffffffffffffffffff168152602001908152602001600020600101549450945094509450945091939590929450565b600a60009054906101000a900473ffffffffffffffffffffffffffffffffffffffff1681565b6000548314610be157600080fd5b60008160ff1610158015610bf9575060058160ff1611155b610c0257600080fd5b60008260ff1610158015610c52575060068160ff1681548110610c2857610c27611a8e565b5b90600052602060002090602091828204019190069054906101000a900460ff1660ff168260ff1611155b610c5b57600080fd5b6000600954606485610c6d9190611c71565b610c779190611abd565b9050600081905060008186610c8c9190611971565b9050600760009054906101000a900473ffffffffffffffffffffffffffffffffffffffff1673ffffffffffffffffffffffffffffffffffffffff166323b872dd3389866040518463ffffffff1660e01b8152600401610ced93929190611b93565b6020604051808303816000875af1158015610d0c573d6000803e3d6000fd5b505050506040513d601f19601f82011682018060405250810190610d309190611c02565b50600760009054906101000a900473ffffffffffffffffffffffffffffffffffffffff1673ffffffffffffffffffffffffffffffffffffffff166323b872dd3330846040518463ffffffff1660e01b8152600401610d9093929190611b93565b6020604051808303816000875af1158015610daf573d6000803e3d6000fd5b505050506040513d601f19601f82011682018060405250810190610dd39190611c02565b5060008660058660ff1681548110610dee57610ded611a8e565b5b90600052602060002090602091828204019190069054906101000a900460ff1660ff16610e1b9190611abd565b9050600081600154610e2d9190611b17565b9050600760009054906101000a900473ffffffffffffffffffffffffffffffffffffffff1673ffffffffffffffffffffffffffffffffffffffff166370a08231306040518263ffffffff1660e01b8152600401610e8a919061186b565b602060405180830381865afa158015610ea7573d6000803e3d6000fd5b505050506040513d601f19601f82011682018060405250810190610ecb9190611c44565b8110610ed657600080fd5b8160016000828254610ee89190611b17565b92505081905550600e60003373ffffffffffffffffffffffffffffffffffffffff1673ffffffffffffffffffffffffffffffffffffffff16815260200190815260200160002060405180606001604052803373ffffffffffffffffffffffffffffffffffffffff1681526020018860ff1681526020018960ff168152509080600181540180825580915050600190039060005260206000200160009091909190915060008201518160000160006101000a81548173ffffffffffffffffffffffffffffffffffffffff021916908373ffffffffffffffffffffffffffffffffffffffff16021790555060208201518160000160146101000a81548160ff021916908360ff16021790555060408201518160000160156101000a81548160ff021916908360ff1602179055505050505050505050505050565b60095481565b60003390506000600c60008373ffffffffffffffffffffffffffffffffffffffff1673ffffffffffffffffffffffffffffffffffffffff1681526020019081526020016000206001015490506000811161107f57600080fd5b600760009054906101000a900473ffffffffffffffffffffffffffffffffffffffff1673ffffffffffffffffffffffffffffffffffffffff166370a08231306040518263ffffffff1660e01b81526004016110da919061186b565b602060405180830381865afa1580156110f7573d6000803e3d6000fd5b505050506040513d601f19601f8201168201806040525081019061111b9190611c44565b81111561112757600080fd5b60405180604001604052803373ffffffffffffffffffffffffffffffffffffffff1681526020016000815250600c60003373ffffffffffffffffffffffffffffffffffffffff1673ffffffffffffffffffffffffffffffffffffffff16815260200190815260200160002060008201518160000160006101000a81548173ffffffffffffffffffffffffffffffffffffffff021916908373ffffffffffffffffffffffffffffffffffffffff160217905550602082015181600101559050506000601e6064836111f79190611c71565b6112019190611abd565b9050808261120f9190611971565b9150600760009054906101000a900473ffffffffffffffffffffffffffffffffffffffff1673ffffffffffffffffffffffffffffffffffffffff1663a9059cbb84846040518363ffffffff1660e01b815260040161126e929190611919565b6020604051808303816000875af115801561128d573d6000803e3d6000fd5b505050506040513d601f19601f820116820180604052508101906112b19190611c02565b50600760009054906101000a900473ffffffffffffffffffffffffffffffffffffffff1673ffffffffffffffffffffffffffffffffffffffff1663a9059cbb600a60009054906101000a900473ffffffffffffffffffffffffffffffffffffffff16836040518363ffffffff1660e01b8152600401611331929190611919565b6020604051808303816000875af1158015611350573d6000803e3d6000fd5b505050506040513d601f19601f820116820180604052508101906113749190611c02565b5061137d61148f565b505050565b600860009054906101000a900473ffffffffffffffffffffffffffffffffffffffff1681565b6000600760009054906101000a900473ffffffffffffffffffffffffffffffffffffffff1673ffffffffffffffffffffffffffffffffffffffff166370a08231306040518263ffffffff1660e01b8152600401611405919061186b565b602060405180830381865afa158015611422573d6000803e3d6000fd5b505050506040513d601f19601f820116820180604052508101906114469190611c44565b905090565b600c6020528060005260406000206000915090508060000160009054906101000a900473ffffffffffffffffffffffffffffffffffffffff16908060010154905082565b6000600760009054906101000a900473ffffffffffffffffffffffffffffffffffffffff1673ffffffffffffffffffffffffffffffffffffffff166370a08231306040518263ffffffff1660e01b81526004016114ec919061186b565b602060405180830381865afa158015611509573d6000803e3d6000fd5b505050506040513d601f19601f8201168201806040525081019061152d9190611c44565b9050600b54811061160f576000600b54826115489190611971565b9050600760009054906101000a900473ffffffffffffffffffffffffffffffffffffffff1673ffffffffffffffffffffffffffffffffffffffff1663a9059cbb600a60009054906101000a900473ffffffffffffffffffffffffffffffffffffffff16836040518363ffffffff1660e01b81526004016115c9929190611919565b6020604051808303816000875af11580156115e8573d6000803e3d6000fd5b505050506040513d601f19601f8201168201806040525081019061160c9190611c02565b50505b50565b50805460008255906000526020600020908101906116309190611633565b50565b5b8082111561169557600080820160006101000a81549073ffffffffffffffffffffffffffffffffffffffff02191690556000820160146101000a81549060ff02191690556000820160156101000a81549060ff021916905550600101611634565b5090565b6000819050919050565b6116ac81611699565b82525050565b60006020820190506116c760008301846116a3565b92915050565b600080fd5b6116db81611699565b81146116e657600080fd5b50565b6000813590506116f8816116d2565b92915050565b600060208284031215611714576117136116cd565b5b6000611722848285016116e9565b91505092915050565b600073ffffffffffffffffffffffffffffffffffffffff82169050919050565b60006117568261172b565b9050919050565b6117668161174b565b82525050565b600060ff82169050919050565b6117828161176c565b82525050565b600060608201905061179d600083018661175d565b6117aa6020830185611779565b6117b76040830184611779565b949350505050565b6117c88161174b565b81146117d357600080fd5b50565b6000813590506117e5816117bf565b92915050565b600060208284031215611801576118006116cd565b5b600061180f848285016117d6565b91505092915050565b600060a08201905061182d60008301886116a3565b61183a60208301876116a3565b61184760408301866116a3565b61185460608301856116a3565b61186160808301846116a3565b9695505050505050565b6000602082019050611880600083018461175d565b92915050565b61188f8161176c565b811461189a57600080fd5b50565b6000813590506118ac81611886565b92915050565b600080600080608085870312156118cc576118cb6116cd565b5b60006118da878288016117d6565b94505060206118eb878288016116e9565b93505060406118fc8782880161189d565b925050606061190d8782880161189d565b91505092959194509250565b600060408201905061192e600083018561175d565b61193b60208301846116a3565b9392505050565b7f4e487b7100000000000000000000000000000000000000000000000000000000600052601160045260246000fd5b600061197c82611699565b915061198783611699565b925082820390508181111561199f5761199e611942565b5b92915050565b6000819050919050565b6119c06119bb82611699565b6119a5565b82525050565b6000819050919050565b6000819050919050565b6119eb6119e6826119c6565b6119d0565b82525050565b60006119fd82866119af565b602082019150611a0d82856119af565b602082019150611a1d82846119da565b602082019150819050949350505050565b7f4e487b7100000000000000000000000000000000000000000000000000000000600052601260045260246000fd5b6000611a6882611699565b9150611a7383611699565b925082611a8357611a82611a2e565b5b828206905092915050565b7f4e487b7100000000000000000000000000000000000000000000000000000000600052603260045260246000fd5b6000611ac882611699565b9150611ad383611699565b9250817fffffffffffffffffffffffffffffffffffffffffffffffffffffffffffffffff0483118215151615611b0c57611b0b611942565b5b828202905092915050565b6000611b2282611699565b9150611b2d83611699565b9250828201905080821115611b4557611b44611942565b5b92915050565b6000611b5682611699565b91507fffffffffffffffffffffffffffffffffffffffffffffffffffffffffffffffff8203611b8857611b87611942565b5b600182019050919050565b6000606082019050611ba8600083018661175d565b611bb5602083018561175d565b611bc260408301846116a3565b949350505050565b60008115159050919050565b611bdf81611bca565b8114611bea57600080fd5b50565b600081519050611bfc81611bd6565b92915050565b600060208284031215611c1857611c176116cd565b5b6000611c2684828501611bed565b91505092915050565b600081519050611c3e816116d2565b92915050565b600060208284031215611c5a57611c596116cd565b5b6000611c6884828501611c2f565b91505092915050565b6000611c7c82611699565b9150611c8783611699565b925082611c9757611c96611a2e565b5b82820490509291505056fea2646970667358221220c91ce48cc6bd9e97e65cb35ceb54cb8457407c730b1011a9ebc39263d52cabc164736f6c63430008100033",
					"opcodes": "PUSH1 0x80 PUSH1 0x40 MSTORE PUSH1 0x4 PUSH1 0x9 SSTORE PUSH20 0xEBFDF7A84EB1DD651663782802A818CE36F3E18A PUSH1 0xA PUSH1 0x0 PUSH2 0x100 EXP DUP2 SLOAD DUP2 PUSH20 0xFFFFFFFFFFFFFFFFFFFFFFFFFFFFFFFFFFFFFFFF MUL NOT AND SWAP1 DUP4 PUSH20 0xFFFFFFFFFFFFFFFFFFFFFFFFFFFFFFFFFFFFFFFF AND MUL OR SWAP1 SSTORE POP PUSH9 0x6C6B935B8BBD400000 PUSH1 0xB SSTORE CALLVALUE DUP1 ISZERO PUSH3 0x78 JUMPI PUSH1 0x0 DUP1 REVERT JUMPDEST POP CALLER PUSH1 0x3 PUSH1 0x0 PUSH2 0x100 EXP DUP2 SLOAD DUP2 PUSH20 0xFFFFFFFFFFFFFFFFFFFFFFFFFFFFFFFFFFFFFFFF MUL NOT AND SWAP1 DUP4 PUSH20 0xFFFFFFFFFFFFFFFFFFFFFFFFFFFFFFFFFFFFFFFF AND MUL OR SWAP1 SSTORE POP PUSH1 0x0 PUSH1 0x1 DUP2 SWAP1 SSTORE POP TIMESTAMP PUSH1 0x2 DUP2 SWAP1 SSTORE POP PUSH1 0x40 MLOAD DUP1 PUSH1 0xC0 ADD PUSH1 0x40 MSTORE DUP1 PUSH1 0x2 PUSH1 0xFF AND DUP2 MSTORE PUSH1 0x20 ADD PUSH1 0x3 PUSH1 0xFF AND DUP2 MSTORE PUSH1 0x20 ADD PUSH1 0x3 PUSH1 0xFF AND DUP2 MSTORE PUSH1 0x20 ADD PUSH1 0x2 PUSH1 0xFF AND DUP2 MSTORE PUSH1 0x20 ADD PUSH1 0x2 PUSH1 0xFF AND DUP2 MSTORE PUSH1 0x20 ADD PUSH1 0xA PUSH1 0xFF AND DUP2 MSTORE POP PUSH1 0x5 SWAP1 PUSH1 0x6 PUSH3 0x120 SWAP3 SWAP2 SWAP1 PUSH3 0x255 JUMP JUMPDEST POP PUSH1 0x40 MLOAD DUP1 PUSH1 0xC0 ADD PUSH1 0x40 MSTORE DUP1 PUSH1 0x1 PUSH1 0xFF AND DUP2 MSTORE PUSH1 0x20 ADD PUSH1 0x2 PUSH1 0xFF AND DUP2 MSTORE PUSH1 0x20 ADD PUSH1 0x2 PUSH1 0xFF AND DUP2 MSTORE PUSH1 0x20 ADD PUSH1 0x1 PUSH1 0xFF AND DUP2 MSTORE PUSH1 0x20 ADD PUSH1 0x1 PUSH1 0xFF AND DUP2 MSTORE PUSH1 0x20 ADD PUSH1 0x24 PUSH1 0xFF AND DUP2 MSTORE POP PUSH1 0x6 SWAP1 PUSH1 0x6 PUSH3 0x178 SWAP3 SWAP2 SWAP1 PUSH3 0x255 JUMP JUMPDEST POP PUSH8 0xDE0B6B3A7640000 PUSH1 0x0 DUP2 SWAP1 SSTORE POP PUSH8 0x4563918244F40000 PUSH1 0x4 DUP2 SWAP1 SSTORE POP PUSH20 0xE9E7CEA3DEDCA5984780BAFC599BD69ADD087D56 PUSH1 0x8 PUSH1 0x0 PUSH2 0x100 EXP DUP2 SLOAD DUP2 PUSH20 0xFFFFFFFFFFFFFFFFFFFFFFFFFFFFFFFFFFFFFFFF MUL NOT AND SWAP1 DUP4 PUSH20 0xFFFFFFFFFFFFFFFFFFFFFFFFFFFFFFFFFFFFFFFF AND MUL OR SWAP1 SSTORE POP PUSH1 0x8 PUSH1 0x0 SWAP1 SLOAD SWAP1 PUSH2 0x100 EXP SWAP1 DIV PUSH20 0xFFFFFFFFFFFFFFFFFFFFFFFFFFFFFFFFFFFFFFFF AND PUSH1 0x7 PUSH1 0x0 PUSH2 0x100 EXP DUP2 SLOAD DUP2 PUSH20 0xFFFFFFFFFFFFFFFFFFFFFFFFFFFFFFFFFFFFFFFF MUL NOT AND SWAP1 DUP4 PUSH20 0xFFFFFFFFFFFFFFFFFFFFFFFFFFFFFFFFFFFFFFFF AND MUL OR SWAP1 SSTORE POP PUSH3 0x322 JUMP JUMPDEST DUP3 DUP1 SLOAD DUP3 DUP3 SSTORE SWAP1 PUSH1 0x0 MSTORE PUSH1 0x20 PUSH1 0x0 KECCAK256 SWAP1 PUSH1 0x1F ADD PUSH1 0x20 SWAP1 DIV DUP2 ADD SWAP3 DUP3 ISZERO PUSH3 0x2F0 JUMPI SWAP2 PUSH1 0x20 MUL DUP3 ADD PUSH1 0x0 JUMPDEST DUP4 DUP3 GT ISZERO PUSH3 0x2BF JUMPI DUP4 MLOAD DUP4 DUP3 PUSH2 0x100 EXP DUP2 SLOAD DUP2 PUSH1 0xFF MUL NOT AND SWAP1 DUP4 PUSH1 0xFF AND MUL OR SWAP1 SSTORE POP SWAP3 PUSH1 0x20 ADD SWAP3 PUSH1 0x1 ADD PUSH1 0x20 DUP2 PUSH1 0x0 ADD DIV SWAP3 DUP4 ADD SWAP3 PUSH1 0x1 SUB MUL PUSH3 0x27F JUMP JUMPDEST DUP1 ISZERO PUSH3 0x2EE JUMPI DUP3 DUP2 PUSH2 0x100 EXP DUP2 SLOAD SWAP1 PUSH1 0xFF MUL NOT AND SWAP1 SSTORE PUSH1 0x1 ADD PUSH1 0x20 DUP2 PUSH1 0x0 ADD DIV SWAP3 DUP4 ADD SWAP3 PUSH1 0x1 SUB MUL PUSH3 0x2BF JUMP JUMPDEST POP JUMPDEST POP SWAP1 POP PUSH3 0x2FF SWAP2 SWAP1 PUSH3 0x303 JUMP JUMPDEST POP SWAP1 JUMP JUMPDEST JUMPDEST DUP1 DUP3 GT ISZERO PUSH3 0x31E JUMPI PUSH1 0x0 DUP2 PUSH1 0x0 SWAP1 SSTORE POP PUSH1 0x1 ADD PUSH3 0x304 JUMP JUMPDEST POP SWAP1 JUMP JUMPDEST PUSH2 0x1CD8 DUP1 PUSH3 0x332 PUSH1 0x0 CODECOPY PUSH1 0x0 RETURN INVALID PUSH1 0x80 PUSH1 0x40 MSTORE CALLVALUE DUP1 ISZERO PUSH2 0x10 JUMPI PUSH1 0x0 DUP1 REVERT JUMPDEST POP PUSH1 0x4 CALLDATASIZE LT PUSH2 0xA9 JUMPI PUSH1 0x0 CALLDATALOAD PUSH1 0xE0 SHR DUP1 PUSH4 0x51AFB3DD GT PUSH2 0x71 JUMPI DUP1 PUSH4 0x51AFB3DD EQ PUSH2 0x16C JUMPI DUP1 PUSH4 0x5925417C EQ PUSH2 0x188 JUMPI DUP1 PUSH4 0x793CD71E EQ PUSH2 0x1A6 JUMPI DUP1 PUSH4 0x9D76EA58 EQ PUSH2 0x1B0 JUMPI DUP1 PUSH4 0xE6C7C456 EQ PUSH2 0x1CE JUMPI DUP1 PUSH4 0xEA3A1499 EQ PUSH2 0x1EC JUMPI PUSH2 0xA9 JUMP JUMPDEST DUP1 PUSH4 0x15ECEF92 EQ PUSH2 0xAE JUMPI DUP1 PUSH4 0x198B2EAE EQ PUSH2 0xCC JUMPI DUP1 PUSH4 0x22AF00FA EQ PUSH2 0xE8 JUMPI DUP1 PUSH4 0x30CCEBB5 EQ PUSH2 0x11A JUMPI DUP1 PUSH4 0x349DC329 EQ PUSH2 0x14E JUMPI JUMPDEST PUSH1 0x0 DUP1 REVERT JUMPDEST PUSH2 0xB6 PUSH2 0x21D JUMP JUMPDEST PUSH1 0x40 MLOAD PUSH2 0xC3 SWAP2 SWAP1 PUSH2 0x16B2 JUMP JUMPDEST PUSH1 0x40 MLOAD DUP1 SWAP2 SUB SWAP1 RETURN JUMPDEST PUSH2 0xE6 PUSH1 0x4 DUP1 CALLDATASIZE SUB DUP2 ADD SWAP1 PUSH2 0xE1 SWAP2 SWAP1 PUSH2 0x16FE JUMP JUMPDEST PUSH2 0x8AD JUMP JUMPDEST STOP JUMPDEST PUSH2 0x102 PUSH1 0x4 DUP1 CALLDATASIZE SUB DUP2 ADD SWAP1 PUSH2 0xFD SWAP2 SWAP1 PUSH2 0x16FE JUMP JUMPDEST PUSH2 0x9AD JUMP JUMPDEST PUSH1 0x40 MLOAD PUSH2 0x111 SWAP4 SWAP3 SWAP2 SWAP1 PUSH2 0x1788 JUMP JUMPDEST PUSH1 0x40 MLOAD DUP1 SWAP2 SUB SWAP1 RETURN JUMPDEST PUSH2 0x134 PUSH1 0x4 DUP1 CALLDATASIZE SUB DUP2 ADD SWAP1 PUSH2 0x12F SWAP2 SWAP1 PUSH2 0x17EB JUMP JUMPDEST PUSH2 0xA1D JUMP JUMPDEST PUSH1 0x40 MLOAD PUSH2 0x145 SWAP6 SWAP5 SWAP4 SWAP3 SWAP2 SWAP1 PUSH2 0x1818 JUMP JUMPDEST PUSH1 0x40 MLOAD DUP1 SWAP2 SUB SWAP1 RETURN JUMPDEST PUSH2 0x156 PUSH2 0xBAD JUMP JUMPDEST PUSH1 0x40 MLOAD PUSH2 0x163 SWAP2 SWAP1 PUSH2 0x186B JUMP JUMPDEST PUSH1 0x40 MLOAD DUP1 SWAP2 SUB SWAP1 RETURN JUMPDEST PUSH2 0x186 PUSH1 0x4 DUP1 CALLDATASIZE SUB DUP2 ADD SWAP1 PUSH2 0x181 SWAP2 SWAP1 PUSH2 0x18B2 JUMP JUMPDEST PUSH2 0xBD3 JUMP JUMPDEST STOP JUMPDEST PUSH2 0x190 PUSH2 0x1020 JUMP JUMPDEST PUSH1 0x40 MLOAD PUSH2 0x19D SWAP2 SWAP1 PUSH2 0x16B2 JUMP JUMPDEST PUSH1 0x40 MLOAD DUP1 SWAP2 SUB SWAP1 RETURN JUMPDEST PUSH2 0x1AE PUSH2 0x1026 JUMP JUMPDEST STOP JUMPDEST PUSH2 0x1B8 PUSH2 0x1382 JUMP JUMPDEST PUSH1 0x40 MLOAD PUSH2 0x1C5 SWAP2 SWAP1 PUSH2 0x186B JUMP JUMPDEST PUSH1 0x40 MLOAD DUP1 SWAP2 SUB SWAP1 RETURN JUMPDEST PUSH2 0x1D6 PUSH2 0x13A8 JUMP JUMPDEST PUSH1 0x40 MLOAD PUSH2 0x1E3 SWAP2 SWAP1 PUSH2 0x16B2 JUMP JUMPDEST PUSH1 0x40 MLOAD DUP1 SWAP2 SUB SWAP1 RETURN JUMPDEST PUSH2 0x206 PUSH1 0x4 DUP1 CALLDATASIZE SUB DUP2 ADD SWAP1 PUSH2 0x201 SWAP2 SWAP1 PUSH2 0x17EB JUMP JUMPDEST PUSH2 0x144B JUMP JUMPDEST PUSH1 0x40 MLOAD PUSH2 0x214 SWAP3 SWAP2 SWAP1 PUSH2 0x1919 JUMP JUMPDEST PUSH1 0x40 MLOAD DUP1 SWAP2 SUB SWAP1 RETURN JUMPDEST PUSH1 0x0 DUP1 PUSH1 0xE PUSH1 0x0 CALLER PUSH20 0xFFFFFFFFFFFFFFFFFFFFFFFFFFFFFFFFFFFFFFFF AND PUSH20 0xFFFFFFFFFFFFFFFFFFFFFFFFFFFFFFFFFFFFFFFF AND DUP2 MSTORE PUSH1 0x20 ADD SWAP1 DUP2 MSTORE PUSH1 0x20 ADD PUSH1 0x0 KECCAK256 DUP1 SLOAD SWAP1 POP GT PUSH2 0x26D JUMPI PUSH1 0x0 DUP1 REVERT JUMPDEST PUSH1 0x2 SLOAD TIMESTAMP GT PUSH2 0x27B JUMPI PUSH1 0x0 DUP1 REVERT JUMPDEST PUSH1 0x0 PUSH1 0x25 TIMESTAMP DIFFICULTY PUSH1 0x1 NUMBER PUSH2 0x28E SWAP2 SWAP1 PUSH2 0x1971 JUMP JUMPDEST BLOCKHASH PUSH1 0x40 MLOAD PUSH1 0x20 ADD PUSH2 0x2A1 SWAP4 SWAP3 SWAP2 SWAP1 PUSH2 0x19F1 JUMP JUMPDEST PUSH1 0x40 MLOAD PUSH1 0x20 DUP2 DUP4 SUB SUB DUP2 MSTORE SWAP1 PUSH1 0x40 MSTORE DUP1 MLOAD SWAP1 PUSH1 0x20 ADD KECCAK256 PUSH1 0x0 SHR PUSH2 0x2C4 SWAP2 SWAP1 PUSH2 0x1A5D JUMP JUMPDEST SWAP1 POP PUSH1 0x0 JUMPDEST PUSH1 0xE PUSH1 0x0 CALLER PUSH20 0xFFFFFFFFFFFFFFFFFFFFFFFFFFFFFFFFFFFFFFFF AND PUSH20 0xFFFFFFFFFFFFFFFFFFFFFFFFFFFFFFFFFFFFFFFF AND DUP2 MSTORE PUSH1 0x20 ADD SWAP1 DUP2 MSTORE PUSH1 0x20 ADD PUSH1 0x0 KECCAK256 DUP1 SLOAD SWAP1 POP DUP2 LT ISZERO PUSH2 0x81B JUMPI PUSH1 0x0 DUP1 PUSH1 0xE PUSH1 0x0 CALLER PUSH20 0xFFFFFFFFFFFFFFFFFFFFFFFFFFFFFFFFFFFFFFFF AND PUSH20 0xFFFFFFFFFFFFFFFFFFFFFFFFFFFFFFFFFFFFFFFF AND DUP2 MSTORE PUSH1 0x20 ADD SWAP1 DUP2 MSTORE PUSH1 0x20 ADD PUSH1 0x0 KECCAK256 DUP4 DUP2 SLOAD DUP2 LT PUSH2 0x367 JUMPI PUSH2 0x366 PUSH2 0x1A8E JUMP JUMPDEST JUMPDEST SWAP1 PUSH1 0x0 MSTORE PUSH1 0x20 PUSH1 0x0 KECCAK256 ADD PUSH1 0x40 MLOAD DUP1 PUSH1 0x60 ADD PUSH1 0x40 MSTORE SWAP1 DUP2 PUSH1 0x0 DUP3 ADD PUSH1 0x0 SWAP1 SLOAD SWAP1 PUSH2 0x100 EXP SWAP1 DIV PUSH20 0xFFFFFFFFFFFFFFFFFFFFFFFFFFFFFFFFFFFFFFFF AND PUSH20 0xFFFFFFFFFFFFFFFFFFFFFFFFFFFFFFFFFFFFFFFF AND PUSH20 0xFFFFFFFFFFFFFFFFFFFFFFFFFFFFFFFFFFFFFFFF AND DUP2 MSTORE PUSH1 0x20 ADD PUSH1 0x0 DUP3 ADD PUSH1 0x14 SWAP1 SLOAD SWAP1 PUSH2 0x100 EXP SWAP1 DIV PUSH1 0xFF AND PUSH1 0xFF AND PUSH1 0xFF AND DUP2 MSTORE PUSH1 0x20 ADD PUSH1 0x0 DUP3 ADD PUSH1 0x15 SWAP1 SLOAD SWAP1 PUSH2 0x100 EXP SWAP1 DIV PUSH1 0xFF AND PUSH1 0xFF AND PUSH1 0xFF AND DUP2 MSTORE POP POP SWAP1 POP PUSH1 0x0 DUP5 SUB PUSH2 0x43B JUMPI PUSH1 0x5 DUP2 PUSH1 0x20 ADD MLOAD PUSH1 0xFF AND EQ DUP1 ISZERO PUSH2 0x434 JUMPI POP PUSH1 0x0 DUP2 PUSH1 0x40 ADD MLOAD PUSH1 0xFF AND EQ JUMPDEST SWAP2 POP PUSH2 0x698 JUMP JUMPDEST PUSH1 0x5 DUP2 PUSH1 0x20 ADD MLOAD PUSH1 0xFF AND SUB PUSH2 0x45B JUMPI DUP4 DUP2 PUSH1 0x40 ADD MLOAD PUSH1 0xFF AND EQ SWAP2 POP PUSH2 0x697 JUMP JUMPDEST PUSH1 0x4 DUP2 PUSH1 0x20 ADD MLOAD PUSH1 0xFF AND SUB PUSH2 0x4B3 JUMPI PUSH1 0x0 DUP2 PUSH1 0x40 ADD MLOAD PUSH1 0xFF AND SUB PUSH2 0x48C JUMPI PUSH1 0x0 PUSH1 0x2 DUP6 PUSH2 0x488 SWAP2 SWAP1 PUSH2 0x1A5D JUMP JUMPDEST EQ SWAP2 POP JUMPDEST PUSH1 0x1 DUP2 PUSH1 0x40 ADD MLOAD PUSH1 0xFF AND SUB PUSH2 0x4AE JUMPI PUSH1 0x1 PUSH1 0x2 DUP6 PUSH2 0x4AA SWAP2 SWAP1 PUSH2 0x1A5D JUMP JUMPDEST EQ SWAP2 POP JUMPDEST PUSH2 0x696 JUMP JUMPDEST PUSH1 0x3 DUP2 PUSH1 0x20 ADD MLOAD PUSH1 0xFF AND SUB PUSH2 0x4F5 JUMPI PUSH1 0x0 DUP2 PUSH1 0x40 ADD MLOAD PUSH1 0xFF AND SUB PUSH2 0x4D9 JUMPI PUSH1 0x12 DUP5 GT ISZERO SWAP2 POP JUMPDEST PUSH1 0x1 DUP2 PUSH1 0x40 ADD MLOAD PUSH1 0xFF AND SUB PUSH2 0x4F0 JUMPI PUSH1 0x13 DUP5 LT ISZERO SWAP2 POP JUMPDEST PUSH2 0x695 JUMP JUMPDEST PUSH1 0x2 DUP2 PUSH1 0x20 ADD MLOAD PUSH1 0xFF AND SUB PUSH2 0x559 JUMPI PUSH1 0x0 DUP2 PUSH1 0x40 ADD MLOAD PUSH1 0xFF AND SUB PUSH2 0x51B JUMPI PUSH1 0xC DUP5 GT ISZERO SWAP2 POP JUMPDEST PUSH1 0x1 DUP2 PUSH1 0x40 ADD MLOAD PUSH1 0xFF AND SUB PUSH2 0x53E JUMPI PUSH1 0xC DUP5 GT DUP1 ISZERO PUSH2 0x53B JUMPI POP PUSH1 0x18 DUP5 GT ISZERO JUMPDEST SWAP2 POP JUMPDEST PUSH1 0x2 DUP2 PUSH1 0x40 ADD MLOAD PUSH1 0xFF AND SUB PUSH2 0x554 JUMPI PUSH1 0x18 DUP5 GT SWAP2 POP JUMPDEST PUSH2 0x694 JUMP JUMPDEST PUSH1 0x1 DUP2 PUSH1 0x20 ADD MLOAD PUSH1 0xFF AND SUB PUSH2 0x5D3 JUMPI PUSH1 0x0 DUP2 PUSH1 0x40 ADD MLOAD PUSH1 0xFF AND SUB PUSH2 0x58A JUMPI PUSH1 0x1 PUSH1 0x3 DUP6 PUSH2 0x586 SWAP2 SWAP1 PUSH2 0x1A5D JUMP JUMPDEST EQ SWAP2 POP JUMPDEST PUSH1 0x1 DUP2 PUSH1 0x40 ADD MLOAD PUSH1 0xFF AND SUB PUSH2 0x5AC JUMPI PUSH1 0x2 PUSH1 0x3 DUP6 PUSH2 0x5A8 SWAP2 SWAP1 PUSH2 0x1A5D JUMP JUMPDEST EQ SWAP2 POP JUMPDEST PUSH1 0x2 DUP2 PUSH1 0x40 ADD MLOAD PUSH1 0xFF AND SUB PUSH2 0x5CE JUMPI PUSH1 0x0 PUSH1 0x3 DUP6 PUSH2 0x5CA SWAP2 SWAP1 PUSH2 0x1A5D JUMP JUMPDEST EQ SWAP2 POP JUMPDEST PUSH2 0x693 JUMP JUMPDEST PUSH1 0x0 DUP2 PUSH1 0x20 ADD MLOAD PUSH1 0xFF AND SUB PUSH2 0x692 JUMPI PUSH1 0x0 DUP2 PUSH1 0x40 ADD MLOAD PUSH1 0xFF AND SUB PUSH2 0x643 JUMPI PUSH1 0xA DUP5 GT ISZERO DUP1 PUSH2 0x60F JUMPI POP PUSH1 0x14 DUP5 LT ISZERO DUP1 ISZERO PUSH2 0x60E JUMPI POP PUSH1 0x1C DUP5 GT ISZERO JUMPDEST JUMPDEST ISZERO PUSH2 0x62B JUMPI PUSH1 0x0 PUSH1 0x2 DUP6 PUSH2 0x623 SWAP2 SWAP1 PUSH2 0x1A5D JUMP JUMPDEST EQ SWAP2 POP PUSH2 0x63E JUMP JUMPDEST PUSH1 0x1 PUSH1 0x2 DUP6 PUSH2 0x63A SWAP2 SWAP1 PUSH2 0x1A5D JUMP JUMPDEST EQ SWAP2 POP JUMPDEST PUSH2 0x691 JUMP JUMPDEST PUSH1 0xA DUP5 GT ISZERO DUP1 PUSH2 0x661 JUMPI POP PUSH1 0x14 DUP5 LT ISZERO DUP1 ISZERO PUSH2 0x660 JUMPI POP PUSH1 0x1C DUP5 GT ISZERO JUMPDEST JUMPDEST ISZERO PUSH2 0x67D JUMPI PUSH1 0x1 PUSH1 0x2 DUP6 PUSH2 0x675 SWAP2 SWAP1 PUSH2 0x1A5D JUMP JUMPDEST EQ SWAP2 POP PUSH2 0x690 JUMP JUMPDEST PUSH1 0x0 PUSH1 0x2 DUP6 PUSH2 0x68C SWAP2 SWAP1 PUSH2 0x1A5D JUMP JUMPDEST EQ SWAP2 POP JUMPDEST JUMPDEST JUMPDEST JUMPDEST JUMPDEST JUMPDEST JUMPDEST JUMPDEST JUMPDEST DUP2 ISZERO PUSH2 0x806 JUMPI PUSH1 0x0 PUSH1 0xC PUSH1 0x0 CALLER PUSH20 0xFFFFFFFFFFFFFFFFFFFFFFFFFFFFFFFFFFFFFFFF AND PUSH20 0xFFFFFFFFFFFFFFFFFFFFFFFFFFFFFFFFFFFFFFFF AND DUP2 MSTORE PUSH1 0x20 ADD SWAP1 DUP2 MSTORE PUSH1 0x20 ADD PUSH1 0x0 KECCAK256 PUSH1 0x1 ADD SLOAD SWAP1 POP PUSH1 0x0 PUSH1 0x5 DUP4 PUSH1 0x20 ADD MLOAD PUSH1 0xFF AND DUP2 SLOAD DUP2 LT PUSH2 0x702 JUMPI PUSH2 0x701 PUSH2 0x1A8E JUMP JUMPDEST JUMPDEST SWAP1 PUSH1 0x0 MSTORE PUSH1 0x20 PUSH1 0x0 KECCAK256 SWAP1 PUSH1 0x20 SWAP2 DUP3 DUP3 DIV ADD SWAP2 SWAP1 MOD SWAP1 SLOAD SWAP1 PUSH2 0x100 EXP SWAP1 DIV PUSH1 0xFF AND PUSH1 0xFF AND PUSH1 0x0 SLOAD PUSH2 0x732 SWAP2 SWAP1 PUSH2 0x1ABD JUMP JUMPDEST SWAP1 POP PUSH1 0x0 DUP2 DUP4 PUSH2 0x742 SWAP2 SWAP1 PUSH2 0x1B17 JUMP JUMPDEST SWAP1 POP PUSH1 0x40 MLOAD DUP1 PUSH1 0x40 ADD PUSH1 0x40 MSTORE DUP1 CALLER PUSH20 0xFFFFFFFFFFFFFFFFFFFFFFFFFFFFFFFFFFFFFFFF AND DUP2 MSTORE PUSH1 0x20 ADD DUP3 DUP2 MSTORE POP PUSH1 0xC PUSH1 0x0 CALLER PUSH20 0xFFFFFFFFFFFFFFFFFFFFFFFFFFFFFFFFFFFFFFFF AND PUSH20 0xFFFFFFFFFFFFFFFFFFFFFFFFFFFFFFFFFFFFFFFF AND DUP2 MSTORE PUSH1 0x20 ADD SWAP1 DUP2 MSTORE PUSH1 0x20 ADD PUSH1 0x0 KECCAK256 PUSH1 0x0 DUP3 ADD MLOAD DUP2 PUSH1 0x0 ADD PUSH1 0x0 PUSH2 0x100 EXP DUP2 SLOAD DUP2 PUSH20 0xFFFFFFFFFFFFFFFFFFFFFFFFFFFFFFFFFFFFFFFF MUL NOT AND SWAP1 DUP4 PUSH20 0xFFFFFFFFFFFFFFFFFFFFFFFFFFFFFFFFFFFFFFFF AND MUL OR SWAP1 SSTORE POP PUSH1 0x20 DUP3 ADD MLOAD DUP2 PUSH1 0x1 ADD SSTORE SWAP1 POP POP POP POP POP JUMPDEST POP POP DUP1 DUP1 PUSH2 0x813 SWAP1 PUSH2 0x1B4B JUMP JUMPDEST SWAP2 POP POP PUSH2 0x2C9 JUMP JUMPDEST POP PUSH1 0xE PUSH1 0x0 CALLER PUSH20 0xFFFFFFFFFFFFFFFFFFFFFFFFFFFFFFFFFFFFFFFF AND PUSH20 0xFFFFFFFFFFFFFFFFFFFFFFFFFFFFFFFFFFFFFFFF AND DUP2 MSTORE PUSH1 0x20 ADD SWAP1 DUP2 MSTORE PUSH1 0x20 ADD PUSH1 0x0 KECCAK256 PUSH1 0x0 PUSH2 0x867 SWAP2 SWAP1 PUSH2 0x1612 JUMP JUMPDEST PUSH1 0x0 PUSH1 0x1 DUP2 SWAP1 SSTORE POP PUSH32 0xEC6CDC8E735E4069F6E89062582F3E5532A8E71373E7EF2962FA916CF2AF21F2 DUP2 PUSH1 0x40 MLOAD PUSH2 0x89E SWAP2 SWAP1 PUSH2 0x16B2 JUMP JUMPDEST PUSH1 0x40 MLOAD DUP1 SWAP2 SUB SWAP1 LOG1 DUP1 SWAP2 POP POP SWAP1 JUMP JUMPDEST PUSH1 0x3 PUSH1 0x0 SWAP1 SLOAD SWAP1 PUSH2 0x100 EXP SWAP1 DIV PUSH20 0xFFFFFFFFFFFFFFFFFFFFFFFFFFFFFFFFFFFFFFFF AND PUSH20 0xFFFFFFFFFFFFFFFFFFFFFFFFFFFFFFFFFFFFFFFF AND CALLER PUSH20 0xFFFFFFFFFFFFFFFFFFFFFFFFFFFFFFFFFFFFFFFF AND EQ PUSH2 0x907 JUMPI PUSH1 0x0 DUP1 REVERT JUMPDEST PUSH1 0x7 PUSH1 0x0 SWAP1 SLOAD SWAP1 PUSH2 0x100 EXP SWAP1 DIV PUSH20 0xFFFFFFFFFFFFFFFFFFFFFFFFFFFFFFFFFFFFFFFF AND PUSH20 0xFFFFFFFFFFFFFFFFFFFFFFFFFFFFFFFFFFFFFFFF AND PUSH4 0x23B872DD CALLER ADDRESS DUP5 PUSH1 0x40 MLOAD DUP5 PUSH4 0xFFFFFFFF AND PUSH1 0xE0 SHL DUP2 MSTORE PUSH1 0x4 ADD PUSH2 0x966 SWAP4 SWAP3 SWAP2 SWAP1 PUSH2 0x1B93 JUMP JUMPDEST PUSH1 0x20 PUSH1 0x40 MLOAD DUP1 DUP4 SUB DUP2 PUSH1 0x0 DUP8 GAS CALL ISZERO DUP1 ISZERO PUSH2 0x985 JUMPI RETURNDATASIZE PUSH1 0x0 DUP1 RETURNDATACOPY RETURNDATASIZE PUSH1 0x0 REVERT JUMPDEST POP POP POP POP PUSH1 0x40 MLOAD RETURNDATASIZE PUSH1 0x1F NOT PUSH1 0x1F DUP3 ADD AND DUP3 ADD DUP1 PUSH1 0x40 MSTORE POP DUP2 ADD SWAP1 PUSH2 0x9A9 SWAP2 SWAP1 PUSH2 0x1C02 JUMP JUMPDEST POP POP JUMP JUMPDEST PUSH1 0xD DUP2 DUP2 SLOAD DUP2 LT PUSH2 0x9BD JUMPI PUSH1 0x0 DUP1 REVERT JUMPDEST SWAP1 PUSH1 0x0 MSTORE PUSH1 0x20 PUSH1 0x0 KECCAK256 ADD PUSH1 0x0 SWAP2 POP SWAP1 POP DUP1 PUSH1 0x0 ADD PUSH1 0x0 SWAP1 SLOAD SWAP1 PUSH2 0x100 EXP SWAP1 DIV PUSH20 0xFFFFFFFFFFFFFFFFFFFFFFFFFFFFFFFFFFFFFFFF AND SWAP1 DUP1 PUSH1 0x0 ADD PUSH1 0x14 SWAP1 SLOAD SWAP1 PUSH2 0x100 EXP SWAP1 DIV PUSH1 0xFF AND SWAP1 DUP1 PUSH1 0x0 ADD PUSH1 0x15 SWAP1 SLOAD SWAP1 PUSH2 0x100 EXP SWAP1 DIV PUSH1 0xFF AND SWAP1 POP DUP4 JUMP JUMPDEST PUSH1 0x0 DUP1 PUSH1 0x0 DUP1 PUSH1 0x0 PUSH1 0xE PUSH1 0x0 DUP8 PUSH20 0xFFFFFFFFFFFFFFFFFFFFFFFFFFFFFFFFFFFFFFFF AND PUSH20 0xFFFFFFFFFFFFFFFFFFFFFFFFFFFFFFFFFFFFFFFF AND DUP2 MSTORE PUSH1 0x20 ADD SWAP1 DUP2 MSTORE PUSH1 0x20 ADD PUSH1 0x0 KECCAK256 DUP1 SLOAD SWAP1 POP PUSH1 0x0 SLOAD PUSH1 0xE PUSH1 0x0 DUP10 PUSH20 0xFFFFFFFFFFFFFFFFFFFFFFFFFFFFFFFFFFFFFFFF AND PUSH20 0xFFFFFFFFFFFFFFFFFFFFFFFFFFFFFFFFFFFFFFFF AND DUP2 MSTORE PUSH1 0x20 ADD SWAP1 DUP2 MSTORE PUSH1 0x20 ADD PUSH1 0x0 KECCAK256 DUP1 SLOAD SWAP1 POP PUSH2 0xAB8 SWAP2 SWAP1 PUSH2 0x1ABD JUMP JUMPDEST PUSH1 0x2 SLOAD PUSH1 0x7 PUSH1 0x0 SWAP1 SLOAD SWAP1 PUSH2 0x100 EXP SWAP1 DIV PUSH20 0xFFFFFFFFFFFFFFFFFFFFFFFFFFFFFFFFFFFFFFFF AND PUSH20 0xFFFFFFFFFFFFFFFFFFFFFFFFFFFFFFFFFFFFFFFF AND PUSH4 0x70A08231 ADDRESS PUSH1 0x40 MLOAD DUP3 PUSH4 0xFFFFFFFF AND PUSH1 0xE0 SHL DUP2 MSTORE PUSH1 0x4 ADD PUSH2 0xB16 SWAP2 SWAP1 PUSH2 0x186B JUMP JUMPDEST PUSH1 0x20 PUSH1 0x40 MLOAD DUP1 DUP4 SUB DUP2 DUP7 GAS STATICCALL ISZERO DUP1 ISZERO PUSH2 0xB33 JUMPI RETURNDATASIZE PUSH1 0x0 DUP1 RETURNDATACOPY RETURNDATASIZE PUSH1 0x0 REVERT JUMPDEST POP POP POP POP PUSH1 0x40 MLOAD RETURNDATASIZE PUSH1 0x1F NOT PUSH1 0x1F DUP3 ADD AND DUP3 ADD DUP1 PUSH1 0x40 MSTORE POP DUP2 ADD SWAP1 PUSH2 0xB57 SWAP2 SWAP1 PUSH2 0x1C44 JUMP JUMPDEST PUSH1 0xC PUSH1 0x0 DUP12 PUSH20 0xFFFFFFFFFFFFFFFFFFFFFFFFFFFFFFFFFFFFFFFF AND PUSH20 0xFFFFFFFFFFFFFFFFFFFFFFFFFFFFFFFFFFFFFFFF AND DUP2 MSTORE PUSH1 0x20 ADD SWAP1 DUP2 MSTORE PUSH1 0x20 ADD PUSH1 0x0 KECCAK256 PUSH1 0x1 ADD SLOAD SWAP5 POP SWAP5 POP SWAP5 POP SWAP5 POP SWAP5 POP SWAP2 SWAP4 SWAP6 SWAP1 SWAP3 SWAP5 POP JUMP JUMPDEST PUSH1 0xA PUSH1 0x0 SWAP1 SLOAD SWAP1 PUSH2 0x100 EXP SWAP1 DIV PUSH20 0xFFFFFFFFFFFFFFFFFFFFFFFFFFFFFFFFFFFFFFFF AND DUP2 JUMP JUMPDEST PUSH1 0x0 SLOAD DUP4 EQ PUSH2 0xBE1 JUMPI PUSH1 0x0 DUP1 REVERT JUMPDEST PUSH1 0x0 DUP2 PUSH1 0xFF AND LT ISZERO DUP1 ISZERO PUSH2 0xBF9 JUMPI POP PUSH1 0x5 DUP2 PUSH1 0xFF AND GT ISZERO JUMPDEST PUSH2 0xC02 JUMPI PUSH1 0x0 DUP1 REVERT JUMPDEST PUSH1 0x0 DUP3 PUSH1 0xFF AND LT ISZERO DUP1 ISZERO PUSH2 0xC52 JUMPI POP PUSH1 0x6 DUP2 PUSH1 0xFF AND DUP2 SLOAD DUP2 LT PUSH2 0xC28 JUMPI PUSH2 0xC27 PUSH2 0x1A8E JUMP JUMPDEST JUMPDEST SWAP1 PUSH1 0x0 MSTORE PUSH1 0x20 PUSH1 0x0 KECCAK256 SWAP1 PUSH1 0x20 SWAP2 DUP3 DUP3 DIV ADD SWAP2 SWAP1 MOD SWAP1 SLOAD SWAP1 PUSH2 0x100 EXP SWAP1 DIV PUSH1 0xFF AND PUSH1 0xFF AND DUP3 PUSH1 0xFF AND GT ISZERO JUMPDEST PUSH2 0xC5B JUMPI PUSH1 0x0 DUP1 REVERT JUMPDEST PUSH1 0x0 PUSH1 0x9 SLOAD PUSH1 0x64 DUP6 PUSH2 0xC6D SWAP2 SWAP1 PUSH2 0x1C71 JUMP JUMPDEST PUSH2 0xC77 SWAP2 SWAP1 PUSH2 0x1ABD JUMP JUMPDEST SWAP1 POP PUSH1 0x0 DUP2 SWAP1 POP PUSH1 0x0 DUP2 DUP7 PUSH2 0xC8C SWAP2 SWAP1 PUSH2 0x1971 JUMP JUMPDEST SWAP1 POP PUSH1 0x7 PUSH1 0x0 SWAP1 SLOAD SWAP1 PUSH2 0x100 EXP SWAP1 DIV PUSH20 0xFFFFFFFFFFFFFFFFFFFFFFFFFFFFFFFFFFFFFFFF AND PUSH20 0xFFFFFFFFFFFFFFFFFFFFFFFFFFFFFFFFFFFFFFFF AND PUSH4 0x23B872DD CALLER DUP10 DUP7 PUSH1 0x40 MLOAD DUP5 PUSH4 0xFFFFFFFF AND PUSH1 0xE0 SHL DUP2 MSTORE PUSH1 0x4 ADD PUSH2 0xCED SWAP4 SWAP3 SWAP2 SWAP1 PUSH2 0x1B93 JUMP JUMPDEST PUSH1 0x20 PUSH1 0x40 MLOAD DUP1 DUP4 SUB DUP2 PUSH1 0x0 DUP8 GAS CALL ISZERO DUP1 ISZERO PUSH2 0xD0C JUMPI RETURNDATASIZE PUSH1 0x0 DUP1 RETURNDATACOPY RETURNDATASIZE PUSH1 0x0 REVERT JUMPDEST POP POP POP POP PUSH1 0x40 MLOAD RETURNDATASIZE PUSH1 0x1F NOT PUSH1 0x1F DUP3 ADD AND DUP3 ADD DUP1 PUSH1 0x40 MSTORE POP DUP2 ADD SWAP1 PUSH2 0xD30 SWAP2 SWAP1 PUSH2 0x1C02 JUMP JUMPDEST POP PUSH1 0x7 PUSH1 0x0 SWAP1 SLOAD SWAP1 PUSH2 0x100 EXP SWAP1 DIV PUSH20 0xFFFFFFFFFFFFFFFFFFFFFFFFFFFFFFFFFFFFFFFF AND PUSH20 0xFFFFFFFFFFFFFFFFFFFFFFFFFFFFFFFFFFFFFFFF AND PUSH4 0x23B872DD CALLER ADDRESS DUP5 PUSH1 0x40 MLOAD DUP5 PUSH4 0xFFFFFFFF AND PUSH1 0xE0 SHL DUP2 MSTORE PUSH1 0x4 ADD PUSH2 0xD90 SWAP4 SWAP3 SWAP2 SWAP1 PUSH2 0x1B93 JUMP JUMPDEST PUSH1 0x20 PUSH1 0x40 MLOAD DUP1 DUP4 SUB DUP2 PUSH1 0x0 DUP8 GAS CALL ISZERO DUP1 ISZERO PUSH2 0xDAF JUMPI RETURNDATASIZE PUSH1 0x0 DUP1 RETURNDATACOPY RETURNDATASIZE PUSH1 0x0 REVERT JUMPDEST POP POP POP POP PUSH1 0x40 MLOAD RETURNDATASIZE PUSH1 0x1F NOT PUSH1 0x1F DUP3 ADD AND DUP3 ADD DUP1 PUSH1 0x40 MSTORE POP DUP2 ADD SWAP1 PUSH2 0xDD3 SWAP2 SWAP1 PUSH2 0x1C02 JUMP JUMPDEST POP PUSH1 0x0 DUP7 PUSH1 0x5 DUP7 PUSH1 0xFF AND DUP2 SLOAD DUP2 LT PUSH2 0xDEE JUMPI PUSH2 0xDED PUSH2 0x1A8E JUMP JUMPDEST JUMPDEST SWAP1 PUSH1 0x0 MSTORE PUSH1 0x20 PUSH1 0x0 KECCAK256 SWAP1 PUSH1 0x20 SWAP2 DUP3 DUP3 DIV ADD SWAP2 SWAP1 MOD SWAP1 SLOAD SWAP1 PUSH2 0x100 EXP SWAP1 DIV PUSH1 0xFF AND PUSH1 0xFF AND PUSH2 0xE1B SWAP2 SWAP1 PUSH2 0x1ABD JUMP JUMPDEST SWAP1 POP PUSH1 0x0 DUP2 PUSH1 0x1 SLOAD PUSH2 0xE2D SWAP2 SWAP1 PUSH2 0x1B17 JUMP JUMPDEST SWAP1 POP PUSH1 0x7 PUSH1 0x0 SWAP1 SLOAD SWAP1 PUSH2 0x100 EXP SWAP1 DIV PUSH20 0xFFFFFFFFFFFFFFFFFFFFFFFFFFFFFFFFFFFFFFFF AND PUSH20 0xFFFFFFFFFFFFFFFFFFFFFFFFFFFFFFFFFFFFFFFF AND PUSH4 0x70A08231 ADDRESS PUSH1 0x40 MLOAD DUP3 PUSH4 0xFFFFFFFF AND PUSH1 0xE0 SHL DUP2 MSTORE PUSH1 0x4 ADD PUSH2 0xE8A SWAP2 SWAP1 PUSH2 0x186B JUMP JUMPDEST PUSH1 0x20 PUSH1 0x40 MLOAD DUP1 DUP4 SUB DUP2 DUP7 GAS STATICCALL ISZERO DUP1 ISZERO PUSH2 0xEA7 JUMPI RETURNDATASIZE PUSH1 0x0 DUP1 RETURNDATACOPY RETURNDATASIZE PUSH1 0x0 REVERT JUMPDEST POP POP POP POP PUSH1 0x40 MLOAD RETURNDATASIZE PUSH1 0x1F NOT PUSH1 0x1F DUP3 ADD AND DUP3 ADD DUP1 PUSH1 0x40 MSTORE POP DUP2 ADD SWAP1 PUSH2 0xECB SWAP2 SWAP1 PUSH2 0x1C44 JUMP JUMPDEST DUP2 LT PUSH2 0xED6 JUMPI PUSH1 0x0 DUP1 REVERT JUMPDEST DUP2 PUSH1 0x1 PUSH1 0x0 DUP3 DUP3 SLOAD PUSH2 0xEE8 SWAP2 SWAP1 PUSH2 0x1B17 JUMP JUMPDEST SWAP3 POP POP DUP2 SWAP1 SSTORE POP PUSH1 0xE PUSH1 0x0 CALLER PUSH20 0xFFFFFFFFFFFFFFFFFFFFFFFFFFFFFFFFFFFFFFFF AND PUSH20 0xFFFFFFFFFFFFFFFFFFFFFFFFFFFFFFFFFFFFFFFF AND DUP2 MSTORE PUSH1 0x20 ADD SWAP1 DUP2 MSTORE PUSH1 0x20 ADD PUSH1 0x0 KECCAK256 PUSH1 0x40 MLOAD DUP1 PUSH1 0x60 ADD PUSH1 0x40 MSTORE DUP1 CALLER PUSH20 0xFFFFFFFFFFFFFFFFFFFFFFFFFFFFFFFFFFFFFFFF AND DUP2 MSTORE PUSH1 0x20 ADD DUP9 PUSH1 0xFF AND DUP2 MSTORE PUSH1 0x20 ADD DUP10 PUSH1 0xFF AND DUP2 MSTORE POP SWAP1 DUP1 PUSH1 0x1 DUP2 SLOAD ADD DUP1 DUP3 SSTORE DUP1 SWAP2 POP POP PUSH1 0x1 SWAP1 SUB SWAP1 PUSH1 0x0 MSTORE PUSH1 0x20 PUSH1 0x0 KECCAK256 ADD PUSH1 0x0 SWAP1 SWAP2 SWAP1 SWAP2 SWAP1 SWAP2 POP PUSH1 0x0 DUP3 ADD MLOAD DUP2 PUSH1 0x0 ADD PUSH1 0x0 PUSH2 0x100 EXP DUP2 SLOAD DUP2 PUSH20 0xFFFFFFFFFFFFFFFFFFFFFFFFFFFFFFFFFFFFFFFF MUL NOT AND SWAP1 DUP4 PUSH20 0xFFFFFFFFFFFFFFFFFFFFFFFFFFFFFFFFFFFFFFFF AND MUL OR SWAP1 SSTORE POP PUSH1 0x20 DUP3 ADD MLOAD DUP2 PUSH1 0x0 ADD PUSH1 0x14 PUSH2 0x100 EXP DUP2 SLOAD DUP2 PUSH1 0xFF MUL NOT AND SWAP1 DUP4 PUSH1 0xFF AND MUL OR SWAP1 SSTORE POP PUSH1 0x40 DUP3 ADD MLOAD DUP2 PUSH1 0x0 ADD PUSH1 0x15 PUSH2 0x100 EXP DUP2 SLOAD DUP2 PUSH1 0xFF MUL NOT AND SWAP1 DUP4 PUSH1 0xFF AND MUL OR SWAP1 SSTORE POP POP POP POP POP POP POP POP POP POP POP POP JUMP JUMPDEST PUSH1 0x9 SLOAD DUP2 JUMP JUMPDEST PUSH1 0x0 CALLER SWAP1 POP PUSH1 0x0 PUSH1 0xC PUSH1 0x0 DUP4 PUSH20 0xFFFFFFFFFFFFFFFFFFFFFFFFFFFFFFFFFFFFFFFF AND PUSH20 0xFFFFFFFFFFFFFFFFFFFFFFFFFFFFFFFFFFFFFFFF AND DUP2 MSTORE PUSH1 0x20 ADD SWAP1 DUP2 MSTORE PUSH1 0x20 ADD PUSH1 0x0 KECCAK256 PUSH1 0x1 ADD SLOAD SWAP1 POP PUSH1 0x0 DUP2 GT PUSH2 0x107F JUMPI PUSH1 0x0 DUP1 REVERT JUMPDEST PUSH1 0x7 PUSH1 0x0 SWAP1 SLOAD SWAP1 PUSH2 0x100 EXP SWAP1 DIV PUSH20 0xFFFFFFFFFFFFFFFFFFFFFFFFFFFFFFFFFFFFFFFF AND PUSH20 0xFFFFFFFFFFFFFFFFFFFFFFFFFFFFFFFFFFFFFFFF AND PUSH4 0x70A08231 ADDRESS PUSH1 0x40 MLOAD DUP3 PUSH4 0xFFFFFFFF AND PUSH1 0xE0 SHL DUP2 MSTORE PUSH1 0x4 ADD PUSH2 0x10DA SWAP2 SWAP1 PUSH2 0x186B JUMP JUMPDEST PUSH1 0x20 PUSH1 0x40 MLOAD DUP1 DUP4 SUB DUP2 DUP7 GAS STATICCALL ISZERO DUP1 ISZERO PUSH2 0x10F7 JUMPI RETURNDATASIZE PUSH1 0x0 DUP1 RETURNDATACOPY RETURNDATASIZE PUSH1 0x0 REVERT JUMPDEST POP POP POP POP PUSH1 0x40 MLOAD RETURNDATASIZE PUSH1 0x1F NOT PUSH1 0x1F DUP3 ADD AND DUP3 ADD DUP1 PUSH1 0x40 MSTORE POP DUP2 ADD SWAP1 PUSH2 0x111B SWAP2 SWAP1 PUSH2 0x1C44 JUMP JUMPDEST DUP2 GT ISZERO PUSH2 0x1127 JUMPI PUSH1 0x0 DUP1 REVERT JUMPDEST PUSH1 0x40 MLOAD DUP1 PUSH1 0x40 ADD PUSH1 0x40 MSTORE DUP1 CALLER PUSH20 0xFFFFFFFFFFFFFFFFFFFFFFFFFFFFFFFFFFFFFFFF AND DUP2 MSTORE PUSH1 0x20 ADD PUSH1 0x0 DUP2 MSTORE POP PUSH1 0xC PUSH1 0x0 CALLER PUSH20 0xFFFFFFFFFFFFFFFFFFFFFFFFFFFFFFFFFFFFFFFF AND PUSH20 0xFFFFFFFFFFFFFFFFFFFFFFFFFFFFFFFFFFFFFFFF AND DUP2 MSTORE PUSH1 0x20 ADD SWAP1 DUP2 MSTORE PUSH1 0x20 ADD PUSH1 0x0 KECCAK256 PUSH1 0x0 DUP3 ADD MLOAD DUP2 PUSH1 0x0 ADD PUSH1 0x0 PUSH2 0x100 EXP DUP2 SLOAD DUP2 PUSH20 0xFFFFFFFFFFFFFFFFFFFFFFFFFFFFFFFFFFFFFFFF MUL NOT AND SWAP1 DUP4 PUSH20 0xFFFFFFFFFFFFFFFFFFFFFFFFFFFFFFFFFFFFFFFF AND MUL OR SWAP1 SSTORE POP PUSH1 0x20 DUP3 ADD MLOAD DUP2 PUSH1 0x1 ADD SSTORE SWAP1 POP POP PUSH1 0x0 PUSH1 0x1E PUSH1 0x64 DUP4 PUSH2 0x11F7 SWAP2 SWAP1 PUSH2 0x1C71 JUMP JUMPDEST PUSH2 0x1201 SWAP2 SWAP1 PUSH2 0x1ABD JUMP JUMPDEST SWAP1 POP DUP1 DUP3 PUSH2 0x120F SWAP2 SWAP1 PUSH2 0x1971 JUMP JUMPDEST SWAP2 POP PUSH1 0x7 PUSH1 0x0 SWAP1 SLOAD SWAP1 PUSH2 0x100 EXP SWAP1 DIV PUSH20 0xFFFFFFFFFFFFFFFFFFFFFFFFFFFFFFFFFFFFFFFF AND PUSH20 0xFFFFFFFFFFFFFFFFFFFFFFFFFFFFFFFFFFFFFFFF AND PUSH4 0xA9059CBB DUP5 DUP5 PUSH1 0x40 MLOAD DUP4 PUSH4 0xFFFFFFFF AND PUSH1 0xE0 SHL DUP2 MSTORE PUSH1 0x4 ADD PUSH2 0x126E SWAP3 SWAP2 SWAP1 PUSH2 0x1919 JUMP JUMPDEST PUSH1 0x20 PUSH1 0x40 MLOAD DUP1 DUP4 SUB DUP2 PUSH1 0x0 DUP8 GAS CALL ISZERO DUP1 ISZERO PUSH2 0x128D JUMPI RETURNDATASIZE PUSH1 0x0 DUP1 RETURNDATACOPY RETURNDATASIZE PUSH1 0x0 REVERT JUMPDEST POP POP POP POP PUSH1 0x40 MLOAD RETURNDATASIZE PUSH1 0x1F NOT PUSH1 0x1F DUP3 ADD AND DUP3 ADD DUP1 PUSH1 0x40 MSTORE POP DUP2 ADD SWAP1 PUSH2 0x12B1 SWAP2 SWAP1 PUSH2 0x1C02 JUMP JUMPDEST POP PUSH1 0x7 PUSH1 0x0 SWAP1 SLOAD SWAP1 PUSH2 0x100 EXP SWAP1 DIV PUSH20 0xFFFFFFFFFFFFFFFFFFFFFFFFFFFFFFFFFFFFFFFF AND PUSH20 0xFFFFFFFFFFFFFFFFFFFFFFFFFFFFFFFFFFFFFFFF AND PUSH4 0xA9059CBB PUSH1 0xA PUSH1 0x0 SWAP1 SLOAD SWAP1 PUSH2 0x100 EXP SWAP1 DIV PUSH20 0xFFFFFFFFFFFFFFFFFFFFFFFFFFFFFFFFFFFFFFFF AND DUP4 PUSH1 0x40 MLOAD DUP4 PUSH4 0xFFFFFFFF AND PUSH1 0xE0 SHL DUP2 MSTORE PUSH1 0x4 ADD PUSH2 0x1331 SWAP3 SWAP2 SWAP1 PUSH2 0x1919 JUMP JUMPDEST PUSH1 0x20 PUSH1 0x40 MLOAD DUP1 DUP4 SUB DUP2 PUSH1 0x0 DUP8 GAS CALL ISZERO DUP1 ISZERO PUSH2 0x1350 JUMPI RETURNDATASIZE PUSH1 0x0 DUP1 RETURNDATACOPY RETURNDATASIZE PUSH1 0x0 REVERT JUMPDEST POP POP POP POP PUSH1 0x40 MLOAD RETURNDATASIZE PUSH1 0x1F NOT PUSH1 0x1F DUP3 ADD AND DUP3 ADD DUP1 PUSH1 0x40 MSTORE POP DUP2 ADD SWAP1 PUSH2 0x1374 SWAP2 SWAP1 PUSH2 0x1C02 JUMP JUMPDEST POP PUSH2 0x137D PUSH2 0x148F JUMP JUMPDEST POP POP POP JUMP JUMPDEST PUSH1 0x8 PUSH1 0x0 SWAP1 SLOAD SWAP1 PUSH2 0x100 EXP SWAP1 DIV PUSH20 0xFFFFFFFFFFFFFFFFFFFFFFFFFFFFFFFFFFFFFFFF AND DUP2 JUMP JUMPDEST PUSH1 0x0 PUSH1 0x7 PUSH1 0x0 SWAP1 SLOAD SWAP1 PUSH2 0x100 EXP SWAP1 DIV PUSH20 0xFFFFFFFFFFFFFFFFFFFFFFFFFFFFFFFFFFFFFFFF AND PUSH20 0xFFFFFFFFFFFFFFFFFFFFFFFFFFFFFFFFFFFFFFFF AND PUSH4 0x70A08231 ADDRESS PUSH1 0x40 MLOAD DUP3 PUSH4 0xFFFFFFFF AND PUSH1 0xE0 SHL DUP2 MSTORE PUSH1 0x4 ADD PUSH2 0x1405 SWAP2 SWAP1 PUSH2 0x186B JUMP JUMPDEST PUSH1 0x20 PUSH1 0x40 MLOAD DUP1 DUP4 SUB DUP2 DUP7 GAS STATICCALL ISZERO DUP1 ISZERO PUSH2 0x1422 JUMPI RETURNDATASIZE PUSH1 0x0 DUP1 RETURNDATACOPY RETURNDATASIZE PUSH1 0x0 REVERT JUMPDEST POP POP POP POP PUSH1 0x40 MLOAD RETURNDATASIZE PUSH1 0x1F NOT PUSH1 0x1F DUP3 ADD AND DUP3 ADD DUP1 PUSH1 0x40 MSTORE POP DUP2 ADD SWAP1 PUSH2 0x1446 SWAP2 SWAP1 PUSH2 0x1C44 JUMP JUMPDEST SWAP1 POP SWAP1 JUMP JUMPDEST PUSH1 0xC PUSH1 0x20 MSTORE DUP1 PUSH1 0x0 MSTORE PUSH1 0x40 PUSH1 0x0 KECCAK256 PUSH1 0x0 SWAP2 POP SWAP1 POP DUP1 PUSH1 0x0 ADD PUSH1 0x0 SWAP1 SLOAD SWAP1 PUSH2 0x100 EXP SWAP1 DIV PUSH20 0xFFFFFFFFFFFFFFFFFFFFFFFFFFFFFFFFFFFFFFFF AND SWAP1 DUP1 PUSH1 0x1 ADD SLOAD SWAP1 POP DUP3 JUMP JUMPDEST PUSH1 0x0 PUSH1 0x7 PUSH1 0x0 SWAP1 SLOAD SWAP1 PUSH2 0x100 EXP SWAP1 DIV PUSH20 0xFFFFFFFFFFFFFFFFFFFFFFFFFFFFFFFFFFFFFFFF AND PUSH20 0xFFFFFFFFFFFFFFFFFFFFFFFFFFFFFFFFFFFFFFFF AND PUSH4 0x70A08231 ADDRESS PUSH1 0x40 MLOAD DUP3 PUSH4 0xFFFFFFFF AND PUSH1 0xE0 SHL DUP2 MSTORE PUSH1 0x4 ADD PUSH2 0x14EC SWAP2 SWAP1 PUSH2 0x186B JUMP JUMPDEST PUSH1 0x20 PUSH1 0x40 MLOAD DUP1 DUP4 SUB DUP2 DUP7 GAS STATICCALL ISZERO DUP1 ISZERO PUSH2 0x1509 JUMPI RETURNDATASIZE PUSH1 0x0 DUP1 RETURNDATACOPY RETURNDATASIZE PUSH1 0x0 REVERT JUMPDEST POP POP POP POP PUSH1 0x40 MLOAD RETURNDATASIZE PUSH1 0x1F NOT PUSH1 0x1F DUP3 ADD AND DUP3 ADD DUP1 PUSH1 0x40 MSTORE POP DUP2 ADD SWAP1 PUSH2 0x152D SWAP2 SWAP1 PUSH2 0x1C44 JUMP JUMPDEST SWAP1 POP PUSH1 0xB SLOAD DUP2 LT PUSH2 0x160F JUMPI PUSH1 0x0 PUSH1 0xB SLOAD DUP3 PUSH2 0x1548 SWAP2 SWAP1 PUSH2 0x1971 JUMP JUMPDEST SWAP1 POP PUSH1 0x7 PUSH1 0x0 SWAP1 SLOAD SWAP1 PUSH2 0x100 EXP SWAP1 DIV PUSH20 0xFFFFFFFFFFFFFFFFFFFFFFFFFFFFFFFFFFFFFFFF AND PUSH20 0xFFFFFFFFFFFFFFFFFFFFFFFFFFFFFFFFFFFFFFFF AND PUSH4 0xA9059CBB PUSH1 0xA PUSH1 0x0 SWAP1 SLOAD SWAP1 PUSH2 0x100 EXP SWAP1 DIV PUSH20 0xFFFFFFFFFFFFFFFFFFFFFFFFFFFFFFFFFFFFFFFF AND DUP4 PUSH1 0x40 MLOAD DUP4 PUSH4 0xFFFFFFFF AND PUSH1 0xE0 SHL DUP2 MSTORE PUSH1 0x4 ADD PUSH2 0x15C9 SWAP3 SWAP2 SWAP1 PUSH2 0x1919 JUMP JUMPDEST PUSH1 0x20 PUSH1 0x40 MLOAD DUP1 DUP4 SUB DUP2 PUSH1 0x0 DUP8 GAS CALL ISZERO DUP1 ISZERO PUSH2 0x15E8 JUMPI RETURNDATASIZE PUSH1 0x0 DUP1 RETURNDATACOPY RETURNDATASIZE PUSH1 0x0 REVERT JUMPDEST POP POP POP POP PUSH1 0x40 MLOAD RETURNDATASIZE PUSH1 0x1F NOT PUSH1 0x1F DUP3 ADD AND DUP3 ADD DUP1 PUSH1 0x40 MSTORE POP DUP2 ADD SWAP1 PUSH2 0x160C SWAP2 SWAP1 PUSH2 0x1C02 JUMP JUMPDEST POP POP JUMPDEST POP JUMP JUMPDEST POP DUP1 SLOAD PUSH1 0x0 DUP3 SSTORE SWAP1 PUSH1 0x0 MSTORE PUSH1 0x20 PUSH1 0x0 KECCAK256 SWAP1 DUP2 ADD SWAP1 PUSH2 0x1630 SWAP2 SWAP1 PUSH2 0x1633 JUMP JUMPDEST POP JUMP JUMPDEST JUMPDEST DUP1 DUP3 GT ISZERO PUSH2 0x1695 JUMPI PUSH1 0x0 DUP1 DUP3 ADD PUSH1 0x0 PUSH2 0x100 EXP DUP2 SLOAD SWAP1 PUSH20 0xFFFFFFFFFFFFFFFFFFFFFFFFFFFFFFFFFFFFFFFF MUL NOT AND SWAP1 SSTORE PUSH1 0x0 DUP3 ADD PUSH1 0x14 PUSH2 0x100 EXP DUP2 SLOAD SWAP1 PUSH1 0xFF MUL NOT AND SWAP1 SSTORE PUSH1 0x0 DUP3 ADD PUSH1 0x15 PUSH2 0x100 EXP DUP2 SLOAD SWAP1 PUSH1 0xFF MUL NOT AND SWAP1 SSTORE POP PUSH1 0x1 ADD PUSH2 0x1634 JUMP JUMPDEST POP SWAP1 JUMP JUMPDEST PUSH1 0x0 DUP2 SWAP1 POP SWAP2 SWAP1 POP JUMP JUMPDEST PUSH2 0x16AC DUP2 PUSH2 0x1699 JUMP JUMPDEST DUP3 MSTORE POP POP JUMP JUMPDEST PUSH1 0x0 PUSH1 0x20 DUP3 ADD SWAP1 POP PUSH2 0x16C7 PUSH1 0x0 DUP4 ADD DUP5 PUSH2 0x16A3 JUMP JUMPDEST SWAP3 SWAP2 POP POP JUMP JUMPDEST PUSH1 0x0 DUP1 REVERT JUMPDEST PUSH2 0x16DB DUP2 PUSH2 0x1699 JUMP JUMPDEST DUP2 EQ PUSH2 0x16E6 JUMPI PUSH1 0x0 DUP1 REVERT JUMPDEST POP JUMP JUMPDEST PUSH1 0x0 DUP2 CALLDATALOAD SWAP1 POP PUSH2 0x16F8 DUP2 PUSH2 0x16D2 JUMP JUMPDEST SWAP3 SWAP2 POP POP JUMP JUMPDEST PUSH1 0x0 PUSH1 0x20 DUP3 DUP5 SUB SLT ISZERO PUSH2 0x1714 JUMPI PUSH2 0x1713 PUSH2 0x16CD JUMP JUMPDEST JUMPDEST PUSH1 0x0 PUSH2 0x1722 DUP5 DUP3 DUP6 ADD PUSH2 0x16E9 JUMP JUMPDEST SWAP2 POP POP SWAP3 SWAP2 POP POP JUMP JUMPDEST PUSH1 0x0 PUSH20 0xFFFFFFFFFFFFFFFFFFFFFFFFFFFFFFFFFFFFFFFF DUP3 AND SWAP1 POP SWAP2 SWAP1 POP JUMP JUMPDEST PUSH1 0x0 PUSH2 0x1756 DUP3 PUSH2 0x172B JUMP JUMPDEST SWAP1 POP SWAP2 SWAP1 POP JUMP JUMPDEST PUSH2 0x1766 DUP2 PUSH2 0x174B JUMP JUMPDEST DUP3 MSTORE POP POP JUMP JUMPDEST PUSH1 0x0 PUSH1 0xFF DUP3 AND SWAP1 POP SWAP2 SWAP1 POP JUMP JUMPDEST PUSH2 0x1782 DUP2 PUSH2 0x176C JUMP JUMPDEST DUP3 MSTORE POP POP JUMP JUMPDEST PUSH1 0x0 PUSH1 0x60 DUP3 ADD SWAP1 POP PUSH2 0x179D PUSH1 0x0 DUP4 ADD DUP7 PUSH2 0x175D JUMP JUMPDEST PUSH2 0x17AA PUSH1 0x20 DUP4 ADD DUP6 PUSH2 0x1779 JUMP JUMPDEST PUSH2 0x17B7 PUSH1 0x40 DUP4 ADD DUP5 PUSH2 0x1779 JUMP JUMPDEST SWAP5 SWAP4 POP POP POP POP JUMP JUMPDEST PUSH2 0x17C8 DUP2 PUSH2 0x174B JUMP JUMPDEST DUP2 EQ PUSH2 0x17D3 JUMPI PUSH1 0x0 DUP1 REVERT JUMPDEST POP JUMP JUMPDEST PUSH1 0x0 DUP2 CALLDATALOAD SWAP1 POP PUSH2 0x17E5 DUP2 PUSH2 0x17BF JUMP JUMPDEST SWAP3 SWAP2 POP POP JUMP JUMPDEST PUSH1 0x0 PUSH1 0x20 DUP3 DUP5 SUB SLT ISZERO PUSH2 0x1801 JUMPI PUSH2 0x1800 PUSH2 0x16CD JUMP JUMPDEST JUMPDEST PUSH1 0x0 PUSH2 0x180F DUP5 DUP3 DUP6 ADD PUSH2 0x17D6 JUMP JUMPDEST SWAP2 POP POP SWAP3 SWAP2 POP POP JUMP JUMPDEST PUSH1 0x0 PUSH1 0xA0 DUP3 ADD SWAP1 POP PUSH2 0x182D PUSH1 0x0 DUP4 ADD DUP9 PUSH2 0x16A3 JUMP JUMPDEST PUSH2 0x183A PUSH1 0x20 DUP4 ADD DUP8 PUSH2 0x16A3 JUMP JUMPDEST PUSH2 0x1847 PUSH1 0x40 DUP4 ADD DUP7 PUSH2 0x16A3 JUMP JUMPDEST PUSH2 0x1854 PUSH1 0x60 DUP4 ADD DUP6 PUSH2 0x16A3 JUMP JUMPDEST PUSH2 0x1861 PUSH1 0x80 DUP4 ADD DUP5 PUSH2 0x16A3 JUMP JUMPDEST SWAP7 SWAP6 POP POP POP POP POP POP JUMP JUMPDEST PUSH1 0x0 PUSH1 0x20 DUP3 ADD SWAP1 POP PUSH2 0x1880 PUSH1 0x0 DUP4 ADD DUP5 PUSH2 0x175D JUMP JUMPDEST SWAP3 SWAP2 POP POP JUMP JUMPDEST PUSH2 0x188F DUP2 PUSH2 0x176C JUMP JUMPDEST DUP2 EQ PUSH2 0x189A JUMPI PUSH1 0x0 DUP1 REVERT JUMPDEST POP JUMP JUMPDEST PUSH1 0x0 DUP2 CALLDATALOAD SWAP1 POP PUSH2 0x18AC DUP2 PUSH2 0x1886 JUMP JUMPDEST SWAP3 SWAP2 POP POP JUMP JUMPDEST PUSH1 0x0 DUP1 PUSH1 0x0 DUP1 PUSH1 0x80 DUP6 DUP8 SUB SLT ISZERO PUSH2 0x18CC JUMPI PUSH2 0x18CB PUSH2 0x16CD JUMP JUMPDEST JUMPDEST PUSH1 0x0 PUSH2 0x18DA DUP8 DUP3 DUP9 ADD PUSH2 0x17D6 JUMP JUMPDEST SWAP5 POP POP PUSH1 0x20 PUSH2 0x18EB DUP8 DUP3 DUP9 ADD PUSH2 0x16E9 JUMP JUMPDEST SWAP4 POP POP PUSH1 0x40 PUSH2 0x18FC DUP8 DUP3 DUP9 ADD PUSH2 0x189D JUMP JUMPDEST SWAP3 POP POP PUSH1 0x60 PUSH2 0x190D DUP8 DUP3 DUP9 ADD PUSH2 0x189D JUMP JUMPDEST SWAP2 POP POP SWAP3 SWAP6 SWAP2 SWAP5 POP SWAP3 POP JUMP JUMPDEST PUSH1 0x0 PUSH1 0x40 DUP3 ADD SWAP1 POP PUSH2 0x192E PUSH1 0x0 DUP4 ADD DUP6 PUSH2 0x175D JUMP JUMPDEST PUSH2 0x193B PUSH1 0x20 DUP4 ADD DUP5 PUSH2 0x16A3 JUMP JUMPDEST SWAP4 SWAP3 POP POP POP JUMP JUMPDEST PUSH32 0x4E487B7100000000000000000000000000000000000000000000000000000000 PUSH1 0x0 MSTORE PUSH1 0x11 PUSH1 0x4 MSTORE PUSH1 0x24 PUSH1 0x0 REVERT JUMPDEST PUSH1 0x0 PUSH2 0x197C DUP3 PUSH2 0x1699 JUMP JUMPDEST SWAP2 POP PUSH2 0x1987 DUP4 PUSH2 0x1699 JUMP JUMPDEST SWAP3 POP DUP3 DUP3 SUB SWAP1 POP DUP2 DUP2 GT ISZERO PUSH2 0x199F JUMPI PUSH2 0x199E PUSH2 0x1942 JUMP JUMPDEST JUMPDEST SWAP3 SWAP2 POP POP JUMP JUMPDEST PUSH1 0x0 DUP2 SWAP1 POP SWAP2 SWAP1 POP JUMP JUMPDEST PUSH2 0x19C0 PUSH2 0x19BB DUP3 PUSH2 0x1699 JUMP JUMPDEST PUSH2 0x19A5 JUMP JUMPDEST DUP3 MSTORE POP POP JUMP JUMPDEST PUSH1 0x0 DUP2 SWAP1 POP SWAP2 SWAP1 POP JUMP JUMPDEST PUSH1 0x0 DUP2 SWAP1 POP SWAP2 SWAP1 POP JUMP JUMPDEST PUSH2 0x19EB PUSH2 0x19E6 DUP3 PUSH2 0x19C6 JUMP JUMPDEST PUSH2 0x19D0 JUMP JUMPDEST DUP3 MSTORE POP POP JUMP JUMPDEST PUSH1 0x0 PUSH2 0x19FD DUP3 DUP7 PUSH2 0x19AF JUMP JUMPDEST PUSH1 0x20 DUP3 ADD SWAP2 POP PUSH2 0x1A0D DUP3 DUP6 PUSH2 0x19AF JUMP JUMPDEST PUSH1 0x20 DUP3 ADD SWAP2 POP PUSH2 0x1A1D DUP3 DUP5 PUSH2 0x19DA JUMP JUMPDEST PUSH1 0x20 DUP3 ADD SWAP2 POP DUP2 SWAP1 POP SWAP5 SWAP4 POP POP POP POP JUMP JUMPDEST PUSH32 0x4E487B7100000000000000000000000000000000000000000000000000000000 PUSH1 0x0 MSTORE PUSH1 0x12 PUSH1 0x4 MSTORE PUSH1 0x24 PUSH1 0x0 REVERT JUMPDEST PUSH1 0x0 PUSH2 0x1A68 DUP3 PUSH2 0x1699 JUMP JUMPDEST SWAP2 POP PUSH2 0x1A73 DUP4 PUSH2 0x1699 JUMP JUMPDEST SWAP3 POP DUP3 PUSH2 0x1A83 JUMPI PUSH2 0x1A82 PUSH2 0x1A2E JUMP JUMPDEST JUMPDEST DUP3 DUP3 MOD SWAP1 POP SWAP3 SWAP2 POP POP JUMP JUMPDEST PUSH32 0x4E487B7100000000000000000000000000000000000000000000000000000000 PUSH1 0x0 MSTORE PUSH1 0x32 PUSH1 0x4 MSTORE PUSH1 0x24 PUSH1 0x0 REVERT JUMPDEST PUSH1 0x0 PUSH2 0x1AC8 DUP3 PUSH2 0x1699 JUMP JUMPDEST SWAP2 POP PUSH2 0x1AD3 DUP4 PUSH2 0x1699 JUMP JUMPDEST SWAP3 POP DUP2 PUSH32 0xFFFFFFFFFFFFFFFFFFFFFFFFFFFFFFFFFFFFFFFFFFFFFFFFFFFFFFFFFFFFFFFF DIV DUP4 GT DUP3 ISZERO ISZERO AND ISZERO PUSH2 0x1B0C JUMPI PUSH2 0x1B0B PUSH2 0x1942 JUMP JUMPDEST JUMPDEST DUP3 DUP3 MUL SWAP1 POP SWAP3 SWAP2 POP POP JUMP JUMPDEST PUSH1 0x0 PUSH2 0x1B22 DUP3 PUSH2 0x1699 JUMP JUMPDEST SWAP2 POP PUSH2 0x1B2D DUP4 PUSH2 0x1699 JUMP JUMPDEST SWAP3 POP DUP3 DUP3 ADD SWAP1 POP DUP1 DUP3 GT ISZERO PUSH2 0x1B45 JUMPI PUSH2 0x1B44 PUSH2 0x1942 JUMP JUMPDEST JUMPDEST SWAP3 SWAP2 POP POP JUMP JUMPDEST PUSH1 0x0 PUSH2 0x1B56 DUP3 PUSH2 0x1699 JUMP JUMPDEST SWAP2 POP PUSH32 0xFFFFFFFFFFFFFFFFFFFFFFFFFFFFFFFFFFFFFFFFFFFFFFFFFFFFFFFFFFFFFFFF DUP3 SUB PUSH2 0x1B88 JUMPI PUSH2 0x1B87 PUSH2 0x1942 JUMP JUMPDEST JUMPDEST PUSH1 0x1 DUP3 ADD SWAP1 POP SWAP2 SWAP1 POP JUMP JUMPDEST PUSH1 0x0 PUSH1 0x60 DUP3 ADD SWAP1 POP PUSH2 0x1BA8 PUSH1 0x0 DUP4 ADD DUP7 PUSH2 0x175D JUMP JUMPDEST PUSH2 0x1BB5 PUSH1 0x20 DUP4 ADD DUP6 PUSH2 0x175D JUMP JUMPDEST PUSH2 0x1BC2 PUSH1 0x40 DUP4 ADD DUP5 PUSH2 0x16A3 JUMP JUMPDEST SWAP5 SWAP4 POP POP POP POP JUMP JUMPDEST PUSH1 0x0 DUP2 ISZERO ISZERO SWAP1 POP SWAP2 SWAP1 POP JUMP JUMPDEST PUSH2 0x1BDF DUP2 PUSH2 0x1BCA JUMP JUMPDEST DUP2 EQ PUSH2 0x1BEA JUMPI PUSH1 0x0 DUP1 REVERT JUMPDEST POP JUMP JUMPDEST PUSH1 0x0 DUP2 MLOAD SWAP1 POP PUSH2 0x1BFC DUP2 PUSH2 0x1BD6 JUMP JUMPDEST SWAP3 SWAP2 POP POP JUMP JUMPDEST PUSH1 0x0 PUSH1 0x20 DUP3 DUP5 SUB SLT ISZERO PUSH2 0x1C18 JUMPI PUSH2 0x1C17 PUSH2 0x16CD JUMP JUMPDEST JUMPDEST PUSH1 0x0 PUSH2 0x1C26 DUP5 DUP3 DUP6 ADD PUSH2 0x1BED JUMP JUMPDEST SWAP2 POP POP SWAP3 SWAP2 POP POP JUMP JUMPDEST PUSH1 0x0 DUP2 MLOAD SWAP1 POP PUSH2 0x1C3E DUP2 PUSH2 0x16D2 JUMP JUMPDEST SWAP3 SWAP2 POP POP JUMP JUMPDEST PUSH1 0x0 PUSH1 0x20 DUP3 DUP5 SUB SLT ISZERO PUSH2 0x1C5A JUMPI PUSH2 0x1C59 PUSH2 0x16CD JUMP JUMPDEST JUMPDEST PUSH1 0x0 PUSH2 0x1C68 DUP5 DUP3 DUP6 ADD PUSH2 0x1C2F JUMP JUMPDEST SWAP2 POP POP SWAP3 SWAP2 POP POP JUMP JUMPDEST PUSH1 0x0 PUSH2 0x1C7C DUP3 PUSH2 0x1699 JUMP JUMPDEST SWAP2 POP PUSH2 0x1C87 DUP4 PUSH2 0x1699 JUMP JUMPDEST SWAP3 POP DUP3 PUSH2 0x1C97 JUMPI PUSH2 0x1C96 PUSH2 0x1A2E JUMP JUMPDEST JUMPDEST DUP3 DUP3 DIV SWAP1 POP SWAP3 SWAP2 POP POP JUMP INVALID LOG2 PUSH5 0x6970667358 0x22 SLT KECCAK256 0xC9 SHR 0xE4 DUP13 0xC6 0xBD SWAP15 SWAP8 0xE6 0x5C 0xB3 0x5C 0xEB SLOAD 0xCB DUP5 JUMPI BLOCKHASH PUSH29 0x730B1011A9EBC39263D52CABC164736F6C634300081000330000000000 "
				},
				"gasEstimates": {
					"creation": {
						"codeDepositCost": "1476800",
						"executionCost": "infinite",
						"totalCost": "infinite"
					},
					"external": {
						"Liquidity(uint256)": "infinite",
						"balanceOfContract()": "infinite",
						"bet(address,uint256,uint8,uint8)": "infinite",
						"bets(uint256)": "infinite",
						"cashOut()": "infinite",
						"getStatus(address)": "infinite",
						"miner()": "2603",
						"ref_fee()": "2451",
						"spinWheel()": "infinite",
						"tokenAddress()": "2580",
						"winnings(address)": "infinite"
					},
					"internal": {
						"SendContract()": "infinite"
					}
				},
				"methodIdentifiers": {
					"Liquidity(uint256)": "198b2eae",
					"balanceOfContract()": "e6c7c456",
					"bet(address,uint256,uint8,uint8)": "51afb3dd",
					"bets(uint256)": "22af00fa",
					"cashOut()": "793cd71e",
					"getStatus(address)": "30ccebb5",
					"miner()": "349dc329",
					"ref_fee()": "5925417c",
					"spinWheel()": "15ecef92",
					"tokenAddress()": "9d76ea58",
					"winnings(address)": "ea3a1499"
				}
			},
			"storageLayout": {
				"storage": [
					{
						"astId": 70,
						"contract": "WatermelonBUSDRoulette.sol:WatermelonBUSDRoulette",
						"label": "betAmount",
						"offset": 0,
						"slot": "0",
						"type": "t_uint256"
					},
					{
						"astId": 72,
						"contract": "WatermelonBUSDRoulette.sol:WatermelonBUSDRoulette",
						"label": "necessaryBalance",
						"offset": 0,
						"slot": "1",
						"type": "t_uint256"
					},
					{
						"astId": 74,
						"contract": "WatermelonBUSDRoulette.sol:WatermelonBUSDRoulette",
						"label": "nextRoundTimestamp",
						"offset": 0,
						"slot": "2",
						"type": "t_uint256"
					},
					{
						"astId": 76,
						"contract": "WatermelonBUSDRoulette.sol:WatermelonBUSDRoulette",
						"label": "creator",
						"offset": 0,
						"slot": "3",
						"type": "t_address"
					},
					{
						"astId": 78,
						"contract": "WatermelonBUSDRoulette.sol:WatermelonBUSDRoulette",
						"label": "maxAmountAllowedInTheBank",
						"offset": 0,
						"slot": "4",
						"type": "t_uint256"
					},
					{
						"astId": 81,
						"contract": "WatermelonBUSDRoulette.sol:WatermelonBUSDRoulette",
						"label": "payouts",
						"offset": 0,
						"slot": "5",
						"type": "t_array(t_uint8)dyn_storage"
					},
					{
						"astId": 84,
						"contract": "WatermelonBUSDRoulette.sol:WatermelonBUSDRoulette",
						"label": "numberRange",
						"offset": 0,
						"slot": "6",
						"type": "t_array(t_uint8)dyn_storage"
					},
					{
						"astId": 87,
						"contract": "WatermelonBUSDRoulette.sol:WatermelonBUSDRoulette",
						"label": "BusdInterface",
						"offset": 0,
						"slot": "7",
						"type": "t_contract(IERC20)68"
					},
					{
						"astId": 89,
						"contract": "WatermelonBUSDRoulette.sol:WatermelonBUSDRoulette",
						"label": "tokenAddress",
						"offset": 0,
						"slot": "8",
						"type": "t_address"
					},
					{
						"astId": 92,
						"contract": "WatermelonBUSDRoulette.sol:WatermelonBUSDRoulette",
						"label": "ref_fee",
						"offset": 0,
						"slot": "9",
						"type": "t_uint256"
					},
					{
						"astId": 95,
						"contract": "WatermelonBUSDRoulette.sol:WatermelonBUSDRoulette",
						"label": "miner",
						"offset": 0,
						"slot": "10",
						"type": "t_address"
					},
					{
						"astId": 98,
						"contract": "WatermelonBUSDRoulette.sol:WatermelonBUSDRoulette",
						"label": "max_amount",
						"offset": 0,
						"slot": "11",
						"type": "t_uint256"
					},
					{
						"astId": 108,
						"contract": "WatermelonBUSDRoulette.sol:WatermelonBUSDRoulette",
						"label": "winnings",
						"offset": 0,
						"slot": "12",
						"type": "t_mapping(t_address,t_struct(winning)103_storage)"
					},
					{
						"astId": 119,
						"contract": "WatermelonBUSDRoulette.sol:WatermelonBUSDRoulette",
						"label": "bets",
						"offset": 0,
						"slot": "13",
						"type": "t_array(t_struct(Bet)115_storage)dyn_storage"
					},
					{
						"astId": 125,
						"contract": "WatermelonBUSDRoulette.sol:WatermelonBUSDRoulette",
						"label": "foo",
						"offset": 0,
						"slot": "14",
						"type": "t_mapping(t_address,t_array(t_struct(Bet)115_storage)dyn_storage)"
					}
				],
				"types": {
					"t_address": {
						"encoding": "inplace",
						"label": "address",
						"numberOfBytes": "20"
					},
					"t_array(t_struct(Bet)115_storage)dyn_storage": {
						"base": "t_struct(Bet)115_storage",
						"encoding": "dynamic_array",
						"label": "struct WatermelonBUSDRoulette.Bet[]",
						"numberOfBytes": "32"
					},
					"t_array(t_uint8)dyn_storage": {
						"base": "t_uint8",
						"encoding": "dynamic_array",
						"label": "uint8[]",
						"numberOfBytes": "32"
					},
					"t_contract(IERC20)68": {
						"encoding": "inplace",
						"label": "contract IERC20",
						"numberOfBytes": "20"
					},
					"t_mapping(t_address,t_array(t_struct(Bet)115_storage)dyn_storage)": {
						"encoding": "mapping",
						"key": "t_address",
						"label": "mapping(address => struct WatermelonBUSDRoulette.Bet[])",
						"numberOfBytes": "32",
						"value": "t_array(t_struct(Bet)115_storage)dyn_storage"
					},
					"t_mapping(t_address,t_struct(winning)103_storage)": {
						"encoding": "mapping",
						"key": "t_address",
						"label": "mapping(address => struct WatermelonBUSDRoulette.winning)",
						"numberOfBytes": "32",
						"value": "t_struct(winning)103_storage"
					},
					"t_struct(Bet)115_storage": {
						"encoding": "inplace",
						"label": "struct WatermelonBUSDRoulette.Bet",
						"members": [
							{
								"astId": 110,
								"contract": "WatermelonBUSDRoulette.sol:WatermelonBUSDRoulette",
								"label": "player",
								"offset": 0,
								"slot": "0",
								"type": "t_address"
							},
							{
								"astId": 112,
								"contract": "WatermelonBUSDRoulette.sol:WatermelonBUSDRoulette",
								"label": "betType",
								"offset": 20,
								"slot": "0",
								"type": "t_uint8"
							},
							{
								"astId": 114,
								"contract": "WatermelonBUSDRoulette.sol:WatermelonBUSDRoulette",
								"label": "number",
								"offset": 21,
								"slot": "0",
								"type": "t_uint8"
							}
						],
						"numberOfBytes": "32"
					},
					"t_struct(winning)103_storage": {
						"encoding": "inplace",
						"label": "struct WatermelonBUSDRoulette.winning",
						"members": [
							{
								"astId": 100,
								"contract": "WatermelonBUSDRoulette.sol:WatermelonBUSDRoulette",
								"label": "userAddr",
								"offset": 0,
								"slot": "0",
								"type": "t_address"
							},
							{
								"astId": 102,
								"contract": "WatermelonBUSDRoulette.sol:WatermelonBUSDRoulette",
								"label": "winingAmount",
								"offset": 0,
								"slot": "1",
								"type": "t_uint256"
							}
						],
						"numberOfBytes": "64"
					},
					"t_uint256": {
						"encoding": "inplace",
						"label": "uint256",
						"numberOfBytes": "32"
					},
					"t_uint8": {
						"encoding": "inplace",
						"label": "uint8",
						"numberOfBytes": "1"
					}
				}
			},
			"userdoc": {
				"kind": "user",
				"methods": {},
				"version": 1
			}
		}
	}
}