{
	"watermelon.sol": {
		"WatermelonBusd": {
			"abi": [
				{
					"inputs": [],
					"stateMutability": "nonpayable",
					"type": "constructor"
				},
				{
					"anonymous": false,
					"inputs": [
						{
							"indexed": true,
							"internalType": "address",
							"name": "previousOwner",
							"type": "address"
						},
						{
							"indexed": true,
							"internalType": "address",
							"name": "newOwner",
							"type": "address"
						}
					],
					"name": "OwnershipTransferred",
					"type": "event"
				},
				{
					"inputs": [
						{
							"internalType": "uint256",
							"name": "_amount",
							"type": "uint256"
						}
					],
					"name": "DailyRoi",
					"outputs": [
						{
							"internalType": "uint256",
							"name": "",
							"type": "uint256"
						}
					],
					"stateMutability": "view",
					"type": "function"
				},
				{
					"inputs": [],
					"name": "Ref_Withdraw",
					"outputs": [],
					"stateMutability": "nonpayable",
					"type": "function"
				},
				{
					"inputs": [],
					"name": "alreadyInvested",
					"outputs": [
						{
							"internalType": "bool",
							"name": "",
							"type": "bool"
						}
					],
					"stateMutability": "view",
					"type": "function"
				},
				{
					"inputs": [
						{
							"internalType": "address",
							"name": "",
							"type": "address"
						}
					],
					"name": "approvedWithdrawal",
					"outputs": [
						{
							"internalType": "address",
							"name": "user_address",
							"type": "address"
						},
						{
							"internalType": "uint256",
							"name": "amount",
							"type": "uint256"
						}
					],
					"stateMutability": "view",
					"type": "function"
				},
				{
					"inputs": [],
					"name": "checkAlready",
					"outputs": [
						{
							"internalType": "bool",
							"name": "",
							"type": "bool"
						}
					],
					"stateMutability": "view",
					"type": "function"
				},
				{
					"inputs": [],
					"name": "claimDailyRewards",
					"outputs": [],
					"stateMutability": "nonpayable",
					"type": "function"
				},
				{
					"inputs": [
						{
							"internalType": "address",
							"name": "",
							"type": "address"
						}
					],
					"name": "claimTime",
					"outputs": [
						{
							"internalType": "address",
							"name": "user_address",
							"type": "address"
						},
						{
							"internalType": "uint256",
							"name": "startTime",
							"type": "uint256"
						},
						{
							"internalType": "uint256",
							"name": "deadline",
							"type": "uint256"
						}
					],
					"stateMutability": "view",
					"type": "function"
				},
				{
					"inputs": [
						{
							"internalType": "address",
							"name": "_ref",
							"type": "address"
						},
						{
							"internalType": "uint256",
							"name": "_amount",
							"type": "uint256"
						}
					],
					"name": "deposit",
					"outputs": [],
					"stateMutability": "nonpayable",
					"type": "function"
				},
				{
					"inputs": [
						{
							"internalType": "uint256",
							"name": "_amount",
							"type": "uint256"
						}
					],
					"name": "depositFee",
					"outputs": [
						{
							"internalType": "uint256",
							"name": "",
							"type": "uint256"
						}
					],
					"stateMutability": "pure",
					"type": "function"
				},
				{
					"inputs": [],
					"name": "dev",
					"outputs": [
						{
							"internalType": "address",
							"name": "",
							"type": "address"
						}
					],
					"stateMutability": "view",
					"type": "function"
				},
				{
					"inputs": [],
					"name": "fee",
					"outputs": [
						{
							"internalType": "uint256",
							"name": "",
							"type": "uint256"
						}
					],
					"stateMutability": "view",
					"type": "function"
				},
				{
					"inputs": [],
					"name": "getBalance",
					"outputs": [
						{
							"internalType": "uint256",
							"name": "",
							"type": "uint256"
						}
					],
					"stateMutability": "view",
					"type": "function"
				},
				{
					"inputs": [],
					"name": "init",
					"outputs": [
						{
							"internalType": "bool",
							"name": "",
							"type": "bool"
						}
					],
					"stateMutability": "view",
					"type": "function"
				},
				{
					"inputs": [
						{
							"internalType": "address",
							"name": "",
							"type": "address"
						}
					],
					"name": "investments",
					"outputs": [
						{
							"internalType": "address",
							"name": "user_address",
							"type": "address"
						},
						{
							"internalType": "uint256",
							"name": "invested",
							"type": "uint256"
						}
					],
					"stateMutability": "view",
					"type": "function"
				},
				{
					"inputs": [],
					"name": "max",
					"outputs": [
						{
							"internalType": "uint256",
							"name": "",
							"type": "uint256"
						}
					],
					"stateMutability": "view",
					"type": "function"
				},
				{
					"inputs": [],
					"name": "min",
					"outputs": [
						{
							"internalType": "uint256",
							"name": "",
							"type": "uint256"
						}
					],
					"stateMutability": "view",
					"type": "function"
				},
				{
					"inputs": [],
					"name": "owner",
					"outputs": [
						{
							"internalType": "address",
							"name": "",
							"type": "address"
						}
					],
					"stateMutability": "view",
					"type": "function"
				},
				{
					"inputs": [
						{
							"internalType": "uint256",
							"name": "_amount",
							"type": "uint256"
						}
					],
					"name": "refFee",
					"outputs": [
						{
							"internalType": "uint256",
							"name": "",
							"type": "uint256"
						}
					],
					"stateMutability": "pure",
					"type": "function"
				},
				{
					"inputs": [
						{
							"internalType": "address",
							"name": "",
							"type": "address"
						}
					],
					"name": "refTotalWithdraw",
					"outputs": [
						{
							"internalType": "address",
							"name": "ref_address",
							"type": "address"
						},
						{
							"internalType": "uint256",
							"name": "totalWithdraw",
							"type": "uint256"
						}
					],
					"stateMutability": "view",
					"type": "function"
				},
				{
					"inputs": [],
					"name": "ref_fee",
					"outputs": [
						{
							"internalType": "uint256",
							"name": "",
							"type": "uint256"
						}
					],
					"stateMutability": "view",
					"type": "function"
				},
				{
					"inputs": [
						{
							"internalType": "address",
							"name": "",
							"type": "address"
						}
					],
					"name": "refferal",
					"outputs": [
						{
							"internalType": "address",
							"name": "ref_address",
							"type": "address"
						},
						{
							"internalType": "uint256",
							"name": "reward",
							"type": "uint256"
						}
					],
					"stateMutability": "view",
					"type": "function"
				},
				{
					"inputs": [],
					"name": "renounceOwnership",
					"outputs": [],
					"stateMutability": "nonpayable",
					"type": "function"
				},
				{
					"inputs": [],
					"name": "roi",
					"outputs": [
						{
							"internalType": "uint256",
							"name": "",
							"type": "uint256"
						}
					],
					"stateMutability": "view",
					"type": "function"
				},
				{
					"inputs": [],
					"name": "signal_market",
					"outputs": [],
					"stateMutability": "nonpayable",
					"type": "function"
				},
				{
					"inputs": [],
					"name": "tokenAdress",
					"outputs": [
						{
							"internalType": "address",
							"name": "",
							"type": "address"
						}
					],
					"stateMutability": "view",
					"type": "function"
				},
				{
					"inputs": [
						{
							"internalType": "address",
							"name": "",
							"type": "address"
						}
					],
					"name": "totalRewards",
					"outputs": [
						{
							"internalType": "address",
							"name": "user_address",
							"type": "address"
						},
						{
							"internalType": "uint256",
							"name": "amount",
							"type": "uint256"
						}
					],
					"stateMutability": "view",
					"type": "function"
				},
				{
					"inputs": [
						{
							"internalType": "address",
							"name": "",
							"type": "address"
						}
					],
					"name": "totalWithdraw",
					"outputs": [
						{
							"internalType": "address",
							"name": "user_address",
							"type": "address"
						},
						{
							"internalType": "uint256",
							"name": "amount",
							"type": "uint256"
						}
					],
					"stateMutability": "view",
					"type": "function"
				},
				{
					"inputs": [
						{
							"internalType": "address",
							"name": "newOwner",
							"type": "address"
						}
					],
					"name": "transferOwnership",
					"outputs": [],
					"stateMutability": "nonpayable",
					"type": "function"
				},
				{
					"inputs": [],
					"name": "unStake",
					"outputs": [],
					"stateMutability": "nonpayable",
					"type": "function"
				},
				{
					"inputs": [
						{
							"internalType": "address",
							"name": "_userAddress",
							"type": "address"
						}
					],
					"name": "userReward",
					"outputs": [
						{
							"internalType": "uint256",
							"name": "",
							"type": "uint256"
						}
					],
					"stateMutability": "view",
					"type": "function"
				},
				{
					"inputs": [
						{
							"internalType": "address",
							"name": "",
							"type": "address"
						}
					],
					"name": "weekly",
					"outputs": [
						{
							"internalType": "address",
							"name": "user_address",
							"type": "address"
						},
						{
							"internalType": "uint256",
							"name": "startTime",
							"type": "uint256"
						},
						{
							"internalType": "uint256",
							"name": "deadline",
							"type": "uint256"
						}
					],
					"stateMutability": "view",
					"type": "function"
				},
				{
					"inputs": [
						{
							"internalType": "uint256",
							"name": "_amount",
							"type": "uint256"
						}
					],
					"name": "withdrawFee",
					"outputs": [
						{
							"internalType": "uint256",
							"name": "",
							"type": "uint256"
						}
					],
					"stateMutability": "pure",
					"type": "function"
				},
				{
					"inputs": [],
					"name": "withdraw_fee",
					"outputs": [
						{
							"internalType": "uint256",
							"name": "",
							"type": "uint256"
						}
					],
					"stateMutability": "view",
					"type": "function"
				},
				{
					"inputs": [],
					"name": "withdrawal",
					"outputs": [],
					"stateMutability": "nonpayable",
					"type": "function"
				}
			],
			"devdoc": {
				"kind": "dev",
				"methods": {
					"owner()": {
						"details": "Returns the address of the current owner."
					}
				},
				"version": 1
			},
			"evm": {
				"assembly": "    /* \"watermelon.sol\":8693:19766  contract WatermelonBusd is Context, Ownable , ReentrancyGuard {... */\n  mstore(0x40, 0x80)\n    /* \"watermelon.sol\":8904:8905  1 */\n  0x01\n    /* \"watermelon.sol\":8883:8905  uint256 public roi = 1 */\n  dup1\n  sstore\n    /* \"watermelon.sol\":9056:9098  0x269df75431D46765AB3FCF33Ed09dDe31b7E9515 */\n  0x269df75431d46765ab3fcf33ed09dde31b7e9515\n    /* \"watermelon.sol\":9035:9098  address public dev = 0x269df75431D46765AB3FCF33Ed09dDe31b7E9515 */\n  0x02\n  exp(0x0100, 0x00)\n  dup2\n  sload\n  dup2\n  0xffffffffffffffffffffffffffffffffffffffff\n  mul\n  not\n  and\n  swap1\n  dup4\n  0xffffffffffffffffffffffffffffffffffffffff\n  and\n  mul\n  or\n  swap1\n  sstore\n  pop\n    /* \"watermelon.sol\":9189:9194  false */\n  0x00\n    /* \"watermelon.sol\":9170:9194  bool public init = false */\n  0x04\n  exp(0x0100, 0x14)\n  dup2\n  sload\n  dup2\n  0xff\n  mul\n  not\n  and\n  swap1\n  dup4\n  iszero\n  iszero\n  mul\n  or\n  swap1\n  sstore\n  pop\n    /* \"watermelon.sol\":9230:9235  false */\n  0x00\n    /* \"watermelon.sol\":9200:9235  bool public alreadyInvested = false */\n  0x04\n  exp(0x0100, 0x15)\n  dup2\n  sload\n  dup2\n  0xff\n  mul\n  not\n  and\n  swap1\n  dup4\n  iszero\n  iszero\n  mul\n  or\n  swap1\n  sstore\n  pop\n    /* \"watermelon.sol\":9241:9430  constructor() {... */\n  callvalue\n  dup1\n  iszero\n  tag_1\n  jumpi\n  0x00\n  dup1\n  revert\ntag_1:\n  pop\n    /* \"watermelon.sol\":7618:7635  address msgSender */\n  0x00\n    /* \"watermelon.sol\":7638:7650  _msgSender() */\n  tag_5\n    /* \"watermelon.sol\":7638:7648  _msgSender */\n  shl(0x20, tag_6)\n    /* \"watermelon.sol\":7638:7650  _msgSender() */\n  0x20\n  shr\n  jump\t// in\ntag_5:\n    /* \"watermelon.sol\":7618:7650  address msgSender = _msgSender() */\n  swap1\n  pop\n    /* \"watermelon.sol\":7667:7676  msgSender */\n  dup1\n    /* \"watermelon.sol\":7658:7664  _owner */\n  0x00\n  dup1\n    /* \"watermelon.sol\":7658:7676  _owner = msgSender */\n  0x0100\n  exp\n  dup2\n  sload\n  dup2\n  0xffffffffffffffffffffffffffffffffffffffff\n  mul\n  not\n  and\n  swap1\n  dup4\n  0xffffffffffffffffffffffffffffffffffffffff\n  and\n  mul\n  or\n  swap1\n  sstore\n  pop\n    /* \"watermelon.sol\":7722:7731  msgSender */\n  dup1\n    /* \"watermelon.sol\":7689:7732  OwnershipTransferred(address(0), msgSender) */\n  0xffffffffffffffffffffffffffffffffffffffff\n  and\n    /* \"watermelon.sol\":7718:7719  0 */\n  0x00\n    /* \"watermelon.sol\":7689:7732  OwnershipTransferred(address(0), msgSender) */\n  0xffffffffffffffffffffffffffffffffffffffff\n  and\n  0x8be0079c531659141344cd1fd0a4f28419497f9722a3daafe3b4186f6b6457e0\n  mload(0x40)\n  mload(0x40)\n  dup1\n  swap2\n  sub\n  swap1\n  log3\n    /* \"watermelon.sol\":7610:7739  {... */\n  pop\n    /* \"watermelon.sol\":9340:9382  0xeD24FC36d5Ee211Ea25A80239Fb8C4Cfd80f12Ee */\n  0xed24fc36d5ee211ea25a80239fb8c4cfd80f12ee\n    /* \"watermelon.sol\":9326:9337  tokenAdress */\n  0x04\n  0x00\n    /* \"watermelon.sol\":9326:9382  tokenAdress = 0xeD24FC36d5Ee211Ea25A80239Fb8C4Cfd80f12Ee */\n  0x0100\n  exp\n  dup2\n  sload\n  dup2\n  0xffffffffffffffffffffffffffffffffffffffff\n  mul\n  not\n  and\n  swap1\n  dup4\n  0xffffffffffffffffffffffffffffffffffffffff\n  and\n  mul\n  or\n  swap1\n  sstore\n  pop\n    /* \"watermelon.sol\":9411:9422  tokenAdress */\n  0x04\n  0x00\n  swap1\n  sload\n  swap1\n  0x0100\n  exp\n  swap1\n  div\n  0xffffffffffffffffffffffffffffffffffffffff\n  and\n    /* \"watermelon.sol\":9388:9401  BusdInterface */\n  0x03\n  0x00\n    /* \"watermelon.sol\":9388:9423  BusdInterface = IERC20(tokenAdress) */\n  0x0100\n  exp\n  dup2\n  sload\n  dup2\n  0xffffffffffffffffffffffffffffffffffffffff\n  mul\n  not\n  and\n  swap1\n  dup4\n  0xffffffffffffffffffffffffffffffffffffffff\n  and\n  mul\n  or\n  swap1\n  sstore\n  pop\n    /* \"watermelon.sol\":8693:19766  contract WatermelonBusd is Context, Ownable , ReentrancyGuard {... */\n  jump(tag_8)\n    /* \"watermelon.sol\":7143:7239  function _msgSender() internal view virtual returns (address) {... */\ntag_6:\n    /* \"watermelon.sol\":7196:7203  address */\n  0x00\n    /* \"watermelon.sol\":7222:7232  msg.sender */\n  caller\n    /* \"watermelon.sol\":7215:7232  return msg.sender */\n  swap1\n  pop\n    /* \"watermelon.sol\":7143:7239  function _msgSender() internal view virtual returns (address) {... */\n  swap1\n  jump\t// out\n    /* \"watermelon.sol\":8693:19766  contract WatermelonBusd is Context, Ownable , ReentrancyGuard {... */\ntag_8:\n  dataSize(sub_0)\n  dup1\n  dataOffset(sub_0)\n  0x00\n  codecopy\n  0x00\n  return\nstop\n\nsub_0: assembly {\n        /* \"watermelon.sol\":8693:19766  contract WatermelonBusd is Context, Ownable , ReentrancyGuard {... */\n      mstore(0x40, 0x80)\n      callvalue\n      dup1\n      iszero\n      tag_1\n      jumpi\n      0x00\n      dup1\n      revert\n    tag_1:\n      pop\n      jumpi(tag_2, lt(calldatasize, 0x04))\n      shr(0xe0, calldataload(0x00))\n      dup1\n      0x7d636d9b\n      gt\n      tag_37\n      jumpi\n      dup1\n      0xbe357616\n      gt\n      tag_38\n      jumpi\n      dup1\n      0xddca3f43\n      gt\n      tag_39\n      jumpi\n      dup1\n      0xddca3f43\n      eq\n      tag_32\n      jumpi\n      dup1\n      0xe1c7392a\n      eq\n      tag_33\n      jumpi\n      dup1\n      0xea82b285\n      eq\n      tag_34\n      jumpi\n      dup1\n      0xf2fde38b\n      eq\n      tag_35\n      jumpi\n      dup1\n      0xf8897945\n      eq\n      tag_36\n      jumpi\n      jump(tag_2)\n    tag_39:\n      dup1\n      0xbe357616\n      eq\n      tag_28\n      jumpi\n      dup1\n      0xc6bdd1da\n      eq\n      tag_29\n      jumpi\n      dup1\n      0xd4e93292\n      eq\n      tag_30\n      jumpi\n      dup1\n      0xdbe32e54\n      eq\n      tag_31\n      jumpi\n      jump(tag_2)\n    tag_38:\n      dup1\n      0x96b98862\n      gt\n      tag_40\n      jumpi\n      dup1\n      0x96b98862\n      eq\n      tag_24\n      jumpi\n      dup1\n      0x97c9c5a6\n      eq\n      tag_25\n      jumpi\n      dup1\n      0xab7573dd\n      eq\n      tag_26\n      jumpi\n      dup1\n      0xb99442bd\n      eq\n      tag_27\n      jumpi\n      jump(tag_2)\n    tag_40:\n      dup1\n      0x7d636d9b\n      eq\n      tag_20\n      jumpi\n      dup1\n      0x8631d128\n      eq\n      tag_21\n      jumpi\n      dup1\n      0x8da5cb5b\n      eq\n      tag_22\n      jumpi\n      dup1\n      0x91cca3db\n      eq\n      tag_23\n      jumpi\n      jump(tag_2)\n    tag_37:\n      dup1\n      0x47e7ef24\n      gt\n      tag_41\n      jumpi\n      dup1\n      0x5925417c\n      gt\n      tag_42\n      jumpi\n      dup1\n      0x5925417c\n      eq\n      tag_15\n      jumpi\n      dup1\n      0x6ac5db19\n      eq\n      tag_16\n      jumpi\n      dup1\n      0x715018a6\n      eq\n      tag_17\n      jumpi\n      dup1\n      0x73cf575a\n      eq\n      tag_18\n      jumpi\n      dup1\n      0x797ca149\n      eq\n      tag_19\n      jumpi\n      jump(tag_2)\n    tag_42:\n      dup1\n      0x47e7ef24\n      eq\n      tag_11\n      jumpi\n      dup1\n      0x4afdd0e7\n      eq\n      tag_12\n      jumpi\n      dup1\n      0x4c443127\n      eq\n      tag_13\n      jumpi\n      dup1\n      0x56eaf9e6\n      eq\n      tag_14\n      jumpi\n      jump(tag_2)\n    tag_41:\n      dup1\n      0x21b9f7eb\n      gt\n      tag_43\n      jumpi\n      dup1\n      0x21b9f7eb\n      eq\n      tag_7\n      jumpi\n      dup1\n      0x223777fe\n      eq\n      tag_8\n      jumpi\n      dup1\n      0x398204ad\n      eq\n      tag_9\n      jumpi\n      dup1\n      0x423c485a\n      eq\n      tag_10\n      jumpi\n      jump(tag_2)\n    tag_43:\n      dup1\n      0x0a74be\n      eq\n      tag_3\n      jumpi\n      dup1\n      0x02ee282c\n      eq\n      tag_4\n      jumpi\n      dup1\n      0x12065fe0\n      eq\n      tag_5\n      jumpi\n      dup1\n      0x2116ce6d\n      eq\n      tag_6\n      jumpi\n    tag_2:\n      0x00\n      dup1\n      revert\n        /* \"watermelon.sol\":14247:15095  function userReward(address _userAddress) public view returns(uint256) {... */\n    tag_3:\n      tag_44\n      0x04\n      dup1\n      calldatasize\n      sub\n      dup2\n      add\n      swap1\n      tag_45\n      swap2\n      swap1\n      tag_46\n      jump\t// in\n    tag_45:\n      tag_47\n      jump\t// in\n    tag_44:\n      mload(0x40)\n      tag_48\n      swap2\n      swap1\n      tag_49\n      jump\t// in\n    tag_48:\n      mload(0x40)\n      dup1\n      swap2\n      sub\n      swap1\n      return\n        /* \"watermelon.sol\":10526:10584  mapping(address => userTotalWithdraw) public totalWithdraw */\n    tag_4:\n      tag_50\n      0x04\n      dup1\n      calldatasize\n      sub\n      dup2\n      add\n      swap1\n      tag_51\n      swap2\n      swap1\n      tag_46\n      jump\t// in\n    tag_51:\n      tag_52\n      jump\t// in\n    tag_50:\n      mload(0x40)\n      tag_53\n      swap3\n      swap2\n      swap1\n      tag_54\n      jump\t// in\n    tag_53:\n      mload(0x40)\n      dup1\n      swap2\n      sub\n      swap1\n      return\n        /* \"watermelon.sol\":19651:19764  function getBalance() public view returns(uint256){... */\n    tag_5:\n      tag_55\n      tag_56\n      jump\t// in\n    tag_55:\n      mload(0x40)\n      tag_57\n      swap2\n      swap1\n      tag_49\n      jump\t// in\n    tag_57:\n      mload(0x40)\n      dup1\n      swap2\n      sub\n      swap1\n      return\n        /* \"watermelon.sol\":18983:19222  function checkAlready() public view returns(bool) {... */\n    tag_6:\n      tag_58\n      tag_59\n      jump\t// in\n    tag_58:\n      mload(0x40)\n      tag_60\n      swap2\n      swap1\n      tag_61\n      jump\t// in\n    tag_60:\n      mload(0x40)\n      dup1\n      swap2\n      sub\n      swap1\n      return\n        /* \"watermelon.sol\":19363:19496  function refFee(uint256 _amount) public pure returns(uint256) {... */\n    tag_7:\n      tag_62\n      0x04\n      dup1\n      calldatasize\n      sub\n      dup2\n      add\n      swap1\n      tag_63\n      swap2\n      swap1\n      tag_64\n      jump\t// in\n    tag_63:\n      tag_65\n      jump\t// in\n    tag_62:\n      mload(0x40)\n      tag_66\n      swap2\n      swap1\n      tag_49\n      jump\t// in\n    tag_66:\n      mload(0x40)\n      dup1\n      swap2\n      sub\n      swap1\n      return\n        /* \"watermelon.sol\":10353:10401  mapping(address => weeklyWithdraw) public weekly */\n    tag_8:\n      tag_67\n      0x04\n      dup1\n      calldatasize\n      sub\n      dup2\n      add\n      swap1\n      tag_68\n      swap2\n      swap1\n      tag_46\n      jump\t// in\n    tag_68:\n      tag_69\n      jump\t// in\n    tag_67:\n      mload(0x40)\n      tag_70\n      swap4\n      swap3\n      swap2\n      swap1\n      tag_71\n      jump\t// in\n    tag_70:\n      mload(0x40)\n      dup1\n      swap2\n      sub\n      swap1\n      return\n        /* \"watermelon.sol\":18745:18815  function signal_market() public onlyOwner {... */\n    tag_9:\n      tag_72\n      tag_73\n      jump\t// in\n    tag_72:\n      stop\n        /* \"watermelon.sol\":19228:19357  function depositFee(uint256 _amount) public pure returns(uint256){... */\n    tag_10:\n      tag_74\n      0x04\n      dup1\n      calldatasize\n      sub\n      dup2\n      add\n      swap1\n      tag_75\n      swap2\n      swap1\n      tag_64\n      jump\t// in\n    tag_75:\n      tag_76\n      jump\t// in\n    tag_74:\n      mload(0x40)\n      tag_77\n      swap2\n      swap1\n      tag_49\n      jump\t// in\n    tag_77:\n      mload(0x40)\n      dup1\n      swap2\n      sub\n      swap1\n      return\n        /* \"watermelon.sol\":10745:14241  function deposit(address _ref, uint256 _amount) public noReentrant  {... */\n    tag_11:\n      tag_78\n      0x04\n      dup1\n      calldatasize\n      sub\n      dup2\n      add\n      swap1\n      tag_79\n      swap2\n      swap1\n      tag_80\n      jump\t// in\n    tag_79:\n      tag_81\n      jump\t// in\n    tag_78:\n      stop\n        /* \"watermelon.sol\":8883:8905  uint256 public roi = 1 */\n    tag_12:\n      tag_82\n      tag_83\n      jump\t// in\n    tag_82:\n      mload(0x40)\n      tag_84\n      swap2\n      swap1\n      tag_49\n      jump\t// in\n    tag_84:\n      mload(0x40)\n      dup1\n      swap2\n      sub\n      swap1\n      return\n        /* \"watermelon.sol\":10407:10454  mapping(address => claimDaily) public claimTime */\n    tag_13:\n      tag_85\n      0x04\n      dup1\n      calldatasize\n      sub\n      dup2\n      add\n      swap1\n      tag_86\n      swap2\n      swap1\n      tag_46\n      jump\t// in\n    tag_86:\n      tag_87\n      jump\t// in\n    tag_85:\n      mload(0x40)\n      tag_88\n      swap4\n      swap3\n      swap2\n      swap1\n      tag_71\n      jump\t// in\n    tag_88:\n      mload(0x40)\n      dup1\n      swap2\n      sub\n      swap1\n      return\n        /* \"watermelon.sol\":18846:18977  function DailyRoi(uint256 _amount) public view returns(uint256) {... */\n    tag_14:\n      tag_89\n      0x04\n      dup1\n      calldatasize\n      sub\n      dup2\n      add\n      swap1\n      tag_90\n      swap2\n      swap1\n      tag_64\n      jump\t// in\n    tag_90:\n      tag_91\n      jump\t// in\n    tag_89:\n      mload(0x40)\n      tag_92\n      swap2\n      swap1\n      tag_49\n      jump\t// in\n    tag_92:\n      mload(0x40)\n      dup1\n      swap2\n      sub\n      swap1\n      return\n        /* \"watermelon.sol\":8994:9029  uint256 public constant ref_fee = 5 */\n    tag_15:\n      tag_93\n      tag_94\n      jump\t// in\n    tag_93:\n      mload(0x40)\n      tag_95\n      swap2\n      swap1\n      tag_49\n      jump\t// in\n    tag_95:\n      mload(0x40)\n      dup1\n      swap2\n      sub\n      swap1\n      return\n        /* \"watermelon.sol\":8837:8877  uint256 public constant max = 5000 ether */\n    tag_16:\n      tag_96\n      tag_97\n      jump\t// in\n    tag_96:\n      mload(0x40)\n      tag_98\n      swap2\n      swap1\n      tag_49\n      jump\t// in\n    tag_98:\n      mload(0x40)\n      dup1\n      swap2\n      sub\n      swap1\n      return\n        /* \"watermelon.sol\":8017:8150  function renounceOwnership() public onlyOwner {... */\n    tag_17:\n      tag_99\n      tag_100\n      jump\t// in\n    tag_99:\n      stop\n        /* \"watermelon.sol\":17358:18212  function unStake() external noReentrant {... */\n    tag_18:\n      tag_101\n      tag_102\n      jump\t// in\n    tag_101:\n      stop\n        /* \"watermelon.sol\":16487:17352  function claimDailyRewards() public noReentrant{... */\n    tag_19:\n      tag_103\n      tag_104\n      jump\t// in\n    tag_103:\n      stop\n        /* \"watermelon.sol\":10228:10279  mapping(address => refferal_system) public refferal */\n    tag_20:\n      tag_105\n      0x04\n      dup1\n      calldatasize\n      sub\n      dup2\n      add\n      swap1\n      tag_106\n      swap2\n      swap1\n      tag_46\n      jump\t// in\n    tag_106:\n      tag_107\n      jump\t// in\n    tag_105:\n      mload(0x40)\n      tag_108\n      swap3\n      swap2\n      swap1\n      tag_54\n      jump\t// in\n    tag_108:\n      mload(0x40)\n      dup1\n      swap2\n      sub\n      swap1\n      return\n        /* \"watermelon.sol\":10460:10520  mapping(address => userWithdrawal) public approvedWithdrawal */\n    tag_21:\n      tag_109\n      0x04\n      dup1\n      calldatasize\n      sub\n      dup2\n      add\n      swap1\n      tag_110\n      swap2\n      swap1\n      tag_46\n      jump\t// in\n    tag_110:\n      tag_111\n      jump\t// in\n    tag_109:\n      mload(0x40)\n      tag_112\n      swap3\n      swap2\n      swap1\n      tag_54\n      jump\t// in\n    tag_112:\n      mload(0x40)\n      dup1\n      swap2\n      sub\n      swap1\n      return\n        /* \"watermelon.sol\":7813:7888  function owner() public view returns (address) {... */\n    tag_22:\n      tag_113\n      tag_114\n      jump\t// in\n    tag_113:\n      mload(0x40)\n      tag_115\n      swap2\n      swap1\n      tag_116\n      jump\t// in\n    tag_115:\n      mload(0x40)\n      dup1\n      swap2\n      sub\n      swap1\n      return\n        /* \"watermelon.sol\":9035:9098  address public dev = 0x269df75431D46765AB3FCF33Ed09dDe31b7E9515 */\n    tag_23:\n      tag_117\n      tag_118\n      jump\t// in\n    tag_117:\n      mload(0x40)\n      tag_119\n      swap2\n      swap1\n      tag_116\n      jump\t// in\n    tag_119:\n      mload(0x40)\n      dup1\n      swap2\n      sub\n      swap1\n      return\n        /* \"watermelon.sol\":10285:10347  mapping(address => user_investment_details) public investments */\n    tag_24:\n      tag_120\n      0x04\n      dup1\n      calldatasize\n      sub\n      dup2\n      add\n      swap1\n      tag_121\n      swap2\n      swap1\n      tag_46\n      jump\t// in\n    tag_121:\n      tag_122\n      jump\t// in\n    tag_120:\n      mload(0x40)\n      tag_123\n      swap3\n      swap2\n      swap1\n      tag_54\n      jump\t// in\n    tag_123:\n      mload(0x40)\n      dup1\n      swap2\n      sub\n      swap1\n      return\n        /* \"watermelon.sol\":9138:9164  address public tokenAdress */\n    tag_25:\n      tag_124\n      tag_125\n      jump\t// in\n    tag_124:\n      mload(0x40)\n      tag_126\n      swap2\n      swap1\n      tag_116\n      jump\t// in\n    tag_126:\n      mload(0x40)\n      dup1\n      swap2\n      sub\n      swap1\n      return\n        /* \"watermelon.sol\":10590:10646  mapping(address => userTotalRewards) public totalRewards */\n    tag_26:\n      tag_127\n      0x04\n      dup1\n      calldatasize\n      sub\n      dup2\n      add\n      swap1\n      tag_128\n      swap2\n      swap1\n      tag_46\n      jump\t// in\n    tag_128:\n      tag_129\n      jump\t// in\n    tag_127:\n      mload(0x40)\n      tag_130\n      swap3\n      swap2\n      swap1\n      tag_54\n      jump\t// in\n    tag_130:\n      mload(0x40)\n      dup1\n      swap2\n      sub\n      swap1\n      return\n        /* \"watermelon.sol\":18218:18708  function Ref_Withdraw() external noReentrant {... */\n    tag_27:\n      tag_131\n      tag_132\n      jump\t// in\n    tag_131:\n      stop\n        /* \"watermelon.sol\":19502:19645  function withdrawFee(uint256 _amount) public pure returns(uint256) {... */\n    tag_28:\n      tag_133\n      0x04\n      dup1\n      calldatasize\n      sub\n      dup2\n      add\n      swap1\n      tag_134\n      swap2\n      swap1\n      tag_64\n      jump\t// in\n    tag_134:\n      tag_135\n      jump\t// in\n    tag_133:\n      mload(0x40)\n      tag_136\n      swap2\n      swap1\n      tag_49\n      jump\t// in\n    tag_136:\n      mload(0x40)\n      dup1\n      swap2\n      sub\n      swap1\n      return\n        /* \"watermelon.sol\":10653:10714  mapping(address => refferal_withdraw) public refTotalWithdraw */\n    tag_29:\n      tag_137\n      0x04\n      dup1\n      calldatasize\n      sub\n      dup2\n      add\n      swap1\n      tag_138\n      swap2\n      swap1\n      tag_46\n      jump\t// in\n    tag_138:\n      tag_139\n      jump\t// in\n    tag_137:\n      mload(0x40)\n      tag_140\n      swap3\n      swap2\n      swap1\n      tag_54\n      jump\t// in\n    tag_140:\n      mload(0x40)\n      dup1\n      swap2\n      sub\n      swap1\n      return\n        /* \"watermelon.sol\":15101:16472  function withdrawal() public noReentrant {... */\n    tag_30:\n      tag_141\n      tag_142\n      jump\t// in\n    tag_141:\n      stop\n        /* \"watermelon.sol\":8948:8988  uint256 public constant withdraw_fee = 2 */\n    tag_31:\n      tag_143\n      tag_144\n      jump\t// in\n    tag_143:\n      mload(0x40)\n      tag_145\n      swap2\n      swap1\n      tag_49\n      jump\t// in\n    tag_145:\n      mload(0x40)\n      dup1\n      swap2\n      sub\n      swap1\n      return\n        /* \"watermelon.sol\":8911:8942  uint256 public constant fee = 1 */\n    tag_32:\n      tag_146\n      tag_147\n      jump\t// in\n    tag_146:\n      mload(0x40)\n      tag_148\n      swap2\n      swap1\n      tag_49\n      jump\t// in\n    tag_148:\n      mload(0x40)\n      dup1\n      swap2\n      sub\n      swap1\n      return\n        /* \"watermelon.sol\":9170:9194  bool public init = false */\n    tag_33:\n      tag_149\n      tag_150\n      jump\t// in\n    tag_149:\n      mload(0x40)\n      tag_151\n      swap2\n      swap1\n      tag_61\n      jump\t// in\n    tag_151:\n      mload(0x40)\n      dup1\n      swap2\n      sub\n      swap1\n      return\n        /* \"watermelon.sol\":9200:9235  bool public alreadyInvested = false */\n    tag_34:\n      tag_152\n      tag_153\n      jump\t// in\n    tag_152:\n      mload(0x40)\n      tag_154\n      swap2\n      swap1\n      tag_61\n      jump\t// in\n    tag_154:\n      mload(0x40)\n      dup1\n      swap2\n      sub\n      swap1\n      return\n        /* \"watermelon.sol\":8156:8261  function transferOwnership(address newOwner) public onlyOwner {... */\n    tag_35:\n      tag_155\n      0x04\n      dup1\n      calldatasize\n      sub\n      dup2\n      add\n      swap1\n      tag_156\n      swap2\n      swap1\n      tag_46\n      jump\t// in\n    tag_156:\n      tag_157\n      jump\t// in\n    tag_155:\n      stop\n        /* \"watermelon.sol\":8793:8831  uint256 public constant min = 10 ether */\n    tag_36:\n      tag_158\n      tag_159\n      jump\t// in\n    tag_158:\n      mload(0x40)\n      tag_160\n      swap2\n      swap1\n      tag_49\n      jump\t// in\n    tag_160:\n      mload(0x40)\n      dup1\n      swap2\n      sub\n      swap1\n      return\n        /* \"watermelon.sol\":14247:15095  function userReward(address _userAddress) public view returns(uint256) {... */\n    tag_47:\n        /* \"watermelon.sol\":14309:14316  uint256 */\n      0x00\n        /* \"watermelon.sol\":14346:14368  uint256 userInvestment */\n      dup1\n        /* \"watermelon.sol\":14371:14382  investments */\n      0x06\n        /* \"watermelon.sol\":14371:14396  investments[_userAddress] */\n      0x00\n        /* \"watermelon.sol\":14383:14395  _userAddress */\n      dup5\n        /* \"watermelon.sol\":14371:14396  investments[_userAddress] */\n      0xffffffffffffffffffffffffffffffffffffffff\n      and\n      0xffffffffffffffffffffffffffffffffffffffff\n      and\n      dup2\n      mstore\n      0x20\n      add\n      swap1\n      dup2\n      mstore\n      0x20\n      add\n      0x00\n      keccak256\n        /* \"watermelon.sol\":14371:14405  investments[_userAddress].invested */\n      0x01\n      add\n      sload\n        /* \"watermelon.sol\":14346:14405  uint256 userInvestment = investments[_userAddress].invested */\n      swap1\n      pop\n        /* \"watermelon.sol\":14415:14438  uint256 userDailyReturn */\n      0x00\n        /* \"watermelon.sol\":14441:14465  DailyRoi(userInvestment) */\n      tag_162\n        /* \"watermelon.sol\":14450:14464  userInvestment */\n      dup3\n        /* \"watermelon.sol\":14441:14449  DailyRoi */\n      tag_91\n        /* \"watermelon.sol\":14441:14465  DailyRoi(userInvestment) */\n      jump\t// in\n    tag_162:\n        /* \"watermelon.sol\":14415:14465  uint256 userDailyReturn = DailyRoi(userInvestment) */\n      swap1\n      pop\n        /* \"watermelon.sol\":14502:14525  uint256 claimInvestTime */\n      0x00\n        /* \"watermelon.sol\":14528:14537  claimTime */\n      0x08\n        /* \"watermelon.sol\":14528:14551  claimTime[_userAddress] */\n      0x00\n        /* \"watermelon.sol\":14538:14550  _userAddress */\n      dup7\n        /* \"watermelon.sol\":14528:14551  claimTime[_userAddress] */\n      0xffffffffffffffffffffffffffffffffffffffff\n      and\n      0xffffffffffffffffffffffffffffffffffffffff\n      and\n      dup2\n      mstore\n      0x20\n      add\n      swap1\n      dup2\n      mstore\n      0x20\n      add\n      0x00\n      keccak256\n        /* \"watermelon.sol\":14528:14561  claimTime[_userAddress].startTime */\n      0x01\n      add\n      sload\n        /* \"watermelon.sol\":14502:14561  uint256 claimInvestTime = claimTime[_userAddress].startTime */\n      swap1\n      pop\n        /* \"watermelon.sol\":14571:14593  uint256 claimInvestEnd */\n      0x00\n        /* \"watermelon.sol\":14596:14605  claimTime */\n      0x08\n        /* \"watermelon.sol\":14596:14619  claimTime[_userAddress] */\n      0x00\n        /* \"watermelon.sol\":14606:14618  _userAddress */\n      dup8\n        /* \"watermelon.sol\":14596:14619  claimTime[_userAddress] */\n      0xffffffffffffffffffffffffffffffffffffffff\n      and\n      0xffffffffffffffffffffffffffffffffffffffff\n      and\n      dup2\n      mstore\n      0x20\n      add\n      swap1\n      dup2\n      mstore\n      0x20\n      add\n      0x00\n      keccak256\n        /* \"watermelon.sol\":14596:14628  claimTime[_userAddress].deadline */\n      0x02\n      add\n      sload\n        /* \"watermelon.sol\":14571:14628  uint256 claimInvestEnd = claimTime[_userAddress].deadline */\n      swap1\n      pop\n        /* \"watermelon.sol\":14639:14656  uint256 totalTime */\n      0x00\n        /* \"watermelon.sol\":14659:14703  SafeMath.sub(claimInvestEnd,claimInvestTime) */\n      tag_163\n        /* \"watermelon.sol\":14672:14686  claimInvestEnd */\n      dup3\n        /* \"watermelon.sol\":14687:14702  claimInvestTime */\n      dup5\n        /* \"watermelon.sol\":14659:14671  SafeMath.sub */\n      tag_164\n        /* \"watermelon.sol\":14659:14703  SafeMath.sub(claimInvestEnd,claimInvestTime) */\n      jump\t// in\n    tag_163:\n        /* \"watermelon.sol\":14639:14703  uint256 totalTime = SafeMath.sub(claimInvestEnd,claimInvestTime) */\n      swap1\n      pop\n        /* \"watermelon.sol\":14714:14727  uint256 value */\n      0x00\n        /* \"watermelon.sol\":14730:14769  SafeMath.div(userDailyReturn,totalTime) */\n      tag_165\n        /* \"watermelon.sol\":14743:14758  userDailyReturn */\n      dup6\n        /* \"watermelon.sol\":14759:14768  totalTime */\n      dup4\n        /* \"watermelon.sol\":14730:14742  SafeMath.div */\n      tag_166\n        /* \"watermelon.sol\":14730:14769  SafeMath.div(userDailyReturn,totalTime) */\n      jump\t// in\n    tag_165:\n        /* \"watermelon.sol\":14714:14769  uint256 value = SafeMath.div(userDailyReturn,totalTime) */\n      swap1\n      pop\n        /* \"watermelon.sol\":14780:14795  uint256 nowTime */\n      0x00\n        /* \"watermelon.sol\":14798:14813  block.timestamp */\n      timestamp\n        /* \"watermelon.sol\":14780:14813  uint256 nowTime = block.timestamp */\n      swap1\n      pop\n        /* \"watermelon.sol\":14844:14851  nowTime */\n      dup1\n        /* \"watermelon.sol\":14827:14841  claimInvestEnd */\n      dup5\n        /* \"watermelon.sol\":14827:14851  claimInvestEnd>= nowTime */\n      lt\n        /* \"watermelon.sol\":14824:15089  if(claimInvestEnd>= nowTime) {... */\n      tag_167\n      jumpi\n        /* \"watermelon.sol\":14863:14877  uint256 earned */\n      0x00\n        /* \"watermelon.sol\":14880:14917  SafeMath.sub(nowTime,claimInvestTime) */\n      tag_168\n        /* \"watermelon.sol\":14893:14900  nowTime */\n      dup3\n        /* \"watermelon.sol\":14901:14916  claimInvestTime */\n      dup8\n        /* \"watermelon.sol\":14880:14892  SafeMath.sub */\n      tag_164\n        /* \"watermelon.sol\":14880:14917  SafeMath.sub(nowTime,claimInvestTime) */\n      jump\t// in\n    tag_168:\n        /* \"watermelon.sol\":14863:14917  uint256 earned = SafeMath.sub(nowTime,claimInvestTime) */\n      swap1\n      pop\n        /* \"watermelon.sol\":14928:14947  uint256 totalEarned */\n      0x00\n        /* \"watermelon.sol\":14950:14977  SafeMath.mul(earned, value) */\n      tag_169\n        /* \"watermelon.sol\":14963:14969  earned */\n      dup3\n        /* \"watermelon.sol\":14971:14976  value */\n      dup6\n        /* \"watermelon.sol\":14950:14962  SafeMath.mul */\n      tag_170\n        /* \"watermelon.sol\":14950:14977  SafeMath.mul(earned, value) */\n      jump\t// in\n    tag_169:\n        /* \"watermelon.sol\":14928:14977  uint256 totalEarned = SafeMath.mul(earned, value) */\n      swap1\n      pop\n        /* \"watermelon.sol\":14995:15006  totalEarned */\n      dup1\n        /* \"watermelon.sol\":14988:15006  return totalEarned */\n      swap10\n      pop\n      pop\n      pop\n      pop\n      pop\n      pop\n      pop\n      pop\n      pop\n      pop\n      jump(tag_161)\n        /* \"watermelon.sol\":14824:15089  if(claimInvestEnd>= nowTime) {... */\n    tag_167:\n        /* \"watermelon.sol\":15063:15078  userDailyReturn */\n      dup6\n        /* \"watermelon.sol\":15056:15078  return userDailyReturn */\n      swap8\n      pop\n      pop\n      pop\n      pop\n      pop\n      pop\n      pop\n      pop\n        /* \"watermelon.sol\":14247:15095  function userReward(address _userAddress) public view returns(uint256) {... */\n    tag_161:\n      swap2\n      swap1\n      pop\n      jump\t// out\n        /* \"watermelon.sol\":10526:10584  mapping(address => userTotalWithdraw) public totalWithdraw */\n    tag_52:\n      mstore(0x20, 0x0a)\n      dup1\n      0x00\n      mstore\n      keccak256(0x00, 0x40)\n      0x00\n      swap2\n      pop\n      swap1\n      pop\n      dup1\n      0x00\n      add\n      0x00\n      swap1\n      sload\n      swap1\n      0x0100\n      exp\n      swap1\n      div\n      0xffffffffffffffffffffffffffffffffffffffff\n      and\n      swap1\n      dup1\n      0x01\n      add\n      sload\n      swap1\n      pop\n      dup3\n      jump\t// out\n        /* \"watermelon.sol\":19651:19764  function getBalance() public view returns(uint256){... */\n    tag_56:\n        /* \"watermelon.sol\":19693:19700  uint256 */\n      0x00\n        /* \"watermelon.sol\":19719:19732  BusdInterface */\n      0x03\n      0x00\n      swap1\n      sload\n      swap1\n      0x0100\n      exp\n      swap1\n      div\n      0xffffffffffffffffffffffffffffffffffffffff\n      and\n        /* \"watermelon.sol\":19719:19742  BusdInterface.balanceOf */\n      0xffffffffffffffffffffffffffffffffffffffff\n      and\n      0x70a08231\n        /* \"watermelon.sol\":19751:19755  this */\n      address\n        /* \"watermelon.sol\":19719:19757  BusdInterface.balanceOf(address(this)) */\n      mload(0x40)\n      dup3\n      0xffffffff\n      and\n      0xe0\n      shl\n      dup2\n      mstore\n      0x04\n      add\n      tag_173\n      swap2\n      swap1\n      tag_116\n      jump\t// in\n    tag_173:\n      0x20\n      mload(0x40)\n      dup1\n      dup4\n      sub\n      dup2\n      dup7\n      gas\n      staticcall\n      iszero\n      dup1\n      iszero\n      tag_175\n      jumpi\n      returndatasize\n      0x00\n      dup1\n      returndatacopy\n      revert(0x00, returndatasize)\n    tag_175:\n      pop\n      pop\n      pop\n      pop\n      mload(0x40)\n      returndatasize\n      not(0x1f)\n      0x1f\n      dup3\n      add\n      and\n      dup3\n      add\n      dup1\n      0x40\n      mstore\n      pop\n      dup2\n      add\n      swap1\n      tag_176\n      swap2\n      swap1\n      tag_177\n      jump\t// in\n    tag_176:\n        /* \"watermelon.sol\":19712:19757  return BusdInterface.balanceOf(address(this)) */\n      swap1\n      pop\n        /* \"watermelon.sol\":19651:19764  function getBalance() public view returns(uint256){... */\n      swap1\n      jump\t// out\n        /* \"watermelon.sol\":18983:19222  function checkAlready() public view returns(bool) {... */\n    tag_59:\n        /* \"watermelon.sol\":19027:19031  bool */\n      0x00\n        /* \"watermelon.sol\":19044:19060  address _address */\n      dup1\n        /* \"watermelon.sol\":19062:19072  msg.sender */\n      caller\n        /* \"watermelon.sol\":19044:19072  address _address= msg.sender */\n      swap1\n      pop\n        /* \"watermelon.sol\":19121:19129  _address */\n      dup1\n        /* \"watermelon.sol\":19085:19129  investments[_address].user_address==_address */\n      0xffffffffffffffffffffffffffffffffffffffff\n      and\n        /* \"watermelon.sol\":19085:19096  investments */\n      0x06\n        /* \"watermelon.sol\":19085:19106  investments[_address] */\n      0x00\n        /* \"watermelon.sol\":19097:19105  _address */\n      dup4\n        /* \"watermelon.sol\":19085:19106  investments[_address] */\n      0xffffffffffffffffffffffffffffffffffffffff\n      and\n      0xffffffffffffffffffffffffffffffffffffffff\n      and\n      dup2\n      mstore\n      0x20\n      add\n      swap1\n      dup2\n      mstore\n      0x20\n      add\n      0x00\n      keccak256\n        /* \"watermelon.sol\":19085:19119  investments[_address].user_address */\n      0x00\n      add\n      0x00\n      swap1\n      sload\n      swap1\n      0x0100\n      exp\n      swap1\n      div\n      0xffffffffffffffffffffffffffffffffffffffff\n      and\n        /* \"watermelon.sol\":19085:19129  investments[_address].user_address==_address */\n      0xffffffffffffffffffffffffffffffffffffffff\n      and\n      sub\n        /* \"watermelon.sol\":19082:19216  if(investments[_address].user_address==_address){... */\n      tag_179\n      jumpi\n        /* \"watermelon.sol\":19151:19155  true */\n      0x01\n        /* \"watermelon.sol\":19144:19155  return true */\n      swap2\n      pop\n      pop\n      jump(tag_178)\n        /* \"watermelon.sol\":19082:19216  if(investments[_address].user_address==_address){... */\n    tag_179:\n        /* \"watermelon.sol\":19200:19205  false */\n      0x00\n        /* \"watermelon.sol\":19193:19205  return false */\n      swap2\n      pop\n      pop\n        /* \"watermelon.sol\":18983:19222  function checkAlready() public view returns(bool) {... */\n    tag_178:\n      swap1\n      jump\t// out\n        /* \"watermelon.sol\":19363:19496  function refFee(uint256 _amount) public pure returns(uint256) {... */\n    tag_65:\n        /* \"watermelon.sol\":19416:19423  uint256 */\n      0x00\n        /* \"watermelon.sol\":19442:19489  SafeMath.div(SafeMath.mul(_amount,ref_fee),100) */\n      tag_182\n        /* \"watermelon.sol\":19455:19484  SafeMath.mul(_amount,ref_fee) */\n      tag_183\n        /* \"watermelon.sol\":19468:19475  _amount */\n      dup4\n        /* \"watermelon.sol\":9028:9029  5 */\n      0x05\n        /* \"watermelon.sol\":19455:19467  SafeMath.mul */\n      tag_170\n        /* \"watermelon.sol\":19455:19484  SafeMath.mul(_amount,ref_fee) */\n      jump\t// in\n    tag_183:\n        /* \"watermelon.sol\":19485:19488  100 */\n      0x64\n        /* \"watermelon.sol\":19442:19454  SafeMath.div */\n      tag_166\n        /* \"watermelon.sol\":19442:19489  SafeMath.div(SafeMath.mul(_amount,ref_fee),100) */\n      jump\t// in\n    tag_182:\n        /* \"watermelon.sol\":19435:19489  return SafeMath.div(SafeMath.mul(_amount,ref_fee),100) */\n      swap1\n      pop\n        /* \"watermelon.sol\":19363:19496  function refFee(uint256 _amount) public pure returns(uint256) {... */\n      swap2\n      swap1\n      pop\n      jump\t// out\n        /* \"watermelon.sol\":10353:10401  mapping(address => weeklyWithdraw) public weekly */\n    tag_69:\n      mstore(0x20, 0x07)\n      dup1\n      0x00\n      mstore\n      keccak256(0x00, 0x40)\n      0x00\n      swap2\n      pop\n      swap1\n      pop\n      dup1\n      0x00\n      add\n      0x00\n      swap1\n      sload\n      swap1\n      0x0100\n      exp\n      swap1\n      div\n      0xffffffffffffffffffffffffffffffffffffffff\n      and\n      swap1\n      dup1\n      0x01\n      add\n      sload\n      swap1\n      dup1\n      0x02\n      add\n      sload\n      swap1\n      pop\n      dup4\n      jump\t// out\n        /* \"watermelon.sol\":18745:18815  function signal_market() public onlyOwner {... */\n    tag_73:\n        /* \"watermelon.sol\":7946:7958  _msgSender() */\n      tag_185\n        /* \"watermelon.sol\":7946:7956  _msgSender */\n      tag_186\n        /* \"watermelon.sol\":7946:7958  _msgSender() */\n      jump\t// in\n    tag_185:\n        /* \"watermelon.sol\":7936:7958  _owner == _msgSender() */\n      0xffffffffffffffffffffffffffffffffffffffff\n      and\n        /* \"watermelon.sol\":7936:7942  _owner */\n      0x00\n      dup1\n      sload\n      swap1\n      0x0100\n      exp\n      swap1\n      div\n      0xffffffffffffffffffffffffffffffffffffffff\n      and\n        /* \"watermelon.sol\":7936:7958  _owner == _msgSender() */\n      0xffffffffffffffffffffffffffffffffffffffff\n      and\n      eq\n        /* \"watermelon.sol\":7928:7995  require(_owner == _msgSender(), \"Ownable: caller is not the owner\") */\n      tag_187\n      jumpi\n      mload(0x40)\n      0x08c379a000000000000000000000000000000000000000000000000000000000\n      dup2\n      mstore\n      0x04\n      add\n      tag_188\n      swap1\n      tag_189\n      jump\t// in\n    tag_188:\n      mload(0x40)\n      dup1\n      swap2\n      sub\n      swap1\n      revert\n    tag_187:\n        /* \"watermelon.sol\":18804:18808  true */\n      0x01\n        /* \"watermelon.sol\":18797:18801  init */\n      0x04\n      0x14\n        /* \"watermelon.sol\":18797:18808  init = true */\n      0x0100\n      exp\n      dup2\n      sload\n      dup2\n      0xff\n      mul\n      not\n      and\n      swap1\n      dup4\n      iszero\n      iszero\n      mul\n      or\n      swap1\n      sstore\n      pop\n        /* \"watermelon.sol\":18745:18815  function signal_market() public onlyOwner {... */\n      jump\t// out\n        /* \"watermelon.sol\":19228:19357  function depositFee(uint256 _amount) public pure returns(uint256){... */\n    tag_76:\n        /* \"watermelon.sol\":19285:19292  uint256 */\n      0x00\n        /* \"watermelon.sol\":19307:19350  SafeMath.div(SafeMath.mul(_amount,fee),100) */\n      tag_192\n        /* \"watermelon.sol\":19320:19345  SafeMath.mul(_amount,fee) */\n      tag_193\n        /* \"watermelon.sol\":19333:19340  _amount */\n      dup4\n        /* \"watermelon.sol\":8941:8942  1 */\n      0x01\n        /* \"watermelon.sol\":19320:19332  SafeMath.mul */\n      tag_170\n        /* \"watermelon.sol\":19320:19345  SafeMath.mul(_amount,fee) */\n      jump\t// in\n    tag_193:\n        /* \"watermelon.sol\":19346:19349  100 */\n      0x64\n        /* \"watermelon.sol\":19307:19319  SafeMath.div */\n      tag_166\n        /* \"watermelon.sol\":19307:19350  SafeMath.div(SafeMath.mul(_amount,fee),100) */\n      jump\t// in\n    tag_192:\n        /* \"watermelon.sol\":19300:19350  return SafeMath.div(SafeMath.mul(_amount,fee),100) */\n      swap1\n      pop\n        /* \"watermelon.sol\":19228:19357  function depositFee(uint256 _amount) public pure returns(uint256){... */\n      swap2\n      swap1\n      pop\n      jump\t// out\n        /* \"watermelon.sol\":10745:14241  function deposit(address _ref, uint256 _amount) public noReentrant  {... */\n    tag_81:\n        /* \"watermelon.sol\":8599:8605  locked */\n      0x00\n      0x14\n      swap1\n      sload\n      swap1\n      0x0100\n      exp\n      swap1\n      div\n      0xff\n      and\n        /* \"watermelon.sol\":8598:8605  !locked */\n      iszero\n        /* \"watermelon.sol\":8590:8624  require(!locked, \"No re-entrancy\") */\n      tag_195\n      jumpi\n      mload(0x40)\n      0x08c379a000000000000000000000000000000000000000000000000000000000\n      dup2\n      mstore\n      0x04\n      add\n      tag_196\n      swap1\n      tag_197\n      jump\t// in\n    tag_196:\n      mload(0x40)\n      dup1\n      swap2\n      sub\n      swap1\n      revert\n    tag_195:\n        /* \"watermelon.sol\":8643:8647  true */\n      0x01\n        /* \"watermelon.sol\":8634:8640  locked */\n      0x00\n      0x14\n        /* \"watermelon.sol\":8634:8647  locked = true */\n      0x0100\n      exp\n      dup2\n      sload\n      dup2\n      0xff\n      mul\n      not\n      and\n      swap1\n      dup4\n      iszero\n      iszero\n      mul\n      or\n      swap1\n      sstore\n      pop\n        /* \"watermelon.sol\":10831:10835  init */\n      0x04\n      0x14\n      swap1\n      sload\n      swap1\n      0x0100\n      exp\n      swap1\n      div\n      0xff\n      and\n        /* \"watermelon.sol\":10823:10871  require(init, \"The service has not started yet\") */\n      tag_199\n      jumpi\n      mload(0x40)\n      0x08c379a000000000000000000000000000000000000000000000000000000000\n      dup2\n      mstore\n      0x04\n      add\n      tag_200\n      swap1\n      tag_201\n      jump\t// in\n    tag_200:\n      mload(0x40)\n      dup1\n      swap2\n      sub\n      swap1\n      revert\n    tag_199:\n        /* \"watermelon.sol\":8823:8831  10 ether */\n      0x8ac7230489e80000\n        /* \"watermelon.sol\":10889:10896  _amount */\n      dup2\n        /* \"watermelon.sol\":10889:10901  _amount>=min */\n      lt\n      iszero\n        /* \"watermelon.sol\":10889:10919  _amount>=min && _amount <= max */\n      dup1\n      iszero\n      tag_202\n      jumpi\n      pop\n        /* \"watermelon.sol\":8867:8877  5000 ether */\n      0x010f0cf064dd59200000\n        /* \"watermelon.sol\":10905:10912  _amount */\n      dup2\n        /* \"watermelon.sol\":10905:10919  _amount <= max */\n      gt\n      iszero\n        /* \"watermelon.sol\":10889:10919  _amount>=min && _amount <= max */\n    tag_202:\n        /* \"watermelon.sol\":10881:10984  require(_amount>=min && _amount <= max, \"The amount inserted is either below minimum or above maximum\") */\n      tag_203\n      jumpi\n      mload(0x40)\n      0x08c379a000000000000000000000000000000000000000000000000000000000\n      dup2\n      mstore\n      0x04\n      add\n      tag_204\n      swap1\n      tag_205\n      jump\t// in\n    tag_204:\n      mload(0x40)\n      dup1\n      swap2\n      sub\n      swap1\n      revert\n    tag_203:\n        /* \"watermelon.sol\":11006:11020  checkAlready() */\n      tag_206\n        /* \"watermelon.sol\":11006:11018  checkAlready */\n      tag_59\n        /* \"watermelon.sol\":11006:11020  checkAlready() */\n      jump\t// in\n    tag_206:\n        /* \"watermelon.sol\":11002:14235  if(!checkAlready()){... */\n      tag_207\n      jumpi\n        /* \"watermelon.sol\":11031:11050  uint256 ref_fee_add */\n      0x00\n        /* \"watermelon.sol\":11053:11068  refFee(_amount) */\n      tag_208\n        /* \"watermelon.sol\":11060:11067  _amount */\n      dup3\n        /* \"watermelon.sol\":11053:11059  refFee */\n      tag_65\n        /* \"watermelon.sol\":11053:11068  refFee(_amount) */\n      jump\t// in\n    tag_208:\n        /* \"watermelon.sol\":11031:11068  uint256 ref_fee_add = refFee(_amount) */\n      swap1\n      pop\n        /* \"watermelon.sol\":11097:11098  0 */\n      0x00\n        /* \"watermelon.sol\":11081:11099  _ref != address(0) */\n      0xffffffffffffffffffffffffffffffffffffffff\n      and\n        /* \"watermelon.sol\":11081:11085  _ref */\n      dup4\n        /* \"watermelon.sol\":11081:11099  _ref != address(0) */\n      0xffffffffffffffffffffffffffffffffffffffff\n      and\n      eq\n      iszero\n        /* \"watermelon.sol\":11081:11121  _ref != address(0) && _ref != msg.sender */\n      dup1\n      iszero\n      tag_209\n      jumpi\n      pop\n        /* \"watermelon.sol\":11111:11121  msg.sender */\n      caller\n        /* \"watermelon.sol\":11103:11121  _ref != msg.sender */\n      0xffffffffffffffffffffffffffffffffffffffff\n      and\n        /* \"watermelon.sol\":11103:11107  _ref */\n      dup4\n        /* \"watermelon.sol\":11103:11121  _ref != msg.sender */\n      0xffffffffffffffffffffffffffffffffffffffff\n      and\n      eq\n      iszero\n        /* \"watermelon.sol\":11081:11121  _ref != address(0) && _ref != msg.sender */\n    tag_209:\n        /* \"watermelon.sol\":11078:11560  if(_ref != address(0) && _ref != msg.sender) {... */\n      iszero\n      tag_210\n      jumpi\n        /* \"watermelon.sol\":11134:11158  uint256 ref_last_balance */\n      0x00\n        /* \"watermelon.sol\":11161:11169  refferal */\n      0x05\n        /* \"watermelon.sol\":11161:11175  refferal[_ref] */\n      0x00\n        /* \"watermelon.sol\":11170:11174  _ref */\n      dup6\n        /* \"watermelon.sol\":11161:11175  refferal[_ref] */\n      0xffffffffffffffffffffffffffffffffffffffff\n      and\n      0xffffffffffffffffffffffffffffffffffffffff\n      and\n      dup2\n      mstore\n      0x20\n      add\n      swap1\n      dup2\n      mstore\n      0x20\n      add\n      0x00\n      keccak256\n        /* \"watermelon.sol\":11161:11182  refferal[_ref].reward */\n      0x01\n      add\n      sload\n        /* \"watermelon.sol\":11134:11182  uint256 ref_last_balance = refferal[_ref].reward */\n      swap1\n      pop\n        /* \"watermelon.sol\":11193:11212  uint256 totalRefFee */\n      0x00\n        /* \"watermelon.sol\":11215:11257  SafeMath.add(ref_fee_add,ref_last_balance) */\n      tag_211\n        /* \"watermelon.sol\":11228:11239  ref_fee_add */\n      dup4\n        /* \"watermelon.sol\":11240:11256  ref_last_balance */\n      dup4\n        /* \"watermelon.sol\":11215:11227  SafeMath.add */\n      tag_212\n        /* \"watermelon.sol\":11215:11257  SafeMath.add(ref_fee_add,ref_last_balance) */\n      jump\t// in\n    tag_211:\n        /* \"watermelon.sol\":11193:11257  uint256 totalRefFee = SafeMath.add(ref_fee_add,ref_last_balance) */\n      swap1\n      pop\n        /* \"watermelon.sol\":11288:11321  refferal_system(_ref,totalRefFee) */\n      mload(0x40)\n      dup1\n      0x40\n      add\n      0x40\n      mstore\n      dup1\n        /* \"watermelon.sol\":11304:11308  _ref */\n      dup7\n        /* \"watermelon.sol\":11288:11321  refferal_system(_ref,totalRefFee) */\n      0xffffffffffffffffffffffffffffffffffffffff\n      and\n      dup2\n      mstore\n      0x20\n      add\n        /* \"watermelon.sol\":11309:11320  totalRefFee */\n      dup3\n        /* \"watermelon.sol\":11288:11321  refferal_system(_ref,totalRefFee) */\n      dup2\n      mstore\n      pop\n        /* \"watermelon.sol\":11271:11279  refferal */\n      0x05\n        /* \"watermelon.sol\":11271:11285  refferal[_ref] */\n      0x00\n        /* \"watermelon.sol\":11280:11284  _ref */\n      dup8\n        /* \"watermelon.sol\":11271:11285  refferal[_ref] */\n      0xffffffffffffffffffffffffffffffffffffffff\n      and\n      0xffffffffffffffffffffffffffffffffffffffff\n      and\n      dup2\n      mstore\n      0x20\n      add\n      swap1\n      dup2\n      mstore\n      0x20\n      add\n      0x00\n      keccak256\n        /* \"watermelon.sol\":11271:11321  refferal[_ref] = refferal_system(_ref,totalRefFee) */\n      0x00\n      dup3\n      add\n      mload\n      dup2\n      0x00\n      add\n      exp(0x0100, 0x00)\n      dup2\n      sload\n      dup2\n      0xffffffffffffffffffffffffffffffffffffffff\n      mul\n      not\n      and\n      swap1\n      dup4\n      0xffffffffffffffffffffffffffffffffffffffff\n      and\n      mul\n      or\n      swap1\n      sstore\n      pop\n      0x20\n      dup3\n      add\n      mload\n      dup2\n      0x01\n      add\n      sstore\n      swap1\n      pop\n      pop\n        /* \"watermelon.sol\":11123:11332  {... */\n      pop\n      pop\n        /* \"watermelon.sol\":11078:11560  if(_ref != address(0) && _ref != msg.sender) {... */\n      jump(tag_213)\n    tag_210:\n        /* \"watermelon.sol\":11360:11384  uint256 ref_last_balance */\n      0x00\n        /* \"watermelon.sol\":11387:11395  refferal */\n      0x05\n        /* \"watermelon.sol\":11387:11400  refferal[dev] */\n      0x00\n        /* \"watermelon.sol\":11396:11399  dev */\n      0x02\n      0x00\n      swap1\n      sload\n      swap1\n      0x0100\n      exp\n      swap1\n      div\n      0xffffffffffffffffffffffffffffffffffffffff\n      and\n        /* \"watermelon.sol\":11387:11400  refferal[dev] */\n      0xffffffffffffffffffffffffffffffffffffffff\n      and\n      0xffffffffffffffffffffffffffffffffffffffff\n      and\n      dup2\n      mstore\n      0x20\n      add\n      swap1\n      dup2\n      mstore\n      0x20\n      add\n      0x00\n      keccak256\n        /* \"watermelon.sol\":11387:11407  refferal[dev].reward */\n      0x01\n      add\n      sload\n        /* \"watermelon.sol\":11360:11407  uint256 ref_last_balance = refferal[dev].reward */\n      swap1\n      pop\n        /* \"watermelon.sol\":11421:11440  uint256 totalRefFee */\n      0x00\n        /* \"watermelon.sol\":11443:11485  SafeMath.add(ref_fee_add,ref_last_balance) */\n      tag_214\n        /* \"watermelon.sol\":11456:11467  ref_fee_add */\n      dup4\n        /* \"watermelon.sol\":11468:11484  ref_last_balance */\n      dup4\n        /* \"watermelon.sol\":11443:11455  SafeMath.add */\n      tag_212\n        /* \"watermelon.sol\":11443:11485  SafeMath.add(ref_fee_add,ref_last_balance) */\n      jump\t// in\n    tag_214:\n        /* \"watermelon.sol\":11421:11485  uint256 totalRefFee = SafeMath.add(ref_fee_add,ref_last_balance) */\n      swap1\n      pop\n        /* \"watermelon.sol\":11517:11549  refferal_system(dev,totalRefFee) */\n      mload(0x40)\n      dup1\n      0x40\n      add\n      0x40\n      mstore\n      dup1\n        /* \"watermelon.sol\":11533:11536  dev */\n      0x02\n      0x00\n      swap1\n      sload\n      swap1\n      0x0100\n      exp\n      swap1\n      div\n      0xffffffffffffffffffffffffffffffffffffffff\n      and\n        /* \"watermelon.sol\":11517:11549  refferal_system(dev,totalRefFee) */\n      0xffffffffffffffffffffffffffffffffffffffff\n      and\n      dup2\n      mstore\n      0x20\n      add\n        /* \"watermelon.sol\":11537:11548  totalRefFee */\n      dup3\n        /* \"watermelon.sol\":11517:11549  refferal_system(dev,totalRefFee) */\n      dup2\n      mstore\n      pop\n        /* \"watermelon.sol\":11501:11509  refferal */\n      0x05\n        /* \"watermelon.sol\":11501:11514  refferal[dev] */\n      0x00\n        /* \"watermelon.sol\":11510:11513  dev */\n      0x02\n      0x00\n      swap1\n      sload\n      swap1\n      0x0100\n      exp\n      swap1\n      div\n      0xffffffffffffffffffffffffffffffffffffffff\n      and\n        /* \"watermelon.sol\":11501:11514  refferal[dev] */\n      0xffffffffffffffffffffffffffffffffffffffff\n      and\n      0xffffffffffffffffffffffffffffffffffffffff\n      and\n      dup2\n      mstore\n      0x20\n      add\n      swap1\n      dup2\n      mstore\n      0x20\n      add\n      0x00\n      keccak256\n        /* \"watermelon.sol\":11501:11549  refferal[dev] = refferal_system(dev,totalRefFee) */\n      0x00\n      dup3\n      add\n      mload\n      dup2\n      0x00\n      add\n      exp(0x0100, 0x00)\n      dup2\n      sload\n      dup2\n      0xffffffffffffffffffffffffffffffffffffffff\n      mul\n      not\n      and\n      swap1\n      dup4\n      0xffffffffffffffffffffffffffffffffffffffff\n      and\n      mul\n      or\n      swap1\n      sstore\n      pop\n      0x20\n      dup3\n      add\n      mload\n      dup2\n      0x01\n      add\n      sstore\n      swap1\n      pop\n      pop\n        /* \"watermelon.sol\":11346:11560  {... */\n      pop\n      pop\n        /* \"watermelon.sol\":11078:11560  if(_ref != address(0) && _ref != msg.sender) {... */\n    tag_213:\n        /* \"watermelon.sol\":11600:11626  uint256 userLastInvestment */\n      0x00\n        /* \"watermelon.sol\":11629:11640  investments */\n      0x06\n        /* \"watermelon.sol\":11629:11652  investments[msg.sender] */\n      0x00\n        /* \"watermelon.sol\":11641:11651  msg.sender */\n      caller\n        /* \"watermelon.sol\":11629:11652  investments[msg.sender] */\n      0xffffffffffffffffffffffffffffffffffffffff\n      and\n      0xffffffffffffffffffffffffffffffffffffffff\n      and\n      dup2\n      mstore\n      0x20\n      add\n      swap1\n      dup2\n      mstore\n      0x20\n      add\n      0x00\n      keccak256\n        /* \"watermelon.sol\":11629:11661  investments[msg.sender].invested */\n      0x01\n      add\n      sload\n        /* \"watermelon.sol\":11600:11661  uint256 userLastInvestment = investments[msg.sender].invested */\n      swap1\n      pop\n        /* \"watermelon.sol\":11671:11700  uint256 userCurrentInvestment */\n      0x00\n        /* \"watermelon.sol\":11703:11710  _amount */\n      dup4\n        /* \"watermelon.sol\":11671:11710  uint256 userCurrentInvestment = _amount */\n      swap1\n      pop\n        /* \"watermelon.sol\":11720:11743  uint256 totalInvestment */\n      0x00\n        /* \"watermelon.sol\":11746:11800  SafeMath.add(userLastInvestment,userCurrentInvestment) */\n      tag_215\n        /* \"watermelon.sol\":11759:11777  userLastInvestment */\n      dup4\n        /* \"watermelon.sol\":11778:11799  userCurrentInvestment */\n      dup4\n        /* \"watermelon.sol\":11746:11758  SafeMath.add */\n      tag_212\n        /* \"watermelon.sol\":11746:11800  SafeMath.add(userLastInvestment,userCurrentInvestment) */\n      jump\t// in\n    tag_215:\n        /* \"watermelon.sol\":11720:11800  uint256 totalInvestment = SafeMath.add(userLastInvestment,userCurrentInvestment) */\n      swap1\n      pop\n        /* \"watermelon.sol\":11836:11887  user_investment_details(msg.sender,totalInvestment) */\n      mload(0x40)\n      dup1\n      0x40\n      add\n      0x40\n      mstore\n      dup1\n        /* \"watermelon.sol\":11860:11870  msg.sender */\n      caller\n        /* \"watermelon.sol\":11836:11887  user_investment_details(msg.sender,totalInvestment) */\n      0xffffffffffffffffffffffffffffffffffffffff\n      and\n      dup2\n      mstore\n      0x20\n      add\n        /* \"watermelon.sol\":11871:11886  totalInvestment */\n      dup3\n        /* \"watermelon.sol\":11836:11887  user_investment_details(msg.sender,totalInvestment) */\n      dup2\n      mstore\n      pop\n        /* \"watermelon.sol\":11810:11821  investments */\n      0x06\n        /* \"watermelon.sol\":11810:11833  investments[msg.sender] */\n      0x00\n        /* \"watermelon.sol\":11822:11832  msg.sender */\n      caller\n        /* \"watermelon.sol\":11810:11833  investments[msg.sender] */\n      0xffffffffffffffffffffffffffffffffffffffff\n      and\n      0xffffffffffffffffffffffffffffffffffffffff\n      and\n      dup2\n      mstore\n      0x20\n      add\n      swap1\n      dup2\n      mstore\n      0x20\n      add\n      0x00\n      keccak256\n        /* \"watermelon.sol\":11810:11887  investments[msg.sender] = user_investment_details(msg.sender,totalInvestment) */\n      0x00\n      dup3\n      add\n      mload\n      dup2\n      0x00\n      add\n      exp(0x0100, 0x00)\n      dup2\n      sload\n      dup2\n      0xffffffffffffffffffffffffffffffffffffffff\n      mul\n      not\n      and\n      swap1\n      dup4\n      0xffffffffffffffffffffffffffffffffffffffff\n      and\n      mul\n      or\n      swap1\n      sstore\n      pop\n      0x20\n      dup3\n      add\n      mload\n      dup2\n      0x01\n      add\n      sstore\n      swap1\n      pop\n      pop\n        /* \"watermelon.sol\":11926:11945  uint256 weeklyStart */\n      0x00\n        /* \"watermelon.sol\":11948:11963  block.timestamp */\n      timestamp\n        /* \"watermelon.sol\":11926:11963  uint256 weeklyStart = block.timestamp */\n      swap1\n      pop\n        /* \"watermelon.sol\":11973:11996  uint256 deadline_weekly */\n      0x00\n        /* \"watermelon.sol\":12017:12023  7 days */\n      0x093a80\n        /* \"watermelon.sol\":11999:12014  block.timestamp */\n      timestamp\n        /* \"watermelon.sol\":11999:12023  block.timestamp + 7 days */\n      tag_216\n      swap2\n      swap1\n      tag_217\n      jump\t// in\n    tag_216:\n        /* \"watermelon.sol\":11973:12023  uint256 deadline_weekly = block.timestamp + 7 days */\n      swap1\n      pop\n        /* \"watermelon.sol\":12055:12109  weeklyWithdraw(msg.sender,weeklyStart,deadline_weekly) */\n      mload(0x40)\n      dup1\n      0x60\n      add\n      0x40\n      mstore\n      dup1\n        /* \"watermelon.sol\":12070:12080  msg.sender */\n      caller\n        /* \"watermelon.sol\":12055:12109  weeklyWithdraw(msg.sender,weeklyStart,deadline_weekly) */\n      0xffffffffffffffffffffffffffffffffffffffff\n      and\n      dup2\n      mstore\n      0x20\n      add\n        /* \"watermelon.sol\":12081:12092  weeklyStart */\n      dup4\n        /* \"watermelon.sol\":12055:12109  weeklyWithdraw(msg.sender,weeklyStart,deadline_weekly) */\n      dup2\n      mstore\n      0x20\n      add\n        /* \"watermelon.sol\":12093:12108  deadline_weekly */\n      dup3\n        /* \"watermelon.sol\":12055:12109  weeklyWithdraw(msg.sender,weeklyStart,deadline_weekly) */\n      dup2\n      mstore\n      pop\n        /* \"watermelon.sol\":12034:12040  weekly */\n      0x07\n        /* \"watermelon.sol\":12034:12052  weekly[msg.sender] */\n      0x00\n        /* \"watermelon.sol\":12041:12051  msg.sender */\n      caller\n        /* \"watermelon.sol\":12034:12052  weekly[msg.sender] */\n      0xffffffffffffffffffffffffffffffffffffffff\n      and\n      0xffffffffffffffffffffffffffffffffffffffff\n      and\n      dup2\n      mstore\n      0x20\n      add\n      swap1\n      dup2\n      mstore\n      0x20\n      add\n      0x00\n      keccak256\n        /* \"watermelon.sol\":12034:12109  weekly[msg.sender] = weeklyWithdraw(msg.sender,weeklyStart,deadline_weekly) */\n      0x00\n      dup3\n      add\n      mload\n      dup2\n      0x00\n      add\n      exp(0x0100, 0x00)\n      dup2\n      sload\n      dup2\n      0xffffffffffffffffffffffffffffffffffffffff\n      mul\n      not\n      and\n      swap1\n      dup4\n      0xffffffffffffffffffffffffffffffffffffffff\n      and\n      mul\n      or\n      swap1\n      sstore\n      pop\n      0x20\n      dup3\n      add\n      mload\n      dup2\n      0x01\n      add\n      sstore\n      0x40\n      dup3\n      add\n      mload\n      dup2\n      0x02\n      add\n      sstore\n      swap1\n      pop\n      pop\n        /* \"watermelon.sol\":12144:12166  uint256 claimTimeStart */\n      0x00\n        /* \"watermelon.sol\":12169:12184  block.timestamp */\n      timestamp\n        /* \"watermelon.sol\":12144:12184  uint256 claimTimeStart = block.timestamp */\n      swap1\n      pop\n        /* \"watermelon.sol\":12193:12213  uint256 claimTimeEnd */\n      0x00\n        /* \"watermelon.sol\":12234:12240  1 days */\n      0x015180\n        /* \"watermelon.sol\":12216:12231  block.timestamp */\n      timestamp\n        /* \"watermelon.sol\":12216:12240  block.timestamp + 1 days */\n      tag_218\n      swap2\n      swap1\n      tag_217\n      jump\t// in\n    tag_218:\n        /* \"watermelon.sol\":12193:12240  uint256 claimTimeEnd = block.timestamp + 1 days */\n      swap1\n      pop\n        /* \"watermelon.sol\":12274:12324  claimDaily(msg.sender,claimTimeStart,claimTimeEnd) */\n      mload(0x40)\n      dup1\n      0x60\n      add\n      0x40\n      mstore\n      dup1\n        /* \"watermelon.sol\":12285:12295  msg.sender */\n      caller\n        /* \"watermelon.sol\":12274:12324  claimDaily(msg.sender,claimTimeStart,claimTimeEnd) */\n      0xffffffffffffffffffffffffffffffffffffffff\n      and\n      dup2\n      mstore\n      0x20\n      add\n        /* \"watermelon.sol\":12296:12310  claimTimeStart */\n      dup4\n        /* \"watermelon.sol\":12274:12324  claimDaily(msg.sender,claimTimeStart,claimTimeEnd) */\n      dup2\n      mstore\n      0x20\n      add\n        /* \"watermelon.sol\":12311:12323  claimTimeEnd */\n      dup3\n        /* \"watermelon.sol\":12274:12324  claimDaily(msg.sender,claimTimeStart,claimTimeEnd) */\n      dup2\n      mstore\n      pop\n        /* \"watermelon.sol\":12250:12259  claimTime */\n      0x08\n        /* \"watermelon.sol\":12250:12271  claimTime[msg.sender] */\n      0x00\n        /* \"watermelon.sol\":12260:12270  msg.sender */\n      caller\n        /* \"watermelon.sol\":12250:12271  claimTime[msg.sender] */\n      0xffffffffffffffffffffffffffffffffffffffff\n      and\n      0xffffffffffffffffffffffffffffffffffffffff\n      and\n      dup2\n      mstore\n      0x20\n      add\n      swap1\n      dup2\n      mstore\n      0x20\n      add\n      0x00\n      keccak256\n        /* \"watermelon.sol\":12250:12324  claimTime[msg.sender] = claimDaily(msg.sender,claimTimeStart,claimTimeEnd) */\n      0x00\n      dup3\n      add\n      mload\n      dup2\n      0x00\n      add\n      exp(0x0100, 0x00)\n      dup2\n      sload\n      dup2\n      0xffffffffffffffffffffffffffffffffffffffff\n      mul\n      not\n      and\n      swap1\n      dup4\n      0xffffffffffffffffffffffffffffffffffffffff\n      and\n      mul\n      or\n      swap1\n      sstore\n      pop\n      0x20\n      dup3\n      add\n      mload\n      dup2\n      0x01\n      add\n      sstore\n      0x40\n      dup3\n      add\n      mload\n      dup2\n      0x02\n      add\n      sstore\n      swap1\n      pop\n      pop\n        /* \"watermelon.sol\":12359:12376  uint256 total_fee */\n      0x00\n        /* \"watermelon.sol\":12379:12398  depositFee(_amount) */\n      tag_219\n        /* \"watermelon.sol\":12390:12397  _amount */\n      dup11\n        /* \"watermelon.sol\":12379:12389  depositFee */\n      tag_76\n        /* \"watermelon.sol\":12379:12398  depositFee(_amount) */\n      jump\t// in\n    tag_219:\n        /* \"watermelon.sol\":12359:12398  uint256 total_fee = depositFee(_amount) */\n      swap1\n      pop\n        /* \"watermelon.sol\":12408:12430  uint256 total_contract */\n      0x00\n        /* \"watermelon.sol\":12433:12464  SafeMath.sub(_amount,total_fee) */\n      tag_220\n        /* \"watermelon.sol\":12446:12453  _amount */\n      dup12\n        /* \"watermelon.sol\":12454:12463  total_fee */\n      dup4\n        /* \"watermelon.sol\":12433:12445  SafeMath.sub */\n      tag_164\n        /* \"watermelon.sol\":12433:12464  SafeMath.sub(_amount,total_fee) */\n      jump\t// in\n    tag_220:\n        /* \"watermelon.sol\":12408:12464  uint256 total_contract = SafeMath.sub(_amount,total_fee) */\n      swap1\n      pop\n        /* \"watermelon.sol\":12474:12487  BusdInterface */\n      0x03\n      0x00\n      swap1\n      sload\n      swap1\n      0x0100\n      exp\n      swap1\n      div\n      0xffffffffffffffffffffffffffffffffffffffff\n      and\n        /* \"watermelon.sol\":12474:12500  BusdInterface.transferFrom */\n      0xffffffffffffffffffffffffffffffffffffffff\n      and\n      0x23b872dd\n        /* \"watermelon.sol\":12501:12511  msg.sender */\n      caller\n        /* \"watermelon.sol\":12512:12515  dev */\n      0x02\n      0x00\n      swap1\n      sload\n      swap1\n      0x0100\n      exp\n      swap1\n      div\n      0xffffffffffffffffffffffffffffffffffffffff\n      and\n        /* \"watermelon.sol\":12516:12525  total_fee */\n      dup6\n        /* \"watermelon.sol\":12474:12526  BusdInterface.transferFrom(msg.sender,dev,total_fee) */\n      mload(0x40)\n      dup5\n      0xffffffff\n      and\n      0xe0\n      shl\n      dup2\n      mstore\n      0x04\n      add\n      tag_221\n      swap4\n      swap3\n      swap2\n      swap1\n      tag_222\n      jump\t// in\n    tag_221:\n      0x20\n      mload(0x40)\n      dup1\n      dup4\n      sub\n      dup2\n      0x00\n      dup8\n      gas\n      call\n      iszero\n      dup1\n      iszero\n      tag_224\n      jumpi\n      returndatasize\n      0x00\n      dup1\n      returndatacopy\n      revert(0x00, returndatasize)\n    tag_224:\n      pop\n      pop\n      pop\n      pop\n      mload(0x40)\n      returndatasize\n      not(0x1f)\n      0x1f\n      dup3\n      add\n      and\n      dup3\n      add\n      dup1\n      0x40\n      mstore\n      pop\n      dup2\n      add\n      swap1\n      tag_225\n      swap2\n      swap1\n      tag_226\n      jump\t// in\n    tag_225:\n      pop\n        /* \"watermelon.sol\":12536:12549  BusdInterface */\n      0x03\n      0x00\n      swap1\n      sload\n      swap1\n      0x0100\n      exp\n      swap1\n      div\n      0xffffffffffffffffffffffffffffffffffffffff\n      and\n        /* \"watermelon.sol\":12536:12562  BusdInterface.transferFrom */\n      0xffffffffffffffffffffffffffffffffffffffff\n      and\n      0x23b872dd\n        /* \"watermelon.sol\":12563:12573  msg.sender */\n      caller\n        /* \"watermelon.sol\":12582:12586  this */\n      address\n        /* \"watermelon.sol\":12588:12602  total_contract */\n      dup5\n        /* \"watermelon.sol\":12536:12603  BusdInterface.transferFrom(msg.sender,address(this),total_contract) */\n      mload(0x40)\n      dup5\n      0xffffffff\n      and\n      0xe0\n      shl\n      dup2\n      mstore\n      0x04\n      add\n      tag_227\n      swap4\n      swap3\n      swap2\n      swap1\n      tag_222\n      jump\t// in\n    tag_227:\n      0x20\n      mload(0x40)\n      dup1\n      dup4\n      sub\n      dup2\n      0x00\n      dup8\n      gas\n      call\n      iszero\n      dup1\n      iszero\n      tag_229\n      jumpi\n      returndatasize\n      0x00\n      dup1\n      returndatacopy\n      revert(0x00, returndatasize)\n    tag_229:\n      pop\n      pop\n      pop\n      pop\n      mload(0x40)\n      returndatasize\n      not(0x1f)\n      0x1f\n      dup3\n      add\n      and\n      dup3\n      add\n      dup1\n      0x40\n      mstore\n      pop\n      dup2\n      add\n      swap1\n      tag_230\n      swap2\n      swap1\n      tag_226\n      jump\t// in\n    tag_230:\n      pop\n        /* \"watermelon.sol\":11021:12614  {... */\n      pop\n      pop\n      pop\n      pop\n      pop\n      pop\n      pop\n      pop\n      pop\n      pop\n        /* \"watermelon.sol\":11002:14235  if(!checkAlready()){... */\n      jump(tag_231)\n    tag_207:\n        /* \"watermelon.sol\":12639:12658  uint256 ref_fee_add */\n      0x00\n        /* \"watermelon.sol\":12661:12676  refFee(_amount) */\n      tag_232\n        /* \"watermelon.sol\":12668:12675  _amount */\n      dup3\n        /* \"watermelon.sol\":12661:12667  refFee */\n      tag_65\n        /* \"watermelon.sol\":12661:12676  refFee(_amount) */\n      jump\t// in\n    tag_232:\n        /* \"watermelon.sol\":12639:12676  uint256 ref_fee_add = refFee(_amount) */\n      swap1\n      pop\n        /* \"watermelon.sol\":12705:12706  0 */\n      0x00\n        /* \"watermelon.sol\":12689:12707  _ref != address(0) */\n      0xffffffffffffffffffffffffffffffffffffffff\n      and\n        /* \"watermelon.sol\":12689:12693  _ref */\n      dup4\n        /* \"watermelon.sol\":12689:12707  _ref != address(0) */\n      0xffffffffffffffffffffffffffffffffffffffff\n      and\n      eq\n      iszero\n        /* \"watermelon.sol\":12689:12729  _ref != address(0) && _ref != msg.sender */\n      dup1\n      iszero\n      tag_233\n      jumpi\n      pop\n        /* \"watermelon.sol\":12719:12729  msg.sender */\n      caller\n        /* \"watermelon.sol\":12711:12729  _ref != msg.sender */\n      0xffffffffffffffffffffffffffffffffffffffff\n      and\n        /* \"watermelon.sol\":12711:12715  _ref */\n      dup4\n        /* \"watermelon.sol\":12711:12729  _ref != msg.sender */\n      0xffffffffffffffffffffffffffffffffffffffff\n      and\n      eq\n      iszero\n        /* \"watermelon.sol\":12689:12729  _ref != address(0) && _ref != msg.sender */\n    tag_233:\n        /* \"watermelon.sol\":12686:13168  if(_ref != address(0) && _ref != msg.sender) {... */\n      iszero\n      tag_234\n      jumpi\n        /* \"watermelon.sol\":12742:12766  uint256 ref_last_balance */\n      0x00\n        /* \"watermelon.sol\":12769:12777  refferal */\n      0x05\n        /* \"watermelon.sol\":12769:12783  refferal[_ref] */\n      0x00\n        /* \"watermelon.sol\":12778:12782  _ref */\n      dup6\n        /* \"watermelon.sol\":12769:12783  refferal[_ref] */\n      0xffffffffffffffffffffffffffffffffffffffff\n      and\n      0xffffffffffffffffffffffffffffffffffffffff\n      and\n      dup2\n      mstore\n      0x20\n      add\n      swap1\n      dup2\n      mstore\n      0x20\n      add\n      0x00\n      keccak256\n        /* \"watermelon.sol\":12769:12790  refferal[_ref].reward */\n      0x01\n      add\n      sload\n        /* \"watermelon.sol\":12742:12790  uint256 ref_last_balance = refferal[_ref].reward */\n      swap1\n      pop\n        /* \"watermelon.sol\":12801:12820  uint256 totalRefFee */\n      0x00\n        /* \"watermelon.sol\":12823:12865  SafeMath.add(ref_fee_add,ref_last_balance) */\n      tag_235\n        /* \"watermelon.sol\":12836:12847  ref_fee_add */\n      dup4\n        /* \"watermelon.sol\":12848:12864  ref_last_balance */\n      dup4\n        /* \"watermelon.sol\":12823:12835  SafeMath.add */\n      tag_212\n        /* \"watermelon.sol\":12823:12865  SafeMath.add(ref_fee_add,ref_last_balance) */\n      jump\t// in\n    tag_235:\n        /* \"watermelon.sol\":12801:12865  uint256 totalRefFee = SafeMath.add(ref_fee_add,ref_last_balance) */\n      swap1\n      pop\n        /* \"watermelon.sol\":12896:12929  refferal_system(_ref,totalRefFee) */\n      mload(0x40)\n      dup1\n      0x40\n      add\n      0x40\n      mstore\n      dup1\n        /* \"watermelon.sol\":12912:12916  _ref */\n      dup7\n        /* \"watermelon.sol\":12896:12929  refferal_system(_ref,totalRefFee) */\n      0xffffffffffffffffffffffffffffffffffffffff\n      and\n      dup2\n      mstore\n      0x20\n      add\n        /* \"watermelon.sol\":12917:12928  totalRefFee */\n      dup3\n        /* \"watermelon.sol\":12896:12929  refferal_system(_ref,totalRefFee) */\n      dup2\n      mstore\n      pop\n        /* \"watermelon.sol\":12879:12887  refferal */\n      0x05\n        /* \"watermelon.sol\":12879:12893  refferal[_ref] */\n      0x00\n        /* \"watermelon.sol\":12888:12892  _ref */\n      dup8\n        /* \"watermelon.sol\":12879:12893  refferal[_ref] */\n      0xffffffffffffffffffffffffffffffffffffffff\n      and\n      0xffffffffffffffffffffffffffffffffffffffff\n      and\n      dup2\n      mstore\n      0x20\n      add\n      swap1\n      dup2\n      mstore\n      0x20\n      add\n      0x00\n      keccak256\n        /* \"watermelon.sol\":12879:12929  refferal[_ref] = refferal_system(_ref,totalRefFee) */\n      0x00\n      dup3\n      add\n      mload\n      dup2\n      0x00\n      add\n      exp(0x0100, 0x00)\n      dup2\n      sload\n      dup2\n      0xffffffffffffffffffffffffffffffffffffffff\n      mul\n      not\n      and\n      swap1\n      dup4\n      0xffffffffffffffffffffffffffffffffffffffff\n      and\n      mul\n      or\n      swap1\n      sstore\n      pop\n      0x20\n      dup3\n      add\n      mload\n      dup2\n      0x01\n      add\n      sstore\n      swap1\n      pop\n      pop\n        /* \"watermelon.sol\":12731:12940  {... */\n      pop\n      pop\n        /* \"watermelon.sol\":12686:13168  if(_ref != address(0) && _ref != msg.sender) {... */\n      jump(tag_236)\n    tag_234:\n        /* \"watermelon.sol\":12968:12992  uint256 ref_last_balance */\n      0x00\n        /* \"watermelon.sol\":12995:13003  refferal */\n      0x05\n        /* \"watermelon.sol\":12995:13008  refferal[dev] */\n      0x00\n        /* \"watermelon.sol\":13004:13007  dev */\n      0x02\n      0x00\n      swap1\n      sload\n      swap1\n      0x0100\n      exp\n      swap1\n      div\n      0xffffffffffffffffffffffffffffffffffffffff\n      and\n        /* \"watermelon.sol\":12995:13008  refferal[dev] */\n      0xffffffffffffffffffffffffffffffffffffffff\n      and\n      0xffffffffffffffffffffffffffffffffffffffff\n      and\n      dup2\n      mstore\n      0x20\n      add\n      swap1\n      dup2\n      mstore\n      0x20\n      add\n      0x00\n      keccak256\n        /* \"watermelon.sol\":12995:13015  refferal[dev].reward */\n      0x01\n      add\n      sload\n        /* \"watermelon.sol\":12968:13015  uint256 ref_last_balance = refferal[dev].reward */\n      swap1\n      pop\n        /* \"watermelon.sol\":13029:13048  uint256 totalRefFee */\n      0x00\n        /* \"watermelon.sol\":13051:13093  SafeMath.add(ref_fee_add,ref_last_balance) */\n      tag_237\n        /* \"watermelon.sol\":13064:13075  ref_fee_add */\n      dup4\n        /* \"watermelon.sol\":13076:13092  ref_last_balance */\n      dup4\n        /* \"watermelon.sol\":13051:13063  SafeMath.add */\n      tag_212\n        /* \"watermelon.sol\":13051:13093  SafeMath.add(ref_fee_add,ref_last_balance) */\n      jump\t// in\n    tag_237:\n        /* \"watermelon.sol\":13029:13093  uint256 totalRefFee = SafeMath.add(ref_fee_add,ref_last_balance) */\n      swap1\n      pop\n        /* \"watermelon.sol\":13125:13157  refferal_system(dev,totalRefFee) */\n      mload(0x40)\n      dup1\n      0x40\n      add\n      0x40\n      mstore\n      dup1\n        /* \"watermelon.sol\":13141:13144  dev */\n      0x02\n      0x00\n      swap1\n      sload\n      swap1\n      0x0100\n      exp\n      swap1\n      div\n      0xffffffffffffffffffffffffffffffffffffffff\n      and\n        /* \"watermelon.sol\":13125:13157  refferal_system(dev,totalRefFee) */\n      0xffffffffffffffffffffffffffffffffffffffff\n      and\n      dup2\n      mstore\n      0x20\n      add\n        /* \"watermelon.sol\":13145:13156  totalRefFee */\n      dup3\n        /* \"watermelon.sol\":13125:13157  refferal_system(dev,totalRefFee) */\n      dup2\n      mstore\n      pop\n        /* \"watermelon.sol\":13109:13117  refferal */\n      0x05\n        /* \"watermelon.sol\":13109:13122  refferal[dev] */\n      0x00\n        /* \"watermelon.sol\":13118:13121  dev */\n      0x02\n      0x00\n      swap1\n      sload\n      swap1\n      0x0100\n      exp\n      swap1\n      div\n      0xffffffffffffffffffffffffffffffffffffffff\n      and\n        /* \"watermelon.sol\":13109:13122  refferal[dev] */\n      0xffffffffffffffffffffffffffffffffffffffff\n      and\n      0xffffffffffffffffffffffffffffffffffffffff\n      and\n      dup2\n      mstore\n      0x20\n      add\n      swap1\n      dup2\n      mstore\n      0x20\n      add\n      0x00\n      keccak256\n        /* \"watermelon.sol\":13109:13157  refferal[dev] = refferal_system(dev,totalRefFee) */\n      0x00\n      dup3\n      add\n      mload\n      dup2\n      0x00\n      add\n      exp(0x0100, 0x00)\n      dup2\n      sload\n      dup2\n      0xffffffffffffffffffffffffffffffffffffffff\n      mul\n      not\n      and\n      swap1\n      dup4\n      0xffffffffffffffffffffffffffffffffffffffff\n      and\n      mul\n      or\n      swap1\n      sstore\n      pop\n      0x20\n      dup3\n      add\n      mload\n      dup2\n      0x01\n      add\n      sstore\n      swap1\n      pop\n      pop\n        /* \"watermelon.sol\":12954:13168  {... */\n      pop\n      pop\n        /* \"watermelon.sol\":12686:13168  if(_ref != address(0) && _ref != msg.sender) {... */\n    tag_236:\n        /* \"watermelon.sol\":13208:13234  uint256 userLastInvestment */\n      0x00\n        /* \"watermelon.sol\":13237:13248  investments */\n      0x06\n        /* \"watermelon.sol\":13237:13260  investments[msg.sender] */\n      0x00\n        /* \"watermelon.sol\":13249:13259  msg.sender */\n      caller\n        /* \"watermelon.sol\":13237:13260  investments[msg.sender] */\n      0xffffffffffffffffffffffffffffffffffffffff\n      and\n      0xffffffffffffffffffffffffffffffffffffffff\n      and\n      dup2\n      mstore\n      0x20\n      add\n      swap1\n      dup2\n      mstore\n      0x20\n      add\n      0x00\n      keccak256\n        /* \"watermelon.sol\":13237:13269  investments[msg.sender].invested */\n      0x01\n      add\n      sload\n        /* \"watermelon.sol\":13208:13269  uint256 userLastInvestment = investments[msg.sender].invested */\n      swap1\n      pop\n        /* \"watermelon.sol\":13279:13308  uint256 userCurrentInvestment */\n      0x00\n        /* \"watermelon.sol\":13311:13318  _amount */\n      dup4\n        /* \"watermelon.sol\":13279:13318  uint256 userCurrentInvestment = _amount */\n      swap1\n      pop\n        /* \"watermelon.sol\":13328:13351  uint256 totalInvestment */\n      0x00\n        /* \"watermelon.sol\":13354:13408  SafeMath.add(userLastInvestment,userCurrentInvestment) */\n      tag_238\n        /* \"watermelon.sol\":13367:13385  userLastInvestment */\n      dup4\n        /* \"watermelon.sol\":13386:13407  userCurrentInvestment */\n      dup4\n        /* \"watermelon.sol\":13354:13366  SafeMath.add */\n      tag_212\n        /* \"watermelon.sol\":13354:13408  SafeMath.add(userLastInvestment,userCurrentInvestment) */\n      jump\t// in\n    tag_238:\n        /* \"watermelon.sol\":13328:13408  uint256 totalInvestment = SafeMath.add(userLastInvestment,userCurrentInvestment) */\n      swap1\n      pop\n        /* \"watermelon.sol\":13444:13495  user_investment_details(msg.sender,totalInvestment) */\n      mload(0x40)\n      dup1\n      0x40\n      add\n      0x40\n      mstore\n      dup1\n        /* \"watermelon.sol\":13468:13478  msg.sender */\n      caller\n        /* \"watermelon.sol\":13444:13495  user_investment_details(msg.sender,totalInvestment) */\n      0xffffffffffffffffffffffffffffffffffffffff\n      and\n      dup2\n      mstore\n      0x20\n      add\n        /* \"watermelon.sol\":13479:13494  totalInvestment */\n      dup3\n        /* \"watermelon.sol\":13444:13495  user_investment_details(msg.sender,totalInvestment) */\n      dup2\n      mstore\n      pop\n        /* \"watermelon.sol\":13418:13429  investments */\n      0x06\n        /* \"watermelon.sol\":13418:13441  investments[msg.sender] */\n      0x00\n        /* \"watermelon.sol\":13430:13440  msg.sender */\n      caller\n        /* \"watermelon.sol\":13418:13441  investments[msg.sender] */\n      0xffffffffffffffffffffffffffffffffffffffff\n      and\n      0xffffffffffffffffffffffffffffffffffffffff\n      and\n      dup2\n      mstore\n      0x20\n      add\n      swap1\n      dup2\n      mstore\n      0x20\n      add\n      0x00\n      keccak256\n        /* \"watermelon.sol\":13418:13495  investments[msg.sender] = user_investment_details(msg.sender,totalInvestment) */\n      0x00\n      dup3\n      add\n      mload\n      dup2\n      0x00\n      add\n      exp(0x0100, 0x00)\n      dup2\n      sload\n      dup2\n      0xffffffffffffffffffffffffffffffffffffffff\n      mul\n      not\n      and\n      swap1\n      dup4\n      0xffffffffffffffffffffffffffffffffffffffff\n      and\n      mul\n      or\n      swap1\n      sstore\n      pop\n      0x20\n      dup3\n      add\n      mload\n      dup2\n      0x01\n      add\n      sstore\n      swap1\n      pop\n      pop\n        /* \"watermelon.sol\":13979:13996  uint256 total_fee */\n      0x00\n        /* \"watermelon.sol\":13999:14018  depositFee(_amount) */\n      tag_239\n        /* \"watermelon.sol\":14010:14017  _amount */\n      dup7\n        /* \"watermelon.sol\":13999:14009  depositFee */\n      tag_76\n        /* \"watermelon.sol\":13999:14018  depositFee(_amount) */\n      jump\t// in\n    tag_239:\n        /* \"watermelon.sol\":13979:14018  uint256 total_fee = depositFee(_amount) */\n      swap1\n      pop\n        /* \"watermelon.sol\":14028:14050  uint256 total_contract */\n      0x00\n        /* \"watermelon.sol\":14053:14084  SafeMath.sub(_amount,total_fee) */\n      tag_240\n        /* \"watermelon.sol\":14066:14073  _amount */\n      dup8\n        /* \"watermelon.sol\":14074:14083  total_fee */\n      dup4\n        /* \"watermelon.sol\":14053:14065  SafeMath.sub */\n      tag_164\n        /* \"watermelon.sol\":14053:14084  SafeMath.sub(_amount,total_fee) */\n      jump\t// in\n    tag_240:\n        /* \"watermelon.sol\":14028:14084  uint256 total_contract = SafeMath.sub(_amount,total_fee) */\n      swap1\n      pop\n        /* \"watermelon.sol\":14094:14107  BusdInterface */\n      0x03\n      0x00\n      swap1\n      sload\n      swap1\n      0x0100\n      exp\n      swap1\n      div\n      0xffffffffffffffffffffffffffffffffffffffff\n      and\n        /* \"watermelon.sol\":14094:14120  BusdInterface.transferFrom */\n      0xffffffffffffffffffffffffffffffffffffffff\n      and\n      0x23b872dd\n        /* \"watermelon.sol\":14121:14131  msg.sender */\n      caller\n        /* \"watermelon.sol\":14132:14135  dev */\n      0x02\n      0x00\n      swap1\n      sload\n      swap1\n      0x0100\n      exp\n      swap1\n      div\n      0xffffffffffffffffffffffffffffffffffffffff\n      and\n        /* \"watermelon.sol\":14136:14145  total_fee */\n      dup6\n        /* \"watermelon.sol\":14094:14146  BusdInterface.transferFrom(msg.sender,dev,total_fee) */\n      mload(0x40)\n      dup5\n      0xffffffff\n      and\n      0xe0\n      shl\n      dup2\n      mstore\n      0x04\n      add\n      tag_241\n      swap4\n      swap3\n      swap2\n      swap1\n      tag_222\n      jump\t// in\n    tag_241:\n      0x20\n      mload(0x40)\n      dup1\n      dup4\n      sub\n      dup2\n      0x00\n      dup8\n      gas\n      call\n      iszero\n      dup1\n      iszero\n      tag_243\n      jumpi\n      returndatasize\n      0x00\n      dup1\n      returndatacopy\n      revert(0x00, returndatasize)\n    tag_243:\n      pop\n      pop\n      pop\n      pop\n      mload(0x40)\n      returndatasize\n      not(0x1f)\n      0x1f\n      dup3\n      add\n      and\n      dup3\n      add\n      dup1\n      0x40\n      mstore\n      pop\n      dup2\n      add\n      swap1\n      tag_244\n      swap2\n      swap1\n      tag_226\n      jump\t// in\n    tag_244:\n      pop\n        /* \"watermelon.sol\":14156:14169  BusdInterface */\n      0x03\n      0x00\n      swap1\n      sload\n      swap1\n      0x0100\n      exp\n      swap1\n      div\n      0xffffffffffffffffffffffffffffffffffffffff\n      and\n        /* \"watermelon.sol\":14156:14182  BusdInterface.transferFrom */\n      0xffffffffffffffffffffffffffffffffffffffff\n      and\n      0x23b872dd\n        /* \"watermelon.sol\":14183:14193  msg.sender */\n      caller\n        /* \"watermelon.sol\":14202:14206  this */\n      address\n        /* \"watermelon.sol\":14208:14222  total_contract */\n      dup5\n        /* \"watermelon.sol\":14156:14223  BusdInterface.transferFrom(msg.sender,address(this),total_contract) */\n      mload(0x40)\n      dup5\n      0xffffffff\n      and\n      0xe0\n      shl\n      dup2\n      mstore\n      0x04\n      add\n      tag_245\n      swap4\n      swap3\n      swap2\n      swap1\n      tag_222\n      jump\t// in\n    tag_245:\n      0x20\n      mload(0x40)\n      dup1\n      dup4\n      sub\n      dup2\n      0x00\n      dup8\n      gas\n      call\n      iszero\n      dup1\n      iszero\n      tag_247\n      jumpi\n      returndatasize\n      0x00\n      dup1\n      returndatacopy\n      revert(0x00, returndatasize)\n    tag_247:\n      pop\n      pop\n      pop\n      pop\n      mload(0x40)\n      returndatasize\n      not(0x1f)\n      0x1f\n      dup3\n      add\n      and\n      dup3\n      add\n      dup1\n      0x40\n      mstore\n      pop\n      dup2\n      add\n      swap1\n      tag_248\n      swap2\n      swap1\n      tag_226\n      jump\t// in\n    tag_248:\n      pop\n        /* \"watermelon.sol\":12628:14235  {... */\n      pop\n      pop\n      pop\n      pop\n      pop\n      pop\n        /* \"watermelon.sol\":11002:14235  if(!checkAlready()){... */\n    tag_231:\n        /* \"watermelon.sol\":8677:8682  false */\n      0x00\n        /* \"watermelon.sol\":8668:8674  locked */\n      dup1\n      0x14\n        /* \"watermelon.sol\":8668:8682  locked = false */\n      0x0100\n      exp\n      dup2\n      sload\n      dup2\n      0xff\n      mul\n      not\n      and\n      swap1\n      dup4\n      iszero\n      iszero\n      mul\n      or\n      swap1\n      sstore\n      pop\n        /* \"watermelon.sol\":10745:14241  function deposit(address _ref, uint256 _amount) public noReentrant  {... */\n      pop\n      pop\n      jump\t// out\n        /* \"watermelon.sol\":8883:8905  uint256 public roi = 1 */\n    tag_83:\n      sload(0x01)\n      dup2\n      jump\t// out\n        /* \"watermelon.sol\":10407:10454  mapping(address => claimDaily) public claimTime */\n    tag_87:\n      mstore(0x20, 0x08)\n      dup1\n      0x00\n      mstore\n      keccak256(0x00, 0x40)\n      0x00\n      swap2\n      pop\n      swap1\n      pop\n      dup1\n      0x00\n      add\n      0x00\n      swap1\n      sload\n      swap1\n      0x0100\n      exp\n      swap1\n      div\n      0xffffffffffffffffffffffffffffffffffffffff\n      and\n      swap1\n      dup1\n      0x01\n      add\n      sload\n      swap1\n      dup1\n      0x02\n      add\n      sload\n      swap1\n      pop\n      dup4\n      jump\t// out\n        /* \"watermelon.sol\":18846:18977  function DailyRoi(uint256 _amount) public view returns(uint256) {... */\n    tag_91:\n        /* \"watermelon.sol\":18901:18908  uint256 */\n      0x00\n        /* \"watermelon.sol\":18927:18970  SafeMath.div(SafeMath.mul(_amount,roi),100) */\n      tag_250\n        /* \"watermelon.sol\":18940:18965  SafeMath.mul(_amount,roi) */\n      tag_251\n        /* \"watermelon.sol\":18953:18960  _amount */\n      dup4\n        /* \"watermelon.sol\":18961:18964  roi */\n      sload(0x01)\n        /* \"watermelon.sol\":18940:18952  SafeMath.mul */\n      tag_170\n        /* \"watermelon.sol\":18940:18965  SafeMath.mul(_amount,roi) */\n      jump\t// in\n    tag_251:\n        /* \"watermelon.sol\":18966:18969  100 */\n      0x64\n        /* \"watermelon.sol\":18927:18939  SafeMath.div */\n      tag_166\n        /* \"watermelon.sol\":18927:18970  SafeMath.div(SafeMath.mul(_amount,roi),100) */\n      jump\t// in\n    tag_250:\n        /* \"watermelon.sol\":18920:18970  return SafeMath.div(SafeMath.mul(_amount,roi),100) */\n      swap1\n      pop\n        /* \"watermelon.sol\":18846:18977  function DailyRoi(uint256 _amount) public view returns(uint256) {... */\n      swap2\n      swap1\n      pop\n      jump\t// out\n        /* \"watermelon.sol\":8994:9029  uint256 public constant ref_fee = 5 */\n    tag_94:\n        /* \"watermelon.sol\":9028:9029  5 */\n      0x05\n        /* \"watermelon.sol\":8994:9029  uint256 public constant ref_fee = 5 */\n      dup2\n      jump\t// out\n        /* \"watermelon.sol\":8837:8877  uint256 public constant max = 5000 ether */\n    tag_97:\n        /* \"watermelon.sol\":8867:8877  5000 ether */\n      0x010f0cf064dd59200000\n        /* \"watermelon.sol\":8837:8877  uint256 public constant max = 5000 ether */\n      dup2\n      jump\t// out\n        /* \"watermelon.sol\":8017:8150  function renounceOwnership() public onlyOwner {... */\n    tag_100:\n        /* \"watermelon.sol\":7946:7958  _msgSender() */\n      tag_253\n        /* \"watermelon.sol\":7946:7956  _msgSender */\n      tag_186\n        /* \"watermelon.sol\":7946:7958  _msgSender() */\n      jump\t// in\n    tag_253:\n        /* \"watermelon.sol\":7936:7958  _owner == _msgSender() */\n      0xffffffffffffffffffffffffffffffffffffffff\n      and\n        /* \"watermelon.sol\":7936:7942  _owner */\n      0x00\n      dup1\n      sload\n      swap1\n      0x0100\n      exp\n      swap1\n      div\n      0xffffffffffffffffffffffffffffffffffffffff\n      and\n        /* \"watermelon.sol\":7936:7958  _owner == _msgSender() */\n      0xffffffffffffffffffffffffffffffffffffffff\n      and\n      eq\n        /* \"watermelon.sol\":7928:7995  require(_owner == _msgSender(), \"Ownable: caller is not the owner\") */\n      tag_254\n      jumpi\n      mload(0x40)\n      0x08c379a000000000000000000000000000000000000000000000000000000000\n      dup2\n      mstore\n      0x04\n      add\n      tag_255\n      swap1\n      tag_189\n      jump\t// in\n    tag_255:\n      mload(0x40)\n      dup1\n      swap2\n      sub\n      swap1\n      revert\n    tag_254:\n        /* \"watermelon.sol\":8113:8114  0 */\n      0x00\n        /* \"watermelon.sol\":8076:8116  OwnershipTransferred(_owner, address(0)) */\n      0xffffffffffffffffffffffffffffffffffffffff\n      and\n        /* \"watermelon.sol\":8097:8103  _owner */\n      0x00\n      dup1\n      sload\n      swap1\n      0x0100\n      exp\n      swap1\n      div\n      0xffffffffffffffffffffffffffffffffffffffff\n      and\n        /* \"watermelon.sol\":8076:8116  OwnershipTransferred(_owner, address(0)) */\n      0xffffffffffffffffffffffffffffffffffffffff\n      and\n      0x8be0079c531659141344cd1fd0a4f28419497f9722a3daafe3b4186f6b6457e0\n      mload(0x40)\n      mload(0x40)\n      dup1\n      swap2\n      sub\n      swap1\n      log3\n        /* \"watermelon.sol\":8141:8142  0 */\n      0x00\n        /* \"watermelon.sol\":8124:8130  _owner */\n      dup1\n      0x00\n        /* \"watermelon.sol\":8124:8143  _owner = address(0) */\n      0x0100\n      exp\n      dup2\n      sload\n      dup2\n      0xffffffffffffffffffffffffffffffffffffffff\n      mul\n      not\n      and\n      swap1\n      dup4\n      0xffffffffffffffffffffffffffffffffffffffff\n      and\n      mul\n      or\n      swap1\n      sstore\n      pop\n        /* \"watermelon.sol\":8017:8150  function renounceOwnership() public onlyOwner {... */\n      jump\t// out\n        /* \"watermelon.sol\":17358:18212  function unStake() external noReentrant {... */\n    tag_102:\n        /* \"watermelon.sol\":8599:8605  locked */\n      0x00\n      0x14\n      swap1\n      sload\n      swap1\n      0x0100\n      exp\n      swap1\n      div\n      0xff\n      and\n        /* \"watermelon.sol\":8598:8605  !locked */\n      iszero\n        /* \"watermelon.sol\":8590:8624  require(!locked, \"No re-entrancy\") */\n      tag_258\n      jumpi\n      mload(0x40)\n      0x08c379a000000000000000000000000000000000000000000000000000000000\n      dup2\n      mstore\n      0x04\n      add\n      tag_259\n      swap1\n      tag_197\n      jump\t// in\n    tag_259:\n      mload(0x40)\n      dup1\n      swap2\n      sub\n      swap1\n      revert\n    tag_258:\n        /* \"watermelon.sol\":8643:8647  true */\n      0x01\n        /* \"watermelon.sol\":8634:8640  locked */\n      0x00\n      0x14\n        /* \"watermelon.sol\":8634:8647  locked = true */\n      0x0100\n      exp\n      dup2\n      sload\n      dup2\n      0xff\n      mul\n      not\n      and\n      swap1\n      dup4\n      iszero\n      iszero\n      mul\n      or\n      swap1\n      sstore\n      pop\n        /* \"watermelon.sol\":17416:17420  init */\n      0x04\n      0x14\n      swap1\n      sload\n      swap1\n      0x0100\n      exp\n      swap1\n      div\n      0xff\n      and\n        /* \"watermelon.sol\":17408:17448  require(init, \"Contract not active yet\") */\n      tag_261\n      jumpi\n      mload(0x40)\n      0x08c379a000000000000000000000000000000000000000000000000000000000\n      dup2\n      mstore\n      0x04\n      add\n      tag_262\n      swap1\n      tag_263\n      jump\t// in\n    tag_262:\n      mload(0x40)\n      dup1\n      swap2\n      sub\n      swap1\n      revert\n    tag_261:\n        /* \"watermelon.sol\":17458:17478  uint256 I_investment */\n      0x00\n        /* \"watermelon.sol\":17481:17492  investments */\n      0x06\n        /* \"watermelon.sol\":17481:17504  investments[msg.sender] */\n      0x00\n        /* \"watermelon.sol\":17493:17503  msg.sender */\n      caller\n        /* \"watermelon.sol\":17481:17504  investments[msg.sender] */\n      0xffffffffffffffffffffffffffffffffffffffff\n      and\n      0xffffffffffffffffffffffffffffffffffffffff\n      and\n      dup2\n      mstore\n      0x20\n      add\n      swap1\n      dup2\n      mstore\n      0x20\n      add\n      0x00\n      keccak256\n        /* \"watermelon.sol\":17481:17513  investments[msg.sender].invested */\n      0x01\n      add\n      sload\n        /* \"watermelon.sol\":17458:17513  uint256 I_investment = investments[msg.sender].invested */\n      swap1\n      pop\n        /* \"watermelon.sol\":17523:17541  uint256 t_withdraw */\n      0x00\n        /* \"watermelon.sol\":17544:17557  totalWithdraw */\n      0x0a\n        /* \"watermelon.sol\":17544:17569  totalWithdraw[msg.sender] */\n      0x00\n        /* \"watermelon.sol\":17558:17568  msg.sender */\n      caller\n        /* \"watermelon.sol\":17544:17569  totalWithdraw[msg.sender] */\n      0xffffffffffffffffffffffffffffffffffffffff\n      and\n      0xffffffffffffffffffffffffffffffffffffffff\n      and\n      dup2\n      mstore\n      0x20\n      add\n      swap1\n      dup2\n      mstore\n      0x20\n      add\n      0x00\n      keccak256\n        /* \"watermelon.sol\":17544:17576  totalWithdraw[msg.sender].amount */\n      0x01\n      add\n      sload\n        /* \"watermelon.sol\":17523:17576  uint256 t_withdraw = totalWithdraw[msg.sender].amount */\n      swap1\n      pop\n        /* \"watermelon.sol\":17610:17620  t_withdraw */\n      dup1\n        /* \"watermelon.sol\":17595:17607  I_investment */\n      dup3\n        /* \"watermelon.sol\":17595:17620  I_investment > t_withdraw */\n      gt\n        /* \"watermelon.sol\":17587:17680  require(I_investment > t_withdraw, \"You already withdrew more than the amount you deposited\") */\n      tag_264\n      jumpi\n      mload(0x40)\n      0x08c379a000000000000000000000000000000000000000000000000000000000\n      dup2\n      mstore\n      0x04\n      add\n      tag_265\n      swap1\n      tag_266\n      jump\t// in\n    tag_265:\n      mload(0x40)\n      dup1\n      swap2\n      sub\n      swap1\n      revert\n    tag_264:\n        /* \"watermelon.sol\":17690:17705  uint256 lastFee */\n      0x00\n        /* \"watermelon.sol\":17708:17732  depositFee(I_investment) */\n      tag_267\n        /* \"watermelon.sol\":17719:17731  I_investment */\n      dup4\n        /* \"watermelon.sol\":17708:17718  depositFee */\n      tag_76\n        /* \"watermelon.sol\":17708:17732  depositFee(I_investment) */\n      jump\t// in\n    tag_267:\n        /* \"watermelon.sol\":17690:17732  uint256 lastFee = depositFee(I_investment) */\n      swap1\n      pop\n        /* \"watermelon.sol\":17742:17764  uint256 currentBalance */\n      0x00\n        /* \"watermelon.sol\":17767:17801  SafeMath.sub(I_investment,lastFee) */\n      tag_268\n        /* \"watermelon.sol\":17780:17792  I_investment */\n      dup5\n        /* \"watermelon.sol\":17793:17800  lastFee */\n      dup4\n        /* \"watermelon.sol\":17767:17779  SafeMath.sub */\n      tag_164\n        /* \"watermelon.sol\":17767:17801  SafeMath.sub(I_investment,lastFee) */\n      jump\t// in\n    tag_268:\n        /* \"watermelon.sol\":17742:17801  uint256 currentBalance = SafeMath.sub(I_investment,lastFee) */\n      swap1\n      pop\n        /* \"watermelon.sol\":17812:17832  uint256 UnstakeValue */\n      0x00\n        /* \"watermelon.sol\":17835:17874  SafeMath.sub(currentBalance,t_withdraw) */\n      tag_269\n        /* \"watermelon.sol\":17848:17862  currentBalance */\n      dup3\n        /* \"watermelon.sol\":17863:17873  t_withdraw */\n      dup6\n        /* \"watermelon.sol\":17835:17847  SafeMath.sub */\n      tag_164\n        /* \"watermelon.sol\":17835:17874  SafeMath.sub(currentBalance,t_withdraw) */\n      jump\t// in\n    tag_269:\n        /* \"watermelon.sol\":17812:17874  uint256 UnstakeValue = SafeMath.sub(currentBalance,t_withdraw) */\n      swap1\n      pop\n        /* \"watermelon.sol\":17885:17909  uint256 UnstakeValueCore */\n      0x00\n        /* \"watermelon.sol\":17912:17940  SafeMath.div(UnstakeValue,2) */\n      tag_270\n        /* \"watermelon.sol\":17925:17937  UnstakeValue */\n      dup3\n        /* \"watermelon.sol\":17938:17939  2 */\n      0x02\n        /* \"watermelon.sol\":17912:17924  SafeMath.div */\n      tag_166\n        /* \"watermelon.sol\":17912:17940  SafeMath.div(UnstakeValue,2) */\n      jump\t// in\n    tag_270:\n        /* \"watermelon.sol\":17885:17940  uint256 UnstakeValueCore = SafeMath.div(UnstakeValue,2) */\n      swap1\n      pop\n        /* \"watermelon.sol\":17951:17964  BusdInterface */\n      0x03\n      0x00\n      swap1\n      sload\n      swap1\n      0x0100\n      exp\n      swap1\n      div\n      0xffffffffffffffffffffffffffffffffffffffff\n      and\n        /* \"watermelon.sol\":17951:17973  BusdInterface.transfer */\n      0xffffffffffffffffffffffffffffffffffffffff\n      and\n      0xa9059cbb\n        /* \"watermelon.sol\":17974:17984  msg.sender */\n      caller\n        /* \"watermelon.sol\":17985:18001  UnstakeValueCore */\n      dup4\n        /* \"watermelon.sol\":17951:18002  BusdInterface.transfer(msg.sender,UnstakeValueCore) */\n      mload(0x40)\n      dup4\n      0xffffffff\n      and\n      0xe0\n      shl\n      dup2\n      mstore\n      0x04\n      add\n      tag_271\n      swap3\n      swap2\n      swap1\n      tag_54\n      jump\t// in\n    tag_271:\n      0x20\n      mload(0x40)\n      dup1\n      dup4\n      sub\n      dup2\n      0x00\n      dup8\n      gas\n      call\n      iszero\n      dup1\n      iszero\n      tag_273\n      jumpi\n      returndatasize\n      0x00\n      dup1\n      returndatacopy\n      revert(0x00, returndatasize)\n    tag_273:\n      pop\n      pop\n      pop\n      pop\n      mload(0x40)\n      returndatasize\n      not(0x1f)\n      0x1f\n      dup3\n      add\n      and\n      dup3\n      add\n      dup1\n      0x40\n      mstore\n      pop\n      dup2\n      add\n      swap1\n      tag_274\n      swap2\n      swap1\n      tag_226\n      jump\t// in\n    tag_274:\n      pop\n        /* \"watermelon.sol\":18013:18026  BusdInterface */\n      0x03\n      0x00\n      swap1\n      sload\n      swap1\n      0x0100\n      exp\n      swap1\n      div\n      0xffffffffffffffffffffffffffffffffffffffff\n      and\n        /* \"watermelon.sol\":18013:18035  BusdInterface.transfer */\n      0xffffffffffffffffffffffffffffffffffffffff\n      and\n      0xa9059cbb\n        /* \"watermelon.sol\":18036:18039  dev */\n      0x02\n      0x00\n      swap1\n      sload\n      swap1\n      0x0100\n      exp\n      swap1\n      div\n      0xffffffffffffffffffffffffffffffffffffffff\n      and\n        /* \"watermelon.sol\":18040:18056  UnstakeValueCore */\n      dup4\n        /* \"watermelon.sol\":18013:18057  BusdInterface.transfer(dev,UnstakeValueCore) */\n      mload(0x40)\n      dup4\n      0xffffffff\n      and\n      0xe0\n      shl\n      dup2\n      mstore\n      0x04\n      add\n      tag_275\n      swap3\n      swap2\n      swap1\n      tag_54\n      jump\t// in\n    tag_275:\n      0x20\n      mload(0x40)\n      dup1\n      dup4\n      sub\n      dup2\n      0x00\n      dup8\n      gas\n      call\n      iszero\n      dup1\n      iszero\n      tag_277\n      jumpi\n      returndatasize\n      0x00\n      dup1\n      returndatacopy\n      revert(0x00, returndatasize)\n    tag_277:\n      pop\n      pop\n      pop\n      pop\n      mload(0x40)\n      returndatasize\n      not(0x1f)\n      0x1f\n      dup3\n      add\n      and\n      dup3\n      add\n      dup1\n      0x40\n      mstore\n      pop\n      dup2\n      add\n      swap1\n      tag_278\n      swap2\n      swap1\n      tag_226\n      jump\t// in\n    tag_278:\n      pop\n        /* \"watermelon.sol\":18094:18131  user_investment_details(msg.sender,0) */\n      mload(0x40)\n      dup1\n      0x40\n      add\n      0x40\n      mstore\n      dup1\n        /* \"watermelon.sol\":18118:18128  msg.sender */\n      caller\n        /* \"watermelon.sol\":18094:18131  user_investment_details(msg.sender,0) */\n      0xffffffffffffffffffffffffffffffffffffffff\n      and\n      dup2\n      mstore\n      0x20\n      add\n        /* \"watermelon.sol\":18129:18130  0 */\n      0x00\n        /* \"watermelon.sol\":18094:18131  user_investment_details(msg.sender,0) */\n      dup2\n      mstore\n      pop\n        /* \"watermelon.sol\":18068:18079  investments */\n      0x06\n        /* \"watermelon.sol\":18068:18091  investments[msg.sender] */\n      0x00\n        /* \"watermelon.sol\":18080:18090  msg.sender */\n      caller\n        /* \"watermelon.sol\":18068:18091  investments[msg.sender] */\n      0xffffffffffffffffffffffffffffffffffffffff\n      and\n      0xffffffffffffffffffffffffffffffffffffffff\n      and\n      dup2\n      mstore\n      0x20\n      add\n      swap1\n      dup2\n      mstore\n      0x20\n      add\n      0x00\n      keccak256\n        /* \"watermelon.sol\":18068:18131  investments[msg.sender] = user_investment_details(msg.sender,0) */\n      0x00\n      dup3\n      add\n      mload\n      dup2\n      0x00\n      add\n      exp(0x0100, 0x00)\n      dup2\n      sload\n      dup2\n      0xffffffffffffffffffffffffffffffffffffffff\n      mul\n      not\n      and\n      swap1\n      dup4\n      0xffffffffffffffffffffffffffffffffffffffff\n      and\n      mul\n      or\n      swap1\n      sstore\n      pop\n      0x20\n      dup3\n      add\n      mload\n      dup2\n      0x01\n      add\n      sstore\n      swap1\n      pop\n      pop\n        /* \"watermelon.sol\":18175:18203  userWithdrawal(msg.sender,0) */\n      mload(0x40)\n      dup1\n      0x40\n      add\n      0x40\n      mstore\n      dup1\n        /* \"watermelon.sol\":18190:18200  msg.sender */\n      caller\n        /* \"watermelon.sol\":18175:18203  userWithdrawal(msg.sender,0) */\n      0xffffffffffffffffffffffffffffffffffffffff\n      and\n      dup2\n      mstore\n      0x20\n      add\n        /* \"watermelon.sol\":18201:18202  0 */\n      0x00\n        /* \"watermelon.sol\":18175:18203  userWithdrawal(msg.sender,0) */\n      dup2\n      mstore\n      pop\n        /* \"watermelon.sol\":18142:18160  approvedWithdrawal */\n      0x09\n        /* \"watermelon.sol\":18142:18172  approvedWithdrawal[msg.sender] */\n      0x00\n        /* \"watermelon.sol\":18161:18171  msg.sender */\n      caller\n        /* \"watermelon.sol\":18142:18172  approvedWithdrawal[msg.sender] */\n      0xffffffffffffffffffffffffffffffffffffffff\n      and\n      0xffffffffffffffffffffffffffffffffffffffff\n      and\n      dup2\n      mstore\n      0x20\n      add\n      swap1\n      dup2\n      mstore\n      0x20\n      add\n      0x00\n      keccak256\n        /* \"watermelon.sol\":18142:18203  approvedWithdrawal[msg.sender] = userWithdrawal(msg.sender,0) */\n      0x00\n      dup3\n      add\n      mload\n      dup2\n      0x00\n      add\n      exp(0x0100, 0x00)\n      dup2\n      sload\n      dup2\n      0xffffffffffffffffffffffffffffffffffffffff\n      mul\n      not\n      and\n      swap1\n      dup4\n      0xffffffffffffffffffffffffffffffffffffffff\n      and\n      mul\n      or\n      swap1\n      sstore\n      pop\n      0x20\n      dup3\n      add\n      mload\n      dup2\n      0x01\n      add\n      sstore\n      swap1\n      pop\n      pop\n        /* \"watermelon.sol\":17398:18212  {... */\n      pop\n      pop\n      pop\n      pop\n      pop\n      pop\n        /* \"watermelon.sol\":8677:8682  false */\n      0x00\n        /* \"watermelon.sol\":8668:8674  locked */\n      dup1\n      0x14\n        /* \"watermelon.sol\":8668:8682  locked = false */\n      0x0100\n      exp\n      dup2\n      sload\n      dup2\n      0xff\n      mul\n      not\n      and\n      swap1\n      dup4\n      iszero\n      iszero\n      mul\n      or\n      swap1\n      sstore\n      pop\n        /* \"watermelon.sol\":17358:18212  function unStake() external noReentrant {... */\n      jump\t// out\n        /* \"watermelon.sol\":16487:17352  function claimDailyRewards() public noReentrant{... */\n    tag_104:\n        /* \"watermelon.sol\":8599:8605  locked */\n      0x00\n      0x14\n      swap1\n      sload\n      swap1\n      0x0100\n      exp\n      swap1\n      div\n      0xff\n      and\n        /* \"watermelon.sol\":8598:8605  !locked */\n      iszero\n        /* \"watermelon.sol\":8590:8624  require(!locked, \"No re-entrancy\") */\n      tag_280\n      jumpi\n      mload(0x40)\n      0x08c379a000000000000000000000000000000000000000000000000000000000\n      dup2\n      mstore\n      0x04\n      add\n      tag_281\n      swap1\n      tag_197\n      jump\t// in\n    tag_281:\n      mload(0x40)\n      dup1\n      swap2\n      sub\n      swap1\n      revert\n    tag_280:\n        /* \"watermelon.sol\":8643:8647  true */\n      0x01\n        /* \"watermelon.sol\":8634:8640  locked */\n      0x00\n      0x14\n        /* \"watermelon.sol\":8634:8647  locked = true */\n      0x0100\n      exp\n      dup2\n      sload\n      dup2\n      0xff\n      mul\n      not\n      and\n      swap1\n      dup4\n      iszero\n      iszero\n      mul\n      or\n      swap1\n      sstore\n      pop\n        /* \"watermelon.sol\":16552:16556  init */\n      0x04\n      0x14\n      swap1\n      sload\n      swap1\n      0x0100\n      exp\n      swap1\n      div\n      0xff\n      and\n        /* \"watermelon.sol\":16544:16576  require(init, \"Not Started Yet\") */\n      tag_283\n      jumpi\n      mload(0x40)\n      0x08c379a000000000000000000000000000000000000000000000000000000000\n      dup2\n      mstore\n      0x04\n      add\n      tag_284\n      swap1\n      tag_285\n      jump\t// in\n    tag_284:\n      mload(0x40)\n      dup1\n      swap2\n      sub\n      swap1\n      revert\n    tag_283:\n        /* \"watermelon.sol\":16628:16643  block.timestamp */\n      timestamp\n        /* \"watermelon.sol\":16594:16603  claimTime */\n      0x08\n        /* \"watermelon.sol\":16594:16615  claimTime[msg.sender] */\n      0x00\n        /* \"watermelon.sol\":16604:16614  msg.sender */\n      caller\n        /* \"watermelon.sol\":16594:16615  claimTime[msg.sender] */\n      0xffffffffffffffffffffffffffffffffffffffff\n      and\n      0xffffffffffffffffffffffffffffffffffffffff\n      and\n      dup2\n      mstore\n      0x20\n      add\n      swap1\n      dup2\n      mstore\n      0x20\n      add\n      0x00\n      keccak256\n        /* \"watermelon.sol\":16594:16624  claimTime[msg.sender].deadline */\n      0x02\n      add\n      sload\n        /* \"watermelon.sol\":16594:16643  claimTime[msg.sender].deadline <= block.timestamp */\n      gt\n      iszero\n        /* \"watermelon.sol\":16586:16687  require(claimTime[msg.sender].deadline <= block.timestamp, \"It is not yet the daily moment to claim\") */\n      tag_286\n      jumpi\n      mload(0x40)\n      0x08c379a000000000000000000000000000000000000000000000000000000000\n      dup2\n      mstore\n      0x04\n      add\n      tag_287\n      swap1\n      tag_288\n      jump\t// in\n    tag_287:\n      mload(0x40)\n      dup1\n      swap2\n      sub\n      swap1\n      revert\n    tag_286:\n        /* \"watermelon.sol\":16698:16713  uint256 rewards */\n      0x00\n        /* \"watermelon.sol\":16716:16738  userReward(msg.sender) */\n      tag_289\n        /* \"watermelon.sol\":16727:16737  msg.sender */\n      caller\n        /* \"watermelon.sol\":16716:16726  userReward */\n      tag_47\n        /* \"watermelon.sol\":16716:16738  userReward(msg.sender) */\n      jump\t// in\n    tag_289:\n        /* \"watermelon.sol\":16698:16738  uint256 rewards = userReward(msg.sender) */\n      swap1\n      pop\n        /* \"watermelon.sol\":16749:16772  uint256 currentApproved */\n      0x00\n        /* \"watermelon.sol\":16775:16793  approvedWithdrawal */\n      0x09\n        /* \"watermelon.sol\":16775:16805  approvedWithdrawal[msg.sender] */\n      0x00\n        /* \"watermelon.sol\":16794:16804  msg.sender */\n      caller\n        /* \"watermelon.sol\":16775:16805  approvedWithdrawal[msg.sender] */\n      0xffffffffffffffffffffffffffffffffffffffff\n      and\n      0xffffffffffffffffffffffffffffffffffffffff\n      and\n      dup2\n      mstore\n      0x20\n      add\n      swap1\n      dup2\n      mstore\n      0x20\n      add\n      0x00\n      keccak256\n        /* \"watermelon.sol\":16775:16812  approvedWithdrawal[msg.sender].amount */\n      0x01\n      add\n      sload\n        /* \"watermelon.sol\":16749:16812  uint256 currentApproved = approvedWithdrawal[msg.sender].amount */\n      swap1\n      pop\n        /* \"watermelon.sol\":16823:16836  uint256 value */\n      0x00\n        /* \"watermelon.sol\":16839:16876  SafeMath.add(rewards,currentApproved) */\n      tag_290\n        /* \"watermelon.sol\":16852:16859  rewards */\n      dup4\n        /* \"watermelon.sol\":16860:16875  currentApproved */\n      dup4\n        /* \"watermelon.sol\":16839:16851  SafeMath.add */\n      tag_212\n        /* \"watermelon.sol\":16839:16876  SafeMath.add(rewards,currentApproved) */\n      jump\t// in\n    tag_290:\n        /* \"watermelon.sol\":16823:16876  uint256 value = SafeMath.add(rewards,currentApproved) */\n      swap1\n      pop\n        /* \"watermelon.sol\":16920:16952  userWithdrawal(msg.sender,value) */\n      mload(0x40)\n      dup1\n      0x40\n      add\n      0x40\n      mstore\n      dup1\n        /* \"watermelon.sol\":16935:16945  msg.sender */\n      caller\n        /* \"watermelon.sol\":16920:16952  userWithdrawal(msg.sender,value) */\n      0xffffffffffffffffffffffffffffffffffffffff\n      and\n      dup2\n      mstore\n      0x20\n      add\n        /* \"watermelon.sol\":16946:16951  value */\n      dup3\n        /* \"watermelon.sol\":16920:16952  userWithdrawal(msg.sender,value) */\n      dup2\n      mstore\n      pop\n        /* \"watermelon.sol\":16887:16905  approvedWithdrawal */\n      0x09\n        /* \"watermelon.sol\":16887:16917  approvedWithdrawal[msg.sender] */\n      0x00\n        /* \"watermelon.sol\":16906:16916  msg.sender */\n      caller\n        /* \"watermelon.sol\":16887:16917  approvedWithdrawal[msg.sender] */\n      0xffffffffffffffffffffffffffffffffffffffff\n      and\n      0xffffffffffffffffffffffffffffffffffffffff\n      and\n      dup2\n      mstore\n      0x20\n      add\n      swap1\n      dup2\n      mstore\n      0x20\n      add\n      0x00\n      keccak256\n        /* \"watermelon.sol\":16887:16952  approvedWithdrawal[msg.sender] = userWithdrawal(msg.sender,value) */\n      0x00\n      dup3\n      add\n      mload\n      dup2\n      0x00\n      add\n      exp(0x0100, 0x00)\n      dup2\n      sload\n      dup2\n      0xffffffffffffffffffffffffffffffffffffffff\n      mul\n      not\n      and\n      swap1\n      dup4\n      0xffffffffffffffffffffffffffffffffffffffff\n      and\n      mul\n      or\n      swap1\n      sstore\n      pop\n      0x20\n      dup3\n      add\n      mload\n      dup2\n      0x01\n      add\n      sstore\n      swap1\n      pop\n      pop\n        /* \"watermelon.sol\":16962:16976  uint256 amount */\n      0x00\n        /* \"watermelon.sol\":16979:16991  totalRewards */\n      0x0b\n        /* \"watermelon.sol\":16979:17003  totalRewards[msg.sender] */\n      0x00\n        /* \"watermelon.sol\":16992:17002  msg.sender */\n      caller\n        /* \"watermelon.sol\":16979:17003  totalRewards[msg.sender] */\n      0xffffffffffffffffffffffffffffffffffffffff\n      and\n      0xffffffffffffffffffffffffffffffffffffffff\n      and\n      dup2\n      mstore\n      0x20\n      add\n      swap1\n      dup2\n      mstore\n      0x20\n      add\n      0x00\n      keccak256\n        /* \"watermelon.sol\":16979:17010  totalRewards[msg.sender].amount */\n      0x01\n      add\n      sload\n        /* \"watermelon.sol\":16962:17010  uint256 amount = totalRewards[msg.sender].amount */\n      swap1\n      pop\n        /* \"watermelon.sol\":17028:17053  uint256 totalRewardAmount */\n      0x00\n        /* \"watermelon.sol\":17056:17084  SafeMath.add(amount,rewards) */\n      tag_291\n        /* \"watermelon.sol\":17069:17075  amount */\n      dup3\n        /* \"watermelon.sol\":17076:17083  rewards */\n      dup7\n        /* \"watermelon.sol\":17056:17068  SafeMath.add */\n      tag_212\n        /* \"watermelon.sol\":17056:17084  SafeMath.add(amount,rewards) */\n      jump\t// in\n    tag_291:\n        /* \"watermelon.sol\":17028:17084  uint256 totalRewardAmount = SafeMath.add(amount,rewards) */\n      swap1\n      pop\n        /* \"watermelon.sol\":17134:17151  totalRewardAmount */\n      dup1\n        /* \"watermelon.sol\":17102:17114  totalRewards */\n      0x0b\n        /* \"watermelon.sol\":17102:17126  totalRewards[msg.sender] */\n      0x00\n        /* \"watermelon.sol\":17115:17125  msg.sender */\n      caller\n        /* \"watermelon.sol\":17102:17126  totalRewards[msg.sender] */\n      0xffffffffffffffffffffffffffffffffffffffff\n      and\n      0xffffffffffffffffffffffffffffffffffffffff\n      and\n      dup2\n      mstore\n      0x20\n      add\n      swap1\n      dup2\n      mstore\n      0x20\n      add\n      0x00\n      keccak256\n        /* \"watermelon.sol\":17102:17133  totalRewards[msg.sender].amount */\n      0x01\n      add\n        /* \"watermelon.sol\":17102:17151  totalRewards[msg.sender].amount=totalRewardAmount */\n      dup2\n      swap1\n      sstore\n      pop\n        /* \"watermelon.sol\":17162:17184  uint256 claimTimeStart */\n      0x00\n        /* \"watermelon.sol\":17187:17202  block.timestamp */\n      timestamp\n        /* \"watermelon.sol\":17162:17202  uint256 claimTimeStart = block.timestamp */\n      swap1\n      pop\n        /* \"watermelon.sol\":17212:17232  uint256 claimTimeEnd */\n      0x00\n        /* \"watermelon.sol\":17253:17259  1 days */\n      0x015180\n        /* \"watermelon.sol\":17235:17250  block.timestamp */\n      timestamp\n        /* \"watermelon.sol\":17235:17259  block.timestamp + 1 days */\n      tag_292\n      swap2\n      swap1\n      tag_217\n      jump\t// in\n    tag_292:\n        /* \"watermelon.sol\":17212:17259  uint256 claimTimeEnd = block.timestamp + 1 days */\n      swap1\n      pop\n        /* \"watermelon.sol\":17294:17344  claimDaily(msg.sender,claimTimeStart,claimTimeEnd) */\n      mload(0x40)\n      dup1\n      0x60\n      add\n      0x40\n      mstore\n      dup1\n        /* \"watermelon.sol\":17305:17315  msg.sender */\n      caller\n        /* \"watermelon.sol\":17294:17344  claimDaily(msg.sender,claimTimeStart,claimTimeEnd) */\n      0xffffffffffffffffffffffffffffffffffffffff\n      and\n      dup2\n      mstore\n      0x20\n      add\n        /* \"watermelon.sol\":17316:17330  claimTimeStart */\n      dup4\n        /* \"watermelon.sol\":17294:17344  claimDaily(msg.sender,claimTimeStart,claimTimeEnd) */\n      dup2\n      mstore\n      0x20\n      add\n        /* \"watermelon.sol\":17331:17343  claimTimeEnd */\n      dup3\n        /* \"watermelon.sol\":17294:17344  claimDaily(msg.sender,claimTimeStart,claimTimeEnd) */\n      dup2\n      mstore\n      pop\n        /* \"watermelon.sol\":17270:17279  claimTime */\n      0x08\n        /* \"watermelon.sol\":17270:17291  claimTime[msg.sender] */\n      0x00\n        /* \"watermelon.sol\":17280:17290  msg.sender */\n      caller\n        /* \"watermelon.sol\":17270:17291  claimTime[msg.sender] */\n      0xffffffffffffffffffffffffffffffffffffffff\n      and\n      0xffffffffffffffffffffffffffffffffffffffff\n      and\n      dup2\n      mstore\n      0x20\n      add\n      swap1\n      dup2\n      mstore\n      0x20\n      add\n      0x00\n      keccak256\n        /* \"watermelon.sol\":17270:17344  claimTime[msg.sender] = claimDaily(msg.sender,claimTimeStart,claimTimeEnd) */\n      0x00\n      dup3\n      add\n      mload\n      dup2\n      0x00\n      add\n      exp(0x0100, 0x00)\n      dup2\n      sload\n      dup2\n      0xffffffffffffffffffffffffffffffffffffffff\n      mul\n      not\n      and\n      swap1\n      dup4\n      0xffffffffffffffffffffffffffffffffffffffff\n      and\n      mul\n      or\n      swap1\n      sstore\n      pop\n      0x20\n      dup3\n      add\n      mload\n      dup2\n      0x01\n      add\n      sstore\n      0x40\n      dup3\n      add\n      mload\n      dup2\n      0x02\n      add\n      sstore\n      swap1\n      pop\n      pop\n        /* \"watermelon.sol\":16534:17352  {... */\n      pop\n      pop\n      pop\n      pop\n      pop\n      pop\n      pop\n        /* \"watermelon.sol\":8677:8682  false */\n      0x00\n        /* \"watermelon.sol\":8668:8674  locked */\n      dup1\n      0x14\n        /* \"watermelon.sol\":8668:8682  locked = false */\n      0x0100\n      exp\n      dup2\n      sload\n      dup2\n      0xff\n      mul\n      not\n      and\n      swap1\n      dup4\n      iszero\n      iszero\n      mul\n      or\n      swap1\n      sstore\n      pop\n        /* \"watermelon.sol\":16487:17352  function claimDailyRewards() public noReentrant{... */\n      jump\t// out\n        /* \"watermelon.sol\":10228:10279  mapping(address => refferal_system) public refferal */\n    tag_107:\n      mstore(0x20, 0x05)\n      dup1\n      0x00\n      mstore\n      keccak256(0x00, 0x40)\n      0x00\n      swap2\n      pop\n      swap1\n      pop\n      dup1\n      0x00\n      add\n      0x00\n      swap1\n      sload\n      swap1\n      0x0100\n      exp\n      swap1\n      div\n      0xffffffffffffffffffffffffffffffffffffffff\n      and\n      swap1\n      dup1\n      0x01\n      add\n      sload\n      swap1\n      pop\n      dup3\n      jump\t// out\n        /* \"watermelon.sol\":10460:10520  mapping(address => userWithdrawal) public approvedWithdrawal */\n    tag_111:\n      mstore(0x20, 0x09)\n      dup1\n      0x00\n      mstore\n      keccak256(0x00, 0x40)\n      0x00\n      swap2\n      pop\n      swap1\n      pop\n      dup1\n      0x00\n      add\n      0x00\n      swap1\n      sload\n      swap1\n      0x0100\n      exp\n      swap1\n      div\n      0xffffffffffffffffffffffffffffffffffffffff\n      and\n      swap1\n      dup1\n      0x01\n      add\n      sload\n      swap1\n      pop\n      dup3\n      jump\t// out\n        /* \"watermelon.sol\":7813:7888  function owner() public view returns (address) {... */\n    tag_114:\n        /* \"watermelon.sol\":7851:7858  address */\n      0x00\n        /* \"watermelon.sol\":7875:7881  _owner */\n      dup1\n      0x00\n      swap1\n      sload\n      swap1\n      0x0100\n      exp\n      swap1\n      div\n      0xffffffffffffffffffffffffffffffffffffffff\n      and\n        /* \"watermelon.sol\":7868:7881  return _owner */\n      swap1\n      pop\n        /* \"watermelon.sol\":7813:7888  function owner() public view returns (address) {... */\n      swap1\n      jump\t// out\n        /* \"watermelon.sol\":9035:9098  address public dev = 0x269df75431D46765AB3FCF33Ed09dDe31b7E9515 */\n    tag_118:\n      0x02\n      0x00\n      swap1\n      sload\n      swap1\n      0x0100\n      exp\n      swap1\n      div\n      0xffffffffffffffffffffffffffffffffffffffff\n      and\n      dup2\n      jump\t// out\n        /* \"watermelon.sol\":10285:10347  mapping(address => user_investment_details) public investments */\n    tag_122:\n      mstore(0x20, 0x06)\n      dup1\n      0x00\n      mstore\n      keccak256(0x00, 0x40)\n      0x00\n      swap2\n      pop\n      swap1\n      pop\n      dup1\n      0x00\n      add\n      0x00\n      swap1\n      sload\n      swap1\n      0x0100\n      exp\n      swap1\n      div\n      0xffffffffffffffffffffffffffffffffffffffff\n      and\n      swap1\n      dup1\n      0x01\n      add\n      sload\n      swap1\n      pop\n      dup3\n      jump\t// out\n        /* \"watermelon.sol\":9138:9164  address public tokenAdress */\n    tag_125:\n      0x04\n      0x00\n      swap1\n      sload\n      swap1\n      0x0100\n      exp\n      swap1\n      div\n      0xffffffffffffffffffffffffffffffffffffffff\n      and\n      dup2\n      jump\t// out\n        /* \"watermelon.sol\":10590:10646  mapping(address => userTotalRewards) public totalRewards */\n    tag_129:\n      mstore(0x20, 0x0b)\n      dup1\n      0x00\n      mstore\n      keccak256(0x00, 0x40)\n      0x00\n      swap2\n      pop\n      swap1\n      pop\n      dup1\n      0x00\n      add\n      0x00\n      swap1\n      sload\n      swap1\n      0x0100\n      exp\n      swap1\n      div\n      0xffffffffffffffffffffffffffffffffffffffff\n      and\n      swap1\n      dup1\n      0x01\n      add\n      sload\n      swap1\n      pop\n      dup3\n      jump\t// out\n        /* \"watermelon.sol\":18218:18708  function Ref_Withdraw() external noReentrant {... */\n    tag_132:\n        /* \"watermelon.sol\":8599:8605  locked */\n      0x00\n      0x14\n      swap1\n      sload\n      swap1\n      0x0100\n      exp\n      swap1\n      div\n      0xff\n      and\n        /* \"watermelon.sol\":8598:8605  !locked */\n      iszero\n        /* \"watermelon.sol\":8590:8624  require(!locked, \"No re-entrancy\") */\n      tag_295\n      jumpi\n      mload(0x40)\n      0x08c379a000000000000000000000000000000000000000000000000000000000\n      dup2\n      mstore\n      0x04\n      add\n      tag_296\n      swap1\n      tag_197\n      jump\t// in\n    tag_296:\n      mload(0x40)\n      dup1\n      swap2\n      sub\n      swap1\n      revert\n    tag_295:\n        /* \"watermelon.sol\":8643:8647  true */\n      0x01\n        /* \"watermelon.sol\":8634:8640  locked */\n      0x00\n      0x14\n        /* \"watermelon.sol\":8634:8647  locked = true */\n      0x0100\n      exp\n      dup2\n      sload\n      dup2\n      0xff\n      mul\n      not\n      and\n      swap1\n      dup4\n      iszero\n      iszero\n      mul\n      or\n      swap1\n      sstore\n      pop\n        /* \"watermelon.sol\":18281:18285  init */\n      0x04\n      0x14\n      swap1\n      sload\n      swap1\n      0x0100\n      exp\n      swap1\n      div\n      0xff\n      and\n        /* \"watermelon.sol\":18273:18313  require(init, \"Contract not active yet\") */\n      tag_298\n      jumpi\n      mload(0x40)\n      0x08c379a000000000000000000000000000000000000000000000000000000000\n      dup2\n      mstore\n      0x04\n      add\n      tag_299\n      swap1\n      tag_263\n      jump\t// in\n    tag_299:\n      mload(0x40)\n      dup1\n      swap2\n      sub\n      swap1\n      revert\n    tag_298:\n        /* \"watermelon.sol\":18323:18336  uint256 value */\n      0x00\n        /* \"watermelon.sol\":18339:18347  refferal */\n      0x05\n        /* \"watermelon.sol\":18339:18359  refferal[msg.sender] */\n      0x00\n        /* \"watermelon.sol\":18348:18358  msg.sender */\n      caller\n        /* \"watermelon.sol\":18339:18359  refferal[msg.sender] */\n      0xffffffffffffffffffffffffffffffffffffffff\n      and\n      0xffffffffffffffffffffffffffffffffffffffff\n      and\n      dup2\n      mstore\n      0x20\n      add\n      swap1\n      dup2\n      mstore\n      0x20\n      add\n      0x00\n      keccak256\n        /* \"watermelon.sol\":18339:18366  refferal[msg.sender].reward */\n      0x01\n      add\n      sload\n        /* \"watermelon.sol\":18323:18366  uint256 value = refferal[msg.sender].reward */\n      swap1\n      pop\n        /* \"watermelon.sol\":18377:18390  BusdInterface */\n      0x03\n      0x00\n      swap1\n      sload\n      swap1\n      0x0100\n      exp\n      swap1\n      div\n      0xffffffffffffffffffffffffffffffffffffffff\n      and\n        /* \"watermelon.sol\":18377:18399  BusdInterface.transfer */\n      0xffffffffffffffffffffffffffffffffffffffff\n      and\n      0xa9059cbb\n        /* \"watermelon.sol\":18400:18410  msg.sender */\n      caller\n        /* \"watermelon.sol\":18411:18416  value */\n      dup4\n        /* \"watermelon.sol\":18377:18417  BusdInterface.transfer(msg.sender,value) */\n      mload(0x40)\n      dup4\n      0xffffffff\n      and\n      0xe0\n      shl\n      dup2\n      mstore\n      0x04\n      add\n      tag_300\n      swap3\n      swap2\n      swap1\n      tag_54\n      jump\t// in\n    tag_300:\n      0x20\n      mload(0x40)\n      dup1\n      dup4\n      sub\n      dup2\n      0x00\n      dup8\n      gas\n      call\n      iszero\n      dup1\n      iszero\n      tag_302\n      jumpi\n      returndatasize\n      0x00\n      dup1\n      returndatacopy\n      revert(0x00, returndatasize)\n    tag_302:\n      pop\n      pop\n      pop\n      pop\n      mload(0x40)\n      returndatasize\n      not(0x1f)\n      0x1f\n      dup3\n      add\n      and\n      dup3\n      add\n      dup1\n      0x40\n      mstore\n      pop\n      dup2\n      add\n      swap1\n      tag_303\n      swap2\n      swap1\n      tag_226\n      jump\t// in\n    tag_303:\n      pop\n        /* \"watermelon.sol\":18450:18479  refferal_system(msg.sender,0) */\n      mload(0x40)\n      dup1\n      0x40\n      add\n      0x40\n      mstore\n      dup1\n        /* \"watermelon.sol\":18466:18476  msg.sender */\n      caller\n        /* \"watermelon.sol\":18450:18479  refferal_system(msg.sender,0) */\n      0xffffffffffffffffffffffffffffffffffffffff\n      and\n      dup2\n      mstore\n      0x20\n      add\n        /* \"watermelon.sol\":18477:18478  0 */\n      0x00\n        /* \"watermelon.sol\":18450:18479  refferal_system(msg.sender,0) */\n      dup2\n      mstore\n      pop\n        /* \"watermelon.sol\":18427:18435  refferal */\n      0x05\n        /* \"watermelon.sol\":18427:18447  refferal[msg.sender] */\n      0x00\n        /* \"watermelon.sol\":18436:18446  msg.sender */\n      caller\n        /* \"watermelon.sol\":18427:18447  refferal[msg.sender] */\n      0xffffffffffffffffffffffffffffffffffffffff\n      and\n      0xffffffffffffffffffffffffffffffffffffffff\n      and\n      dup2\n      mstore\n      0x20\n      add\n      swap1\n      dup2\n      mstore\n      0x20\n      add\n      0x00\n      keccak256\n        /* \"watermelon.sol\":18427:18479  refferal[msg.sender] = refferal_system(msg.sender,0) */\n      0x00\n      dup3\n      add\n      mload\n      dup2\n      0x00\n      add\n      exp(0x0100, 0x00)\n      dup2\n      sload\n      dup2\n      0xffffffffffffffffffffffffffffffffffffffff\n      mul\n      not\n      and\n      swap1\n      dup4\n      0xffffffffffffffffffffffffffffffffffffffff\n      and\n      mul\n      or\n      swap1\n      sstore\n      pop\n      0x20\n      dup3\n      add\n      mload\n      dup2\n      0x01\n      add\n      sstore\n      swap1\n      pop\n      pop\n        /* \"watermelon.sol\":18490:18510  uint256 lastWithdraw */\n      0x00\n        /* \"watermelon.sol\":18513:18529  refTotalWithdraw */\n      0x0c\n        /* \"watermelon.sol\":18513:18541  refTotalWithdraw[msg.sender] */\n      0x00\n        /* \"watermelon.sol\":18530:18540  msg.sender */\n      caller\n        /* \"watermelon.sol\":18513:18541  refTotalWithdraw[msg.sender] */\n      0xffffffffffffffffffffffffffffffffffffffff\n      and\n      0xffffffffffffffffffffffffffffffffffffffff\n      and\n      dup2\n      mstore\n      0x20\n      add\n      swap1\n      dup2\n      mstore\n      0x20\n      add\n      0x00\n      keccak256\n        /* \"watermelon.sol\":18513:18555  refTotalWithdraw[msg.sender].totalWithdraw */\n      0x01\n      add\n      sload\n        /* \"watermelon.sol\":18490:18555  uint256 lastWithdraw = refTotalWithdraw[msg.sender].totalWithdraw */\n      swap1\n      pop\n        /* \"watermelon.sol\":18566:18584  uint256 totalValue */\n      0x00\n        /* \"watermelon.sol\":18587:18619  SafeMath.add(value,lastWithdraw) */\n      tag_304\n        /* \"watermelon.sol\":18600:18605  value */\n      dup4\n        /* \"watermelon.sol\":18606:18618  lastWithdraw */\n      dup4\n        /* \"watermelon.sol\":18587:18599  SafeMath.add */\n      tag_212\n        /* \"watermelon.sol\":18587:18619  SafeMath.add(value,lastWithdraw) */\n      jump\t// in\n    tag_304:\n        /* \"watermelon.sol\":18566:18619  uint256 totalValue = SafeMath.add(value,lastWithdraw) */\n      swap1\n      pop\n        /* \"watermelon.sol\":18661:18701  refferal_withdraw(msg.sender,totalValue) */\n      mload(0x40)\n      dup1\n      0x40\n      add\n      0x40\n      mstore\n      dup1\n        /* \"watermelon.sol\":18679:18689  msg.sender */\n      caller\n        /* \"watermelon.sol\":18661:18701  refferal_withdraw(msg.sender,totalValue) */\n      0xffffffffffffffffffffffffffffffffffffffff\n      and\n      dup2\n      mstore\n      0x20\n      add\n        /* \"watermelon.sol\":18690:18700  totalValue */\n      dup3\n        /* \"watermelon.sol\":18661:18701  refferal_withdraw(msg.sender,totalValue) */\n      dup2\n      mstore\n      pop\n        /* \"watermelon.sol\":18630:18646  refTotalWithdraw */\n      0x0c\n        /* \"watermelon.sol\":18630:18658  refTotalWithdraw[msg.sender] */\n      0x00\n        /* \"watermelon.sol\":18647:18657  msg.sender */\n      caller\n        /* \"watermelon.sol\":18630:18658  refTotalWithdraw[msg.sender] */\n      0xffffffffffffffffffffffffffffffffffffffff\n      and\n      0xffffffffffffffffffffffffffffffffffffffff\n      and\n      dup2\n      mstore\n      0x20\n      add\n      swap1\n      dup2\n      mstore\n      0x20\n      add\n      0x00\n      keccak256\n        /* \"watermelon.sol\":18630:18701  refTotalWithdraw[msg.sender] = refferal_withdraw(msg.sender,totalValue) */\n      0x00\n      dup3\n      add\n      mload\n      dup2\n      0x00\n      add\n      exp(0x0100, 0x00)\n      dup2\n      sload\n      dup2\n      0xffffffffffffffffffffffffffffffffffffffff\n      mul\n      not\n      and\n      swap1\n      dup4\n      0xffffffffffffffffffffffffffffffffffffffff\n      and\n      mul\n      or\n      swap1\n      sstore\n      pop\n      0x20\n      dup3\n      add\n      mload\n      dup2\n      0x01\n      add\n      sstore\n      swap1\n      pop\n      pop\n        /* \"watermelon.sol\":18263:18708  {... */\n      pop\n      pop\n      pop\n        /* \"watermelon.sol\":8677:8682  false */\n      0x00\n        /* \"watermelon.sol\":8668:8674  locked */\n      dup1\n      0x14\n        /* \"watermelon.sol\":8668:8682  locked = false */\n      0x0100\n      exp\n      dup2\n      sload\n      dup2\n      0xff\n      mul\n      not\n      and\n      swap1\n      dup4\n      iszero\n      iszero\n      mul\n      or\n      swap1\n      sstore\n      pop\n        /* \"watermelon.sol\":18218:18708  function Ref_Withdraw() external noReentrant {... */\n      jump\t// out\n        /* \"watermelon.sol\":19502:19645  function withdrawFee(uint256 _amount) public pure returns(uint256) {... */\n    tag_135:\n        /* \"watermelon.sol\":19560:19567  uint256 */\n      0x00\n        /* \"watermelon.sol\":19586:19638  SafeMath.div(SafeMath.mul(_amount,withdraw_fee),100) */\n      tag_306\n        /* \"watermelon.sol\":19599:19633  SafeMath.mul(_amount,withdraw_fee) */\n      tag_307\n        /* \"watermelon.sol\":19612:19619  _amount */\n      dup4\n        /* \"watermelon.sol\":8987:8988  2 */\n      0x02\n        /* \"watermelon.sol\":19599:19611  SafeMath.mul */\n      tag_170\n        /* \"watermelon.sol\":19599:19633  SafeMath.mul(_amount,withdraw_fee) */\n      jump\t// in\n    tag_307:\n        /* \"watermelon.sol\":19634:19637  100 */\n      0x64\n        /* \"watermelon.sol\":19586:19598  SafeMath.div */\n      tag_166\n        /* \"watermelon.sol\":19586:19638  SafeMath.div(SafeMath.mul(_amount,withdraw_fee),100) */\n      jump\t// in\n    tag_306:\n        /* \"watermelon.sol\":19579:19638  return SafeMath.div(SafeMath.mul(_amount,withdraw_fee),100) */\n      swap1\n      pop\n        /* \"watermelon.sol\":19502:19645  function withdrawFee(uint256 _amount) public pure returns(uint256) {... */\n      swap2\n      swap1\n      pop\n      jump\t// out\n        /* \"watermelon.sol\":10653:10714  mapping(address => refferal_withdraw) public refTotalWithdraw */\n    tag_139:\n      mstore(0x20, 0x0c)\n      dup1\n      0x00\n      mstore\n      keccak256(0x00, 0x40)\n      0x00\n      swap2\n      pop\n      swap1\n      pop\n      dup1\n      0x00\n      add\n      0x00\n      swap1\n      sload\n      swap1\n      0x0100\n      exp\n      swap1\n      div\n      0xffffffffffffffffffffffffffffffffffffffff\n      and\n      swap1\n      dup1\n      0x01\n      add\n      sload\n      swap1\n      pop\n      dup3\n      jump\t// out\n        /* \"watermelon.sol\":15101:16472  function withdrawal() public noReentrant {... */\n    tag_142:\n        /* \"watermelon.sol\":8599:8605  locked */\n      0x00\n      0x14\n      swap1\n      sload\n      swap1\n      0x0100\n      exp\n      swap1\n      div\n      0xff\n      and\n        /* \"watermelon.sol\":8598:8605  !locked */\n      iszero\n        /* \"watermelon.sol\":8590:8624  require(!locked, \"No re-entrancy\") */\n      tag_309\n      jumpi\n      mload(0x40)\n      0x08c379a000000000000000000000000000000000000000000000000000000000\n      dup2\n      mstore\n      0x04\n      add\n      tag_310\n      swap1\n      tag_197\n      jump\t// in\n    tag_310:\n      mload(0x40)\n      dup1\n      swap2\n      sub\n      swap1\n      revert\n    tag_309:\n        /* \"watermelon.sol\":8643:8647  true */\n      0x01\n        /* \"watermelon.sol\":8634:8640  locked */\n      0x00\n      0x14\n        /* \"watermelon.sol\":8634:8647  locked = true */\n      0x0100\n      exp\n      dup2\n      sload\n      dup2\n      0xff\n      mul\n      not\n      and\n      swap1\n      dup4\n      iszero\n      iszero\n      mul\n      or\n      swap1\n      sstore\n      pop\n        /* \"watermelon.sol\":15156:15160  init */\n      0x04\n      0x14\n      swap1\n      sload\n      swap1\n      0x0100\n      exp\n      swap1\n      div\n      0xff\n      and\n        /* \"watermelon.sol\":15148:15188  require(init, \"Contract not active yet\") */\n      tag_312\n      jumpi\n      mload(0x40)\n      0x08c379a000000000000000000000000000000000000000000000000000000000\n      dup2\n      mstore\n      0x04\n      add\n      tag_313\n      swap1\n      tag_263\n      jump\t// in\n    tag_313:\n      mload(0x40)\n      dup1\n      swap2\n      sub\n      swap1\n      revert\n    tag_312:\n        /* \"watermelon.sol\":15237:15252  block.timestamp */\n      timestamp\n        /* \"watermelon.sol\":15206:15212  weekly */\n      0x07\n        /* \"watermelon.sol\":15206:15224  weekly[msg.sender] */\n      0x00\n        /* \"watermelon.sol\":15213:15223  msg.sender */\n      caller\n        /* \"watermelon.sol\":15206:15224  weekly[msg.sender] */\n      0xffffffffffffffffffffffffffffffffffffffff\n      and\n      0xffffffffffffffffffffffffffffffffffffffff\n      and\n      dup2\n      mstore\n      0x20\n      add\n      swap1\n      dup2\n      mstore\n      0x20\n      add\n      0x00\n      keccak256\n        /* \"watermelon.sol\":15206:15233  weekly[msg.sender].deadline */\n      0x02\n      add\n      sload\n        /* \"watermelon.sol\":15206:15252  weekly[msg.sender].deadline <= block.timestamp */\n      gt\n      iszero\n        /* \"watermelon.sol\":15198:15300  require(weekly[msg.sender].deadline <= block.timestamp, \"It is not yet the weekly moment to withdraw\") */\n      tag_314\n      jumpi\n      mload(0x40)\n      0x08c379a000000000000000000000000000000000000000000000000000000000\n      dup2\n      mstore\n      0x04\n      add\n      tag_315\n      swap1\n      tag_316\n      jump\t// in\n    tag_315:\n      mload(0x40)\n      dup1\n      swap2\n      sub\n      swap1\n      revert\n    tag_314:\n        /* \"watermelon.sol\":15349:15397  SafeMath.mul(investments[msg.sender].invested,5) */\n      tag_317\n        /* \"watermelon.sol\":15362:15373  investments */\n      0x06\n        /* \"watermelon.sol\":15362:15385  investments[msg.sender] */\n      0x00\n        /* \"watermelon.sol\":15374:15384  msg.sender */\n      caller\n        /* \"watermelon.sol\":15362:15385  investments[msg.sender] */\n      0xffffffffffffffffffffffffffffffffffffffff\n      and\n      0xffffffffffffffffffffffffffffffffffffffff\n      and\n      dup2\n      mstore\n      0x20\n      add\n      swap1\n      dup2\n      mstore\n      0x20\n      add\n      0x00\n      keccak256\n        /* \"watermelon.sol\":15362:15394  investments[msg.sender].invested */\n      0x01\n      add\n      sload\n        /* \"watermelon.sol\":15395:15396  5 */\n      0x05\n        /* \"watermelon.sol\":15349:15361  SafeMath.mul */\n      tag_170\n        /* \"watermelon.sol\":15349:15397  SafeMath.mul(investments[msg.sender].invested,5) */\n      jump\t// in\n    tag_317:\n        /* \"watermelon.sol\":15314:15326  totalRewards */\n      0x0b\n        /* \"watermelon.sol\":15314:15338  totalRewards[msg.sender] */\n      0x00\n        /* \"watermelon.sol\":15327:15337  msg.sender */\n      caller\n        /* \"watermelon.sol\":15314:15338  totalRewards[msg.sender] */\n      0xffffffffffffffffffffffffffffffffffffffff\n      and\n      0xffffffffffffffffffffffffffffffffffffffff\n      and\n      dup2\n      mstore\n      0x20\n      add\n      swap1\n      dup2\n      mstore\n      0x20\n      add\n      0x00\n      keccak256\n        /* \"watermelon.sol\":15314:15345  totalRewards[msg.sender].amount */\n      0x01\n      add\n      sload\n        /* \"watermelon.sol\":15314:15397  totalRewards[msg.sender].amount <= SafeMath.mul(investments[msg.sender].invested,5) */\n      gt\n      iszero\n        /* \"watermelon.sol\":15306:15439  require(totalRewards[msg.sender].amount <= SafeMath.mul(investments[msg.sender].invested,5), \"Your 5x investment cycle is completed\") */\n      tag_318\n      jumpi\n      mload(0x40)\n      0x08c379a000000000000000000000000000000000000000000000000000000000\n      dup2\n      mstore\n      0x04\n      add\n      tag_319\n      swap1\n      tag_320\n      jump\t// in\n    tag_319:\n      mload(0x40)\n      dup1\n      swap2\n      sub\n      swap1\n      revert\n    tag_318:\n        /* \"watermelon.sol\":15455:15476  uint256 aval_withdraw */\n      0x00\n        /* \"watermelon.sol\":15479:15497  approvedWithdrawal */\n      0x09\n        /* \"watermelon.sol\":15479:15509  approvedWithdrawal[msg.sender] */\n      0x00\n        /* \"watermelon.sol\":15498:15508  msg.sender */\n      caller\n        /* \"watermelon.sol\":15479:15509  approvedWithdrawal[msg.sender] */\n      0xffffffffffffffffffffffffffffffffffffffff\n      and\n      0xffffffffffffffffffffffffffffffffffffffff\n      and\n      dup2\n      mstore\n      0x20\n      add\n      swap1\n      dup2\n      mstore\n      0x20\n      add\n      0x00\n      keccak256\n        /* \"watermelon.sol\":15479:15516  approvedWithdrawal[msg.sender].amount */\n      0x01\n      add\n      sload\n        /* \"watermelon.sol\":15455:15516  uint256 aval_withdraw = approvedWithdrawal[msg.sender].amount */\n      swap1\n      pop\n        /* \"watermelon.sol\":15522:15544  uint256 aval_withdraw2 */\n      0x00\n        /* \"watermelon.sol\":15547:15576  SafeMath.div(aval_withdraw,2) */\n      tag_321\n        /* \"watermelon.sol\":15560:15573  aval_withdraw */\n      dup3\n        /* \"watermelon.sol\":15574:15575  2 */\n      0x02\n        /* \"watermelon.sol\":15547:15559  SafeMath.div */\n      tag_166\n        /* \"watermelon.sol\":15547:15576  SafeMath.div(aval_withdraw,2) */\n      jump\t// in\n    tag_321:\n        /* \"watermelon.sol\":15522:15576  uint256 aval_withdraw2 = SafeMath.div(aval_withdraw,2) */\n      swap1\n      pop\n        /* \"watermelon.sol\":15601:15613  uint256 wFee */\n      0x00\n        /* \"watermelon.sol\":15616:15643  withdrawFee(aval_withdraw2) */\n      tag_322\n        /* \"watermelon.sol\":15628:15642  aval_withdraw2 */\n      dup3\n        /* \"watermelon.sol\":15616:15627  withdrawFee */\n      tag_135\n        /* \"watermelon.sol\":15616:15643  withdrawFee(aval_withdraw2) */\n      jump\t// in\n    tag_322:\n        /* \"watermelon.sol\":15601:15643  uint256 wFee = withdrawFee(aval_withdraw2) */\n      swap1\n      pop\n        /* \"watermelon.sol\":15679:15708  uint256 totalAmountToWithdraw */\n      0x00\n        /* \"watermelon.sol\":15711:15744  SafeMath.sub(aval_withdraw2,wFee) */\n      tag_323\n        /* \"watermelon.sol\":15724:15738  aval_withdraw2 */\n      dup4\n        /* \"watermelon.sol\":15739:15743  wFee */\n      dup4\n        /* \"watermelon.sol\":15711:15723  SafeMath.sub */\n      tag_164\n        /* \"watermelon.sol\":15711:15744  SafeMath.sub(aval_withdraw2,wFee) */\n      jump\t// in\n    tag_323:\n        /* \"watermelon.sol\":15679:15744  uint256 totalAmountToWithdraw = SafeMath.sub(aval_withdraw2,wFee) */\n      swap1\n      pop\n        /* \"watermelon.sol\":15798:15811  BusdInterface */\n      0x03\n      0x00\n      swap1\n      sload\n      swap1\n      0x0100\n      exp\n      swap1\n      div\n      0xffffffffffffffffffffffffffffffffffffffff\n      and\n        /* \"watermelon.sol\":15798:15820  BusdInterface.transfer */\n      0xffffffffffffffffffffffffffffffffffffffff\n      and\n      0xa9059cbb\n        /* \"watermelon.sol\":15821:15831  msg.sender */\n      caller\n        /* \"watermelon.sol\":15832:15853  totalAmountToWithdraw */\n      dup4\n        /* \"watermelon.sol\":15798:15854  BusdInterface.transfer(msg.sender,totalAmountToWithdraw) */\n      mload(0x40)\n      dup4\n      0xffffffff\n      and\n      0xe0\n      shl\n      dup2\n      mstore\n      0x04\n      add\n      tag_324\n      swap3\n      swap2\n      swap1\n      tag_54\n      jump\t// in\n    tag_324:\n      0x20\n      mload(0x40)\n      dup1\n      dup4\n      sub\n      dup2\n      0x00\n      dup8\n      gas\n      call\n      iszero\n      dup1\n      iszero\n      tag_326\n      jumpi\n      returndatasize\n      0x00\n      dup1\n      returndatacopy\n      revert(0x00, returndatasize)\n    tag_326:\n      pop\n      pop\n      pop\n      pop\n      mload(0x40)\n      returndatasize\n      not(0x1f)\n      0x1f\n      dup3\n      add\n      and\n      dup3\n      add\n      dup1\n      0x40\n      mstore\n      pop\n      dup2\n      add\n      swap1\n      tag_327\n      swap2\n      swap1\n      tag_226\n      jump\t// in\n    tag_327:\n      pop\n        /* \"watermelon.sol\":15860:15873  BusdInterface */\n      0x03\n      0x00\n      swap1\n      sload\n      swap1\n      0x0100\n      exp\n      swap1\n      div\n      0xffffffffffffffffffffffffffffffffffffffff\n      and\n        /* \"watermelon.sol\":15860:15882  BusdInterface.transfer */\n      0xffffffffffffffffffffffffffffffffffffffff\n      and\n      0xa9059cbb\n        /* \"watermelon.sol\":15883:15886  dev */\n      0x02\n      0x00\n      swap1\n      sload\n      swap1\n      0x0100\n      exp\n      swap1\n      div\n      0xffffffffffffffffffffffffffffffffffffffff\n      and\n        /* \"watermelon.sol\":15887:15891  wFee */\n      dup5\n        /* \"watermelon.sol\":15860:15892  BusdInterface.transfer(dev,wFee) */\n      mload(0x40)\n      dup4\n      0xffffffff\n      and\n      0xe0\n      shl\n      dup2\n      mstore\n      0x04\n      add\n      tag_328\n      swap3\n      swap2\n      swap1\n      tag_54\n      jump\t// in\n    tag_328:\n      0x20\n      mload(0x40)\n      dup1\n      dup4\n      sub\n      dup2\n      0x00\n      dup8\n      gas\n      call\n      iszero\n      dup1\n      iszero\n      tag_330\n      jumpi\n      returndatasize\n      0x00\n      dup1\n      returndatacopy\n      revert(0x00, returndatasize)\n    tag_330:\n      pop\n      pop\n      pop\n      pop\n      mload(0x40)\n      returndatasize\n      not(0x1f)\n      0x1f\n      dup3\n      add\n      and\n      dup3\n      add\n      dup1\n      0x40\n      mstore\n      pop\n      dup2\n      add\n      swap1\n      tag_331\n      swap2\n      swap1\n      tag_226\n      jump\t// in\n    tag_331:\n      pop\n        /* \"watermelon.sol\":15931:15972  userWithdrawal(msg.sender,aval_withdraw2) */\n      mload(0x40)\n      dup1\n      0x40\n      add\n      0x40\n      mstore\n      dup1\n        /* \"watermelon.sol\":15946:15956  msg.sender */\n      caller\n        /* \"watermelon.sol\":15931:15972  userWithdrawal(msg.sender,aval_withdraw2) */\n      0xffffffffffffffffffffffffffffffffffffffff\n      and\n      dup2\n      mstore\n      0x20\n      add\n        /* \"watermelon.sol\":15957:15971  aval_withdraw2 */\n      dup5\n        /* \"watermelon.sol\":15931:15972  userWithdrawal(msg.sender,aval_withdraw2) */\n      dup2\n      mstore\n      pop\n        /* \"watermelon.sol\":15898:15916  approvedWithdrawal */\n      0x09\n        /* \"watermelon.sol\":15898:15928  approvedWithdrawal[msg.sender] */\n      0x00\n        /* \"watermelon.sol\":15917:15927  msg.sender */\n      caller\n        /* \"watermelon.sol\":15898:15928  approvedWithdrawal[msg.sender] */\n      0xffffffffffffffffffffffffffffffffffffffff\n      and\n      0xffffffffffffffffffffffffffffffffffffffff\n      and\n      dup2\n      mstore\n      0x20\n      add\n      swap1\n      dup2\n      mstore\n      0x20\n      add\n      0x00\n      keccak256\n        /* \"watermelon.sol\":15898:15972  approvedWithdrawal[msg.sender] = userWithdrawal(msg.sender,aval_withdraw2) */\n      0x00\n      dup3\n      add\n      mload\n      dup2\n      0x00\n      add\n      exp(0x0100, 0x00)\n      dup2\n      sload\n      dup2\n      0xffffffffffffffffffffffffffffffffffffffff\n      mul\n      not\n      and\n      swap1\n      dup4\n      0xffffffffffffffffffffffffffffffffffffffff\n      and\n      mul\n      or\n      swap1\n      sstore\n      pop\n      0x20\n      dup3\n      add\n      mload\n      dup2\n      0x01\n      add\n      sstore\n      swap1\n      pop\n      pop\n        /* \"watermelon.sol\":16043:16062  uint256 weeklyStart */\n      0x00\n        /* \"watermelon.sol\":16065:16080  block.timestamp */\n      timestamp\n        /* \"watermelon.sol\":16043:16080  uint256 weeklyStart = block.timestamp */\n      swap1\n      pop\n        /* \"watermelon.sol\":16086:16109  uint256 deadline_weekly */\n      0x00\n        /* \"watermelon.sol\":16130:16136  7 days */\n      0x093a80\n        /* \"watermelon.sol\":16112:16127  block.timestamp */\n      timestamp\n        /* \"watermelon.sol\":16112:16136  block.timestamp + 7 days */\n      tag_332\n      swap2\n      swap1\n      tag_217\n      jump\t// in\n    tag_332:\n        /* \"watermelon.sol\":16086:16136  uint256 deadline_weekly = block.timestamp + 7 days */\n      swap1\n      pop\n        /* \"watermelon.sol\":16164:16218  weeklyWithdraw(msg.sender,weeklyStart,deadline_weekly) */\n      mload(0x40)\n      dup1\n      0x60\n      add\n      0x40\n      mstore\n      dup1\n        /* \"watermelon.sol\":16179:16189  msg.sender */\n      caller\n        /* \"watermelon.sol\":16164:16218  weeklyWithdraw(msg.sender,weeklyStart,deadline_weekly) */\n      0xffffffffffffffffffffffffffffffffffffffff\n      and\n      dup2\n      mstore\n      0x20\n      add\n        /* \"watermelon.sol\":16190:16201  weeklyStart */\n      dup4\n        /* \"watermelon.sol\":16164:16218  weeklyWithdraw(msg.sender,weeklyStart,deadline_weekly) */\n      dup2\n      mstore\n      0x20\n      add\n        /* \"watermelon.sol\":16202:16217  deadline_weekly */\n      dup3\n        /* \"watermelon.sol\":16164:16218  weeklyWithdraw(msg.sender,weeklyStart,deadline_weekly) */\n      dup2\n      mstore\n      pop\n        /* \"watermelon.sol\":16143:16149  weekly */\n      0x07\n        /* \"watermelon.sol\":16143:16161  weekly[msg.sender] */\n      0x00\n        /* \"watermelon.sol\":16150:16160  msg.sender */\n      caller\n        /* \"watermelon.sol\":16143:16161  weekly[msg.sender] */\n      0xffffffffffffffffffffffffffffffffffffffff\n      and\n      0xffffffffffffffffffffffffffffffffffffffff\n      and\n      dup2\n      mstore\n      0x20\n      add\n      swap1\n      dup2\n      mstore\n      0x20\n      add\n      0x00\n      keccak256\n        /* \"watermelon.sol\":16143:16218  weekly[msg.sender] = weeklyWithdraw(msg.sender,weeklyStart,deadline_weekly) */\n      0x00\n      dup3\n      add\n      mload\n      dup2\n      0x00\n      add\n      exp(0x0100, 0x00)\n      dup2\n      sload\n      dup2\n      0xffffffffffffffffffffffffffffffffffffffff\n      mul\n      not\n      and\n      swap1\n      dup4\n      0xffffffffffffffffffffffffffffffffffffffff\n      and\n      mul\n      or\n      swap1\n      sstore\n      pop\n      0x20\n      dup3\n      add\n      mload\n      dup2\n      0x01\n      add\n      sstore\n      0x40\n      dup3\n      add\n      mload\n      dup2\n      0x02\n      add\n      sstore\n      swap1\n      pop\n      pop\n        /* \"watermelon.sol\":16225:16239  uint256 amount */\n      0x00\n        /* \"watermelon.sol\":16242:16255  totalWithdraw */\n      0x0a\n        /* \"watermelon.sol\":16242:16267  totalWithdraw[msg.sender] */\n      0x00\n        /* \"watermelon.sol\":16256:16266  msg.sender */\n      caller\n        /* \"watermelon.sol\":16242:16267  totalWithdraw[msg.sender] */\n      0xffffffffffffffffffffffffffffffffffffffff\n      and\n      0xffffffffffffffffffffffffffffffffffffffff\n      and\n      dup2\n      mstore\n      0x20\n      add\n      swap1\n      dup2\n      mstore\n      0x20\n      add\n      0x00\n      keccak256\n        /* \"watermelon.sol\":16242:16274  totalWithdraw[msg.sender].amount */\n      0x01\n      add\n      sload\n        /* \"watermelon.sol\":16225:16274  uint256 amount = totalWithdraw[msg.sender].amount */\n      swap1\n      pop\n        /* \"watermelon.sol\":16281:16300  uint256 totalAmount */\n      0x00\n        /* \"watermelon.sol\":16303:16338  SafeMath.add(amount,aval_withdraw2) */\n      tag_333\n        /* \"watermelon.sol\":16316:16322  amount */\n      dup3\n        /* \"watermelon.sol\":16323:16337  aval_withdraw2 */\n      dup9\n        /* \"watermelon.sol\":16303:16315  SafeMath.add */\n      tag_212\n        /* \"watermelon.sol\":16303:16338  SafeMath.add(amount,aval_withdraw2) */\n      jump\t// in\n    tag_333:\n        /* \"watermelon.sol\":16281:16338  uint256 totalAmount = SafeMath.add(amount,aval_withdraw2) */\n      swap1\n      pop\n        /* \"watermelon.sol\":16422:16463  userTotalWithdraw(msg.sender,totalAmount) */\n      mload(0x40)\n      dup1\n      0x40\n      add\n      0x40\n      mstore\n      dup1\n        /* \"watermelon.sol\":16440:16450  msg.sender */\n      caller\n        /* \"watermelon.sol\":16422:16463  userTotalWithdraw(msg.sender,totalAmount) */\n      0xffffffffffffffffffffffffffffffffffffffff\n      and\n      dup2\n      mstore\n      0x20\n      add\n        /* \"watermelon.sol\":16451:16462  totalAmount */\n      dup3\n        /* \"watermelon.sol\":16422:16463  userTotalWithdraw(msg.sender,totalAmount) */\n      dup2\n      mstore\n      pop\n        /* \"watermelon.sol\":16394:16407  totalWithdraw */\n      0x0a\n        /* \"watermelon.sol\":16394:16419  totalWithdraw[msg.sender] */\n      0x00\n        /* \"watermelon.sol\":16408:16418  msg.sender */\n      caller\n        /* \"watermelon.sol\":16394:16419  totalWithdraw[msg.sender] */\n      0xffffffffffffffffffffffffffffffffffffffff\n      and\n      0xffffffffffffffffffffffffffffffffffffffff\n      and\n      dup2\n      mstore\n      0x20\n      add\n      swap1\n      dup2\n      mstore\n      0x20\n      add\n      0x00\n      keccak256\n        /* \"watermelon.sol\":16394:16463  totalWithdraw[msg.sender] = userTotalWithdraw(msg.sender,totalAmount) */\n      0x00\n      dup3\n      add\n      mload\n      dup2\n      0x00\n      add\n      exp(0x0100, 0x00)\n      dup2\n      sload\n      dup2\n      0xffffffffffffffffffffffffffffffffffffffff\n      mul\n      not\n      and\n      swap1\n      dup4\n      0xffffffffffffffffffffffffffffffffffffffff\n      and\n      mul\n      or\n      swap1\n      sstore\n      pop\n      0x20\n      dup3\n      add\n      mload\n      dup2\n      0x01\n      add\n      sstore\n      swap1\n      pop\n      pop\n        /* \"watermelon.sol\":15142:16472  {... */\n      pop\n      pop\n      pop\n      pop\n      pop\n      pop\n      pop\n      pop\n        /* \"watermelon.sol\":8677:8682  false */\n      0x00\n        /* \"watermelon.sol\":8668:8674  locked */\n      dup1\n      0x14\n        /* \"watermelon.sol\":8668:8682  locked = false */\n      0x0100\n      exp\n      dup2\n      sload\n      dup2\n      0xff\n      mul\n      not\n      and\n      swap1\n      dup4\n      iszero\n      iszero\n      mul\n      or\n      swap1\n      sstore\n      pop\n        /* \"watermelon.sol\":15101:16472  function withdrawal() public noReentrant {... */\n      jump\t// out\n        /* \"watermelon.sol\":8948:8988  uint256 public constant withdraw_fee = 2 */\n    tag_144:\n        /* \"watermelon.sol\":8987:8988  2 */\n      0x02\n        /* \"watermelon.sol\":8948:8988  uint256 public constant withdraw_fee = 2 */\n      dup2\n      jump\t// out\n        /* \"watermelon.sol\":8911:8942  uint256 public constant fee = 1 */\n    tag_147:\n        /* \"watermelon.sol\":8941:8942  1 */\n      0x01\n        /* \"watermelon.sol\":8911:8942  uint256 public constant fee = 1 */\n      dup2\n      jump\t// out\n        /* \"watermelon.sol\":9170:9194  bool public init = false */\n    tag_150:\n      0x04\n      0x14\n      swap1\n      sload\n      swap1\n      0x0100\n      exp\n      swap1\n      div\n      0xff\n      and\n      dup2\n      jump\t// out\n        /* \"watermelon.sol\":9200:9235  bool public alreadyInvested = false */\n    tag_153:\n      0x04\n      0x15\n      swap1\n      sload\n      swap1\n      0x0100\n      exp\n      swap1\n      div\n      0xff\n      and\n      dup2\n      jump\t// out\n        /* \"watermelon.sol\":8156:8261  function transferOwnership(address newOwner) public onlyOwner {... */\n    tag_157:\n        /* \"watermelon.sol\":7946:7958  _msgSender() */\n      tag_335\n        /* \"watermelon.sol\":7946:7956  _msgSender */\n      tag_186\n        /* \"watermelon.sol\":7946:7958  _msgSender() */\n      jump\t// in\n    tag_335:\n        /* \"watermelon.sol\":7936:7958  _owner == _msgSender() */\n      0xffffffffffffffffffffffffffffffffffffffff\n      and\n        /* \"watermelon.sol\":7936:7942  _owner */\n      0x00\n      dup1\n      sload\n      swap1\n      0x0100\n      exp\n      swap1\n      div\n      0xffffffffffffffffffffffffffffffffffffffff\n      and\n        /* \"watermelon.sol\":7936:7958  _owner == _msgSender() */\n      0xffffffffffffffffffffffffffffffffffffffff\n      and\n      eq\n        /* \"watermelon.sol\":7928:7995  require(_owner == _msgSender(), \"Ownable: caller is not the owner\") */\n      tag_336\n      jumpi\n      mload(0x40)\n      0x08c379a000000000000000000000000000000000000000000000000000000000\n      dup2\n      mstore\n      0x04\n      add\n      tag_337\n      swap1\n      tag_189\n      jump\t// in\n    tag_337:\n      mload(0x40)\n      dup1\n      swap2\n      sub\n      swap1\n      revert\n    tag_336:\n        /* \"watermelon.sol\":8226:8254  _transferOwnership(newOwner) */\n      tag_339\n        /* \"watermelon.sol\":8245:8253  newOwner */\n      dup2\n        /* \"watermelon.sol\":8226:8244  _transferOwnership */\n      tag_340\n        /* \"watermelon.sol\":8226:8254  _transferOwnership(newOwner) */\n      jump\t// in\n    tag_339:\n        /* \"watermelon.sol\":8156:8261  function transferOwnership(address newOwner) public onlyOwner {... */\n      pop\n      jump\t// out\n        /* \"watermelon.sol\":8793:8831  uint256 public constant min = 10 ether */\n    tag_159:\n        /* \"watermelon.sol\":8823:8831  10 ether */\n      0x8ac7230489e80000\n        /* \"watermelon.sol\":8793:8831  uint256 public constant min = 10 ether */\n      dup2\n      jump\t// out\n        /* \"watermelon.sol\":3449:3545  function sub(uint256 a, uint256 b) internal pure returns (uint256) {... */\n    tag_164:\n        /* \"watermelon.sol\":3507:3514  uint256 */\n      0x00\n        /* \"watermelon.sol\":3537:3538  b */\n      dup2\n        /* \"watermelon.sol\":3533:3534  a */\n      dup4\n        /* \"watermelon.sol\":3533:3538  a - b */\n      tag_342\n      swap2\n      swap1\n      tag_343\n      jump\t// in\n    tag_342:\n        /* \"watermelon.sol\":3526:3538  return a - b */\n      swap1\n      pop\n        /* \"watermelon.sol\":3449:3545  function sub(uint256 a, uint256 b) internal pure returns (uint256) {... */\n      swap3\n      swap2\n      pop\n      pop\n      jump\t// out\n        /* \"watermelon.sol\":4177:4273  function div(uint256 a, uint256 b) internal pure returns (uint256) {... */\n    tag_166:\n        /* \"watermelon.sol\":4235:4242  uint256 */\n      0x00\n        /* \"watermelon.sol\":4265:4266  b */\n      dup2\n        /* \"watermelon.sol\":4261:4262  a */\n      dup4\n        /* \"watermelon.sol\":4261:4266  a / b */\n      tag_345\n      swap2\n      swap1\n      tag_346\n      jump\t// in\n    tag_345:\n        /* \"watermelon.sol\":4254:4266  return a / b */\n      swap1\n      pop\n        /* \"watermelon.sol\":4177:4273  function div(uint256 a, uint256 b) internal pure returns (uint256) {... */\n      swap3\n      swap2\n      pop\n      pop\n      jump\t// out\n        /* \"watermelon.sol\":3792:3888  function mul(uint256 a, uint256 b) internal pure returns (uint256) {... */\n    tag_170:\n        /* \"watermelon.sol\":3850:3857  uint256 */\n      0x00\n        /* \"watermelon.sol\":3880:3881  b */\n      dup2\n        /* \"watermelon.sol\":3876:3877  a */\n      dup4\n        /* \"watermelon.sol\":3876:3881  a * b */\n      tag_348\n      swap2\n      swap1\n      tag_349\n      jump\t// in\n    tag_348:\n        /* \"watermelon.sol\":3869:3881  return a * b */\n      swap1\n      pop\n        /* \"watermelon.sol\":3792:3888  function mul(uint256 a, uint256 b) internal pure returns (uint256) {... */\n      swap3\n      swap2\n      pop\n      pop\n      jump\t// out\n        /* \"watermelon.sol\":7143:7239  function _msgSender() internal view virtual returns (address) {... */\n    tag_186:\n        /* \"watermelon.sol\":7196:7203  address */\n      0x00\n        /* \"watermelon.sol\":7222:7232  msg.sender */\n      caller\n        /* \"watermelon.sol\":7215:7232  return msg.sender */\n      swap1\n      pop\n        /* \"watermelon.sol\":7143:7239  function _msgSender() internal view virtual returns (address) {... */\n      swap1\n      jump\t// out\n        /* \"watermelon.sol\":3082:3178  function add(uint256 a, uint256 b) internal pure returns (uint256) {... */\n    tag_212:\n        /* \"watermelon.sol\":3140:3147  uint256 */\n      0x00\n        /* \"watermelon.sol\":3170:3171  b */\n      dup2\n        /* \"watermelon.sol\":3166:3167  a */\n      dup4\n        /* \"watermelon.sol\":3166:3171  a + b */\n      tag_352\n      swap2\n      swap1\n      tag_217\n      jump\t// in\n    tag_352:\n        /* \"watermelon.sol\":3159:3171  return a + b */\n      swap1\n      pop\n        /* \"watermelon.sol\":3082:3178  function add(uint256 a, uint256 b) internal pure returns (uint256) {... */\n      swap3\n      swap2\n      pop\n      pop\n      jump\t// out\n        /* \"watermelon.sol\":8267:8486  function _transferOwnership(address newOwner) internal {... */\n    tag_340:\n        /* \"watermelon.sol\":8358:8359  0 */\n      0x00\n        /* \"watermelon.sol\":8338:8360  newOwner != address(0) */\n      0xffffffffffffffffffffffffffffffffffffffff\n      and\n        /* \"watermelon.sol\":8338:8346  newOwner */\n      dup2\n        /* \"watermelon.sol\":8338:8360  newOwner != address(0) */\n      0xffffffffffffffffffffffffffffffffffffffff\n      and\n      sub\n        /* \"watermelon.sol\":8330:8403  require(newOwner != address(0), \"Ownable: new owner is the zero address\") */\n      tag_354\n      jumpi\n      mload(0x40)\n      0x08c379a000000000000000000000000000000000000000000000000000000000\n      dup2\n      mstore\n      0x04\n      add\n      tag_355\n      swap1\n      tag_356\n      jump\t// in\n    tag_355:\n      mload(0x40)\n      dup1\n      swap2\n      sub\n      swap1\n      revert\n    tag_354:\n        /* \"watermelon.sol\":8445:8453  newOwner */\n      dup1\n        /* \"watermelon.sol\":8416:8454  OwnershipTransferred(_owner, newOwner) */\n      0xffffffffffffffffffffffffffffffffffffffff\n      and\n        /* \"watermelon.sol\":8437:8443  _owner */\n      0x00\n      dup1\n      sload\n      swap1\n      0x0100\n      exp\n      swap1\n      div\n      0xffffffffffffffffffffffffffffffffffffffff\n      and\n        /* \"watermelon.sol\":8416:8454  OwnershipTransferred(_owner, newOwner) */\n      0xffffffffffffffffffffffffffffffffffffffff\n      and\n      0x8be0079c531659141344cd1fd0a4f28419497f9722a3daafe3b4186f6b6457e0\n      mload(0x40)\n      mload(0x40)\n      dup1\n      swap2\n      sub\n      swap1\n      log3\n        /* \"watermelon.sol\":8471:8479  newOwner */\n      dup1\n        /* \"watermelon.sol\":8462:8468  _owner */\n      0x00\n      dup1\n        /* \"watermelon.sol\":8462:8479  _owner = newOwner */\n      0x0100\n      exp\n      dup2\n      sload\n      dup2\n      0xffffffffffffffffffffffffffffffffffffffff\n      mul\n      not\n      and\n      swap1\n      dup4\n      0xffffffffffffffffffffffffffffffffffffffff\n      and\n      mul\n      or\n      swap1\n      sstore\n      pop\n        /* \"watermelon.sol\":8267:8486  function _transferOwnership(address newOwner) internal {... */\n      pop\n      jump\t// out\n        /* \"#utility.yul\":88:205   */\n    tag_358:\n        /* \"#utility.yul\":197:198   */\n      0x00\n        /* \"#utility.yul\":194:195   */\n      dup1\n        /* \"#utility.yul\":187:199   */\n      revert\n        /* \"#utility.yul\":334:460   */\n    tag_360:\n        /* \"#utility.yul\":371:378   */\n      0x00\n        /* \"#utility.yul\":411:453   */\n      0xffffffffffffffffffffffffffffffffffffffff\n        /* \"#utility.yul\":404:409   */\n      dup3\n        /* \"#utility.yul\":400:454   */\n      and\n        /* \"#utility.yul\":389:454   */\n      swap1\n      pop\n        /* \"#utility.yul\":334:460   */\n      swap2\n      swap1\n      pop\n      jump\t// out\n        /* \"#utility.yul\":466:562   */\n    tag_361:\n        /* \"#utility.yul\":503:510   */\n      0x00\n        /* \"#utility.yul\":532:556   */\n      tag_405\n        /* \"#utility.yul\":550:555   */\n      dup3\n        /* \"#utility.yul\":532:556   */\n      tag_360\n      jump\t// in\n    tag_405:\n        /* \"#utility.yul\":521:556   */\n      swap1\n      pop\n        /* \"#utility.yul\":466:562   */\n      swap2\n      swap1\n      pop\n      jump\t// out\n        /* \"#utility.yul\":568:690   */\n    tag_362:\n        /* \"#utility.yul\":641:665   */\n      tag_407\n        /* \"#utility.yul\":659:664   */\n      dup2\n        /* \"#utility.yul\":641:665   */\n      tag_361\n      jump\t// in\n    tag_407:\n        /* \"#utility.yul\":634:639   */\n      dup2\n        /* \"#utility.yul\":631:666   */\n      eq\n        /* \"#utility.yul\":621:684   */\n      tag_408\n      jumpi\n        /* \"#utility.yul\":680:681   */\n      0x00\n        /* \"#utility.yul\":677:678   */\n      dup1\n        /* \"#utility.yul\":670:682   */\n      revert\n        /* \"#utility.yul\":621:684   */\n    tag_408:\n        /* \"#utility.yul\":568:690   */\n      pop\n      jump\t// out\n        /* \"#utility.yul\":696:835   */\n    tag_363:\n        /* \"#utility.yul\":742:747   */\n      0x00\n        /* \"#utility.yul\":780:786   */\n      dup2\n        /* \"#utility.yul\":767:787   */\n      calldataload\n        /* \"#utility.yul\":758:787   */\n      swap1\n      pop\n        /* \"#utility.yul\":796:829   */\n      tag_410\n        /* \"#utility.yul\":823:828   */\n      dup2\n        /* \"#utility.yul\":796:829   */\n      tag_362\n      jump\t// in\n    tag_410:\n        /* \"#utility.yul\":696:835   */\n      swap3\n      swap2\n      pop\n      pop\n      jump\t// out\n        /* \"#utility.yul\":841:1170   */\n    tag_46:\n        /* \"#utility.yul\":900:906   */\n      0x00\n        /* \"#utility.yul\":949:951   */\n      0x20\n        /* \"#utility.yul\":937:946   */\n      dup3\n        /* \"#utility.yul\":928:935   */\n      dup5\n        /* \"#utility.yul\":924:947   */\n      sub\n        /* \"#utility.yul\":920:952   */\n      slt\n        /* \"#utility.yul\":917:1036   */\n      iszero\n      tag_412\n      jumpi\n        /* \"#utility.yul\":955:1034   */\n      tag_413\n      tag_358\n      jump\t// in\n    tag_413:\n        /* \"#utility.yul\":917:1036   */\n    tag_412:\n        /* \"#utility.yul\":1075:1076   */\n      0x00\n        /* \"#utility.yul\":1100:1153   */\n      tag_414\n        /* \"#utility.yul\":1145:1152   */\n      dup5\n        /* \"#utility.yul\":1136:1142   */\n      dup3\n        /* \"#utility.yul\":1125:1134   */\n      dup6\n        /* \"#utility.yul\":1121:1143   */\n      add\n        /* \"#utility.yul\":1100:1153   */\n      tag_363\n      jump\t// in\n    tag_414:\n        /* \"#utility.yul\":1090:1153   */\n      swap2\n      pop\n        /* \"#utility.yul\":1046:1163   */\n      pop\n        /* \"#utility.yul\":841:1170   */\n      swap3\n      swap2\n      pop\n      pop\n      jump\t// out\n        /* \"#utility.yul\":1176:1253   */\n    tag_364:\n        /* \"#utility.yul\":1213:1220   */\n      0x00\n        /* \"#utility.yul\":1242:1247   */\n      dup2\n        /* \"#utility.yul\":1231:1247   */\n      swap1\n      pop\n        /* \"#utility.yul\":1176:1253   */\n      swap2\n      swap1\n      pop\n      jump\t// out\n        /* \"#utility.yul\":1259:1377   */\n    tag_365:\n        /* \"#utility.yul\":1346:1370   */\n      tag_417\n        /* \"#utility.yul\":1364:1369   */\n      dup2\n        /* \"#utility.yul\":1346:1370   */\n      tag_364\n      jump\t// in\n    tag_417:\n        /* \"#utility.yul\":1341:1344   */\n      dup3\n        /* \"#utility.yul\":1334:1371   */\n      mstore\n        /* \"#utility.yul\":1259:1377   */\n      pop\n      pop\n      jump\t// out\n        /* \"#utility.yul\":1383:1605   */\n    tag_49:\n        /* \"#utility.yul\":1476:1480   */\n      0x00\n        /* \"#utility.yul\":1514:1516   */\n      0x20\n        /* \"#utility.yul\":1503:1512   */\n      dup3\n        /* \"#utility.yul\":1499:1517   */\n      add\n        /* \"#utility.yul\":1491:1517   */\n      swap1\n      pop\n        /* \"#utility.yul\":1527:1598   */\n      tag_419\n        /* \"#utility.yul\":1595:1596   */\n      0x00\n        /* \"#utility.yul\":1584:1593   */\n      dup4\n        /* \"#utility.yul\":1580:1597   */\n      add\n        /* \"#utility.yul\":1571:1577   */\n      dup5\n        /* \"#utility.yul\":1527:1598   */\n      tag_365\n      jump\t// in\n    tag_419:\n        /* \"#utility.yul\":1383:1605   */\n      swap3\n      swap2\n      pop\n      pop\n      jump\t// out\n        /* \"#utility.yul\":1611:1729   */\n    tag_366:\n        /* \"#utility.yul\":1698:1722   */\n      tag_421\n        /* \"#utility.yul\":1716:1721   */\n      dup2\n        /* \"#utility.yul\":1698:1722   */\n      tag_361\n      jump\t// in\n    tag_421:\n        /* \"#utility.yul\":1693:1696   */\n      dup3\n        /* \"#utility.yul\":1686:1723   */\n      mstore\n        /* \"#utility.yul\":1611:1729   */\n      pop\n      pop\n      jump\t// out\n        /* \"#utility.yul\":1735:2067   */\n    tag_54:\n        /* \"#utility.yul\":1856:1860   */\n      0x00\n        /* \"#utility.yul\":1894:1896   */\n      0x40\n        /* \"#utility.yul\":1883:1892   */\n      dup3\n        /* \"#utility.yul\":1879:1897   */\n      add\n        /* \"#utility.yul\":1871:1897   */\n      swap1\n      pop\n        /* \"#utility.yul\":1907:1978   */\n      tag_423\n        /* \"#utility.yul\":1975:1976   */\n      0x00\n        /* \"#utility.yul\":1964:1973   */\n      dup4\n        /* \"#utility.yul\":1960:1977   */\n      add\n        /* \"#utility.yul\":1951:1957   */\n      dup6\n        /* \"#utility.yul\":1907:1978   */\n      tag_366\n      jump\t// in\n    tag_423:\n        /* \"#utility.yul\":1988:2060   */\n      tag_424\n        /* \"#utility.yul\":2056:2058   */\n      0x20\n        /* \"#utility.yul\":2045:2054   */\n      dup4\n        /* \"#utility.yul\":2041:2059   */\n      add\n        /* \"#utility.yul\":2032:2038   */\n      dup5\n        /* \"#utility.yul\":1988:2060   */\n      tag_365\n      jump\t// in\n    tag_424:\n        /* \"#utility.yul\":1735:2067   */\n      swap4\n      swap3\n      pop\n      pop\n      pop\n      jump\t// out\n        /* \"#utility.yul\":2073:2163   */\n    tag_367:\n        /* \"#utility.yul\":2107:2114   */\n      0x00\n        /* \"#utility.yul\":2150:2155   */\n      dup2\n        /* \"#utility.yul\":2143:2156   */\n      iszero\n        /* \"#utility.yul\":2136:2157   */\n      iszero\n        /* \"#utility.yul\":2125:2157   */\n      swap1\n      pop\n        /* \"#utility.yul\":2073:2163   */\n      swap2\n      swap1\n      pop\n      jump\t// out\n        /* \"#utility.yul\":2169:2278   */\n    tag_368:\n        /* \"#utility.yul\":2250:2271   */\n      tag_427\n        /* \"#utility.yul\":2265:2270   */\n      dup2\n        /* \"#utility.yul\":2250:2271   */\n      tag_367\n      jump\t// in\n    tag_427:\n        /* \"#utility.yul\":2245:2248   */\n      dup3\n        /* \"#utility.yul\":2238:2272   */\n      mstore\n        /* \"#utility.yul\":2169:2278   */\n      pop\n      pop\n      jump\t// out\n        /* \"#utility.yul\":2284:2494   */\n    tag_61:\n        /* \"#utility.yul\":2371:2375   */\n      0x00\n        /* \"#utility.yul\":2409:2411   */\n      0x20\n        /* \"#utility.yul\":2398:2407   */\n      dup3\n        /* \"#utility.yul\":2394:2412   */\n      add\n        /* \"#utility.yul\":2386:2412   */\n      swap1\n      pop\n        /* \"#utility.yul\":2422:2487   */\n      tag_429\n        /* \"#utility.yul\":2484:2485   */\n      0x00\n        /* \"#utility.yul\":2473:2482   */\n      dup4\n        /* \"#utility.yul\":2469:2486   */\n      add\n        /* \"#utility.yul\":2460:2466   */\n      dup5\n        /* \"#utility.yul\":2422:2487   */\n      tag_368\n      jump\t// in\n    tag_429:\n        /* \"#utility.yul\":2284:2494   */\n      swap3\n      swap2\n      pop\n      pop\n      jump\t// out\n        /* \"#utility.yul\":2500:2622   */\n    tag_369:\n        /* \"#utility.yul\":2573:2597   */\n      tag_431\n        /* \"#utility.yul\":2591:2596   */\n      dup2\n        /* \"#utility.yul\":2573:2597   */\n      tag_364\n      jump\t// in\n    tag_431:\n        /* \"#utility.yul\":2566:2571   */\n      dup2\n        /* \"#utility.yul\":2563:2598   */\n      eq\n        /* \"#utility.yul\":2553:2616   */\n      tag_432\n      jumpi\n        /* \"#utility.yul\":2612:2613   */\n      0x00\n        /* \"#utility.yul\":2609:2610   */\n      dup1\n        /* \"#utility.yul\":2602:2614   */\n      revert\n        /* \"#utility.yul\":2553:2616   */\n    tag_432:\n        /* \"#utility.yul\":2500:2622   */\n      pop\n      jump\t// out\n        /* \"#utility.yul\":2628:2767   */\n    tag_370:\n        /* \"#utility.yul\":2674:2679   */\n      0x00\n        /* \"#utility.yul\":2712:2718   */\n      dup2\n        /* \"#utility.yul\":2699:2719   */\n      calldataload\n        /* \"#utility.yul\":2690:2719   */\n      swap1\n      pop\n        /* \"#utility.yul\":2728:2761   */\n      tag_434\n        /* \"#utility.yul\":2755:2760   */\n      dup2\n        /* \"#utility.yul\":2728:2761   */\n      tag_369\n      jump\t// in\n    tag_434:\n        /* \"#utility.yul\":2628:2767   */\n      swap3\n      swap2\n      pop\n      pop\n      jump\t// out\n        /* \"#utility.yul\":2773:3102   */\n    tag_64:\n        /* \"#utility.yul\":2832:2838   */\n      0x00\n        /* \"#utility.yul\":2881:2883   */\n      0x20\n        /* \"#utility.yul\":2869:2878   */\n      dup3\n        /* \"#utility.yul\":2860:2867   */\n      dup5\n        /* \"#utility.yul\":2856:2879   */\n      sub\n        /* \"#utility.yul\":2852:2884   */\n      slt\n        /* \"#utility.yul\":2849:2968   */\n      iszero\n      tag_436\n      jumpi\n        /* \"#utility.yul\":2887:2966   */\n      tag_437\n      tag_358\n      jump\t// in\n    tag_437:\n        /* \"#utility.yul\":2849:2968   */\n    tag_436:\n        /* \"#utility.yul\":3007:3008   */\n      0x00\n        /* \"#utility.yul\":3032:3085   */\n      tag_438\n        /* \"#utility.yul\":3077:3084   */\n      dup5\n        /* \"#utility.yul\":3068:3074   */\n      dup3\n        /* \"#utility.yul\":3057:3066   */\n      dup6\n        /* \"#utility.yul\":3053:3075   */\n      add\n        /* \"#utility.yul\":3032:3085   */\n      tag_370\n      jump\t// in\n    tag_438:\n        /* \"#utility.yul\":3022:3085   */\n      swap2\n      pop\n        /* \"#utility.yul\":2978:3095   */\n      pop\n        /* \"#utility.yul\":2773:3102   */\n      swap3\n      swap2\n      pop\n      pop\n      jump\t// out\n        /* \"#utility.yul\":3108:3550   */\n    tag_71:\n        /* \"#utility.yul\":3257:3261   */\n      0x00\n        /* \"#utility.yul\":3295:3297   */\n      0x60\n        /* \"#utility.yul\":3284:3293   */\n      dup3\n        /* \"#utility.yul\":3280:3298   */\n      add\n        /* \"#utility.yul\":3272:3298   */\n      swap1\n      pop\n        /* \"#utility.yul\":3308:3379   */\n      tag_440\n        /* \"#utility.yul\":3376:3377   */\n      0x00\n        /* \"#utility.yul\":3365:3374   */\n      dup4\n        /* \"#utility.yul\":3361:3378   */\n      add\n        /* \"#utility.yul\":3352:3358   */\n      dup7\n        /* \"#utility.yul\":3308:3379   */\n      tag_366\n      jump\t// in\n    tag_440:\n        /* \"#utility.yul\":3389:3461   */\n      tag_441\n        /* \"#utility.yul\":3457:3459   */\n      0x20\n        /* \"#utility.yul\":3446:3455   */\n      dup4\n        /* \"#utility.yul\":3442:3460   */\n      add\n        /* \"#utility.yul\":3433:3439   */\n      dup6\n        /* \"#utility.yul\":3389:3461   */\n      tag_365\n      jump\t// in\n    tag_441:\n        /* \"#utility.yul\":3471:3543   */\n      tag_442\n        /* \"#utility.yul\":3539:3541   */\n      0x40\n        /* \"#utility.yul\":3528:3537   */\n      dup4\n        /* \"#utility.yul\":3524:3542   */\n      add\n        /* \"#utility.yul\":3515:3521   */\n      dup5\n        /* \"#utility.yul\":3471:3543   */\n      tag_365\n      jump\t// in\n    tag_442:\n        /* \"#utility.yul\":3108:3550   */\n      swap5\n      swap4\n      pop\n      pop\n      pop\n      pop\n      jump\t// out\n        /* \"#utility.yul\":3556:4030   */\n    tag_80:\n        /* \"#utility.yul\":3624:3630   */\n      0x00\n        /* \"#utility.yul\":3632:3638   */\n      dup1\n        /* \"#utility.yul\":3681:3683   */\n      0x40\n        /* \"#utility.yul\":3669:3678   */\n      dup4\n        /* \"#utility.yul\":3660:3667   */\n      dup6\n        /* \"#utility.yul\":3656:3679   */\n      sub\n        /* \"#utility.yul\":3652:3684   */\n      slt\n        /* \"#utility.yul\":3649:3768   */\n      iszero\n      tag_444\n      jumpi\n        /* \"#utility.yul\":3687:3766   */\n      tag_445\n      tag_358\n      jump\t// in\n    tag_445:\n        /* \"#utility.yul\":3649:3768   */\n    tag_444:\n        /* \"#utility.yul\":3807:3808   */\n      0x00\n        /* \"#utility.yul\":3832:3885   */\n      tag_446\n        /* \"#utility.yul\":3877:3884   */\n      dup6\n        /* \"#utility.yul\":3868:3874   */\n      dup3\n        /* \"#utility.yul\":3857:3866   */\n      dup7\n        /* \"#utility.yul\":3853:3875   */\n      add\n        /* \"#utility.yul\":3832:3885   */\n      tag_363\n      jump\t// in\n    tag_446:\n        /* \"#utility.yul\":3822:3885   */\n      swap3\n      pop\n        /* \"#utility.yul\":3778:3895   */\n      pop\n        /* \"#utility.yul\":3934:3936   */\n      0x20\n        /* \"#utility.yul\":3960:4013   */\n      tag_447\n        /* \"#utility.yul\":4005:4012   */\n      dup6\n        /* \"#utility.yul\":3996:4002   */\n      dup3\n        /* \"#utility.yul\":3985:3994   */\n      dup7\n        /* \"#utility.yul\":3981:4003   */\n      add\n        /* \"#utility.yul\":3960:4013   */\n      tag_370\n      jump\t// in\n    tag_447:\n        /* \"#utility.yul\":3950:4013   */\n      swap2\n      pop\n        /* \"#utility.yul\":3905:4023   */\n      pop\n        /* \"#utility.yul\":3556:4030   */\n      swap3\n      pop\n      swap3\n      swap1\n      pop\n      jump\t// out\n        /* \"#utility.yul\":4036:4258   */\n    tag_116:\n        /* \"#utility.yul\":4129:4133   */\n      0x00\n        /* \"#utility.yul\":4167:4169   */\n      0x20\n        /* \"#utility.yul\":4156:4165   */\n      dup3\n        /* \"#utility.yul\":4152:4170   */\n      add\n        /* \"#utility.yul\":4144:4170   */\n      swap1\n      pop\n        /* \"#utility.yul\":4180:4251   */\n      tag_449\n        /* \"#utility.yul\":4248:4249   */\n      0x00\n        /* \"#utility.yul\":4237:4246   */\n      dup4\n        /* \"#utility.yul\":4233:4250   */\n      add\n        /* \"#utility.yul\":4224:4230   */\n      dup5\n        /* \"#utility.yul\":4180:4251   */\n      tag_366\n      jump\t// in\n    tag_449:\n        /* \"#utility.yul\":4036:4258   */\n      swap3\n      swap2\n      pop\n      pop\n      jump\t// out\n        /* \"#utility.yul\":4264:4407   */\n    tag_371:\n        /* \"#utility.yul\":4321:4326   */\n      0x00\n        /* \"#utility.yul\":4352:4358   */\n      dup2\n        /* \"#utility.yul\":4346:4359   */\n      mload\n        /* \"#utility.yul\":4337:4359   */\n      swap1\n      pop\n        /* \"#utility.yul\":4368:4401   */\n      tag_451\n        /* \"#utility.yul\":4395:4400   */\n      dup2\n        /* \"#utility.yul\":4368:4401   */\n      tag_369\n      jump\t// in\n    tag_451:\n        /* \"#utility.yul\":4264:4407   */\n      swap3\n      swap2\n      pop\n      pop\n      jump\t// out\n        /* \"#utility.yul\":4413:4764   */\n    tag_177:\n        /* \"#utility.yul\":4483:4489   */\n      0x00\n        /* \"#utility.yul\":4532:4534   */\n      0x20\n        /* \"#utility.yul\":4520:4529   */\n      dup3\n        /* \"#utility.yul\":4511:4518   */\n      dup5\n        /* \"#utility.yul\":4507:4530   */\n      sub\n        /* \"#utility.yul\":4503:4535   */\n      slt\n        /* \"#utility.yul\":4500:4619   */\n      iszero\n      tag_453\n      jumpi\n        /* \"#utility.yul\":4538:4617   */\n      tag_454\n      tag_358\n      jump\t// in\n    tag_454:\n        /* \"#utility.yul\":4500:4619   */\n    tag_453:\n        /* \"#utility.yul\":4658:4659   */\n      0x00\n        /* \"#utility.yul\":4683:4747   */\n      tag_455\n        /* \"#utility.yul\":4739:4746   */\n      dup5\n        /* \"#utility.yul\":4730:4736   */\n      dup3\n        /* \"#utility.yul\":4719:4728   */\n      dup6\n        /* \"#utility.yul\":4715:4737   */\n      add\n        /* \"#utility.yul\":4683:4747   */\n      tag_371\n      jump\t// in\n    tag_455:\n        /* \"#utility.yul\":4673:4747   */\n      swap2\n      pop\n        /* \"#utility.yul\":4629:4757   */\n      pop\n        /* \"#utility.yul\":4413:4764   */\n      swap3\n      swap2\n      pop\n      pop\n      jump\t// out\n        /* \"#utility.yul\":4770:4939   */\n    tag_372:\n        /* \"#utility.yul\":4854:4865   */\n      0x00\n        /* \"#utility.yul\":4888:4894   */\n      dup3\n        /* \"#utility.yul\":4883:4886   */\n      dup3\n        /* \"#utility.yul\":4876:4895   */\n      mstore\n        /* \"#utility.yul\":4928:4932   */\n      0x20\n        /* \"#utility.yul\":4923:4926   */\n      dup3\n        /* \"#utility.yul\":4919:4933   */\n      add\n        /* \"#utility.yul\":4904:4933   */\n      swap1\n      pop\n        /* \"#utility.yul\":4770:4939   */\n      swap3\n      swap2\n      pop\n      pop\n      jump\t// out\n        /* \"#utility.yul\":4945:5127   */\n    tag_373:\n        /* \"#utility.yul\":5085:5119   */\n      0x4f776e61626c653a2063616c6c6572206973206e6f7420746865206f776e6572\n        /* \"#utility.yul\":5081:5082   */\n      0x00\n        /* \"#utility.yul\":5073:5079   */\n      dup3\n        /* \"#utility.yul\":5069:5083   */\n      add\n        /* \"#utility.yul\":5062:5120   */\n      mstore\n        /* \"#utility.yul\":4945:5127   */\n      pop\n      jump\t// out\n        /* \"#utility.yul\":5133:5499   */\n    tag_374:\n        /* \"#utility.yul\":5275:5278   */\n      0x00\n        /* \"#utility.yul\":5296:5363   */\n      tag_459\n        /* \"#utility.yul\":5360:5362   */\n      0x20\n        /* \"#utility.yul\":5355:5358   */\n      dup4\n        /* \"#utility.yul\":5296:5363   */\n      tag_372\n      jump\t// in\n    tag_459:\n        /* \"#utility.yul\":5289:5363   */\n      swap2\n      pop\n        /* \"#utility.yul\":5372:5465   */\n      tag_460\n        /* \"#utility.yul\":5461:5464   */\n      dup3\n        /* \"#utility.yul\":5372:5465   */\n      tag_373\n      jump\t// in\n    tag_460:\n        /* \"#utility.yul\":5490:5492   */\n      0x20\n        /* \"#utility.yul\":5485:5488   */\n      dup3\n        /* \"#utility.yul\":5481:5493   */\n      add\n        /* \"#utility.yul\":5474:5493   */\n      swap1\n      pop\n        /* \"#utility.yul\":5133:5499   */\n      swap2\n      swap1\n      pop\n      jump\t// out\n        /* \"#utility.yul\":5505:5924   */\n    tag_189:\n        /* \"#utility.yul\":5671:5675   */\n      0x00\n        /* \"#utility.yul\":5709:5711   */\n      0x20\n        /* \"#utility.yul\":5698:5707   */\n      dup3\n        /* \"#utility.yul\":5694:5712   */\n      add\n        /* \"#utility.yul\":5686:5712   */\n      swap1\n      pop\n        /* \"#utility.yul\":5758:5767   */\n      dup2\n        /* \"#utility.yul\":5752:5756   */\n      dup2\n        /* \"#utility.yul\":5748:5768   */\n      sub\n        /* \"#utility.yul\":5744:5745   */\n      0x00\n        /* \"#utility.yul\":5733:5742   */\n      dup4\n        /* \"#utility.yul\":5729:5746   */\n      add\n        /* \"#utility.yul\":5722:5769   */\n      mstore\n        /* \"#utility.yul\":5786:5917   */\n      tag_462\n        /* \"#utility.yul\":5912:5916   */\n      dup2\n        /* \"#utility.yul\":5786:5917   */\n      tag_374\n      jump\t// in\n    tag_462:\n        /* \"#utility.yul\":5778:5917   */\n      swap1\n      pop\n        /* \"#utility.yul\":5505:5924   */\n      swap2\n      swap1\n      pop\n      jump\t// out\n        /* \"#utility.yul\":5930:6094   */\n    tag_375:\n        /* \"#utility.yul\":6070:6086   */\n      0x4e6f2072652d656e7472616e6379000000000000000000000000000000000000\n        /* \"#utility.yul\":6066:6067   */\n      0x00\n        /* \"#utility.yul\":6058:6064   */\n      dup3\n        /* \"#utility.yul\":6054:6068   */\n      add\n        /* \"#utility.yul\":6047:6087   */\n      mstore\n        /* \"#utility.yul\":5930:6094   */\n      pop\n      jump\t// out\n        /* \"#utility.yul\":6100:6466   */\n    tag_376:\n        /* \"#utility.yul\":6242:6245   */\n      0x00\n        /* \"#utility.yul\":6263:6330   */\n      tag_465\n        /* \"#utility.yul\":6327:6329   */\n      0x0e\n        /* \"#utility.yul\":6322:6325   */\n      dup4\n        /* \"#utility.yul\":6263:6330   */\n      tag_372\n      jump\t// in\n    tag_465:\n        /* \"#utility.yul\":6256:6330   */\n      swap2\n      pop\n        /* \"#utility.yul\":6339:6432   */\n      tag_466\n        /* \"#utility.yul\":6428:6431   */\n      dup3\n        /* \"#utility.yul\":6339:6432   */\n      tag_375\n      jump\t// in\n    tag_466:\n        /* \"#utility.yul\":6457:6459   */\n      0x20\n        /* \"#utility.yul\":6452:6455   */\n      dup3\n        /* \"#utility.yul\":6448:6460   */\n      add\n        /* \"#utility.yul\":6441:6460   */\n      swap1\n      pop\n        /* \"#utility.yul\":6100:6466   */\n      swap2\n      swap1\n      pop\n      jump\t// out\n        /* \"#utility.yul\":6472:6891   */\n    tag_197:\n        /* \"#utility.yul\":6638:6642   */\n      0x00\n        /* \"#utility.yul\":6676:6678   */\n      0x20\n        /* \"#utility.yul\":6665:6674   */\n      dup3\n        /* \"#utility.yul\":6661:6679   */\n      add\n        /* \"#utility.yul\":6653:6679   */\n      swap1\n      pop\n        /* \"#utility.yul\":6725:6734   */\n      dup2\n        /* \"#utility.yul\":6719:6723   */\n      dup2\n        /* \"#utility.yul\":6715:6735   */\n      sub\n        /* \"#utility.yul\":6711:6712   */\n      0x00\n        /* \"#utility.yul\":6700:6709   */\n      dup4\n        /* \"#utility.yul\":6696:6713   */\n      add\n        /* \"#utility.yul\":6689:6736   */\n      mstore\n        /* \"#utility.yul\":6753:6884   */\n      tag_468\n        /* \"#utility.yul\":6879:6883   */\n      dup2\n        /* \"#utility.yul\":6753:6884   */\n      tag_376\n      jump\t// in\n    tag_468:\n        /* \"#utility.yul\":6745:6884   */\n      swap1\n      pop\n        /* \"#utility.yul\":6472:6891   */\n      swap2\n      swap1\n      pop\n      jump\t// out\n        /* \"#utility.yul\":6897:7078   */\n    tag_377:\n        /* \"#utility.yul\":7037:7070   */\n      0x546865207365727669636520686173206e6f7420737461727465642079657400\n        /* \"#utility.yul\":7033:7034   */\n      0x00\n        /* \"#utility.yul\":7025:7031   */\n      dup3\n        /* \"#utility.yul\":7021:7035   */\n      add\n        /* \"#utility.yul\":7014:7071   */\n      mstore\n        /* \"#utility.yul\":6897:7078   */\n      pop\n      jump\t// out\n        /* \"#utility.yul\":7084:7450   */\n    tag_378:\n        /* \"#utility.yul\":7226:7229   */\n      0x00\n        /* \"#utility.yul\":7247:7314   */\n      tag_471\n        /* \"#utility.yul\":7311:7313   */\n      0x1f\n        /* \"#utility.yul\":7306:7309   */\n      dup4\n        /* \"#utility.yul\":7247:7314   */\n      tag_372\n      jump\t// in\n    tag_471:\n        /* \"#utility.yul\":7240:7314   */\n      swap2\n      pop\n        /* \"#utility.yul\":7323:7416   */\n      tag_472\n        /* \"#utility.yul\":7412:7415   */\n      dup3\n        /* \"#utility.yul\":7323:7416   */\n      tag_377\n      jump\t// in\n    tag_472:\n        /* \"#utility.yul\":7441:7443   */\n      0x20\n        /* \"#utility.yul\":7436:7439   */\n      dup3\n        /* \"#utility.yul\":7432:7444   */\n      add\n        /* \"#utility.yul\":7425:7444   */\n      swap1\n      pop\n        /* \"#utility.yul\":7084:7450   */\n      swap2\n      swap1\n      pop\n      jump\t// out\n        /* \"#utility.yul\":7456:7875   */\n    tag_201:\n        /* \"#utility.yul\":7622:7626   */\n      0x00\n        /* \"#utility.yul\":7660:7662   */\n      0x20\n        /* \"#utility.yul\":7649:7658   */\n      dup3\n        /* \"#utility.yul\":7645:7663   */\n      add\n        /* \"#utility.yul\":7637:7663   */\n      swap1\n      pop\n        /* \"#utility.yul\":7709:7718   */\n      dup2\n        /* \"#utility.yul\":7703:7707   */\n      dup2\n        /* \"#utility.yul\":7699:7719   */\n      sub\n        /* \"#utility.yul\":7695:7696   */\n      0x00\n        /* \"#utility.yul\":7684:7693   */\n      dup4\n        /* \"#utility.yul\":7680:7697   */\n      add\n        /* \"#utility.yul\":7673:7720   */\n      mstore\n        /* \"#utility.yul\":7737:7868   */\n      tag_474\n        /* \"#utility.yul\":7863:7867   */\n      dup2\n        /* \"#utility.yul\":7737:7868   */\n      tag_378\n      jump\t// in\n    tag_474:\n        /* \"#utility.yul\":7729:7868   */\n      swap1\n      pop\n        /* \"#utility.yul\":7456:7875   */\n      swap2\n      swap1\n      pop\n      jump\t// out\n        /* \"#utility.yul\":7881:8128   */\n    tag_379:\n        /* \"#utility.yul\":8021:8055   */\n      0x54686520616d6f756e7420696e73657274656420697320656974686572206265\n        /* \"#utility.yul\":8017:8018   */\n      0x00\n        /* \"#utility.yul\":8009:8015   */\n      dup3\n        /* \"#utility.yul\":8005:8019   */\n      add\n        /* \"#utility.yul\":7998:8056   */\n      mstore\n        /* \"#utility.yul\":8090:8120   */\n      0x6c6f77206d696e696d756d206f722061626f7665206d6178696d756d00000000\n        /* \"#utility.yul\":8085:8087   */\n      0x20\n        /* \"#utility.yul\":8077:8083   */\n      dup3\n        /* \"#utility.yul\":8073:8088   */\n      add\n        /* \"#utility.yul\":8066:8121   */\n      mstore\n        /* \"#utility.yul\":7881:8128   */\n      pop\n      jump\t// out\n        /* \"#utility.yul\":8134:8500   */\n    tag_380:\n        /* \"#utility.yul\":8276:8279   */\n      0x00\n        /* \"#utility.yul\":8297:8364   */\n      tag_477\n        /* \"#utility.yul\":8361:8363   */\n      0x3c\n        /* \"#utility.yul\":8356:8359   */\n      dup4\n        /* \"#utility.yul\":8297:8364   */\n      tag_372\n      jump\t// in\n    tag_477:\n        /* \"#utility.yul\":8290:8364   */\n      swap2\n      pop\n        /* \"#utility.yul\":8373:8466   */\n      tag_478\n        /* \"#utility.yul\":8462:8465   */\n      dup3\n        /* \"#utility.yul\":8373:8466   */\n      tag_379\n      jump\t// in\n    tag_478:\n        /* \"#utility.yul\":8491:8493   */\n      0x40\n        /* \"#utility.yul\":8486:8489   */\n      dup3\n        /* \"#utility.yul\":8482:8494   */\n      add\n        /* \"#utility.yul\":8475:8494   */\n      swap1\n      pop\n        /* \"#utility.yul\":8134:8500   */\n      swap2\n      swap1\n      pop\n      jump\t// out\n        /* \"#utility.yul\":8506:8925   */\n    tag_205:\n        /* \"#utility.yul\":8672:8676   */\n      0x00\n        /* \"#utility.yul\":8710:8712   */\n      0x20\n        /* \"#utility.yul\":8699:8708   */\n      dup3\n        /* \"#utility.yul\":8695:8713   */\n      add\n        /* \"#utility.yul\":8687:8713   */\n      swap1\n      pop\n        /* \"#utility.yul\":8759:8768   */\n      dup2\n        /* \"#utility.yul\":8753:8757   */\n      dup2\n        /* \"#utility.yul\":8749:8769   */\n      sub\n        /* \"#utility.yul\":8745:8746   */\n      0x00\n        /* \"#utility.yul\":8734:8743   */\n      dup4\n        /* \"#utility.yul\":8730:8747   */\n      add\n        /* \"#utility.yul\":8723:8770   */\n      mstore\n        /* \"#utility.yul\":8787:8918   */\n      tag_480\n        /* \"#utility.yul\":8913:8917   */\n      dup2\n        /* \"#utility.yul\":8787:8918   */\n      tag_380\n      jump\t// in\n    tag_480:\n        /* \"#utility.yul\":8779:8918   */\n      swap1\n      pop\n        /* \"#utility.yul\":8506:8925   */\n      swap2\n      swap1\n      pop\n      jump\t// out\n        /* \"#utility.yul\":8931:9111   */\n    tag_381:\n        /* \"#utility.yul\":8979:9056   */\n      0x4e487b7100000000000000000000000000000000000000000000000000000000\n        /* \"#utility.yul\":8976:8977   */\n      0x00\n        /* \"#utility.yul\":8969:9057   */\n      mstore\n        /* \"#utility.yul\":9076:9080   */\n      0x11\n        /* \"#utility.yul\":9073:9074   */\n      0x04\n        /* \"#utility.yul\":9066:9081   */\n      mstore\n        /* \"#utility.yul\":9100:9104   */\n      0x24\n        /* \"#utility.yul\":9097:9098   */\n      0x00\n        /* \"#utility.yul\":9090:9105   */\n      revert\n        /* \"#utility.yul\":9117:9308   */\n    tag_217:\n        /* \"#utility.yul\":9157:9160   */\n      0x00\n        /* \"#utility.yul\":9176:9196   */\n      tag_483\n        /* \"#utility.yul\":9194:9195   */\n      dup3\n        /* \"#utility.yul\":9176:9196   */\n      tag_364\n      jump\t// in\n    tag_483:\n        /* \"#utility.yul\":9171:9196   */\n      swap2\n      pop\n        /* \"#utility.yul\":9210:9230   */\n      tag_484\n        /* \"#utility.yul\":9228:9229   */\n      dup4\n        /* \"#utility.yul\":9210:9230   */\n      tag_364\n      jump\t// in\n    tag_484:\n        /* \"#utility.yul\":9205:9230   */\n      swap3\n      pop\n        /* \"#utility.yul\":9253:9254   */\n      dup3\n        /* \"#utility.yul\":9250:9251   */\n      dup3\n        /* \"#utility.yul\":9246:9255   */\n      add\n        /* \"#utility.yul\":9239:9255   */\n      swap1\n      pop\n        /* \"#utility.yul\":9274:9277   */\n      dup1\n        /* \"#utility.yul\":9271:9272   */\n      dup3\n        /* \"#utility.yul\":9268:9278   */\n      gt\n        /* \"#utility.yul\":9265:9301   */\n      iszero\n      tag_485\n      jumpi\n        /* \"#utility.yul\":9281:9299   */\n      tag_486\n      tag_381\n      jump\t// in\n    tag_486:\n        /* \"#utility.yul\":9265:9301   */\n    tag_485:\n        /* \"#utility.yul\":9117:9308   */\n      swap3\n      swap2\n      pop\n      pop\n      jump\t// out\n        /* \"#utility.yul\":9314:9756   */\n    tag_222:\n        /* \"#utility.yul\":9463:9467   */\n      0x00\n        /* \"#utility.yul\":9501:9503   */\n      0x60\n        /* \"#utility.yul\":9490:9499   */\n      dup3\n        /* \"#utility.yul\":9486:9504   */\n      add\n        /* \"#utility.yul\":9478:9504   */\n      swap1\n      pop\n        /* \"#utility.yul\":9514:9585   */\n      tag_488\n        /* \"#utility.yul\":9582:9583   */\n      0x00\n        /* \"#utility.yul\":9571:9580   */\n      dup4\n        /* \"#utility.yul\":9567:9584   */\n      add\n        /* \"#utility.yul\":9558:9564   */\n      dup7\n        /* \"#utility.yul\":9514:9585   */\n      tag_366\n      jump\t// in\n    tag_488:\n        /* \"#utility.yul\":9595:9667   */\n      tag_489\n        /* \"#utility.yul\":9663:9665   */\n      0x20\n        /* \"#utility.yul\":9652:9661   */\n      dup4\n        /* \"#utility.yul\":9648:9666   */\n      add\n        /* \"#utility.yul\":9639:9645   */\n      dup6\n        /* \"#utility.yul\":9595:9667   */\n      tag_366\n      jump\t// in\n    tag_489:\n        /* \"#utility.yul\":9677:9749   */\n      tag_490\n        /* \"#utility.yul\":9745:9747   */\n      0x40\n        /* \"#utility.yul\":9734:9743   */\n      dup4\n        /* \"#utility.yul\":9730:9748   */\n      add\n        /* \"#utility.yul\":9721:9727   */\n      dup5\n        /* \"#utility.yul\":9677:9749   */\n      tag_365\n      jump\t// in\n    tag_490:\n        /* \"#utility.yul\":9314:9756   */\n      swap5\n      swap4\n      pop\n      pop\n      pop\n      pop\n      jump\t// out\n        /* \"#utility.yul\":9762:9878   */\n    tag_382:\n        /* \"#utility.yul\":9832:9853   */\n      tag_492\n        /* \"#utility.yul\":9847:9852   */\n      dup2\n        /* \"#utility.yul\":9832:9853   */\n      tag_367\n      jump\t// in\n    tag_492:\n        /* \"#utility.yul\":9825:9830   */\n      dup2\n        /* \"#utility.yul\":9822:9854   */\n      eq\n        /* \"#utility.yul\":9812:9872   */\n      tag_493\n      jumpi\n        /* \"#utility.yul\":9868:9869   */\n      0x00\n        /* \"#utility.yul\":9865:9866   */\n      dup1\n        /* \"#utility.yul\":9858:9870   */\n      revert\n        /* \"#utility.yul\":9812:9872   */\n    tag_493:\n        /* \"#utility.yul\":9762:9878   */\n      pop\n      jump\t// out\n        /* \"#utility.yul\":9884:10021   */\n    tag_383:\n        /* \"#utility.yul\":9938:9943   */\n      0x00\n        /* \"#utility.yul\":9969:9975   */\n      dup2\n        /* \"#utility.yul\":9963:9976   */\n      mload\n        /* \"#utility.yul\":9954:9976   */\n      swap1\n      pop\n        /* \"#utility.yul\":9985:10015   */\n      tag_495\n        /* \"#utility.yul\":10009:10014   */\n      dup2\n        /* \"#utility.yul\":9985:10015   */\n      tag_382\n      jump\t// in\n    tag_495:\n        /* \"#utility.yul\":9884:10021   */\n      swap3\n      swap2\n      pop\n      pop\n      jump\t// out\n        /* \"#utility.yul\":10027:10372   */\n    tag_226:\n        /* \"#utility.yul\":10094:10100   */\n      0x00\n        /* \"#utility.yul\":10143:10145   */\n      0x20\n        /* \"#utility.yul\":10131:10140   */\n      dup3\n        /* \"#utility.yul\":10122:10129   */\n      dup5\n        /* \"#utility.yul\":10118:10141   */\n      sub\n        /* \"#utility.yul\":10114:10146   */\n      slt\n        /* \"#utility.yul\":10111:10230   */\n      iszero\n      tag_497\n      jumpi\n        /* \"#utility.yul\":10149:10228   */\n      tag_498\n      tag_358\n      jump\t// in\n    tag_498:\n        /* \"#utility.yul\":10111:10230   */\n    tag_497:\n        /* \"#utility.yul\":10269:10270   */\n      0x00\n        /* \"#utility.yul\":10294:10355   */\n      tag_499\n        /* \"#utility.yul\":10347:10354   */\n      dup5\n        /* \"#utility.yul\":10338:10344   */\n      dup3\n        /* \"#utility.yul\":10327:10336   */\n      dup6\n        /* \"#utility.yul\":10323:10345   */\n      add\n        /* \"#utility.yul\":10294:10355   */\n      tag_383\n      jump\t// in\n    tag_499:\n        /* \"#utility.yul\":10284:10355   */\n      swap2\n      pop\n        /* \"#utility.yul\":10240:10365   */\n      pop\n        /* \"#utility.yul\":10027:10372   */\n      swap3\n      swap2\n      pop\n      pop\n      jump\t// out\n        /* \"#utility.yul\":10378:10551   */\n    tag_384:\n        /* \"#utility.yul\":10518:10543   */\n      0x436f6e7472616374206e6f742061637469766520796574000000000000000000\n        /* \"#utility.yul\":10514:10515   */\n      0x00\n        /* \"#utility.yul\":10506:10512   */\n      dup3\n        /* \"#utility.yul\":10502:10516   */\n      add\n        /* \"#utility.yul\":10495:10544   */\n      mstore\n        /* \"#utility.yul\":10378:10551   */\n      pop\n      jump\t// out\n        /* \"#utility.yul\":10557:10923   */\n    tag_385:\n        /* \"#utility.yul\":10699:10702   */\n      0x00\n        /* \"#utility.yul\":10720:10787   */\n      tag_502\n        /* \"#utility.yul\":10784:10786   */\n      0x17\n        /* \"#utility.yul\":10779:10782   */\n      dup4\n        /* \"#utility.yul\":10720:10787   */\n      tag_372\n      jump\t// in\n    tag_502:\n        /* \"#utility.yul\":10713:10787   */\n      swap2\n      pop\n        /* \"#utility.yul\":10796:10889   */\n      tag_503\n        /* \"#utility.yul\":10885:10888   */\n      dup3\n        /* \"#utility.yul\":10796:10889   */\n      tag_384\n      jump\t// in\n    tag_503:\n        /* \"#utility.yul\":10914:10916   */\n      0x20\n        /* \"#utility.yul\":10909:10912   */\n      dup3\n        /* \"#utility.yul\":10905:10917   */\n      add\n        /* \"#utility.yul\":10898:10917   */\n      swap1\n      pop\n        /* \"#utility.yul\":10557:10923   */\n      swap2\n      swap1\n      pop\n      jump\t// out\n        /* \"#utility.yul\":10929:11348   */\n    tag_263:\n        /* \"#utility.yul\":11095:11099   */\n      0x00\n        /* \"#utility.yul\":11133:11135   */\n      0x20\n        /* \"#utility.yul\":11122:11131   */\n      dup3\n        /* \"#utility.yul\":11118:11136   */\n      add\n        /* \"#utility.yul\":11110:11136   */\n      swap1\n      pop\n        /* \"#utility.yul\":11182:11191   */\n      dup2\n        /* \"#utility.yul\":11176:11180   */\n      dup2\n        /* \"#utility.yul\":11172:11192   */\n      sub\n        /* \"#utility.yul\":11168:11169   */\n      0x00\n        /* \"#utility.yul\":11157:11166   */\n      dup4\n        /* \"#utility.yul\":11153:11170   */\n      add\n        /* \"#utility.yul\":11146:11193   */\n      mstore\n        /* \"#utility.yul\":11210:11341   */\n      tag_505\n        /* \"#utility.yul\":11336:11340   */\n      dup2\n        /* \"#utility.yul\":11210:11341   */\n      tag_385\n      jump\t// in\n    tag_505:\n        /* \"#utility.yul\":11202:11341   */\n      swap1\n      pop\n        /* \"#utility.yul\":10929:11348   */\n      swap2\n      swap1\n      pop\n      jump\t// out\n        /* \"#utility.yul\":11354:11596   */\n    tag_386:\n        /* \"#utility.yul\":11494:11528   */\n      0x596f7520616c7265616479207769746864726577206d6f7265207468616e2074\n        /* \"#utility.yul\":11490:11491   */\n      0x00\n        /* \"#utility.yul\":11482:11488   */\n      dup3\n        /* \"#utility.yul\":11478:11492   */\n      add\n        /* \"#utility.yul\":11471:11529   */\n      mstore\n        /* \"#utility.yul\":11563:11588   */\n      0x686520616d6f756e7420796f75206465706f7369746564000000000000000000\n        /* \"#utility.yul\":11558:11560   */\n      0x20\n        /* \"#utility.yul\":11550:11556   */\n      dup3\n        /* \"#utility.yul\":11546:11561   */\n      add\n        /* \"#utility.yul\":11539:11589   */\n      mstore\n        /* \"#utility.yul\":11354:11596   */\n      pop\n      jump\t// out\n        /* \"#utility.yul\":11602:11968   */\n    tag_387:\n        /* \"#utility.yul\":11744:11747   */\n      0x00\n        /* \"#utility.yul\":11765:11832   */\n      tag_508\n        /* \"#utility.yul\":11829:11831   */\n      0x37\n        /* \"#utility.yul\":11824:11827   */\n      dup4\n        /* \"#utility.yul\":11765:11832   */\n      tag_372\n      jump\t// in\n    tag_508:\n        /* \"#utility.yul\":11758:11832   */\n      swap2\n      pop\n        /* \"#utility.yul\":11841:11934   */\n      tag_509\n        /* \"#utility.yul\":11930:11933   */\n      dup3\n        /* \"#utility.yul\":11841:11934   */\n      tag_386\n      jump\t// in\n    tag_509:\n        /* \"#utility.yul\":11959:11961   */\n      0x40\n        /* \"#utility.yul\":11954:11957   */\n      dup3\n        /* \"#utility.yul\":11950:11962   */\n      add\n        /* \"#utility.yul\":11943:11962   */\n      swap1\n      pop\n        /* \"#utility.yul\":11602:11968   */\n      swap2\n      swap1\n      pop\n      jump\t// out\n        /* \"#utility.yul\":11974:12393   */\n    tag_266:\n        /* \"#utility.yul\":12140:12144   */\n      0x00\n        /* \"#utility.yul\":12178:12180   */\n      0x20\n        /* \"#utility.yul\":12167:12176   */\n      dup3\n        /* \"#utility.yul\":12163:12181   */\n      add\n        /* \"#utility.yul\":12155:12181   */\n      swap1\n      pop\n        /* \"#utility.yul\":12227:12236   */\n      dup2\n        /* \"#utility.yul\":12221:12225   */\n      dup2\n        /* \"#utility.yul\":12217:12237   */\n      sub\n        /* \"#utility.yul\":12213:12214   */\n      0x00\n        /* \"#utility.yul\":12202:12211   */\n      dup4\n        /* \"#utility.yul\":12198:12215   */\n      add\n        /* \"#utility.yul\":12191:12238   */\n      mstore\n        /* \"#utility.yul\":12255:12386   */\n      tag_511\n        /* \"#utility.yul\":12381:12385   */\n      dup2\n        /* \"#utility.yul\":12255:12386   */\n      tag_387\n      jump\t// in\n    tag_511:\n        /* \"#utility.yul\":12247:12386   */\n      swap1\n      pop\n        /* \"#utility.yul\":11974:12393   */\n      swap2\n      swap1\n      pop\n      jump\t// out\n        /* \"#utility.yul\":12399:12564   */\n    tag_388:\n        /* \"#utility.yul\":12539:12556   */\n      0x4e6f742053746172746564205965740000000000000000000000000000000000\n        /* \"#utility.yul\":12535:12536   */\n      0x00\n        /* \"#utility.yul\":12527:12533   */\n      dup3\n        /* \"#utility.yul\":12523:12537   */\n      add\n        /* \"#utility.yul\":12516:12557   */\n      mstore\n        /* \"#utility.yul\":12399:12564   */\n      pop\n      jump\t// out\n        /* \"#utility.yul\":12570:12936   */\n    tag_389:\n        /* \"#utility.yul\":12712:12715   */\n      0x00\n        /* \"#utility.yul\":12733:12800   */\n      tag_514\n        /* \"#utility.yul\":12797:12799   */\n      0x0f\n        /* \"#utility.yul\":12792:12795   */\n      dup4\n        /* \"#utility.yul\":12733:12800   */\n      tag_372\n      jump\t// in\n    tag_514:\n        /* \"#utility.yul\":12726:12800   */\n      swap2\n      pop\n        /* \"#utility.yul\":12809:12902   */\n      tag_515\n        /* \"#utility.yul\":12898:12901   */\n      dup3\n        /* \"#utility.yul\":12809:12902   */\n      tag_388\n      jump\t// in\n    tag_515:\n        /* \"#utility.yul\":12927:12929   */\n      0x20\n        /* \"#utility.yul\":12922:12925   */\n      dup3\n        /* \"#utility.yul\":12918:12930   */\n      add\n        /* \"#utility.yul\":12911:12930   */\n      swap1\n      pop\n        /* \"#utility.yul\":12570:12936   */\n      swap2\n      swap1\n      pop\n      jump\t// out\n        /* \"#utility.yul\":12942:13361   */\n    tag_285:\n        /* \"#utility.yul\":13108:13112   */\n      0x00\n        /* \"#utility.yul\":13146:13148   */\n      0x20\n        /* \"#utility.yul\":13135:13144   */\n      dup3\n        /* \"#utility.yul\":13131:13149   */\n      add\n        /* \"#utility.yul\":13123:13149   */\n      swap1\n      pop\n        /* \"#utility.yul\":13195:13204   */\n      dup2\n        /* \"#utility.yul\":13189:13193   */\n      dup2\n        /* \"#utility.yul\":13185:13205   */\n      sub\n        /* \"#utility.yul\":13181:13182   */\n      0x00\n        /* \"#utility.yul\":13170:13179   */\n      dup4\n        /* \"#utility.yul\":13166:13183   */\n      add\n        /* \"#utility.yul\":13159:13206   */\n      mstore\n        /* \"#utility.yul\":13223:13354   */\n      tag_517\n        /* \"#utility.yul\":13349:13353   */\n      dup2\n        /* \"#utility.yul\":13223:13354   */\n      tag_389\n      jump\t// in\n    tag_517:\n        /* \"#utility.yul\":13215:13354   */\n      swap1\n      pop\n        /* \"#utility.yul\":12942:13361   */\n      swap2\n      swap1\n      pop\n      jump\t// out\n        /* \"#utility.yul\":13367:13593   */\n    tag_390:\n        /* \"#utility.yul\":13507:13541   */\n      0x4974206973206e6f742079657420746865206461696c79206d6f6d656e742074\n        /* \"#utility.yul\":13503:13504   */\n      0x00\n        /* \"#utility.yul\":13495:13501   */\n      dup3\n        /* \"#utility.yul\":13491:13505   */\n      add\n        /* \"#utility.yul\":13484:13542   */\n      mstore\n        /* \"#utility.yul\":13576:13585   */\n      0x6f20636c61696d00000000000000000000000000000000000000000000000000\n        /* \"#utility.yul\":13571:13573   */\n      0x20\n        /* \"#utility.yul\":13563:13569   */\n      dup3\n        /* \"#utility.yul\":13559:13574   */\n      add\n        /* \"#utility.yul\":13552:13586   */\n      mstore\n        /* \"#utility.yul\":13367:13593   */\n      pop\n      jump\t// out\n        /* \"#utility.yul\":13599:13965   */\n    tag_391:\n        /* \"#utility.yul\":13741:13744   */\n      0x00\n        /* \"#utility.yul\":13762:13829   */\n      tag_520\n        /* \"#utility.yul\":13826:13828   */\n      0x27\n        /* \"#utility.yul\":13821:13824   */\n      dup4\n        /* \"#utility.yul\":13762:13829   */\n      tag_372\n      jump\t// in\n    tag_520:\n        /* \"#utility.yul\":13755:13829   */\n      swap2\n      pop\n        /* \"#utility.yul\":13838:13931   */\n      tag_521\n        /* \"#utility.yul\":13927:13930   */\n      dup3\n        /* \"#utility.yul\":13838:13931   */\n      tag_390\n      jump\t// in\n    tag_521:\n        /* \"#utility.yul\":13956:13958   */\n      0x40\n        /* \"#utility.yul\":13951:13954   */\n      dup3\n        /* \"#utility.yul\":13947:13959   */\n      add\n        /* \"#utility.yul\":13940:13959   */\n      swap1\n      pop\n        /* \"#utility.yul\":13599:13965   */\n      swap2\n      swap1\n      pop\n      jump\t// out\n        /* \"#utility.yul\":13971:14390   */\n    tag_288:\n        /* \"#utility.yul\":14137:14141   */\n      0x00\n        /* \"#utility.yul\":14175:14177   */\n      0x20\n        /* \"#utility.yul\":14164:14173   */\n      dup3\n        /* \"#utility.yul\":14160:14178   */\n      add\n        /* \"#utility.yul\":14152:14178   */\n      swap1\n      pop\n        /* \"#utility.yul\":14224:14233   */\n      dup2\n        /* \"#utility.yul\":14218:14222   */\n      dup2\n        /* \"#utility.yul\":14214:14234   */\n      sub\n        /* \"#utility.yul\":14210:14211   */\n      0x00\n        /* \"#utility.yul\":14199:14208   */\n      dup4\n        /* \"#utility.yul\":14195:14212   */\n      add\n        /* \"#utility.yul\":14188:14235   */\n      mstore\n        /* \"#utility.yul\":14252:14383   */\n      tag_523\n        /* \"#utility.yul\":14378:14382   */\n      dup2\n        /* \"#utility.yul\":14252:14383   */\n      tag_391\n      jump\t// in\n    tag_523:\n        /* \"#utility.yul\":14244:14383   */\n      swap1\n      pop\n        /* \"#utility.yul\":13971:14390   */\n      swap2\n      swap1\n      pop\n      jump\t// out\n        /* \"#utility.yul\":14396:14626   */\n    tag_392:\n        /* \"#utility.yul\":14536:14570   */\n      0x4974206973206e6f742079657420746865207765656b6c79206d6f6d656e7420\n        /* \"#utility.yul\":14532:14533   */\n      0x00\n        /* \"#utility.yul\":14524:14530   */\n      dup3\n        /* \"#utility.yul\":14520:14534   */\n      add\n        /* \"#utility.yul\":14513:14571   */\n      mstore\n        /* \"#utility.yul\":14605:14618   */\n      0x746f207769746864726177000000000000000000000000000000000000000000\n        /* \"#utility.yul\":14600:14602   */\n      0x20\n        /* \"#utility.yul\":14592:14598   */\n      dup3\n        /* \"#utility.yul\":14588:14603   */\n      add\n        /* \"#utility.yul\":14581:14619   */\n      mstore\n        /* \"#utility.yul\":14396:14626   */\n      pop\n      jump\t// out\n        /* \"#utility.yul\":14632:14998   */\n    tag_393:\n        /* \"#utility.yul\":14774:14777   */\n      0x00\n        /* \"#utility.yul\":14795:14862   */\n      tag_526\n        /* \"#utility.yul\":14859:14861   */\n      0x2b\n        /* \"#utility.yul\":14854:14857   */\n      dup4\n        /* \"#utility.yul\":14795:14862   */\n      tag_372\n      jump\t// in\n    tag_526:\n        /* \"#utility.yul\":14788:14862   */\n      swap2\n      pop\n        /* \"#utility.yul\":14871:14964   */\n      tag_527\n        /* \"#utility.yul\":14960:14963   */\n      dup3\n        /* \"#utility.yul\":14871:14964   */\n      tag_392\n      jump\t// in\n    tag_527:\n        /* \"#utility.yul\":14989:14991   */\n      0x40\n        /* \"#utility.yul\":14984:14987   */\n      dup3\n        /* \"#utility.yul\":14980:14992   */\n      add\n        /* \"#utility.yul\":14973:14992   */\n      swap1\n      pop\n        /* \"#utility.yul\":14632:14998   */\n      swap2\n      swap1\n      pop\n      jump\t// out\n        /* \"#utility.yul\":15004:15423   */\n    tag_316:\n        /* \"#utility.yul\":15170:15174   */\n      0x00\n        /* \"#utility.yul\":15208:15210   */\n      0x20\n        /* \"#utility.yul\":15197:15206   */\n      dup3\n        /* \"#utility.yul\":15193:15211   */\n      add\n        /* \"#utility.yul\":15185:15211   */\n      swap1\n      pop\n        /* \"#utility.yul\":15257:15266   */\n      dup2\n        /* \"#utility.yul\":15251:15255   */\n      dup2\n        /* \"#utility.yul\":15247:15267   */\n      sub\n        /* \"#utility.yul\":15243:15244   */\n      0x00\n        /* \"#utility.yul\":15232:15241   */\n      dup4\n        /* \"#utility.yul\":15228:15245   */\n      add\n        /* \"#utility.yul\":15221:15268   */\n      mstore\n        /* \"#utility.yul\":15285:15416   */\n      tag_529\n        /* \"#utility.yul\":15411:15415   */\n      dup2\n        /* \"#utility.yul\":15285:15416   */\n      tag_393\n      jump\t// in\n    tag_529:\n        /* \"#utility.yul\":15277:15416   */\n      swap1\n      pop\n        /* \"#utility.yul\":15004:15423   */\n      swap2\n      swap1\n      pop\n      jump\t// out\n        /* \"#utility.yul\":15429:15653   */\n    tag_394:\n        /* \"#utility.yul\":15569:15603   */\n      0x596f757220357820696e766573746d656e74206379636c6520697320636f6d70\n        /* \"#utility.yul\":15565:15566   */\n      0x00\n        /* \"#utility.yul\":15557:15563   */\n      dup3\n        /* \"#utility.yul\":15553:15567   */\n      add\n        /* \"#utility.yul\":15546:15604   */\n      mstore\n        /* \"#utility.yul\":15638:15645   */\n      0x6c65746564000000000000000000000000000000000000000000000000000000\n        /* \"#utility.yul\":15633:15635   */\n      0x20\n        /* \"#utility.yul\":15625:15631   */\n      dup3\n        /* \"#utility.yul\":15621:15636   */\n      add\n        /* \"#utility.yul\":15614:15646   */\n      mstore\n        /* \"#utility.yul\":15429:15653   */\n      pop\n      jump\t// out\n        /* \"#utility.yul\":15659:16025   */\n    tag_395:\n        /* \"#utility.yul\":15801:15804   */\n      0x00\n        /* \"#utility.yul\":15822:15889   */\n      tag_532\n        /* \"#utility.yul\":15886:15888   */\n      0x25\n        /* \"#utility.yul\":15881:15884   */\n      dup4\n        /* \"#utility.yul\":15822:15889   */\n      tag_372\n      jump\t// in\n    tag_532:\n        /* \"#utility.yul\":15815:15889   */\n      swap2\n      pop\n        /* \"#utility.yul\":15898:15991   */\n      tag_533\n        /* \"#utility.yul\":15987:15990   */\n      dup3\n        /* \"#utility.yul\":15898:15991   */\n      tag_394\n      jump\t// in\n    tag_533:\n        /* \"#utility.yul\":16016:16018   */\n      0x40\n        /* \"#utility.yul\":16011:16014   */\n      dup3\n        /* \"#utility.yul\":16007:16019   */\n      add\n        /* \"#utility.yul\":16000:16019   */\n      swap1\n      pop\n        /* \"#utility.yul\":15659:16025   */\n      swap2\n      swap1\n      pop\n      jump\t// out\n        /* \"#utility.yul\":16031:16450   */\n    tag_320:\n        /* \"#utility.yul\":16197:16201   */\n      0x00\n        /* \"#utility.yul\":16235:16237   */\n      0x20\n        /* \"#utility.yul\":16224:16233   */\n      dup3\n        /* \"#utility.yul\":16220:16238   */\n      add\n        /* \"#utility.yul\":16212:16238   */\n      swap1\n      pop\n        /* \"#utility.yul\":16284:16293   */\n      dup2\n        /* \"#utility.yul\":16278:16282   */\n      dup2\n        /* \"#utility.yul\":16274:16294   */\n      sub\n        /* \"#utility.yul\":16270:16271   */\n      0x00\n        /* \"#utility.yul\":16259:16268   */\n      dup4\n        /* \"#utility.yul\":16255:16272   */\n      add\n        /* \"#utility.yul\":16248:16295   */\n      mstore\n        /* \"#utility.yul\":16312:16443   */\n      tag_535\n        /* \"#utility.yul\":16438:16442   */\n      dup2\n        /* \"#utility.yul\":16312:16443   */\n      tag_395\n      jump\t// in\n    tag_535:\n        /* \"#utility.yul\":16304:16443   */\n      swap1\n      pop\n        /* \"#utility.yul\":16031:16450   */\n      swap2\n      swap1\n      pop\n      jump\t// out\n        /* \"#utility.yul\":16456:16650   */\n    tag_343:\n        /* \"#utility.yul\":16496:16500   */\n      0x00\n        /* \"#utility.yul\":16516:16536   */\n      tag_537\n        /* \"#utility.yul\":16534:16535   */\n      dup3\n        /* \"#utility.yul\":16516:16536   */\n      tag_364\n      jump\t// in\n    tag_537:\n        /* \"#utility.yul\":16511:16536   */\n      swap2\n      pop\n        /* \"#utility.yul\":16550:16570   */\n      tag_538\n        /* \"#utility.yul\":16568:16569   */\n      dup4\n        /* \"#utility.yul\":16550:16570   */\n      tag_364\n      jump\t// in\n    tag_538:\n        /* \"#utility.yul\":16545:16570   */\n      swap3\n      pop\n        /* \"#utility.yul\":16594:16595   */\n      dup3\n        /* \"#utility.yul\":16591:16592   */\n      dup3\n        /* \"#utility.yul\":16587:16596   */\n      sub\n        /* \"#utility.yul\":16579:16596   */\n      swap1\n      pop\n        /* \"#utility.yul\":16618:16619   */\n      dup2\n        /* \"#utility.yul\":16612:16616   */\n      dup2\n        /* \"#utility.yul\":16609:16620   */\n      gt\n        /* \"#utility.yul\":16606:16643   */\n      iszero\n      tag_539\n      jumpi\n        /* \"#utility.yul\":16623:16641   */\n      tag_540\n      tag_381\n      jump\t// in\n    tag_540:\n        /* \"#utility.yul\":16606:16643   */\n    tag_539:\n        /* \"#utility.yul\":16456:16650   */\n      swap3\n      swap2\n      pop\n      pop\n      jump\t// out\n        /* \"#utility.yul\":16656:16836   */\n    tag_396:\n        /* \"#utility.yul\":16704:16781   */\n      0x4e487b7100000000000000000000000000000000000000000000000000000000\n        /* \"#utility.yul\":16701:16702   */\n      0x00\n        /* \"#utility.yul\":16694:16782   */\n      mstore\n        /* \"#utility.yul\":16801:16805   */\n      0x12\n        /* \"#utility.yul\":16798:16799   */\n      0x04\n        /* \"#utility.yul\":16791:16806   */\n      mstore\n        /* \"#utility.yul\":16825:16829   */\n      0x24\n        /* \"#utility.yul\":16822:16823   */\n      0x00\n        /* \"#utility.yul\":16815:16830   */\n      revert\n        /* \"#utility.yul\":16842:17027   */\n    tag_346:\n        /* \"#utility.yul\":16882:16883   */\n      0x00\n        /* \"#utility.yul\":16899:16919   */\n      tag_543\n        /* \"#utility.yul\":16917:16918   */\n      dup3\n        /* \"#utility.yul\":16899:16919   */\n      tag_364\n      jump\t// in\n    tag_543:\n        /* \"#utility.yul\":16894:16919   */\n      swap2\n      pop\n        /* \"#utility.yul\":16933:16953   */\n      tag_544\n        /* \"#utility.yul\":16951:16952   */\n      dup4\n        /* \"#utility.yul\":16933:16953   */\n      tag_364\n      jump\t// in\n    tag_544:\n        /* \"#utility.yul\":16928:16953   */\n      swap3\n      pop\n        /* \"#utility.yul\":16972:16973   */\n      dup3\n        /* \"#utility.yul\":16962:16997   */\n      tag_545\n      jumpi\n        /* \"#utility.yul\":16977:16995   */\n      tag_546\n      tag_396\n      jump\t// in\n    tag_546:\n        /* \"#utility.yul\":16962:16997   */\n    tag_545:\n        /* \"#utility.yul\":17019:17020   */\n      dup3\n        /* \"#utility.yul\":17016:17017   */\n      dup3\n        /* \"#utility.yul\":17012:17021   */\n      div\n        /* \"#utility.yul\":17007:17021   */\n      swap1\n      pop\n        /* \"#utility.yul\":16842:17027   */\n      swap3\n      swap2\n      pop\n      pop\n      jump\t// out\n        /* \"#utility.yul\":17033:17381   */\n    tag_349:\n        /* \"#utility.yul\":17073:17080   */\n      0x00\n        /* \"#utility.yul\":17096:17116   */\n      tag_548\n        /* \"#utility.yul\":17114:17115   */\n      dup3\n        /* \"#utility.yul\":17096:17116   */\n      tag_364\n      jump\t// in\n    tag_548:\n        /* \"#utility.yul\":17091:17116   */\n      swap2\n      pop\n        /* \"#utility.yul\":17130:17150   */\n      tag_549\n        /* \"#utility.yul\":17148:17149   */\n      dup4\n        /* \"#utility.yul\":17130:17150   */\n      tag_364\n      jump\t// in\n    tag_549:\n        /* \"#utility.yul\":17125:17150   */\n      swap3\n      pop\n        /* \"#utility.yul\":17318:17319   */\n      dup2\n        /* \"#utility.yul\":17250:17316   */\n      0xffffffffffffffffffffffffffffffffffffffffffffffffffffffffffffffff\n        /* \"#utility.yul\":17246:17320   */\n      div\n        /* \"#utility.yul\":17243:17244   */\n      dup4\n        /* \"#utility.yul\":17240:17321   */\n      gt\n        /* \"#utility.yul\":17235:17236   */\n      dup3\n        /* \"#utility.yul\":17228:17237   */\n      iszero\n        /* \"#utility.yul\":17221:17238   */\n      iszero\n        /* \"#utility.yul\":17217:17322   */\n      and\n        /* \"#utility.yul\":17214:17345   */\n      iszero\n      tag_550\n      jumpi\n        /* \"#utility.yul\":17325:17343   */\n      tag_551\n      tag_381\n      jump\t// in\n    tag_551:\n        /* \"#utility.yul\":17214:17345   */\n    tag_550:\n        /* \"#utility.yul\":17373:17374   */\n      dup3\n        /* \"#utility.yul\":17370:17371   */\n      dup3\n        /* \"#utility.yul\":17366:17375   */\n      mul\n        /* \"#utility.yul\":17355:17375   */\n      swap1\n      pop\n        /* \"#utility.yul\":17033:17381   */\n      swap3\n      swap2\n      pop\n      pop\n      jump\t// out\n        /* \"#utility.yul\":17387:17612   */\n    tag_397:\n        /* \"#utility.yul\":17527:17561   */\n      0x4f776e61626c653a206e6577206f776e657220697320746865207a65726f2061\n        /* \"#utility.yul\":17523:17524   */\n      0x00\n        /* \"#utility.yul\":17515:17521   */\n      dup3\n        /* \"#utility.yul\":17511:17525   */\n      add\n        /* \"#utility.yul\":17504:17562   */\n      mstore\n        /* \"#utility.yul\":17596:17604   */\n      0x6464726573730000000000000000000000000000000000000000000000000000\n        /* \"#utility.yul\":17591:17593   */\n      0x20\n        /* \"#utility.yul\":17583:17589   */\n      dup3\n        /* \"#utility.yul\":17579:17594   */\n      add\n        /* \"#utility.yul\":17572:17605   */\n      mstore\n        /* \"#utility.yul\":17387:17612   */\n      pop\n      jump\t// out\n        /* \"#utility.yul\":17618:17984   */\n    tag_398:\n        /* \"#utility.yul\":17760:17763   */\n      0x00\n        /* \"#utility.yul\":17781:17848   */\n      tag_554\n        /* \"#utility.yul\":17845:17847   */\n      0x26\n        /* \"#utility.yul\":17840:17843   */\n      dup4\n        /* \"#utility.yul\":17781:17848   */\n      tag_372\n      jump\t// in\n    tag_554:\n        /* \"#utility.yul\":17774:17848   */\n      swap2\n      pop\n        /* \"#utility.yul\":17857:17950   */\n      tag_555\n        /* \"#utility.yul\":17946:17949   */\n      dup3\n        /* \"#utility.yul\":17857:17950   */\n      tag_397\n      jump\t// in\n    tag_555:\n        /* \"#utility.yul\":17975:17977   */\n      0x40\n        /* \"#utility.yul\":17970:17973   */\n      dup3\n        /* \"#utility.yul\":17966:17978   */\n      add\n        /* \"#utility.yul\":17959:17978   */\n      swap1\n      pop\n        /* \"#utility.yul\":17618:17984   */\n      swap2\n      swap1\n      pop\n      jump\t// out\n        /* \"#utility.yul\":17990:18409   */\n    tag_356:\n        /* \"#utility.yul\":18156:18160   */\n      0x00\n        /* \"#utility.yul\":18194:18196   */\n      0x20\n        /* \"#utility.yul\":18183:18192   */\n      dup3\n        /* \"#utility.yul\":18179:18197   */\n      add\n        /* \"#utility.yul\":18171:18197   */\n      swap1\n      pop\n        /* \"#utility.yul\":18243:18252   */\n      dup2\n        /* \"#utility.yul\":18237:18241   */\n      dup2\n        /* \"#utility.yul\":18233:18253   */\n      sub\n        /* \"#utility.yul\":18229:18230   */\n      0x00\n        /* \"#utility.yul\":18218:18227   */\n      dup4\n        /* \"#utility.yul\":18214:18231   */\n      add\n        /* \"#utility.yul\":18207:18254   */\n      mstore\n        /* \"#utility.yul\":18271:18402   */\n      tag_557\n        /* \"#utility.yul\":18397:18401   */\n      dup2\n        /* \"#utility.yul\":18271:18402   */\n      tag_398\n      jump\t// in\n    tag_557:\n        /* \"#utility.yul\":18263:18402   */\n      swap1\n      pop\n        /* \"#utility.yul\":17990:18409   */\n      swap2\n      swap1\n      pop\n      jump\t// out\n\n    auxdata: 0xa26469706673582212204c8bc0507ca333024705164db35bfb820eb024c1b85e9fb193826e3cb6bcbda864736f6c63430008100033\n}\n",
				"bytecode": {
					"linkReferences": {},
					"object": "60806040526001805573269df75431d46765ab3fcf33ed09dde31b7e9515600260006101000a81548173ffffffffffffffffffffffffffffffffffffffff021916908373ffffffffffffffffffffffffffffffffffffffff1602179055506000600460146101000a81548160ff0219169083151502179055506000600460156101000a81548160ff021916908315150217905550348015620000a057600080fd5b506000620000b36200020f60201b60201c565b9050806000806101000a81548173ffffffffffffffffffffffffffffffffffffffff021916908373ffffffffffffffffffffffffffffffffffffffff1602179055508073ffffffffffffffffffffffffffffffffffffffff16600073ffffffffffffffffffffffffffffffffffffffff167f8be0079c531659141344cd1fd0a4f28419497f9722a3daafe3b4186f6b6457e060405160405180910390a35073ed24fc36d5ee211ea25a80239fb8c4cfd80f12ee600460006101000a81548173ffffffffffffffffffffffffffffffffffffffff021916908373ffffffffffffffffffffffffffffffffffffffff160217905550600460009054906101000a900473ffffffffffffffffffffffffffffffffffffffff16600360006101000a81548173ffffffffffffffffffffffffffffffffffffffff021916908373ffffffffffffffffffffffffffffffffffffffff16021790555062000217565b600033905090565b613c6380620002276000396000f3fe608060405234801561001057600080fd5b50600436106102055760003560e01c80637d636d9b1161011a578063be357616116100ad578063ddca3f431161007c578063ddca3f43146105ea578063e1c7392a14610608578063ea82b28514610626578063f2fde38b14610644578063f88979451461066057610205565b8063be35761614610561578063c6bdd1da14610591578063d4e93292146105c2578063dbe32e54146105cc57610205565b806396b98862116100e957806396b98862146104d757806397c9c5a614610508578063ab7573dd14610526578063b99442bd1461055757610205565b80637d636d9b146104395780638631d1281461046a5780638da5cb5b1461049b57806391cca3db146104b957610205565b806347e7ef241161019d5780635925417c1161016c5780635925417c146103df5780636ac5db19146103fd578063715018a61461041b57806373cf575a14610425578063797ca1491461042f57610205565b806347e7ef24146103435780634afdd0e71461035f5780634c4431271461037d57806356eaf9e6146103af57610205565b806321b9f7eb116101d957806321b9f7eb146102a7578063223777fe146102d7578063398204ad14610309578063423c485a1461031357610205565b80620a74be1461020a57806302ee282c1461023a57806312065fe01461026b5780632116ce6d14610289575b600080fd5b610224600480360381019061021f91906132b7565b61067e565b60405161023191906132fd565b60405180910390f35b610254600480360381019061024f91906132b7565b6107c6565b604051610262929190613327565b60405180910390f35b61027361080a565b60405161028091906132fd565b60405180910390f35b6102916108ad565b60405161029e919061336b565b60405180910390f35b6102c160048036038101906102bc91906133b2565b61095b565b6040516102ce91906132fd565b60405180910390f35b6102f160048036038101906102ec91906132b7565b610979565b604051610300939291906133df565b60405180910390f35b6103116109c3565b005b61032d600480360381019061032891906133b2565b610a75565b60405161033a91906132fd565b60405180910390f35b61035d60048036038101906103589190613416565b610a93565b005b610367611912565b60405161037491906132fd565b60405180910390f35b610397600480360381019061039291906132b7565b611918565b6040516103a6939291906133df565b60405180910390f35b6103c960048036038101906103c491906133b2565b611962565b6040516103d691906132fd565b60405180910390f35b6103e7611981565b6040516103f491906132fd565b60405180910390f35b610405611986565b60405161041291906132fd565b60405180910390f35b610423611994565b005b61042d611ae7565b005b610437611fad565b005b610453600480360381019061044e91906132b7565b6123b1565b604051610461929190613327565b60405180910390f35b610484600480360381019061047f91906132b7565b6123f5565b604051610492929190613327565b60405180910390f35b6104a3612439565b6040516104b09190613456565b60405180910390f35b6104c1612462565b6040516104ce9190613456565b60405180910390f35b6104f160048036038101906104ec91906132b7565b612488565b6040516104ff929190613327565b60405180910390f35b6105106124cc565b60405161051d9190613456565b60405180910390f35b610540600480360381019061053b91906132b7565b6124f2565b60405161054e929190613327565b60405180910390f35b61055f612536565b005b61057b600480360381019061057691906133b2565b6128c9565b60405161058891906132fd565b60405180910390f35b6105ab60048036038101906105a691906132b7565b6128e7565b6040516105b9929190613327565b60405180910390f35b6105ca61292b565b005b6105d4612feb565b6040516105e191906132fd565b60405180910390f35b6105f2612ff0565b6040516105ff91906132fd565b60405180910390f35b610610612ff5565b60405161061d919061336b565b60405180910390f35b61062e613008565b60405161063b919061336b565b60405180910390f35b61065e600480360381019061065991906132b7565b61301b565b005b6106686130bc565b60405161067591906132fd565b60405180910390f35b600080600660008473ffffffffffffffffffffffffffffffffffffffff1673ffffffffffffffffffffffffffffffffffffffff16815260200190815260200160002060010154905060006106d182611962565b90506000600860008673ffffffffffffffffffffffffffffffffffffffff1673ffffffffffffffffffffffffffffffffffffffff1681526020019081526020016000206001015490506000600860008773ffffffffffffffffffffffffffffffffffffffff1673ffffffffffffffffffffffffffffffffffffffff168152602001908152602001600020600201549050600061076d82846130c8565b9050600061077b85836130de565b905060004290508084106107b657600061079582876130c8565b905060006107a382856130f4565b90508099505050505050505050506107c1565b859750505050505050505b919050565b600a6020528060005260406000206000915090508060000160009054906101000a900473ffffffffffffffffffffffffffffffffffffffff16908060010154905082565b6000600360009054906101000a900473ffffffffffffffffffffffffffffffffffffffff1673ffffffffffffffffffffffffffffffffffffffff166370a08231306040518263ffffffff1660e01b81526004016108679190613456565b602060405180830381865afa158015610884573d6000803e3d6000fd5b505050506040513d601f19601f820116820180604052508101906108a89190613486565b905090565b6000803390508073ffffffffffffffffffffffffffffffffffffffff16600660008373ffffffffffffffffffffffffffffffffffffffff1673ffffffffffffffffffffffffffffffffffffffff16815260200190815260200160002060000160009054906101000a900473ffffffffffffffffffffffffffffffffffffffff1673ffffffffffffffffffffffffffffffffffffffff1603610952576001915050610958565b60009150505b90565b600061097261096b8360056130f4565b60646130de565b9050919050565b60076020528060005260406000206000915090508060000160009054906101000a900473ffffffffffffffffffffffffffffffffffffffff16908060010154908060020154905083565b6109cb61310a565b73ffffffffffffffffffffffffffffffffffffffff1660008054906101000a900473ffffffffffffffffffffffffffffffffffffffff1673ffffffffffffffffffffffffffffffffffffffff1614610a58576040517f08c379a0000000000000000000000000000000000000000000000000000000008152600401610a4f90613510565b60405180910390fd5b6001600460146101000a81548160ff021916908315150217905550565b6000610a8c610a858360016130f4565b60646130de565b9050919050565b600060149054906101000a900460ff1615610ae3576040517f08c379a0000000000000000000000000000000000000000000000000000000008152600401610ada9061357c565b60405180910390fd5b6001600060146101000a81548160ff021916908315150217905550600460149054906101000a900460ff16610b4d576040517f08c379a0000000000000000000000000000000000000000000000000000000008152600401610b44906135e8565b60405180910390fd5b678ac7230489e800008110158015610b6f575069010f0cf064dd592000008111155b610bae576040517f08c379a0000000000000000000000000000000000000000000000000000000008152600401610ba59061367a565b60405180910390fd5b610bb66108ad565b611341576000610bc58261095b565b9050600073ffffffffffffffffffffffffffffffffffffffff168373ffffffffffffffffffffffffffffffffffffffff1614158015610c3057503373ffffffffffffffffffffffffffffffffffffffff168373ffffffffffffffffffffffffffffffffffffffff1614155b15610d4f576000600560008573ffffffffffffffffffffffffffffffffffffffff1673ffffffffffffffffffffffffffffffffffffffff1681526020019081526020016000206001015490506000610c888383613112565b905060405180604001604052808673ffffffffffffffffffffffffffffffffffffffff16815260200182815250600560008773ffffffffffffffffffffffffffffffffffffffff1673ffffffffffffffffffffffffffffffffffffffff16815260200190815260200160002060008201518160000160006101000a81548173ffffffffffffffffffffffffffffffffffffffff021916908373ffffffffffffffffffffffffffffffffffffffff160217905550602082015181600101559050505050610ecb565b600060056000600260009054906101000a900473ffffffffffffffffffffffffffffffffffffffff1673ffffffffffffffffffffffffffffffffffffffff1673ffffffffffffffffffffffffffffffffffffffff1681526020019081526020016000206001015490506000610dc48383613112565b90506040518060400160405280600260009054906101000a900473ffffffffffffffffffffffffffffffffffffffff1673ffffffffffffffffffffffffffffffffffffffff1681526020018281525060056000600260009054906101000a900473ffffffffffffffffffffffffffffffffffffffff1673ffffffffffffffffffffffffffffffffffffffff1673ffffffffffffffffffffffffffffffffffffffff16815260200190815260200160002060008201518160000160006101000a81548173ffffffffffffffffffffffffffffffffffffffff021916908373ffffffffffffffffffffffffffffffffffffffff1602179055506020820151816001015590505050505b6000600660003373ffffffffffffffffffffffffffffffffffffffff1673ffffffffffffffffffffffffffffffffffffffff16815260200190815260200160002060010154905060008390506000610f238383613112565b905060405180604001604052803373ffffffffffffffffffffffffffffffffffffffff16815260200182815250600660003373ffffffffffffffffffffffffffffffffffffffff1673ffffffffffffffffffffffffffffffffffffffff16815260200190815260200160002060008201518160000160006101000a81548173ffffffffffffffffffffffffffffffffffffffff021916908373ffffffffffffffffffffffffffffffffffffffff160217905550602082015181600101559050506000429050600062093a8042610ff991906136c9565b905060405180606001604052803373ffffffffffffffffffffffffffffffffffffffff16815260200183815260200182815250600760003373ffffffffffffffffffffffffffffffffffffffff1673ffffffffffffffffffffffffffffffffffffffff16815260200190815260200160002060008201518160000160006101000a81548173ffffffffffffffffffffffffffffffffffffffff021916908373ffffffffffffffffffffffffffffffffffffffff16021790555060208201518160010155604082015181600201559050506000429050600062015180426110df91906136c9565b905060405180606001604052803373ffffffffffffffffffffffffffffffffffffffff16815260200183815260200182815250600860003373ffffffffffffffffffffffffffffffffffffffff1673ffffffffffffffffffffffffffffffffffffffff16815260200190815260200160002060008201518160000160006101000a81548173ffffffffffffffffffffffffffffffffffffffff021916908373ffffffffffffffffffffffffffffffffffffffff160217905550602082015181600101556040820151816002015590505060006111ba8a610a75565b905060006111c88b836130c8565b9050600360009054906101000a900473ffffffffffffffffffffffffffffffffffffffff1673ffffffffffffffffffffffffffffffffffffffff166323b872dd33600260009054906101000a900473ffffffffffffffffffffffffffffffffffffffff16856040518463ffffffff1660e01b815260040161124b939291906136fd565b6020604051808303816000875af115801561126a573d6000803e3d6000fd5b505050506040513d601f19601f8201168201806040525081019061128e9190613760565b50600360009054906101000a900473ffffffffffffffffffffffffffffffffffffffff1673ffffffffffffffffffffffffffffffffffffffff166323b872dd3330846040518463ffffffff1660e01b81526004016112ee939291906136fd565b6020604051808303816000875af115801561130d573d6000803e3d6000fd5b505050506040513d601f19601f820116820180604052508101906113319190613760565b50505050505050505050506118f4565b600061134c8261095b565b9050600073ffffffffffffffffffffffffffffffffffffffff168373ffffffffffffffffffffffffffffffffffffffff16141580156113b757503373ffffffffffffffffffffffffffffffffffffffff168373ffffffffffffffffffffffffffffffffffffffff1614155b156114d6576000600560008573ffffffffffffffffffffffffffffffffffffffff1673ffffffffffffffffffffffffffffffffffffffff168152602001908152602001600020600101549050600061140f8383613112565b905060405180604001604052808673ffffffffffffffffffffffffffffffffffffffff16815260200182815250600560008773ffffffffffffffffffffffffffffffffffffffff1673ffffffffffffffffffffffffffffffffffffffff16815260200190815260200160002060008201518160000160006101000a81548173ffffffffffffffffffffffffffffffffffffffff021916908373ffffffffffffffffffffffffffffffffffffffff160217905550602082015181600101559050505050611652565b600060056000600260009054906101000a900473ffffffffffffffffffffffffffffffffffffffff1673ffffffffffffffffffffffffffffffffffffffff1673ffffffffffffffffffffffffffffffffffffffff168152602001908152602001600020600101549050600061154b8383613112565b90506040518060400160405280600260009054906101000a900473ffffffffffffffffffffffffffffffffffffffff1673ffffffffffffffffffffffffffffffffffffffff1681526020018281525060056000600260009054906101000a900473ffffffffffffffffffffffffffffffffffffffff1673ffffffffffffffffffffffffffffffffffffffff1673ffffffffffffffffffffffffffffffffffffffff16815260200190815260200160002060008201518160000160006101000a81548173ffffffffffffffffffffffffffffffffffffffff021916908373ffffffffffffffffffffffffffffffffffffffff1602179055506020820151816001015590505050505b6000600660003373ffffffffffffffffffffffffffffffffffffffff1673ffffffffffffffffffffffffffffffffffffffff168152602001908152602001600020600101549050600083905060006116aa8383613112565b905060405180604001604052803373ffffffffffffffffffffffffffffffffffffffff16815260200182815250600660003373ffffffffffffffffffffffffffffffffffffffff1673ffffffffffffffffffffffffffffffffffffffff16815260200190815260200160002060008201518160000160006101000a81548173ffffffffffffffffffffffffffffffffffffffff021916908373ffffffffffffffffffffffffffffffffffffffff16021790555060208201518160010155905050600061177586610a75565b9050600061178387836130c8565b9050600360009054906101000a900473ffffffffffffffffffffffffffffffffffffffff1673ffffffffffffffffffffffffffffffffffffffff166323b872dd33600260009054906101000a900473ffffffffffffffffffffffffffffffffffffffff16856040518463ffffffff1660e01b8152600401611806939291906136fd565b6020604051808303816000875af1158015611825573d6000803e3d6000fd5b505050506040513d601f19601f820116820180604052508101906118499190613760565b50600360009054906101000a900473ffffffffffffffffffffffffffffffffffffffff1673ffffffffffffffffffffffffffffffffffffffff166323b872dd3330846040518463ffffffff1660e01b81526004016118a9939291906136fd565b6020604051808303816000875af11580156118c8573d6000803e3d6000fd5b505050506040513d601f19601f820116820180604052508101906118ec9190613760565b505050505050505b60008060146101000a81548160ff0219169083151502179055505050565b60015481565b60086020528060005260406000206000915090508060000160009054906101000a900473ffffffffffffffffffffffffffffffffffffffff16908060010154908060020154905083565b600061197a611973836001546130f4565b60646130de565b9050919050565b600581565b69010f0cf064dd5920000081565b61199c61310a565b73ffffffffffffffffffffffffffffffffffffffff1660008054906101000a900473ffffffffffffffffffffffffffffffffffffffff1673ffffffffffffffffffffffffffffffffffffffff1614611a29576040517f08c379a0000000000000000000000000000000000000000000000000000000008152600401611a2090613510565b60405180910390fd5b600073ffffffffffffffffffffffffffffffffffffffff1660008054906101000a900473ffffffffffffffffffffffffffffffffffffffff1673ffffffffffffffffffffffffffffffffffffffff167f8be0079c531659141344cd1fd0a4f28419497f9722a3daafe3b4186f6b6457e060405160405180910390a360008060006101000a81548173ffffffffffffffffffffffffffffffffffffffff021916908373ffffffffffffffffffffffffffffffffffffffff160217905550565b600060149054906101000a900460ff1615611b37576040517f08c379a0000000000000000000000000000000000000000000000000000000008152600401611b2e9061357c565b60405180910390fd5b6001600060146101000a81548160ff021916908315150217905550600460149054906101000a900460ff16611ba1576040517f08c379a0000000000000000000000000000000000000000000000000000000008152600401611b98906137d9565b60405180910390fd5b6000600660003373ffffffffffffffffffffffffffffffffffffffff1673ffffffffffffffffffffffffffffffffffffffff1681526020019081526020016000206001015490506000600a60003373ffffffffffffffffffffffffffffffffffffffff1673ffffffffffffffffffffffffffffffffffffffff168152602001908152602001600020600101549050808211611c71576040517f08c379a0000000000000000000000000000000000000000000000000000000008152600401611c689061386b565b60405180910390fd5b6000611c7c83610a75565b90506000611c8a84836130c8565b90506000611c9882856130c8565b90506000611ca78260026130de565b9050600360009054906101000a900473ffffffffffffffffffffffffffffffffffffffff1673ffffffffffffffffffffffffffffffffffffffff1663a9059cbb33836040518363ffffffff1660e01b8152600401611d06929190613327565b6020604051808303816000875af1158015611d25573d6000803e3d6000fd5b505050506040513d601f19601f82011682018060405250810190611d499190613760565b50600360009054906101000a900473ffffffffffffffffffffffffffffffffffffffff1673ffffffffffffffffffffffffffffffffffffffff1663a9059cbb600260009054906101000a900473ffffffffffffffffffffffffffffffffffffffff16836040518363ffffffff1660e01b8152600401611dc9929190613327565b6020604051808303816000875af1158015611de8573d6000803e3d6000fd5b505050506040513d601f19601f82011682018060405250810190611e0c9190613760565b5060405180604001604052803373ffffffffffffffffffffffffffffffffffffffff1681526020016000815250600660003373ffffffffffffffffffffffffffffffffffffffff1673ffffffffffffffffffffffffffffffffffffffff16815260200190815260200160002060008201518160000160006101000a81548173ffffffffffffffffffffffffffffffffffffffff021916908373ffffffffffffffffffffffffffffffffffffffff1602179055506020820151816001015590505060405180604001604052803373ffffffffffffffffffffffffffffffffffffffff1681526020016000815250600960003373ffffffffffffffffffffffffffffffffffffffff1673ffffffffffffffffffffffffffffffffffffffff16815260200190815260200160002060008201518160000160006101000a81548173ffffffffffffffffffffffffffffffffffffffff021916908373ffffffffffffffffffffffffffffffffffffffff1602179055506020820151816001015590505050505050505060008060146101000a81548160ff021916908315150217905550565b600060149054906101000a900460ff1615611ffd576040517f08c379a0000000000000000000000000000000000000000000000000000000008152600401611ff49061357c565b60405180910390fd5b6001600060146101000a81548160ff021916908315150217905550600460149054906101000a900460ff16612067576040517f08c379a000000000000000000000000000000000000000000000000000000000815260040161205e906138d7565b60405180910390fd5b42600860003373ffffffffffffffffffffffffffffffffffffffff1673ffffffffffffffffffffffffffffffffffffffff1681526020019081526020016000206002015411156120ec576040517f08c379a00000000000000000000000000000000000000000000000000000000081526004016120e390613969565b60405180910390fd5b60006120f73361067e565b90506000600960003373ffffffffffffffffffffffffffffffffffffffff1673ffffffffffffffffffffffffffffffffffffffff168152602001908152602001600020600101549050600061214c8383613112565b905060405180604001604052803373ffffffffffffffffffffffffffffffffffffffff16815260200182815250600960003373ffffffffffffffffffffffffffffffffffffffff1673ffffffffffffffffffffffffffffffffffffffff16815260200190815260200160002060008201518160000160006101000a81548173ffffffffffffffffffffffffffffffffffffffff021916908373ffffffffffffffffffffffffffffffffffffffff160217905550602082015181600101559050506000600b60003373ffffffffffffffffffffffffffffffffffffffff1673ffffffffffffffffffffffffffffffffffffffff168152602001908152602001600020600101549050600061225f8286613112565b905080600b60003373ffffffffffffffffffffffffffffffffffffffff1673ffffffffffffffffffffffffffffffffffffffff168152602001908152602001600020600101819055506000429050600062015180426122be91906136c9565b905060405180606001604052803373ffffffffffffffffffffffffffffffffffffffff16815260200183815260200182815250600860003373ffffffffffffffffffffffffffffffffffffffff1673ffffffffffffffffffffffffffffffffffffffff16815260200190815260200160002060008201518160000160006101000a81548173ffffffffffffffffffffffffffffffffffffffff021916908373ffffffffffffffffffffffffffffffffffffffff16021790555060208201518160010155604082015181600201559050505050505050505060008060146101000a81548160ff021916908315150217905550565b60056020528060005260406000206000915090508060000160009054906101000a900473ffffffffffffffffffffffffffffffffffffffff16908060010154905082565b60096020528060005260406000206000915090508060000160009054906101000a900473ffffffffffffffffffffffffffffffffffffffff16908060010154905082565b60008060009054906101000a900473ffffffffffffffffffffffffffffffffffffffff16905090565b600260009054906101000a900473ffffffffffffffffffffffffffffffffffffffff1681565b60066020528060005260406000206000915090508060000160009054906101000a900473ffffffffffffffffffffffffffffffffffffffff16908060010154905082565b600460009054906101000a900473ffffffffffffffffffffffffffffffffffffffff1681565b600b6020528060005260406000206000915090508060000160009054906101000a900473ffffffffffffffffffffffffffffffffffffffff16908060010154905082565b600060149054906101000a900460ff1615612586576040517f08c379a000000000000000000000000000000000000000000000000000000000815260040161257d9061357c565b60405180910390fd5b6001600060146101000a81548160ff021916908315150217905550600460149054906101000a900460ff166125f0576040517f08c379a00000000000000000000000000000000000000000000000000000000081526004016125e7906137d9565b60405180910390fd5b6000600560003373ffffffffffffffffffffffffffffffffffffffff1673ffffffffffffffffffffffffffffffffffffffff168152602001908152602001600020600101549050600360009054906101000a900473ffffffffffffffffffffffffffffffffffffffff1673ffffffffffffffffffffffffffffffffffffffff1663a9059cbb33836040518363ffffffff1660e01b8152600401612694929190613327565b6020604051808303816000875af11580156126b3573d6000803e3d6000fd5b505050506040513d601f19601f820116820180604052508101906126d79190613760565b5060405180604001604052803373ffffffffffffffffffffffffffffffffffffffff1681526020016000815250600560003373ffffffffffffffffffffffffffffffffffffffff1673ffffffffffffffffffffffffffffffffffffffff16815260200190815260200160002060008201518160000160006101000a81548173ffffffffffffffffffffffffffffffffffffffff021916908373ffffffffffffffffffffffffffffffffffffffff160217905550602082015181600101559050506000600c60003373ffffffffffffffffffffffffffffffffffffffff1673ffffffffffffffffffffffffffffffffffffffff16815260200190815260200160002060010154905060006127ea8383613112565b905060405180604001604052803373ffffffffffffffffffffffffffffffffffffffff16815260200182815250600c60003373ffffffffffffffffffffffffffffffffffffffff1673ffffffffffffffffffffffffffffffffffffffff16815260200190815260200160002060008201518160000160006101000a81548173ffffffffffffffffffffffffffffffffffffffff021916908373ffffffffffffffffffffffffffffffffffffffff1602179055506020820151816001015590505050505060008060146101000a81548160ff021916908315150217905550565b60006128e06128d98360026130f4565b60646130de565b9050919050565b600c6020528060005260406000206000915090508060000160009054906101000a900473ffffffffffffffffffffffffffffffffffffffff16908060010154905082565b600060149054906101000a900460ff161561297b576040517f08c379a00000000000000000000000000000000000000000000000000000000081526004016129729061357c565b60405180910390fd5b6001600060146101000a81548160ff021916908315150217905550600460149054906101000a900460ff166129e5576040517f08c379a00000000000000000000000000000000000000000000000000000000081526004016129dc906137d9565b60405180910390fd5b42600760003373ffffffffffffffffffffffffffffffffffffffff1673ffffffffffffffffffffffffffffffffffffffff168152602001908152602001600020600201541115612a6a576040517f08c379a0000000000000000000000000000000000000000000000000000000008152600401612a61906139fb565b60405180910390fd5b612ab7600660003373ffffffffffffffffffffffffffffffffffffffff1673ffffffffffffffffffffffffffffffffffffffff1681526020019081526020016000206001015460056130f4565b600b60003373ffffffffffffffffffffffffffffffffffffffff1673ffffffffffffffffffffffffffffffffffffffff168152602001908152602001600020600101541115612b3b576040517f08c379a0000000000000000000000000000000000000000000000000000000008152600401612b3290613a8d565b60405180910390fd5b6000600960003373ffffffffffffffffffffffffffffffffffffffff1673ffffffffffffffffffffffffffffffffffffffff1681526020019081526020016000206001015490506000612b8f8260026130de565b90506000612b9c826128c9565b90506000612baa83836130c8565b9050600360009054906101000a900473ffffffffffffffffffffffffffffffffffffffff1673ffffffffffffffffffffffffffffffffffffffff1663a9059cbb33836040518363ffffffff1660e01b8152600401612c09929190613327565b6020604051808303816000875af1158015612c28573d6000803e3d6000fd5b505050506040513d601f19601f82011682018060405250810190612c4c9190613760565b50600360009054906101000a900473ffffffffffffffffffffffffffffffffffffffff1673ffffffffffffffffffffffffffffffffffffffff1663a9059cbb600260009054906101000a900473ffffffffffffffffffffffffffffffffffffffff16846040518363ffffffff1660e01b8152600401612ccc929190613327565b6020604051808303816000875af1158015612ceb573d6000803e3d6000fd5b505050506040513d601f19601f82011682018060405250810190612d0f9190613760565b5060405180604001604052803373ffffffffffffffffffffffffffffffffffffffff16815260200184815250600960003373ffffffffffffffffffffffffffffffffffffffff1673ffffffffffffffffffffffffffffffffffffffff16815260200190815260200160002060008201518160000160006101000a81548173ffffffffffffffffffffffffffffffffffffffff021916908373ffffffffffffffffffffffffffffffffffffffff160217905550602082015181600101559050506000429050600062093a8042612de491906136c9565b905060405180606001604052803373ffffffffffffffffffffffffffffffffffffffff16815260200183815260200182815250600760003373ffffffffffffffffffffffffffffffffffffffff1673ffffffffffffffffffffffffffffffffffffffff16815260200190815260200160002060008201518160000160006101000a81548173ffffffffffffffffffffffffffffffffffffffff021916908373ffffffffffffffffffffffffffffffffffffffff16021790555060208201518160010155604082015181600201559050506000600a60003373ffffffffffffffffffffffffffffffffffffffff1673ffffffffffffffffffffffffffffffffffffffff1681526020019081526020016000206001015490506000612f078288613112565b905060405180604001604052803373ffffffffffffffffffffffffffffffffffffffff16815260200182815250600a60003373ffffffffffffffffffffffffffffffffffffffff1673ffffffffffffffffffffffffffffffffffffffff16815260200190815260200160002060008201518160000160006101000a81548173ffffffffffffffffffffffffffffffffffffffff021916908373ffffffffffffffffffffffffffffffffffffffff16021790555060208201518160010155905050505050505050505060008060146101000a81548160ff021916908315150217905550565b600281565b600181565b600460149054906101000a900460ff1681565b600460159054906101000a900460ff1681565b61302361310a565b73ffffffffffffffffffffffffffffffffffffffff1660008054906101000a900473ffffffffffffffffffffffffffffffffffffffff1673ffffffffffffffffffffffffffffffffffffffff16146130b0576040517f08c379a00000000000000000000000000000000000000000000000000000000081526004016130a790613510565b60405180910390fd5b6130b981613128565b50565b678ac7230489e8000081565b600081836130d69190613aad565b905092915050565b600081836130ec9190613b10565b905092915050565b600081836131029190613b41565b905092915050565b600033905090565b6000818361312091906136c9565b905092915050565b600073ffffffffffffffffffffffffffffffffffffffff168173ffffffffffffffffffffffffffffffffffffffff1603613197576040517f08c379a000000000000000000000000000000000000000000000000000000000815260040161318e90613c0d565b60405180910390fd5b8073ffffffffffffffffffffffffffffffffffffffff1660008054906101000a900473ffffffffffffffffffffffffffffffffffffffff1673ffffffffffffffffffffffffffffffffffffffff167f8be0079c531659141344cd1fd0a4f28419497f9722a3daafe3b4186f6b6457e060405160405180910390a3806000806101000a81548173ffffffffffffffffffffffffffffffffffffffff021916908373ffffffffffffffffffffffffffffffffffffffff16021790555050565b600080fd5b600073ffffffffffffffffffffffffffffffffffffffff82169050919050565b600061328482613259565b9050919050565b61329481613279565b811461329f57600080fd5b50565b6000813590506132b18161328b565b92915050565b6000602082840312156132cd576132cc613254565b5b60006132db848285016132a2565b91505092915050565b6000819050919050565b6132f7816132e4565b82525050565b600060208201905061331260008301846132ee565b92915050565b61332181613279565b82525050565b600060408201905061333c6000830185613318565b61334960208301846132ee565b9392505050565b60008115159050919050565b61336581613350565b82525050565b6000602082019050613380600083018461335c565b92915050565b61338f816132e4565b811461339a57600080fd5b50565b6000813590506133ac81613386565b92915050565b6000602082840312156133c8576133c7613254565b5b60006133d68482850161339d565b91505092915050565b60006060820190506133f46000830186613318565b61340160208301856132ee565b61340e60408301846132ee565b949350505050565b6000806040838503121561342d5761342c613254565b5b600061343b858286016132a2565b925050602061344c8582860161339d565b9150509250929050565b600060208201905061346b6000830184613318565b92915050565b60008151905061348081613386565b92915050565b60006020828403121561349c5761349b613254565b5b60006134aa84828501613471565b91505092915050565b600082825260208201905092915050565b7f4f776e61626c653a2063616c6c6572206973206e6f7420746865206f776e6572600082015250565b60006134fa6020836134b3565b9150613505826134c4565b602082019050919050565b60006020820190508181036000830152613529816134ed565b9050919050565b7f4e6f2072652d656e7472616e6379000000000000000000000000000000000000600082015250565b6000613566600e836134b3565b915061357182613530565b602082019050919050565b6000602082019050818103600083015261359581613559565b9050919050565b7f546865207365727669636520686173206e6f7420737461727465642079657400600082015250565b60006135d2601f836134b3565b91506135dd8261359c565b602082019050919050565b60006020820190508181036000830152613601816135c5565b9050919050565b7f54686520616d6f756e7420696e7365727465642069732065697468657220626560008201527f6c6f77206d696e696d756d206f722061626f7665206d6178696d756d00000000602082015250565b6000613664603c836134b3565b915061366f82613608565b604082019050919050565b6000602082019050818103600083015261369381613657565b9050919050565b7f4e487b7100000000000000000000000000000000000000000000000000000000600052601160045260246000fd5b60006136d4826132e4565b91506136df836132e4565b92508282019050808211156136f7576136f661369a565b5b92915050565b60006060820190506137126000830186613318565b61371f6020830185613318565b61372c60408301846132ee565b949350505050565b61373d81613350565b811461374857600080fd5b50565b60008151905061375a81613734565b92915050565b60006020828403121561377657613775613254565b5b60006137848482850161374b565b91505092915050565b7f436f6e7472616374206e6f742061637469766520796574000000000000000000600082015250565b60006137c36017836134b3565b91506137ce8261378d565b602082019050919050565b600060208201905081810360008301526137f2816137b6565b9050919050565b7f596f7520616c7265616479207769746864726577206d6f7265207468616e207460008201527f686520616d6f756e7420796f75206465706f7369746564000000000000000000602082015250565b60006138556037836134b3565b9150613860826137f9565b604082019050919050565b6000602082019050818103600083015261388481613848565b9050919050565b7f4e6f742053746172746564205965740000000000000000000000000000000000600082015250565b60006138c1600f836134b3565b91506138cc8261388b565b602082019050919050565b600060208201905081810360008301526138f0816138b4565b9050919050565b7f4974206973206e6f742079657420746865206461696c79206d6f6d656e74207460008201527f6f20636c61696d00000000000000000000000000000000000000000000000000602082015250565b60006139536027836134b3565b915061395e826138f7565b604082019050919050565b6000602082019050818103600083015261398281613946565b9050919050565b7f4974206973206e6f742079657420746865207765656b6c79206d6f6d656e742060008201527f746f207769746864726177000000000000000000000000000000000000000000602082015250565b60006139e5602b836134b3565b91506139f082613989565b604082019050919050565b60006020820190508181036000830152613a14816139d8565b9050919050565b7f596f757220357820696e766573746d656e74206379636c6520697320636f6d7060008201527f6c65746564000000000000000000000000000000000000000000000000000000602082015250565b6000613a776025836134b3565b9150613a8282613a1b565b604082019050919050565b60006020820190508181036000830152613aa681613a6a565b9050919050565b6000613ab8826132e4565b9150613ac3836132e4565b9250828203905081811115613adb57613ada61369a565b5b92915050565b7f4e487b7100000000000000000000000000000000000000000000000000000000600052601260045260246000fd5b6000613b1b826132e4565b9150613b26836132e4565b925082613b3657613b35613ae1565b5b828204905092915050565b6000613b4c826132e4565b9150613b57836132e4565b9250817fffffffffffffffffffffffffffffffffffffffffffffffffffffffffffffffff0483118215151615613b9057613b8f61369a565b5b828202905092915050565b7f4f776e61626c653a206e6577206f776e657220697320746865207a65726f206160008201527f6464726573730000000000000000000000000000000000000000000000000000602082015250565b6000613bf76026836134b3565b9150613c0282613b9b565b604082019050919050565b60006020820190508181036000830152613c2681613bea565b905091905056fea26469706673582212204c8bc0507ca333024705164db35bfb820eb024c1b85e9fb193826e3cb6bcbda864736f6c63430008100033",
					"opcodes": "PUSH1 0x80 PUSH1 0x40 MSTORE PUSH1 0x1 DUP1 SSTORE PUSH20 0x269DF75431D46765AB3FCF33ED09DDE31B7E9515 PUSH1 0x2 PUSH1 0x0 PUSH2 0x100 EXP DUP2 SLOAD DUP2 PUSH20 0xFFFFFFFFFFFFFFFFFFFFFFFFFFFFFFFFFFFFFFFF MUL NOT AND SWAP1 DUP4 PUSH20 0xFFFFFFFFFFFFFFFFFFFFFFFFFFFFFFFFFFFFFFFF AND MUL OR SWAP1 SSTORE POP PUSH1 0x0 PUSH1 0x4 PUSH1 0x14 PUSH2 0x100 EXP DUP2 SLOAD DUP2 PUSH1 0xFF MUL NOT AND SWAP1 DUP4 ISZERO ISZERO MUL OR SWAP1 SSTORE POP PUSH1 0x0 PUSH1 0x4 PUSH1 0x15 PUSH2 0x100 EXP DUP2 SLOAD DUP2 PUSH1 0xFF MUL NOT AND SWAP1 DUP4 ISZERO ISZERO MUL OR SWAP1 SSTORE POP CALLVALUE DUP1 ISZERO PUSH3 0xA0 JUMPI PUSH1 0x0 DUP1 REVERT JUMPDEST POP PUSH1 0x0 PUSH3 0xB3 PUSH3 0x20F PUSH1 0x20 SHL PUSH1 0x20 SHR JUMP JUMPDEST SWAP1 POP DUP1 PUSH1 0x0 DUP1 PUSH2 0x100 EXP DUP2 SLOAD DUP2 PUSH20 0xFFFFFFFFFFFFFFFFFFFFFFFFFFFFFFFFFFFFFFFF MUL NOT AND SWAP1 DUP4 PUSH20 0xFFFFFFFFFFFFFFFFFFFFFFFFFFFFFFFFFFFFFFFF AND MUL OR SWAP1 SSTORE POP DUP1 PUSH20 0xFFFFFFFFFFFFFFFFFFFFFFFFFFFFFFFFFFFFFFFF AND PUSH1 0x0 PUSH20 0xFFFFFFFFFFFFFFFFFFFFFFFFFFFFFFFFFFFFFFFF AND PUSH32 0x8BE0079C531659141344CD1FD0A4F28419497F9722A3DAAFE3B4186F6B6457E0 PUSH1 0x40 MLOAD PUSH1 0x40 MLOAD DUP1 SWAP2 SUB SWAP1 LOG3 POP PUSH20 0xED24FC36D5EE211EA25A80239FB8C4CFD80F12EE PUSH1 0x4 PUSH1 0x0 PUSH2 0x100 EXP DUP2 SLOAD DUP2 PUSH20 0xFFFFFFFFFFFFFFFFFFFFFFFFFFFFFFFFFFFFFFFF MUL NOT AND SWAP1 DUP4 PUSH20 0xFFFFFFFFFFFFFFFFFFFFFFFFFFFFFFFFFFFFFFFF AND MUL OR SWAP1 SSTORE POP PUSH1 0x4 PUSH1 0x0 SWAP1 SLOAD SWAP1 PUSH2 0x100 EXP SWAP1 DIV PUSH20 0xFFFFFFFFFFFFFFFFFFFFFFFFFFFFFFFFFFFFFFFF AND PUSH1 0x3 PUSH1 0x0 PUSH2 0x100 EXP DUP2 SLOAD DUP2 PUSH20 0xFFFFFFFFFFFFFFFFFFFFFFFFFFFFFFFFFFFFFFFF MUL NOT AND SWAP1 DUP4 PUSH20 0xFFFFFFFFFFFFFFFFFFFFFFFFFFFFFFFFFFFFFFFF AND MUL OR SWAP1 SSTORE POP PUSH3 0x217 JUMP JUMPDEST PUSH1 0x0 CALLER SWAP1 POP SWAP1 JUMP JUMPDEST PUSH2 0x3C63 DUP1 PUSH3 0x227 PUSH1 0x0 CODECOPY PUSH1 0x0 RETURN INVALID PUSH1 0x80 PUSH1 0x40 MSTORE CALLVALUE DUP1 ISZERO PUSH2 0x10 JUMPI PUSH1 0x0 DUP1 REVERT JUMPDEST POP PUSH1 0x4 CALLDATASIZE LT PUSH2 0x205 JUMPI PUSH1 0x0 CALLDATALOAD PUSH1 0xE0 SHR DUP1 PUSH4 0x7D636D9B GT PUSH2 0x11A JUMPI DUP1 PUSH4 0xBE357616 GT PUSH2 0xAD JUMPI DUP1 PUSH4 0xDDCA3F43 GT PUSH2 0x7C JUMPI DUP1 PUSH4 0xDDCA3F43 EQ PUSH2 0x5EA JUMPI DUP1 PUSH4 0xE1C7392A EQ PUSH2 0x608 JUMPI DUP1 PUSH4 0xEA82B285 EQ PUSH2 0x626 JUMPI DUP1 PUSH4 0xF2FDE38B EQ PUSH2 0x644 JUMPI DUP1 PUSH4 0xF8897945 EQ PUSH2 0x660 JUMPI PUSH2 0x205 JUMP JUMPDEST DUP1 PUSH4 0xBE357616 EQ PUSH2 0x561 JUMPI DUP1 PUSH4 0xC6BDD1DA EQ PUSH2 0x591 JUMPI DUP1 PUSH4 0xD4E93292 EQ PUSH2 0x5C2 JUMPI DUP1 PUSH4 0xDBE32E54 EQ PUSH2 0x5CC JUMPI PUSH2 0x205 JUMP JUMPDEST DUP1 PUSH4 0x96B98862 GT PUSH2 0xE9 JUMPI DUP1 PUSH4 0x96B98862 EQ PUSH2 0x4D7 JUMPI DUP1 PUSH4 0x97C9C5A6 EQ PUSH2 0x508 JUMPI DUP1 PUSH4 0xAB7573DD EQ PUSH2 0x526 JUMPI DUP1 PUSH4 0xB99442BD EQ PUSH2 0x557 JUMPI PUSH2 0x205 JUMP JUMPDEST DUP1 PUSH4 0x7D636D9B EQ PUSH2 0x439 JUMPI DUP1 PUSH4 0x8631D128 EQ PUSH2 0x46A JUMPI DUP1 PUSH4 0x8DA5CB5B EQ PUSH2 0x49B JUMPI DUP1 PUSH4 0x91CCA3DB EQ PUSH2 0x4B9 JUMPI PUSH2 0x205 JUMP JUMPDEST DUP1 PUSH4 0x47E7EF24 GT PUSH2 0x19D JUMPI DUP1 PUSH4 0x5925417C GT PUSH2 0x16C JUMPI DUP1 PUSH4 0x5925417C EQ PUSH2 0x3DF JUMPI DUP1 PUSH4 0x6AC5DB19 EQ PUSH2 0x3FD JUMPI DUP1 PUSH4 0x715018A6 EQ PUSH2 0x41B JUMPI DUP1 PUSH4 0x73CF575A EQ PUSH2 0x425 JUMPI DUP1 PUSH4 0x797CA149 EQ PUSH2 0x42F JUMPI PUSH2 0x205 JUMP JUMPDEST DUP1 PUSH4 0x47E7EF24 EQ PUSH2 0x343 JUMPI DUP1 PUSH4 0x4AFDD0E7 EQ PUSH2 0x35F JUMPI DUP1 PUSH4 0x4C443127 EQ PUSH2 0x37D JUMPI DUP1 PUSH4 0x56EAF9E6 EQ PUSH2 0x3AF JUMPI PUSH2 0x205 JUMP JUMPDEST DUP1 PUSH4 0x21B9F7EB GT PUSH2 0x1D9 JUMPI DUP1 PUSH4 0x21B9F7EB EQ PUSH2 0x2A7 JUMPI DUP1 PUSH4 0x223777FE EQ PUSH2 0x2D7 JUMPI DUP1 PUSH4 0x398204AD EQ PUSH2 0x309 JUMPI DUP1 PUSH4 0x423C485A EQ PUSH2 0x313 JUMPI PUSH2 0x205 JUMP JUMPDEST DUP1 PUSH3 0xA74BE EQ PUSH2 0x20A JUMPI DUP1 PUSH4 0x2EE282C EQ PUSH2 0x23A JUMPI DUP1 PUSH4 0x12065FE0 EQ PUSH2 0x26B JUMPI DUP1 PUSH4 0x2116CE6D EQ PUSH2 0x289 JUMPI JUMPDEST PUSH1 0x0 DUP1 REVERT JUMPDEST PUSH2 0x224 PUSH1 0x4 DUP1 CALLDATASIZE SUB DUP2 ADD SWAP1 PUSH2 0x21F SWAP2 SWAP1 PUSH2 0x32B7 JUMP JUMPDEST PUSH2 0x67E JUMP JUMPDEST PUSH1 0x40 MLOAD PUSH2 0x231 SWAP2 SWAP1 PUSH2 0x32FD JUMP JUMPDEST PUSH1 0x40 MLOAD DUP1 SWAP2 SUB SWAP1 RETURN JUMPDEST PUSH2 0x254 PUSH1 0x4 DUP1 CALLDATASIZE SUB DUP2 ADD SWAP1 PUSH2 0x24F SWAP2 SWAP1 PUSH2 0x32B7 JUMP JUMPDEST PUSH2 0x7C6 JUMP JUMPDEST PUSH1 0x40 MLOAD PUSH2 0x262 SWAP3 SWAP2 SWAP1 PUSH2 0x3327 JUMP JUMPDEST PUSH1 0x40 MLOAD DUP1 SWAP2 SUB SWAP1 RETURN JUMPDEST PUSH2 0x273 PUSH2 0x80A JUMP JUMPDEST PUSH1 0x40 MLOAD PUSH2 0x280 SWAP2 SWAP1 PUSH2 0x32FD JUMP JUMPDEST PUSH1 0x40 MLOAD DUP1 SWAP2 SUB SWAP1 RETURN JUMPDEST PUSH2 0x291 PUSH2 0x8AD JUMP JUMPDEST PUSH1 0x40 MLOAD PUSH2 0x29E SWAP2 SWAP1 PUSH2 0x336B JUMP JUMPDEST PUSH1 0x40 MLOAD DUP1 SWAP2 SUB SWAP1 RETURN JUMPDEST PUSH2 0x2C1 PUSH1 0x4 DUP1 CALLDATASIZE SUB DUP2 ADD SWAP1 PUSH2 0x2BC SWAP2 SWAP1 PUSH2 0x33B2 JUMP JUMPDEST PUSH2 0x95B JUMP JUMPDEST PUSH1 0x40 MLOAD PUSH2 0x2CE SWAP2 SWAP1 PUSH2 0x32FD JUMP JUMPDEST PUSH1 0x40 MLOAD DUP1 SWAP2 SUB SWAP1 RETURN JUMPDEST PUSH2 0x2F1 PUSH1 0x4 DUP1 CALLDATASIZE SUB DUP2 ADD SWAP1 PUSH2 0x2EC SWAP2 SWAP1 PUSH2 0x32B7 JUMP JUMPDEST PUSH2 0x979 JUMP JUMPDEST PUSH1 0x40 MLOAD PUSH2 0x300 SWAP4 SWAP3 SWAP2 SWAP1 PUSH2 0x33DF JUMP JUMPDEST PUSH1 0x40 MLOAD DUP1 SWAP2 SUB SWAP1 RETURN JUMPDEST PUSH2 0x311 PUSH2 0x9C3 JUMP JUMPDEST STOP JUMPDEST PUSH2 0x32D PUSH1 0x4 DUP1 CALLDATASIZE SUB DUP2 ADD SWAP1 PUSH2 0x328 SWAP2 SWAP1 PUSH2 0x33B2 JUMP JUMPDEST PUSH2 0xA75 JUMP JUMPDEST PUSH1 0x40 MLOAD PUSH2 0x33A SWAP2 SWAP1 PUSH2 0x32FD JUMP JUMPDEST PUSH1 0x40 MLOAD DUP1 SWAP2 SUB SWAP1 RETURN JUMPDEST PUSH2 0x35D PUSH1 0x4 DUP1 CALLDATASIZE SUB DUP2 ADD SWAP1 PUSH2 0x358 SWAP2 SWAP1 PUSH2 0x3416 JUMP JUMPDEST PUSH2 0xA93 JUMP JUMPDEST STOP JUMPDEST PUSH2 0x367 PUSH2 0x1912 JUMP JUMPDEST PUSH1 0x40 MLOAD PUSH2 0x374 SWAP2 SWAP1 PUSH2 0x32FD JUMP JUMPDEST PUSH1 0x40 MLOAD DUP1 SWAP2 SUB SWAP1 RETURN JUMPDEST PUSH2 0x397 PUSH1 0x4 DUP1 CALLDATASIZE SUB DUP2 ADD SWAP1 PUSH2 0x392 SWAP2 SWAP1 PUSH2 0x32B7 JUMP JUMPDEST PUSH2 0x1918 JUMP JUMPDEST PUSH1 0x40 MLOAD PUSH2 0x3A6 SWAP4 SWAP3 SWAP2 SWAP1 PUSH2 0x33DF JUMP JUMPDEST PUSH1 0x40 MLOAD DUP1 SWAP2 SUB SWAP1 RETURN JUMPDEST PUSH2 0x3C9 PUSH1 0x4 DUP1 CALLDATASIZE SUB DUP2 ADD SWAP1 PUSH2 0x3C4 SWAP2 SWAP1 PUSH2 0x33B2 JUMP JUMPDEST PUSH2 0x1962 JUMP JUMPDEST PUSH1 0x40 MLOAD PUSH2 0x3D6 SWAP2 SWAP1 PUSH2 0x32FD JUMP JUMPDEST PUSH1 0x40 MLOAD DUP1 SWAP2 SUB SWAP1 RETURN JUMPDEST PUSH2 0x3E7 PUSH2 0x1981 JUMP JUMPDEST PUSH1 0x40 MLOAD PUSH2 0x3F4 SWAP2 SWAP1 PUSH2 0x32FD JUMP JUMPDEST PUSH1 0x40 MLOAD DUP1 SWAP2 SUB SWAP1 RETURN JUMPDEST PUSH2 0x405 PUSH2 0x1986 JUMP JUMPDEST PUSH1 0x40 MLOAD PUSH2 0x412 SWAP2 SWAP1 PUSH2 0x32FD JUMP JUMPDEST PUSH1 0x40 MLOAD DUP1 SWAP2 SUB SWAP1 RETURN JUMPDEST PUSH2 0x423 PUSH2 0x1994 JUMP JUMPDEST STOP JUMPDEST PUSH2 0x42D PUSH2 0x1AE7 JUMP JUMPDEST STOP JUMPDEST PUSH2 0x437 PUSH2 0x1FAD JUMP JUMPDEST STOP JUMPDEST PUSH2 0x453 PUSH1 0x4 DUP1 CALLDATASIZE SUB DUP2 ADD SWAP1 PUSH2 0x44E SWAP2 SWAP1 PUSH2 0x32B7 JUMP JUMPDEST PUSH2 0x23B1 JUMP JUMPDEST PUSH1 0x40 MLOAD PUSH2 0x461 SWAP3 SWAP2 SWAP1 PUSH2 0x3327 JUMP JUMPDEST PUSH1 0x40 MLOAD DUP1 SWAP2 SUB SWAP1 RETURN JUMPDEST PUSH2 0x484 PUSH1 0x4 DUP1 CALLDATASIZE SUB DUP2 ADD SWAP1 PUSH2 0x47F SWAP2 SWAP1 PUSH2 0x32B7 JUMP JUMPDEST PUSH2 0x23F5 JUMP JUMPDEST PUSH1 0x40 MLOAD PUSH2 0x492 SWAP3 SWAP2 SWAP1 PUSH2 0x3327 JUMP JUMPDEST PUSH1 0x40 MLOAD DUP1 SWAP2 SUB SWAP1 RETURN JUMPDEST PUSH2 0x4A3 PUSH2 0x2439 JUMP JUMPDEST PUSH1 0x40 MLOAD PUSH2 0x4B0 SWAP2 SWAP1 PUSH2 0x3456 JUMP JUMPDEST PUSH1 0x40 MLOAD DUP1 SWAP2 SUB SWAP1 RETURN JUMPDEST PUSH2 0x4C1 PUSH2 0x2462 JUMP JUMPDEST PUSH1 0x40 MLOAD PUSH2 0x4CE SWAP2 SWAP1 PUSH2 0x3456 JUMP JUMPDEST PUSH1 0x40 MLOAD DUP1 SWAP2 SUB SWAP1 RETURN JUMPDEST PUSH2 0x4F1 PUSH1 0x4 DUP1 CALLDATASIZE SUB DUP2 ADD SWAP1 PUSH2 0x4EC SWAP2 SWAP1 PUSH2 0x32B7 JUMP JUMPDEST PUSH2 0x2488 JUMP JUMPDEST PUSH1 0x40 MLOAD PUSH2 0x4FF SWAP3 SWAP2 SWAP1 PUSH2 0x3327 JUMP JUMPDEST PUSH1 0x40 MLOAD DUP1 SWAP2 SUB SWAP1 RETURN JUMPDEST PUSH2 0x510 PUSH2 0x24CC JUMP JUMPDEST PUSH1 0x40 MLOAD PUSH2 0x51D SWAP2 SWAP1 PUSH2 0x3456 JUMP JUMPDEST PUSH1 0x40 MLOAD DUP1 SWAP2 SUB SWAP1 RETURN JUMPDEST PUSH2 0x540 PUSH1 0x4 DUP1 CALLDATASIZE SUB DUP2 ADD SWAP1 PUSH2 0x53B SWAP2 SWAP1 PUSH2 0x32B7 JUMP JUMPDEST PUSH2 0x24F2 JUMP JUMPDEST PUSH1 0x40 MLOAD PUSH2 0x54E SWAP3 SWAP2 SWAP1 PUSH2 0x3327 JUMP JUMPDEST PUSH1 0x40 MLOAD DUP1 SWAP2 SUB SWAP1 RETURN JUMPDEST PUSH2 0x55F PUSH2 0x2536 JUMP JUMPDEST STOP JUMPDEST PUSH2 0x57B PUSH1 0x4 DUP1 CALLDATASIZE SUB DUP2 ADD SWAP1 PUSH2 0x576 SWAP2 SWAP1 PUSH2 0x33B2 JUMP JUMPDEST PUSH2 0x28C9 JUMP JUMPDEST PUSH1 0x40 MLOAD PUSH2 0x588 SWAP2 SWAP1 PUSH2 0x32FD JUMP JUMPDEST PUSH1 0x40 MLOAD DUP1 SWAP2 SUB SWAP1 RETURN JUMPDEST PUSH2 0x5AB PUSH1 0x4 DUP1 CALLDATASIZE SUB DUP2 ADD SWAP1 PUSH2 0x5A6 SWAP2 SWAP1 PUSH2 0x32B7 JUMP JUMPDEST PUSH2 0x28E7 JUMP JUMPDEST PUSH1 0x40 MLOAD PUSH2 0x5B9 SWAP3 SWAP2 SWAP1 PUSH2 0x3327 JUMP JUMPDEST PUSH1 0x40 MLOAD DUP1 SWAP2 SUB SWAP1 RETURN JUMPDEST PUSH2 0x5CA PUSH2 0x292B JUMP JUMPDEST STOP JUMPDEST PUSH2 0x5D4 PUSH2 0x2FEB JUMP JUMPDEST PUSH1 0x40 MLOAD PUSH2 0x5E1 SWAP2 SWAP1 PUSH2 0x32FD JUMP JUMPDEST PUSH1 0x40 MLOAD DUP1 SWAP2 SUB SWAP1 RETURN JUMPDEST PUSH2 0x5F2 PUSH2 0x2FF0 JUMP JUMPDEST PUSH1 0x40 MLOAD PUSH2 0x5FF SWAP2 SWAP1 PUSH2 0x32FD JUMP JUMPDEST PUSH1 0x40 MLOAD DUP1 SWAP2 SUB SWAP1 RETURN JUMPDEST PUSH2 0x610 PUSH2 0x2FF5 JUMP JUMPDEST PUSH1 0x40 MLOAD PUSH2 0x61D SWAP2 SWAP1 PUSH2 0x336B JUMP JUMPDEST PUSH1 0x40 MLOAD DUP1 SWAP2 SUB SWAP1 RETURN JUMPDEST PUSH2 0x62E PUSH2 0x3008 JUMP JUMPDEST PUSH1 0x40 MLOAD PUSH2 0x63B SWAP2 SWAP1 PUSH2 0x336B JUMP JUMPDEST PUSH1 0x40 MLOAD DUP1 SWAP2 SUB SWAP1 RETURN JUMPDEST PUSH2 0x65E PUSH1 0x4 DUP1 CALLDATASIZE SUB DUP2 ADD SWAP1 PUSH2 0x659 SWAP2 SWAP1 PUSH2 0x32B7 JUMP JUMPDEST PUSH2 0x301B JUMP JUMPDEST STOP JUMPDEST PUSH2 0x668 PUSH2 0x30BC JUMP JUMPDEST PUSH1 0x40 MLOAD PUSH2 0x675 SWAP2 SWAP1 PUSH2 0x32FD JUMP JUMPDEST PUSH1 0x40 MLOAD DUP1 SWAP2 SUB SWAP1 RETURN JUMPDEST PUSH1 0x0 DUP1 PUSH1 0x6 PUSH1 0x0 DUP5 PUSH20 0xFFFFFFFFFFFFFFFFFFFFFFFFFFFFFFFFFFFFFFFF AND PUSH20 0xFFFFFFFFFFFFFFFFFFFFFFFFFFFFFFFFFFFFFFFF AND DUP2 MSTORE PUSH1 0x20 ADD SWAP1 DUP2 MSTORE PUSH1 0x20 ADD PUSH1 0x0 KECCAK256 PUSH1 0x1 ADD SLOAD SWAP1 POP PUSH1 0x0 PUSH2 0x6D1 DUP3 PUSH2 0x1962 JUMP JUMPDEST SWAP1 POP PUSH1 0x0 PUSH1 0x8 PUSH1 0x0 DUP7 PUSH20 0xFFFFFFFFFFFFFFFFFFFFFFFFFFFFFFFFFFFFFFFF AND PUSH20 0xFFFFFFFFFFFFFFFFFFFFFFFFFFFFFFFFFFFFFFFF AND DUP2 MSTORE PUSH1 0x20 ADD SWAP1 DUP2 MSTORE PUSH1 0x20 ADD PUSH1 0x0 KECCAK256 PUSH1 0x1 ADD SLOAD SWAP1 POP PUSH1 0x0 PUSH1 0x8 PUSH1 0x0 DUP8 PUSH20 0xFFFFFFFFFFFFFFFFFFFFFFFFFFFFFFFFFFFFFFFF AND PUSH20 0xFFFFFFFFFFFFFFFFFFFFFFFFFFFFFFFFFFFFFFFF AND DUP2 MSTORE PUSH1 0x20 ADD SWAP1 DUP2 MSTORE PUSH1 0x20 ADD PUSH1 0x0 KECCAK256 PUSH1 0x2 ADD SLOAD SWAP1 POP PUSH1 0x0 PUSH2 0x76D DUP3 DUP5 PUSH2 0x30C8 JUMP JUMPDEST SWAP1 POP PUSH1 0x0 PUSH2 0x77B DUP6 DUP4 PUSH2 0x30DE JUMP JUMPDEST SWAP1 POP PUSH1 0x0 TIMESTAMP SWAP1 POP DUP1 DUP5 LT PUSH2 0x7B6 JUMPI PUSH1 0x0 PUSH2 0x795 DUP3 DUP8 PUSH2 0x30C8 JUMP JUMPDEST SWAP1 POP PUSH1 0x0 PUSH2 0x7A3 DUP3 DUP6 PUSH2 0x30F4 JUMP JUMPDEST SWAP1 POP DUP1 SWAP10 POP POP POP POP POP POP POP POP POP POP PUSH2 0x7C1 JUMP JUMPDEST DUP6 SWAP8 POP POP POP POP POP POP POP POP JUMPDEST SWAP2 SWAP1 POP JUMP JUMPDEST PUSH1 0xA PUSH1 0x20 MSTORE DUP1 PUSH1 0x0 MSTORE PUSH1 0x40 PUSH1 0x0 KECCAK256 PUSH1 0x0 SWAP2 POP SWAP1 POP DUP1 PUSH1 0x0 ADD PUSH1 0x0 SWAP1 SLOAD SWAP1 PUSH2 0x100 EXP SWAP1 DIV PUSH20 0xFFFFFFFFFFFFFFFFFFFFFFFFFFFFFFFFFFFFFFFF AND SWAP1 DUP1 PUSH1 0x1 ADD SLOAD SWAP1 POP DUP3 JUMP JUMPDEST PUSH1 0x0 PUSH1 0x3 PUSH1 0x0 SWAP1 SLOAD SWAP1 PUSH2 0x100 EXP SWAP1 DIV PUSH20 0xFFFFFFFFFFFFFFFFFFFFFFFFFFFFFFFFFFFFFFFF AND PUSH20 0xFFFFFFFFFFFFFFFFFFFFFFFFFFFFFFFFFFFFFFFF AND PUSH4 0x70A08231 ADDRESS PUSH1 0x40 MLOAD DUP3 PUSH4 0xFFFFFFFF AND PUSH1 0xE0 SHL DUP2 MSTORE PUSH1 0x4 ADD PUSH2 0x867 SWAP2 SWAP1 PUSH2 0x3456 JUMP JUMPDEST PUSH1 0x20 PUSH1 0x40 MLOAD DUP1 DUP4 SUB DUP2 DUP7 GAS STATICCALL ISZERO DUP1 ISZERO PUSH2 0x884 JUMPI RETURNDATASIZE PUSH1 0x0 DUP1 RETURNDATACOPY RETURNDATASIZE PUSH1 0x0 REVERT JUMPDEST POP POP POP POP PUSH1 0x40 MLOAD RETURNDATASIZE PUSH1 0x1F NOT PUSH1 0x1F DUP3 ADD AND DUP3 ADD DUP1 PUSH1 0x40 MSTORE POP DUP2 ADD SWAP1 PUSH2 0x8A8 SWAP2 SWAP1 PUSH2 0x3486 JUMP JUMPDEST SWAP1 POP SWAP1 JUMP JUMPDEST PUSH1 0x0 DUP1 CALLER SWAP1 POP DUP1 PUSH20 0xFFFFFFFFFFFFFFFFFFFFFFFFFFFFFFFFFFFFFFFF AND PUSH1 0x6 PUSH1 0x0 DUP4 PUSH20 0xFFFFFFFFFFFFFFFFFFFFFFFFFFFFFFFFFFFFFFFF AND PUSH20 0xFFFFFFFFFFFFFFFFFFFFFFFFFFFFFFFFFFFFFFFF AND DUP2 MSTORE PUSH1 0x20 ADD SWAP1 DUP2 MSTORE PUSH1 0x20 ADD PUSH1 0x0 KECCAK256 PUSH1 0x0 ADD PUSH1 0x0 SWAP1 SLOAD SWAP1 PUSH2 0x100 EXP SWAP1 DIV PUSH20 0xFFFFFFFFFFFFFFFFFFFFFFFFFFFFFFFFFFFFFFFF AND PUSH20 0xFFFFFFFFFFFFFFFFFFFFFFFFFFFFFFFFFFFFFFFF AND SUB PUSH2 0x952 JUMPI PUSH1 0x1 SWAP2 POP POP PUSH2 0x958 JUMP JUMPDEST PUSH1 0x0 SWAP2 POP POP JUMPDEST SWAP1 JUMP JUMPDEST PUSH1 0x0 PUSH2 0x972 PUSH2 0x96B DUP4 PUSH1 0x5 PUSH2 0x30F4 JUMP JUMPDEST PUSH1 0x64 PUSH2 0x30DE JUMP JUMPDEST SWAP1 POP SWAP2 SWAP1 POP JUMP JUMPDEST PUSH1 0x7 PUSH1 0x20 MSTORE DUP1 PUSH1 0x0 MSTORE PUSH1 0x40 PUSH1 0x0 KECCAK256 PUSH1 0x0 SWAP2 POP SWAP1 POP DUP1 PUSH1 0x0 ADD PUSH1 0x0 SWAP1 SLOAD SWAP1 PUSH2 0x100 EXP SWAP1 DIV PUSH20 0xFFFFFFFFFFFFFFFFFFFFFFFFFFFFFFFFFFFFFFFF AND SWAP1 DUP1 PUSH1 0x1 ADD SLOAD SWAP1 DUP1 PUSH1 0x2 ADD SLOAD SWAP1 POP DUP4 JUMP JUMPDEST PUSH2 0x9CB PUSH2 0x310A JUMP JUMPDEST PUSH20 0xFFFFFFFFFFFFFFFFFFFFFFFFFFFFFFFFFFFFFFFF AND PUSH1 0x0 DUP1 SLOAD SWAP1 PUSH2 0x100 EXP SWAP1 DIV PUSH20 0xFFFFFFFFFFFFFFFFFFFFFFFFFFFFFFFFFFFFFFFF AND PUSH20 0xFFFFFFFFFFFFFFFFFFFFFFFFFFFFFFFFFFFFFFFF AND EQ PUSH2 0xA58 JUMPI PUSH1 0x40 MLOAD PUSH32 0x8C379A000000000000000000000000000000000000000000000000000000000 DUP2 MSTORE PUSH1 0x4 ADD PUSH2 0xA4F SWAP1 PUSH2 0x3510 JUMP JUMPDEST PUSH1 0x40 MLOAD DUP1 SWAP2 SUB SWAP1 REVERT JUMPDEST PUSH1 0x1 PUSH1 0x4 PUSH1 0x14 PUSH2 0x100 EXP DUP2 SLOAD DUP2 PUSH1 0xFF MUL NOT AND SWAP1 DUP4 ISZERO ISZERO MUL OR SWAP1 SSTORE POP JUMP JUMPDEST PUSH1 0x0 PUSH2 0xA8C PUSH2 0xA85 DUP4 PUSH1 0x1 PUSH2 0x30F4 JUMP JUMPDEST PUSH1 0x64 PUSH2 0x30DE JUMP JUMPDEST SWAP1 POP SWAP2 SWAP1 POP JUMP JUMPDEST PUSH1 0x0 PUSH1 0x14 SWAP1 SLOAD SWAP1 PUSH2 0x100 EXP SWAP1 DIV PUSH1 0xFF AND ISZERO PUSH2 0xAE3 JUMPI PUSH1 0x40 MLOAD PUSH32 0x8C379A000000000000000000000000000000000000000000000000000000000 DUP2 MSTORE PUSH1 0x4 ADD PUSH2 0xADA SWAP1 PUSH2 0x357C JUMP JUMPDEST PUSH1 0x40 MLOAD DUP1 SWAP2 SUB SWAP1 REVERT JUMPDEST PUSH1 0x1 PUSH1 0x0 PUSH1 0x14 PUSH2 0x100 EXP DUP2 SLOAD DUP2 PUSH1 0xFF MUL NOT AND SWAP1 DUP4 ISZERO ISZERO MUL OR SWAP1 SSTORE POP PUSH1 0x4 PUSH1 0x14 SWAP1 SLOAD SWAP1 PUSH2 0x100 EXP SWAP1 DIV PUSH1 0xFF AND PUSH2 0xB4D JUMPI PUSH1 0x40 MLOAD PUSH32 0x8C379A000000000000000000000000000000000000000000000000000000000 DUP2 MSTORE PUSH1 0x4 ADD PUSH2 0xB44 SWAP1 PUSH2 0x35E8 JUMP JUMPDEST PUSH1 0x40 MLOAD DUP1 SWAP2 SUB SWAP1 REVERT JUMPDEST PUSH8 0x8AC7230489E80000 DUP2 LT ISZERO DUP1 ISZERO PUSH2 0xB6F JUMPI POP PUSH10 0x10F0CF064DD59200000 DUP2 GT ISZERO JUMPDEST PUSH2 0xBAE JUMPI PUSH1 0x40 MLOAD PUSH32 0x8C379A000000000000000000000000000000000000000000000000000000000 DUP2 MSTORE PUSH1 0x4 ADD PUSH2 0xBA5 SWAP1 PUSH2 0x367A JUMP JUMPDEST PUSH1 0x40 MLOAD DUP1 SWAP2 SUB SWAP1 REVERT JUMPDEST PUSH2 0xBB6 PUSH2 0x8AD JUMP JUMPDEST PUSH2 0x1341 JUMPI PUSH1 0x0 PUSH2 0xBC5 DUP3 PUSH2 0x95B JUMP JUMPDEST SWAP1 POP PUSH1 0x0 PUSH20 0xFFFFFFFFFFFFFFFFFFFFFFFFFFFFFFFFFFFFFFFF AND DUP4 PUSH20 0xFFFFFFFFFFFFFFFFFFFFFFFFFFFFFFFFFFFFFFFF AND EQ ISZERO DUP1 ISZERO PUSH2 0xC30 JUMPI POP CALLER PUSH20 0xFFFFFFFFFFFFFFFFFFFFFFFFFFFFFFFFFFFFFFFF AND DUP4 PUSH20 0xFFFFFFFFFFFFFFFFFFFFFFFFFFFFFFFFFFFFFFFF AND EQ ISZERO JUMPDEST ISZERO PUSH2 0xD4F JUMPI PUSH1 0x0 PUSH1 0x5 PUSH1 0x0 DUP6 PUSH20 0xFFFFFFFFFFFFFFFFFFFFFFFFFFFFFFFFFFFFFFFF AND PUSH20 0xFFFFFFFFFFFFFFFFFFFFFFFFFFFFFFFFFFFFFFFF AND DUP2 MSTORE PUSH1 0x20 ADD SWAP1 DUP2 MSTORE PUSH1 0x20 ADD PUSH1 0x0 KECCAK256 PUSH1 0x1 ADD SLOAD SWAP1 POP PUSH1 0x0 PUSH2 0xC88 DUP4 DUP4 PUSH2 0x3112 JUMP JUMPDEST SWAP1 POP PUSH1 0x40 MLOAD DUP1 PUSH1 0x40 ADD PUSH1 0x40 MSTORE DUP1 DUP7 PUSH20 0xFFFFFFFFFFFFFFFFFFFFFFFFFFFFFFFFFFFFFFFF AND DUP2 MSTORE PUSH1 0x20 ADD DUP3 DUP2 MSTORE POP PUSH1 0x5 PUSH1 0x0 DUP8 PUSH20 0xFFFFFFFFFFFFFFFFFFFFFFFFFFFFFFFFFFFFFFFF AND PUSH20 0xFFFFFFFFFFFFFFFFFFFFFFFFFFFFFFFFFFFFFFFF AND DUP2 MSTORE PUSH1 0x20 ADD SWAP1 DUP2 MSTORE PUSH1 0x20 ADD PUSH1 0x0 KECCAK256 PUSH1 0x0 DUP3 ADD MLOAD DUP2 PUSH1 0x0 ADD PUSH1 0x0 PUSH2 0x100 EXP DUP2 SLOAD DUP2 PUSH20 0xFFFFFFFFFFFFFFFFFFFFFFFFFFFFFFFFFFFFFFFF MUL NOT AND SWAP1 DUP4 PUSH20 0xFFFFFFFFFFFFFFFFFFFFFFFFFFFFFFFFFFFFFFFF AND MUL OR SWAP1 SSTORE POP PUSH1 0x20 DUP3 ADD MLOAD DUP2 PUSH1 0x1 ADD SSTORE SWAP1 POP POP POP POP PUSH2 0xECB JUMP JUMPDEST PUSH1 0x0 PUSH1 0x5 PUSH1 0x0 PUSH1 0x2 PUSH1 0x0 SWAP1 SLOAD SWAP1 PUSH2 0x100 EXP SWAP1 DIV PUSH20 0xFFFFFFFFFFFFFFFFFFFFFFFFFFFFFFFFFFFFFFFF AND PUSH20 0xFFFFFFFFFFFFFFFFFFFFFFFFFFFFFFFFFFFFFFFF AND PUSH20 0xFFFFFFFFFFFFFFFFFFFFFFFFFFFFFFFFFFFFFFFF AND DUP2 MSTORE PUSH1 0x20 ADD SWAP1 DUP2 MSTORE PUSH1 0x20 ADD PUSH1 0x0 KECCAK256 PUSH1 0x1 ADD SLOAD SWAP1 POP PUSH1 0x0 PUSH2 0xDC4 DUP4 DUP4 PUSH2 0x3112 JUMP JUMPDEST SWAP1 POP PUSH1 0x40 MLOAD DUP1 PUSH1 0x40 ADD PUSH1 0x40 MSTORE DUP1 PUSH1 0x2 PUSH1 0x0 SWAP1 SLOAD SWAP1 PUSH2 0x100 EXP SWAP1 DIV PUSH20 0xFFFFFFFFFFFFFFFFFFFFFFFFFFFFFFFFFFFFFFFF AND PUSH20 0xFFFFFFFFFFFFFFFFFFFFFFFFFFFFFFFFFFFFFFFF AND DUP2 MSTORE PUSH1 0x20 ADD DUP3 DUP2 MSTORE POP PUSH1 0x5 PUSH1 0x0 PUSH1 0x2 PUSH1 0x0 SWAP1 SLOAD SWAP1 PUSH2 0x100 EXP SWAP1 DIV PUSH20 0xFFFFFFFFFFFFFFFFFFFFFFFFFFFFFFFFFFFFFFFF AND PUSH20 0xFFFFFFFFFFFFFFFFFFFFFFFFFFFFFFFFFFFFFFFF AND PUSH20 0xFFFFFFFFFFFFFFFFFFFFFFFFFFFFFFFFFFFFFFFF AND DUP2 MSTORE PUSH1 0x20 ADD SWAP1 DUP2 MSTORE PUSH1 0x20 ADD PUSH1 0x0 KECCAK256 PUSH1 0x0 DUP3 ADD MLOAD DUP2 PUSH1 0x0 ADD PUSH1 0x0 PUSH2 0x100 EXP DUP2 SLOAD DUP2 PUSH20 0xFFFFFFFFFFFFFFFFFFFFFFFFFFFFFFFFFFFFFFFF MUL NOT AND SWAP1 DUP4 PUSH20 0xFFFFFFFFFFFFFFFFFFFFFFFFFFFFFFFFFFFFFFFF AND MUL OR SWAP1 SSTORE POP PUSH1 0x20 DUP3 ADD MLOAD DUP2 PUSH1 0x1 ADD SSTORE SWAP1 POP POP POP POP JUMPDEST PUSH1 0x0 PUSH1 0x6 PUSH1 0x0 CALLER PUSH20 0xFFFFFFFFFFFFFFFFFFFFFFFFFFFFFFFFFFFFFFFF AND PUSH20 0xFFFFFFFFFFFFFFFFFFFFFFFFFFFFFFFFFFFFFFFF AND DUP2 MSTORE PUSH1 0x20 ADD SWAP1 DUP2 MSTORE PUSH1 0x20 ADD PUSH1 0x0 KECCAK256 PUSH1 0x1 ADD SLOAD SWAP1 POP PUSH1 0x0 DUP4 SWAP1 POP PUSH1 0x0 PUSH2 0xF23 DUP4 DUP4 PUSH2 0x3112 JUMP JUMPDEST SWAP1 POP PUSH1 0x40 MLOAD DUP1 PUSH1 0x40 ADD PUSH1 0x40 MSTORE DUP1 CALLER PUSH20 0xFFFFFFFFFFFFFFFFFFFFFFFFFFFFFFFFFFFFFFFF AND DUP2 MSTORE PUSH1 0x20 ADD DUP3 DUP2 MSTORE POP PUSH1 0x6 PUSH1 0x0 CALLER PUSH20 0xFFFFFFFFFFFFFFFFFFFFFFFFFFFFFFFFFFFFFFFF AND PUSH20 0xFFFFFFFFFFFFFFFFFFFFFFFFFFFFFFFFFFFFFFFF AND DUP2 MSTORE PUSH1 0x20 ADD SWAP1 DUP2 MSTORE PUSH1 0x20 ADD PUSH1 0x0 KECCAK256 PUSH1 0x0 DUP3 ADD MLOAD DUP2 PUSH1 0x0 ADD PUSH1 0x0 PUSH2 0x100 EXP DUP2 SLOAD DUP2 PUSH20 0xFFFFFFFFFFFFFFFFFFFFFFFFFFFFFFFFFFFFFFFF MUL NOT AND SWAP1 DUP4 PUSH20 0xFFFFFFFFFFFFFFFFFFFFFFFFFFFFFFFFFFFFFFFF AND MUL OR SWAP1 SSTORE POP PUSH1 0x20 DUP3 ADD MLOAD DUP2 PUSH1 0x1 ADD SSTORE SWAP1 POP POP PUSH1 0x0 TIMESTAMP SWAP1 POP PUSH1 0x0 PUSH3 0x93A80 TIMESTAMP PUSH2 0xFF9 SWAP2 SWAP1 PUSH2 0x36C9 JUMP JUMPDEST SWAP1 POP PUSH1 0x40 MLOAD DUP1 PUSH1 0x60 ADD PUSH1 0x40 MSTORE DUP1 CALLER PUSH20 0xFFFFFFFFFFFFFFFFFFFFFFFFFFFFFFFFFFFFFFFF AND DUP2 MSTORE PUSH1 0x20 ADD DUP4 DUP2 MSTORE PUSH1 0x20 ADD DUP3 DUP2 MSTORE POP PUSH1 0x7 PUSH1 0x0 CALLER PUSH20 0xFFFFFFFFFFFFFFFFFFFFFFFFFFFFFFFFFFFFFFFF AND PUSH20 0xFFFFFFFFFFFFFFFFFFFFFFFFFFFFFFFFFFFFFFFF AND DUP2 MSTORE PUSH1 0x20 ADD SWAP1 DUP2 MSTORE PUSH1 0x20 ADD PUSH1 0x0 KECCAK256 PUSH1 0x0 DUP3 ADD MLOAD DUP2 PUSH1 0x0 ADD PUSH1 0x0 PUSH2 0x100 EXP DUP2 SLOAD DUP2 PUSH20 0xFFFFFFFFFFFFFFFFFFFFFFFFFFFFFFFFFFFFFFFF MUL NOT AND SWAP1 DUP4 PUSH20 0xFFFFFFFFFFFFFFFFFFFFFFFFFFFFFFFFFFFFFFFF AND MUL OR SWAP1 SSTORE POP PUSH1 0x20 DUP3 ADD MLOAD DUP2 PUSH1 0x1 ADD SSTORE PUSH1 0x40 DUP3 ADD MLOAD DUP2 PUSH1 0x2 ADD SSTORE SWAP1 POP POP PUSH1 0x0 TIMESTAMP SWAP1 POP PUSH1 0x0 PUSH3 0x15180 TIMESTAMP PUSH2 0x10DF SWAP2 SWAP1 PUSH2 0x36C9 JUMP JUMPDEST SWAP1 POP PUSH1 0x40 MLOAD DUP1 PUSH1 0x60 ADD PUSH1 0x40 MSTORE DUP1 CALLER PUSH20 0xFFFFFFFFFFFFFFFFFFFFFFFFFFFFFFFFFFFFFFFF AND DUP2 MSTORE PUSH1 0x20 ADD DUP4 DUP2 MSTORE PUSH1 0x20 ADD DUP3 DUP2 MSTORE POP PUSH1 0x8 PUSH1 0x0 CALLER PUSH20 0xFFFFFFFFFFFFFFFFFFFFFFFFFFFFFFFFFFFFFFFF AND PUSH20 0xFFFFFFFFFFFFFFFFFFFFFFFFFFFFFFFFFFFFFFFF AND DUP2 MSTORE PUSH1 0x20 ADD SWAP1 DUP2 MSTORE PUSH1 0x20 ADD PUSH1 0x0 KECCAK256 PUSH1 0x0 DUP3 ADD MLOAD DUP2 PUSH1 0x0 ADD PUSH1 0x0 PUSH2 0x100 EXP DUP2 SLOAD DUP2 PUSH20 0xFFFFFFFFFFFFFFFFFFFFFFFFFFFFFFFFFFFFFFFF MUL NOT AND SWAP1 DUP4 PUSH20 0xFFFFFFFFFFFFFFFFFFFFFFFFFFFFFFFFFFFFFFFF AND MUL OR SWAP1 SSTORE POP PUSH1 0x20 DUP3 ADD MLOAD DUP2 PUSH1 0x1 ADD SSTORE PUSH1 0x40 DUP3 ADD MLOAD DUP2 PUSH1 0x2 ADD SSTORE SWAP1 POP POP PUSH1 0x0 PUSH2 0x11BA DUP11 PUSH2 0xA75 JUMP JUMPDEST SWAP1 POP PUSH1 0x0 PUSH2 0x11C8 DUP12 DUP4 PUSH2 0x30C8 JUMP JUMPDEST SWAP1 POP PUSH1 0x3 PUSH1 0x0 SWAP1 SLOAD SWAP1 PUSH2 0x100 EXP SWAP1 DIV PUSH20 0xFFFFFFFFFFFFFFFFFFFFFFFFFFFFFFFFFFFFFFFF AND PUSH20 0xFFFFFFFFFFFFFFFFFFFFFFFFFFFFFFFFFFFFFFFF AND PUSH4 0x23B872DD CALLER PUSH1 0x2 PUSH1 0x0 SWAP1 SLOAD SWAP1 PUSH2 0x100 EXP SWAP1 DIV PUSH20 0xFFFFFFFFFFFFFFFFFFFFFFFFFFFFFFFFFFFFFFFF AND DUP6 PUSH1 0x40 MLOAD DUP5 PUSH4 0xFFFFFFFF AND PUSH1 0xE0 SHL DUP2 MSTORE PUSH1 0x4 ADD PUSH2 0x124B SWAP4 SWAP3 SWAP2 SWAP1 PUSH2 0x36FD JUMP JUMPDEST PUSH1 0x20 PUSH1 0x40 MLOAD DUP1 DUP4 SUB DUP2 PUSH1 0x0 DUP8 GAS CALL ISZERO DUP1 ISZERO PUSH2 0x126A JUMPI RETURNDATASIZE PUSH1 0x0 DUP1 RETURNDATACOPY RETURNDATASIZE PUSH1 0x0 REVERT JUMPDEST POP POP POP POP PUSH1 0x40 MLOAD RETURNDATASIZE PUSH1 0x1F NOT PUSH1 0x1F DUP3 ADD AND DUP3 ADD DUP1 PUSH1 0x40 MSTORE POP DUP2 ADD SWAP1 PUSH2 0x128E SWAP2 SWAP1 PUSH2 0x3760 JUMP JUMPDEST POP PUSH1 0x3 PUSH1 0x0 SWAP1 SLOAD SWAP1 PUSH2 0x100 EXP SWAP1 DIV PUSH20 0xFFFFFFFFFFFFFFFFFFFFFFFFFFFFFFFFFFFFFFFF AND PUSH20 0xFFFFFFFFFFFFFFFFFFFFFFFFFFFFFFFFFFFFFFFF AND PUSH4 0x23B872DD CALLER ADDRESS DUP5 PUSH1 0x40 MLOAD DUP5 PUSH4 0xFFFFFFFF AND PUSH1 0xE0 SHL DUP2 MSTORE PUSH1 0x4 ADD PUSH2 0x12EE SWAP4 SWAP3 SWAP2 SWAP1 PUSH2 0x36FD JUMP JUMPDEST PUSH1 0x20 PUSH1 0x40 MLOAD DUP1 DUP4 SUB DUP2 PUSH1 0x0 DUP8 GAS CALL ISZERO DUP1 ISZERO PUSH2 0x130D JUMPI RETURNDATASIZE PUSH1 0x0 DUP1 RETURNDATACOPY RETURNDATASIZE PUSH1 0x0 REVERT JUMPDEST POP POP POP POP PUSH1 0x40 MLOAD RETURNDATASIZE PUSH1 0x1F NOT PUSH1 0x1F DUP3 ADD AND DUP3 ADD DUP1 PUSH1 0x40 MSTORE POP DUP2 ADD SWAP1 PUSH2 0x1331 SWAP2 SWAP1 PUSH2 0x3760 JUMP JUMPDEST POP POP POP POP POP POP POP POP POP POP POP PUSH2 0x18F4 JUMP JUMPDEST PUSH1 0x0 PUSH2 0x134C DUP3 PUSH2 0x95B JUMP JUMPDEST SWAP1 POP PUSH1 0x0 PUSH20 0xFFFFFFFFFFFFFFFFFFFFFFFFFFFFFFFFFFFFFFFF AND DUP4 PUSH20 0xFFFFFFFFFFFFFFFFFFFFFFFFFFFFFFFFFFFFFFFF AND EQ ISZERO DUP1 ISZERO PUSH2 0x13B7 JUMPI POP CALLER PUSH20 0xFFFFFFFFFFFFFFFFFFFFFFFFFFFFFFFFFFFFFFFF AND DUP4 PUSH20 0xFFFFFFFFFFFFFFFFFFFFFFFFFFFFFFFFFFFFFFFF AND EQ ISZERO JUMPDEST ISZERO PUSH2 0x14D6 JUMPI PUSH1 0x0 PUSH1 0x5 PUSH1 0x0 DUP6 PUSH20 0xFFFFFFFFFFFFFFFFFFFFFFFFFFFFFFFFFFFFFFFF AND PUSH20 0xFFFFFFFFFFFFFFFFFFFFFFFFFFFFFFFFFFFFFFFF AND DUP2 MSTORE PUSH1 0x20 ADD SWAP1 DUP2 MSTORE PUSH1 0x20 ADD PUSH1 0x0 KECCAK256 PUSH1 0x1 ADD SLOAD SWAP1 POP PUSH1 0x0 PUSH2 0x140F DUP4 DUP4 PUSH2 0x3112 JUMP JUMPDEST SWAP1 POP PUSH1 0x40 MLOAD DUP1 PUSH1 0x40 ADD PUSH1 0x40 MSTORE DUP1 DUP7 PUSH20 0xFFFFFFFFFFFFFFFFFFFFFFFFFFFFFFFFFFFFFFFF AND DUP2 MSTORE PUSH1 0x20 ADD DUP3 DUP2 MSTORE POP PUSH1 0x5 PUSH1 0x0 DUP8 PUSH20 0xFFFFFFFFFFFFFFFFFFFFFFFFFFFFFFFFFFFFFFFF AND PUSH20 0xFFFFFFFFFFFFFFFFFFFFFFFFFFFFFFFFFFFFFFFF AND DUP2 MSTORE PUSH1 0x20 ADD SWAP1 DUP2 MSTORE PUSH1 0x20 ADD PUSH1 0x0 KECCAK256 PUSH1 0x0 DUP3 ADD MLOAD DUP2 PUSH1 0x0 ADD PUSH1 0x0 PUSH2 0x100 EXP DUP2 SLOAD DUP2 PUSH20 0xFFFFFFFFFFFFFFFFFFFFFFFFFFFFFFFFFFFFFFFF MUL NOT AND SWAP1 DUP4 PUSH20 0xFFFFFFFFFFFFFFFFFFFFFFFFFFFFFFFFFFFFFFFF AND MUL OR SWAP1 SSTORE POP PUSH1 0x20 DUP3 ADD MLOAD DUP2 PUSH1 0x1 ADD SSTORE SWAP1 POP POP POP POP PUSH2 0x1652 JUMP JUMPDEST PUSH1 0x0 PUSH1 0x5 PUSH1 0x0 PUSH1 0x2 PUSH1 0x0 SWAP1 SLOAD SWAP1 PUSH2 0x100 EXP SWAP1 DIV PUSH20 0xFFFFFFFFFFFFFFFFFFFFFFFFFFFFFFFFFFFFFFFF AND PUSH20 0xFFFFFFFFFFFFFFFFFFFFFFFFFFFFFFFFFFFFFFFF AND PUSH20 0xFFFFFFFFFFFFFFFFFFFFFFFFFFFFFFFFFFFFFFFF AND DUP2 MSTORE PUSH1 0x20 ADD SWAP1 DUP2 MSTORE PUSH1 0x20 ADD PUSH1 0x0 KECCAK256 PUSH1 0x1 ADD SLOAD SWAP1 POP PUSH1 0x0 PUSH2 0x154B DUP4 DUP4 PUSH2 0x3112 JUMP JUMPDEST SWAP1 POP PUSH1 0x40 MLOAD DUP1 PUSH1 0x40 ADD PUSH1 0x40 MSTORE DUP1 PUSH1 0x2 PUSH1 0x0 SWAP1 SLOAD SWAP1 PUSH2 0x100 EXP SWAP1 DIV PUSH20 0xFFFFFFFFFFFFFFFFFFFFFFFFFFFFFFFFFFFFFFFF AND PUSH20 0xFFFFFFFFFFFFFFFFFFFFFFFFFFFFFFFFFFFFFFFF AND DUP2 MSTORE PUSH1 0x20 ADD DUP3 DUP2 MSTORE POP PUSH1 0x5 PUSH1 0x0 PUSH1 0x2 PUSH1 0x0 SWAP1 SLOAD SWAP1 PUSH2 0x100 EXP SWAP1 DIV PUSH20 0xFFFFFFFFFFFFFFFFFFFFFFFFFFFFFFFFFFFFFFFF AND PUSH20 0xFFFFFFFFFFFFFFFFFFFFFFFFFFFFFFFFFFFFFFFF AND PUSH20 0xFFFFFFFFFFFFFFFFFFFFFFFFFFFFFFFFFFFFFFFF AND DUP2 MSTORE PUSH1 0x20 ADD SWAP1 DUP2 MSTORE PUSH1 0x20 ADD PUSH1 0x0 KECCAK256 PUSH1 0x0 DUP3 ADD MLOAD DUP2 PUSH1 0x0 ADD PUSH1 0x0 PUSH2 0x100 EXP DUP2 SLOAD DUP2 PUSH20 0xFFFFFFFFFFFFFFFFFFFFFFFFFFFFFFFFFFFFFFFF MUL NOT AND SWAP1 DUP4 PUSH20 0xFFFFFFFFFFFFFFFFFFFFFFFFFFFFFFFFFFFFFFFF AND MUL OR SWAP1 SSTORE POP PUSH1 0x20 DUP3 ADD MLOAD DUP2 PUSH1 0x1 ADD SSTORE SWAP1 POP POP POP POP JUMPDEST PUSH1 0x0 PUSH1 0x6 PUSH1 0x0 CALLER PUSH20 0xFFFFFFFFFFFFFFFFFFFFFFFFFFFFFFFFFFFFFFFF AND PUSH20 0xFFFFFFFFFFFFFFFFFFFFFFFFFFFFFFFFFFFFFFFF AND DUP2 MSTORE PUSH1 0x20 ADD SWAP1 DUP2 MSTORE PUSH1 0x20 ADD PUSH1 0x0 KECCAK256 PUSH1 0x1 ADD SLOAD SWAP1 POP PUSH1 0x0 DUP4 SWAP1 POP PUSH1 0x0 PUSH2 0x16AA DUP4 DUP4 PUSH2 0x3112 JUMP JUMPDEST SWAP1 POP PUSH1 0x40 MLOAD DUP1 PUSH1 0x40 ADD PUSH1 0x40 MSTORE DUP1 CALLER PUSH20 0xFFFFFFFFFFFFFFFFFFFFFFFFFFFFFFFFFFFFFFFF AND DUP2 MSTORE PUSH1 0x20 ADD DUP3 DUP2 MSTORE POP PUSH1 0x6 PUSH1 0x0 CALLER PUSH20 0xFFFFFFFFFFFFFFFFFFFFFFFFFFFFFFFFFFFFFFFF AND PUSH20 0xFFFFFFFFFFFFFFFFFFFFFFFFFFFFFFFFFFFFFFFF AND DUP2 MSTORE PUSH1 0x20 ADD SWAP1 DUP2 MSTORE PUSH1 0x20 ADD PUSH1 0x0 KECCAK256 PUSH1 0x0 DUP3 ADD MLOAD DUP2 PUSH1 0x0 ADD PUSH1 0x0 PUSH2 0x100 EXP DUP2 SLOAD DUP2 PUSH20 0xFFFFFFFFFFFFFFFFFFFFFFFFFFFFFFFFFFFFFFFF MUL NOT AND SWAP1 DUP4 PUSH20 0xFFFFFFFFFFFFFFFFFFFFFFFFFFFFFFFFFFFFFFFF AND MUL OR SWAP1 SSTORE POP PUSH1 0x20 DUP3 ADD MLOAD DUP2 PUSH1 0x1 ADD SSTORE SWAP1 POP POP PUSH1 0x0 PUSH2 0x1775 DUP7 PUSH2 0xA75 JUMP JUMPDEST SWAP1 POP PUSH1 0x0 PUSH2 0x1783 DUP8 DUP4 PUSH2 0x30C8 JUMP JUMPDEST SWAP1 POP PUSH1 0x3 PUSH1 0x0 SWAP1 SLOAD SWAP1 PUSH2 0x100 EXP SWAP1 DIV PUSH20 0xFFFFFFFFFFFFFFFFFFFFFFFFFFFFFFFFFFFFFFFF AND PUSH20 0xFFFFFFFFFFFFFFFFFFFFFFFFFFFFFFFFFFFFFFFF AND PUSH4 0x23B872DD CALLER PUSH1 0x2 PUSH1 0x0 SWAP1 SLOAD SWAP1 PUSH2 0x100 EXP SWAP1 DIV PUSH20 0xFFFFFFFFFFFFFFFFFFFFFFFFFFFFFFFFFFFFFFFF AND DUP6 PUSH1 0x40 MLOAD DUP5 PUSH4 0xFFFFFFFF AND PUSH1 0xE0 SHL DUP2 MSTORE PUSH1 0x4 ADD PUSH2 0x1806 SWAP4 SWAP3 SWAP2 SWAP1 PUSH2 0x36FD JUMP JUMPDEST PUSH1 0x20 PUSH1 0x40 MLOAD DUP1 DUP4 SUB DUP2 PUSH1 0x0 DUP8 GAS CALL ISZERO DUP1 ISZERO PUSH2 0x1825 JUMPI RETURNDATASIZE PUSH1 0x0 DUP1 RETURNDATACOPY RETURNDATASIZE PUSH1 0x0 REVERT JUMPDEST POP POP POP POP PUSH1 0x40 MLOAD RETURNDATASIZE PUSH1 0x1F NOT PUSH1 0x1F DUP3 ADD AND DUP3 ADD DUP1 PUSH1 0x40 MSTORE POP DUP2 ADD SWAP1 PUSH2 0x1849 SWAP2 SWAP1 PUSH2 0x3760 JUMP JUMPDEST POP PUSH1 0x3 PUSH1 0x0 SWAP1 SLOAD SWAP1 PUSH2 0x100 EXP SWAP1 DIV PUSH20 0xFFFFFFFFFFFFFFFFFFFFFFFFFFFFFFFFFFFFFFFF AND PUSH20 0xFFFFFFFFFFFFFFFFFFFFFFFFFFFFFFFFFFFFFFFF AND PUSH4 0x23B872DD CALLER ADDRESS DUP5 PUSH1 0x40 MLOAD DUP5 PUSH4 0xFFFFFFFF AND PUSH1 0xE0 SHL DUP2 MSTORE PUSH1 0x4 ADD PUSH2 0x18A9 SWAP4 SWAP3 SWAP2 SWAP1 PUSH2 0x36FD JUMP JUMPDEST PUSH1 0x20 PUSH1 0x40 MLOAD DUP1 DUP4 SUB DUP2 PUSH1 0x0 DUP8 GAS CALL ISZERO DUP1 ISZERO PUSH2 0x18C8 JUMPI RETURNDATASIZE PUSH1 0x0 DUP1 RETURNDATACOPY RETURNDATASIZE PUSH1 0x0 REVERT JUMPDEST POP POP POP POP PUSH1 0x40 MLOAD RETURNDATASIZE PUSH1 0x1F NOT PUSH1 0x1F DUP3 ADD AND DUP3 ADD DUP1 PUSH1 0x40 MSTORE POP DUP2 ADD SWAP1 PUSH2 0x18EC SWAP2 SWAP1 PUSH2 0x3760 JUMP JUMPDEST POP POP POP POP POP POP POP JUMPDEST PUSH1 0x0 DUP1 PUSH1 0x14 PUSH2 0x100 EXP DUP2 SLOAD DUP2 PUSH1 0xFF MUL NOT AND SWAP1 DUP4 ISZERO ISZERO MUL OR SWAP1 SSTORE POP POP POP JUMP JUMPDEST PUSH1 0x1 SLOAD DUP2 JUMP JUMPDEST PUSH1 0x8 PUSH1 0x20 MSTORE DUP1 PUSH1 0x0 MSTORE PUSH1 0x40 PUSH1 0x0 KECCAK256 PUSH1 0x0 SWAP2 POP SWAP1 POP DUP1 PUSH1 0x0 ADD PUSH1 0x0 SWAP1 SLOAD SWAP1 PUSH2 0x100 EXP SWAP1 DIV PUSH20 0xFFFFFFFFFFFFFFFFFFFFFFFFFFFFFFFFFFFFFFFF AND SWAP1 DUP1 PUSH1 0x1 ADD SLOAD SWAP1 DUP1 PUSH1 0x2 ADD SLOAD SWAP1 POP DUP4 JUMP JUMPDEST PUSH1 0x0 PUSH2 0x197A PUSH2 0x1973 DUP4 PUSH1 0x1 SLOAD PUSH2 0x30F4 JUMP JUMPDEST PUSH1 0x64 PUSH2 0x30DE JUMP JUMPDEST SWAP1 POP SWAP2 SWAP1 POP JUMP JUMPDEST PUSH1 0x5 DUP2 JUMP JUMPDEST PUSH10 0x10F0CF064DD59200000 DUP2 JUMP JUMPDEST PUSH2 0x199C PUSH2 0x310A JUMP JUMPDEST PUSH20 0xFFFFFFFFFFFFFFFFFFFFFFFFFFFFFFFFFFFFFFFF AND PUSH1 0x0 DUP1 SLOAD SWAP1 PUSH2 0x100 EXP SWAP1 DIV PUSH20 0xFFFFFFFFFFFFFFFFFFFFFFFFFFFFFFFFFFFFFFFF AND PUSH20 0xFFFFFFFFFFFFFFFFFFFFFFFFFFFFFFFFFFFFFFFF AND EQ PUSH2 0x1A29 JUMPI PUSH1 0x40 MLOAD PUSH32 0x8C379A000000000000000000000000000000000000000000000000000000000 DUP2 MSTORE PUSH1 0x4 ADD PUSH2 0x1A20 SWAP1 PUSH2 0x3510 JUMP JUMPDEST PUSH1 0x40 MLOAD DUP1 SWAP2 SUB SWAP1 REVERT JUMPDEST PUSH1 0x0 PUSH20 0xFFFFFFFFFFFFFFFFFFFFFFFFFFFFFFFFFFFFFFFF AND PUSH1 0x0 DUP1 SLOAD SWAP1 PUSH2 0x100 EXP SWAP1 DIV PUSH20 0xFFFFFFFFFFFFFFFFFFFFFFFFFFFFFFFFFFFFFFFF AND PUSH20 0xFFFFFFFFFFFFFFFFFFFFFFFFFFFFFFFFFFFFFFFF AND PUSH32 0x8BE0079C531659141344CD1FD0A4F28419497F9722A3DAAFE3B4186F6B6457E0 PUSH1 0x40 MLOAD PUSH1 0x40 MLOAD DUP1 SWAP2 SUB SWAP1 LOG3 PUSH1 0x0 DUP1 PUSH1 0x0 PUSH2 0x100 EXP DUP2 SLOAD DUP2 PUSH20 0xFFFFFFFFFFFFFFFFFFFFFFFFFFFFFFFFFFFFFFFF MUL NOT AND SWAP1 DUP4 PUSH20 0xFFFFFFFFFFFFFFFFFFFFFFFFFFFFFFFFFFFFFFFF AND MUL OR SWAP1 SSTORE POP JUMP JUMPDEST PUSH1 0x0 PUSH1 0x14 SWAP1 SLOAD SWAP1 PUSH2 0x100 EXP SWAP1 DIV PUSH1 0xFF AND ISZERO PUSH2 0x1B37 JUMPI PUSH1 0x40 MLOAD PUSH32 0x8C379A000000000000000000000000000000000000000000000000000000000 DUP2 MSTORE PUSH1 0x4 ADD PUSH2 0x1B2E SWAP1 PUSH2 0x357C JUMP JUMPDEST PUSH1 0x40 MLOAD DUP1 SWAP2 SUB SWAP1 REVERT JUMPDEST PUSH1 0x1 PUSH1 0x0 PUSH1 0x14 PUSH2 0x100 EXP DUP2 SLOAD DUP2 PUSH1 0xFF MUL NOT AND SWAP1 DUP4 ISZERO ISZERO MUL OR SWAP1 SSTORE POP PUSH1 0x4 PUSH1 0x14 SWAP1 SLOAD SWAP1 PUSH2 0x100 EXP SWAP1 DIV PUSH1 0xFF AND PUSH2 0x1BA1 JUMPI PUSH1 0x40 MLOAD PUSH32 0x8C379A000000000000000000000000000000000000000000000000000000000 DUP2 MSTORE PUSH1 0x4 ADD PUSH2 0x1B98 SWAP1 PUSH2 0x37D9 JUMP JUMPDEST PUSH1 0x40 MLOAD DUP1 SWAP2 SUB SWAP1 REVERT JUMPDEST PUSH1 0x0 PUSH1 0x6 PUSH1 0x0 CALLER PUSH20 0xFFFFFFFFFFFFFFFFFFFFFFFFFFFFFFFFFFFFFFFF AND PUSH20 0xFFFFFFFFFFFFFFFFFFFFFFFFFFFFFFFFFFFFFFFF AND DUP2 MSTORE PUSH1 0x20 ADD SWAP1 DUP2 MSTORE PUSH1 0x20 ADD PUSH1 0x0 KECCAK256 PUSH1 0x1 ADD SLOAD SWAP1 POP PUSH1 0x0 PUSH1 0xA PUSH1 0x0 CALLER PUSH20 0xFFFFFFFFFFFFFFFFFFFFFFFFFFFFFFFFFFFFFFFF AND PUSH20 0xFFFFFFFFFFFFFFFFFFFFFFFFFFFFFFFFFFFFFFFF AND DUP2 MSTORE PUSH1 0x20 ADD SWAP1 DUP2 MSTORE PUSH1 0x20 ADD PUSH1 0x0 KECCAK256 PUSH1 0x1 ADD SLOAD SWAP1 POP DUP1 DUP3 GT PUSH2 0x1C71 JUMPI PUSH1 0x40 MLOAD PUSH32 0x8C379A000000000000000000000000000000000000000000000000000000000 DUP2 MSTORE PUSH1 0x4 ADD PUSH2 0x1C68 SWAP1 PUSH2 0x386B JUMP JUMPDEST PUSH1 0x40 MLOAD DUP1 SWAP2 SUB SWAP1 REVERT JUMPDEST PUSH1 0x0 PUSH2 0x1C7C DUP4 PUSH2 0xA75 JUMP JUMPDEST SWAP1 POP PUSH1 0x0 PUSH2 0x1C8A DUP5 DUP4 PUSH2 0x30C8 JUMP JUMPDEST SWAP1 POP PUSH1 0x0 PUSH2 0x1C98 DUP3 DUP6 PUSH2 0x30C8 JUMP JUMPDEST SWAP1 POP PUSH1 0x0 PUSH2 0x1CA7 DUP3 PUSH1 0x2 PUSH2 0x30DE JUMP JUMPDEST SWAP1 POP PUSH1 0x3 PUSH1 0x0 SWAP1 SLOAD SWAP1 PUSH2 0x100 EXP SWAP1 DIV PUSH20 0xFFFFFFFFFFFFFFFFFFFFFFFFFFFFFFFFFFFFFFFF AND PUSH20 0xFFFFFFFFFFFFFFFFFFFFFFFFFFFFFFFFFFFFFFFF AND PUSH4 0xA9059CBB CALLER DUP4 PUSH1 0x40 MLOAD DUP4 PUSH4 0xFFFFFFFF AND PUSH1 0xE0 SHL DUP2 MSTORE PUSH1 0x4 ADD PUSH2 0x1D06 SWAP3 SWAP2 SWAP1 PUSH2 0x3327 JUMP JUMPDEST PUSH1 0x20 PUSH1 0x40 MLOAD DUP1 DUP4 SUB DUP2 PUSH1 0x0 DUP8 GAS CALL ISZERO DUP1 ISZERO PUSH2 0x1D25 JUMPI RETURNDATASIZE PUSH1 0x0 DUP1 RETURNDATACOPY RETURNDATASIZE PUSH1 0x0 REVERT JUMPDEST POP POP POP POP PUSH1 0x40 MLOAD RETURNDATASIZE PUSH1 0x1F NOT PUSH1 0x1F DUP3 ADD AND DUP3 ADD DUP1 PUSH1 0x40 MSTORE POP DUP2 ADD SWAP1 PUSH2 0x1D49 SWAP2 SWAP1 PUSH2 0x3760 JUMP JUMPDEST POP PUSH1 0x3 PUSH1 0x0 SWAP1 SLOAD SWAP1 PUSH2 0x100 EXP SWAP1 DIV PUSH20 0xFFFFFFFFFFFFFFFFFFFFFFFFFFFFFFFFFFFFFFFF AND PUSH20 0xFFFFFFFFFFFFFFFFFFFFFFFFFFFFFFFFFFFFFFFF AND PUSH4 0xA9059CBB PUSH1 0x2 PUSH1 0x0 SWAP1 SLOAD SWAP1 PUSH2 0x100 EXP SWAP1 DIV PUSH20 0xFFFFFFFFFFFFFFFFFFFFFFFFFFFFFFFFFFFFFFFF AND DUP4 PUSH1 0x40 MLOAD DUP4 PUSH4 0xFFFFFFFF AND PUSH1 0xE0 SHL DUP2 MSTORE PUSH1 0x4 ADD PUSH2 0x1DC9 SWAP3 SWAP2 SWAP1 PUSH2 0x3327 JUMP JUMPDEST PUSH1 0x20 PUSH1 0x40 MLOAD DUP1 DUP4 SUB DUP2 PUSH1 0x0 DUP8 GAS CALL ISZERO DUP1 ISZERO PUSH2 0x1DE8 JUMPI RETURNDATASIZE PUSH1 0x0 DUP1 RETURNDATACOPY RETURNDATASIZE PUSH1 0x0 REVERT JUMPDEST POP POP POP POP PUSH1 0x40 MLOAD RETURNDATASIZE PUSH1 0x1F NOT PUSH1 0x1F DUP3 ADD AND DUP3 ADD DUP1 PUSH1 0x40 MSTORE POP DUP2 ADD SWAP1 PUSH2 0x1E0C SWAP2 SWAP1 PUSH2 0x3760 JUMP JUMPDEST POP PUSH1 0x40 MLOAD DUP1 PUSH1 0x40 ADD PUSH1 0x40 MSTORE DUP1 CALLER PUSH20 0xFFFFFFFFFFFFFFFFFFFFFFFFFFFFFFFFFFFFFFFF AND DUP2 MSTORE PUSH1 0x20 ADD PUSH1 0x0 DUP2 MSTORE POP PUSH1 0x6 PUSH1 0x0 CALLER PUSH20 0xFFFFFFFFFFFFFFFFFFFFFFFFFFFFFFFFFFFFFFFF AND PUSH20 0xFFFFFFFFFFFFFFFFFFFFFFFFFFFFFFFFFFFFFFFF AND DUP2 MSTORE PUSH1 0x20 ADD SWAP1 DUP2 MSTORE PUSH1 0x20 ADD PUSH1 0x0 KECCAK256 PUSH1 0x0 DUP3 ADD MLOAD DUP2 PUSH1 0x0 ADD PUSH1 0x0 PUSH2 0x100 EXP DUP2 SLOAD DUP2 PUSH20 0xFFFFFFFFFFFFFFFFFFFFFFFFFFFFFFFFFFFFFFFF MUL NOT AND SWAP1 DUP4 PUSH20 0xFFFFFFFFFFFFFFFFFFFFFFFFFFFFFFFFFFFFFFFF AND MUL OR SWAP1 SSTORE POP PUSH1 0x20 DUP3 ADD MLOAD DUP2 PUSH1 0x1 ADD SSTORE SWAP1 POP POP PUSH1 0x40 MLOAD DUP1 PUSH1 0x40 ADD PUSH1 0x40 MSTORE DUP1 CALLER PUSH20 0xFFFFFFFFFFFFFFFFFFFFFFFFFFFFFFFFFFFFFFFF AND DUP2 MSTORE PUSH1 0x20 ADD PUSH1 0x0 DUP2 MSTORE POP PUSH1 0x9 PUSH1 0x0 CALLER PUSH20 0xFFFFFFFFFFFFFFFFFFFFFFFFFFFFFFFFFFFFFFFF AND PUSH20 0xFFFFFFFFFFFFFFFFFFFFFFFFFFFFFFFFFFFFFFFF AND DUP2 MSTORE PUSH1 0x20 ADD SWAP1 DUP2 MSTORE PUSH1 0x20 ADD PUSH1 0x0 KECCAK256 PUSH1 0x0 DUP3 ADD MLOAD DUP2 PUSH1 0x0 ADD PUSH1 0x0 PUSH2 0x100 EXP DUP2 SLOAD DUP2 PUSH20 0xFFFFFFFFFFFFFFFFFFFFFFFFFFFFFFFFFFFFFFFF MUL NOT AND SWAP1 DUP4 PUSH20 0xFFFFFFFFFFFFFFFFFFFFFFFFFFFFFFFFFFFFFFFF AND MUL OR SWAP1 SSTORE POP PUSH1 0x20 DUP3 ADD MLOAD DUP2 PUSH1 0x1 ADD SSTORE SWAP1 POP POP POP POP POP POP POP POP PUSH1 0x0 DUP1 PUSH1 0x14 PUSH2 0x100 EXP DUP2 SLOAD DUP2 PUSH1 0xFF MUL NOT AND SWAP1 DUP4 ISZERO ISZERO MUL OR SWAP1 SSTORE POP JUMP JUMPDEST PUSH1 0x0 PUSH1 0x14 SWAP1 SLOAD SWAP1 PUSH2 0x100 EXP SWAP1 DIV PUSH1 0xFF AND ISZERO PUSH2 0x1FFD JUMPI PUSH1 0x40 MLOAD PUSH32 0x8C379A000000000000000000000000000000000000000000000000000000000 DUP2 MSTORE PUSH1 0x4 ADD PUSH2 0x1FF4 SWAP1 PUSH2 0x357C JUMP JUMPDEST PUSH1 0x40 MLOAD DUP1 SWAP2 SUB SWAP1 REVERT JUMPDEST PUSH1 0x1 PUSH1 0x0 PUSH1 0x14 PUSH2 0x100 EXP DUP2 SLOAD DUP2 PUSH1 0xFF MUL NOT AND SWAP1 DUP4 ISZERO ISZERO MUL OR SWAP1 SSTORE POP PUSH1 0x4 PUSH1 0x14 SWAP1 SLOAD SWAP1 PUSH2 0x100 EXP SWAP1 DIV PUSH1 0xFF AND PUSH2 0x2067 JUMPI PUSH1 0x40 MLOAD PUSH32 0x8C379A000000000000000000000000000000000000000000000000000000000 DUP2 MSTORE PUSH1 0x4 ADD PUSH2 0x205E SWAP1 PUSH2 0x38D7 JUMP JUMPDEST PUSH1 0x40 MLOAD DUP1 SWAP2 SUB SWAP1 REVERT JUMPDEST TIMESTAMP PUSH1 0x8 PUSH1 0x0 CALLER PUSH20 0xFFFFFFFFFFFFFFFFFFFFFFFFFFFFFFFFFFFFFFFF AND PUSH20 0xFFFFFFFFFFFFFFFFFFFFFFFFFFFFFFFFFFFFFFFF AND DUP2 MSTORE PUSH1 0x20 ADD SWAP1 DUP2 MSTORE PUSH1 0x20 ADD PUSH1 0x0 KECCAK256 PUSH1 0x2 ADD SLOAD GT ISZERO PUSH2 0x20EC JUMPI PUSH1 0x40 MLOAD PUSH32 0x8C379A000000000000000000000000000000000000000000000000000000000 DUP2 MSTORE PUSH1 0x4 ADD PUSH2 0x20E3 SWAP1 PUSH2 0x3969 JUMP JUMPDEST PUSH1 0x40 MLOAD DUP1 SWAP2 SUB SWAP1 REVERT JUMPDEST PUSH1 0x0 PUSH2 0x20F7 CALLER PUSH2 0x67E JUMP JUMPDEST SWAP1 POP PUSH1 0x0 PUSH1 0x9 PUSH1 0x0 CALLER PUSH20 0xFFFFFFFFFFFFFFFFFFFFFFFFFFFFFFFFFFFFFFFF AND PUSH20 0xFFFFFFFFFFFFFFFFFFFFFFFFFFFFFFFFFFFFFFFF AND DUP2 MSTORE PUSH1 0x20 ADD SWAP1 DUP2 MSTORE PUSH1 0x20 ADD PUSH1 0x0 KECCAK256 PUSH1 0x1 ADD SLOAD SWAP1 POP PUSH1 0x0 PUSH2 0x214C DUP4 DUP4 PUSH2 0x3112 JUMP JUMPDEST SWAP1 POP PUSH1 0x40 MLOAD DUP1 PUSH1 0x40 ADD PUSH1 0x40 MSTORE DUP1 CALLER PUSH20 0xFFFFFFFFFFFFFFFFFFFFFFFFFFFFFFFFFFFFFFFF AND DUP2 MSTORE PUSH1 0x20 ADD DUP3 DUP2 MSTORE POP PUSH1 0x9 PUSH1 0x0 CALLER PUSH20 0xFFFFFFFFFFFFFFFFFFFFFFFFFFFFFFFFFFFFFFFF AND PUSH20 0xFFFFFFFFFFFFFFFFFFFFFFFFFFFFFFFFFFFFFFFF AND DUP2 MSTORE PUSH1 0x20 ADD SWAP1 DUP2 MSTORE PUSH1 0x20 ADD PUSH1 0x0 KECCAK256 PUSH1 0x0 DUP3 ADD MLOAD DUP2 PUSH1 0x0 ADD PUSH1 0x0 PUSH2 0x100 EXP DUP2 SLOAD DUP2 PUSH20 0xFFFFFFFFFFFFFFFFFFFFFFFFFFFFFFFFFFFFFFFF MUL NOT AND SWAP1 DUP4 PUSH20 0xFFFFFFFFFFFFFFFFFFFFFFFFFFFFFFFFFFFFFFFF AND MUL OR SWAP1 SSTORE POP PUSH1 0x20 DUP3 ADD MLOAD DUP2 PUSH1 0x1 ADD SSTORE SWAP1 POP POP PUSH1 0x0 PUSH1 0xB PUSH1 0x0 CALLER PUSH20 0xFFFFFFFFFFFFFFFFFFFFFFFFFFFFFFFFFFFFFFFF AND PUSH20 0xFFFFFFFFFFFFFFFFFFFFFFFFFFFFFFFFFFFFFFFF AND DUP2 MSTORE PUSH1 0x20 ADD SWAP1 DUP2 MSTORE PUSH1 0x20 ADD PUSH1 0x0 KECCAK256 PUSH1 0x1 ADD SLOAD SWAP1 POP PUSH1 0x0 PUSH2 0x225F DUP3 DUP7 PUSH2 0x3112 JUMP JUMPDEST SWAP1 POP DUP1 PUSH1 0xB PUSH1 0x0 CALLER PUSH20 0xFFFFFFFFFFFFFFFFFFFFFFFFFFFFFFFFFFFFFFFF AND PUSH20 0xFFFFFFFFFFFFFFFFFFFFFFFFFFFFFFFFFFFFFFFF AND DUP2 MSTORE PUSH1 0x20 ADD SWAP1 DUP2 MSTORE PUSH1 0x20 ADD PUSH1 0x0 KECCAK256 PUSH1 0x1 ADD DUP2 SWAP1 SSTORE POP PUSH1 0x0 TIMESTAMP SWAP1 POP PUSH1 0x0 PUSH3 0x15180 TIMESTAMP PUSH2 0x22BE SWAP2 SWAP1 PUSH2 0x36C9 JUMP JUMPDEST SWAP1 POP PUSH1 0x40 MLOAD DUP1 PUSH1 0x60 ADD PUSH1 0x40 MSTORE DUP1 CALLER PUSH20 0xFFFFFFFFFFFFFFFFFFFFFFFFFFFFFFFFFFFFFFFF AND DUP2 MSTORE PUSH1 0x20 ADD DUP4 DUP2 MSTORE PUSH1 0x20 ADD DUP3 DUP2 MSTORE POP PUSH1 0x8 PUSH1 0x0 CALLER PUSH20 0xFFFFFFFFFFFFFFFFFFFFFFFFFFFFFFFFFFFFFFFF AND PUSH20 0xFFFFFFFFFFFFFFFFFFFFFFFFFFFFFFFFFFFFFFFF AND DUP2 MSTORE PUSH1 0x20 ADD SWAP1 DUP2 MSTORE PUSH1 0x20 ADD PUSH1 0x0 KECCAK256 PUSH1 0x0 DUP3 ADD MLOAD DUP2 PUSH1 0x0 ADD PUSH1 0x0 PUSH2 0x100 EXP DUP2 SLOAD DUP2 PUSH20 0xFFFFFFFFFFFFFFFFFFFFFFFFFFFFFFFFFFFFFFFF MUL NOT AND SWAP1 DUP4 PUSH20 0xFFFFFFFFFFFFFFFFFFFFFFFFFFFFFFFFFFFFFFFF AND MUL OR SWAP1 SSTORE POP PUSH1 0x20 DUP3 ADD MLOAD DUP2 PUSH1 0x1 ADD SSTORE PUSH1 0x40 DUP3 ADD MLOAD DUP2 PUSH1 0x2 ADD SSTORE SWAP1 POP POP POP POP POP POP POP POP POP PUSH1 0x0 DUP1 PUSH1 0x14 PUSH2 0x100 EXP DUP2 SLOAD DUP2 PUSH1 0xFF MUL NOT AND SWAP1 DUP4 ISZERO ISZERO MUL OR SWAP1 SSTORE POP JUMP JUMPDEST PUSH1 0x5 PUSH1 0x20 MSTORE DUP1 PUSH1 0x0 MSTORE PUSH1 0x40 PUSH1 0x0 KECCAK256 PUSH1 0x0 SWAP2 POP SWAP1 POP DUP1 PUSH1 0x0 ADD PUSH1 0x0 SWAP1 SLOAD SWAP1 PUSH2 0x100 EXP SWAP1 DIV PUSH20 0xFFFFFFFFFFFFFFFFFFFFFFFFFFFFFFFFFFFFFFFF AND SWAP1 DUP1 PUSH1 0x1 ADD SLOAD SWAP1 POP DUP3 JUMP JUMPDEST PUSH1 0x9 PUSH1 0x20 MSTORE DUP1 PUSH1 0x0 MSTORE PUSH1 0x40 PUSH1 0x0 KECCAK256 PUSH1 0x0 SWAP2 POP SWAP1 POP DUP1 PUSH1 0x0 ADD PUSH1 0x0 SWAP1 SLOAD SWAP1 PUSH2 0x100 EXP SWAP1 DIV PUSH20 0xFFFFFFFFFFFFFFFFFFFFFFFFFFFFFFFFFFFFFFFF AND SWAP1 DUP1 PUSH1 0x1 ADD SLOAD SWAP1 POP DUP3 JUMP JUMPDEST PUSH1 0x0 DUP1 PUSH1 0x0 SWAP1 SLOAD SWAP1 PUSH2 0x100 EXP SWAP1 DIV PUSH20 0xFFFFFFFFFFFFFFFFFFFFFFFFFFFFFFFFFFFFFFFF AND SWAP1 POP SWAP1 JUMP JUMPDEST PUSH1 0x2 PUSH1 0x0 SWAP1 SLOAD SWAP1 PUSH2 0x100 EXP SWAP1 DIV PUSH20 0xFFFFFFFFFFFFFFFFFFFFFFFFFFFFFFFFFFFFFFFF AND DUP2 JUMP JUMPDEST PUSH1 0x6 PUSH1 0x20 MSTORE DUP1 PUSH1 0x0 MSTORE PUSH1 0x40 PUSH1 0x0 KECCAK256 PUSH1 0x0 SWAP2 POP SWAP1 POP DUP1 PUSH1 0x0 ADD PUSH1 0x0 SWAP1 SLOAD SWAP1 PUSH2 0x100 EXP SWAP1 DIV PUSH20 0xFFFFFFFFFFFFFFFFFFFFFFFFFFFFFFFFFFFFFFFF AND SWAP1 DUP1 PUSH1 0x1 ADD SLOAD SWAP1 POP DUP3 JUMP JUMPDEST PUSH1 0x4 PUSH1 0x0 SWAP1 SLOAD SWAP1 PUSH2 0x100 EXP SWAP1 DIV PUSH20 0xFFFFFFFFFFFFFFFFFFFFFFFFFFFFFFFFFFFFFFFF AND DUP2 JUMP JUMPDEST PUSH1 0xB PUSH1 0x20 MSTORE DUP1 PUSH1 0x0 MSTORE PUSH1 0x40 PUSH1 0x0 KECCAK256 PUSH1 0x0 SWAP2 POP SWAP1 POP DUP1 PUSH1 0x0 ADD PUSH1 0x0 SWAP1 SLOAD SWAP1 PUSH2 0x100 EXP SWAP1 DIV PUSH20 0xFFFFFFFFFFFFFFFFFFFFFFFFFFFFFFFFFFFFFFFF AND SWAP1 DUP1 PUSH1 0x1 ADD SLOAD SWAP1 POP DUP3 JUMP JUMPDEST PUSH1 0x0 PUSH1 0x14 SWAP1 SLOAD SWAP1 PUSH2 0x100 EXP SWAP1 DIV PUSH1 0xFF AND ISZERO PUSH2 0x2586 JUMPI PUSH1 0x40 MLOAD PUSH32 0x8C379A000000000000000000000000000000000000000000000000000000000 DUP2 MSTORE PUSH1 0x4 ADD PUSH2 0x257D SWAP1 PUSH2 0x357C JUMP JUMPDEST PUSH1 0x40 MLOAD DUP1 SWAP2 SUB SWAP1 REVERT JUMPDEST PUSH1 0x1 PUSH1 0x0 PUSH1 0x14 PUSH2 0x100 EXP DUP2 SLOAD DUP2 PUSH1 0xFF MUL NOT AND SWAP1 DUP4 ISZERO ISZERO MUL OR SWAP1 SSTORE POP PUSH1 0x4 PUSH1 0x14 SWAP1 SLOAD SWAP1 PUSH2 0x100 EXP SWAP1 DIV PUSH1 0xFF AND PUSH2 0x25F0 JUMPI PUSH1 0x40 MLOAD PUSH32 0x8C379A000000000000000000000000000000000000000000000000000000000 DUP2 MSTORE PUSH1 0x4 ADD PUSH2 0x25E7 SWAP1 PUSH2 0x37D9 JUMP JUMPDEST PUSH1 0x40 MLOAD DUP1 SWAP2 SUB SWAP1 REVERT JUMPDEST PUSH1 0x0 PUSH1 0x5 PUSH1 0x0 CALLER PUSH20 0xFFFFFFFFFFFFFFFFFFFFFFFFFFFFFFFFFFFFFFFF AND PUSH20 0xFFFFFFFFFFFFFFFFFFFFFFFFFFFFFFFFFFFFFFFF AND DUP2 MSTORE PUSH1 0x20 ADD SWAP1 DUP2 MSTORE PUSH1 0x20 ADD PUSH1 0x0 KECCAK256 PUSH1 0x1 ADD SLOAD SWAP1 POP PUSH1 0x3 PUSH1 0x0 SWAP1 SLOAD SWAP1 PUSH2 0x100 EXP SWAP1 DIV PUSH20 0xFFFFFFFFFFFFFFFFFFFFFFFFFFFFFFFFFFFFFFFF AND PUSH20 0xFFFFFFFFFFFFFFFFFFFFFFFFFFFFFFFFFFFFFFFF AND PUSH4 0xA9059CBB CALLER DUP4 PUSH1 0x40 MLOAD DUP4 PUSH4 0xFFFFFFFF AND PUSH1 0xE0 SHL DUP2 MSTORE PUSH1 0x4 ADD PUSH2 0x2694 SWAP3 SWAP2 SWAP1 PUSH2 0x3327 JUMP JUMPDEST PUSH1 0x20 PUSH1 0x40 MLOAD DUP1 DUP4 SUB DUP2 PUSH1 0x0 DUP8 GAS CALL ISZERO DUP1 ISZERO PUSH2 0x26B3 JUMPI RETURNDATASIZE PUSH1 0x0 DUP1 RETURNDATACOPY RETURNDATASIZE PUSH1 0x0 REVERT JUMPDEST POP POP POP POP PUSH1 0x40 MLOAD RETURNDATASIZE PUSH1 0x1F NOT PUSH1 0x1F DUP3 ADD AND DUP3 ADD DUP1 PUSH1 0x40 MSTORE POP DUP2 ADD SWAP1 PUSH2 0x26D7 SWAP2 SWAP1 PUSH2 0x3760 JUMP JUMPDEST POP PUSH1 0x40 MLOAD DUP1 PUSH1 0x40 ADD PUSH1 0x40 MSTORE DUP1 CALLER PUSH20 0xFFFFFFFFFFFFFFFFFFFFFFFFFFFFFFFFFFFFFFFF AND DUP2 MSTORE PUSH1 0x20 ADD PUSH1 0x0 DUP2 MSTORE POP PUSH1 0x5 PUSH1 0x0 CALLER PUSH20 0xFFFFFFFFFFFFFFFFFFFFFFFFFFFFFFFFFFFFFFFF AND PUSH20 0xFFFFFFFFFFFFFFFFFFFFFFFFFFFFFFFFFFFFFFFF AND DUP2 MSTORE PUSH1 0x20 ADD SWAP1 DUP2 MSTORE PUSH1 0x20 ADD PUSH1 0x0 KECCAK256 PUSH1 0x0 DUP3 ADD MLOAD DUP2 PUSH1 0x0 ADD PUSH1 0x0 PUSH2 0x100 EXP DUP2 SLOAD DUP2 PUSH20 0xFFFFFFFFFFFFFFFFFFFFFFFFFFFFFFFFFFFFFFFF MUL NOT AND SWAP1 DUP4 PUSH20 0xFFFFFFFFFFFFFFFFFFFFFFFFFFFFFFFFFFFFFFFF AND MUL OR SWAP1 SSTORE POP PUSH1 0x20 DUP3 ADD MLOAD DUP2 PUSH1 0x1 ADD SSTORE SWAP1 POP POP PUSH1 0x0 PUSH1 0xC PUSH1 0x0 CALLER PUSH20 0xFFFFFFFFFFFFFFFFFFFFFFFFFFFFFFFFFFFFFFFF AND PUSH20 0xFFFFFFFFFFFFFFFFFFFFFFFFFFFFFFFFFFFFFFFF AND DUP2 MSTORE PUSH1 0x20 ADD SWAP1 DUP2 MSTORE PUSH1 0x20 ADD PUSH1 0x0 KECCAK256 PUSH1 0x1 ADD SLOAD SWAP1 POP PUSH1 0x0 PUSH2 0x27EA DUP4 DUP4 PUSH2 0x3112 JUMP JUMPDEST SWAP1 POP PUSH1 0x40 MLOAD DUP1 PUSH1 0x40 ADD PUSH1 0x40 MSTORE DUP1 CALLER PUSH20 0xFFFFFFFFFFFFFFFFFFFFFFFFFFFFFFFFFFFFFFFF AND DUP2 MSTORE PUSH1 0x20 ADD DUP3 DUP2 MSTORE POP PUSH1 0xC PUSH1 0x0 CALLER PUSH20 0xFFFFFFFFFFFFFFFFFFFFFFFFFFFFFFFFFFFFFFFF AND PUSH20 0xFFFFFFFFFFFFFFFFFFFFFFFFFFFFFFFFFFFFFFFF AND DUP2 MSTORE PUSH1 0x20 ADD SWAP1 DUP2 MSTORE PUSH1 0x20 ADD PUSH1 0x0 KECCAK256 PUSH1 0x0 DUP3 ADD MLOAD DUP2 PUSH1 0x0 ADD PUSH1 0x0 PUSH2 0x100 EXP DUP2 SLOAD DUP2 PUSH20 0xFFFFFFFFFFFFFFFFFFFFFFFFFFFFFFFFFFFFFFFF MUL NOT AND SWAP1 DUP4 PUSH20 0xFFFFFFFFFFFFFFFFFFFFFFFFFFFFFFFFFFFFFFFF AND MUL OR SWAP1 SSTORE POP PUSH1 0x20 DUP3 ADD MLOAD DUP2 PUSH1 0x1 ADD SSTORE SWAP1 POP POP POP POP POP PUSH1 0x0 DUP1 PUSH1 0x14 PUSH2 0x100 EXP DUP2 SLOAD DUP2 PUSH1 0xFF MUL NOT AND SWAP1 DUP4 ISZERO ISZERO MUL OR SWAP1 SSTORE POP JUMP JUMPDEST PUSH1 0x0 PUSH2 0x28E0 PUSH2 0x28D9 DUP4 PUSH1 0x2 PUSH2 0x30F4 JUMP JUMPDEST PUSH1 0x64 PUSH2 0x30DE JUMP JUMPDEST SWAP1 POP SWAP2 SWAP1 POP JUMP JUMPDEST PUSH1 0xC PUSH1 0x20 MSTORE DUP1 PUSH1 0x0 MSTORE PUSH1 0x40 PUSH1 0x0 KECCAK256 PUSH1 0x0 SWAP2 POP SWAP1 POP DUP1 PUSH1 0x0 ADD PUSH1 0x0 SWAP1 SLOAD SWAP1 PUSH2 0x100 EXP SWAP1 DIV PUSH20 0xFFFFFFFFFFFFFFFFFFFFFFFFFFFFFFFFFFFFFFFF AND SWAP1 DUP1 PUSH1 0x1 ADD SLOAD SWAP1 POP DUP3 JUMP JUMPDEST PUSH1 0x0 PUSH1 0x14 SWAP1 SLOAD SWAP1 PUSH2 0x100 EXP SWAP1 DIV PUSH1 0xFF AND ISZERO PUSH2 0x297B JUMPI PUSH1 0x40 MLOAD PUSH32 0x8C379A000000000000000000000000000000000000000000000000000000000 DUP2 MSTORE PUSH1 0x4 ADD PUSH2 0x2972 SWAP1 PUSH2 0x357C JUMP JUMPDEST PUSH1 0x40 MLOAD DUP1 SWAP2 SUB SWAP1 REVERT JUMPDEST PUSH1 0x1 PUSH1 0x0 PUSH1 0x14 PUSH2 0x100 EXP DUP2 SLOAD DUP2 PUSH1 0xFF MUL NOT AND SWAP1 DUP4 ISZERO ISZERO MUL OR SWAP1 SSTORE POP PUSH1 0x4 PUSH1 0x14 SWAP1 SLOAD SWAP1 PUSH2 0x100 EXP SWAP1 DIV PUSH1 0xFF AND PUSH2 0x29E5 JUMPI PUSH1 0x40 MLOAD PUSH32 0x8C379A000000000000000000000000000000000000000000000000000000000 DUP2 MSTORE PUSH1 0x4 ADD PUSH2 0x29DC SWAP1 PUSH2 0x37D9 JUMP JUMPDEST PUSH1 0x40 MLOAD DUP1 SWAP2 SUB SWAP1 REVERT JUMPDEST TIMESTAMP PUSH1 0x7 PUSH1 0x0 CALLER PUSH20 0xFFFFFFFFFFFFFFFFFFFFFFFFFFFFFFFFFFFFFFFF AND PUSH20 0xFFFFFFFFFFFFFFFFFFFFFFFFFFFFFFFFFFFFFFFF AND DUP2 MSTORE PUSH1 0x20 ADD SWAP1 DUP2 MSTORE PUSH1 0x20 ADD PUSH1 0x0 KECCAK256 PUSH1 0x2 ADD SLOAD GT ISZERO PUSH2 0x2A6A JUMPI PUSH1 0x40 MLOAD PUSH32 0x8C379A000000000000000000000000000000000000000000000000000000000 DUP2 MSTORE PUSH1 0x4 ADD PUSH2 0x2A61 SWAP1 PUSH2 0x39FB JUMP JUMPDEST PUSH1 0x40 MLOAD DUP1 SWAP2 SUB SWAP1 REVERT JUMPDEST PUSH2 0x2AB7 PUSH1 0x6 PUSH1 0x0 CALLER PUSH20 0xFFFFFFFFFFFFFFFFFFFFFFFFFFFFFFFFFFFFFFFF AND PUSH20 0xFFFFFFFFFFFFFFFFFFFFFFFFFFFFFFFFFFFFFFFF AND DUP2 MSTORE PUSH1 0x20 ADD SWAP1 DUP2 MSTORE PUSH1 0x20 ADD PUSH1 0x0 KECCAK256 PUSH1 0x1 ADD SLOAD PUSH1 0x5 PUSH2 0x30F4 JUMP JUMPDEST PUSH1 0xB PUSH1 0x0 CALLER PUSH20 0xFFFFFFFFFFFFFFFFFFFFFFFFFFFFFFFFFFFFFFFF AND PUSH20 0xFFFFFFFFFFFFFFFFFFFFFFFFFFFFFFFFFFFFFFFF AND DUP2 MSTORE PUSH1 0x20 ADD SWAP1 DUP2 MSTORE PUSH1 0x20 ADD PUSH1 0x0 KECCAK256 PUSH1 0x1 ADD SLOAD GT ISZERO PUSH2 0x2B3B JUMPI PUSH1 0x40 MLOAD PUSH32 0x8C379A000000000000000000000000000000000000000000000000000000000 DUP2 MSTORE PUSH1 0x4 ADD PUSH2 0x2B32 SWAP1 PUSH2 0x3A8D JUMP JUMPDEST PUSH1 0x40 MLOAD DUP1 SWAP2 SUB SWAP1 REVERT JUMPDEST PUSH1 0x0 PUSH1 0x9 PUSH1 0x0 CALLER PUSH20 0xFFFFFFFFFFFFFFFFFFFFFFFFFFFFFFFFFFFFFFFF AND PUSH20 0xFFFFFFFFFFFFFFFFFFFFFFFFFFFFFFFFFFFFFFFF AND DUP2 MSTORE PUSH1 0x20 ADD SWAP1 DUP2 MSTORE PUSH1 0x20 ADD PUSH1 0x0 KECCAK256 PUSH1 0x1 ADD SLOAD SWAP1 POP PUSH1 0x0 PUSH2 0x2B8F DUP3 PUSH1 0x2 PUSH2 0x30DE JUMP JUMPDEST SWAP1 POP PUSH1 0x0 PUSH2 0x2B9C DUP3 PUSH2 0x28C9 JUMP JUMPDEST SWAP1 POP PUSH1 0x0 PUSH2 0x2BAA DUP4 DUP4 PUSH2 0x30C8 JUMP JUMPDEST SWAP1 POP PUSH1 0x3 PUSH1 0x0 SWAP1 SLOAD SWAP1 PUSH2 0x100 EXP SWAP1 DIV PUSH20 0xFFFFFFFFFFFFFFFFFFFFFFFFFFFFFFFFFFFFFFFF AND PUSH20 0xFFFFFFFFFFFFFFFFFFFFFFFFFFFFFFFFFFFFFFFF AND PUSH4 0xA9059CBB CALLER DUP4 PUSH1 0x40 MLOAD DUP4 PUSH4 0xFFFFFFFF AND PUSH1 0xE0 SHL DUP2 MSTORE PUSH1 0x4 ADD PUSH2 0x2C09 SWAP3 SWAP2 SWAP1 PUSH2 0x3327 JUMP JUMPDEST PUSH1 0x20 PUSH1 0x40 MLOAD DUP1 DUP4 SUB DUP2 PUSH1 0x0 DUP8 GAS CALL ISZERO DUP1 ISZERO PUSH2 0x2C28 JUMPI RETURNDATASIZE PUSH1 0x0 DUP1 RETURNDATACOPY RETURNDATASIZE PUSH1 0x0 REVERT JUMPDEST POP POP POP POP PUSH1 0x40 MLOAD RETURNDATASIZE PUSH1 0x1F NOT PUSH1 0x1F DUP3 ADD AND DUP3 ADD DUP1 PUSH1 0x40 MSTORE POP DUP2 ADD SWAP1 PUSH2 0x2C4C SWAP2 SWAP1 PUSH2 0x3760 JUMP JUMPDEST POP PUSH1 0x3 PUSH1 0x0 SWAP1 SLOAD SWAP1 PUSH2 0x100 EXP SWAP1 DIV PUSH20 0xFFFFFFFFFFFFFFFFFFFFFFFFFFFFFFFFFFFFFFFF AND PUSH20 0xFFFFFFFFFFFFFFFFFFFFFFFFFFFFFFFFFFFFFFFF AND PUSH4 0xA9059CBB PUSH1 0x2 PUSH1 0x0 SWAP1 SLOAD SWAP1 PUSH2 0x100 EXP SWAP1 DIV PUSH20 0xFFFFFFFFFFFFFFFFFFFFFFFFFFFFFFFFFFFFFFFF AND DUP5 PUSH1 0x40 MLOAD DUP4 PUSH4 0xFFFFFFFF AND PUSH1 0xE0 SHL DUP2 MSTORE PUSH1 0x4 ADD PUSH2 0x2CCC SWAP3 SWAP2 SWAP1 PUSH2 0x3327 JUMP JUMPDEST PUSH1 0x20 PUSH1 0x40 MLOAD DUP1 DUP4 SUB DUP2 PUSH1 0x0 DUP8 GAS CALL ISZERO DUP1 ISZERO PUSH2 0x2CEB JUMPI RETURNDATASIZE PUSH1 0x0 DUP1 RETURNDATACOPY RETURNDATASIZE PUSH1 0x0 REVERT JUMPDEST POP POP POP POP PUSH1 0x40 MLOAD RETURNDATASIZE PUSH1 0x1F NOT PUSH1 0x1F DUP3 ADD AND DUP3 ADD DUP1 PUSH1 0x40 MSTORE POP DUP2 ADD SWAP1 PUSH2 0x2D0F SWAP2 SWAP1 PUSH2 0x3760 JUMP JUMPDEST POP PUSH1 0x40 MLOAD DUP1 PUSH1 0x40 ADD PUSH1 0x40 MSTORE DUP1 CALLER PUSH20 0xFFFFFFFFFFFFFFFFFFFFFFFFFFFFFFFFFFFFFFFF AND DUP2 MSTORE PUSH1 0x20 ADD DUP5 DUP2 MSTORE POP PUSH1 0x9 PUSH1 0x0 CALLER PUSH20 0xFFFFFFFFFFFFFFFFFFFFFFFFFFFFFFFFFFFFFFFF AND PUSH20 0xFFFFFFFFFFFFFFFFFFFFFFFFFFFFFFFFFFFFFFFF AND DUP2 MSTORE PUSH1 0x20 ADD SWAP1 DUP2 MSTORE PUSH1 0x20 ADD PUSH1 0x0 KECCAK256 PUSH1 0x0 DUP3 ADD MLOAD DUP2 PUSH1 0x0 ADD PUSH1 0x0 PUSH2 0x100 EXP DUP2 SLOAD DUP2 PUSH20 0xFFFFFFFFFFFFFFFFFFFFFFFFFFFFFFFFFFFFFFFF MUL NOT AND SWAP1 DUP4 PUSH20 0xFFFFFFFFFFFFFFFFFFFFFFFFFFFFFFFFFFFFFFFF AND MUL OR SWAP1 SSTORE POP PUSH1 0x20 DUP3 ADD MLOAD DUP2 PUSH1 0x1 ADD SSTORE SWAP1 POP POP PUSH1 0x0 TIMESTAMP SWAP1 POP PUSH1 0x0 PUSH3 0x93A80 TIMESTAMP PUSH2 0x2DE4 SWAP2 SWAP1 PUSH2 0x36C9 JUMP JUMPDEST SWAP1 POP PUSH1 0x40 MLOAD DUP1 PUSH1 0x60 ADD PUSH1 0x40 MSTORE DUP1 CALLER PUSH20 0xFFFFFFFFFFFFFFFFFFFFFFFFFFFFFFFFFFFFFFFF AND DUP2 MSTORE PUSH1 0x20 ADD DUP4 DUP2 MSTORE PUSH1 0x20 ADD DUP3 DUP2 MSTORE POP PUSH1 0x7 PUSH1 0x0 CALLER PUSH20 0xFFFFFFFFFFFFFFFFFFFFFFFFFFFFFFFFFFFFFFFF AND PUSH20 0xFFFFFFFFFFFFFFFFFFFFFFFFFFFFFFFFFFFFFFFF AND DUP2 MSTORE PUSH1 0x20 ADD SWAP1 DUP2 MSTORE PUSH1 0x20 ADD PUSH1 0x0 KECCAK256 PUSH1 0x0 DUP3 ADD MLOAD DUP2 PUSH1 0x0 ADD PUSH1 0x0 PUSH2 0x100 EXP DUP2 SLOAD DUP2 PUSH20 0xFFFFFFFFFFFFFFFFFFFFFFFFFFFFFFFFFFFFFFFF MUL NOT AND SWAP1 DUP4 PUSH20 0xFFFFFFFFFFFFFFFFFFFFFFFFFFFFFFFFFFFFFFFF AND MUL OR SWAP1 SSTORE POP PUSH1 0x20 DUP3 ADD MLOAD DUP2 PUSH1 0x1 ADD SSTORE PUSH1 0x40 DUP3 ADD MLOAD DUP2 PUSH1 0x2 ADD SSTORE SWAP1 POP POP PUSH1 0x0 PUSH1 0xA PUSH1 0x0 CALLER PUSH20 0xFFFFFFFFFFFFFFFFFFFFFFFFFFFFFFFFFFFFFFFF AND PUSH20 0xFFFFFFFFFFFFFFFFFFFFFFFFFFFFFFFFFFFFFFFF AND DUP2 MSTORE PUSH1 0x20 ADD SWAP1 DUP2 MSTORE PUSH1 0x20 ADD PUSH1 0x0 KECCAK256 PUSH1 0x1 ADD SLOAD SWAP1 POP PUSH1 0x0 PUSH2 0x2F07 DUP3 DUP9 PUSH2 0x3112 JUMP JUMPDEST SWAP1 POP PUSH1 0x40 MLOAD DUP1 PUSH1 0x40 ADD PUSH1 0x40 MSTORE DUP1 CALLER PUSH20 0xFFFFFFFFFFFFFFFFFFFFFFFFFFFFFFFFFFFFFFFF AND DUP2 MSTORE PUSH1 0x20 ADD DUP3 DUP2 MSTORE POP PUSH1 0xA PUSH1 0x0 CALLER PUSH20 0xFFFFFFFFFFFFFFFFFFFFFFFFFFFFFFFFFFFFFFFF AND PUSH20 0xFFFFFFFFFFFFFFFFFFFFFFFFFFFFFFFFFFFFFFFF AND DUP2 MSTORE PUSH1 0x20 ADD SWAP1 DUP2 MSTORE PUSH1 0x20 ADD PUSH1 0x0 KECCAK256 PUSH1 0x0 DUP3 ADD MLOAD DUP2 PUSH1 0x0 ADD PUSH1 0x0 PUSH2 0x100 EXP DUP2 SLOAD DUP2 PUSH20 0xFFFFFFFFFFFFFFFFFFFFFFFFFFFFFFFFFFFFFFFF MUL NOT AND SWAP1 DUP4 PUSH20 0xFFFFFFFFFFFFFFFFFFFFFFFFFFFFFFFFFFFFFFFF AND MUL OR SWAP1 SSTORE POP PUSH1 0x20 DUP3 ADD MLOAD DUP2 PUSH1 0x1 ADD SSTORE SWAP1 POP POP POP POP POP POP POP POP POP POP PUSH1 0x0 DUP1 PUSH1 0x14 PUSH2 0x100 EXP DUP2 SLOAD DUP2 PUSH1 0xFF MUL NOT AND SWAP1 DUP4 ISZERO ISZERO MUL OR SWAP1 SSTORE POP JUMP JUMPDEST PUSH1 0x2 DUP2 JUMP JUMPDEST PUSH1 0x1 DUP2 JUMP JUMPDEST PUSH1 0x4 PUSH1 0x14 SWAP1 SLOAD SWAP1 PUSH2 0x100 EXP SWAP1 DIV PUSH1 0xFF AND DUP2 JUMP JUMPDEST PUSH1 0x4 PUSH1 0x15 SWAP1 SLOAD SWAP1 PUSH2 0x100 EXP SWAP1 DIV PUSH1 0xFF AND DUP2 JUMP JUMPDEST PUSH2 0x3023 PUSH2 0x310A JUMP JUMPDEST PUSH20 0xFFFFFFFFFFFFFFFFFFFFFFFFFFFFFFFFFFFFFFFF AND PUSH1 0x0 DUP1 SLOAD SWAP1 PUSH2 0x100 EXP SWAP1 DIV PUSH20 0xFFFFFFFFFFFFFFFFFFFFFFFFFFFFFFFFFFFFFFFF AND PUSH20 0xFFFFFFFFFFFFFFFFFFFFFFFFFFFFFFFFFFFFFFFF AND EQ PUSH2 0x30B0 JUMPI PUSH1 0x40 MLOAD PUSH32 0x8C379A000000000000000000000000000000000000000000000000000000000 DUP2 MSTORE PUSH1 0x4 ADD PUSH2 0x30A7 SWAP1 PUSH2 0x3510 JUMP JUMPDEST PUSH1 0x40 MLOAD DUP1 SWAP2 SUB SWAP1 REVERT JUMPDEST PUSH2 0x30B9 DUP2 PUSH2 0x3128 JUMP JUMPDEST POP JUMP JUMPDEST PUSH8 0x8AC7230489E80000 DUP2 JUMP JUMPDEST PUSH1 0x0 DUP2 DUP4 PUSH2 0x30D6 SWAP2 SWAP1 PUSH2 0x3AAD JUMP JUMPDEST SWAP1 POP SWAP3 SWAP2 POP POP JUMP JUMPDEST PUSH1 0x0 DUP2 DUP4 PUSH2 0x30EC SWAP2 SWAP1 PUSH2 0x3B10 JUMP JUMPDEST SWAP1 POP SWAP3 SWAP2 POP POP JUMP JUMPDEST PUSH1 0x0 DUP2 DUP4 PUSH2 0x3102 SWAP2 SWAP1 PUSH2 0x3B41 JUMP JUMPDEST SWAP1 POP SWAP3 SWAP2 POP POP JUMP JUMPDEST PUSH1 0x0 CALLER SWAP1 POP SWAP1 JUMP JUMPDEST PUSH1 0x0 DUP2 DUP4 PUSH2 0x3120 SWAP2 SWAP1 PUSH2 0x36C9 JUMP JUMPDEST SWAP1 POP SWAP3 SWAP2 POP POP JUMP JUMPDEST PUSH1 0x0 PUSH20 0xFFFFFFFFFFFFFFFFFFFFFFFFFFFFFFFFFFFFFFFF AND DUP2 PUSH20 0xFFFFFFFFFFFFFFFFFFFFFFFFFFFFFFFFFFFFFFFF AND SUB PUSH2 0x3197 JUMPI PUSH1 0x40 MLOAD PUSH32 0x8C379A000000000000000000000000000000000000000000000000000000000 DUP2 MSTORE PUSH1 0x4 ADD PUSH2 0x318E SWAP1 PUSH2 0x3C0D JUMP JUMPDEST PUSH1 0x40 MLOAD DUP1 SWAP2 SUB SWAP1 REVERT JUMPDEST DUP1 PUSH20 0xFFFFFFFFFFFFFFFFFFFFFFFFFFFFFFFFFFFFFFFF AND PUSH1 0x0 DUP1 SLOAD SWAP1 PUSH2 0x100 EXP SWAP1 DIV PUSH20 0xFFFFFFFFFFFFFFFFFFFFFFFFFFFFFFFFFFFFFFFF AND PUSH20 0xFFFFFFFFFFFFFFFFFFFFFFFFFFFFFFFFFFFFFFFF AND PUSH32 0x8BE0079C531659141344CD1FD0A4F28419497F9722A3DAAFE3B4186F6B6457E0 PUSH1 0x40 MLOAD PUSH1 0x40 MLOAD DUP1 SWAP2 SUB SWAP1 LOG3 DUP1 PUSH1 0x0 DUP1 PUSH2 0x100 EXP DUP2 SLOAD DUP2 PUSH20 0xFFFFFFFFFFFFFFFFFFFFFFFFFFFFFFFFFFFFFFFF MUL NOT AND SWAP1 DUP4 PUSH20 0xFFFFFFFFFFFFFFFFFFFFFFFFFFFFFFFFFFFFFFFF AND MUL OR SWAP1 SSTORE POP POP JUMP JUMPDEST PUSH1 0x0 DUP1 REVERT JUMPDEST PUSH1 0x0 PUSH20 0xFFFFFFFFFFFFFFFFFFFFFFFFFFFFFFFFFFFFFFFF DUP3 AND SWAP1 POP SWAP2 SWAP1 POP JUMP JUMPDEST PUSH1 0x0 PUSH2 0x3284 DUP3 PUSH2 0x3259 JUMP JUMPDEST SWAP1 POP SWAP2 SWAP1 POP JUMP JUMPDEST PUSH2 0x3294 DUP2 PUSH2 0x3279 JUMP JUMPDEST DUP2 EQ PUSH2 0x329F JUMPI PUSH1 0x0 DUP1 REVERT JUMPDEST POP JUMP JUMPDEST PUSH1 0x0 DUP2 CALLDATALOAD SWAP1 POP PUSH2 0x32B1 DUP2 PUSH2 0x328B JUMP JUMPDEST SWAP3 SWAP2 POP POP JUMP JUMPDEST PUSH1 0x0 PUSH1 0x20 DUP3 DUP5 SUB SLT ISZERO PUSH2 0x32CD JUMPI PUSH2 0x32CC PUSH2 0x3254 JUMP JUMPDEST JUMPDEST PUSH1 0x0 PUSH2 0x32DB DUP5 DUP3 DUP6 ADD PUSH2 0x32A2 JUMP JUMPDEST SWAP2 POP POP SWAP3 SWAP2 POP POP JUMP JUMPDEST PUSH1 0x0 DUP2 SWAP1 POP SWAP2 SWAP1 POP JUMP JUMPDEST PUSH2 0x32F7 DUP2 PUSH2 0x32E4 JUMP JUMPDEST DUP3 MSTORE POP POP JUMP JUMPDEST PUSH1 0x0 PUSH1 0x20 DUP3 ADD SWAP1 POP PUSH2 0x3312 PUSH1 0x0 DUP4 ADD DUP5 PUSH2 0x32EE JUMP JUMPDEST SWAP3 SWAP2 POP POP JUMP JUMPDEST PUSH2 0x3321 DUP2 PUSH2 0x3279 JUMP JUMPDEST DUP3 MSTORE POP POP JUMP JUMPDEST PUSH1 0x0 PUSH1 0x40 DUP3 ADD SWAP1 POP PUSH2 0x333C PUSH1 0x0 DUP4 ADD DUP6 PUSH2 0x3318 JUMP JUMPDEST PUSH2 0x3349 PUSH1 0x20 DUP4 ADD DUP5 PUSH2 0x32EE JUMP JUMPDEST SWAP4 SWAP3 POP POP POP JUMP JUMPDEST PUSH1 0x0 DUP2 ISZERO ISZERO SWAP1 POP SWAP2 SWAP1 POP JUMP JUMPDEST PUSH2 0x3365 DUP2 PUSH2 0x3350 JUMP JUMPDEST DUP3 MSTORE POP POP JUMP JUMPDEST PUSH1 0x0 PUSH1 0x20 DUP3 ADD SWAP1 POP PUSH2 0x3380 PUSH1 0x0 DUP4 ADD DUP5 PUSH2 0x335C JUMP JUMPDEST SWAP3 SWAP2 POP POP JUMP JUMPDEST PUSH2 0x338F DUP2 PUSH2 0x32E4 JUMP JUMPDEST DUP2 EQ PUSH2 0x339A JUMPI PUSH1 0x0 DUP1 REVERT JUMPDEST POP JUMP JUMPDEST PUSH1 0x0 DUP2 CALLDATALOAD SWAP1 POP PUSH2 0x33AC DUP2 PUSH2 0x3386 JUMP JUMPDEST SWAP3 SWAP2 POP POP JUMP JUMPDEST PUSH1 0x0 PUSH1 0x20 DUP3 DUP5 SUB SLT ISZERO PUSH2 0x33C8 JUMPI PUSH2 0x33C7 PUSH2 0x3254 JUMP JUMPDEST JUMPDEST PUSH1 0x0 PUSH2 0x33D6 DUP5 DUP3 DUP6 ADD PUSH2 0x339D JUMP JUMPDEST SWAP2 POP POP SWAP3 SWAP2 POP POP JUMP JUMPDEST PUSH1 0x0 PUSH1 0x60 DUP3 ADD SWAP1 POP PUSH2 0x33F4 PUSH1 0x0 DUP4 ADD DUP7 PUSH2 0x3318 JUMP JUMPDEST PUSH2 0x3401 PUSH1 0x20 DUP4 ADD DUP6 PUSH2 0x32EE JUMP JUMPDEST PUSH2 0x340E PUSH1 0x40 DUP4 ADD DUP5 PUSH2 0x32EE JUMP JUMPDEST SWAP5 SWAP4 POP POP POP POP JUMP JUMPDEST PUSH1 0x0 DUP1 PUSH1 0x40 DUP4 DUP6 SUB SLT ISZERO PUSH2 0x342D JUMPI PUSH2 0x342C PUSH2 0x3254 JUMP JUMPDEST JUMPDEST PUSH1 0x0 PUSH2 0x343B DUP6 DUP3 DUP7 ADD PUSH2 0x32A2 JUMP JUMPDEST SWAP3 POP POP PUSH1 0x20 PUSH2 0x344C DUP6 DUP3 DUP7 ADD PUSH2 0x339D JUMP JUMPDEST SWAP2 POP POP SWAP3 POP SWAP3 SWAP1 POP JUMP JUMPDEST PUSH1 0x0 PUSH1 0x20 DUP3 ADD SWAP1 POP PUSH2 0x346B PUSH1 0x0 DUP4 ADD DUP5 PUSH2 0x3318 JUMP JUMPDEST SWAP3 SWAP2 POP POP JUMP JUMPDEST PUSH1 0x0 DUP2 MLOAD SWAP1 POP PUSH2 0x3480 DUP2 PUSH2 0x3386 JUMP JUMPDEST SWAP3 SWAP2 POP POP JUMP JUMPDEST PUSH1 0x0 PUSH1 0x20 DUP3 DUP5 SUB SLT ISZERO PUSH2 0x349C JUMPI PUSH2 0x349B PUSH2 0x3254 JUMP JUMPDEST JUMPDEST PUSH1 0x0 PUSH2 0x34AA DUP5 DUP3 DUP6 ADD PUSH2 0x3471 JUMP JUMPDEST SWAP2 POP POP SWAP3 SWAP2 POP POP JUMP JUMPDEST PUSH1 0x0 DUP3 DUP3 MSTORE PUSH1 0x20 DUP3 ADD SWAP1 POP SWAP3 SWAP2 POP POP JUMP JUMPDEST PUSH32 0x4F776E61626C653A2063616C6C6572206973206E6F7420746865206F776E6572 PUSH1 0x0 DUP3 ADD MSTORE POP JUMP JUMPDEST PUSH1 0x0 PUSH2 0x34FA PUSH1 0x20 DUP4 PUSH2 0x34B3 JUMP JUMPDEST SWAP2 POP PUSH2 0x3505 DUP3 PUSH2 0x34C4 JUMP JUMPDEST PUSH1 0x20 DUP3 ADD SWAP1 POP SWAP2 SWAP1 POP JUMP JUMPDEST PUSH1 0x0 PUSH1 0x20 DUP3 ADD SWAP1 POP DUP2 DUP2 SUB PUSH1 0x0 DUP4 ADD MSTORE PUSH2 0x3529 DUP2 PUSH2 0x34ED JUMP JUMPDEST SWAP1 POP SWAP2 SWAP1 POP JUMP JUMPDEST PUSH32 0x4E6F2072652D656E7472616E6379000000000000000000000000000000000000 PUSH1 0x0 DUP3 ADD MSTORE POP JUMP JUMPDEST PUSH1 0x0 PUSH2 0x3566 PUSH1 0xE DUP4 PUSH2 0x34B3 JUMP JUMPDEST SWAP2 POP PUSH2 0x3571 DUP3 PUSH2 0x3530 JUMP JUMPDEST PUSH1 0x20 DUP3 ADD SWAP1 POP SWAP2 SWAP1 POP JUMP JUMPDEST PUSH1 0x0 PUSH1 0x20 DUP3 ADD SWAP1 POP DUP2 DUP2 SUB PUSH1 0x0 DUP4 ADD MSTORE PUSH2 0x3595 DUP2 PUSH2 0x3559 JUMP JUMPDEST SWAP1 POP SWAP2 SWAP1 POP JUMP JUMPDEST PUSH32 0x546865207365727669636520686173206E6F7420737461727465642079657400 PUSH1 0x0 DUP3 ADD MSTORE POP JUMP JUMPDEST PUSH1 0x0 PUSH2 0x35D2 PUSH1 0x1F DUP4 PUSH2 0x34B3 JUMP JUMPDEST SWAP2 POP PUSH2 0x35DD DUP3 PUSH2 0x359C JUMP JUMPDEST PUSH1 0x20 DUP3 ADD SWAP1 POP SWAP2 SWAP1 POP JUMP JUMPDEST PUSH1 0x0 PUSH1 0x20 DUP3 ADD SWAP1 POP DUP2 DUP2 SUB PUSH1 0x0 DUP4 ADD MSTORE PUSH2 0x3601 DUP2 PUSH2 0x35C5 JUMP JUMPDEST SWAP1 POP SWAP2 SWAP1 POP JUMP JUMPDEST PUSH32 0x54686520616D6F756E7420696E73657274656420697320656974686572206265 PUSH1 0x0 DUP3 ADD MSTORE PUSH32 0x6C6F77206D696E696D756D206F722061626F7665206D6178696D756D00000000 PUSH1 0x20 DUP3 ADD MSTORE POP JUMP JUMPDEST PUSH1 0x0 PUSH2 0x3664 PUSH1 0x3C DUP4 PUSH2 0x34B3 JUMP JUMPDEST SWAP2 POP PUSH2 0x366F DUP3 PUSH2 0x3608 JUMP JUMPDEST PUSH1 0x40 DUP3 ADD SWAP1 POP SWAP2 SWAP1 POP JUMP JUMPDEST PUSH1 0x0 PUSH1 0x20 DUP3 ADD SWAP1 POP DUP2 DUP2 SUB PUSH1 0x0 DUP4 ADD MSTORE PUSH2 0x3693 DUP2 PUSH2 0x3657 JUMP JUMPDEST SWAP1 POP SWAP2 SWAP1 POP JUMP JUMPDEST PUSH32 0x4E487B7100000000000000000000000000000000000000000000000000000000 PUSH1 0x0 MSTORE PUSH1 0x11 PUSH1 0x4 MSTORE PUSH1 0x24 PUSH1 0x0 REVERT JUMPDEST PUSH1 0x0 PUSH2 0x36D4 DUP3 PUSH2 0x32E4 JUMP JUMPDEST SWAP2 POP PUSH2 0x36DF DUP4 PUSH2 0x32E4 JUMP JUMPDEST SWAP3 POP DUP3 DUP3 ADD SWAP1 POP DUP1 DUP3 GT ISZERO PUSH2 0x36F7 JUMPI PUSH2 0x36F6 PUSH2 0x369A JUMP JUMPDEST JUMPDEST SWAP3 SWAP2 POP POP JUMP JUMPDEST PUSH1 0x0 PUSH1 0x60 DUP3 ADD SWAP1 POP PUSH2 0x3712 PUSH1 0x0 DUP4 ADD DUP7 PUSH2 0x3318 JUMP JUMPDEST PUSH2 0x371F PUSH1 0x20 DUP4 ADD DUP6 PUSH2 0x3318 JUMP JUMPDEST PUSH2 0x372C PUSH1 0x40 DUP4 ADD DUP5 PUSH2 0x32EE JUMP JUMPDEST SWAP5 SWAP4 POP POP POP POP JUMP JUMPDEST PUSH2 0x373D DUP2 PUSH2 0x3350 JUMP JUMPDEST DUP2 EQ PUSH2 0x3748 JUMPI PUSH1 0x0 DUP1 REVERT JUMPDEST POP JUMP JUMPDEST PUSH1 0x0 DUP2 MLOAD SWAP1 POP PUSH2 0x375A DUP2 PUSH2 0x3734 JUMP JUMPDEST SWAP3 SWAP2 POP POP JUMP JUMPDEST PUSH1 0x0 PUSH1 0x20 DUP3 DUP5 SUB SLT ISZERO PUSH2 0x3776 JUMPI PUSH2 0x3775 PUSH2 0x3254 JUMP JUMPDEST JUMPDEST PUSH1 0x0 PUSH2 0x3784 DUP5 DUP3 DUP6 ADD PUSH2 0x374B JUMP JUMPDEST SWAP2 POP POP SWAP3 SWAP2 POP POP JUMP JUMPDEST PUSH32 0x436F6E7472616374206E6F742061637469766520796574000000000000000000 PUSH1 0x0 DUP3 ADD MSTORE POP JUMP JUMPDEST PUSH1 0x0 PUSH2 0x37C3 PUSH1 0x17 DUP4 PUSH2 0x34B3 JUMP JUMPDEST SWAP2 POP PUSH2 0x37CE DUP3 PUSH2 0x378D JUMP JUMPDEST PUSH1 0x20 DUP3 ADD SWAP1 POP SWAP2 SWAP1 POP JUMP JUMPDEST PUSH1 0x0 PUSH1 0x20 DUP3 ADD SWAP1 POP DUP2 DUP2 SUB PUSH1 0x0 DUP4 ADD MSTORE PUSH2 0x37F2 DUP2 PUSH2 0x37B6 JUMP JUMPDEST SWAP1 POP SWAP2 SWAP1 POP JUMP JUMPDEST PUSH32 0x596F7520616C7265616479207769746864726577206D6F7265207468616E2074 PUSH1 0x0 DUP3 ADD MSTORE PUSH32 0x686520616D6F756E7420796F75206465706F7369746564000000000000000000 PUSH1 0x20 DUP3 ADD MSTORE POP JUMP JUMPDEST PUSH1 0x0 PUSH2 0x3855 PUSH1 0x37 DUP4 PUSH2 0x34B3 JUMP JUMPDEST SWAP2 POP PUSH2 0x3860 DUP3 PUSH2 0x37F9 JUMP JUMPDEST PUSH1 0x40 DUP3 ADD SWAP1 POP SWAP2 SWAP1 POP JUMP JUMPDEST PUSH1 0x0 PUSH1 0x20 DUP3 ADD SWAP1 POP DUP2 DUP2 SUB PUSH1 0x0 DUP4 ADD MSTORE PUSH2 0x3884 DUP2 PUSH2 0x3848 JUMP JUMPDEST SWAP1 POP SWAP2 SWAP1 POP JUMP JUMPDEST PUSH32 0x4E6F742053746172746564205965740000000000000000000000000000000000 PUSH1 0x0 DUP3 ADD MSTORE POP JUMP JUMPDEST PUSH1 0x0 PUSH2 0x38C1 PUSH1 0xF DUP4 PUSH2 0x34B3 JUMP JUMPDEST SWAP2 POP PUSH2 0x38CC DUP3 PUSH2 0x388B JUMP JUMPDEST PUSH1 0x20 DUP3 ADD SWAP1 POP SWAP2 SWAP1 POP JUMP JUMPDEST PUSH1 0x0 PUSH1 0x20 DUP3 ADD SWAP1 POP DUP2 DUP2 SUB PUSH1 0x0 DUP4 ADD MSTORE PUSH2 0x38F0 DUP2 PUSH2 0x38B4 JUMP JUMPDEST SWAP1 POP SWAP2 SWAP1 POP JUMP JUMPDEST PUSH32 0x4974206973206E6F742079657420746865206461696C79206D6F6D656E742074 PUSH1 0x0 DUP3 ADD MSTORE PUSH32 0x6F20636C61696D00000000000000000000000000000000000000000000000000 PUSH1 0x20 DUP3 ADD MSTORE POP JUMP JUMPDEST PUSH1 0x0 PUSH2 0x3953 PUSH1 0x27 DUP4 PUSH2 0x34B3 JUMP JUMPDEST SWAP2 POP PUSH2 0x395E DUP3 PUSH2 0x38F7 JUMP JUMPDEST PUSH1 0x40 DUP3 ADD SWAP1 POP SWAP2 SWAP1 POP JUMP JUMPDEST PUSH1 0x0 PUSH1 0x20 DUP3 ADD SWAP1 POP DUP2 DUP2 SUB PUSH1 0x0 DUP4 ADD MSTORE PUSH2 0x3982 DUP2 PUSH2 0x3946 JUMP JUMPDEST SWAP1 POP SWAP2 SWAP1 POP JUMP JUMPDEST PUSH32 0x4974206973206E6F742079657420746865207765656B6C79206D6F6D656E7420 PUSH1 0x0 DUP3 ADD MSTORE PUSH32 0x746F207769746864726177000000000000000000000000000000000000000000 PUSH1 0x20 DUP3 ADD MSTORE POP JUMP JUMPDEST PUSH1 0x0 PUSH2 0x39E5 PUSH1 0x2B DUP4 PUSH2 0x34B3 JUMP JUMPDEST SWAP2 POP PUSH2 0x39F0 DUP3 PUSH2 0x3989 JUMP JUMPDEST PUSH1 0x40 DUP3 ADD SWAP1 POP SWAP2 SWAP1 POP JUMP JUMPDEST PUSH1 0x0 PUSH1 0x20 DUP3 ADD SWAP1 POP DUP2 DUP2 SUB PUSH1 0x0 DUP4 ADD MSTORE PUSH2 0x3A14 DUP2 PUSH2 0x39D8 JUMP JUMPDEST SWAP1 POP SWAP2 SWAP1 POP JUMP JUMPDEST PUSH32 0x596F757220357820696E766573746D656E74206379636C6520697320636F6D70 PUSH1 0x0 DUP3 ADD MSTORE PUSH32 0x6C65746564000000000000000000000000000000000000000000000000000000 PUSH1 0x20 DUP3 ADD MSTORE POP JUMP JUMPDEST PUSH1 0x0 PUSH2 0x3A77 PUSH1 0x25 DUP4 PUSH2 0x34B3 JUMP JUMPDEST SWAP2 POP PUSH2 0x3A82 DUP3 PUSH2 0x3A1B JUMP JUMPDEST PUSH1 0x40 DUP3 ADD SWAP1 POP SWAP2 SWAP1 POP JUMP JUMPDEST PUSH1 0x0 PUSH1 0x20 DUP3 ADD SWAP1 POP DUP2 DUP2 SUB PUSH1 0x0 DUP4 ADD MSTORE PUSH2 0x3AA6 DUP2 PUSH2 0x3A6A JUMP JUMPDEST SWAP1 POP SWAP2 SWAP1 POP JUMP JUMPDEST PUSH1 0x0 PUSH2 0x3AB8 DUP3 PUSH2 0x32E4 JUMP JUMPDEST SWAP2 POP PUSH2 0x3AC3 DUP4 PUSH2 0x32E4 JUMP JUMPDEST SWAP3 POP DUP3 DUP3 SUB SWAP1 POP DUP2 DUP2 GT ISZERO PUSH2 0x3ADB JUMPI PUSH2 0x3ADA PUSH2 0x369A JUMP JUMPDEST JUMPDEST SWAP3 SWAP2 POP POP JUMP JUMPDEST PUSH32 0x4E487B7100000000000000000000000000000000000000000000000000000000 PUSH1 0x0 MSTORE PUSH1 0x12 PUSH1 0x4 MSTORE PUSH1 0x24 PUSH1 0x0 REVERT JUMPDEST PUSH1 0x0 PUSH2 0x3B1B DUP3 PUSH2 0x32E4 JUMP JUMPDEST SWAP2 POP PUSH2 0x3B26 DUP4 PUSH2 0x32E4 JUMP JUMPDEST SWAP3 POP DUP3 PUSH2 0x3B36 JUMPI PUSH2 0x3B35 PUSH2 0x3AE1 JUMP JUMPDEST JUMPDEST DUP3 DUP3 DIV SWAP1 POP SWAP3 SWAP2 POP POP JUMP JUMPDEST PUSH1 0x0 PUSH2 0x3B4C DUP3 PUSH2 0x32E4 JUMP JUMPDEST SWAP2 POP PUSH2 0x3B57 DUP4 PUSH2 0x32E4 JUMP JUMPDEST SWAP3 POP DUP2 PUSH32 0xFFFFFFFFFFFFFFFFFFFFFFFFFFFFFFFFFFFFFFFFFFFFFFFFFFFFFFFFFFFFFFFF DIV DUP4 GT DUP3 ISZERO ISZERO AND ISZERO PUSH2 0x3B90 JUMPI PUSH2 0x3B8F PUSH2 0x369A JUMP JUMPDEST JUMPDEST DUP3 DUP3 MUL SWAP1 POP SWAP3 SWAP2 POP POP JUMP JUMPDEST PUSH32 0x4F776E61626C653A206E6577206F776E657220697320746865207A65726F2061 PUSH1 0x0 DUP3 ADD MSTORE PUSH32 0x6464726573730000000000000000000000000000000000000000000000000000 PUSH1 0x20 DUP3 ADD MSTORE POP JUMP JUMPDEST PUSH1 0x0 PUSH2 0x3BF7 PUSH1 0x26 DUP4 PUSH2 0x34B3 JUMP JUMPDEST SWAP2 POP PUSH2 0x3C02 DUP3 PUSH2 0x3B9B JUMP JUMPDEST PUSH1 0x40 DUP3 ADD SWAP1 POP SWAP2 SWAP1 POP JUMP JUMPDEST PUSH1 0x0 PUSH1 0x20 DUP3 ADD SWAP1 POP DUP2 DUP2 SUB PUSH1 0x0 DUP4 ADD MSTORE PUSH2 0x3C26 DUP2 PUSH2 0x3BEA JUMP JUMPDEST SWAP1 POP SWAP2 SWAP1 POP JUMP INVALID LOG2 PUSH5 0x6970667358 0x22 SLT KECCAK256 0x4C DUP12 0xC0 POP PUSH29 0xA333024705164DB35BFB820EB024C1B85E9FB193826E3CB6BCBDA86473 PUSH16 0x6C634300081000330000000000000000 "
				},
				"gasEstimates": {
					"creation": {
						"codeDepositCost": "3091800",
						"executionCost": "infinite",
						"totalCost": "infinite"
					},
					"external": {
						"DailyRoi(uint256)": "infinite",
						"Ref_Withdraw()": "infinite",
						"alreadyInvested()": "2609",
						"approvedWithdrawal(address)": "infinite",
						"checkAlready()": "2746",
						"claimDailyRewards()": "infinite",
						"claimTime(address)": "infinite",
						"deposit(address,uint256)": "infinite",
						"depositFee(uint256)": "infinite",
						"dev()": "2626",
						"fee()": "373",
						"getBalance()": "infinite",
						"init()": "2587",
						"investments(address)": "infinite",
						"max()": "396",
						"min()": "461",
						"owner()": "2612",
						"refFee(uint256)": "infinite",
						"refTotalWithdraw(address)": "infinite",
						"ref_fee()": "374",
						"refferal(address)": "infinite",
						"renounceOwnership()": "30380",
						"roi()": "2497",
						"signal_market()": "26753",
						"tokenAdress()": "2581",
						"totalRewards(address)": "infinite",
						"totalWithdraw(address)": "infinite",
						"transferOwnership(address)": "30776",
						"unStake()": "infinite",
						"userReward(address)": "infinite",
						"weekly(address)": "infinite",
						"withdrawFee(uint256)": "infinite",
						"withdraw_fee()": "440",
						"withdrawal()": "infinite"
					}
				},
				"methodIdentifiers": {
					"DailyRoi(uint256)": "56eaf9e6",
					"Ref_Withdraw()": "b99442bd",
					"alreadyInvested()": "ea82b285",
					"approvedWithdrawal(address)": "8631d128",
					"checkAlready()": "2116ce6d",
					"claimDailyRewards()": "797ca149",
					"claimTime(address)": "4c443127",
					"deposit(address,uint256)": "47e7ef24",
					"depositFee(uint256)": "423c485a",
					"dev()": "91cca3db",
					"fee()": "ddca3f43",
					"getBalance()": "12065fe0",
					"init()": "e1c7392a",
					"investments(address)": "96b98862",
					"max()": "6ac5db19",
					"min()": "f8897945",
					"owner()": "8da5cb5b",
					"refFee(uint256)": "21b9f7eb",
					"refTotalWithdraw(address)": "c6bdd1da",
					"ref_fee()": "5925417c",
					"refferal(address)": "7d636d9b",
					"renounceOwnership()": "715018a6",
					"roi()": "4afdd0e7",
					"signal_market()": "398204ad",
					"tokenAdress()": "97c9c5a6",
					"totalRewards(address)": "ab7573dd",
					"totalWithdraw(address)": "02ee282c",
					"transferOwnership(address)": "f2fde38b",
					"unStake()": "73cf575a",
					"userReward(address)": "000a74be",
					"weekly(address)": "223777fe",
					"withdrawFee(uint256)": "be357616",
					"withdraw_fee()": "dbe32e54",
					"withdrawal()": "d4e93292"
				}
			},
			"storageLayout": {
				"storage": [
					{
						"astId": 400,
						"contract": "watermelon.sol:WatermelonBusd",
						"label": "_owner",
						"offset": 0,
						"slot": "0",
						"type": "t_address"
					},
					{
						"astId": 510,
						"contract": "watermelon.sol:WatermelonBusd",
						"label": "locked",
						"offset": 20,
						"slot": "0",
						"type": "t_bool"
					},
					{
						"astId": 547,
						"contract": "watermelon.sol:WatermelonBusd",
						"label": "roi",
						"offset": 0,
						"slot": "1",
						"type": "t_uint256"
					},
					{
						"astId": 559,
						"contract": "watermelon.sol:WatermelonBusd",
						"label": "dev",
						"offset": 0,
						"slot": "2",
						"type": "t_address"
					},
					{
						"astId": 562,
						"contract": "watermelon.sol:WatermelonBusd",
						"label": "BusdInterface",
						"offset": 0,
						"slot": "3",
						"type": "t_contract(IERC20)68"
					},
					{
						"astId": 564,
						"contract": "watermelon.sol:WatermelonBusd",
						"label": "tokenAdress",
						"offset": 0,
						"slot": "4",
						"type": "t_address"
					},
					{
						"astId": 567,
						"contract": "watermelon.sol:WatermelonBusd",
						"label": "init",
						"offset": 20,
						"slot": "4",
						"type": "t_bool"
					},
					{
						"astId": 570,
						"contract": "watermelon.sol:WatermelonBusd",
						"label": "alreadyInvested",
						"offset": 21,
						"slot": "4",
						"type": "t_bool"
					},
					{
						"astId": 633,
						"contract": "watermelon.sol:WatermelonBusd",
						"label": "refferal",
						"offset": 0,
						"slot": "5",
						"type": "t_mapping(t_address,t_struct(refferal_system)589_storage)"
					},
					{
						"astId": 638,
						"contract": "watermelon.sol:WatermelonBusd",
						"label": "investments",
						"offset": 0,
						"slot": "6",
						"type": "t_mapping(t_address,t_struct(user_investment_details)599_storage)"
					},
					{
						"astId": 643,
						"contract": "watermelon.sol:WatermelonBusd",
						"label": "weekly",
						"offset": 0,
						"slot": "7",
						"type": "t_mapping(t_address,t_struct(weeklyWithdraw)606_storage)"
					},
					{
						"astId": 648,
						"contract": "watermelon.sol:WatermelonBusd",
						"label": "claimTime",
						"offset": 0,
						"slot": "8",
						"type": "t_mapping(t_address,t_struct(claimDaily)613_storage)"
					},
					{
						"astId": 653,
						"contract": "watermelon.sol:WatermelonBusd",
						"label": "approvedWithdrawal",
						"offset": 0,
						"slot": "9",
						"type": "t_mapping(t_address,t_struct(userWithdrawal)618_storage)"
					},
					{
						"astId": 658,
						"contract": "watermelon.sol:WatermelonBusd",
						"label": "totalWithdraw",
						"offset": 0,
						"slot": "10",
						"type": "t_mapping(t_address,t_struct(userTotalWithdraw)623_storage)"
					},
					{
						"astId": 663,
						"contract": "watermelon.sol:WatermelonBusd",
						"label": "totalRewards",
						"offset": 0,
						"slot": "11",
						"type": "t_mapping(t_address,t_struct(userTotalRewards)628_storage)"
					},
					{
						"astId": 668,
						"contract": "watermelon.sol:WatermelonBusd",
						"label": "refTotalWithdraw",
						"offset": 0,
						"slot": "12",
						"type": "t_mapping(t_address,t_struct(refferal_withdraw)594_storage)"
					}
				],
				"types": {
					"t_address": {
						"encoding": "inplace",
						"label": "address",
						"numberOfBytes": "20"
					},
					"t_bool": {
						"encoding": "inplace",
						"label": "bool",
						"numberOfBytes": "1"
					},
					"t_contract(IERC20)68": {
						"encoding": "inplace",
						"label": "contract IERC20",
						"numberOfBytes": "20"
					},
					"t_mapping(t_address,t_struct(claimDaily)613_storage)": {
						"encoding": "mapping",
						"key": "t_address",
						"label": "mapping(address => struct WatermelonBusd.claimDaily)",
						"numberOfBytes": "32",
						"value": "t_struct(claimDaily)613_storage"
					},
					"t_mapping(t_address,t_struct(refferal_system)589_storage)": {
						"encoding": "mapping",
						"key": "t_address",
						"label": "mapping(address => struct WatermelonBusd.refferal_system)",
						"numberOfBytes": "32",
						"value": "t_struct(refferal_system)589_storage"
					},
					"t_mapping(t_address,t_struct(refferal_withdraw)594_storage)": {
						"encoding": "mapping",
						"key": "t_address",
						"label": "mapping(address => struct WatermelonBusd.refferal_withdraw)",
						"numberOfBytes": "32",
						"value": "t_struct(refferal_withdraw)594_storage"
					},
					"t_mapping(t_address,t_struct(userTotalRewards)628_storage)": {
						"encoding": "mapping",
						"key": "t_address",
						"label": "mapping(address => struct WatermelonBusd.userTotalRewards)",
						"numberOfBytes": "32",
						"value": "t_struct(userTotalRewards)628_storage"
					},
					"t_mapping(t_address,t_struct(userTotalWithdraw)623_storage)": {
						"encoding": "mapping",
						"key": "t_address",
						"label": "mapping(address => struct WatermelonBusd.userTotalWithdraw)",
						"numberOfBytes": "32",
						"value": "t_struct(userTotalWithdraw)623_storage"
					},
					"t_mapping(t_address,t_struct(userWithdrawal)618_storage)": {
						"encoding": "mapping",
						"key": "t_address",
						"label": "mapping(address => struct WatermelonBusd.userWithdrawal)",
						"numberOfBytes": "32",
						"value": "t_struct(userWithdrawal)618_storage"
					},
					"t_mapping(t_address,t_struct(user_investment_details)599_storage)": {
						"encoding": "mapping",
						"key": "t_address",
						"label": "mapping(address => struct WatermelonBusd.user_investment_details)",
						"numberOfBytes": "32",
						"value": "t_struct(user_investment_details)599_storage"
					},
					"t_mapping(t_address,t_struct(weeklyWithdraw)606_storage)": {
						"encoding": "mapping",
						"key": "t_address",
						"label": "mapping(address => struct WatermelonBusd.weeklyWithdraw)",
						"numberOfBytes": "32",
						"value": "t_struct(weeklyWithdraw)606_storage"
					},
					"t_struct(claimDaily)613_storage": {
						"encoding": "inplace",
						"label": "struct WatermelonBusd.claimDaily",
						"members": [
							{
								"astId": 608,
								"contract": "watermelon.sol:WatermelonBusd",
								"label": "user_address",
								"offset": 0,
								"slot": "0",
								"type": "t_address"
							},
							{
								"astId": 610,
								"contract": "watermelon.sol:WatermelonBusd",
								"label": "startTime",
								"offset": 0,
								"slot": "1",
								"type": "t_uint256"
							},
							{
								"astId": 612,
								"contract": "watermelon.sol:WatermelonBusd",
								"label": "deadline",
								"offset": 0,
								"slot": "2",
								"type": "t_uint256"
							}
						],
						"numberOfBytes": "96"
					},
					"t_struct(refferal_system)589_storage": {
						"encoding": "inplace",
						"label": "struct WatermelonBusd.refferal_system",
						"members": [
							{
								"astId": 586,
								"contract": "watermelon.sol:WatermelonBusd",
								"label": "ref_address",
								"offset": 0,
								"slot": "0",
								"type": "t_address"
							},
							{
								"astId": 588,
								"contract": "watermelon.sol:WatermelonBusd",
								"label": "reward",
								"offset": 0,
								"slot": "1",
								"type": "t_uint256"
							}
						],
						"numberOfBytes": "64"
					},
					"t_struct(refferal_withdraw)594_storage": {
						"encoding": "inplace",
						"label": "struct WatermelonBusd.refferal_withdraw",
						"members": [
							{
								"astId": 591,
								"contract": "watermelon.sol:WatermelonBusd",
								"label": "ref_address",
								"offset": 0,
								"slot": "0",
								"type": "t_address"
							},
							{
								"astId": 593,
								"contract": "watermelon.sol:WatermelonBusd",
								"label": "totalWithdraw",
								"offset": 0,
								"slot": "1",
								"type": "t_uint256"
							}
						],
						"numberOfBytes": "64"
					},
					"t_struct(userTotalRewards)628_storage": {
						"encoding": "inplace",
						"label": "struct WatermelonBusd.userTotalRewards",
						"members": [
							{
								"astId": 625,
								"contract": "watermelon.sol:WatermelonBusd",
								"label": "user_address",
								"offset": 0,
								"slot": "0",
								"type": "t_address"
							},
							{
								"astId": 627,
								"contract": "watermelon.sol:WatermelonBusd",
								"label": "amount",
								"offset": 0,
								"slot": "1",
								"type": "t_uint256"
							}
						],
						"numberOfBytes": "64"
					},
					"t_struct(userTotalWithdraw)623_storage": {
						"encoding": "inplace",
						"label": "struct WatermelonBusd.userTotalWithdraw",
						"members": [
							{
								"astId": 620,
								"contract": "watermelon.sol:WatermelonBusd",
								"label": "user_address",
								"offset": 0,
								"slot": "0",
								"type": "t_address"
							},
							{
								"astId": 622,
								"contract": "watermelon.sol:WatermelonBusd",
								"label": "amount",
								"offset": 0,
								"slot": "1",
								"type": "t_uint256"
							}
						],
						"numberOfBytes": "64"
					},
					"t_struct(userWithdrawal)618_storage": {
						"encoding": "inplace",
						"label": "struct WatermelonBusd.userWithdrawal",
						"members": [
							{
								"astId": 615,
								"contract": "watermelon.sol:WatermelonBusd",
								"label": "user_address",
								"offset": 0,
								"slot": "0",
								"type": "t_address"
							},
							{
								"astId": 617,
								"contract": "watermelon.sol:WatermelonBusd",
								"label": "amount",
								"offset": 0,
								"slot": "1",
								"type": "t_uint256"
							}
						],
						"numberOfBytes": "64"
					},
					"t_struct(user_investment_details)599_storage": {
						"encoding": "inplace",
						"label": "struct WatermelonBusd.user_investment_details",
						"members": [
							{
								"astId": 596,
								"contract": "watermelon.sol:WatermelonBusd",
								"label": "user_address",
								"offset": 0,
								"slot": "0",
								"type": "t_address"
							},
							{
								"astId": 598,
								"contract": "watermelon.sol:WatermelonBusd",
								"label": "invested",
								"offset": 0,
								"slot": "1",
								"type": "t_uint256"
							}
						],
						"numberOfBytes": "64"
					},
					"t_struct(weeklyWithdraw)606_storage": {
						"encoding": "inplace",
						"label": "struct WatermelonBusd.weeklyWithdraw",
						"members": [
							{
								"astId": 601,
								"contract": "watermelon.sol:WatermelonBusd",
								"label": "user_address",
								"offset": 0,
								"slot": "0",
								"type": "t_address"
							},
							{
								"astId": 603,
								"contract": "watermelon.sol:WatermelonBusd",
								"label": "startTime",
								"offset": 0,
								"slot": "1",
								"type": "t_uint256"
							},
							{
								"astId": 605,
								"contract": "watermelon.sol:WatermelonBusd",
								"label": "deadline",
								"offset": 0,
								"slot": "2",
								"type": "t_uint256"
							}
						],
						"numberOfBytes": "96"
					},
					"t_uint256": {
						"encoding": "inplace",
						"label": "uint256",
						"numberOfBytes": "32"
					}
				}
			},
			"userdoc": {
				"kind": "user",
				"methods": {},
				"version": 1
			}
		}
	}
}