{
	"GoldenBUSDLotto.sol": {
		"GoldenBUSDLotto": {
			"abi": [
				{
					"inputs": [],
					"stateMutability": "nonpayable",
					"type": "constructor"
				},
				{
					"anonymous": false,
					"inputs": [
						{
							"indexed": true,
							"internalType": "address",
							"name": "previousOwner",
							"type": "address"
						},
						{
							"indexed": true,
							"internalType": "address",
							"name": "newOwner",
							"type": "address"
						}
					],
					"name": "OwnershipTransferred",
					"type": "event"
				},
				{
					"anonymous": false,
					"inputs": [
						{
							"indexed": false,
							"internalType": "uint256",
							"name": "_id",
							"type": "uint256"
						},
						{
							"indexed": false,
							"internalType": "uint256",
							"name": "_value",
							"type": "uint256"
						}
					],
					"name": "logshh",
					"type": "event"
				},
				{
					"inputs": [],
					"name": "BusdInterface",
					"outputs": [
						{
							"internalType": "contract IERC20",
							"name": "",
							"type": "address"
						}
					],
					"stateMutability": "view",
					"type": "function"
				},
				{
					"inputs": [],
					"name": "allWinner",
					"outputs": [
						{
							"internalType": "address[]",
							"name": "",
							"type": "address[]"
						}
					],
					"stateMutability": "view",
					"type": "function"
				},
				{
					"inputs": [],
					"name": "allWinner1",
					"outputs": [
						{
							"internalType": "address[]",
							"name": "",
							"type": "address[]"
						}
					],
					"stateMutability": "view",
					"type": "function"
				},
				{
					"inputs": [],
					"name": "allWinner2",
					"outputs": [
						{
							"internalType": "address[]",
							"name": "",
							"type": "address[]"
						}
					],
					"stateMutability": "view",
					"type": "function"
				},
				{
					"inputs": [],
					"name": "announceLottery",
					"outputs": [],
					"stateMutability": "nonpayable",
					"type": "function"
				},
				{
					"inputs": [],
					"name": "announceLottery1",
					"outputs": [],
					"stateMutability": "nonpayable",
					"type": "function"
				},
				{
					"inputs": [],
					"name": "announceLottery2",
					"outputs": [],
					"stateMutability": "nonpayable",
					"type": "function"
				},
				{
					"inputs": [],
					"name": "getLottery1Length",
					"outputs": [
						{
							"internalType": "uint256",
							"name": "",
							"type": "uint256"
						}
					],
					"stateMutability": "view",
					"type": "function"
				},
				{
					"inputs": [],
					"name": "getLottery2Length",
					"outputs": [
						{
							"internalType": "uint256",
							"name": "",
							"type": "uint256"
						}
					],
					"stateMutability": "view",
					"type": "function"
				},
				{
					"inputs": [],
					"name": "getLotteryLength",
					"outputs": [
						{
							"internalType": "uint256",
							"name": "",
							"type": "uint256"
						}
					],
					"stateMutability": "view",
					"type": "function"
				},
				{
					"inputs": [
						{
							"internalType": "address",
							"name": "ad",
							"type": "address"
						}
					],
					"name": "howMany",
					"outputs": [
						{
							"internalType": "uint256",
							"name": "",
							"type": "uint256"
						},
						{
							"internalType": "uint256",
							"name": "",
							"type": "uint256"
						},
						{
							"internalType": "uint256",
							"name": "",
							"type": "uint256"
						}
					],
					"stateMutability": "view",
					"type": "function"
				},
				{
					"inputs": [
						{
							"internalType": "uint256",
							"name": "_amount",
							"type": "uint256"
						}
					],
					"name": "joinLottery",
					"outputs": [],
					"stateMutability": "nonpayable",
					"type": "function"
				},
				{
					"inputs": [
						{
							"internalType": "uint256",
							"name": "_amount",
							"type": "uint256"
						}
					],
					"name": "joinLottery1",
					"outputs": [],
					"stateMutability": "nonpayable",
					"type": "function"
				},
				{
					"inputs": [
						{
							"internalType": "uint256",
							"name": "_amount",
							"type": "uint256"
						}
					],
					"name": "joinLottery2",
					"outputs": [],
					"stateMutability": "nonpayable",
					"type": "function"
				},
				{
					"inputs": [],
					"name": "lotteryBalance",
					"outputs": [
						{
							"internalType": "uint256",
							"name": "",
							"type": "uint256"
						}
					],
					"stateMutability": "view",
					"type": "function"
				},
				{
					"inputs": [],
					"name": "lotteryStarted",
					"outputs": [
						{
							"internalType": "bool",
							"name": "",
							"type": "bool"
						}
					],
					"stateMutability": "view",
					"type": "function"
				},
				{
					"inputs": [],
					"name": "owner",
					"outputs": [
						{
							"internalType": "address",
							"name": "",
							"type": "address"
						}
					],
					"stateMutability": "view",
					"type": "function"
				},
				{
					"inputs": [],
					"name": "renounceOwnership",
					"outputs": [],
					"stateMutability": "nonpayable",
					"type": "function"
				},
				{
					"inputs": [
						{
							"internalType": "uint256",
							"name": "_maxNumbers",
							"type": "uint256"
						}
					],
					"name": "setMaximmNumbers",
					"outputs": [],
					"stateMutability": "nonpayable",
					"type": "function"
				},
				{
					"inputs": [
						{
							"internalType": "uint256",
							"name": "_maxNumbers",
							"type": "uint256"
						}
					],
					"name": "setMaximmNumbers1",
					"outputs": [],
					"stateMutability": "nonpayable",
					"type": "function"
				},
				{
					"inputs": [
						{
							"internalType": "uint256",
							"name": "_maxNumbers",
							"type": "uint256"
						}
					],
					"name": "setMaximmNumbers2",
					"outputs": [],
					"stateMutability": "nonpayable",
					"type": "function"
				},
				{
					"inputs": [
						{
							"internalType": "uint256",
							"name": "_valueInEther",
							"type": "uint256"
						}
					],
					"name": "setTicketPrice",
					"outputs": [],
					"stateMutability": "nonpayable",
					"type": "function"
				},
				{
					"inputs": [
						{
							"internalType": "uint256",
							"name": "_valueInEther",
							"type": "uint256"
						}
					],
					"name": "setTicketPrice1",
					"outputs": [],
					"stateMutability": "nonpayable",
					"type": "function"
				},
				{
					"inputs": [
						{
							"internalType": "uint256",
							"name": "_valueInEther",
							"type": "uint256"
						}
					],
					"name": "setTicketPrice2",
					"outputs": [],
					"stateMutability": "nonpayable",
					"type": "function"
				},
				{
					"inputs": [],
					"name": "startLottery",
					"outputs": [],
					"stateMutability": "nonpayable",
					"type": "function"
				},
				{
					"inputs": [],
					"name": "tokenAddress",
					"outputs": [
						{
							"internalType": "address",
							"name": "",
							"type": "address"
						}
					],
					"stateMutability": "view",
					"type": "function"
				},
				{
					"inputs": [
						{
							"internalType": "address",
							"name": "newOwner",
							"type": "address"
						}
					],
					"name": "transferOwnership",
					"outputs": [],
					"stateMutability": "nonpayable",
					"type": "function"
				},
				{
					"inputs": [],
					"name": "viewTicket",
					"outputs": [
						{
							"internalType": "uint256",
							"name": "",
							"type": "uint256"
						}
					],
					"stateMutability": "view",
					"type": "function"
				},
				{
					"inputs": [],
					"name": "viewTicket1",
					"outputs": [
						{
							"internalType": "uint256",
							"name": "",
							"type": "uint256"
						}
					],
					"stateMutability": "view",
					"type": "function"
				},
				{
					"inputs": [],
					"name": "viewTicket2",
					"outputs": [
						{
							"internalType": "uint256",
							"name": "",
							"type": "uint256"
						}
					],
					"stateMutability": "view",
					"type": "function"
				},
				{
					"inputs": [],
					"name": "viewTicketPrice",
					"outputs": [
						{
							"internalType": "uint256",
							"name": "",
							"type": "uint256"
						}
					],
					"stateMutability": "view",
					"type": "function"
				},
				{
					"inputs": [],
					"name": "viewTicketPrice1",
					"outputs": [
						{
							"internalType": "uint256",
							"name": "",
							"type": "uint256"
						}
					],
					"stateMutability": "view",
					"type": "function"
				},
				{
					"inputs": [],
					"name": "viewTicketPrice2",
					"outputs": [
						{
							"internalType": "uint256",
							"name": "",
							"type": "uint256"
						}
					],
					"stateMutability": "view",
					"type": "function"
				},
				{
					"inputs": [
						{
							"internalType": "uint256",
							"name": "",
							"type": "uint256"
						}
					],
					"name": "winnerLottery",
					"outputs": [
						{
							"internalType": "address",
							"name": "",
							"type": "address"
						}
					],
					"stateMutability": "view",
					"type": "function"
				},
				{
					"inputs": [
						{
							"internalType": "uint256",
							"name": "",
							"type": "uint256"
						}
					],
					"name": "winnerLottery1",
					"outputs": [
						{
							"internalType": "address",
							"name": "",
							"type": "address"
						}
					],
					"stateMutability": "view",
					"type": "function"
				},
				{
					"inputs": [
						{
							"internalType": "uint256",
							"name": "",
							"type": "uint256"
						}
					],
					"name": "winnerLottery2",
					"outputs": [
						{
							"internalType": "address",
							"name": "",
							"type": "address"
						}
					],
					"stateMutability": "view",
					"type": "function"
				}
			],
			"devdoc": {
				"kind": "dev",
				"methods": {
					"owner()": {
						"details": "Returns the address of the current owner."
					}
				},
				"version": 1
			},
			"evm": {
				"assembly": "    /* \"GoldenBUSDLotto.sol\":8710:19302  contract GoldenBUSDLotto is ReentrancyGuard, Ownable {... */\n  mstore(0x40, 0x80)\n    /* \"GoldenBUSDLotto.sol\":8797:8839  0x237C00F9142C2ba9858C7f5d622Df429F870e850 */\n  0x237c00f9142c2ba9858c7f5d622df429f870e850\n    /* \"GoldenBUSDLotto.sol\":8770:8839  address private gldnBusd = 0x237C00F9142C2ba9858C7f5d622Df429F870e850 */\n  0x01\n  exp(0x0100, 0x00)\n  dup2\n  sload\n  dup2\n  0xffffffffffffffffffffffffffffffffffffffff\n  mul\n  not\n  and\n  swap1\n  dup4\n  0xffffffffffffffffffffffffffffffffffffffff\n  and\n  mul\n  or\n  swap1\n  sstore\n  pop\n    /* \"GoldenBUSDLotto.sol\":8867:8869  30 */\n  0x1e\n    /* \"GoldenBUSDLotto.sol\":8845:8869  uint256 private fee = 30 */\n  0x02\n  sstore\n    /* \"GoldenBUSDLotto.sol\":9368:9373  false */\n  0x00\n    /* \"GoldenBUSDLotto.sol\":9339:9373  bool public lotteryStarted = false */\n  0x0f\n  exp(0x0100, 0x00)\n  dup2\n  sload\n  dup2\n  0xff\n  mul\n  not\n  and\n  swap1\n  dup4\n  iszero\n  iszero\n  mul\n  or\n  swap1\n  sstore\n  pop\n    /* \"GoldenBUSDLotto.sol\":9556:9944  constructor()  {  ... */\n  callvalue\n  dup1\n  iszero\n  tag_1\n  jumpi\n  0x00\n  dup1\n  revert\ntag_1:\n  pop\n    /* \"GoldenBUSDLotto.sol\":7739:7756  address msgSender */\n  0x00\n    /* \"GoldenBUSDLotto.sol\":7759:7771  _msgSender() */\n  tag_5\n    /* \"GoldenBUSDLotto.sol\":7759:7769  _msgSender */\n  shl(0x20, tag_6)\n    /* \"GoldenBUSDLotto.sol\":7759:7771  _msgSender() */\n  0x20\n  shr\n  jump\t// in\ntag_5:\n    /* \"GoldenBUSDLotto.sol\":7739:7771  address msgSender = _msgSender() */\n  swap1\n  pop\n    /* \"GoldenBUSDLotto.sol\":7788:7797  msgSender */\n  dup1\n    /* \"GoldenBUSDLotto.sol\":7779:7785  _owner */\n  0x00\n  0x01\n    /* \"GoldenBUSDLotto.sol\":7779:7797  _owner = msgSender */\n  0x0100\n  exp\n  dup2\n  sload\n  dup2\n  0xffffffffffffffffffffffffffffffffffffffff\n  mul\n  not\n  and\n  swap1\n  dup4\n  0xffffffffffffffffffffffffffffffffffffffff\n  and\n  mul\n  or\n  swap1\n  sstore\n  pop\n    /* \"GoldenBUSDLotto.sol\":7843:7852  msgSender */\n  dup1\n    /* \"GoldenBUSDLotto.sol\":7810:7853  OwnershipTransferred(address(0), msgSender) */\n  0xffffffffffffffffffffffffffffffffffffffff\n  and\n    /* \"GoldenBUSDLotto.sol\":7839:7840  0 */\n  0x00\n    /* \"GoldenBUSDLotto.sol\":7810:7853  OwnershipTransferred(address(0), msgSender) */\n  0xffffffffffffffffffffffffffffffffffffffff\n  and\n  0x8be0079c531659141344cd1fd0a4f28419497f9722a3daafe3b4186f6b6457e0\n  mload(0x40)\n  mload(0x40)\n  dup1\n  swap2\n  sub\n  swap1\n  log3\n    /* \"GoldenBUSDLotto.sol\":7731:7860  {... */\n  pop\n    /* \"GoldenBUSDLotto.sol\":9583:9612  transferOwnership(msg.sender) */\n  tag_8\n    /* \"GoldenBUSDLotto.sol\":9601:9611  msg.sender */\n  caller\n    /* \"GoldenBUSDLotto.sol\":9583:9600  transferOwnership */\n  shl(0x20, tag_9)\n    /* \"GoldenBUSDLotto.sol\":9583:9612  transferOwnership(msg.sender) */\n  0x20\n  shr\n  jump\t// in\ntag_8:\n    /* \"GoldenBUSDLotto.sol\":9646:9649  100 */\n  0x64\n    /* \"GoldenBUSDLotto.sol\":9622:9643  maxParticipantNumbers */\n  0x03\n    /* \"GoldenBUSDLotto.sol\":9622:9649  maxParticipantNumbers = 100 */\n  dup2\n  swap1\n  sstore\n  pop\n    /* \"GoldenBUSDLotto.sol\":9673:9680  1 ether */\n  0x0de0b6b3a7640000\n    /* \"GoldenBUSDLotto.sol\":9659:9670  ticketPrice */\n  0x05\n    /* \"GoldenBUSDLotto.sol\":9659:9680  ticketPrice = 1 ether */\n  dup2\n  swap1\n  sstore\n  pop\n    /* \"GoldenBUSDLotto.sol\":9717:9719  20 */\n  0x14\n    /* \"GoldenBUSDLotto.sol\":9692:9714  maxParticipantNumbers1 */\n  0x07\n    /* \"GoldenBUSDLotto.sol\":9692:9719  maxParticipantNumbers1 = 20 */\n  dup2\n  swap1\n  sstore\n  pop\n    /* \"GoldenBUSDLotto.sol\":9744:9752  10 ether */\n  0x8ac7230489e80000\n    /* \"GoldenBUSDLotto.sol\":9729:9741  ticketPrice1 */\n  0x09\n    /* \"GoldenBUSDLotto.sol\":9729:9752  ticketPrice1 = 10 ether */\n  dup2\n  swap1\n  sstore\n  pop\n    /* \"GoldenBUSDLotto.sol\":9788:9789  3 */\n  0x03\n    /* \"GoldenBUSDLotto.sol\":9763:9785  maxParticipantNumbers2 */\n  0x0b\n    /* \"GoldenBUSDLotto.sol\":9763:9789  maxParticipantNumbers2 = 3 */\n  dup2\n  swap1\n  sstore\n  pop\n    /* \"GoldenBUSDLotto.sol\":9814:9823  100 ether */\n  0x056bc75e2d63100000\n    /* \"GoldenBUSDLotto.sol\":9799:9811  ticketPrice2 */\n  0x0d\n    /* \"GoldenBUSDLotto.sol\":9799:9823  ticketPrice2 = 100 ether */\n  dup2\n  swap1\n  sstore\n  pop\n    /* \"GoldenBUSDLotto.sol\":9849:9891  0xe9e7CEA3DedcA5984780Bafc599bD69ADd087D56 */\n  0xe9e7cea3dedca5984780bafc599bd69add087d56\n    /* \"GoldenBUSDLotto.sol\":9834:9846  tokenAddress */\n  0x13\n  0x00\n    /* \"GoldenBUSDLotto.sol\":9834:9891  tokenAddress = 0xe9e7CEA3DedcA5984780Bafc599bD69ADd087D56 */\n  0x0100\n  exp\n  dup2\n  sload\n  dup2\n  0xffffffffffffffffffffffffffffffffffffffff\n  mul\n  not\n  and\n  swap1\n  dup4\n  0xffffffffffffffffffffffffffffffffffffffff\n  and\n  mul\n  or\n  swap1\n  sstore\n  pop\n    /* \"GoldenBUSDLotto.sol\":9924:9936  tokenAddress */\n  0x13\n  0x00\n  swap1\n  sload\n  swap1\n  0x0100\n  exp\n  swap1\n  div\n  0xffffffffffffffffffffffffffffffffffffffff\n  and\n    /* \"GoldenBUSDLotto.sol\":9901:9914  BusdInterface */\n  0x14\n  0x00\n    /* \"GoldenBUSDLotto.sol\":9901:9937  BusdInterface = IERC20(tokenAddress) */\n  0x0100\n  exp\n  dup2\n  sload\n  dup2\n  0xffffffffffffffffffffffffffffffffffffffff\n  mul\n  not\n  and\n  swap1\n  dup4\n  0xffffffffffffffffffffffffffffffffffffffff\n  and\n  mul\n  or\n  swap1\n  sstore\n  pop\n    /* \"GoldenBUSDLotto.sol\":8710:19302  contract GoldenBUSDLotto is ReentrancyGuard, Ownable {... */\n  jump(tag_10)\n    /* \"GoldenBUSDLotto.sol\":7263:7359  function _msgSender() internal view virtual returns (address) {... */\ntag_6:\n    /* \"GoldenBUSDLotto.sol\":7316:7323  address */\n  0x00\n    /* \"GoldenBUSDLotto.sol\":7342:7352  msg.sender */\n  caller\n    /* \"GoldenBUSDLotto.sol\":7335:7352  return msg.sender */\n  swap1\n  pop\n    /* \"GoldenBUSDLotto.sol\":7263:7359  function _msgSender() internal view virtual returns (address) {... */\n  swap1\n  jump\t// out\n    /* \"GoldenBUSDLotto.sol\":8376:8481  function transferOwnership(address newOwner) public onlyOwner {... */\ntag_9:\n    /* \"GoldenBUSDLotto.sol\":8066:8078  _msgSender() */\n  tag_13\n    /* \"GoldenBUSDLotto.sol\":8066:8076  _msgSender */\n  shl(0x20, tag_6)\n    /* \"GoldenBUSDLotto.sol\":8066:8078  _msgSender() */\n  0x20\n  shr\n  jump\t// in\ntag_13:\n    /* \"GoldenBUSDLotto.sol\":8056:8078  _owner == _msgSender() */\n  0xffffffffffffffffffffffffffffffffffffffff\n  and\n    /* \"GoldenBUSDLotto.sol\":8056:8062  _owner */\n  0x00\n  0x01\n  swap1\n  sload\n  swap1\n  0x0100\n  exp\n  swap1\n  div\n  0xffffffffffffffffffffffffffffffffffffffff\n  and\n    /* \"GoldenBUSDLotto.sol\":8056:8078  _owner == _msgSender() */\n  0xffffffffffffffffffffffffffffffffffffffff\n  and\n  eq\n    /* \"GoldenBUSDLotto.sol\":8048:8115  require(_owner == _msgSender(), \"Ownable: caller is not the owner\") */\n  tag_14\n  jumpi\n  mload(0x40)\n  0x08c379a000000000000000000000000000000000000000000000000000000000\n  dup2\n  mstore\n  0x04\n  add\n  tag_15\n  swap1\n  tag_16\n  jump\t// in\ntag_15:\n  mload(0x40)\n  dup1\n  swap2\n  sub\n  swap1\n  revert\ntag_14:\n    /* \"GoldenBUSDLotto.sol\":8446:8474  _transferOwnership(newOwner) */\n  tag_18\n    /* \"GoldenBUSDLotto.sol\":8465:8473  newOwner */\n  dup2\n    /* \"GoldenBUSDLotto.sol\":8446:8464  _transferOwnership */\n  shl(0x20, tag_19)\n    /* \"GoldenBUSDLotto.sol\":8446:8474  _transferOwnership(newOwner) */\n  0x20\n  shr\n  jump\t// in\ntag_18:\n    /* \"GoldenBUSDLotto.sol\":8376:8481  function transferOwnership(address newOwner) public onlyOwner {... */\n  pop\n  jump\t// out\n    /* \"GoldenBUSDLotto.sol\":8487:8706  function _transferOwnership(address newOwner) internal {... */\ntag_19:\n    /* \"GoldenBUSDLotto.sol\":8578:8579  0 */\n  0x00\n    /* \"GoldenBUSDLotto.sol\":8558:8580  newOwner != address(0) */\n  0xffffffffffffffffffffffffffffffffffffffff\n  and\n    /* \"GoldenBUSDLotto.sol\":8558:8566  newOwner */\n  dup2\n    /* \"GoldenBUSDLotto.sol\":8558:8580  newOwner != address(0) */\n  0xffffffffffffffffffffffffffffffffffffffff\n  and\n  sub\n    /* \"GoldenBUSDLotto.sol\":8550:8623  require(newOwner != address(0), \"Ownable: new owner is the zero address\") */\n  tag_21\n  jumpi\n  mload(0x40)\n  0x08c379a000000000000000000000000000000000000000000000000000000000\n  dup2\n  mstore\n  0x04\n  add\n  tag_22\n  swap1\n  tag_23\n  jump\t// in\ntag_22:\n  mload(0x40)\n  dup1\n  swap2\n  sub\n  swap1\n  revert\ntag_21:\n    /* \"GoldenBUSDLotto.sol\":8665:8673  newOwner */\n  dup1\n    /* \"GoldenBUSDLotto.sol\":8636:8674  OwnershipTransferred(_owner, newOwner) */\n  0xffffffffffffffffffffffffffffffffffffffff\n  and\n    /* \"GoldenBUSDLotto.sol\":8657:8663  _owner */\n  0x00\n  0x01\n  swap1\n  sload\n  swap1\n  0x0100\n  exp\n  swap1\n  div\n  0xffffffffffffffffffffffffffffffffffffffff\n  and\n    /* \"GoldenBUSDLotto.sol\":8636:8674  OwnershipTransferred(_owner, newOwner) */\n  0xffffffffffffffffffffffffffffffffffffffff\n  and\n  0x8be0079c531659141344cd1fd0a4f28419497f9722a3daafe3b4186f6b6457e0\n  mload(0x40)\n  mload(0x40)\n  dup1\n  swap2\n  sub\n  swap1\n  log3\n    /* \"GoldenBUSDLotto.sol\":8691:8699  newOwner */\n  dup1\n    /* \"GoldenBUSDLotto.sol\":8682:8688  _owner */\n  0x00\n  0x01\n    /* \"GoldenBUSDLotto.sol\":8682:8699  _owner = newOwner */\n  0x0100\n  exp\n  dup2\n  sload\n  dup2\n  0xffffffffffffffffffffffffffffffffffffffff\n  mul\n  not\n  and\n  swap1\n  dup4\n  0xffffffffffffffffffffffffffffffffffffffff\n  and\n  mul\n  or\n  swap1\n  sstore\n  pop\n    /* \"GoldenBUSDLotto.sol\":8487:8706  function _transferOwnership(address newOwner) internal {... */\n  pop\n  jump\t// out\n    /* \"#utility.yul\":7:176   */\ntag_24:\n    /* \"#utility.yul\":91:102   */\n  0x00\n    /* \"#utility.yul\":125:131   */\n  dup3\n    /* \"#utility.yul\":120:123   */\n  dup3\n    /* \"#utility.yul\":113:132   */\n  mstore\n    /* \"#utility.yul\":165:169   */\n  0x20\n    /* \"#utility.yul\":160:163   */\n  dup3\n    /* \"#utility.yul\":156:170   */\n  add\n    /* \"#utility.yul\":141:170   */\n  swap1\n  pop\n    /* \"#utility.yul\":7:176   */\n  swap3\n  swap2\n  pop\n  pop\n  jump\t// out\n    /* \"#utility.yul\":182:364   */\ntag_25:\n    /* \"#utility.yul\":322:356   */\n  0x4f776e61626c653a2063616c6c6572206973206e6f7420746865206f776e6572\n    /* \"#utility.yul\":318:319   */\n  0x00\n    /* \"#utility.yul\":310:316   */\n  dup3\n    /* \"#utility.yul\":306:320   */\n  add\n    /* \"#utility.yul\":299:357   */\n  mstore\n    /* \"#utility.yul\":182:364   */\n  pop\n  jump\t// out\n    /* \"#utility.yul\":370:736   */\ntag_26:\n    /* \"#utility.yul\":512:515   */\n  0x00\n    /* \"#utility.yul\":533:600   */\n  tag_33\n    /* \"#utility.yul\":597:599   */\n  0x20\n    /* \"#utility.yul\":592:595   */\n  dup4\n    /* \"#utility.yul\":533:600   */\n  tag_24\n  jump\t// in\ntag_33:\n    /* \"#utility.yul\":526:600   */\n  swap2\n  pop\n    /* \"#utility.yul\":609:702   */\n  tag_34\n    /* \"#utility.yul\":698:701   */\n  dup3\n    /* \"#utility.yul\":609:702   */\n  tag_25\n  jump\t// in\ntag_34:\n    /* \"#utility.yul\":727:729   */\n  0x20\n    /* \"#utility.yul\":722:725   */\n  dup3\n    /* \"#utility.yul\":718:730   */\n  add\n    /* \"#utility.yul\":711:730   */\n  swap1\n  pop\n    /* \"#utility.yul\":370:736   */\n  swap2\n  swap1\n  pop\n  jump\t// out\n    /* \"#utility.yul\":742:1161   */\ntag_16:\n    /* \"#utility.yul\":908:912   */\n  0x00\n    /* \"#utility.yul\":946:948   */\n  0x20\n    /* \"#utility.yul\":935:944   */\n  dup3\n    /* \"#utility.yul\":931:949   */\n  add\n    /* \"#utility.yul\":923:949   */\n  swap1\n  pop\n    /* \"#utility.yul\":995:1004   */\n  dup2\n    /* \"#utility.yul\":989:993   */\n  dup2\n    /* \"#utility.yul\":985:1005   */\n  sub\n    /* \"#utility.yul\":981:982   */\n  0x00\n    /* \"#utility.yul\":970:979   */\n  dup4\n    /* \"#utility.yul\":966:983   */\n  add\n    /* \"#utility.yul\":959:1006   */\n  mstore\n    /* \"#utility.yul\":1023:1154   */\n  tag_36\n    /* \"#utility.yul\":1149:1153   */\n  dup2\n    /* \"#utility.yul\":1023:1154   */\n  tag_26\n  jump\t// in\ntag_36:\n    /* \"#utility.yul\":1015:1154   */\n  swap1\n  pop\n    /* \"#utility.yul\":742:1161   */\n  swap2\n  swap1\n  pop\n  jump\t// out\n    /* \"#utility.yul\":1167:1392   */\ntag_27:\n    /* \"#utility.yul\":1307:1341   */\n  0x4f776e61626c653a206e6577206f776e657220697320746865207a65726f2061\n    /* \"#utility.yul\":1303:1304   */\n  0x00\n    /* \"#utility.yul\":1295:1301   */\n  dup3\n    /* \"#utility.yul\":1291:1305   */\n  add\n    /* \"#utility.yul\":1284:1342   */\n  mstore\n    /* \"#utility.yul\":1376:1384   */\n  0x6464726573730000000000000000000000000000000000000000000000000000\n    /* \"#utility.yul\":1371:1373   */\n  0x20\n    /* \"#utility.yul\":1363:1369   */\n  dup3\n    /* \"#utility.yul\":1359:1374   */\n  add\n    /* \"#utility.yul\":1352:1385   */\n  mstore\n    /* \"#utility.yul\":1167:1392   */\n  pop\n  jump\t// out\n    /* \"#utility.yul\":1398:1764   */\ntag_28:\n    /* \"#utility.yul\":1540:1543   */\n  0x00\n    /* \"#utility.yul\":1561:1628   */\n  tag_39\n    /* \"#utility.yul\":1625:1627   */\n  0x26\n    /* \"#utility.yul\":1620:1623   */\n  dup4\n    /* \"#utility.yul\":1561:1628   */\n  tag_24\n  jump\t// in\ntag_39:\n    /* \"#utility.yul\":1554:1628   */\n  swap2\n  pop\n    /* \"#utility.yul\":1637:1730   */\n  tag_40\n    /* \"#utility.yul\":1726:1729   */\n  dup3\n    /* \"#utility.yul\":1637:1730   */\n  tag_27\n  jump\t// in\ntag_40:\n    /* \"#utility.yul\":1755:1757   */\n  0x40\n    /* \"#utility.yul\":1750:1753   */\n  dup3\n    /* \"#utility.yul\":1746:1758   */\n  add\n    /* \"#utility.yul\":1739:1758   */\n  swap1\n  pop\n    /* \"#utility.yul\":1398:1764   */\n  swap2\n  swap1\n  pop\n  jump\t// out\n    /* \"#utility.yul\":1770:2189   */\ntag_23:\n    /* \"#utility.yul\":1936:1940   */\n  0x00\n    /* \"#utility.yul\":1974:1976   */\n  0x20\n    /* \"#utility.yul\":1963:1972   */\n  dup3\n    /* \"#utility.yul\":1959:1977   */\n  add\n    /* \"#utility.yul\":1951:1977   */\n  swap1\n  pop\n    /* \"#utility.yul\":2023:2032   */\n  dup2\n    /* \"#utility.yul\":2017:2021   */\n  dup2\n    /* \"#utility.yul\":2013:2033   */\n  sub\n    /* \"#utility.yul\":2009:2010   */\n  0x00\n    /* \"#utility.yul\":1998:2007   */\n  dup4\n    /* \"#utility.yul\":1994:2011   */\n  add\n    /* \"#utility.yul\":1987:2034   */\n  mstore\n    /* \"#utility.yul\":2051:2182   */\n  tag_42\n    /* \"#utility.yul\":2177:2181   */\n  dup2\n    /* \"#utility.yul\":2051:2182   */\n  tag_28\n  jump\t// in\ntag_42:\n    /* \"#utility.yul\":2043:2182   */\n  swap1\n  pop\n    /* \"#utility.yul\":1770:2189   */\n  swap2\n  swap1\n  pop\n  jump\t// out\n    /* \"GoldenBUSDLotto.sol\":8710:19302  contract GoldenBUSDLotto is ReentrancyGuard, Ownable {... */\ntag_10:\n  dataSize(sub_0)\n  dup1\n  dataOffset(sub_0)\n  0x00\n  codecopy\n  0x00\n  return\nstop\n\nsub_0: assembly {\n        /* \"GoldenBUSDLotto.sol\":8710:19302  contract GoldenBUSDLotto is ReentrancyGuard, Ownable {... */\n      mstore(0x40, 0x80)\n      callvalue\n      dup1\n      iszero\n      tag_1\n      jumpi\n      0x00\n      dup1\n      revert\n    tag_1:\n      pop\n      jumpi(tag_2, lt(calldatasize, 0x04))\n      shr(0xe0, calldataload(0x00))\n      dup1\n      0x9d76ea58\n      gt\n      tag_39\n      jumpi\n      dup1\n      0xce5f6b9f\n      gt\n      tag_40\n      jumpi\n      dup1\n      0xea6b0480\n      gt\n      tag_41\n      jumpi\n      dup1\n      0xea6b0480\n      eq\n      tag_34\n      jumpi\n      dup1\n      0xf0c30e95\n      eq\n      tag_35\n      jumpi\n      dup1\n      0xf19e8d86\n      eq\n      tag_36\n      jumpi\n      dup1\n      0xf2fde38b\n      eq\n      tag_37\n      jumpi\n      dup1\n      0xf77f15b5\n      eq\n      tag_38\n      jumpi\n      jump(tag_2)\n    tag_41:\n      dup1\n      0xce5f6b9f\n      eq\n      tag_30\n      jumpi\n      dup1\n      0xd521cf2a\n      eq\n      tag_31\n      jumpi\n      dup1\n      0xdb486929\n      eq\n      tag_32\n      jumpi\n      dup1\n      0xe437239f\n      eq\n      tag_33\n      jumpi\n      jump(tag_2)\n    tag_40:\n      dup1\n      0xa46eeb75\n      gt\n      tag_42\n      jumpi\n      dup1\n      0xa46eeb75\n      eq\n      tag_25\n      jumpi\n      dup1\n      0xa7e9f0d1\n      eq\n      tag_26\n      jumpi\n      dup1\n      0xb2288649\n      eq\n      tag_27\n      jumpi\n      dup1\n      0xb6fa5dfd\n      eq\n      tag_28\n      jumpi\n      dup1\n      0xbe69d7ff\n      eq\n      tag_29\n      jumpi\n      jump(tag_2)\n    tag_42:\n      dup1\n      0x9d76ea58\n      eq\n      tag_21\n      jumpi\n      dup1\n      0x9ec80702\n      eq\n      tag_22\n      jumpi\n      dup1\n      0xa0a7bda8\n      eq\n      tag_23\n      jumpi\n      dup1\n      0xa308761a\n      eq\n      tag_24\n      jumpi\n      jump(tag_2)\n    tag_39:\n      dup1\n      0x576aaa2b\n      gt\n      tag_43\n      jumpi\n      dup1\n      0x715018a6\n      gt\n      tag_44\n      jumpi\n      dup1\n      0x715018a6\n      eq\n      tag_16\n      jumpi\n      dup1\n      0x7eee9fc1\n      eq\n      tag_17\n      jumpi\n      dup1\n      0x8644024b\n      eq\n      tag_18\n      jumpi\n      dup1\n      0x890d542f\n      eq\n      tag_19\n      jumpi\n      dup1\n      0x8da5cb5b\n      eq\n      tag_20\n      jumpi\n      jump(tag_2)\n    tag_44:\n      dup1\n      0x576aaa2b\n      eq\n      tag_12\n      jumpi\n      dup1\n      0x5a3811b9\n      eq\n      tag_13\n      jumpi\n      dup1\n      0x602977ad\n      eq\n      tag_14\n      jumpi\n      dup1\n      0x636ad6a6\n      eq\n      tag_15\n      jumpi\n      jump(tag_2)\n    tag_43:\n      dup1\n      0x17c6332c\n      gt\n      tag_45\n      jumpi\n      dup1\n      0x17c6332c\n      eq\n      tag_7\n      jumpi\n      dup1\n      0x3631ef4a\n      eq\n      tag_8\n      jumpi\n      dup1\n      0x3fc7adb6\n      eq\n      tag_9\n      jumpi\n      dup1\n      0x4ba35125\n      eq\n      tag_10\n      jumpi\n      dup1\n      0x56e0bd36\n      eq\n      tag_11\n      jumpi\n      jump(tag_2)\n    tag_45:\n      dup1\n      0x013fc0ab\n      eq\n      tag_3\n      jumpi\n      dup1\n      0x13002437\n      eq\n      tag_4\n      jumpi\n      dup1\n      0x15981650\n      eq\n      tag_5\n      jumpi\n      dup1\n      0x160344e2\n      eq\n      tag_6\n      jumpi\n    tag_2:\n      0x00\n      dup1\n      revert\n        /* \"GoldenBUSDLotto.sol\":11608:11684  function announceLottery1() public onlyOwner(){... */\n    tag_3:\n      tag_46\n      tag_47\n      jump\t// in\n    tag_46:\n      stop\n        /* \"GoldenBUSDLotto.sol\":18566:19300  function allWinner2() public view returns(address[] memory){... */\n    tag_4:\n      tag_48\n      tag_49\n      jump\t// in\n    tag_48:\n      mload(0x40)\n      tag_50\n      swap2\n      swap1\n      tag_51\n      jump\t// in\n    tag_50:\n      mload(0x40)\n      dup1\n      swap2\n      sub\n      swap1\n      return\n        /* \"GoldenBUSDLotto.sol\":10129:10236  function setTicketPrice(uint256 _valueInEther) public onlyOwner{... */\n    tag_5:\n      tag_52\n      0x04\n      dup1\n      calldatasize\n      sub\n      dup2\n      add\n      swap1\n      tag_53\n      swap2\n      swap1\n      tag_54\n      jump\t// in\n    tag_53:\n      tag_55\n      jump\t// in\n    tag_52:\n      stop\n        /* \"GoldenBUSDLotto.sol\":11447:11527  function startLottery() public onlyOwner(){... */\n    tag_6:\n      tag_56\n      tag_57\n      jump\t// in\n    tag_56:\n      stop\n        /* \"GoldenBUSDLotto.sol\":10718:10835  function setMaximmNumbers2(uint256 _maxNumbers) public onlyOwner{... */\n    tag_7:\n      tag_58\n      0x04\n      dup1\n      calldatasize\n      sub\n      dup2\n      add\n      swap1\n      tag_59\n      swap2\n      swap1\n      tag_54\n      jump\t// in\n    tag_59:\n      tag_60\n      jump\t// in\n    tag_58:\n      stop\n        /* \"GoldenBUSDLotto.sol\":13250:13961  function joinLottery2(uint256 _amount)  external notOwner() noReentrant{... */\n    tag_8:\n      tag_61\n      0x04\n      dup1\n      calldatasize\n      sub\n      dup2\n      add\n      swap1\n      tag_62\n      swap2\n      swap1\n      tag_54\n      jump\t// in\n    tag_62:\n      tag_63\n      jump\t// in\n    tag_61:\n      stop\n        /* \"GoldenBUSDLotto.sol\":10476:10591  function setMaximmNumbers(uint256 _maxNumbers) public onlyOwner{... */\n    tag_9:\n      tag_64\n      0x04\n      dup1\n      calldatasize\n      sub\n      dup2\n      add\n      swap1\n      tag_65\n      swap2\n      swap1\n      tag_54\n      jump\t// in\n    tag_65:\n      tag_66\n      jump\t// in\n    tag_64:\n      stop\n        /* \"GoldenBUSDLotto.sol\":10596:10713  function setMaximmNumbers1(uint256 _maxNumbers) public onlyOwner{... */\n    tag_10:\n      tag_67\n      0x04\n      dup1\n      calldatasize\n      sub\n      dup2\n      add\n      swap1\n      tag_68\n      swap2\n      swap1\n      tag_54\n      jump\t// in\n    tag_68:\n      tag_69\n      jump\t// in\n    tag_67:\n      stop\n        /* \"GoldenBUSDLotto.sol\":9415:9446  address[] public winnerLottery1 */\n    tag_11:\n      tag_70\n      0x04\n      dup1\n      calldatasize\n      sub\n      dup2\n      add\n      swap1\n      tag_71\n      swap2\n      swap1\n      tag_54\n      jump\t// in\n    tag_71:\n      tag_72\n      jump\t// in\n    tag_70:\n      mload(0x40)\n      tag_73\n      swap2\n      swap1\n      tag_74\n      jump\t// in\n    tag_73:\n      mload(0x40)\n      dup1\n      swap2\n      sub\n      swap1\n      return\n        /* \"GoldenBUSDLotto.sol\":14141:14240  function getLotteryLength() public view returns(uint256){... */\n    tag_12:\n      tag_75\n      tag_76\n      jump\t// in\n    tag_75:\n      mload(0x40)\n      tag_77\n      swap2\n      swap1\n      tag_78\n      jump\t// in\n    tag_77:\n      mload(0x40)\n      dup1\n      swap2\n      sub\n      swap1\n      return\n        /* \"GoldenBUSDLotto.sol\":9339:9373  bool public lotteryStarted = false */\n    tag_13:\n      tag_79\n      tag_80\n      jump\t// in\n    tag_79:\n      mload(0x40)\n      tag_81\n      swap2\n      swap1\n      tag_82\n      jump\t// in\n    tag_81:\n      mload(0x40)\n      dup1\n      swap2\n      sub\n      swap1\n      return\n        /* \"GoldenBUSDLotto.sol\":14460:15362  function howMany(address ad) public view returns(uint256,uint256,uint256){... */\n    tag_14:\n      tag_83\n      0x04\n      dup1\n      calldatasize\n      sub\n      dup2\n      add\n      swap1\n      tag_84\n      swap2\n      swap1\n      tag_85\n      jump\t// in\n    tag_84:\n      tag_86\n      jump\t// in\n    tag_83:\n      mload(0x40)\n      tag_87\n      swap4\n      swap3\n      swap2\n      swap1\n      tag_88\n      jump\t// in\n    tag_87:\n      mload(0x40)\n      dup1\n      swap2\n      sub\n      swap1\n      return\n        /* \"GoldenBUSDLotto.sol\":10841:10933  function viewTicketPrice() external view returns(uint256){... */\n    tag_15:\n      tag_89\n      tag_90\n      jump\t// in\n    tag_89:\n      mload(0x40)\n      tag_91\n      swap2\n      swap1\n      tag_78\n      jump\t// in\n    tag_91:\n      mload(0x40)\n      dup1\n      swap2\n      sub\n      swap1\n      return\n        /* \"GoldenBUSDLotto.sol\":8237:8370  function renounceOwnership() public onlyOwner {... */\n    tag_16:\n      tag_92\n      tag_93\n      jump\t// in\n    tag_92:\n      stop\n        /* \"GoldenBUSDLotto.sol\":11771:12475  function joinLottery(uint256 _amount) external notOwner() noReentrant{... */\n    tag_17:\n      tag_94\n      0x04\n      dup1\n      calldatasize\n      sub\n      dup2\n      add\n      swap1\n      tag_95\n      swap2\n      swap1\n      tag_54\n      jump\t// in\n    tag_95:\n      tag_96\n      jump\t// in\n    tag_94:\n      stop\n        /* \"GoldenBUSDLotto.sol\":11037:11131  function viewTicketPrice2() external view returns(uint256){... */\n    tag_18:\n      tag_97\n      tag_98\n      jump\t// in\n    tag_97:\n      mload(0x40)\n      tag_99\n      swap2\n      swap1\n      tag_78\n      jump\t// in\n    tag_99:\n      mload(0x40)\n      dup1\n      swap2\n      sub\n      swap1\n      return\n        /* \"GoldenBUSDLotto.sol\":9452:9483  address[] public winnerLottery2 */\n    tag_19:\n      tag_100\n      0x04\n      dup1\n      calldatasize\n      sub\n      dup2\n      add\n      swap1\n      tag_101\n      swap2\n      swap1\n      tag_54\n      jump\t// in\n    tag_101:\n      tag_102\n      jump\t// in\n    tag_100:\n      mload(0x40)\n      tag_103\n      swap2\n      swap1\n      tag_74\n      jump\t// in\n    tag_103:\n      mload(0x40)\n      dup1\n      swap2\n      sub\n      swap1\n      return\n        /* \"GoldenBUSDLotto.sol\":7934:8009  function owner() public view returns (address) {... */\n    tag_20:\n      tag_104\n      tag_105\n      jump\t// in\n    tag_104:\n      mload(0x40)\n      tag_106\n      swap2\n      swap1\n      tag_74\n      jump\t// in\n    tag_106:\n      mload(0x40)\n      dup1\n      swap2\n      sub\n      swap1\n      return\n        /* \"GoldenBUSDLotto.sol\":9489:9516  address public tokenAddress */\n    tag_21:\n      tag_107\n      tag_108\n      jump\t// in\n    tag_107:\n      mload(0x40)\n      tag_109\n      swap2\n      swap1\n      tag_74\n      jump\t// in\n    tag_109:\n      mload(0x40)\n      dup1\n      swap2\n      sub\n      swap1\n      return\n        /* \"GoldenBUSDLotto.sol\":11136:11233  function viewTicket() external view returns(uint256){... */\n    tag_22:\n      tag_110\n      tag_111\n      jump\t// in\n    tag_110:\n      mload(0x40)\n      tag_112\n      swap2\n      swap1\n      tag_78\n      jump\t// in\n    tag_112:\n      mload(0x40)\n      dup1\n      swap2\n      sub\n      swap1\n      return\n        /* \"GoldenBUSDLotto.sol\":14353:14454  function getLottery2Length() public view returns(uint256){... */\n    tag_23:\n      tag_113\n      tag_114\n      jump\t// in\n    tag_113:\n      mload(0x40)\n      tag_115\n      swap2\n      swap1\n      tag_78\n      jump\t// in\n    tag_115:\n      mload(0x40)\n      dup1\n      swap2\n      sub\n      swap1\n      return\n        /* \"GoldenBUSDLotto.sol\":11238:11337  function viewTicket1() external view returns(uint256){... */\n    tag_24:\n      tag_116\n      tag_117\n      jump\t// in\n    tag_116:\n      mload(0x40)\n      tag_118\n      swap2\n      swap1\n      tag_78\n      jump\t// in\n    tag_118:\n      mload(0x40)\n      dup1\n      swap2\n      sub\n      swap1\n      return\n        /* \"GoldenBUSDLotto.sol\":14246:14347  function getLottery1Length() public view returns(uint256){... */\n    tag_25:\n      tag_119\n      tag_120\n      jump\t// in\n    tag_119:\n      mload(0x40)\n      tag_121\n      swap2\n      swap1\n      tag_78\n      jump\t// in\n    tag_121:\n      mload(0x40)\n      dup1\n      swap2\n      sub\n      swap1\n      return\n        /* \"GoldenBUSDLotto.sol\":17074:17820  function allWinner() public view returns(address[] memory){... */\n    tag_26:\n      tag_122\n      tag_123\n      jump\t// in\n    tag_122:\n      mload(0x40)\n      tag_124\n      swap2\n      swap1\n      tag_51\n      jump\t// in\n    tag_124:\n      mload(0x40)\n      dup1\n      swap2\n      sub\n      swap1\n      return\n        /* \"GoldenBUSDLotto.sol\":10002:10119  function lotteryBalance() public view returns(uint256) {... */\n    tag_27:\n      tag_125\n      tag_126\n      jump\t// in\n    tag_125:\n      mload(0x40)\n      tag_127\n      swap2\n      swap1\n      tag_78\n      jump\t// in\n    tag_127:\n      mload(0x40)\n      dup1\n      swap2\n      sub\n      swap1\n      return\n        /* \"GoldenBUSDLotto.sol\":9522:9549  IERC20 public BusdInterface */\n    tag_28:\n      tag_128\n      tag_129\n      jump\t// in\n    tag_128:\n      mload(0x40)\n      tag_130\n      swap2\n      swap1\n      tag_131\n      jump\t// in\n    tag_130:\n      mload(0x40)\n      dup1\n      swap2\n      sub\n      swap1\n      return\n        /* \"GoldenBUSDLotto.sol\":11685:11761  function announceLottery2() public onlyOwner(){... */\n    tag_29:\n      tag_132\n      tag_133\n      jump\t// in\n    tag_132:\n      stop\n        /* \"GoldenBUSDLotto.sol\":12481:13240  function joinLottery1(uint256 _amount) external notOwner() noReentrant{... */\n    tag_30:\n      tag_134\n      0x04\n      dup1\n      calldatasize\n      sub\n      dup2\n      add\n      swap1\n      tag_135\n      swap2\n      swap1\n      tag_54\n      jump\t// in\n    tag_135:\n      tag_136\n      jump\t// in\n    tag_134:\n      stop\n        /* \"GoldenBUSDLotto.sol\":17826:18560  function allWinner1() public view returns(address[] memory){... */\n    tag_31:\n      tag_137\n      tag_138\n      jump\t// in\n    tag_137:\n      mload(0x40)\n      tag_139\n      swap2\n      swap1\n      tag_51\n      jump\t// in\n    tag_139:\n      mload(0x40)\n      dup1\n      swap2\n      sub\n      swap1\n      return\n        /* \"GoldenBUSDLotto.sol\":11342:11441  function viewTicket2() external view returns(uint256){... */\n    tag_32:\n      tag_140\n      tag_141\n      jump\t// in\n    tag_140:\n      mload(0x40)\n      tag_142\n      swap2\n      swap1\n      tag_78\n      jump\t// in\n    tag_142:\n      mload(0x40)\n      dup1\n      swap2\n      sub\n      swap1\n      return\n        /* \"GoldenBUSDLotto.sol\":10242:10351  function setTicketPrice1(uint256 _valueInEther) public onlyOwner{... */\n    tag_33:\n      tag_143\n      0x04\n      dup1\n      calldatasize\n      sub\n      dup2\n      add\n      swap1\n      tag_144\n      swap2\n      swap1\n      tag_54\n      jump\t// in\n    tag_144:\n      tag_145\n      jump\t// in\n    tag_143:\n      stop\n        /* \"GoldenBUSDLotto.sol\":10938:11032  function viewTicketPrice1() external view returns(uint256){... */\n    tag_34:\n      tag_146\n      tag_147\n      jump\t// in\n    tag_146:\n      mload(0x40)\n      tag_148\n      swap2\n      swap1\n      tag_78\n      jump\t// in\n    tag_148:\n      mload(0x40)\n      dup1\n      swap2\n      sub\n      swap1\n      return\n        /* \"GoldenBUSDLotto.sol\":10357:10466  function setTicketPrice2(uint256 _valueInEther) public onlyOwner{... */\n    tag_35:\n      tag_149\n      0x04\n      dup1\n      calldatasize\n      sub\n      dup2\n      add\n      swap1\n      tag_150\n      swap2\n      swap1\n      tag_54\n      jump\t// in\n    tag_150:\n      tag_151\n      jump\t// in\n    tag_149:\n      stop\n        /* \"GoldenBUSDLotto.sol\":9379:9409  address[] public winnerLottery */\n    tag_36:\n      tag_152\n      0x04\n      dup1\n      calldatasize\n      sub\n      dup2\n      add\n      swap1\n      tag_153\n      swap2\n      swap1\n      tag_54\n      jump\t// in\n    tag_153:\n      tag_154\n      jump\t// in\n    tag_152:\n      mload(0x40)\n      tag_155\n      swap2\n      swap1\n      tag_74\n      jump\t// in\n    tag_155:\n      mload(0x40)\n      dup1\n      swap2\n      sub\n      swap1\n      return\n        /* \"GoldenBUSDLotto.sol\":8376:8481  function transferOwnership(address newOwner) public onlyOwner {... */\n    tag_37:\n      tag_156\n      0x04\n      dup1\n      calldatasize\n      sub\n      dup2\n      add\n      swap1\n      tag_157\n      swap2\n      swap1\n      tag_85\n      jump\t// in\n    tag_157:\n      tag_158\n      jump\t// in\n    tag_156:\n      stop\n        /* \"GoldenBUSDLotto.sol\":11533:11607  function announceLottery() public onlyOwner(){... */\n    tag_38:\n      tag_159\n      tag_160\n      jump\t// in\n    tag_159:\n      stop\n        /* \"GoldenBUSDLotto.sol\":11608:11684  function announceLottery1() public onlyOwner(){... */\n    tag_47:\n        /* \"GoldenBUSDLotto.sol\":8066:8078  _msgSender() */\n      tag_162\n        /* \"GoldenBUSDLotto.sol\":8066:8076  _msgSender */\n      tag_163\n        /* \"GoldenBUSDLotto.sol\":8066:8078  _msgSender() */\n      jump\t// in\n    tag_162:\n        /* \"GoldenBUSDLotto.sol\":8056:8078  _owner == _msgSender() */\n      0xffffffffffffffffffffffffffffffffffffffff\n      and\n        /* \"GoldenBUSDLotto.sol\":8056:8062  _owner */\n      0x00\n      0x01\n      swap1\n      sload\n      swap1\n      0x0100\n      exp\n      swap1\n      div\n      0xffffffffffffffffffffffffffffffffffffffff\n      and\n        /* \"GoldenBUSDLotto.sol\":8056:8078  _owner == _msgSender() */\n      0xffffffffffffffffffffffffffffffffffffffff\n      and\n      eq\n        /* \"GoldenBUSDLotto.sol\":8048:8115  require(_owner == _msgSender(), \"Ownable: caller is not the owner\") */\n      tag_164\n      jumpi\n      mload(0x40)\n      0x08c379a000000000000000000000000000000000000000000000000000000000\n      dup2\n      mstore\n      0x04\n      add\n      tag_165\n      swap1\n      tag_166\n      jump\t// in\n    tag_165:\n      mload(0x40)\n      dup1\n      swap2\n      sub\n      swap1\n      revert\n    tag_164:\n        /* \"GoldenBUSDLotto.sol\":11664:11677  pickwinner1() */\n      tag_168\n        /* \"GoldenBUSDLotto.sol\":11664:11675  pickwinner1 */\n      tag_169\n        /* \"GoldenBUSDLotto.sol\":11664:11677  pickwinner1() */\n      jump\t// in\n    tag_168:\n        /* \"GoldenBUSDLotto.sol\":11608:11684  function announceLottery1() public onlyOwner(){... */\n      jump\t// out\n        /* \"GoldenBUSDLotto.sol\":18566:19300  function allWinner2() public view returns(address[] memory){... */\n    tag_49:\n        /* \"GoldenBUSDLotto.sol\":18608:18624  address[] memory */\n      0x60\n        /* \"GoldenBUSDLotto.sol\":18635:18658  address[] memory result */\n      0x00\n        /* \"GoldenBUSDLotto.sol\":18674:18676  17 */\n      0x11\n        /* \"GoldenBUSDLotto.sol\":18660:18677  new address[](17) */\n      0xffffffffffffffff\n      dup2\n      gt\n      iszero\n      tag_171\n      jumpi\n      tag_172\n      tag_173\n      jump\t// in\n    tag_172:\n    tag_171:\n      mload(0x40)\n      swap1\n      dup1\n      dup3\n      mstore\n      dup1\n      0x20\n      mul\n      0x20\n      add\n      dup3\n      add\n      0x40\n      mstore\n      dup1\n      iszero\n      tag_174\n      jumpi\n      dup2\n      0x20\n      add\n      0x20\n      dup3\n      mul\n      dup1\n      calldatasize\n      dup4\n      calldatacopy\n      dup1\n      dup3\n      add\n      swap2\n      pop\n      pop\n      swap1\n      pop\n    tag_174:\n      pop\n        /* \"GoldenBUSDLotto.sol\":18635:18677  address[] memory result= new address[](17) */\n      swap1\n      pop\n        /* \"GoldenBUSDLotto.sol\":18687:18706  uint256 arrayLength */\n      0x00\n        /* \"GoldenBUSDLotto.sol\":18709:18723  winnerLottery2 */\n      0x12\n        /* \"GoldenBUSDLotto.sol\":18709:18730  winnerLottery2.length */\n      dup1\n      sload\n      swap1\n      pop\n        /* \"GoldenBUSDLotto.sol\":18687:18730  uint256 arrayLength = winnerLottery2.length */\n      swap1\n      pop\n        /* \"GoldenBUSDLotto.sol\":18740:18760  uint256 resultLength */\n      0x00\n        /* \"GoldenBUSDLotto.sol\":18763:18769  result */\n      dup3\n        /* \"GoldenBUSDLotto.sol\":18763:18776  result.length */\n      mload\n        /* \"GoldenBUSDLotto.sol\":18740:18776  uint256 resultLength = result.length */\n      swap1\n      pop\n        /* \"GoldenBUSDLotto.sol\":18786:18799  uint256 index */\n      0x00\n        /* \"GoldenBUSDLotto.sol\":18827:18829  10 */\n      0x0a\n        /* \"GoldenBUSDLotto.sol\":18815:18826  arrayLength */\n      dup4\n        /* \"GoldenBUSDLotto.sol\":18815:18829  arrayLength>10 */\n      gt\n        /* \"GoldenBUSDLotto.sol\":18812:19271  if(arrayLength>10){... */\n      iszero\n      tag_175\n      jumpi\n        /* \"GoldenBUSDLotto.sol\":18849:18858  uint256 i */\n      0x00\n        /* \"GoldenBUSDLotto.sol\":18859:18870  arrayLength */\n      dup4\n        /* \"GoldenBUSDLotto.sol\":18849:18870  uint256 i=arrayLength */\n      swap1\n      pop\n        /* \"GoldenBUSDLotto.sol\":18844:19000  for (uint256 i=arrayLength; i>(arrayLength-10); i--) {... */\n    tag_176:\n        /* \"GoldenBUSDLotto.sol\":18887:18889  10 */\n      0x0a\n        /* \"GoldenBUSDLotto.sol\":18875:18886  arrayLength */\n      dup5\n        /* \"GoldenBUSDLotto.sol\":18875:18889  arrayLength-10 */\n      tag_179\n      swap2\n      swap1\n      tag_180\n      jump\t// in\n    tag_179:\n        /* \"GoldenBUSDLotto.sol\":18872:18873  i */\n      dup2\n        /* \"GoldenBUSDLotto.sol\":18872:18890  i>(arrayLength-10) */\n      gt\n        /* \"GoldenBUSDLotto.sol\":18844:19000  for (uint256 i=arrayLength; i>(arrayLength-10); i--) {... */\n      iszero\n      tag_177\n      jumpi\n        /* \"GoldenBUSDLotto.sol\":18915:18929  resultLength++ */\n      dup3\n      dup1\n      tag_181\n      swap1\n      tag_182\n      jump\t// in\n    tag_181:\n      swap4\n      pop\n      pop\n        /* \"GoldenBUSDLotto.sol\":18968:18982  winnerLottery2 */\n      0x12\n        /* \"GoldenBUSDLotto.sol\":18983:18984  i */\n      dup2\n        /* \"GoldenBUSDLotto.sol\":18968:18985  winnerLottery2[i] */\n      dup2\n      sload\n      dup2\n      lt\n      tag_183\n      jumpi\n      tag_184\n      tag_185\n      jump\t// in\n    tag_184:\n    tag_183:\n      swap1\n      0x00\n      mstore\n      keccak256(0x00, 0x20)\n      add\n      0x00\n      swap1\n      sload\n      swap1\n      0x0100\n      exp\n      swap1\n      div\n      0xffffffffffffffffffffffffffffffffffffffff\n      and\n        /* \"GoldenBUSDLotto.sol\":18947:18953  result */\n      dup6\n        /* \"GoldenBUSDLotto.sol\":18954:18966  resultLength */\n      dup5\n        /* \"GoldenBUSDLotto.sol\":18947:18967  result[resultLength] */\n      dup2\n      mload\n      dup2\n      lt\n      tag_187\n      jumpi\n      tag_188\n      tag_185\n      jump\t// in\n    tag_188:\n    tag_187:\n      0x20\n      mul\n      0x20\n      add\n      add\n        /* \"GoldenBUSDLotto.sol\":18947:18985  result[resultLength]=winnerLottery2[i] */\n      swap1\n      0xffffffffffffffffffffffffffffffffffffffff\n      and\n      swap1\n      dup2\n      0xffffffffffffffffffffffffffffffffffffffff\n      and\n      dup2\n      mstore\n      pop\n      pop\n        /* \"GoldenBUSDLotto.sol\":18892:18895  i-- */\n      dup1\n      dup1\n      tag_189\n      swap1\n      tag_190\n      jump\t// in\n    tag_189:\n      swap2\n      pop\n      pop\n        /* \"GoldenBUSDLotto.sol\":18844:19000  for (uint256 i=arrayLength; i>(arrayLength-10); i--) {... */\n      jump(tag_176)\n    tag_177:\n      pop\n        /* \"GoldenBUSDLotto.sol\":18812:19271  if(arrayLength>10){... */\n      jump(tag_191)\n    tag_175:\n        /* \"GoldenBUSDLotto.sol\":19043:19052  uint256 i */\n      0x00\n        /* \"GoldenBUSDLotto.sol\":19053:19064  arrayLength */\n      dup4\n        /* \"GoldenBUSDLotto.sol\":19043:19064  uint256 i=arrayLength */\n      swap1\n      pop\n        /* \"GoldenBUSDLotto.sol\":19038:19261  for (uint256 i=arrayLength; i>0; i--) {... */\n    tag_192:\n        /* \"GoldenBUSDLotto.sol\":19068:19069  0 */\n      0x00\n        /* \"GoldenBUSDLotto.sol\":19066:19067  i */\n      dup2\n        /* \"GoldenBUSDLotto.sol\":19066:19069  i>0 */\n      gt\n        /* \"GoldenBUSDLotto.sol\":19038:19261  for (uint256 i=arrayLength; i>0; i--) {... */\n      iszero\n      tag_193\n      jumpi\n        /* \"GoldenBUSDLotto.sol\":19094:19108  resultLength++ */\n      dup3\n      dup1\n      tag_195\n      swap1\n      tag_182\n      jump\t// in\n    tag_195:\n      swap4\n      pop\n      pop\n        /* \"GoldenBUSDLotto.sol\":19126:19150  address payable _address */\n      0x00\n        /* \"GoldenBUSDLotto.sol\":19161:19175  winnerLottery2 */\n      0x12\n        /* \"GoldenBUSDLotto.sol\":19178:19179  1 */\n      0x01\n        /* \"GoldenBUSDLotto.sol\":19176:19177  i */\n      dup4\n        /* \"GoldenBUSDLotto.sol\":19176:19179  i-1 */\n      tag_196\n      swap2\n      swap1\n      tag_180\n      jump\t// in\n    tag_196:\n        /* \"GoldenBUSDLotto.sol\":19161:19180  winnerLottery2[i-1] */\n      dup2\n      sload\n      dup2\n      lt\n      tag_197\n      jumpi\n      tag_198\n      tag_185\n      jump\t// in\n    tag_198:\n    tag_197:\n      swap1\n      0x00\n      mstore\n      keccak256(0x00, 0x20)\n      add\n      0x00\n      swap1\n      sload\n      swap1\n      0x0100\n      exp\n      swap1\n      div\n      0xffffffffffffffffffffffffffffffffffffffff\n      and\n        /* \"GoldenBUSDLotto.sol\":19126:19181  address payable _address = payable(winnerLottery2[i-1]) */\n      swap1\n      pop\n        /* \"GoldenBUSDLotto.sol\":19213:19221  _address */\n      dup1\n        /* \"GoldenBUSDLotto.sol\":19199:19205  result */\n      dup7\n        /* \"GoldenBUSDLotto.sol\":19206:19211  index */\n      dup5\n        /* \"GoldenBUSDLotto.sol\":19199:19212  result[index] */\n      dup2\n      mload\n      dup2\n      lt\n      tag_200\n      jumpi\n      tag_201\n      tag_185\n      jump\t// in\n    tag_201:\n    tag_200:\n      0x20\n      mul\n      0x20\n      add\n      add\n        /* \"GoldenBUSDLotto.sol\":19199:19221  result[index]=_address */\n      swap1\n      0xffffffffffffffffffffffffffffffffffffffff\n      and\n      swap1\n      dup2\n      0xffffffffffffffffffffffffffffffffffffffff\n      and\n      dup2\n      mstore\n      pop\n      pop\n        /* \"GoldenBUSDLotto.sol\":19239:19246  index++ */\n      dup3\n      dup1\n      tag_202\n      swap1\n      tag_182\n      jump\t// in\n    tag_202:\n      swap4\n      pop\n      pop\n        /* \"GoldenBUSDLotto.sol\":19076:19261  {... */\n      pop\n        /* \"GoldenBUSDLotto.sol\":19071:19074  i-- */\n      dup1\n      dup1\n      tag_203\n      swap1\n      tag_190\n      jump\t// in\n    tag_203:\n      swap2\n      pop\n      pop\n        /* \"GoldenBUSDLotto.sol\":19038:19261  for (uint256 i=arrayLength; i>0; i--) {... */\n      jump(tag_192)\n    tag_193:\n      pop\n        /* \"GoldenBUSDLotto.sol\":18812:19271  if(arrayLength>10){... */\n    tag_191:\n        /* \"GoldenBUSDLotto.sol\":19287:19293  result */\n      dup4\n        /* \"GoldenBUSDLotto.sol\":19280:19293  return result */\n      swap5\n      pop\n      pop\n      pop\n      pop\n      pop\n        /* \"GoldenBUSDLotto.sol\":18566:19300  function allWinner2() public view returns(address[] memory){... */\n      swap1\n      jump\t// out\n        /* \"GoldenBUSDLotto.sol\":10129:10236  function setTicketPrice(uint256 _valueInEther) public onlyOwner{... */\n    tag_55:\n        /* \"GoldenBUSDLotto.sol\":8066:8078  _msgSender() */\n      tag_205\n        /* \"GoldenBUSDLotto.sol\":8066:8076  _msgSender */\n      tag_163\n        /* \"GoldenBUSDLotto.sol\":8066:8078  _msgSender() */\n      jump\t// in\n    tag_205:\n        /* \"GoldenBUSDLotto.sol\":8056:8078  _owner == _msgSender() */\n      0xffffffffffffffffffffffffffffffffffffffff\n      and\n        /* \"GoldenBUSDLotto.sol\":8056:8062  _owner */\n      0x00\n      0x01\n      swap1\n      sload\n      swap1\n      0x0100\n      exp\n      swap1\n      div\n      0xffffffffffffffffffffffffffffffffffffffff\n      and\n        /* \"GoldenBUSDLotto.sol\":8056:8078  _owner == _msgSender() */\n      0xffffffffffffffffffffffffffffffffffffffff\n      and\n      eq\n        /* \"GoldenBUSDLotto.sol\":8048:8115  require(_owner == _msgSender(), \"Ownable: caller is not the owner\") */\n      tag_206\n      jumpi\n      mload(0x40)\n      0x08c379a000000000000000000000000000000000000000000000000000000000\n      dup2\n      mstore\n      0x04\n      add\n      tag_207\n      swap1\n      tag_166\n      jump\t// in\n    tag_207:\n      mload(0x40)\n      dup1\n      swap2\n      sub\n      swap1\n      revert\n    tag_206:\n        /* \"GoldenBUSDLotto.sol\":10216:10229  _valueInEther */\n      dup1\n        /* \"GoldenBUSDLotto.sol\":10202:10213  ticketPrice */\n      0x05\n        /* \"GoldenBUSDLotto.sol\":10202:10229  ticketPrice = _valueInEther */\n      dup2\n      swap1\n      sstore\n      pop\n        /* \"GoldenBUSDLotto.sol\":10129:10236  function setTicketPrice(uint256 _valueInEther) public onlyOwner{... */\n      pop\n      jump\t// out\n        /* \"GoldenBUSDLotto.sol\":11447:11527  function startLottery() public onlyOwner(){... */\n    tag_57:\n        /* \"GoldenBUSDLotto.sol\":8066:8078  _msgSender() */\n      tag_210\n        /* \"GoldenBUSDLotto.sol\":8066:8076  _msgSender */\n      tag_163\n        /* \"GoldenBUSDLotto.sol\":8066:8078  _msgSender() */\n      jump\t// in\n    tag_210:\n        /* \"GoldenBUSDLotto.sol\":8056:8078  _owner == _msgSender() */\n      0xffffffffffffffffffffffffffffffffffffffff\n      and\n        /* \"GoldenBUSDLotto.sol\":8056:8062  _owner */\n      0x00\n      0x01\n      swap1\n      sload\n      swap1\n      0x0100\n      exp\n      swap1\n      div\n      0xffffffffffffffffffffffffffffffffffffffff\n      and\n        /* \"GoldenBUSDLotto.sol\":8056:8078  _owner == _msgSender() */\n      0xffffffffffffffffffffffffffffffffffffffff\n      and\n      eq\n        /* \"GoldenBUSDLotto.sol\":8048:8115  require(_owner == _msgSender(), \"Ownable: caller is not the owner\") */\n      tag_211\n      jumpi\n      mload(0x40)\n      0x08c379a000000000000000000000000000000000000000000000000000000000\n      dup2\n      mstore\n      0x04\n      add\n      tag_212\n      swap1\n      tag_166\n      jump\t// in\n    tag_212:\n      mload(0x40)\n      dup1\n      swap2\n      sub\n      swap1\n      revert\n    tag_211:\n        /* \"GoldenBUSDLotto.sol\":11516:11520  true */\n      0x01\n        /* \"GoldenBUSDLotto.sol\":11499:11513  lotteryStarted */\n      0x0f\n      0x00\n        /* \"GoldenBUSDLotto.sol\":11499:11520  lotteryStarted = true */\n      0x0100\n      exp\n      dup2\n      sload\n      dup2\n      0xff\n      mul\n      not\n      and\n      swap1\n      dup4\n      iszero\n      iszero\n      mul\n      or\n      swap1\n      sstore\n      pop\n        /* \"GoldenBUSDLotto.sol\":11447:11527  function startLottery() public onlyOwner(){... */\n      jump\t// out\n        /* \"GoldenBUSDLotto.sol\":10718:10835  function setMaximmNumbers2(uint256 _maxNumbers) public onlyOwner{... */\n    tag_60:\n        /* \"GoldenBUSDLotto.sol\":8066:8078  _msgSender() */\n      tag_215\n        /* \"GoldenBUSDLotto.sol\":8066:8076  _msgSender */\n      tag_163\n        /* \"GoldenBUSDLotto.sol\":8066:8078  _msgSender() */\n      jump\t// in\n    tag_215:\n        /* \"GoldenBUSDLotto.sol\":8056:8078  _owner == _msgSender() */\n      0xffffffffffffffffffffffffffffffffffffffff\n      and\n        /* \"GoldenBUSDLotto.sol\":8056:8062  _owner */\n      0x00\n      0x01\n      swap1\n      sload\n      swap1\n      0x0100\n      exp\n      swap1\n      div\n      0xffffffffffffffffffffffffffffffffffffffff\n      and\n        /* \"GoldenBUSDLotto.sol\":8056:8078  _owner == _msgSender() */\n      0xffffffffffffffffffffffffffffffffffffffff\n      and\n      eq\n        /* \"GoldenBUSDLotto.sol\":8048:8115  require(_owner == _msgSender(), \"Ownable: caller is not the owner\") */\n      tag_216\n      jumpi\n      mload(0x40)\n      0x08c379a000000000000000000000000000000000000000000000000000000000\n      dup2\n      mstore\n      0x04\n      add\n      tag_217\n      swap1\n      tag_166\n      jump\t// in\n    tag_217:\n      mload(0x40)\n      dup1\n      swap2\n      sub\n      swap1\n      revert\n    tag_216:\n        /* \"GoldenBUSDLotto.sol\":10817:10828  _maxNumbers */\n      dup1\n        /* \"GoldenBUSDLotto.sol\":10792:10814  maxParticipantNumbers2 */\n      0x0b\n        /* \"GoldenBUSDLotto.sol\":10792:10828  maxParticipantNumbers2 = _maxNumbers */\n      dup2\n      swap1\n      sstore\n      pop\n        /* \"GoldenBUSDLotto.sol\":10718:10835  function setMaximmNumbers2(uint256 _maxNumbers) public onlyOwner{... */\n      pop\n      jump\t// out\n        /* \"GoldenBUSDLotto.sol\":13250:13961  function joinLottery2(uint256 _amount)  external notOwner() noReentrant{... */\n    tag_63:\n        /* \"GoldenBUSDLotto.sol\":8188:8194  _owner */\n      0x00\n      0x01\n      swap1\n      sload\n      swap1\n      0x0100\n      exp\n      swap1\n      div\n      0xffffffffffffffffffffffffffffffffffffffff\n      and\n        /* \"GoldenBUSDLotto.sol\":8174:8194  msg.sender != _owner */\n      0xffffffffffffffffffffffffffffffffffffffff\n      and\n        /* \"GoldenBUSDLotto.sol\":8174:8184  msg.sender */\n      caller\n        /* \"GoldenBUSDLotto.sol\":8174:8194  msg.sender != _owner */\n      0xffffffffffffffffffffffffffffffffffffffff\n      and\n      sub\n        /* \"GoldenBUSDLotto.sol\":8166:8213  require(msg.sender != _owner, \"Access denied!\") */\n      tag_220\n      jumpi\n      mload(0x40)\n      0x08c379a000000000000000000000000000000000000000000000000000000000\n      dup2\n      mstore\n      0x04\n      add\n      tag_221\n      swap1\n      tag_222\n      jump\t// in\n    tag_221:\n      mload(0x40)\n      dup1\n      swap2\n      sub\n      swap1\n      revert\n    tag_220:\n        /* \"GoldenBUSDLotto.sol\":7137:7143  locked */\n      0x00\n      dup1\n      sload\n      swap1\n      0x0100\n      exp\n      swap1\n      div\n      0xff\n      and\n        /* \"GoldenBUSDLotto.sol\":7136:7143  !locked */\n      iszero\n        /* \"GoldenBUSDLotto.sol\":7128:7162  require(!locked, \"No re-entrancy\") */\n      tag_224\n      jumpi\n      mload(0x40)\n      0x08c379a000000000000000000000000000000000000000000000000000000000\n      dup2\n      mstore\n      0x04\n      add\n      tag_225\n      swap1\n      tag_226\n      jump\t// in\n    tag_225:\n      mload(0x40)\n      dup1\n      swap2\n      sub\n      swap1\n      revert\n    tag_224:\n        /* \"GoldenBUSDLotto.sol\":7181:7185  true */\n      0x01\n        /* \"GoldenBUSDLotto.sol\":7172:7178  locked */\n      0x00\n      dup1\n        /* \"GoldenBUSDLotto.sol\":7172:7185  locked = true */\n      0x0100\n      exp\n      dup2\n      sload\n      dup2\n      0xff\n      mul\n      not\n      and\n      swap1\n      dup4\n      iszero\n      iszero\n      mul\n      or\n      swap1\n      sstore\n      pop\n        /* \"GoldenBUSDLotto.sol\":13339:13353  lotteryStarted */\n      0x0f\n      0x00\n      swap1\n      sload\n      swap1\n      0x0100\n      exp\n      swap1\n      div\n      0xff\n      and\n        /* \"GoldenBUSDLotto.sol\":13331:13385  require(lotteryStarted , \"Lottery is not started yet\") */\n      tag_228\n      jumpi\n      mload(0x40)\n      0x08c379a000000000000000000000000000000000000000000000000000000000\n      dup2\n      mstore\n      0x04\n      add\n      tag_229\n      swap1\n      tag_230\n      jump\t// in\n    tag_229:\n      mload(0x40)\n      dup1\n      swap2\n      sub\n      swap1\n      revert\n    tag_228:\n        /* \"GoldenBUSDLotto.sol\":13414:13426  ticketPrice2 */\n      sload(0x0d)\n        /* \"GoldenBUSDLotto.sol\":13403:13410  _amount */\n      dup2\n        /* \"GoldenBUSDLotto.sol\":13403:13426  _amount == ticketPrice2 */\n      eq\n        /* \"GoldenBUSDLotto.sol\":13395:13439  require(_amount == ticketPrice2,\"Not Same\" ) */\n      tag_231\n      jumpi\n      mload(0x40)\n      0x08c379a000000000000000000000000000000000000000000000000000000000\n      dup2\n      mstore\n      0x04\n      add\n      tag_232\n      swap1\n      tag_233\n      jump\t// in\n    tag_232:\n      mload(0x40)\n      dup1\n      swap2\n      sub\n      swap1\n      revert\n    tag_231:\n        /* \"GoldenBUSDLotto.sol\":13449:13457  bool chk */\n      0x00\n        /* \"GoldenBUSDLotto.sol\":13459:13472  BusdInterface */\n      0x14\n      0x00\n      swap1\n      sload\n      swap1\n      0x0100\n      exp\n      swap1\n      div\n      0xffffffffffffffffffffffffffffffffffffffff\n      and\n        /* \"GoldenBUSDLotto.sol\":13459:13485  BusdInterface.transferFrom */\n      0xffffffffffffffffffffffffffffffffffffffff\n      and\n      0x23b872dd\n        /* \"GoldenBUSDLotto.sol\":13486:13496  msg.sender */\n      caller\n        /* \"GoldenBUSDLotto.sol\":13505:13509  this */\n      address\n        /* \"GoldenBUSDLotto.sol\":13511:13518  _amount */\n      dup6\n        /* \"GoldenBUSDLotto.sol\":13459:13519  BusdInterface.transferFrom(msg.sender,address(this),_amount) */\n      mload(0x40)\n      dup5\n      0xffffffff\n      and\n      0xe0\n      shl\n      dup2\n      mstore\n      0x04\n      add\n      tag_234\n      swap4\n      swap3\n      swap2\n      swap1\n      tag_235\n      jump\t// in\n    tag_234:\n      0x20\n      mload(0x40)\n      dup1\n      dup4\n      sub\n      dup2\n      0x00\n      dup8\n      gas\n      call\n      iszero\n      dup1\n      iszero\n      tag_237\n      jumpi\n      returndatasize\n      0x00\n      dup1\n      returndatacopy\n      revert(0x00, returndatasize)\n    tag_237:\n      pop\n      pop\n      pop\n      pop\n      mload(0x40)\n      returndatasize\n      not(0x1f)\n      0x1f\n      dup3\n      add\n      and\n      dup3\n      add\n      dup1\n      0x40\n      mstore\n      pop\n      dup2\n      add\n      swap1\n      tag_238\n      swap2\n      swap1\n      tag_239\n      jump\t// in\n    tag_238:\n        /* \"GoldenBUSDLotto.sol\":13449:13519  bool chk= BusdInterface.transferFrom(msg.sender,address(this),_amount) */\n      swap1\n      pop\n        /* \"GoldenBUSDLotto.sol\":13532:13535  chk */\n      dup1\n        /* \"GoldenBUSDLotto.sol\":13529:13955  if(chk){... */\n      iszero\n      tag_240\n      jumpi\n        /* \"GoldenBUSDLotto.sol\":13576:13598  maxParticipantNumbers2 */\n      sload(0x0b)\n        /* \"GoldenBUSDLotto.sol\":13554:13573  participantNumbers2 */\n      sload(0x0c)\n        /* \"GoldenBUSDLotto.sol\":13554:13598  participantNumbers2 < maxParticipantNumbers2 */\n      lt\n        /* \"GoldenBUSDLotto.sol\":13550:13945  if (participantNumbers2 < maxParticipantNumbers2){... */\n      iszero\n      tag_241\n      jumpi\n        /* \"GoldenBUSDLotto.sol\":13617:13630  participants2 */\n      0x0e\n        /* \"GoldenBUSDLotto.sol\":13644:13654  msg.sender */\n      caller\n        /* \"GoldenBUSDLotto.sol\":13617:13656  participants2.push(payable(msg.sender)) */\n      swap1\n      dup1\n      0x01\n      dup2\n      sload\n      add\n      dup1\n      dup3\n      sstore\n      dup1\n      swap2\n      pop\n      pop\n      0x01\n      swap1\n      sub\n      swap1\n      0x00\n      mstore\n      keccak256(0x00, 0x20)\n      add\n      0x00\n      swap1\n      swap2\n      swap1\n      swap2\n      swap1\n      swap2\n      0x0100\n      exp\n      dup2\n      sload\n      dup2\n      0xffffffffffffffffffffffffffffffffffffffff\n      mul\n      not\n      and\n      swap1\n      dup4\n      0xffffffffffffffffffffffffffffffffffffffff\n      and\n      mul\n      or\n      swap1\n      sstore\n      pop\n        /* \"GoldenBUSDLotto.sol\":13674:13693  participantNumbers2 */\n      0x0c\n      0x00\n        /* \"GoldenBUSDLotto.sol\":13674:13695  participantNumbers2++ */\n      dup2\n      sload\n      dup1\n      swap3\n      swap2\n      swap1\n      tag_243\n      swap1\n      tag_182\n      jump\t// in\n    tag_243:\n      swap2\n      swap1\n      pop\n      sstore\n      pop\n        /* \"GoldenBUSDLotto.sol\":13740:13762  maxParticipantNumbers2 */\n      sload(0x0b)\n        /* \"GoldenBUSDLotto.sol\":13717:13736  participantNumbers2 */\n      sload(0x0c)\n        /* \"GoldenBUSDLotto.sol\":13717:13762  participantNumbers2 == maxParticipantNumbers2 */\n      sub\n        /* \"GoldenBUSDLotto.sol\":13713:13817  if (participantNumbers2 == maxParticipantNumbers2){... */\n      tag_244\n      jumpi\n        /* \"GoldenBUSDLotto.sol\":13785:13798  pickwinner2() */\n      tag_245\n        /* \"GoldenBUSDLotto.sol\":13785:13796  pickwinner2 */\n      tag_246\n        /* \"GoldenBUSDLotto.sol\":13785:13798  pickwinner2() */\n      jump\t// in\n    tag_245:\n        /* \"GoldenBUSDLotto.sol\":13713:13817  if (participantNumbers2 == maxParticipantNumbers2){... */\n    tag_244:\n        /* \"GoldenBUSDLotto.sol\":13550:13945  if (participantNumbers2 < maxParticipantNumbers2){... */\n      jump(tag_247)\n    tag_241:\n        /* \"GoldenBUSDLotto.sol\":13876:13898  maxParticipantNumbers2 */\n      sload(0x0b)\n        /* \"GoldenBUSDLotto.sol\":13853:13872  participantNumbers2 */\n      sload(0x0c)\n        /* \"GoldenBUSDLotto.sol\":13853:13898  participantNumbers2 == maxParticipantNumbers2 */\n      sub\n        /* \"GoldenBUSDLotto.sol\":13849:13945  if (participantNumbers2 == maxParticipantNumbers2){... */\n      tag_248\n      jumpi\n        /* \"GoldenBUSDLotto.sol\":13917:13930  pickwinner2() */\n      tag_249\n        /* \"GoldenBUSDLotto.sol\":13917:13928  pickwinner2 */\n      tag_246\n        /* \"GoldenBUSDLotto.sol\":13917:13930  pickwinner2() */\n      jump\t// in\n    tag_249:\n        /* \"GoldenBUSDLotto.sol\":13849:13945  if (participantNumbers2 == maxParticipantNumbers2){... */\n    tag_248:\n        /* \"GoldenBUSDLotto.sol\":13550:13945  if (participantNumbers2 < maxParticipantNumbers2){... */\n    tag_247:\n        /* \"GoldenBUSDLotto.sol\":13529:13955  if(chk){... */\n    tag_240:\n        /* \"GoldenBUSDLotto.sol\":13321:13961  {... */\n      pop\n        /* \"GoldenBUSDLotto.sol\":7215:7220  false */\n      0x00\n        /* \"GoldenBUSDLotto.sol\":7206:7212  locked */\n      dup1\n      0x00\n        /* \"GoldenBUSDLotto.sol\":7206:7220  locked = false */\n      0x0100\n      exp\n      dup2\n      sload\n      dup2\n      0xff\n      mul\n      not\n      and\n      swap1\n      dup4\n      iszero\n      iszero\n      mul\n      or\n      swap1\n      sstore\n      pop\n        /* \"GoldenBUSDLotto.sol\":13250:13961  function joinLottery2(uint256 _amount)  external notOwner() noReentrant{... */\n      pop\n      jump\t// out\n        /* \"GoldenBUSDLotto.sol\":10476:10591  function setMaximmNumbers(uint256 _maxNumbers) public onlyOwner{... */\n    tag_66:\n        /* \"GoldenBUSDLotto.sol\":8066:8078  _msgSender() */\n      tag_251\n        /* \"GoldenBUSDLotto.sol\":8066:8076  _msgSender */\n      tag_163\n        /* \"GoldenBUSDLotto.sol\":8066:8078  _msgSender() */\n      jump\t// in\n    tag_251:\n        /* \"GoldenBUSDLotto.sol\":8056:8078  _owner == _msgSender() */\n      0xffffffffffffffffffffffffffffffffffffffff\n      and\n        /* \"GoldenBUSDLotto.sol\":8056:8062  _owner */\n      0x00\n      0x01\n      swap1\n      sload\n      swap1\n      0x0100\n      exp\n      swap1\n      div\n      0xffffffffffffffffffffffffffffffffffffffff\n      and\n        /* \"GoldenBUSDLotto.sol\":8056:8078  _owner == _msgSender() */\n      0xffffffffffffffffffffffffffffffffffffffff\n      and\n      eq\n        /* \"GoldenBUSDLotto.sol\":8048:8115  require(_owner == _msgSender(), \"Ownable: caller is not the owner\") */\n      tag_252\n      jumpi\n      mload(0x40)\n      0x08c379a000000000000000000000000000000000000000000000000000000000\n      dup2\n      mstore\n      0x04\n      add\n      tag_253\n      swap1\n      tag_166\n      jump\t// in\n    tag_253:\n      mload(0x40)\n      dup1\n      swap2\n      sub\n      swap1\n      revert\n    tag_252:\n        /* \"GoldenBUSDLotto.sol\":10573:10584  _maxNumbers */\n      dup1\n        /* \"GoldenBUSDLotto.sol\":10549:10570  maxParticipantNumbers */\n      0x03\n        /* \"GoldenBUSDLotto.sol\":10549:10584  maxParticipantNumbers = _maxNumbers */\n      dup2\n      swap1\n      sstore\n      pop\n        /* \"GoldenBUSDLotto.sol\":10476:10591  function setMaximmNumbers(uint256 _maxNumbers) public onlyOwner{... */\n      pop\n      jump\t// out\n        /* \"GoldenBUSDLotto.sol\":10596:10713  function setMaximmNumbers1(uint256 _maxNumbers) public onlyOwner{... */\n    tag_69:\n        /* \"GoldenBUSDLotto.sol\":8066:8078  _msgSender() */\n      tag_256\n        /* \"GoldenBUSDLotto.sol\":8066:8076  _msgSender */\n      tag_163\n        /* \"GoldenBUSDLotto.sol\":8066:8078  _msgSender() */\n      jump\t// in\n    tag_256:\n        /* \"GoldenBUSDLotto.sol\":8056:8078  _owner == _msgSender() */\n      0xffffffffffffffffffffffffffffffffffffffff\n      and\n        /* \"GoldenBUSDLotto.sol\":8056:8062  _owner */\n      0x00\n      0x01\n      swap1\n      sload\n      swap1\n      0x0100\n      exp\n      swap1\n      div\n      0xffffffffffffffffffffffffffffffffffffffff\n      and\n        /* \"GoldenBUSDLotto.sol\":8056:8078  _owner == _msgSender() */\n      0xffffffffffffffffffffffffffffffffffffffff\n      and\n      eq\n        /* \"GoldenBUSDLotto.sol\":8048:8115  require(_owner == _msgSender(), \"Ownable: caller is not the owner\") */\n      tag_257\n      jumpi\n      mload(0x40)\n      0x08c379a000000000000000000000000000000000000000000000000000000000\n      dup2\n      mstore\n      0x04\n      add\n      tag_258\n      swap1\n      tag_166\n      jump\t// in\n    tag_258:\n      mload(0x40)\n      dup1\n      swap2\n      sub\n      swap1\n      revert\n    tag_257:\n        /* \"GoldenBUSDLotto.sol\":10695:10706  _maxNumbers */\n      dup1\n        /* \"GoldenBUSDLotto.sol\":10670:10692  maxParticipantNumbers1 */\n      0x07\n        /* \"GoldenBUSDLotto.sol\":10670:10706  maxParticipantNumbers1 = _maxNumbers */\n      dup2\n      swap1\n      sstore\n      pop\n        /* \"GoldenBUSDLotto.sol\":10596:10713  function setMaximmNumbers1(uint256 _maxNumbers) public onlyOwner{... */\n      pop\n      jump\t// out\n        /* \"GoldenBUSDLotto.sol\":9415:9446  address[] public winnerLottery1 */\n    tag_72:\n      0x11\n      dup2\n      dup2\n      sload\n      dup2\n      lt\n      tag_260\n      jumpi\n      0x00\n      dup1\n      revert\n    tag_260:\n      swap1\n      0x00\n      mstore\n      keccak256(0x00, 0x20)\n      add\n      0x00\n      swap2\n      pop\n      sload\n      swap1\n      0x0100\n      exp\n      swap1\n      div\n      0xffffffffffffffffffffffffffffffffffffffff\n      and\n      dup2\n      jump\t// out\n        /* \"GoldenBUSDLotto.sol\":14141:14240  function getLotteryLength() public view returns(uint256){... */\n    tag_76:\n        /* \"GoldenBUSDLotto.sol\":14189:14196  uint256 */\n      0x00\n        /* \"GoldenBUSDLotto.sol\":14214:14226  participants */\n      0x06\n        /* \"GoldenBUSDLotto.sol\":14214:14233  participants.length */\n      dup1\n      sload\n      swap1\n      pop\n        /* \"GoldenBUSDLotto.sol\":14207:14233  return participants.length */\n      swap1\n      pop\n        /* \"GoldenBUSDLotto.sol\":14141:14240  function getLotteryLength() public view returns(uint256){... */\n      swap1\n      jump\t// out\n        /* \"GoldenBUSDLotto.sol\":9339:9373  bool public lotteryStarted = false */\n    tag_80:\n      0x0f\n      0x00\n      swap1\n      sload\n      swap1\n      0x0100\n      exp\n      swap1\n      div\n      0xff\n      and\n      dup2\n      jump\t// out\n        /* \"GoldenBUSDLotto.sol\":14460:15362  function howMany(address ad) public view returns(uint256,uint256,uint256){... */\n    tag_86:\n        /* \"GoldenBUSDLotto.sol\":14509:14516  uint256 */\n      0x00\n        /* \"GoldenBUSDLotto.sol\":14517:14524  uint256 */\n      dup1\n        /* \"GoldenBUSDLotto.sol\":14525:14532  uint256 */\n      0x00\n        /* \"GoldenBUSDLotto.sol\":14543:14554  uint256 lHm */\n      dup1\n        /* \"GoldenBUSDLotto.sol\":14555:14556  0 */\n      0x00\n        /* \"GoldenBUSDLotto.sol\":14543:14556  uint256 lHm=0 */\n      swap1\n      pop\n        /* \"GoldenBUSDLotto.sol\":14566:14578  uint256 lHm1 */\n      0x00\n        /* \"GoldenBUSDLotto.sol\":14590:14602  uint256 lHm2 */\n      dup1\n        /* \"GoldenBUSDLotto.sol\":14614:14630  uint arrayLength */\n      0x00\n        /* \"GoldenBUSDLotto.sol\":14633:14645  participants */\n      0x06\n        /* \"GoldenBUSDLotto.sol\":14633:14652  participants.length */\n      dup1\n      sload\n      swap1\n      pop\n        /* \"GoldenBUSDLotto.sol\":14614:14652  uint arrayLength = participants.length */\n      swap1\n      pop\n        /* \"GoldenBUSDLotto.sol\":14678:14679  0 */\n      0x00\n        /* \"GoldenBUSDLotto.sol\":14665:14676  arrayLength */\n      dup2\n        /* \"GoldenBUSDLotto.sol\":14665:14679  arrayLength!=0 */\n      eq\n        /* \"GoldenBUSDLotto.sol\":14662:14841  if(arrayLength!=0){... */\n      tag_264\n      jumpi\n        /* \"GoldenBUSDLotto.sol\":14699:14705  uint i */\n      0x00\n        /* \"GoldenBUSDLotto.sol\":14694:14831  for (uint i=0; i<arrayLength; i++) {... */\n    tag_265:\n        /* \"GoldenBUSDLotto.sol\":14711:14722  arrayLength */\n      dup2\n        /* \"GoldenBUSDLotto.sol\":14709:14710  i */\n      dup2\n        /* \"GoldenBUSDLotto.sol\":14709:14722  i<arrayLength */\n      lt\n        /* \"GoldenBUSDLotto.sol\":14694:14831  for (uint i=0; i<arrayLength; i++) {... */\n      iszero\n      tag_266\n      jumpi\n        /* \"GoldenBUSDLotto.sol\":14768:14770  ad */\n      dup9\n        /* \"GoldenBUSDLotto.sol\":14751:14770  participants[i]==ad */\n      0xffffffffffffffffffffffffffffffffffffffff\n      and\n        /* \"GoldenBUSDLotto.sol\":14751:14763  participants */\n      0x06\n        /* \"GoldenBUSDLotto.sol\":14764:14765  i */\n      dup3\n        /* \"GoldenBUSDLotto.sol\":14751:14766  participants[i] */\n      dup2\n      sload\n      dup2\n      lt\n      tag_268\n      jumpi\n      tag_269\n      tag_185\n      jump\t// in\n    tag_269:\n    tag_268:\n      swap1\n      0x00\n      mstore\n      keccak256(0x00, 0x20)\n      add\n      0x00\n      swap1\n      sload\n      swap1\n      0x0100\n      exp\n      swap1\n      div\n      0xffffffffffffffffffffffffffffffffffffffff\n      and\n        /* \"GoldenBUSDLotto.sol\":14751:14770  participants[i]==ad */\n      0xffffffffffffffffffffffffffffffffffffffff\n      and\n      sub\n        /* \"GoldenBUSDLotto.sol\":14747:14817  if (participants[i]==ad){... */\n      tag_271\n      jumpi\n        /* \"GoldenBUSDLotto.sol\":14793:14798  lHm++ */\n      dup5\n      dup1\n      tag_272\n      swap1\n      tag_182\n      jump\t// in\n    tag_272:\n      swap6\n      pop\n      pop\n        /* \"GoldenBUSDLotto.sol\":14747:14817  if (participants[i]==ad){... */\n    tag_271:\n        /* \"GoldenBUSDLotto.sol\":14724:14727  i++ */\n      dup1\n      dup1\n      tag_273\n      swap1\n      tag_182\n      jump\t// in\n    tag_273:\n      swap2\n      pop\n      pop\n        /* \"GoldenBUSDLotto.sol\":14694:14831  for (uint i=0; i<arrayLength; i++) {... */\n      jump(tag_265)\n    tag_266:\n      pop\n        /* \"GoldenBUSDLotto.sol\":14662:14841  if(arrayLength!=0){... */\n    tag_264:\n        /* \"GoldenBUSDLotto.sol\":14850:14867  uint arrayLength1 */\n      0x00\n        /* \"GoldenBUSDLotto.sol\":14870:14883  participants1 */\n      0x0a\n        /* \"GoldenBUSDLotto.sol\":14870:14890  participants1.length */\n      dup1\n      sload\n      swap1\n      pop\n        /* \"GoldenBUSDLotto.sol\":14850:14890  uint arrayLength1 = participants1.length */\n      swap1\n      pop\n        /* \"GoldenBUSDLotto.sol\":14917:14918  0 */\n      0x00\n        /* \"GoldenBUSDLotto.sol\":14903:14915  arrayLength1 */\n      dup2\n        /* \"GoldenBUSDLotto.sol\":14903:14918  arrayLength1!=0 */\n      eq\n        /* \"GoldenBUSDLotto.sol\":14900:15083  if(arrayLength1!=0){... */\n      tag_274\n      jumpi\n        /* \"GoldenBUSDLotto.sol\":14938:14944  uint i */\n      0x00\n        /* \"GoldenBUSDLotto.sol\":14933:15073  for (uint i=0; i<arrayLength1; i++) {... */\n    tag_275:\n        /* \"GoldenBUSDLotto.sol\":14950:14962  arrayLength1 */\n      dup2\n        /* \"GoldenBUSDLotto.sol\":14948:14949  i */\n      dup2\n        /* \"GoldenBUSDLotto.sol\":14948:14962  i<arrayLength1 */\n      lt\n        /* \"GoldenBUSDLotto.sol\":14933:15073  for (uint i=0; i<arrayLength1; i++) {... */\n      iszero\n      tag_276\n      jumpi\n        /* \"GoldenBUSDLotto.sol\":15009:15011  ad */\n      dup10\n        /* \"GoldenBUSDLotto.sol\":14991:15011  participants1[i]==ad */\n      0xffffffffffffffffffffffffffffffffffffffff\n      and\n        /* \"GoldenBUSDLotto.sol\":14991:15004  participants1 */\n      0x0a\n        /* \"GoldenBUSDLotto.sol\":15005:15006  i */\n      dup3\n        /* \"GoldenBUSDLotto.sol\":14991:15007  participants1[i] */\n      dup2\n      sload\n      dup2\n      lt\n      tag_278\n      jumpi\n      tag_279\n      tag_185\n      jump\t// in\n    tag_279:\n    tag_278:\n      swap1\n      0x00\n      mstore\n      keccak256(0x00, 0x20)\n      add\n      0x00\n      swap1\n      sload\n      swap1\n      0x0100\n      exp\n      swap1\n      div\n      0xffffffffffffffffffffffffffffffffffffffff\n      and\n        /* \"GoldenBUSDLotto.sol\":14991:15011  participants1[i]==ad */\n      0xffffffffffffffffffffffffffffffffffffffff\n      and\n      sub\n        /* \"GoldenBUSDLotto.sol\":14987:15059  if (participants1[i]==ad){... */\n      tag_281\n      jumpi\n        /* \"GoldenBUSDLotto.sol\":15034:15040  lHm1++ */\n      dup5\n      dup1\n      tag_282\n      swap1\n      tag_182\n      jump\t// in\n    tag_282:\n      swap6\n      pop\n      pop\n        /* \"GoldenBUSDLotto.sol\":14987:15059  if (participants1[i]==ad){... */\n    tag_281:\n        /* \"GoldenBUSDLotto.sol\":14964:14967  i++ */\n      dup1\n      dup1\n      tag_283\n      swap1\n      tag_182\n      jump\t// in\n    tag_283:\n      swap2\n      pop\n      pop\n        /* \"GoldenBUSDLotto.sol\":14933:15073  for (uint i=0; i<arrayLength1; i++) {... */\n      jump(tag_275)\n    tag_276:\n      pop\n        /* \"GoldenBUSDLotto.sol\":14900:15083  if(arrayLength1!=0){... */\n    tag_274:\n        /* \"GoldenBUSDLotto.sol\":15092:15109  uint arrayLength2 */\n      0x00\n        /* \"GoldenBUSDLotto.sol\":15112:15125  participants2 */\n      0x0e\n        /* \"GoldenBUSDLotto.sol\":15112:15132  participants2.length */\n      dup1\n      sload\n      swap1\n      pop\n        /* \"GoldenBUSDLotto.sol\":15092:15132  uint arrayLength2 = participants2.length */\n      swap1\n      pop\n        /* \"GoldenBUSDLotto.sol\":15159:15160  0 */\n      0x00\n        /* \"GoldenBUSDLotto.sol\":15145:15157  arrayLength2 */\n      dup2\n        /* \"GoldenBUSDLotto.sol\":15145:15160  arrayLength2!=0 */\n      eq\n        /* \"GoldenBUSDLotto.sol\":15142:15324  if(arrayLength2!=0){... */\n      tag_284\n      jumpi\n        /* \"GoldenBUSDLotto.sol\":15180:15186  uint i */\n      0x00\n        /* \"GoldenBUSDLotto.sol\":15175:15314  for (uint i=0; i<arrayLength2; i++) {... */\n    tag_285:\n        /* \"GoldenBUSDLotto.sol\":15192:15204  arrayLength2 */\n      dup2\n        /* \"GoldenBUSDLotto.sol\":15190:15191  i */\n      dup2\n        /* \"GoldenBUSDLotto.sol\":15190:15204  i<arrayLength2 */\n      lt\n        /* \"GoldenBUSDLotto.sol\":15175:15314  for (uint i=0; i<arrayLength2; i++) {... */\n      iszero\n      tag_286\n      jumpi\n        /* \"GoldenBUSDLotto.sol\":15250:15252  ad */\n      dup11\n        /* \"GoldenBUSDLotto.sol\":15233:15252  participants[i]==ad */\n      0xffffffffffffffffffffffffffffffffffffffff\n      and\n        /* \"GoldenBUSDLotto.sol\":15233:15245  participants */\n      0x06\n        /* \"GoldenBUSDLotto.sol\":15246:15247  i */\n      dup3\n        /* \"GoldenBUSDLotto.sol\":15233:15248  participants[i] */\n      dup2\n      sload\n      dup2\n      lt\n      tag_288\n      jumpi\n      tag_289\n      tag_185\n      jump\t// in\n    tag_289:\n    tag_288:\n      swap1\n      0x00\n      mstore\n      keccak256(0x00, 0x20)\n      add\n      0x00\n      swap1\n      sload\n      swap1\n      0x0100\n      exp\n      swap1\n      div\n      0xffffffffffffffffffffffffffffffffffffffff\n      and\n        /* \"GoldenBUSDLotto.sol\":15233:15252  participants[i]==ad */\n      0xffffffffffffffffffffffffffffffffffffffff\n      and\n      sub\n        /* \"GoldenBUSDLotto.sol\":15229:15300  if (participants[i]==ad){... */\n      tag_291\n      jumpi\n        /* \"GoldenBUSDLotto.sol\":15275:15281  lHm2++ */\n      dup5\n      dup1\n      tag_292\n      swap1\n      tag_182\n      jump\t// in\n    tag_292:\n      swap6\n      pop\n      pop\n        /* \"GoldenBUSDLotto.sol\":15229:15300  if (participants[i]==ad){... */\n    tag_291:\n        /* \"GoldenBUSDLotto.sol\":15206:15209  i++ */\n      dup1\n      dup1\n      tag_293\n      swap1\n      tag_182\n      jump\t// in\n    tag_293:\n      swap2\n      pop\n      pop\n        /* \"GoldenBUSDLotto.sol\":15175:15314  for (uint i=0; i<arrayLength2; i++) {... */\n      jump(tag_285)\n    tag_286:\n      pop\n        /* \"GoldenBUSDLotto.sol\":15142:15324  if(arrayLength2!=0){... */\n    tag_284:\n        /* \"GoldenBUSDLotto.sol\":15341:15344  lHm */\n      dup6\n        /* \"GoldenBUSDLotto.sol\":15345:15349  lHm1 */\n      dup6\n        /* \"GoldenBUSDLotto.sol\":15350:15354  lHm2 */\n      dup6\n        /* \"GoldenBUSDLotto.sol\":15333:15355  return (lHm,lHm1,lHm2) */\n      swap9\n      pop\n      swap9\n      pop\n      swap9\n      pop\n      pop\n      pop\n      pop\n      pop\n      pop\n      pop\n        /* \"GoldenBUSDLotto.sol\":14460:15362  function howMany(address ad) public view returns(uint256,uint256,uint256){... */\n      swap2\n      swap4\n      swap1\n      swap3\n      pop\n      jump\t// out\n        /* \"GoldenBUSDLotto.sol\":10841:10933  function viewTicketPrice() external view returns(uint256){... */\n    tag_90:\n        /* \"GoldenBUSDLotto.sol\":10890:10897  uint256 */\n      0x00\n        /* \"GoldenBUSDLotto.sol\":10915:10926  ticketPrice */\n      sload(0x05)\n        /* \"GoldenBUSDLotto.sol\":10908:10926  return ticketPrice */\n      swap1\n      pop\n        /* \"GoldenBUSDLotto.sol\":10841:10933  function viewTicketPrice() external view returns(uint256){... */\n      swap1\n      jump\t// out\n        /* \"GoldenBUSDLotto.sol\":8237:8370  function renounceOwnership() public onlyOwner {... */\n    tag_93:\n        /* \"GoldenBUSDLotto.sol\":8066:8078  _msgSender() */\n      tag_296\n        /* \"GoldenBUSDLotto.sol\":8066:8076  _msgSender */\n      tag_163\n        /* \"GoldenBUSDLotto.sol\":8066:8078  _msgSender() */\n      jump\t// in\n    tag_296:\n        /* \"GoldenBUSDLotto.sol\":8056:8078  _owner == _msgSender() */\n      0xffffffffffffffffffffffffffffffffffffffff\n      and\n        /* \"GoldenBUSDLotto.sol\":8056:8062  _owner */\n      0x00\n      0x01\n      swap1\n      sload\n      swap1\n      0x0100\n      exp\n      swap1\n      div\n      0xffffffffffffffffffffffffffffffffffffffff\n      and\n        /* \"GoldenBUSDLotto.sol\":8056:8078  _owner == _msgSender() */\n      0xffffffffffffffffffffffffffffffffffffffff\n      and\n      eq\n        /* \"GoldenBUSDLotto.sol\":8048:8115  require(_owner == _msgSender(), \"Ownable: caller is not the owner\") */\n      tag_297\n      jumpi\n      mload(0x40)\n      0x08c379a000000000000000000000000000000000000000000000000000000000\n      dup2\n      mstore\n      0x04\n      add\n      tag_298\n      swap1\n      tag_166\n      jump\t// in\n    tag_298:\n      mload(0x40)\n      dup1\n      swap2\n      sub\n      swap1\n      revert\n    tag_297:\n        /* \"GoldenBUSDLotto.sol\":8333:8334  0 */\n      0x00\n        /* \"GoldenBUSDLotto.sol\":8296:8336  OwnershipTransferred(_owner, address(0)) */\n      0xffffffffffffffffffffffffffffffffffffffff\n      and\n        /* \"GoldenBUSDLotto.sol\":8317:8323  _owner */\n      0x00\n      0x01\n      swap1\n      sload\n      swap1\n      0x0100\n      exp\n      swap1\n      div\n      0xffffffffffffffffffffffffffffffffffffffff\n      and\n        /* \"GoldenBUSDLotto.sol\":8296:8336  OwnershipTransferred(_owner, address(0)) */\n      0xffffffffffffffffffffffffffffffffffffffff\n      and\n      0x8be0079c531659141344cd1fd0a4f28419497f9722a3daafe3b4186f6b6457e0\n      mload(0x40)\n      mload(0x40)\n      dup1\n      swap2\n      sub\n      swap1\n      log3\n        /* \"GoldenBUSDLotto.sol\":8361:8362  0 */\n      0x00\n        /* \"GoldenBUSDLotto.sol\":8344:8350  _owner */\n      dup1\n      0x01\n        /* \"GoldenBUSDLotto.sol\":8344:8363  _owner = address(0) */\n      0x0100\n      exp\n      dup2\n      sload\n      dup2\n      0xffffffffffffffffffffffffffffffffffffffff\n      mul\n      not\n      and\n      swap1\n      dup4\n      0xffffffffffffffffffffffffffffffffffffffff\n      and\n      mul\n      or\n      swap1\n      sstore\n      pop\n        /* \"GoldenBUSDLotto.sol\":8237:8370  function renounceOwnership() public onlyOwner {... */\n      jump\t// out\n        /* \"GoldenBUSDLotto.sol\":11771:12475  function joinLottery(uint256 _amount) external notOwner() noReentrant{... */\n    tag_96:\n        /* \"GoldenBUSDLotto.sol\":8188:8194  _owner */\n      0x00\n      0x01\n      swap1\n      sload\n      swap1\n      0x0100\n      exp\n      swap1\n      div\n      0xffffffffffffffffffffffffffffffffffffffff\n      and\n        /* \"GoldenBUSDLotto.sol\":8174:8194  msg.sender != _owner */\n      0xffffffffffffffffffffffffffffffffffffffff\n      and\n        /* \"GoldenBUSDLotto.sol\":8174:8184  msg.sender */\n      caller\n        /* \"GoldenBUSDLotto.sol\":8174:8194  msg.sender != _owner */\n      0xffffffffffffffffffffffffffffffffffffffff\n      and\n      sub\n        /* \"GoldenBUSDLotto.sol\":8166:8213  require(msg.sender != _owner, \"Access denied!\") */\n      tag_301\n      jumpi\n      mload(0x40)\n      0x08c379a000000000000000000000000000000000000000000000000000000000\n      dup2\n      mstore\n      0x04\n      add\n      tag_302\n      swap1\n      tag_222\n      jump\t// in\n    tag_302:\n      mload(0x40)\n      dup1\n      swap2\n      sub\n      swap1\n      revert\n    tag_301:\n        /* \"GoldenBUSDLotto.sol\":7137:7143  locked */\n      0x00\n      dup1\n      sload\n      swap1\n      0x0100\n      exp\n      swap1\n      div\n      0xff\n      and\n        /* \"GoldenBUSDLotto.sol\":7136:7143  !locked */\n      iszero\n        /* \"GoldenBUSDLotto.sol\":7128:7162  require(!locked, \"No re-entrancy\") */\n      tag_304\n      jumpi\n      mload(0x40)\n      0x08c379a000000000000000000000000000000000000000000000000000000000\n      dup2\n      mstore\n      0x04\n      add\n      tag_305\n      swap1\n      tag_226\n      jump\t// in\n    tag_305:\n      mload(0x40)\n      dup1\n      swap2\n      sub\n      swap1\n      revert\n    tag_304:\n        /* \"GoldenBUSDLotto.sol\":7181:7185  true */\n      0x01\n        /* \"GoldenBUSDLotto.sol\":7172:7178  locked */\n      0x00\n      dup1\n        /* \"GoldenBUSDLotto.sol\":7172:7185  locked = true */\n      0x0100\n      exp\n      dup2\n      sload\n      dup2\n      0xff\n      mul\n      not\n      and\n      swap1\n      dup4\n      iszero\n      iszero\n      mul\n      or\n      swap1\n      sstore\n      pop\n        /* \"GoldenBUSDLotto.sol\":11858:11872  lotteryStarted */\n      0x0f\n      0x00\n      swap1\n      sload\n      swap1\n      0x0100\n      exp\n      swap1\n      div\n      0xff\n      and\n        /* \"GoldenBUSDLotto.sol\":11850:11904  require(lotteryStarted , \"Lottery is not started yet\") */\n      tag_307\n      jumpi\n      mload(0x40)\n      0x08c379a000000000000000000000000000000000000000000000000000000000\n      dup2\n      mstore\n      0x04\n      add\n      tag_308\n      swap1\n      tag_230\n      jump\t// in\n    tag_308:\n      mload(0x40)\n      dup1\n      swap2\n      sub\n      swap1\n      revert\n    tag_307:\n        /* \"GoldenBUSDLotto.sol\":11932:11943  ticketPrice */\n      sload(0x05)\n        /* \"GoldenBUSDLotto.sol\":11922:11929  _amount */\n      dup2\n        /* \"GoldenBUSDLotto.sol\":11922:11943  _amount== ticketPrice */\n      eq\n        /* \"GoldenBUSDLotto.sol\":11914:11963  require(_amount== ticketPrice,\"Not same amount\" ) */\n      tag_309\n      jumpi\n      mload(0x40)\n      0x08c379a000000000000000000000000000000000000000000000000000000000\n      dup2\n      mstore\n      0x04\n      add\n      tag_310\n      swap1\n      tag_311\n      jump\t// in\n    tag_310:\n      mload(0x40)\n      dup1\n      swap2\n      sub\n      swap1\n      revert\n    tag_309:\n        /* \"GoldenBUSDLotto.sol\":11973:11981  bool chk */\n      0x00\n        /* \"GoldenBUSDLotto.sol\":11983:11996  BusdInterface */\n      0x14\n      0x00\n      swap1\n      sload\n      swap1\n      0x0100\n      exp\n      swap1\n      div\n      0xffffffffffffffffffffffffffffffffffffffff\n      and\n        /* \"GoldenBUSDLotto.sol\":11983:12009  BusdInterface.transferFrom */\n      0xffffffffffffffffffffffffffffffffffffffff\n      and\n      0x23b872dd\n        /* \"GoldenBUSDLotto.sol\":12010:12020  msg.sender */\n      caller\n        /* \"GoldenBUSDLotto.sol\":12029:12033  this */\n      address\n        /* \"GoldenBUSDLotto.sol\":12035:12042  _amount */\n      dup6\n        /* \"GoldenBUSDLotto.sol\":11983:12043  BusdInterface.transferFrom(msg.sender,address(this),_amount) */\n      mload(0x40)\n      dup5\n      0xffffffff\n      and\n      0xe0\n      shl\n      dup2\n      mstore\n      0x04\n      add\n      tag_312\n      swap4\n      swap3\n      swap2\n      swap1\n      tag_235\n      jump\t// in\n    tag_312:\n      0x20\n      mload(0x40)\n      dup1\n      dup4\n      sub\n      dup2\n      0x00\n      dup8\n      gas\n      call\n      iszero\n      dup1\n      iszero\n      tag_314\n      jumpi\n      returndatasize\n      0x00\n      dup1\n      returndatacopy\n      revert(0x00, returndatasize)\n    tag_314:\n      pop\n      pop\n      pop\n      pop\n      mload(0x40)\n      returndatasize\n      not(0x1f)\n      0x1f\n      dup3\n      add\n      and\n      dup3\n      add\n      dup1\n      0x40\n      mstore\n      pop\n      dup2\n      add\n      swap1\n      tag_315\n      swap2\n      swap1\n      tag_239\n      jump\t// in\n    tag_315:\n        /* \"GoldenBUSDLotto.sol\":11973:12043  bool chk= BusdInterface.transferFrom(msg.sender,address(this),_amount) */\n      swap1\n      pop\n        /* \"GoldenBUSDLotto.sol\":12056:12059  chk */\n      dup1\n        /* \"GoldenBUSDLotto.sol\":12053:12469  if(chk){... */\n      iszero\n      tag_316\n      jumpi\n        /* \"GoldenBUSDLotto.sol\":12099:12120  maxParticipantNumbers */\n      sload(0x03)\n        /* \"GoldenBUSDLotto.sol\":12078:12096  participantNumbers */\n      sload(0x04)\n        /* \"GoldenBUSDLotto.sol\":12078:12120  participantNumbers < maxParticipantNumbers */\n      lt\n        /* \"GoldenBUSDLotto.sol\":12074:12459  if (participantNumbers < maxParticipantNumbers){... */\n      iszero\n      tag_317\n      jumpi\n        /* \"GoldenBUSDLotto.sol\":12139:12151  participants */\n      0x06\n        /* \"GoldenBUSDLotto.sol\":12165:12175  msg.sender */\n      caller\n        /* \"GoldenBUSDLotto.sol\":12139:12177  participants.push(payable(msg.sender)) */\n      swap1\n      dup1\n      0x01\n      dup2\n      sload\n      add\n      dup1\n      dup3\n      sstore\n      dup1\n      swap2\n      pop\n      pop\n      0x01\n      swap1\n      sub\n      swap1\n      0x00\n      mstore\n      keccak256(0x00, 0x20)\n      add\n      0x00\n      swap1\n      swap2\n      swap1\n      swap2\n      swap1\n      swap2\n      0x0100\n      exp\n      dup2\n      sload\n      dup2\n      0xffffffffffffffffffffffffffffffffffffffff\n      mul\n      not\n      and\n      swap1\n      dup4\n      0xffffffffffffffffffffffffffffffffffffffff\n      and\n      mul\n      or\n      swap1\n      sstore\n      pop\n        /* \"GoldenBUSDLotto.sol\":12195:12213  participantNumbers */\n      0x04\n      0x00\n        /* \"GoldenBUSDLotto.sol\":12195:12215  participantNumbers++ */\n      dup2\n      sload\n      dup1\n      swap3\n      swap2\n      swap1\n      tag_319\n      swap1\n      tag_182\n      jump\t// in\n    tag_319:\n      swap2\n      swap1\n      pop\n      sstore\n      pop\n        /* \"GoldenBUSDLotto.sol\":12259:12280  maxParticipantNumbers */\n      sload(0x03)\n        /* \"GoldenBUSDLotto.sol\":12237:12255  participantNumbers */\n      sload(0x04)\n        /* \"GoldenBUSDLotto.sol\":12237:12280  participantNumbers == maxParticipantNumbers */\n      sub\n        /* \"GoldenBUSDLotto.sol\":12233:12334  if (participantNumbers == maxParticipantNumbers){... */\n      tag_320\n      jumpi\n        /* \"GoldenBUSDLotto.sol\":12303:12315  pickwinner() */\n      tag_321\n        /* \"GoldenBUSDLotto.sol\":12303:12313  pickwinner */\n      tag_322\n        /* \"GoldenBUSDLotto.sol\":12303:12315  pickwinner() */\n      jump\t// in\n    tag_321:\n        /* \"GoldenBUSDLotto.sol\":12233:12334  if (participantNumbers == maxParticipantNumbers){... */\n    tag_320:\n        /* \"GoldenBUSDLotto.sol\":12074:12459  if (participantNumbers < maxParticipantNumbers){... */\n      jump(tag_323)\n    tag_317:\n        /* \"GoldenBUSDLotto.sol\":12392:12413  maxParticipantNumbers */\n      sload(0x03)\n        /* \"GoldenBUSDLotto.sol\":12370:12388  participantNumbers */\n      sload(0x04)\n        /* \"GoldenBUSDLotto.sol\":12370:12413  participantNumbers == maxParticipantNumbers */\n      sub\n        /* \"GoldenBUSDLotto.sol\":12366:12459  if (participantNumbers == maxParticipantNumbers){... */\n      tag_324\n      jumpi\n        /* \"GoldenBUSDLotto.sol\":12432:12444  pickwinner() */\n      tag_325\n        /* \"GoldenBUSDLotto.sol\":12432:12442  pickwinner */\n      tag_322\n        /* \"GoldenBUSDLotto.sol\":12432:12444  pickwinner() */\n      jump\t// in\n    tag_325:\n        /* \"GoldenBUSDLotto.sol\":12366:12459  if (participantNumbers == maxParticipantNumbers){... */\n    tag_324:\n        /* \"GoldenBUSDLotto.sol\":12074:12459  if (participantNumbers < maxParticipantNumbers){... */\n    tag_323:\n        /* \"GoldenBUSDLotto.sol\":12053:12469  if(chk){... */\n    tag_316:\n        /* \"GoldenBUSDLotto.sol\":11840:12475  {... */\n      pop\n        /* \"GoldenBUSDLotto.sol\":7215:7220  false */\n      0x00\n        /* \"GoldenBUSDLotto.sol\":7206:7212  locked */\n      dup1\n      0x00\n        /* \"GoldenBUSDLotto.sol\":7206:7220  locked = false */\n      0x0100\n      exp\n      dup2\n      sload\n      dup2\n      0xff\n      mul\n      not\n      and\n      swap1\n      dup4\n      iszero\n      iszero\n      mul\n      or\n      swap1\n      sstore\n      pop\n        /* \"GoldenBUSDLotto.sol\":11771:12475  function joinLottery(uint256 _amount) external notOwner() noReentrant{... */\n      pop\n      jump\t// out\n        /* \"GoldenBUSDLotto.sol\":11037:11131  function viewTicketPrice2() external view returns(uint256){... */\n    tag_98:\n        /* \"GoldenBUSDLotto.sol\":11087:11094  uint256 */\n      0x00\n        /* \"GoldenBUSDLotto.sol\":11112:11124  ticketPrice2 */\n      sload(0x0d)\n        /* \"GoldenBUSDLotto.sol\":11105:11124  return ticketPrice2 */\n      swap1\n      pop\n        /* \"GoldenBUSDLotto.sol\":11037:11131  function viewTicketPrice2() external view returns(uint256){... */\n      swap1\n      jump\t// out\n        /* \"GoldenBUSDLotto.sol\":9452:9483  address[] public winnerLottery2 */\n    tag_102:\n      0x12\n      dup2\n      dup2\n      sload\n      dup2\n      lt\n      tag_327\n      jumpi\n      0x00\n      dup1\n      revert\n    tag_327:\n      swap1\n      0x00\n      mstore\n      keccak256(0x00, 0x20)\n      add\n      0x00\n      swap2\n      pop\n      sload\n      swap1\n      0x0100\n      exp\n      swap1\n      div\n      0xffffffffffffffffffffffffffffffffffffffff\n      and\n      dup2\n      jump\t// out\n        /* \"GoldenBUSDLotto.sol\":7934:8009  function owner() public view returns (address) {... */\n    tag_105:\n        /* \"GoldenBUSDLotto.sol\":7972:7979  address */\n      0x00\n        /* \"GoldenBUSDLotto.sol\":7996:8002  _owner */\n      dup1\n      0x01\n      swap1\n      sload\n      swap1\n      0x0100\n      exp\n      swap1\n      div\n      0xffffffffffffffffffffffffffffffffffffffff\n      and\n        /* \"GoldenBUSDLotto.sol\":7989:8002  return _owner */\n      swap1\n      pop\n        /* \"GoldenBUSDLotto.sol\":7934:8009  function owner() public view returns (address) {... */\n      swap1\n      jump\t// out\n        /* \"GoldenBUSDLotto.sol\":9489:9516  address public tokenAddress */\n    tag_108:\n      0x13\n      0x00\n      swap1\n      sload\n      swap1\n      0x0100\n      exp\n      swap1\n      div\n      0xffffffffffffffffffffffffffffffffffffffff\n      and\n      dup2\n      jump\t// out\n        /* \"GoldenBUSDLotto.sol\":11136:11233  function viewTicket() external view returns(uint256){... */\n    tag_111:\n        /* \"GoldenBUSDLotto.sol\":11180:11187  uint256 */\n      0x00\n        /* \"GoldenBUSDLotto.sol\":11205:11226  maxParticipantNumbers */\n      sload(0x03)\n        /* \"GoldenBUSDLotto.sol\":11198:11226  return maxParticipantNumbers */\n      swap1\n      pop\n        /* \"GoldenBUSDLotto.sol\":11136:11233  function viewTicket() external view returns(uint256){... */\n      swap1\n      jump\t// out\n        /* \"GoldenBUSDLotto.sol\":14353:14454  function getLottery2Length() public view returns(uint256){... */\n    tag_114:\n        /* \"GoldenBUSDLotto.sol\":14402:14409  uint256 */\n      0x00\n        /* \"GoldenBUSDLotto.sol\":14427:14440  participants2 */\n      0x0e\n        /* \"GoldenBUSDLotto.sol\":14427:14447  participants2.length */\n      dup1\n      sload\n      swap1\n      pop\n        /* \"GoldenBUSDLotto.sol\":14420:14447  return participants2.length */\n      swap1\n      pop\n        /* \"GoldenBUSDLotto.sol\":14353:14454  function getLottery2Length() public view returns(uint256){... */\n      swap1\n      jump\t// out\n        /* \"GoldenBUSDLotto.sol\":11238:11337  function viewTicket1() external view returns(uint256){... */\n    tag_117:\n        /* \"GoldenBUSDLotto.sol\":11283:11290  uint256 */\n      0x00\n        /* \"GoldenBUSDLotto.sol\":11308:11330  maxParticipantNumbers1 */\n      sload(0x07)\n        /* \"GoldenBUSDLotto.sol\":11301:11330  return maxParticipantNumbers1 */\n      swap1\n      pop\n        /* \"GoldenBUSDLotto.sol\":11238:11337  function viewTicket1() external view returns(uint256){... */\n      swap1\n      jump\t// out\n        /* \"GoldenBUSDLotto.sol\":14246:14347  function getLottery1Length() public view returns(uint256){... */\n    tag_120:\n        /* \"GoldenBUSDLotto.sol\":14295:14302  uint256 */\n      0x00\n        /* \"GoldenBUSDLotto.sol\":14320:14333  participants1 */\n      0x0a\n        /* \"GoldenBUSDLotto.sol\":14320:14340  participants1.length */\n      dup1\n      sload\n      swap1\n      pop\n        /* \"GoldenBUSDLotto.sol\":14313:14340  return participants1.length */\n      swap1\n      pop\n        /* \"GoldenBUSDLotto.sol\":14246:14347  function getLottery1Length() public view returns(uint256){... */\n      swap1\n      jump\t// out\n        /* \"GoldenBUSDLotto.sol\":17074:17820  function allWinner() public view returns(address[] memory){... */\n    tag_123:\n        /* \"GoldenBUSDLotto.sol\":17115:17131  address[] memory */\n      0x60\n        /* \"GoldenBUSDLotto.sol\":17142:17165  address[] memory result */\n      0x00\n        /* \"GoldenBUSDLotto.sol\":17181:17183  17 */\n      0x11\n        /* \"GoldenBUSDLotto.sol\":17167:17184  new address[](17) */\n      0xffffffffffffffff\n      dup2\n      gt\n      iszero\n      tag_335\n      jumpi\n      tag_336\n      tag_173\n      jump\t// in\n    tag_336:\n    tag_335:\n      mload(0x40)\n      swap1\n      dup1\n      dup3\n      mstore\n      dup1\n      0x20\n      mul\n      0x20\n      add\n      dup3\n      add\n      0x40\n      mstore\n      dup1\n      iszero\n      tag_337\n      jumpi\n      dup2\n      0x20\n      add\n      0x20\n      dup3\n      mul\n      dup1\n      calldatasize\n      dup4\n      calldatacopy\n      dup1\n      dup3\n      add\n      swap2\n      pop\n      pop\n      swap1\n      pop\n    tag_337:\n      pop\n        /* \"GoldenBUSDLotto.sol\":17142:17184  address[] memory result= new address[](17) */\n      swap1\n      pop\n        /* \"GoldenBUSDLotto.sol\":17194:17213  uint256 arrayLength */\n      0x00\n        /* \"GoldenBUSDLotto.sol\":17216:17229  winnerLottery */\n      0x10\n        /* \"GoldenBUSDLotto.sol\":17216:17236  winnerLottery.length */\n      dup1\n      sload\n      swap1\n      pop\n        /* \"GoldenBUSDLotto.sol\":17194:17236  uint256 arrayLength = winnerLottery.length */\n      swap1\n      pop\n        /* \"GoldenBUSDLotto.sol\":17246:17266  uint256 resultLength */\n      0x00\n        /* \"GoldenBUSDLotto.sol\":17269:17275  result */\n      dup3\n        /* \"GoldenBUSDLotto.sol\":17269:17282  result.length */\n      mload\n        /* \"GoldenBUSDLotto.sol\":17246:17282  uint256 resultLength = result.length */\n      swap1\n      pop\n        /* \"GoldenBUSDLotto.sol\":17292:17305  uint256 index */\n      0x00\n        /* \"GoldenBUSDLotto.sol\":17333:17335  10 */\n      0x0a\n        /* \"GoldenBUSDLotto.sol\":17321:17332  arrayLength */\n      dup4\n        /* \"GoldenBUSDLotto.sol\":17321:17335  arrayLength>10 */\n      gt\n        /* \"GoldenBUSDLotto.sol\":17318:17791  if(arrayLength>10){... */\n      iszero\n      tag_338\n      jumpi\n        /* \"GoldenBUSDLotto.sol\":17359:17368  uint256 i */\n      0x00\n        /* \"GoldenBUSDLotto.sol\":17369:17380  arrayLength */\n      dup4\n        /* \"GoldenBUSDLotto.sol\":17359:17380  uint256 i=arrayLength */\n      swap1\n      pop\n        /* \"GoldenBUSDLotto.sol\":17354:17521  for (uint256 i=arrayLength; i>(arrayLength-10); i--) {... */\n    tag_339:\n        /* \"GoldenBUSDLotto.sol\":17397:17399  10 */\n      0x0a\n        /* \"GoldenBUSDLotto.sol\":17385:17396  arrayLength */\n      dup5\n        /* \"GoldenBUSDLotto.sol\":17385:17399  arrayLength-10 */\n      tag_342\n      swap2\n      swap1\n      tag_180\n      jump\t// in\n    tag_342:\n        /* \"GoldenBUSDLotto.sol\":17382:17383  i */\n      dup2\n        /* \"GoldenBUSDLotto.sol\":17382:17400  i>(arrayLength-10) */\n      gt\n        /* \"GoldenBUSDLotto.sol\":17354:17521  for (uint256 i=arrayLength; i>(arrayLength-10); i--) {... */\n      iszero\n      tag_340\n      jumpi\n        /* \"GoldenBUSDLotto.sol\":17429:17443  resultLength++ */\n      dup3\n      dup1\n      tag_343\n      swap1\n      tag_182\n      jump\t// in\n    tag_343:\n      swap4\n      pop\n      pop\n        /* \"GoldenBUSDLotto.sol\":17486:17499  winnerLottery */\n      0x10\n        /* \"GoldenBUSDLotto.sol\":17500:17501  i */\n      dup2\n        /* \"GoldenBUSDLotto.sol\":17486:17502  winnerLottery[i] */\n      dup2\n      sload\n      dup2\n      lt\n      tag_344\n      jumpi\n      tag_345\n      tag_185\n      jump\t// in\n    tag_345:\n    tag_344:\n      swap1\n      0x00\n      mstore\n      keccak256(0x00, 0x20)\n      add\n      0x00\n      swap1\n      sload\n      swap1\n      0x0100\n      exp\n      swap1\n      div\n      0xffffffffffffffffffffffffffffffffffffffff\n      and\n        /* \"GoldenBUSDLotto.sol\":17465:17471  result */\n      dup6\n        /* \"GoldenBUSDLotto.sol\":17472:17484  resultLength */\n      dup5\n        /* \"GoldenBUSDLotto.sol\":17465:17485  result[resultLength] */\n      dup2\n      mload\n      dup2\n      lt\n      tag_347\n      jumpi\n      tag_348\n      tag_185\n      jump\t// in\n    tag_348:\n    tag_347:\n      0x20\n      mul\n      0x20\n      add\n      add\n        /* \"GoldenBUSDLotto.sol\":17465:17502  result[resultLength]=winnerLottery[i] */\n      swap1\n      0xffffffffffffffffffffffffffffffffffffffff\n      and\n      swap1\n      dup2\n      0xffffffffffffffffffffffffffffffffffffffff\n      and\n      dup2\n      mstore\n      pop\n      pop\n        /* \"GoldenBUSDLotto.sol\":17402:17405  i-- */\n      dup1\n      dup1\n      tag_349\n      swap1\n      tag_190\n      jump\t// in\n    tag_349:\n      swap2\n      pop\n      pop\n        /* \"GoldenBUSDLotto.sol\":17354:17521  for (uint256 i=arrayLength; i>(arrayLength-10); i--) {... */\n      jump(tag_339)\n    tag_340:\n      pop\n        /* \"GoldenBUSDLotto.sol\":17318:17791  if(arrayLength>10){... */\n      jump(tag_350)\n    tag_338:\n        /* \"GoldenBUSDLotto.sol\":17564:17573  uint256 i */\n      0x00\n        /* \"GoldenBUSDLotto.sol\":17574:17585  arrayLength */\n      dup4\n        /* \"GoldenBUSDLotto.sol\":17564:17585  uint256 i=arrayLength */\n      swap1\n      pop\n        /* \"GoldenBUSDLotto.sol\":17559:17781  for (uint256 i=arrayLength; i>0; i--) {... */\n    tag_351:\n        /* \"GoldenBUSDLotto.sol\":17589:17590  0 */\n      0x00\n        /* \"GoldenBUSDLotto.sol\":17587:17588  i */\n      dup2\n        /* \"GoldenBUSDLotto.sol\":17587:17590  i>0 */\n      gt\n        /* \"GoldenBUSDLotto.sol\":17559:17781  for (uint256 i=arrayLength; i>0; i--) {... */\n      iszero\n      tag_352\n      jumpi\n        /* \"GoldenBUSDLotto.sol\":17615:17629  resultLength++ */\n      dup3\n      dup1\n      tag_354\n      swap1\n      tag_182\n      jump\t// in\n    tag_354:\n      swap4\n      pop\n      pop\n        /* \"GoldenBUSDLotto.sol\":17647:17671  address payable _address */\n      0x00\n        /* \"GoldenBUSDLotto.sol\":17682:17695  winnerLottery */\n      0x10\n        /* \"GoldenBUSDLotto.sol\":17698:17699  1 */\n      0x01\n        /* \"GoldenBUSDLotto.sol\":17696:17697  i */\n      dup4\n        /* \"GoldenBUSDLotto.sol\":17696:17699  i-1 */\n      tag_355\n      swap2\n      swap1\n      tag_180\n      jump\t// in\n    tag_355:\n        /* \"GoldenBUSDLotto.sol\":17682:17700  winnerLottery[i-1] */\n      dup2\n      sload\n      dup2\n      lt\n      tag_356\n      jumpi\n      tag_357\n      tag_185\n      jump\t// in\n    tag_357:\n    tag_356:\n      swap1\n      0x00\n      mstore\n      keccak256(0x00, 0x20)\n      add\n      0x00\n      swap1\n      sload\n      swap1\n      0x0100\n      exp\n      swap1\n      div\n      0xffffffffffffffffffffffffffffffffffffffff\n      and\n        /* \"GoldenBUSDLotto.sol\":17647:17701  address payable _address = payable(winnerLottery[i-1]) */\n      swap1\n      pop\n        /* \"GoldenBUSDLotto.sol\":17733:17741  _address */\n      dup1\n        /* \"GoldenBUSDLotto.sol\":17719:17725  result */\n      dup7\n        /* \"GoldenBUSDLotto.sol\":17726:17731  index */\n      dup5\n        /* \"GoldenBUSDLotto.sol\":17719:17732  result[index] */\n      dup2\n      mload\n      dup2\n      lt\n      tag_359\n      jumpi\n      tag_360\n      tag_185\n      jump\t// in\n    tag_360:\n    tag_359:\n      0x20\n      mul\n      0x20\n      add\n      add\n        /* \"GoldenBUSDLotto.sol\":17719:17741  result[index]=_address */\n      swap1\n      0xffffffffffffffffffffffffffffffffffffffff\n      and\n      swap1\n      dup2\n      0xffffffffffffffffffffffffffffffffffffffff\n      and\n      dup2\n      mstore\n      pop\n      pop\n        /* \"GoldenBUSDLotto.sol\":17759:17766  index++ */\n      dup3\n      dup1\n      tag_361\n      swap1\n      tag_182\n      jump\t// in\n    tag_361:\n      swap4\n      pop\n      pop\n        /* \"GoldenBUSDLotto.sol\":17597:17781  {... */\n      pop\n        /* \"GoldenBUSDLotto.sol\":17592:17595  i-- */\n      dup1\n      dup1\n      tag_362\n      swap1\n      tag_190\n      jump\t// in\n    tag_362:\n      swap2\n      pop\n      pop\n        /* \"GoldenBUSDLotto.sol\":17559:17781  for (uint256 i=arrayLength; i>0; i--) {... */\n      jump(tag_351)\n    tag_352:\n      pop\n        /* \"GoldenBUSDLotto.sol\":17318:17791  if(arrayLength>10){... */\n    tag_350:\n        /* \"GoldenBUSDLotto.sol\":17807:17813  result */\n      dup4\n        /* \"GoldenBUSDLotto.sol\":17800:17813  return result */\n      swap5\n      pop\n      pop\n      pop\n      pop\n      pop\n        /* \"GoldenBUSDLotto.sol\":17074:17820  function allWinner() public view returns(address[] memory){... */\n      swap1\n      jump\t// out\n        /* \"GoldenBUSDLotto.sol\":10002:10119  function lotteryBalance() public view returns(uint256) {... */\n    tag_126:\n        /* \"GoldenBUSDLotto.sol\":10048:10055  uint256 */\n      0x00\n        /* \"GoldenBUSDLotto.sol\":10074:10087  BusdInterface */\n      0x14\n      0x00\n      swap1\n      sload\n      swap1\n      0x0100\n      exp\n      swap1\n      div\n      0xffffffffffffffffffffffffffffffffffffffff\n      and\n        /* \"GoldenBUSDLotto.sol\":10074:10097  BusdInterface.balanceOf */\n      0xffffffffffffffffffffffffffffffffffffffff\n      and\n      0x70a08231\n        /* \"GoldenBUSDLotto.sol\":10106:10110  this */\n      address\n        /* \"GoldenBUSDLotto.sol\":10074:10112  BusdInterface.balanceOf(address(this)) */\n      mload(0x40)\n      dup3\n      0xffffffff\n      and\n      0xe0\n      shl\n      dup2\n      mstore\n      0x04\n      add\n      tag_364\n      swap2\n      swap1\n      tag_74\n      jump\t// in\n    tag_364:\n      0x20\n      mload(0x40)\n      dup1\n      dup4\n      sub\n      dup2\n      dup7\n      gas\n      staticcall\n      iszero\n      dup1\n      iszero\n      tag_366\n      jumpi\n      returndatasize\n      0x00\n      dup1\n      returndatacopy\n      revert(0x00, returndatasize)\n    tag_366:\n      pop\n      pop\n      pop\n      pop\n      mload(0x40)\n      returndatasize\n      not(0x1f)\n      0x1f\n      dup3\n      add\n      and\n      dup3\n      add\n      dup1\n      0x40\n      mstore\n      pop\n      dup2\n      add\n      swap1\n      tag_367\n      swap2\n      swap1\n      tag_368\n      jump\t// in\n    tag_367:\n        /* \"GoldenBUSDLotto.sol\":10067:10112  return BusdInterface.balanceOf(address(this)) */\n      swap1\n      pop\n        /* \"GoldenBUSDLotto.sol\":10002:10119  function lotteryBalance() public view returns(uint256) {... */\n      swap1\n      jump\t// out\n        /* \"GoldenBUSDLotto.sol\":9522:9549  IERC20 public BusdInterface */\n    tag_129:\n      0x14\n      0x00\n      swap1\n      sload\n      swap1\n      0x0100\n      exp\n      swap1\n      div\n      0xffffffffffffffffffffffffffffffffffffffff\n      and\n      dup2\n      jump\t// out\n        /* \"GoldenBUSDLotto.sol\":11685:11761  function announceLottery2() public onlyOwner(){... */\n    tag_133:\n        /* \"GoldenBUSDLotto.sol\":8066:8078  _msgSender() */\n      tag_370\n        /* \"GoldenBUSDLotto.sol\":8066:8076  _msgSender */\n      tag_163\n        /* \"GoldenBUSDLotto.sol\":8066:8078  _msgSender() */\n      jump\t// in\n    tag_370:\n        /* \"GoldenBUSDLotto.sol\":8056:8078  _owner == _msgSender() */\n      0xffffffffffffffffffffffffffffffffffffffff\n      and\n        /* \"GoldenBUSDLotto.sol\":8056:8062  _owner */\n      0x00\n      0x01\n      swap1\n      sload\n      swap1\n      0x0100\n      exp\n      swap1\n      div\n      0xffffffffffffffffffffffffffffffffffffffff\n      and\n        /* \"GoldenBUSDLotto.sol\":8056:8078  _owner == _msgSender() */\n      0xffffffffffffffffffffffffffffffffffffffff\n      and\n      eq\n        /* \"GoldenBUSDLotto.sol\":8048:8115  require(_owner == _msgSender(), \"Ownable: caller is not the owner\") */\n      tag_371\n      jumpi\n      mload(0x40)\n      0x08c379a000000000000000000000000000000000000000000000000000000000\n      dup2\n      mstore\n      0x04\n      add\n      tag_372\n      swap1\n      tag_166\n      jump\t// in\n    tag_372:\n      mload(0x40)\n      dup1\n      swap2\n      sub\n      swap1\n      revert\n    tag_371:\n        /* \"GoldenBUSDLotto.sol\":11741:11754  pickwinner2() */\n      tag_374\n        /* \"GoldenBUSDLotto.sol\":11741:11752  pickwinner2 */\n      tag_246\n        /* \"GoldenBUSDLotto.sol\":11741:11754  pickwinner2() */\n      jump\t// in\n    tag_374:\n        /* \"GoldenBUSDLotto.sol\":11685:11761  function announceLottery2() public onlyOwner(){... */\n      jump\t// out\n        /* \"GoldenBUSDLotto.sol\":12481:13240  function joinLottery1(uint256 _amount) external notOwner() noReentrant{... */\n    tag_136:\n        /* \"GoldenBUSDLotto.sol\":8188:8194  _owner */\n      0x00\n      0x01\n      swap1\n      sload\n      swap1\n      0x0100\n      exp\n      swap1\n      div\n      0xffffffffffffffffffffffffffffffffffffffff\n      and\n        /* \"GoldenBUSDLotto.sol\":8174:8194  msg.sender != _owner */\n      0xffffffffffffffffffffffffffffffffffffffff\n      and\n        /* \"GoldenBUSDLotto.sol\":8174:8184  msg.sender */\n      caller\n        /* \"GoldenBUSDLotto.sol\":8174:8194  msg.sender != _owner */\n      0xffffffffffffffffffffffffffffffffffffffff\n      and\n      sub\n        /* \"GoldenBUSDLotto.sol\":8166:8213  require(msg.sender != _owner, \"Access denied!\") */\n      tag_376\n      jumpi\n      mload(0x40)\n      0x08c379a000000000000000000000000000000000000000000000000000000000\n      dup2\n      mstore\n      0x04\n      add\n      tag_377\n      swap1\n      tag_222\n      jump\t// in\n    tag_377:\n      mload(0x40)\n      dup1\n      swap2\n      sub\n      swap1\n      revert\n    tag_376:\n        /* \"GoldenBUSDLotto.sol\":7137:7143  locked */\n      0x00\n      dup1\n      sload\n      swap1\n      0x0100\n      exp\n      swap1\n      div\n      0xff\n      and\n        /* \"GoldenBUSDLotto.sol\":7136:7143  !locked */\n      iszero\n        /* \"GoldenBUSDLotto.sol\":7128:7162  require(!locked, \"No re-entrancy\") */\n      tag_379\n      jumpi\n      mload(0x40)\n      0x08c379a000000000000000000000000000000000000000000000000000000000\n      dup2\n      mstore\n      0x04\n      add\n      tag_380\n      swap1\n      tag_226\n      jump\t// in\n    tag_380:\n      mload(0x40)\n      dup1\n      swap2\n      sub\n      swap1\n      revert\n    tag_379:\n        /* \"GoldenBUSDLotto.sol\":7181:7185  true */\n      0x01\n        /* \"GoldenBUSDLotto.sol\":7172:7178  locked */\n      0x00\n      dup1\n        /* \"GoldenBUSDLotto.sol\":7172:7185  locked = true */\n      0x0100\n      exp\n      dup2\n      sload\n      dup2\n      0xff\n      mul\n      not\n      and\n      swap1\n      dup4\n      iszero\n      iszero\n      mul\n      or\n      swap1\n      sstore\n      pop\n        /* \"GoldenBUSDLotto.sol\":12569:12583  lotteryStarted */\n      0x0f\n      0x00\n      swap1\n      sload\n      swap1\n      0x0100\n      exp\n      swap1\n      div\n      0xff\n      and\n        /* \"GoldenBUSDLotto.sol\":12561:12615  require(lotteryStarted , \"Lottery is not started yet\") */\n      tag_382\n      jumpi\n      mload(0x40)\n      0x08c379a000000000000000000000000000000000000000000000000000000000\n      dup2\n      mstore\n      0x04\n      add\n      tag_383\n      swap1\n      tag_230\n      jump\t// in\n    tag_383:\n      mload(0x40)\n      dup1\n      swap2\n      sub\n      swap1\n      revert\n    tag_382:\n        /* \"GoldenBUSDLotto.sol\":12630:12658  logshh(_amount,ticketPrice1) */\n      0xa3de883741aefa0083d54de95483572ad5eaa074b33a0ae8dc98725d52cf8143\n        /* \"GoldenBUSDLotto.sol\":12637:12644  _amount */\n      dup2\n        /* \"GoldenBUSDLotto.sol\":12645:12657  ticketPrice1 */\n      sload(0x09)\n        /* \"GoldenBUSDLotto.sol\":12630:12658  logshh(_amount,ticketPrice1) */\n      mload(0x40)\n      tag_384\n      swap3\n      swap2\n      swap1\n      tag_385\n      jump\t// in\n    tag_384:\n      mload(0x40)\n      dup1\n      swap2\n      sub\n      swap1\n      log1\n        /* \"GoldenBUSDLotto.sol\":12687:12699  ticketPrice1 */\n      sload(0x09)\n        /* \"GoldenBUSDLotto.sol\":12676:12683  _amount */\n      dup2\n        /* \"GoldenBUSDLotto.sol\":12676:12699  _amount == ticketPrice1 */\n      eq\n        /* \"GoldenBUSDLotto.sol\":12668:12718  require(_amount == ticketPrice1,\"Not same amount\") */\n      tag_386\n      jumpi\n      mload(0x40)\n      0x08c379a000000000000000000000000000000000000000000000000000000000\n      dup2\n      mstore\n      0x04\n      add\n      tag_387\n      swap1\n      tag_311\n      jump\t// in\n    tag_387:\n      mload(0x40)\n      dup1\n      swap2\n      sub\n      swap1\n      revert\n    tag_386:\n        /* \"GoldenBUSDLotto.sol\":12728:12736  bool chk */\n      0x00\n        /* \"GoldenBUSDLotto.sol\":12738:12751  BusdInterface */\n      0x14\n      0x00\n      swap1\n      sload\n      swap1\n      0x0100\n      exp\n      swap1\n      div\n      0xffffffffffffffffffffffffffffffffffffffff\n      and\n        /* \"GoldenBUSDLotto.sol\":12738:12764  BusdInterface.transferFrom */\n      0xffffffffffffffffffffffffffffffffffffffff\n      and\n      0x23b872dd\n        /* \"GoldenBUSDLotto.sol\":12765:12775  msg.sender */\n      caller\n        /* \"GoldenBUSDLotto.sol\":12784:12788  this */\n      address\n        /* \"GoldenBUSDLotto.sol\":12790:12797  _amount */\n      dup6\n        /* \"GoldenBUSDLotto.sol\":12738:12798  BusdInterface.transferFrom(msg.sender,address(this),_amount) */\n      mload(0x40)\n      dup5\n      0xffffffff\n      and\n      0xe0\n      shl\n      dup2\n      mstore\n      0x04\n      add\n      tag_388\n      swap4\n      swap3\n      swap2\n      swap1\n      tag_235\n      jump\t// in\n    tag_388:\n      0x20\n      mload(0x40)\n      dup1\n      dup4\n      sub\n      dup2\n      0x00\n      dup8\n      gas\n      call\n      iszero\n      dup1\n      iszero\n      tag_390\n      jumpi\n      returndatasize\n      0x00\n      dup1\n      returndatacopy\n      revert(0x00, returndatasize)\n    tag_390:\n      pop\n      pop\n      pop\n      pop\n      mload(0x40)\n      returndatasize\n      not(0x1f)\n      0x1f\n      dup3\n      add\n      and\n      dup3\n      add\n      dup1\n      0x40\n      mstore\n      pop\n      dup2\n      add\n      swap1\n      tag_391\n      swap2\n      swap1\n      tag_239\n      jump\t// in\n    tag_391:\n        /* \"GoldenBUSDLotto.sol\":12728:12798  bool chk= BusdInterface.transferFrom(msg.sender,address(this),_amount) */\n      swap1\n      pop\n        /* \"GoldenBUSDLotto.sol\":12811:12814  chk */\n      dup1\n        /* \"GoldenBUSDLotto.sol\":12808:13234  if(chk){... */\n      iszero\n      tag_392\n      jumpi\n        /* \"GoldenBUSDLotto.sol\":12855:12877  maxParticipantNumbers1 */\n      sload(0x07)\n        /* \"GoldenBUSDLotto.sol\":12833:12852  participantNumbers1 */\n      sload(0x08)\n        /* \"GoldenBUSDLotto.sol\":12833:12877  participantNumbers1 < maxParticipantNumbers1 */\n      lt\n        /* \"GoldenBUSDLotto.sol\":12829:13224  if (participantNumbers1 < maxParticipantNumbers1){... */\n      iszero\n      tag_393\n      jumpi\n        /* \"GoldenBUSDLotto.sol\":12896:12909  participants1 */\n      0x0a\n        /* \"GoldenBUSDLotto.sol\":12923:12933  msg.sender */\n      caller\n        /* \"GoldenBUSDLotto.sol\":12896:12935  participants1.push(payable(msg.sender)) */\n      swap1\n      dup1\n      0x01\n      dup2\n      sload\n      add\n      dup1\n      dup3\n      sstore\n      dup1\n      swap2\n      pop\n      pop\n      0x01\n      swap1\n      sub\n      swap1\n      0x00\n      mstore\n      keccak256(0x00, 0x20)\n      add\n      0x00\n      swap1\n      swap2\n      swap1\n      swap2\n      swap1\n      swap2\n      0x0100\n      exp\n      dup2\n      sload\n      dup2\n      0xffffffffffffffffffffffffffffffffffffffff\n      mul\n      not\n      and\n      swap1\n      dup4\n      0xffffffffffffffffffffffffffffffffffffffff\n      and\n      mul\n      or\n      swap1\n      sstore\n      pop\n        /* \"GoldenBUSDLotto.sol\":12953:12972  participantNumbers1 */\n      0x08\n      0x00\n        /* \"GoldenBUSDLotto.sol\":12953:12974  participantNumbers1++ */\n      dup2\n      sload\n      dup1\n      swap3\n      swap2\n      swap1\n      tag_395\n      swap1\n      tag_182\n      jump\t// in\n    tag_395:\n      swap2\n      swap1\n      pop\n      sstore\n      pop\n        /* \"GoldenBUSDLotto.sol\":13019:13041  maxParticipantNumbers1 */\n      sload(0x07)\n        /* \"GoldenBUSDLotto.sol\":12996:13015  participantNumbers1 */\n      sload(0x08)\n        /* \"GoldenBUSDLotto.sol\":12996:13041  participantNumbers1 == maxParticipantNumbers1 */\n      sub\n        /* \"GoldenBUSDLotto.sol\":12992:13096  if (participantNumbers1 == maxParticipantNumbers1){... */\n      tag_396\n      jumpi\n        /* \"GoldenBUSDLotto.sol\":13064:13077  pickwinner1() */\n      tag_397\n        /* \"GoldenBUSDLotto.sol\":13064:13075  pickwinner1 */\n      tag_169\n        /* \"GoldenBUSDLotto.sol\":13064:13077  pickwinner1() */\n      jump\t// in\n    tag_397:\n        /* \"GoldenBUSDLotto.sol\":12992:13096  if (participantNumbers1 == maxParticipantNumbers1){... */\n    tag_396:\n        /* \"GoldenBUSDLotto.sol\":12829:13224  if (participantNumbers1 < maxParticipantNumbers1){... */\n      jump(tag_398)\n    tag_393:\n        /* \"GoldenBUSDLotto.sol\":13155:13177  maxParticipantNumbers1 */\n      sload(0x07)\n        /* \"GoldenBUSDLotto.sol\":13132:13151  participantNumbers1 */\n      sload(0x08)\n        /* \"GoldenBUSDLotto.sol\":13132:13177  participantNumbers1 == maxParticipantNumbers1 */\n      sub\n        /* \"GoldenBUSDLotto.sol\":13128:13224  if (participantNumbers1 == maxParticipantNumbers1){... */\n      tag_399\n      jumpi\n        /* \"GoldenBUSDLotto.sol\":13196:13209  pickwinner1() */\n      tag_400\n        /* \"GoldenBUSDLotto.sol\":13196:13207  pickwinner1 */\n      tag_169\n        /* \"GoldenBUSDLotto.sol\":13196:13209  pickwinner1() */\n      jump\t// in\n    tag_400:\n        /* \"GoldenBUSDLotto.sol\":13128:13224  if (participantNumbers1 == maxParticipantNumbers1){... */\n    tag_399:\n        /* \"GoldenBUSDLotto.sol\":12829:13224  if (participantNumbers1 < maxParticipantNumbers1){... */\n    tag_398:\n        /* \"GoldenBUSDLotto.sol\":12808:13234  if(chk){... */\n    tag_392:\n        /* \"GoldenBUSDLotto.sol\":12551:13240  {... */\n      pop\n        /* \"GoldenBUSDLotto.sol\":7215:7220  false */\n      0x00\n        /* \"GoldenBUSDLotto.sol\":7206:7212  locked */\n      dup1\n      0x00\n        /* \"GoldenBUSDLotto.sol\":7206:7220  locked = false */\n      0x0100\n      exp\n      dup2\n      sload\n      dup2\n      0xff\n      mul\n      not\n      and\n      swap1\n      dup4\n      iszero\n      iszero\n      mul\n      or\n      swap1\n      sstore\n      pop\n        /* \"GoldenBUSDLotto.sol\":12481:13240  function joinLottery1(uint256 _amount) external notOwner() noReentrant{... */\n      pop\n      jump\t// out\n        /* \"GoldenBUSDLotto.sol\":17826:18560  function allWinner1() public view returns(address[] memory){... */\n    tag_138:\n        /* \"GoldenBUSDLotto.sol\":17868:17884  address[] memory */\n      0x60\n        /* \"GoldenBUSDLotto.sol\":17895:17918  address[] memory result */\n      0x00\n        /* \"GoldenBUSDLotto.sol\":17934:17936  17 */\n      0x11\n        /* \"GoldenBUSDLotto.sol\":17920:17937  new address[](17) */\n      0xffffffffffffffff\n      dup2\n      gt\n      iszero\n      tag_402\n      jumpi\n      tag_403\n      tag_173\n      jump\t// in\n    tag_403:\n    tag_402:\n      mload(0x40)\n      swap1\n      dup1\n      dup3\n      mstore\n      dup1\n      0x20\n      mul\n      0x20\n      add\n      dup3\n      add\n      0x40\n      mstore\n      dup1\n      iszero\n      tag_404\n      jumpi\n      dup2\n      0x20\n      add\n      0x20\n      dup3\n      mul\n      dup1\n      calldatasize\n      dup4\n      calldatacopy\n      dup1\n      dup3\n      add\n      swap2\n      pop\n      pop\n      swap1\n      pop\n    tag_404:\n      pop\n        /* \"GoldenBUSDLotto.sol\":17895:17937  address[] memory result= new address[](17) */\n      swap1\n      pop\n        /* \"GoldenBUSDLotto.sol\":17947:17966  uint256 arrayLength */\n      0x00\n        /* \"GoldenBUSDLotto.sol\":17969:17983  winnerLottery1 */\n      0x11\n        /* \"GoldenBUSDLotto.sol\":17969:17990  winnerLottery1.length */\n      dup1\n      sload\n      swap1\n      pop\n        /* \"GoldenBUSDLotto.sol\":17947:17990  uint256 arrayLength = winnerLottery1.length */\n      swap1\n      pop\n        /* \"GoldenBUSDLotto.sol\":18000:18020  uint256 resultLength */\n      0x00\n        /* \"GoldenBUSDLotto.sol\":18023:18029  result */\n      dup3\n        /* \"GoldenBUSDLotto.sol\":18023:18036  result.length */\n      mload\n        /* \"GoldenBUSDLotto.sol\":18000:18036  uint256 resultLength = result.length */\n      swap1\n      pop\n        /* \"GoldenBUSDLotto.sol\":18046:18059  uint256 index */\n      0x00\n        /* \"GoldenBUSDLotto.sol\":18087:18089  10 */\n      0x0a\n        /* \"GoldenBUSDLotto.sol\":18075:18086  arrayLength */\n      dup4\n        /* \"GoldenBUSDLotto.sol\":18075:18089  arrayLength>10 */\n      gt\n        /* \"GoldenBUSDLotto.sol\":18072:18531  if(arrayLength>10){... */\n      iszero\n      tag_405\n      jumpi\n        /* \"GoldenBUSDLotto.sol\":18109:18118  uint256 i */\n      0x00\n        /* \"GoldenBUSDLotto.sol\":18119:18130  arrayLength */\n      dup4\n        /* \"GoldenBUSDLotto.sol\":18109:18130  uint256 i=arrayLength */\n      swap1\n      pop\n        /* \"GoldenBUSDLotto.sol\":18104:18260  for (uint256 i=arrayLength; i>(arrayLength-10); i--) {... */\n    tag_406:\n        /* \"GoldenBUSDLotto.sol\":18147:18149  10 */\n      0x0a\n        /* \"GoldenBUSDLotto.sol\":18135:18146  arrayLength */\n      dup5\n        /* \"GoldenBUSDLotto.sol\":18135:18149  arrayLength-10 */\n      tag_409\n      swap2\n      swap1\n      tag_180\n      jump\t// in\n    tag_409:\n        /* \"GoldenBUSDLotto.sol\":18132:18133  i */\n      dup2\n        /* \"GoldenBUSDLotto.sol\":18132:18150  i>(arrayLength-10) */\n      gt\n        /* \"GoldenBUSDLotto.sol\":18104:18260  for (uint256 i=arrayLength; i>(arrayLength-10); i--) {... */\n      iszero\n      tag_407\n      jumpi\n        /* \"GoldenBUSDLotto.sol\":18175:18189  resultLength++ */\n      dup3\n      dup1\n      tag_410\n      swap1\n      tag_182\n      jump\t// in\n    tag_410:\n      swap4\n      pop\n      pop\n        /* \"GoldenBUSDLotto.sol\":18228:18242  winnerLottery1 */\n      0x11\n        /* \"GoldenBUSDLotto.sol\":18243:18244  i */\n      dup2\n        /* \"GoldenBUSDLotto.sol\":18228:18245  winnerLottery1[i] */\n      dup2\n      sload\n      dup2\n      lt\n      tag_411\n      jumpi\n      tag_412\n      tag_185\n      jump\t// in\n    tag_412:\n    tag_411:\n      swap1\n      0x00\n      mstore\n      keccak256(0x00, 0x20)\n      add\n      0x00\n      swap1\n      sload\n      swap1\n      0x0100\n      exp\n      swap1\n      div\n      0xffffffffffffffffffffffffffffffffffffffff\n      and\n        /* \"GoldenBUSDLotto.sol\":18207:18213  result */\n      dup6\n        /* \"GoldenBUSDLotto.sol\":18214:18226  resultLength */\n      dup5\n        /* \"GoldenBUSDLotto.sol\":18207:18227  result[resultLength] */\n      dup2\n      mload\n      dup2\n      lt\n      tag_414\n      jumpi\n      tag_415\n      tag_185\n      jump\t// in\n    tag_415:\n    tag_414:\n      0x20\n      mul\n      0x20\n      add\n      add\n        /* \"GoldenBUSDLotto.sol\":18207:18245  result[resultLength]=winnerLottery1[i] */\n      swap1\n      0xffffffffffffffffffffffffffffffffffffffff\n      and\n      swap1\n      dup2\n      0xffffffffffffffffffffffffffffffffffffffff\n      and\n      dup2\n      mstore\n      pop\n      pop\n        /* \"GoldenBUSDLotto.sol\":18152:18155  i-- */\n      dup1\n      dup1\n      tag_416\n      swap1\n      tag_190\n      jump\t// in\n    tag_416:\n      swap2\n      pop\n      pop\n        /* \"GoldenBUSDLotto.sol\":18104:18260  for (uint256 i=arrayLength; i>(arrayLength-10); i--) {... */\n      jump(tag_406)\n    tag_407:\n      pop\n        /* \"GoldenBUSDLotto.sol\":18072:18531  if(arrayLength>10){... */\n      jump(tag_417)\n    tag_405:\n        /* \"GoldenBUSDLotto.sol\":18303:18312  uint256 i */\n      0x00\n        /* \"GoldenBUSDLotto.sol\":18313:18324  arrayLength */\n      dup4\n        /* \"GoldenBUSDLotto.sol\":18303:18324  uint256 i=arrayLength */\n      swap1\n      pop\n        /* \"GoldenBUSDLotto.sol\":18298:18521  for (uint256 i=arrayLength; i>0; i--) {... */\n    tag_418:\n        /* \"GoldenBUSDLotto.sol\":18328:18329  0 */\n      0x00\n        /* \"GoldenBUSDLotto.sol\":18326:18327  i */\n      dup2\n        /* \"GoldenBUSDLotto.sol\":18326:18329  i>0 */\n      gt\n        /* \"GoldenBUSDLotto.sol\":18298:18521  for (uint256 i=arrayLength; i>0; i--) {... */\n      iszero\n      tag_419\n      jumpi\n        /* \"GoldenBUSDLotto.sol\":18354:18368  resultLength++ */\n      dup3\n      dup1\n      tag_421\n      swap1\n      tag_182\n      jump\t// in\n    tag_421:\n      swap4\n      pop\n      pop\n        /* \"GoldenBUSDLotto.sol\":18386:18410  address payable _address */\n      0x00\n        /* \"GoldenBUSDLotto.sol\":18421:18435  winnerLottery1 */\n      0x11\n        /* \"GoldenBUSDLotto.sol\":18438:18439  1 */\n      0x01\n        /* \"GoldenBUSDLotto.sol\":18436:18437  i */\n      dup4\n        /* \"GoldenBUSDLotto.sol\":18436:18439  i-1 */\n      tag_422\n      swap2\n      swap1\n      tag_180\n      jump\t// in\n    tag_422:\n        /* \"GoldenBUSDLotto.sol\":18421:18440  winnerLottery1[i-1] */\n      dup2\n      sload\n      dup2\n      lt\n      tag_423\n      jumpi\n      tag_424\n      tag_185\n      jump\t// in\n    tag_424:\n    tag_423:\n      swap1\n      0x00\n      mstore\n      keccak256(0x00, 0x20)\n      add\n      0x00\n      swap1\n      sload\n      swap1\n      0x0100\n      exp\n      swap1\n      div\n      0xffffffffffffffffffffffffffffffffffffffff\n      and\n        /* \"GoldenBUSDLotto.sol\":18386:18441  address payable _address = payable(winnerLottery1[i-1]) */\n      swap1\n      pop\n        /* \"GoldenBUSDLotto.sol\":18473:18481  _address */\n      dup1\n        /* \"GoldenBUSDLotto.sol\":18459:18465  result */\n      dup7\n        /* \"GoldenBUSDLotto.sol\":18466:18471  index */\n      dup5\n        /* \"GoldenBUSDLotto.sol\":18459:18472  result[index] */\n      dup2\n      mload\n      dup2\n      lt\n      tag_426\n      jumpi\n      tag_427\n      tag_185\n      jump\t// in\n    tag_427:\n    tag_426:\n      0x20\n      mul\n      0x20\n      add\n      add\n        /* \"GoldenBUSDLotto.sol\":18459:18481  result[index]=_address */\n      swap1\n      0xffffffffffffffffffffffffffffffffffffffff\n      and\n      swap1\n      dup2\n      0xffffffffffffffffffffffffffffffffffffffff\n      and\n      dup2\n      mstore\n      pop\n      pop\n        /* \"GoldenBUSDLotto.sol\":18499:18506  index++ */\n      dup3\n      dup1\n      tag_428\n      swap1\n      tag_182\n      jump\t// in\n    tag_428:\n      swap4\n      pop\n      pop\n        /* \"GoldenBUSDLotto.sol\":18336:18521  {... */\n      pop\n        /* \"GoldenBUSDLotto.sol\":18331:18334  i-- */\n      dup1\n      dup1\n      tag_429\n      swap1\n      tag_190\n      jump\t// in\n    tag_429:\n      swap2\n      pop\n      pop\n        /* \"GoldenBUSDLotto.sol\":18298:18521  for (uint256 i=arrayLength; i>0; i--) {... */\n      jump(tag_418)\n    tag_419:\n      pop\n        /* \"GoldenBUSDLotto.sol\":18072:18531  if(arrayLength>10){... */\n    tag_417:\n        /* \"GoldenBUSDLotto.sol\":18547:18553  result */\n      dup4\n        /* \"GoldenBUSDLotto.sol\":18540:18553  return result */\n      swap5\n      pop\n      pop\n      pop\n      pop\n      pop\n        /* \"GoldenBUSDLotto.sol\":17826:18560  function allWinner1() public view returns(address[] memory){... */\n      swap1\n      jump\t// out\n        /* \"GoldenBUSDLotto.sol\":11342:11441  function viewTicket2() external view returns(uint256){... */\n    tag_141:\n        /* \"GoldenBUSDLotto.sol\":11387:11394  uint256 */\n      0x00\n        /* \"GoldenBUSDLotto.sol\":11412:11434  maxParticipantNumbers2 */\n      sload(0x0b)\n        /* \"GoldenBUSDLotto.sol\":11405:11434  return maxParticipantNumbers2 */\n      swap1\n      pop\n        /* \"GoldenBUSDLotto.sol\":11342:11441  function viewTicket2() external view returns(uint256){... */\n      swap1\n      jump\t// out\n        /* \"GoldenBUSDLotto.sol\":10242:10351  function setTicketPrice1(uint256 _valueInEther) public onlyOwner{... */\n    tag_145:\n        /* \"GoldenBUSDLotto.sol\":8066:8078  _msgSender() */\n      tag_432\n        /* \"GoldenBUSDLotto.sol\":8066:8076  _msgSender */\n      tag_163\n        /* \"GoldenBUSDLotto.sol\":8066:8078  _msgSender() */\n      jump\t// in\n    tag_432:\n        /* \"GoldenBUSDLotto.sol\":8056:8078  _owner == _msgSender() */\n      0xffffffffffffffffffffffffffffffffffffffff\n      and\n        /* \"GoldenBUSDLotto.sol\":8056:8062  _owner */\n      0x00\n      0x01\n      swap1\n      sload\n      swap1\n      0x0100\n      exp\n      swap1\n      div\n      0xffffffffffffffffffffffffffffffffffffffff\n      and\n        /* \"GoldenBUSDLotto.sol\":8056:8078  _owner == _msgSender() */\n      0xffffffffffffffffffffffffffffffffffffffff\n      and\n      eq\n        /* \"GoldenBUSDLotto.sol\":8048:8115  require(_owner == _msgSender(), \"Ownable: caller is not the owner\") */\n      tag_433\n      jumpi\n      mload(0x40)\n      0x08c379a000000000000000000000000000000000000000000000000000000000\n      dup2\n      mstore\n      0x04\n      add\n      tag_434\n      swap1\n      tag_166\n      jump\t// in\n    tag_434:\n      mload(0x40)\n      dup1\n      swap2\n      sub\n      swap1\n      revert\n    tag_433:\n        /* \"GoldenBUSDLotto.sol\":10331:10344  _valueInEther */\n      dup1\n        /* \"GoldenBUSDLotto.sol\":10316:10328  ticketPrice1 */\n      0x09\n        /* \"GoldenBUSDLotto.sol\":10316:10344  ticketPrice1 = _valueInEther */\n      dup2\n      swap1\n      sstore\n      pop\n        /* \"GoldenBUSDLotto.sol\":10242:10351  function setTicketPrice1(uint256 _valueInEther) public onlyOwner{... */\n      pop\n      jump\t// out\n        /* \"GoldenBUSDLotto.sol\":10938:11032  function viewTicketPrice1() external view returns(uint256){... */\n    tag_147:\n        /* \"GoldenBUSDLotto.sol\":10988:10995  uint256 */\n      0x00\n        /* \"GoldenBUSDLotto.sol\":11013:11025  ticketPrice1 */\n      sload(0x09)\n        /* \"GoldenBUSDLotto.sol\":11006:11025  return ticketPrice1 */\n      swap1\n      pop\n        /* \"GoldenBUSDLotto.sol\":10938:11032  function viewTicketPrice1() external view returns(uint256){... */\n      swap1\n      jump\t// out\n        /* \"GoldenBUSDLotto.sol\":10357:10466  function setTicketPrice2(uint256 _valueInEther) public onlyOwner{... */\n    tag_151:\n        /* \"GoldenBUSDLotto.sol\":8066:8078  _msgSender() */\n      tag_438\n        /* \"GoldenBUSDLotto.sol\":8066:8076  _msgSender */\n      tag_163\n        /* \"GoldenBUSDLotto.sol\":8066:8078  _msgSender() */\n      jump\t// in\n    tag_438:\n        /* \"GoldenBUSDLotto.sol\":8056:8078  _owner == _msgSender() */\n      0xffffffffffffffffffffffffffffffffffffffff\n      and\n        /* \"GoldenBUSDLotto.sol\":8056:8062  _owner */\n      0x00\n      0x01\n      swap1\n      sload\n      swap1\n      0x0100\n      exp\n      swap1\n      div\n      0xffffffffffffffffffffffffffffffffffffffff\n      and\n        /* \"GoldenBUSDLotto.sol\":8056:8078  _owner == _msgSender() */\n      0xffffffffffffffffffffffffffffffffffffffff\n      and\n      eq\n        /* \"GoldenBUSDLotto.sol\":8048:8115  require(_owner == _msgSender(), \"Ownable: caller is not the owner\") */\n      tag_439\n      jumpi\n      mload(0x40)\n      0x08c379a000000000000000000000000000000000000000000000000000000000\n      dup2\n      mstore\n      0x04\n      add\n      tag_440\n      swap1\n      tag_166\n      jump\t// in\n    tag_440:\n      mload(0x40)\n      dup1\n      swap2\n      sub\n      swap1\n      revert\n    tag_439:\n        /* \"GoldenBUSDLotto.sol\":10446:10459  _valueInEther */\n      dup1\n        /* \"GoldenBUSDLotto.sol\":10431:10443  ticketPrice2 */\n      0x0d\n        /* \"GoldenBUSDLotto.sol\":10431:10459  ticketPrice2 = _valueInEther */\n      dup2\n      swap1\n      sstore\n      pop\n        /* \"GoldenBUSDLotto.sol\":10357:10466  function setTicketPrice2(uint256 _valueInEther) public onlyOwner{... */\n      pop\n      jump\t// out\n        /* \"GoldenBUSDLotto.sol\":9379:9409  address[] public winnerLottery */\n    tag_154:\n      0x10\n      dup2\n      dup2\n      sload\n      dup2\n      lt\n      tag_442\n      jumpi\n      0x00\n      dup1\n      revert\n    tag_442:\n      swap1\n      0x00\n      mstore\n      keccak256(0x00, 0x20)\n      add\n      0x00\n      swap2\n      pop\n      sload\n      swap1\n      0x0100\n      exp\n      swap1\n      div\n      0xffffffffffffffffffffffffffffffffffffffff\n      and\n      dup2\n      jump\t// out\n        /* \"GoldenBUSDLotto.sol\":8376:8481  function transferOwnership(address newOwner) public onlyOwner {... */\n    tag_158:\n        /* \"GoldenBUSDLotto.sol\":8066:8078  _msgSender() */\n      tag_445\n        /* \"GoldenBUSDLotto.sol\":8066:8076  _msgSender */\n      tag_163\n        /* \"GoldenBUSDLotto.sol\":8066:8078  _msgSender() */\n      jump\t// in\n    tag_445:\n        /* \"GoldenBUSDLotto.sol\":8056:8078  _owner == _msgSender() */\n      0xffffffffffffffffffffffffffffffffffffffff\n      and\n        /* \"GoldenBUSDLotto.sol\":8056:8062  _owner */\n      0x00\n      0x01\n      swap1\n      sload\n      swap1\n      0x0100\n      exp\n      swap1\n      div\n      0xffffffffffffffffffffffffffffffffffffffff\n      and\n        /* \"GoldenBUSDLotto.sol\":8056:8078  _owner == _msgSender() */\n      0xffffffffffffffffffffffffffffffffffffffff\n      and\n      eq\n        /* \"GoldenBUSDLotto.sol\":8048:8115  require(_owner == _msgSender(), \"Ownable: caller is not the owner\") */\n      tag_446\n      jumpi\n      mload(0x40)\n      0x08c379a000000000000000000000000000000000000000000000000000000000\n      dup2\n      mstore\n      0x04\n      add\n      tag_447\n      swap1\n      tag_166\n      jump\t// in\n    tag_447:\n      mload(0x40)\n      dup1\n      swap2\n      sub\n      swap1\n      revert\n    tag_446:\n        /* \"GoldenBUSDLotto.sol\":8446:8474  _transferOwnership(newOwner) */\n      tag_449\n        /* \"GoldenBUSDLotto.sol\":8465:8473  newOwner */\n      dup2\n        /* \"GoldenBUSDLotto.sol\":8446:8464  _transferOwnership */\n      tag_450\n        /* \"GoldenBUSDLotto.sol\":8446:8474  _transferOwnership(newOwner) */\n      jump\t// in\n    tag_449:\n        /* \"GoldenBUSDLotto.sol\":8376:8481  function transferOwnership(address newOwner) public onlyOwner {... */\n      pop\n      jump\t// out\n        /* \"GoldenBUSDLotto.sol\":11533:11607  function announceLottery() public onlyOwner(){... */\n    tag_160:\n        /* \"GoldenBUSDLotto.sol\":8066:8078  _msgSender() */\n      tag_452\n        /* \"GoldenBUSDLotto.sol\":8066:8076  _msgSender */\n      tag_163\n        /* \"GoldenBUSDLotto.sol\":8066:8078  _msgSender() */\n      jump\t// in\n    tag_452:\n        /* \"GoldenBUSDLotto.sol\":8056:8078  _owner == _msgSender() */\n      0xffffffffffffffffffffffffffffffffffffffff\n      and\n        /* \"GoldenBUSDLotto.sol\":8056:8062  _owner */\n      0x00\n      0x01\n      swap1\n      sload\n      swap1\n      0x0100\n      exp\n      swap1\n      div\n      0xffffffffffffffffffffffffffffffffffffffff\n      and\n        /* \"GoldenBUSDLotto.sol\":8056:8078  _owner == _msgSender() */\n      0xffffffffffffffffffffffffffffffffffffffff\n      and\n      eq\n        /* \"GoldenBUSDLotto.sol\":8048:8115  require(_owner == _msgSender(), \"Ownable: caller is not the owner\") */\n      tag_453\n      jumpi\n      mload(0x40)\n      0x08c379a000000000000000000000000000000000000000000000000000000000\n      dup2\n      mstore\n      0x04\n      add\n      tag_454\n      swap1\n      tag_166\n      jump\t// in\n    tag_454:\n      mload(0x40)\n      dup1\n      swap2\n      sub\n      swap1\n      revert\n    tag_453:\n        /* \"GoldenBUSDLotto.sol\":11588:11600  pickwinner() */\n      tag_456\n        /* \"GoldenBUSDLotto.sol\":11588:11598  pickwinner */\n      tag_322\n        /* \"GoldenBUSDLotto.sol\":11588:11600  pickwinner() */\n      jump\t// in\n    tag_456:\n        /* \"GoldenBUSDLotto.sol\":11533:11607  function announceLottery() public onlyOwner(){... */\n      jump\t// out\n        /* \"GoldenBUSDLotto.sol\":7263:7359  function _msgSender() internal view virtual returns (address) {... */\n    tag_163:\n        /* \"GoldenBUSDLotto.sol\":7316:7323  address */\n      0x00\n        /* \"GoldenBUSDLotto.sol\":7342:7352  msg.sender */\n      caller\n        /* \"GoldenBUSDLotto.sol\":7335:7352  return msg.sender */\n      swap1\n      pop\n        /* \"GoldenBUSDLotto.sol\":7263:7359  function _msgSender() internal view virtual returns (address) {... */\n      swap1\n      jump\t// out\n        /* \"GoldenBUSDLotto.sol\":15962:16512  function pickwinner1() internal {... */\n    tag_169:\n        /* \"GoldenBUSDLotto.sol\":16004:16012  uint win */\n      0x00\n        /* \"GoldenBUSDLotto.sol\":16026:16039  participants1 */\n      0x0a\n        /* \"GoldenBUSDLotto.sol\":16026:16046  participants1.length */\n      dup1\n      sload\n      swap1\n      pop\n        /* \"GoldenBUSDLotto.sol\":16015:16023  random() */\n      tag_459\n        /* \"GoldenBUSDLotto.sol\":16015:16021  random */\n      tag_460\n        /* \"GoldenBUSDLotto.sol\":16015:16023  random() */\n      jump\t// in\n    tag_459:\n        /* \"GoldenBUSDLotto.sol\":16015:16046  random() % participants1.length */\n      tag_461\n      swap2\n      swap1\n      tag_462\n      jump\t// in\n    tag_461:\n        /* \"GoldenBUSDLotto.sol\":16004:16046  uint win = random() % participants1.length */\n      swap1\n      pop\n        /* \"GoldenBUSDLotto.sol\":16056:16079  uint256 contractBalance */\n      0x00\n        /* \"GoldenBUSDLotto.sol\":16097:16110  participants1 */\n      0x0a\n        /* \"GoldenBUSDLotto.sol\":16097:16117  participants1.length */\n      dup1\n      sload\n      swap1\n      pop\n        /* \"GoldenBUSDLotto.sol\":16082:16094  ticketPrice1 */\n      sload(0x09)\n        /* \"GoldenBUSDLotto.sol\":16082:16117  ticketPrice1 * participants1.length */\n      tag_463\n      swap2\n      swap1\n      tag_464\n      jump\t// in\n    tag_463:\n        /* \"GoldenBUSDLotto.sol\":16056:16117  uint256 contractBalance = ticketPrice1 * participants1.length */\n      swap1\n      pop\n        /* \"GoldenBUSDLotto.sol\":16127:16146  uint256 gldnBusdFee */\n      0x00\n        /* \"GoldenBUSDLotto.sol\":16149:16200  SafeMath.div(SafeMath.mul(contractBalance,fee),100) */\n      tag_465\n        /* \"GoldenBUSDLotto.sol\":16162:16195  SafeMath.mul(contractBalance,fee) */\n      tag_466\n        /* \"GoldenBUSDLotto.sol\":16175:16190  contractBalance */\n      dup4\n        /* \"GoldenBUSDLotto.sol\":16191:16194  fee */\n      sload(0x02)\n        /* \"GoldenBUSDLotto.sol\":16162:16174  SafeMath.mul */\n      tag_467\n        /* \"GoldenBUSDLotto.sol\":16162:16195  SafeMath.mul(contractBalance,fee) */\n      jump\t// in\n    tag_466:\n        /* \"GoldenBUSDLotto.sol\":16196:16199  100 */\n      0x64\n        /* \"GoldenBUSDLotto.sol\":16149:16161  SafeMath.div */\n      tag_468\n        /* \"GoldenBUSDLotto.sol\":16149:16200  SafeMath.div(SafeMath.mul(contractBalance,fee),100) */\n      jump\t// in\n    tag_465:\n        /* \"GoldenBUSDLotto.sol\":16127:16200  uint256 gldnBusdFee = SafeMath.div(SafeMath.mul(contractBalance,fee),100) */\n      swap1\n      pop\n        /* \"GoldenBUSDLotto.sol\":16210:16223  BusdInterface */\n      0x14\n      0x00\n      swap1\n      sload\n      swap1\n      0x0100\n      exp\n      swap1\n      div\n      0xffffffffffffffffffffffffffffffffffffffff\n      and\n        /* \"GoldenBUSDLotto.sol\":16210:16232  BusdInterface.transfer */\n      0xffffffffffffffffffffffffffffffffffffffff\n      and\n      0xa9059cbb\n        /* \"GoldenBUSDLotto.sol\":16233:16241  gldnBusd */\n      0x01\n      0x00\n      swap1\n      sload\n      swap1\n      0x0100\n      exp\n      swap1\n      div\n      0xffffffffffffffffffffffffffffffffffffffff\n      and\n        /* \"GoldenBUSDLotto.sol\":16242:16253  gldnBusdFee */\n      dup4\n        /* \"GoldenBUSDLotto.sol\":16210:16254  BusdInterface.transfer(gldnBusd,gldnBusdFee) */\n      mload(0x40)\n      dup4\n      0xffffffff\n      and\n      0xe0\n      shl\n      dup2\n      mstore\n      0x04\n      add\n      tag_469\n      swap3\n      swap2\n      swap1\n      tag_470\n      jump\t// in\n    tag_469:\n      0x20\n      mload(0x40)\n      dup1\n      dup4\n      sub\n      dup2\n      0x00\n      dup8\n      gas\n      call\n      iszero\n      dup1\n      iszero\n      tag_472\n      jumpi\n      returndatasize\n      0x00\n      dup1\n      returndatacopy\n      revert(0x00, returndatasize)\n    tag_472:\n      pop\n      pop\n      pop\n      pop\n      mload(0x40)\n      returndatasize\n      not(0x1f)\n      0x1f\n      dup3\n      add\n      and\n      dup3\n      add\n      dup1\n      0x40\n      mstore\n      pop\n      dup2\n      add\n      swap1\n      tag_473\n      swap2\n      swap1\n      tag_239\n      jump\t// in\n    tag_473:\n      pop\n        /* \"GoldenBUSDLotto.sol\":16264:16284  uint256 winnerAmount */\n      0x00\n        /* \"GoldenBUSDLotto.sol\":16287:16328  SafeMath.sub(contractBalance,gldnBusdFee) */\n      tag_474\n        /* \"GoldenBUSDLotto.sol\":16300:16315  contractBalance */\n      dup4\n        /* \"GoldenBUSDLotto.sol\":16316:16327  gldnBusdFee */\n      dup4\n        /* \"GoldenBUSDLotto.sol\":16287:16299  SafeMath.sub */\n      tag_475\n        /* \"GoldenBUSDLotto.sol\":16287:16328  SafeMath.sub(contractBalance,gldnBusdFee) */\n      jump\t// in\n    tag_474:\n        /* \"GoldenBUSDLotto.sol\":16264:16328  uint256 winnerAmount = SafeMath.sub(contractBalance,gldnBusdFee) */\n      swap1\n      pop\n        /* \"GoldenBUSDLotto.sol\":16338:16351  BusdInterface */\n      0x14\n      0x00\n      swap1\n      sload\n      swap1\n      0x0100\n      exp\n      swap1\n      div\n      0xffffffffffffffffffffffffffffffffffffffff\n      and\n        /* \"GoldenBUSDLotto.sol\":16338:16360  BusdInterface.transfer */\n      0xffffffffffffffffffffffffffffffffffffffff\n      and\n      0xa9059cbb\n        /* \"GoldenBUSDLotto.sol\":16361:16374  participants1 */\n      0x0a\n        /* \"GoldenBUSDLotto.sol\":16375:16378  win */\n      dup7\n        /* \"GoldenBUSDLotto.sol\":16361:16379  participants1[win] */\n      dup2\n      sload\n      dup2\n      lt\n      tag_476\n      jumpi\n      tag_477\n      tag_185\n      jump\t// in\n    tag_477:\n    tag_476:\n      swap1\n      0x00\n      mstore\n      keccak256(0x00, 0x20)\n      add\n      0x00\n      swap1\n      sload\n      swap1\n      0x0100\n      exp\n      swap1\n      div\n      0xffffffffffffffffffffffffffffffffffffffff\n      and\n        /* \"GoldenBUSDLotto.sol\":16380:16392  winnerAmount */\n      dup4\n        /* \"GoldenBUSDLotto.sol\":16338:16393  BusdInterface.transfer(participants1[win],winnerAmount) */\n      mload(0x40)\n      dup4\n      0xffffffff\n      and\n      0xe0\n      shl\n      dup2\n      mstore\n      0x04\n      add\n      tag_479\n      swap3\n      swap2\n      swap1\n      tag_480\n      jump\t// in\n    tag_479:\n      0x20\n      mload(0x40)\n      dup1\n      dup4\n      sub\n      dup2\n      0x00\n      dup8\n      gas\n      call\n      iszero\n      dup1\n      iszero\n      tag_482\n      jumpi\n      returndatasize\n      0x00\n      dup1\n      returndatacopy\n      revert(0x00, returndatasize)\n    tag_482:\n      pop\n      pop\n      pop\n      pop\n      mload(0x40)\n      returndatasize\n      not(0x1f)\n      0x1f\n      dup3\n      add\n      and\n      dup3\n      add\n      dup1\n      0x40\n      mstore\n      pop\n      dup2\n      add\n      swap1\n      tag_483\n      swap2\n      swap1\n      tag_239\n      jump\t// in\n    tag_483:\n      pop\n        /* \"GoldenBUSDLotto.sol\":16403:16417  winnerLottery1 */\n      0x11\n        /* \"GoldenBUSDLotto.sol\":16423:16436  participants1 */\n      0x0a\n        /* \"GoldenBUSDLotto.sol\":16437:16440  win */\n      dup6\n        /* \"GoldenBUSDLotto.sol\":16423:16441  participants1[win] */\n      dup2\n      sload\n      dup2\n      lt\n      tag_484\n      jumpi\n      tag_485\n      tag_185\n      jump\t// in\n    tag_485:\n    tag_484:\n      swap1\n      0x00\n      mstore\n      keccak256(0x00, 0x20)\n      add\n      0x00\n      swap1\n      sload\n      swap1\n      0x0100\n      exp\n      swap1\n      div\n      0xffffffffffffffffffffffffffffffffffffffff\n      and\n        /* \"GoldenBUSDLotto.sol\":16403:16442  winnerLottery1.push(participants1[win]) */\n      swap1\n      dup1\n      0x01\n      dup2\n      sload\n      add\n      dup1\n      dup3\n      sstore\n      dup1\n      swap2\n      pop\n      pop\n      0x01\n      swap1\n      sub\n      swap1\n      0x00\n      mstore\n      keccak256(0x00, 0x20)\n      add\n      0x00\n      swap1\n      swap2\n      swap1\n      swap2\n      swap1\n      swap2\n      0x0100\n      exp\n      dup2\n      sload\n      dup2\n      0xffffffffffffffffffffffffffffffffffffffff\n      mul\n      not\n      and\n      swap1\n      dup4\n      0xffffffffffffffffffffffffffffffffffffffff\n      and\n      mul\n      or\n      swap1\n      sstore\n      pop\n        /* \"GoldenBUSDLotto.sol\":16459:16472  participants1 */\n      0x0a\n      0x00\n        /* \"GoldenBUSDLotto.sol\":16452:16472  delete participants1 */\n      tag_488\n      swap2\n      swap1\n      tag_489\n      jump\t// in\n    tag_488:\n        /* \"GoldenBUSDLotto.sol\":16504:16505  0 */\n      0x00\n        /* \"GoldenBUSDLotto.sol\":16482:16501  participantNumbers1 */\n      0x08\n        /* \"GoldenBUSDLotto.sol\":16482:16505  participantNumbers1 = 0 */\n      dup2\n      swap1\n      sstore\n      pop\n        /* \"GoldenBUSDLotto.sol\":15994:16512  {... */\n      pop\n      pop\n      pop\n      pop\n        /* \"GoldenBUSDLotto.sol\":15962:16512  function pickwinner1() internal {... */\n      jump\t// out\n        /* \"GoldenBUSDLotto.sol\":16518:17068  function pickwinner2() internal {... */\n    tag_246:\n        /* \"GoldenBUSDLotto.sol\":16560:16568  uint win */\n      0x00\n        /* \"GoldenBUSDLotto.sol\":16582:16595  participants2 */\n      0x0e\n        /* \"GoldenBUSDLotto.sol\":16582:16602  participants2.length */\n      dup1\n      sload\n      swap1\n      pop\n        /* \"GoldenBUSDLotto.sol\":16571:16579  random() */\n      tag_491\n        /* \"GoldenBUSDLotto.sol\":16571:16577  random */\n      tag_460\n        /* \"GoldenBUSDLotto.sol\":16571:16579  random() */\n      jump\t// in\n    tag_491:\n        /* \"GoldenBUSDLotto.sol\":16571:16602  random() % participants2.length */\n      tag_492\n      swap2\n      swap1\n      tag_462\n      jump\t// in\n    tag_492:\n        /* \"GoldenBUSDLotto.sol\":16560:16602  uint win = random() % participants2.length */\n      swap1\n      pop\n        /* \"GoldenBUSDLotto.sol\":16612:16635  uint256 contractBalance */\n      0x00\n        /* \"GoldenBUSDLotto.sol\":16653:16666  participants2 */\n      0x0e\n        /* \"GoldenBUSDLotto.sol\":16653:16673  participants2.length */\n      dup1\n      sload\n      swap1\n      pop\n        /* \"GoldenBUSDLotto.sol\":16638:16650  ticketPrice2 */\n      sload(0x0d)\n        /* \"GoldenBUSDLotto.sol\":16638:16673  ticketPrice2 * participants2.length */\n      tag_493\n      swap2\n      swap1\n      tag_464\n      jump\t// in\n    tag_493:\n        /* \"GoldenBUSDLotto.sol\":16612:16673  uint256 contractBalance = ticketPrice2 * participants2.length */\n      swap1\n      pop\n        /* \"GoldenBUSDLotto.sol\":16683:16702  uint256 gldnBusdFee */\n      0x00\n        /* \"GoldenBUSDLotto.sol\":16705:16756  SafeMath.div(SafeMath.mul(contractBalance,fee),100) */\n      tag_494\n        /* \"GoldenBUSDLotto.sol\":16718:16751  SafeMath.mul(contractBalance,fee) */\n      tag_495\n        /* \"GoldenBUSDLotto.sol\":16731:16746  contractBalance */\n      dup4\n        /* \"GoldenBUSDLotto.sol\":16747:16750  fee */\n      sload(0x02)\n        /* \"GoldenBUSDLotto.sol\":16718:16730  SafeMath.mul */\n      tag_467\n        /* \"GoldenBUSDLotto.sol\":16718:16751  SafeMath.mul(contractBalance,fee) */\n      jump\t// in\n    tag_495:\n        /* \"GoldenBUSDLotto.sol\":16752:16755  100 */\n      0x64\n        /* \"GoldenBUSDLotto.sol\":16705:16717  SafeMath.div */\n      tag_468\n        /* \"GoldenBUSDLotto.sol\":16705:16756  SafeMath.div(SafeMath.mul(contractBalance,fee),100) */\n      jump\t// in\n    tag_494:\n        /* \"GoldenBUSDLotto.sol\":16683:16756  uint256 gldnBusdFee = SafeMath.div(SafeMath.mul(contractBalance,fee),100) */\n      swap1\n      pop\n        /* \"GoldenBUSDLotto.sol\":16766:16779  BusdInterface */\n      0x14\n      0x00\n      swap1\n      sload\n      swap1\n      0x0100\n      exp\n      swap1\n      div\n      0xffffffffffffffffffffffffffffffffffffffff\n      and\n        /* \"GoldenBUSDLotto.sol\":16766:16788  BusdInterface.transfer */\n      0xffffffffffffffffffffffffffffffffffffffff\n      and\n      0xa9059cbb\n        /* \"GoldenBUSDLotto.sol\":16789:16797  gldnBusd */\n      0x01\n      0x00\n      swap1\n      sload\n      swap1\n      0x0100\n      exp\n      swap1\n      div\n      0xffffffffffffffffffffffffffffffffffffffff\n      and\n        /* \"GoldenBUSDLotto.sol\":16798:16809  gldnBusdFee */\n      dup4\n        /* \"GoldenBUSDLotto.sol\":16766:16810  BusdInterface.transfer(gldnBusd,gldnBusdFee) */\n      mload(0x40)\n      dup4\n      0xffffffff\n      and\n      0xe0\n      shl\n      dup2\n      mstore\n      0x04\n      add\n      tag_496\n      swap3\n      swap2\n      swap1\n      tag_470\n      jump\t// in\n    tag_496:\n      0x20\n      mload(0x40)\n      dup1\n      dup4\n      sub\n      dup2\n      0x00\n      dup8\n      gas\n      call\n      iszero\n      dup1\n      iszero\n      tag_498\n      jumpi\n      returndatasize\n      0x00\n      dup1\n      returndatacopy\n      revert(0x00, returndatasize)\n    tag_498:\n      pop\n      pop\n      pop\n      pop\n      mload(0x40)\n      returndatasize\n      not(0x1f)\n      0x1f\n      dup3\n      add\n      and\n      dup3\n      add\n      dup1\n      0x40\n      mstore\n      pop\n      dup2\n      add\n      swap1\n      tag_499\n      swap2\n      swap1\n      tag_239\n      jump\t// in\n    tag_499:\n      pop\n        /* \"GoldenBUSDLotto.sol\":16820:16840  uint256 winnerAmount */\n      0x00\n        /* \"GoldenBUSDLotto.sol\":16843:16884  SafeMath.sub(contractBalance,gldnBusdFee) */\n      tag_500\n        /* \"GoldenBUSDLotto.sol\":16856:16871  contractBalance */\n      dup4\n        /* \"GoldenBUSDLotto.sol\":16872:16883  gldnBusdFee */\n      dup4\n        /* \"GoldenBUSDLotto.sol\":16843:16855  SafeMath.sub */\n      tag_475\n        /* \"GoldenBUSDLotto.sol\":16843:16884  SafeMath.sub(contractBalance,gldnBusdFee) */\n      jump\t// in\n    tag_500:\n        /* \"GoldenBUSDLotto.sol\":16820:16884  uint256 winnerAmount = SafeMath.sub(contractBalance,gldnBusdFee) */\n      swap1\n      pop\n        /* \"GoldenBUSDLotto.sol\":16894:16907  BusdInterface */\n      0x14\n      0x00\n      swap1\n      sload\n      swap1\n      0x0100\n      exp\n      swap1\n      div\n      0xffffffffffffffffffffffffffffffffffffffff\n      and\n        /* \"GoldenBUSDLotto.sol\":16894:16916  BusdInterface.transfer */\n      0xffffffffffffffffffffffffffffffffffffffff\n      and\n      0xa9059cbb\n        /* \"GoldenBUSDLotto.sol\":16917:16930  participants2 */\n      0x0e\n        /* \"GoldenBUSDLotto.sol\":16931:16934  win */\n      dup7\n        /* \"GoldenBUSDLotto.sol\":16917:16935  participants2[win] */\n      dup2\n      sload\n      dup2\n      lt\n      tag_501\n      jumpi\n      tag_502\n      tag_185\n      jump\t// in\n    tag_502:\n    tag_501:\n      swap1\n      0x00\n      mstore\n      keccak256(0x00, 0x20)\n      add\n      0x00\n      swap1\n      sload\n      swap1\n      0x0100\n      exp\n      swap1\n      div\n      0xffffffffffffffffffffffffffffffffffffffff\n      and\n        /* \"GoldenBUSDLotto.sol\":16936:16948  winnerAmount */\n      dup4\n        /* \"GoldenBUSDLotto.sol\":16894:16949  BusdInterface.transfer(participants2[win],winnerAmount) */\n      mload(0x40)\n      dup4\n      0xffffffff\n      and\n      0xe0\n      shl\n      dup2\n      mstore\n      0x04\n      add\n      tag_504\n      swap3\n      swap2\n      swap1\n      tag_480\n      jump\t// in\n    tag_504:\n      0x20\n      mload(0x40)\n      dup1\n      dup4\n      sub\n      dup2\n      0x00\n      dup8\n      gas\n      call\n      iszero\n      dup1\n      iszero\n      tag_506\n      jumpi\n      returndatasize\n      0x00\n      dup1\n      returndatacopy\n      revert(0x00, returndatasize)\n    tag_506:\n      pop\n      pop\n      pop\n      pop\n      mload(0x40)\n      returndatasize\n      not(0x1f)\n      0x1f\n      dup3\n      add\n      and\n      dup3\n      add\n      dup1\n      0x40\n      mstore\n      pop\n      dup2\n      add\n      swap1\n      tag_507\n      swap2\n      swap1\n      tag_239\n      jump\t// in\n    tag_507:\n      pop\n        /* \"GoldenBUSDLotto.sol\":16959:16973  winnerLottery2 */\n      0x12\n        /* \"GoldenBUSDLotto.sol\":16979:16992  participants2 */\n      0x0e\n        /* \"GoldenBUSDLotto.sol\":16993:16996  win */\n      dup6\n        /* \"GoldenBUSDLotto.sol\":16979:16997  participants2[win] */\n      dup2\n      sload\n      dup2\n      lt\n      tag_508\n      jumpi\n      tag_509\n      tag_185\n      jump\t// in\n    tag_509:\n    tag_508:\n      swap1\n      0x00\n      mstore\n      keccak256(0x00, 0x20)\n      add\n      0x00\n      swap1\n      sload\n      swap1\n      0x0100\n      exp\n      swap1\n      div\n      0xffffffffffffffffffffffffffffffffffffffff\n      and\n        /* \"GoldenBUSDLotto.sol\":16959:16998  winnerLottery2.push(participants2[win]) */\n      swap1\n      dup1\n      0x01\n      dup2\n      sload\n      add\n      dup1\n      dup3\n      sstore\n      dup1\n      swap2\n      pop\n      pop\n      0x01\n      swap1\n      sub\n      swap1\n      0x00\n      mstore\n      keccak256(0x00, 0x20)\n      add\n      0x00\n      swap1\n      swap2\n      swap1\n      swap2\n      swap1\n      swap2\n      0x0100\n      exp\n      dup2\n      sload\n      dup2\n      0xffffffffffffffffffffffffffffffffffffffff\n      mul\n      not\n      and\n      swap1\n      dup4\n      0xffffffffffffffffffffffffffffffffffffffff\n      and\n      mul\n      or\n      swap1\n      sstore\n      pop\n        /* \"GoldenBUSDLotto.sol\":17015:17028  participants2 */\n      0x0e\n      0x00\n        /* \"GoldenBUSDLotto.sol\":17008:17028  delete participants2 */\n      tag_512\n      swap2\n      swap1\n      tag_489\n      jump\t// in\n    tag_512:\n        /* \"GoldenBUSDLotto.sol\":17060:17061  0 */\n      0x00\n        /* \"GoldenBUSDLotto.sol\":17038:17057  participantNumbers2 */\n      0x0c\n        /* \"GoldenBUSDLotto.sol\":17038:17061  participantNumbers2 = 0 */\n      dup2\n      swap1\n      sstore\n      pop\n        /* \"GoldenBUSDLotto.sol\":16550:17068  {... */\n      pop\n      pop\n      pop\n      pop\n        /* \"GoldenBUSDLotto.sol\":16518:17068  function pickwinner2() internal {... */\n      jump\t// out\n        /* \"GoldenBUSDLotto.sol\":15373:15956  function pickwinner() internal {... */\n    tag_322:\n        /* \"GoldenBUSDLotto.sol\":15414:15422  uint win */\n      0x00\n        /* \"GoldenBUSDLotto.sol\":15436:15448  participants */\n      0x06\n        /* \"GoldenBUSDLotto.sol\":15436:15455  participants.length */\n      dup1\n      sload\n      swap1\n      pop\n        /* \"GoldenBUSDLotto.sol\":15425:15433  random() */\n      tag_514\n        /* \"GoldenBUSDLotto.sol\":15425:15431  random */\n      tag_460\n        /* \"GoldenBUSDLotto.sol\":15425:15433  random() */\n      jump\t// in\n    tag_514:\n        /* \"GoldenBUSDLotto.sol\":15425:15455  random() % participants.length */\n      tag_515\n      swap2\n      swap1\n      tag_462\n      jump\t// in\n    tag_515:\n        /* \"GoldenBUSDLotto.sol\":15414:15455  uint win = random() % participants.length */\n      swap1\n      pop\n        /* \"GoldenBUSDLotto.sol\":15465:15483  uint256 totalUsers */\n      0x00\n        /* \"GoldenBUSDLotto.sol\":15486:15498  participants */\n      0x06\n        /* \"GoldenBUSDLotto.sol\":15486:15505  participants.length */\n      dup1\n      sload\n      swap1\n      pop\n        /* \"GoldenBUSDLotto.sol\":15465:15505  uint256 totalUsers = participants.length */\n      swap1\n      pop\n        /* \"GoldenBUSDLotto.sol\":15516:15539  uint256 contractBalance */\n      0x00\n        /* \"GoldenBUSDLotto.sol\":15556:15566  totalUsers */\n      dup2\n        /* \"GoldenBUSDLotto.sol\":15542:15553  ticketPrice */\n      sload(0x05)\n        /* \"GoldenBUSDLotto.sol\":15542:15566  ticketPrice * totalUsers */\n      tag_516\n      swap2\n      swap1\n      tag_464\n      jump\t// in\n    tag_516:\n        /* \"GoldenBUSDLotto.sol\":15516:15566  uint256 contractBalance = ticketPrice * totalUsers */\n      swap1\n      pop\n        /* \"GoldenBUSDLotto.sol\":15576:15595  uint256 gldnBusdFee */\n      0x00\n        /* \"GoldenBUSDLotto.sol\":15598:15649  SafeMath.div(SafeMath.mul(contractBalance,fee),100) */\n      tag_517\n        /* \"GoldenBUSDLotto.sol\":15611:15644  SafeMath.mul(contractBalance,fee) */\n      tag_518\n        /* \"GoldenBUSDLotto.sol\":15624:15639  contractBalance */\n      dup4\n        /* \"GoldenBUSDLotto.sol\":15640:15643  fee */\n      sload(0x02)\n        /* \"GoldenBUSDLotto.sol\":15611:15623  SafeMath.mul */\n      tag_467\n        /* \"GoldenBUSDLotto.sol\":15611:15644  SafeMath.mul(contractBalance,fee) */\n      jump\t// in\n    tag_518:\n        /* \"GoldenBUSDLotto.sol\":15645:15648  100 */\n      0x64\n        /* \"GoldenBUSDLotto.sol\":15598:15610  SafeMath.div */\n      tag_468\n        /* \"GoldenBUSDLotto.sol\":15598:15649  SafeMath.div(SafeMath.mul(contractBalance,fee),100) */\n      jump\t// in\n    tag_517:\n        /* \"GoldenBUSDLotto.sol\":15576:15649  uint256 gldnBusdFee = SafeMath.div(SafeMath.mul(contractBalance,fee),100) */\n      swap1\n      pop\n        /* \"GoldenBUSDLotto.sol\":15659:15672  BusdInterface */\n      0x14\n      0x00\n      swap1\n      sload\n      swap1\n      0x0100\n      exp\n      swap1\n      div\n      0xffffffffffffffffffffffffffffffffffffffff\n      and\n        /* \"GoldenBUSDLotto.sol\":15659:15681  BusdInterface.transfer */\n      0xffffffffffffffffffffffffffffffffffffffff\n      and\n      0xa9059cbb\n        /* \"GoldenBUSDLotto.sol\":15682:15690  gldnBusd */\n      0x01\n      0x00\n      swap1\n      sload\n      swap1\n      0x0100\n      exp\n      swap1\n      div\n      0xffffffffffffffffffffffffffffffffffffffff\n      and\n        /* \"GoldenBUSDLotto.sol\":15691:15702  gldnBusdFee */\n      dup4\n        /* \"GoldenBUSDLotto.sol\":15659:15703  BusdInterface.transfer(gldnBusd,gldnBusdFee) */\n      mload(0x40)\n      dup4\n      0xffffffff\n      and\n      0xe0\n      shl\n      dup2\n      mstore\n      0x04\n      add\n      tag_519\n      swap3\n      swap2\n      swap1\n      tag_470\n      jump\t// in\n    tag_519:\n      0x20\n      mload(0x40)\n      dup1\n      dup4\n      sub\n      dup2\n      0x00\n      dup8\n      gas\n      call\n      iszero\n      dup1\n      iszero\n      tag_521\n      jumpi\n      returndatasize\n      0x00\n      dup1\n      returndatacopy\n      revert(0x00, returndatasize)\n    tag_521:\n      pop\n      pop\n      pop\n      pop\n      mload(0x40)\n      returndatasize\n      not(0x1f)\n      0x1f\n      dup3\n      add\n      and\n      dup3\n      add\n      dup1\n      0x40\n      mstore\n      pop\n      dup2\n      add\n      swap1\n      tag_522\n      swap2\n      swap1\n      tag_239\n      jump\t// in\n    tag_522:\n      pop\n        /* \"GoldenBUSDLotto.sol\":15713:15733  uint256 winnerAmount */\n      0x00\n        /* \"GoldenBUSDLotto.sol\":15736:15777  SafeMath.sub(contractBalance,gldnBusdFee) */\n      tag_523\n        /* \"GoldenBUSDLotto.sol\":15749:15764  contractBalance */\n      dup4\n        /* \"GoldenBUSDLotto.sol\":15765:15776  gldnBusdFee */\n      dup4\n        /* \"GoldenBUSDLotto.sol\":15736:15748  SafeMath.sub */\n      tag_475\n        /* \"GoldenBUSDLotto.sol\":15736:15777  SafeMath.sub(contractBalance,gldnBusdFee) */\n      jump\t// in\n    tag_523:\n        /* \"GoldenBUSDLotto.sol\":15713:15777  uint256 winnerAmount = SafeMath.sub(contractBalance,gldnBusdFee) */\n      swap1\n      pop\n        /* \"GoldenBUSDLotto.sol\":15787:15800  BusdInterface */\n      0x14\n      0x00\n      swap1\n      sload\n      swap1\n      0x0100\n      exp\n      swap1\n      div\n      0xffffffffffffffffffffffffffffffffffffffff\n      and\n        /* \"GoldenBUSDLotto.sol\":15787:15809  BusdInterface.transfer */\n      0xffffffffffffffffffffffffffffffffffffffff\n      and\n      0xa9059cbb\n        /* \"GoldenBUSDLotto.sol\":15810:15822  participants */\n      0x06\n        /* \"GoldenBUSDLotto.sol\":15823:15826  win */\n      dup8\n        /* \"GoldenBUSDLotto.sol\":15810:15827  participants[win] */\n      dup2\n      sload\n      dup2\n      lt\n      tag_524\n      jumpi\n      tag_525\n      tag_185\n      jump\t// in\n    tag_525:\n    tag_524:\n      swap1\n      0x00\n      mstore\n      keccak256(0x00, 0x20)\n      add\n      0x00\n      swap1\n      sload\n      swap1\n      0x0100\n      exp\n      swap1\n      div\n      0xffffffffffffffffffffffffffffffffffffffff\n      and\n        /* \"GoldenBUSDLotto.sol\":15828:15840  winnerAmount */\n      dup4\n        /* \"GoldenBUSDLotto.sol\":15787:15841  BusdInterface.transfer(participants[win],winnerAmount) */\n      mload(0x40)\n      dup4\n      0xffffffff\n      and\n      0xe0\n      shl\n      dup2\n      mstore\n      0x04\n      add\n      tag_527\n      swap3\n      swap2\n      swap1\n      tag_480\n      jump\t// in\n    tag_527:\n      0x20\n      mload(0x40)\n      dup1\n      dup4\n      sub\n      dup2\n      0x00\n      dup8\n      gas\n      call\n      iszero\n      dup1\n      iszero\n      tag_529\n      jumpi\n      returndatasize\n      0x00\n      dup1\n      returndatacopy\n      revert(0x00, returndatasize)\n    tag_529:\n      pop\n      pop\n      pop\n      pop\n      mload(0x40)\n      returndatasize\n      not(0x1f)\n      0x1f\n      dup3\n      add\n      and\n      dup3\n      add\n      dup1\n      0x40\n      mstore\n      pop\n      dup2\n      add\n      swap1\n      tag_530\n      swap2\n      swap1\n      tag_239\n      jump\t// in\n    tag_530:\n      pop\n        /* \"GoldenBUSDLotto.sol\":15851:15864  winnerLottery */\n      0x10\n        /* \"GoldenBUSDLotto.sol\":15870:15882  participants */\n      0x06\n        /* \"GoldenBUSDLotto.sol\":15883:15886  win */\n      dup7\n        /* \"GoldenBUSDLotto.sol\":15870:15887  participants[win] */\n      dup2\n      sload\n      dup2\n      lt\n      tag_531\n      jumpi\n      tag_532\n      tag_185\n      jump\t// in\n    tag_532:\n    tag_531:\n      swap1\n      0x00\n      mstore\n      keccak256(0x00, 0x20)\n      add\n      0x00\n      swap1\n      sload\n      swap1\n      0x0100\n      exp\n      swap1\n      div\n      0xffffffffffffffffffffffffffffffffffffffff\n      and\n        /* \"GoldenBUSDLotto.sol\":15851:15888  winnerLottery.push(participants[win]) */\n      swap1\n      dup1\n      0x01\n      dup2\n      sload\n      add\n      dup1\n      dup3\n      sstore\n      dup1\n      swap2\n      pop\n      pop\n      0x01\n      swap1\n      sub\n      swap1\n      0x00\n      mstore\n      keccak256(0x00, 0x20)\n      add\n      0x00\n      swap1\n      swap2\n      swap1\n      swap2\n      swap1\n      swap2\n      0x0100\n      exp\n      dup2\n      sload\n      dup2\n      0xffffffffffffffffffffffffffffffffffffffff\n      mul\n      not\n      and\n      swap1\n      dup4\n      0xffffffffffffffffffffffffffffffffffffffff\n      and\n      mul\n      or\n      swap1\n      sstore\n      pop\n        /* \"GoldenBUSDLotto.sol\":15905:15917  participants */\n      0x06\n      0x00\n        /* \"GoldenBUSDLotto.sol\":15898:15917  delete participants */\n      tag_535\n      swap2\n      swap1\n      tag_489\n      jump\t// in\n    tag_535:\n        /* \"GoldenBUSDLotto.sol\":15948:15949  0 */\n      0x00\n        /* \"GoldenBUSDLotto.sol\":15927:15945  participantNumbers */\n      0x04\n        /* \"GoldenBUSDLotto.sol\":15927:15949  participantNumbers = 0 */\n      dup2\n      swap1\n      sstore\n      pop\n        /* \"GoldenBUSDLotto.sol\":15404:15956  {... */\n      pop\n      pop\n      pop\n      pop\n      pop\n        /* \"GoldenBUSDLotto.sol\":15373:15956  function pickwinner() internal {... */\n      jump\t// out\n        /* \"GoldenBUSDLotto.sol\":8487:8706  function _transferOwnership(address newOwner) internal {... */\n    tag_450:\n        /* \"GoldenBUSDLotto.sol\":8578:8579  0 */\n      0x00\n        /* \"GoldenBUSDLotto.sol\":8558:8580  newOwner != address(0) */\n      0xffffffffffffffffffffffffffffffffffffffff\n      and\n        /* \"GoldenBUSDLotto.sol\":8558:8566  newOwner */\n      dup2\n        /* \"GoldenBUSDLotto.sol\":8558:8580  newOwner != address(0) */\n      0xffffffffffffffffffffffffffffffffffffffff\n      and\n      sub\n        /* \"GoldenBUSDLotto.sol\":8550:8623  require(newOwner != address(0), \"Ownable: new owner is the zero address\") */\n      tag_537\n      jumpi\n      mload(0x40)\n      0x08c379a000000000000000000000000000000000000000000000000000000000\n      dup2\n      mstore\n      0x04\n      add\n      tag_538\n      swap1\n      tag_539\n      jump\t// in\n    tag_538:\n      mload(0x40)\n      dup1\n      swap2\n      sub\n      swap1\n      revert\n    tag_537:\n        /* \"GoldenBUSDLotto.sol\":8665:8673  newOwner */\n      dup1\n        /* \"GoldenBUSDLotto.sol\":8636:8674  OwnershipTransferred(_owner, newOwner) */\n      0xffffffffffffffffffffffffffffffffffffffff\n      and\n        /* \"GoldenBUSDLotto.sol\":8657:8663  _owner */\n      0x00\n      0x01\n      swap1\n      sload\n      swap1\n      0x0100\n      exp\n      swap1\n      div\n      0xffffffffffffffffffffffffffffffffffffffff\n      and\n        /* \"GoldenBUSDLotto.sol\":8636:8674  OwnershipTransferred(_owner, newOwner) */\n      0xffffffffffffffffffffffffffffffffffffffff\n      and\n      0x8be0079c531659141344cd1fd0a4f28419497f9722a3daafe3b4186f6b6457e0\n      mload(0x40)\n      mload(0x40)\n      dup1\n      swap2\n      sub\n      swap1\n      log3\n        /* \"GoldenBUSDLotto.sol\":8691:8699  newOwner */\n      dup1\n        /* \"GoldenBUSDLotto.sol\":8682:8688  _owner */\n      0x00\n      0x01\n        /* \"GoldenBUSDLotto.sol\":8682:8699  _owner = newOwner */\n      0x0100\n      exp\n      dup2\n      sload\n      dup2\n      0xffffffffffffffffffffffffffffffffffffffff\n      mul\n      not\n      and\n      swap1\n      dup4\n      0xffffffffffffffffffffffffffffffffffffffff\n      and\n      mul\n      or\n      swap1\n      sstore\n      pop\n        /* \"GoldenBUSDLotto.sol\":8487:8706  function _transferOwnership(address newOwner) internal {... */\n      pop\n      jump\t// out\n        /* \"GoldenBUSDLotto.sol\":13971:14135  function random() private view returns(uint256){... */\n    tag_460:\n        /* \"GoldenBUSDLotto.sol\":14010:14017  uint256 */\n      0x00\n        /* \"GoldenBUSDLotto.sol\":14064:14080  block.difficulty */\n      difficulty\n        /* \"GoldenBUSDLotto.sol\":14082:14097  block.timestamp */\n      timestamp\n        /* \"GoldenBUSDLotto.sol\":14099:14111  participants */\n      0x06\n        /* \"GoldenBUSDLotto.sol\":14113:14125  block.number */\n      number\n        /* \"GoldenBUSDLotto.sol\":14053:14126  abi.encode(block.difficulty, block.timestamp, participants, block.number) */\n      add(0x20, mload(0x40))\n      tag_541\n      swap5\n      swap4\n      swap3\n      swap2\n      swap1\n      tag_542\n      jump\t// in\n    tag_541:\n      mload(0x40)\n      0x20\n      dup2\n      dup4\n      sub\n      sub\n      dup2\n      mstore\n      swap1\n      0x40\n      mstore\n        /* \"GoldenBUSDLotto.sol\":14043:14127  keccak256(abi.encode(block.difficulty, block.timestamp, participants, block.number)) */\n      dup1\n      mload\n      swap1\n      0x20\n      add\n      keccak256\n        /* \"GoldenBUSDLotto.sol\":14035:14128  uint256(keccak256(abi.encode(block.difficulty, block.timestamp, participants, block.number))) */\n      0x00\n      shr\n        /* \"GoldenBUSDLotto.sol\":14028:14128  return uint256(keccak256(abi.encode(block.difficulty, block.timestamp, participants, block.number))) */\n      swap1\n      pop\n        /* \"GoldenBUSDLotto.sol\":13971:14135  function random() private view returns(uint256){... */\n      swap1\n      jump\t// out\n        /* \"GoldenBUSDLotto.sol\":3709:3805  function mul(uint256 a, uint256 b) internal pure returns (uint256) {... */\n    tag_467:\n        /* \"GoldenBUSDLotto.sol\":3767:3774  uint256 */\n      0x00\n        /* \"GoldenBUSDLotto.sol\":3797:3798  b */\n      dup2\n        /* \"GoldenBUSDLotto.sol\":3793:3794  a */\n      dup4\n        /* \"GoldenBUSDLotto.sol\":3793:3798  a * b */\n      tag_544\n      swap2\n      swap1\n      tag_464\n      jump\t// in\n    tag_544:\n        /* \"GoldenBUSDLotto.sol\":3786:3798  return a * b */\n      swap1\n      pop\n        /* \"GoldenBUSDLotto.sol\":3709:3805  function mul(uint256 a, uint256 b) internal pure returns (uint256) {... */\n      swap3\n      swap2\n      pop\n      pop\n      jump\t// out\n        /* \"GoldenBUSDLotto.sol\":4094:4190  function div(uint256 a, uint256 b) internal pure returns (uint256) {... */\n    tag_468:\n        /* \"GoldenBUSDLotto.sol\":4152:4159  uint256 */\n      0x00\n        /* \"GoldenBUSDLotto.sol\":4182:4183  b */\n      dup2\n        /* \"GoldenBUSDLotto.sol\":4178:4179  a */\n      dup4\n        /* \"GoldenBUSDLotto.sol\":4178:4183  a / b */\n      tag_546\n      swap2\n      swap1\n      tag_547\n      jump\t// in\n    tag_546:\n        /* \"GoldenBUSDLotto.sol\":4171:4183  return a / b */\n      swap1\n      pop\n        /* \"GoldenBUSDLotto.sol\":4094:4190  function div(uint256 a, uint256 b) internal pure returns (uint256) {... */\n      swap3\n      swap2\n      pop\n      pop\n      jump\t// out\n        /* \"GoldenBUSDLotto.sol\":3366:3462  function sub(uint256 a, uint256 b) internal pure returns (uint256) {... */\n    tag_475:\n        /* \"GoldenBUSDLotto.sol\":3424:3431  uint256 */\n      0x00\n        /* \"GoldenBUSDLotto.sol\":3454:3455  b */\n      dup2\n        /* \"GoldenBUSDLotto.sol\":3450:3451  a */\n      dup4\n        /* \"GoldenBUSDLotto.sol\":3450:3455  a - b */\n      tag_549\n      swap2\n      swap1\n      tag_180\n      jump\t// in\n    tag_549:\n        /* \"GoldenBUSDLotto.sol\":3443:3455  return a - b */\n      swap1\n      pop\n        /* \"GoldenBUSDLotto.sol\":3366:3462  function sub(uint256 a, uint256 b) internal pure returns (uint256) {... */\n      swap3\n      swap2\n      pop\n      pop\n      jump\t// out\n    tag_489:\n      pop\n      dup1\n      sload\n      0x00\n      dup3\n      sstore\n      swap1\n      0x00\n      mstore\n      keccak256(0x00, 0x20)\n      swap1\n      dup2\n      add\n      swap1\n      tag_551\n      swap2\n      swap1\n      tag_552\n      jump\t// in\n    tag_551:\n      pop\n      jump\t// out\n    tag_552:\n    tag_553:\n      dup1\n      dup3\n      gt\n      iszero\n      tag_554\n      jumpi\n      0x00\n      dup2\n      0x00\n      swap1\n      sstore\n      pop\n      0x01\n      add\n      jump(tag_553)\n    tag_554:\n      pop\n      swap1\n      jump\t// out\n        /* \"#utility.yul\":7:121   */\n    tag_555:\n        /* \"#utility.yul\":74:80   */\n      0x00\n        /* \"#utility.yul\":108:113   */\n      dup2\n        /* \"#utility.yul\":102:114   */\n      mload\n        /* \"#utility.yul\":92:114   */\n      swap1\n      pop\n        /* \"#utility.yul\":7:121   */\n      swap2\n      swap1\n      pop\n      jump\t// out\n        /* \"#utility.yul\":127:311   */\n    tag_556:\n        /* \"#utility.yul\":226:237   */\n      0x00\n        /* \"#utility.yul\":260:266   */\n      dup3\n        /* \"#utility.yul\":255:258   */\n      dup3\n        /* \"#utility.yul\":248:267   */\n      mstore\n        /* \"#utility.yul\":300:304   */\n      0x20\n        /* \"#utility.yul\":295:298   */\n      dup3\n        /* \"#utility.yul\":291:305   */\n      add\n        /* \"#utility.yul\":276:305   */\n      swap1\n      pop\n        /* \"#utility.yul\":127:311   */\n      swap3\n      swap2\n      pop\n      pop\n      jump\t// out\n        /* \"#utility.yul\":317:449   */\n    tag_557:\n        /* \"#utility.yul\":384:388   */\n      0x00\n        /* \"#utility.yul\":407:410   */\n      dup2\n        /* \"#utility.yul\":399:410   */\n      swap1\n      pop\n        /* \"#utility.yul\":437:441   */\n      0x20\n        /* \"#utility.yul\":432:435   */\n      dup3\n        /* \"#utility.yul\":428:442   */\n      add\n        /* \"#utility.yul\":420:442   */\n      swap1\n      pop\n        /* \"#utility.yul\":317:449   */\n      swap2\n      swap1\n      pop\n      jump\t// out\n        /* \"#utility.yul\":455:581   */\n    tag_558:\n        /* \"#utility.yul\":492:499   */\n      0x00\n        /* \"#utility.yul\":532:574   */\n      0xffffffffffffffffffffffffffffffffffffffff\n        /* \"#utility.yul\":525:530   */\n      dup3\n        /* \"#utility.yul\":521:575   */\n      and\n        /* \"#utility.yul\":510:575   */\n      swap1\n      pop\n        /* \"#utility.yul\":455:581   */\n      swap2\n      swap1\n      pop\n      jump\t// out\n        /* \"#utility.yul\":587:683   */\n    tag_559:\n        /* \"#utility.yul\":624:631   */\n      0x00\n        /* \"#utility.yul\":653:677   */\n      tag_621\n        /* \"#utility.yul\":671:676   */\n      dup3\n        /* \"#utility.yul\":653:677   */\n      tag_558\n      jump\t// in\n    tag_621:\n        /* \"#utility.yul\":642:677   */\n      swap1\n      pop\n        /* \"#utility.yul\":587:683   */\n      swap2\n      swap1\n      pop\n      jump\t// out\n        /* \"#utility.yul\":689:797   */\n    tag_560:\n        /* \"#utility.yul\":766:790   */\n      tag_623\n        /* \"#utility.yul\":784:789   */\n      dup2\n        /* \"#utility.yul\":766:790   */\n      tag_559\n      jump\t// in\n    tag_623:\n        /* \"#utility.yul\":761:764   */\n      dup3\n        /* \"#utility.yul\":754:791   */\n      mstore\n        /* \"#utility.yul\":689:797   */\n      pop\n      pop\n      jump\t// out\n        /* \"#utility.yul\":803:982   */\n    tag_561:\n        /* \"#utility.yul\":872:882   */\n      0x00\n        /* \"#utility.yul\":893:939   */\n      tag_625\n        /* \"#utility.yul\":935:938   */\n      dup4\n        /* \"#utility.yul\":927:933   */\n      dup4\n        /* \"#utility.yul\":893:939   */\n      tag_560\n      jump\t// in\n    tag_625:\n        /* \"#utility.yul\":971:975   */\n      0x20\n        /* \"#utility.yul\":966:969   */\n      dup4\n        /* \"#utility.yul\":962:976   */\n      add\n        /* \"#utility.yul\":948:976   */\n      swap1\n      pop\n        /* \"#utility.yul\":803:982   */\n      swap3\n      swap2\n      pop\n      pop\n      jump\t// out\n        /* \"#utility.yul\":988:1101   */\n    tag_562:\n        /* \"#utility.yul\":1058:1062   */\n      0x00\n        /* \"#utility.yul\":1090:1094   */\n      0x20\n        /* \"#utility.yul\":1085:1088   */\n      dup3\n        /* \"#utility.yul\":1081:1095   */\n      add\n        /* \"#utility.yul\":1073:1095   */\n      swap1\n      pop\n        /* \"#utility.yul\":988:1101   */\n      swap2\n      swap1\n      pop\n      jump\t// out\n        /* \"#utility.yul\":1137:1869   */\n    tag_563:\n        /* \"#utility.yul\":1256:1259   */\n      0x00\n        /* \"#utility.yul\":1285:1339   */\n      tag_628\n        /* \"#utility.yul\":1333:1338   */\n      dup3\n        /* \"#utility.yul\":1285:1339   */\n      tag_555\n      jump\t// in\n    tag_628:\n        /* \"#utility.yul\":1355:1441   */\n      tag_629\n        /* \"#utility.yul\":1434:1440   */\n      dup2\n        /* \"#utility.yul\":1429:1432   */\n      dup6\n        /* \"#utility.yul\":1355:1441   */\n      tag_556\n      jump\t// in\n    tag_629:\n        /* \"#utility.yul\":1348:1441   */\n      swap4\n      pop\n        /* \"#utility.yul\":1465:1521   */\n      tag_630\n        /* \"#utility.yul\":1515:1520   */\n      dup4\n        /* \"#utility.yul\":1465:1521   */\n      tag_557\n      jump\t// in\n    tag_630:\n        /* \"#utility.yul\":1544:1551   */\n      dup1\n        /* \"#utility.yul\":1575:1576   */\n      0x00\n        /* \"#utility.yul\":1560:1844   */\n    tag_631:\n        /* \"#utility.yul\":1585:1591   */\n      dup4\n        /* \"#utility.yul\":1582:1583   */\n      dup2\n        /* \"#utility.yul\":1579:1592   */\n      lt\n        /* \"#utility.yul\":1560:1844   */\n      iszero\n      tag_633\n      jumpi\n        /* \"#utility.yul\":1661:1667   */\n      dup2\n        /* \"#utility.yul\":1655:1668   */\n      mload\n        /* \"#utility.yul\":1688:1751   */\n      tag_634\n        /* \"#utility.yul\":1747:1750   */\n      dup9\n        /* \"#utility.yul\":1732:1745   */\n      dup3\n        /* \"#utility.yul\":1688:1751   */\n      tag_561\n      jump\t// in\n    tag_634:\n        /* \"#utility.yul\":1681:1751   */\n      swap8\n      pop\n        /* \"#utility.yul\":1774:1834   */\n      tag_635\n        /* \"#utility.yul\":1827:1833   */\n      dup4\n        /* \"#utility.yul\":1774:1834   */\n      tag_562\n      jump\t// in\n    tag_635:\n        /* \"#utility.yul\":1764:1834   */\n      swap3\n      pop\n        /* \"#utility.yul\":1620:1844   */\n      pop\n        /* \"#utility.yul\":1607:1608   */\n      0x01\n        /* \"#utility.yul\":1604:1605   */\n      dup2\n        /* \"#utility.yul\":1600:1609   */\n      add\n        /* \"#utility.yul\":1595:1609   */\n      swap1\n      pop\n        /* \"#utility.yul\":1560:1844   */\n      jump(tag_631)\n    tag_633:\n        /* \"#utility.yul\":1564:1578   */\n      pop\n        /* \"#utility.yul\":1860:1863   */\n      dup6\n        /* \"#utility.yul\":1853:1863   */\n      swap4\n      pop\n        /* \"#utility.yul\":1261:1869   */\n      pop\n      pop\n      pop\n        /* \"#utility.yul\":1137:1869   */\n      swap3\n      swap2\n      pop\n      pop\n      jump\t// out\n        /* \"#utility.yul\":1875:2248   */\n    tag_51:\n        /* \"#utility.yul\":2018:2022   */\n      0x00\n        /* \"#utility.yul\":2056:2058   */\n      0x20\n        /* \"#utility.yul\":2045:2054   */\n      dup3\n        /* \"#utility.yul\":2041:2059   */\n      add\n        /* \"#utility.yul\":2033:2059   */\n      swap1\n      pop\n        /* \"#utility.yul\":2105:2114   */\n      dup2\n        /* \"#utility.yul\":2099:2103   */\n      dup2\n        /* \"#utility.yul\":2095:2115   */\n      sub\n        /* \"#utility.yul\":2091:2092   */\n      0x00\n        /* \"#utility.yul\":2080:2089   */\n      dup4\n        /* \"#utility.yul\":2076:2093   */\n      add\n        /* \"#utility.yul\":2069:2116   */\n      mstore\n        /* \"#utility.yul\":2133:2241   */\n      tag_637\n        /* \"#utility.yul\":2236:2240   */\n      dup2\n        /* \"#utility.yul\":2227:2233   */\n      dup5\n        /* \"#utility.yul\":2133:2241   */\n      tag_563\n      jump\t// in\n    tag_637:\n        /* \"#utility.yul\":2125:2241   */\n      swap1\n      pop\n        /* \"#utility.yul\":1875:2248   */\n      swap3\n      swap2\n      pop\n      pop\n      jump\t// out\n        /* \"#utility.yul\":2335:2452   */\n    tag_565:\n        /* \"#utility.yul\":2444:2445   */\n      0x00\n        /* \"#utility.yul\":2441:2442   */\n      dup1\n        /* \"#utility.yul\":2434:2446   */\n      revert\n        /* \"#utility.yul\":2581:2658   */\n    tag_567:\n        /* \"#utility.yul\":2618:2625   */\n      0x00\n        /* \"#utility.yul\":2647:2652   */\n      dup2\n        /* \"#utility.yul\":2636:2652   */\n      swap1\n      pop\n        /* \"#utility.yul\":2581:2658   */\n      swap2\n      swap1\n      pop\n      jump\t// out\n        /* \"#utility.yul\":2664:2786   */\n    tag_568:\n        /* \"#utility.yul\":2737:2761   */\n      tag_643\n        /* \"#utility.yul\":2755:2760   */\n      dup2\n        /* \"#utility.yul\":2737:2761   */\n      tag_567\n      jump\t// in\n    tag_643:\n        /* \"#utility.yul\":2730:2735   */\n      dup2\n        /* \"#utility.yul\":2727:2762   */\n      eq\n        /* \"#utility.yul\":2717:2780   */\n      tag_644\n      jumpi\n        /* \"#utility.yul\":2776:2777   */\n      0x00\n        /* \"#utility.yul\":2773:2774   */\n      dup1\n        /* \"#utility.yul\":2766:2778   */\n      revert\n        /* \"#utility.yul\":2717:2780   */\n    tag_644:\n        /* \"#utility.yul\":2664:2786   */\n      pop\n      jump\t// out\n        /* \"#utility.yul\":2792:2931   */\n    tag_569:\n        /* \"#utility.yul\":2838:2843   */\n      0x00\n        /* \"#utility.yul\":2876:2882   */\n      dup2\n        /* \"#utility.yul\":2863:2883   */\n      calldataload\n        /* \"#utility.yul\":2854:2883   */\n      swap1\n      pop\n        /* \"#utility.yul\":2892:2925   */\n      tag_646\n        /* \"#utility.yul\":2919:2924   */\n      dup2\n        /* \"#utility.yul\":2892:2925   */\n      tag_568\n      jump\t// in\n    tag_646:\n        /* \"#utility.yul\":2792:2931   */\n      swap3\n      swap2\n      pop\n      pop\n      jump\t// out\n        /* \"#utility.yul\":2937:3266   */\n    tag_54:\n        /* \"#utility.yul\":2996:3002   */\n      0x00\n        /* \"#utility.yul\":3045:3047   */\n      0x20\n        /* \"#utility.yul\":3033:3042   */\n      dup3\n        /* \"#utility.yul\":3024:3031   */\n      dup5\n        /* \"#utility.yul\":3020:3043   */\n      sub\n        /* \"#utility.yul\":3016:3048   */\n      slt\n        /* \"#utility.yul\":3013:3132   */\n      iszero\n      tag_648\n      jumpi\n        /* \"#utility.yul\":3051:3130   */\n      tag_649\n      tag_565\n      jump\t// in\n    tag_649:\n        /* \"#utility.yul\":3013:3132   */\n    tag_648:\n        /* \"#utility.yul\":3171:3172   */\n      0x00\n        /* \"#utility.yul\":3196:3249   */\n      tag_650\n        /* \"#utility.yul\":3241:3248   */\n      dup5\n        /* \"#utility.yul\":3232:3238   */\n      dup3\n        /* \"#utility.yul\":3221:3230   */\n      dup6\n        /* \"#utility.yul\":3217:3239   */\n      add\n        /* \"#utility.yul\":3196:3249   */\n      tag_569\n      jump\t// in\n    tag_650:\n        /* \"#utility.yul\":3186:3249   */\n      swap2\n      pop\n        /* \"#utility.yul\":3142:3259   */\n      pop\n        /* \"#utility.yul\":2937:3266   */\n      swap3\n      swap2\n      pop\n      pop\n      jump\t// out\n        /* \"#utility.yul\":3272:3390   */\n    tag_570:\n        /* \"#utility.yul\":3359:3383   */\n      tag_652\n        /* \"#utility.yul\":3377:3382   */\n      dup2\n        /* \"#utility.yul\":3359:3383   */\n      tag_559\n      jump\t// in\n    tag_652:\n        /* \"#utility.yul\":3354:3357   */\n      dup3\n        /* \"#utility.yul\":3347:3384   */\n      mstore\n        /* \"#utility.yul\":3272:3390   */\n      pop\n      pop\n      jump\t// out\n        /* \"#utility.yul\":3396:3618   */\n    tag_74:\n        /* \"#utility.yul\":3489:3493   */\n      0x00\n        /* \"#utility.yul\":3527:3529   */\n      0x20\n        /* \"#utility.yul\":3516:3525   */\n      dup3\n        /* \"#utility.yul\":3512:3530   */\n      add\n        /* \"#utility.yul\":3504:3530   */\n      swap1\n      pop\n        /* \"#utility.yul\":3540:3611   */\n      tag_654\n        /* \"#utility.yul\":3608:3609   */\n      0x00\n        /* \"#utility.yul\":3597:3606   */\n      dup4\n        /* \"#utility.yul\":3593:3610   */\n      add\n        /* \"#utility.yul\":3584:3590   */\n      dup5\n        /* \"#utility.yul\":3540:3611   */\n      tag_570\n      jump\t// in\n    tag_654:\n        /* \"#utility.yul\":3396:3618   */\n      swap3\n      swap2\n      pop\n      pop\n      jump\t// out\n        /* \"#utility.yul\":3624:3742   */\n    tag_571:\n        /* \"#utility.yul\":3711:3735   */\n      tag_656\n        /* \"#utility.yul\":3729:3734   */\n      dup2\n        /* \"#utility.yul\":3711:3735   */\n      tag_567\n      jump\t// in\n    tag_656:\n        /* \"#utility.yul\":3706:3709   */\n      dup3\n        /* \"#utility.yul\":3699:3736   */\n      mstore\n        /* \"#utility.yul\":3624:3742   */\n      pop\n      pop\n      jump\t// out\n        /* \"#utility.yul\":3748:3970   */\n    tag_78:\n        /* \"#utility.yul\":3841:3845   */\n      0x00\n        /* \"#utility.yul\":3879:3881   */\n      0x20\n        /* \"#utility.yul\":3868:3877   */\n      dup3\n        /* \"#utility.yul\":3864:3882   */\n      add\n        /* \"#utility.yul\":3856:3882   */\n      swap1\n      pop\n        /* \"#utility.yul\":3892:3963   */\n      tag_658\n        /* \"#utility.yul\":3960:3961   */\n      0x00\n        /* \"#utility.yul\":3949:3958   */\n      dup4\n        /* \"#utility.yul\":3945:3962   */\n      add\n        /* \"#utility.yul\":3936:3942   */\n      dup5\n        /* \"#utility.yul\":3892:3963   */\n      tag_571\n      jump\t// in\n    tag_658:\n        /* \"#utility.yul\":3748:3970   */\n      swap3\n      swap2\n      pop\n      pop\n      jump\t// out\n        /* \"#utility.yul\":3976:4066   */\n    tag_572:\n        /* \"#utility.yul\":4010:4017   */\n      0x00\n        /* \"#utility.yul\":4053:4058   */\n      dup2\n        /* \"#utility.yul\":4046:4059   */\n      iszero\n        /* \"#utility.yul\":4039:4060   */\n      iszero\n        /* \"#utility.yul\":4028:4060   */\n      swap1\n      pop\n        /* \"#utility.yul\":3976:4066   */\n      swap2\n      swap1\n      pop\n      jump\t// out\n        /* \"#utility.yul\":4072:4181   */\n    tag_573:\n        /* \"#utility.yul\":4153:4174   */\n      tag_661\n        /* \"#utility.yul\":4168:4173   */\n      dup2\n        /* \"#utility.yul\":4153:4174   */\n      tag_572\n      jump\t// in\n    tag_661:\n        /* \"#utility.yul\":4148:4151   */\n      dup3\n        /* \"#utility.yul\":4141:4175   */\n      mstore\n        /* \"#utility.yul\":4072:4181   */\n      pop\n      pop\n      jump\t// out\n        /* \"#utility.yul\":4187:4397   */\n    tag_82:\n        /* \"#utility.yul\":4274:4278   */\n      0x00\n        /* \"#utility.yul\":4312:4314   */\n      0x20\n        /* \"#utility.yul\":4301:4310   */\n      dup3\n        /* \"#utility.yul\":4297:4315   */\n      add\n        /* \"#utility.yul\":4289:4315   */\n      swap1\n      pop\n        /* \"#utility.yul\":4325:4390   */\n      tag_663\n        /* \"#utility.yul\":4387:4388   */\n      0x00\n        /* \"#utility.yul\":4376:4385   */\n      dup4\n        /* \"#utility.yul\":4372:4389   */\n      add\n        /* \"#utility.yul\":4363:4369   */\n      dup5\n        /* \"#utility.yul\":4325:4390   */\n      tag_573\n      jump\t// in\n    tag_663:\n        /* \"#utility.yul\":4187:4397   */\n      swap3\n      swap2\n      pop\n      pop\n      jump\t// out\n        /* \"#utility.yul\":4403:4525   */\n    tag_574:\n        /* \"#utility.yul\":4476:4500   */\n      tag_665\n        /* \"#utility.yul\":4494:4499   */\n      dup2\n        /* \"#utility.yul\":4476:4500   */\n      tag_559\n      jump\t// in\n    tag_665:\n        /* \"#utility.yul\":4469:4474   */\n      dup2\n        /* \"#utility.yul\":4466:4501   */\n      eq\n        /* \"#utility.yul\":4456:4519   */\n      tag_666\n      jumpi\n        /* \"#utility.yul\":4515:4516   */\n      0x00\n        /* \"#utility.yul\":4512:4513   */\n      dup1\n        /* \"#utility.yul\":4505:4517   */\n      revert\n        /* \"#utility.yul\":4456:4519   */\n    tag_666:\n        /* \"#utility.yul\":4403:4525   */\n      pop\n      jump\t// out\n        /* \"#utility.yul\":4531:4670   */\n    tag_575:\n        /* \"#utility.yul\":4577:4582   */\n      0x00\n        /* \"#utility.yul\":4615:4621   */\n      dup2\n        /* \"#utility.yul\":4602:4622   */\n      calldataload\n        /* \"#utility.yul\":4593:4622   */\n      swap1\n      pop\n        /* \"#utility.yul\":4631:4664   */\n      tag_668\n        /* \"#utility.yul\":4658:4663   */\n      dup2\n        /* \"#utility.yul\":4631:4664   */\n      tag_574\n      jump\t// in\n    tag_668:\n        /* \"#utility.yul\":4531:4670   */\n      swap3\n      swap2\n      pop\n      pop\n      jump\t// out\n        /* \"#utility.yul\":4676:5005   */\n    tag_85:\n        /* \"#utility.yul\":4735:4741   */\n      0x00\n        /* \"#utility.yul\":4784:4786   */\n      0x20\n        /* \"#utility.yul\":4772:4781   */\n      dup3\n        /* \"#utility.yul\":4763:4770   */\n      dup5\n        /* \"#utility.yul\":4759:4782   */\n      sub\n        /* \"#utility.yul\":4755:4787   */\n      slt\n        /* \"#utility.yul\":4752:4871   */\n      iszero\n      tag_670\n      jumpi\n        /* \"#utility.yul\":4790:4869   */\n      tag_671\n      tag_565\n      jump\t// in\n    tag_671:\n        /* \"#utility.yul\":4752:4871   */\n    tag_670:\n        /* \"#utility.yul\":4910:4911   */\n      0x00\n        /* \"#utility.yul\":4935:4988   */\n      tag_672\n        /* \"#utility.yul\":4980:4987   */\n      dup5\n        /* \"#utility.yul\":4971:4977   */\n      dup3\n        /* \"#utility.yul\":4960:4969   */\n      dup6\n        /* \"#utility.yul\":4956:4978   */\n      add\n        /* \"#utility.yul\":4935:4988   */\n      tag_575\n      jump\t// in\n    tag_672:\n        /* \"#utility.yul\":4925:4988   */\n      swap2\n      pop\n        /* \"#utility.yul\":4881:4998   */\n      pop\n        /* \"#utility.yul\":4676:5005   */\n      swap3\n      swap2\n      pop\n      pop\n      jump\t// out\n        /* \"#utility.yul\":5011:5453   */\n    tag_88:\n        /* \"#utility.yul\":5160:5164   */\n      0x00\n        /* \"#utility.yul\":5198:5200   */\n      0x60\n        /* \"#utility.yul\":5187:5196   */\n      dup3\n        /* \"#utility.yul\":5183:5201   */\n      add\n        /* \"#utility.yul\":5175:5201   */\n      swap1\n      pop\n        /* \"#utility.yul\":5211:5282   */\n      tag_674\n        /* \"#utility.yul\":5279:5280   */\n      0x00\n        /* \"#utility.yul\":5268:5277   */\n      dup4\n        /* \"#utility.yul\":5264:5281   */\n      add\n        /* \"#utility.yul\":5255:5261   */\n      dup7\n        /* \"#utility.yul\":5211:5282   */\n      tag_571\n      jump\t// in\n    tag_674:\n        /* \"#utility.yul\":5292:5364   */\n      tag_675\n        /* \"#utility.yul\":5360:5362   */\n      0x20\n        /* \"#utility.yul\":5349:5358   */\n      dup4\n        /* \"#utility.yul\":5345:5363   */\n      add\n        /* \"#utility.yul\":5336:5342   */\n      dup6\n        /* \"#utility.yul\":5292:5364   */\n      tag_571\n      jump\t// in\n    tag_675:\n        /* \"#utility.yul\":5374:5446   */\n      tag_676\n        /* \"#utility.yul\":5442:5444   */\n      0x40\n        /* \"#utility.yul\":5431:5440   */\n      dup4\n        /* \"#utility.yul\":5427:5445   */\n      add\n        /* \"#utility.yul\":5418:5424   */\n      dup5\n        /* \"#utility.yul\":5374:5446   */\n      tag_571\n      jump\t// in\n    tag_676:\n        /* \"#utility.yul\":5011:5453   */\n      swap5\n      swap4\n      pop\n      pop\n      pop\n      pop\n      jump\t// out\n        /* \"#utility.yul\":5459:5519   */\n    tag_576:\n        /* \"#utility.yul\":5487:5490   */\n      0x00\n        /* \"#utility.yul\":5508:5513   */\n      dup2\n        /* \"#utility.yul\":5501:5513   */\n      swap1\n      pop\n        /* \"#utility.yul\":5459:5519   */\n      swap2\n      swap1\n      pop\n      jump\t// out\n        /* \"#utility.yul\":5525:5667   */\n    tag_577:\n        /* \"#utility.yul\":5575:5584   */\n      0x00\n        /* \"#utility.yul\":5608:5661   */\n      tag_679\n        /* \"#utility.yul\":5626:5660   */\n      tag_680\n        /* \"#utility.yul\":5635:5659   */\n      tag_681\n        /* \"#utility.yul\":5653:5658   */\n      dup5\n        /* \"#utility.yul\":5635:5659   */\n      tag_558\n      jump\t// in\n    tag_681:\n        /* \"#utility.yul\":5626:5660   */\n      tag_576\n      jump\t// in\n    tag_680:\n        /* \"#utility.yul\":5608:5661   */\n      tag_558\n      jump\t// in\n    tag_679:\n        /* \"#utility.yul\":5595:5661   */\n      swap1\n      pop\n        /* \"#utility.yul\":5525:5667   */\n      swap2\n      swap1\n      pop\n      jump\t// out\n        /* \"#utility.yul\":5673:5799   */\n    tag_578:\n        /* \"#utility.yul\":5723:5732   */\n      0x00\n        /* \"#utility.yul\":5756:5793   */\n      tag_683\n        /* \"#utility.yul\":5787:5792   */\n      dup3\n        /* \"#utility.yul\":5756:5793   */\n      tag_577\n      jump\t// in\n    tag_683:\n        /* \"#utility.yul\":5743:5793   */\n      swap1\n      pop\n        /* \"#utility.yul\":5673:5799   */\n      swap2\n      swap1\n      pop\n      jump\t// out\n        /* \"#utility.yul\":5805:5944   */\n    tag_579:\n        /* \"#utility.yul\":5868:5877   */\n      0x00\n        /* \"#utility.yul\":5901:5938   */\n      tag_685\n        /* \"#utility.yul\":5932:5937   */\n      dup3\n        /* \"#utility.yul\":5901:5938   */\n      tag_578\n      jump\t// in\n    tag_685:\n        /* \"#utility.yul\":5888:5938   */\n      swap1\n      pop\n        /* \"#utility.yul\":5805:5944   */\n      swap2\n      swap1\n      pop\n      jump\t// out\n        /* \"#utility.yul\":5950:6107   */\n    tag_580:\n        /* \"#utility.yul\":6050:6100   */\n      tag_687\n        /* \"#utility.yul\":6094:6099   */\n      dup2\n        /* \"#utility.yul\":6050:6100   */\n      tag_579\n      jump\t// in\n    tag_687:\n        /* \"#utility.yul\":6045:6048   */\n      dup3\n        /* \"#utility.yul\":6038:6101   */\n      mstore\n        /* \"#utility.yul\":5950:6107   */\n      pop\n      pop\n      jump\t// out\n        /* \"#utility.yul\":6113:6361   */\n    tag_131:\n        /* \"#utility.yul\":6219:6223   */\n      0x00\n        /* \"#utility.yul\":6257:6259   */\n      0x20\n        /* \"#utility.yul\":6246:6255   */\n      dup3\n        /* \"#utility.yul\":6242:6260   */\n      add\n        /* \"#utility.yul\":6234:6260   */\n      swap1\n      pop\n        /* \"#utility.yul\":6270:6354   */\n      tag_689\n        /* \"#utility.yul\":6351:6352   */\n      0x00\n        /* \"#utility.yul\":6340:6349   */\n      dup4\n        /* \"#utility.yul\":6336:6353   */\n      add\n        /* \"#utility.yul\":6327:6333   */\n      dup5\n        /* \"#utility.yul\":6270:6354   */\n      tag_580\n      jump\t// in\n    tag_689:\n        /* \"#utility.yul\":6113:6361   */\n      swap3\n      swap2\n      pop\n      pop\n      jump\t// out\n        /* \"#utility.yul\":6367:6536   */\n    tag_581:\n        /* \"#utility.yul\":6451:6462   */\n      0x00\n        /* \"#utility.yul\":6485:6491   */\n      dup3\n        /* \"#utility.yul\":6480:6483   */\n      dup3\n        /* \"#utility.yul\":6473:6492   */\n      mstore\n        /* \"#utility.yul\":6525:6529   */\n      0x20\n        /* \"#utility.yul\":6520:6523   */\n      dup3\n        /* \"#utility.yul\":6516:6530   */\n      add\n        /* \"#utility.yul\":6501:6530   */\n      swap1\n      pop\n        /* \"#utility.yul\":6367:6536   */\n      swap3\n      swap2\n      pop\n      pop\n      jump\t// out\n        /* \"#utility.yul\":6542:6724   */\n    tag_582:\n        /* \"#utility.yul\":6682:6716   */\n      0x4f776e61626c653a2063616c6c6572206973206e6f7420746865206f776e6572\n        /* \"#utility.yul\":6678:6679   */\n      0x00\n        /* \"#utility.yul\":6670:6676   */\n      dup3\n        /* \"#utility.yul\":6666:6680   */\n      add\n        /* \"#utility.yul\":6659:6717   */\n      mstore\n        /* \"#utility.yul\":6542:6724   */\n      pop\n      jump\t// out\n        /* \"#utility.yul\":6730:7096   */\n    tag_583:\n        /* \"#utility.yul\":6872:6875   */\n      0x00\n        /* \"#utility.yul\":6893:6960   */\n      tag_693\n        /* \"#utility.yul\":6957:6959   */\n      0x20\n        /* \"#utility.yul\":6952:6955   */\n      dup4\n        /* \"#utility.yul\":6893:6960   */\n      tag_581\n      jump\t// in\n    tag_693:\n        /* \"#utility.yul\":6886:6960   */\n      swap2\n      pop\n        /* \"#utility.yul\":6969:7062   */\n      tag_694\n        /* \"#utility.yul\":7058:7061   */\n      dup3\n        /* \"#utility.yul\":6969:7062   */\n      tag_582\n      jump\t// in\n    tag_694:\n        /* \"#utility.yul\":7087:7089   */\n      0x20\n        /* \"#utility.yul\":7082:7085   */\n      dup3\n        /* \"#utility.yul\":7078:7090   */\n      add\n        /* \"#utility.yul\":7071:7090   */\n      swap1\n      pop\n        /* \"#utility.yul\":6730:7096   */\n      swap2\n      swap1\n      pop\n      jump\t// out\n        /* \"#utility.yul\":7102:7521   */\n    tag_166:\n        /* \"#utility.yul\":7268:7272   */\n      0x00\n        /* \"#utility.yul\":7306:7308   */\n      0x20\n        /* \"#utility.yul\":7295:7304   */\n      dup3\n        /* \"#utility.yul\":7291:7309   */\n      add\n        /* \"#utility.yul\":7283:7309   */\n      swap1\n      pop\n        /* \"#utility.yul\":7355:7364   */\n      dup2\n        /* \"#utility.yul\":7349:7353   */\n      dup2\n        /* \"#utility.yul\":7345:7365   */\n      sub\n        /* \"#utility.yul\":7341:7342   */\n      0x00\n        /* \"#utility.yul\":7330:7339   */\n      dup4\n        /* \"#utility.yul\":7326:7343   */\n      add\n        /* \"#utility.yul\":7319:7366   */\n      mstore\n        /* \"#utility.yul\":7383:7514   */\n      tag_696\n        /* \"#utility.yul\":7509:7513   */\n      dup2\n        /* \"#utility.yul\":7383:7514   */\n      tag_583\n      jump\t// in\n    tag_696:\n        /* \"#utility.yul\":7375:7514   */\n      swap1\n      pop\n        /* \"#utility.yul\":7102:7521   */\n      swap2\n      swap1\n      pop\n      jump\t// out\n        /* \"#utility.yul\":7527:7707   */\n    tag_173:\n        /* \"#utility.yul\":7575:7652   */\n      0x4e487b7100000000000000000000000000000000000000000000000000000000\n        /* \"#utility.yul\":7572:7573   */\n      0x00\n        /* \"#utility.yul\":7565:7653   */\n      mstore\n        /* \"#utility.yul\":7672:7676   */\n      0x41\n        /* \"#utility.yul\":7669:7670   */\n      0x04\n        /* \"#utility.yul\":7662:7677   */\n      mstore\n        /* \"#utility.yul\":7696:7700   */\n      0x24\n        /* \"#utility.yul\":7693:7694   */\n      0x00\n        /* \"#utility.yul\":7686:7701   */\n      revert\n        /* \"#utility.yul\":7713:7893   */\n    tag_584:\n        /* \"#utility.yul\":7761:7838   */\n      0x4e487b7100000000000000000000000000000000000000000000000000000000\n        /* \"#utility.yul\":7758:7759   */\n      0x00\n        /* \"#utility.yul\":7751:7839   */\n      mstore\n        /* \"#utility.yul\":7858:7862   */\n      0x11\n        /* \"#utility.yul\":7855:7856   */\n      0x04\n        /* \"#utility.yul\":7848:7863   */\n      mstore\n        /* \"#utility.yul\":7882:7886   */\n      0x24\n        /* \"#utility.yul\":7879:7880   */\n      0x00\n        /* \"#utility.yul\":7872:7887   */\n      revert\n        /* \"#utility.yul\":7899:8093   */\n    tag_180:\n        /* \"#utility.yul\":7939:7943   */\n      0x00\n        /* \"#utility.yul\":7959:7979   */\n      tag_700\n        /* \"#utility.yul\":7977:7978   */\n      dup3\n        /* \"#utility.yul\":7959:7979   */\n      tag_567\n      jump\t// in\n    tag_700:\n        /* \"#utility.yul\":7954:7979   */\n      swap2\n      pop\n        /* \"#utility.yul\":7993:8013   */\n      tag_701\n        /* \"#utility.yul\":8011:8012   */\n      dup4\n        /* \"#utility.yul\":7993:8013   */\n      tag_567\n      jump\t// in\n    tag_701:\n        /* \"#utility.yul\":7988:8013   */\n      swap3\n      pop\n        /* \"#utility.yul\":8037:8038   */\n      dup3\n        /* \"#utility.yul\":8034:8035   */\n      dup3\n        /* \"#utility.yul\":8030:8039   */\n      sub\n        /* \"#utility.yul\":8022:8039   */\n      swap1\n      pop\n        /* \"#utility.yul\":8061:8062   */\n      dup2\n        /* \"#utility.yul\":8055:8059   */\n      dup2\n        /* \"#utility.yul\":8052:8063   */\n      gt\n        /* \"#utility.yul\":8049:8086   */\n      iszero\n      tag_702\n      jumpi\n        /* \"#utility.yul\":8066:8084   */\n      tag_703\n      tag_584\n      jump\t// in\n    tag_703:\n        /* \"#utility.yul\":8049:8086   */\n    tag_702:\n        /* \"#utility.yul\":7899:8093   */\n      swap3\n      swap2\n      pop\n      pop\n      jump\t// out\n        /* \"#utility.yul\":8099:8332   */\n    tag_182:\n        /* \"#utility.yul\":8138:8141   */\n      0x00\n        /* \"#utility.yul\":8161:8185   */\n      tag_705\n        /* \"#utility.yul\":8179:8184   */\n      dup3\n        /* \"#utility.yul\":8161:8185   */\n      tag_567\n      jump\t// in\n    tag_705:\n        /* \"#utility.yul\":8152:8185   */\n      swap2\n      pop\n        /* \"#utility.yul\":8207:8273   */\n      0xffffffffffffffffffffffffffffffffffffffffffffffffffffffffffffffff\n        /* \"#utility.yul\":8200:8205   */\n      dup3\n        /* \"#utility.yul\":8197:8274   */\n      sub\n        /* \"#utility.yul\":8194:8297   */\n      tag_706\n      jumpi\n        /* \"#utility.yul\":8277:8295   */\n      tag_707\n      tag_584\n      jump\t// in\n    tag_707:\n        /* \"#utility.yul\":8194:8297   */\n    tag_706:\n        /* \"#utility.yul\":8324:8325   */\n      0x01\n        /* \"#utility.yul\":8317:8322   */\n      dup3\n        /* \"#utility.yul\":8313:8326   */\n      add\n        /* \"#utility.yul\":8306:8326   */\n      swap1\n      pop\n        /* \"#utility.yul\":8099:8332   */\n      swap2\n      swap1\n      pop\n      jump\t// out\n        /* \"#utility.yul\":8338:8518   */\n    tag_185:\n        /* \"#utility.yul\":8386:8463   */\n      0x4e487b7100000000000000000000000000000000000000000000000000000000\n        /* \"#utility.yul\":8383:8384   */\n      0x00\n        /* \"#utility.yul\":8376:8464   */\n      mstore\n        /* \"#utility.yul\":8483:8487   */\n      0x32\n        /* \"#utility.yul\":8480:8481   */\n      0x04\n        /* \"#utility.yul\":8473:8488   */\n      mstore\n        /* \"#utility.yul\":8507:8511   */\n      0x24\n        /* \"#utility.yul\":8504:8505   */\n      0x00\n        /* \"#utility.yul\":8497:8512   */\n      revert\n        /* \"#utility.yul\":8524:8695   */\n    tag_190:\n        /* \"#utility.yul\":8563:8566   */\n      0x00\n        /* \"#utility.yul\":8586:8610   */\n      tag_710\n        /* \"#utility.yul\":8604:8609   */\n      dup3\n        /* \"#utility.yul\":8586:8610   */\n      tag_567\n      jump\t// in\n    tag_710:\n        /* \"#utility.yul\":8577:8610   */\n      swap2\n      pop\n        /* \"#utility.yul\":8632:8636   */\n      0x00\n        /* \"#utility.yul\":8625:8630   */\n      dup3\n        /* \"#utility.yul\":8622:8637   */\n      sub\n        /* \"#utility.yul\":8619:8660   */\n      tag_711\n      jumpi\n        /* \"#utility.yul\":8640:8658   */\n      tag_712\n      tag_584\n      jump\t// in\n    tag_712:\n        /* \"#utility.yul\":8619:8660   */\n    tag_711:\n        /* \"#utility.yul\":8687:8688   */\n      0x01\n        /* \"#utility.yul\":8680:8685   */\n      dup3\n        /* \"#utility.yul\":8676:8689   */\n      sub\n        /* \"#utility.yul\":8669:8689   */\n      swap1\n      pop\n        /* \"#utility.yul\":8524:8695   */\n      swap2\n      swap1\n      pop\n      jump\t// out\n        /* \"#utility.yul\":8701:8865   */\n    tag_585:\n        /* \"#utility.yul\":8841:8857   */\n      0x4163636573732064656e69656421000000000000000000000000000000000000\n        /* \"#utility.yul\":8837:8838   */\n      0x00\n        /* \"#utility.yul\":8829:8835   */\n      dup3\n        /* \"#utility.yul\":8825:8839   */\n      add\n        /* \"#utility.yul\":8818:8858   */\n      mstore\n        /* \"#utility.yul\":8701:8865   */\n      pop\n      jump\t// out\n        /* \"#utility.yul\":8871:9237   */\n    tag_586:\n        /* \"#utility.yul\":9013:9016   */\n      0x00\n        /* \"#utility.yul\":9034:9101   */\n      tag_715\n        /* \"#utility.yul\":9098:9100   */\n      0x0e\n        /* \"#utility.yul\":9093:9096   */\n      dup4\n        /* \"#utility.yul\":9034:9101   */\n      tag_581\n      jump\t// in\n    tag_715:\n        /* \"#utility.yul\":9027:9101   */\n      swap2\n      pop\n        /* \"#utility.yul\":9110:9203   */\n      tag_716\n        /* \"#utility.yul\":9199:9202   */\n      dup3\n        /* \"#utility.yul\":9110:9203   */\n      tag_585\n      jump\t// in\n    tag_716:\n        /* \"#utility.yul\":9228:9230   */\n      0x20\n        /* \"#utility.yul\":9223:9226   */\n      dup3\n        /* \"#utility.yul\":9219:9231   */\n      add\n        /* \"#utility.yul\":9212:9231   */\n      swap1\n      pop\n        /* \"#utility.yul\":8871:9237   */\n      swap2\n      swap1\n      pop\n      jump\t// out\n        /* \"#utility.yul\":9243:9662   */\n    tag_222:\n        /* \"#utility.yul\":9409:9413   */\n      0x00\n        /* \"#utility.yul\":9447:9449   */\n      0x20\n        /* \"#utility.yul\":9436:9445   */\n      dup3\n        /* \"#utility.yul\":9432:9450   */\n      add\n        /* \"#utility.yul\":9424:9450   */\n      swap1\n      pop\n        /* \"#utility.yul\":9496:9505   */\n      dup2\n        /* \"#utility.yul\":9490:9494   */\n      dup2\n        /* \"#utility.yul\":9486:9506   */\n      sub\n        /* \"#utility.yul\":9482:9483   */\n      0x00\n        /* \"#utility.yul\":9471:9480   */\n      dup4\n        /* \"#utility.yul\":9467:9484   */\n      add\n        /* \"#utility.yul\":9460:9507   */\n      mstore\n        /* \"#utility.yul\":9524:9655   */\n      tag_718\n        /* \"#utility.yul\":9650:9654   */\n      dup2\n        /* \"#utility.yul\":9524:9655   */\n      tag_586\n      jump\t// in\n    tag_718:\n        /* \"#utility.yul\":9516:9655   */\n      swap1\n      pop\n        /* \"#utility.yul\":9243:9662   */\n      swap2\n      swap1\n      pop\n      jump\t// out\n        /* \"#utility.yul\":9668:9832   */\n    tag_587:\n        /* \"#utility.yul\":9808:9824   */\n      0x4e6f2072652d656e7472616e6379000000000000000000000000000000000000\n        /* \"#utility.yul\":9804:9805   */\n      0x00\n        /* \"#utility.yul\":9796:9802   */\n      dup3\n        /* \"#utility.yul\":9792:9806   */\n      add\n        /* \"#utility.yul\":9785:9825   */\n      mstore\n        /* \"#utility.yul\":9668:9832   */\n      pop\n      jump\t// out\n        /* \"#utility.yul\":9838:10204   */\n    tag_588:\n        /* \"#utility.yul\":9980:9983   */\n      0x00\n        /* \"#utility.yul\":10001:10068   */\n      tag_721\n        /* \"#utility.yul\":10065:10067   */\n      0x0e\n        /* \"#utility.yul\":10060:10063   */\n      dup4\n        /* \"#utility.yul\":10001:10068   */\n      tag_581\n      jump\t// in\n    tag_721:\n        /* \"#utility.yul\":9994:10068   */\n      swap2\n      pop\n        /* \"#utility.yul\":10077:10170   */\n      tag_722\n        /* \"#utility.yul\":10166:10169   */\n      dup3\n        /* \"#utility.yul\":10077:10170   */\n      tag_587\n      jump\t// in\n    tag_722:\n        /* \"#utility.yul\":10195:10197   */\n      0x20\n        /* \"#utility.yul\":10190:10193   */\n      dup3\n        /* \"#utility.yul\":10186:10198   */\n      add\n        /* \"#utility.yul\":10179:10198   */\n      swap1\n      pop\n        /* \"#utility.yul\":9838:10204   */\n      swap2\n      swap1\n      pop\n      jump\t// out\n        /* \"#utility.yul\":10210:10629   */\n    tag_226:\n        /* \"#utility.yul\":10376:10380   */\n      0x00\n        /* \"#utility.yul\":10414:10416   */\n      0x20\n        /* \"#utility.yul\":10403:10412   */\n      dup3\n        /* \"#utility.yul\":10399:10417   */\n      add\n        /* \"#utility.yul\":10391:10417   */\n      swap1\n      pop\n        /* \"#utility.yul\":10463:10472   */\n      dup2\n        /* \"#utility.yul\":10457:10461   */\n      dup2\n        /* \"#utility.yul\":10453:10473   */\n      sub\n        /* \"#utility.yul\":10449:10450   */\n      0x00\n        /* \"#utility.yul\":10438:10447   */\n      dup4\n        /* \"#utility.yul\":10434:10451   */\n      add\n        /* \"#utility.yul\":10427:10474   */\n      mstore\n        /* \"#utility.yul\":10491:10622   */\n      tag_724\n        /* \"#utility.yul\":10617:10621   */\n      dup2\n        /* \"#utility.yul\":10491:10622   */\n      tag_588\n      jump\t// in\n    tag_724:\n        /* \"#utility.yul\":10483:10622   */\n      swap1\n      pop\n        /* \"#utility.yul\":10210:10629   */\n      swap2\n      swap1\n      pop\n      jump\t// out\n        /* \"#utility.yul\":10635:10811   */\n    tag_589:\n        /* \"#utility.yul\":10775:10803   */\n      0x4c6f7474657279206973206e6f74207374617274656420796574000000000000\n        /* \"#utility.yul\":10771:10772   */\n      0x00\n        /* \"#utility.yul\":10763:10769   */\n      dup3\n        /* \"#utility.yul\":10759:10773   */\n      add\n        /* \"#utility.yul\":10752:10804   */\n      mstore\n        /* \"#utility.yul\":10635:10811   */\n      pop\n      jump\t// out\n        /* \"#utility.yul\":10817:11183   */\n    tag_590:\n        /* \"#utility.yul\":10959:10962   */\n      0x00\n        /* \"#utility.yul\":10980:11047   */\n      tag_727\n        /* \"#utility.yul\":11044:11046   */\n      0x1a\n        /* \"#utility.yul\":11039:11042   */\n      dup4\n        /* \"#utility.yul\":10980:11047   */\n      tag_581\n      jump\t// in\n    tag_727:\n        /* \"#utility.yul\":10973:11047   */\n      swap2\n      pop\n        /* \"#utility.yul\":11056:11149   */\n      tag_728\n        /* \"#utility.yul\":11145:11148   */\n      dup3\n        /* \"#utility.yul\":11056:11149   */\n      tag_589\n      jump\t// in\n    tag_728:\n        /* \"#utility.yul\":11174:11176   */\n      0x20\n        /* \"#utility.yul\":11169:11172   */\n      dup3\n        /* \"#utility.yul\":11165:11177   */\n      add\n        /* \"#utility.yul\":11158:11177   */\n      swap1\n      pop\n        /* \"#utility.yul\":10817:11183   */\n      swap2\n      swap1\n      pop\n      jump\t// out\n        /* \"#utility.yul\":11189:11608   */\n    tag_230:\n        /* \"#utility.yul\":11355:11359   */\n      0x00\n        /* \"#utility.yul\":11393:11395   */\n      0x20\n        /* \"#utility.yul\":11382:11391   */\n      dup3\n        /* \"#utility.yul\":11378:11396   */\n      add\n        /* \"#utility.yul\":11370:11396   */\n      swap1\n      pop\n        /* \"#utility.yul\":11442:11451   */\n      dup2\n        /* \"#utility.yul\":11436:11440   */\n      dup2\n        /* \"#utility.yul\":11432:11452   */\n      sub\n        /* \"#utility.yul\":11428:11429   */\n      0x00\n        /* \"#utility.yul\":11417:11426   */\n      dup4\n        /* \"#utility.yul\":11413:11430   */\n      add\n        /* \"#utility.yul\":11406:11453   */\n      mstore\n        /* \"#utility.yul\":11470:11601   */\n      tag_730\n        /* \"#utility.yul\":11596:11600   */\n      dup2\n        /* \"#utility.yul\":11470:11601   */\n      tag_590\n      jump\t// in\n    tag_730:\n        /* \"#utility.yul\":11462:11601   */\n      swap1\n      pop\n        /* \"#utility.yul\":11189:11608   */\n      swap2\n      swap1\n      pop\n      jump\t// out\n        /* \"#utility.yul\":11614:11772   */\n    tag_591:\n        /* \"#utility.yul\":11754:11764   */\n      0x4e6f742053616d65000000000000000000000000000000000000000000000000\n        /* \"#utility.yul\":11750:11751   */\n      0x00\n        /* \"#utility.yul\":11742:11748   */\n      dup3\n        /* \"#utility.yul\":11738:11752   */\n      add\n        /* \"#utility.yul\":11731:11765   */\n      mstore\n        /* \"#utility.yul\":11614:11772   */\n      pop\n      jump\t// out\n        /* \"#utility.yul\":11778:12143   */\n    tag_592:\n        /* \"#utility.yul\":11920:11923   */\n      0x00\n        /* \"#utility.yul\":11941:12007   */\n      tag_733\n        /* \"#utility.yul\":12005:12006   */\n      0x08\n        /* \"#utility.yul\":12000:12003   */\n      dup4\n        /* \"#utility.yul\":11941:12007   */\n      tag_581\n      jump\t// in\n    tag_733:\n        /* \"#utility.yul\":11934:12007   */\n      swap2\n      pop\n        /* \"#utility.yul\":12016:12109   */\n      tag_734\n        /* \"#utility.yul\":12105:12108   */\n      dup3\n        /* \"#utility.yul\":12016:12109   */\n      tag_591\n      jump\t// in\n    tag_734:\n        /* \"#utility.yul\":12134:12136   */\n      0x20\n        /* \"#utility.yul\":12129:12132   */\n      dup3\n        /* \"#utility.yul\":12125:12137   */\n      add\n        /* \"#utility.yul\":12118:12137   */\n      swap1\n      pop\n        /* \"#utility.yul\":11778:12143   */\n      swap2\n      swap1\n      pop\n      jump\t// out\n        /* \"#utility.yul\":12149:12568   */\n    tag_233:\n        /* \"#utility.yul\":12315:12319   */\n      0x00\n        /* \"#utility.yul\":12353:12355   */\n      0x20\n        /* \"#utility.yul\":12342:12351   */\n      dup3\n        /* \"#utility.yul\":12338:12356   */\n      add\n        /* \"#utility.yul\":12330:12356   */\n      swap1\n      pop\n        /* \"#utility.yul\":12402:12411   */\n      dup2\n        /* \"#utility.yul\":12396:12400   */\n      dup2\n        /* \"#utility.yul\":12392:12412   */\n      sub\n        /* \"#utility.yul\":12388:12389   */\n      0x00\n        /* \"#utility.yul\":12377:12386   */\n      dup4\n        /* \"#utility.yul\":12373:12390   */\n      add\n        /* \"#utility.yul\":12366:12413   */\n      mstore\n        /* \"#utility.yul\":12430:12561   */\n      tag_736\n        /* \"#utility.yul\":12556:12560   */\n      dup2\n        /* \"#utility.yul\":12430:12561   */\n      tag_592\n      jump\t// in\n    tag_736:\n        /* \"#utility.yul\":12422:12561   */\n      swap1\n      pop\n        /* \"#utility.yul\":12149:12568   */\n      swap2\n      swap1\n      pop\n      jump\t// out\n        /* \"#utility.yul\":12574:13016   */\n    tag_235:\n        /* \"#utility.yul\":12723:12727   */\n      0x00\n        /* \"#utility.yul\":12761:12763   */\n      0x60\n        /* \"#utility.yul\":12750:12759   */\n      dup3\n        /* \"#utility.yul\":12746:12764   */\n      add\n        /* \"#utility.yul\":12738:12764   */\n      swap1\n      pop\n        /* \"#utility.yul\":12774:12845   */\n      tag_738\n        /* \"#utility.yul\":12842:12843   */\n      0x00\n        /* \"#utility.yul\":12831:12840   */\n      dup4\n        /* \"#utility.yul\":12827:12844   */\n      add\n        /* \"#utility.yul\":12818:12824   */\n      dup7\n        /* \"#utility.yul\":12774:12845   */\n      tag_570\n      jump\t// in\n    tag_738:\n        /* \"#utility.yul\":12855:12927   */\n      tag_739\n        /* \"#utility.yul\":12923:12925   */\n      0x20\n        /* \"#utility.yul\":12912:12921   */\n      dup4\n        /* \"#utility.yul\":12908:12926   */\n      add\n        /* \"#utility.yul\":12899:12905   */\n      dup6\n        /* \"#utility.yul\":12855:12927   */\n      tag_570\n      jump\t// in\n    tag_739:\n        /* \"#utility.yul\":12937:13009   */\n      tag_740\n        /* \"#utility.yul\":13005:13007   */\n      0x40\n        /* \"#utility.yul\":12994:13003   */\n      dup4\n        /* \"#utility.yul\":12990:13008   */\n      add\n        /* \"#utility.yul\":12981:12987   */\n      dup5\n        /* \"#utility.yul\":12937:13009   */\n      tag_571\n      jump\t// in\n    tag_740:\n        /* \"#utility.yul\":12574:13016   */\n      swap5\n      swap4\n      pop\n      pop\n      pop\n      pop\n      jump\t// out\n        /* \"#utility.yul\":13022:13138   */\n    tag_593:\n        /* \"#utility.yul\":13092:13113   */\n      tag_742\n        /* \"#utility.yul\":13107:13112   */\n      dup2\n        /* \"#utility.yul\":13092:13113   */\n      tag_572\n      jump\t// in\n    tag_742:\n        /* \"#utility.yul\":13085:13090   */\n      dup2\n        /* \"#utility.yul\":13082:13114   */\n      eq\n        /* \"#utility.yul\":13072:13132   */\n      tag_743\n      jumpi\n        /* \"#utility.yul\":13128:13129   */\n      0x00\n        /* \"#utility.yul\":13125:13126   */\n      dup1\n        /* \"#utility.yul\":13118:13130   */\n      revert\n        /* \"#utility.yul\":13072:13132   */\n    tag_743:\n        /* \"#utility.yul\":13022:13138   */\n      pop\n      jump\t// out\n        /* \"#utility.yul\":13144:13281   */\n    tag_594:\n        /* \"#utility.yul\":13198:13203   */\n      0x00\n        /* \"#utility.yul\":13229:13235   */\n      dup2\n        /* \"#utility.yul\":13223:13236   */\n      mload\n        /* \"#utility.yul\":13214:13236   */\n      swap1\n      pop\n        /* \"#utility.yul\":13245:13275   */\n      tag_745\n        /* \"#utility.yul\":13269:13274   */\n      dup2\n        /* \"#utility.yul\":13245:13275   */\n      tag_593\n      jump\t// in\n    tag_745:\n        /* \"#utility.yul\":13144:13281   */\n      swap3\n      swap2\n      pop\n      pop\n      jump\t// out\n        /* \"#utility.yul\":13287:13632   */\n    tag_239:\n        /* \"#utility.yul\":13354:13360   */\n      0x00\n        /* \"#utility.yul\":13403:13405   */\n      0x20\n        /* \"#utility.yul\":13391:13400   */\n      dup3\n        /* \"#utility.yul\":13382:13389   */\n      dup5\n        /* \"#utility.yul\":13378:13401   */\n      sub\n        /* \"#utility.yul\":13374:13406   */\n      slt\n        /* \"#utility.yul\":13371:13490   */\n      iszero\n      tag_747\n      jumpi\n        /* \"#utility.yul\":13409:13488   */\n      tag_748\n      tag_565\n      jump\t// in\n    tag_748:\n        /* \"#utility.yul\":13371:13490   */\n    tag_747:\n        /* \"#utility.yul\":13529:13530   */\n      0x00\n        /* \"#utility.yul\":13554:13615   */\n      tag_749\n        /* \"#utility.yul\":13607:13614   */\n      dup5\n        /* \"#utility.yul\":13598:13604   */\n      dup3\n        /* \"#utility.yul\":13587:13596   */\n      dup6\n        /* \"#utility.yul\":13583:13605   */\n      add\n        /* \"#utility.yul\":13554:13615   */\n      tag_594\n      jump\t// in\n    tag_749:\n        /* \"#utility.yul\":13544:13615   */\n      swap2\n      pop\n        /* \"#utility.yul\":13500:13625   */\n      pop\n        /* \"#utility.yul\":13287:13632   */\n      swap3\n      swap2\n      pop\n      pop\n      jump\t// out\n        /* \"#utility.yul\":13638:13803   */\n    tag_595:\n        /* \"#utility.yul\":13778:13795   */\n      0x4e6f742073616d6520616d6f756e740000000000000000000000000000000000\n        /* \"#utility.yul\":13774:13775   */\n      0x00\n        /* \"#utility.yul\":13766:13772   */\n      dup3\n        /* \"#utility.yul\":13762:13776   */\n      add\n        /* \"#utility.yul\":13755:13796   */\n      mstore\n        /* \"#utility.yul\":13638:13803   */\n      pop\n      jump\t// out\n        /* \"#utility.yul\":13809:14175   */\n    tag_596:\n        /* \"#utility.yul\":13951:13954   */\n      0x00\n        /* \"#utility.yul\":13972:14039   */\n      tag_752\n        /* \"#utility.yul\":14036:14038   */\n      0x0f\n        /* \"#utility.yul\":14031:14034   */\n      dup4\n        /* \"#utility.yul\":13972:14039   */\n      tag_581\n      jump\t// in\n    tag_752:\n        /* \"#utility.yul\":13965:14039   */\n      swap2\n      pop\n        /* \"#utility.yul\":14048:14141   */\n      tag_753\n        /* \"#utility.yul\":14137:14140   */\n      dup3\n        /* \"#utility.yul\":14048:14141   */\n      tag_595\n      jump\t// in\n    tag_753:\n        /* \"#utility.yul\":14166:14168   */\n      0x20\n        /* \"#utility.yul\":14161:14164   */\n      dup3\n        /* \"#utility.yul\":14157:14169   */\n      add\n        /* \"#utility.yul\":14150:14169   */\n      swap1\n      pop\n        /* \"#utility.yul\":13809:14175   */\n      swap2\n      swap1\n      pop\n      jump\t// out\n        /* \"#utility.yul\":14181:14600   */\n    tag_311:\n        /* \"#utility.yul\":14347:14351   */\n      0x00\n        /* \"#utility.yul\":14385:14387   */\n      0x20\n        /* \"#utility.yul\":14374:14383   */\n      dup3\n        /* \"#utility.yul\":14370:14388   */\n      add\n        /* \"#utility.yul\":14362:14388   */\n      swap1\n      pop\n        /* \"#utility.yul\":14434:14443   */\n      dup2\n        /* \"#utility.yul\":14428:14432   */\n      dup2\n        /* \"#utility.yul\":14424:14444   */\n      sub\n        /* \"#utility.yul\":14420:14421   */\n      0x00\n        /* \"#utility.yul\":14409:14418   */\n      dup4\n        /* \"#utility.yul\":14405:14422   */\n      add\n        /* \"#utility.yul\":14398:14445   */\n      mstore\n        /* \"#utility.yul\":14462:14593   */\n      tag_755\n        /* \"#utility.yul\":14588:14592   */\n      dup2\n        /* \"#utility.yul\":14462:14593   */\n      tag_596\n      jump\t// in\n    tag_755:\n        /* \"#utility.yul\":14454:14593   */\n      swap1\n      pop\n        /* \"#utility.yul\":14181:14600   */\n      swap2\n      swap1\n      pop\n      jump\t// out\n        /* \"#utility.yul\":14606:14749   */\n    tag_597:\n        /* \"#utility.yul\":14663:14668   */\n      0x00\n        /* \"#utility.yul\":14694:14700   */\n      dup2\n        /* \"#utility.yul\":14688:14701   */\n      mload\n        /* \"#utility.yul\":14679:14701   */\n      swap1\n      pop\n        /* \"#utility.yul\":14710:14743   */\n      tag_757\n        /* \"#utility.yul\":14737:14742   */\n      dup2\n        /* \"#utility.yul\":14710:14743   */\n      tag_568\n      jump\t// in\n    tag_757:\n        /* \"#utility.yul\":14606:14749   */\n      swap3\n      swap2\n      pop\n      pop\n      jump\t// out\n        /* \"#utility.yul\":14755:15106   */\n    tag_368:\n        /* \"#utility.yul\":14825:14831   */\n      0x00\n        /* \"#utility.yul\":14874:14876   */\n      0x20\n        /* \"#utility.yul\":14862:14871   */\n      dup3\n        /* \"#utility.yul\":14853:14860   */\n      dup5\n        /* \"#utility.yul\":14849:14872   */\n      sub\n        /* \"#utility.yul\":14845:14877   */\n      slt\n        /* \"#utility.yul\":14842:14961   */\n      iszero\n      tag_759\n      jumpi\n        /* \"#utility.yul\":14880:14959   */\n      tag_760\n      tag_565\n      jump\t// in\n    tag_760:\n        /* \"#utility.yul\":14842:14961   */\n    tag_759:\n        /* \"#utility.yul\":15000:15001   */\n      0x00\n        /* \"#utility.yul\":15025:15089   */\n      tag_761\n        /* \"#utility.yul\":15081:15088   */\n      dup5\n        /* \"#utility.yul\":15072:15078   */\n      dup3\n        /* \"#utility.yul\":15061:15070   */\n      dup6\n        /* \"#utility.yul\":15057:15079   */\n      add\n        /* \"#utility.yul\":15025:15089   */\n      tag_597\n      jump\t// in\n    tag_761:\n        /* \"#utility.yul\":15015:15089   */\n      swap2\n      pop\n        /* \"#utility.yul\":14971:15099   */\n      pop\n        /* \"#utility.yul\":14755:15106   */\n      swap3\n      swap2\n      pop\n      pop\n      jump\t// out\n        /* \"#utility.yul\":15112:15444   */\n    tag_385:\n        /* \"#utility.yul\":15233:15237   */\n      0x00\n        /* \"#utility.yul\":15271:15273   */\n      0x40\n        /* \"#utility.yul\":15260:15269   */\n      dup3\n        /* \"#utility.yul\":15256:15274   */\n      add\n        /* \"#utility.yul\":15248:15274   */\n      swap1\n      pop\n        /* \"#utility.yul\":15284:15355   */\n      tag_763\n        /* \"#utility.yul\":15352:15353   */\n      0x00\n        /* \"#utility.yul\":15341:15350   */\n      dup4\n        /* \"#utility.yul\":15337:15354   */\n      add\n        /* \"#utility.yul\":15328:15334   */\n      dup6\n        /* \"#utility.yul\":15284:15355   */\n      tag_571\n      jump\t// in\n    tag_763:\n        /* \"#utility.yul\":15365:15437   */\n      tag_764\n        /* \"#utility.yul\":15433:15435   */\n      0x20\n        /* \"#utility.yul\":15422:15431   */\n      dup4\n        /* \"#utility.yul\":15418:15436   */\n      add\n        /* \"#utility.yul\":15409:15415   */\n      dup5\n        /* \"#utility.yul\":15365:15437   */\n      tag_571\n      jump\t// in\n    tag_764:\n        /* \"#utility.yul\":15112:15444   */\n      swap4\n      swap3\n      pop\n      pop\n      pop\n      jump\t// out\n        /* \"#utility.yul\":15450:15630   */\n    tag_598:\n        /* \"#utility.yul\":15498:15575   */\n      0x4e487b7100000000000000000000000000000000000000000000000000000000\n        /* \"#utility.yul\":15495:15496   */\n      0x00\n        /* \"#utility.yul\":15488:15576   */\n      mstore\n        /* \"#utility.yul\":15595:15599   */\n      0x12\n        /* \"#utility.yul\":15592:15593   */\n      0x04\n        /* \"#utility.yul\":15585:15600   */\n      mstore\n        /* \"#utility.yul\":15619:15623   */\n      0x24\n        /* \"#utility.yul\":15616:15617   */\n      0x00\n        /* \"#utility.yul\":15609:15624   */\n      revert\n        /* \"#utility.yul\":15636:15812   */\n    tag_462:\n        /* \"#utility.yul\":15668:15669   */\n      0x00\n        /* \"#utility.yul\":15685:15705   */\n      tag_767\n        /* \"#utility.yul\":15703:15704   */\n      dup3\n        /* \"#utility.yul\":15685:15705   */\n      tag_567\n      jump\t// in\n    tag_767:\n        /* \"#utility.yul\":15680:15705   */\n      swap2\n      pop\n        /* \"#utility.yul\":15719:15739   */\n      tag_768\n        /* \"#utility.yul\":15737:15738   */\n      dup4\n        /* \"#utility.yul\":15719:15739   */\n      tag_567\n      jump\t// in\n    tag_768:\n        /* \"#utility.yul\":15714:15739   */\n      swap3\n      pop\n        /* \"#utility.yul\":15758:15759   */\n      dup3\n        /* \"#utility.yul\":15748:15783   */\n      tag_769\n      jumpi\n        /* \"#utility.yul\":15763:15781   */\n      tag_770\n      tag_598\n      jump\t// in\n    tag_770:\n        /* \"#utility.yul\":15748:15783   */\n    tag_769:\n        /* \"#utility.yul\":15804:15805   */\n      dup3\n        /* \"#utility.yul\":15801:15802   */\n      dup3\n        /* \"#utility.yul\":15797:15806   */\n      mod\n        /* \"#utility.yul\":15792:15806   */\n      swap1\n      pop\n        /* \"#utility.yul\":15636:15812   */\n      swap3\n      swap2\n      pop\n      pop\n      jump\t// out\n        /* \"#utility.yul\":15818:16166   */\n    tag_464:\n        /* \"#utility.yul\":15858:15865   */\n      0x00\n        /* \"#utility.yul\":15881:15901   */\n      tag_772\n        /* \"#utility.yul\":15899:15900   */\n      dup3\n        /* \"#utility.yul\":15881:15901   */\n      tag_567\n      jump\t// in\n    tag_772:\n        /* \"#utility.yul\":15876:15901   */\n      swap2\n      pop\n        /* \"#utility.yul\":15915:15935   */\n      tag_773\n        /* \"#utility.yul\":15933:15934   */\n      dup4\n        /* \"#utility.yul\":15915:15935   */\n      tag_567\n      jump\t// in\n    tag_773:\n        /* \"#utility.yul\":15910:15935   */\n      swap3\n      pop\n        /* \"#utility.yul\":16103:16104   */\n      dup2\n        /* \"#utility.yul\":16035:16101   */\n      0xffffffffffffffffffffffffffffffffffffffffffffffffffffffffffffffff\n        /* \"#utility.yul\":16031:16105   */\n      div\n        /* \"#utility.yul\":16028:16029   */\n      dup4\n        /* \"#utility.yul\":16025:16106   */\n      gt\n        /* \"#utility.yul\":16020:16021   */\n      dup3\n        /* \"#utility.yul\":16013:16022   */\n      iszero\n        /* \"#utility.yul\":16006:16023   */\n      iszero\n        /* \"#utility.yul\":16002:16107   */\n      and\n        /* \"#utility.yul\":15999:16130   */\n      iszero\n      tag_774\n      jumpi\n        /* \"#utility.yul\":16110:16128   */\n      tag_775\n      tag_584\n      jump\t// in\n    tag_775:\n        /* \"#utility.yul\":15999:16130   */\n    tag_774:\n        /* \"#utility.yul\":16158:16159   */\n      dup3\n        /* \"#utility.yul\":16155:16156   */\n      dup3\n        /* \"#utility.yul\":16151:16160   */\n      mul\n        /* \"#utility.yul\":16140:16160   */\n      swap1\n      pop\n        /* \"#utility.yul\":15818:16166   */\n      swap3\n      swap2\n      pop\n      pop\n      jump\t// out\n        /* \"#utility.yul\":16172:16504   */\n    tag_470:\n        /* \"#utility.yul\":16293:16297   */\n      0x00\n        /* \"#utility.yul\":16331:16333   */\n      0x40\n        /* \"#utility.yul\":16320:16329   */\n      dup3\n        /* \"#utility.yul\":16316:16334   */\n      add\n        /* \"#utility.yul\":16308:16334   */\n      swap1\n      pop\n        /* \"#utility.yul\":16344:16415   */\n      tag_777\n        /* \"#utility.yul\":16412:16413   */\n      0x00\n        /* \"#utility.yul\":16401:16410   */\n      dup4\n        /* \"#utility.yul\":16397:16414   */\n      add\n        /* \"#utility.yul\":16388:16394   */\n      dup6\n        /* \"#utility.yul\":16344:16415   */\n      tag_570\n      jump\t// in\n    tag_777:\n        /* \"#utility.yul\":16425:16497   */\n      tag_778\n        /* \"#utility.yul\":16493:16495   */\n      0x20\n        /* \"#utility.yul\":16482:16491   */\n      dup4\n        /* \"#utility.yul\":16478:16496   */\n      add\n        /* \"#utility.yul\":16469:16475   */\n      dup5\n        /* \"#utility.yul\":16425:16497   */\n      tag_571\n      jump\t// in\n    tag_778:\n        /* \"#utility.yul\":16172:16504   */\n      swap4\n      swap3\n      pop\n      pop\n      pop\n      jump\t// out\n        /* \"#utility.yul\":16510:16644   */\n    tag_599:\n        /* \"#utility.yul\":16568:16577   */\n      0x00\n        /* \"#utility.yul\":16601:16638   */\n      tag_780\n        /* \"#utility.yul\":16632:16637   */\n      dup3\n        /* \"#utility.yul\":16601:16638   */\n      tag_578\n      jump\t// in\n    tag_780:\n        /* \"#utility.yul\":16588:16638   */\n      swap1\n      pop\n        /* \"#utility.yul\":16510:16644   */\n      swap2\n      swap1\n      pop\n      jump\t// out\n        /* \"#utility.yul\":16650:16797   */\n    tag_600:\n        /* \"#utility.yul\":16745:16790   */\n      tag_782\n        /* \"#utility.yul\":16784:16789   */\n      dup2\n        /* \"#utility.yul\":16745:16790   */\n      tag_599\n      jump\t// in\n    tag_782:\n        /* \"#utility.yul\":16740:16743   */\n      dup3\n        /* \"#utility.yul\":16733:16791   */\n      mstore\n        /* \"#utility.yul\":16650:16797   */\n      pop\n      pop\n      jump\t// out\n        /* \"#utility.yul\":16803:17151   */\n    tag_480:\n        /* \"#utility.yul\":16932:16936   */\n      0x00\n        /* \"#utility.yul\":16970:16972   */\n      0x40\n        /* \"#utility.yul\":16959:16968   */\n      dup3\n        /* \"#utility.yul\":16955:16973   */\n      add\n        /* \"#utility.yul\":16947:16973   */\n      swap1\n      pop\n        /* \"#utility.yul\":16983:17062   */\n      tag_784\n        /* \"#utility.yul\":17059:17060   */\n      0x00\n        /* \"#utility.yul\":17048:17057   */\n      dup4\n        /* \"#utility.yul\":17044:17061   */\n      add\n        /* \"#utility.yul\":17035:17041   */\n      dup6\n        /* \"#utility.yul\":16983:17062   */\n      tag_600\n      jump\t// in\n    tag_784:\n        /* \"#utility.yul\":17072:17144   */\n      tag_785\n        /* \"#utility.yul\":17140:17142   */\n      0x20\n        /* \"#utility.yul\":17129:17138   */\n      dup4\n        /* \"#utility.yul\":17125:17143   */\n      add\n        /* \"#utility.yul\":17116:17122   */\n      dup5\n        /* \"#utility.yul\":17072:17144   */\n      tag_571\n      jump\t// in\n    tag_785:\n        /* \"#utility.yul\":16803:17151   */\n      swap4\n      swap3\n      pop\n      pop\n      pop\n      jump\t// out\n        /* \"#utility.yul\":17157:17382   */\n    tag_601:\n        /* \"#utility.yul\":17297:17331   */\n      0x4f776e61626c653a206e6577206f776e657220697320746865207a65726f2061\n        /* \"#utility.yul\":17293:17294   */\n      0x00\n        /* \"#utility.yul\":17285:17291   */\n      dup3\n        /* \"#utility.yul\":17281:17295   */\n      add\n        /* \"#utility.yul\":17274:17332   */\n      mstore\n        /* \"#utility.yul\":17366:17374   */\n      0x6464726573730000000000000000000000000000000000000000000000000000\n        /* \"#utility.yul\":17361:17363   */\n      0x20\n        /* \"#utility.yul\":17353:17359   */\n      dup3\n        /* \"#utility.yul\":17349:17364   */\n      add\n        /* \"#utility.yul\":17342:17375   */\n      mstore\n        /* \"#utility.yul\":17157:17382   */\n      pop\n      jump\t// out\n        /* \"#utility.yul\":17388:17754   */\n    tag_602:\n        /* \"#utility.yul\":17530:17533   */\n      0x00\n        /* \"#utility.yul\":17551:17618   */\n      tag_788\n        /* \"#utility.yul\":17615:17617   */\n      0x26\n        /* \"#utility.yul\":17610:17613   */\n      dup4\n        /* \"#utility.yul\":17551:17618   */\n      tag_581\n      jump\t// in\n    tag_788:\n        /* \"#utility.yul\":17544:17618   */\n      swap2\n      pop\n        /* \"#utility.yul\":17627:17720   */\n      tag_789\n        /* \"#utility.yul\":17716:17719   */\n      dup3\n        /* \"#utility.yul\":17627:17720   */\n      tag_601\n      jump\t// in\n    tag_789:\n        /* \"#utility.yul\":17745:17747   */\n      0x40\n        /* \"#utility.yul\":17740:17743   */\n      dup3\n        /* \"#utility.yul\":17736:17748   */\n      add\n        /* \"#utility.yul\":17729:17748   */\n      swap1\n      pop\n        /* \"#utility.yul\":17388:17754   */\n      swap2\n      swap1\n      pop\n      jump\t// out\n        /* \"#utility.yul\":17760:18179   */\n    tag_539:\n        /* \"#utility.yul\":17926:17930   */\n      0x00\n        /* \"#utility.yul\":17964:17966   */\n      0x20\n        /* \"#utility.yul\":17953:17962   */\n      dup3\n        /* \"#utility.yul\":17949:17967   */\n      add\n        /* \"#utility.yul\":17941:17967   */\n      swap1\n      pop\n        /* \"#utility.yul\":18013:18022   */\n      dup2\n        /* \"#utility.yul\":18007:18011   */\n      dup2\n        /* \"#utility.yul\":18003:18023   */\n      sub\n        /* \"#utility.yul\":17999:18000   */\n      0x00\n        /* \"#utility.yul\":17988:17997   */\n      dup4\n        /* \"#utility.yul\":17984:18001   */\n      add\n        /* \"#utility.yul\":17977:18024   */\n      mstore\n        /* \"#utility.yul\":18041:18172   */\n      tag_791\n        /* \"#utility.yul\":18167:18171   */\n      dup2\n        /* \"#utility.yul\":18041:18172   */\n      tag_602\n      jump\t// in\n    tag_791:\n        /* \"#utility.yul\":18033:18172   */\n      swap1\n      pop\n        /* \"#utility.yul\":17760:18179   */\n      swap2\n      swap1\n      pop\n      jump\t// out\n        /* \"#utility.yul\":18185:18304   */\n    tag_603:\n        /* \"#utility.yul\":18257:18263   */\n      0x00\n        /* \"#utility.yul\":18291:18296   */\n      dup2\n        /* \"#utility.yul\":18285:18297   */\n      sload\n        /* \"#utility.yul\":18275:18297   */\n      swap1\n      pop\n        /* \"#utility.yul\":18185:18304   */\n      swap2\n      swap1\n      pop\n      jump\t// out\n        /* \"#utility.yul\":18310:18502   */\n    tag_604:\n        /* \"#utility.yul\":18417:18428   */\n      0x00\n        /* \"#utility.yul\":18451:18457   */\n      dup3\n        /* \"#utility.yul\":18446:18449   */\n      dup3\n        /* \"#utility.yul\":18439:18458   */\n      mstore\n        /* \"#utility.yul\":18491:18495   */\n      0x20\n        /* \"#utility.yul\":18486:18489   */\n      dup3\n        /* \"#utility.yul\":18482:18496   */\n      add\n        /* \"#utility.yul\":18467:18496   */\n      swap1\n      pop\n        /* \"#utility.yul\":18310:18502   */\n      swap3\n      swap2\n      pop\n      pop\n      jump\t// out\n        /* \"#utility.yul\":18508:18672   */\n    tag_605:\n        /* \"#utility.yul\":18580:18584   */\n      0x00\n        /* \"#utility.yul\":18603:18606   */\n      dup2\n        /* \"#utility.yul\":18595:18606   */\n      swap1\n      pop\n        /* \"#utility.yul\":18626:18629   */\n      dup2\n        /* \"#utility.yul\":18623:18624   */\n      0x00\n        /* \"#utility.yul\":18616:18630   */\n      mstore\n        /* \"#utility.yul\":18660:18664   */\n      0x20\n        /* \"#utility.yul\":18657:18658   */\n      0x00\n        /* \"#utility.yul\":18647:18665   */\n      keccak256\n        /* \"#utility.yul\":18639:18665   */\n      swap1\n      pop\n        /* \"#utility.yul\":18508:18672   */\n      swap2\n      swap1\n      pop\n      jump\t// out\n        /* \"#utility.yul\":18678:18782   */\n    tag_606:\n        /* \"#utility.yul\":18723:18730   */\n      0x00\n        /* \"#utility.yul\":18752:18776   */\n      tag_796\n        /* \"#utility.yul\":18770:18775   */\n      dup3\n        /* \"#utility.yul\":18752:18776   */\n      tag_558\n      jump\t// in\n    tag_796:\n        /* \"#utility.yul\":18741:18776   */\n      swap1\n      pop\n        /* \"#utility.yul\":18678:18782   */\n      swap2\n      swap1\n      pop\n      jump\t// out\n        /* \"#utility.yul\":18788:18920   */\n    tag_607:\n        /* \"#utility.yul\":18881:18913   */\n      tag_798\n        /* \"#utility.yul\":18907:18912   */\n      dup2\n        /* \"#utility.yul\":18881:18913   */\n      tag_606\n      jump\t// in\n    tag_798:\n        /* \"#utility.yul\":18876:18879   */\n      dup3\n        /* \"#utility.yul\":18869:18914   */\n      mstore\n        /* \"#utility.yul\":18788:18920   */\n      pop\n      pop\n      jump\t// out\n        /* \"#utility.yul\":18926:19137   */\n    tag_608:\n        /* \"#utility.yul\":19011:19021   */\n      0x00\n        /* \"#utility.yul\":19032:19094   */\n      tag_800\n        /* \"#utility.yul\":19090:19093   */\n      dup4\n        /* \"#utility.yul\":19082:19088   */\n      dup4\n        /* \"#utility.yul\":19032:19094   */\n      tag_607\n      jump\t// in\n    tag_800:\n        /* \"#utility.yul\":19126:19130   */\n      0x20\n        /* \"#utility.yul\":19121:19124   */\n      dup4\n        /* \"#utility.yul\":19117:19131   */\n      add\n        /* \"#utility.yul\":19103:19131   */\n      swap1\n      pop\n        /* \"#utility.yul\":18926:19137   */\n      swap3\n      swap2\n      pop\n      pop\n      jump\t// out\n        /* \"#utility.yul\":19143:19245   */\n    tag_609:\n        /* \"#utility.yul\":19185:19193   */\n      0x00\n        /* \"#utility.yul\":19232:19237   */\n      dup2\n        /* \"#utility.yul\":19229:19230   */\n      0x00\n        /* \"#utility.yul\":19225:19238   */\n      shr\n        /* \"#utility.yul\":19204:19238   */\n      swap1\n      pop\n        /* \"#utility.yul\":19143:19245   */\n      swap2\n      swap1\n      pop\n      jump\t// out\n        /* \"#utility.yul\":19251:19398   */\n    tag_610:\n        /* \"#utility.yul\":19309:19316   */\n      0x00\n        /* \"#utility.yul\":19349:19391   */\n      0xffffffffffffffffffffffffffffffffffffffff\n        /* \"#utility.yul\":19342:19347   */\n      dup3\n        /* \"#utility.yul\":19338:19392   */\n      and\n        /* \"#utility.yul\":19327:19392   */\n      swap1\n      pop\n        /* \"#utility.yul\":19251:19398   */\n      swap2\n      swap1\n      pop\n      jump\t// out\n        /* \"#utility.yul\":19404:19586   */\n    tag_611:\n        /* \"#utility.yul\":19481:19486   */\n      0x00\n        /* \"#utility.yul\":19506:19580   */\n      tag_804\n        /* \"#utility.yul\":19545:19579   */\n      tag_805\n        /* \"#utility.yul\":19568:19578   */\n      dup4\n        /* \"#utility.yul\":19545:19579   */\n      tag_609\n      jump\t// in\n    tag_805:\n        /* \"#utility.yul\":19506:19580   */\n      tag_610\n      jump\t// in\n    tag_804:\n        /* \"#utility.yul\":19497:19580   */\n      swap1\n      pop\n        /* \"#utility.yul\":19404:19586   */\n      swap2\n      swap1\n      pop\n      jump\t// out\n        /* \"#utility.yul\":19592:19752   */\n    tag_612:\n        /* \"#utility.yul\":19655:19660   */\n      0x00\n        /* \"#utility.yul\":19680:19745   */\n      tag_807\n        /* \"#utility.yul\":19739:19743   */\n      dup3\n        /* \"#utility.yul\":19733:19744   */\n      sload\n        /* \"#utility.yul\":19680:19745   */\n      tag_611\n      jump\t// in\n    tag_807:\n        /* \"#utility.yul\":19671:19745   */\n      swap1\n      pop\n        /* \"#utility.yul\":19592:19752   */\n      swap2\n      swap1\n      pop\n      jump\t// out\n        /* \"#utility.yul\":19758:19876   */\n    tag_613:\n        /* \"#utility.yul\":19833:19837   */\n      0x00\n        /* \"#utility.yul\":19865:19869   */\n      0x01\n        /* \"#utility.yul\":19860:19863   */\n      dup3\n        /* \"#utility.yul\":19856:19870   */\n      add\n        /* \"#utility.yul\":19848:19870   */\n      swap1\n      pop\n        /* \"#utility.yul\":19758:19876   */\n      swap2\n      swap1\n      pop\n      jump\t// out\n        /* \"#utility.yul\":19928:20751   */\n    tag_614:\n        /* \"#utility.yul\":20060:20063   */\n      0x00\n        /* \"#utility.yul\":20089:20148   */\n      tag_810\n        /* \"#utility.yul\":20142:20147   */\n      dup3\n        /* \"#utility.yul\":20089:20148   */\n      tag_603\n      jump\t// in\n    tag_810:\n        /* \"#utility.yul\":20164:20258   */\n      tag_811\n        /* \"#utility.yul\":20251:20257   */\n      dup2\n        /* \"#utility.yul\":20246:20249   */\n      dup6\n        /* \"#utility.yul\":20164:20258   */\n      tag_604\n      jump\t// in\n    tag_811:\n        /* \"#utility.yul\":20157:20258   */\n      swap4\n      pop\n        /* \"#utility.yul\":20282:20343   */\n      tag_812\n        /* \"#utility.yul\":20337:20342   */\n      dup4\n        /* \"#utility.yul\":20282:20343   */\n      tag_605\n      jump\t// in\n    tag_812:\n        /* \"#utility.yul\":20366:20373   */\n      dup1\n        /* \"#utility.yul\":20397:20398   */\n      0x00\n        /* \"#utility.yul\":20382:20726   */\n    tag_813:\n        /* \"#utility.yul\":20407:20413   */\n      dup4\n        /* \"#utility.yul\":20404:20405   */\n      dup2\n        /* \"#utility.yul\":20401:20414   */\n      lt\n        /* \"#utility.yul\":20382:20726   */\n      iszero\n      tag_815\n      jumpi\n        /* \"#utility.yul\":20477:20529   */\n      tag_816\n        /* \"#utility.yul\":20522:20528   */\n      dup3\n        /* \"#utility.yul\":20477:20529   */\n      tag_612\n      jump\t// in\n    tag_816:\n        /* \"#utility.yul\":20549:20628   */\n      tag_817\n        /* \"#utility.yul\":20624:20627   */\n      dup9\n        /* \"#utility.yul\":20609:20622   */\n      dup3\n        /* \"#utility.yul\":20549:20628   */\n      tag_608\n      jump\t// in\n    tag_817:\n        /* \"#utility.yul\":20542:20628   */\n      swap8\n      pop\n        /* \"#utility.yul\":20651:20716   */\n      tag_818\n        /* \"#utility.yul\":20709:20715   */\n      dup4\n        /* \"#utility.yul\":20651:20716   */\n      tag_613\n      jump\t// in\n    tag_818:\n        /* \"#utility.yul\":20641:20716   */\n      swap3\n      pop\n        /* \"#utility.yul\":20442:20726   */\n      pop\n        /* \"#utility.yul\":20429:20430   */\n      0x01\n        /* \"#utility.yul\":20426:20427   */\n      dup2\n        /* \"#utility.yul\":20422:20431   */\n      add\n        /* \"#utility.yul\":20417:20431   */\n      swap1\n      pop\n        /* \"#utility.yul\":20382:20726   */\n      jump(tag_813)\n    tag_815:\n        /* \"#utility.yul\":20386:20400   */\n      pop\n        /* \"#utility.yul\":20742:20745   */\n      dup6\n        /* \"#utility.yul\":20735:20745   */\n      swap4\n      pop\n        /* \"#utility.yul\":20065:20751   */\n      pop\n      pop\n      pop\n        /* \"#utility.yul\":19928:20751   */\n      swap3\n      swap2\n      pop\n      pop\n      jump\t// out\n        /* \"#utility.yul\":20757:21487   */\n    tag_542:\n        /* \"#utility.yul\":20997:21001   */\n      0x00\n        /* \"#utility.yul\":21035:21038   */\n      0x80\n        /* \"#utility.yul\":21024:21033   */\n      dup3\n        /* \"#utility.yul\":21020:21039   */\n      add\n        /* \"#utility.yul\":21012:21039   */\n      swap1\n      pop\n        /* \"#utility.yul\":21049:21120   */\n      tag_820\n        /* \"#utility.yul\":21117:21118   */\n      0x00\n        /* \"#utility.yul\":21106:21115   */\n      dup4\n        /* \"#utility.yul\":21102:21119   */\n      add\n        /* \"#utility.yul\":21093:21099   */\n      dup8\n        /* \"#utility.yul\":21049:21120   */\n      tag_571\n      jump\t// in\n    tag_820:\n        /* \"#utility.yul\":21130:21202   */\n      tag_821\n        /* \"#utility.yul\":21198:21200   */\n      0x20\n        /* \"#utility.yul\":21187:21196   */\n      dup4\n        /* \"#utility.yul\":21183:21201   */\n      add\n        /* \"#utility.yul\":21174:21180   */\n      dup7\n        /* \"#utility.yul\":21130:21202   */\n      tag_571\n      jump\t// in\n    tag_821:\n        /* \"#utility.yul\":21249:21258   */\n      dup2\n        /* \"#utility.yul\":21243:21247   */\n      dup2\n        /* \"#utility.yul\":21239:21259   */\n      sub\n        /* \"#utility.yul\":21234:21236   */\n      0x40\n        /* \"#utility.yul\":21223:21232   */\n      dup4\n        /* \"#utility.yul\":21219:21237   */\n      add\n        /* \"#utility.yul\":21212:21260   */\n      mstore\n        /* \"#utility.yul\":21277:21398   */\n      tag_822\n        /* \"#utility.yul\":21393:21397   */\n      dup2\n        /* \"#utility.yul\":21384:21390   */\n      dup6\n        /* \"#utility.yul\":21277:21398   */\n      tag_614\n      jump\t// in\n    tag_822:\n        /* \"#utility.yul\":21269:21398   */\n      swap1\n      pop\n        /* \"#utility.yul\":21408:21480   */\n      tag_823\n        /* \"#utility.yul\":21476:21478   */\n      0x60\n        /* \"#utility.yul\":21465:21474   */\n      dup4\n        /* \"#utility.yul\":21461:21479   */\n      add\n        /* \"#utility.yul\":21452:21458   */\n      dup5\n        /* \"#utility.yul\":21408:21480   */\n      tag_571\n      jump\t// in\n    tag_823:\n        /* \"#utility.yul\":20757:21487   */\n      swap6\n      swap5\n      pop\n      pop\n      pop\n      pop\n      pop\n      jump\t// out\n        /* \"#utility.yul\":21493:21678   */\n    tag_547:\n        /* \"#utility.yul\":21533:21534   */\n      0x00\n        /* \"#utility.yul\":21550:21570   */\n      tag_825\n        /* \"#utility.yul\":21568:21569   */\n      dup3\n        /* \"#utility.yul\":21550:21570   */\n      tag_567\n      jump\t// in\n    tag_825:\n        /* \"#utility.yul\":21545:21570   */\n      swap2\n      pop\n        /* \"#utility.yul\":21584:21604   */\n      tag_826\n        /* \"#utility.yul\":21602:21603   */\n      dup4\n        /* \"#utility.yul\":21584:21604   */\n      tag_567\n      jump\t// in\n    tag_826:\n        /* \"#utility.yul\":21579:21604   */\n      swap3\n      pop\n        /* \"#utility.yul\":21623:21624   */\n      dup3\n        /* \"#utility.yul\":21613:21648   */\n      tag_827\n      jumpi\n        /* \"#utility.yul\":21628:21646   */\n      tag_828\n      tag_598\n      jump\t// in\n    tag_828:\n        /* \"#utility.yul\":21613:21648   */\n    tag_827:\n        /* \"#utility.yul\":21670:21671   */\n      dup3\n        /* \"#utility.yul\":21667:21668   */\n      dup3\n        /* \"#utility.yul\":21663:21672   */\n      div\n        /* \"#utility.yul\":21658:21672   */\n      swap1\n      pop\n        /* \"#utility.yul\":21493:21678   */\n      swap3\n      swap2\n      pop\n      pop\n      jump\t// out\n\n    auxdata: 0xa2646970667358221220fb173f3ae7a805a7d600884a791c1500bfdbaf8efe1880383c5abad2b244389e64736f6c63430008100033\n}\n",
				"bytecode": {
					"linkReferences": {},
					"object": "608060405273237c00f9142c2ba9858c7f5d622df429f870e850600160006101000a81548173ffffffffffffffffffffffffffffffffffffffff021916908373ffffffffffffffffffffffffffffffffffffffff160217905550601e6002556000600f60006101000a81548160ff0219169083151502179055503480156200008657600080fd5b506000620000996200024d60201b60201c565b905080600060016101000a81548173ffffffffffffffffffffffffffffffffffffffff021916908373ffffffffffffffffffffffffffffffffffffffff1602179055508073ffffffffffffffffffffffffffffffffffffffff16600073ffffffffffffffffffffffffffffffffffffffff167f8be0079c531659141344cd1fd0a4f28419497f9722a3daafe3b4186f6b6457e060405160405180910390a35062000149336200025560201b60201c565b6064600381905550670de0b6b3a76400006005819055506014600781905550678ac7230489e800006009819055506003600b8190555068056bc75e2d63100000600d8190555073e9e7cea3dedca5984780bafc599bd69add087d56601360006101000a81548173ffffffffffffffffffffffffffffffffffffffff021916908373ffffffffffffffffffffffffffffffffffffffff160217905550601360009054906101000a900473ffffffffffffffffffffffffffffffffffffffff16601460006101000a81548173ffffffffffffffffffffffffffffffffffffffff021916908373ffffffffffffffffffffffffffffffffffffffff16021790555062000558565b600033905090565b620002656200024d60201b60201c565b73ffffffffffffffffffffffffffffffffffffffff16600060019054906101000a900473ffffffffffffffffffffffffffffffffffffffff1673ffffffffffffffffffffffffffffffffffffffff1614620002f7576040517f08c379a0000000000000000000000000000000000000000000000000000000008152600401620002ee906200049e565b60405180910390fd5b62000308816200030b60201b60201c565b50565b600073ffffffffffffffffffffffffffffffffffffffff168173ffffffffffffffffffffffffffffffffffffffff16036200037d576040517f08c379a0000000000000000000000000000000000000000000000000000000008152600401620003749062000536565b60405180910390fd5b8073ffffffffffffffffffffffffffffffffffffffff16600060019054906101000a900473ffffffffffffffffffffffffffffffffffffffff1673ffffffffffffffffffffffffffffffffffffffff167f8be0079c531659141344cd1fd0a4f28419497f9722a3daafe3b4186f6b6457e060405160405180910390a380600060016101000a81548173ffffffffffffffffffffffffffffffffffffffff021916908373ffffffffffffffffffffffffffffffffffffffff16021790555050565b600082825260208201905092915050565b7f4f776e61626c653a2063616c6c6572206973206e6f7420746865206f776e6572600082015250565b6000620004866020836200043d565b915062000493826200044e565b602082019050919050565b60006020820190508181036000830152620004b98162000477565b9050919050565b7f4f776e61626c653a206e6577206f776e657220697320746865207a65726f206160008201527f6464726573730000000000000000000000000000000000000000000000000000602082015250565b60006200051e6026836200043d565b91506200052b82620004c0565b604082019050919050565b6000602082019050818103600083015262000551816200050f565b9050919050565b61386180620005686000396000f3fe608060405234801561001057600080fd5b506004361061021c5760003560e01c80639d76ea5811610125578063ce5f6b9f116100ad578063ea6b04801161007c578063ea6b04801461059b578063f0c30e95146105b9578063f19e8d86146105d5578063f2fde38b14610605578063f77f15b5146106215761021c565b8063ce5f6b9f14610527578063d521cf2a14610543578063db48692914610561578063e437239f1461057f5761021c565b8063a46eeb75116100f4578063a46eeb75146104a5578063a7e9f0d1146104c3578063b2288649146104e1578063b6fa5dfd146104ff578063be69d7ff1461051d5761021c565b80639d76ea581461042d5780639ec807021461044b578063a0a7bda814610469578063a308761a146104875761021c565b8063576aaa2b116101a8578063715018a611610177578063715018a61461039b5780637eee9fc1146103a55780638644024b146103c1578063890d542f146103df5780638da5cb5b1461040f5761021c565b8063576aaa2b1461030f5780635a3811b91461032d578063602977ad1461034b578063636ad6a61461037d5761021c565b806317c6332c116101ef57806317c6332c1461026f5780633631ef4a1461028b5780633fc7adb6146102a75780634ba35125146102c357806356e0bd36146102df5761021c565b8063013fc0ab14610221578063130024371461022b5780631598165014610249578063160344e214610265575b600080fd5b61022961062b565b005b6102336106cc565b6040516102409190612dd5565b60405180910390f35b610263600480360381019061025e9190612e32565b6108ec565b005b61026d61098d565b005b61028960048036038101906102849190612e32565b610a41565b005b6102a560048036038101906102a09190612e32565b610ae2565b005b6102c160048036038101906102bc9190612e32565b610ded565b005b6102dd60048036038101906102d89190612e32565b610e8e565b005b6102f960048036038101906102f49190612e32565b610f2f565b6040516103069190612e6e565b60405180910390f35b610317610f6e565b6040516103249190612e98565b60405180910390f35b610335610f7b565b6040516103429190612ece565b60405180910390f35b61036560048036038101906103609190612f15565b610f8e565b60405161037493929190612f42565b60405180910390f35b6103856111c7565b6040516103929190612e98565b60405180910390f35b6103a36111d1565b005b6103bf60048036038101906103ba9190612e32565b611328565b005b6103c9611633565b6040516103d69190612e98565b60405180910390f35b6103f960048036038101906103f49190612e32565b61163d565b6040516104069190612e6e565b60405180910390f35b61041761167c565b6040516104249190612e6e565b60405180910390f35b6104356116a5565b6040516104429190612e6e565b60405180910390f35b6104536116cb565b6040516104609190612e98565b60405180910390f35b6104716116d5565b60405161047e9190612e98565b60405180910390f35b61048f6116e2565b60405161049c9190612e98565b60405180910390f35b6104ad6116ec565b6040516104ba9190612e98565b60405180910390f35b6104cb6116f9565b6040516104d89190612dd5565b60405180910390f35b6104e9611919565b6040516104f69190612e98565b60405180910390f35b6105076119bc565b6040516105149190612fd8565b60405180910390f35b6105256119e2565b005b610541600480360381019061053c9190612e32565b611a83565b005b61054b611dc9565b6040516105589190612dd5565b60405180910390f35b610569611fe9565b6040516105769190612e98565b60405180910390f35b61059960048036038101906105949190612e32565b611ff3565b005b6105a3612094565b6040516105b09190612e98565b60405180910390f35b6105d360048036038101906105ce9190612e32565b61209e565b005b6105ef60048036038101906105ea9190612e32565b61213f565b6040516105fc9190612e6e565b60405180910390f35b61061f600480360381019061061a9190612f15565b61217e565b005b610629612221565b005b6106336122c2565b73ffffffffffffffffffffffffffffffffffffffff16600060019054906101000a900473ffffffffffffffffffffffffffffffffffffffff1673ffffffffffffffffffffffffffffffffffffffff16146106c2576040517f08c379a00000000000000000000000000000000000000000000000000000000081526004016106b990613050565b60405180910390fd5b6106ca6122ca565b565b60606000601167ffffffffffffffff8111156106eb576106ea613070565b5b6040519080825280602002602001820160405280156107195781602001602082028036833780820191505090505b509050600060128054905090506000825190506000600a8311156108045760008390505b600a8461074a91906130ce565b8111156107fe57828061075c90613102565b935050601281815481106107735761077261314a565b5b9060005260206000200160009054906101000a900473ffffffffffffffffffffffffffffffffffffffff168584815181106107b1576107b061314a565b5b602002602001019073ffffffffffffffffffffffffffffffffffffffff16908173ffffffffffffffffffffffffffffffffffffffff168152505080806107f690613179565b91505061073d565b506108e2565b60008390505b60008111156108e057828061081e90613102565b9350506000601260018361083291906130ce565b815481106108435761084261314a565b5b9060005260206000200160009054906101000a900473ffffffffffffffffffffffffffffffffffffffff169050808684815181106108845761088361314a565b5b602002602001019073ffffffffffffffffffffffffffffffffffffffff16908173ffffffffffffffffffffffffffffffffffffffff168152505082806108c990613102565b9350505080806108d890613179565b91505061080a565b505b8394505050505090565b6108f46122c2565b73ffffffffffffffffffffffffffffffffffffffff16600060019054906101000a900473ffffffffffffffffffffffffffffffffffffffff1673ffffffffffffffffffffffffffffffffffffffff1614610983576040517f08c379a000000000000000000000000000000000000000000000000000000000815260040161097a90613050565b60405180910390fd5b8060058190555050565b6109956122c2565b73ffffffffffffffffffffffffffffffffffffffff16600060019054906101000a900473ffffffffffffffffffffffffffffffffffffffff1673ffffffffffffffffffffffffffffffffffffffff1614610a24576040517f08c379a0000000000000000000000000000000000000000000000000000000008152600401610a1b90613050565b60405180910390fd5b6001600f60006101000a81548160ff021916908315150217905550565b610a496122c2565b73ffffffffffffffffffffffffffffffffffffffff16600060019054906101000a900473ffffffffffffffffffffffffffffffffffffffff1673ffffffffffffffffffffffffffffffffffffffff1614610ad8576040517f08c379a0000000000000000000000000000000000000000000000000000000008152600401610acf90613050565b60405180910390fd5b80600b8190555050565b600060019054906101000a900473ffffffffffffffffffffffffffffffffffffffff1673ffffffffffffffffffffffffffffffffffffffff163373ffffffffffffffffffffffffffffffffffffffff1603610b72576040517f08c379a0000000000000000000000000000000000000000000000000000000008152600401610b69906131ee565b60405180910390fd5b60008054906101000a900460ff1615610bc0576040517f08c379a0000000000000000000000000000000000000000000000000000000008152600401610bb79061325a565b60405180910390fd5b60016000806101000a81548160ff021916908315150217905550600f60009054906101000a900460ff16610c29576040517f08c379a0000000000000000000000000000000000000000000000000000000008152600401610c20906132c6565b60405180910390fd5b600d548114610c6d576040517f08c379a0000000000000000000000000000000000000000000000000000000008152600401610c6490613332565b60405180910390fd5b6000601460009054906101000a900473ffffffffffffffffffffffffffffffffffffffff1673ffffffffffffffffffffffffffffffffffffffff166323b872dd3330856040518463ffffffff1660e01b8152600401610cce93929190613352565b6020604051808303816000875af1158015610ced573d6000803e3d6000fd5b505050506040513d601f19601f82011682018060405250810190610d1191906133b5565b90508015610dcf57600b54600c541015610db957600e339080600181540180825580915050600190039060005260206000200160009091909190916101000a81548173ffffffffffffffffffffffffffffffffffffffff021916908373ffffffffffffffffffffffffffffffffffffffff160217905550600c6000815480929190610d9b90613102565b9190505550600b54600c5403610db457610db3612584565b5b610dce565b600b54600c5403610dcd57610dcc612584565b5b5b5b5060008060006101000a81548160ff02191690831515021790555050565b610df56122c2565b73ffffffffffffffffffffffffffffffffffffffff16600060019054906101000a900473ffffffffffffffffffffffffffffffffffffffff1673ffffffffffffffffffffffffffffffffffffffff1614610e84576040517f08c379a0000000000000000000000000000000000000000000000000000000008152600401610e7b90613050565b60405180910390fd5b8060038190555050565b610e966122c2565b73ffffffffffffffffffffffffffffffffffffffff16600060019054906101000a900473ffffffffffffffffffffffffffffffffffffffff1673ffffffffffffffffffffffffffffffffffffffff1614610f25576040517f08c379a0000000000000000000000000000000000000000000000000000000008152600401610f1c90613050565b60405180910390fd5b8060078190555050565b60118181548110610f3f57600080fd5b906000526020600020016000915054906101000a900473ffffffffffffffffffffffffffffffffffffffff1681565b6000600680549050905090565b600f60009054906101000a900460ff1681565b60008060008060009050600080600060068054905090506000811461104d5760005b8181101561104b578873ffffffffffffffffffffffffffffffffffffffff1660068281548110610fe357610fe261314a565b5b9060005260206000200160009054906101000a900473ffffffffffffffffffffffffffffffffffffffff1673ffffffffffffffffffffffffffffffffffffffff160361103857848061103490613102565b9550505b808061104390613102565b915050610fb0565b505b6000600a805490509050600081146110ff5760005b818110156110fd578973ffffffffffffffffffffffffffffffffffffffff16600a82815481106110955761109461314a565b5b9060005260206000200160009054906101000a900473ffffffffffffffffffffffffffffffffffffffff1673ffffffffffffffffffffffffffffffffffffffff16036110ea5784806110e690613102565b9550505b80806110f590613102565b915050611062565b505b6000600e805490509050600081146111b15760005b818110156111af578a73ffffffffffffffffffffffffffffffffffffffff16600682815481106111475761114661314a565b5b9060005260206000200160009054906101000a900473ffffffffffffffffffffffffffffffffffffffff1673ffffffffffffffffffffffffffffffffffffffff160361119c57848061119890613102565b9550505b80806111a790613102565b915050611114565b505b8585859850985098505050505050509193909250565b6000600554905090565b6111d96122c2565b73ffffffffffffffffffffffffffffffffffffffff16600060019054906101000a900473ffffffffffffffffffffffffffffffffffffffff1673ffffffffffffffffffffffffffffffffffffffff1614611268576040517f08c379a000000000000000000000000000000000000000000000000000000000815260040161125f90613050565b60405180910390fd5b600073ffffffffffffffffffffffffffffffffffffffff16600060019054906101000a900473ffffffffffffffffffffffffffffffffffffffff1673ffffffffffffffffffffffffffffffffffffffff167f8be0079c531659141344cd1fd0a4f28419497f9722a3daafe3b4186f6b6457e060405160405180910390a360008060016101000a81548173ffffffffffffffffffffffffffffffffffffffff021916908373ffffffffffffffffffffffffffffffffffffffff160217905550565b600060019054906101000a900473ffffffffffffffffffffffffffffffffffffffff1673ffffffffffffffffffffffffffffffffffffffff163373ffffffffffffffffffffffffffffffffffffffff16036113b8576040517f08c379a00000000000000000000000000000000000000000000000000000000081526004016113af906131ee565b60405180910390fd5b60008054906101000a900460ff1615611406576040517f08c379a00000000000000000000000000000000000000000000000000000000081526004016113fd9061325a565b60405180910390fd5b60016000806101000a81548160ff021916908315150217905550600f60009054906101000a900460ff1661146f576040517f08c379a0000000000000000000000000000000000000000000000000000000008152600401611466906132c6565b60405180910390fd5b60055481146114b3576040517f08c379a00000000000000000000000000000000000000000000000000000000081526004016114aa9061342e565b60405180910390fd5b6000601460009054906101000a900473ffffffffffffffffffffffffffffffffffffffff1673ffffffffffffffffffffffffffffffffffffffff166323b872dd3330856040518463ffffffff1660e01b815260040161151493929190613352565b6020604051808303816000875af1158015611533573d6000803e3d6000fd5b505050506040513d601f19601f8201168201806040525081019061155791906133b5565b905080156116155760035460045410156115ff576006339080600181540180825580915050600190039060005260206000200160009091909190916101000a81548173ffffffffffffffffffffffffffffffffffffffff021916908373ffffffffffffffffffffffffffffffffffffffff160217905550600460008154809291906115e190613102565b9190505550600354600454036115fa576115f961283e565b5b611614565b600354600454036116135761161261283e565b5b5b5b5060008060006101000a81548160ff02191690831515021790555050565b6000600d54905090565b6012818154811061164d57600080fd5b906000526020600020016000915054906101000a900473ffffffffffffffffffffffffffffffffffffffff1681565b60008060019054906101000a900473ffffffffffffffffffffffffffffffffffffffff16905090565b601360009054906101000a900473ffffffffffffffffffffffffffffffffffffffff1681565b6000600354905090565b6000600e80549050905090565b6000600754905090565b6000600a80549050905090565b60606000601167ffffffffffffffff81111561171857611717613070565b5b6040519080825280602002602001820160405280156117465781602001602082028036833780820191505090505b509050600060108054905090506000825190506000600a8311156118315760008390505b600a8461177791906130ce565b81111561182b57828061178990613102565b935050601081815481106117a05761179f61314a565b5b9060005260206000200160009054906101000a900473ffffffffffffffffffffffffffffffffffffffff168584815181106117de576117dd61314a565b5b602002602001019073ffffffffffffffffffffffffffffffffffffffff16908173ffffffffffffffffffffffffffffffffffffffff1681525050808061182390613179565b91505061176a565b5061190f565b60008390505b600081111561190d57828061184b90613102565b9350506000601060018361185f91906130ce565b815481106118705761186f61314a565b5b9060005260206000200160009054906101000a900473ffffffffffffffffffffffffffffffffffffffff169050808684815181106118b1576118b061314a565b5b602002602001019073ffffffffffffffffffffffffffffffffffffffff16908173ffffffffffffffffffffffffffffffffffffffff168152505082806118f690613102565b93505050808061190590613179565b915050611837565b505b8394505050505090565b6000601460009054906101000a900473ffffffffffffffffffffffffffffffffffffffff1673ffffffffffffffffffffffffffffffffffffffff166370a08231306040518263ffffffff1660e01b81526004016119769190612e6e565b602060405180830381865afa158015611993573d6000803e3d6000fd5b505050506040513d601f19601f820116820180604052508101906119b79190613463565b905090565b601460009054906101000a900473ffffffffffffffffffffffffffffffffffffffff1681565b6119ea6122c2565b73ffffffffffffffffffffffffffffffffffffffff16600060019054906101000a900473ffffffffffffffffffffffffffffffffffffffff1673ffffffffffffffffffffffffffffffffffffffff1614611a79576040517f08c379a0000000000000000000000000000000000000000000000000000000008152600401611a7090613050565b60405180910390fd5b611a81612584565b565b600060019054906101000a900473ffffffffffffffffffffffffffffffffffffffff1673ffffffffffffffffffffffffffffffffffffffff163373ffffffffffffffffffffffffffffffffffffffff1603611b13576040517f08c379a0000000000000000000000000000000000000000000000000000000008152600401611b0a906131ee565b60405180910390fd5b60008054906101000a900460ff1615611b61576040517f08c379a0000000000000000000000000000000000000000000000000000000008152600401611b589061325a565b60405180910390fd5b60016000806101000a81548160ff021916908315150217905550600f60009054906101000a900460ff16611bca576040517f08c379a0000000000000000000000000000000000000000000000000000000008152600401611bc1906132c6565b60405180910390fd5b7fa3de883741aefa0083d54de95483572ad5eaa074b33a0ae8dc98725d52cf814381600954604051611bfd929190613490565b60405180910390a16009548114611c49576040517f08c379a0000000000000000000000000000000000000000000000000000000008152600401611c409061342e565b60405180910390fd5b6000601460009054906101000a900473ffffffffffffffffffffffffffffffffffffffff1673ffffffffffffffffffffffffffffffffffffffff166323b872dd3330856040518463ffffffff1660e01b8152600401611caa93929190613352565b6020604051808303816000875af1158015611cc9573d6000803e3d6000fd5b505050506040513d601f19601f82011682018060405250810190611ced91906133b5565b90508015611dab576007546008541015611d9557600a339080600181540180825580915050600190039060005260206000200160009091909190916101000a81548173ffffffffffffffffffffffffffffffffffffffff021916908373ffffffffffffffffffffffffffffffffffffffff16021790555060086000815480929190611d7790613102565b919050555060075460085403611d9057611d8f6122ca565b5b611daa565b60075460085403611da957611da86122ca565b5b5b5b5060008060006101000a81548160ff02191690831515021790555050565b60606000601167ffffffffffffffff811115611de857611de7613070565b5b604051908082528060200260200182016040528015611e165781602001602082028036833780820191505090505b509050600060118054905090506000825190506000600a831115611f015760008390505b600a84611e4791906130ce565b811115611efb578280611e5990613102565b93505060118181548110611e7057611e6f61314a565b5b9060005260206000200160009054906101000a900473ffffffffffffffffffffffffffffffffffffffff16858481518110611eae57611ead61314a565b5b602002602001019073ffffffffffffffffffffffffffffffffffffffff16908173ffffffffffffffffffffffffffffffffffffffff16815250508080611ef390613179565b915050611e3a565b50611fdf565b60008390505b6000811115611fdd578280611f1b90613102565b93505060006011600183611f2f91906130ce565b81548110611f4057611f3f61314a565b5b9060005260206000200160009054906101000a900473ffffffffffffffffffffffffffffffffffffffff16905080868481518110611f8157611f8061314a565b5b602002602001019073ffffffffffffffffffffffffffffffffffffffff16908173ffffffffffffffffffffffffffffffffffffffff16815250508280611fc690613102565b935050508080611fd590613179565b915050611f07565b505b8394505050505090565b6000600b54905090565b611ffb6122c2565b73ffffffffffffffffffffffffffffffffffffffff16600060019054906101000a900473ffffffffffffffffffffffffffffffffffffffff1673ffffffffffffffffffffffffffffffffffffffff161461208a576040517f08c379a000000000000000000000000000000000000000000000000000000000815260040161208190613050565b60405180910390fd5b8060098190555050565b6000600954905090565b6120a66122c2565b73ffffffffffffffffffffffffffffffffffffffff16600060019054906101000a900473ffffffffffffffffffffffffffffffffffffffff1673ffffffffffffffffffffffffffffffffffffffff1614612135576040517f08c379a000000000000000000000000000000000000000000000000000000000815260040161212c90613050565b60405180910390fd5b80600d8190555050565b6010818154811061214f57600080fd5b906000526020600020016000915054906101000a900473ffffffffffffffffffffffffffffffffffffffff1681565b6121866122c2565b73ffffffffffffffffffffffffffffffffffffffff16600060019054906101000a900473ffffffffffffffffffffffffffffffffffffffff1673ffffffffffffffffffffffffffffffffffffffff1614612215576040517f08c379a000000000000000000000000000000000000000000000000000000000815260040161220c90613050565b60405180910390fd5b61221e81612afe565b50565b6122296122c2565b73ffffffffffffffffffffffffffffffffffffffff16600060019054906101000a900473ffffffffffffffffffffffffffffffffffffffff1673ffffffffffffffffffffffffffffffffffffffff16146122b8576040517f08c379a00000000000000000000000000000000000000000000000000000000081526004016122af90613050565b60405180910390fd5b6122c061283e565b565b600033905090565b6000600a805490506122da612c2d565b6122e491906134e8565b90506000600a805490506009546122fb9190613519565b9050600061231561230e83600254612c65565b6064612c7b565b9050601460009054906101000a900473ffffffffffffffffffffffffffffffffffffffff1673ffffffffffffffffffffffffffffffffffffffff1663a9059cbb600160009054906101000a900473ffffffffffffffffffffffffffffffffffffffff16836040518363ffffffff1660e01b8152600401612396929190613573565b6020604051808303816000875af11580156123b5573d6000803e3d6000fd5b505050506040513d601f19601f820116820180604052508101906123d991906133b5565b5060006123e68383612c91565b9050601460009054906101000a900473ffffffffffffffffffffffffffffffffffffffff1673ffffffffffffffffffffffffffffffffffffffff1663a9059cbb600a868154811061243a5761243961314a565b5b9060005260206000200160009054906101000a900473ffffffffffffffffffffffffffffffffffffffff16836040518363ffffffff1660e01b81526004016124839291906135bd565b6020604051808303816000875af11580156124a2573d6000803e3d6000fd5b505050506040513d601f19601f820116820180604052508101906124c691906133b5565b506011600a85815481106124dd576124dc61314a565b5b9060005260206000200160009054906101000a900473ffffffffffffffffffffffffffffffffffffffff169080600181540180825580915050600190039060005260206000200160009091909190916101000a81548173ffffffffffffffffffffffffffffffffffffffff021916908373ffffffffffffffffffffffffffffffffffffffff160217905550600a60006125769190612ca7565b600060088190555050505050565b6000600e80549050612594612c2d565b61259e91906134e8565b90506000600e80549050600d546125b59190613519565b905060006125cf6125c883600254612c65565b6064612c7b565b9050601460009054906101000a900473ffffffffffffffffffffffffffffffffffffffff1673ffffffffffffffffffffffffffffffffffffffff1663a9059cbb600160009054906101000a900473ffffffffffffffffffffffffffffffffffffffff16836040518363ffffffff1660e01b8152600401612650929190613573565b6020604051808303816000875af115801561266f573d6000803e3d6000fd5b505050506040513d601f19601f8201168201806040525081019061269391906133b5565b5060006126a08383612c91565b9050601460009054906101000a900473ffffffffffffffffffffffffffffffffffffffff1673ffffffffffffffffffffffffffffffffffffffff1663a9059cbb600e86815481106126f4576126f361314a565b5b9060005260206000200160009054906101000a900473ffffffffffffffffffffffffffffffffffffffff16836040518363ffffffff1660e01b815260040161273d9291906135bd565b6020604051808303816000875af115801561275c573d6000803e3d6000fd5b505050506040513d601f19601f8201168201806040525081019061278091906133b5565b506012600e85815481106127975761279661314a565b5b9060005260206000200160009054906101000a900473ffffffffffffffffffffffffffffffffffffffff169080600181540180825580915050600190039060005260206000200160009091909190916101000a81548173ffffffffffffffffffffffffffffffffffffffff021916908373ffffffffffffffffffffffffffffffffffffffff160217905550600e60006128309190612ca7565b6000600c8190555050505050565b600060068054905061284e612c2d565b61285891906134e8565b9050600060068054905090506000816005546128749190613519565b9050600061288e61288783600254612c65565b6064612c7b565b9050601460009054906101000a900473ffffffffffffffffffffffffffffffffffffffff1673ffffffffffffffffffffffffffffffffffffffff1663a9059cbb600160009054906101000a900473ffffffffffffffffffffffffffffffffffffffff16836040518363ffffffff1660e01b815260040161290f929190613573565b6020604051808303816000875af115801561292e573d6000803e3d6000fd5b505050506040513d601f19601f8201168201806040525081019061295291906133b5565b50600061295f8383612c91565b9050601460009054906101000a900473ffffffffffffffffffffffffffffffffffffffff1673ffffffffffffffffffffffffffffffffffffffff1663a9059cbb600687815481106129b3576129b261314a565b5b9060005260206000200160009054906101000a900473ffffffffffffffffffffffffffffffffffffffff16836040518363ffffffff1660e01b81526004016129fc9291906135bd565b6020604051808303816000875af1158015612a1b573d6000803e3d6000fd5b505050506040513d601f19601f82011682018060405250810190612a3f91906133b5565b50601060068681548110612a5657612a5561314a565b5b9060005260206000200160009054906101000a900473ffffffffffffffffffffffffffffffffffffffff169080600181540180825580915050600190039060005260206000200160009091909190916101000a81548173ffffffffffffffffffffffffffffffffffffffff021916908373ffffffffffffffffffffffffffffffffffffffff16021790555060066000612aef9190612ca7565b60006004819055505050505050565b600073ffffffffffffffffffffffffffffffffffffffff168173ffffffffffffffffffffffffffffffffffffffff1603612b6d576040517f08c379a0000000000000000000000000000000000000000000000000000000008152600401612b6490613658565b60405180910390fd5b8073ffffffffffffffffffffffffffffffffffffffff16600060019054906101000a900473ffffffffffffffffffffffffffffffffffffffff1673ffffffffffffffffffffffffffffffffffffffff167f8be0079c531659141344cd1fd0a4f28419497f9722a3daafe3b4186f6b6457e060405160405180910390a380600060016101000a81548173ffffffffffffffffffffffffffffffffffffffff021916908373ffffffffffffffffffffffffffffffffffffffff16021790555050565b60004442600643604051602001612c4794939291906137ae565b6040516020818303038152906040528051906020012060001c905090565b60008183612c739190613519565b905092915050565b60008183612c8991906137fa565b905092915050565b60008183612c9f91906130ce565b905092915050565b5080546000825590600052602060002090810190612cc59190612cc8565b50565b5b80821115612ce1576000816000905550600101612cc9565b5090565b600081519050919050565b600082825260208201905092915050565b6000819050602082019050919050565b600073ffffffffffffffffffffffffffffffffffffffff82169050919050565b6000612d3c82612d11565b9050919050565b612d4c81612d31565b82525050565b6000612d5e8383612d43565b60208301905092915050565b6000602082019050919050565b6000612d8282612ce5565b612d8c8185612cf0565b9350612d9783612d01565b8060005b83811015612dc8578151612daf8882612d52565b9750612dba83612d6a565b925050600181019050612d9b565b5085935050505092915050565b60006020820190508181036000830152612def8184612d77565b905092915050565b600080fd5b6000819050919050565b612e0f81612dfc565b8114612e1a57600080fd5b50565b600081359050612e2c81612e06565b92915050565b600060208284031215612e4857612e47612df7565b5b6000612e5684828501612e1d565b91505092915050565b612e6881612d31565b82525050565b6000602082019050612e836000830184612e5f565b92915050565b612e9281612dfc565b82525050565b6000602082019050612ead6000830184612e89565b92915050565b60008115159050919050565b612ec881612eb3565b82525050565b6000602082019050612ee36000830184612ebf565b92915050565b612ef281612d31565b8114612efd57600080fd5b50565b600081359050612f0f81612ee9565b92915050565b600060208284031215612f2b57612f2a612df7565b5b6000612f3984828501612f00565b91505092915050565b6000606082019050612f576000830186612e89565b612f646020830185612e89565b612f716040830184612e89565b949350505050565b6000819050919050565b6000612f9e612f99612f9484612d11565b612f79565b612d11565b9050919050565b6000612fb082612f83565b9050919050565b6000612fc282612fa5565b9050919050565b612fd281612fb7565b82525050565b6000602082019050612fed6000830184612fc9565b92915050565b600082825260208201905092915050565b7f4f776e61626c653a2063616c6c6572206973206e6f7420746865206f776e6572600082015250565b600061303a602083612ff3565b915061304582613004565b602082019050919050565b600060208201905081810360008301526130698161302d565b9050919050565b7f4e487b7100000000000000000000000000000000000000000000000000000000600052604160045260246000fd5b7f4e487b7100000000000000000000000000000000000000000000000000000000600052601160045260246000fd5b60006130d982612dfc565b91506130e483612dfc565b92508282039050818111156130fc576130fb61309f565b5b92915050565b600061310d82612dfc565b91507fffffffffffffffffffffffffffffffffffffffffffffffffffffffffffffffff820361313f5761313e61309f565b5b600182019050919050565b7f4e487b7100000000000000000000000000000000000000000000000000000000600052603260045260246000fd5b600061318482612dfc565b9150600082036131975761319661309f565b5b600182039050919050565b7f4163636573732064656e69656421000000000000000000000000000000000000600082015250565b60006131d8600e83612ff3565b91506131e3826131a2565b602082019050919050565b60006020820190508181036000830152613207816131cb565b9050919050565b7f4e6f2072652d656e7472616e6379000000000000000000000000000000000000600082015250565b6000613244600e83612ff3565b915061324f8261320e565b602082019050919050565b6000602082019050818103600083015261327381613237565b9050919050565b7f4c6f7474657279206973206e6f74207374617274656420796574000000000000600082015250565b60006132b0601a83612ff3565b91506132bb8261327a565b602082019050919050565b600060208201905081810360008301526132df816132a3565b9050919050565b7f4e6f742053616d65000000000000000000000000000000000000000000000000600082015250565b600061331c600883612ff3565b9150613327826132e6565b602082019050919050565b6000602082019050818103600083015261334b8161330f565b9050919050565b60006060820190506133676000830186612e5f565b6133746020830185612e5f565b6133816040830184612e89565b949350505050565b61339281612eb3565b811461339d57600080fd5b50565b6000815190506133af81613389565b92915050565b6000602082840312156133cb576133ca612df7565b5b60006133d9848285016133a0565b91505092915050565b7f4e6f742073616d6520616d6f756e740000000000000000000000000000000000600082015250565b6000613418600f83612ff3565b9150613423826133e2565b602082019050919050565b600060208201905081810360008301526134478161340b565b9050919050565b60008151905061345d81612e06565b92915050565b60006020828403121561347957613478612df7565b5b60006134878482850161344e565b91505092915050565b60006040820190506134a56000830185612e89565b6134b26020830184612e89565b9392505050565b7f4e487b7100000000000000000000000000000000000000000000000000000000600052601260045260246000fd5b60006134f382612dfc565b91506134fe83612dfc565b92508261350e5761350d6134b9565b5b828206905092915050565b600061352482612dfc565b915061352f83612dfc565b9250817fffffffffffffffffffffffffffffffffffffffffffffffffffffffffffffffff04831182151516156135685761356761309f565b5b828202905092915050565b60006040820190506135886000830185612e5f565b6135956020830184612e89565b9392505050565b60006135a782612fa5565b9050919050565b6135b78161359c565b82525050565b60006040820190506135d260008301856135ae565b6135df6020830184612e89565b9392505050565b7f4f776e61626c653a206e6577206f776e657220697320746865207a65726f206160008201527f6464726573730000000000000000000000000000000000000000000000000000602082015250565b6000613642602683612ff3565b915061364d826135e6565b604082019050919050565b6000602082019050818103600083015261367181613635565b9050919050565b600081549050919050565b600082825260208201905092915050565b60008190508160005260206000209050919050565b60006136b482612d11565b9050919050565b6136c4816136a9565b82525050565b60006136d683836136bb565b60208301905092915050565b60008160001c9050919050565b600073ffffffffffffffffffffffffffffffffffffffff82169050919050565b600061372261371d836136e2565b6136ef565b9050919050565b6000613735825461370f565b9050919050565b6000600182019050919050565b600061375482613678565b61375e8185613683565b935061376983613694565b8060005b838110156137a15761377e82613729565b61378888826136ca565b97506137938361373c565b92505060018101905061376d565b5085935050505092915050565b60006080820190506137c36000830187612e89565b6137d06020830186612e89565b81810360408301526137e28185613749565b90506137f16060830184612e89565b95945050505050565b600061380582612dfc565b915061381083612dfc565b9250826138205761381f6134b9565b5b82820490509291505056fea2646970667358221220fb173f3ae7a805a7d600884a791c1500bfdbaf8efe1880383c5abad2b244389e64736f6c63430008100033",
					"opcodes": "PUSH1 0x80 PUSH1 0x40 MSTORE PUSH20 0x237C00F9142C2BA9858C7F5D622DF429F870E850 PUSH1 0x1 PUSH1 0x0 PUSH2 0x100 EXP DUP2 SLOAD DUP2 PUSH20 0xFFFFFFFFFFFFFFFFFFFFFFFFFFFFFFFFFFFFFFFF MUL NOT AND SWAP1 DUP4 PUSH20 0xFFFFFFFFFFFFFFFFFFFFFFFFFFFFFFFFFFFFFFFF AND MUL OR SWAP1 SSTORE POP PUSH1 0x1E PUSH1 0x2 SSTORE PUSH1 0x0 PUSH1 0xF PUSH1 0x0 PUSH2 0x100 EXP DUP2 SLOAD DUP2 PUSH1 0xFF MUL NOT AND SWAP1 DUP4 ISZERO ISZERO MUL OR SWAP1 SSTORE POP CALLVALUE DUP1 ISZERO PUSH3 0x86 JUMPI PUSH1 0x0 DUP1 REVERT JUMPDEST POP PUSH1 0x0 PUSH3 0x99 PUSH3 0x24D PUSH1 0x20 SHL PUSH1 0x20 SHR JUMP JUMPDEST SWAP1 POP DUP1 PUSH1 0x0 PUSH1 0x1 PUSH2 0x100 EXP DUP2 SLOAD DUP2 PUSH20 0xFFFFFFFFFFFFFFFFFFFFFFFFFFFFFFFFFFFFFFFF MUL NOT AND SWAP1 DUP4 PUSH20 0xFFFFFFFFFFFFFFFFFFFFFFFFFFFFFFFFFFFFFFFF AND MUL OR SWAP1 SSTORE POP DUP1 PUSH20 0xFFFFFFFFFFFFFFFFFFFFFFFFFFFFFFFFFFFFFFFF AND PUSH1 0x0 PUSH20 0xFFFFFFFFFFFFFFFFFFFFFFFFFFFFFFFFFFFFFFFF AND PUSH32 0x8BE0079C531659141344CD1FD0A4F28419497F9722A3DAAFE3B4186F6B6457E0 PUSH1 0x40 MLOAD PUSH1 0x40 MLOAD DUP1 SWAP2 SUB SWAP1 LOG3 POP PUSH3 0x149 CALLER PUSH3 0x255 PUSH1 0x20 SHL PUSH1 0x20 SHR JUMP JUMPDEST PUSH1 0x64 PUSH1 0x3 DUP2 SWAP1 SSTORE POP PUSH8 0xDE0B6B3A7640000 PUSH1 0x5 DUP2 SWAP1 SSTORE POP PUSH1 0x14 PUSH1 0x7 DUP2 SWAP1 SSTORE POP PUSH8 0x8AC7230489E80000 PUSH1 0x9 DUP2 SWAP1 SSTORE POP PUSH1 0x3 PUSH1 0xB DUP2 SWAP1 SSTORE POP PUSH9 0x56BC75E2D63100000 PUSH1 0xD DUP2 SWAP1 SSTORE POP PUSH20 0xE9E7CEA3DEDCA5984780BAFC599BD69ADD087D56 PUSH1 0x13 PUSH1 0x0 PUSH2 0x100 EXP DUP2 SLOAD DUP2 PUSH20 0xFFFFFFFFFFFFFFFFFFFFFFFFFFFFFFFFFFFFFFFF MUL NOT AND SWAP1 DUP4 PUSH20 0xFFFFFFFFFFFFFFFFFFFFFFFFFFFFFFFFFFFFFFFF AND MUL OR SWAP1 SSTORE POP PUSH1 0x13 PUSH1 0x0 SWAP1 SLOAD SWAP1 PUSH2 0x100 EXP SWAP1 DIV PUSH20 0xFFFFFFFFFFFFFFFFFFFFFFFFFFFFFFFFFFFFFFFF AND PUSH1 0x14 PUSH1 0x0 PUSH2 0x100 EXP DUP2 SLOAD DUP2 PUSH20 0xFFFFFFFFFFFFFFFFFFFFFFFFFFFFFFFFFFFFFFFF MUL NOT AND SWAP1 DUP4 PUSH20 0xFFFFFFFFFFFFFFFFFFFFFFFFFFFFFFFFFFFFFFFF AND MUL OR SWAP1 SSTORE POP PUSH3 0x558 JUMP JUMPDEST PUSH1 0x0 CALLER SWAP1 POP SWAP1 JUMP JUMPDEST PUSH3 0x265 PUSH3 0x24D PUSH1 0x20 SHL PUSH1 0x20 SHR JUMP JUMPDEST PUSH20 0xFFFFFFFFFFFFFFFFFFFFFFFFFFFFFFFFFFFFFFFF AND PUSH1 0x0 PUSH1 0x1 SWAP1 SLOAD SWAP1 PUSH2 0x100 EXP SWAP1 DIV PUSH20 0xFFFFFFFFFFFFFFFFFFFFFFFFFFFFFFFFFFFFFFFF AND PUSH20 0xFFFFFFFFFFFFFFFFFFFFFFFFFFFFFFFFFFFFFFFF AND EQ PUSH3 0x2F7 JUMPI PUSH1 0x40 MLOAD PUSH32 0x8C379A000000000000000000000000000000000000000000000000000000000 DUP2 MSTORE PUSH1 0x4 ADD PUSH3 0x2EE SWAP1 PUSH3 0x49E JUMP JUMPDEST PUSH1 0x40 MLOAD DUP1 SWAP2 SUB SWAP1 REVERT JUMPDEST PUSH3 0x308 DUP2 PUSH3 0x30B PUSH1 0x20 SHL PUSH1 0x20 SHR JUMP JUMPDEST POP JUMP JUMPDEST PUSH1 0x0 PUSH20 0xFFFFFFFFFFFFFFFFFFFFFFFFFFFFFFFFFFFFFFFF AND DUP2 PUSH20 0xFFFFFFFFFFFFFFFFFFFFFFFFFFFFFFFFFFFFFFFF AND SUB PUSH3 0x37D JUMPI PUSH1 0x40 MLOAD PUSH32 0x8C379A000000000000000000000000000000000000000000000000000000000 DUP2 MSTORE PUSH1 0x4 ADD PUSH3 0x374 SWAP1 PUSH3 0x536 JUMP JUMPDEST PUSH1 0x40 MLOAD DUP1 SWAP2 SUB SWAP1 REVERT JUMPDEST DUP1 PUSH20 0xFFFFFFFFFFFFFFFFFFFFFFFFFFFFFFFFFFFFFFFF AND PUSH1 0x0 PUSH1 0x1 SWAP1 SLOAD SWAP1 PUSH2 0x100 EXP SWAP1 DIV PUSH20 0xFFFFFFFFFFFFFFFFFFFFFFFFFFFFFFFFFFFFFFFF AND PUSH20 0xFFFFFFFFFFFFFFFFFFFFFFFFFFFFFFFFFFFFFFFF AND PUSH32 0x8BE0079C531659141344CD1FD0A4F28419497F9722A3DAAFE3B4186F6B6457E0 PUSH1 0x40 MLOAD PUSH1 0x40 MLOAD DUP1 SWAP2 SUB SWAP1 LOG3 DUP1 PUSH1 0x0 PUSH1 0x1 PUSH2 0x100 EXP DUP2 SLOAD DUP2 PUSH20 0xFFFFFFFFFFFFFFFFFFFFFFFFFFFFFFFFFFFFFFFF MUL NOT AND SWAP1 DUP4 PUSH20 0xFFFFFFFFFFFFFFFFFFFFFFFFFFFFFFFFFFFFFFFF AND MUL OR SWAP1 SSTORE POP POP JUMP JUMPDEST PUSH1 0x0 DUP3 DUP3 MSTORE PUSH1 0x20 DUP3 ADD SWAP1 POP SWAP3 SWAP2 POP POP JUMP JUMPDEST PUSH32 0x4F776E61626C653A2063616C6C6572206973206E6F7420746865206F776E6572 PUSH1 0x0 DUP3 ADD MSTORE POP JUMP JUMPDEST PUSH1 0x0 PUSH3 0x486 PUSH1 0x20 DUP4 PUSH3 0x43D JUMP JUMPDEST SWAP2 POP PUSH3 0x493 DUP3 PUSH3 0x44E JUMP JUMPDEST PUSH1 0x20 DUP3 ADD SWAP1 POP SWAP2 SWAP1 POP JUMP JUMPDEST PUSH1 0x0 PUSH1 0x20 DUP3 ADD SWAP1 POP DUP2 DUP2 SUB PUSH1 0x0 DUP4 ADD MSTORE PUSH3 0x4B9 DUP2 PUSH3 0x477 JUMP JUMPDEST SWAP1 POP SWAP2 SWAP1 POP JUMP JUMPDEST PUSH32 0x4F776E61626C653A206E6577206F776E657220697320746865207A65726F2061 PUSH1 0x0 DUP3 ADD MSTORE PUSH32 0x6464726573730000000000000000000000000000000000000000000000000000 PUSH1 0x20 DUP3 ADD MSTORE POP JUMP JUMPDEST PUSH1 0x0 PUSH3 0x51E PUSH1 0x26 DUP4 PUSH3 0x43D JUMP JUMPDEST SWAP2 POP PUSH3 0x52B DUP3 PUSH3 0x4C0 JUMP JUMPDEST PUSH1 0x40 DUP3 ADD SWAP1 POP SWAP2 SWAP1 POP JUMP JUMPDEST PUSH1 0x0 PUSH1 0x20 DUP3 ADD SWAP1 POP DUP2 DUP2 SUB PUSH1 0x0 DUP4 ADD MSTORE PUSH3 0x551 DUP2 PUSH3 0x50F JUMP JUMPDEST SWAP1 POP SWAP2 SWAP1 POP JUMP JUMPDEST PUSH2 0x3861 DUP1 PUSH3 0x568 PUSH1 0x0 CODECOPY PUSH1 0x0 RETURN INVALID PUSH1 0x80 PUSH1 0x40 MSTORE CALLVALUE DUP1 ISZERO PUSH2 0x10 JUMPI PUSH1 0x0 DUP1 REVERT JUMPDEST POP PUSH1 0x4 CALLDATASIZE LT PUSH2 0x21C JUMPI PUSH1 0x0 CALLDATALOAD PUSH1 0xE0 SHR DUP1 PUSH4 0x9D76EA58 GT PUSH2 0x125 JUMPI DUP1 PUSH4 0xCE5F6B9F GT PUSH2 0xAD JUMPI DUP1 PUSH4 0xEA6B0480 GT PUSH2 0x7C JUMPI DUP1 PUSH4 0xEA6B0480 EQ PUSH2 0x59B JUMPI DUP1 PUSH4 0xF0C30E95 EQ PUSH2 0x5B9 JUMPI DUP1 PUSH4 0xF19E8D86 EQ PUSH2 0x5D5 JUMPI DUP1 PUSH4 0xF2FDE38B EQ PUSH2 0x605 JUMPI DUP1 PUSH4 0xF77F15B5 EQ PUSH2 0x621 JUMPI PUSH2 0x21C JUMP JUMPDEST DUP1 PUSH4 0xCE5F6B9F EQ PUSH2 0x527 JUMPI DUP1 PUSH4 0xD521CF2A EQ PUSH2 0x543 JUMPI DUP1 PUSH4 0xDB486929 EQ PUSH2 0x561 JUMPI DUP1 PUSH4 0xE437239F EQ PUSH2 0x57F JUMPI PUSH2 0x21C JUMP JUMPDEST DUP1 PUSH4 0xA46EEB75 GT PUSH2 0xF4 JUMPI DUP1 PUSH4 0xA46EEB75 EQ PUSH2 0x4A5 JUMPI DUP1 PUSH4 0xA7E9F0D1 EQ PUSH2 0x4C3 JUMPI DUP1 PUSH4 0xB2288649 EQ PUSH2 0x4E1 JUMPI DUP1 PUSH4 0xB6FA5DFD EQ PUSH2 0x4FF JUMPI DUP1 PUSH4 0xBE69D7FF EQ PUSH2 0x51D JUMPI PUSH2 0x21C JUMP JUMPDEST DUP1 PUSH4 0x9D76EA58 EQ PUSH2 0x42D JUMPI DUP1 PUSH4 0x9EC80702 EQ PUSH2 0x44B JUMPI DUP1 PUSH4 0xA0A7BDA8 EQ PUSH2 0x469 JUMPI DUP1 PUSH4 0xA308761A EQ PUSH2 0x487 JUMPI PUSH2 0x21C JUMP JUMPDEST DUP1 PUSH4 0x576AAA2B GT PUSH2 0x1A8 JUMPI DUP1 PUSH4 0x715018A6 GT PUSH2 0x177 JUMPI DUP1 PUSH4 0x715018A6 EQ PUSH2 0x39B JUMPI DUP1 PUSH4 0x7EEE9FC1 EQ PUSH2 0x3A5 JUMPI DUP1 PUSH4 0x8644024B EQ PUSH2 0x3C1 JUMPI DUP1 PUSH4 0x890D542F EQ PUSH2 0x3DF JUMPI DUP1 PUSH4 0x8DA5CB5B EQ PUSH2 0x40F JUMPI PUSH2 0x21C JUMP JUMPDEST DUP1 PUSH4 0x576AAA2B EQ PUSH2 0x30F JUMPI DUP1 PUSH4 0x5A3811B9 EQ PUSH2 0x32D JUMPI DUP1 PUSH4 0x602977AD EQ PUSH2 0x34B JUMPI DUP1 PUSH4 0x636AD6A6 EQ PUSH2 0x37D JUMPI PUSH2 0x21C JUMP JUMPDEST DUP1 PUSH4 0x17C6332C GT PUSH2 0x1EF JUMPI DUP1 PUSH4 0x17C6332C EQ PUSH2 0x26F JUMPI DUP1 PUSH4 0x3631EF4A EQ PUSH2 0x28B JUMPI DUP1 PUSH4 0x3FC7ADB6 EQ PUSH2 0x2A7 JUMPI DUP1 PUSH4 0x4BA35125 EQ PUSH2 0x2C3 JUMPI DUP1 PUSH4 0x56E0BD36 EQ PUSH2 0x2DF JUMPI PUSH2 0x21C JUMP JUMPDEST DUP1 PUSH4 0x13FC0AB EQ PUSH2 0x221 JUMPI DUP1 PUSH4 0x13002437 EQ PUSH2 0x22B JUMPI DUP1 PUSH4 0x15981650 EQ PUSH2 0x249 JUMPI DUP1 PUSH4 0x160344E2 EQ PUSH2 0x265 JUMPI JUMPDEST PUSH1 0x0 DUP1 REVERT JUMPDEST PUSH2 0x229 PUSH2 0x62B JUMP JUMPDEST STOP JUMPDEST PUSH2 0x233 PUSH2 0x6CC JUMP JUMPDEST PUSH1 0x40 MLOAD PUSH2 0x240 SWAP2 SWAP1 PUSH2 0x2DD5 JUMP JUMPDEST PUSH1 0x40 MLOAD DUP1 SWAP2 SUB SWAP1 RETURN JUMPDEST PUSH2 0x263 PUSH1 0x4 DUP1 CALLDATASIZE SUB DUP2 ADD SWAP1 PUSH2 0x25E SWAP2 SWAP1 PUSH2 0x2E32 JUMP JUMPDEST PUSH2 0x8EC JUMP JUMPDEST STOP JUMPDEST PUSH2 0x26D PUSH2 0x98D JUMP JUMPDEST STOP JUMPDEST PUSH2 0x289 PUSH1 0x4 DUP1 CALLDATASIZE SUB DUP2 ADD SWAP1 PUSH2 0x284 SWAP2 SWAP1 PUSH2 0x2E32 JUMP JUMPDEST PUSH2 0xA41 JUMP JUMPDEST STOP JUMPDEST PUSH2 0x2A5 PUSH1 0x4 DUP1 CALLDATASIZE SUB DUP2 ADD SWAP1 PUSH2 0x2A0 SWAP2 SWAP1 PUSH2 0x2E32 JUMP JUMPDEST PUSH2 0xAE2 JUMP JUMPDEST STOP JUMPDEST PUSH2 0x2C1 PUSH1 0x4 DUP1 CALLDATASIZE SUB DUP2 ADD SWAP1 PUSH2 0x2BC SWAP2 SWAP1 PUSH2 0x2E32 JUMP JUMPDEST PUSH2 0xDED JUMP JUMPDEST STOP JUMPDEST PUSH2 0x2DD PUSH1 0x4 DUP1 CALLDATASIZE SUB DUP2 ADD SWAP1 PUSH2 0x2D8 SWAP2 SWAP1 PUSH2 0x2E32 JUMP JUMPDEST PUSH2 0xE8E JUMP JUMPDEST STOP JUMPDEST PUSH2 0x2F9 PUSH1 0x4 DUP1 CALLDATASIZE SUB DUP2 ADD SWAP1 PUSH2 0x2F4 SWAP2 SWAP1 PUSH2 0x2E32 JUMP JUMPDEST PUSH2 0xF2F JUMP JUMPDEST PUSH1 0x40 MLOAD PUSH2 0x306 SWAP2 SWAP1 PUSH2 0x2E6E JUMP JUMPDEST PUSH1 0x40 MLOAD DUP1 SWAP2 SUB SWAP1 RETURN JUMPDEST PUSH2 0x317 PUSH2 0xF6E JUMP JUMPDEST PUSH1 0x40 MLOAD PUSH2 0x324 SWAP2 SWAP1 PUSH2 0x2E98 JUMP JUMPDEST PUSH1 0x40 MLOAD DUP1 SWAP2 SUB SWAP1 RETURN JUMPDEST PUSH2 0x335 PUSH2 0xF7B JUMP JUMPDEST PUSH1 0x40 MLOAD PUSH2 0x342 SWAP2 SWAP1 PUSH2 0x2ECE JUMP JUMPDEST PUSH1 0x40 MLOAD DUP1 SWAP2 SUB SWAP1 RETURN JUMPDEST PUSH2 0x365 PUSH1 0x4 DUP1 CALLDATASIZE SUB DUP2 ADD SWAP1 PUSH2 0x360 SWAP2 SWAP1 PUSH2 0x2F15 JUMP JUMPDEST PUSH2 0xF8E JUMP JUMPDEST PUSH1 0x40 MLOAD PUSH2 0x374 SWAP4 SWAP3 SWAP2 SWAP1 PUSH2 0x2F42 JUMP JUMPDEST PUSH1 0x40 MLOAD DUP1 SWAP2 SUB SWAP1 RETURN JUMPDEST PUSH2 0x385 PUSH2 0x11C7 JUMP JUMPDEST PUSH1 0x40 MLOAD PUSH2 0x392 SWAP2 SWAP1 PUSH2 0x2E98 JUMP JUMPDEST PUSH1 0x40 MLOAD DUP1 SWAP2 SUB SWAP1 RETURN JUMPDEST PUSH2 0x3A3 PUSH2 0x11D1 JUMP JUMPDEST STOP JUMPDEST PUSH2 0x3BF PUSH1 0x4 DUP1 CALLDATASIZE SUB DUP2 ADD SWAP1 PUSH2 0x3BA SWAP2 SWAP1 PUSH2 0x2E32 JUMP JUMPDEST PUSH2 0x1328 JUMP JUMPDEST STOP JUMPDEST PUSH2 0x3C9 PUSH2 0x1633 JUMP JUMPDEST PUSH1 0x40 MLOAD PUSH2 0x3D6 SWAP2 SWAP1 PUSH2 0x2E98 JUMP JUMPDEST PUSH1 0x40 MLOAD DUP1 SWAP2 SUB SWAP1 RETURN JUMPDEST PUSH2 0x3F9 PUSH1 0x4 DUP1 CALLDATASIZE SUB DUP2 ADD SWAP1 PUSH2 0x3F4 SWAP2 SWAP1 PUSH2 0x2E32 JUMP JUMPDEST PUSH2 0x163D JUMP JUMPDEST PUSH1 0x40 MLOAD PUSH2 0x406 SWAP2 SWAP1 PUSH2 0x2E6E JUMP JUMPDEST PUSH1 0x40 MLOAD DUP1 SWAP2 SUB SWAP1 RETURN JUMPDEST PUSH2 0x417 PUSH2 0x167C JUMP JUMPDEST PUSH1 0x40 MLOAD PUSH2 0x424 SWAP2 SWAP1 PUSH2 0x2E6E JUMP JUMPDEST PUSH1 0x40 MLOAD DUP1 SWAP2 SUB SWAP1 RETURN JUMPDEST PUSH2 0x435 PUSH2 0x16A5 JUMP JUMPDEST PUSH1 0x40 MLOAD PUSH2 0x442 SWAP2 SWAP1 PUSH2 0x2E6E JUMP JUMPDEST PUSH1 0x40 MLOAD DUP1 SWAP2 SUB SWAP1 RETURN JUMPDEST PUSH2 0x453 PUSH2 0x16CB JUMP JUMPDEST PUSH1 0x40 MLOAD PUSH2 0x460 SWAP2 SWAP1 PUSH2 0x2E98 JUMP JUMPDEST PUSH1 0x40 MLOAD DUP1 SWAP2 SUB SWAP1 RETURN JUMPDEST PUSH2 0x471 PUSH2 0x16D5 JUMP JUMPDEST PUSH1 0x40 MLOAD PUSH2 0x47E SWAP2 SWAP1 PUSH2 0x2E98 JUMP JUMPDEST PUSH1 0x40 MLOAD DUP1 SWAP2 SUB SWAP1 RETURN JUMPDEST PUSH2 0x48F PUSH2 0x16E2 JUMP JUMPDEST PUSH1 0x40 MLOAD PUSH2 0x49C SWAP2 SWAP1 PUSH2 0x2E98 JUMP JUMPDEST PUSH1 0x40 MLOAD DUP1 SWAP2 SUB SWAP1 RETURN JUMPDEST PUSH2 0x4AD PUSH2 0x16EC JUMP JUMPDEST PUSH1 0x40 MLOAD PUSH2 0x4BA SWAP2 SWAP1 PUSH2 0x2E98 JUMP JUMPDEST PUSH1 0x40 MLOAD DUP1 SWAP2 SUB SWAP1 RETURN JUMPDEST PUSH2 0x4CB PUSH2 0x16F9 JUMP JUMPDEST PUSH1 0x40 MLOAD PUSH2 0x4D8 SWAP2 SWAP1 PUSH2 0x2DD5 JUMP JUMPDEST PUSH1 0x40 MLOAD DUP1 SWAP2 SUB SWAP1 RETURN JUMPDEST PUSH2 0x4E9 PUSH2 0x1919 JUMP JUMPDEST PUSH1 0x40 MLOAD PUSH2 0x4F6 SWAP2 SWAP1 PUSH2 0x2E98 JUMP JUMPDEST PUSH1 0x40 MLOAD DUP1 SWAP2 SUB SWAP1 RETURN JUMPDEST PUSH2 0x507 PUSH2 0x19BC JUMP JUMPDEST PUSH1 0x40 MLOAD PUSH2 0x514 SWAP2 SWAP1 PUSH2 0x2FD8 JUMP JUMPDEST PUSH1 0x40 MLOAD DUP1 SWAP2 SUB SWAP1 RETURN JUMPDEST PUSH2 0x525 PUSH2 0x19E2 JUMP JUMPDEST STOP JUMPDEST PUSH2 0x541 PUSH1 0x4 DUP1 CALLDATASIZE SUB DUP2 ADD SWAP1 PUSH2 0x53C SWAP2 SWAP1 PUSH2 0x2E32 JUMP JUMPDEST PUSH2 0x1A83 JUMP JUMPDEST STOP JUMPDEST PUSH2 0x54B PUSH2 0x1DC9 JUMP JUMPDEST PUSH1 0x40 MLOAD PUSH2 0x558 SWAP2 SWAP1 PUSH2 0x2DD5 JUMP JUMPDEST PUSH1 0x40 MLOAD DUP1 SWAP2 SUB SWAP1 RETURN JUMPDEST PUSH2 0x569 PUSH2 0x1FE9 JUMP JUMPDEST PUSH1 0x40 MLOAD PUSH2 0x576 SWAP2 SWAP1 PUSH2 0x2E98 JUMP JUMPDEST PUSH1 0x40 MLOAD DUP1 SWAP2 SUB SWAP1 RETURN JUMPDEST PUSH2 0x599 PUSH1 0x4 DUP1 CALLDATASIZE SUB DUP2 ADD SWAP1 PUSH2 0x594 SWAP2 SWAP1 PUSH2 0x2E32 JUMP JUMPDEST PUSH2 0x1FF3 JUMP JUMPDEST STOP JUMPDEST PUSH2 0x5A3 PUSH2 0x2094 JUMP JUMPDEST PUSH1 0x40 MLOAD PUSH2 0x5B0 SWAP2 SWAP1 PUSH2 0x2E98 JUMP JUMPDEST PUSH1 0x40 MLOAD DUP1 SWAP2 SUB SWAP1 RETURN JUMPDEST PUSH2 0x5D3 PUSH1 0x4 DUP1 CALLDATASIZE SUB DUP2 ADD SWAP1 PUSH2 0x5CE SWAP2 SWAP1 PUSH2 0x2E32 JUMP JUMPDEST PUSH2 0x209E JUMP JUMPDEST STOP JUMPDEST PUSH2 0x5EF PUSH1 0x4 DUP1 CALLDATASIZE SUB DUP2 ADD SWAP1 PUSH2 0x5EA SWAP2 SWAP1 PUSH2 0x2E32 JUMP JUMPDEST PUSH2 0x213F JUMP JUMPDEST PUSH1 0x40 MLOAD PUSH2 0x5FC SWAP2 SWAP1 PUSH2 0x2E6E JUMP JUMPDEST PUSH1 0x40 MLOAD DUP1 SWAP2 SUB SWAP1 RETURN JUMPDEST PUSH2 0x61F PUSH1 0x4 DUP1 CALLDATASIZE SUB DUP2 ADD SWAP1 PUSH2 0x61A SWAP2 SWAP1 PUSH2 0x2F15 JUMP JUMPDEST PUSH2 0x217E JUMP JUMPDEST STOP JUMPDEST PUSH2 0x629 PUSH2 0x2221 JUMP JUMPDEST STOP JUMPDEST PUSH2 0x633 PUSH2 0x22C2 JUMP JUMPDEST PUSH20 0xFFFFFFFFFFFFFFFFFFFFFFFFFFFFFFFFFFFFFFFF AND PUSH1 0x0 PUSH1 0x1 SWAP1 SLOAD SWAP1 PUSH2 0x100 EXP SWAP1 DIV PUSH20 0xFFFFFFFFFFFFFFFFFFFFFFFFFFFFFFFFFFFFFFFF AND PUSH20 0xFFFFFFFFFFFFFFFFFFFFFFFFFFFFFFFFFFFFFFFF AND EQ PUSH2 0x6C2 JUMPI PUSH1 0x40 MLOAD PUSH32 0x8C379A000000000000000000000000000000000000000000000000000000000 DUP2 MSTORE PUSH1 0x4 ADD PUSH2 0x6B9 SWAP1 PUSH2 0x3050 JUMP JUMPDEST PUSH1 0x40 MLOAD DUP1 SWAP2 SUB SWAP1 REVERT JUMPDEST PUSH2 0x6CA PUSH2 0x22CA JUMP JUMPDEST JUMP JUMPDEST PUSH1 0x60 PUSH1 0x0 PUSH1 0x11 PUSH8 0xFFFFFFFFFFFFFFFF DUP2 GT ISZERO PUSH2 0x6EB JUMPI PUSH2 0x6EA PUSH2 0x3070 JUMP JUMPDEST JUMPDEST PUSH1 0x40 MLOAD SWAP1 DUP1 DUP3 MSTORE DUP1 PUSH1 0x20 MUL PUSH1 0x20 ADD DUP3 ADD PUSH1 0x40 MSTORE DUP1 ISZERO PUSH2 0x719 JUMPI DUP2 PUSH1 0x20 ADD PUSH1 0x20 DUP3 MUL DUP1 CALLDATASIZE DUP4 CALLDATACOPY DUP1 DUP3 ADD SWAP2 POP POP SWAP1 POP JUMPDEST POP SWAP1 POP PUSH1 0x0 PUSH1 0x12 DUP1 SLOAD SWAP1 POP SWAP1 POP PUSH1 0x0 DUP3 MLOAD SWAP1 POP PUSH1 0x0 PUSH1 0xA DUP4 GT ISZERO PUSH2 0x804 JUMPI PUSH1 0x0 DUP4 SWAP1 POP JUMPDEST PUSH1 0xA DUP5 PUSH2 0x74A SWAP2 SWAP1 PUSH2 0x30CE JUMP JUMPDEST DUP2 GT ISZERO PUSH2 0x7FE JUMPI DUP3 DUP1 PUSH2 0x75C SWAP1 PUSH2 0x3102 JUMP JUMPDEST SWAP4 POP POP PUSH1 0x12 DUP2 DUP2 SLOAD DUP2 LT PUSH2 0x773 JUMPI PUSH2 0x772 PUSH2 0x314A JUMP JUMPDEST JUMPDEST SWAP1 PUSH1 0x0 MSTORE PUSH1 0x20 PUSH1 0x0 KECCAK256 ADD PUSH1 0x0 SWAP1 SLOAD SWAP1 PUSH2 0x100 EXP SWAP1 DIV PUSH20 0xFFFFFFFFFFFFFFFFFFFFFFFFFFFFFFFFFFFFFFFF AND DUP6 DUP5 DUP2 MLOAD DUP2 LT PUSH2 0x7B1 JUMPI PUSH2 0x7B0 PUSH2 0x314A JUMP JUMPDEST JUMPDEST PUSH1 0x20 MUL PUSH1 0x20 ADD ADD SWAP1 PUSH20 0xFFFFFFFFFFFFFFFFFFFFFFFFFFFFFFFFFFFFFFFF AND SWAP1 DUP2 PUSH20 0xFFFFFFFFFFFFFFFFFFFFFFFFFFFFFFFFFFFFFFFF AND DUP2 MSTORE POP POP DUP1 DUP1 PUSH2 0x7F6 SWAP1 PUSH2 0x3179 JUMP JUMPDEST SWAP2 POP POP PUSH2 0x73D JUMP JUMPDEST POP PUSH2 0x8E2 JUMP JUMPDEST PUSH1 0x0 DUP4 SWAP1 POP JUMPDEST PUSH1 0x0 DUP2 GT ISZERO PUSH2 0x8E0 JUMPI DUP3 DUP1 PUSH2 0x81E SWAP1 PUSH2 0x3102 JUMP JUMPDEST SWAP4 POP POP PUSH1 0x0 PUSH1 0x12 PUSH1 0x1 DUP4 PUSH2 0x832 SWAP2 SWAP1 PUSH2 0x30CE JUMP JUMPDEST DUP2 SLOAD DUP2 LT PUSH2 0x843 JUMPI PUSH2 0x842 PUSH2 0x314A JUMP JUMPDEST JUMPDEST SWAP1 PUSH1 0x0 MSTORE PUSH1 0x20 PUSH1 0x0 KECCAK256 ADD PUSH1 0x0 SWAP1 SLOAD SWAP1 PUSH2 0x100 EXP SWAP1 DIV PUSH20 0xFFFFFFFFFFFFFFFFFFFFFFFFFFFFFFFFFFFFFFFF AND SWAP1 POP DUP1 DUP7 DUP5 DUP2 MLOAD DUP2 LT PUSH2 0x884 JUMPI PUSH2 0x883 PUSH2 0x314A JUMP JUMPDEST JUMPDEST PUSH1 0x20 MUL PUSH1 0x20 ADD ADD SWAP1 PUSH20 0xFFFFFFFFFFFFFFFFFFFFFFFFFFFFFFFFFFFFFFFF AND SWAP1 DUP2 PUSH20 0xFFFFFFFFFFFFFFFFFFFFFFFFFFFFFFFFFFFFFFFF AND DUP2 MSTORE POP POP DUP3 DUP1 PUSH2 0x8C9 SWAP1 PUSH2 0x3102 JUMP JUMPDEST SWAP4 POP POP POP DUP1 DUP1 PUSH2 0x8D8 SWAP1 PUSH2 0x3179 JUMP JUMPDEST SWAP2 POP POP PUSH2 0x80A JUMP JUMPDEST POP JUMPDEST DUP4 SWAP5 POP POP POP POP POP SWAP1 JUMP JUMPDEST PUSH2 0x8F4 PUSH2 0x22C2 JUMP JUMPDEST PUSH20 0xFFFFFFFFFFFFFFFFFFFFFFFFFFFFFFFFFFFFFFFF AND PUSH1 0x0 PUSH1 0x1 SWAP1 SLOAD SWAP1 PUSH2 0x100 EXP SWAP1 DIV PUSH20 0xFFFFFFFFFFFFFFFFFFFFFFFFFFFFFFFFFFFFFFFF AND PUSH20 0xFFFFFFFFFFFFFFFFFFFFFFFFFFFFFFFFFFFFFFFF AND EQ PUSH2 0x983 JUMPI PUSH1 0x40 MLOAD PUSH32 0x8C379A000000000000000000000000000000000000000000000000000000000 DUP2 MSTORE PUSH1 0x4 ADD PUSH2 0x97A SWAP1 PUSH2 0x3050 JUMP JUMPDEST PUSH1 0x40 MLOAD DUP1 SWAP2 SUB SWAP1 REVERT JUMPDEST DUP1 PUSH1 0x5 DUP2 SWAP1 SSTORE POP POP JUMP JUMPDEST PUSH2 0x995 PUSH2 0x22C2 JUMP JUMPDEST PUSH20 0xFFFFFFFFFFFFFFFFFFFFFFFFFFFFFFFFFFFFFFFF AND PUSH1 0x0 PUSH1 0x1 SWAP1 SLOAD SWAP1 PUSH2 0x100 EXP SWAP1 DIV PUSH20 0xFFFFFFFFFFFFFFFFFFFFFFFFFFFFFFFFFFFFFFFF AND PUSH20 0xFFFFFFFFFFFFFFFFFFFFFFFFFFFFFFFFFFFFFFFF AND EQ PUSH2 0xA24 JUMPI PUSH1 0x40 MLOAD PUSH32 0x8C379A000000000000000000000000000000000000000000000000000000000 DUP2 MSTORE PUSH1 0x4 ADD PUSH2 0xA1B SWAP1 PUSH2 0x3050 JUMP JUMPDEST PUSH1 0x40 MLOAD DUP1 SWAP2 SUB SWAP1 REVERT JUMPDEST PUSH1 0x1 PUSH1 0xF PUSH1 0x0 PUSH2 0x100 EXP DUP2 SLOAD DUP2 PUSH1 0xFF MUL NOT AND SWAP1 DUP4 ISZERO ISZERO MUL OR SWAP1 SSTORE POP JUMP JUMPDEST PUSH2 0xA49 PUSH2 0x22C2 JUMP JUMPDEST PUSH20 0xFFFFFFFFFFFFFFFFFFFFFFFFFFFFFFFFFFFFFFFF AND PUSH1 0x0 PUSH1 0x1 SWAP1 SLOAD SWAP1 PUSH2 0x100 EXP SWAP1 DIV PUSH20 0xFFFFFFFFFFFFFFFFFFFFFFFFFFFFFFFFFFFFFFFF AND PUSH20 0xFFFFFFFFFFFFFFFFFFFFFFFFFFFFFFFFFFFFFFFF AND EQ PUSH2 0xAD8 JUMPI PUSH1 0x40 MLOAD PUSH32 0x8C379A000000000000000000000000000000000000000000000000000000000 DUP2 MSTORE PUSH1 0x4 ADD PUSH2 0xACF SWAP1 PUSH2 0x3050 JUMP JUMPDEST PUSH1 0x40 MLOAD DUP1 SWAP2 SUB SWAP1 REVERT JUMPDEST DUP1 PUSH1 0xB DUP2 SWAP1 SSTORE POP POP JUMP JUMPDEST PUSH1 0x0 PUSH1 0x1 SWAP1 SLOAD SWAP1 PUSH2 0x100 EXP SWAP1 DIV PUSH20 0xFFFFFFFFFFFFFFFFFFFFFFFFFFFFFFFFFFFFFFFF AND PUSH20 0xFFFFFFFFFFFFFFFFFFFFFFFFFFFFFFFFFFFFFFFF AND CALLER PUSH20 0xFFFFFFFFFFFFFFFFFFFFFFFFFFFFFFFFFFFFFFFF AND SUB PUSH2 0xB72 JUMPI PUSH1 0x40 MLOAD PUSH32 0x8C379A000000000000000000000000000000000000000000000000000000000 DUP2 MSTORE PUSH1 0x4 ADD PUSH2 0xB69 SWAP1 PUSH2 0x31EE JUMP JUMPDEST PUSH1 0x40 MLOAD DUP1 SWAP2 SUB SWAP1 REVERT JUMPDEST PUSH1 0x0 DUP1 SLOAD SWAP1 PUSH2 0x100 EXP SWAP1 DIV PUSH1 0xFF AND ISZERO PUSH2 0xBC0 JUMPI PUSH1 0x40 MLOAD PUSH32 0x8C379A000000000000000000000000000000000000000000000000000000000 DUP2 MSTORE PUSH1 0x4 ADD PUSH2 0xBB7 SWAP1 PUSH2 0x325A JUMP JUMPDEST PUSH1 0x40 MLOAD DUP1 SWAP2 SUB SWAP1 REVERT JUMPDEST PUSH1 0x1 PUSH1 0x0 DUP1 PUSH2 0x100 EXP DUP2 SLOAD DUP2 PUSH1 0xFF MUL NOT AND SWAP1 DUP4 ISZERO ISZERO MUL OR SWAP1 SSTORE POP PUSH1 0xF PUSH1 0x0 SWAP1 SLOAD SWAP1 PUSH2 0x100 EXP SWAP1 DIV PUSH1 0xFF AND PUSH2 0xC29 JUMPI PUSH1 0x40 MLOAD PUSH32 0x8C379A000000000000000000000000000000000000000000000000000000000 DUP2 MSTORE PUSH1 0x4 ADD PUSH2 0xC20 SWAP1 PUSH2 0x32C6 JUMP JUMPDEST PUSH1 0x40 MLOAD DUP1 SWAP2 SUB SWAP1 REVERT JUMPDEST PUSH1 0xD SLOAD DUP2 EQ PUSH2 0xC6D JUMPI PUSH1 0x40 MLOAD PUSH32 0x8C379A000000000000000000000000000000000000000000000000000000000 DUP2 MSTORE PUSH1 0x4 ADD PUSH2 0xC64 SWAP1 PUSH2 0x3332 JUMP JUMPDEST PUSH1 0x40 MLOAD DUP1 SWAP2 SUB SWAP1 REVERT JUMPDEST PUSH1 0x0 PUSH1 0x14 PUSH1 0x0 SWAP1 SLOAD SWAP1 PUSH2 0x100 EXP SWAP1 DIV PUSH20 0xFFFFFFFFFFFFFFFFFFFFFFFFFFFFFFFFFFFFFFFF AND PUSH20 0xFFFFFFFFFFFFFFFFFFFFFFFFFFFFFFFFFFFFFFFF AND PUSH4 0x23B872DD CALLER ADDRESS DUP6 PUSH1 0x40 MLOAD DUP5 PUSH4 0xFFFFFFFF AND PUSH1 0xE0 SHL DUP2 MSTORE PUSH1 0x4 ADD PUSH2 0xCCE SWAP4 SWAP3 SWAP2 SWAP1 PUSH2 0x3352 JUMP JUMPDEST PUSH1 0x20 PUSH1 0x40 MLOAD DUP1 DUP4 SUB DUP2 PUSH1 0x0 DUP8 GAS CALL ISZERO DUP1 ISZERO PUSH2 0xCED JUMPI RETURNDATASIZE PUSH1 0x0 DUP1 RETURNDATACOPY RETURNDATASIZE PUSH1 0x0 REVERT JUMPDEST POP POP POP POP PUSH1 0x40 MLOAD RETURNDATASIZE PUSH1 0x1F NOT PUSH1 0x1F DUP3 ADD AND DUP3 ADD DUP1 PUSH1 0x40 MSTORE POP DUP2 ADD SWAP1 PUSH2 0xD11 SWAP2 SWAP1 PUSH2 0x33B5 JUMP JUMPDEST SWAP1 POP DUP1 ISZERO PUSH2 0xDCF JUMPI PUSH1 0xB SLOAD PUSH1 0xC SLOAD LT ISZERO PUSH2 0xDB9 JUMPI PUSH1 0xE CALLER SWAP1 DUP1 PUSH1 0x1 DUP2 SLOAD ADD DUP1 DUP3 SSTORE DUP1 SWAP2 POP POP PUSH1 0x1 SWAP1 SUB SWAP1 PUSH1 0x0 MSTORE PUSH1 0x20 PUSH1 0x0 KECCAK256 ADD PUSH1 0x0 SWAP1 SWAP2 SWAP1 SWAP2 SWAP1 SWAP2 PUSH2 0x100 EXP DUP2 SLOAD DUP2 PUSH20 0xFFFFFFFFFFFFFFFFFFFFFFFFFFFFFFFFFFFFFFFF MUL NOT AND SWAP1 DUP4 PUSH20 0xFFFFFFFFFFFFFFFFFFFFFFFFFFFFFFFFFFFFFFFF AND MUL OR SWAP1 SSTORE POP PUSH1 0xC PUSH1 0x0 DUP2 SLOAD DUP1 SWAP3 SWAP2 SWAP1 PUSH2 0xD9B SWAP1 PUSH2 0x3102 JUMP JUMPDEST SWAP2 SWAP1 POP SSTORE POP PUSH1 0xB SLOAD PUSH1 0xC SLOAD SUB PUSH2 0xDB4 JUMPI PUSH2 0xDB3 PUSH2 0x2584 JUMP JUMPDEST JUMPDEST PUSH2 0xDCE JUMP JUMPDEST PUSH1 0xB SLOAD PUSH1 0xC SLOAD SUB PUSH2 0xDCD JUMPI PUSH2 0xDCC PUSH2 0x2584 JUMP JUMPDEST JUMPDEST JUMPDEST JUMPDEST POP PUSH1 0x0 DUP1 PUSH1 0x0 PUSH2 0x100 EXP DUP2 SLOAD DUP2 PUSH1 0xFF MUL NOT AND SWAP1 DUP4 ISZERO ISZERO MUL OR SWAP1 SSTORE POP POP JUMP JUMPDEST PUSH2 0xDF5 PUSH2 0x22C2 JUMP JUMPDEST PUSH20 0xFFFFFFFFFFFFFFFFFFFFFFFFFFFFFFFFFFFFFFFF AND PUSH1 0x0 PUSH1 0x1 SWAP1 SLOAD SWAP1 PUSH2 0x100 EXP SWAP1 DIV PUSH20 0xFFFFFFFFFFFFFFFFFFFFFFFFFFFFFFFFFFFFFFFF AND PUSH20 0xFFFFFFFFFFFFFFFFFFFFFFFFFFFFFFFFFFFFFFFF AND EQ PUSH2 0xE84 JUMPI PUSH1 0x40 MLOAD PUSH32 0x8C379A000000000000000000000000000000000000000000000000000000000 DUP2 MSTORE PUSH1 0x4 ADD PUSH2 0xE7B SWAP1 PUSH2 0x3050 JUMP JUMPDEST PUSH1 0x40 MLOAD DUP1 SWAP2 SUB SWAP1 REVERT JUMPDEST DUP1 PUSH1 0x3 DUP2 SWAP1 SSTORE POP POP JUMP JUMPDEST PUSH2 0xE96 PUSH2 0x22C2 JUMP JUMPDEST PUSH20 0xFFFFFFFFFFFFFFFFFFFFFFFFFFFFFFFFFFFFFFFF AND PUSH1 0x0 PUSH1 0x1 SWAP1 SLOAD SWAP1 PUSH2 0x100 EXP SWAP1 DIV PUSH20 0xFFFFFFFFFFFFFFFFFFFFFFFFFFFFFFFFFFFFFFFF AND PUSH20 0xFFFFFFFFFFFFFFFFFFFFFFFFFFFFFFFFFFFFFFFF AND EQ PUSH2 0xF25 JUMPI PUSH1 0x40 MLOAD PUSH32 0x8C379A000000000000000000000000000000000000000000000000000000000 DUP2 MSTORE PUSH1 0x4 ADD PUSH2 0xF1C SWAP1 PUSH2 0x3050 JUMP JUMPDEST PUSH1 0x40 MLOAD DUP1 SWAP2 SUB SWAP1 REVERT JUMPDEST DUP1 PUSH1 0x7 DUP2 SWAP1 SSTORE POP POP JUMP JUMPDEST PUSH1 0x11 DUP2 DUP2 SLOAD DUP2 LT PUSH2 0xF3F JUMPI PUSH1 0x0 DUP1 REVERT JUMPDEST SWAP1 PUSH1 0x0 MSTORE PUSH1 0x20 PUSH1 0x0 KECCAK256 ADD PUSH1 0x0 SWAP2 POP SLOAD SWAP1 PUSH2 0x100 EXP SWAP1 DIV PUSH20 0xFFFFFFFFFFFFFFFFFFFFFFFFFFFFFFFFFFFFFFFF AND DUP2 JUMP JUMPDEST PUSH1 0x0 PUSH1 0x6 DUP1 SLOAD SWAP1 POP SWAP1 POP SWAP1 JUMP JUMPDEST PUSH1 0xF PUSH1 0x0 SWAP1 SLOAD SWAP1 PUSH2 0x100 EXP SWAP1 DIV PUSH1 0xFF AND DUP2 JUMP JUMPDEST PUSH1 0x0 DUP1 PUSH1 0x0 DUP1 PUSH1 0x0 SWAP1 POP PUSH1 0x0 DUP1 PUSH1 0x0 PUSH1 0x6 DUP1 SLOAD SWAP1 POP SWAP1 POP PUSH1 0x0 DUP2 EQ PUSH2 0x104D JUMPI PUSH1 0x0 JUMPDEST DUP2 DUP2 LT ISZERO PUSH2 0x104B JUMPI DUP9 PUSH20 0xFFFFFFFFFFFFFFFFFFFFFFFFFFFFFFFFFFFFFFFF AND PUSH1 0x6 DUP3 DUP2 SLOAD DUP2 LT PUSH2 0xFE3 JUMPI PUSH2 0xFE2 PUSH2 0x314A JUMP JUMPDEST JUMPDEST SWAP1 PUSH1 0x0 MSTORE PUSH1 0x20 PUSH1 0x0 KECCAK256 ADD PUSH1 0x0 SWAP1 SLOAD SWAP1 PUSH2 0x100 EXP SWAP1 DIV PUSH20 0xFFFFFFFFFFFFFFFFFFFFFFFFFFFFFFFFFFFFFFFF AND PUSH20 0xFFFFFFFFFFFFFFFFFFFFFFFFFFFFFFFFFFFFFFFF AND SUB PUSH2 0x1038 JUMPI DUP5 DUP1 PUSH2 0x1034 SWAP1 PUSH2 0x3102 JUMP JUMPDEST SWAP6 POP POP JUMPDEST DUP1 DUP1 PUSH2 0x1043 SWAP1 PUSH2 0x3102 JUMP JUMPDEST SWAP2 POP POP PUSH2 0xFB0 JUMP JUMPDEST POP JUMPDEST PUSH1 0x0 PUSH1 0xA DUP1 SLOAD SWAP1 POP SWAP1 POP PUSH1 0x0 DUP2 EQ PUSH2 0x10FF JUMPI PUSH1 0x0 JUMPDEST DUP2 DUP2 LT ISZERO PUSH2 0x10FD JUMPI DUP10 PUSH20 0xFFFFFFFFFFFFFFFFFFFFFFFFFFFFFFFFFFFFFFFF AND PUSH1 0xA DUP3 DUP2 SLOAD DUP2 LT PUSH2 0x1095 JUMPI PUSH2 0x1094 PUSH2 0x314A JUMP JUMPDEST JUMPDEST SWAP1 PUSH1 0x0 MSTORE PUSH1 0x20 PUSH1 0x0 KECCAK256 ADD PUSH1 0x0 SWAP1 SLOAD SWAP1 PUSH2 0x100 EXP SWAP1 DIV PUSH20 0xFFFFFFFFFFFFFFFFFFFFFFFFFFFFFFFFFFFFFFFF AND PUSH20 0xFFFFFFFFFFFFFFFFFFFFFFFFFFFFFFFFFFFFFFFF AND SUB PUSH2 0x10EA JUMPI DUP5 DUP1 PUSH2 0x10E6 SWAP1 PUSH2 0x3102 JUMP JUMPDEST SWAP6 POP POP JUMPDEST DUP1 DUP1 PUSH2 0x10F5 SWAP1 PUSH2 0x3102 JUMP JUMPDEST SWAP2 POP POP PUSH2 0x1062 JUMP JUMPDEST POP JUMPDEST PUSH1 0x0 PUSH1 0xE DUP1 SLOAD SWAP1 POP SWAP1 POP PUSH1 0x0 DUP2 EQ PUSH2 0x11B1 JUMPI PUSH1 0x0 JUMPDEST DUP2 DUP2 LT ISZERO PUSH2 0x11AF JUMPI DUP11 PUSH20 0xFFFFFFFFFFFFFFFFFFFFFFFFFFFFFFFFFFFFFFFF AND PUSH1 0x6 DUP3 DUP2 SLOAD DUP2 LT PUSH2 0x1147 JUMPI PUSH2 0x1146 PUSH2 0x314A JUMP JUMPDEST JUMPDEST SWAP1 PUSH1 0x0 MSTORE PUSH1 0x20 PUSH1 0x0 KECCAK256 ADD PUSH1 0x0 SWAP1 SLOAD SWAP1 PUSH2 0x100 EXP SWAP1 DIV PUSH20 0xFFFFFFFFFFFFFFFFFFFFFFFFFFFFFFFFFFFFFFFF AND PUSH20 0xFFFFFFFFFFFFFFFFFFFFFFFFFFFFFFFFFFFFFFFF AND SUB PUSH2 0x119C JUMPI DUP5 DUP1 PUSH2 0x1198 SWAP1 PUSH2 0x3102 JUMP JUMPDEST SWAP6 POP POP JUMPDEST DUP1 DUP1 PUSH2 0x11A7 SWAP1 PUSH2 0x3102 JUMP JUMPDEST SWAP2 POP POP PUSH2 0x1114 JUMP JUMPDEST POP JUMPDEST DUP6 DUP6 DUP6 SWAP9 POP SWAP9 POP SWAP9 POP POP POP POP POP POP POP SWAP2 SWAP4 SWAP1 SWAP3 POP JUMP JUMPDEST PUSH1 0x0 PUSH1 0x5 SLOAD SWAP1 POP SWAP1 JUMP JUMPDEST PUSH2 0x11D9 PUSH2 0x22C2 JUMP JUMPDEST PUSH20 0xFFFFFFFFFFFFFFFFFFFFFFFFFFFFFFFFFFFFFFFF AND PUSH1 0x0 PUSH1 0x1 SWAP1 SLOAD SWAP1 PUSH2 0x100 EXP SWAP1 DIV PUSH20 0xFFFFFFFFFFFFFFFFFFFFFFFFFFFFFFFFFFFFFFFF AND PUSH20 0xFFFFFFFFFFFFFFFFFFFFFFFFFFFFFFFFFFFFFFFF AND EQ PUSH2 0x1268 JUMPI PUSH1 0x40 MLOAD PUSH32 0x8C379A000000000000000000000000000000000000000000000000000000000 DUP2 MSTORE PUSH1 0x4 ADD PUSH2 0x125F SWAP1 PUSH2 0x3050 JUMP JUMPDEST PUSH1 0x40 MLOAD DUP1 SWAP2 SUB SWAP1 REVERT JUMPDEST PUSH1 0x0 PUSH20 0xFFFFFFFFFFFFFFFFFFFFFFFFFFFFFFFFFFFFFFFF AND PUSH1 0x0 PUSH1 0x1 SWAP1 SLOAD SWAP1 PUSH2 0x100 EXP SWAP1 DIV PUSH20 0xFFFFFFFFFFFFFFFFFFFFFFFFFFFFFFFFFFFFFFFF AND PUSH20 0xFFFFFFFFFFFFFFFFFFFFFFFFFFFFFFFFFFFFFFFF AND PUSH32 0x8BE0079C531659141344CD1FD0A4F28419497F9722A3DAAFE3B4186F6B6457E0 PUSH1 0x40 MLOAD PUSH1 0x40 MLOAD DUP1 SWAP2 SUB SWAP1 LOG3 PUSH1 0x0 DUP1 PUSH1 0x1 PUSH2 0x100 EXP DUP2 SLOAD DUP2 PUSH20 0xFFFFFFFFFFFFFFFFFFFFFFFFFFFFFFFFFFFFFFFF MUL NOT AND SWAP1 DUP4 PUSH20 0xFFFFFFFFFFFFFFFFFFFFFFFFFFFFFFFFFFFFFFFF AND MUL OR SWAP1 SSTORE POP JUMP JUMPDEST PUSH1 0x0 PUSH1 0x1 SWAP1 SLOAD SWAP1 PUSH2 0x100 EXP SWAP1 DIV PUSH20 0xFFFFFFFFFFFFFFFFFFFFFFFFFFFFFFFFFFFFFFFF AND PUSH20 0xFFFFFFFFFFFFFFFFFFFFFFFFFFFFFFFFFFFFFFFF AND CALLER PUSH20 0xFFFFFFFFFFFFFFFFFFFFFFFFFFFFFFFFFFFFFFFF AND SUB PUSH2 0x13B8 JUMPI PUSH1 0x40 MLOAD PUSH32 0x8C379A000000000000000000000000000000000000000000000000000000000 DUP2 MSTORE PUSH1 0x4 ADD PUSH2 0x13AF SWAP1 PUSH2 0x31EE JUMP JUMPDEST PUSH1 0x40 MLOAD DUP1 SWAP2 SUB SWAP1 REVERT JUMPDEST PUSH1 0x0 DUP1 SLOAD SWAP1 PUSH2 0x100 EXP SWAP1 DIV PUSH1 0xFF AND ISZERO PUSH2 0x1406 JUMPI PUSH1 0x40 MLOAD PUSH32 0x8C379A000000000000000000000000000000000000000000000000000000000 DUP2 MSTORE PUSH1 0x4 ADD PUSH2 0x13FD SWAP1 PUSH2 0x325A JUMP JUMPDEST PUSH1 0x40 MLOAD DUP1 SWAP2 SUB SWAP1 REVERT JUMPDEST PUSH1 0x1 PUSH1 0x0 DUP1 PUSH2 0x100 EXP DUP2 SLOAD DUP2 PUSH1 0xFF MUL NOT AND SWAP1 DUP4 ISZERO ISZERO MUL OR SWAP1 SSTORE POP PUSH1 0xF PUSH1 0x0 SWAP1 SLOAD SWAP1 PUSH2 0x100 EXP SWAP1 DIV PUSH1 0xFF AND PUSH2 0x146F JUMPI PUSH1 0x40 MLOAD PUSH32 0x8C379A000000000000000000000000000000000000000000000000000000000 DUP2 MSTORE PUSH1 0x4 ADD PUSH2 0x1466 SWAP1 PUSH2 0x32C6 JUMP JUMPDEST PUSH1 0x40 MLOAD DUP1 SWAP2 SUB SWAP1 REVERT JUMPDEST PUSH1 0x5 SLOAD DUP2 EQ PUSH2 0x14B3 JUMPI PUSH1 0x40 MLOAD PUSH32 0x8C379A000000000000000000000000000000000000000000000000000000000 DUP2 MSTORE PUSH1 0x4 ADD PUSH2 0x14AA SWAP1 PUSH2 0x342E JUMP JUMPDEST PUSH1 0x40 MLOAD DUP1 SWAP2 SUB SWAP1 REVERT JUMPDEST PUSH1 0x0 PUSH1 0x14 PUSH1 0x0 SWAP1 SLOAD SWAP1 PUSH2 0x100 EXP SWAP1 DIV PUSH20 0xFFFFFFFFFFFFFFFFFFFFFFFFFFFFFFFFFFFFFFFF AND PUSH20 0xFFFFFFFFFFFFFFFFFFFFFFFFFFFFFFFFFFFFFFFF AND PUSH4 0x23B872DD CALLER ADDRESS DUP6 PUSH1 0x40 MLOAD DUP5 PUSH4 0xFFFFFFFF AND PUSH1 0xE0 SHL DUP2 MSTORE PUSH1 0x4 ADD PUSH2 0x1514 SWAP4 SWAP3 SWAP2 SWAP1 PUSH2 0x3352 JUMP JUMPDEST PUSH1 0x20 PUSH1 0x40 MLOAD DUP1 DUP4 SUB DUP2 PUSH1 0x0 DUP8 GAS CALL ISZERO DUP1 ISZERO PUSH2 0x1533 JUMPI RETURNDATASIZE PUSH1 0x0 DUP1 RETURNDATACOPY RETURNDATASIZE PUSH1 0x0 REVERT JUMPDEST POP POP POP POP PUSH1 0x40 MLOAD RETURNDATASIZE PUSH1 0x1F NOT PUSH1 0x1F DUP3 ADD AND DUP3 ADD DUP1 PUSH1 0x40 MSTORE POP DUP2 ADD SWAP1 PUSH2 0x1557 SWAP2 SWAP1 PUSH2 0x33B5 JUMP JUMPDEST SWAP1 POP DUP1 ISZERO PUSH2 0x1615 JUMPI PUSH1 0x3 SLOAD PUSH1 0x4 SLOAD LT ISZERO PUSH2 0x15FF JUMPI PUSH1 0x6 CALLER SWAP1 DUP1 PUSH1 0x1 DUP2 SLOAD ADD DUP1 DUP3 SSTORE DUP1 SWAP2 POP POP PUSH1 0x1 SWAP1 SUB SWAP1 PUSH1 0x0 MSTORE PUSH1 0x20 PUSH1 0x0 KECCAK256 ADD PUSH1 0x0 SWAP1 SWAP2 SWAP1 SWAP2 SWAP1 SWAP2 PUSH2 0x100 EXP DUP2 SLOAD DUP2 PUSH20 0xFFFFFFFFFFFFFFFFFFFFFFFFFFFFFFFFFFFFFFFF MUL NOT AND SWAP1 DUP4 PUSH20 0xFFFFFFFFFFFFFFFFFFFFFFFFFFFFFFFFFFFFFFFF AND MUL OR SWAP1 SSTORE POP PUSH1 0x4 PUSH1 0x0 DUP2 SLOAD DUP1 SWAP3 SWAP2 SWAP1 PUSH2 0x15E1 SWAP1 PUSH2 0x3102 JUMP JUMPDEST SWAP2 SWAP1 POP SSTORE POP PUSH1 0x3 SLOAD PUSH1 0x4 SLOAD SUB PUSH2 0x15FA JUMPI PUSH2 0x15F9 PUSH2 0x283E JUMP JUMPDEST JUMPDEST PUSH2 0x1614 JUMP JUMPDEST PUSH1 0x3 SLOAD PUSH1 0x4 SLOAD SUB PUSH2 0x1613 JUMPI PUSH2 0x1612 PUSH2 0x283E JUMP JUMPDEST JUMPDEST JUMPDEST JUMPDEST POP PUSH1 0x0 DUP1 PUSH1 0x0 PUSH2 0x100 EXP DUP2 SLOAD DUP2 PUSH1 0xFF MUL NOT AND SWAP1 DUP4 ISZERO ISZERO MUL OR SWAP1 SSTORE POP POP JUMP JUMPDEST PUSH1 0x0 PUSH1 0xD SLOAD SWAP1 POP SWAP1 JUMP JUMPDEST PUSH1 0x12 DUP2 DUP2 SLOAD DUP2 LT PUSH2 0x164D JUMPI PUSH1 0x0 DUP1 REVERT JUMPDEST SWAP1 PUSH1 0x0 MSTORE PUSH1 0x20 PUSH1 0x0 KECCAK256 ADD PUSH1 0x0 SWAP2 POP SLOAD SWAP1 PUSH2 0x100 EXP SWAP1 DIV PUSH20 0xFFFFFFFFFFFFFFFFFFFFFFFFFFFFFFFFFFFFFFFF AND DUP2 JUMP JUMPDEST PUSH1 0x0 DUP1 PUSH1 0x1 SWAP1 SLOAD SWAP1 PUSH2 0x100 EXP SWAP1 DIV PUSH20 0xFFFFFFFFFFFFFFFFFFFFFFFFFFFFFFFFFFFFFFFF AND SWAP1 POP SWAP1 JUMP JUMPDEST PUSH1 0x13 PUSH1 0x0 SWAP1 SLOAD SWAP1 PUSH2 0x100 EXP SWAP1 DIV PUSH20 0xFFFFFFFFFFFFFFFFFFFFFFFFFFFFFFFFFFFFFFFF AND DUP2 JUMP JUMPDEST PUSH1 0x0 PUSH1 0x3 SLOAD SWAP1 POP SWAP1 JUMP JUMPDEST PUSH1 0x0 PUSH1 0xE DUP1 SLOAD SWAP1 POP SWAP1 POP SWAP1 JUMP JUMPDEST PUSH1 0x0 PUSH1 0x7 SLOAD SWAP1 POP SWAP1 JUMP JUMPDEST PUSH1 0x0 PUSH1 0xA DUP1 SLOAD SWAP1 POP SWAP1 POP SWAP1 JUMP JUMPDEST PUSH1 0x60 PUSH1 0x0 PUSH1 0x11 PUSH8 0xFFFFFFFFFFFFFFFF DUP2 GT ISZERO PUSH2 0x1718 JUMPI PUSH2 0x1717 PUSH2 0x3070 JUMP JUMPDEST JUMPDEST PUSH1 0x40 MLOAD SWAP1 DUP1 DUP3 MSTORE DUP1 PUSH1 0x20 MUL PUSH1 0x20 ADD DUP3 ADD PUSH1 0x40 MSTORE DUP1 ISZERO PUSH2 0x1746 JUMPI DUP2 PUSH1 0x20 ADD PUSH1 0x20 DUP3 MUL DUP1 CALLDATASIZE DUP4 CALLDATACOPY DUP1 DUP3 ADD SWAP2 POP POP SWAP1 POP JUMPDEST POP SWAP1 POP PUSH1 0x0 PUSH1 0x10 DUP1 SLOAD SWAP1 POP SWAP1 POP PUSH1 0x0 DUP3 MLOAD SWAP1 POP PUSH1 0x0 PUSH1 0xA DUP4 GT ISZERO PUSH2 0x1831 JUMPI PUSH1 0x0 DUP4 SWAP1 POP JUMPDEST PUSH1 0xA DUP5 PUSH2 0x1777 SWAP2 SWAP1 PUSH2 0x30CE JUMP JUMPDEST DUP2 GT ISZERO PUSH2 0x182B JUMPI DUP3 DUP1 PUSH2 0x1789 SWAP1 PUSH2 0x3102 JUMP JUMPDEST SWAP4 POP POP PUSH1 0x10 DUP2 DUP2 SLOAD DUP2 LT PUSH2 0x17A0 JUMPI PUSH2 0x179F PUSH2 0x314A JUMP JUMPDEST JUMPDEST SWAP1 PUSH1 0x0 MSTORE PUSH1 0x20 PUSH1 0x0 KECCAK256 ADD PUSH1 0x0 SWAP1 SLOAD SWAP1 PUSH2 0x100 EXP SWAP1 DIV PUSH20 0xFFFFFFFFFFFFFFFFFFFFFFFFFFFFFFFFFFFFFFFF AND DUP6 DUP5 DUP2 MLOAD DUP2 LT PUSH2 0x17DE JUMPI PUSH2 0x17DD PUSH2 0x314A JUMP JUMPDEST JUMPDEST PUSH1 0x20 MUL PUSH1 0x20 ADD ADD SWAP1 PUSH20 0xFFFFFFFFFFFFFFFFFFFFFFFFFFFFFFFFFFFFFFFF AND SWAP1 DUP2 PUSH20 0xFFFFFFFFFFFFFFFFFFFFFFFFFFFFFFFFFFFFFFFF AND DUP2 MSTORE POP POP DUP1 DUP1 PUSH2 0x1823 SWAP1 PUSH2 0x3179 JUMP JUMPDEST SWAP2 POP POP PUSH2 0x176A JUMP JUMPDEST POP PUSH2 0x190F JUMP JUMPDEST PUSH1 0x0 DUP4 SWAP1 POP JUMPDEST PUSH1 0x0 DUP2 GT ISZERO PUSH2 0x190D JUMPI DUP3 DUP1 PUSH2 0x184B SWAP1 PUSH2 0x3102 JUMP JUMPDEST SWAP4 POP POP PUSH1 0x0 PUSH1 0x10 PUSH1 0x1 DUP4 PUSH2 0x185F SWAP2 SWAP1 PUSH2 0x30CE JUMP JUMPDEST DUP2 SLOAD DUP2 LT PUSH2 0x1870 JUMPI PUSH2 0x186F PUSH2 0x314A JUMP JUMPDEST JUMPDEST SWAP1 PUSH1 0x0 MSTORE PUSH1 0x20 PUSH1 0x0 KECCAK256 ADD PUSH1 0x0 SWAP1 SLOAD SWAP1 PUSH2 0x100 EXP SWAP1 DIV PUSH20 0xFFFFFFFFFFFFFFFFFFFFFFFFFFFFFFFFFFFFFFFF AND SWAP1 POP DUP1 DUP7 DUP5 DUP2 MLOAD DUP2 LT PUSH2 0x18B1 JUMPI PUSH2 0x18B0 PUSH2 0x314A JUMP JUMPDEST JUMPDEST PUSH1 0x20 MUL PUSH1 0x20 ADD ADD SWAP1 PUSH20 0xFFFFFFFFFFFFFFFFFFFFFFFFFFFFFFFFFFFFFFFF AND SWAP1 DUP2 PUSH20 0xFFFFFFFFFFFFFFFFFFFFFFFFFFFFFFFFFFFFFFFF AND DUP2 MSTORE POP POP DUP3 DUP1 PUSH2 0x18F6 SWAP1 PUSH2 0x3102 JUMP JUMPDEST SWAP4 POP POP POP DUP1 DUP1 PUSH2 0x1905 SWAP1 PUSH2 0x3179 JUMP JUMPDEST SWAP2 POP POP PUSH2 0x1837 JUMP JUMPDEST POP JUMPDEST DUP4 SWAP5 POP POP POP POP POP SWAP1 JUMP JUMPDEST PUSH1 0x0 PUSH1 0x14 PUSH1 0x0 SWAP1 SLOAD SWAP1 PUSH2 0x100 EXP SWAP1 DIV PUSH20 0xFFFFFFFFFFFFFFFFFFFFFFFFFFFFFFFFFFFFFFFF AND PUSH20 0xFFFFFFFFFFFFFFFFFFFFFFFFFFFFFFFFFFFFFFFF AND PUSH4 0x70A08231 ADDRESS PUSH1 0x40 MLOAD DUP3 PUSH4 0xFFFFFFFF AND PUSH1 0xE0 SHL DUP2 MSTORE PUSH1 0x4 ADD PUSH2 0x1976 SWAP2 SWAP1 PUSH2 0x2E6E JUMP JUMPDEST PUSH1 0x20 PUSH1 0x40 MLOAD DUP1 DUP4 SUB DUP2 DUP7 GAS STATICCALL ISZERO DUP1 ISZERO PUSH2 0x1993 JUMPI RETURNDATASIZE PUSH1 0x0 DUP1 RETURNDATACOPY RETURNDATASIZE PUSH1 0x0 REVERT JUMPDEST POP POP POP POP PUSH1 0x40 MLOAD RETURNDATASIZE PUSH1 0x1F NOT PUSH1 0x1F DUP3 ADD AND DUP3 ADD DUP1 PUSH1 0x40 MSTORE POP DUP2 ADD SWAP1 PUSH2 0x19B7 SWAP2 SWAP1 PUSH2 0x3463 JUMP JUMPDEST SWAP1 POP SWAP1 JUMP JUMPDEST PUSH1 0x14 PUSH1 0x0 SWAP1 SLOAD SWAP1 PUSH2 0x100 EXP SWAP1 DIV PUSH20 0xFFFFFFFFFFFFFFFFFFFFFFFFFFFFFFFFFFFFFFFF AND DUP2 JUMP JUMPDEST PUSH2 0x19EA PUSH2 0x22C2 JUMP JUMPDEST PUSH20 0xFFFFFFFFFFFFFFFFFFFFFFFFFFFFFFFFFFFFFFFF AND PUSH1 0x0 PUSH1 0x1 SWAP1 SLOAD SWAP1 PUSH2 0x100 EXP SWAP1 DIV PUSH20 0xFFFFFFFFFFFFFFFFFFFFFFFFFFFFFFFFFFFFFFFF AND PUSH20 0xFFFFFFFFFFFFFFFFFFFFFFFFFFFFFFFFFFFFFFFF AND EQ PUSH2 0x1A79 JUMPI PUSH1 0x40 MLOAD PUSH32 0x8C379A000000000000000000000000000000000000000000000000000000000 DUP2 MSTORE PUSH1 0x4 ADD PUSH2 0x1A70 SWAP1 PUSH2 0x3050 JUMP JUMPDEST PUSH1 0x40 MLOAD DUP1 SWAP2 SUB SWAP1 REVERT JUMPDEST PUSH2 0x1A81 PUSH2 0x2584 JUMP JUMPDEST JUMP JUMPDEST PUSH1 0x0 PUSH1 0x1 SWAP1 SLOAD SWAP1 PUSH2 0x100 EXP SWAP1 DIV PUSH20 0xFFFFFFFFFFFFFFFFFFFFFFFFFFFFFFFFFFFFFFFF AND PUSH20 0xFFFFFFFFFFFFFFFFFFFFFFFFFFFFFFFFFFFFFFFF AND CALLER PUSH20 0xFFFFFFFFFFFFFFFFFFFFFFFFFFFFFFFFFFFFFFFF AND SUB PUSH2 0x1B13 JUMPI PUSH1 0x40 MLOAD PUSH32 0x8C379A000000000000000000000000000000000000000000000000000000000 DUP2 MSTORE PUSH1 0x4 ADD PUSH2 0x1B0A SWAP1 PUSH2 0x31EE JUMP JUMPDEST PUSH1 0x40 MLOAD DUP1 SWAP2 SUB SWAP1 REVERT JUMPDEST PUSH1 0x0 DUP1 SLOAD SWAP1 PUSH2 0x100 EXP SWAP1 DIV PUSH1 0xFF AND ISZERO PUSH2 0x1B61 JUMPI PUSH1 0x40 MLOAD PUSH32 0x8C379A000000000000000000000000000000000000000000000000000000000 DUP2 MSTORE PUSH1 0x4 ADD PUSH2 0x1B58 SWAP1 PUSH2 0x325A JUMP JUMPDEST PUSH1 0x40 MLOAD DUP1 SWAP2 SUB SWAP1 REVERT JUMPDEST PUSH1 0x1 PUSH1 0x0 DUP1 PUSH2 0x100 EXP DUP2 SLOAD DUP2 PUSH1 0xFF MUL NOT AND SWAP1 DUP4 ISZERO ISZERO MUL OR SWAP1 SSTORE POP PUSH1 0xF PUSH1 0x0 SWAP1 SLOAD SWAP1 PUSH2 0x100 EXP SWAP1 DIV PUSH1 0xFF AND PUSH2 0x1BCA JUMPI PUSH1 0x40 MLOAD PUSH32 0x8C379A000000000000000000000000000000000000000000000000000000000 DUP2 MSTORE PUSH1 0x4 ADD PUSH2 0x1BC1 SWAP1 PUSH2 0x32C6 JUMP JUMPDEST PUSH1 0x40 MLOAD DUP1 SWAP2 SUB SWAP1 REVERT JUMPDEST PUSH32 0xA3DE883741AEFA0083D54DE95483572AD5EAA074B33A0AE8DC98725D52CF8143 DUP2 PUSH1 0x9 SLOAD PUSH1 0x40 MLOAD PUSH2 0x1BFD SWAP3 SWAP2 SWAP1 PUSH2 0x3490 JUMP JUMPDEST PUSH1 0x40 MLOAD DUP1 SWAP2 SUB SWAP1 LOG1 PUSH1 0x9 SLOAD DUP2 EQ PUSH2 0x1C49 JUMPI PUSH1 0x40 MLOAD PUSH32 0x8C379A000000000000000000000000000000000000000000000000000000000 DUP2 MSTORE PUSH1 0x4 ADD PUSH2 0x1C40 SWAP1 PUSH2 0x342E JUMP JUMPDEST PUSH1 0x40 MLOAD DUP1 SWAP2 SUB SWAP1 REVERT JUMPDEST PUSH1 0x0 PUSH1 0x14 PUSH1 0x0 SWAP1 SLOAD SWAP1 PUSH2 0x100 EXP SWAP1 DIV PUSH20 0xFFFFFFFFFFFFFFFFFFFFFFFFFFFFFFFFFFFFFFFF AND PUSH20 0xFFFFFFFFFFFFFFFFFFFFFFFFFFFFFFFFFFFFFFFF AND PUSH4 0x23B872DD CALLER ADDRESS DUP6 PUSH1 0x40 MLOAD DUP5 PUSH4 0xFFFFFFFF AND PUSH1 0xE0 SHL DUP2 MSTORE PUSH1 0x4 ADD PUSH2 0x1CAA SWAP4 SWAP3 SWAP2 SWAP1 PUSH2 0x3352 JUMP JUMPDEST PUSH1 0x20 PUSH1 0x40 MLOAD DUP1 DUP4 SUB DUP2 PUSH1 0x0 DUP8 GAS CALL ISZERO DUP1 ISZERO PUSH2 0x1CC9 JUMPI RETURNDATASIZE PUSH1 0x0 DUP1 RETURNDATACOPY RETURNDATASIZE PUSH1 0x0 REVERT JUMPDEST POP POP POP POP PUSH1 0x40 MLOAD RETURNDATASIZE PUSH1 0x1F NOT PUSH1 0x1F DUP3 ADD AND DUP3 ADD DUP1 PUSH1 0x40 MSTORE POP DUP2 ADD SWAP1 PUSH2 0x1CED SWAP2 SWAP1 PUSH2 0x33B5 JUMP JUMPDEST SWAP1 POP DUP1 ISZERO PUSH2 0x1DAB JUMPI PUSH1 0x7 SLOAD PUSH1 0x8 SLOAD LT ISZERO PUSH2 0x1D95 JUMPI PUSH1 0xA CALLER SWAP1 DUP1 PUSH1 0x1 DUP2 SLOAD ADD DUP1 DUP3 SSTORE DUP1 SWAP2 POP POP PUSH1 0x1 SWAP1 SUB SWAP1 PUSH1 0x0 MSTORE PUSH1 0x20 PUSH1 0x0 KECCAK256 ADD PUSH1 0x0 SWAP1 SWAP2 SWAP1 SWAP2 SWAP1 SWAP2 PUSH2 0x100 EXP DUP2 SLOAD DUP2 PUSH20 0xFFFFFFFFFFFFFFFFFFFFFFFFFFFFFFFFFFFFFFFF MUL NOT AND SWAP1 DUP4 PUSH20 0xFFFFFFFFFFFFFFFFFFFFFFFFFFFFFFFFFFFFFFFF AND MUL OR SWAP1 SSTORE POP PUSH1 0x8 PUSH1 0x0 DUP2 SLOAD DUP1 SWAP3 SWAP2 SWAP1 PUSH2 0x1D77 SWAP1 PUSH2 0x3102 JUMP JUMPDEST SWAP2 SWAP1 POP SSTORE POP PUSH1 0x7 SLOAD PUSH1 0x8 SLOAD SUB PUSH2 0x1D90 JUMPI PUSH2 0x1D8F PUSH2 0x22CA JUMP JUMPDEST JUMPDEST PUSH2 0x1DAA JUMP JUMPDEST PUSH1 0x7 SLOAD PUSH1 0x8 SLOAD SUB PUSH2 0x1DA9 JUMPI PUSH2 0x1DA8 PUSH2 0x22CA JUMP JUMPDEST JUMPDEST JUMPDEST JUMPDEST POP PUSH1 0x0 DUP1 PUSH1 0x0 PUSH2 0x100 EXP DUP2 SLOAD DUP2 PUSH1 0xFF MUL NOT AND SWAP1 DUP4 ISZERO ISZERO MUL OR SWAP1 SSTORE POP POP JUMP JUMPDEST PUSH1 0x60 PUSH1 0x0 PUSH1 0x11 PUSH8 0xFFFFFFFFFFFFFFFF DUP2 GT ISZERO PUSH2 0x1DE8 JUMPI PUSH2 0x1DE7 PUSH2 0x3070 JUMP JUMPDEST JUMPDEST PUSH1 0x40 MLOAD SWAP1 DUP1 DUP3 MSTORE DUP1 PUSH1 0x20 MUL PUSH1 0x20 ADD DUP3 ADD PUSH1 0x40 MSTORE DUP1 ISZERO PUSH2 0x1E16 JUMPI DUP2 PUSH1 0x20 ADD PUSH1 0x20 DUP3 MUL DUP1 CALLDATASIZE DUP4 CALLDATACOPY DUP1 DUP3 ADD SWAP2 POP POP SWAP1 POP JUMPDEST POP SWAP1 POP PUSH1 0x0 PUSH1 0x11 DUP1 SLOAD SWAP1 POP SWAP1 POP PUSH1 0x0 DUP3 MLOAD SWAP1 POP PUSH1 0x0 PUSH1 0xA DUP4 GT ISZERO PUSH2 0x1F01 JUMPI PUSH1 0x0 DUP4 SWAP1 POP JUMPDEST PUSH1 0xA DUP5 PUSH2 0x1E47 SWAP2 SWAP1 PUSH2 0x30CE JUMP JUMPDEST DUP2 GT ISZERO PUSH2 0x1EFB JUMPI DUP3 DUP1 PUSH2 0x1E59 SWAP1 PUSH2 0x3102 JUMP JUMPDEST SWAP4 POP POP PUSH1 0x11 DUP2 DUP2 SLOAD DUP2 LT PUSH2 0x1E70 JUMPI PUSH2 0x1E6F PUSH2 0x314A JUMP JUMPDEST JUMPDEST SWAP1 PUSH1 0x0 MSTORE PUSH1 0x20 PUSH1 0x0 KECCAK256 ADD PUSH1 0x0 SWAP1 SLOAD SWAP1 PUSH2 0x100 EXP SWAP1 DIV PUSH20 0xFFFFFFFFFFFFFFFFFFFFFFFFFFFFFFFFFFFFFFFF AND DUP6 DUP5 DUP2 MLOAD DUP2 LT PUSH2 0x1EAE JUMPI PUSH2 0x1EAD PUSH2 0x314A JUMP JUMPDEST JUMPDEST PUSH1 0x20 MUL PUSH1 0x20 ADD ADD SWAP1 PUSH20 0xFFFFFFFFFFFFFFFFFFFFFFFFFFFFFFFFFFFFFFFF AND SWAP1 DUP2 PUSH20 0xFFFFFFFFFFFFFFFFFFFFFFFFFFFFFFFFFFFFFFFF AND DUP2 MSTORE POP POP DUP1 DUP1 PUSH2 0x1EF3 SWAP1 PUSH2 0x3179 JUMP JUMPDEST SWAP2 POP POP PUSH2 0x1E3A JUMP JUMPDEST POP PUSH2 0x1FDF JUMP JUMPDEST PUSH1 0x0 DUP4 SWAP1 POP JUMPDEST PUSH1 0x0 DUP2 GT ISZERO PUSH2 0x1FDD JUMPI DUP3 DUP1 PUSH2 0x1F1B SWAP1 PUSH2 0x3102 JUMP JUMPDEST SWAP4 POP POP PUSH1 0x0 PUSH1 0x11 PUSH1 0x1 DUP4 PUSH2 0x1F2F SWAP2 SWAP1 PUSH2 0x30CE JUMP JUMPDEST DUP2 SLOAD DUP2 LT PUSH2 0x1F40 JUMPI PUSH2 0x1F3F PUSH2 0x314A JUMP JUMPDEST JUMPDEST SWAP1 PUSH1 0x0 MSTORE PUSH1 0x20 PUSH1 0x0 KECCAK256 ADD PUSH1 0x0 SWAP1 SLOAD SWAP1 PUSH2 0x100 EXP SWAP1 DIV PUSH20 0xFFFFFFFFFFFFFFFFFFFFFFFFFFFFFFFFFFFFFFFF AND SWAP1 POP DUP1 DUP7 DUP5 DUP2 MLOAD DUP2 LT PUSH2 0x1F81 JUMPI PUSH2 0x1F80 PUSH2 0x314A JUMP JUMPDEST JUMPDEST PUSH1 0x20 MUL PUSH1 0x20 ADD ADD SWAP1 PUSH20 0xFFFFFFFFFFFFFFFFFFFFFFFFFFFFFFFFFFFFFFFF AND SWAP1 DUP2 PUSH20 0xFFFFFFFFFFFFFFFFFFFFFFFFFFFFFFFFFFFFFFFF AND DUP2 MSTORE POP POP DUP3 DUP1 PUSH2 0x1FC6 SWAP1 PUSH2 0x3102 JUMP JUMPDEST SWAP4 POP POP POP DUP1 DUP1 PUSH2 0x1FD5 SWAP1 PUSH2 0x3179 JUMP JUMPDEST SWAP2 POP POP PUSH2 0x1F07 JUMP JUMPDEST POP JUMPDEST DUP4 SWAP5 POP POP POP POP POP SWAP1 JUMP JUMPDEST PUSH1 0x0 PUSH1 0xB SLOAD SWAP1 POP SWAP1 JUMP JUMPDEST PUSH2 0x1FFB PUSH2 0x22C2 JUMP JUMPDEST PUSH20 0xFFFFFFFFFFFFFFFFFFFFFFFFFFFFFFFFFFFFFFFF AND PUSH1 0x0 PUSH1 0x1 SWAP1 SLOAD SWAP1 PUSH2 0x100 EXP SWAP1 DIV PUSH20 0xFFFFFFFFFFFFFFFFFFFFFFFFFFFFFFFFFFFFFFFF AND PUSH20 0xFFFFFFFFFFFFFFFFFFFFFFFFFFFFFFFFFFFFFFFF AND EQ PUSH2 0x208A JUMPI PUSH1 0x40 MLOAD PUSH32 0x8C379A000000000000000000000000000000000000000000000000000000000 DUP2 MSTORE PUSH1 0x4 ADD PUSH2 0x2081 SWAP1 PUSH2 0x3050 JUMP JUMPDEST PUSH1 0x40 MLOAD DUP1 SWAP2 SUB SWAP1 REVERT JUMPDEST DUP1 PUSH1 0x9 DUP2 SWAP1 SSTORE POP POP JUMP JUMPDEST PUSH1 0x0 PUSH1 0x9 SLOAD SWAP1 POP SWAP1 JUMP JUMPDEST PUSH2 0x20A6 PUSH2 0x22C2 JUMP JUMPDEST PUSH20 0xFFFFFFFFFFFFFFFFFFFFFFFFFFFFFFFFFFFFFFFF AND PUSH1 0x0 PUSH1 0x1 SWAP1 SLOAD SWAP1 PUSH2 0x100 EXP SWAP1 DIV PUSH20 0xFFFFFFFFFFFFFFFFFFFFFFFFFFFFFFFFFFFFFFFF AND PUSH20 0xFFFFFFFFFFFFFFFFFFFFFFFFFFFFFFFFFFFFFFFF AND EQ PUSH2 0x2135 JUMPI PUSH1 0x40 MLOAD PUSH32 0x8C379A000000000000000000000000000000000000000000000000000000000 DUP2 MSTORE PUSH1 0x4 ADD PUSH2 0x212C SWAP1 PUSH2 0x3050 JUMP JUMPDEST PUSH1 0x40 MLOAD DUP1 SWAP2 SUB SWAP1 REVERT JUMPDEST DUP1 PUSH1 0xD DUP2 SWAP1 SSTORE POP POP JUMP JUMPDEST PUSH1 0x10 DUP2 DUP2 SLOAD DUP2 LT PUSH2 0x214F JUMPI PUSH1 0x0 DUP1 REVERT JUMPDEST SWAP1 PUSH1 0x0 MSTORE PUSH1 0x20 PUSH1 0x0 KECCAK256 ADD PUSH1 0x0 SWAP2 POP SLOAD SWAP1 PUSH2 0x100 EXP SWAP1 DIV PUSH20 0xFFFFFFFFFFFFFFFFFFFFFFFFFFFFFFFFFFFFFFFF AND DUP2 JUMP JUMPDEST PUSH2 0x2186 PUSH2 0x22C2 JUMP JUMPDEST PUSH20 0xFFFFFFFFFFFFFFFFFFFFFFFFFFFFFFFFFFFFFFFF AND PUSH1 0x0 PUSH1 0x1 SWAP1 SLOAD SWAP1 PUSH2 0x100 EXP SWAP1 DIV PUSH20 0xFFFFFFFFFFFFFFFFFFFFFFFFFFFFFFFFFFFFFFFF AND PUSH20 0xFFFFFFFFFFFFFFFFFFFFFFFFFFFFFFFFFFFFFFFF AND EQ PUSH2 0x2215 JUMPI PUSH1 0x40 MLOAD PUSH32 0x8C379A000000000000000000000000000000000000000000000000000000000 DUP2 MSTORE PUSH1 0x4 ADD PUSH2 0x220C SWAP1 PUSH2 0x3050 JUMP JUMPDEST PUSH1 0x40 MLOAD DUP1 SWAP2 SUB SWAP1 REVERT JUMPDEST PUSH2 0x221E DUP2 PUSH2 0x2AFE JUMP JUMPDEST POP JUMP JUMPDEST PUSH2 0x2229 PUSH2 0x22C2 JUMP JUMPDEST PUSH20 0xFFFFFFFFFFFFFFFFFFFFFFFFFFFFFFFFFFFFFFFF AND PUSH1 0x0 PUSH1 0x1 SWAP1 SLOAD SWAP1 PUSH2 0x100 EXP SWAP1 DIV PUSH20 0xFFFFFFFFFFFFFFFFFFFFFFFFFFFFFFFFFFFFFFFF AND PUSH20 0xFFFFFFFFFFFFFFFFFFFFFFFFFFFFFFFFFFFFFFFF AND EQ PUSH2 0x22B8 JUMPI PUSH1 0x40 MLOAD PUSH32 0x8C379A000000000000000000000000000000000000000000000000000000000 DUP2 MSTORE PUSH1 0x4 ADD PUSH2 0x22AF SWAP1 PUSH2 0x3050 JUMP JUMPDEST PUSH1 0x40 MLOAD DUP1 SWAP2 SUB SWAP1 REVERT JUMPDEST PUSH2 0x22C0 PUSH2 0x283E JUMP JUMPDEST JUMP JUMPDEST PUSH1 0x0 CALLER SWAP1 POP SWAP1 JUMP JUMPDEST PUSH1 0x0 PUSH1 0xA DUP1 SLOAD SWAP1 POP PUSH2 0x22DA PUSH2 0x2C2D JUMP JUMPDEST PUSH2 0x22E4 SWAP2 SWAP1 PUSH2 0x34E8 JUMP JUMPDEST SWAP1 POP PUSH1 0x0 PUSH1 0xA DUP1 SLOAD SWAP1 POP PUSH1 0x9 SLOAD PUSH2 0x22FB SWAP2 SWAP1 PUSH2 0x3519 JUMP JUMPDEST SWAP1 POP PUSH1 0x0 PUSH2 0x2315 PUSH2 0x230E DUP4 PUSH1 0x2 SLOAD PUSH2 0x2C65 JUMP JUMPDEST PUSH1 0x64 PUSH2 0x2C7B JUMP JUMPDEST SWAP1 POP PUSH1 0x14 PUSH1 0x0 SWAP1 SLOAD SWAP1 PUSH2 0x100 EXP SWAP1 DIV PUSH20 0xFFFFFFFFFFFFFFFFFFFFFFFFFFFFFFFFFFFFFFFF AND PUSH20 0xFFFFFFFFFFFFFFFFFFFFFFFFFFFFFFFFFFFFFFFF AND PUSH4 0xA9059CBB PUSH1 0x1 PUSH1 0x0 SWAP1 SLOAD SWAP1 PUSH2 0x100 EXP SWAP1 DIV PUSH20 0xFFFFFFFFFFFFFFFFFFFFFFFFFFFFFFFFFFFFFFFF AND DUP4 PUSH1 0x40 MLOAD DUP4 PUSH4 0xFFFFFFFF AND PUSH1 0xE0 SHL DUP2 MSTORE PUSH1 0x4 ADD PUSH2 0x2396 SWAP3 SWAP2 SWAP1 PUSH2 0x3573 JUMP JUMPDEST PUSH1 0x20 PUSH1 0x40 MLOAD DUP1 DUP4 SUB DUP2 PUSH1 0x0 DUP8 GAS CALL ISZERO DUP1 ISZERO PUSH2 0x23B5 JUMPI RETURNDATASIZE PUSH1 0x0 DUP1 RETURNDATACOPY RETURNDATASIZE PUSH1 0x0 REVERT JUMPDEST POP POP POP POP PUSH1 0x40 MLOAD RETURNDATASIZE PUSH1 0x1F NOT PUSH1 0x1F DUP3 ADD AND DUP3 ADD DUP1 PUSH1 0x40 MSTORE POP DUP2 ADD SWAP1 PUSH2 0x23D9 SWAP2 SWAP1 PUSH2 0x33B5 JUMP JUMPDEST POP PUSH1 0x0 PUSH2 0x23E6 DUP4 DUP4 PUSH2 0x2C91 JUMP JUMPDEST SWAP1 POP PUSH1 0x14 PUSH1 0x0 SWAP1 SLOAD SWAP1 PUSH2 0x100 EXP SWAP1 DIV PUSH20 0xFFFFFFFFFFFFFFFFFFFFFFFFFFFFFFFFFFFFFFFF AND PUSH20 0xFFFFFFFFFFFFFFFFFFFFFFFFFFFFFFFFFFFFFFFF AND PUSH4 0xA9059CBB PUSH1 0xA DUP7 DUP2 SLOAD DUP2 LT PUSH2 0x243A JUMPI PUSH2 0x2439 PUSH2 0x314A JUMP JUMPDEST JUMPDEST SWAP1 PUSH1 0x0 MSTORE PUSH1 0x20 PUSH1 0x0 KECCAK256 ADD PUSH1 0x0 SWAP1 SLOAD SWAP1 PUSH2 0x100 EXP SWAP1 DIV PUSH20 0xFFFFFFFFFFFFFFFFFFFFFFFFFFFFFFFFFFFFFFFF AND DUP4 PUSH1 0x40 MLOAD DUP4 PUSH4 0xFFFFFFFF AND PUSH1 0xE0 SHL DUP2 MSTORE PUSH1 0x4 ADD PUSH2 0x2483 SWAP3 SWAP2 SWAP1 PUSH2 0x35BD JUMP JUMPDEST PUSH1 0x20 PUSH1 0x40 MLOAD DUP1 DUP4 SUB DUP2 PUSH1 0x0 DUP8 GAS CALL ISZERO DUP1 ISZERO PUSH2 0x24A2 JUMPI RETURNDATASIZE PUSH1 0x0 DUP1 RETURNDATACOPY RETURNDATASIZE PUSH1 0x0 REVERT JUMPDEST POP POP POP POP PUSH1 0x40 MLOAD RETURNDATASIZE PUSH1 0x1F NOT PUSH1 0x1F DUP3 ADD AND DUP3 ADD DUP1 PUSH1 0x40 MSTORE POP DUP2 ADD SWAP1 PUSH2 0x24C6 SWAP2 SWAP1 PUSH2 0x33B5 JUMP JUMPDEST POP PUSH1 0x11 PUSH1 0xA DUP6 DUP2 SLOAD DUP2 LT PUSH2 0x24DD JUMPI PUSH2 0x24DC PUSH2 0x314A JUMP JUMPDEST JUMPDEST SWAP1 PUSH1 0x0 MSTORE PUSH1 0x20 PUSH1 0x0 KECCAK256 ADD PUSH1 0x0 SWAP1 SLOAD SWAP1 PUSH2 0x100 EXP SWAP1 DIV PUSH20 0xFFFFFFFFFFFFFFFFFFFFFFFFFFFFFFFFFFFFFFFF AND SWAP1 DUP1 PUSH1 0x1 DUP2 SLOAD ADD DUP1 DUP3 SSTORE DUP1 SWAP2 POP POP PUSH1 0x1 SWAP1 SUB SWAP1 PUSH1 0x0 MSTORE PUSH1 0x20 PUSH1 0x0 KECCAK256 ADD PUSH1 0x0 SWAP1 SWAP2 SWAP1 SWAP2 SWAP1 SWAP2 PUSH2 0x100 EXP DUP2 SLOAD DUP2 PUSH20 0xFFFFFFFFFFFFFFFFFFFFFFFFFFFFFFFFFFFFFFFF MUL NOT AND SWAP1 DUP4 PUSH20 0xFFFFFFFFFFFFFFFFFFFFFFFFFFFFFFFFFFFFFFFF AND MUL OR SWAP1 SSTORE POP PUSH1 0xA PUSH1 0x0 PUSH2 0x2576 SWAP2 SWAP1 PUSH2 0x2CA7 JUMP JUMPDEST PUSH1 0x0 PUSH1 0x8 DUP2 SWAP1 SSTORE POP POP POP POP POP JUMP JUMPDEST PUSH1 0x0 PUSH1 0xE DUP1 SLOAD SWAP1 POP PUSH2 0x2594 PUSH2 0x2C2D JUMP JUMPDEST PUSH2 0x259E SWAP2 SWAP1 PUSH2 0x34E8 JUMP JUMPDEST SWAP1 POP PUSH1 0x0 PUSH1 0xE DUP1 SLOAD SWAP1 POP PUSH1 0xD SLOAD PUSH2 0x25B5 SWAP2 SWAP1 PUSH2 0x3519 JUMP JUMPDEST SWAP1 POP PUSH1 0x0 PUSH2 0x25CF PUSH2 0x25C8 DUP4 PUSH1 0x2 SLOAD PUSH2 0x2C65 JUMP JUMPDEST PUSH1 0x64 PUSH2 0x2C7B JUMP JUMPDEST SWAP1 POP PUSH1 0x14 PUSH1 0x0 SWAP1 SLOAD SWAP1 PUSH2 0x100 EXP SWAP1 DIV PUSH20 0xFFFFFFFFFFFFFFFFFFFFFFFFFFFFFFFFFFFFFFFF AND PUSH20 0xFFFFFFFFFFFFFFFFFFFFFFFFFFFFFFFFFFFFFFFF AND PUSH4 0xA9059CBB PUSH1 0x1 PUSH1 0x0 SWAP1 SLOAD SWAP1 PUSH2 0x100 EXP SWAP1 DIV PUSH20 0xFFFFFFFFFFFFFFFFFFFFFFFFFFFFFFFFFFFFFFFF AND DUP4 PUSH1 0x40 MLOAD DUP4 PUSH4 0xFFFFFFFF AND PUSH1 0xE0 SHL DUP2 MSTORE PUSH1 0x4 ADD PUSH2 0x2650 SWAP3 SWAP2 SWAP1 PUSH2 0x3573 JUMP JUMPDEST PUSH1 0x20 PUSH1 0x40 MLOAD DUP1 DUP4 SUB DUP2 PUSH1 0x0 DUP8 GAS CALL ISZERO DUP1 ISZERO PUSH2 0x266F JUMPI RETURNDATASIZE PUSH1 0x0 DUP1 RETURNDATACOPY RETURNDATASIZE PUSH1 0x0 REVERT JUMPDEST POP POP POP POP PUSH1 0x40 MLOAD RETURNDATASIZE PUSH1 0x1F NOT PUSH1 0x1F DUP3 ADD AND DUP3 ADD DUP1 PUSH1 0x40 MSTORE POP DUP2 ADD SWAP1 PUSH2 0x2693 SWAP2 SWAP1 PUSH2 0x33B5 JUMP JUMPDEST POP PUSH1 0x0 PUSH2 0x26A0 DUP4 DUP4 PUSH2 0x2C91 JUMP JUMPDEST SWAP1 POP PUSH1 0x14 PUSH1 0x0 SWAP1 SLOAD SWAP1 PUSH2 0x100 EXP SWAP1 DIV PUSH20 0xFFFFFFFFFFFFFFFFFFFFFFFFFFFFFFFFFFFFFFFF AND PUSH20 0xFFFFFFFFFFFFFFFFFFFFFFFFFFFFFFFFFFFFFFFF AND PUSH4 0xA9059CBB PUSH1 0xE DUP7 DUP2 SLOAD DUP2 LT PUSH2 0x26F4 JUMPI PUSH2 0x26F3 PUSH2 0x314A JUMP JUMPDEST JUMPDEST SWAP1 PUSH1 0x0 MSTORE PUSH1 0x20 PUSH1 0x0 KECCAK256 ADD PUSH1 0x0 SWAP1 SLOAD SWAP1 PUSH2 0x100 EXP SWAP1 DIV PUSH20 0xFFFFFFFFFFFFFFFFFFFFFFFFFFFFFFFFFFFFFFFF AND DUP4 PUSH1 0x40 MLOAD DUP4 PUSH4 0xFFFFFFFF AND PUSH1 0xE0 SHL DUP2 MSTORE PUSH1 0x4 ADD PUSH2 0x273D SWAP3 SWAP2 SWAP1 PUSH2 0x35BD JUMP JUMPDEST PUSH1 0x20 PUSH1 0x40 MLOAD DUP1 DUP4 SUB DUP2 PUSH1 0x0 DUP8 GAS CALL ISZERO DUP1 ISZERO PUSH2 0x275C JUMPI RETURNDATASIZE PUSH1 0x0 DUP1 RETURNDATACOPY RETURNDATASIZE PUSH1 0x0 REVERT JUMPDEST POP POP POP POP PUSH1 0x40 MLOAD RETURNDATASIZE PUSH1 0x1F NOT PUSH1 0x1F DUP3 ADD AND DUP3 ADD DUP1 PUSH1 0x40 MSTORE POP DUP2 ADD SWAP1 PUSH2 0x2780 SWAP2 SWAP1 PUSH2 0x33B5 JUMP JUMPDEST POP PUSH1 0x12 PUSH1 0xE DUP6 DUP2 SLOAD DUP2 LT PUSH2 0x2797 JUMPI PUSH2 0x2796 PUSH2 0x314A JUMP JUMPDEST JUMPDEST SWAP1 PUSH1 0x0 MSTORE PUSH1 0x20 PUSH1 0x0 KECCAK256 ADD PUSH1 0x0 SWAP1 SLOAD SWAP1 PUSH2 0x100 EXP SWAP1 DIV PUSH20 0xFFFFFFFFFFFFFFFFFFFFFFFFFFFFFFFFFFFFFFFF AND SWAP1 DUP1 PUSH1 0x1 DUP2 SLOAD ADD DUP1 DUP3 SSTORE DUP1 SWAP2 POP POP PUSH1 0x1 SWAP1 SUB SWAP1 PUSH1 0x0 MSTORE PUSH1 0x20 PUSH1 0x0 KECCAK256 ADD PUSH1 0x0 SWAP1 SWAP2 SWAP1 SWAP2 SWAP1 SWAP2 PUSH2 0x100 EXP DUP2 SLOAD DUP2 PUSH20 0xFFFFFFFFFFFFFFFFFFFFFFFFFFFFFFFFFFFFFFFF MUL NOT AND SWAP1 DUP4 PUSH20 0xFFFFFFFFFFFFFFFFFFFFFFFFFFFFFFFFFFFFFFFF AND MUL OR SWAP1 SSTORE POP PUSH1 0xE PUSH1 0x0 PUSH2 0x2830 SWAP2 SWAP1 PUSH2 0x2CA7 JUMP JUMPDEST PUSH1 0x0 PUSH1 0xC DUP2 SWAP1 SSTORE POP POP POP POP POP JUMP JUMPDEST PUSH1 0x0 PUSH1 0x6 DUP1 SLOAD SWAP1 POP PUSH2 0x284E PUSH2 0x2C2D JUMP JUMPDEST PUSH2 0x2858 SWAP2 SWAP1 PUSH2 0x34E8 JUMP JUMPDEST SWAP1 POP PUSH1 0x0 PUSH1 0x6 DUP1 SLOAD SWAP1 POP SWAP1 POP PUSH1 0x0 DUP2 PUSH1 0x5 SLOAD PUSH2 0x2874 SWAP2 SWAP1 PUSH2 0x3519 JUMP JUMPDEST SWAP1 POP PUSH1 0x0 PUSH2 0x288E PUSH2 0x2887 DUP4 PUSH1 0x2 SLOAD PUSH2 0x2C65 JUMP JUMPDEST PUSH1 0x64 PUSH2 0x2C7B JUMP JUMPDEST SWAP1 POP PUSH1 0x14 PUSH1 0x0 SWAP1 SLOAD SWAP1 PUSH2 0x100 EXP SWAP1 DIV PUSH20 0xFFFFFFFFFFFFFFFFFFFFFFFFFFFFFFFFFFFFFFFF AND PUSH20 0xFFFFFFFFFFFFFFFFFFFFFFFFFFFFFFFFFFFFFFFF AND PUSH4 0xA9059CBB PUSH1 0x1 PUSH1 0x0 SWAP1 SLOAD SWAP1 PUSH2 0x100 EXP SWAP1 DIV PUSH20 0xFFFFFFFFFFFFFFFFFFFFFFFFFFFFFFFFFFFFFFFF AND DUP4 PUSH1 0x40 MLOAD DUP4 PUSH4 0xFFFFFFFF AND PUSH1 0xE0 SHL DUP2 MSTORE PUSH1 0x4 ADD PUSH2 0x290F SWAP3 SWAP2 SWAP1 PUSH2 0x3573 JUMP JUMPDEST PUSH1 0x20 PUSH1 0x40 MLOAD DUP1 DUP4 SUB DUP2 PUSH1 0x0 DUP8 GAS CALL ISZERO DUP1 ISZERO PUSH2 0x292E JUMPI RETURNDATASIZE PUSH1 0x0 DUP1 RETURNDATACOPY RETURNDATASIZE PUSH1 0x0 REVERT JUMPDEST POP POP POP POP PUSH1 0x40 MLOAD RETURNDATASIZE PUSH1 0x1F NOT PUSH1 0x1F DUP3 ADD AND DUP3 ADD DUP1 PUSH1 0x40 MSTORE POP DUP2 ADD SWAP1 PUSH2 0x2952 SWAP2 SWAP1 PUSH2 0x33B5 JUMP JUMPDEST POP PUSH1 0x0 PUSH2 0x295F DUP4 DUP4 PUSH2 0x2C91 JUMP JUMPDEST SWAP1 POP PUSH1 0x14 PUSH1 0x0 SWAP1 SLOAD SWAP1 PUSH2 0x100 EXP SWAP1 DIV PUSH20 0xFFFFFFFFFFFFFFFFFFFFFFFFFFFFFFFFFFFFFFFF AND PUSH20 0xFFFFFFFFFFFFFFFFFFFFFFFFFFFFFFFFFFFFFFFF AND PUSH4 0xA9059CBB PUSH1 0x6 DUP8 DUP2 SLOAD DUP2 LT PUSH2 0x29B3 JUMPI PUSH2 0x29B2 PUSH2 0x314A JUMP JUMPDEST JUMPDEST SWAP1 PUSH1 0x0 MSTORE PUSH1 0x20 PUSH1 0x0 KECCAK256 ADD PUSH1 0x0 SWAP1 SLOAD SWAP1 PUSH2 0x100 EXP SWAP1 DIV PUSH20 0xFFFFFFFFFFFFFFFFFFFFFFFFFFFFFFFFFFFFFFFF AND DUP4 PUSH1 0x40 MLOAD DUP4 PUSH4 0xFFFFFFFF AND PUSH1 0xE0 SHL DUP2 MSTORE PUSH1 0x4 ADD PUSH2 0x29FC SWAP3 SWAP2 SWAP1 PUSH2 0x35BD JUMP JUMPDEST PUSH1 0x20 PUSH1 0x40 MLOAD DUP1 DUP4 SUB DUP2 PUSH1 0x0 DUP8 GAS CALL ISZERO DUP1 ISZERO PUSH2 0x2A1B JUMPI RETURNDATASIZE PUSH1 0x0 DUP1 RETURNDATACOPY RETURNDATASIZE PUSH1 0x0 REVERT JUMPDEST POP POP POP POP PUSH1 0x40 MLOAD RETURNDATASIZE PUSH1 0x1F NOT PUSH1 0x1F DUP3 ADD AND DUP3 ADD DUP1 PUSH1 0x40 MSTORE POP DUP2 ADD SWAP1 PUSH2 0x2A3F SWAP2 SWAP1 PUSH2 0x33B5 JUMP JUMPDEST POP PUSH1 0x10 PUSH1 0x6 DUP7 DUP2 SLOAD DUP2 LT PUSH2 0x2A56 JUMPI PUSH2 0x2A55 PUSH2 0x314A JUMP JUMPDEST JUMPDEST SWAP1 PUSH1 0x0 MSTORE PUSH1 0x20 PUSH1 0x0 KECCAK256 ADD PUSH1 0x0 SWAP1 SLOAD SWAP1 PUSH2 0x100 EXP SWAP1 DIV PUSH20 0xFFFFFFFFFFFFFFFFFFFFFFFFFFFFFFFFFFFFFFFF AND SWAP1 DUP1 PUSH1 0x1 DUP2 SLOAD ADD DUP1 DUP3 SSTORE DUP1 SWAP2 POP POP PUSH1 0x1 SWAP1 SUB SWAP1 PUSH1 0x0 MSTORE PUSH1 0x20 PUSH1 0x0 KECCAK256 ADD PUSH1 0x0 SWAP1 SWAP2 SWAP1 SWAP2 SWAP1 SWAP2 PUSH2 0x100 EXP DUP2 SLOAD DUP2 PUSH20 0xFFFFFFFFFFFFFFFFFFFFFFFFFFFFFFFFFFFFFFFF MUL NOT AND SWAP1 DUP4 PUSH20 0xFFFFFFFFFFFFFFFFFFFFFFFFFFFFFFFFFFFFFFFF AND MUL OR SWAP1 SSTORE POP PUSH1 0x6 PUSH1 0x0 PUSH2 0x2AEF SWAP2 SWAP1 PUSH2 0x2CA7 JUMP JUMPDEST PUSH1 0x0 PUSH1 0x4 DUP2 SWAP1 SSTORE POP POP POP POP POP POP JUMP JUMPDEST PUSH1 0x0 PUSH20 0xFFFFFFFFFFFFFFFFFFFFFFFFFFFFFFFFFFFFFFFF AND DUP2 PUSH20 0xFFFFFFFFFFFFFFFFFFFFFFFFFFFFFFFFFFFFFFFF AND SUB PUSH2 0x2B6D JUMPI PUSH1 0x40 MLOAD PUSH32 0x8C379A000000000000000000000000000000000000000000000000000000000 DUP2 MSTORE PUSH1 0x4 ADD PUSH2 0x2B64 SWAP1 PUSH2 0x3658 JUMP JUMPDEST PUSH1 0x40 MLOAD DUP1 SWAP2 SUB SWAP1 REVERT JUMPDEST DUP1 PUSH20 0xFFFFFFFFFFFFFFFFFFFFFFFFFFFFFFFFFFFFFFFF AND PUSH1 0x0 PUSH1 0x1 SWAP1 SLOAD SWAP1 PUSH2 0x100 EXP SWAP1 DIV PUSH20 0xFFFFFFFFFFFFFFFFFFFFFFFFFFFFFFFFFFFFFFFF AND PUSH20 0xFFFFFFFFFFFFFFFFFFFFFFFFFFFFFFFFFFFFFFFF AND PUSH32 0x8BE0079C531659141344CD1FD0A4F28419497F9722A3DAAFE3B4186F6B6457E0 PUSH1 0x40 MLOAD PUSH1 0x40 MLOAD DUP1 SWAP2 SUB SWAP1 LOG3 DUP1 PUSH1 0x0 PUSH1 0x1 PUSH2 0x100 EXP DUP2 SLOAD DUP2 PUSH20 0xFFFFFFFFFFFFFFFFFFFFFFFFFFFFFFFFFFFFFFFF MUL NOT AND SWAP1 DUP4 PUSH20 0xFFFFFFFFFFFFFFFFFFFFFFFFFFFFFFFFFFFFFFFF AND MUL OR SWAP1 SSTORE POP POP JUMP JUMPDEST PUSH1 0x0 DIFFICULTY TIMESTAMP PUSH1 0x6 NUMBER PUSH1 0x40 MLOAD PUSH1 0x20 ADD PUSH2 0x2C47 SWAP5 SWAP4 SWAP3 SWAP2 SWAP1 PUSH2 0x37AE JUMP JUMPDEST PUSH1 0x40 MLOAD PUSH1 0x20 DUP2 DUP4 SUB SUB DUP2 MSTORE SWAP1 PUSH1 0x40 MSTORE DUP1 MLOAD SWAP1 PUSH1 0x20 ADD KECCAK256 PUSH1 0x0 SHR SWAP1 POP SWAP1 JUMP JUMPDEST PUSH1 0x0 DUP2 DUP4 PUSH2 0x2C73 SWAP2 SWAP1 PUSH2 0x3519 JUMP JUMPDEST SWAP1 POP SWAP3 SWAP2 POP POP JUMP JUMPDEST PUSH1 0x0 DUP2 DUP4 PUSH2 0x2C89 SWAP2 SWAP1 PUSH2 0x37FA JUMP JUMPDEST SWAP1 POP SWAP3 SWAP2 POP POP JUMP JUMPDEST PUSH1 0x0 DUP2 DUP4 PUSH2 0x2C9F SWAP2 SWAP1 PUSH2 0x30CE JUMP JUMPDEST SWAP1 POP SWAP3 SWAP2 POP POP JUMP JUMPDEST POP DUP1 SLOAD PUSH1 0x0 DUP3 SSTORE SWAP1 PUSH1 0x0 MSTORE PUSH1 0x20 PUSH1 0x0 KECCAK256 SWAP1 DUP2 ADD SWAP1 PUSH2 0x2CC5 SWAP2 SWAP1 PUSH2 0x2CC8 JUMP JUMPDEST POP JUMP JUMPDEST JUMPDEST DUP1 DUP3 GT ISZERO PUSH2 0x2CE1 JUMPI PUSH1 0x0 DUP2 PUSH1 0x0 SWAP1 SSTORE POP PUSH1 0x1 ADD PUSH2 0x2CC9 JUMP JUMPDEST POP SWAP1 JUMP JUMPDEST PUSH1 0x0 DUP2 MLOAD SWAP1 POP SWAP2 SWAP1 POP JUMP JUMPDEST PUSH1 0x0 DUP3 DUP3 MSTORE PUSH1 0x20 DUP3 ADD SWAP1 POP SWAP3 SWAP2 POP POP JUMP JUMPDEST PUSH1 0x0 DUP2 SWAP1 POP PUSH1 0x20 DUP3 ADD SWAP1 POP SWAP2 SWAP1 POP JUMP JUMPDEST PUSH1 0x0 PUSH20 0xFFFFFFFFFFFFFFFFFFFFFFFFFFFFFFFFFFFFFFFF DUP3 AND SWAP1 POP SWAP2 SWAP1 POP JUMP JUMPDEST PUSH1 0x0 PUSH2 0x2D3C DUP3 PUSH2 0x2D11 JUMP JUMPDEST SWAP1 POP SWAP2 SWAP1 POP JUMP JUMPDEST PUSH2 0x2D4C DUP2 PUSH2 0x2D31 JUMP JUMPDEST DUP3 MSTORE POP POP JUMP JUMPDEST PUSH1 0x0 PUSH2 0x2D5E DUP4 DUP4 PUSH2 0x2D43 JUMP JUMPDEST PUSH1 0x20 DUP4 ADD SWAP1 POP SWAP3 SWAP2 POP POP JUMP JUMPDEST PUSH1 0x0 PUSH1 0x20 DUP3 ADD SWAP1 POP SWAP2 SWAP1 POP JUMP JUMPDEST PUSH1 0x0 PUSH2 0x2D82 DUP3 PUSH2 0x2CE5 JUMP JUMPDEST PUSH2 0x2D8C DUP2 DUP6 PUSH2 0x2CF0 JUMP JUMPDEST SWAP4 POP PUSH2 0x2D97 DUP4 PUSH2 0x2D01 JUMP JUMPDEST DUP1 PUSH1 0x0 JUMPDEST DUP4 DUP2 LT ISZERO PUSH2 0x2DC8 JUMPI DUP2 MLOAD PUSH2 0x2DAF DUP9 DUP3 PUSH2 0x2D52 JUMP JUMPDEST SWAP8 POP PUSH2 0x2DBA DUP4 PUSH2 0x2D6A JUMP JUMPDEST SWAP3 POP POP PUSH1 0x1 DUP2 ADD SWAP1 POP PUSH2 0x2D9B JUMP JUMPDEST POP DUP6 SWAP4 POP POP POP POP SWAP3 SWAP2 POP POP JUMP JUMPDEST PUSH1 0x0 PUSH1 0x20 DUP3 ADD SWAP1 POP DUP2 DUP2 SUB PUSH1 0x0 DUP4 ADD MSTORE PUSH2 0x2DEF DUP2 DUP5 PUSH2 0x2D77 JUMP JUMPDEST SWAP1 POP SWAP3 SWAP2 POP POP JUMP JUMPDEST PUSH1 0x0 DUP1 REVERT JUMPDEST PUSH1 0x0 DUP2 SWAP1 POP SWAP2 SWAP1 POP JUMP JUMPDEST PUSH2 0x2E0F DUP2 PUSH2 0x2DFC JUMP JUMPDEST DUP2 EQ PUSH2 0x2E1A JUMPI PUSH1 0x0 DUP1 REVERT JUMPDEST POP JUMP JUMPDEST PUSH1 0x0 DUP2 CALLDATALOAD SWAP1 POP PUSH2 0x2E2C DUP2 PUSH2 0x2E06 JUMP JUMPDEST SWAP3 SWAP2 POP POP JUMP JUMPDEST PUSH1 0x0 PUSH1 0x20 DUP3 DUP5 SUB SLT ISZERO PUSH2 0x2E48 JUMPI PUSH2 0x2E47 PUSH2 0x2DF7 JUMP JUMPDEST JUMPDEST PUSH1 0x0 PUSH2 0x2E56 DUP5 DUP3 DUP6 ADD PUSH2 0x2E1D JUMP JUMPDEST SWAP2 POP POP SWAP3 SWAP2 POP POP JUMP JUMPDEST PUSH2 0x2E68 DUP2 PUSH2 0x2D31 JUMP JUMPDEST DUP3 MSTORE POP POP JUMP JUMPDEST PUSH1 0x0 PUSH1 0x20 DUP3 ADD SWAP1 POP PUSH2 0x2E83 PUSH1 0x0 DUP4 ADD DUP5 PUSH2 0x2E5F JUMP JUMPDEST SWAP3 SWAP2 POP POP JUMP JUMPDEST PUSH2 0x2E92 DUP2 PUSH2 0x2DFC JUMP JUMPDEST DUP3 MSTORE POP POP JUMP JUMPDEST PUSH1 0x0 PUSH1 0x20 DUP3 ADD SWAP1 POP PUSH2 0x2EAD PUSH1 0x0 DUP4 ADD DUP5 PUSH2 0x2E89 JUMP JUMPDEST SWAP3 SWAP2 POP POP JUMP JUMPDEST PUSH1 0x0 DUP2 ISZERO ISZERO SWAP1 POP SWAP2 SWAP1 POP JUMP JUMPDEST PUSH2 0x2EC8 DUP2 PUSH2 0x2EB3 JUMP JUMPDEST DUP3 MSTORE POP POP JUMP JUMPDEST PUSH1 0x0 PUSH1 0x20 DUP3 ADD SWAP1 POP PUSH2 0x2EE3 PUSH1 0x0 DUP4 ADD DUP5 PUSH2 0x2EBF JUMP JUMPDEST SWAP3 SWAP2 POP POP JUMP JUMPDEST PUSH2 0x2EF2 DUP2 PUSH2 0x2D31 JUMP JUMPDEST DUP2 EQ PUSH2 0x2EFD JUMPI PUSH1 0x0 DUP1 REVERT JUMPDEST POP JUMP JUMPDEST PUSH1 0x0 DUP2 CALLDATALOAD SWAP1 POP PUSH2 0x2F0F DUP2 PUSH2 0x2EE9 JUMP JUMPDEST SWAP3 SWAP2 POP POP JUMP JUMPDEST PUSH1 0x0 PUSH1 0x20 DUP3 DUP5 SUB SLT ISZERO PUSH2 0x2F2B JUMPI PUSH2 0x2F2A PUSH2 0x2DF7 JUMP JUMPDEST JUMPDEST PUSH1 0x0 PUSH2 0x2F39 DUP5 DUP3 DUP6 ADD PUSH2 0x2F00 JUMP JUMPDEST SWAP2 POP POP SWAP3 SWAP2 POP POP JUMP JUMPDEST PUSH1 0x0 PUSH1 0x60 DUP3 ADD SWAP1 POP PUSH2 0x2F57 PUSH1 0x0 DUP4 ADD DUP7 PUSH2 0x2E89 JUMP JUMPDEST PUSH2 0x2F64 PUSH1 0x20 DUP4 ADD DUP6 PUSH2 0x2E89 JUMP JUMPDEST PUSH2 0x2F71 PUSH1 0x40 DUP4 ADD DUP5 PUSH2 0x2E89 JUMP JUMPDEST SWAP5 SWAP4 POP POP POP POP JUMP JUMPDEST PUSH1 0x0 DUP2 SWAP1 POP SWAP2 SWAP1 POP JUMP JUMPDEST PUSH1 0x0 PUSH2 0x2F9E PUSH2 0x2F99 PUSH2 0x2F94 DUP5 PUSH2 0x2D11 JUMP JUMPDEST PUSH2 0x2F79 JUMP JUMPDEST PUSH2 0x2D11 JUMP JUMPDEST SWAP1 POP SWAP2 SWAP1 POP JUMP JUMPDEST PUSH1 0x0 PUSH2 0x2FB0 DUP3 PUSH2 0x2F83 JUMP JUMPDEST SWAP1 POP SWAP2 SWAP1 POP JUMP JUMPDEST PUSH1 0x0 PUSH2 0x2FC2 DUP3 PUSH2 0x2FA5 JUMP JUMPDEST SWAP1 POP SWAP2 SWAP1 POP JUMP JUMPDEST PUSH2 0x2FD2 DUP2 PUSH2 0x2FB7 JUMP JUMPDEST DUP3 MSTORE POP POP JUMP JUMPDEST PUSH1 0x0 PUSH1 0x20 DUP3 ADD SWAP1 POP PUSH2 0x2FED PUSH1 0x0 DUP4 ADD DUP5 PUSH2 0x2FC9 JUMP JUMPDEST SWAP3 SWAP2 POP POP JUMP JUMPDEST PUSH1 0x0 DUP3 DUP3 MSTORE PUSH1 0x20 DUP3 ADD SWAP1 POP SWAP3 SWAP2 POP POP JUMP JUMPDEST PUSH32 0x4F776E61626C653A2063616C6C6572206973206E6F7420746865206F776E6572 PUSH1 0x0 DUP3 ADD MSTORE POP JUMP JUMPDEST PUSH1 0x0 PUSH2 0x303A PUSH1 0x20 DUP4 PUSH2 0x2FF3 JUMP JUMPDEST SWAP2 POP PUSH2 0x3045 DUP3 PUSH2 0x3004 JUMP JUMPDEST PUSH1 0x20 DUP3 ADD SWAP1 POP SWAP2 SWAP1 POP JUMP JUMPDEST PUSH1 0x0 PUSH1 0x20 DUP3 ADD SWAP1 POP DUP2 DUP2 SUB PUSH1 0x0 DUP4 ADD MSTORE PUSH2 0x3069 DUP2 PUSH2 0x302D JUMP JUMPDEST SWAP1 POP SWAP2 SWAP1 POP JUMP JUMPDEST PUSH32 0x4E487B7100000000000000000000000000000000000000000000000000000000 PUSH1 0x0 MSTORE PUSH1 0x41 PUSH1 0x4 MSTORE PUSH1 0x24 PUSH1 0x0 REVERT JUMPDEST PUSH32 0x4E487B7100000000000000000000000000000000000000000000000000000000 PUSH1 0x0 MSTORE PUSH1 0x11 PUSH1 0x4 MSTORE PUSH1 0x24 PUSH1 0x0 REVERT JUMPDEST PUSH1 0x0 PUSH2 0x30D9 DUP3 PUSH2 0x2DFC JUMP JUMPDEST SWAP2 POP PUSH2 0x30E4 DUP4 PUSH2 0x2DFC JUMP JUMPDEST SWAP3 POP DUP3 DUP3 SUB SWAP1 POP DUP2 DUP2 GT ISZERO PUSH2 0x30FC JUMPI PUSH2 0x30FB PUSH2 0x309F JUMP JUMPDEST JUMPDEST SWAP3 SWAP2 POP POP JUMP JUMPDEST PUSH1 0x0 PUSH2 0x310D DUP3 PUSH2 0x2DFC JUMP JUMPDEST SWAP2 POP PUSH32 0xFFFFFFFFFFFFFFFFFFFFFFFFFFFFFFFFFFFFFFFFFFFFFFFFFFFFFFFFFFFFFFFF DUP3 SUB PUSH2 0x313F JUMPI PUSH2 0x313E PUSH2 0x309F JUMP JUMPDEST JUMPDEST PUSH1 0x1 DUP3 ADD SWAP1 POP SWAP2 SWAP1 POP JUMP JUMPDEST PUSH32 0x4E487B7100000000000000000000000000000000000000000000000000000000 PUSH1 0x0 MSTORE PUSH1 0x32 PUSH1 0x4 MSTORE PUSH1 0x24 PUSH1 0x0 REVERT JUMPDEST PUSH1 0x0 PUSH2 0x3184 DUP3 PUSH2 0x2DFC JUMP JUMPDEST SWAP2 POP PUSH1 0x0 DUP3 SUB PUSH2 0x3197 JUMPI PUSH2 0x3196 PUSH2 0x309F JUMP JUMPDEST JUMPDEST PUSH1 0x1 DUP3 SUB SWAP1 POP SWAP2 SWAP1 POP JUMP JUMPDEST PUSH32 0x4163636573732064656E69656421000000000000000000000000000000000000 PUSH1 0x0 DUP3 ADD MSTORE POP JUMP JUMPDEST PUSH1 0x0 PUSH2 0x31D8 PUSH1 0xE DUP4 PUSH2 0x2FF3 JUMP JUMPDEST SWAP2 POP PUSH2 0x31E3 DUP3 PUSH2 0x31A2 JUMP JUMPDEST PUSH1 0x20 DUP3 ADD SWAP1 POP SWAP2 SWAP1 POP JUMP JUMPDEST PUSH1 0x0 PUSH1 0x20 DUP3 ADD SWAP1 POP DUP2 DUP2 SUB PUSH1 0x0 DUP4 ADD MSTORE PUSH2 0x3207 DUP2 PUSH2 0x31CB JUMP JUMPDEST SWAP1 POP SWAP2 SWAP1 POP JUMP JUMPDEST PUSH32 0x4E6F2072652D656E7472616E6379000000000000000000000000000000000000 PUSH1 0x0 DUP3 ADD MSTORE POP JUMP JUMPDEST PUSH1 0x0 PUSH2 0x3244 PUSH1 0xE DUP4 PUSH2 0x2FF3 JUMP JUMPDEST SWAP2 POP PUSH2 0x324F DUP3 PUSH2 0x320E JUMP JUMPDEST PUSH1 0x20 DUP3 ADD SWAP1 POP SWAP2 SWAP1 POP JUMP JUMPDEST PUSH1 0x0 PUSH1 0x20 DUP3 ADD SWAP1 POP DUP2 DUP2 SUB PUSH1 0x0 DUP4 ADD MSTORE PUSH2 0x3273 DUP2 PUSH2 0x3237 JUMP JUMPDEST SWAP1 POP SWAP2 SWAP1 POP JUMP JUMPDEST PUSH32 0x4C6F7474657279206973206E6F74207374617274656420796574000000000000 PUSH1 0x0 DUP3 ADD MSTORE POP JUMP JUMPDEST PUSH1 0x0 PUSH2 0x32B0 PUSH1 0x1A DUP4 PUSH2 0x2FF3 JUMP JUMPDEST SWAP2 POP PUSH2 0x32BB DUP3 PUSH2 0x327A JUMP JUMPDEST PUSH1 0x20 DUP3 ADD SWAP1 POP SWAP2 SWAP1 POP JUMP JUMPDEST PUSH1 0x0 PUSH1 0x20 DUP3 ADD SWAP1 POP DUP2 DUP2 SUB PUSH1 0x0 DUP4 ADD MSTORE PUSH2 0x32DF DUP2 PUSH2 0x32A3 JUMP JUMPDEST SWAP1 POP SWAP2 SWAP1 POP JUMP JUMPDEST PUSH32 0x4E6F742053616D65000000000000000000000000000000000000000000000000 PUSH1 0x0 DUP3 ADD MSTORE POP JUMP JUMPDEST PUSH1 0x0 PUSH2 0x331C PUSH1 0x8 DUP4 PUSH2 0x2FF3 JUMP JUMPDEST SWAP2 POP PUSH2 0x3327 DUP3 PUSH2 0x32E6 JUMP JUMPDEST PUSH1 0x20 DUP3 ADD SWAP1 POP SWAP2 SWAP1 POP JUMP JUMPDEST PUSH1 0x0 PUSH1 0x20 DUP3 ADD SWAP1 POP DUP2 DUP2 SUB PUSH1 0x0 DUP4 ADD MSTORE PUSH2 0x334B DUP2 PUSH2 0x330F JUMP JUMPDEST SWAP1 POP SWAP2 SWAP1 POP JUMP JUMPDEST PUSH1 0x0 PUSH1 0x60 DUP3 ADD SWAP1 POP PUSH2 0x3367 PUSH1 0x0 DUP4 ADD DUP7 PUSH2 0x2E5F JUMP JUMPDEST PUSH2 0x3374 PUSH1 0x20 DUP4 ADD DUP6 PUSH2 0x2E5F JUMP JUMPDEST PUSH2 0x3381 PUSH1 0x40 DUP4 ADD DUP5 PUSH2 0x2E89 JUMP JUMPDEST SWAP5 SWAP4 POP POP POP POP JUMP JUMPDEST PUSH2 0x3392 DUP2 PUSH2 0x2EB3 JUMP JUMPDEST DUP2 EQ PUSH2 0x339D JUMPI PUSH1 0x0 DUP1 REVERT JUMPDEST POP JUMP JUMPDEST PUSH1 0x0 DUP2 MLOAD SWAP1 POP PUSH2 0x33AF DUP2 PUSH2 0x3389 JUMP JUMPDEST SWAP3 SWAP2 POP POP JUMP JUMPDEST PUSH1 0x0 PUSH1 0x20 DUP3 DUP5 SUB SLT ISZERO PUSH2 0x33CB JUMPI PUSH2 0x33CA PUSH2 0x2DF7 JUMP JUMPDEST JUMPDEST PUSH1 0x0 PUSH2 0x33D9 DUP5 DUP3 DUP6 ADD PUSH2 0x33A0 JUMP JUMPDEST SWAP2 POP POP SWAP3 SWAP2 POP POP JUMP JUMPDEST PUSH32 0x4E6F742073616D6520616D6F756E740000000000000000000000000000000000 PUSH1 0x0 DUP3 ADD MSTORE POP JUMP JUMPDEST PUSH1 0x0 PUSH2 0x3418 PUSH1 0xF DUP4 PUSH2 0x2FF3 JUMP JUMPDEST SWAP2 POP PUSH2 0x3423 DUP3 PUSH2 0x33E2 JUMP JUMPDEST PUSH1 0x20 DUP3 ADD SWAP1 POP SWAP2 SWAP1 POP JUMP JUMPDEST PUSH1 0x0 PUSH1 0x20 DUP3 ADD SWAP1 POP DUP2 DUP2 SUB PUSH1 0x0 DUP4 ADD MSTORE PUSH2 0x3447 DUP2 PUSH2 0x340B JUMP JUMPDEST SWAP1 POP SWAP2 SWAP1 POP JUMP JUMPDEST PUSH1 0x0 DUP2 MLOAD SWAP1 POP PUSH2 0x345D DUP2 PUSH2 0x2E06 JUMP JUMPDEST SWAP3 SWAP2 POP POP JUMP JUMPDEST PUSH1 0x0 PUSH1 0x20 DUP3 DUP5 SUB SLT ISZERO PUSH2 0x3479 JUMPI PUSH2 0x3478 PUSH2 0x2DF7 JUMP JUMPDEST JUMPDEST PUSH1 0x0 PUSH2 0x3487 DUP5 DUP3 DUP6 ADD PUSH2 0x344E JUMP JUMPDEST SWAP2 POP POP SWAP3 SWAP2 POP POP JUMP JUMPDEST PUSH1 0x0 PUSH1 0x40 DUP3 ADD SWAP1 POP PUSH2 0x34A5 PUSH1 0x0 DUP4 ADD DUP6 PUSH2 0x2E89 JUMP JUMPDEST PUSH2 0x34B2 PUSH1 0x20 DUP4 ADD DUP5 PUSH2 0x2E89 JUMP JUMPDEST SWAP4 SWAP3 POP POP POP JUMP JUMPDEST PUSH32 0x4E487B7100000000000000000000000000000000000000000000000000000000 PUSH1 0x0 MSTORE PUSH1 0x12 PUSH1 0x4 MSTORE PUSH1 0x24 PUSH1 0x0 REVERT JUMPDEST PUSH1 0x0 PUSH2 0x34F3 DUP3 PUSH2 0x2DFC JUMP JUMPDEST SWAP2 POP PUSH2 0x34FE DUP4 PUSH2 0x2DFC JUMP JUMPDEST SWAP3 POP DUP3 PUSH2 0x350E JUMPI PUSH2 0x350D PUSH2 0x34B9 JUMP JUMPDEST JUMPDEST DUP3 DUP3 MOD SWAP1 POP SWAP3 SWAP2 POP POP JUMP JUMPDEST PUSH1 0x0 PUSH2 0x3524 DUP3 PUSH2 0x2DFC JUMP JUMPDEST SWAP2 POP PUSH2 0x352F DUP4 PUSH2 0x2DFC JUMP JUMPDEST SWAP3 POP DUP2 PUSH32 0xFFFFFFFFFFFFFFFFFFFFFFFFFFFFFFFFFFFFFFFFFFFFFFFFFFFFFFFFFFFFFFFF DIV DUP4 GT DUP3 ISZERO ISZERO AND ISZERO PUSH2 0x3568 JUMPI PUSH2 0x3567 PUSH2 0x309F JUMP JUMPDEST JUMPDEST DUP3 DUP3 MUL SWAP1 POP SWAP3 SWAP2 POP POP JUMP JUMPDEST PUSH1 0x0 PUSH1 0x40 DUP3 ADD SWAP1 POP PUSH2 0x3588 PUSH1 0x0 DUP4 ADD DUP6 PUSH2 0x2E5F JUMP JUMPDEST PUSH2 0x3595 PUSH1 0x20 DUP4 ADD DUP5 PUSH2 0x2E89 JUMP JUMPDEST SWAP4 SWAP3 POP POP POP JUMP JUMPDEST PUSH1 0x0 PUSH2 0x35A7 DUP3 PUSH2 0x2FA5 JUMP JUMPDEST SWAP1 POP SWAP2 SWAP1 POP JUMP JUMPDEST PUSH2 0x35B7 DUP2 PUSH2 0x359C JUMP JUMPDEST DUP3 MSTORE POP POP JUMP JUMPDEST PUSH1 0x0 PUSH1 0x40 DUP3 ADD SWAP1 POP PUSH2 0x35D2 PUSH1 0x0 DUP4 ADD DUP6 PUSH2 0x35AE JUMP JUMPDEST PUSH2 0x35DF PUSH1 0x20 DUP4 ADD DUP5 PUSH2 0x2E89 JUMP JUMPDEST SWAP4 SWAP3 POP POP POP JUMP JUMPDEST PUSH32 0x4F776E61626C653A206E6577206F776E657220697320746865207A65726F2061 PUSH1 0x0 DUP3 ADD MSTORE PUSH32 0x6464726573730000000000000000000000000000000000000000000000000000 PUSH1 0x20 DUP3 ADD MSTORE POP JUMP JUMPDEST PUSH1 0x0 PUSH2 0x3642 PUSH1 0x26 DUP4 PUSH2 0x2FF3 JUMP JUMPDEST SWAP2 POP PUSH2 0x364D DUP3 PUSH2 0x35E6 JUMP JUMPDEST PUSH1 0x40 DUP3 ADD SWAP1 POP SWAP2 SWAP1 POP JUMP JUMPDEST PUSH1 0x0 PUSH1 0x20 DUP3 ADD SWAP1 POP DUP2 DUP2 SUB PUSH1 0x0 DUP4 ADD MSTORE PUSH2 0x3671 DUP2 PUSH2 0x3635 JUMP JUMPDEST SWAP1 POP SWAP2 SWAP1 POP JUMP JUMPDEST PUSH1 0x0 DUP2 SLOAD SWAP1 POP SWAP2 SWAP1 POP JUMP JUMPDEST PUSH1 0x0 DUP3 DUP3 MSTORE PUSH1 0x20 DUP3 ADD SWAP1 POP SWAP3 SWAP2 POP POP JUMP JUMPDEST PUSH1 0x0 DUP2 SWAP1 POP DUP2 PUSH1 0x0 MSTORE PUSH1 0x20 PUSH1 0x0 KECCAK256 SWAP1 POP SWAP2 SWAP1 POP JUMP JUMPDEST PUSH1 0x0 PUSH2 0x36B4 DUP3 PUSH2 0x2D11 JUMP JUMPDEST SWAP1 POP SWAP2 SWAP1 POP JUMP JUMPDEST PUSH2 0x36C4 DUP2 PUSH2 0x36A9 JUMP JUMPDEST DUP3 MSTORE POP POP JUMP JUMPDEST PUSH1 0x0 PUSH2 0x36D6 DUP4 DUP4 PUSH2 0x36BB JUMP JUMPDEST PUSH1 0x20 DUP4 ADD SWAP1 POP SWAP3 SWAP2 POP POP JUMP JUMPDEST PUSH1 0x0 DUP2 PUSH1 0x0 SHR SWAP1 POP SWAP2 SWAP1 POP JUMP JUMPDEST PUSH1 0x0 PUSH20 0xFFFFFFFFFFFFFFFFFFFFFFFFFFFFFFFFFFFFFFFF DUP3 AND SWAP1 POP SWAP2 SWAP1 POP JUMP JUMPDEST PUSH1 0x0 PUSH2 0x3722 PUSH2 0x371D DUP4 PUSH2 0x36E2 JUMP JUMPDEST PUSH2 0x36EF JUMP JUMPDEST SWAP1 POP SWAP2 SWAP1 POP JUMP JUMPDEST PUSH1 0x0 PUSH2 0x3735 DUP3 SLOAD PUSH2 0x370F JUMP JUMPDEST SWAP1 POP SWAP2 SWAP1 POP JUMP JUMPDEST PUSH1 0x0 PUSH1 0x1 DUP3 ADD SWAP1 POP SWAP2 SWAP1 POP JUMP JUMPDEST PUSH1 0x0 PUSH2 0x3754 DUP3 PUSH2 0x3678 JUMP JUMPDEST PUSH2 0x375E DUP2 DUP6 PUSH2 0x3683 JUMP JUMPDEST SWAP4 POP PUSH2 0x3769 DUP4 PUSH2 0x3694 JUMP JUMPDEST DUP1 PUSH1 0x0 JUMPDEST DUP4 DUP2 LT ISZERO PUSH2 0x37A1 JUMPI PUSH2 0x377E DUP3 PUSH2 0x3729 JUMP JUMPDEST PUSH2 0x3788 DUP9 DUP3 PUSH2 0x36CA JUMP JUMPDEST SWAP8 POP PUSH2 0x3793 DUP4 PUSH2 0x373C JUMP JUMPDEST SWAP3 POP POP PUSH1 0x1 DUP2 ADD SWAP1 POP PUSH2 0x376D JUMP JUMPDEST POP DUP6 SWAP4 POP POP POP POP SWAP3 SWAP2 POP POP JUMP JUMPDEST PUSH1 0x0 PUSH1 0x80 DUP3 ADD SWAP1 POP PUSH2 0x37C3 PUSH1 0x0 DUP4 ADD DUP8 PUSH2 0x2E89 JUMP JUMPDEST PUSH2 0x37D0 PUSH1 0x20 DUP4 ADD DUP7 PUSH2 0x2E89 JUMP JUMPDEST DUP2 DUP2 SUB PUSH1 0x40 DUP4 ADD MSTORE PUSH2 0x37E2 DUP2 DUP6 PUSH2 0x3749 JUMP JUMPDEST SWAP1 POP PUSH2 0x37F1 PUSH1 0x60 DUP4 ADD DUP5 PUSH2 0x2E89 JUMP JUMPDEST SWAP6 SWAP5 POP POP POP POP POP JUMP JUMPDEST PUSH1 0x0 PUSH2 0x3805 DUP3 PUSH2 0x2DFC JUMP JUMPDEST SWAP2 POP PUSH2 0x3810 DUP4 PUSH2 0x2DFC JUMP JUMPDEST SWAP3 POP DUP3 PUSH2 0x3820 JUMPI PUSH2 0x381F PUSH2 0x34B9 JUMP JUMPDEST JUMPDEST DUP3 DUP3 DIV SWAP1 POP SWAP3 SWAP2 POP POP JUMP INVALID LOG2 PUSH5 0x6970667358 0x22 SLT KECCAK256 0xFB OR EXTCODEHASH GASPRICE 0xE7 0xA8 SDIV 0xA7 0xD6 STOP DUP9 0x4A PUSH26 0x1C1500BFDBAF8EFE1880383C5ABAD2B244389E64736F6C634300 ADDMOD LT STOP CALLER "
				},
				"gasEstimates": {
					"creation": {
						"codeDepositCost": "2886600",
						"executionCost": "infinite",
						"totalCost": "infinite"
					},
					"external": {
						"BusdInterface()": "infinite",
						"allWinner()": "infinite",
						"allWinner1()": "infinite",
						"allWinner2()": "infinite",
						"announceLottery()": "infinite",
						"announceLottery1()": "infinite",
						"announceLottery2()": "infinite",
						"getLottery1Length()": "2490",
						"getLottery2Length()": "2535",
						"getLotteryLength()": "2491",
						"howMany(address)": "infinite",
						"joinLottery(uint256)": "infinite",
						"joinLottery1(uint256)": "infinite",
						"joinLottery2(uint256)": "infinite",
						"lotteryBalance()": "infinite",
						"lotteryStarted()": "2539",
						"owner()": "2705",
						"renounceOwnership()": "30492",
						"setMaximmNumbers(uint256)": "24865",
						"setMaximmNumbers1(uint256)": "24887",
						"setMaximmNumbers2(uint256)": "24821",
						"setTicketPrice(uint256)": "24866",
						"setTicketPrice1(uint256)": "24886",
						"setTicketPrice2(uint256)": "24841",
						"startLottery()": "26779",
						"tokenAddress()": "2560",
						"transferOwnership(address)": "30932",
						"viewTicket()": "2505",
						"viewTicket1()": "2549",
						"viewTicket2()": "2526",
						"viewTicketPrice()": "2549",
						"viewTicketPrice1()": "2481",
						"viewTicketPrice2()": "2526",
						"winnerLottery(uint256)": "5044",
						"winnerLottery1(uint256)": "5090",
						"winnerLottery2(uint256)": "5067"
					},
					"internal": {
						"pickwinner()": "infinite",
						"pickwinner1()": "infinite",
						"pickwinner2()": "infinite",
						"random()": "infinite"
					}
				},
				"methodIdentifiers": {
					"BusdInterface()": "b6fa5dfd",
					"allWinner()": "a7e9f0d1",
					"allWinner1()": "d521cf2a",
					"allWinner2()": "13002437",
					"announceLottery()": "f77f15b5",
					"announceLottery1()": "013fc0ab",
					"announceLottery2()": "be69d7ff",
					"getLottery1Length()": "a46eeb75",
					"getLottery2Length()": "a0a7bda8",
					"getLotteryLength()": "576aaa2b",
					"howMany(address)": "602977ad",
					"joinLottery(uint256)": "7eee9fc1",
					"joinLottery1(uint256)": "ce5f6b9f",
					"joinLottery2(uint256)": "3631ef4a",
					"lotteryBalance()": "b2288649",
					"lotteryStarted()": "5a3811b9",
					"owner()": "8da5cb5b",
					"renounceOwnership()": "715018a6",
					"setMaximmNumbers(uint256)": "3fc7adb6",
					"setMaximmNumbers1(uint256)": "4ba35125",
					"setMaximmNumbers2(uint256)": "17c6332c",
					"setTicketPrice(uint256)": "15981650",
					"setTicketPrice1(uint256)": "e437239f",
					"setTicketPrice2(uint256)": "f0c30e95",
					"startLottery()": "160344e2",
					"tokenAddress()": "9d76ea58",
					"transferOwnership(address)": "f2fde38b",
					"viewTicket()": "9ec80702",
					"viewTicket1()": "a308761a",
					"viewTicket2()": "db486929",
					"viewTicketPrice()": "636ad6a6",
					"viewTicketPrice1()": "ea6b0480",
					"viewTicketPrice2()": "8644024b",
					"winnerLottery(uint256)": "f19e8d86",
					"winnerLottery1(uint256)": "56e0bd36",
					"winnerLottery2(uint256)": "890d542f"
				}
			},
			"storageLayout": {
				"storage": [
					{
						"astId": 379,
						"contract": "GoldenBUSDLotto.sol:GoldenBUSDLotto",
						"label": "locked",
						"offset": 0,
						"slot": "0",
						"type": "t_bool"
					},
					{
						"astId": 421,
						"contract": "GoldenBUSDLotto.sol:GoldenBUSDLotto",
						"label": "_owner",
						"offset": 1,
						"slot": "0",
						"type": "t_address"
					},
					{
						"astId": 548,
						"contract": "GoldenBUSDLotto.sol:GoldenBUSDLotto",
						"label": "gldnBusd",
						"offset": 0,
						"slot": "1",
						"type": "t_address"
					},
					{
						"astId": 551,
						"contract": "GoldenBUSDLotto.sol:GoldenBUSDLotto",
						"label": "fee",
						"offset": 0,
						"slot": "2",
						"type": "t_uint256"
					},
					{
						"astId": 553,
						"contract": "GoldenBUSDLotto.sol:GoldenBUSDLotto",
						"label": "maxParticipantNumbers",
						"offset": 0,
						"slot": "3",
						"type": "t_uint256"
					},
					{
						"astId": 555,
						"contract": "GoldenBUSDLotto.sol:GoldenBUSDLotto",
						"label": "participantNumbers",
						"offset": 0,
						"slot": "4",
						"type": "t_uint256"
					},
					{
						"astId": 557,
						"contract": "GoldenBUSDLotto.sol:GoldenBUSDLotto",
						"label": "ticketPrice",
						"offset": 0,
						"slot": "5",
						"type": "t_uint256"
					},
					{
						"astId": 560,
						"contract": "GoldenBUSDLotto.sol:GoldenBUSDLotto",
						"label": "participants",
						"offset": 0,
						"slot": "6",
						"type": "t_array(t_address_payable)dyn_storage"
					},
					{
						"astId": 562,
						"contract": "GoldenBUSDLotto.sol:GoldenBUSDLotto",
						"label": "maxParticipantNumbers1",
						"offset": 0,
						"slot": "7",
						"type": "t_uint256"
					},
					{
						"astId": 564,
						"contract": "GoldenBUSDLotto.sol:GoldenBUSDLotto",
						"label": "participantNumbers1",
						"offset": 0,
						"slot": "8",
						"type": "t_uint256"
					},
					{
						"astId": 566,
						"contract": "GoldenBUSDLotto.sol:GoldenBUSDLotto",
						"label": "ticketPrice1",
						"offset": 0,
						"slot": "9",
						"type": "t_uint256"
					},
					{
						"astId": 569,
						"contract": "GoldenBUSDLotto.sol:GoldenBUSDLotto",
						"label": "participants1",
						"offset": 0,
						"slot": "10",
						"type": "t_array(t_address_payable)dyn_storage"
					},
					{
						"astId": 571,
						"contract": "GoldenBUSDLotto.sol:GoldenBUSDLotto",
						"label": "maxParticipantNumbers2",
						"offset": 0,
						"slot": "11",
						"type": "t_uint256"
					},
					{
						"astId": 573,
						"contract": "GoldenBUSDLotto.sol:GoldenBUSDLotto",
						"label": "participantNumbers2",
						"offset": 0,
						"slot": "12",
						"type": "t_uint256"
					},
					{
						"astId": 575,
						"contract": "GoldenBUSDLotto.sol:GoldenBUSDLotto",
						"label": "ticketPrice2",
						"offset": 0,
						"slot": "13",
						"type": "t_uint256"
					},
					{
						"astId": 578,
						"contract": "GoldenBUSDLotto.sol:GoldenBUSDLotto",
						"label": "participants2",
						"offset": 0,
						"slot": "14",
						"type": "t_array(t_address_payable)dyn_storage"
					},
					{
						"astId": 581,
						"contract": "GoldenBUSDLotto.sol:GoldenBUSDLotto",
						"label": "lotteryStarted",
						"offset": 0,
						"slot": "15",
						"type": "t_bool"
					},
					{
						"astId": 584,
						"contract": "GoldenBUSDLotto.sol:GoldenBUSDLotto",
						"label": "winnerLottery",
						"offset": 0,
						"slot": "16",
						"type": "t_array(t_address)dyn_storage"
					},
					{
						"astId": 587,
						"contract": "GoldenBUSDLotto.sol:GoldenBUSDLotto",
						"label": "winnerLottery1",
						"offset": 0,
						"slot": "17",
						"type": "t_array(t_address)dyn_storage"
					},
					{
						"astId": 590,
						"contract": "GoldenBUSDLotto.sol:GoldenBUSDLotto",
						"label": "winnerLottery2",
						"offset": 0,
						"slot": "18",
						"type": "t_array(t_address)dyn_storage"
					},
					{
						"astId": 592,
						"contract": "GoldenBUSDLotto.sol:GoldenBUSDLotto",
						"label": "tokenAddress",
						"offset": 0,
						"slot": "19",
						"type": "t_address"
					},
					{
						"astId": 595,
						"contract": "GoldenBUSDLotto.sol:GoldenBUSDLotto",
						"label": "BusdInterface",
						"offset": 0,
						"slot": "20",
						"type": "t_contract(IERC20)68"
					}
				],
				"types": {
					"t_address": {
						"encoding": "inplace",
						"label": "address",
						"numberOfBytes": "20"
					},
					"t_address_payable": {
						"encoding": "inplace",
						"label": "address payable",
						"numberOfBytes": "20"
					},
					"t_array(t_address)dyn_storage": {
						"base": "t_address",
						"encoding": "dynamic_array",
						"label": "address[]",
						"numberOfBytes": "32"
					},
					"t_array(t_address_payable)dyn_storage": {
						"base": "t_address_payable",
						"encoding": "dynamic_array",
						"label": "address payable[]",
						"numberOfBytes": "32"
					},
					"t_bool": {
						"encoding": "inplace",
						"label": "bool",
						"numberOfBytes": "1"
					},
					"t_contract(IERC20)68": {
						"encoding": "inplace",
						"label": "contract IERC20",
						"numberOfBytes": "20"
					},
					"t_uint256": {
						"encoding": "inplace",
						"label": "uint256",
						"numberOfBytes": "32"
					}
				}
			},
			"userdoc": {
				"kind": "user",
				"methods": {},
				"version": 1
			}
		}
	}
}