{
	"data": {
		"bytecode": {
			"linkReferences": {},
			"object": "608060405273237c00f9142c2ba9858c7f5d622df429f870e850600160006101000a81548173ffffffffffffffffffffffffffffffffffffffff021916908373ffffffffffffffffffffffffffffffffffffffff160217905550601e6002556000600f60006101000a81548160ff0219169083151502179055503480156200008657600080fd5b506000620000996200024d60201b60201c565b905080600060016101000a81548173ffffffffffffffffffffffffffffffffffffffff021916908373ffffffffffffffffffffffffffffffffffffffff1602179055508073ffffffffffffffffffffffffffffffffffffffff16600073ffffffffffffffffffffffffffffffffffffffff167f8be0079c531659141344cd1fd0a4f28419497f9722a3daafe3b4186f6b6457e060405160405180910390a35062000149336200025560201b60201c565b6064600381905550670de0b6b3a76400006005819055506014600781905550678ac7230489e800006009819055506003600b8190555068056bc75e2d63100000600d8190555073e9e7cea3dedca5984780bafc599bd69add087d56601360006101000a81548173ffffffffffffffffffffffffffffffffffffffff021916908373ffffffffffffffffffffffffffffffffffffffff160217905550601360009054906101000a900473ffffffffffffffffffffffffffffffffffffffff16601460006101000a81548173ffffffffffffffffffffffffffffffffffffffff021916908373ffffffffffffffffffffffffffffffffffffffff16021790555062000558565b600033905090565b620002656200024d60201b60201c565b73ffffffffffffffffffffffffffffffffffffffff16600060019054906101000a900473ffffffffffffffffffffffffffffffffffffffff1673ffffffffffffffffffffffffffffffffffffffff1614620002f7576040517f08c379a0000000000000000000000000000000000000000000000000000000008152600401620002ee906200049e565b60405180910390fd5b62000308816200030b60201b60201c565b50565b600073ffffffffffffffffffffffffffffffffffffffff168173ffffffffffffffffffffffffffffffffffffffff16036200037d576040517f08c379a0000000000000000000000000000000000000000000000000000000008152600401620003749062000536565b60405180910390fd5b8073ffffffffffffffffffffffffffffffffffffffff16600060019054906101000a900473ffffffffffffffffffffffffffffffffffffffff1673ffffffffffffffffffffffffffffffffffffffff167f8be0079c531659141344cd1fd0a4f28419497f9722a3daafe3b4186f6b6457e060405160405180910390a380600060016101000a81548173ffffffffffffffffffffffffffffffffffffffff021916908373ffffffffffffffffffffffffffffffffffffffff16021790555050565b600082825260208201905092915050565b7f4f776e61626c653a2063616c6c6572206973206e6f7420746865206f776e6572600082015250565b6000620004866020836200043d565b915062000493826200044e565b602082019050919050565b60006020820190508181036000830152620004b98162000477565b9050919050565b7f4f776e61626c653a206e6577206f776e657220697320746865207a65726f206160008201527f6464726573730000000000000000000000000000000000000000000000000000602082015250565b60006200051e6026836200043d565b91506200052b82620004c0565b604082019050919050565b6000602082019050818103600083015262000551816200050f565b9050919050565b61386180620005686000396000f3fe608060405234801561001057600080fd5b506004361061021c5760003560e01c80639d76ea5811610125578063ce5f6b9f116100ad578063ea6b04801161007c578063ea6b04801461059b578063f0c30e95146105b9578063f19e8d86146105d5578063f2fde38b14610605578063f77f15b5146106215761021c565b8063ce5f6b9f14610527578063d521cf2a14610543578063db48692914610561578063e437239f1461057f5761021c565b8063a46eeb75116100f4578063a46eeb75146104a5578063a7e9f0d1146104c3578063b2288649146104e1578063b6fa5dfd146104ff578063be69d7ff1461051d5761021c565b80639d76ea581461042d5780639ec807021461044b578063a0a7bda814610469578063a308761a146104875761021c565b8063576aaa2b116101a8578063715018a611610177578063715018a61461039b5780637eee9fc1146103a55780638644024b146103c1578063890d542f146103df5780638da5cb5b1461040f5761021c565b8063576aaa2b1461030f5780635a3811b91461032d578063602977ad1461034b578063636ad6a61461037d5761021c565b806317c6332c116101ef57806317c6332c1461026f5780633631ef4a1461028b5780633fc7adb6146102a75780634ba35125146102c357806356e0bd36146102df5761021c565b8063013fc0ab14610221578063130024371461022b5780631598165014610249578063160344e214610265575b600080fd5b61022961062b565b005b6102336106cc565b6040516102409190612dd5565b60405180910390f35b610263600480360381019061025e9190612e32565b6108ec565b005b61026d61098d565b005b61028960048036038101906102849190612e32565b610a41565b005b6102a560048036038101906102a09190612e32565b610ae2565b005b6102c160048036038101906102bc9190612e32565b610ded565b005b6102dd60048036038101906102d89190612e32565b610e8e565b005b6102f960048036038101906102f49190612e32565b610f2f565b6040516103069190612e6e565b60405180910390f35b610317610f6e565b6040516103249190612e98565b60405180910390f35b610335610f7b565b6040516103429190612ece565b60405180910390f35b61036560048036038101906103609190612f15565b610f8e565b60405161037493929190612f42565b60405180910390f35b6103856111c7565b6040516103929190612e98565b60405180910390f35b6103a36111d1565b005b6103bf60048036038101906103ba9190612e32565b611328565b005b6103c9611633565b6040516103d69190612e98565b60405180910390f35b6103f960048036038101906103f49190612e32565b61163d565b6040516104069190612e6e565b60405180910390f35b61041761167c565b6040516104249190612e6e565b60405180910390f35b6104356116a5565b6040516104429190612e6e565b60405180910390f35b6104536116cb565b6040516104609190612e98565b60405180910390f35b6104716116d5565b60405161047e9190612e98565b60405180910390f35b61048f6116e2565b60405161049c9190612e98565b60405180910390f35b6104ad6116ec565b6040516104ba9190612e98565b60405180910390f35b6104cb6116f9565b6040516104d89190612dd5565b60405180910390f35b6104e9611919565b6040516104f69190612e98565b60405180910390f35b6105076119bc565b6040516105149190612fd8565b60405180910390f35b6105256119e2565b005b610541600480360381019061053c9190612e32565b611a83565b005b61054b611dc9565b6040516105589190612dd5565b60405180910390f35b610569611fe9565b6040516105769190612e98565b60405180910390f35b61059960048036038101906105949190612e32565b611ff3565b005b6105a3612094565b6040516105b09190612e98565b60405180910390f35b6105d360048036038101906105ce9190612e32565b61209e565b005b6105ef60048036038101906105ea9190612e32565b61213f565b6040516105fc9190612e6e565b60405180910390f35b61061f600480360381019061061a9190612f15565b61217e565b005b610629612221565b005b6106336122c2565b73ffffffffffffffffffffffffffffffffffffffff16600060019054906101000a900473ffffffffffffffffffffffffffffffffffffffff1673ffffffffffffffffffffffffffffffffffffffff16146106c2576040517f08c379a00000000000000000000000000000000000000000000000000000000081526004016106b990613050565b60405180910390fd5b6106ca6122ca565b565b60606000601167ffffffffffffffff8111156106eb576106ea613070565b5b6040519080825280602002602001820160405280156107195781602001602082028036833780820191505090505b509050600060128054905090506000825190506000600a8311156108045760008390505b600a8461074a91906130ce565b8111156107fe57828061075c90613102565b935050601281815481106107735761077261314a565b5b9060005260206000200160009054906101000a900473ffffffffffffffffffffffffffffffffffffffff168584815181106107b1576107b061314a565b5b602002602001019073ffffffffffffffffffffffffffffffffffffffff16908173ffffffffffffffffffffffffffffffffffffffff168152505080806107f690613179565b91505061073d565b506108e2565b60008390505b60008111156108e057828061081e90613102565b9350506000601260018361083291906130ce565b815481106108435761084261314a565b5b9060005260206000200160009054906101000a900473ffffffffffffffffffffffffffffffffffffffff169050808684815181106108845761088361314a565b5b602002602001019073ffffffffffffffffffffffffffffffffffffffff16908173ffffffffffffffffffffffffffffffffffffffff168152505082806108c990613102565b9350505080806108d890613179565b91505061080a565b505b8394505050505090565b6108f46122c2565b73ffffffffffffffffffffffffffffffffffffffff16600060019054906101000a900473ffffffffffffffffffffffffffffffffffffffff1673ffffffffffffffffffffffffffffffffffffffff1614610983576040517f08c379a000000000000000000000000000000000000000000000000000000000815260040161097a90613050565b60405180910390fd5b8060058190555050565b6109956122c2565b73ffffffffffffffffffffffffffffffffffffffff16600060019054906101000a900473ffffffffffffffffffffffffffffffffffffffff1673ffffffffffffffffffffffffffffffffffffffff1614610a24576040517f08c379a0000000000000000000000000000000000000000000000000000000008152600401610a1b90613050565b60405180910390fd5b6001600f60006101000a81548160ff021916908315150217905550565b610a496122c2565b73ffffffffffffffffffffffffffffffffffffffff16600060019054906101000a900473ffffffffffffffffffffffffffffffffffffffff1673ffffffffffffffffffffffffffffffffffffffff1614610ad8576040517f08c379a0000000000000000000000000000000000000000000000000000000008152600401610acf90613050565b60405180910390fd5b80600b8190555050565b600060019054906101000a900473ffffffffffffffffffffffffffffffffffffffff1673ffffffffffffffffffffffffffffffffffffffff163373ffffffffffffffffffffffffffffffffffffffff1603610b72576040517f08c379a0000000000000000000000000000000000000000000000000000000008152600401610b69906131ee565b60405180910390fd5b60008054906101000a900460ff1615610bc0576040517f08c379a0000000000000000000000000000000000000000000000000000000008152600401610bb79061325a565b60405180910390fd5b60016000806101000a81548160ff021916908315150217905550600f60009054906101000a900460ff16610c29576040517f08c379a0000000000000000000000000000000000000000000000000000000008152600401610c20906132c6565b60405180910390fd5b600d548114610c6d576040517f08c379a0000000000000000000000000000000000000000000000000000000008152600401610c6490613332565b60405180910390fd5b6000601460009054906101000a900473ffffffffffffffffffffffffffffffffffffffff1673ffffffffffffffffffffffffffffffffffffffff166323b872dd3330856040518463ffffffff1660e01b8152600401610cce93929190613352565b6020604051808303816000875af1158015610ced573d6000803e3d6000fd5b505050506040513d601f19601f82011682018060405250810190610d1191906133b5565b90508015610dcf57600b54600c541015610db957600e339080600181540180825580915050600190039060005260206000200160009091909190916101000a81548173ffffffffffffffffffffffffffffffffffffffff021916908373ffffffffffffffffffffffffffffffffffffffff160217905550600c6000815480929190610d9b90613102565b9190505550600b54600c5403610db457610db3612584565b5b610dce565b600b54600c5403610dcd57610dcc612584565b5b5b5b5060008060006101000a81548160ff02191690831515021790555050565b610df56122c2565b73ffffffffffffffffffffffffffffffffffffffff16600060019054906101000a900473ffffffffffffffffffffffffffffffffffffffff1673ffffffffffffffffffffffffffffffffffffffff1614610e84576040517f08c379a0000000000000000000000000000000000000000000000000000000008152600401610e7b90613050565b60405180910390fd5b8060038190555050565b610e966122c2565b73ffffffffffffffffffffffffffffffffffffffff16600060019054906101000a900473ffffffffffffffffffffffffffffffffffffffff1673ffffffffffffffffffffffffffffffffffffffff1614610f25576040517f08c379a0000000000000000000000000000000000000000000000000000000008152600401610f1c90613050565b60405180910390fd5b8060078190555050565b60118181548110610f3f57600080fd5b906000526020600020016000915054906101000a900473ffffffffffffffffffffffffffffffffffffffff1681565b6000600680549050905090565b600f60009054906101000a900460ff1681565b60008060008060009050600080600060068054905090506000811461104d5760005b8181101561104b578873ffffffffffffffffffffffffffffffffffffffff1660068281548110610fe357610fe261314a565b5b9060005260206000200160009054906101000a900473ffffffffffffffffffffffffffffffffffffffff1673ffffffffffffffffffffffffffffffffffffffff160361103857848061103490613102565b9550505b808061104390613102565b915050610fb0565b505b6000600a805490509050600081146110ff5760005b818110156110fd578973ffffffffffffffffffffffffffffffffffffffff16600a82815481106110955761109461314a565b5b9060005260206000200160009054906101000a900473ffffffffffffffffffffffffffffffffffffffff1673ffffffffffffffffffffffffffffffffffffffff16036110ea5784806110e690613102565b9550505b80806110f590613102565b915050611062565b505b6000600e805490509050600081146111b15760005b818110156111af578a73ffffffffffffffffffffffffffffffffffffffff16600682815481106111475761114661314a565b5b9060005260206000200160009054906101000a900473ffffffffffffffffffffffffffffffffffffffff1673ffffffffffffffffffffffffffffffffffffffff160361119c57848061119890613102565b9550505b80806111a790613102565b915050611114565b505b8585859850985098505050505050509193909250565b6000600554905090565b6111d96122c2565b73ffffffffffffffffffffffffffffffffffffffff16600060019054906101000a900473ffffffffffffffffffffffffffffffffffffffff1673ffffffffffffffffffffffffffffffffffffffff1614611268576040517f08c379a000000000000000000000000000000000000000000000000000000000815260040161125f90613050565b60405180910390fd5b600073ffffffffffffffffffffffffffffffffffffffff16600060019054906101000a900473ffffffffffffffffffffffffffffffffffffffff1673ffffffffffffffffffffffffffffffffffffffff167f8be0079c531659141344cd1fd0a4f28419497f9722a3daafe3b4186f6b6457e060405160405180910390a360008060016101000a81548173ffffffffffffffffffffffffffffffffffffffff021916908373ffffffffffffffffffffffffffffffffffffffff160217905550565b600060019054906101000a900473ffffffffffffffffffffffffffffffffffffffff1673ffffffffffffffffffffffffffffffffffffffff163373ffffffffffffffffffffffffffffffffffffffff16036113b8576040517f08c379a00000000000000000000000000000000000000000000000000000000081526004016113af906131ee565b60405180910390fd5b60008054906101000a900460ff1615611406576040517f08c379a00000000000000000000000000000000000000000000000000000000081526004016113fd9061325a565b60405180910390fd5b60016000806101000a81548160ff021916908315150217905550600f60009054906101000a900460ff1661146f576040517f08c379a0000000000000000000000000000000000000000000000000000000008152600401611466906132c6565b60405180910390fd5b60055481146114b3576040517f08c379a00000000000000000000000000000000000000000000000000000000081526004016114aa9061342e565b60405180910390fd5b6000601460009054906101000a900473ffffffffffffffffffffffffffffffffffffffff1673ffffffffffffffffffffffffffffffffffffffff166323b872dd3330856040518463ffffffff1660e01b815260040161151493929190613352565b6020604051808303816000875af1158015611533573d6000803e3d6000fd5b505050506040513d601f19601f8201168201806040525081019061155791906133b5565b905080156116155760035460045410156115ff576006339080600181540180825580915050600190039060005260206000200160009091909190916101000a81548173ffffffffffffffffffffffffffffffffffffffff021916908373ffffffffffffffffffffffffffffffffffffffff160217905550600460008154809291906115e190613102565b9190505550600354600454036115fa576115f961283e565b5b611614565b600354600454036116135761161261283e565b5b5b5b5060008060006101000a81548160ff02191690831515021790555050565b6000600d54905090565b6012818154811061164d57600080fd5b906000526020600020016000915054906101000a900473ffffffffffffffffffffffffffffffffffffffff1681565b60008060019054906101000a900473ffffffffffffffffffffffffffffffffffffffff16905090565b601360009054906101000a900473ffffffffffffffffffffffffffffffffffffffff1681565b6000600354905090565b6000600e80549050905090565b6000600754905090565b6000600a80549050905090565b60606000601167ffffffffffffffff81111561171857611717613070565b5b6040519080825280602002602001820160405280156117465781602001602082028036833780820191505090505b509050600060108054905090506000825190506000600a8311156118315760008390505b600a8461177791906130ce565b81111561182b57828061178990613102565b935050601081815481106117a05761179f61314a565b5b9060005260206000200160009054906101000a900473ffffffffffffffffffffffffffffffffffffffff168584815181106117de576117dd61314a565b5b602002602001019073ffffffffffffffffffffffffffffffffffffffff16908173ffffffffffffffffffffffffffffffffffffffff1681525050808061182390613179565b91505061176a565b5061190f565b60008390505b600081111561190d57828061184b90613102565b9350506000601060018361185f91906130ce565b815481106118705761186f61314a565b5b9060005260206000200160009054906101000a900473ffffffffffffffffffffffffffffffffffffffff169050808684815181106118b1576118b061314a565b5b602002602001019073ffffffffffffffffffffffffffffffffffffffff16908173ffffffffffffffffffffffffffffffffffffffff168152505082806118f690613102565b93505050808061190590613179565b915050611837565b505b8394505050505090565b6000601460009054906101000a900473ffffffffffffffffffffffffffffffffffffffff1673ffffffffffffffffffffffffffffffffffffffff166370a08231306040518263ffffffff1660e01b81526004016119769190612e6e565b602060405180830381865afa158015611993573d6000803e3d6000fd5b505050506040513d601f19601f820116820180604052508101906119b79190613463565b905090565b601460009054906101000a900473ffffffffffffffffffffffffffffffffffffffff1681565b6119ea6122c2565b73ffffffffffffffffffffffffffffffffffffffff16600060019054906101000a900473ffffffffffffffffffffffffffffffffffffffff1673ffffffffffffffffffffffffffffffffffffffff1614611a79576040517f08c379a0000000000000000000000000000000000000000000000000000000008152600401611a7090613050565b60405180910390fd5b611a81612584565b565b600060019054906101000a900473ffffffffffffffffffffffffffffffffffffffff1673ffffffffffffffffffffffffffffffffffffffff163373ffffffffffffffffffffffffffffffffffffffff1603611b13576040517f08c379a0000000000000000000000000000000000000000000000000000000008152600401611b0a906131ee565b60405180910390fd5b60008054906101000a900460ff1615611b61576040517f08c379a0000000000000000000000000000000000000000000000000000000008152600401611b589061325a565b60405180910390fd5b60016000806101000a81548160ff021916908315150217905550600f60009054906101000a900460ff16611bca576040517f08c379a0000000000000000000000000000000000000000000000000000000008152600401611bc1906132c6565b60405180910390fd5b7fa3de883741aefa0083d54de95483572ad5eaa074b33a0ae8dc98725d52cf814381600954604051611bfd929190613490565b60405180910390a16009548114611c49576040517f08c379a0000000000000000000000000000000000000000000000000000000008152600401611c409061342e565b60405180910390fd5b6000601460009054906101000a900473ffffffffffffffffffffffffffffffffffffffff1673ffffffffffffffffffffffffffffffffffffffff166323b872dd3330856040518463ffffffff1660e01b8152600401611caa93929190613352565b6020604051808303816000875af1158015611cc9573d6000803e3d6000fd5b505050506040513d601f19601f82011682018060405250810190611ced91906133b5565b90508015611dab576007546008541015611d9557600a339080600181540180825580915050600190039060005260206000200160009091909190916101000a81548173ffffffffffffffffffffffffffffffffffffffff021916908373ffffffffffffffffffffffffffffffffffffffff16021790555060086000815480929190611d7790613102565b919050555060075460085403611d9057611d8f6122ca565b5b611daa565b60075460085403611da957611da86122ca565b5b5b5b5060008060006101000a81548160ff02191690831515021790555050565b60606000601167ffffffffffffffff811115611de857611de7613070565b5b604051908082528060200260200182016040528015611e165781602001602082028036833780820191505090505b509050600060118054905090506000825190506000600a831115611f015760008390505b600a84611e4791906130ce565b811115611efb578280611e5990613102565b93505060118181548110611e7057611e6f61314a565b5b9060005260206000200160009054906101000a900473ffffffffffffffffffffffffffffffffffffffff16858481518110611eae57611ead61314a565b5b602002602001019073ffffffffffffffffffffffffffffffffffffffff16908173ffffffffffffffffffffffffffffffffffffffff16815250508080611ef390613179565b915050611e3a565b50611fdf565b60008390505b6000811115611fdd578280611f1b90613102565b93505060006011600183611f2f91906130ce565b81548110611f4057611f3f61314a565b5b9060005260206000200160009054906101000a900473ffffffffffffffffffffffffffffffffffffffff16905080868481518110611f8157611f8061314a565b5b602002602001019073ffffffffffffffffffffffffffffffffffffffff16908173ffffffffffffffffffffffffffffffffffffffff16815250508280611fc690613102565b935050508080611fd590613179565b915050611f07565b505b8394505050505090565b6000600b54905090565b611ffb6122c2565b73ffffffffffffffffffffffffffffffffffffffff16600060019054906101000a900473ffffffffffffffffffffffffffffffffffffffff1673ffffffffffffffffffffffffffffffffffffffff161461208a576040517f08c379a000000000000000000000000000000000000000000000000000000000815260040161208190613050565b60405180910390fd5b8060098190555050565b6000600954905090565b6120a66122c2565b73ffffffffffffffffffffffffffffffffffffffff16600060019054906101000a900473ffffffffffffffffffffffffffffffffffffffff1673ffffffffffffffffffffffffffffffffffffffff1614612135576040517f08c379a000000000000000000000000000000000000000000000000000000000815260040161212c90613050565b60405180910390fd5b80600d8190555050565b6010818154811061214f57600080fd5b906000526020600020016000915054906101000a900473ffffffffffffffffffffffffffffffffffffffff1681565b6121866122c2565b73ffffffffffffffffffffffffffffffffffffffff16600060019054906101000a900473ffffffffffffffffffffffffffffffffffffffff1673ffffffffffffffffffffffffffffffffffffffff1614612215576040517f08c379a000000000000000000000000000000000000000000000000000000000815260040161220c90613050565b60405180910390fd5b61221e81612afe565b50565b6122296122c2565b73ffffffffffffffffffffffffffffffffffffffff16600060019054906101000a900473ffffffffffffffffffffffffffffffffffffffff1673ffffffffffffffffffffffffffffffffffffffff16146122b8576040517f08c379a00000000000000000000000000000000000000000000000000000000081526004016122af90613050565b60405180910390fd5b6122c061283e565b565b600033905090565b6000600a805490506122da612c2d565b6122e491906134e8565b90506000600a805490506009546122fb9190613519565b9050600061231561230e83600254612c65565b6064612c7b565b9050601460009054906101000a900473ffffffffffffffffffffffffffffffffffffffff1673ffffffffffffffffffffffffffffffffffffffff1663a9059cbb600160009054906101000a900473ffffffffffffffffffffffffffffffffffffffff16836040518363ffffffff1660e01b8152600401612396929190613573565b6020604051808303816000875af11580156123b5573d6000803e3d6000fd5b505050506040513d601f19601f820116820180604052508101906123d991906133b5565b5060006123e68383612c91565b9050601460009054906101000a900473ffffffffffffffffffffffffffffffffffffffff1673ffffffffffffffffffffffffffffffffffffffff1663a9059cbb600a868154811061243a5761243961314a565b5b9060005260206000200160009054906101000a900473ffffffffffffffffffffffffffffffffffffffff16836040518363ffffffff1660e01b81526004016124839291906135bd565b6020604051808303816000875af11580156124a2573d6000803e3d6000fd5b505050506040513d601f19601f820116820180604052508101906124c691906133b5565b506011600a85815481106124dd576124dc61314a565b5b9060005260206000200160009054906101000a900473ffffffffffffffffffffffffffffffffffffffff169080600181540180825580915050600190039060005260206000200160009091909190916101000a81548173ffffffffffffffffffffffffffffffffffffffff021916908373ffffffffffffffffffffffffffffffffffffffff160217905550600a60006125769190612ca7565b600060088190555050505050565b6000600e80549050612594612c2d565b61259e91906134e8565b90506000600e80549050600d546125b59190613519565b905060006125cf6125c883600254612c65565b6064612c7b565b9050601460009054906101000a900473ffffffffffffffffffffffffffffffffffffffff1673ffffffffffffffffffffffffffffffffffffffff1663a9059cbb600160009054906101000a900473ffffffffffffffffffffffffffffffffffffffff16836040518363ffffffff1660e01b8152600401612650929190613573565b6020604051808303816000875af115801561266f573d6000803e3d6000fd5b505050506040513d601f19601f8201168201806040525081019061269391906133b5565b5060006126a08383612c91565b9050601460009054906101000a900473ffffffffffffffffffffffffffffffffffffffff1673ffffffffffffffffffffffffffffffffffffffff1663a9059cbb600e86815481106126f4576126f361314a565b5b9060005260206000200160009054906101000a900473ffffffffffffffffffffffffffffffffffffffff16836040518363ffffffff1660e01b815260040161273d9291906135bd565b6020604051808303816000875af115801561275c573d6000803e3d6000fd5b505050506040513d601f19601f8201168201806040525081019061278091906133b5565b506012600e85815481106127975761279661314a565b5b9060005260206000200160009054906101000a900473ffffffffffffffffffffffffffffffffffffffff169080600181540180825580915050600190039060005260206000200160009091909190916101000a81548173ffffffffffffffffffffffffffffffffffffffff021916908373ffffffffffffffffffffffffffffffffffffffff160217905550600e60006128309190612ca7565b6000600c8190555050505050565b600060068054905061284e612c2d565b61285891906134e8565b9050600060068054905090506000816005546128749190613519565b9050600061288e61288783600254612c65565b6064612c7b565b9050601460009054906101000a900473ffffffffffffffffffffffffffffffffffffffff1673ffffffffffffffffffffffffffffffffffffffff1663a9059cbb600160009054906101000a900473ffffffffffffffffffffffffffffffffffffffff16836040518363ffffffff1660e01b815260040161290f929190613573565b6020604051808303816000875af115801561292e573d6000803e3d6000fd5b505050506040513d601f19601f8201168201806040525081019061295291906133b5565b50600061295f8383612c91565b9050601460009054906101000a900473ffffffffffffffffffffffffffffffffffffffff1673ffffffffffffffffffffffffffffffffffffffff1663a9059cbb600687815481106129b3576129b261314a565b5b9060005260206000200160009054906101000a900473ffffffffffffffffffffffffffffffffffffffff16836040518363ffffffff1660e01b81526004016129fc9291906135bd565b6020604051808303816000875af1158015612a1b573d6000803e3d6000fd5b505050506040513d601f19601f82011682018060405250810190612a3f91906133b5565b50601060068681548110612a5657612a5561314a565b5b9060005260206000200160009054906101000a900473ffffffffffffffffffffffffffffffffffffffff169080600181540180825580915050600190039060005260206000200160009091909190916101000a81548173ffffffffffffffffffffffffffffffffffffffff021916908373ffffffffffffffffffffffffffffffffffffffff16021790555060066000612aef9190612ca7565b60006004819055505050505050565b600073ffffffffffffffffffffffffffffffffffffffff168173ffffffffffffffffffffffffffffffffffffffff1603612b6d576040517f08c379a0000000000000000000000000000000000000000000000000000000008152600401612b6490613658565b60405180910390fd5b8073ffffffffffffffffffffffffffffffffffffffff16600060019054906101000a900473ffffffffffffffffffffffffffffffffffffffff1673ffffffffffffffffffffffffffffffffffffffff167f8be0079c531659141344cd1fd0a4f28419497f9722a3daafe3b4186f6b6457e060405160405180910390a380600060016101000a81548173ffffffffffffffffffffffffffffffffffffffff021916908373ffffffffffffffffffffffffffffffffffffffff16021790555050565b60004442600643604051602001612c4794939291906137ae565b6040516020818303038152906040528051906020012060001c905090565b60008183612c739190613519565b905092915050565b60008183612c8991906137fa565b905092915050565b60008183612c9f91906130ce565b905092915050565b5080546000825590600052602060002090810190612cc59190612cc8565b50565b5b80821115612ce1576000816000905550600101612cc9565b5090565b600081519050919050565b600082825260208201905092915050565b6000819050602082019050919050565b600073ffffffffffffffffffffffffffffffffffffffff82169050919050565b6000612d3c82612d11565b9050919050565b612d4c81612d31565b82525050565b6000612d5e8383612d43565b60208301905092915050565b6000602082019050919050565b6000612d8282612ce5565b612d8c8185612cf0565b9350612d9783612d01565b8060005b83811015612dc8578151612daf8882612d52565b9750612dba83612d6a565b925050600181019050612d9b565b5085935050505092915050565b60006020820190508181036000830152612def8184612d77565b905092915050565b600080fd5b6000819050919050565b612e0f81612dfc565b8114612e1a57600080fd5b50565b600081359050612e2c81612e06565b92915050565b600060208284031215612e4857612e47612df7565b5b6000612e5684828501612e1d565b91505092915050565b612e6881612d31565b82525050565b6000602082019050612e836000830184612e5f565b92915050565b612e9281612dfc565b82525050565b6000602082019050612ead6000830184612e89565b92915050565b60008115159050919050565b612ec881612eb3565b82525050565b6000602082019050612ee36000830184612ebf565b92915050565b612ef281612d31565b8114612efd57600080fd5b50565b600081359050612f0f81612ee9565b92915050565b600060208284031215612f2b57612f2a612df7565b5b6000612f3984828501612f00565b91505092915050565b6000606082019050612f576000830186612e89565b612f646020830185612e89565b612f716040830184612e89565b949350505050565b6000819050919050565b6000612f9e612f99612f9484612d11565b612f79565b612d11565b9050919050565b6000612fb082612f83565b9050919050565b6000612fc282612fa5565b9050919050565b612fd281612fb7565b82525050565b6000602082019050612fed6000830184612fc9565b92915050565b600082825260208201905092915050565b7f4f776e61626c653a2063616c6c6572206973206e6f7420746865206f776e6572600082015250565b600061303a602083612ff3565b915061304582613004565b602082019050919050565b600060208201905081810360008301526130698161302d565b9050919050565b7f4e487b7100000000000000000000000000000000000000000000000000000000600052604160045260246000fd5b7f4e487b7100000000000000000000000000000000000000000000000000000000600052601160045260246000fd5b60006130d982612dfc565b91506130e483612dfc565b92508282039050818111156130fc576130fb61309f565b5b92915050565b600061310d82612dfc565b91507fffffffffffffffffffffffffffffffffffffffffffffffffffffffffffffffff820361313f5761313e61309f565b5b600182019050919050565b7f4e487b7100000000000000000000000000000000000000000000000000000000600052603260045260246000fd5b600061318482612dfc565b9150600082036131975761319661309f565b5b600182039050919050565b7f4163636573732064656e69656421000000000000000000000000000000000000600082015250565b60006131d8600e83612ff3565b91506131e3826131a2565b602082019050919050565b60006020820190508181036000830152613207816131cb565b9050919050565b7f4e6f2072652d656e7472616e6379000000000000000000000000000000000000600082015250565b6000613244600e83612ff3565b915061324f8261320e565b602082019050919050565b6000602082019050818103600083015261327381613237565b9050919050565b7f4c6f7474657279206973206e6f74207374617274656420796574000000000000600082015250565b60006132b0601a83612ff3565b91506132bb8261327a565b602082019050919050565b600060208201905081810360008301526132df816132a3565b9050919050565b7f4e6f742053616d65000000000000000000000000000000000000000000000000600082015250565b600061331c600883612ff3565b9150613327826132e6565b602082019050919050565b6000602082019050818103600083015261334b8161330f565b9050919050565b60006060820190506133676000830186612e5f565b6133746020830185612e5f565b6133816040830184612e89565b949350505050565b61339281612eb3565b811461339d57600080fd5b50565b6000815190506133af81613389565b92915050565b6000602082840312156133cb576133ca612df7565b5b60006133d9848285016133a0565b91505092915050565b7f4e6f742073616d6520616d6f756e740000000000000000000000000000000000600082015250565b6000613418600f83612ff3565b9150613423826133e2565b602082019050919050565b600060208201905081810360008301526134478161340b565b9050919050565b60008151905061345d81612e06565b92915050565b60006020828403121561347957613478612df7565b5b60006134878482850161344e565b91505092915050565b60006040820190506134a56000830185612e89565b6134b26020830184612e89565b9392505050565b7f4e487b7100000000000000000000000000000000000000000000000000000000600052601260045260246000fd5b60006134f382612dfc565b91506134fe83612dfc565b92508261350e5761350d6134b9565b5b828206905092915050565b600061352482612dfc565b915061352f83612dfc565b9250817fffffffffffffffffffffffffffffffffffffffffffffffffffffffffffffffff04831182151516156135685761356761309f565b5b828202905092915050565b60006040820190506135886000830185612e5f565b6135956020830184612e89565b9392505050565b60006135a782612fa5565b9050919050565b6135b78161359c565b82525050565b60006040820190506135d260008301856135ae565b6135df6020830184612e89565b9392505050565b7f4f776e61626c653a206e6577206f776e657220697320746865207a65726f206160008201527f6464726573730000000000000000000000000000000000000000000000000000602082015250565b6000613642602683612ff3565b915061364d826135e6565b604082019050919050565b6000602082019050818103600083015261367181613635565b9050919050565b600081549050919050565b600082825260208201905092915050565b60008190508160005260206000209050919050565b60006136b482612d11565b9050919050565b6136c4816136a9565b82525050565b60006136d683836136bb565b60208301905092915050565b60008160001c9050919050565b600073ffffffffffffffffffffffffffffffffffffffff82169050919050565b600061372261371d836136e2565b6136ef565b9050919050565b6000613735825461370f565b9050919050565b6000600182019050919050565b600061375482613678565b61375e8185613683565b935061376983613694565b8060005b838110156137a15761377e82613729565b61378888826136ca565b97506137938361373c565b92505060018101905061376d565b5085935050505092915050565b60006080820190506137c36000830187612e89565b6137d06020830186612e89565b81810360408301526137e28185613749565b90506137f16060830184612e89565b95945050505050565b600061380582612dfc565b915061381083612dfc565b9250826138205761381f6134b9565b5b82820490509291505056fea2646970667358221220fb173f3ae7a805a7d600884a791c1500bfdbaf8efe1880383c5abad2b244389e64736f6c63430008100033",
			"opcodes": "PUSH1 0x80 PUSH1 0x40 MSTORE PUSH20 0x237C00F9142C2BA9858C7F5D622DF429F870E850 PUSH1 0x1 PUSH1 0x0 PUSH2 0x100 EXP DUP2 SLOAD DUP2 PUSH20 0xFFFFFFFFFFFFFFFFFFFFFFFFFFFFFFFFFFFFFFFF MUL NOT AND SWAP1 DUP4 PUSH20 0xFFFFFFFFFFFFFFFFFFFFFFFFFFFFFFFFFFFFFFFF AND MUL OR SWAP1 SSTORE POP PUSH1 0x1E PUSH1 0x2 SSTORE PUSH1 0x0 PUSH1 0xF PUSH1 0x0 PUSH2 0x100 EXP DUP2 SLOAD DUP2 PUSH1 0xFF MUL NOT AND SWAP1 DUP4 ISZERO ISZERO MUL OR SWAP1 SSTORE POP CALLVALUE DUP1 ISZERO PUSH3 0x86 JUMPI PUSH1 0x0 DUP1 REVERT JUMPDEST POP PUSH1 0x0 PUSH3 0x99 PUSH3 0x24D PUSH1 0x20 SHL PUSH1 0x20 SHR JUMP JUMPDEST SWAP1 POP DUP1 PUSH1 0x0 PUSH1 0x1 PUSH2 0x100 EXP DUP2 SLOAD DUP2 PUSH20 0xFFFFFFFFFFFFFFFFFFFFFFFFFFFFFFFFFFFFFFFF MUL NOT AND SWAP1 DUP4 PUSH20 0xFFFFFFFFFFFFFFFFFFFFFFFFFFFFFFFFFFFFFFFF AND MUL OR SWAP1 SSTORE POP DUP1 PUSH20 0xFFFFFFFFFFFFFFFFFFFFFFFFFFFFFFFFFFFFFFFF AND PUSH1 0x0 PUSH20 0xFFFFFFFFFFFFFFFFFFFFFFFFFFFFFFFFFFFFFFFF AND PUSH32 0x8BE0079C531659141344CD1FD0A4F28419497F9722A3DAAFE3B4186F6B6457E0 PUSH1 0x40 MLOAD PUSH1 0x40 MLOAD DUP1 SWAP2 SUB SWAP1 LOG3 POP PUSH3 0x149 CALLER PUSH3 0x255 PUSH1 0x20 SHL PUSH1 0x20 SHR JUMP JUMPDEST PUSH1 0x64 PUSH1 0x3 DUP2 SWAP1 SSTORE POP PUSH8 0xDE0B6B3A7640000 PUSH1 0x5 DUP2 SWAP1 SSTORE POP PUSH1 0x14 PUSH1 0x7 DUP2 SWAP1 SSTORE POP PUSH8 0x8AC7230489E80000 PUSH1 0x9 DUP2 SWAP1 SSTORE POP PUSH1 0x3 PUSH1 0xB DUP2 SWAP1 SSTORE POP PUSH9 0x56BC75E2D63100000 PUSH1 0xD DUP2 SWAP1 SSTORE POP PUSH20 0xE9E7CEA3DEDCA5984780BAFC599BD69ADD087D56 PUSH1 0x13 PUSH1 0x0 PUSH2 0x100 EXP DUP2 SLOAD DUP2 PUSH20 0xFFFFFFFFFFFFFFFFFFFFFFFFFFFFFFFFFFFFFFFF MUL NOT AND SWAP1 DUP4 PUSH20 0xFFFFFFFFFFFFFFFFFFFFFFFFFFFFFFFFFFFFFFFF AND MUL OR SWAP1 SSTORE POP PUSH1 0x13 PUSH1 0x0 SWAP1 SLOAD SWAP1 PUSH2 0x100 EXP SWAP1 DIV PUSH20 0xFFFFFFFFFFFFFFFFFFFFFFFFFFFFFFFFFFFFFFFF AND PUSH1 0x14 PUSH1 0x0 PUSH2 0x100 EXP DUP2 SLOAD DUP2 PUSH20 0xFFFFFFFFFFFFFFFFFFFFFFFFFFFFFFFFFFFFFFFF MUL NOT AND SWAP1 DUP4 PUSH20 0xFFFFFFFFFFFFFFFFFFFFFFFFFFFFFFFFFFFFFFFF AND MUL OR SWAP1 SSTORE POP PUSH3 0x558 JUMP JUMPDEST PUSH1 0x0 CALLER SWAP1 POP SWAP1 JUMP JUMPDEST PUSH3 0x265 PUSH3 0x24D PUSH1 0x20 SHL PUSH1 0x20 SHR JUMP JUMPDEST PUSH20 0xFFFFFFFFFFFFFFFFFFFFFFFFFFFFFFFFFFFFFFFF AND PUSH1 0x0 PUSH1 0x1 SWAP1 SLOAD SWAP1 PUSH2 0x100 EXP SWAP1 DIV PUSH20 0xFFFFFFFFFFFFFFFFFFFFFFFFFFFFFFFFFFFFFFFF AND PUSH20 0xFFFFFFFFFFFFFFFFFFFFFFFFFFFFFFFFFFFFFFFF AND EQ PUSH3 0x2F7 JUMPI PUSH1 0x40 MLOAD PUSH32 0x8C379A000000000000000000000000000000000000000000000000000000000 DUP2 MSTORE PUSH1 0x4 ADD PUSH3 0x2EE SWAP1 PUSH3 0x49E JUMP JUMPDEST PUSH1 0x40 MLOAD DUP1 SWAP2 SUB SWAP1 REVERT JUMPDEST PUSH3 0x308 DUP2 PUSH3 0x30B PUSH1 0x20 SHL PUSH1 0x20 SHR JUMP JUMPDEST POP JUMP JUMPDEST PUSH1 0x0 PUSH20 0xFFFFFFFFFFFFFFFFFFFFFFFFFFFFFFFFFFFFFFFF AND DUP2 PUSH20 0xFFFFFFFFFFFFFFFFFFFFFFFFFFFFFFFFFFFFFFFF AND SUB PUSH3 0x37D JUMPI PUSH1 0x40 MLOAD PUSH32 0x8C379A000000000000000000000000000000000000000000000000000000000 DUP2 MSTORE PUSH1 0x4 ADD PUSH3 0x374 SWAP1 PUSH3 0x536 JUMP JUMPDEST PUSH1 0x40 MLOAD DUP1 SWAP2 SUB SWAP1 REVERT JUMPDEST DUP1 PUSH20 0xFFFFFFFFFFFFFFFFFFFFFFFFFFFFFFFFFFFFFFFF AND PUSH1 0x0 PUSH1 0x1 SWAP1 SLOAD SWAP1 PUSH2 0x100 EXP SWAP1 DIV PUSH20 0xFFFFFFFFFFFFFFFFFFFFFFFFFFFFFFFFFFFFFFFF AND PUSH20 0xFFFFFFFFFFFFFFFFFFFFFFFFFFFFFFFFFFFFFFFF AND PUSH32 0x8BE0079C531659141344CD1FD0A4F28419497F9722A3DAAFE3B4186F6B6457E0 PUSH1 0x40 MLOAD PUSH1 0x40 MLOAD DUP1 SWAP2 SUB SWAP1 LOG3 DUP1 PUSH1 0x0 PUSH1 0x1 PUSH2 0x100 EXP DUP2 SLOAD DUP2 PUSH20 0xFFFFFFFFFFFFFFFFFFFFFFFFFFFFFFFFFFFFFFFF MUL NOT AND SWAP1 DUP4 PUSH20 0xFFFFFFFFFFFFFFFFFFFFFFFFFFFFFFFFFFFFFFFF AND MUL OR SWAP1 SSTORE POP POP JUMP JUMPDEST PUSH1 0x0 DUP3 DUP3 MSTORE PUSH1 0x20 DUP3 ADD SWAP1 POP SWAP3 SWAP2 POP POP JUMP JUMPDEST PUSH32 0x4F776E61626C653A2063616C6C6572206973206E6F7420746865206F776E6572 PUSH1 0x0 DUP3 ADD MSTORE POP JUMP JUMPDEST PUSH1 0x0 PUSH3 0x486 PUSH1 0x20 DUP4 PUSH3 0x43D JUMP JUMPDEST SWAP2 POP PUSH3 0x493 DUP3 PUSH3 0x44E JUMP JUMPDEST PUSH1 0x20 DUP3 ADD SWAP1 POP SWAP2 SWAP1 POP JUMP JUMPDEST PUSH1 0x0 PUSH1 0x20 DUP3 ADD SWAP1 POP DUP2 DUP2 SUB PUSH1 0x0 DUP4 ADD MSTORE PUSH3 0x4B9 DUP2 PUSH3 0x477 JUMP JUMPDEST SWAP1 POP SWAP2 SWAP1 POP JUMP JUMPDEST PUSH32 0x4F776E61626C653A206E6577206F776E657220697320746865207A65726F2061 PUSH1 0x0 DUP3 ADD MSTORE PUSH32 0x6464726573730000000000000000000000000000000000000000000000000000 PUSH1 0x20 DUP3 ADD MSTORE POP JUMP JUMPDEST PUSH1 0x0 PUSH3 0x51E PUSH1 0x26 DUP4 PUSH3 0x43D JUMP JUMPDEST SWAP2 POP PUSH3 0x52B DUP3 PUSH3 0x4C0 JUMP JUMPDEST PUSH1 0x40 DUP3 ADD SWAP1 POP SWAP2 SWAP1 POP JUMP JUMPDEST PUSH1 0x0 PUSH1 0x20 DUP3 ADD SWAP1 POP DUP2 DUP2 SUB PUSH1 0x0 DUP4 ADD MSTORE PUSH3 0x551 DUP2 PUSH3 0x50F JUMP JUMPDEST SWAP1 POP SWAP2 SWAP1 POP JUMP JUMPDEST PUSH2 0x3861 DUP1 PUSH3 0x568 PUSH1 0x0 CODECOPY PUSH1 0x0 RETURN INVALID PUSH1 0x80 PUSH1 0x40 MSTORE CALLVALUE DUP1 ISZERO PUSH2 0x10 JUMPI PUSH1 0x0 DUP1 REVERT JUMPDEST POP PUSH1 0x4 CALLDATASIZE LT PUSH2 0x21C JUMPI PUSH1 0x0 CALLDATALOAD PUSH1 0xE0 SHR DUP1 PUSH4 0x9D76EA58 GT PUSH2 0x125 JUMPI DUP1 PUSH4 0xCE5F6B9F GT PUSH2 0xAD JUMPI DUP1 PUSH4 0xEA6B0480 GT PUSH2 0x7C JUMPI DUP1 PUSH4 0xEA6B0480 EQ PUSH2 0x59B JUMPI DUP1 PUSH4 0xF0C30E95 EQ PUSH2 0x5B9 JUMPI DUP1 PUSH4 0xF19E8D86 EQ PUSH2 0x5D5 JUMPI DUP1 PUSH4 0xF2FDE38B EQ PUSH2 0x605 JUMPI DUP1 PUSH4 0xF77F15B5 EQ PUSH2 0x621 JUMPI PUSH2 0x21C JUMP JUMPDEST DUP1 PUSH4 0xCE5F6B9F EQ PUSH2 0x527 JUMPI DUP1 PUSH4 0xD521CF2A EQ PUSH2 0x543 JUMPI DUP1 PUSH4 0xDB486929 EQ PUSH2 0x561 JUMPI DUP1 PUSH4 0xE437239F EQ PUSH2 0x57F JUMPI PUSH2 0x21C JUMP JUMPDEST DUP1 PUSH4 0xA46EEB75 GT PUSH2 0xF4 JUMPI DUP1 PUSH4 0xA46EEB75 EQ PUSH2 0x4A5 JUMPI DUP1 PUSH4 0xA7E9F0D1 EQ PUSH2 0x4C3 JUMPI DUP1 PUSH4 0xB2288649 EQ PUSH2 0x4E1 JUMPI DUP1 PUSH4 0xB6FA5DFD EQ PUSH2 0x4FF JUMPI DUP1 PUSH4 0xBE69D7FF EQ PUSH2 0x51D JUMPI PUSH2 0x21C JUMP JUMPDEST DUP1 PUSH4 0x9D76EA58 EQ PUSH2 0x42D JUMPI DUP1 PUSH4 0x9EC80702 EQ PUSH2 0x44B JUMPI DUP1 PUSH4 0xA0A7BDA8 EQ PUSH2 0x469 JUMPI DUP1 PUSH4 0xA308761A EQ PUSH2 0x487 JUMPI PUSH2 0x21C JUMP JUMPDEST DUP1 PUSH4 0x576AAA2B GT PUSH2 0x1A8 JUMPI DUP1 PUSH4 0x715018A6 GT PUSH2 0x177 JUMPI DUP1 PUSH4 0x715018A6 EQ PUSH2 0x39B JUMPI DUP1 PUSH4 0x7EEE9FC1 EQ PUSH2 0x3A5 JUMPI DUP1 PUSH4 0x8644024B EQ PUSH2 0x3C1 JUMPI DUP1 PUSH4 0x890D542F EQ PUSH2 0x3DF JUMPI DUP1 PUSH4 0x8DA5CB5B EQ PUSH2 0x40F JUMPI PUSH2 0x21C JUMP JUMPDEST DUP1 PUSH4 0x576AAA2B EQ PUSH2 0x30F JUMPI DUP1 PUSH4 0x5A3811B9 EQ PUSH2 0x32D JUMPI DUP1 PUSH4 0x602977AD EQ PUSH2 0x34B JUMPI DUP1 PUSH4 0x636AD6A6 EQ PUSH2 0x37D JUMPI PUSH2 0x21C JUMP JUMPDEST DUP1 PUSH4 0x17C6332C GT PUSH2 0x1EF JUMPI DUP1 PUSH4 0x17C6332C EQ PUSH2 0x26F JUMPI DUP1 PUSH4 0x3631EF4A EQ PUSH2 0x28B JUMPI DUP1 PUSH4 0x3FC7ADB6 EQ PUSH2 0x2A7 JUMPI DUP1 PUSH4 0x4BA35125 EQ PUSH2 0x2C3 JUMPI DUP1 PUSH4 0x56E0BD36 EQ PUSH2 0x2DF JUMPI PUSH2 0x21C JUMP JUMPDEST DUP1 PUSH4 0x13FC0AB EQ PUSH2 0x221 JUMPI DUP1 PUSH4 0x13002437 EQ PUSH2 0x22B JUMPI DUP1 PUSH4 0x15981650 EQ PUSH2 0x249 JUMPI DUP1 PUSH4 0x160344E2 EQ PUSH2 0x265 JUMPI JUMPDEST PUSH1 0x0 DUP1 REVERT JUMPDEST PUSH2 0x229 PUSH2 0x62B JUMP JUMPDEST STOP JUMPDEST PUSH2 0x233 PUSH2 0x6CC JUMP JUMPDEST PUSH1 0x40 MLOAD PUSH2 0x240 SWAP2 SWAP1 PUSH2 0x2DD5 JUMP JUMPDEST PUSH1 0x40 MLOAD DUP1 SWAP2 SUB SWAP1 RETURN JUMPDEST PUSH2 0x263 PUSH1 0x4 DUP1 CALLDATASIZE SUB DUP2 ADD SWAP1 PUSH2 0x25E SWAP2 SWAP1 PUSH2 0x2E32 JUMP JUMPDEST PUSH2 0x8EC JUMP JUMPDEST STOP JUMPDEST PUSH2 0x26D PUSH2 0x98D JUMP JUMPDEST STOP JUMPDEST PUSH2 0x289 PUSH1 0x4 DUP1 CALLDATASIZE SUB DUP2 ADD SWAP1 PUSH2 0x284 SWAP2 SWAP1 PUSH2 0x2E32 JUMP JUMPDEST PUSH2 0xA41 JUMP JUMPDEST STOP JUMPDEST PUSH2 0x2A5 PUSH1 0x4 DUP1 CALLDATASIZE SUB DUP2 ADD SWAP1 PUSH2 0x2A0 SWAP2 SWAP1 PUSH2 0x2E32 JUMP JUMPDEST PUSH2 0xAE2 JUMP JUMPDEST STOP JUMPDEST PUSH2 0x2C1 PUSH1 0x4 DUP1 CALLDATASIZE SUB DUP2 ADD SWAP1 PUSH2 0x2BC SWAP2 SWAP1 PUSH2 0x2E32 JUMP JUMPDEST PUSH2 0xDED JUMP JUMPDEST STOP JUMPDEST PUSH2 0x2DD PUSH1 0x4 DUP1 CALLDATASIZE SUB DUP2 ADD SWAP1 PUSH2 0x2D8 SWAP2 SWAP1 PUSH2 0x2E32 JUMP JUMPDEST PUSH2 0xE8E JUMP JUMPDEST STOP JUMPDEST PUSH2 0x2F9 PUSH1 0x4 DUP1 CALLDATASIZE SUB DUP2 ADD SWAP1 PUSH2 0x2F4 SWAP2 SWAP1 PUSH2 0x2E32 JUMP JUMPDEST PUSH2 0xF2F JUMP JUMPDEST PUSH1 0x40 MLOAD PUSH2 0x306 SWAP2 SWAP1 PUSH2 0x2E6E JUMP JUMPDEST PUSH1 0x40 MLOAD DUP1 SWAP2 SUB SWAP1 RETURN JUMPDEST PUSH2 0x317 PUSH2 0xF6E JUMP JUMPDEST PUSH1 0x40 MLOAD PUSH2 0x324 SWAP2 SWAP1 PUSH2 0x2E98 JUMP JUMPDEST PUSH1 0x40 MLOAD DUP1 SWAP2 SUB SWAP1 RETURN JUMPDEST PUSH2 0x335 PUSH2 0xF7B JUMP JUMPDEST PUSH1 0x40 MLOAD PUSH2 0x342 SWAP2 SWAP1 PUSH2 0x2ECE JUMP JUMPDEST PUSH1 0x40 MLOAD DUP1 SWAP2 SUB SWAP1 RETURN JUMPDEST PUSH2 0x365 PUSH1 0x4 DUP1 CALLDATASIZE SUB DUP2 ADD SWAP1 PUSH2 0x360 SWAP2 SWAP1 PUSH2 0x2F15 JUMP JUMPDEST PUSH2 0xF8E JUMP JUMPDEST PUSH1 0x40 MLOAD PUSH2 0x374 SWAP4 SWAP3 SWAP2 SWAP1 PUSH2 0x2F42 JUMP JUMPDEST PUSH1 0x40 MLOAD DUP1 SWAP2 SUB SWAP1 RETURN JUMPDEST PUSH2 0x385 PUSH2 0x11C7 JUMP JUMPDEST PUSH1 0x40 MLOAD PUSH2 0x392 SWAP2 SWAP1 PUSH2 0x2E98 JUMP JUMPDEST PUSH1 0x40 MLOAD DUP1 SWAP2 SUB SWAP1 RETURN JUMPDEST PUSH2 0x3A3 PUSH2 0x11D1 JUMP JUMPDEST STOP JUMPDEST PUSH2 0x3BF PUSH1 0x4 DUP1 CALLDATASIZE SUB DUP2 ADD SWAP1 PUSH2 0x3BA SWAP2 SWAP1 PUSH2 0x2E32 JUMP JUMPDEST PUSH2 0x1328 JUMP JUMPDEST STOP JUMPDEST PUSH2 0x3C9 PUSH2 0x1633 JUMP JUMPDEST PUSH1 0x40 MLOAD PUSH2 0x3D6 SWAP2 SWAP1 PUSH2 0x2E98 JUMP JUMPDEST PUSH1 0x40 MLOAD DUP1 SWAP2 SUB SWAP1 RETURN JUMPDEST PUSH2 0x3F9 PUSH1 0x4 DUP1 CALLDATASIZE SUB DUP2 ADD SWAP1 PUSH2 0x3F4 SWAP2 SWAP1 PUSH2 0x2E32 JUMP JUMPDEST PUSH2 0x163D JUMP JUMPDEST PUSH1 0x40 MLOAD PUSH2 0x406 SWAP2 SWAP1 PUSH2 0x2E6E JUMP JUMPDEST PUSH1 0x40 MLOAD DUP1 SWAP2 SUB SWAP1 RETURN JUMPDEST PUSH2 0x417 PUSH2 0x167C JUMP JUMPDEST PUSH1 0x40 MLOAD PUSH2 0x424 SWAP2 SWAP1 PUSH2 0x2E6E JUMP JUMPDEST PUSH1 0x40 MLOAD DUP1 SWAP2 SUB SWAP1 RETURN JUMPDEST PUSH2 0x435 PUSH2 0x16A5 JUMP JUMPDEST PUSH1 0x40 MLOAD PUSH2 0x442 SWAP2 SWAP1 PUSH2 0x2E6E JUMP JUMPDEST PUSH1 0x40 MLOAD DUP1 SWAP2 SUB SWAP1 RETURN JUMPDEST PUSH2 0x453 PUSH2 0x16CB JUMP JUMPDEST PUSH1 0x40 MLOAD PUSH2 0x460 SWAP2 SWAP1 PUSH2 0x2E98 JUMP JUMPDEST PUSH1 0x40 MLOAD DUP1 SWAP2 SUB SWAP1 RETURN JUMPDEST PUSH2 0x471 PUSH2 0x16D5 JUMP JUMPDEST PUSH1 0x40 MLOAD PUSH2 0x47E SWAP2 SWAP1 PUSH2 0x2E98 JUMP JUMPDEST PUSH1 0x40 MLOAD DUP1 SWAP2 SUB SWAP1 RETURN JUMPDEST PUSH2 0x48F PUSH2 0x16E2 JUMP JUMPDEST PUSH1 0x40 MLOAD PUSH2 0x49C SWAP2 SWAP1 PUSH2 0x2E98 JUMP JUMPDEST PUSH1 0x40 MLOAD DUP1 SWAP2 SUB SWAP1 RETURN JUMPDEST PUSH2 0x4AD PUSH2 0x16EC JUMP JUMPDEST PUSH1 0x40 MLOAD PUSH2 0x4BA SWAP2 SWAP1 PUSH2 0x2E98 JUMP JUMPDEST PUSH1 0x40 MLOAD DUP1 SWAP2 SUB SWAP1 RETURN JUMPDEST PUSH2 0x4CB PUSH2 0x16F9 JUMP JUMPDEST PUSH1 0x40 MLOAD PUSH2 0x4D8 SWAP2 SWAP1 PUSH2 0x2DD5 JUMP JUMPDEST PUSH1 0x40 MLOAD DUP1 SWAP2 SUB SWAP1 RETURN JUMPDEST PUSH2 0x4E9 PUSH2 0x1919 JUMP JUMPDEST PUSH1 0x40 MLOAD PUSH2 0x4F6 SWAP2 SWAP1 PUSH2 0x2E98 JUMP JUMPDEST PUSH1 0x40 MLOAD DUP1 SWAP2 SUB SWAP1 RETURN JUMPDEST PUSH2 0x507 PUSH2 0x19BC JUMP JUMPDEST PUSH1 0x40 MLOAD PUSH2 0x514 SWAP2 SWAP1 PUSH2 0x2FD8 JUMP JUMPDEST PUSH1 0x40 MLOAD DUP1 SWAP2 SUB SWAP1 RETURN JUMPDEST PUSH2 0x525 PUSH2 0x19E2 JUMP JUMPDEST STOP JUMPDEST PUSH2 0x541 PUSH1 0x4 DUP1 CALLDATASIZE SUB DUP2 ADD SWAP1 PUSH2 0x53C SWAP2 SWAP1 PUSH2 0x2E32 JUMP JUMPDEST PUSH2 0x1A83 JUMP JUMPDEST STOP JUMPDEST PUSH2 0x54B PUSH2 0x1DC9 JUMP JUMPDEST PUSH1 0x40 MLOAD PUSH2 0x558 SWAP2 SWAP1 PUSH2 0x2DD5 JUMP JUMPDEST PUSH1 0x40 MLOAD DUP1 SWAP2 SUB SWAP1 RETURN JUMPDEST PUSH2 0x569 PUSH2 0x1FE9 JUMP JUMPDEST PUSH1 0x40 MLOAD PUSH2 0x576 SWAP2 SWAP1 PUSH2 0x2E98 JUMP JUMPDEST PUSH1 0x40 MLOAD DUP1 SWAP2 SUB SWAP1 RETURN JUMPDEST PUSH2 0x599 PUSH1 0x4 DUP1 CALLDATASIZE SUB DUP2 ADD SWAP1 PUSH2 0x594 SWAP2 SWAP1 PUSH2 0x2E32 JUMP JUMPDEST PUSH2 0x1FF3 JUMP JUMPDEST STOP JUMPDEST PUSH2 0x5A3 PUSH2 0x2094 JUMP JUMPDEST PUSH1 0x40 MLOAD PUSH2 0x5B0 SWAP2 SWAP1 PUSH2 0x2E98 JUMP JUMPDEST PUSH1 0x40 MLOAD DUP1 SWAP2 SUB SWAP1 RETURN JUMPDEST PUSH2 0x5D3 PUSH1 0x4 DUP1 CALLDATASIZE SUB DUP2 ADD SWAP1 PUSH2 0x5CE SWAP2 SWAP1 PUSH2 0x2E32 JUMP JUMPDEST PUSH2 0x209E JUMP JUMPDEST STOP JUMPDEST PUSH2 0x5EF PUSH1 0x4 DUP1 CALLDATASIZE SUB DUP2 ADD SWAP1 PUSH2 0x5EA SWAP2 SWAP1 PUSH2 0x2E32 JUMP JUMPDEST PUSH2 0x213F JUMP JUMPDEST PUSH1 0x40 MLOAD PUSH2 0x5FC SWAP2 SWAP1 PUSH2 0x2E6E JUMP JUMPDEST PUSH1 0x40 MLOAD DUP1 SWAP2 SUB SWAP1 RETURN JUMPDEST PUSH2 0x61F PUSH1 0x4 DUP1 CALLDATASIZE SUB DUP2 ADD SWAP1 PUSH2 0x61A SWAP2 SWAP1 PUSH2 0x2F15 JUMP JUMPDEST PUSH2 0x217E JUMP JUMPDEST STOP JUMPDEST PUSH2 0x629 PUSH2 0x2221 JUMP JUMPDEST STOP JUMPDEST PUSH2 0x633 PUSH2 0x22C2 JUMP JUMPDEST PUSH20 0xFFFFFFFFFFFFFFFFFFFFFFFFFFFFFFFFFFFFFFFF AND PUSH1 0x0 PUSH1 0x1 SWAP1 SLOAD SWAP1 PUSH2 0x100 EXP SWAP1 DIV PUSH20 0xFFFFFFFFFFFFFFFFFFFFFFFFFFFFFFFFFFFFFFFF AND PUSH20 0xFFFFFFFFFFFFFFFFFFFFFFFFFFFFFFFFFFFFFFFF AND EQ PUSH2 0x6C2 JUMPI PUSH1 0x40 MLOAD PUSH32 0x8C379A000000000000000000000000000000000000000000000000000000000 DUP2 MSTORE PUSH1 0x4 ADD PUSH2 0x6B9 SWAP1 PUSH2 0x3050 JUMP JUMPDEST PUSH1 0x40 MLOAD DUP1 SWAP2 SUB SWAP1 REVERT JUMPDEST PUSH2 0x6CA PUSH2 0x22CA JUMP JUMPDEST JUMP JUMPDEST PUSH1 0x60 PUSH1 0x0 PUSH1 0x11 PUSH8 0xFFFFFFFFFFFFFFFF DUP2 GT ISZERO PUSH2 0x6EB JUMPI PUSH2 0x6EA PUSH2 0x3070 JUMP JUMPDEST JUMPDEST PUSH1 0x40 MLOAD SWAP1 DUP1 DUP3 MSTORE DUP1 PUSH1 0x20 MUL PUSH1 0x20 ADD DUP3 ADD PUSH1 0x40 MSTORE DUP1 ISZERO PUSH2 0x719 JUMPI DUP2 PUSH1 0x20 ADD PUSH1 0x20 DUP3 MUL DUP1 CALLDATASIZE DUP4 CALLDATACOPY DUP1 DUP3 ADD SWAP2 POP POP SWAP1 POP JUMPDEST POP SWAP1 POP PUSH1 0x0 PUSH1 0x12 DUP1 SLOAD SWAP1 POP SWAP1 POP PUSH1 0x0 DUP3 MLOAD SWAP1 POP PUSH1 0x0 PUSH1 0xA DUP4 GT ISZERO PUSH2 0x804 JUMPI PUSH1 0x0 DUP4 SWAP1 POP JUMPDEST PUSH1 0xA DUP5 PUSH2 0x74A SWAP2 SWAP1 PUSH2 0x30CE JUMP JUMPDEST DUP2 GT ISZERO PUSH2 0x7FE JUMPI DUP3 DUP1 PUSH2 0x75C SWAP1 PUSH2 0x3102 JUMP JUMPDEST SWAP4 POP POP PUSH1 0x12 DUP2 DUP2 SLOAD DUP2 LT PUSH2 0x773 JUMPI PUSH2 0x772 PUSH2 0x314A JUMP JUMPDEST JUMPDEST SWAP1 PUSH1 0x0 MSTORE PUSH1 0x20 PUSH1 0x0 KECCAK256 ADD PUSH1 0x0 SWAP1 SLOAD SWAP1 PUSH2 0x100 EXP SWAP1 DIV PUSH20 0xFFFFFFFFFFFFFFFFFFFFFFFFFFFFFFFFFFFFFFFF AND DUP6 DUP5 DUP2 MLOAD DUP2 LT PUSH2 0x7B1 JUMPI PUSH2 0x7B0 PUSH2 0x314A JUMP JUMPDEST JUMPDEST PUSH1 0x20 MUL PUSH1 0x20 ADD ADD SWAP1 PUSH20 0xFFFFFFFFFFFFFFFFFFFFFFFFFFFFFFFFFFFFFFFF AND SWAP1 DUP2 PUSH20 0xFFFFFFFFFFFFFFFFFFFFFFFFFFFFFFFFFFFFFFFF AND DUP2 MSTORE POP POP DUP1 DUP1 PUSH2 0x7F6 SWAP1 PUSH2 0x3179 JUMP JUMPDEST SWAP2 POP POP PUSH2 0x73D JUMP JUMPDEST POP PUSH2 0x8E2 JUMP JUMPDEST PUSH1 0x0 DUP4 SWAP1 POP JUMPDEST PUSH1 0x0 DUP2 GT ISZERO PUSH2 0x8E0 JUMPI DUP3 DUP1 PUSH2 0x81E SWAP1 PUSH2 0x3102 JUMP JUMPDEST SWAP4 POP POP PUSH1 0x0 PUSH1 0x12 PUSH1 0x1 DUP4 PUSH2 0x832 SWAP2 SWAP1 PUSH2 0x30CE JUMP JUMPDEST DUP2 SLOAD DUP2 LT PUSH2 0x843 JUMPI PUSH2 0x842 PUSH2 0x314A JUMP JUMPDEST JUMPDEST SWAP1 PUSH1 0x0 MSTORE PUSH1 0x20 PUSH1 0x0 KECCAK256 ADD PUSH1 0x0 SWAP1 SLOAD SWAP1 PUSH2 0x100 EXP SWAP1 DIV PUSH20 0xFFFFFFFFFFFFFFFFFFFFFFFFFFFFFFFFFFFFFFFF AND SWAP1 POP DUP1 DUP7 DUP5 DUP2 MLOAD DUP2 LT PUSH2 0x884 JUMPI PUSH2 0x883 PUSH2 0x314A JUMP JUMPDEST JUMPDEST PUSH1 0x20 MUL PUSH1 0x20 ADD ADD SWAP1 PUSH20 0xFFFFFFFFFFFFFFFFFFFFFFFFFFFFFFFFFFFFFFFF AND SWAP1 DUP2 PUSH20 0xFFFFFFFFFFFFFFFFFFFFFFFFFFFFFFFFFFFFFFFF AND DUP2 MSTORE POP POP DUP3 DUP1 PUSH2 0x8C9 SWAP1 PUSH2 0x3102 JUMP JUMPDEST SWAP4 POP POP POP DUP1 DUP1 PUSH2 0x8D8 SWAP1 PUSH2 0x3179 JUMP JUMPDEST SWAP2 POP POP PUSH2 0x80A JUMP JUMPDEST POP JUMPDEST DUP4 SWAP5 POP POP POP POP POP SWAP1 JUMP JUMPDEST PUSH2 0x8F4 PUSH2 0x22C2 JUMP JUMPDEST PUSH20 0xFFFFFFFFFFFFFFFFFFFFFFFFFFFFFFFFFFFFFFFF AND PUSH1 0x0 PUSH1 0x1 SWAP1 SLOAD SWAP1 PUSH2 0x100 EXP SWAP1 DIV PUSH20 0xFFFFFFFFFFFFFFFFFFFFFFFFFFFFFFFFFFFFFFFF AND PUSH20 0xFFFFFFFFFFFFFFFFFFFFFFFFFFFFFFFFFFFFFFFF AND EQ PUSH2 0x983 JUMPI PUSH1 0x40 MLOAD PUSH32 0x8C379A000000000000000000000000000000000000000000000000000000000 DUP2 MSTORE PUSH1 0x4 ADD PUSH2 0x97A SWAP1 PUSH2 0x3050 JUMP JUMPDEST PUSH1 0x40 MLOAD DUP1 SWAP2 SUB SWAP1 REVERT JUMPDEST DUP1 PUSH1 0x5 DUP2 SWAP1 SSTORE POP POP JUMP JUMPDEST PUSH2 0x995 PUSH2 0x22C2 JUMP JUMPDEST PUSH20 0xFFFFFFFFFFFFFFFFFFFFFFFFFFFFFFFFFFFFFFFF AND PUSH1 0x0 PUSH1 0x1 SWAP1 SLOAD SWAP1 PUSH2 0x100 EXP SWAP1 DIV PUSH20 0xFFFFFFFFFFFFFFFFFFFFFFFFFFFFFFFFFFFFFFFF AND PUSH20 0xFFFFFFFFFFFFFFFFFFFFFFFFFFFFFFFFFFFFFFFF AND EQ PUSH2 0xA24 JUMPI PUSH1 0x40 MLOAD PUSH32 0x8C379A000000000000000000000000000000000000000000000000000000000 DUP2 MSTORE PUSH1 0x4 ADD PUSH2 0xA1B SWAP1 PUSH2 0x3050 JUMP JUMPDEST PUSH1 0x40 MLOAD DUP1 SWAP2 SUB SWAP1 REVERT JUMPDEST PUSH1 0x1 PUSH1 0xF PUSH1 0x0 PUSH2 0x100 EXP DUP2 SLOAD DUP2 PUSH1 0xFF MUL NOT AND SWAP1 DUP4 ISZERO ISZERO MUL OR SWAP1 SSTORE POP JUMP JUMPDEST PUSH2 0xA49 PUSH2 0x22C2 JUMP JUMPDEST PUSH20 0xFFFFFFFFFFFFFFFFFFFFFFFFFFFFFFFFFFFFFFFF AND PUSH1 0x0 PUSH1 0x1 SWAP1 SLOAD SWAP1 PUSH2 0x100 EXP SWAP1 DIV PUSH20 0xFFFFFFFFFFFFFFFFFFFFFFFFFFFFFFFFFFFFFFFF AND PUSH20 0xFFFFFFFFFFFFFFFFFFFFFFFFFFFFFFFFFFFFFFFF AND EQ PUSH2 0xAD8 JUMPI PUSH1 0x40 MLOAD PUSH32 0x8C379A000000000000000000000000000000000000000000000000000000000 DUP2 MSTORE PUSH1 0x4 ADD PUSH2 0xACF SWAP1 PUSH2 0x3050 JUMP JUMPDEST PUSH1 0x40 MLOAD DUP1 SWAP2 SUB SWAP1 REVERT JUMPDEST DUP1 PUSH1 0xB DUP2 SWAP1 SSTORE POP POP JUMP JUMPDEST PUSH1 0x0 PUSH1 0x1 SWAP1 SLOAD SWAP1 PUSH2 0x100 EXP SWAP1 DIV PUSH20 0xFFFFFFFFFFFFFFFFFFFFFFFFFFFFFFFFFFFFFFFF AND PUSH20 0xFFFFFFFFFFFFFFFFFFFFFFFFFFFFFFFFFFFFFFFF AND CALLER PUSH20 0xFFFFFFFFFFFFFFFFFFFFFFFFFFFFFFFFFFFFFFFF AND SUB PUSH2 0xB72 JUMPI PUSH1 0x40 MLOAD PUSH32 0x8C379A000000000000000000000000000000000000000000000000000000000 DUP2 MSTORE PUSH1 0x4 ADD PUSH2 0xB69 SWAP1 PUSH2 0x31EE JUMP JUMPDEST PUSH1 0x40 MLOAD DUP1 SWAP2 SUB SWAP1 REVERT JUMPDEST PUSH1 0x0 DUP1 SLOAD SWAP1 PUSH2 0x100 EXP SWAP1 DIV PUSH1 0xFF AND ISZERO PUSH2 0xBC0 JUMPI PUSH1 0x40 MLOAD PUSH32 0x8C379A000000000000000000000000000000000000000000000000000000000 DUP2 MSTORE PUSH1 0x4 ADD PUSH2 0xBB7 SWAP1 PUSH2 0x325A JUMP JUMPDEST PUSH1 0x40 MLOAD DUP1 SWAP2 SUB SWAP1 REVERT JUMPDEST PUSH1 0x1 PUSH1 0x0 DUP1 PUSH2 0x100 EXP DUP2 SLOAD DUP2 PUSH1 0xFF MUL NOT AND SWAP1 DUP4 ISZERO ISZERO MUL OR SWAP1 SSTORE POP PUSH1 0xF PUSH1 0x0 SWAP1 SLOAD SWAP1 PUSH2 0x100 EXP SWAP1 DIV PUSH1 0xFF AND PUSH2 0xC29 JUMPI PUSH1 0x40 MLOAD PUSH32 0x8C379A000000000000000000000000000000000000000000000000000000000 DUP2 MSTORE PUSH1 0x4 ADD PUSH2 0xC20 SWAP1 PUSH2 0x32C6 JUMP JUMPDEST PUSH1 0x40 MLOAD DUP1 SWAP2 SUB SWAP1 REVERT JUMPDEST PUSH1 0xD SLOAD DUP2 EQ PUSH2 0xC6D JUMPI PUSH1 0x40 MLOAD PUSH32 0x8C379A000000000000000000000000000000000000000000000000000000000 DUP2 MSTORE PUSH1 0x4 ADD PUSH2 0xC64 SWAP1 PUSH2 0x3332 JUMP JUMPDEST PUSH1 0x40 MLOAD DUP1 SWAP2 SUB SWAP1 REVERT JUMPDEST PUSH1 0x0 PUSH1 0x14 PUSH1 0x0 SWAP1 SLOAD SWAP1 PUSH2 0x100 EXP SWAP1 DIV PUSH20 0xFFFFFFFFFFFFFFFFFFFFFFFFFFFFFFFFFFFFFFFF AND PUSH20 0xFFFFFFFFFFFFFFFFFFFFFFFFFFFFFFFFFFFFFFFF AND PUSH4 0x23B872DD CALLER ADDRESS DUP6 PUSH1 0x40 MLOAD DUP5 PUSH4 0xFFFFFFFF AND PUSH1 0xE0 SHL DUP2 MSTORE PUSH1 0x4 ADD PUSH2 0xCCE SWAP4 SWAP3 SWAP2 SWAP1 PUSH2 0x3352 JUMP JUMPDEST PUSH1 0x20 PUSH1 0x40 MLOAD DUP1 DUP4 SUB DUP2 PUSH1 0x0 DUP8 GAS CALL ISZERO DUP1 ISZERO PUSH2 0xCED JUMPI RETURNDATASIZE PUSH1 0x0 DUP1 RETURNDATACOPY RETURNDATASIZE PUSH1 0x0 REVERT JUMPDEST POP POP POP POP PUSH1 0x40 MLOAD RETURNDATASIZE PUSH1 0x1F NOT PUSH1 0x1F DUP3 ADD AND DUP3 ADD DUP1 PUSH1 0x40 MSTORE POP DUP2 ADD SWAP1 PUSH2 0xD11 SWAP2 SWAP1 PUSH2 0x33B5 JUMP JUMPDEST SWAP1 POP DUP1 ISZERO PUSH2 0xDCF JUMPI PUSH1 0xB SLOAD PUSH1 0xC SLOAD LT ISZERO PUSH2 0xDB9 JUMPI PUSH1 0xE CALLER SWAP1 DUP1 PUSH1 0x1 DUP2 SLOAD ADD DUP1 DUP3 SSTORE DUP1 SWAP2 POP POP PUSH1 0x1 SWAP1 SUB SWAP1 PUSH1 0x0 MSTORE PUSH1 0x20 PUSH1 0x0 KECCAK256 ADD PUSH1 0x0 SWAP1 SWAP2 SWAP1 SWAP2 SWAP1 SWAP2 PUSH2 0x100 EXP DUP2 SLOAD DUP2 PUSH20 0xFFFFFFFFFFFFFFFFFFFFFFFFFFFFFFFFFFFFFFFF MUL NOT AND SWAP1 DUP4 PUSH20 0xFFFFFFFFFFFFFFFFFFFFFFFFFFFFFFFFFFFFFFFF AND MUL OR SWAP1 SSTORE POP PUSH1 0xC PUSH1 0x0 DUP2 SLOAD DUP1 SWAP3 SWAP2 SWAP1 PUSH2 0xD9B SWAP1 PUSH2 0x3102 JUMP JUMPDEST SWAP2 SWAP1 POP SSTORE POP PUSH1 0xB SLOAD PUSH1 0xC SLOAD SUB PUSH2 0xDB4 JUMPI PUSH2 0xDB3 PUSH2 0x2584 JUMP JUMPDEST JUMPDEST PUSH2 0xDCE JUMP JUMPDEST PUSH1 0xB SLOAD PUSH1 0xC SLOAD SUB PUSH2 0xDCD JUMPI PUSH2 0xDCC PUSH2 0x2584 JUMP JUMPDEST JUMPDEST JUMPDEST JUMPDEST POP PUSH1 0x0 DUP1 PUSH1 0x0 PUSH2 0x100 EXP DUP2 SLOAD DUP2 PUSH1 0xFF MUL NOT AND SWAP1 DUP4 ISZERO ISZERO MUL OR SWAP1 SSTORE POP POP JUMP JUMPDEST PUSH2 0xDF5 PUSH2 0x22C2 JUMP JUMPDEST PUSH20 0xFFFFFFFFFFFFFFFFFFFFFFFFFFFFFFFFFFFFFFFF AND PUSH1 0x0 PUSH1 0x1 SWAP1 SLOAD SWAP1 PUSH2 0x100 EXP SWAP1 DIV PUSH20 0xFFFFFFFFFFFFFFFFFFFFFFFFFFFFFFFFFFFFFFFF AND PUSH20 0xFFFFFFFFFFFFFFFFFFFFFFFFFFFFFFFFFFFFFFFF AND EQ PUSH2 0xE84 JUMPI PUSH1 0x40 MLOAD PUSH32 0x8C379A000000000000000000000000000000000000000000000000000000000 DUP2 MSTORE PUSH1 0x4 ADD PUSH2 0xE7B SWAP1 PUSH2 0x3050 JUMP JUMPDEST PUSH1 0x40 MLOAD DUP1 SWAP2 SUB SWAP1 REVERT JUMPDEST DUP1 PUSH1 0x3 DUP2 SWAP1 SSTORE POP POP JUMP JUMPDEST PUSH2 0xE96 PUSH2 0x22C2 JUMP JUMPDEST PUSH20 0xFFFFFFFFFFFFFFFFFFFFFFFFFFFFFFFFFFFFFFFF AND PUSH1 0x0 PUSH1 0x1 SWAP1 SLOAD SWAP1 PUSH2 0x100 EXP SWAP1 DIV PUSH20 0xFFFFFFFFFFFFFFFFFFFFFFFFFFFFFFFFFFFFFFFF AND PUSH20 0xFFFFFFFFFFFFFFFFFFFFFFFFFFFFFFFFFFFFFFFF AND EQ PUSH2 0xF25 JUMPI PUSH1 0x40 MLOAD PUSH32 0x8C379A000000000000000000000000000000000000000000000000000000000 DUP2 MSTORE PUSH1 0x4 ADD PUSH2 0xF1C SWAP1 PUSH2 0x3050 JUMP JUMPDEST PUSH1 0x40 MLOAD DUP1 SWAP2 SUB SWAP1 REVERT JUMPDEST DUP1 PUSH1 0x7 DUP2 SWAP1 SSTORE POP POP JUMP JUMPDEST PUSH1 0x11 DUP2 DUP2 SLOAD DUP2 LT PUSH2 0xF3F JUMPI PUSH1 0x0 DUP1 REVERT JUMPDEST SWAP1 PUSH1 0x0 MSTORE PUSH1 0x20 PUSH1 0x0 KECCAK256 ADD PUSH1 0x0 SWAP2 POP SLOAD SWAP1 PUSH2 0x100 EXP SWAP1 DIV PUSH20 0xFFFFFFFFFFFFFFFFFFFFFFFFFFFFFFFFFFFFFFFF AND DUP2 JUMP JUMPDEST PUSH1 0x0 PUSH1 0x6 DUP1 SLOAD SWAP1 POP SWAP1 POP SWAP1 JUMP JUMPDEST PUSH1 0xF PUSH1 0x0 SWAP1 SLOAD SWAP1 PUSH2 0x100 EXP SWAP1 DIV PUSH1 0xFF AND DUP2 JUMP JUMPDEST PUSH1 0x0 DUP1 PUSH1 0x0 DUP1 PUSH1 0x0 SWAP1 POP PUSH1 0x0 DUP1 PUSH1 0x0 PUSH1 0x6 DUP1 SLOAD SWAP1 POP SWAP1 POP PUSH1 0x0 DUP2 EQ PUSH2 0x104D JUMPI PUSH1 0x0 JUMPDEST DUP2 DUP2 LT ISZERO PUSH2 0x104B JUMPI DUP9 PUSH20 0xFFFFFFFFFFFFFFFFFFFFFFFFFFFFFFFFFFFFFFFF AND PUSH1 0x6 DUP3 DUP2 SLOAD DUP2 LT PUSH2 0xFE3 JUMPI PUSH2 0xFE2 PUSH2 0x314A JUMP JUMPDEST JUMPDEST SWAP1 PUSH1 0x0 MSTORE PUSH1 0x20 PUSH1 0x0 KECCAK256 ADD PUSH1 0x0 SWAP1 SLOAD SWAP1 PUSH2 0x100 EXP SWAP1 DIV PUSH20 0xFFFFFFFFFFFFFFFFFFFFFFFFFFFFFFFFFFFFFFFF AND PUSH20 0xFFFFFFFFFFFFFFFFFFFFFFFFFFFFFFFFFFFFFFFF AND SUB PUSH2 0x1038 JUMPI DUP5 DUP1 PUSH2 0x1034 SWAP1 PUSH2 0x3102 JUMP JUMPDEST SWAP6 POP POP JUMPDEST DUP1 DUP1 PUSH2 0x1043 SWAP1 PUSH2 0x3102 JUMP JUMPDEST SWAP2 POP POP PUSH2 0xFB0 JUMP JUMPDEST POP JUMPDEST PUSH1 0x0 PUSH1 0xA DUP1 SLOAD SWAP1 POP SWAP1 POP PUSH1 0x0 DUP2 EQ PUSH2 0x10FF JUMPI PUSH1 0x0 JUMPDEST DUP2 DUP2 LT ISZERO PUSH2 0x10FD JUMPI DUP10 PUSH20 0xFFFFFFFFFFFFFFFFFFFFFFFFFFFFFFFFFFFFFFFF AND PUSH1 0xA DUP3 DUP2 SLOAD DUP2 LT PUSH2 0x1095 JUMPI PUSH2 0x1094 PUSH2 0x314A JUMP JUMPDEST JUMPDEST SWAP1 PUSH1 0x0 MSTORE PUSH1 0x20 PUSH1 0x0 KECCAK256 ADD PUSH1 0x0 SWAP1 SLOAD SWAP1 PUSH2 0x100 EXP SWAP1 DIV PUSH20 0xFFFFFFFFFFFFFFFFFFFFFFFFFFFFFFFFFFFFFFFF AND PUSH20 0xFFFFFFFFFFFFFFFFFFFFFFFFFFFFFFFFFFFFFFFF AND SUB PUSH2 0x10EA JUMPI DUP5 DUP1 PUSH2 0x10E6 SWAP1 PUSH2 0x3102 JUMP JUMPDEST SWAP6 POP POP JUMPDEST DUP1 DUP1 PUSH2 0x10F5 SWAP1 PUSH2 0x3102 JUMP JUMPDEST SWAP2 POP POP PUSH2 0x1062 JUMP JUMPDEST POP JUMPDEST PUSH1 0x0 PUSH1 0xE DUP1 SLOAD SWAP1 POP SWAP1 POP PUSH1 0x0 DUP2 EQ PUSH2 0x11B1 JUMPI PUSH1 0x0 JUMPDEST DUP2 DUP2 LT ISZERO PUSH2 0x11AF JUMPI DUP11 PUSH20 0xFFFFFFFFFFFFFFFFFFFFFFFFFFFFFFFFFFFFFFFF AND PUSH1 0x6 DUP3 DUP2 SLOAD DUP2 LT PUSH2 0x1147 JUMPI PUSH2 0x1146 PUSH2 0x314A JUMP JUMPDEST JUMPDEST SWAP1 PUSH1 0x0 MSTORE PUSH1 0x20 PUSH1 0x0 KECCAK256 ADD PUSH1 0x0 SWAP1 SLOAD SWAP1 PUSH2 0x100 EXP SWAP1 DIV PUSH20 0xFFFFFFFFFFFFFFFFFFFFFFFFFFFFFFFFFFFFFFFF AND PUSH20 0xFFFFFFFFFFFFFFFFFFFFFFFFFFFFFFFFFFFFFFFF AND SUB PUSH2 0x119C JUMPI DUP5 DUP1 PUSH2 0x1198 SWAP1 PUSH2 0x3102 JUMP JUMPDEST SWAP6 POP POP JUMPDEST DUP1 DUP1 PUSH2 0x11A7 SWAP1 PUSH2 0x3102 JUMP JUMPDEST SWAP2 POP POP PUSH2 0x1114 JUMP JUMPDEST POP JUMPDEST DUP6 DUP6 DUP6 SWAP9 POP SWAP9 POP SWAP9 POP POP POP POP POP POP POP SWAP2 SWAP4 SWAP1 SWAP3 POP JUMP JUMPDEST PUSH1 0x0 PUSH1 0x5 SLOAD SWAP1 POP SWAP1 JUMP JUMPDEST PUSH2 0x11D9 PUSH2 0x22C2 JUMP JUMPDEST PUSH20 0xFFFFFFFFFFFFFFFFFFFFFFFFFFFFFFFFFFFFFFFF AND PUSH1 0x0 PUSH1 0x1 SWAP1 SLOAD SWAP1 PUSH2 0x100 EXP SWAP1 DIV PUSH20 0xFFFFFFFFFFFFFFFFFFFFFFFFFFFFFFFFFFFFFFFF AND PUSH20 0xFFFFFFFFFFFFFFFFFFFFFFFFFFFFFFFFFFFFFFFF AND EQ PUSH2 0x1268 JUMPI PUSH1 0x40 MLOAD PUSH32 0x8C379A000000000000000000000000000000000000000000000000000000000 DUP2 MSTORE PUSH1 0x4 ADD PUSH2 0x125F SWAP1 PUSH2 0x3050 JUMP JUMPDEST PUSH1 0x40 MLOAD DUP1 SWAP2 SUB SWAP1 REVERT JUMPDEST PUSH1 0x0 PUSH20 0xFFFFFFFFFFFFFFFFFFFFFFFFFFFFFFFFFFFFFFFF AND PUSH1 0x0 PUSH1 0x1 SWAP1 SLOAD SWAP1 PUSH2 0x100 EXP SWAP1 DIV PUSH20 0xFFFFFFFFFFFFFFFFFFFFFFFFFFFFFFFFFFFFFFFF AND PUSH20 0xFFFFFFFFFFFFFFFFFFFFFFFFFFFFFFFFFFFFFFFF AND PUSH32 0x8BE0079C531659141344CD1FD0A4F28419497F9722A3DAAFE3B4186F6B6457E0 PUSH1 0x40 MLOAD PUSH1 0x40 MLOAD DUP1 SWAP2 SUB SWAP1 LOG3 PUSH1 0x0 DUP1 PUSH1 0x1 PUSH2 0x100 EXP DUP2 SLOAD DUP2 PUSH20 0xFFFFFFFFFFFFFFFFFFFFFFFFFFFFFFFFFFFFFFFF MUL NOT AND SWAP1 DUP4 PUSH20 0xFFFFFFFFFFFFFFFFFFFFFFFFFFFFFFFFFFFFFFFF AND MUL OR SWAP1 SSTORE POP JUMP JUMPDEST PUSH1 0x0 PUSH1 0x1 SWAP1 SLOAD SWAP1 PUSH2 0x100 EXP SWAP1 DIV PUSH20 0xFFFFFFFFFFFFFFFFFFFFFFFFFFFFFFFFFFFFFFFF AND PUSH20 0xFFFFFFFFFFFFFFFFFFFFFFFFFFFFFFFFFFFFFFFF AND CALLER PUSH20 0xFFFFFFFFFFFFFFFFFFFFFFFFFFFFFFFFFFFFFFFF AND SUB PUSH2 0x13B8 JUMPI PUSH1 0x40 MLOAD PUSH32 0x8C379A000000000000000000000000000000000000000000000000000000000 DUP2 MSTORE PUSH1 0x4 ADD PUSH2 0x13AF SWAP1 PUSH2 0x31EE JUMP JUMPDEST PUSH1 0x40 MLOAD DUP1 SWAP2 SUB SWAP1 REVERT JUMPDEST PUSH1 0x0 DUP1 SLOAD SWAP1 PUSH2 0x100 EXP SWAP1 DIV PUSH1 0xFF AND ISZERO PUSH2 0x1406 JUMPI PUSH1 0x40 MLOAD PUSH32 0x8C379A000000000000000000000000000000000000000000000000000000000 DUP2 MSTORE PUSH1 0x4 ADD PUSH2 0x13FD SWAP1 PUSH2 0x325A JUMP JUMPDEST PUSH1 0x40 MLOAD DUP1 SWAP2 SUB SWAP1 REVERT JUMPDEST PUSH1 0x1 PUSH1 0x0 DUP1 PUSH2 0x100 EXP DUP2 SLOAD DUP2 PUSH1 0xFF MUL NOT AND SWAP1 DUP4 ISZERO ISZERO MUL OR SWAP1 SSTORE POP PUSH1 0xF PUSH1 0x0 SWAP1 SLOAD SWAP1 PUSH2 0x100 EXP SWAP1 DIV PUSH1 0xFF AND PUSH2 0x146F JUMPI PUSH1 0x40 MLOAD PUSH32 0x8C379A000000000000000000000000000000000000000000000000000000000 DUP2 MSTORE PUSH1 0x4 ADD PUSH2 0x1466 SWAP1 PUSH2 0x32C6 JUMP JUMPDEST PUSH1 0x40 MLOAD DUP1 SWAP2 SUB SWAP1 REVERT JUMPDEST PUSH1 0x5 SLOAD DUP2 EQ PUSH2 0x14B3 JUMPI PUSH1 0x40 MLOAD PUSH32 0x8C379A000000000000000000000000000000000000000000000000000000000 DUP2 MSTORE PUSH1 0x4 ADD PUSH2 0x14AA SWAP1 PUSH2 0x342E JUMP JUMPDEST PUSH1 0x40 MLOAD DUP1 SWAP2 SUB SWAP1 REVERT JUMPDEST PUSH1 0x0 PUSH1 0x14 PUSH1 0x0 SWAP1 SLOAD SWAP1 PUSH2 0x100 EXP SWAP1 DIV PUSH20 0xFFFFFFFFFFFFFFFFFFFFFFFFFFFFFFFFFFFFFFFF AND PUSH20 0xFFFFFFFFFFFFFFFFFFFFFFFFFFFFFFFFFFFFFFFF AND PUSH4 0x23B872DD CALLER ADDRESS DUP6 PUSH1 0x40 MLOAD DUP5 PUSH4 0xFFFFFFFF AND PUSH1 0xE0 SHL DUP2 MSTORE PUSH1 0x4 ADD PUSH2 0x1514 SWAP4 SWAP3 SWAP2 SWAP1 PUSH2 0x3352 JUMP JUMPDEST PUSH1 0x20 PUSH1 0x40 MLOAD DUP1 DUP4 SUB DUP2 PUSH1 0x0 DUP8 GAS CALL ISZERO DUP1 ISZERO PUSH2 0x1533 JUMPI RETURNDATASIZE PUSH1 0x0 DUP1 RETURNDATACOPY RETURNDATASIZE PUSH1 0x0 REVERT JUMPDEST POP POP POP POP PUSH1 0x40 MLOAD RETURNDATASIZE PUSH1 0x1F NOT PUSH1 0x1F DUP3 ADD AND DUP3 ADD DUP1 PUSH1 0x40 MSTORE POP DUP2 ADD SWAP1 PUSH2 0x1557 SWAP2 SWAP1 PUSH2 0x33B5 JUMP JUMPDEST SWAP1 POP DUP1 ISZERO PUSH2 0x1615 JUMPI PUSH1 0x3 SLOAD PUSH1 0x4 SLOAD LT ISZERO PUSH2 0x15FF JUMPI PUSH1 0x6 CALLER SWAP1 DUP1 PUSH1 0x1 DUP2 SLOAD ADD DUP1 DUP3 SSTORE DUP1 SWAP2 POP POP PUSH1 0x1 SWAP1 SUB SWAP1 PUSH1 0x0 MSTORE PUSH1 0x20 PUSH1 0x0 KECCAK256 ADD PUSH1 0x0 SWAP1 SWAP2 SWAP1 SWAP2 SWAP1 SWAP2 PUSH2 0x100 EXP DUP2 SLOAD DUP2 PUSH20 0xFFFFFFFFFFFFFFFFFFFFFFFFFFFFFFFFFFFFFFFF MUL NOT AND SWAP1 DUP4 PUSH20 0xFFFFFFFFFFFFFFFFFFFFFFFFFFFFFFFFFFFFFFFF AND MUL OR SWAP1 SSTORE POP PUSH1 0x4 PUSH1 0x0 DUP2 SLOAD DUP1 SWAP3 SWAP2 SWAP1 PUSH2 0x15E1 SWAP1 PUSH2 0x3102 JUMP JUMPDEST SWAP2 SWAP1 POP SSTORE POP PUSH1 0x3 SLOAD PUSH1 0x4 SLOAD SUB PUSH2 0x15FA JUMPI PUSH2 0x15F9 PUSH2 0x283E JUMP JUMPDEST JUMPDEST PUSH2 0x1614 JUMP JUMPDEST PUSH1 0x3 SLOAD PUSH1 0x4 SLOAD SUB PUSH2 0x1613 JUMPI PUSH2 0x1612 PUSH2 0x283E JUMP JUMPDEST JUMPDEST JUMPDEST JUMPDEST POP PUSH1 0x0 DUP1 PUSH1 0x0 PUSH2 0x100 EXP DUP2 SLOAD DUP2 PUSH1 0xFF MUL NOT AND SWAP1 DUP4 ISZERO ISZERO MUL OR SWAP1 SSTORE POP POP JUMP JUMPDEST PUSH1 0x0 PUSH1 0xD SLOAD SWAP1 POP SWAP1 JUMP JUMPDEST PUSH1 0x12 DUP2 DUP2 SLOAD DUP2 LT PUSH2 0x164D JUMPI PUSH1 0x0 DUP1 REVERT JUMPDEST SWAP1 PUSH1 0x0 MSTORE PUSH1 0x20 PUSH1 0x0 KECCAK256 ADD PUSH1 0x0 SWAP2 POP SLOAD SWAP1 PUSH2 0x100 EXP SWAP1 DIV PUSH20 0xFFFFFFFFFFFFFFFFFFFFFFFFFFFFFFFFFFFFFFFF AND DUP2 JUMP JUMPDEST PUSH1 0x0 DUP1 PUSH1 0x1 SWAP1 SLOAD SWAP1 PUSH2 0x100 EXP SWAP1 DIV PUSH20 0xFFFFFFFFFFFFFFFFFFFFFFFFFFFFFFFFFFFFFFFF AND SWAP1 POP SWAP1 JUMP JUMPDEST PUSH1 0x13 PUSH1 0x0 SWAP1 SLOAD SWAP1 PUSH2 0x100 EXP SWAP1 DIV PUSH20 0xFFFFFFFFFFFFFFFFFFFFFFFFFFFFFFFFFFFFFFFF AND DUP2 JUMP JUMPDEST PUSH1 0x0 PUSH1 0x3 SLOAD SWAP1 POP SWAP1 JUMP JUMPDEST PUSH1 0x0 PUSH1 0xE DUP1 SLOAD SWAP1 POP SWAP1 POP SWAP1 JUMP JUMPDEST PUSH1 0x0 PUSH1 0x7 SLOAD SWAP1 POP SWAP1 JUMP JUMPDEST PUSH1 0x0 PUSH1 0xA DUP1 SLOAD SWAP1 POP SWAP1 POP SWAP1 JUMP JUMPDEST PUSH1 0x60 PUSH1 0x0 PUSH1 0x11 PUSH8 0xFFFFFFFFFFFFFFFF DUP2 GT ISZERO PUSH2 0x1718 JUMPI PUSH2 0x1717 PUSH2 0x3070 JUMP JUMPDEST JUMPDEST PUSH1 0x40 MLOAD SWAP1 DUP1 DUP3 MSTORE DUP1 PUSH1 0x20 MUL PUSH1 0x20 ADD DUP3 ADD PUSH1 0x40 MSTORE DUP1 ISZERO PUSH2 0x1746 JUMPI DUP2 PUSH1 0x20 ADD PUSH1 0x20 DUP3 MUL DUP1 CALLDATASIZE DUP4 CALLDATACOPY DUP1 DUP3 ADD SWAP2 POP POP SWAP1 POP JUMPDEST POP SWAP1 POP PUSH1 0x0 PUSH1 0x10 DUP1 SLOAD SWAP1 POP SWAP1 POP PUSH1 0x0 DUP3 MLOAD SWAP1 POP PUSH1 0x0 PUSH1 0xA DUP4 GT ISZERO PUSH2 0x1831 JUMPI PUSH1 0x0 DUP4 SWAP1 POP JUMPDEST PUSH1 0xA DUP5 PUSH2 0x1777 SWAP2 SWAP1 PUSH2 0x30CE JUMP JUMPDEST DUP2 GT ISZERO PUSH2 0x182B JUMPI DUP3 DUP1 PUSH2 0x1789 SWAP1 PUSH2 0x3102 JUMP JUMPDEST SWAP4 POP POP PUSH1 0x10 DUP2 DUP2 SLOAD DUP2 LT PUSH2 0x17A0 JUMPI PUSH2 0x179F PUSH2 0x314A JUMP JUMPDEST JUMPDEST SWAP1 PUSH1 0x0 MSTORE PUSH1 0x20 PUSH1 0x0 KECCAK256 ADD PUSH1 0x0 SWAP1 SLOAD SWAP1 PUSH2 0x100 EXP SWAP1 DIV PUSH20 0xFFFFFFFFFFFFFFFFFFFFFFFFFFFFFFFFFFFFFFFF AND DUP6 DUP5 DUP2 MLOAD DUP2 LT PUSH2 0x17DE JUMPI PUSH2 0x17DD PUSH2 0x314A JUMP JUMPDEST JUMPDEST PUSH1 0x20 MUL PUSH1 0x20 ADD ADD SWAP1 PUSH20 0xFFFFFFFFFFFFFFFFFFFFFFFFFFFFFFFFFFFFFFFF AND SWAP1 DUP2 PUSH20 0xFFFFFFFFFFFFFFFFFFFFFFFFFFFFFFFFFFFFFFFF AND DUP2 MSTORE POP POP DUP1 DUP1 PUSH2 0x1823 SWAP1 PUSH2 0x3179 JUMP JUMPDEST SWAP2 POP POP PUSH2 0x176A JUMP JUMPDEST POP PUSH2 0x190F JUMP JUMPDEST PUSH1 0x0 DUP4 SWAP1 POP JUMPDEST PUSH1 0x0 DUP2 GT ISZERO PUSH2 0x190D JUMPI DUP3 DUP1 PUSH2 0x184B SWAP1 PUSH2 0x3102 JUMP JUMPDEST SWAP4 POP POP PUSH1 0x0 PUSH1 0x10 PUSH1 0x1 DUP4 PUSH2 0x185F SWAP2 SWAP1 PUSH2 0x30CE JUMP JUMPDEST DUP2 SLOAD DUP2 LT PUSH2 0x1870 JUMPI PUSH2 0x186F PUSH2 0x314A JUMP JUMPDEST JUMPDEST SWAP1 PUSH1 0x0 MSTORE PUSH1 0x20 PUSH1 0x0 KECCAK256 ADD PUSH1 0x0 SWAP1 SLOAD SWAP1 PUSH2 0x100 EXP SWAP1 DIV PUSH20 0xFFFFFFFFFFFFFFFFFFFFFFFFFFFFFFFFFFFFFFFF AND SWAP1 POP DUP1 DUP7 DUP5 DUP2 MLOAD DUP2 LT PUSH2 0x18B1 JUMPI PUSH2 0x18B0 PUSH2 0x314A JUMP JUMPDEST JUMPDEST PUSH1 0x20 MUL PUSH1 0x20 ADD ADD SWAP1 PUSH20 0xFFFFFFFFFFFFFFFFFFFFFFFFFFFFFFFFFFFFFFFF AND SWAP1 DUP2 PUSH20 0xFFFFFFFFFFFFFFFFFFFFFFFFFFFFFFFFFFFFFFFF AND DUP2 MSTORE POP POP DUP3 DUP1 PUSH2 0x18F6 SWAP1 PUSH2 0x3102 JUMP JUMPDEST SWAP4 POP POP POP DUP1 DUP1 PUSH2 0x1905 SWAP1 PUSH2 0x3179 JUMP JUMPDEST SWAP2 POP POP PUSH2 0x1837 JUMP JUMPDEST POP JUMPDEST DUP4 SWAP5 POP POP POP POP POP SWAP1 JUMP JUMPDEST PUSH1 0x0 PUSH1 0x14 PUSH1 0x0 SWAP1 SLOAD SWAP1 PUSH2 0x100 EXP SWAP1 DIV PUSH20 0xFFFFFFFFFFFFFFFFFFFFFFFFFFFFFFFFFFFFFFFF AND PUSH20 0xFFFFFFFFFFFFFFFFFFFFFFFFFFFFFFFFFFFFFFFF AND PUSH4 0x70A08231 ADDRESS PUSH1 0x40 MLOAD DUP3 PUSH4 0xFFFFFFFF AND PUSH1 0xE0 SHL DUP2 MSTORE PUSH1 0x4 ADD PUSH2 0x1976 SWAP2 SWAP1 PUSH2 0x2E6E JUMP JUMPDEST PUSH1 0x20 PUSH1 0x40 MLOAD DUP1 DUP4 SUB DUP2 DUP7 GAS STATICCALL ISZERO DUP1 ISZERO PUSH2 0x1993 JUMPI RETURNDATASIZE PUSH1 0x0 DUP1 RETURNDATACOPY RETURNDATASIZE PUSH1 0x0 REVERT JUMPDEST POP POP POP POP PUSH1 0x40 MLOAD RETURNDATASIZE PUSH1 0x1F NOT PUSH1 0x1F DUP3 ADD AND DUP3 ADD DUP1 PUSH1 0x40 MSTORE POP DUP2 ADD SWAP1 PUSH2 0x19B7 SWAP2 SWAP1 PUSH2 0x3463 JUMP JUMPDEST SWAP1 POP SWAP1 JUMP JUMPDEST PUSH1 0x14 PUSH1 0x0 SWAP1 SLOAD SWAP1 PUSH2 0x100 EXP SWAP1 DIV PUSH20 0xFFFFFFFFFFFFFFFFFFFFFFFFFFFFFFFFFFFFFFFF AND DUP2 JUMP JUMPDEST PUSH2 0x19EA PUSH2 0x22C2 JUMP JUMPDEST PUSH20 0xFFFFFFFFFFFFFFFFFFFFFFFFFFFFFFFFFFFFFFFF AND PUSH1 0x0 PUSH1 0x1 SWAP1 SLOAD SWAP1 PUSH2 0x100 EXP SWAP1 DIV PUSH20 0xFFFFFFFFFFFFFFFFFFFFFFFFFFFFFFFFFFFFFFFF AND PUSH20 0xFFFFFFFFFFFFFFFFFFFFFFFFFFFFFFFFFFFFFFFF AND EQ PUSH2 0x1A79 JUMPI PUSH1 0x40 MLOAD PUSH32 0x8C379A000000000000000000000000000000000000000000000000000000000 DUP2 MSTORE PUSH1 0x4 ADD PUSH2 0x1A70 SWAP1 PUSH2 0x3050 JUMP JUMPDEST PUSH1 0x40 MLOAD DUP1 SWAP2 SUB SWAP1 REVERT JUMPDEST PUSH2 0x1A81 PUSH2 0x2584 JUMP JUMPDEST JUMP JUMPDEST PUSH1 0x0 PUSH1 0x1 SWAP1 SLOAD SWAP1 PUSH2 0x100 EXP SWAP1 DIV PUSH20 0xFFFFFFFFFFFFFFFFFFFFFFFFFFFFFFFFFFFFFFFF AND PUSH20 0xFFFFFFFFFFFFFFFFFFFFFFFFFFFFFFFFFFFFFFFF AND CALLER PUSH20 0xFFFFFFFFFFFFFFFFFFFFFFFFFFFFFFFFFFFFFFFF AND SUB PUSH2 0x1B13 JUMPI PUSH1 0x40 MLOAD PUSH32 0x8C379A000000000000000000000000000000000000000000000000000000000 DUP2 MSTORE PUSH1 0x4 ADD PUSH2 0x1B0A SWAP1 PUSH2 0x31EE JUMP JUMPDEST PUSH1 0x40 MLOAD DUP1 SWAP2 SUB SWAP1 REVERT JUMPDEST PUSH1 0x0 DUP1 SLOAD SWAP1 PUSH2 0x100 EXP SWAP1 DIV PUSH1 0xFF AND ISZERO PUSH2 0x1B61 JUMPI PUSH1 0x40 MLOAD PUSH32 0x8C379A000000000000000000000000000000000000000000000000000000000 DUP2 MSTORE PUSH1 0x4 ADD PUSH2 0x1B58 SWAP1 PUSH2 0x325A JUMP JUMPDEST PUSH1 0x40 MLOAD DUP1 SWAP2 SUB SWAP1 REVERT JUMPDEST PUSH1 0x1 PUSH1 0x0 DUP1 PUSH2 0x100 EXP DUP2 SLOAD DUP2 PUSH1 0xFF MUL NOT AND SWAP1 DUP4 ISZERO ISZERO MUL OR SWAP1 SSTORE POP PUSH1 0xF PUSH1 0x0 SWAP1 SLOAD SWAP1 PUSH2 0x100 EXP SWAP1 DIV PUSH1 0xFF AND PUSH2 0x1BCA JUMPI PUSH1 0x40 MLOAD PUSH32 0x8C379A000000000000000000000000000000000000000000000000000000000 DUP2 MSTORE PUSH1 0x4 ADD PUSH2 0x1BC1 SWAP1 PUSH2 0x32C6 JUMP JUMPDEST PUSH1 0x40 MLOAD DUP1 SWAP2 SUB SWAP1 REVERT JUMPDEST PUSH32 0xA3DE883741AEFA0083D54DE95483572AD5EAA074B33A0AE8DC98725D52CF8143 DUP2 PUSH1 0x9 SLOAD PUSH1 0x40 MLOAD PUSH2 0x1BFD SWAP3 SWAP2 SWAP1 PUSH2 0x3490 JUMP JUMPDEST PUSH1 0x40 MLOAD DUP1 SWAP2 SUB SWAP1 LOG1 PUSH1 0x9 SLOAD DUP2 EQ PUSH2 0x1C49 JUMPI PUSH1 0x40 MLOAD PUSH32 0x8C379A000000000000000000000000000000000000000000000000000000000 DUP2 MSTORE PUSH1 0x4 ADD PUSH2 0x1C40 SWAP1 PUSH2 0x342E JUMP JUMPDEST PUSH1 0x40 MLOAD DUP1 SWAP2 SUB SWAP1 REVERT JUMPDEST PUSH1 0x0 PUSH1 0x14 PUSH1 0x0 SWAP1 SLOAD SWAP1 PUSH2 0x100 EXP SWAP1 DIV PUSH20 0xFFFFFFFFFFFFFFFFFFFFFFFFFFFFFFFFFFFFFFFF AND PUSH20 0xFFFFFFFFFFFFFFFFFFFFFFFFFFFFFFFFFFFFFFFF AND PUSH4 0x23B872DD CALLER ADDRESS DUP6 PUSH1 0x40 MLOAD DUP5 PUSH4 0xFFFFFFFF AND PUSH1 0xE0 SHL DUP2 MSTORE PUSH1 0x4 ADD PUSH2 0x1CAA SWAP4 SWAP3 SWAP2 SWAP1 PUSH2 0x3352 JUMP JUMPDEST PUSH1 0x20 PUSH1 0x40 MLOAD DUP1 DUP4 SUB DUP2 PUSH1 0x0 DUP8 GAS CALL ISZERO DUP1 ISZERO PUSH2 0x1CC9 JUMPI RETURNDATASIZE PUSH1 0x0 DUP1 RETURNDATACOPY RETURNDATASIZE PUSH1 0x0 REVERT JUMPDEST POP POP POP POP PUSH1 0x40 MLOAD RETURNDATASIZE PUSH1 0x1F NOT PUSH1 0x1F DUP3 ADD AND DUP3 ADD DUP1 PUSH1 0x40 MSTORE POP DUP2 ADD SWAP1 PUSH2 0x1CED SWAP2 SWAP1 PUSH2 0x33B5 JUMP JUMPDEST SWAP1 POP DUP1 ISZERO PUSH2 0x1DAB JUMPI PUSH1 0x7 SLOAD PUSH1 0x8 SLOAD LT ISZERO PUSH2 0x1D95 JUMPI PUSH1 0xA CALLER SWAP1 DUP1 PUSH1 0x1 DUP2 SLOAD ADD DUP1 DUP3 SSTORE DUP1 SWAP2 POP POP PUSH1 0x1 SWAP1 SUB SWAP1 PUSH1 0x0 MSTORE PUSH1 0x20 PUSH1 0x0 KECCAK256 ADD PUSH1 0x0 SWAP1 SWAP2 SWAP1 SWAP2 SWAP1 SWAP2 PUSH2 0x100 EXP DUP2 SLOAD DUP2 PUSH20 0xFFFFFFFFFFFFFFFFFFFFFFFFFFFFFFFFFFFFFFFF MUL NOT AND SWAP1 DUP4 PUSH20 0xFFFFFFFFFFFFFFFFFFFFFFFFFFFFFFFFFFFFFFFF AND MUL OR SWAP1 SSTORE POP PUSH1 0x8 PUSH1 0x0 DUP2 SLOAD DUP1 SWAP3 SWAP2 SWAP1 PUSH2 0x1D77 SWAP1 PUSH2 0x3102 JUMP JUMPDEST SWAP2 SWAP1 POP SSTORE POP PUSH1 0x7 SLOAD PUSH1 0x8 SLOAD SUB PUSH2 0x1D90 JUMPI PUSH2 0x1D8F PUSH2 0x22CA JUMP JUMPDEST JUMPDEST PUSH2 0x1DAA JUMP JUMPDEST PUSH1 0x7 SLOAD PUSH1 0x8 SLOAD SUB PUSH2 0x1DA9 JUMPI PUSH2 0x1DA8 PUSH2 0x22CA JUMP JUMPDEST JUMPDEST JUMPDEST JUMPDEST POP PUSH1 0x0 DUP1 PUSH1 0x0 PUSH2 0x100 EXP DUP2 SLOAD DUP2 PUSH1 0xFF MUL NOT AND SWAP1 DUP4 ISZERO ISZERO MUL OR SWAP1 SSTORE POP POP JUMP JUMPDEST PUSH1 0x60 PUSH1 0x0 PUSH1 0x11 PUSH8 0xFFFFFFFFFFFFFFFF DUP2 GT ISZERO PUSH2 0x1DE8 JUMPI PUSH2 0x1DE7 PUSH2 0x3070 JUMP JUMPDEST JUMPDEST PUSH1 0x40 MLOAD SWAP1 DUP1 DUP3 MSTORE DUP1 PUSH1 0x20 MUL PUSH1 0x20 ADD DUP3 ADD PUSH1 0x40 MSTORE DUP1 ISZERO PUSH2 0x1E16 JUMPI DUP2 PUSH1 0x20 ADD PUSH1 0x20 DUP3 MUL DUP1 CALLDATASIZE DUP4 CALLDATACOPY DUP1 DUP3 ADD SWAP2 POP POP SWAP1 POP JUMPDEST POP SWAP1 POP PUSH1 0x0 PUSH1 0x11 DUP1 SLOAD SWAP1 POP SWAP1 POP PUSH1 0x0 DUP3 MLOAD SWAP1 POP PUSH1 0x0 PUSH1 0xA DUP4 GT ISZERO PUSH2 0x1F01 JUMPI PUSH1 0x0 DUP4 SWAP1 POP JUMPDEST PUSH1 0xA DUP5 PUSH2 0x1E47 SWAP2 SWAP1 PUSH2 0x30CE JUMP JUMPDEST DUP2 GT ISZERO PUSH2 0x1EFB JUMPI DUP3 DUP1 PUSH2 0x1E59 SWAP1 PUSH2 0x3102 JUMP JUMPDEST SWAP4 POP POP PUSH1 0x11 DUP2 DUP2 SLOAD DUP2 LT PUSH2 0x1E70 JUMPI PUSH2 0x1E6F PUSH2 0x314A JUMP JUMPDEST JUMPDEST SWAP1 PUSH1 0x0 MSTORE PUSH1 0x20 PUSH1 0x0 KECCAK256 ADD PUSH1 0x0 SWAP1 SLOAD SWAP1 PUSH2 0x100 EXP SWAP1 DIV PUSH20 0xFFFFFFFFFFFFFFFFFFFFFFFFFFFFFFFFFFFFFFFF AND DUP6 DUP5 DUP2 MLOAD DUP2 LT PUSH2 0x1EAE JUMPI PUSH2 0x1EAD PUSH2 0x314A JUMP JUMPDEST JUMPDEST PUSH1 0x20 MUL PUSH1 0x20 ADD ADD SWAP1 PUSH20 0xFFFFFFFFFFFFFFFFFFFFFFFFFFFFFFFFFFFFFFFF AND SWAP1 DUP2 PUSH20 0xFFFFFFFFFFFFFFFFFFFFFFFFFFFFFFFFFFFFFFFF AND DUP2 MSTORE POP POP DUP1 DUP1 PUSH2 0x1EF3 SWAP1 PUSH2 0x3179 JUMP JUMPDEST SWAP2 POP POP PUSH2 0x1E3A JUMP JUMPDEST POP PUSH2 0x1FDF JUMP JUMPDEST PUSH1 0x0 DUP4 SWAP1 POP JUMPDEST PUSH1 0x0 DUP2 GT ISZERO PUSH2 0x1FDD JUMPI DUP3 DUP1 PUSH2 0x1F1B SWAP1 PUSH2 0x3102 JUMP JUMPDEST SWAP4 POP POP PUSH1 0x0 PUSH1 0x11 PUSH1 0x1 DUP4 PUSH2 0x1F2F SWAP2 SWAP1 PUSH2 0x30CE JUMP JUMPDEST DUP2 SLOAD DUP2 LT PUSH2 0x1F40 JUMPI PUSH2 0x1F3F PUSH2 0x314A JUMP JUMPDEST JUMPDEST SWAP1 PUSH1 0x0 MSTORE PUSH1 0x20 PUSH1 0x0 KECCAK256 ADD PUSH1 0x0 SWAP1 SLOAD SWAP1 PUSH2 0x100 EXP SWAP1 DIV PUSH20 0xFFFFFFFFFFFFFFFFFFFFFFFFFFFFFFFFFFFFFFFF AND SWAP1 POP DUP1 DUP7 DUP5 DUP2 MLOAD DUP2 LT PUSH2 0x1F81 JUMPI PUSH2 0x1F80 PUSH2 0x314A JUMP JUMPDEST JUMPDEST PUSH1 0x20 MUL PUSH1 0x20 ADD ADD SWAP1 PUSH20 0xFFFFFFFFFFFFFFFFFFFFFFFFFFFFFFFFFFFFFFFF AND SWAP1 DUP2 PUSH20 0xFFFFFFFFFFFFFFFFFFFFFFFFFFFFFFFFFFFFFFFF AND DUP2 MSTORE POP POP DUP3 DUP1 PUSH2 0x1FC6 SWAP1 PUSH2 0x3102 JUMP JUMPDEST SWAP4 POP POP POP DUP1 DUP1 PUSH2 0x1FD5 SWAP1 PUSH2 0x3179 JUMP JUMPDEST SWAP2 POP POP PUSH2 0x1F07 JUMP JUMPDEST POP JUMPDEST DUP4 SWAP5 POP POP POP POP POP SWAP1 JUMP JUMPDEST PUSH1 0x0 PUSH1 0xB SLOAD SWAP1 POP SWAP1 JUMP JUMPDEST PUSH2 0x1FFB PUSH2 0x22C2 JUMP JUMPDEST PUSH20 0xFFFFFFFFFFFFFFFFFFFFFFFFFFFFFFFFFFFFFFFF AND PUSH1 0x0 PUSH1 0x1 SWAP1 SLOAD SWAP1 PUSH2 0x100 EXP SWAP1 DIV PUSH20 0xFFFFFFFFFFFFFFFFFFFFFFFFFFFFFFFFFFFFFFFF AND PUSH20 0xFFFFFFFFFFFFFFFFFFFFFFFFFFFFFFFFFFFFFFFF AND EQ PUSH2 0x208A JUMPI PUSH1 0x40 MLOAD PUSH32 0x8C379A000000000000000000000000000000000000000000000000000000000 DUP2 MSTORE PUSH1 0x4 ADD PUSH2 0x2081 SWAP1 PUSH2 0x3050 JUMP JUMPDEST PUSH1 0x40 MLOAD DUP1 SWAP2 SUB SWAP1 REVERT JUMPDEST DUP1 PUSH1 0x9 DUP2 SWAP1 SSTORE POP POP JUMP JUMPDEST PUSH1 0x0 PUSH1 0x9 SLOAD SWAP1 POP SWAP1 JUMP JUMPDEST PUSH2 0x20A6 PUSH2 0x22C2 JUMP JUMPDEST PUSH20 0xFFFFFFFFFFFFFFFFFFFFFFFFFFFFFFFFFFFFFFFF AND PUSH1 0x0 PUSH1 0x1 SWAP1 SLOAD SWAP1 PUSH2 0x100 EXP SWAP1 DIV PUSH20 0xFFFFFFFFFFFFFFFFFFFFFFFFFFFFFFFFFFFFFFFF AND PUSH20 0xFFFFFFFFFFFFFFFFFFFFFFFFFFFFFFFFFFFFFFFF AND EQ PUSH2 0x2135 JUMPI PUSH1 0x40 MLOAD PUSH32 0x8C379A000000000000000000000000000000000000000000000000000000000 DUP2 MSTORE PUSH1 0x4 ADD PUSH2 0x212C SWAP1 PUSH2 0x3050 JUMP JUMPDEST PUSH1 0x40 MLOAD DUP1 SWAP2 SUB SWAP1 REVERT JUMPDEST DUP1 PUSH1 0xD DUP2 SWAP1 SSTORE POP POP JUMP JUMPDEST PUSH1 0x10 DUP2 DUP2 SLOAD DUP2 LT PUSH2 0x214F JUMPI PUSH1 0x0 DUP1 REVERT JUMPDEST SWAP1 PUSH1 0x0 MSTORE PUSH1 0x20 PUSH1 0x0 KECCAK256 ADD PUSH1 0x0 SWAP2 POP SLOAD SWAP1 PUSH2 0x100 EXP SWAP1 DIV PUSH20 0xFFFFFFFFFFFFFFFFFFFFFFFFFFFFFFFFFFFFFFFF AND DUP2 JUMP JUMPDEST PUSH2 0x2186 PUSH2 0x22C2 JUMP JUMPDEST PUSH20 0xFFFFFFFFFFFFFFFFFFFFFFFFFFFFFFFFFFFFFFFF AND PUSH1 0x0 PUSH1 0x1 SWAP1 SLOAD SWAP1 PUSH2 0x100 EXP SWAP1 DIV PUSH20 0xFFFFFFFFFFFFFFFFFFFFFFFFFFFFFFFFFFFFFFFF AND PUSH20 0xFFFFFFFFFFFFFFFFFFFFFFFFFFFFFFFFFFFFFFFF AND EQ PUSH2 0x2215 JUMPI PUSH1 0x40 MLOAD PUSH32 0x8C379A000000000000000000000000000000000000000000000000000000000 DUP2 MSTORE PUSH1 0x4 ADD PUSH2 0x220C SWAP1 PUSH2 0x3050 JUMP JUMPDEST PUSH1 0x40 MLOAD DUP1 SWAP2 SUB SWAP1 REVERT JUMPDEST PUSH2 0x221E DUP2 PUSH2 0x2AFE JUMP JUMPDEST POP JUMP JUMPDEST PUSH2 0x2229 PUSH2 0x22C2 JUMP JUMPDEST PUSH20 0xFFFFFFFFFFFFFFFFFFFFFFFFFFFFFFFFFFFFFFFF AND PUSH1 0x0 PUSH1 0x1 SWAP1 SLOAD SWAP1 PUSH2 0x100 EXP SWAP1 DIV PUSH20 0xFFFFFFFFFFFFFFFFFFFFFFFFFFFFFFFFFFFFFFFF AND PUSH20 0xFFFFFFFFFFFFFFFFFFFFFFFFFFFFFFFFFFFFFFFF AND EQ PUSH2 0x22B8 JUMPI PUSH1 0x40 MLOAD PUSH32 0x8C379A000000000000000000000000000000000000000000000000000000000 DUP2 MSTORE PUSH1 0x4 ADD PUSH2 0x22AF SWAP1 PUSH2 0x3050 JUMP JUMPDEST PUSH1 0x40 MLOAD DUP1 SWAP2 SUB SWAP1 REVERT JUMPDEST PUSH2 0x22C0 PUSH2 0x283E JUMP JUMPDEST JUMP JUMPDEST PUSH1 0x0 CALLER SWAP1 POP SWAP1 JUMP JUMPDEST PUSH1 0x0 PUSH1 0xA DUP1 SLOAD SWAP1 POP PUSH2 0x22DA PUSH2 0x2C2D JUMP JUMPDEST PUSH2 0x22E4 SWAP2 SWAP1 PUSH2 0x34E8 JUMP JUMPDEST SWAP1 POP PUSH1 0x0 PUSH1 0xA DUP1 SLOAD SWAP1 POP PUSH1 0x9 SLOAD PUSH2 0x22FB SWAP2 SWAP1 PUSH2 0x3519 JUMP JUMPDEST SWAP1 POP PUSH1 0x0 PUSH2 0x2315 PUSH2 0x230E DUP4 PUSH1 0x2 SLOAD PUSH2 0x2C65 JUMP JUMPDEST PUSH1 0x64 PUSH2 0x2C7B JUMP JUMPDEST SWAP1 POP PUSH1 0x14 PUSH1 0x0 SWAP1 SLOAD SWAP1 PUSH2 0x100 EXP SWAP1 DIV PUSH20 0xFFFFFFFFFFFFFFFFFFFFFFFFFFFFFFFFFFFFFFFF AND PUSH20 0xFFFFFFFFFFFFFFFFFFFFFFFFFFFFFFFFFFFFFFFF AND PUSH4 0xA9059CBB PUSH1 0x1 PUSH1 0x0 SWAP1 SLOAD SWAP1 PUSH2 0x100 EXP SWAP1 DIV PUSH20 0xFFFFFFFFFFFFFFFFFFFFFFFFFFFFFFFFFFFFFFFF AND DUP4 PUSH1 0x40 MLOAD DUP4 PUSH4 0xFFFFFFFF AND PUSH1 0xE0 SHL DUP2 MSTORE PUSH1 0x4 ADD PUSH2 0x2396 SWAP3 SWAP2 SWAP1 PUSH2 0x3573 JUMP JUMPDEST PUSH1 0x20 PUSH1 0x40 MLOAD DUP1 DUP4 SUB DUP2 PUSH1 0x0 DUP8 GAS CALL ISZERO DUP1 ISZERO PUSH2 0x23B5 JUMPI RETURNDATASIZE PUSH1 0x0 DUP1 RETURNDATACOPY RETURNDATASIZE PUSH1 0x0 REVERT JUMPDEST POP POP POP POP PUSH1 0x40 MLOAD RETURNDATASIZE PUSH1 0x1F NOT PUSH1 0x1F DUP3 ADD AND DUP3 ADD DUP1 PUSH1 0x40 MSTORE POP DUP2 ADD SWAP1 PUSH2 0x23D9 SWAP2 SWAP1 PUSH2 0x33B5 JUMP JUMPDEST POP PUSH1 0x0 PUSH2 0x23E6 DUP4 DUP4 PUSH2 0x2C91 JUMP JUMPDEST SWAP1 POP PUSH1 0x14 PUSH1 0x0 SWAP1 SLOAD SWAP1 PUSH2 0x100 EXP SWAP1 DIV PUSH20 0xFFFFFFFFFFFFFFFFFFFFFFFFFFFFFFFFFFFFFFFF AND PUSH20 0xFFFFFFFFFFFFFFFFFFFFFFFFFFFFFFFFFFFFFFFF AND PUSH4 0xA9059CBB PUSH1 0xA DUP7 DUP2 SLOAD DUP2 LT PUSH2 0x243A JUMPI PUSH2 0x2439 PUSH2 0x314A JUMP JUMPDEST JUMPDEST SWAP1 PUSH1 0x0 MSTORE PUSH1 0x20 PUSH1 0x0 KECCAK256 ADD PUSH1 0x0 SWAP1 SLOAD SWAP1 PUSH2 0x100 EXP SWAP1 DIV PUSH20 0xFFFFFFFFFFFFFFFFFFFFFFFFFFFFFFFFFFFFFFFF AND DUP4 PUSH1 0x40 MLOAD DUP4 PUSH4 0xFFFFFFFF AND PUSH1 0xE0 SHL DUP2 MSTORE PUSH1 0x4 ADD PUSH2 0x2483 SWAP3 SWAP2 SWAP1 PUSH2 0x35BD JUMP JUMPDEST PUSH1 0x20 PUSH1 0x40 MLOAD DUP1 DUP4 SUB DUP2 PUSH1 0x0 DUP8 GAS CALL ISZERO DUP1 ISZERO PUSH2 0x24A2 JUMPI RETURNDATASIZE PUSH1 0x0 DUP1 RETURNDATACOPY RETURNDATASIZE PUSH1 0x0 REVERT JUMPDEST POP POP POP POP PUSH1 0x40 MLOAD RETURNDATASIZE PUSH1 0x1F NOT PUSH1 0x1F DUP3 ADD AND DUP3 ADD DUP1 PUSH1 0x40 MSTORE POP DUP2 ADD SWAP1 PUSH2 0x24C6 SWAP2 SWAP1 PUSH2 0x33B5 JUMP JUMPDEST POP PUSH1 0x11 PUSH1 0xA DUP6 DUP2 SLOAD DUP2 LT PUSH2 0x24DD JUMPI PUSH2 0x24DC PUSH2 0x314A JUMP JUMPDEST JUMPDEST SWAP1 PUSH1 0x0 MSTORE PUSH1 0x20 PUSH1 0x0 KECCAK256 ADD PUSH1 0x0 SWAP1 SLOAD SWAP1 PUSH2 0x100 EXP SWAP1 DIV PUSH20 0xFFFFFFFFFFFFFFFFFFFFFFFFFFFFFFFFFFFFFFFF AND SWAP1 DUP1 PUSH1 0x1 DUP2 SLOAD ADD DUP1 DUP3 SSTORE DUP1 SWAP2 POP POP PUSH1 0x1 SWAP1 SUB SWAP1 PUSH1 0x0 MSTORE PUSH1 0x20 PUSH1 0x0 KECCAK256 ADD PUSH1 0x0 SWAP1 SWAP2 SWAP1 SWAP2 SWAP1 SWAP2 PUSH2 0x100 EXP DUP2 SLOAD DUP2 PUSH20 0xFFFFFFFFFFFFFFFFFFFFFFFFFFFFFFFFFFFFFFFF MUL NOT AND SWAP1 DUP4 PUSH20 0xFFFFFFFFFFFFFFFFFFFFFFFFFFFFFFFFFFFFFFFF AND MUL OR SWAP1 SSTORE POP PUSH1 0xA PUSH1 0x0 PUSH2 0x2576 SWAP2 SWAP1 PUSH2 0x2CA7 JUMP JUMPDEST PUSH1 0x0 PUSH1 0x8 DUP2 SWAP1 SSTORE POP POP POP POP POP JUMP JUMPDEST PUSH1 0x0 PUSH1 0xE DUP1 SLOAD SWAP1 POP PUSH2 0x2594 PUSH2 0x2C2D JUMP JUMPDEST PUSH2 0x259E SWAP2 SWAP1 PUSH2 0x34E8 JUMP JUMPDEST SWAP1 POP PUSH1 0x0 PUSH1 0xE DUP1 SLOAD SWAP1 POP PUSH1 0xD SLOAD PUSH2 0x25B5 SWAP2 SWAP1 PUSH2 0x3519 JUMP JUMPDEST SWAP1 POP PUSH1 0x0 PUSH2 0x25CF PUSH2 0x25C8 DUP4 PUSH1 0x2 SLOAD PUSH2 0x2C65 JUMP JUMPDEST PUSH1 0x64 PUSH2 0x2C7B JUMP JUMPDEST SWAP1 POP PUSH1 0x14 PUSH1 0x0 SWAP1 SLOAD SWAP1 PUSH2 0x100 EXP SWAP1 DIV PUSH20 0xFFFFFFFFFFFFFFFFFFFFFFFFFFFFFFFFFFFFFFFF AND PUSH20 0xFFFFFFFFFFFFFFFFFFFFFFFFFFFFFFFFFFFFFFFF AND PUSH4 0xA9059CBB PUSH1 0x1 PUSH1 0x0 SWAP1 SLOAD SWAP1 PUSH2 0x100 EXP SWAP1 DIV PUSH20 0xFFFFFFFFFFFFFFFFFFFFFFFFFFFFFFFFFFFFFFFF AND DUP4 PUSH1 0x40 MLOAD DUP4 PUSH4 0xFFFFFFFF AND PUSH1 0xE0 SHL DUP2 MSTORE PUSH1 0x4 ADD PUSH2 0x2650 SWAP3 SWAP2 SWAP1 PUSH2 0x3573 JUMP JUMPDEST PUSH1 0x20 PUSH1 0x40 MLOAD DUP1 DUP4 SUB DUP2 PUSH1 0x0 DUP8 GAS CALL ISZERO DUP1 ISZERO PUSH2 0x266F JUMPI RETURNDATASIZE PUSH1 0x0 DUP1 RETURNDATACOPY RETURNDATASIZE PUSH1 0x0 REVERT JUMPDEST POP POP POP POP PUSH1 0x40 MLOAD RETURNDATASIZE PUSH1 0x1F NOT PUSH1 0x1F DUP3 ADD AND DUP3 ADD DUP1 PUSH1 0x40 MSTORE POP DUP2 ADD SWAP1 PUSH2 0x2693 SWAP2 SWAP1 PUSH2 0x33B5 JUMP JUMPDEST POP PUSH1 0x0 PUSH2 0x26A0 DUP4 DUP4 PUSH2 0x2C91 JUMP JUMPDEST SWAP1 POP PUSH1 0x14 PUSH1 0x0 SWAP1 SLOAD SWAP1 PUSH2 0x100 EXP SWAP1 DIV PUSH20 0xFFFFFFFFFFFFFFFFFFFFFFFFFFFFFFFFFFFFFFFF AND PUSH20 0xFFFFFFFFFFFFFFFFFFFFFFFFFFFFFFFFFFFFFFFF AND PUSH4 0xA9059CBB PUSH1 0xE DUP7 DUP2 SLOAD DUP2 LT PUSH2 0x26F4 JUMPI PUSH2 0x26F3 PUSH2 0x314A JUMP JUMPDEST JUMPDEST SWAP1 PUSH1 0x0 MSTORE PUSH1 0x20 PUSH1 0x0 KECCAK256 ADD PUSH1 0x0 SWAP1 SLOAD SWAP1 PUSH2 0x100 EXP SWAP1 DIV PUSH20 0xFFFFFFFFFFFFFFFFFFFFFFFFFFFFFFFFFFFFFFFF AND DUP4 PUSH1 0x40 MLOAD DUP4 PUSH4 0xFFFFFFFF AND PUSH1 0xE0 SHL DUP2 MSTORE PUSH1 0x4 ADD PUSH2 0x273D SWAP3 SWAP2 SWAP1 PUSH2 0x35BD JUMP JUMPDEST PUSH1 0x20 PUSH1 0x40 MLOAD DUP1 DUP4 SUB DUP2 PUSH1 0x0 DUP8 GAS CALL ISZERO DUP1 ISZERO PUSH2 0x275C JUMPI RETURNDATASIZE PUSH1 0x0 DUP1 RETURNDATACOPY RETURNDATASIZE PUSH1 0x0 REVERT JUMPDEST POP POP POP POP PUSH1 0x40 MLOAD RETURNDATASIZE PUSH1 0x1F NOT PUSH1 0x1F DUP3 ADD AND DUP3 ADD DUP1 PUSH1 0x40 MSTORE POP DUP2 ADD SWAP1 PUSH2 0x2780 SWAP2 SWAP1 PUSH2 0x33B5 JUMP JUMPDEST POP PUSH1 0x12 PUSH1 0xE DUP6 DUP2 SLOAD DUP2 LT PUSH2 0x2797 JUMPI PUSH2 0x2796 PUSH2 0x314A JUMP JUMPDEST JUMPDEST SWAP1 PUSH1 0x0 MSTORE PUSH1 0x20 PUSH1 0x0 KECCAK256 ADD PUSH1 0x0 SWAP1 SLOAD SWAP1 PUSH2 0x100 EXP SWAP1 DIV PUSH20 0xFFFFFFFFFFFFFFFFFFFFFFFFFFFFFFFFFFFFFFFF AND SWAP1 DUP1 PUSH1 0x1 DUP2 SLOAD ADD DUP1 DUP3 SSTORE DUP1 SWAP2 POP POP PUSH1 0x1 SWAP1 SUB SWAP1 PUSH1 0x0 MSTORE PUSH1 0x20 PUSH1 0x0 KECCAK256 ADD PUSH1 0x0 SWAP1 SWAP2 SWAP1 SWAP2 SWAP1 SWAP2 PUSH2 0x100 EXP DUP2 SLOAD DUP2 PUSH20 0xFFFFFFFFFFFFFFFFFFFFFFFFFFFFFFFFFFFFFFFF MUL NOT AND SWAP1 DUP4 PUSH20 0xFFFFFFFFFFFFFFFFFFFFFFFFFFFFFFFFFFFFFFFF AND MUL OR SWAP1 SSTORE POP PUSH1 0xE PUSH1 0x0 PUSH2 0x2830 SWAP2 SWAP1 PUSH2 0x2CA7 JUMP JUMPDEST PUSH1 0x0 PUSH1 0xC DUP2 SWAP1 SSTORE POP POP POP POP POP JUMP JUMPDEST PUSH1 0x0 PUSH1 0x6 DUP1 SLOAD SWAP1 POP PUSH2 0x284E PUSH2 0x2C2D JUMP JUMPDEST PUSH2 0x2858 SWAP2 SWAP1 PUSH2 0x34E8 JUMP JUMPDEST SWAP1 POP PUSH1 0x0 PUSH1 0x6 DUP1 SLOAD SWAP1 POP SWAP1 POP PUSH1 0x0 DUP2 PUSH1 0x5 SLOAD PUSH2 0x2874 SWAP2 SWAP1 PUSH2 0x3519 JUMP JUMPDEST SWAP1 POP PUSH1 0x0 PUSH2 0x288E PUSH2 0x2887 DUP4 PUSH1 0x2 SLOAD PUSH2 0x2C65 JUMP JUMPDEST PUSH1 0x64 PUSH2 0x2C7B JUMP JUMPDEST SWAP1 POP PUSH1 0x14 PUSH1 0x0 SWAP1 SLOAD SWAP1 PUSH2 0x100 EXP SWAP1 DIV PUSH20 0xFFFFFFFFFFFFFFFFFFFFFFFFFFFFFFFFFFFFFFFF AND PUSH20 0xFFFFFFFFFFFFFFFFFFFFFFFFFFFFFFFFFFFFFFFF AND PUSH4 0xA9059CBB PUSH1 0x1 PUSH1 0x0 SWAP1 SLOAD SWAP1 PUSH2 0x100 EXP SWAP1 DIV PUSH20 0xFFFFFFFFFFFFFFFFFFFFFFFFFFFFFFFFFFFFFFFF AND DUP4 PUSH1 0x40 MLOAD DUP4 PUSH4 0xFFFFFFFF AND PUSH1 0xE0 SHL DUP2 MSTORE PUSH1 0x4 ADD PUSH2 0x290F SWAP3 SWAP2 SWAP1 PUSH2 0x3573 JUMP JUMPDEST PUSH1 0x20 PUSH1 0x40 MLOAD DUP1 DUP4 SUB DUP2 PUSH1 0x0 DUP8 GAS CALL ISZERO DUP1 ISZERO PUSH2 0x292E JUMPI RETURNDATASIZE PUSH1 0x0 DUP1 RETURNDATACOPY RETURNDATASIZE PUSH1 0x0 REVERT JUMPDEST POP POP POP POP PUSH1 0x40 MLOAD RETURNDATASIZE PUSH1 0x1F NOT PUSH1 0x1F DUP3 ADD AND DUP3 ADD DUP1 PUSH1 0x40 MSTORE POP DUP2 ADD SWAP1 PUSH2 0x2952 SWAP2 SWAP1 PUSH2 0x33B5 JUMP JUMPDEST POP PUSH1 0x0 PUSH2 0x295F DUP4 DUP4 PUSH2 0x2C91 JUMP JUMPDEST SWAP1 POP PUSH1 0x14 PUSH1 0x0 SWAP1 SLOAD SWAP1 PUSH2 0x100 EXP SWAP1 DIV PUSH20 0xFFFFFFFFFFFFFFFFFFFFFFFFFFFFFFFFFFFFFFFF AND PUSH20 0xFFFFFFFFFFFFFFFFFFFFFFFFFFFFFFFFFFFFFFFF AND PUSH4 0xA9059CBB PUSH1 0x6 DUP8 DUP2 SLOAD DUP2 LT PUSH2 0x29B3 JUMPI PUSH2 0x29B2 PUSH2 0x314A JUMP JUMPDEST JUMPDEST SWAP1 PUSH1 0x0 MSTORE PUSH1 0x20 PUSH1 0x0 KECCAK256 ADD PUSH1 0x0 SWAP1 SLOAD SWAP1 PUSH2 0x100 EXP SWAP1 DIV PUSH20 0xFFFFFFFFFFFFFFFFFFFFFFFFFFFFFFFFFFFFFFFF AND DUP4 PUSH1 0x40 MLOAD DUP4 PUSH4 0xFFFFFFFF AND PUSH1 0xE0 SHL DUP2 MSTORE PUSH1 0x4 ADD PUSH2 0x29FC SWAP3 SWAP2 SWAP1 PUSH2 0x35BD JUMP JUMPDEST PUSH1 0x20 PUSH1 0x40 MLOAD DUP1 DUP4 SUB DUP2 PUSH1 0x0 DUP8 GAS CALL ISZERO DUP1 ISZERO PUSH2 0x2A1B JUMPI RETURNDATASIZE PUSH1 0x0 DUP1 RETURNDATACOPY RETURNDATASIZE PUSH1 0x0 REVERT JUMPDEST POP POP POP POP PUSH1 0x40 MLOAD RETURNDATASIZE PUSH1 0x1F NOT PUSH1 0x1F DUP3 ADD AND DUP3 ADD DUP1 PUSH1 0x40 MSTORE POP DUP2 ADD SWAP1 PUSH2 0x2A3F SWAP2 SWAP1 PUSH2 0x33B5 JUMP JUMPDEST POP PUSH1 0x10 PUSH1 0x6 DUP7 DUP2 SLOAD DUP2 LT PUSH2 0x2A56 JUMPI PUSH2 0x2A55 PUSH2 0x314A JUMP JUMPDEST JUMPDEST SWAP1 PUSH1 0x0 MSTORE PUSH1 0x20 PUSH1 0x0 KECCAK256 ADD PUSH1 0x0 SWAP1 SLOAD SWAP1 PUSH2 0x100 EXP SWAP1 DIV PUSH20 0xFFFFFFFFFFFFFFFFFFFFFFFFFFFFFFFFFFFFFFFF AND SWAP1 DUP1 PUSH1 0x1 DUP2 SLOAD ADD DUP1 DUP3 SSTORE DUP1 SWAP2 POP POP PUSH1 0x1 SWAP1 SUB SWAP1 PUSH1 0x0 MSTORE PUSH1 0x20 PUSH1 0x0 KECCAK256 ADD PUSH1 0x0 SWAP1 SWAP2 SWAP1 SWAP2 SWAP1 SWAP2 PUSH2 0x100 EXP DUP2 SLOAD DUP2 PUSH20 0xFFFFFFFFFFFFFFFFFFFFFFFFFFFFFFFFFFFFFFFF MUL NOT AND SWAP1 DUP4 PUSH20 0xFFFFFFFFFFFFFFFFFFFFFFFFFFFFFFFFFFFFFFFF AND MUL OR SWAP1 SSTORE POP PUSH1 0x6 PUSH1 0x0 PUSH2 0x2AEF SWAP2 SWAP1 PUSH2 0x2CA7 JUMP JUMPDEST PUSH1 0x0 PUSH1 0x4 DUP2 SWAP1 SSTORE POP POP POP POP POP POP JUMP JUMPDEST PUSH1 0x0 PUSH20 0xFFFFFFFFFFFFFFFFFFFFFFFFFFFFFFFFFFFFFFFF AND DUP2 PUSH20 0xFFFFFFFFFFFFFFFFFFFFFFFFFFFFFFFFFFFFFFFF AND SUB PUSH2 0x2B6D JUMPI PUSH1 0x40 MLOAD PUSH32 0x8C379A000000000000000000000000000000000000000000000000000000000 DUP2 MSTORE PUSH1 0x4 ADD PUSH2 0x2B64 SWAP1 PUSH2 0x3658 JUMP JUMPDEST PUSH1 0x40 MLOAD DUP1 SWAP2 SUB SWAP1 REVERT JUMPDEST DUP1 PUSH20 0xFFFFFFFFFFFFFFFFFFFFFFFFFFFFFFFFFFFFFFFF AND PUSH1 0x0 PUSH1 0x1 SWAP1 SLOAD SWAP1 PUSH2 0x100 EXP SWAP1 DIV PUSH20 0xFFFFFFFFFFFFFFFFFFFFFFFFFFFFFFFFFFFFFFFF AND PUSH20 0xFFFFFFFFFFFFFFFFFFFFFFFFFFFFFFFFFFFFFFFF AND PUSH32 0x8BE0079C531659141344CD1FD0A4F28419497F9722A3DAAFE3B4186F6B6457E0 PUSH1 0x40 MLOAD PUSH1 0x40 MLOAD DUP1 SWAP2 SUB SWAP1 LOG3 DUP1 PUSH1 0x0 PUSH1 0x1 PUSH2 0x100 EXP DUP2 SLOAD DUP2 PUSH20 0xFFFFFFFFFFFFFFFFFFFFFFFFFFFFFFFFFFFFFFFF MUL NOT AND SWAP1 DUP4 PUSH20 0xFFFFFFFFFFFFFFFFFFFFFFFFFFFFFFFFFFFFFFFF AND MUL OR SWAP1 SSTORE POP POP JUMP JUMPDEST PUSH1 0x0 DIFFICULTY TIMESTAMP PUSH1 0x6 NUMBER PUSH1 0x40 MLOAD PUSH1 0x20 ADD PUSH2 0x2C47 SWAP5 SWAP4 SWAP3 SWAP2 SWAP1 PUSH2 0x37AE JUMP JUMPDEST PUSH1 0x40 MLOAD PUSH1 0x20 DUP2 DUP4 SUB SUB DUP2 MSTORE SWAP1 PUSH1 0x40 MSTORE DUP1 MLOAD SWAP1 PUSH1 0x20 ADD KECCAK256 PUSH1 0x0 SHR SWAP1 POP SWAP1 JUMP JUMPDEST PUSH1 0x0 DUP2 DUP4 PUSH2 0x2C73 SWAP2 SWAP1 PUSH2 0x3519 JUMP JUMPDEST SWAP1 POP SWAP3 SWAP2 POP POP JUMP JUMPDEST PUSH1 0x0 DUP2 DUP4 PUSH2 0x2C89 SWAP2 SWAP1 PUSH2 0x37FA JUMP JUMPDEST SWAP1 POP SWAP3 SWAP2 POP POP JUMP JUMPDEST PUSH1 0x0 DUP2 DUP4 PUSH2 0x2C9F SWAP2 SWAP1 PUSH2 0x30CE JUMP JUMPDEST SWAP1 POP SWAP3 SWAP2 POP POP JUMP JUMPDEST POP DUP1 SLOAD PUSH1 0x0 DUP3 SSTORE SWAP1 PUSH1 0x0 MSTORE PUSH1 0x20 PUSH1 0x0 KECCAK256 SWAP1 DUP2 ADD SWAP1 PUSH2 0x2CC5 SWAP2 SWAP1 PUSH2 0x2CC8 JUMP JUMPDEST POP JUMP JUMPDEST JUMPDEST DUP1 DUP3 GT ISZERO PUSH2 0x2CE1 JUMPI PUSH1 0x0 DUP2 PUSH1 0x0 SWAP1 SSTORE POP PUSH1 0x1 ADD PUSH2 0x2CC9 JUMP JUMPDEST POP SWAP1 JUMP JUMPDEST PUSH1 0x0 DUP2 MLOAD SWAP1 POP SWAP2 SWAP1 POP JUMP JUMPDEST PUSH1 0x0 DUP3 DUP3 MSTORE PUSH1 0x20 DUP3 ADD SWAP1 POP SWAP3 SWAP2 POP POP JUMP JUMPDEST PUSH1 0x0 DUP2 SWAP1 POP PUSH1 0x20 DUP3 ADD SWAP1 POP SWAP2 SWAP1 POP JUMP JUMPDEST PUSH1 0x0 PUSH20 0xFFFFFFFFFFFFFFFFFFFFFFFFFFFFFFFFFFFFFFFF DUP3 AND SWAP1 POP SWAP2 SWAP1 POP JUMP JUMPDEST PUSH1 0x0 PUSH2 0x2D3C DUP3 PUSH2 0x2D11 JUMP JUMPDEST SWAP1 POP SWAP2 SWAP1 POP JUMP JUMPDEST PUSH2 0x2D4C DUP2 PUSH2 0x2D31 JUMP JUMPDEST DUP3 MSTORE POP POP JUMP JUMPDEST PUSH1 0x0 PUSH2 0x2D5E DUP4 DUP4 PUSH2 0x2D43 JUMP JUMPDEST PUSH1 0x20 DUP4 ADD SWAP1 POP SWAP3 SWAP2 POP POP JUMP JUMPDEST PUSH1 0x0 PUSH1 0x20 DUP3 ADD SWAP1 POP SWAP2 SWAP1 POP JUMP JUMPDEST PUSH1 0x0 PUSH2 0x2D82 DUP3 PUSH2 0x2CE5 JUMP JUMPDEST PUSH2 0x2D8C DUP2 DUP6 PUSH2 0x2CF0 JUMP JUMPDEST SWAP4 POP PUSH2 0x2D97 DUP4 PUSH2 0x2D01 JUMP JUMPDEST DUP1 PUSH1 0x0 JUMPDEST DUP4 DUP2 LT ISZERO PUSH2 0x2DC8 JUMPI DUP2 MLOAD PUSH2 0x2DAF DUP9 DUP3 PUSH2 0x2D52 JUMP JUMPDEST SWAP8 POP PUSH2 0x2DBA DUP4 PUSH2 0x2D6A JUMP JUMPDEST SWAP3 POP POP PUSH1 0x1 DUP2 ADD SWAP1 POP PUSH2 0x2D9B JUMP JUMPDEST POP DUP6 SWAP4 POP POP POP POP SWAP3 SWAP2 POP POP JUMP JUMPDEST PUSH1 0x0 PUSH1 0x20 DUP3 ADD SWAP1 POP DUP2 DUP2 SUB PUSH1 0x0 DUP4 ADD MSTORE PUSH2 0x2DEF DUP2 DUP5 PUSH2 0x2D77 JUMP JUMPDEST SWAP1 POP SWAP3 SWAP2 POP POP JUMP JUMPDEST PUSH1 0x0 DUP1 REVERT JUMPDEST PUSH1 0x0 DUP2 SWAP1 POP SWAP2 SWAP1 POP JUMP JUMPDEST PUSH2 0x2E0F DUP2 PUSH2 0x2DFC JUMP JUMPDEST DUP2 EQ PUSH2 0x2E1A JUMPI PUSH1 0x0 DUP1 REVERT JUMPDEST POP JUMP JUMPDEST PUSH1 0x0 DUP2 CALLDATALOAD SWAP1 POP PUSH2 0x2E2C DUP2 PUSH2 0x2E06 JUMP JUMPDEST SWAP3 SWAP2 POP POP JUMP JUMPDEST PUSH1 0x0 PUSH1 0x20 DUP3 DUP5 SUB SLT ISZERO PUSH2 0x2E48 JUMPI PUSH2 0x2E47 PUSH2 0x2DF7 JUMP JUMPDEST JUMPDEST PUSH1 0x0 PUSH2 0x2E56 DUP5 DUP3 DUP6 ADD PUSH2 0x2E1D JUMP JUMPDEST SWAP2 POP POP SWAP3 SWAP2 POP POP JUMP JUMPDEST PUSH2 0x2E68 DUP2 PUSH2 0x2D31 JUMP JUMPDEST DUP3 MSTORE POP POP JUMP JUMPDEST PUSH1 0x0 PUSH1 0x20 DUP3 ADD SWAP1 POP PUSH2 0x2E83 PUSH1 0x0 DUP4 ADD DUP5 PUSH2 0x2E5F JUMP JUMPDEST SWAP3 SWAP2 POP POP JUMP JUMPDEST PUSH2 0x2E92 DUP2 PUSH2 0x2DFC JUMP JUMPDEST DUP3 MSTORE POP POP JUMP JUMPDEST PUSH1 0x0 PUSH1 0x20 DUP3 ADD SWAP1 POP PUSH2 0x2EAD PUSH1 0x0 DUP4 ADD DUP5 PUSH2 0x2E89 JUMP JUMPDEST SWAP3 SWAP2 POP POP JUMP JUMPDEST PUSH1 0x0 DUP2 ISZERO ISZERO SWAP1 POP SWAP2 SWAP1 POP JUMP JUMPDEST PUSH2 0x2EC8 DUP2 PUSH2 0x2EB3 JUMP JUMPDEST DUP3 MSTORE POP POP JUMP JUMPDEST PUSH1 0x0 PUSH1 0x20 DUP3 ADD SWAP1 POP PUSH2 0x2EE3 PUSH1 0x0 DUP4 ADD DUP5 PUSH2 0x2EBF JUMP JUMPDEST SWAP3 SWAP2 POP POP JUMP JUMPDEST PUSH2 0x2EF2 DUP2 PUSH2 0x2D31 JUMP JUMPDEST DUP2 EQ PUSH2 0x2EFD JUMPI PUSH1 0x0 DUP1 REVERT JUMPDEST POP JUMP JUMPDEST PUSH1 0x0 DUP2 CALLDATALOAD SWAP1 POP PUSH2 0x2F0F DUP2 PUSH2 0x2EE9 JUMP JUMPDEST SWAP3 SWAP2 POP POP JUMP JUMPDEST PUSH1 0x0 PUSH1 0x20 DUP3 DUP5 SUB SLT ISZERO PUSH2 0x2F2B JUMPI PUSH2 0x2F2A PUSH2 0x2DF7 JUMP JUMPDEST JUMPDEST PUSH1 0x0 PUSH2 0x2F39 DUP5 DUP3 DUP6 ADD PUSH2 0x2F00 JUMP JUMPDEST SWAP2 POP POP SWAP3 SWAP2 POP POP JUMP JUMPDEST PUSH1 0x0 PUSH1 0x60 DUP3 ADD SWAP1 POP PUSH2 0x2F57 PUSH1 0x0 DUP4 ADD DUP7 PUSH2 0x2E89 JUMP JUMPDEST PUSH2 0x2F64 PUSH1 0x20 DUP4 ADD DUP6 PUSH2 0x2E89 JUMP JUMPDEST PUSH2 0x2F71 PUSH1 0x40 DUP4 ADD DUP5 PUSH2 0x2E89 JUMP JUMPDEST SWAP5 SWAP4 POP POP POP POP JUMP JUMPDEST PUSH1 0x0 DUP2 SWAP1 POP SWAP2 SWAP1 POP JUMP JUMPDEST PUSH1 0x0 PUSH2 0x2F9E PUSH2 0x2F99 PUSH2 0x2F94 DUP5 PUSH2 0x2D11 JUMP JUMPDEST PUSH2 0x2F79 JUMP JUMPDEST PUSH2 0x2D11 JUMP JUMPDEST SWAP1 POP SWAP2 SWAP1 POP JUMP JUMPDEST PUSH1 0x0 PUSH2 0x2FB0 DUP3 PUSH2 0x2F83 JUMP JUMPDEST SWAP1 POP SWAP2 SWAP1 POP JUMP JUMPDEST PUSH1 0x0 PUSH2 0x2FC2 DUP3 PUSH2 0x2FA5 JUMP JUMPDEST SWAP1 POP SWAP2 SWAP1 POP JUMP JUMPDEST PUSH2 0x2FD2 DUP2 PUSH2 0x2FB7 JUMP JUMPDEST DUP3 MSTORE POP POP JUMP JUMPDEST PUSH1 0x0 PUSH1 0x20 DUP3 ADD SWAP1 POP PUSH2 0x2FED PUSH1 0x0 DUP4 ADD DUP5 PUSH2 0x2FC9 JUMP JUMPDEST SWAP3 SWAP2 POP POP JUMP JUMPDEST PUSH1 0x0 DUP3 DUP3 MSTORE PUSH1 0x20 DUP3 ADD SWAP1 POP SWAP3 SWAP2 POP POP JUMP JUMPDEST PUSH32 0x4F776E61626C653A2063616C6C6572206973206E6F7420746865206F776E6572 PUSH1 0x0 DUP3 ADD MSTORE POP JUMP JUMPDEST PUSH1 0x0 PUSH2 0x303A PUSH1 0x20 DUP4 PUSH2 0x2FF3 JUMP JUMPDEST SWAP2 POP PUSH2 0x3045 DUP3 PUSH2 0x3004 JUMP JUMPDEST PUSH1 0x20 DUP3 ADD SWAP1 POP SWAP2 SWAP1 POP JUMP JUMPDEST PUSH1 0x0 PUSH1 0x20 DUP3 ADD SWAP1 POP DUP2 DUP2 SUB PUSH1 0x0 DUP4 ADD MSTORE PUSH2 0x3069 DUP2 PUSH2 0x302D JUMP JUMPDEST SWAP1 POP SWAP2 SWAP1 POP JUMP JUMPDEST PUSH32 0x4E487B7100000000000000000000000000000000000000000000000000000000 PUSH1 0x0 MSTORE PUSH1 0x41 PUSH1 0x4 MSTORE PUSH1 0x24 PUSH1 0x0 REVERT JUMPDEST PUSH32 0x4E487B7100000000000000000000000000000000000000000000000000000000 PUSH1 0x0 MSTORE PUSH1 0x11 PUSH1 0x4 MSTORE PUSH1 0x24 PUSH1 0x0 REVERT JUMPDEST PUSH1 0x0 PUSH2 0x30D9 DUP3 PUSH2 0x2DFC JUMP JUMPDEST SWAP2 POP PUSH2 0x30E4 DUP4 PUSH2 0x2DFC JUMP JUMPDEST SWAP3 POP DUP3 DUP3 SUB SWAP1 POP DUP2 DUP2 GT ISZERO PUSH2 0x30FC JUMPI PUSH2 0x30FB PUSH2 0x309F JUMP JUMPDEST JUMPDEST SWAP3 SWAP2 POP POP JUMP JUMPDEST PUSH1 0x0 PUSH2 0x310D DUP3 PUSH2 0x2DFC JUMP JUMPDEST SWAP2 POP PUSH32 0xFFFFFFFFFFFFFFFFFFFFFFFFFFFFFFFFFFFFFFFFFFFFFFFFFFFFFFFFFFFFFFFF DUP3 SUB PUSH2 0x313F JUMPI PUSH2 0x313E PUSH2 0x309F JUMP JUMPDEST JUMPDEST PUSH1 0x1 DUP3 ADD SWAP1 POP SWAP2 SWAP1 POP JUMP JUMPDEST PUSH32 0x4E487B7100000000000000000000000000000000000000000000000000000000 PUSH1 0x0 MSTORE PUSH1 0x32 PUSH1 0x4 MSTORE PUSH1 0x24 PUSH1 0x0 REVERT JUMPDEST PUSH1 0x0 PUSH2 0x3184 DUP3 PUSH2 0x2DFC JUMP JUMPDEST SWAP2 POP PUSH1 0x0 DUP3 SUB PUSH2 0x3197 JUMPI PUSH2 0x3196 PUSH2 0x309F JUMP JUMPDEST JUMPDEST PUSH1 0x1 DUP3 SUB SWAP1 POP SWAP2 SWAP1 POP JUMP JUMPDEST PUSH32 0x4163636573732064656E69656421000000000000000000000000000000000000 PUSH1 0x0 DUP3 ADD MSTORE POP JUMP JUMPDEST PUSH1 0x0 PUSH2 0x31D8 PUSH1 0xE DUP4 PUSH2 0x2FF3 JUMP JUMPDEST SWAP2 POP PUSH2 0x31E3 DUP3 PUSH2 0x31A2 JUMP JUMPDEST PUSH1 0x20 DUP3 ADD SWAP1 POP SWAP2 SWAP1 POP JUMP JUMPDEST PUSH1 0x0 PUSH1 0x20 DUP3 ADD SWAP1 POP DUP2 DUP2 SUB PUSH1 0x0 DUP4 ADD MSTORE PUSH2 0x3207 DUP2 PUSH2 0x31CB JUMP JUMPDEST SWAP1 POP SWAP2 SWAP1 POP JUMP JUMPDEST PUSH32 0x4E6F2072652D656E7472616E6379000000000000000000000000000000000000 PUSH1 0x0 DUP3 ADD MSTORE POP JUMP JUMPDEST PUSH1 0x0 PUSH2 0x3244 PUSH1 0xE DUP4 PUSH2 0x2FF3 JUMP JUMPDEST SWAP2 POP PUSH2 0x324F DUP3 PUSH2 0x320E JUMP JUMPDEST PUSH1 0x20 DUP3 ADD SWAP1 POP SWAP2 SWAP1 POP JUMP JUMPDEST PUSH1 0x0 PUSH1 0x20 DUP3 ADD SWAP1 POP DUP2 DUP2 SUB PUSH1 0x0 DUP4 ADD MSTORE PUSH2 0x3273 DUP2 PUSH2 0x3237 JUMP JUMPDEST SWAP1 POP SWAP2 SWAP1 POP JUMP JUMPDEST PUSH32 0x4C6F7474657279206973206E6F74207374617274656420796574000000000000 PUSH1 0x0 DUP3 ADD MSTORE POP JUMP JUMPDEST PUSH1 0x0 PUSH2 0x32B0 PUSH1 0x1A DUP4 PUSH2 0x2FF3 JUMP JUMPDEST SWAP2 POP PUSH2 0x32BB DUP3 PUSH2 0x327A JUMP JUMPDEST PUSH1 0x20 DUP3 ADD SWAP1 POP SWAP2 SWAP1 POP JUMP JUMPDEST PUSH1 0x0 PUSH1 0x20 DUP3 ADD SWAP1 POP DUP2 DUP2 SUB PUSH1 0x0 DUP4 ADD MSTORE PUSH2 0x32DF DUP2 PUSH2 0x32A3 JUMP JUMPDEST SWAP1 POP SWAP2 SWAP1 POP JUMP JUMPDEST PUSH32 0x4E6F742053616D65000000000000000000000000000000000000000000000000 PUSH1 0x0 DUP3 ADD MSTORE POP JUMP JUMPDEST PUSH1 0x0 PUSH2 0x331C PUSH1 0x8 DUP4 PUSH2 0x2FF3 JUMP JUMPDEST SWAP2 POP PUSH2 0x3327 DUP3 PUSH2 0x32E6 JUMP JUMPDEST PUSH1 0x20 DUP3 ADD SWAP1 POP SWAP2 SWAP1 POP JUMP JUMPDEST PUSH1 0x0 PUSH1 0x20 DUP3 ADD SWAP1 POP DUP2 DUP2 SUB PUSH1 0x0 DUP4 ADD MSTORE PUSH2 0x334B DUP2 PUSH2 0x330F JUMP JUMPDEST SWAP1 POP SWAP2 SWAP1 POP JUMP JUMPDEST PUSH1 0x0 PUSH1 0x60 DUP3 ADD SWAP1 POP PUSH2 0x3367 PUSH1 0x0 DUP4 ADD DUP7 PUSH2 0x2E5F JUMP JUMPDEST PUSH2 0x3374 PUSH1 0x20 DUP4 ADD DUP6 PUSH2 0x2E5F JUMP JUMPDEST PUSH2 0x3381 PUSH1 0x40 DUP4 ADD DUP5 PUSH2 0x2E89 JUMP JUMPDEST SWAP5 SWAP4 POP POP POP POP JUMP JUMPDEST PUSH2 0x3392 DUP2 PUSH2 0x2EB3 JUMP JUMPDEST DUP2 EQ PUSH2 0x339D JUMPI PUSH1 0x0 DUP1 REVERT JUMPDEST POP JUMP JUMPDEST PUSH1 0x0 DUP2 MLOAD SWAP1 POP PUSH2 0x33AF DUP2 PUSH2 0x3389 JUMP JUMPDEST SWAP3 SWAP2 POP POP JUMP JUMPDEST PUSH1 0x0 PUSH1 0x20 DUP3 DUP5 SUB SLT ISZERO PUSH2 0x33CB JUMPI PUSH2 0x33CA PUSH2 0x2DF7 JUMP JUMPDEST JUMPDEST PUSH1 0x0 PUSH2 0x33D9 DUP5 DUP3 DUP6 ADD PUSH2 0x33A0 JUMP JUMPDEST SWAP2 POP POP SWAP3 SWAP2 POP POP JUMP JUMPDEST PUSH32 0x4E6F742073616D6520616D6F756E740000000000000000000000000000000000 PUSH1 0x0 DUP3 ADD MSTORE POP JUMP JUMPDEST PUSH1 0x0 PUSH2 0x3418 PUSH1 0xF DUP4 PUSH2 0x2FF3 JUMP JUMPDEST SWAP2 POP PUSH2 0x3423 DUP3 PUSH2 0x33E2 JUMP JUMPDEST PUSH1 0x20 DUP3 ADD SWAP1 POP SWAP2 SWAP1 POP JUMP JUMPDEST PUSH1 0x0 PUSH1 0x20 DUP3 ADD SWAP1 POP DUP2 DUP2 SUB PUSH1 0x0 DUP4 ADD MSTORE PUSH2 0x3447 DUP2 PUSH2 0x340B JUMP JUMPDEST SWAP1 POP SWAP2 SWAP1 POP JUMP JUMPDEST PUSH1 0x0 DUP2 MLOAD SWAP1 POP PUSH2 0x345D DUP2 PUSH2 0x2E06 JUMP JUMPDEST SWAP3 SWAP2 POP POP JUMP JUMPDEST PUSH1 0x0 PUSH1 0x20 DUP3 DUP5 SUB SLT ISZERO PUSH2 0x3479 JUMPI PUSH2 0x3478 PUSH2 0x2DF7 JUMP JUMPDEST JUMPDEST PUSH1 0x0 PUSH2 0x3487 DUP5 DUP3 DUP6 ADD PUSH2 0x344E JUMP JUMPDEST SWAP2 POP POP SWAP3 SWAP2 POP POP JUMP JUMPDEST PUSH1 0x0 PUSH1 0x40 DUP3 ADD SWAP1 POP PUSH2 0x34A5 PUSH1 0x0 DUP4 ADD DUP6 PUSH2 0x2E89 JUMP JUMPDEST PUSH2 0x34B2 PUSH1 0x20 DUP4 ADD DUP5 PUSH2 0x2E89 JUMP JUMPDEST SWAP4 SWAP3 POP POP POP JUMP JUMPDEST PUSH32 0x4E487B7100000000000000000000000000000000000000000000000000000000 PUSH1 0x0 MSTORE PUSH1 0x12 PUSH1 0x4 MSTORE PUSH1 0x24 PUSH1 0x0 REVERT JUMPDEST PUSH1 0x0 PUSH2 0x34F3 DUP3 PUSH2 0x2DFC JUMP JUMPDEST SWAP2 POP PUSH2 0x34FE DUP4 PUSH2 0x2DFC JUMP JUMPDEST SWAP3 POP DUP3 PUSH2 0x350E JUMPI PUSH2 0x350D PUSH2 0x34B9 JUMP JUMPDEST JUMPDEST DUP3 DUP3 MOD SWAP1 POP SWAP3 SWAP2 POP POP JUMP JUMPDEST PUSH1 0x0 PUSH2 0x3524 DUP3 PUSH2 0x2DFC JUMP JUMPDEST SWAP2 POP PUSH2 0x352F DUP4 PUSH2 0x2DFC JUMP JUMPDEST SWAP3 POP DUP2 PUSH32 0xFFFFFFFFFFFFFFFFFFFFFFFFFFFFFFFFFFFFFFFFFFFFFFFFFFFFFFFFFFFFFFFF DIV DUP4 GT DUP3 ISZERO ISZERO AND ISZERO PUSH2 0x3568 JUMPI PUSH2 0x3567 PUSH2 0x309F JUMP JUMPDEST JUMPDEST DUP3 DUP3 MUL SWAP1 POP SWAP3 SWAP2 POP POP JUMP JUMPDEST PUSH1 0x0 PUSH1 0x40 DUP3 ADD SWAP1 POP PUSH2 0x3588 PUSH1 0x0 DUP4 ADD DUP6 PUSH2 0x2E5F JUMP JUMPDEST PUSH2 0x3595 PUSH1 0x20 DUP4 ADD DUP5 PUSH2 0x2E89 JUMP JUMPDEST SWAP4 SWAP3 POP POP POP JUMP JUMPDEST PUSH1 0x0 PUSH2 0x35A7 DUP3 PUSH2 0x2FA5 JUMP JUMPDEST SWAP1 POP SWAP2 SWAP1 POP JUMP JUMPDEST PUSH2 0x35B7 DUP2 PUSH2 0x359C JUMP JUMPDEST DUP3 MSTORE POP POP JUMP JUMPDEST PUSH1 0x0 PUSH1 0x40 DUP3 ADD SWAP1 POP PUSH2 0x35D2 PUSH1 0x0 DUP4 ADD DUP6 PUSH2 0x35AE JUMP JUMPDEST PUSH2 0x35DF PUSH1 0x20 DUP4 ADD DUP5 PUSH2 0x2E89 JUMP JUMPDEST SWAP4 SWAP3 POP POP POP JUMP JUMPDEST PUSH32 0x4F776E61626C653A206E6577206F776E657220697320746865207A65726F2061 PUSH1 0x0 DUP3 ADD MSTORE PUSH32 0x6464726573730000000000000000000000000000000000000000000000000000 PUSH1 0x20 DUP3 ADD MSTORE POP JUMP JUMPDEST PUSH1 0x0 PUSH2 0x3642 PUSH1 0x26 DUP4 PUSH2 0x2FF3 JUMP JUMPDEST SWAP2 POP PUSH2 0x364D DUP3 PUSH2 0x35E6 JUMP JUMPDEST PUSH1 0x40 DUP3 ADD SWAP1 POP SWAP2 SWAP1 POP JUMP JUMPDEST PUSH1 0x0 PUSH1 0x20 DUP3 ADD SWAP1 POP DUP2 DUP2 SUB PUSH1 0x0 DUP4 ADD MSTORE PUSH2 0x3671 DUP2 PUSH2 0x3635 JUMP JUMPDEST SWAP1 POP SWAP2 SWAP1 POP JUMP JUMPDEST PUSH1 0x0 DUP2 SLOAD SWAP1 POP SWAP2 SWAP1 POP JUMP JUMPDEST PUSH1 0x0 DUP3 DUP3 MSTORE PUSH1 0x20 DUP3 ADD SWAP1 POP SWAP3 SWAP2 POP POP JUMP JUMPDEST PUSH1 0x0 DUP2 SWAP1 POP DUP2 PUSH1 0x0 MSTORE PUSH1 0x20 PUSH1 0x0 KECCAK256 SWAP1 POP SWAP2 SWAP1 POP JUMP JUMPDEST PUSH1 0x0 PUSH2 0x36B4 DUP3 PUSH2 0x2D11 JUMP JUMPDEST SWAP1 POP SWAP2 SWAP1 POP JUMP JUMPDEST PUSH2 0x36C4 DUP2 PUSH2 0x36A9 JUMP JUMPDEST DUP3 MSTORE POP POP JUMP JUMPDEST PUSH1 0x0 PUSH2 0x36D6 DUP4 DUP4 PUSH2 0x36BB JUMP JUMPDEST PUSH1 0x20 DUP4 ADD SWAP1 POP SWAP3 SWAP2 POP POP JUMP JUMPDEST PUSH1 0x0 DUP2 PUSH1 0x0 SHR SWAP1 POP SWAP2 SWAP1 POP JUMP JUMPDEST PUSH1 0x0 PUSH20 0xFFFFFFFFFFFFFFFFFFFFFFFFFFFFFFFFFFFFFFFF DUP3 AND SWAP1 POP SWAP2 SWAP1 POP JUMP JUMPDEST PUSH1 0x0 PUSH2 0x3722 PUSH2 0x371D DUP4 PUSH2 0x36E2 JUMP JUMPDEST PUSH2 0x36EF JUMP JUMPDEST SWAP1 POP SWAP2 SWAP1 POP JUMP JUMPDEST PUSH1 0x0 PUSH2 0x3735 DUP3 SLOAD PUSH2 0x370F JUMP JUMPDEST SWAP1 POP SWAP2 SWAP1 POP JUMP JUMPDEST PUSH1 0x0 PUSH1 0x1 DUP3 ADD SWAP1 POP SWAP2 SWAP1 POP JUMP JUMPDEST PUSH1 0x0 PUSH2 0x3754 DUP3 PUSH2 0x3678 JUMP JUMPDEST PUSH2 0x375E DUP2 DUP6 PUSH2 0x3683 JUMP JUMPDEST SWAP4 POP PUSH2 0x3769 DUP4 PUSH2 0x3694 JUMP JUMPDEST DUP1 PUSH1 0x0 JUMPDEST DUP4 DUP2 LT ISZERO PUSH2 0x37A1 JUMPI PUSH2 0x377E DUP3 PUSH2 0x3729 JUMP JUMPDEST PUSH2 0x3788 DUP9 DUP3 PUSH2 0x36CA JUMP JUMPDEST SWAP8 POP PUSH2 0x3793 DUP4 PUSH2 0x373C JUMP JUMPDEST SWAP3 POP POP PUSH1 0x1 DUP2 ADD SWAP1 POP PUSH2 0x376D JUMP JUMPDEST POP DUP6 SWAP4 POP POP POP POP SWAP3 SWAP2 POP POP JUMP JUMPDEST PUSH1 0x0 PUSH1 0x80 DUP3 ADD SWAP1 POP PUSH2 0x37C3 PUSH1 0x0 DUP4 ADD DUP8 PUSH2 0x2E89 JUMP JUMPDEST PUSH2 0x37D0 PUSH1 0x20 DUP4 ADD DUP7 PUSH2 0x2E89 JUMP JUMPDEST DUP2 DUP2 SUB PUSH1 0x40 DUP4 ADD MSTORE PUSH2 0x37E2 DUP2 DUP6 PUSH2 0x3749 JUMP JUMPDEST SWAP1 POP PUSH2 0x37F1 PUSH1 0x60 DUP4 ADD DUP5 PUSH2 0x2E89 JUMP JUMPDEST SWAP6 SWAP5 POP POP POP POP POP JUMP JUMPDEST PUSH1 0x0 PUSH2 0x3805 DUP3 PUSH2 0x2DFC JUMP JUMPDEST SWAP2 POP PUSH2 0x3810 DUP4 PUSH2 0x2DFC JUMP JUMPDEST SWAP3 POP DUP3 PUSH2 0x3820 JUMPI PUSH2 0x381F PUSH2 0x34B9 JUMP JUMPDEST JUMPDEST DUP3 DUP3 DIV SWAP1 POP SWAP3 SWAP2 POP POP JUMP INVALID LOG2 PUSH5 0x6970667358 0x22 SLT KECCAK256 0xFB OR EXTCODEHASH GASPRICE 0xE7 0xA8 SDIV 0xA7 0xD6 STOP DUP9 0x4A PUSH26 0x1C1500BFDBAF8EFE1880383C5ABAD2B244389E64736F6C634300 ADDMOD LT STOP CALLER "
		},
		"gasEstimates": {
			"creation": {
				"codeDepositCost": "2886600",
				"executionCost": "infinite",
				"totalCost": "infinite"
			},
			"external": {
				"BusdInterface()": "infinite",
				"allWinner()": "infinite",
				"allWinner1()": "infinite",
				"allWinner2()": "infinite",
				"announceLottery()": "infinite",
				"announceLottery1()": "infinite",
				"announceLottery2()": "infinite",
				"getLottery1Length()": "2490",
				"getLottery2Length()": "2535",
				"getLotteryLength()": "2491",
				"howMany(address)": "infinite",
				"joinLottery(uint256)": "infinite",
				"joinLottery1(uint256)": "infinite",
				"joinLottery2(uint256)": "infinite",
				"lotteryBalance()": "infinite",
				"lotteryStarted()": "2539",
				"owner()": "2705",
				"renounceOwnership()": "30492",
				"setMaximmNumbers(uint256)": "24865",
				"setMaximmNumbers1(uint256)": "24887",
				"setMaximmNumbers2(uint256)": "24821",
				"setTicketPrice(uint256)": "24866",
				"setTicketPrice1(uint256)": "24886",
				"setTicketPrice2(uint256)": "24841",
				"startLottery()": "26779",
				"tokenAddress()": "2560",
				"transferOwnership(address)": "30932",
				"viewTicket()": "2505",
				"viewTicket1()": "2549",
				"viewTicket2()": "2526",
				"viewTicketPrice()": "2549",
				"viewTicketPrice1()": "2481",
				"viewTicketPrice2()": "2526",
				"winnerLottery(uint256)": "5044",
				"winnerLottery1(uint256)": "5090",
				"winnerLottery2(uint256)": "5067"
			},
			"internal": {
				"pickwinner()": "infinite",
				"pickwinner1()": "infinite",
				"pickwinner2()": "infinite",
				"random()": "infinite"
			}
		},
		"methodIdentifiers": {
			"BusdInterface()": "b6fa5dfd",
			"allWinner()": "a7e9f0d1",
			"allWinner1()": "d521cf2a",
			"allWinner2()": "13002437",
			"announceLottery()": "f77f15b5",
			"announceLottery1()": "013fc0ab",
			"announceLottery2()": "be69d7ff",
			"getLottery1Length()": "a46eeb75",
			"getLottery2Length()": "a0a7bda8",
			"getLotteryLength()": "576aaa2b",
			"howMany(address)": "602977ad",
			"joinLottery(uint256)": "7eee9fc1",
			"joinLottery1(uint256)": "ce5f6b9f",
			"joinLottery2(uint256)": "3631ef4a",
			"lotteryBalance()": "b2288649",
			"lotteryStarted()": "5a3811b9",
			"owner()": "8da5cb5b",
			"renounceOwnership()": "715018a6",
			"setMaximmNumbers(uint256)": "3fc7adb6",
			"setMaximmNumbers1(uint256)": "4ba35125",
			"setMaximmNumbers2(uint256)": "17c6332c",
			"setTicketPrice(uint256)": "15981650",
			"setTicketPrice1(uint256)": "e437239f",
			"setTicketPrice2(uint256)": "f0c30e95",
			"startLottery()": "160344e2",
			"tokenAddress()": "9d76ea58",
			"transferOwnership(address)": "f2fde38b",
			"viewTicket()": "9ec80702",
			"viewTicket1()": "a308761a",
			"viewTicket2()": "db486929",
			"viewTicketPrice()": "636ad6a6",
			"viewTicketPrice1()": "ea6b0480",
			"viewTicketPrice2()": "8644024b",
			"winnerLottery(uint256)": "f19e8d86",
			"winnerLottery1(uint256)": "56e0bd36",
			"winnerLottery2(uint256)": "890d542f"
		}
	},
	"abi": [
		{
			"inputs": [],
			"stateMutability": "nonpayable",
			"type": "constructor"
		},
		{
			"anonymous": false,
			"inputs": [
				{
					"indexed": true,
					"internalType": "address",
					"name": "previousOwner",
					"type": "address"
				},
				{
					"indexed": true,
					"internalType": "address",
					"name": "newOwner",
					"type": "address"
				}
			],
			"name": "OwnershipTransferred",
			"type": "event"
		},
		{
			"anonymous": false,
			"inputs": [
				{
					"indexed": false,
					"internalType": "uint256",
					"name": "_id",
					"type": "uint256"
				},
				{
					"indexed": false,
					"internalType": "uint256",
					"name": "_value",
					"type": "uint256"
				}
			],
			"name": "logshh",
			"type": "event"
		},
		{
			"inputs": [],
			"name": "BusdInterface",
			"outputs": [
				{
					"internalType": "contract IERC20",
					"name": "",
					"type": "address"
				}
			],
			"stateMutability": "view",
			"type": "function"
		},
		{
			"inputs": [],
			"name": "allWinner",
			"outputs": [
				{
					"internalType": "address[]",
					"name": "",
					"type": "address[]"
				}
			],
			"stateMutability": "view",
			"type": "function"
		},
		{
			"inputs": [],
			"name": "allWinner1",
			"outputs": [
				{
					"internalType": "address[]",
					"name": "",
					"type": "address[]"
				}
			],
			"stateMutability": "view",
			"type": "function"
		},
		{
			"inputs": [],
			"name": "allWinner2",
			"outputs": [
				{
					"internalType": "address[]",
					"name": "",
					"type": "address[]"
				}
			],
			"stateMutability": "view",
			"type": "function"
		},
		{
			"inputs": [],
			"name": "announceLottery",
			"outputs": [],
			"stateMutability": "nonpayable",
			"type": "function"
		},
		{
			"inputs": [],
			"name": "announceLottery1",
			"outputs": [],
			"stateMutability": "nonpayable",
			"type": "function"
		},
		{
			"inputs": [],
			"name": "announceLottery2",
			"outputs": [],
			"stateMutability": "nonpayable",
			"type": "function"
		},
		{
			"inputs": [],
			"name": "getLottery1Length",
			"outputs": [
				{
					"internalType": "uint256",
					"name": "",
					"type": "uint256"
				}
			],
			"stateMutability": "view",
			"type": "function"
		},
		{
			"inputs": [],
			"name": "getLottery2Length",
			"outputs": [
				{
					"internalType": "uint256",
					"name": "",
					"type": "uint256"
				}
			],
			"stateMutability": "view",
			"type": "function"
		},
		{
			"inputs": [],
			"name": "getLotteryLength",
			"outputs": [
				{
					"internalType": "uint256",
					"name": "",
					"type": "uint256"
				}
			],
			"stateMutability": "view",
			"type": "function"
		},
		{
			"inputs": [
				{
					"internalType": "address",
					"name": "ad",
					"type": "address"
				}
			],
			"name": "howMany",
			"outputs": [
				{
					"internalType": "uint256",
					"name": "",
					"type": "uint256"
				},
				{
					"internalType": "uint256",
					"name": "",
					"type": "uint256"
				},
				{
					"internalType": "uint256",
					"name": "",
					"type": "uint256"
				}
			],
			"stateMutability": "view",
			"type": "function"
		},
		{
			"inputs": [
				{
					"internalType": "uint256",
					"name": "_amount",
					"type": "uint256"
				}
			],
			"name": "joinLottery",
			"outputs": [],
			"stateMutability": "nonpayable",
			"type": "function"
		},
		{
			"inputs": [
				{
					"internalType": "uint256",
					"name": "_amount",
					"type": "uint256"
				}
			],
			"name": "joinLottery1",
			"outputs": [],
			"stateMutability": "nonpayable",
			"type": "function"
		},
		{
			"inputs": [
				{
					"internalType": "uint256",
					"name": "_amount",
					"type": "uint256"
				}
			],
			"name": "joinLottery2",
			"outputs": [],
			"stateMutability": "nonpayable",
			"type": "function"
		},
		{
			"inputs": [],
			"name": "lotteryBalance",
			"outputs": [
				{
					"internalType": "uint256",
					"name": "",
					"type": "uint256"
				}
			],
			"stateMutability": "view",
			"type": "function"
		},
		{
			"inputs": [],
			"name": "lotteryStarted",
			"outputs": [
				{
					"internalType": "bool",
					"name": "",
					"type": "bool"
				}
			],
			"stateMutability": "view",
			"type": "function"
		},
		{
			"inputs": [],
			"name": "owner",
			"outputs": [
				{
					"internalType": "address",
					"name": "",
					"type": "address"
				}
			],
			"stateMutability": "view",
			"type": "function"
		},
		{
			"inputs": [],
			"name": "renounceOwnership",
			"outputs": [],
			"stateMutability": "nonpayable",
			"type": "function"
		},
		{
			"inputs": [
				{
					"internalType": "uint256",
					"name": "_maxNumbers",
					"type": "uint256"
				}
			],
			"name": "setMaximmNumbers",
			"outputs": [],
			"stateMutability": "nonpayable",
			"type": "function"
		},
		{
			"inputs": [
				{
					"internalType": "uint256",
					"name": "_maxNumbers",
					"type": "uint256"
				}
			],
			"name": "setMaximmNumbers1",
			"outputs": [],
			"stateMutability": "nonpayable",
			"type": "function"
		},
		{
			"inputs": [
				{
					"internalType": "uint256",
					"name": "_maxNumbers",
					"type": "uint256"
				}
			],
			"name": "setMaximmNumbers2",
			"outputs": [],
			"stateMutability": "nonpayable",
			"type": "function"
		},
		{
			"inputs": [
				{
					"internalType": "uint256",
					"name": "_valueInEther",
					"type": "uint256"
				}
			],
			"name": "setTicketPrice",
			"outputs": [],
			"stateMutability": "nonpayable",
			"type": "function"
		},
		{
			"inputs": [
				{
					"internalType": "uint256",
					"name": "_valueInEther",
					"type": "uint256"
				}
			],
			"name": "setTicketPrice1",
			"outputs": [],
			"stateMutability": "nonpayable",
			"type": "function"
		},
		{
			"inputs": [
				{
					"internalType": "uint256",
					"name": "_valueInEther",
					"type": "uint256"
				}
			],
			"name": "setTicketPrice2",
			"outputs": [],
			"stateMutability": "nonpayable",
			"type": "function"
		},
		{
			"inputs": [],
			"name": "startLottery",
			"outputs": [],
			"stateMutability": "nonpayable",
			"type": "function"
		},
		{
			"inputs": [],
			"name": "tokenAddress",
			"outputs": [
				{
					"internalType": "address",
					"name": "",
					"type": "address"
				}
			],
			"stateMutability": "view",
			"type": "function"
		},
		{
			"inputs": [
				{
					"internalType": "address",
					"name": "newOwner",
					"type": "address"
				}
			],
			"name": "transferOwnership",
			"outputs": [],
			"stateMutability": "nonpayable",
			"type": "function"
		},
		{
			"inputs": [],
			"name": "viewTicket",
			"outputs": [
				{
					"internalType": "uint256",
					"name": "",
					"type": "uint256"
				}
			],
			"stateMutability": "view",
			"type": "function"
		},
		{
			"inputs": [],
			"name": "viewTicket1",
			"outputs": [
				{
					"internalType": "uint256",
					"name": "",
					"type": "uint256"
				}
			],
			"stateMutability": "view",
			"type": "function"
		},
		{
			"inputs": [],
			"name": "viewTicket2",
			"outputs": [
				{
					"internalType": "uint256",
					"name": "",
					"type": "uint256"
				}
			],
			"stateMutability": "view",
			"type": "function"
		},
		{
			"inputs": [],
			"name": "viewTicketPrice",
			"outputs": [
				{
					"internalType": "uint256",
					"name": "",
					"type": "uint256"
				}
			],
			"stateMutability": "view",
			"type": "function"
		},
		{
			"inputs": [],
			"name": "viewTicketPrice1",
			"outputs": [
				{
					"internalType": "uint256",
					"name": "",
					"type": "uint256"
				}
			],
			"stateMutability": "view",
			"type": "function"
		},
		{
			"inputs": [],
			"name": "viewTicketPrice2",
			"outputs": [
				{
					"internalType": "uint256",
					"name": "",
					"type": "uint256"
				}
			],
			"stateMutability": "view",
			"type": "function"
		},
		{
			"inputs": [
				{
					"internalType": "uint256",
					"name": "",
					"type": "uint256"
				}
			],
			"name": "winnerLottery",
			"outputs": [
				{
					"internalType": "address",
					"name": "",
					"type": "address"
				}
			],
			"stateMutability": "view",
			"type": "function"
		},
		{
			"inputs": [
				{
					"internalType": "uint256",
					"name": "",
					"type": "uint256"
				}
			],
			"name": "winnerLottery1",
			"outputs": [
				{
					"internalType": "address",
					"name": "",
					"type": "address"
				}
			],
			"stateMutability": "view",
			"type": "function"
		},
		{
			"inputs": [
				{
					"internalType": "uint256",
					"name": "",
					"type": "uint256"
				}
			],
			"name": "winnerLottery2",
			"outputs": [
				{
					"internalType": "address",
					"name": "",
					"type": "address"
				}
			],
			"stateMutability": "view",
			"type": "function"
		}
	]
}